{
	"ERC721.sol": {
		"ERC721": {
			"abi": [
				{
					"inputs": [
						{
							"internalType": "string",
							"name": "name_",
							"type": "string"
						},
						{
							"internalType": "string",
							"name": "symbol_",
							"type": "string"
						}
					],
					"stateMutability": "nonpayable",
					"type": "constructor"
				},
				{
					"anonymous": false,
					"inputs": [
						{
							"indexed": true,
							"internalType": "address",
							"name": "owner",
							"type": "address"
						},
						{
							"indexed": true,
							"internalType": "address",
							"name": "approved",
							"type": "address"
						},
						{
							"indexed": true,
							"internalType": "uint256",
							"name": "tokenId",
							"type": "uint256"
						}
					],
					"name": "Approval",
					"type": "event"
				},
				{
					"anonymous": false,
					"inputs": [
						{
							"indexed": true,
							"internalType": "address",
							"name": "owner",
							"type": "address"
						},
						{
							"indexed": true,
							"internalType": "address",
							"name": "operator",
							"type": "address"
						},
						{
							"indexed": false,
							"internalType": "bool",
							"name": "approved",
							"type": "bool"
						}
					],
					"name": "ApprovalForAll",
					"type": "event"
				},
				{
					"anonymous": false,
					"inputs": [
						{
							"indexed": true,
							"internalType": "address",
							"name": "previousOwner",
							"type": "address"
						},
						{
							"indexed": true,
							"internalType": "address",
							"name": "newOwner",
							"type": "address"
						}
					],
					"name": "OwnershipTransferred",
					"type": "event"
				},
				{
					"anonymous": false,
					"inputs": [],
					"name": "Pause",
					"type": "event"
				},
				{
					"anonymous": false,
					"inputs": [
						{
							"indexed": true,
							"internalType": "address",
							"name": "from",
							"type": "address"
						},
						{
							"indexed": true,
							"internalType": "address",
							"name": "to",
							"type": "address"
						},
						{
							"indexed": true,
							"internalType": "uint256",
							"name": "tokenId",
							"type": "uint256"
						}
					],
					"name": "Transfer",
					"type": "event"
				},
				{
					"anonymous": false,
					"inputs": [],
					"name": "Unpause",
					"type": "event"
				},
				{
					"inputs": [
						{
							"internalType": "address",
							"name": "to",
							"type": "address"
						},
						{
							"internalType": "uint256",
							"name": "tokenId",
							"type": "uint256"
						}
					],
					"name": "approve",
					"outputs": [],
					"stateMutability": "nonpayable",
					"type": "function"
				},
				{
					"inputs": [
						{
							"internalType": "address",
							"name": "owner",
							"type": "address"
						}
					],
					"name": "balanceOf",
					"outputs": [
						{
							"internalType": "uint256",
							"name": "",
							"type": "uint256"
						}
					],
					"stateMutability": "view",
					"type": "function"
				},
				{
					"inputs": [],
					"name": "decimals",
					"outputs": [
						{
							"internalType": "uint8",
							"name": "",
							"type": "uint8"
						}
					],
					"stateMutability": "view",
					"type": "function"
				},
				{
					"inputs": [
						{
							"internalType": "uint256",
							"name": "tokenId",
							"type": "uint256"
						}
					],
					"name": "getApproved",
					"outputs": [
						{
							"internalType": "address",
							"name": "",
							"type": "address"
						}
					],
					"stateMutability": "view",
					"type": "function"
				},
				{
					"inputs": [
						{
							"internalType": "address",
							"name": "owner",
							"type": "address"
						},
						{
							"internalType": "address",
							"name": "operator",
							"type": "address"
						}
					],
					"name": "isApprovedForAll",
					"outputs": [
						{
							"internalType": "bool",
							"name": "",
							"type": "bool"
						}
					],
					"stateMutability": "view",
					"type": "function"
				},
				{
					"inputs": [],
					"name": "isOwner",
					"outputs": [
						{
							"internalType": "bool",
							"name": "",
							"type": "bool"
						}
					],
					"stateMutability": "view",
					"type": "function"
				},
				{
					"inputs": [],
					"name": "name",
					"outputs": [
						{
							"internalType": "string",
							"name": "",
							"type": "string"
						}
					],
					"stateMutability": "view",
					"type": "function"
				},
				{
					"inputs": [],
					"name": "owner",
					"outputs": [
						{
							"internalType": "address",
							"name": "",
							"type": "address"
						}
					],
					"stateMutability": "view",
					"type": "function"
				},
				{
					"inputs": [
						{
							"internalType": "uint256",
							"name": "tokenId",
							"type": "uint256"
						}
					],
					"name": "ownerOf",
					"outputs": [
						{
							"internalType": "address",
							"name": "",
							"type": "address"
						}
					],
					"stateMutability": "view",
					"type": "function"
				},
				{
					"inputs": [],
					"name": "pause",
					"outputs": [
						{
							"internalType": "bool",
							"name": "",
							"type": "bool"
						}
					],
					"stateMutability": "nonpayable",
					"type": "function"
				},
				{
					"inputs": [],
					"name": "paused",
					"outputs": [
						{
							"internalType": "bool",
							"name": "",
							"type": "bool"
						}
					],
					"stateMutability": "view",
					"type": "function"
				},
				{
					"inputs": [],
					"name": "renounceOwnership",
					"outputs": [],
					"stateMutability": "nonpayable",
					"type": "function"
				},
				{
					"inputs": [
						{
							"internalType": "address",
							"name": "from",
							"type": "address"
						},
						{
							"internalType": "address",
							"name": "to",
							"type": "address"
						},
						{
							"internalType": "uint256",
							"name": "tokenId",
							"type": "uint256"
						}
					],
					"name": "safeTransferFrom",
					"outputs": [],
					"stateMutability": "nonpayable",
					"type": "function"
				},
				{
					"inputs": [
						{
							"internalType": "address",
							"name": "from",
							"type": "address"
						},
						{
							"internalType": "address",
							"name": "to",
							"type": "address"
						},
						{
							"internalType": "uint256",
							"name": "tokenId",
							"type": "uint256"
						},
						{
							"internalType": "bytes",
							"name": "_data",
							"type": "bytes"
						}
					],
					"name": "safeTransferFrom",
					"outputs": [],
					"stateMutability": "nonpayable",
					"type": "function"
				},
				{
					"inputs": [
						{
							"internalType": "address",
							"name": "operator",
							"type": "address"
						},
						{
							"internalType": "bool",
							"name": "approved",
							"type": "bool"
						}
					],
					"name": "setApprovalForAll",
					"outputs": [],
					"stateMutability": "nonpayable",
					"type": "function"
				},
				{
					"inputs": [
						{
							"internalType": "bytes4",
							"name": "interfaceId",
							"type": "bytes4"
						}
					],
					"name": "supportsInterface",
					"outputs": [
						{
							"internalType": "bool",
							"name": "",
							"type": "bool"
						}
					],
					"stateMutability": "view",
					"type": "function"
				},
				{
					"inputs": [],
					"name": "symbol",
					"outputs": [
						{
							"internalType": "string",
							"name": "",
							"type": "string"
						}
					],
					"stateMutability": "view",
					"type": "function"
				},
				{
					"inputs": [
						{
							"internalType": "uint256",
							"name": "tokenId",
							"type": "uint256"
						}
					],
					"name": "tokenURI",
					"outputs": [
						{
							"internalType": "string",
							"name": "",
							"type": "string"
						}
					],
					"stateMutability": "view",
					"type": "function"
				},
				{
					"inputs": [
						{
							"internalType": "address",
							"name": "from",
							"type": "address"
						},
						{
							"internalType": "address",
							"name": "to",
							"type": "address"
						},
						{
							"internalType": "uint256",
							"name": "tokenId",
							"type": "uint256"
						}
					],
					"name": "transferFrom",
					"outputs": [],
					"stateMutability": "nonpayable",
					"type": "function"
				},
				{
					"inputs": [
						{
							"internalType": "address",
							"name": "newOwner",
							"type": "address"
						}
					],
					"name": "transferOwnership",
					"outputs": [],
					"stateMutability": "nonpayable",
					"type": "function"
				},
				{
					"inputs": [],
					"name": "unpause",
					"outputs": [
						{
							"internalType": "bool",
							"name": "",
							"type": "bool"
						}
					],
					"stateMutability": "nonpayable",
					"type": "function"
				}
			],
			"devdoc": {
				"details": "Implementation of https://eips.ethereum.org/EIPS/eip-721[ERC721] Non-Fungible Token Standard, including the Metadata extension, but not including the Enumerable extension, which is available separately as {ERC721Enumerable}.",
				"kind": "dev",
				"methods": {
					"approve(address,uint256)": {
						"details": "See {IERC721-approve}."
					},
					"balanceOf(address)": {
						"details": "See {IERC721-balanceOf}."
					},
					"constructor": {
						"details": "Initializes the contract by setting a `name` and a `symbol` to the token collection."
					},
					"decimals()": {
						"details": "Returns the number of decimals used to get its user representation. For example, if `decimals` equals `2`, a balance of `505` tokens should be displayed to a user as `5,05` (`505 / 10 ** 2`). Tokens usually opt for a value of 18, imitating the relationship between Ether and Wei. NOTE: This information is only used for _display_ purposes: it in no way affects any of the arithmetic of the contract, including {IBEP20-balanceOf} and {IBEP20-transfer}."
					},
					"getApproved(uint256)": {
						"details": "See {IERC721-getApproved}."
					},
					"isApprovedForAll(address,address)": {
						"details": "See {IERC721-isApprovedForAll}."
					},
					"isOwner()": {
						"details": "Returns true if the caller is the current owner."
					},
					"name()": {
						"details": "See {IERC721Metadata-name}."
					},
					"owner()": {
						"details": "Returns the address of the current owner."
					},
					"ownerOf(uint256)": {
						"details": "See {IERC721-ownerOf}."
					},
					"pause()": {
						"details": "called by the owner to pause, triggers stopped state"
					},
					"renounceOwnership()": {
						"details": "Leaves the contract without owner. It will not be possible to call `onlyOwner` functions anymore. Can only be called by the current owner. NOTE: Renouncing ownership will leave the contract without an owner, thereby removing any functionality that is only available to the owner."
					},
					"safeTransferFrom(address,address,uint256)": {
						"details": "See {IERC721-safeTransferFrom}."
					},
					"safeTransferFrom(address,address,uint256,bytes)": {
						"details": "See {IERC721-safeTransferFrom}."
					},
					"setApprovalForAll(address,bool)": {
						"details": "See {IERC721-setApprovalForAll}."
					},
					"supportsInterface(bytes4)": {
						"details": "See {IERC165-supportsInterface}."
					},
					"symbol()": {
						"details": "See {IERC721Metadata-symbol}."
					},
					"tokenURI(uint256)": {
						"details": "See {IERC721Metadata-tokenURI}."
					},
					"transferFrom(address,address,uint256)": {
						"details": "See {IERC721-transferFrom}."
					},
					"transferOwnership(address)": {
						"details": "Transfers ownership of the contract to a new account (`newOwner`). Can only be called by the current owner."
					},
					"unpause()": {
						"details": "called by the owner to unpause, returns to normal state"
					}
				},
				"version": 1
			},
			"evm": {
				"assembly": "    /* \"ERC721.sol\":578:14977  contract ERC721 is BEPContext, ERC165, IERC721, IERC721Metadata, BEPPausable {... */\n  mstore(0x40, 0x80)\n    /* \"BEPPausable.sol\":293:298  false */\n  0x00\n    /* \"BEPPausable.sol\":272:298  bool public paused = false */\n  dup1\n  exp(0x0100, 0x14)\n  dup2\n  sload\n  dup2\n  0xff\n  mul\n  not\n  and\n  swap1\n  dup4\n  iszero\n  iszero\n  mul\n  or\n  swap1\n  sstore\n  pop\n    /* \"ERC721.sol\":1356:1469  constructor(string memory name_, string memory symbol_) {... */\n  callvalue\n  dup1\n  iszero\n  tag_1\n  jumpi\n  0x00\n  dup1\n  revert\ntag_1:\n  pop\n  mload(0x40)\n  sub(codesize, bytecodeSize)\n  dup1\n  bytecodeSize\n  dup4\n  codecopy\n  dup2\n  dup2\n  add\n  0x40\n  mstore\n  dup2\n  add\n  swap1\n  tag_2\n  swap2\n  swap1\n  tag_3\n  jump\t// in\ntag_2:\n    /* \"BEPOwnable.sol\":716:733  address msgSender */\n  0x00\n    /* \"BEPOwnable.sol\":736:748  _msgSender() */\n  tag_9\n    /* \"BEPOwnable.sol\":736:746  _msgSender */\n  shl(0x20, tag_10)\n    /* \"BEPOwnable.sol\":736:748  _msgSender() */\n  0x20\n  shr\n  jump\t// in\ntag_9:\n    /* \"BEPOwnable.sol\":716:748  address msgSender = _msgSender() */\n  swap1\n  pop\n    /* \"BEPOwnable.sol\":763:772  msgSender */\n  dup1\n    /* \"BEPOwnable.sol\":754:760  _owner */\n  0x00\n  dup1\n    /* \"BEPOwnable.sol\":754:772  _owner = msgSender */\n  0x0100\n  exp\n  dup2\n  sload\n  dup2\n  0xffffffffffffffffffffffffffffffffffffffff\n  mul\n  not\n  and\n  swap1\n  dup4\n  0xffffffffffffffffffffffffffffffffffffffff\n  and\n  mul\n  or\n  swap1\n  sstore\n  pop\n    /* \"BEPOwnable.sol\":816:825  msgSender */\n  dup1\n    /* \"BEPOwnable.sol\":783:826  OwnershipTransferred(address(0), msgSender) */\n  0xffffffffffffffffffffffffffffffffffffffff\n  and\n    /* \"BEPOwnable.sol\":812:813  0 */\n  0x00\n    /* \"BEPOwnable.sol\":783:826  OwnershipTransferred(address(0), msgSender) */\n  0xffffffffffffffffffffffffffffffffffffffff\n  and\n  0x8be0079c531659141344cd1fd0a4f28419497f9722a3daafe3b4186f6b6457e0\n  mload(0x40)\n  mload(0x40)\n  dup1\n  swap2\n  sub\n  swap1\n  log3\n    /* \"BEPOwnable.sol\":710:831  {... */\n  pop\n    /* \"ERC721.sol\":1430:1435  name_ */\n  dup2\n    /* \"ERC721.sol\":1422:1427  _name */\n  0x01\n    /* \"ERC721.sol\":1422:1435  _name = name_ */\n  swap1\n  dup1\n  mload\n  swap1\n  0x20\n  add\n  swap1\n  tag_12\n  swap3\n  swap2\n  swap1\n  tag_13\n  jump\t// in\ntag_12:\n  pop\n    /* \"ERC721.sol\":1455:1462  symbol_ */\n  dup1\n    /* \"ERC721.sol\":1445:1452  _symbol */\n  0x02\n    /* \"ERC721.sol\":1445:1462  _symbol = symbol_ */\n  swap1\n  dup1\n  mload\n  swap1\n  0x20\n  add\n  swap1\n  tag_14\n  swap3\n  swap2\n  swap1\n  tag_13\n  jump\t// in\ntag_14:\n  pop\n    /* \"ERC721.sol\":1356:1469  constructor(string memory name_, string memory symbol_) {... */\n  pop\n  pop\n    /* \"ERC721.sol\":578:14977  contract ERC721 is BEPContext, ERC165, IERC721, IERC721Metadata, BEPPausable {... */\n  jump(tag_15)\n    /* \"BEPContext.sol\":760:859  function _msgSender() internal view returns (address payable) {... */\ntag_10:\n    /* \"BEPContext.sol\":805:820  address payable */\n  0x00\n    /* \"BEPContext.sol\":843:853  msg.sender */\n  caller\n    /* \"BEPContext.sol\":828:854  return payable(msg.sender) */\n  swap1\n  pop\n    /* \"BEPContext.sol\":760:859  function _msgSender() internal view returns (address payable) {... */\n  swap1\n  jump\t// out\n    /* \"ERC721.sol\":578:14977  contract ERC721 is BEPContext, ERC165, IERC721, IERC721Metadata, BEPPausable {... */\ntag_13:\n  dup3\n  dup1\n  sload\n  tag_17\n  swap1\n  tag_18\n  jump\t// in\ntag_17:\n  swap1\n  0x00\n  mstore\n  keccak256(0x00, 0x20)\n  swap1\n  0x1f\n  add\n  0x20\n  swap1\n  div\n  dup2\n  add\n  swap3\n  dup3\n  tag_20\n  jumpi\n  0x00\n  dup6\n  sstore\n  jump(tag_19)\ntag_20:\n  dup3\n  0x1f\n  lt\n  tag_21\n  jumpi\n  dup1\n  mload\n  not(0xff)\n  and\n  dup4\n  dup1\n  add\n  or\n  dup6\n  sstore\n  jump(tag_19)\ntag_21:\n  dup3\n  dup1\n  add\n  0x01\n  add\n  dup6\n  sstore\n  dup3\n  iszero\n  tag_19\n  jumpi\n  swap2\n  dup3\n  add\ntag_22:\n  dup3\n  dup2\n  gt\n  iszero\n  tag_23\n  jumpi\n  dup3\n  mload\n  dup3\n  sstore\n  swap2\n  0x20\n  add\n  swap2\n  swap1\n  0x01\n  add\n  swap1\n  jump(tag_22)\ntag_23:\ntag_19:\n  pop\n  swap1\n  pop\n  tag_24\n  swap2\n  swap1\n  tag_25\n  jump\t// in\ntag_24:\n  pop\n  swap1\n  jump\t// out\ntag_25:\ntag_26:\n  dup1\n  dup3\n  gt\n  iszero\n  tag_27\n  jumpi\n  0x00\n  dup2\n  0x00\n  swap1\n  sstore\n  pop\n  0x01\n  add\n  jump(tag_26)\ntag_27:\n  pop\n  swap1\n  jump\t// out\n    /* \"#utility.yul\":7:428   */\ntag_29:\n    /* \"#utility.yul\":96:101   */\n  0x00\n    /* \"#utility.yul\":121:187   */\n  tag_31\n    /* \"#utility.yul\":137:186   */\n  tag_32\n    /* \"#utility.yul\":179:185   */\n  dup5\n    /* \"#utility.yul\":137:186   */\n  tag_33\n  jump\t// in\ntag_32:\n    /* \"#utility.yul\":121:187   */\n  tag_34\n  jump\t// in\ntag_31:\n    /* \"#utility.yul\":112:187   */\n  swap1\n  pop\n    /* \"#utility.yul\":210:216   */\n  dup3\n    /* \"#utility.yul\":203:208   */\n  dup2\n    /* \"#utility.yul\":196:217   */\n  mstore\n    /* \"#utility.yul\":248:252   */\n  0x20\n    /* \"#utility.yul\":241:246   */\n  dup2\n    /* \"#utility.yul\":237:253   */\n  add\n    /* \"#utility.yul\":286:289   */\n  dup5\n    /* \"#utility.yul\":277:283   */\n  dup5\n    /* \"#utility.yul\":272:275   */\n  dup5\n    /* \"#utility.yul\":268:284   */\n  add\n    /* \"#utility.yul\":265:290   */\n  gt\n    /* \"#utility.yul\":262:374   */\n  iszero\n  tag_35\n  jumpi\n    /* \"#utility.yul\":293:372   */\n  tag_36\n  tag_37\n  jump\t// in\ntag_36:\n    /* \"#utility.yul\":262:374   */\ntag_35:\n    /* \"#utility.yul\":383:422   */\n  tag_38\n    /* \"#utility.yul\":415:421   */\n  dup5\n    /* \"#utility.yul\":410:413   */\n  dup3\n    /* \"#utility.yul\":405:408   */\n  dup6\n    /* \"#utility.yul\":383:422   */\n  tag_39\n  jump\t// in\ntag_38:\n    /* \"#utility.yul\":102:428   */\n  pop\n    /* \"#utility.yul\":7:428   */\n  swap4\n  swap3\n  pop\n  pop\n  pop\n  jump\t// out\n    /* \"#utility.yul\":448:803   */\ntag_40:\n    /* \"#utility.yul\":515:520   */\n  0x00\n    /* \"#utility.yul\":564:567   */\n  dup3\n    /* \"#utility.yul\":557:561   */\n  0x1f\n    /* \"#utility.yul\":549:555   */\n  dup4\n    /* \"#utility.yul\":545:562   */\n  add\n    /* \"#utility.yul\":541:568   */\n  slt\n    /* \"#utility.yul\":531:653   */\n  tag_42\n  jumpi\n    /* \"#utility.yul\":572:651   */\n  tag_43\n  tag_44\n  jump\t// in\ntag_43:\n    /* \"#utility.yul\":531:653   */\ntag_42:\n    /* \"#utility.yul\":682:688   */\n  dup2\n    /* \"#utility.yul\":676:689   */\n  mload\n    /* \"#utility.yul\":707:797   */\n  tag_45\n    /* \"#utility.yul\":793:796   */\n  dup5\n    /* \"#utility.yul\":785:791   */\n  dup3\n    /* \"#utility.yul\":778:782   */\n  0x20\n    /* \"#utility.yul\":770:776   */\n  dup7\n    /* \"#utility.yul\":766:783   */\n  add\n    /* \"#utility.yul\":707:797   */\n  tag_29\n  jump\t// in\ntag_45:\n    /* \"#utility.yul\":698:797   */\n  swap2\n  pop\n    /* \"#utility.yul\":521:803   */\n  pop\n    /* \"#utility.yul\":448:803   */\n  swap3\n  swap2\n  pop\n  pop\n  jump\t// out\n    /* \"#utility.yul\":809:1662   */\ntag_3:\n    /* \"#utility.yul\":908:914   */\n  0x00\n    /* \"#utility.yul\":916:922   */\n  dup1\n    /* \"#utility.yul\":965:967   */\n  0x40\n    /* \"#utility.yul\":953:962   */\n  dup4\n    /* \"#utility.yul\":944:951   */\n  dup6\n    /* \"#utility.yul\":940:963   */\n  sub\n    /* \"#utility.yul\":936:968   */\n  slt\n    /* \"#utility.yul\":933:1052   */\n  iszero\n  tag_47\n  jumpi\n    /* \"#utility.yul\":971:1050   */\n  tag_48\n  tag_49\n  jump\t// in\ntag_48:\n    /* \"#utility.yul\":933:1052   */\ntag_47:\n    /* \"#utility.yul\":1112:1113   */\n  0x00\n    /* \"#utility.yul\":1101:1110   */\n  dup4\n    /* \"#utility.yul\":1097:1114   */\n  add\n    /* \"#utility.yul\":1091:1115   */\n  mload\n    /* \"#utility.yul\":1142:1160   */\n  0xffffffffffffffff\n    /* \"#utility.yul\":1134:1140   */\n  dup2\n    /* \"#utility.yul\":1131:1161   */\n  gt\n    /* \"#utility.yul\":1128:1245   */\n  iszero\n  tag_50\n  jumpi\n    /* \"#utility.yul\":1164:1243   */\n  tag_51\n  tag_52\n  jump\t// in\ntag_51:\n    /* \"#utility.yul\":1128:1245   */\ntag_50:\n    /* \"#utility.yul\":1269:1343   */\n  tag_53\n    /* \"#utility.yul\":1335:1342   */\n  dup6\n    /* \"#utility.yul\":1326:1332   */\n  dup3\n    /* \"#utility.yul\":1315:1324   */\n  dup7\n    /* \"#utility.yul\":1311:1333   */\n  add\n    /* \"#utility.yul\":1269:1343   */\n  tag_40\n  jump\t// in\ntag_53:\n    /* \"#utility.yul\":1259:1343   */\n  swap3\n  pop\n    /* \"#utility.yul\":1062:1353   */\n  pop\n    /* \"#utility.yul\":1413:1415   */\n  0x20\n    /* \"#utility.yul\":1402:1411   */\n  dup4\n    /* \"#utility.yul\":1398:1416   */\n  add\n    /* \"#utility.yul\":1392:1417   */\n  mload\n    /* \"#utility.yul\":1444:1462   */\n  0xffffffffffffffff\n    /* \"#utility.yul\":1436:1442   */\n  dup2\n    /* \"#utility.yul\":1433:1463   */\n  gt\n    /* \"#utility.yul\":1430:1547   */\n  iszero\n  tag_54\n  jumpi\n    /* \"#utility.yul\":1466:1545   */\n  tag_55\n  tag_52\n  jump\t// in\ntag_55:\n    /* \"#utility.yul\":1430:1547   */\ntag_54:\n    /* \"#utility.yul\":1571:1645   */\n  tag_56\n    /* \"#utility.yul\":1637:1644   */\n  dup6\n    /* \"#utility.yul\":1628:1634   */\n  dup3\n    /* \"#utility.yul\":1617:1626   */\n  dup7\n    /* \"#utility.yul\":1613:1635   */\n  add\n    /* \"#utility.yul\":1571:1645   */\n  tag_40\n  jump\t// in\ntag_56:\n    /* \"#utility.yul\":1561:1645   */\n  swap2\n  pop\n    /* \"#utility.yul\":1363:1655   */\n  pop\n    /* \"#utility.yul\":809:1662   */\n  swap3\n  pop\n  swap3\n  swap1\n  pop\n  jump\t// out\n    /* \"#utility.yul\":1668:1797   */\ntag_34:\n    /* \"#utility.yul\":1702:1708   */\n  0x00\n    /* \"#utility.yul\":1729:1749   */\n  tag_58\n  tag_59\n  jump\t// in\ntag_58:\n    /* \"#utility.yul\":1719:1749   */\n  swap1\n  pop\n    /* \"#utility.yul\":1758:1791   */\n  tag_60\n    /* \"#utility.yul\":1786:1790   */\n  dup3\n    /* \"#utility.yul\":1778:1784   */\n  dup3\n    /* \"#utility.yul\":1758:1791   */\n  tag_61\n  jump\t// in\ntag_60:\n    /* \"#utility.yul\":1668:1797   */\n  swap2\n  swap1\n  pop\n  jump\t// out\n    /* \"#utility.yul\":1803:1878   */\ntag_59:\n    /* \"#utility.yul\":1836:1842   */\n  0x00\n    /* \"#utility.yul\":1869:1871   */\n  0x40\n    /* \"#utility.yul\":1863:1872   */\n  mload\n    /* \"#utility.yul\":1853:1872   */\n  swap1\n  pop\n    /* \"#utility.yul\":1803:1878   */\n  swap1\n  jump\t// out\n    /* \"#utility.yul\":1884:2192   */\ntag_33:\n    /* \"#utility.yul\":1946:1950   */\n  0x00\n    /* \"#utility.yul\":2036:2054   */\n  0xffffffffffffffff\n    /* \"#utility.yul\":2028:2034   */\n  dup3\n    /* \"#utility.yul\":2025:2055   */\n  gt\n    /* \"#utility.yul\":2022:2078   */\n  iszero\n  tag_64\n  jumpi\n    /* \"#utility.yul\":2058:2076   */\n  tag_65\n  tag_66\n  jump\t// in\ntag_65:\n    /* \"#utility.yul\":2022:2078   */\ntag_64:\n    /* \"#utility.yul\":2096:2125   */\n  tag_67\n    /* \"#utility.yul\":2118:2124   */\n  dup3\n    /* \"#utility.yul\":2096:2125   */\n  tag_68\n  jump\t// in\ntag_67:\n    /* \"#utility.yul\":2088:2125   */\n  swap1\n  pop\n    /* \"#utility.yul\":2180:2184   */\n  0x20\n    /* \"#utility.yul\":2174:2178   */\n  dup2\n    /* \"#utility.yul\":2170:2185   */\n  add\n    /* \"#utility.yul\":2162:2185   */\n  swap1\n  pop\n    /* \"#utility.yul\":1884:2192   */\n  swap2\n  swap1\n  pop\n  jump\t// out\n    /* \"#utility.yul\":2198:2505   */\ntag_39:\n    /* \"#utility.yul\":2266:2267   */\n  0x00\n    /* \"#utility.yul\":2276:2389   */\ntag_70:\n    /* \"#utility.yul\":2290:2296   */\n  dup4\n    /* \"#utility.yul\":2287:2288   */\n  dup2\n    /* \"#utility.yul\":2284:2297   */\n  lt\n    /* \"#utility.yul\":2276:2389   */\n  iszero\n  tag_72\n  jumpi\n    /* \"#utility.yul\":2375:2376   */\n  dup1\n    /* \"#utility.yul\":2370:2373   */\n  dup3\n    /* \"#utility.yul\":2366:2377   */\n  add\n    /* \"#utility.yul\":2360:2378   */\n  mload\n    /* \"#utility.yul\":2356:2357   */\n  dup2\n    /* \"#utility.yul\":2351:2354   */\n  dup5\n    /* \"#utility.yul\":2347:2358   */\n  add\n    /* \"#utility.yul\":2340:2379   */\n  mstore\n    /* \"#utility.yul\":2312:2314   */\n  0x20\n    /* \"#utility.yul\":2309:2310   */\n  dup2\n    /* \"#utility.yul\":2305:2315   */\n  add\n    /* \"#utility.yul\":2300:2315   */\n  swap1\n  pop\n    /* \"#utility.yul\":2276:2389   */\n  jump(tag_70)\ntag_72:\n    /* \"#utility.yul\":2407:2413   */\n  dup4\n    /* \"#utility.yul\":2404:2405   */\n  dup2\n    /* \"#utility.yul\":2401:2414   */\n  gt\n    /* \"#utility.yul\":2398:2499   */\n  iszero\n  tag_73\n  jumpi\n    /* \"#utility.yul\":2487:2488   */\n  0x00\n    /* \"#utility.yul\":2478:2484   */\n  dup5\n    /* \"#utility.yul\":2473:2476   */\n  dup5\n    /* \"#utility.yul\":2469:2485   */\n  add\n    /* \"#utility.yul\":2462:2489   */\n  mstore\n    /* \"#utility.yul\":2398:2499   */\ntag_73:\n    /* \"#utility.yul\":2247:2505   */\n  pop\n    /* \"#utility.yul\":2198:2505   */\n  pop\n  pop\n  pop\n  jump\t// out\n    /* \"#utility.yul\":2511:2831   */\ntag_18:\n    /* \"#utility.yul\":2555:2561   */\n  0x00\n    /* \"#utility.yul\":2592:2593   */\n  0x02\n    /* \"#utility.yul\":2586:2590   */\n  dup3\n    /* \"#utility.yul\":2582:2594   */\n  div\n    /* \"#utility.yul\":2572:2594   */\n  swap1\n  pop\n    /* \"#utility.yul\":2639:2640   */\n  0x01\n    /* \"#utility.yul\":2633:2637   */\n  dup3\n    /* \"#utility.yul\":2629:2641   */\n  and\n    /* \"#utility.yul\":2660:2678   */\n  dup1\n    /* \"#utility.yul\":2650:2731   */\n  tag_75\n  jumpi\n    /* \"#utility.yul\":2716:2720   */\n  0x7f\n    /* \"#utility.yul\":2708:2714   */\n  dup3\n    /* \"#utility.yul\":2704:2721   */\n  and\n    /* \"#utility.yul\":2694:2721   */\n  swap2\n  pop\n    /* \"#utility.yul\":2650:2731   */\ntag_75:\n    /* \"#utility.yul\":2778:2780   */\n  0x20\n    /* \"#utility.yul\":2770:2776   */\n  dup3\n    /* \"#utility.yul\":2767:2781   */\n  lt\n    /* \"#utility.yul\":2747:2765   */\n  dup2\n    /* \"#utility.yul\":2744:2782   */\n  eq\n    /* \"#utility.yul\":2741:2825   */\n  iszero\n  tag_76\n  jumpi\n    /* \"#utility.yul\":2797:2815   */\n  tag_77\n  tag_78\n  jump\t// in\ntag_77:\n    /* \"#utility.yul\":2741:2825   */\ntag_76:\n    /* \"#utility.yul\":2562:2831   */\n  pop\n    /* \"#utility.yul\":2511:2831   */\n  swap2\n  swap1\n  pop\n  jump\t// out\n    /* \"#utility.yul\":2837:3118   */\ntag_61:\n    /* \"#utility.yul\":2920:2947   */\n  tag_80\n    /* \"#utility.yul\":2942:2946   */\n  dup3\n    /* \"#utility.yul\":2920:2947   */\n  tag_68\n  jump\t// in\ntag_80:\n    /* \"#utility.yul\":2912:2918   */\n  dup2\n    /* \"#utility.yul\":2908:2948   */\n  add\n    /* \"#utility.yul\":3050:3056   */\n  dup2\n    /* \"#utility.yul\":3038:3048   */\n  dup2\n    /* \"#utility.yul\":3035:3057   */\n  lt\n    /* \"#utility.yul\":3014:3032   */\n  0xffffffffffffffff\n    /* \"#utility.yul\":3002:3012   */\n  dup3\n    /* \"#utility.yul\":2999:3033   */\n  gt\n    /* \"#utility.yul\":2996:3058   */\n  or\n    /* \"#utility.yul\":2993:3081   */\n  iszero\n  tag_81\n  jumpi\n    /* \"#utility.yul\":3061:3079   */\n  tag_82\n  tag_66\n  jump\t// in\ntag_82:\n    /* \"#utility.yul\":2993:3081   */\ntag_81:\n    /* \"#utility.yul\":3101:3111   */\n  dup1\n    /* \"#utility.yul\":3097:3099   */\n  0x40\n    /* \"#utility.yul\":3090:3112   */\n  mstore\n    /* \"#utility.yul\":2880:3118   */\n  pop\n    /* \"#utility.yul\":2837:3118   */\n  pop\n  pop\n  jump\t// out\n    /* \"#utility.yul\":3124:3304   */\ntag_78:\n    /* \"#utility.yul\":3172:3249   */\n  0x4e487b7100000000000000000000000000000000000000000000000000000000\n    /* \"#utility.yul\":3169:3170   */\n  0x00\n    /* \"#utility.yul\":3162:3250   */\n  mstore\n    /* \"#utility.yul\":3269:3273   */\n  0x22\n    /* \"#utility.yul\":3266:3267   */\n  0x04\n    /* \"#utility.yul\":3259:3274   */\n  mstore\n    /* \"#utility.yul\":3293:3297   */\n  0x24\n    /* \"#utility.yul\":3290:3291   */\n  0x00\n    /* \"#utility.yul\":3283:3298   */\n  revert\n    /* \"#utility.yul\":3310:3490   */\ntag_66:\n    /* \"#utility.yul\":3358:3435   */\n  0x4e487b7100000000000000000000000000000000000000000000000000000000\n    /* \"#utility.yul\":3355:3356   */\n  0x00\n    /* \"#utility.yul\":3348:3436   */\n  mstore\n    /* \"#utility.yul\":3455:3459   */\n  0x41\n    /* \"#utility.yul\":3452:3453   */\n  0x04\n    /* \"#utility.yul\":3445:3460   */\n  mstore\n    /* \"#utility.yul\":3479:3483   */\n  0x24\n    /* \"#utility.yul\":3476:3477   */\n  0x00\n    /* \"#utility.yul\":3469:3484   */\n  revert\n    /* \"#utility.yul\":3496:3613   */\ntag_44:\n    /* \"#utility.yul\":3605:3606   */\n  0x00\n    /* \"#utility.yul\":3602:3603   */\n  dup1\n    /* \"#utility.yul\":3595:3607   */\n  revert\n    /* \"#utility.yul\":3619:3736   */\ntag_37:\n    /* \"#utility.yul\":3728:3729   */\n  0x00\n    /* \"#utility.yul\":3725:3726   */\n  dup1\n    /* \"#utility.yul\":3718:3730   */\n  revert\n    /* \"#utility.yul\":3742:3859   */\ntag_52:\n    /* \"#utility.yul\":3851:3852   */\n  0x00\n    /* \"#utility.yul\":3848:3849   */\n  dup1\n    /* \"#utility.yul\":3841:3853   */\n  revert\n    /* \"#utility.yul\":3865:3982   */\ntag_49:\n    /* \"#utility.yul\":3974:3975   */\n  0x00\n    /* \"#utility.yul\":3971:3972   */\n  dup1\n    /* \"#utility.yul\":3964:3976   */\n  revert\n    /* \"#utility.yul\":3988:4090   */\ntag_68:\n    /* \"#utility.yul\":4029:4035   */\n  0x00\n    /* \"#utility.yul\":4080:4082   */\n  0x1f\n    /* \"#utility.yul\":4076:4083   */\n  not\n    /* \"#utility.yul\":4071:4073   */\n  0x1f\n    /* \"#utility.yul\":4064:4069   */\n  dup4\n    /* \"#utility.yul\":4060:4074   */\n  add\n    /* \"#utility.yul\":4056:4084   */\n  and\n    /* \"#utility.yul\":4046:4084   */\n  swap1\n  pop\n    /* \"#utility.yul\":3988:4090   */\n  swap2\n  swap1\n  pop\n  jump\t// out\n    /* \"ERC721.sol\":578:14977  contract ERC721 is BEPContext, ERC165, IERC721, IERC721Metadata, BEPPausable {... */\ntag_15:\n  dataSize(sub_0)\n  dup1\n  dataOffset(sub_0)\n  0x00\n  codecopy\n  0x00\n  return\nstop\n\nsub_0: assembly {\n        /* \"ERC721.sol\":578:14977  contract ERC721 is BEPContext, ERC165, IERC721, IERC721Metadata, BEPPausable {... */\n      mstore(0x40, 0x80)\n      callvalue\n      dup1\n      iszero\n      tag_1\n      jumpi\n      0x00\n      dup1\n      revert\n    tag_1:\n      pop\n      jumpi(tag_2, lt(calldatasize, 0x04))\n      shr(0xe0, calldataload(0x00))\n      dup1\n      0x70a08231\n      gt\n      tag_24\n      jumpi\n      dup1\n      0x95d89b41\n      gt\n      tag_25\n      jumpi\n      dup1\n      0x95d89b41\n      eq\n      tag_18\n      jumpi\n      dup1\n      0xa22cb465\n      eq\n      tag_19\n      jumpi\n      dup1\n      0xb88d4fde\n      eq\n      tag_20\n      jumpi\n      dup1\n      0xc87b56dd\n      eq\n      tag_21\n      jumpi\n      dup1\n      0xe985e9c5\n      eq\n      tag_22\n      jumpi\n      dup1\n      0xf2fde38b\n      eq\n      tag_23\n      jumpi\n      jump(tag_2)\n    tag_25:\n      dup1\n      0x70a08231\n      eq\n      tag_13\n      jumpi\n      dup1\n      0x715018a6\n      eq\n      tag_14\n      jumpi\n      dup1\n      0x8456cb59\n      eq\n      tag_15\n      jumpi\n      dup1\n      0x8da5cb5b\n      eq\n      tag_16\n      jumpi\n      dup1\n      0x8f32d59b\n      eq\n      tag_17\n      jumpi\n      jump(tag_2)\n    tag_24:\n      dup1\n      0x313ce567\n      gt\n      tag_26\n      jumpi\n      dup1\n      0x313ce567\n      eq\n      tag_8\n      jumpi\n      dup1\n      0x3f4ba83a\n      eq\n      tag_9\n      jumpi\n      dup1\n      0x42842e0e\n      eq\n      tag_10\n      jumpi\n      dup1\n      0x5c975abb\n      eq\n      tag_11\n      jumpi\n      dup1\n      0x6352211e\n      eq\n      tag_12\n      jumpi\n      jump(tag_2)\n    tag_26:\n      dup1\n      0x01ffc9a7\n      eq\n      tag_3\n      jumpi\n      dup1\n      0x06fdde03\n      eq\n      tag_4\n      jumpi\n      dup1\n      0x081812fc\n      eq\n      tag_5\n      jumpi\n      dup1\n      0x095ea7b3\n      eq\n      tag_6\n      jumpi\n      dup1\n      0x23b872dd\n      eq\n      tag_7\n      jumpi\n    tag_2:\n      0x00\n      dup1\n      revert\n        /* \"ERC721.sol\":1536:1836  function supportsInterface(bytes4 interfaceId) public view virtual override(ERC165, IERC165) returns (bool) {... */\n    tag_3:\n      tag_27\n      0x04\n      dup1\n      calldatasize\n      sub\n      dup2\n      add\n      swap1\n      tag_28\n      swap2\n      swap1\n      tag_29\n      jump\t// in\n    tag_28:\n      tag_30\n      jump\t// in\n    tag_27:\n      mload(0x40)\n      tag_31\n      swap2\n      swap1\n      tag_32\n      jump\t// in\n    tag_31:\n      mload(0x40)\n      dup1\n      swap2\n      sub\n      swap1\n      return\n        /* \"ERC721.sol\":2454:2552  function name() public view virtual override returns (string memory) {... */\n    tag_4:\n      tag_33\n      tag_34\n      jump\t// in\n    tag_33:\n      mload(0x40)\n      tag_35\n      swap2\n      swap1\n      tag_36\n      jump\t// in\n    tag_35:\n      mload(0x40)\n      dup1\n      swap2\n      sub\n      swap1\n      return\n        /* \"ERC721.sol\":4605:4836  function getApproved(uint256 tokenId) public whenNotPaused view virtual override returns (address) {... */\n    tag_5:\n      tag_37\n      0x04\n      dup1\n      calldatasize\n      sub\n      dup2\n      add\n      swap1\n      tag_38\n      swap2\n      swap1\n      tag_39\n      jump\t// in\n    tag_38:\n      tag_40\n      jump\t// in\n    tag_37:\n      mload(0x40)\n      tag_41\n      swap2\n      swap1\n      tag_42\n      jump\t// in\n    tag_41:\n      mload(0x40)\n      dup1\n      swap2\n      sub\n      swap1\n      return\n        /* \"ERC721.sol\":4129:4544  function approve(address to, uint256 tokenId) public whenNotPaused virtual override {... */\n    tag_6:\n      tag_43\n      0x04\n      dup1\n      calldatasize\n      sub\n      dup2\n      add\n      swap1\n      tag_44\n      swap2\n      swap1\n      tag_45\n      jump\t// in\n    tag_44:\n      tag_46\n      jump\t// in\n    tag_43:\n      stop\n        /* \"ERC721.sol\":5374:5718  function transferFrom(... */\n    tag_7:\n      tag_47\n      0x04\n      dup1\n      calldatasize\n      sub\n      dup2\n      add\n      swap1\n      tag_48\n      swap2\n      swap1\n      tag_49\n      jump\t// in\n    tag_48:\n      tag_50\n      jump\t// in\n    tag_47:\n      stop\n        /* \"ERC721.sol\":3256:3344  function decimals() public view virtual returns (uint8) {... */\n    tag_8:\n      tag_51\n      tag_52\n      jump\t// in\n    tag_51:\n      mload(0x40)\n      tag_53\n      swap2\n      swap1\n      tag_54\n      jump\t// in\n    tag_53:\n      mload(0x40)\n      dup1\n      swap2\n      sub\n      swap1\n      return\n        /* \"BEPPausable.sol\":870:994  function unpause() public onlyOwner whenPaused returns (bool) {... */\n    tag_9:\n      tag_55\n      tag_56\n      jump\t// in\n    tag_55:\n      mload(0x40)\n      tag_57\n      swap2\n      swap1\n      tag_32\n      jump\t// in\n    tag_57:\n      mload(0x40)\n      dup1\n      swap2\n      sub\n      swap1\n      return\n        /* \"ERC721.sol\":5784:5977  function safeTransferFrom(... */\n    tag_10:\n      tag_58\n      0x04\n      dup1\n      calldatasize\n      sub\n      dup2\n      add\n      swap1\n      tag_59\n      swap2\n      swap1\n      tag_49\n      jump\t// in\n    tag_59:\n      tag_60\n      jump\t// in\n    tag_58:\n      stop\n        /* \"BEPPausable.sol\":272:298  bool public paused = false */\n    tag_11:\n      tag_61\n      tag_62\n      jump\t// in\n    tag_61:\n      mload(0x40)\n      tag_63\n      swap2\n      swap1\n      tag_32\n      jump\t// in\n    tag_63:\n      mload(0x40)\n      dup1\n      swap2\n      sub\n      swap1\n      return\n        /* \"ERC721.sol\":2157:2392  function ownerOf(uint256 tokenId) public view virtual override returns (address) {... */\n    tag_12:\n      tag_64\n      0x04\n      dup1\n      calldatasize\n      sub\n      dup2\n      add\n      swap1\n      tag_65\n      swap2\n      swap1\n      tag_39\n      jump\t// in\n    tag_65:\n      tag_66\n      jump\t// in\n    tag_64:\n      mload(0x40)\n      tag_67\n      swap2\n      swap1\n      tag_42\n      jump\t// in\n    tag_67:\n      mload(0x40)\n      dup1\n      swap2\n      sub\n      swap1\n      return\n        /* \"ERC721.sol\":1895:2100  function balanceOf(address owner) public view virtual override returns (uint256) {... */\n    tag_13:\n      tag_68\n      0x04\n      dup1\n      calldatasize\n      sub\n      dup2\n      add\n      swap1\n      tag_69\n      swap2\n      swap1\n      tag_70\n      jump\t// in\n    tag_69:\n      tag_71\n      jump\t// in\n    tag_68:\n      mload(0x40)\n      tag_72\n      swap2\n      swap1\n      tag_73\n      jump\t// in\n    tag_72:\n      mload(0x40)\n      dup1\n      swap2\n      sub\n      swap1\n      return\n        /* \"BEPOwnable.sol\":1630:1757  function renounceOwnership() public onlyOwner {... */\n    tag_14:\n      tag_74\n      tag_75\n      jump\t// in\n    tag_74:\n      stop\n        /* \"BEPPausable.sol\":666:788  function pause() public onlyOwner whenNotPaused returns (bool) {... */\n    tag_15:\n      tag_76\n      tag_77\n      jump\t// in\n    tag_76:\n      mload(0x40)\n      tag_78\n      swap2\n      swap1\n      tag_32\n      jump\t// in\n    tag_78:\n      mload(0x40)\n      dup1\n      swap2\n      sub\n      swap1\n      return\n        /* \"BEPOwnable.sol\":899:970  function owner() public view returns (address) {... */\n    tag_16:\n      tag_79\n      tag_80\n      jump\t// in\n    tag_79:\n      mload(0x40)\n      tag_81\n      swap2\n      swap1\n      tag_42\n      jump\t// in\n    tag_81:\n      mload(0x40)\n      dup1\n      swap2\n      sub\n      swap1\n      return\n        /* \"BEPOwnable.sol\":1218:1304  function isOwner() public view returns (bool) {... */\n    tag_17:\n      tag_82\n      tag_83\n      jump\t// in\n    tag_82:\n      mload(0x40)\n      tag_84\n      swap2\n      swap1\n      tag_32\n      jump\t// in\n    tag_84:\n      mload(0x40)\n      dup1\n      swap2\n      sub\n      swap1\n      return\n        /* \"ERC721.sol\":2616:2718  function symbol() public view virtual override returns (string memory) {... */\n    tag_18:\n      tag_85\n      tag_86\n      jump\t// in\n    tag_85:\n      mload(0x40)\n      tag_87\n      swap2\n      swap1\n      tag_36\n      jump\t// in\n    tag_87:\n      mload(0x40)\n      dup1\n      swap2\n      sub\n      swap1\n      return\n        /* \"ERC721.sol\":4903:5070  function setApprovalForAll(address operator, bool approved) public whenNotPaused virtual override {... */\n    tag_19:\n      tag_88\n      0x04\n      dup1\n      calldatasize\n      sub\n      dup2\n      add\n      swap1\n      tag_89\n      swap2\n      swap1\n      tag_90\n      jump\t// in\n    tag_89:\n      tag_91\n      jump\t// in\n    tag_88:\n      stop\n        /* \"ERC721.sol\":6043:6377  function safeTransferFrom(... */\n    tag_20:\n      tag_92\n      0x04\n      dup1\n      calldatasize\n      sub\n      dup2\n      add\n      swap1\n      tag_93\n      swap2\n      swap1\n      tag_94\n      jump\t// in\n    tag_93:\n      tag_95\n      jump\t// in\n    tag_92:\n      stop\n        /* \"ERC721.sol\":3410:3739  function tokenURI(uint256 tokenId) public view virtual override returns (string memory) {... */\n    tag_21:\n      tag_96\n      0x04\n      dup1\n      calldatasize\n      sub\n      dup2\n      add\n      swap1\n      tag_97\n      swap2\n      swap1\n      tag_39\n      jump\t// in\n    tag_97:\n      tag_98\n      jump\t// in\n    tag_96:\n      mload(0x40)\n      tag_99\n      swap2\n      swap1\n      tag_36\n      jump\t// in\n    tag_99:\n      mload(0x40)\n      dup1\n      swap2\n      sub\n      swap1\n      return\n        /* \"ERC721.sol\":5136:5312  function isApprovedForAll(address owner, address operator) public whenNotPaused view virtual override returns (bool) {... */\n    tag_22:\n      tag_100\n      0x04\n      dup1\n      calldatasize\n      sub\n      dup2\n      add\n      swap1\n      tag_101\n      swap2\n      swap1\n      tag_102\n      jump\t// in\n    tag_101:\n      tag_103\n      jump\t// in\n    tag_100:\n      mload(0x40)\n      tag_104\n      swap2\n      swap1\n      tag_32\n      jump\t// in\n    tag_104:\n      mload(0x40)\n      dup1\n      swap2\n      sub\n      swap1\n      return\n        /* \"BEPOwnable.sol\":1896:1997  function transferOwnership(address newOwner) public onlyOwner {... */\n    tag_23:\n      tag_105\n      0x04\n      dup1\n      calldatasize\n      sub\n      dup2\n      add\n      swap1\n      tag_106\n      swap2\n      swap1\n      tag_70\n      jump\t// in\n    tag_106:\n      tag_107\n      jump\t// in\n    tag_105:\n      stop\n        /* \"ERC721.sol\":1536:1836  function supportsInterface(bytes4 interfaceId) public view virtual override(ERC165, IERC165) returns (bool) {... */\n    tag_30:\n        /* \"ERC721.sol\":1638:1642  bool */\n      0x00\n        /* \"ERC721.sol\":1688:1713  type(IERC721).interfaceId */\n      0x80ac58cd00000000000000000000000000000000000000000000000000000000\n        /* \"ERC721.sol\":1673:1713  interfaceId == type(IERC721).interfaceId */\n      not(0xffffffffffffffffffffffffffffffffffffffffffffffffffffffff)\n      and\n        /* \"ERC721.sol\":1673:1684  interfaceId */\n      dup3\n        /* \"ERC721.sol\":1673:1713  interfaceId == type(IERC721).interfaceId */\n      not(0xffffffffffffffffffffffffffffffffffffffffffffffffffffffff)\n      and\n      eq\n        /* \"ERC721.sol\":1673:1777  interfaceId == type(IERC721).interfaceId ||... */\n      dup1\n      tag_109\n      jumpi\n      pop\n        /* \"ERC721.sol\":1744:1777  type(IERC721Metadata).interfaceId */\n      0x5b5e139f00000000000000000000000000000000000000000000000000000000\n        /* \"ERC721.sol\":1729:1777  interfaceId == type(IERC721Metadata).interfaceId */\n      not(0xffffffffffffffffffffffffffffffffffffffffffffffffffffffff)\n      and\n        /* \"ERC721.sol\":1729:1740  interfaceId */\n      dup3\n        /* \"ERC721.sol\":1729:1777  interfaceId == type(IERC721Metadata).interfaceId */\n      not(0xffffffffffffffffffffffffffffffffffffffffffffffffffffffff)\n      and\n      eq\n        /* \"ERC721.sol\":1673:1777  interfaceId == type(IERC721).interfaceId ||... */\n    tag_109:\n        /* \"ERC721.sol\":1673:1829  interfaceId == type(IERC721).interfaceId ||... */\n      dup1\n      tag_110\n      jumpi\n      pop\n        /* \"ERC721.sol\":1793:1829  super.supportsInterface(interfaceId) */\n      tag_111\n        /* \"ERC721.sol\":1817:1828  interfaceId */\n      dup3\n        /* \"ERC721.sol\":1793:1816  super.supportsInterface */\n      tag_112\n        /* \"ERC721.sol\":1793:1829  super.supportsInterface(interfaceId) */\n      jump\t// in\n    tag_111:\n        /* \"ERC721.sol\":1673:1829  interfaceId == type(IERC721).interfaceId ||... */\n    tag_110:\n        /* \"ERC721.sol\":1654:1829  return... */\n      swap1\n      pop\n        /* \"ERC721.sol\":1536:1836  function supportsInterface(bytes4 interfaceId) public view virtual override(ERC165, IERC165) returns (bool) {... */\n      swap2\n      swap1\n      pop\n      jump\t// out\n        /* \"ERC721.sol\":2454:2552  function name() public view virtual override returns (string memory) {... */\n    tag_34:\n        /* \"ERC721.sol\":2508:2521  string memory */\n      0x60\n        /* \"ERC721.sol\":2540:2545  _name */\n      0x01\n        /* \"ERC721.sol\":2533:2545  return _name */\n      dup1\n      sload\n      tag_114\n      swap1\n      tag_115\n      jump\t// in\n    tag_114:\n      dup1\n      0x1f\n      add\n      0x20\n      dup1\n      swap2\n      div\n      mul\n      0x20\n      add\n      mload(0x40)\n      swap1\n      dup2\n      add\n      0x40\n      mstore\n      dup1\n      swap3\n      swap2\n      swap1\n      dup2\n      dup2\n      mstore\n      0x20\n      add\n      dup3\n      dup1\n      sload\n      tag_116\n      swap1\n      tag_115\n      jump\t// in\n    tag_116:\n      dup1\n      iszero\n      tag_117\n      jumpi\n      dup1\n      0x1f\n      lt\n      tag_118\n      jumpi\n      0x0100\n      dup1\n      dup4\n      sload\n      div\n      mul\n      dup4\n      mstore\n      swap2\n      0x20\n      add\n      swap2\n      jump(tag_117)\n    tag_118:\n      dup3\n      add\n      swap2\n      swap1\n      0x00\n      mstore\n      keccak256(0x00, 0x20)\n      swap1\n    tag_119:\n      dup2\n      sload\n      dup2\n      mstore\n      swap1\n      0x01\n      add\n      swap1\n      0x20\n      add\n      dup1\n      dup4\n      gt\n      tag_119\n      jumpi\n      dup3\n      swap1\n      sub\n      0x1f\n      and\n      dup3\n      add\n      swap2\n    tag_117:\n      pop\n      pop\n      pop\n      pop\n      pop\n      swap1\n      pop\n        /* \"ERC721.sol\":2454:2552  function name() public view virtual override returns (string memory) {... */\n      swap1\n      jump\t// out\n        /* \"ERC721.sol\":4605:4836  function getApproved(uint256 tokenId) public whenNotPaused view virtual override returns (address) {... */\n    tag_40:\n        /* \"ERC721.sol\":4695:4702  address */\n      0x00\n        /* \"BEPPausable.sol\":424:430  paused */\n      dup1\n      0x14\n      swap1\n      sload\n      swap1\n      0x0100\n      exp\n      swap1\n      div\n      0xff\n      and\n        /* \"BEPPausable.sol\":423:430  !paused */\n      iszero\n        /* \"BEPPausable.sol\":415:431  require(!paused) */\n      tag_121\n      jumpi\n      0x00\n      dup1\n      revert\n    tag_121:\n        /* \"ERC721.sol\":4722:4738  _exists(tokenId) */\n      tag_123\n        /* \"ERC721.sol\":4730:4737  tokenId */\n      dup3\n        /* \"ERC721.sol\":4722:4729  _exists */\n      tag_124\n        /* \"ERC721.sol\":4722:4738  _exists(tokenId) */\n      jump\t// in\n    tag_123:\n        /* \"ERC721.sol\":4714:4787  require(_exists(tokenId), \"ERC721: approved query for nonexistent token\") */\n      tag_125\n      jumpi\n      mload(0x40)\n      0x08c379a000000000000000000000000000000000000000000000000000000000\n      dup2\n      mstore\n      0x04\n      add\n      tag_126\n      swap1\n      tag_127\n      jump\t// in\n    tag_126:\n      mload(0x40)\n      dup1\n      swap2\n      sub\n      swap1\n      revert\n    tag_125:\n        /* \"ERC721.sol\":4805:4820  _tokenApprovals */\n      0x05\n        /* \"ERC721.sol\":4805:4829  _tokenApprovals[tokenId] */\n      0x00\n        /* \"ERC721.sol\":4821:4828  tokenId */\n      dup4\n        /* \"ERC721.sol\":4805:4829  _tokenApprovals[tokenId] */\n      dup2\n      mstore\n      0x20\n      add\n      swap1\n      dup2\n      mstore\n      0x20\n      add\n      0x00\n      keccak256\n      0x00\n      swap1\n      sload\n      swap1\n      0x0100\n      exp\n      swap1\n      div\n      0xffffffffffffffffffffffffffffffffffffffff\n      and\n        /* \"ERC721.sol\":4798:4829  return _tokenApprovals[tokenId] */\n      swap1\n      pop\n        /* \"ERC721.sol\":4605:4836  function getApproved(uint256 tokenId) public whenNotPaused view virtual override returns (address) {... */\n      swap2\n      swap1\n      pop\n      jump\t// out\n        /* \"ERC721.sol\":4129:4544  function approve(address to, uint256 tokenId) public whenNotPaused virtual override {... */\n    tag_46:\n        /* \"BEPPausable.sol\":424:430  paused */\n      0x00\n      0x14\n      swap1\n      sload\n      swap1\n      0x0100\n      exp\n      swap1\n      div\n      0xff\n      and\n        /* \"BEPPausable.sol\":423:430  !paused */\n      iszero\n        /* \"BEPPausable.sol\":415:431  require(!paused) */\n      tag_129\n      jumpi\n      0x00\n      dup1\n      revert\n    tag_129:\n        /* \"ERC721.sol\":4223:4236  address owner */\n      0x00\n        /* \"ERC721.sol\":4239:4262  ERC721.ownerOf(tokenId) */\n      tag_131\n        /* \"ERC721.sol\":4254:4261  tokenId */\n      dup3\n        /* \"ERC721.sol\":4239:4253  ERC721.ownerOf */\n      tag_66\n        /* \"ERC721.sol\":4239:4262  ERC721.ownerOf(tokenId) */\n      jump\t// in\n    tag_131:\n        /* \"ERC721.sol\":4223:4262  address owner = ERC721.ownerOf(tokenId) */\n      swap1\n      pop\n        /* \"ERC721.sol\":4286:4291  owner */\n      dup1\n        /* \"ERC721.sol\":4280:4291  to != owner */\n      0xffffffffffffffffffffffffffffffffffffffff\n      and\n        /* \"ERC721.sol\":4280:4282  to */\n      dup4\n        /* \"ERC721.sol\":4280:4291  to != owner */\n      0xffffffffffffffffffffffffffffffffffffffff\n      and\n      eq\n      iszero\n        /* \"ERC721.sol\":4272:4329  require(to != owner, \"ERC721: approval to current owner\") */\n      tag_132\n      jumpi\n      mload(0x40)\n      0x08c379a000000000000000000000000000000000000000000000000000000000\n      dup2\n      mstore\n      0x04\n      add\n      tag_133\n      swap1\n      tag_134\n      jump\t// in\n    tag_133:\n      mload(0x40)\n      dup1\n      swap2\n      sub\n      swap1\n      revert\n    tag_132:\n        /* \"ERC721.sol\":4377:4382  owner */\n      dup1\n        /* \"ERC721.sol\":4361:4382  _msgSender() == owner */\n      0xffffffffffffffffffffffffffffffffffffffff\n      and\n        /* \"ERC721.sol\":4361:4373  _msgSender() */\n      tag_135\n        /* \"ERC721.sol\":4361:4371  _msgSender */\n      tag_136\n        /* \"ERC721.sol\":4361:4373  _msgSender() */\n      jump\t// in\n    tag_135:\n        /* \"ERC721.sol\":4361:4382  _msgSender() == owner */\n      0xffffffffffffffffffffffffffffffffffffffff\n      and\n      eq\n        /* \"ERC721.sol\":4361:4423  _msgSender() == owner || isApprovedForAll(owner, _msgSender()) */\n      dup1\n      tag_137\n      jumpi\n      pop\n        /* \"ERC721.sol\":4386:4423  isApprovedForAll(owner, _msgSender()) */\n      tag_138\n        /* \"ERC721.sol\":4403:4408  owner */\n      dup2\n        /* \"ERC721.sol\":4410:4422  _msgSender() */\n      tag_139\n        /* \"ERC721.sol\":4410:4420  _msgSender */\n      tag_136\n        /* \"ERC721.sol\":4410:4422  _msgSender() */\n      jump\t// in\n    tag_139:\n        /* \"ERC721.sol\":4386:4402  isApprovedForAll */\n      tag_103\n        /* \"ERC721.sol\":4386:4423  isApprovedForAll(owner, _msgSender()) */\n      jump\t// in\n    tag_138:\n        /* \"ERC721.sol\":4361:4423  _msgSender() == owner || isApprovedForAll(owner, _msgSender()) */\n    tag_137:\n        /* \"ERC721.sol\":4340:4505  require(... */\n      tag_140\n      jumpi\n      mload(0x40)\n      0x08c379a000000000000000000000000000000000000000000000000000000000\n      dup2\n      mstore\n      0x04\n      add\n      tag_141\n      swap1\n      tag_142\n      jump\t// in\n    tag_141:\n      mload(0x40)\n      dup1\n      swap2\n      sub\n      swap1\n      revert\n    tag_140:\n        /* \"ERC721.sol\":4516:4537  _approve(to, tokenId) */\n      tag_143\n        /* \"ERC721.sol\":4525:4527  to */\n      dup4\n        /* \"ERC721.sol\":4529:4536  tokenId */\n      dup4\n        /* \"ERC721.sol\":4516:4524  _approve */\n      tag_144\n        /* \"ERC721.sol\":4516:4537  _approve(to, tokenId) */\n      jump\t// in\n    tag_143:\n        /* \"ERC721.sol\":4213:4544  {... */\n      pop\n        /* \"ERC721.sol\":4129:4544  function approve(address to, uint256 tokenId) public whenNotPaused virtual override {... */\n      pop\n      pop\n      jump\t// out\n        /* \"ERC721.sol\":5374:5718  function transferFrom(... */\n    tag_50:\n        /* \"BEPPausable.sol\":424:430  paused */\n      0x00\n      0x14\n      swap1\n      sload\n      swap1\n      0x0100\n      exp\n      swap1\n      div\n      0xff\n      and\n        /* \"BEPPausable.sol\":423:430  !paused */\n      iszero\n        /* \"BEPPausable.sol\":415:431  require(!paused) */\n      tag_146\n      jumpi\n      0x00\n      dup1\n      revert\n    tag_146:\n        /* \"ERC721.sol\":5577:5618  _isApprovedOrOwner(_msgSender(), tokenId) */\n      tag_148\n        /* \"ERC721.sol\":5596:5608  _msgSender() */\n      tag_149\n        /* \"ERC721.sol\":5596:5606  _msgSender */\n      tag_136\n        /* \"ERC721.sol\":5596:5608  _msgSender() */\n      jump\t// in\n    tag_149:\n        /* \"ERC721.sol\":5610:5617  tokenId */\n      dup3\n        /* \"ERC721.sol\":5577:5595  _isApprovedOrOwner */\n      tag_150\n        /* \"ERC721.sol\":5577:5618  _isApprovedOrOwner(_msgSender(), tokenId) */\n      jump\t// in\n    tag_148:\n        /* \"ERC721.sol\":5569:5672  require(_isApprovedOrOwner(_msgSender(), tokenId), \"ERC721: transfer caller is not owner nor approved\") */\n      tag_151\n      jumpi\n      mload(0x40)\n      0x08c379a000000000000000000000000000000000000000000000000000000000\n      dup2\n      mstore\n      0x04\n      add\n      tag_152\n      swap1\n      tag_153\n      jump\t// in\n    tag_152:\n      mload(0x40)\n      dup1\n      swap2\n      sub\n      swap1\n      revert\n    tag_151:\n        /* \"ERC721.sol\":5683:5711  _transfer(from, to, tokenId) */\n      tag_154\n        /* \"ERC721.sol\":5693:5697  from */\n      dup4\n        /* \"ERC721.sol\":5699:5701  to */\n      dup4\n        /* \"ERC721.sol\":5703:5710  tokenId */\n      dup4\n        /* \"ERC721.sol\":5683:5692  _transfer */\n      tag_155\n        /* \"ERC721.sol\":5683:5711  _transfer(from, to, tokenId) */\n      jump\t// in\n    tag_154:\n        /* \"ERC721.sol\":5374:5718  function transferFrom(... */\n      pop\n      pop\n      pop\n      jump\t// out\n        /* \"ERC721.sol\":3256:3344  function decimals() public view virtual returns (uint8) {... */\n    tag_52:\n        /* \"ERC721.sol\":3305:3310  uint8 */\n      0x00\n        /* \"ERC721.sol\":3256:3344  function decimals() public view virtual returns (uint8) {... */\n      swap1\n      jump\t// out\n        /* \"BEPPausable.sol\":870:994  function unpause() public onlyOwner whenPaused returns (bool) {... */\n    tag_56:\n        /* \"BEPPausable.sol\":926:930  bool */\n      0x00\n        /* \"BEPOwnable.sol\":1085:1094  isOwner() */\n      tag_158\n        /* \"BEPOwnable.sol\":1085:1092  isOwner */\n      tag_83\n        /* \"BEPOwnable.sol\":1085:1094  isOwner() */\n      jump\t// in\n    tag_158:\n        /* \"BEPOwnable.sol\":1077:1131  require(isOwner(), \"Ownable: caller is not the owner\") */\n      tag_159\n      jumpi\n      mload(0x40)\n      0x08c379a000000000000000000000000000000000000000000000000000000000\n      dup2\n      mstore\n      0x04\n      add\n      tag_160\n      swap1\n      tag_161\n      jump\t// in\n    tag_160:\n      mload(0x40)\n      dup1\n      swap2\n      sub\n      swap1\n      revert\n    tag_159:\n        /* \"BEPPausable.sol\":568:574  paused */\n      0x00\n      0x14\n      swap1\n      sload\n      swap1\n      0x0100\n      exp\n      swap1\n      div\n      0xff\n      and\n        /* \"BEPPausable.sol\":560:575  require(paused) */\n      tag_163\n      jumpi\n      0x00\n      dup1\n      revert\n    tag_163:\n        /* \"BEPPausable.sol\":947:952  false */\n      0x00\n        /* \"BEPPausable.sol\":938:944  paused */\n      dup1\n      0x14\n        /* \"BEPPausable.sol\":938:952  paused = false */\n      0x0100\n      exp\n      dup2\n      sload\n      dup2\n      0xff\n      mul\n      not\n      and\n      swap1\n      dup4\n      iszero\n      iszero\n      mul\n      or\n      swap1\n      sstore\n      pop\n        /* \"BEPPausable.sol\":963:972  Unpause() */\n      0x7805862f689e2f13df9f062ff482ad3ad112aca9e0847911ed832e158c525b33\n      mload(0x40)\n      mload(0x40)\n      dup1\n      swap2\n      sub\n      swap1\n      log1\n        /* \"BEPPausable.sol\":985:989  true */\n      0x01\n        /* \"BEPPausable.sol\":978:989  return true */\n      swap1\n      pop\n        /* \"BEPPausable.sol\":870:994  function unpause() public onlyOwner whenPaused returns (bool) {... */\n      swap1\n      jump\t// out\n        /* \"ERC721.sol\":5784:5977  function safeTransferFrom(... */\n    tag_60:\n        /* \"BEPPausable.sol\":424:430  paused */\n      0x00\n      0x14\n      swap1\n      sload\n      swap1\n      0x0100\n      exp\n      swap1\n      div\n      0xff\n      and\n        /* \"BEPPausable.sol\":423:430  !paused */\n      iszero\n        /* \"BEPPausable.sol\":415:431  require(!paused) */\n      tag_166\n      jumpi\n      0x00\n      dup1\n      revert\n    tag_166:\n        /* \"ERC721.sol\":5931:5970  safeTransferFrom(from, to, tokenId, \"\") */\n      tag_168\n        /* \"ERC721.sol\":5948:5952  from */\n      dup4\n        /* \"ERC721.sol\":5954:5956  to */\n      dup4\n        /* \"ERC721.sol\":5958:5965  tokenId */\n      dup4\n        /* \"ERC721.sol\":5931:5970  safeTransferFrom(from, to, tokenId, \"\") */\n      mload(0x40)\n      dup1\n      0x20\n      add\n      0x40\n      mstore\n      dup1\n      0x00\n      dup2\n      mstore\n      pop\n        /* \"ERC721.sol\":5931:5947  safeTransferFrom */\n      tag_95\n        /* \"ERC721.sol\":5931:5970  safeTransferFrom(from, to, tokenId, \"\") */\n      jump\t// in\n    tag_168:\n        /* \"ERC721.sol\":5784:5977  function safeTransferFrom(... */\n      pop\n      pop\n      pop\n      jump\t// out\n        /* \"BEPPausable.sol\":272:298  bool public paused = false */\n    tag_62:\n      0x00\n      0x14\n      swap1\n      sload\n      swap1\n      0x0100\n      exp\n      swap1\n      div\n      0xff\n      and\n      dup2\n      jump\t// out\n        /* \"ERC721.sol\":2157:2392  function ownerOf(uint256 tokenId) public view virtual override returns (address) {... */\n    tag_66:\n        /* \"ERC721.sol\":2229:2236  address */\n      0x00\n        /* \"ERC721.sol\":2248:2261  address owner */\n      dup1\n        /* \"ERC721.sol\":2264:2271  _owners */\n      0x03\n        /* \"ERC721.sol\":2264:2280  _owners[tokenId] */\n      0x00\n        /* \"ERC721.sol\":2272:2279  tokenId */\n      dup5\n        /* \"ERC721.sol\":2264:2280  _owners[tokenId] */\n      dup2\n      mstore\n      0x20\n      add\n      swap1\n      dup2\n      mstore\n      0x20\n      add\n      0x00\n      keccak256\n      0x00\n      swap1\n      sload\n      swap1\n      0x0100\n      exp\n      swap1\n      div\n      0xffffffffffffffffffffffffffffffffffffffff\n      and\n        /* \"ERC721.sol\":2248:2280  address owner = _owners[tokenId] */\n      swap1\n      pop\n        /* \"ERC721.sol\":2315:2316  0 */\n      0x00\n        /* \"ERC721.sol\":2298:2317  owner != address(0) */\n      0xffffffffffffffffffffffffffffffffffffffff\n      and\n        /* \"ERC721.sol\":2298:2303  owner */\n      dup2\n        /* \"ERC721.sol\":2298:2317  owner != address(0) */\n      0xffffffffffffffffffffffffffffffffffffffff\n      and\n      eq\n      iszero\n        /* \"ERC721.sol\":2290:2363  require(owner != address(0), \"ERC721: owner query for nonexistent token\") */\n      tag_170\n      jumpi\n      mload(0x40)\n      0x08c379a000000000000000000000000000000000000000000000000000000000\n      dup2\n      mstore\n      0x04\n      add\n      tag_171\n      swap1\n      tag_172\n      jump\t// in\n    tag_171:\n      mload(0x40)\n      dup1\n      swap2\n      sub\n      swap1\n      revert\n    tag_170:\n        /* \"ERC721.sol\":2380:2385  owner */\n      dup1\n        /* \"ERC721.sol\":2373:2385  return owner */\n      swap2\n      pop\n      pop\n        /* \"ERC721.sol\":2157:2392  function ownerOf(uint256 tokenId) public view virtual override returns (address) {... */\n      swap2\n      swap1\n      pop\n      jump\t// out\n        /* \"ERC721.sol\":1895:2100  function balanceOf(address owner) public view virtual override returns (uint256) {... */\n    tag_71:\n        /* \"ERC721.sol\":1967:1974  uint256 */\n      0x00\n        /* \"ERC721.sol\":2011:2012  0 */\n      dup1\n        /* \"ERC721.sol\":1994:2013  owner != address(0) */\n      0xffffffffffffffffffffffffffffffffffffffff\n      and\n        /* \"ERC721.sol\":1994:1999  owner */\n      dup3\n        /* \"ERC721.sol\":1994:2013  owner != address(0) */\n      0xffffffffffffffffffffffffffffffffffffffff\n      and\n      eq\n      iszero\n        /* \"ERC721.sol\":1986:2060  require(owner != address(0), \"ERC721: balance query for the zero address\") */\n      tag_174\n      jumpi\n      mload(0x40)\n      0x08c379a000000000000000000000000000000000000000000000000000000000\n      dup2\n      mstore\n      0x04\n      add\n      tag_175\n      swap1\n      tag_176\n      jump\t// in\n    tag_175:\n      mload(0x40)\n      dup1\n      swap2\n      sub\n      swap1\n      revert\n    tag_174:\n        /* \"ERC721.sol\":2077:2086  _balances */\n      0x04\n        /* \"ERC721.sol\":2077:2093  _balances[owner] */\n      0x00\n        /* \"ERC721.sol\":2087:2092  owner */\n      dup4\n        /* \"ERC721.sol\":2077:2093  _balances[owner] */\n      0xffffffffffffffffffffffffffffffffffffffff\n      and\n      0xffffffffffffffffffffffffffffffffffffffff\n      and\n      dup2\n      mstore\n      0x20\n      add\n      swap1\n      dup2\n      mstore\n      0x20\n      add\n      0x00\n      keccak256\n      sload\n        /* \"ERC721.sol\":2070:2093  return _balances[owner] */\n      swap1\n      pop\n        /* \"ERC721.sol\":1895:2100  function balanceOf(address owner) public view virtual override returns (uint256) {... */\n      swap2\n      swap1\n      pop\n      jump\t// out\n        /* \"BEPOwnable.sol\":1630:1757  function renounceOwnership() public onlyOwner {... */\n    tag_75:\n        /* \"BEPOwnable.sol\":1085:1094  isOwner() */\n      tag_178\n        /* \"BEPOwnable.sol\":1085:1092  isOwner */\n      tag_83\n        /* \"BEPOwnable.sol\":1085:1094  isOwner() */\n      jump\t// in\n    tag_178:\n        /* \"BEPOwnable.sol\":1077:1131  require(isOwner(), \"Ownable: caller is not the owner\") */\n      tag_179\n      jumpi\n      mload(0x40)\n      0x08c379a000000000000000000000000000000000000000000000000000000000\n      dup2\n      mstore\n      0x04\n      add\n      tag_180\n      swap1\n      tag_161\n      jump\t// in\n    tag_180:\n      mload(0x40)\n      dup1\n      swap2\n      sub\n      swap1\n      revert\n    tag_179:\n        /* \"BEPOwnable.sol\":1724:1725  0 */\n      0x00\n        /* \"BEPOwnable.sol\":1687:1727  OwnershipTransferred(_owner, address(0)) */\n      0xffffffffffffffffffffffffffffffffffffffff\n      and\n        /* \"BEPOwnable.sol\":1708:1714  _owner */\n      0x00\n      dup1\n      sload\n      swap1\n      0x0100\n      exp\n      swap1\n      div\n      0xffffffffffffffffffffffffffffffffffffffff\n      and\n        /* \"BEPOwnable.sol\":1687:1727  OwnershipTransferred(_owner, address(0)) */\n      0xffffffffffffffffffffffffffffffffffffffff\n      and\n      0x8be0079c531659141344cd1fd0a4f28419497f9722a3daafe3b4186f6b6457e0\n      mload(0x40)\n      mload(0x40)\n      dup1\n      swap2\n      sub\n      swap1\n      log3\n        /* \"BEPOwnable.sol\":1750:1751  0 */\n      0x00\n        /* \"BEPOwnable.sol\":1733:1739  _owner */\n      dup1\n      0x00\n        /* \"BEPOwnable.sol\":1733:1752  _owner = address(0) */\n      0x0100\n      exp\n      dup2\n      sload\n      dup2\n      0xffffffffffffffffffffffffffffffffffffffff\n      mul\n      not\n      and\n      swap1\n      dup4\n      0xffffffffffffffffffffffffffffffffffffffff\n      and\n      mul\n      or\n      swap1\n      sstore\n      pop\n        /* \"BEPOwnable.sol\":1630:1757  function renounceOwnership() public onlyOwner {... */\n      jump\t// out\n        /* \"BEPPausable.sol\":666:788  function pause() public onlyOwner whenNotPaused returns (bool) {... */\n    tag_77:\n        /* \"BEPPausable.sol\":723:727  bool */\n      0x00\n        /* \"BEPOwnable.sol\":1085:1094  isOwner() */\n      tag_183\n        /* \"BEPOwnable.sol\":1085:1092  isOwner */\n      tag_83\n        /* \"BEPOwnable.sol\":1085:1094  isOwner() */\n      jump\t// in\n    tag_183:\n        /* \"BEPOwnable.sol\":1077:1131  require(isOwner(), \"Ownable: caller is not the owner\") */\n      tag_184\n      jumpi\n      mload(0x40)\n      0x08c379a000000000000000000000000000000000000000000000000000000000\n      dup2\n      mstore\n      0x04\n      add\n      tag_185\n      swap1\n      tag_161\n      jump\t// in\n    tag_185:\n      mload(0x40)\n      dup1\n      swap2\n      sub\n      swap1\n      revert\n    tag_184:\n        /* \"BEPPausable.sol\":424:430  paused */\n      0x00\n      0x14\n      swap1\n      sload\n      swap1\n      0x0100\n      exp\n      swap1\n      div\n      0xff\n      and\n        /* \"BEPPausable.sol\":423:430  !paused */\n      iszero\n        /* \"BEPPausable.sol\":415:431  require(!paused) */\n      tag_187\n      jumpi\n      0x00\n      dup1\n      revert\n    tag_187:\n        /* \"BEPPausable.sol\":744:748  true */\n      0x01\n        /* \"BEPPausable.sol\":735:741  paused */\n      0x00\n      0x14\n        /* \"BEPPausable.sol\":735:748  paused = true */\n      0x0100\n      exp\n      dup2\n      sload\n      dup2\n      0xff\n      mul\n      not\n      and\n      swap1\n      dup4\n      iszero\n      iszero\n      mul\n      or\n      swap1\n      sstore\n      pop\n        /* \"BEPPausable.sol\":759:766  Pause() */\n      0x6985a02210a168e66602d3235cb6db0e70f92b3ba4d376a33c0f3d9434bff625\n      mload(0x40)\n      mload(0x40)\n      dup1\n      swap2\n      sub\n      swap1\n      log1\n        /* \"BEPPausable.sol\":779:783  true */\n      0x01\n        /* \"BEPPausable.sol\":772:783  return true */\n      swap1\n      pop\n        /* \"BEPPausable.sol\":666:788  function pause() public onlyOwner whenNotPaused returns (bool) {... */\n      swap1\n      jump\t// out\n        /* \"BEPOwnable.sol\":899:970  function owner() public view returns (address) {... */\n    tag_80:\n        /* \"BEPOwnable.sol\":937:944  address */\n      0x00\n        /* \"BEPOwnable.sol\":959:965  _owner */\n      dup1\n      0x00\n      swap1\n      sload\n      swap1\n      0x0100\n      exp\n      swap1\n      div\n      0xffffffffffffffffffffffffffffffffffffffff\n      and\n        /* \"BEPOwnable.sol\":952:965  return _owner */\n      swap1\n      pop\n        /* \"BEPOwnable.sol\":899:970  function owner() public view returns (address) {... */\n      swap1\n      jump\t// out\n        /* \"BEPOwnable.sol\":1218:1304  function isOwner() public view returns (bool) {... */\n    tag_83:\n        /* \"BEPOwnable.sol\":1258:1262  bool */\n      0x00\n        /* \"BEPOwnable.sol\":1293:1299  _owner */\n      dup1\n      0x00\n      swap1\n      sload\n      swap1\n      0x0100\n      exp\n      swap1\n      div\n      0xffffffffffffffffffffffffffffffffffffffff\n      and\n        /* \"BEPOwnable.sol\":1277:1299  _msgSender() == _owner */\n      0xffffffffffffffffffffffffffffffffffffffff\n      and\n        /* \"BEPOwnable.sol\":1277:1289  _msgSender() */\n      tag_191\n        /* \"BEPOwnable.sol\":1277:1287  _msgSender */\n      tag_136\n        /* \"BEPOwnable.sol\":1277:1289  _msgSender() */\n      jump\t// in\n    tag_191:\n        /* \"BEPOwnable.sol\":1277:1299  _msgSender() == _owner */\n      0xffffffffffffffffffffffffffffffffffffffff\n      and\n      eq\n        /* \"BEPOwnable.sol\":1270:1299  return _msgSender() == _owner */\n      swap1\n      pop\n        /* \"BEPOwnable.sol\":1218:1304  function isOwner() public view returns (bool) {... */\n      swap1\n      jump\t// out\n        /* \"ERC721.sol\":2616:2718  function symbol() public view virtual override returns (string memory) {... */\n    tag_86:\n        /* \"ERC721.sol\":2672:2685  string memory */\n      0x60\n        /* \"ERC721.sol\":2704:2711  _symbol */\n      0x02\n        /* \"ERC721.sol\":2697:2711  return _symbol */\n      dup1\n      sload\n      tag_193\n      swap1\n      tag_115\n      jump\t// in\n    tag_193:\n      dup1\n      0x1f\n      add\n      0x20\n      dup1\n      swap2\n      div\n      mul\n      0x20\n      add\n      mload(0x40)\n      swap1\n      dup2\n      add\n      0x40\n      mstore\n      dup1\n      swap3\n      swap2\n      swap1\n      dup2\n      dup2\n      mstore\n      0x20\n      add\n      dup3\n      dup1\n      sload\n      tag_194\n      swap1\n      tag_115\n      jump\t// in\n    tag_194:\n      dup1\n      iszero\n      tag_195\n      jumpi\n      dup1\n      0x1f\n      lt\n      tag_196\n      jumpi\n      0x0100\n      dup1\n      dup4\n      sload\n      div\n      mul\n      dup4\n      mstore\n      swap2\n      0x20\n      add\n      swap2\n      jump(tag_195)\n    tag_196:\n      dup3\n      add\n      swap2\n      swap1\n      0x00\n      mstore\n      keccak256(0x00, 0x20)\n      swap1\n    tag_197:\n      dup2\n      sload\n      dup2\n      mstore\n      swap1\n      0x01\n      add\n      swap1\n      0x20\n      add\n      dup1\n      dup4\n      gt\n      tag_197\n      jumpi\n      dup3\n      swap1\n      sub\n      0x1f\n      and\n      dup3\n      add\n      swap2\n    tag_195:\n      pop\n      pop\n      pop\n      pop\n      pop\n      swap1\n      pop\n        /* \"ERC721.sol\":2616:2718  function symbol() public view virtual override returns (string memory) {... */\n      swap1\n      jump\t// out\n        /* \"ERC721.sol\":4903:5070  function setApprovalForAll(address operator, bool approved) public whenNotPaused virtual override {... */\n    tag_91:\n        /* \"BEPPausable.sol\":424:430  paused */\n      0x00\n      0x14\n      swap1\n      sload\n      swap1\n      0x0100\n      exp\n      swap1\n      div\n      0xff\n      and\n        /* \"BEPPausable.sol\":423:430  !paused */\n      iszero\n        /* \"BEPPausable.sol\":415:431  require(!paused) */\n      tag_199\n      jumpi\n      0x00\n      dup1\n      revert\n    tag_199:\n        /* \"ERC721.sol\":5011:5063  _setApprovalForAll(_msgSender(), operator, approved) */\n      tag_201\n        /* \"ERC721.sol\":5030:5042  _msgSender() */\n      tag_202\n        /* \"ERC721.sol\":5030:5040  _msgSender */\n      tag_136\n        /* \"ERC721.sol\":5030:5042  _msgSender() */\n      jump\t// in\n    tag_202:\n        /* \"ERC721.sol\":5044:5052  operator */\n      dup4\n        /* \"ERC721.sol\":5054:5062  approved */\n      dup4\n        /* \"ERC721.sol\":5011:5029  _setApprovalForAll */\n      tag_203\n        /* \"ERC721.sol\":5011:5063  _setApprovalForAll(_msgSender(), operator, approved) */\n      jump\t// in\n    tag_201:\n        /* \"ERC721.sol\":4903:5070  function setApprovalForAll(address operator, bool approved) public whenNotPaused virtual override {... */\n      pop\n      pop\n      jump\t// out\n        /* \"ERC721.sol\":6043:6377  function safeTransferFrom(... */\n    tag_95:\n        /* \"BEPPausable.sol\":424:430  paused */\n      0x00\n      0x14\n      swap1\n      sload\n      swap1\n      0x0100\n      exp\n      swap1\n      div\n      0xff\n      and\n        /* \"BEPPausable.sol\":423:430  !paused */\n      iszero\n        /* \"BEPPausable.sol\":415:431  require(!paused) */\n      tag_205\n      jumpi\n      0x00\n      dup1\n      revert\n    tag_205:\n        /* \"ERC721.sol\":6226:6267  _isApprovedOrOwner(_msgSender(), tokenId) */\n      tag_207\n        /* \"ERC721.sol\":6245:6257  _msgSender() */\n      tag_208\n        /* \"ERC721.sol\":6245:6255  _msgSender */\n      tag_136\n        /* \"ERC721.sol\":6245:6257  _msgSender() */\n      jump\t// in\n    tag_208:\n        /* \"ERC721.sol\":6259:6266  tokenId */\n      dup4\n        /* \"ERC721.sol\":6226:6244  _isApprovedOrOwner */\n      tag_150\n        /* \"ERC721.sol\":6226:6267  _isApprovedOrOwner(_msgSender(), tokenId) */\n      jump\t// in\n    tag_207:\n        /* \"ERC721.sol\":6218:6321  require(_isApprovedOrOwner(_msgSender(), tokenId), \"ERC721: transfer caller is not owner nor approved\") */\n      tag_209\n      jumpi\n      mload(0x40)\n      0x08c379a000000000000000000000000000000000000000000000000000000000\n      dup2\n      mstore\n      0x04\n      add\n      tag_210\n      swap1\n      tag_153\n      jump\t// in\n    tag_210:\n      mload(0x40)\n      dup1\n      swap2\n      sub\n      swap1\n      revert\n    tag_209:\n        /* \"ERC721.sol\":6331:6370  _safeTransfer(from, to, tokenId, _data) */\n      tag_211\n        /* \"ERC721.sol\":6345:6349  from */\n      dup5\n        /* \"ERC721.sol\":6351:6353  to */\n      dup5\n        /* \"ERC721.sol\":6355:6362  tokenId */\n      dup5\n        /* \"ERC721.sol\":6364:6369  _data */\n      dup5\n        /* \"ERC721.sol\":6331:6344  _safeTransfer */\n      tag_212\n        /* \"ERC721.sol\":6331:6370  _safeTransfer(from, to, tokenId, _data) */\n      jump\t// in\n    tag_211:\n        /* \"ERC721.sol\":6043:6377  function safeTransferFrom(... */\n      pop\n      pop\n      pop\n      pop\n      jump\t// out\n        /* \"ERC721.sol\":3410:3739  function tokenURI(uint256 tokenId) public view virtual override returns (string memory) {... */\n    tag_98:\n        /* \"ERC721.sol\":3483:3496  string memory */\n      0x60\n        /* \"ERC721.sol\":3516:3532  _exists(tokenId) */\n      tag_214\n        /* \"ERC721.sol\":3524:3531  tokenId */\n      dup3\n        /* \"ERC721.sol\":3516:3523  _exists */\n      tag_124\n        /* \"ERC721.sol\":3516:3532  _exists(tokenId) */\n      jump\t// in\n    tag_214:\n        /* \"ERC721.sol\":3508:3584  require(_exists(tokenId), \"ERC721Metadata: URI query for nonexistent token\") */\n      tag_215\n      jumpi\n      mload(0x40)\n      0x08c379a000000000000000000000000000000000000000000000000000000000\n      dup2\n      mstore\n      0x04\n      add\n      tag_216\n      swap1\n      tag_217\n      jump\t// in\n    tag_216:\n      mload(0x40)\n      dup1\n      swap2\n      sub\n      swap1\n      revert\n    tag_215:\n        /* \"ERC721.sol\":3595:3616  string memory baseURI */\n      0x00\n        /* \"ERC721.sol\":3619:3629  _baseURI() */\n      tag_218\n        /* \"ERC721.sol\":3619:3627  _baseURI */\n      tag_219\n        /* \"ERC721.sol\":3619:3629  _baseURI() */\n      jump\t// in\n    tag_218:\n        /* \"ERC721.sol\":3595:3629  string memory baseURI = _baseURI() */\n      swap1\n      pop\n        /* \"ERC721.sol\":3670:3671  0 */\n      0x00\n        /* \"ERC721.sol\":3652:3659  baseURI */\n      dup2\n        /* \"ERC721.sol\":3646:3667  bytes(baseURI).length */\n      mload\n        /* \"ERC721.sol\":3646:3671  bytes(baseURI).length > 0 */\n      gt\n        /* \"ERC721.sol\":3646:3732  bytes(baseURI).length > 0 ? string(abi.encodePacked(baseURI, tokenId.toString())) : \"\" */\n      tag_220\n      jumpi\n      mload(0x40)\n      dup1\n      0x20\n      add\n      0x40\n      mstore\n      dup1\n      0x00\n      dup2\n      mstore\n      pop\n      jump(tag_221)\n    tag_220:\n        /* \"ERC721.sol\":3698:3705  baseURI */\n      dup1\n        /* \"ERC721.sol\":3707:3725  tokenId.toString() */\n      tag_222\n        /* \"ERC721.sol\":3707:3714  tokenId */\n      dup5\n        /* \"ERC721.sol\":3707:3723  tokenId.toString */\n      tag_223\n        /* \"ERC721.sol\":3707:3725  tokenId.toString() */\n      jump\t// in\n    tag_222:\n        /* \"ERC721.sol\":3681:3726  abi.encodePacked(baseURI, tokenId.toString()) */\n      add(0x20, mload(0x40))\n      tag_224\n      swap3\n      swap2\n      swap1\n      tag_225\n      jump\t// in\n    tag_224:\n      mload(0x40)\n      0x20\n      dup2\n      dup4\n      sub\n      sub\n      dup2\n      mstore\n      swap1\n      0x40\n      mstore\n        /* \"ERC721.sol\":3646:3732  bytes(baseURI).length > 0 ? string(abi.encodePacked(baseURI, tokenId.toString())) : \"\" */\n    tag_221:\n        /* \"ERC721.sol\":3639:3732  return bytes(baseURI).length > 0 ? string(abi.encodePacked(baseURI, tokenId.toString())) : \"\" */\n      swap2\n      pop\n      pop\n        /* \"ERC721.sol\":3410:3739  function tokenURI(uint256 tokenId) public view virtual override returns (string memory) {... */\n      swap2\n      swap1\n      pop\n      jump\t// out\n        /* \"ERC721.sol\":5136:5312  function isApprovedForAll(address owner, address operator) public whenNotPaused view virtual override returns (bool) {... */\n    tag_103:\n        /* \"ERC721.sol\":5247:5251  bool */\n      0x00\n        /* \"BEPPausable.sol\":424:430  paused */\n      dup1\n      0x14\n      swap1\n      sload\n      swap1\n      0x0100\n      exp\n      swap1\n      div\n      0xff\n      and\n        /* \"BEPPausable.sol\":423:430  !paused */\n      iszero\n        /* \"BEPPausable.sol\":415:431  require(!paused) */\n      tag_227\n      jumpi\n      0x00\n      dup1\n      revert\n    tag_227:\n        /* \"ERC721.sol\":5270:5288  _operatorApprovals */\n      0x06\n        /* \"ERC721.sol\":5270:5295  _operatorApprovals[owner] */\n      0x00\n        /* \"ERC721.sol\":5289:5294  owner */\n      dup5\n        /* \"ERC721.sol\":5270:5295  _operatorApprovals[owner] */\n      0xffffffffffffffffffffffffffffffffffffffff\n      and\n      0xffffffffffffffffffffffffffffffffffffffff\n      and\n      dup2\n      mstore\n      0x20\n      add\n      swap1\n      dup2\n      mstore\n      0x20\n      add\n      0x00\n      keccak256\n        /* \"ERC721.sol\":5270:5305  _operatorApprovals[owner][operator] */\n      0x00\n        /* \"ERC721.sol\":5296:5304  operator */\n      dup4\n        /* \"ERC721.sol\":5270:5305  _operatorApprovals[owner][operator] */\n      0xffffffffffffffffffffffffffffffffffffffff\n      and\n      0xffffffffffffffffffffffffffffffffffffffff\n      and\n      dup2\n      mstore\n      0x20\n      add\n      swap1\n      dup2\n      mstore\n      0x20\n      add\n      0x00\n      keccak256\n      0x00\n      swap1\n      sload\n      swap1\n      0x0100\n      exp\n      swap1\n      div\n      0xff\n      and\n        /* \"ERC721.sol\":5263:5305  return _operatorApprovals[owner][operator] */\n      swap1\n      pop\n        /* \"ERC721.sol\":5136:5312  function isApprovedForAll(address owner, address operator) public whenNotPaused view virtual override returns (bool) {... */\n      swap3\n      swap2\n      pop\n      pop\n      jump\t// out\n        /* \"BEPOwnable.sol\":1896:1997  function transferOwnership(address newOwner) public onlyOwner {... */\n    tag_107:\n        /* \"BEPOwnable.sol\":1085:1094  isOwner() */\n      tag_230\n        /* \"BEPOwnable.sol\":1085:1092  isOwner */\n      tag_83\n        /* \"BEPOwnable.sol\":1085:1094  isOwner() */\n      jump\t// in\n    tag_230:\n        /* \"BEPOwnable.sol\":1077:1131  require(isOwner(), \"Ownable: caller is not the owner\") */\n      tag_231\n      jumpi\n      mload(0x40)\n      0x08c379a000000000000000000000000000000000000000000000000000000000\n      dup2\n      mstore\n      0x04\n      add\n      tag_232\n      swap1\n      tag_161\n      jump\t// in\n    tag_232:\n      mload(0x40)\n      dup1\n      swap2\n      sub\n      swap1\n      revert\n    tag_231:\n        /* \"BEPOwnable.sol\":1964:1992  _transferOwnership(newOwner) */\n      tag_234\n        /* \"BEPOwnable.sol\":1983:1991  newOwner */\n      dup2\n        /* \"BEPOwnable.sol\":1964:1982  _transferOwnership */\n      tag_235\n        /* \"BEPOwnable.sol\":1964:1992  _transferOwnership(newOwner) */\n      jump\t// in\n    tag_234:\n        /* \"BEPOwnable.sol\":1896:1997  function transferOwnership(address newOwner) public onlyOwner {... */\n      pop\n      jump\t// out\n        /* \"ERC165.sol\":829:984  function supportsInterface(bytes4 interfaceId) public view virtual override returns (bool) {... */\n    tag_112:\n        /* \"ERC165.sol\":914:918  bool */\n      0x00\n        /* \"ERC165.sol\":952:977  type(IERC165).interfaceId */\n      0x01ffc9a700000000000000000000000000000000000000000000000000000000\n        /* \"ERC165.sol\":937:977  interfaceId == type(IERC165).interfaceId */\n      not(0xffffffffffffffffffffffffffffffffffffffffffffffffffffffff)\n      and\n        /* \"ERC165.sol\":937:948  interfaceId */\n      dup3\n        /* \"ERC165.sol\":937:977  interfaceId == type(IERC165).interfaceId */\n      not(0xffffffffffffffffffffffffffffffffffffffffffffffffffffffff)\n      and\n      eq\n        /* \"ERC165.sol\":930:977  return interfaceId == type(IERC165).interfaceId */\n      swap1\n      pop\n        /* \"ERC165.sol\":829:984  function supportsInterface(bytes4 interfaceId) public view virtual override returns (bool) {... */\n      swap2\n      swap1\n      pop\n      jump\t// out\n        /* \"ERC721.sol\":7849:7974  function _exists(uint256 tokenId) internal view virtual returns (bool) {... */\n    tag_124:\n        /* \"ERC721.sol\":7914:7918  bool */\n      0x00\n        /* \"ERC721.sol\":7965:7966  0 */\n      dup1\n        /* \"ERC721.sol\":7937:7967  _owners[tokenId] != address(0) */\n      0xffffffffffffffffffffffffffffffffffffffff\n      and\n        /* \"ERC721.sol\":7937:7944  _owners */\n      0x03\n        /* \"ERC721.sol\":7937:7953  _owners[tokenId] */\n      0x00\n        /* \"ERC721.sol\":7945:7952  tokenId */\n      dup5\n        /* \"ERC721.sol\":7937:7953  _owners[tokenId] */\n      dup2\n      mstore\n      0x20\n      add\n      swap1\n      dup2\n      mstore\n      0x20\n      add\n      0x00\n      keccak256\n      0x00\n      swap1\n      sload\n      swap1\n      0x0100\n      exp\n      swap1\n      div\n      0xffffffffffffffffffffffffffffffffffffffff\n      and\n        /* \"ERC721.sol\":7937:7967  _owners[tokenId] != address(0) */\n      0xffffffffffffffffffffffffffffffffffffffff\n      and\n      eq\n      iszero\n        /* \"ERC721.sol\":7930:7967  return _owners[tokenId] != address(0) */\n      swap1\n      pop\n        /* \"ERC721.sol\":7849:7974  function _exists(uint256 tokenId) internal view virtual returns (bool) {... */\n      swap2\n      swap1\n      pop\n      jump\t// out\n        /* \"BEPContext.sol\":760:859  function _msgSender() internal view returns (address payable) {... */\n    tag_136:\n        /* \"BEPContext.sol\":805:820  address payable */\n      0x00\n        /* \"BEPContext.sol\":843:853  msg.sender */\n      caller\n        /* \"BEPContext.sol\":828:854  return payable(msg.sender) */\n      swap1\n      pop\n        /* \"BEPContext.sol\":760:859  function _msgSender() internal view returns (address payable) {... */\n      swap1\n      jump\t// out\n        /* \"ERC721.sol\":11859:12030  function _approve(address to, uint256 tokenId) internal virtual {... */\n    tag_144:\n        /* \"ERC721.sol\":11960:11962  to */\n      dup2\n        /* \"ERC721.sol\":11933:11948  _tokenApprovals */\n      0x05\n        /* \"ERC721.sol\":11933:11957  _tokenApprovals[tokenId] */\n      0x00\n        /* \"ERC721.sol\":11949:11956  tokenId */\n      dup4\n        /* \"ERC721.sol\":11933:11957  _tokenApprovals[tokenId] */\n      dup2\n      mstore\n      0x20\n      add\n      swap1\n      dup2\n      mstore\n      0x20\n      add\n      0x00\n      keccak256\n      0x00\n        /* \"ERC721.sol\":11933:11962  _tokenApprovals[tokenId] = to */\n      0x0100\n      exp\n      dup2\n      sload\n      dup2\n      0xffffffffffffffffffffffffffffffffffffffff\n      mul\n      not\n      and\n      swap1\n      dup4\n      0xffffffffffffffffffffffffffffffffffffffff\n      and\n      mul\n      or\n      swap1\n      sstore\n      pop\n        /* \"ERC721.sol\":12015:12022  tokenId */\n      dup1\n        /* \"ERC721.sol\":12011:12013  to */\n      dup3\n        /* \"ERC721.sol\":11977:12023  Approval(ERC721.ownerOf(tokenId), to, tokenId) */\n      0xffffffffffffffffffffffffffffffffffffffff\n      and\n        /* \"ERC721.sol\":11986:12009  ERC721.ownerOf(tokenId) */\n      tag_240\n        /* \"ERC721.sol\":12001:12008  tokenId */\n      dup4\n        /* \"ERC721.sol\":11986:12000  ERC721.ownerOf */\n      tag_66\n        /* \"ERC721.sol\":11986:12009  ERC721.ownerOf(tokenId) */\n      jump\t// in\n    tag_240:\n        /* \"ERC721.sol\":11977:12023  Approval(ERC721.ownerOf(tokenId), to, tokenId) */\n      0xffffffffffffffffffffffffffffffffffffffff\n      and\n      0x8c5be1e5ebec7d5bd14f71427d1e84f3dd0314c0f7b2291e5b200ac8c7c3b925\n      mload(0x40)\n      mload(0x40)\n      dup1\n      swap2\n      sub\n      swap1\n      log4\n        /* \"ERC721.sol\":11859:12030  function _approve(address to, uint256 tokenId) internal virtual {... */\n      pop\n      pop\n      jump\t// out\n        /* \"ERC721.sol\":8132:8476  function _isApprovedOrOwner(address spender, uint256 tokenId) internal view virtual returns (bool) {... */\n    tag_150:\n        /* \"ERC721.sol\":8225:8229  bool */\n      0x00\n        /* \"ERC721.sol\":8249:8265  _exists(tokenId) */\n      tag_242\n        /* \"ERC721.sol\":8257:8264  tokenId */\n      dup3\n        /* \"ERC721.sol\":8249:8256  _exists */\n      tag_124\n        /* \"ERC721.sol\":8249:8265  _exists(tokenId) */\n      jump\t// in\n    tag_242:\n        /* \"ERC721.sol\":8241:8314  require(_exists(tokenId), \"ERC721: operator query for nonexistent token\") */\n      tag_243\n      jumpi\n      mload(0x40)\n      0x08c379a000000000000000000000000000000000000000000000000000000000\n      dup2\n      mstore\n      0x04\n      add\n      tag_244\n      swap1\n      tag_245\n      jump\t// in\n    tag_244:\n      mload(0x40)\n      dup1\n      swap2\n      sub\n      swap1\n      revert\n    tag_243:\n        /* \"ERC721.sol\":8324:8337  address owner */\n      0x00\n        /* \"ERC721.sol\":8340:8363  ERC721.ownerOf(tokenId) */\n      tag_246\n        /* \"ERC721.sol\":8355:8362  tokenId */\n      dup4\n        /* \"ERC721.sol\":8340:8354  ERC721.ownerOf */\n      tag_66\n        /* \"ERC721.sol\":8340:8363  ERC721.ownerOf(tokenId) */\n      jump\t// in\n    tag_246:\n        /* \"ERC721.sol\":8324:8363  address owner = ERC721.ownerOf(tokenId) */\n      swap1\n      pop\n        /* \"ERC721.sol\":8392:8397  owner */\n      dup1\n        /* \"ERC721.sol\":8381:8397  spender == owner */\n      0xffffffffffffffffffffffffffffffffffffffff\n      and\n        /* \"ERC721.sol\":8381:8388  spender */\n      dup5\n        /* \"ERC721.sol\":8381:8397  spender == owner */\n      0xffffffffffffffffffffffffffffffffffffffff\n      and\n      eq\n        /* \"ERC721.sol\":8381:8432  spender == owner || getApproved(tokenId) == spender */\n      dup1\n      tag_247\n      jumpi\n      pop\n        /* \"ERC721.sol\":8425:8432  spender */\n      dup4\n        /* \"ERC721.sol\":8401:8432  getApproved(tokenId) == spender */\n      0xffffffffffffffffffffffffffffffffffffffff\n      and\n        /* \"ERC721.sol\":8401:8421  getApproved(tokenId) */\n      tag_248\n        /* \"ERC721.sol\":8413:8420  tokenId */\n      dup5\n        /* \"ERC721.sol\":8401:8412  getApproved */\n      tag_40\n        /* \"ERC721.sol\":8401:8421  getApproved(tokenId) */\n      jump\t// in\n    tag_248:\n        /* \"ERC721.sol\":8401:8432  getApproved(tokenId) == spender */\n      0xffffffffffffffffffffffffffffffffffffffff\n      and\n      eq\n        /* \"ERC721.sol\":8381:8432  spender == owner || getApproved(tokenId) == spender */\n    tag_247:\n        /* \"ERC721.sol\":8381:8468  spender == owner || getApproved(tokenId) == spender || isApprovedForAll(owner, spender) */\n      dup1\n      tag_249\n      jumpi\n      pop\n        /* \"ERC721.sol\":8436:8468  isApprovedForAll(owner, spender) */\n      tag_250\n        /* \"ERC721.sol\":8453:8458  owner */\n      dup2\n        /* \"ERC721.sol\":8460:8467  spender */\n      dup6\n        /* \"ERC721.sol\":8436:8452  isApprovedForAll */\n      tag_103\n        /* \"ERC721.sol\":8436:8468  isApprovedForAll(owner, spender) */\n      jump\t// in\n    tag_250:\n        /* \"ERC721.sol\":8381:8468  spender == owner || getApproved(tokenId) == spender || isApprovedForAll(owner, spender) */\n    tag_249:\n        /* \"ERC721.sol\":8373:8469  return (spender == owner || getApproved(tokenId) == spender || isApprovedForAll(owner, spender)) */\n      swap2\n      pop\n      pop\n        /* \"ERC721.sol\":8132:8476  function _isApprovedOrOwner(address spender, uint256 tokenId) internal view virtual returns (bool) {... */\n      swap3\n      swap2\n      pop\n      pop\n      jump\t// out\n        /* \"ERC721.sol\":11143:11748  function _transfer(... */\n    tag_155:\n        /* \"ERC721.sol\":11297:11301  from */\n      dup3\n        /* \"ERC721.sol\":11270:11301  ERC721.ownerOf(tokenId) == from */\n      0xffffffffffffffffffffffffffffffffffffffff\n      and\n        /* \"ERC721.sol\":11270:11293  ERC721.ownerOf(tokenId) */\n      tag_252\n        /* \"ERC721.sol\":11285:11292  tokenId */\n      dup3\n        /* \"ERC721.sol\":11270:11284  ERC721.ownerOf */\n      tag_66\n        /* \"ERC721.sol\":11270:11293  ERC721.ownerOf(tokenId) */\n      jump\t// in\n    tag_252:\n        /* \"ERC721.sol\":11270:11301  ERC721.ownerOf(tokenId) == from */\n      0xffffffffffffffffffffffffffffffffffffffff\n      and\n      eq\n        /* \"ERC721.sol\":11262:11343  require(ERC721.ownerOf(tokenId) == from, \"ERC721: transfer from incorrect owner\") */\n      tag_253\n      jumpi\n      mload(0x40)\n      0x08c379a000000000000000000000000000000000000000000000000000000000\n      dup2\n      mstore\n      0x04\n      add\n      tag_254\n      swap1\n      tag_255\n      jump\t// in\n    tag_254:\n      mload(0x40)\n      dup1\n      swap2\n      sub\n      swap1\n      revert\n    tag_253:\n        /* \"ERC721.sol\":11375:11376  0 */\n      0x00\n        /* \"ERC721.sol\":11361:11377  to != address(0) */\n      0xffffffffffffffffffffffffffffffffffffffff\n      and\n        /* \"ERC721.sol\":11361:11363  to */\n      dup3\n        /* \"ERC721.sol\":11361:11377  to != address(0) */\n      0xffffffffffffffffffffffffffffffffffffffff\n      and\n      eq\n      iszero\n        /* \"ERC721.sol\":11353:11418  require(to != address(0), \"ERC721: transfer to the zero address\") */\n      tag_256\n      jumpi\n      mload(0x40)\n      0x08c379a000000000000000000000000000000000000000000000000000000000\n      dup2\n      mstore\n      0x04\n      add\n      tag_257\n      swap1\n      tag_258\n      jump\t// in\n    tag_257:\n      mload(0x40)\n      dup1\n      swap2\n      sub\n      swap1\n      revert\n    tag_256:\n        /* \"ERC721.sol\":11429:11468  _beforeTokenTransfer(from, to, tokenId) */\n      tag_259\n        /* \"ERC721.sol\":11450:11454  from */\n      dup4\n        /* \"ERC721.sol\":11456:11458  to */\n      dup4\n        /* \"ERC721.sol\":11460:11467  tokenId */\n      dup4\n        /* \"ERC721.sol\":11429:11449  _beforeTokenTransfer */\n      tag_260\n        /* \"ERC721.sol\":11429:11468  _beforeTokenTransfer(from, to, tokenId) */\n      jump\t// in\n    tag_259:\n        /* \"ERC721.sol\":11530:11559  _approve(address(0), tokenId) */\n      tag_261\n        /* \"ERC721.sol\":11547:11548  0 */\n      0x00\n        /* \"ERC721.sol\":11551:11558  tokenId */\n      dup3\n        /* \"ERC721.sol\":11530:11538  _approve */\n      tag_144\n        /* \"ERC721.sol\":11530:11559  _approve(address(0), tokenId) */\n      jump\t// in\n    tag_261:\n        /* \"ERC721.sol\":11589:11590  1 */\n      0x01\n        /* \"ERC721.sol\":11570:11579  _balances */\n      0x04\n        /* \"ERC721.sol\":11570:11585  _balances[from] */\n      0x00\n        /* \"ERC721.sol\":11580:11584  from */\n      dup6\n        /* \"ERC721.sol\":11570:11585  _balances[from] */\n      0xffffffffffffffffffffffffffffffffffffffff\n      and\n      0xffffffffffffffffffffffffffffffffffffffff\n      and\n      dup2\n      mstore\n      0x20\n      add\n      swap1\n      dup2\n      mstore\n      0x20\n      add\n      0x00\n      keccak256\n      0x00\n        /* \"ERC721.sol\":11570:11590  _balances[from] -= 1 */\n      dup3\n      dup3\n      sload\n      tag_262\n      swap2\n      swap1\n      tag_263\n      jump\t// in\n    tag_262:\n      swap3\n      pop\n      pop\n      dup2\n      swap1\n      sstore\n      pop\n        /* \"ERC721.sol\":11617:11618  1 */\n      0x01\n        /* \"ERC721.sol\":11600:11609  _balances */\n      0x04\n        /* \"ERC721.sol\":11600:11613  _balances[to] */\n      0x00\n        /* \"ERC721.sol\":11610:11612  to */\n      dup5\n        /* \"ERC721.sol\":11600:11613  _balances[to] */\n      0xffffffffffffffffffffffffffffffffffffffff\n      and\n      0xffffffffffffffffffffffffffffffffffffffff\n      and\n      dup2\n      mstore\n      0x20\n      add\n      swap1\n      dup2\n      mstore\n      0x20\n      add\n      0x00\n      keccak256\n      0x00\n        /* \"ERC721.sol\":11600:11618  _balances[to] += 1 */\n      dup3\n      dup3\n      sload\n      tag_264\n      swap2\n      swap1\n      tag_265\n      jump\t// in\n    tag_264:\n      swap3\n      pop\n      pop\n      dup2\n      swap1\n      sstore\n      pop\n        /* \"ERC721.sol\":11647:11649  to */\n      dup2\n        /* \"ERC721.sol\":11628:11635  _owners */\n      0x03\n        /* \"ERC721.sol\":11628:11644  _owners[tokenId] */\n      0x00\n        /* \"ERC721.sol\":11636:11643  tokenId */\n      dup4\n        /* \"ERC721.sol\":11628:11644  _owners[tokenId] */\n      dup2\n      mstore\n      0x20\n      add\n      swap1\n      dup2\n      mstore\n      0x20\n      add\n      0x00\n      keccak256\n      0x00\n        /* \"ERC721.sol\":11628:11649  _owners[tokenId] = to */\n      0x0100\n      exp\n      dup2\n      sload\n      dup2\n      0xffffffffffffffffffffffffffffffffffffffff\n      mul\n      not\n      and\n      swap1\n      dup4\n      0xffffffffffffffffffffffffffffffffffffffff\n      and\n      mul\n      or\n      swap1\n      sstore\n      pop\n        /* \"ERC721.sol\":11684:11691  tokenId */\n      dup1\n        /* \"ERC721.sol\":11680:11682  to */\n      dup3\n        /* \"ERC721.sol\":11665:11692  Transfer(from, to, tokenId) */\n      0xffffffffffffffffffffffffffffffffffffffff\n      and\n        /* \"ERC721.sol\":11674:11678  from */\n      dup5\n        /* \"ERC721.sol\":11665:11692  Transfer(from, to, tokenId) */\n      0xffffffffffffffffffffffffffffffffffffffff\n      and\n      0xddf252ad1be2c89b69c2b068fc378daa952ba7f163c4a11628f55a4df523b3ef\n      mload(0x40)\n      mload(0x40)\n      dup1\n      swap2\n      sub\n      swap1\n      log4\n        /* \"ERC721.sol\":11703:11741  _afterTokenTransfer(from, to, tokenId) */\n      tag_266\n        /* \"ERC721.sol\":11723:11727  from */\n      dup4\n        /* \"ERC721.sol\":11729:11731  to */\n      dup4\n        /* \"ERC721.sol\":11733:11740  tokenId */\n      dup4\n        /* \"ERC721.sol\":11703:11722  _afterTokenTransfer */\n      tag_267\n        /* \"ERC721.sol\":11703:11741  _afterTokenTransfer(from, to, tokenId) */\n      jump\t// in\n    tag_266:\n        /* \"ERC721.sol\":11143:11748  function _transfer(... */\n      pop\n      pop\n      pop\n      jump\t// out\n        /* \"ERC721.sol\":12165:12472  function _setApprovalForAll(... */\n    tag_203:\n        /* \"ERC721.sol\":12315:12323  operator */\n      dup2\n        /* \"ERC721.sol\":12306:12323  owner != operator */\n      0xffffffffffffffffffffffffffffffffffffffff\n      and\n        /* \"ERC721.sol\":12306:12311  owner */\n      dup4\n        /* \"ERC721.sol\":12306:12323  owner != operator */\n      0xffffffffffffffffffffffffffffffffffffffff\n      and\n      eq\n      iszero\n        /* \"ERC721.sol\":12298:12353  require(owner != operator, \"ERC721: approve to caller\") */\n      tag_269\n      jumpi\n      mload(0x40)\n      0x08c379a000000000000000000000000000000000000000000000000000000000\n      dup2\n      mstore\n      0x04\n      add\n      tag_270\n      swap1\n      tag_271\n      jump\t// in\n    tag_270:\n      mload(0x40)\n      dup1\n      swap2\n      sub\n      swap1\n      revert\n    tag_269:\n        /* \"ERC721.sol\":12401:12409  approved */\n      dup1\n        /* \"ERC721.sol\":12363:12381  _operatorApprovals */\n      0x06\n        /* \"ERC721.sol\":12363:12388  _operatorApprovals[owner] */\n      0x00\n        /* \"ERC721.sol\":12382:12387  owner */\n      dup6\n        /* \"ERC721.sol\":12363:12388  _operatorApprovals[owner] */\n      0xffffffffffffffffffffffffffffffffffffffff\n      and\n      0xffffffffffffffffffffffffffffffffffffffff\n      and\n      dup2\n      mstore\n      0x20\n      add\n      swap1\n      dup2\n      mstore\n      0x20\n      add\n      0x00\n      keccak256\n        /* \"ERC721.sol\":12363:12398  _operatorApprovals[owner][operator] */\n      0x00\n        /* \"ERC721.sol\":12389:12397  operator */\n      dup5\n        /* \"ERC721.sol\":12363:12398  _operatorApprovals[owner][operator] */\n      0xffffffffffffffffffffffffffffffffffffffff\n      and\n      0xffffffffffffffffffffffffffffffffffffffff\n      and\n      dup2\n      mstore\n      0x20\n      add\n      swap1\n      dup2\n      mstore\n      0x20\n      add\n      0x00\n      keccak256\n      0x00\n        /* \"ERC721.sol\":12363:12409  _operatorApprovals[owner][operator] = approved */\n      0x0100\n      exp\n      dup2\n      sload\n      dup2\n      0xff\n      mul\n      not\n      and\n      swap1\n      dup4\n      iszero\n      iszero\n      mul\n      or\n      swap1\n      sstore\n      pop\n        /* \"ERC721.sol\":12446:12454  operator */\n      dup2\n        /* \"ERC721.sol\":12424:12465  ApprovalForAll(owner, operator, approved) */\n      0xffffffffffffffffffffffffffffffffffffffff\n      and\n        /* \"ERC721.sol\":12439:12444  owner */\n      dup4\n        /* \"ERC721.sol\":12424:12465  ApprovalForAll(owner, operator, approved) */\n      0xffffffffffffffffffffffffffffffffffffffff\n      and\n      0x17307eab39ab6107e8899845ad3d59bd9653f200f220920489ca2b5937696c31\n        /* \"ERC721.sol\":12456:12464  approved */\n      dup4\n        /* \"ERC721.sol\":12424:12465  ApprovalForAll(owner, operator, approved) */\n      mload(0x40)\n      tag_272\n      swap2\n      swap1\n      tag_32\n      jump\t// in\n    tag_272:\n      mload(0x40)\n      dup1\n      swap2\n      sub\n      swap1\n      log3\n        /* \"ERC721.sol\":12165:12472  function _setApprovalForAll(... */\n      pop\n      pop\n      pop\n      jump\t// out\n        /* \"ERC721.sol\":7239:7546  function _safeTransfer(... */\n    tag_212:\n        /* \"ERC721.sol\":7390:7418  _transfer(from, to, tokenId) */\n      tag_274\n        /* \"ERC721.sol\":7400:7404  from */\n      dup5\n        /* \"ERC721.sol\":7406:7408  to */\n      dup5\n        /* \"ERC721.sol\":7410:7417  tokenId */\n      dup5\n        /* \"ERC721.sol\":7390:7399  _transfer */\n      tag_155\n        /* \"ERC721.sol\":7390:7418  _transfer(from, to, tokenId) */\n      jump\t// in\n    tag_274:\n        /* \"ERC721.sol\":7436:7484  _checkOnERC721Received(from, to, tokenId, _data) */\n      tag_275\n        /* \"ERC721.sol\":7459:7463  from */\n      dup5\n        /* \"ERC721.sol\":7465:7467  to */\n      dup5\n        /* \"ERC721.sol\":7469:7476  tokenId */\n      dup5\n        /* \"ERC721.sol\":7478:7483  _data */\n      dup5\n        /* \"ERC721.sol\":7436:7458  _checkOnERC721Received */\n      tag_276\n        /* \"ERC721.sol\":7436:7484  _checkOnERC721Received(from, to, tokenId, _data) */\n      jump\t// in\n    tag_275:\n        /* \"ERC721.sol\":7428:7539  require(_checkOnERC721Received(from, to, tokenId, _data), \"ERC721: transfer to non ERC721Receiver implementer\") */\n      tag_277\n      jumpi\n      mload(0x40)\n      0x08c379a000000000000000000000000000000000000000000000000000000000\n      dup2\n      mstore\n      0x04\n      add\n      tag_278\n      swap1\n      tag_279\n      jump\t// in\n    tag_278:\n      mload(0x40)\n      dup1\n      swap2\n      sub\n      swap1\n      revert\n    tag_277:\n        /* \"ERC721.sol\":7239:7546  function _safeTransfer(... */\n      pop\n      pop\n      pop\n      pop\n      jump\t// out\n        /* \"ERC721.sol\":3980:4072  function _baseURI() internal view virtual returns (string memory) {... */\n    tag_219:\n        /* \"ERC721.sol\":4031:4044  string memory */\n      0x60\n        /* \"ERC721.sol\":4056:4065  return \"\" */\n      mload(0x40)\n      dup1\n      0x20\n      add\n      0x40\n      mstore\n      dup1\n      0x00\n      dup2\n      mstore\n      pop\n      swap1\n      pop\n        /* \"ERC721.sol\":3980:4072  function _baseURI() internal view virtual returns (string memory) {... */\n      swap1\n      jump\t// out\n        /* \"Strings.sol\":328:1031  function toString(uint256 value) internal pure returns (string memory) {... */\n    tag_223:\n        /* \"Strings.sol\":384:397  string memory */\n      0x60\n        /* \"Strings.sol\":610:611  0 */\n      0x00\n        /* \"Strings.sol\":601:606  value */\n      dup3\n        /* \"Strings.sol\":601:611  value == 0 */\n      eq\n        /* \"Strings.sol\":597:648  if (value == 0) {... */\n      iszero\n      tag_282\n      jumpi\n        /* \"Strings.sol\":627:637  return \"0\" */\n      mload(0x40)\n      dup1\n      0x40\n      add\n      0x40\n      mstore\n      dup1\n      0x01\n      dup2\n      mstore\n      0x20\n      add\n      0x3000000000000000000000000000000000000000000000000000000000000000\n      dup2\n      mstore\n      pop\n      swap1\n      pop\n      jump(tag_281)\n        /* \"Strings.sol\":597:648  if (value == 0) {... */\n    tag_282:\n        /* \"Strings.sol\":657:669  uint256 temp */\n      0x00\n        /* \"Strings.sol\":672:677  value */\n      dup3\n        /* \"Strings.sol\":657:677  uint256 temp = value */\n      swap1\n      pop\n        /* \"Strings.sol\":687:701  uint256 digits */\n      0x00\n        /* \"Strings.sol\":711:786  while (temp != 0) {... */\n    tag_283:\n        /* \"Strings.sol\":726:727  0 */\n      0x00\n        /* \"Strings.sol\":718:722  temp */\n      dup3\n        /* \"Strings.sol\":718:727  temp != 0 */\n      eq\n        /* \"Strings.sol\":711:786  while (temp != 0) {... */\n      tag_284\n      jumpi\n        /* \"Strings.sol\":743:751  digits++ */\n      dup1\n      dup1\n      tag_285\n      swap1\n      tag_286\n      jump\t// in\n    tag_285:\n      swap2\n      pop\n      pop\n        /* \"Strings.sol\":773:775  10 */\n      0x0a\n        /* \"Strings.sol\":765:775  temp /= 10 */\n      dup3\n      tag_287\n      swap2\n      swap1\n      tag_288\n      jump\t// in\n    tag_287:\n      swap2\n      pop\n        /* \"Strings.sol\":711:786  while (temp != 0) {... */\n      jump(tag_283)\n    tag_284:\n        /* \"Strings.sol\":795:814  bytes memory buffer */\n      0x00\n        /* \"Strings.sol\":827:833  digits */\n      dup2\n        /* \"Strings.sol\":817:834  new bytes(digits) */\n      0xffffffffffffffff\n      dup2\n      gt\n      iszero\n      tag_289\n      jumpi\n      tag_290\n      tag_291\n      jump\t// in\n    tag_290:\n    tag_289:\n      mload(0x40)\n      swap1\n      dup1\n      dup3\n      mstore\n      dup1\n      0x1f\n      add\n      not(0x1f)\n      and\n      0x20\n      add\n      dup3\n      add\n      0x40\n      mstore\n      dup1\n      iszero\n      tag_292\n      jumpi\n      dup2\n      0x20\n      add\n      0x01\n      dup3\n      mul\n      dup1\n      calldatasize\n      dup4\n      calldatacopy\n      dup1\n      dup3\n      add\n      swap2\n      pop\n      pop\n      swap1\n      pop\n    tag_292:\n      pop\n        /* \"Strings.sol\":795:834  bytes memory buffer = new bytes(digits) */\n      swap1\n      pop\n        /* \"Strings.sol\":844:994  while (value != 0) {... */\n    tag_293:\n        /* \"Strings.sol\":860:861  0 */\n      0x00\n        /* \"Strings.sol\":851:856  value */\n      dup6\n        /* \"Strings.sol\":851:861  value != 0 */\n      eq\n        /* \"Strings.sol\":844:994  while (value != 0) {... */\n      tag_294\n      jumpi\n        /* \"Strings.sol\":887:888  1 */\n      0x01\n        /* \"Strings.sol\":877:888  digits -= 1 */\n      dup3\n      tag_295\n      swap2\n      swap1\n      tag_263\n      jump\t// in\n    tag_295:\n      swap2\n      pop\n        /* \"Strings.sol\":953:955  10 */\n      0x0a\n        /* \"Strings.sol\":945:950  value */\n      dup6\n        /* \"Strings.sol\":945:955  value % 10 */\n      tag_296\n      swap2\n      swap1\n      tag_297\n      jump\t// in\n    tag_296:\n        /* \"Strings.sol\":932:934  48 */\n      0x30\n        /* \"Strings.sol\":932:956  48 + uint256(value % 10) */\n      tag_298\n      swap2\n      swap1\n      tag_265\n      jump\t// in\n    tag_298:\n        /* \"Strings.sol\":919:958  bytes1(uint8(48 + uint256(value % 10))) */\n      0xf8\n      shl\n        /* \"Strings.sol\":902:908  buffer */\n      dup2\n        /* \"Strings.sol\":909:915  digits */\n      dup4\n        /* \"Strings.sol\":902:916  buffer[digits] */\n      dup2\n      mload\n      dup2\n      lt\n      tag_299\n      jumpi\n      tag_300\n      tag_301\n      jump\t// in\n    tag_300:\n    tag_299:\n      0x20\n      add\n      add\n        /* \"Strings.sol\":902:958  buffer[digits] = bytes1(uint8(48 + uint256(value % 10))) */\n      swap1\n      not(0xffffffffffffffffffffffffffffffffffffffffffffffffffffffffffffff)\n      and\n      swap1\n      dup2\n      0x00\n      byte\n      swap1\n      mstore8\n      pop\n        /* \"Strings.sol\":981:983  10 */\n      0x0a\n        /* \"Strings.sol\":972:983  value /= 10 */\n      dup6\n      tag_302\n      swap2\n      swap1\n      tag_288\n      jump\t// in\n    tag_302:\n      swap5\n      pop\n        /* \"Strings.sol\":844:994  while (value != 0) {... */\n      jump(tag_293)\n    tag_294:\n        /* \"Strings.sol\":1017:1023  buffer */\n      dup1\n        /* \"Strings.sol\":1003:1024  return string(buffer) */\n      swap4\n      pop\n      pop\n      pop\n      pop\n        /* \"Strings.sol\":328:1031  function toString(uint256 value) internal pure returns (string memory) {... */\n    tag_281:\n      swap2\n      swap1\n      pop\n      jump\t// out\n        /* \"BEPOwnable.sol\":2090:2301  function _transferOwnership(address newOwner) internal {... */\n    tag_235:\n        /* \"BEPOwnable.sol\":2179:2180  0 */\n      0x00\n        /* \"BEPOwnable.sol\":2159:2181  newOwner != address(0) */\n      0xffffffffffffffffffffffffffffffffffffffff\n      and\n        /* \"BEPOwnable.sol\":2159:2167  newOwner */\n      dup2\n        /* \"BEPOwnable.sol\":2159:2181  newOwner != address(0) */\n      0xffffffffffffffffffffffffffffffffffffffff\n      and\n      eq\n      iszero\n        /* \"BEPOwnable.sol\":2151:2224  require(newOwner != address(0), \"Ownable: new owner is the zero address\") */\n      tag_304\n      jumpi\n      mload(0x40)\n      0x08c379a000000000000000000000000000000000000000000000000000000000\n      dup2\n      mstore\n      0x04\n      add\n      tag_305\n      swap1\n      tag_306\n      jump\t// in\n    tag_305:\n      mload(0x40)\n      dup1\n      swap2\n      sub\n      swap1\n      revert\n    tag_304:\n        /* \"BEPOwnable.sol\":2264:2272  newOwner */\n      dup1\n        /* \"BEPOwnable.sol\":2235:2273  OwnershipTransferred(_owner, newOwner) */\n      0xffffffffffffffffffffffffffffffffffffffff\n      and\n        /* \"BEPOwnable.sol\":2256:2262  _owner */\n      0x00\n      dup1\n      sload\n      swap1\n      0x0100\n      exp\n      swap1\n      div\n      0xffffffffffffffffffffffffffffffffffffffff\n      and\n        /* \"BEPOwnable.sol\":2235:2273  OwnershipTransferred(_owner, newOwner) */\n      0xffffffffffffffffffffffffffffffffffffffff\n      and\n      0x8be0079c531659141344cd1fd0a4f28419497f9722a3daafe3b4186f6b6457e0\n      mload(0x40)\n      mload(0x40)\n      dup1\n      swap2\n      sub\n      swap1\n      log3\n        /* \"BEPOwnable.sol\":2288:2296  newOwner */\n      dup1\n        /* \"BEPOwnable.sol\":2279:2285  _owner */\n      0x00\n      dup1\n        /* \"BEPOwnable.sol\":2279:2296  _owner = newOwner */\n      0x0100\n      exp\n      dup2\n      sload\n      dup2\n      0xffffffffffffffffffffffffffffffffffffffff\n      mul\n      not\n      and\n      swap1\n      dup4\n      0xffffffffffffffffffffffffffffffffffffffff\n      and\n      mul\n      or\n      swap1\n      sstore\n      pop\n        /* \"BEPOwnable.sol\":2090:2301  function _transferOwnership(address newOwner) internal {... */\n      pop\n      jump\t// out\n        /* \"ERC721.sol\":14359:14481  function _beforeTokenTransfer(... */\n    tag_260:\n      pop\n      pop\n      pop\n      jump\t// out\n        /* \"ERC721.sol\":14853:14974  function _afterTokenTransfer(... */\n    tag_267:\n      pop\n      pop\n      pop\n      jump\t// out\n        /* \"ERC721.sol\":13025:13803  function _checkOnERC721Received(... */\n    tag_276:\n        /* \"ERC721.sol\":13175:13179  bool */\n      0x00\n        /* \"ERC721.sol\":13195:13210  to.isContract() */\n      tag_310\n        /* \"ERC721.sol\":13195:13197  to */\n      dup5\n        /* \"ERC721.sol\":13195:13208  to.isContract */\n      0xffffffffffffffffffffffffffffffffffffffff\n      and\n      tag_311\n        /* \"ERC721.sol\":13195:13210  to.isContract() */\n      jump\t// in\n    tag_310:\n        /* \"ERC721.sol\":13191:13797  if (to.isContract()) {... */\n      iszero\n      tag_312\n      jumpi\n        /* \"ERC721.sol\":13246:13248  to */\n      dup4\n        /* \"ERC721.sol\":13230:13266  IERC721Receiver(to).onERC721Received */\n      0xffffffffffffffffffffffffffffffffffffffff\n      and\n      0x150b7a02\n        /* \"ERC721.sol\":13267:13279  _msgSender() */\n      tag_313\n        /* \"ERC721.sol\":13267:13277  _msgSender */\n      tag_136\n        /* \"ERC721.sol\":13267:13279  _msgSender() */\n      jump\t// in\n    tag_313:\n        /* \"ERC721.sol\":13281:13285  from */\n      dup8\n        /* \"ERC721.sol\":13287:13294  tokenId */\n      dup7\n        /* \"ERC721.sol\":13296:13301  _data */\n      dup7\n        /* \"ERC721.sol\":13230:13302  IERC721Receiver(to).onERC721Received(_msgSender(), from, tokenId, _data) */\n      mload(0x40)\n      dup6\n      0xffffffff\n      and\n      0xe0\n      shl\n      dup2\n      mstore\n      0x04\n      add\n      tag_314\n      swap5\n      swap4\n      swap3\n      swap2\n      swap1\n      tag_315\n      jump\t// in\n    tag_314:\n      0x20\n      mload(0x40)\n      dup1\n      dup4\n      sub\n      dup2\n      0x00\n      dup8\n      dup1\n      extcodesize\n      iszero\n      dup1\n      iszero\n      tag_316\n      jumpi\n      0x00\n      dup1\n      revert\n    tag_316:\n      pop\n      gas\n      call\n      swap3\n      pop\n      pop\n      pop\n      dup1\n      iszero\n      tag_317\n      jumpi\n      pop\n      mload(0x40)\n      returndatasize\n      not(0x1f)\n      0x1f\n      dup3\n      add\n      and\n      dup3\n      add\n      dup1\n      0x40\n      mstore\n      pop\n      dup2\n      add\n      swap1\n      tag_318\n      swap2\n      swap1\n      tag_319\n      jump\t// in\n    tag_318:\n      0x01\n    tag_317:\n        /* \"ERC721.sol\":13226:13745  try IERC721Receiver(to).onERC721Received(_msgSender(), from, tokenId, _data) returns (bytes4 retval) {... */\n      tag_320\n      jumpi\n      returndatasize\n      dup1\n      0x00\n      dup2\n      eq\n      tag_325\n      jumpi\n      mload(0x40)\n      swap2\n      pop\n      and(add(returndatasize, 0x3f), not(0x1f))\n      dup3\n      add\n      0x40\n      mstore\n      returndatasize\n      dup3\n      mstore\n      returndatasize\n      0x00\n      0x20\n      dup5\n      add\n      returndatacopy\n      jump(tag_324)\n    tag_325:\n      0x60\n      swap2\n      pop\n    tag_324:\n      pop\n        /* \"ERC721.sol\":13486:13487  0 */\n      0x00\n        /* \"ERC721.sol\":13469:13475  reason */\n      dup2\n        /* \"ERC721.sol\":13469:13482  reason.length */\n      mload\n        /* \"ERC721.sol\":13469:13487  reason.length == 0 */\n      eq\n        /* \"ERC721.sol\":13465:13731  if (reason.length == 0) {... */\n      iszero\n      tag_326\n      jumpi\n        /* \"ERC721.sol\":13511:13571  revert(\"ERC721: transfer to non ERC721Receiver implementer\") */\n      mload(0x40)\n      0x08c379a000000000000000000000000000000000000000000000000000000000\n      dup2\n      mstore\n      0x04\n      add\n      tag_327\n      swap1\n      tag_279\n      jump\t// in\n    tag_327:\n      mload(0x40)\n      dup1\n      swap2\n      sub\n      swap1\n      revert\n        /* \"ERC721.sol\":13465:13731  if (reason.length == 0) {... */\n    tag_326:\n        /* \"ERC721.sol\":13683:13689  reason */\n      dup1\n        /* \"ERC721.sol\":13677:13690  mload(reason) */\n      mload\n        /* \"ERC721.sol\":13668:13674  reason */\n      dup2\n        /* \"ERC721.sol\":13664:13666  32 */\n      0x20\n        /* \"ERC721.sol\":13660:13675  add(32, reason) */\n      add\n        /* \"ERC721.sol\":13653:13691  revert(add(32, reason), mload(reason)) */\n      revert\n        /* \"ERC721.sol\":13226:13745  try IERC721Receiver(to).onERC721Received(_msgSender(), from, tokenId, _data) returns (bytes4 retval) {... */\n    tag_320:\n        /* \"ERC721.sol\":13362:13403  IERC721Receiver.onERC721Received.selector */\n      shl(0xe0, 0x150b7a02)\n        /* \"ERC721.sol\":13352:13403  retval == IERC721Receiver.onERC721Received.selector */\n      not(0xffffffffffffffffffffffffffffffffffffffffffffffffffffffff)\n      and\n        /* \"ERC721.sol\":13352:13358  retval */\n      dup2\n        /* \"ERC721.sol\":13352:13403  retval == IERC721Receiver.onERC721Received.selector */\n      not(0xffffffffffffffffffffffffffffffffffffffffffffffffffffffff)\n      and\n      eq\n        /* \"ERC721.sol\":13345:13403  return retval == IERC721Receiver.onERC721Received.selector */\n      swap2\n      pop\n      pop\n      jump(tag_309)\n        /* \"ERC721.sol\":13191:13797  if (to.isContract()) {... */\n    tag_312:\n        /* \"ERC721.sol\":13782:13786  true */\n      0x01\n        /* \"ERC721.sol\":13775:13786  return true */\n      swap1\n      pop\n        /* \"ERC721.sol\":13025:13803  function _checkOnERC721Received(... */\n    tag_309:\n      swap5\n      swap4\n      pop\n      pop\n      pop\n      pop\n      jump\t// out\n        /* \"Address.sol\":1160:1480  function isContract(address account) internal view returns (bool) {... */\n    tag_311:\n        /* \"Address.sol\":1220:1224  bool */\n      0x00\n        /* \"Address.sol\":1472:1473  0 */\n      dup1\n        /* \"Address.sol\":1450:1457  account */\n      dup3\n        /* \"Address.sol\":1450:1469  account.code.length */\n      0xffffffffffffffffffffffffffffffffffffffff\n      and\n      extcodesize\n        /* \"Address.sol\":1450:1473  account.code.length > 0 */\n      gt\n        /* \"Address.sol\":1443:1473  return account.code.length > 0 */\n      swap1\n      pop\n        /* \"Address.sol\":1160:1480  function isContract(address account) internal view returns (bool) {... */\n      swap2\n      swap1\n      pop\n      jump\t// out\n        /* \"#utility.yul\":7:417   */\n    tag_333:\n        /* \"#utility.yul\":84:89   */\n      0x00\n        /* \"#utility.yul\":109:174   */\n      tag_335\n        /* \"#utility.yul\":125:173   */\n      tag_336\n        /* \"#utility.yul\":166:172   */\n      dup5\n        /* \"#utility.yul\":125:173   */\n      tag_337\n      jump\t// in\n    tag_336:\n        /* \"#utility.yul\":109:174   */\n      tag_338\n      jump\t// in\n    tag_335:\n        /* \"#utility.yul\":100:174   */\n      swap1\n      pop\n        /* \"#utility.yul\":197:203   */\n      dup3\n        /* \"#utility.yul\":190:195   */\n      dup2\n        /* \"#utility.yul\":183:204   */\n      mstore\n        /* \"#utility.yul\":235:239   */\n      0x20\n        /* \"#utility.yul\":228:233   */\n      dup2\n        /* \"#utility.yul\":224:240   */\n      add\n        /* \"#utility.yul\":273:276   */\n      dup5\n        /* \"#utility.yul\":264:270   */\n      dup5\n        /* \"#utility.yul\":259:262   */\n      dup5\n        /* \"#utility.yul\":255:271   */\n      add\n        /* \"#utility.yul\":252:277   */\n      gt\n        /* \"#utility.yul\":249:361   */\n      iszero\n      tag_339\n      jumpi\n        /* \"#utility.yul\":280:359   */\n      tag_340\n      tag_341\n      jump\t// in\n    tag_340:\n        /* \"#utility.yul\":249:361   */\n    tag_339:\n        /* \"#utility.yul\":370:411   */\n      tag_342\n        /* \"#utility.yul\":404:410   */\n      dup5\n        /* \"#utility.yul\":399:402   */\n      dup3\n        /* \"#utility.yul\":394:397   */\n      dup6\n        /* \"#utility.yul\":370:411   */\n      tag_343\n      jump\t// in\n    tag_342:\n        /* \"#utility.yul\":90:417   */\n      pop\n        /* \"#utility.yul\":7:417   */\n      swap4\n      swap3\n      pop\n      pop\n      pop\n      jump\t// out\n        /* \"#utility.yul\":423:562   */\n    tag_344:\n        /* \"#utility.yul\":469:474   */\n      0x00\n        /* \"#utility.yul\":507:513   */\n      dup2\n        /* \"#utility.yul\":494:514   */\n      calldataload\n        /* \"#utility.yul\":485:514   */\n      swap1\n      pop\n        /* \"#utility.yul\":523:556   */\n      tag_346\n        /* \"#utility.yul\":550:555   */\n      dup2\n        /* \"#utility.yul\":523:556   */\n      tag_347\n      jump\t// in\n    tag_346:\n        /* \"#utility.yul\":423:562   */\n      swap3\n      swap2\n      pop\n      pop\n      jump\t// out\n        /* \"#utility.yul\":568:701   */\n    tag_348:\n        /* \"#utility.yul\":611:616   */\n      0x00\n        /* \"#utility.yul\":649:655   */\n      dup2\n        /* \"#utility.yul\":636:656   */\n      calldataload\n        /* \"#utility.yul\":627:656   */\n      swap1\n      pop\n        /* \"#utility.yul\":665:695   */\n      tag_350\n        /* \"#utility.yul\":689:694   */\n      dup2\n        /* \"#utility.yul\":665:695   */\n      tag_351\n      jump\t// in\n    tag_350:\n        /* \"#utility.yul\":568:701   */\n      swap3\n      swap2\n      pop\n      pop\n      jump\t// out\n        /* \"#utility.yul\":707:844   */\n    tag_352:\n        /* \"#utility.yul\":752:757   */\n      0x00\n        /* \"#utility.yul\":790:796   */\n      dup2\n        /* \"#utility.yul\":777:797   */\n      calldataload\n        /* \"#utility.yul\":768:797   */\n      swap1\n      pop\n        /* \"#utility.yul\":806:838   */\n      tag_354\n        /* \"#utility.yul\":832:837   */\n      dup2\n        /* \"#utility.yul\":806:838   */\n      tag_355\n      jump\t// in\n    tag_354:\n        /* \"#utility.yul\":707:844   */\n      swap3\n      swap2\n      pop\n      pop\n      jump\t// out\n        /* \"#utility.yul\":850:991   */\n    tag_356:\n        /* \"#utility.yul\":906:911   */\n      0x00\n        /* \"#utility.yul\":937:943   */\n      dup2\n        /* \"#utility.yul\":931:944   */\n      mload\n        /* \"#utility.yul\":922:944   */\n      swap1\n      pop\n        /* \"#utility.yul\":953:985   */\n      tag_358\n        /* \"#utility.yul\":979:984   */\n      dup2\n        /* \"#utility.yul\":953:985   */\n      tag_355\n      jump\t// in\n    tag_358:\n        /* \"#utility.yul\":850:991   */\n      swap3\n      swap2\n      pop\n      pop\n      jump\t// out\n        /* \"#utility.yul\":1010:1348   */\n    tag_359:\n        /* \"#utility.yul\":1065:1070   */\n      0x00\n        /* \"#utility.yul\":1114:1117   */\n      dup3\n        /* \"#utility.yul\":1107:1111   */\n      0x1f\n        /* \"#utility.yul\":1099:1105   */\n      dup4\n        /* \"#utility.yul\":1095:1112   */\n      add\n        /* \"#utility.yul\":1091:1118   */\n      slt\n        /* \"#utility.yul\":1081:1203   */\n      tag_361\n      jumpi\n        /* \"#utility.yul\":1122:1201   */\n      tag_362\n      tag_363\n      jump\t// in\n    tag_362:\n        /* \"#utility.yul\":1081:1203   */\n    tag_361:\n        /* \"#utility.yul\":1239:1245   */\n      dup2\n        /* \"#utility.yul\":1226:1246   */\n      calldataload\n        /* \"#utility.yul\":1264:1342   */\n      tag_364\n        /* \"#utility.yul\":1338:1341   */\n      dup5\n        /* \"#utility.yul\":1330:1336   */\n      dup3\n        /* \"#utility.yul\":1323:1327   */\n      0x20\n        /* \"#utility.yul\":1315:1321   */\n      dup7\n        /* \"#utility.yul\":1311:1328   */\n      add\n        /* \"#utility.yul\":1264:1342   */\n      tag_333\n      jump\t// in\n    tag_364:\n        /* \"#utility.yul\":1255:1342   */\n      swap2\n      pop\n        /* \"#utility.yul\":1071:1348   */\n      pop\n        /* \"#utility.yul\":1010:1348   */\n      swap3\n      swap2\n      pop\n      pop\n      jump\t// out\n        /* \"#utility.yul\":1354:1493   */\n    tag_365:\n        /* \"#utility.yul\":1400:1405   */\n      0x00\n        /* \"#utility.yul\":1438:1444   */\n      dup2\n        /* \"#utility.yul\":1425:1445   */\n      calldataload\n        /* \"#utility.yul\":1416:1445   */\n      swap1\n      pop\n        /* \"#utility.yul\":1454:1487   */\n      tag_367\n        /* \"#utility.yul\":1481:1486   */\n      dup2\n        /* \"#utility.yul\":1454:1487   */\n      tag_368\n      jump\t// in\n    tag_367:\n        /* \"#utility.yul\":1354:1493   */\n      swap3\n      swap2\n      pop\n      pop\n      jump\t// out\n        /* \"#utility.yul\":1499:1828   */\n    tag_70:\n        /* \"#utility.yul\":1558:1564   */\n      0x00\n        /* \"#utility.yul\":1607:1609   */\n      0x20\n        /* \"#utility.yul\":1595:1604   */\n      dup3\n        /* \"#utility.yul\":1586:1593   */\n      dup5\n        /* \"#utility.yul\":1582:1605   */\n      sub\n        /* \"#utility.yul\":1578:1610   */\n      slt\n        /* \"#utility.yul\":1575:1694   */\n      iszero\n      tag_370\n      jumpi\n        /* \"#utility.yul\":1613:1692   */\n      tag_371\n      tag_372\n      jump\t// in\n    tag_371:\n        /* \"#utility.yul\":1575:1694   */\n    tag_370:\n        /* \"#utility.yul\":1733:1734   */\n      0x00\n        /* \"#utility.yul\":1758:1811   */\n      tag_373\n        /* \"#utility.yul\":1803:1810   */\n      dup5\n        /* \"#utility.yul\":1794:1800   */\n      dup3\n        /* \"#utility.yul\":1783:1792   */\n      dup6\n        /* \"#utility.yul\":1779:1801   */\n      add\n        /* \"#utility.yul\":1758:1811   */\n      tag_344\n      jump\t// in\n    tag_373:\n        /* \"#utility.yul\":1748:1811   */\n      swap2\n      pop\n        /* \"#utility.yul\":1704:1821   */\n      pop\n        /* \"#utility.yul\":1499:1828   */\n      swap3\n      swap2\n      pop\n      pop\n      jump\t// out\n        /* \"#utility.yul\":1834:2308   */\n    tag_102:\n        /* \"#utility.yul\":1902:1908   */\n      0x00\n        /* \"#utility.yul\":1910:1916   */\n      dup1\n        /* \"#utility.yul\":1959:1961   */\n      0x40\n        /* \"#utility.yul\":1947:1956   */\n      dup4\n        /* \"#utility.yul\":1938:1945   */\n      dup6\n        /* \"#utility.yul\":1934:1957   */\n      sub\n        /* \"#utility.yul\":1930:1962   */\n      slt\n        /* \"#utility.yul\":1927:2046   */\n      iszero\n      tag_375\n      jumpi\n        /* \"#utility.yul\":1965:2044   */\n      tag_376\n      tag_372\n      jump\t// in\n    tag_376:\n        /* \"#utility.yul\":1927:2046   */\n    tag_375:\n        /* \"#utility.yul\":2085:2086   */\n      0x00\n        /* \"#utility.yul\":2110:2163   */\n      tag_377\n        /* \"#utility.yul\":2155:2162   */\n      dup6\n        /* \"#utility.yul\":2146:2152   */\n      dup3\n        /* \"#utility.yul\":2135:2144   */\n      dup7\n        /* \"#utility.yul\":2131:2153   */\n      add\n        /* \"#utility.yul\":2110:2163   */\n      tag_344\n      jump\t// in\n    tag_377:\n        /* \"#utility.yul\":2100:2163   */\n      swap3\n      pop\n        /* \"#utility.yul\":2056:2173   */\n      pop\n        /* \"#utility.yul\":2212:2214   */\n      0x20\n        /* \"#utility.yul\":2238:2291   */\n      tag_378\n        /* \"#utility.yul\":2283:2290   */\n      dup6\n        /* \"#utility.yul\":2274:2280   */\n      dup3\n        /* \"#utility.yul\":2263:2272   */\n      dup7\n        /* \"#utility.yul\":2259:2281   */\n      add\n        /* \"#utility.yul\":2238:2291   */\n      tag_344\n      jump\t// in\n    tag_378:\n        /* \"#utility.yul\":2228:2291   */\n      swap2\n      pop\n        /* \"#utility.yul\":2183:2301   */\n      pop\n        /* \"#utility.yul\":1834:2308   */\n      swap3\n      pop\n      swap3\n      swap1\n      pop\n      jump\t// out\n        /* \"#utility.yul\":2314:2933   */\n    tag_49:\n        /* \"#utility.yul\":2391:2397   */\n      0x00\n        /* \"#utility.yul\":2399:2405   */\n      dup1\n        /* \"#utility.yul\":2407:2413   */\n      0x00\n        /* \"#utility.yul\":2456:2458   */\n      0x60\n        /* \"#utility.yul\":2444:2453   */\n      dup5\n        /* \"#utility.yul\":2435:2442   */\n      dup7\n        /* \"#utility.yul\":2431:2454   */\n      sub\n        /* \"#utility.yul\":2427:2459   */\n      slt\n        /* \"#utility.yul\":2424:2543   */\n      iszero\n      tag_380\n      jumpi\n        /* \"#utility.yul\":2462:2541   */\n      tag_381\n      tag_372\n      jump\t// in\n    tag_381:\n        /* \"#utility.yul\":2424:2543   */\n    tag_380:\n        /* \"#utility.yul\":2582:2583   */\n      0x00\n        /* \"#utility.yul\":2607:2660   */\n      tag_382\n        /* \"#utility.yul\":2652:2659   */\n      dup7\n        /* \"#utility.yul\":2643:2649   */\n      dup3\n        /* \"#utility.yul\":2632:2641   */\n      dup8\n        /* \"#utility.yul\":2628:2650   */\n      add\n        /* \"#utility.yul\":2607:2660   */\n      tag_344\n      jump\t// in\n    tag_382:\n        /* \"#utility.yul\":2597:2660   */\n      swap4\n      pop\n        /* \"#utility.yul\":2553:2670   */\n      pop\n        /* \"#utility.yul\":2709:2711   */\n      0x20\n        /* \"#utility.yul\":2735:2788   */\n      tag_383\n        /* \"#utility.yul\":2780:2787   */\n      dup7\n        /* \"#utility.yul\":2771:2777   */\n      dup3\n        /* \"#utility.yul\":2760:2769   */\n      dup8\n        /* \"#utility.yul\":2756:2778   */\n      add\n        /* \"#utility.yul\":2735:2788   */\n      tag_344\n      jump\t// in\n    tag_383:\n        /* \"#utility.yul\":2725:2788   */\n      swap3\n      pop\n        /* \"#utility.yul\":2680:2798   */\n      pop\n        /* \"#utility.yul\":2837:2839   */\n      0x40\n        /* \"#utility.yul\":2863:2916   */\n      tag_384\n        /* \"#utility.yul\":2908:2915   */\n      dup7\n        /* \"#utility.yul\":2899:2905   */\n      dup3\n        /* \"#utility.yul\":2888:2897   */\n      dup8\n        /* \"#utility.yul\":2884:2906   */\n      add\n        /* \"#utility.yul\":2863:2916   */\n      tag_365\n      jump\t// in\n    tag_384:\n        /* \"#utility.yul\":2853:2916   */\n      swap2\n      pop\n        /* \"#utility.yul\":2808:2926   */\n      pop\n        /* \"#utility.yul\":2314:2933   */\n      swap3\n      pop\n      swap3\n      pop\n      swap3\n      jump\t// out\n        /* \"#utility.yul\":2939:3882   */\n    tag_94:\n        /* \"#utility.yul\":3034:3040   */\n      0x00\n        /* \"#utility.yul\":3042:3048   */\n      dup1\n        /* \"#utility.yul\":3050:3056   */\n      0x00\n        /* \"#utility.yul\":3058:3064   */\n      dup1\n        /* \"#utility.yul\":3107:3110   */\n      0x80\n        /* \"#utility.yul\":3095:3104   */\n      dup6\n        /* \"#utility.yul\":3086:3093   */\n      dup8\n        /* \"#utility.yul\":3082:3105   */\n      sub\n        /* \"#utility.yul\":3078:3111   */\n      slt\n        /* \"#utility.yul\":3075:3195   */\n      iszero\n      tag_386\n      jumpi\n        /* \"#utility.yul\":3114:3193   */\n      tag_387\n      tag_372\n      jump\t// in\n    tag_387:\n        /* \"#utility.yul\":3075:3195   */\n    tag_386:\n        /* \"#utility.yul\":3234:3235   */\n      0x00\n        /* \"#utility.yul\":3259:3312   */\n      tag_388\n        /* \"#utility.yul\":3304:3311   */\n      dup8\n        /* \"#utility.yul\":3295:3301   */\n      dup3\n        /* \"#utility.yul\":3284:3293   */\n      dup9\n        /* \"#utility.yul\":3280:3302   */\n      add\n        /* \"#utility.yul\":3259:3312   */\n      tag_344\n      jump\t// in\n    tag_388:\n        /* \"#utility.yul\":3249:3312   */\n      swap5\n      pop\n        /* \"#utility.yul\":3205:3322   */\n      pop\n        /* \"#utility.yul\":3361:3363   */\n      0x20\n        /* \"#utility.yul\":3387:3440   */\n      tag_389\n        /* \"#utility.yul\":3432:3439   */\n      dup8\n        /* \"#utility.yul\":3423:3429   */\n      dup3\n        /* \"#utility.yul\":3412:3421   */\n      dup9\n        /* \"#utility.yul\":3408:3430   */\n      add\n        /* \"#utility.yul\":3387:3440   */\n      tag_344\n      jump\t// in\n    tag_389:\n        /* \"#utility.yul\":3377:3440   */\n      swap4\n      pop\n        /* \"#utility.yul\":3332:3450   */\n      pop\n        /* \"#utility.yul\":3489:3491   */\n      0x40\n        /* \"#utility.yul\":3515:3568   */\n      tag_390\n        /* \"#utility.yul\":3560:3567   */\n      dup8\n        /* \"#utility.yul\":3551:3557   */\n      dup3\n        /* \"#utility.yul\":3540:3549   */\n      dup9\n        /* \"#utility.yul\":3536:3558   */\n      add\n        /* \"#utility.yul\":3515:3568   */\n      tag_365\n      jump\t// in\n    tag_390:\n        /* \"#utility.yul\":3505:3568   */\n      swap3\n      pop\n        /* \"#utility.yul\":3460:3578   */\n      pop\n        /* \"#utility.yul\":3645:3647   */\n      0x60\n        /* \"#utility.yul\":3634:3643   */\n      dup6\n        /* \"#utility.yul\":3630:3648   */\n      add\n        /* \"#utility.yul\":3617:3649   */\n      calldataload\n        /* \"#utility.yul\":3676:3694   */\n      0xffffffffffffffff\n        /* \"#utility.yul\":3668:3674   */\n      dup2\n        /* \"#utility.yul\":3665:3695   */\n      gt\n        /* \"#utility.yul\":3662:3779   */\n      iszero\n      tag_391\n      jumpi\n        /* \"#utility.yul\":3698:3777   */\n      tag_392\n      tag_393\n      jump\t// in\n    tag_392:\n        /* \"#utility.yul\":3662:3779   */\n    tag_391:\n        /* \"#utility.yul\":3803:3865   */\n      tag_394\n        /* \"#utility.yul\":3857:3864   */\n      dup8\n        /* \"#utility.yul\":3848:3854   */\n      dup3\n        /* \"#utility.yul\":3837:3846   */\n      dup9\n        /* \"#utility.yul\":3833:3855   */\n      add\n        /* \"#utility.yul\":3803:3865   */\n      tag_359\n      jump\t// in\n    tag_394:\n        /* \"#utility.yul\":3793:3865   */\n      swap2\n      pop\n        /* \"#utility.yul\":3588:3875   */\n      pop\n        /* \"#utility.yul\":2939:3882   */\n      swap3\n      swap6\n      swap2\n      swap5\n      pop\n      swap3\n      pop\n      jump\t// out\n        /* \"#utility.yul\":3888:4356   */\n    tag_90:\n        /* \"#utility.yul\":3953:3959   */\n      0x00\n        /* \"#utility.yul\":3961:3967   */\n      dup1\n        /* \"#utility.yul\":4010:4012   */\n      0x40\n        /* \"#utility.yul\":3998:4007   */\n      dup4\n        /* \"#utility.yul\":3989:3996   */\n      dup6\n        /* \"#utility.yul\":3985:4008   */\n      sub\n        /* \"#utility.yul\":3981:4013   */\n      slt\n        /* \"#utility.yul\":3978:4097   */\n      iszero\n      tag_396\n      jumpi\n        /* \"#utility.yul\":4016:4095   */\n      tag_397\n      tag_372\n      jump\t// in\n    tag_397:\n        /* \"#utility.yul\":3978:4097   */\n    tag_396:\n        /* \"#utility.yul\":4136:4137   */\n      0x00\n        /* \"#utility.yul\":4161:4214   */\n      tag_398\n        /* \"#utility.yul\":4206:4213   */\n      dup6\n        /* \"#utility.yul\":4197:4203   */\n      dup3\n        /* \"#utility.yul\":4186:4195   */\n      dup7\n        /* \"#utility.yul\":4182:4204   */\n      add\n        /* \"#utility.yul\":4161:4214   */\n      tag_344\n      jump\t// in\n    tag_398:\n        /* \"#utility.yul\":4151:4214   */\n      swap3\n      pop\n        /* \"#utility.yul\":4107:4224   */\n      pop\n        /* \"#utility.yul\":4263:4265   */\n      0x20\n        /* \"#utility.yul\":4289:4339   */\n      tag_399\n        /* \"#utility.yul\":4331:4338   */\n      dup6\n        /* \"#utility.yul\":4322:4328   */\n      dup3\n        /* \"#utility.yul\":4311:4320   */\n      dup7\n        /* \"#utility.yul\":4307:4329   */\n      add\n        /* \"#utility.yul\":4289:4339   */\n      tag_348\n      jump\t// in\n    tag_399:\n        /* \"#utility.yul\":4279:4339   */\n      swap2\n      pop\n        /* \"#utility.yul\":4234:4349   */\n      pop\n        /* \"#utility.yul\":3888:4356   */\n      swap3\n      pop\n      swap3\n      swap1\n      pop\n      jump\t// out\n        /* \"#utility.yul\":4362:4836   */\n    tag_45:\n        /* \"#utility.yul\":4430:4436   */\n      0x00\n        /* \"#utility.yul\":4438:4444   */\n      dup1\n        /* \"#utility.yul\":4487:4489   */\n      0x40\n        /* \"#utility.yul\":4475:4484   */\n      dup4\n        /* \"#utility.yul\":4466:4473   */\n      dup6\n        /* \"#utility.yul\":4462:4485   */\n      sub\n        /* \"#utility.yul\":4458:4490   */\n      slt\n        /* \"#utility.yul\":4455:4574   */\n      iszero\n      tag_401\n      jumpi\n        /* \"#utility.yul\":4493:4572   */\n      tag_402\n      tag_372\n      jump\t// in\n    tag_402:\n        /* \"#utility.yul\":4455:4574   */\n    tag_401:\n        /* \"#utility.yul\":4613:4614   */\n      0x00\n        /* \"#utility.yul\":4638:4691   */\n      tag_403\n        /* \"#utility.yul\":4683:4690   */\n      dup6\n        /* \"#utility.yul\":4674:4680   */\n      dup3\n        /* \"#utility.yul\":4663:4672   */\n      dup7\n        /* \"#utility.yul\":4659:4681   */\n      add\n        /* \"#utility.yul\":4638:4691   */\n      tag_344\n      jump\t// in\n    tag_403:\n        /* \"#utility.yul\":4628:4691   */\n      swap3\n      pop\n        /* \"#utility.yul\":4584:4701   */\n      pop\n        /* \"#utility.yul\":4740:4742   */\n      0x20\n        /* \"#utility.yul\":4766:4819   */\n      tag_404\n        /* \"#utility.yul\":4811:4818   */\n      dup6\n        /* \"#utility.yul\":4802:4808   */\n      dup3\n        /* \"#utility.yul\":4791:4800   */\n      dup7\n        /* \"#utility.yul\":4787:4809   */\n      add\n        /* \"#utility.yul\":4766:4819   */\n      tag_365\n      jump\t// in\n    tag_404:\n        /* \"#utility.yul\":4756:4819   */\n      swap2\n      pop\n        /* \"#utility.yul\":4711:4829   */\n      pop\n        /* \"#utility.yul\":4362:4836   */\n      swap3\n      pop\n      swap3\n      swap1\n      pop\n      jump\t// out\n        /* \"#utility.yul\":4842:5169   */\n    tag_29:\n        /* \"#utility.yul\":4900:4906   */\n      0x00\n        /* \"#utility.yul\":4949:4951   */\n      0x20\n        /* \"#utility.yul\":4937:4946   */\n      dup3\n        /* \"#utility.yul\":4928:4935   */\n      dup5\n        /* \"#utility.yul\":4924:4947   */\n      sub\n        /* \"#utility.yul\":4920:4952   */\n      slt\n        /* \"#utility.yul\":4917:5036   */\n      iszero\n      tag_406\n      jumpi\n        /* \"#utility.yul\":4955:5034   */\n      tag_407\n      tag_372\n      jump\t// in\n    tag_407:\n        /* \"#utility.yul\":4917:5036   */\n    tag_406:\n        /* \"#utility.yul\":5075:5076   */\n      0x00\n        /* \"#utility.yul\":5100:5152   */\n      tag_408\n        /* \"#utility.yul\":5144:5151   */\n      dup5\n        /* \"#utility.yul\":5135:5141   */\n      dup3\n        /* \"#utility.yul\":5124:5133   */\n      dup6\n        /* \"#utility.yul\":5120:5142   */\n      add\n        /* \"#utility.yul\":5100:5152   */\n      tag_352\n      jump\t// in\n    tag_408:\n        /* \"#utility.yul\":5090:5152   */\n      swap2\n      pop\n        /* \"#utility.yul\":5046:5162   */\n      pop\n        /* \"#utility.yul\":4842:5169   */\n      swap3\n      swap2\n      pop\n      pop\n      jump\t// out\n        /* \"#utility.yul\":5175:5524   */\n    tag_319:\n        /* \"#utility.yul\":5244:5250   */\n      0x00\n        /* \"#utility.yul\":5293:5295   */\n      0x20\n        /* \"#utility.yul\":5281:5290   */\n      dup3\n        /* \"#utility.yul\":5272:5279   */\n      dup5\n        /* \"#utility.yul\":5268:5291   */\n      sub\n        /* \"#utility.yul\":5264:5296   */\n      slt\n        /* \"#utility.yul\":5261:5380   */\n      iszero\n      tag_410\n      jumpi\n        /* \"#utility.yul\":5299:5378   */\n      tag_411\n      tag_372\n      jump\t// in\n    tag_411:\n        /* \"#utility.yul\":5261:5380   */\n    tag_410:\n        /* \"#utility.yul\":5419:5420   */\n      0x00\n        /* \"#utility.yul\":5444:5507   */\n      tag_412\n        /* \"#utility.yul\":5499:5506   */\n      dup5\n        /* \"#utility.yul\":5490:5496   */\n      dup3\n        /* \"#utility.yul\":5479:5488   */\n      dup6\n        /* \"#utility.yul\":5475:5497   */\n      add\n        /* \"#utility.yul\":5444:5507   */\n      tag_356\n      jump\t// in\n    tag_412:\n        /* \"#utility.yul\":5434:5507   */\n      swap2\n      pop\n        /* \"#utility.yul\":5390:5517   */\n      pop\n        /* \"#utility.yul\":5175:5524   */\n      swap3\n      swap2\n      pop\n      pop\n      jump\t// out\n        /* \"#utility.yul\":5530:5859   */\n    tag_39:\n        /* \"#utility.yul\":5589:5595   */\n      0x00\n        /* \"#utility.yul\":5638:5640   */\n      0x20\n        /* \"#utility.yul\":5626:5635   */\n      dup3\n        /* \"#utility.yul\":5617:5624   */\n      dup5\n        /* \"#utility.yul\":5613:5636   */\n      sub\n        /* \"#utility.yul\":5609:5641   */\n      slt\n        /* \"#utility.yul\":5606:5725   */\n      iszero\n      tag_414\n      jumpi\n        /* \"#utility.yul\":5644:5723   */\n      tag_415\n      tag_372\n      jump\t// in\n    tag_415:\n        /* \"#utility.yul\":5606:5725   */\n    tag_414:\n        /* \"#utility.yul\":5764:5765   */\n      0x00\n        /* \"#utility.yul\":5789:5842   */\n      tag_416\n        /* \"#utility.yul\":5834:5841   */\n      dup5\n        /* \"#utility.yul\":5825:5831   */\n      dup3\n        /* \"#utility.yul\":5814:5823   */\n      dup6\n        /* \"#utility.yul\":5810:5832   */\n      add\n        /* \"#utility.yul\":5789:5842   */\n      tag_365\n      jump\t// in\n    tag_416:\n        /* \"#utility.yul\":5779:5842   */\n      swap2\n      pop\n        /* \"#utility.yul\":5735:5852   */\n      pop\n        /* \"#utility.yul\":5530:5859   */\n      swap3\n      swap2\n      pop\n      pop\n      jump\t// out\n        /* \"#utility.yul\":5865:6012   */\n    tag_417:\n        /* \"#utility.yul\":5960:6005   */\n      tag_419\n        /* \"#utility.yul\":5999:6004   */\n      dup2\n        /* \"#utility.yul\":5960:6005   */\n      tag_420\n      jump\t// in\n    tag_419:\n        /* \"#utility.yul\":5955:5958   */\n      dup3\n        /* \"#utility.yul\":5948:6006   */\n      mstore\n        /* \"#utility.yul\":5865:6012   */\n      pop\n      pop\n      jump\t// out\n        /* \"#utility.yul\":6018:6136   */\n    tag_421:\n        /* \"#utility.yul\":6105:6129   */\n      tag_423\n        /* \"#utility.yul\":6123:6128   */\n      dup2\n        /* \"#utility.yul\":6105:6129   */\n      tag_424\n      jump\t// in\n    tag_423:\n        /* \"#utility.yul\":6100:6103   */\n      dup3\n        /* \"#utility.yul\":6093:6130   */\n      mstore\n        /* \"#utility.yul\":6018:6136   */\n      pop\n      pop\n      jump\t// out\n        /* \"#utility.yul\":6142:6251   */\n    tag_425:\n        /* \"#utility.yul\":6223:6244   */\n      tag_427\n        /* \"#utility.yul\":6238:6243   */\n      dup2\n        /* \"#utility.yul\":6223:6244   */\n      tag_428\n      jump\t// in\n    tag_427:\n        /* \"#utility.yul\":6218:6221   */\n      dup3\n        /* \"#utility.yul\":6211:6245   */\n      mstore\n        /* \"#utility.yul\":6142:6251   */\n      pop\n      pop\n      jump\t// out\n        /* \"#utility.yul\":6257:6617   */\n    tag_429:\n        /* \"#utility.yul\":6343:6346   */\n      0x00\n        /* \"#utility.yul\":6371:6409   */\n      tag_431\n        /* \"#utility.yul\":6403:6408   */\n      dup3\n        /* \"#utility.yul\":6371:6409   */\n      tag_432\n      jump\t// in\n    tag_431:\n        /* \"#utility.yul\":6425:6495   */\n      tag_433\n        /* \"#utility.yul\":6488:6494   */\n      dup2\n        /* \"#utility.yul\":6483:6486   */\n      dup6\n        /* \"#utility.yul\":6425:6495   */\n      tag_434\n      jump\t// in\n    tag_433:\n        /* \"#utility.yul\":6418:6495   */\n      swap4\n      pop\n        /* \"#utility.yul\":6504:6556   */\n      tag_435\n        /* \"#utility.yul\":6549:6555   */\n      dup2\n        /* \"#utility.yul\":6544:6547   */\n      dup6\n        /* \"#utility.yul\":6537:6541   */\n      0x20\n        /* \"#utility.yul\":6530:6535   */\n      dup7\n        /* \"#utility.yul\":6526:6542   */\n      add\n        /* \"#utility.yul\":6504:6556   */\n      tag_436\n      jump\t// in\n    tag_435:\n        /* \"#utility.yul\":6581:6610   */\n      tag_437\n        /* \"#utility.yul\":6603:6609   */\n      dup2\n        /* \"#utility.yul\":6581:6610   */\n      tag_438\n      jump\t// in\n    tag_437:\n        /* \"#utility.yul\":6576:6579   */\n      dup5\n        /* \"#utility.yul\":6572:6611   */\n      add\n        /* \"#utility.yul\":6565:6611   */\n      swap2\n      pop\n        /* \"#utility.yul\":6347:6617   */\n      pop\n        /* \"#utility.yul\":6257:6617   */\n      swap3\n      swap2\n      pop\n      pop\n      jump\t// out\n        /* \"#utility.yul\":6623:6987   */\n    tag_439:\n        /* \"#utility.yul\":6711:6714   */\n      0x00\n        /* \"#utility.yul\":6739:6778   */\n      tag_441\n        /* \"#utility.yul\":6772:6777   */\n      dup3\n        /* \"#utility.yul\":6739:6778   */\n      tag_442\n      jump\t// in\n    tag_441:\n        /* \"#utility.yul\":6794:6865   */\n      tag_443\n        /* \"#utility.yul\":6858:6864   */\n      dup2\n        /* \"#utility.yul\":6853:6856   */\n      dup6\n        /* \"#utility.yul\":6794:6865   */\n      tag_444\n      jump\t// in\n    tag_443:\n        /* \"#utility.yul\":6787:6865   */\n      swap4\n      pop\n        /* \"#utility.yul\":6874:6926   */\n      tag_445\n        /* \"#utility.yul\":6919:6925   */\n      dup2\n        /* \"#utility.yul\":6914:6917   */\n      dup6\n        /* \"#utility.yul\":6907:6911   */\n      0x20\n        /* \"#utility.yul\":6900:6905   */\n      dup7\n        /* \"#utility.yul\":6896:6912   */\n      add\n        /* \"#utility.yul\":6874:6926   */\n      tag_436\n      jump\t// in\n    tag_445:\n        /* \"#utility.yul\":6951:6980   */\n      tag_446\n        /* \"#utility.yul\":6973:6979   */\n      dup2\n        /* \"#utility.yul\":6951:6980   */\n      tag_438\n      jump\t// in\n    tag_446:\n        /* \"#utility.yul\":6946:6949   */\n      dup5\n        /* \"#utility.yul\":6942:6981   */\n      add\n        /* \"#utility.yul\":6935:6981   */\n      swap2\n      pop\n        /* \"#utility.yul\":6715:6987   */\n      pop\n        /* \"#utility.yul\":6623:6987   */\n      swap3\n      swap2\n      pop\n      pop\n      jump\t// out\n        /* \"#utility.yul\":6993:7370   */\n    tag_447:\n        /* \"#utility.yul\":7099:7102   */\n      0x00\n        /* \"#utility.yul\":7127:7166   */\n      tag_449\n        /* \"#utility.yul\":7160:7165   */\n      dup3\n        /* \"#utility.yul\":7127:7166   */\n      tag_442\n      jump\t// in\n    tag_449:\n        /* \"#utility.yul\":7182:7271   */\n      tag_450\n        /* \"#utility.yul\":7264:7270   */\n      dup2\n        /* \"#utility.yul\":7259:7262   */\n      dup6\n        /* \"#utility.yul\":7182:7271   */\n      tag_451\n      jump\t// in\n    tag_450:\n        /* \"#utility.yul\":7175:7271   */\n      swap4\n      pop\n        /* \"#utility.yul\":7280:7332   */\n      tag_452\n        /* \"#utility.yul\":7325:7331   */\n      dup2\n        /* \"#utility.yul\":7320:7323   */\n      dup6\n        /* \"#utility.yul\":7313:7317   */\n      0x20\n        /* \"#utility.yul\":7306:7311   */\n      dup7\n        /* \"#utility.yul\":7302:7318   */\n      add\n        /* \"#utility.yul\":7280:7332   */\n      tag_436\n      jump\t// in\n    tag_452:\n        /* \"#utility.yul\":7357:7363   */\n      dup1\n        /* \"#utility.yul\":7352:7355   */\n      dup5\n        /* \"#utility.yul\":7348:7364   */\n      add\n        /* \"#utility.yul\":7341:7364   */\n      swap2\n      pop\n        /* \"#utility.yul\":7103:7370   */\n      pop\n        /* \"#utility.yul\":6993:7370   */\n      swap3\n      swap2\n      pop\n      pop\n      jump\t// out\n        /* \"#utility.yul\":7376:7742   */\n    tag_453:\n        /* \"#utility.yul\":7518:7521   */\n      0x00\n        /* \"#utility.yul\":7539:7606   */\n      tag_455\n        /* \"#utility.yul\":7603:7605   */\n      0x32\n        /* \"#utility.yul\":7598:7601   */\n      dup4\n        /* \"#utility.yul\":7539:7606   */\n      tag_444\n      jump\t// in\n    tag_455:\n        /* \"#utility.yul\":7532:7606   */\n      swap2\n      pop\n        /* \"#utility.yul\":7615:7708   */\n      tag_456\n        /* \"#utility.yul\":7704:7707   */\n      dup3\n        /* \"#utility.yul\":7615:7708   */\n      tag_457\n      jump\t// in\n    tag_456:\n        /* \"#utility.yul\":7733:7735   */\n      0x40\n        /* \"#utility.yul\":7728:7731   */\n      dup3\n        /* \"#utility.yul\":7724:7736   */\n      add\n        /* \"#utility.yul\":7717:7736   */\n      swap1\n      pop\n        /* \"#utility.yul\":7376:7742   */\n      swap2\n      swap1\n      pop\n      jump\t// out\n        /* \"#utility.yul\":7748:8114   */\n    tag_458:\n        /* \"#utility.yul\":7890:7893   */\n      0x00\n        /* \"#utility.yul\":7911:7978   */\n      tag_460\n        /* \"#utility.yul\":7975:7977   */\n      0x26\n        /* \"#utility.yul\":7970:7973   */\n      dup4\n        /* \"#utility.yul\":7911:7978   */\n      tag_444\n      jump\t// in\n    tag_460:\n        /* \"#utility.yul\":7904:7978   */\n      swap2\n      pop\n        /* \"#utility.yul\":7987:8080   */\n      tag_461\n        /* \"#utility.yul\":8076:8079   */\n      dup3\n        /* \"#utility.yul\":7987:8080   */\n      tag_462\n      jump\t// in\n    tag_461:\n        /* \"#utility.yul\":8105:8107   */\n      0x40\n        /* \"#utility.yul\":8100:8103   */\n      dup3\n        /* \"#utility.yul\":8096:8108   */\n      add\n        /* \"#utility.yul\":8089:8108   */\n      swap1\n      pop\n        /* \"#utility.yul\":7748:8114   */\n      swap2\n      swap1\n      pop\n      jump\t// out\n        /* \"#utility.yul\":8120:8486   */\n    tag_463:\n        /* \"#utility.yul\":8262:8265   */\n      0x00\n        /* \"#utility.yul\":8283:8350   */\n      tag_465\n        /* \"#utility.yul\":8347:8349   */\n      0x25\n        /* \"#utility.yul\":8342:8345   */\n      dup4\n        /* \"#utility.yul\":8283:8350   */\n      tag_444\n      jump\t// in\n    tag_465:\n        /* \"#utility.yul\":8276:8350   */\n      swap2\n      pop\n        /* \"#utility.yul\":8359:8452   */\n      tag_466\n        /* \"#utility.yul\":8448:8451   */\n      dup3\n        /* \"#utility.yul\":8359:8452   */\n      tag_467\n      jump\t// in\n    tag_466:\n        /* \"#utility.yul\":8477:8479   */\n      0x40\n        /* \"#utility.yul\":8472:8475   */\n      dup3\n        /* \"#utility.yul\":8468:8480   */\n      add\n        /* \"#utility.yul\":8461:8480   */\n      swap1\n      pop\n        /* \"#utility.yul\":8120:8486   */\n      swap2\n      swap1\n      pop\n      jump\t// out\n        /* \"#utility.yul\":8492:8858   */\n    tag_468:\n        /* \"#utility.yul\":8634:8637   */\n      0x00\n        /* \"#utility.yul\":8655:8722   */\n      tag_470\n        /* \"#utility.yul\":8719:8721   */\n      0x24\n        /* \"#utility.yul\":8714:8717   */\n      dup4\n        /* \"#utility.yul\":8655:8722   */\n      tag_444\n      jump\t// in\n    tag_470:\n        /* \"#utility.yul\":8648:8722   */\n      swap2\n      pop\n        /* \"#utility.yul\":8731:8824   */\n      tag_471\n        /* \"#utility.yul\":8820:8823   */\n      dup3\n        /* \"#utility.yul\":8731:8824   */\n      tag_472\n      jump\t// in\n    tag_471:\n        /* \"#utility.yul\":8849:8851   */\n      0x40\n        /* \"#utility.yul\":8844:8847   */\n      dup3\n        /* \"#utility.yul\":8840:8852   */\n      add\n        /* \"#utility.yul\":8833:8852   */\n      swap1\n      pop\n        /* \"#utility.yul\":8492:8858   */\n      swap2\n      swap1\n      pop\n      jump\t// out\n        /* \"#utility.yul\":8864:9230   */\n    tag_473:\n        /* \"#utility.yul\":9006:9009   */\n      0x00\n        /* \"#utility.yul\":9027:9094   */\n      tag_475\n        /* \"#utility.yul\":9091:9093   */\n      0x19\n        /* \"#utility.yul\":9086:9089   */\n      dup4\n        /* \"#utility.yul\":9027:9094   */\n      tag_444\n      jump\t// in\n    tag_475:\n        /* \"#utility.yul\":9020:9094   */\n      swap2\n      pop\n        /* \"#utility.yul\":9103:9196   */\n      tag_476\n        /* \"#utility.yul\":9192:9195   */\n      dup3\n        /* \"#utility.yul\":9103:9196   */\n      tag_477\n      jump\t// in\n    tag_476:\n        /* \"#utility.yul\":9221:9223   */\n      0x20\n        /* \"#utility.yul\":9216:9219   */\n      dup3\n        /* \"#utility.yul\":9212:9224   */\n      add\n        /* \"#utility.yul\":9205:9224   */\n      swap1\n      pop\n        /* \"#utility.yul\":8864:9230   */\n      swap2\n      swap1\n      pop\n      jump\t// out\n        /* \"#utility.yul\":9236:9602   */\n    tag_478:\n        /* \"#utility.yul\":9378:9381   */\n      0x00\n        /* \"#utility.yul\":9399:9466   */\n      tag_480\n        /* \"#utility.yul\":9463:9465   */\n      0x2c\n        /* \"#utility.yul\":9458:9461   */\n      dup4\n        /* \"#utility.yul\":9399:9466   */\n      tag_444\n      jump\t// in\n    tag_480:\n        /* \"#utility.yul\":9392:9466   */\n      swap2\n      pop\n        /* \"#utility.yul\":9475:9568   */\n      tag_481\n        /* \"#utility.yul\":9564:9567   */\n      dup3\n        /* \"#utility.yul\":9475:9568   */\n      tag_482\n      jump\t// in\n    tag_481:\n        /* \"#utility.yul\":9593:9595   */\n      0x40\n        /* \"#utility.yul\":9588:9591   */\n      dup3\n        /* \"#utility.yul\":9584:9596   */\n      add\n        /* \"#utility.yul\":9577:9596   */\n      swap1\n      pop\n        /* \"#utility.yul\":9236:9602   */\n      swap2\n      swap1\n      pop\n      jump\t// out\n        /* \"#utility.yul\":9608:9974   */\n    tag_483:\n        /* \"#utility.yul\":9750:9753   */\n      0x00\n        /* \"#utility.yul\":9771:9838   */\n      tag_485\n        /* \"#utility.yul\":9835:9837   */\n      0x38\n        /* \"#utility.yul\":9830:9833   */\n      dup4\n        /* \"#utility.yul\":9771:9838   */\n      tag_444\n      jump\t// in\n    tag_485:\n        /* \"#utility.yul\":9764:9838   */\n      swap2\n      pop\n        /* \"#utility.yul\":9847:9940   */\n      tag_486\n        /* \"#utility.yul\":9936:9939   */\n      dup3\n        /* \"#utility.yul\":9847:9940   */\n      tag_487\n      jump\t// in\n    tag_486:\n        /* \"#utility.yul\":9965:9967   */\n      0x40\n        /* \"#utility.yul\":9960:9963   */\n      dup3\n        /* \"#utility.yul\":9956:9968   */\n      add\n        /* \"#utility.yul\":9949:9968   */\n      swap1\n      pop\n        /* \"#utility.yul\":9608:9974   */\n      swap2\n      swap1\n      pop\n      jump\t// out\n        /* \"#utility.yul\":9980:10346   */\n    tag_488:\n        /* \"#utility.yul\":10122:10125   */\n      0x00\n        /* \"#utility.yul\":10143:10210   */\n      tag_490\n        /* \"#utility.yul\":10207:10209   */\n      0x2a\n        /* \"#utility.yul\":10202:10205   */\n      dup4\n        /* \"#utility.yul\":10143:10210   */\n      tag_444\n      jump\t// in\n    tag_490:\n        /* \"#utility.yul\":10136:10210   */\n      swap2\n      pop\n        /* \"#utility.yul\":10219:10312   */\n      tag_491\n        /* \"#utility.yul\":10308:10311   */\n      dup3\n        /* \"#utility.yul\":10219:10312   */\n      tag_492\n      jump\t// in\n    tag_491:\n        /* \"#utility.yul\":10337:10339   */\n      0x40\n        /* \"#utility.yul\":10332:10335   */\n      dup3\n        /* \"#utility.yul\":10328:10340   */\n      add\n        /* \"#utility.yul\":10321:10340   */\n      swap1\n      pop\n        /* \"#utility.yul\":9980:10346   */\n      swap2\n      swap1\n      pop\n      jump\t// out\n        /* \"#utility.yul\":10352:10718   */\n    tag_493:\n        /* \"#utility.yul\":10494:10497   */\n      0x00\n        /* \"#utility.yul\":10515:10582   */\n      tag_495\n        /* \"#utility.yul\":10579:10581   */\n      0x29\n        /* \"#utility.yul\":10574:10577   */\n      dup4\n        /* \"#utility.yul\":10515:10582   */\n      tag_444\n      jump\t// in\n    tag_495:\n        /* \"#utility.yul\":10508:10582   */\n      swap2\n      pop\n        /* \"#utility.yul\":10591:10684   */\n      tag_496\n        /* \"#utility.yul\":10680:10683   */\n      dup3\n        /* \"#utility.yul\":10591:10684   */\n      tag_497\n      jump\t// in\n    tag_496:\n        /* \"#utility.yul\":10709:10711   */\n      0x40\n        /* \"#utility.yul\":10704:10707   */\n      dup3\n        /* \"#utility.yul\":10700:10712   */\n      add\n        /* \"#utility.yul\":10693:10712   */\n      swap1\n      pop\n        /* \"#utility.yul\":10352:10718   */\n      swap2\n      swap1\n      pop\n      jump\t// out\n        /* \"#utility.yul\":10724:11090   */\n    tag_498:\n        /* \"#utility.yul\":10866:10869   */\n      0x00\n        /* \"#utility.yul\":10887:10954   */\n      tag_500\n        /* \"#utility.yul\":10951:10953   */\n      0x2c\n        /* \"#utility.yul\":10946:10949   */\n      dup4\n        /* \"#utility.yul\":10887:10954   */\n      tag_444\n      jump\t// in\n    tag_500:\n        /* \"#utility.yul\":10880:10954   */\n      swap2\n      pop\n        /* \"#utility.yul\":10963:11056   */\n      tag_501\n        /* \"#utility.yul\":11052:11055   */\n      dup3\n        /* \"#utility.yul\":10963:11056   */\n      tag_502\n      jump\t// in\n    tag_501:\n        /* \"#utility.yul\":11081:11083   */\n      0x40\n        /* \"#utility.yul\":11076:11079   */\n      dup3\n        /* \"#utility.yul\":11072:11084   */\n      add\n        /* \"#utility.yul\":11065:11084   */\n      swap1\n      pop\n        /* \"#utility.yul\":10724:11090   */\n      swap2\n      swap1\n      pop\n      jump\t// out\n        /* \"#utility.yul\":11096:11462   */\n    tag_503:\n        /* \"#utility.yul\":11238:11241   */\n      0x00\n        /* \"#utility.yul\":11259:11326   */\n      tag_505\n        /* \"#utility.yul\":11323:11325   */\n      0x20\n        /* \"#utility.yul\":11318:11321   */\n      dup4\n        /* \"#utility.yul\":11259:11326   */\n      tag_444\n      jump\t// in\n    tag_505:\n        /* \"#utility.yul\":11252:11326   */\n      swap2\n      pop\n        /* \"#utility.yul\":11335:11428   */\n      tag_506\n        /* \"#utility.yul\":11424:11427   */\n      dup3\n        /* \"#utility.yul\":11335:11428   */\n      tag_507\n      jump\t// in\n    tag_506:\n        /* \"#utility.yul\":11453:11455   */\n      0x20\n        /* \"#utility.yul\":11448:11451   */\n      dup3\n        /* \"#utility.yul\":11444:11456   */\n      add\n        /* \"#utility.yul\":11437:11456   */\n      swap1\n      pop\n        /* \"#utility.yul\":11096:11462   */\n      swap2\n      swap1\n      pop\n      jump\t// out\n        /* \"#utility.yul\":11468:11834   */\n    tag_508:\n        /* \"#utility.yul\":11610:11613   */\n      0x00\n        /* \"#utility.yul\":11631:11698   */\n      tag_510\n        /* \"#utility.yul\":11695:11697   */\n      0x2f\n        /* \"#utility.yul\":11690:11693   */\n      dup4\n        /* \"#utility.yul\":11631:11698   */\n      tag_444\n      jump\t// in\n    tag_510:\n        /* \"#utility.yul\":11624:11698   */\n      swap2\n      pop\n        /* \"#utility.yul\":11707:11800   */\n      tag_511\n        /* \"#utility.yul\":11796:11799   */\n      dup3\n        /* \"#utility.yul\":11707:11800   */\n      tag_512\n      jump\t// in\n    tag_511:\n        /* \"#utility.yul\":11825:11827   */\n      0x40\n        /* \"#utility.yul\":11820:11823   */\n      dup3\n        /* \"#utility.yul\":11816:11828   */\n      add\n        /* \"#utility.yul\":11809:11828   */\n      swap1\n      pop\n        /* \"#utility.yul\":11468:11834   */\n      swap2\n      swap1\n      pop\n      jump\t// out\n        /* \"#utility.yul\":11840:12206   */\n    tag_513:\n        /* \"#utility.yul\":11982:11985   */\n      0x00\n        /* \"#utility.yul\":12003:12070   */\n      tag_515\n        /* \"#utility.yul\":12067:12069   */\n      0x21\n        /* \"#utility.yul\":12062:12065   */\n      dup4\n        /* \"#utility.yul\":12003:12070   */\n      tag_444\n      jump\t// in\n    tag_515:\n        /* \"#utility.yul\":11996:12070   */\n      swap2\n      pop\n        /* \"#utility.yul\":12079:12172   */\n      tag_516\n        /* \"#utility.yul\":12168:12171   */\n      dup3\n        /* \"#utility.yul\":12079:12172   */\n      tag_517\n      jump\t// in\n    tag_516:\n        /* \"#utility.yul\":12197:12199   */\n      0x40\n        /* \"#utility.yul\":12192:12195   */\n      dup3\n        /* \"#utility.yul\":12188:12200   */\n      add\n        /* \"#utility.yul\":12181:12200   */\n      swap1\n      pop\n        /* \"#utility.yul\":11840:12206   */\n      swap2\n      swap1\n      pop\n      jump\t// out\n        /* \"#utility.yul\":12212:12578   */\n    tag_518:\n        /* \"#utility.yul\":12354:12357   */\n      0x00\n        /* \"#utility.yul\":12375:12442   */\n      tag_520\n        /* \"#utility.yul\":12439:12441   */\n      0x31\n        /* \"#utility.yul\":12434:12437   */\n      dup4\n        /* \"#utility.yul\":12375:12442   */\n      tag_444\n      jump\t// in\n    tag_520:\n        /* \"#utility.yul\":12368:12442   */\n      swap2\n      pop\n        /* \"#utility.yul\":12451:12544   */\n      tag_521\n        /* \"#utility.yul\":12540:12543   */\n      dup3\n        /* \"#utility.yul\":12451:12544   */\n      tag_522\n      jump\t// in\n    tag_521:\n        /* \"#utility.yul\":12569:12571   */\n      0x40\n        /* \"#utility.yul\":12564:12567   */\n      dup3\n        /* \"#utility.yul\":12560:12572   */\n      add\n        /* \"#utility.yul\":12553:12572   */\n      swap1\n      pop\n        /* \"#utility.yul\":12212:12578   */\n      swap2\n      swap1\n      pop\n      jump\t// out\n        /* \"#utility.yul\":12584:12702   */\n    tag_523:\n        /* \"#utility.yul\":12671:12695   */\n      tag_525\n        /* \"#utility.yul\":12689:12694   */\n      dup2\n        /* \"#utility.yul\":12671:12695   */\n      tag_526\n      jump\t// in\n    tag_525:\n        /* \"#utility.yul\":12666:12669   */\n      dup3\n        /* \"#utility.yul\":12659:12696   */\n      mstore\n        /* \"#utility.yul\":12584:12702   */\n      pop\n      pop\n      jump\t// out\n        /* \"#utility.yul\":12708:12820   */\n    tag_527:\n        /* \"#utility.yul\":12791:12813   */\n      tag_529\n        /* \"#utility.yul\":12807:12812   */\n      dup2\n        /* \"#utility.yul\":12791:12813   */\n      tag_530\n      jump\t// in\n    tag_529:\n        /* \"#utility.yul\":12786:12789   */\n      dup3\n        /* \"#utility.yul\":12779:12814   */\n      mstore\n        /* \"#utility.yul\":12708:12820   */\n      pop\n      pop\n      jump\t// out\n        /* \"#utility.yul\":12826:13261   */\n    tag_225:\n        /* \"#utility.yul\":13006:13009   */\n      0x00\n        /* \"#utility.yul\":13028:13123   */\n      tag_532\n        /* \"#utility.yul\":13119:13122   */\n      dup3\n        /* \"#utility.yul\":13110:13116   */\n      dup6\n        /* \"#utility.yul\":13028:13123   */\n      tag_447\n      jump\t// in\n    tag_532:\n        /* \"#utility.yul\":13021:13123   */\n      swap2\n      pop\n        /* \"#utility.yul\":13140:13235   */\n      tag_533\n        /* \"#utility.yul\":13231:13234   */\n      dup3\n        /* \"#utility.yul\":13222:13228   */\n      dup5\n        /* \"#utility.yul\":13140:13235   */\n      tag_447\n      jump\t// in\n    tag_533:\n        /* \"#utility.yul\":13133:13235   */\n      swap2\n      pop\n        /* \"#utility.yul\":13252:13255   */\n      dup2\n        /* \"#utility.yul\":13245:13255   */\n      swap1\n      pop\n        /* \"#utility.yul\":12826:13261   */\n      swap4\n      swap3\n      pop\n      pop\n      pop\n      jump\t// out\n        /* \"#utility.yul\":13267:13489   */\n    tag_42:\n        /* \"#utility.yul\":13360:13364   */\n      0x00\n        /* \"#utility.yul\":13398:13400   */\n      0x20\n        /* \"#utility.yul\":13387:13396   */\n      dup3\n        /* \"#utility.yul\":13383:13401   */\n      add\n        /* \"#utility.yul\":13375:13401   */\n      swap1\n      pop\n        /* \"#utility.yul\":13411:13482   */\n      tag_535\n        /* \"#utility.yul\":13479:13480   */\n      0x00\n        /* \"#utility.yul\":13468:13477   */\n      dup4\n        /* \"#utility.yul\":13464:13481   */\n      add\n        /* \"#utility.yul\":13455:13461   */\n      dup5\n        /* \"#utility.yul\":13411:13482   */\n      tag_421\n      jump\t// in\n    tag_535:\n        /* \"#utility.yul\":13267:13489   */\n      swap3\n      swap2\n      pop\n      pop\n      jump\t// out\n        /* \"#utility.yul\":13495:14151   */\n    tag_315:\n        /* \"#utility.yul\":13698:13702   */\n      0x00\n        /* \"#utility.yul\":13736:13739   */\n      0x80\n        /* \"#utility.yul\":13725:13734   */\n      dup3\n        /* \"#utility.yul\":13721:13740   */\n      add\n        /* \"#utility.yul\":13713:13740   */\n      swap1\n      pop\n        /* \"#utility.yul\":13750:13829   */\n      tag_537\n        /* \"#utility.yul\":13826:13827   */\n      0x00\n        /* \"#utility.yul\":13815:13824   */\n      dup4\n        /* \"#utility.yul\":13811:13828   */\n      add\n        /* \"#utility.yul\":13802:13808   */\n      dup8\n        /* \"#utility.yul\":13750:13829   */\n      tag_417\n      jump\t// in\n    tag_537:\n        /* \"#utility.yul\":13839:13911   */\n      tag_538\n        /* \"#utility.yul\":13907:13909   */\n      0x20\n        /* \"#utility.yul\":13896:13905   */\n      dup4\n        /* \"#utility.yul\":13892:13910   */\n      add\n        /* \"#utility.yul\":13883:13889   */\n      dup7\n        /* \"#utility.yul\":13839:13911   */\n      tag_421\n      jump\t// in\n    tag_538:\n        /* \"#utility.yul\":13921:13993   */\n      tag_539\n        /* \"#utility.yul\":13989:13991   */\n      0x40\n        /* \"#utility.yul\":13978:13987   */\n      dup4\n        /* \"#utility.yul\":13974:13992   */\n      add\n        /* \"#utility.yul\":13965:13971   */\n      dup6\n        /* \"#utility.yul\":13921:13993   */\n      tag_523\n      jump\t// in\n    tag_539:\n        /* \"#utility.yul\":14040:14049   */\n      dup2\n        /* \"#utility.yul\":14034:14038   */\n      dup2\n        /* \"#utility.yul\":14030:14050   */\n      sub\n        /* \"#utility.yul\":14025:14027   */\n      0x60\n        /* \"#utility.yul\":14014:14023   */\n      dup4\n        /* \"#utility.yul\":14010:14028   */\n      add\n        /* \"#utility.yul\":14003:14051   */\n      mstore\n        /* \"#utility.yul\":14068:14144   */\n      tag_540\n        /* \"#utility.yul\":14139:14143   */\n      dup2\n        /* \"#utility.yul\":14130:14136   */\n      dup5\n        /* \"#utility.yul\":14068:14144   */\n      tag_429\n      jump\t// in\n    tag_540:\n        /* \"#utility.yul\":14060:14144   */\n      swap1\n      pop\n        /* \"#utility.yul\":13495:14151   */\n      swap6\n      swap5\n      pop\n      pop\n      pop\n      pop\n      pop\n      jump\t// out\n        /* \"#utility.yul\":14157:14367   */\n    tag_32:\n        /* \"#utility.yul\":14244:14248   */\n      0x00\n        /* \"#utility.yul\":14282:14284   */\n      0x20\n        /* \"#utility.yul\":14271:14280   */\n      dup3\n        /* \"#utility.yul\":14267:14285   */\n      add\n        /* \"#utility.yul\":14259:14285   */\n      swap1\n      pop\n        /* \"#utility.yul\":14295:14360   */\n      tag_542\n        /* \"#utility.yul\":14357:14358   */\n      0x00\n        /* \"#utility.yul\":14346:14355   */\n      dup4\n        /* \"#utility.yul\":14342:14359   */\n      add\n        /* \"#utility.yul\":14333:14339   */\n      dup5\n        /* \"#utility.yul\":14295:14360   */\n      tag_425\n      jump\t// in\n    tag_542:\n        /* \"#utility.yul\":14157:14367   */\n      swap3\n      swap2\n      pop\n      pop\n      jump\t// out\n        /* \"#utility.yul\":14373:14686   */\n    tag_36:\n        /* \"#utility.yul\":14486:14490   */\n      0x00\n        /* \"#utility.yul\":14524:14526   */\n      0x20\n        /* \"#utility.yul\":14513:14522   */\n      dup3\n        /* \"#utility.yul\":14509:14527   */\n      add\n        /* \"#utility.yul\":14501:14527   */\n      swap1\n      pop\n        /* \"#utility.yul\":14573:14582   */\n      dup2\n        /* \"#utility.yul\":14567:14571   */\n      dup2\n        /* \"#utility.yul\":14563:14583   */\n      sub\n        /* \"#utility.yul\":14559:14560   */\n      0x00\n        /* \"#utility.yul\":14548:14557   */\n      dup4\n        /* \"#utility.yul\":14544:14561   */\n      add\n        /* \"#utility.yul\":14537:14584   */\n      mstore\n        /* \"#utility.yul\":14601:14679   */\n      tag_544\n        /* \"#utility.yul\":14674:14678   */\n      dup2\n        /* \"#utility.yul\":14665:14671   */\n      dup5\n        /* \"#utility.yul\":14601:14679   */\n      tag_439\n      jump\t// in\n    tag_544:\n        /* \"#utility.yul\":14593:14679   */\n      swap1\n      pop\n        /* \"#utility.yul\":14373:14686   */\n      swap3\n      swap2\n      pop\n      pop\n      jump\t// out\n        /* \"#utility.yul\":14692:15111   */\n    tag_279:\n        /* \"#utility.yul\":14858:14862   */\n      0x00\n        /* \"#utility.yul\":14896:14898   */\n      0x20\n        /* \"#utility.yul\":14885:14894   */\n      dup3\n        /* \"#utility.yul\":14881:14899   */\n      add\n        /* \"#utility.yul\":14873:14899   */\n      swap1\n      pop\n        /* \"#utility.yul\":14945:14954   */\n      dup2\n        /* \"#utility.yul\":14939:14943   */\n      dup2\n        /* \"#utility.yul\":14935:14955   */\n      sub\n        /* \"#utility.yul\":14931:14932   */\n      0x00\n        /* \"#utility.yul\":14920:14929   */\n      dup4\n        /* \"#utility.yul\":14916:14933   */\n      add\n        /* \"#utility.yul\":14909:14956   */\n      mstore\n        /* \"#utility.yul\":14973:15104   */\n      tag_546\n        /* \"#utility.yul\":15099:15103   */\n      dup2\n        /* \"#utility.yul\":14973:15104   */\n      tag_453\n      jump\t// in\n    tag_546:\n        /* \"#utility.yul\":14965:15104   */\n      swap1\n      pop\n        /* \"#utility.yul\":14692:15111   */\n      swap2\n      swap1\n      pop\n      jump\t// out\n        /* \"#utility.yul\":15117:15536   */\n    tag_306:\n        /* \"#utility.yul\":15283:15287   */\n      0x00\n        /* \"#utility.yul\":15321:15323   */\n      0x20\n        /* \"#utility.yul\":15310:15319   */\n      dup3\n        /* \"#utility.yul\":15306:15324   */\n      add\n        /* \"#utility.yul\":15298:15324   */\n      swap1\n      pop\n        /* \"#utility.yul\":15370:15379   */\n      dup2\n        /* \"#utility.yul\":15364:15368   */\n      dup2\n        /* \"#utility.yul\":15360:15380   */\n      sub\n        /* \"#utility.yul\":15356:15357   */\n      0x00\n        /* \"#utility.yul\":15345:15354   */\n      dup4\n        /* \"#utility.yul\":15341:15358   */\n      add\n        /* \"#utility.yul\":15334:15381   */\n      mstore\n        /* \"#utility.yul\":15398:15529   */\n      tag_548\n        /* \"#utility.yul\":15524:15528   */\n      dup2\n        /* \"#utility.yul\":15398:15529   */\n      tag_458\n      jump\t// in\n    tag_548:\n        /* \"#utility.yul\":15390:15529   */\n      swap1\n      pop\n        /* \"#utility.yul\":15117:15536   */\n      swap2\n      swap1\n      pop\n      jump\t// out\n        /* \"#utility.yul\":15542:15961   */\n    tag_255:\n        /* \"#utility.yul\":15708:15712   */\n      0x00\n        /* \"#utility.yul\":15746:15748   */\n      0x20\n        /* \"#utility.yul\":15735:15744   */\n      dup3\n        /* \"#utility.yul\":15731:15749   */\n      add\n        /* \"#utility.yul\":15723:15749   */\n      swap1\n      pop\n        /* \"#utility.yul\":15795:15804   */\n      dup2\n        /* \"#utility.yul\":15789:15793   */\n      dup2\n        /* \"#utility.yul\":15785:15805   */\n      sub\n        /* \"#utility.yul\":15781:15782   */\n      0x00\n        /* \"#utility.yul\":15770:15779   */\n      dup4\n        /* \"#utility.yul\":15766:15783   */\n      add\n        /* \"#utility.yul\":15759:15806   */\n      mstore\n        /* \"#utility.yul\":15823:15954   */\n      tag_550\n        /* \"#utility.yul\":15949:15953   */\n      dup2\n        /* \"#utility.yul\":15823:15954   */\n      tag_463\n      jump\t// in\n    tag_550:\n        /* \"#utility.yul\":15815:15954   */\n      swap1\n      pop\n        /* \"#utility.yul\":15542:15961   */\n      swap2\n      swap1\n      pop\n      jump\t// out\n        /* \"#utility.yul\":15967:16386   */\n    tag_258:\n        /* \"#utility.yul\":16133:16137   */\n      0x00\n        /* \"#utility.yul\":16171:16173   */\n      0x20\n        /* \"#utility.yul\":16160:16169   */\n      dup3\n        /* \"#utility.yul\":16156:16174   */\n      add\n        /* \"#utility.yul\":16148:16174   */\n      swap1\n      pop\n        /* \"#utility.yul\":16220:16229   */\n      dup2\n        /* \"#utility.yul\":16214:16218   */\n      dup2\n        /* \"#utility.yul\":16210:16230   */\n      sub\n        /* \"#utility.yul\":16206:16207   */\n      0x00\n        /* \"#utility.yul\":16195:16204   */\n      dup4\n        /* \"#utility.yul\":16191:16208   */\n      add\n        /* \"#utility.yul\":16184:16231   */\n      mstore\n        /* \"#utility.yul\":16248:16379   */\n      tag_552\n        /* \"#utility.yul\":16374:16378   */\n      dup2\n        /* \"#utility.yul\":16248:16379   */\n      tag_468\n      jump\t// in\n    tag_552:\n        /* \"#utility.yul\":16240:16379   */\n      swap1\n      pop\n        /* \"#utility.yul\":15967:16386   */\n      swap2\n      swap1\n      pop\n      jump\t// out\n        /* \"#utility.yul\":16392:16811   */\n    tag_271:\n        /* \"#utility.yul\":16558:16562   */\n      0x00\n        /* \"#utility.yul\":16596:16598   */\n      0x20\n        /* \"#utility.yul\":16585:16594   */\n      dup3\n        /* \"#utility.yul\":16581:16599   */\n      add\n        /* \"#utility.yul\":16573:16599   */\n      swap1\n      pop\n        /* \"#utility.yul\":16645:16654   */\n      dup2\n        /* \"#utility.yul\":16639:16643   */\n      dup2\n        /* \"#utility.yul\":16635:16655   */\n      sub\n        /* \"#utility.yul\":16631:16632   */\n      0x00\n        /* \"#utility.yul\":16620:16629   */\n      dup4\n        /* \"#utility.yul\":16616:16633   */\n      add\n        /* \"#utility.yul\":16609:16656   */\n      mstore\n        /* \"#utility.yul\":16673:16804   */\n      tag_554\n        /* \"#utility.yul\":16799:16803   */\n      dup2\n        /* \"#utility.yul\":16673:16804   */\n      tag_473\n      jump\t// in\n    tag_554:\n        /* \"#utility.yul\":16665:16804   */\n      swap1\n      pop\n        /* \"#utility.yul\":16392:16811   */\n      swap2\n      swap1\n      pop\n      jump\t// out\n        /* \"#utility.yul\":16817:17236   */\n    tag_245:\n        /* \"#utility.yul\":16983:16987   */\n      0x00\n        /* \"#utility.yul\":17021:17023   */\n      0x20\n        /* \"#utility.yul\":17010:17019   */\n      dup3\n        /* \"#utility.yul\":17006:17024   */\n      add\n        /* \"#utility.yul\":16998:17024   */\n      swap1\n      pop\n        /* \"#utility.yul\":17070:17079   */\n      dup2\n        /* \"#utility.yul\":17064:17068   */\n      dup2\n        /* \"#utility.yul\":17060:17080   */\n      sub\n        /* \"#utility.yul\":17056:17057   */\n      0x00\n        /* \"#utility.yul\":17045:17054   */\n      dup4\n        /* \"#utility.yul\":17041:17058   */\n      add\n        /* \"#utility.yul\":17034:17081   */\n      mstore\n        /* \"#utility.yul\":17098:17229   */\n      tag_556\n        /* \"#utility.yul\":17224:17228   */\n      dup2\n        /* \"#utility.yul\":17098:17229   */\n      tag_478\n      jump\t// in\n    tag_556:\n        /* \"#utility.yul\":17090:17229   */\n      swap1\n      pop\n        /* \"#utility.yul\":16817:17236   */\n      swap2\n      swap1\n      pop\n      jump\t// out\n        /* \"#utility.yul\":17242:17661   */\n    tag_142:\n        /* \"#utility.yul\":17408:17412   */\n      0x00\n        /* \"#utility.yul\":17446:17448   */\n      0x20\n        /* \"#utility.yul\":17435:17444   */\n      dup3\n        /* \"#utility.yul\":17431:17449   */\n      add\n        /* \"#utility.yul\":17423:17449   */\n      swap1\n      pop\n        /* \"#utility.yul\":17495:17504   */\n      dup2\n        /* \"#utility.yul\":17489:17493   */\n      dup2\n        /* \"#utility.yul\":17485:17505   */\n      sub\n        /* \"#utility.yul\":17481:17482   */\n      0x00\n        /* \"#utility.yul\":17470:17479   */\n      dup4\n        /* \"#utility.yul\":17466:17483   */\n      add\n        /* \"#utility.yul\":17459:17506   */\n      mstore\n        /* \"#utility.yul\":17523:17654   */\n      tag_558\n        /* \"#utility.yul\":17649:17653   */\n      dup2\n        /* \"#utility.yul\":17523:17654   */\n      tag_483\n      jump\t// in\n    tag_558:\n        /* \"#utility.yul\":17515:17654   */\n      swap1\n      pop\n        /* \"#utility.yul\":17242:17661   */\n      swap2\n      swap1\n      pop\n      jump\t// out\n        /* \"#utility.yul\":17667:18086   */\n    tag_176:\n        /* \"#utility.yul\":17833:17837   */\n      0x00\n        /* \"#utility.yul\":17871:17873   */\n      0x20\n        /* \"#utility.yul\":17860:17869   */\n      dup3\n        /* \"#utility.yul\":17856:17874   */\n      add\n        /* \"#utility.yul\":17848:17874   */\n      swap1\n      pop\n        /* \"#utility.yul\":17920:17929   */\n      dup2\n        /* \"#utility.yul\":17914:17918   */\n      dup2\n        /* \"#utility.yul\":17910:17930   */\n      sub\n        /* \"#utility.yul\":17906:17907   */\n      0x00\n        /* \"#utility.yul\":17895:17904   */\n      dup4\n        /* \"#utility.yul\":17891:17908   */\n      add\n        /* \"#utility.yul\":17884:17931   */\n      mstore\n        /* \"#utility.yul\":17948:18079   */\n      tag_560\n        /* \"#utility.yul\":18074:18078   */\n      dup2\n        /* \"#utility.yul\":17948:18079   */\n      tag_488\n      jump\t// in\n    tag_560:\n        /* \"#utility.yul\":17940:18079   */\n      swap1\n      pop\n        /* \"#utility.yul\":17667:18086   */\n      swap2\n      swap1\n      pop\n      jump\t// out\n        /* \"#utility.yul\":18092:18511   */\n    tag_172:\n        /* \"#utility.yul\":18258:18262   */\n      0x00\n        /* \"#utility.yul\":18296:18298   */\n      0x20\n        /* \"#utility.yul\":18285:18294   */\n      dup3\n        /* \"#utility.yul\":18281:18299   */\n      add\n        /* \"#utility.yul\":18273:18299   */\n      swap1\n      pop\n        /* \"#utility.yul\":18345:18354   */\n      dup2\n        /* \"#utility.yul\":18339:18343   */\n      dup2\n        /* \"#utility.yul\":18335:18355   */\n      sub\n        /* \"#utility.yul\":18331:18332   */\n      0x00\n        /* \"#utility.yul\":18320:18329   */\n      dup4\n        /* \"#utility.yul\":18316:18333   */\n      add\n        /* \"#utility.yul\":18309:18356   */\n      mstore\n        /* \"#utility.yul\":18373:18504   */\n      tag_562\n        /* \"#utility.yul\":18499:18503   */\n      dup2\n        /* \"#utility.yul\":18373:18504   */\n      tag_493\n      jump\t// in\n    tag_562:\n        /* \"#utility.yul\":18365:18504   */\n      swap1\n      pop\n        /* \"#utility.yul\":18092:18511   */\n      swap2\n      swap1\n      pop\n      jump\t// out\n        /* \"#utility.yul\":18517:18936   */\n    tag_127:\n        /* \"#utility.yul\":18683:18687   */\n      0x00\n        /* \"#utility.yul\":18721:18723   */\n      0x20\n        /* \"#utility.yul\":18710:18719   */\n      dup3\n        /* \"#utility.yul\":18706:18724   */\n      add\n        /* \"#utility.yul\":18698:18724   */\n      swap1\n      pop\n        /* \"#utility.yul\":18770:18779   */\n      dup2\n        /* \"#utility.yul\":18764:18768   */\n      dup2\n        /* \"#utility.yul\":18760:18780   */\n      sub\n        /* \"#utility.yul\":18756:18757   */\n      0x00\n        /* \"#utility.yul\":18745:18754   */\n      dup4\n        /* \"#utility.yul\":18741:18758   */\n      add\n        /* \"#utility.yul\":18734:18781   */\n      mstore\n        /* \"#utility.yul\":18798:18929   */\n      tag_564\n        /* \"#utility.yul\":18924:18928   */\n      dup2\n        /* \"#utility.yul\":18798:18929   */\n      tag_498\n      jump\t// in\n    tag_564:\n        /* \"#utility.yul\":18790:18929   */\n      swap1\n      pop\n        /* \"#utility.yul\":18517:18936   */\n      swap2\n      swap1\n      pop\n      jump\t// out\n        /* \"#utility.yul\":18942:19361   */\n    tag_161:\n        /* \"#utility.yul\":19108:19112   */\n      0x00\n        /* \"#utility.yul\":19146:19148   */\n      0x20\n        /* \"#utility.yul\":19135:19144   */\n      dup3\n        /* \"#utility.yul\":19131:19149   */\n      add\n        /* \"#utility.yul\":19123:19149   */\n      swap1\n      pop\n        /* \"#utility.yul\":19195:19204   */\n      dup2\n        /* \"#utility.yul\":19189:19193   */\n      dup2\n        /* \"#utility.yul\":19185:19205   */\n      sub\n        /* \"#utility.yul\":19181:19182   */\n      0x00\n        /* \"#utility.yul\":19170:19179   */\n      dup4\n        /* \"#utility.yul\":19166:19183   */\n      add\n        /* \"#utility.yul\":19159:19206   */\n      mstore\n        /* \"#utility.yul\":19223:19354   */\n      tag_566\n        /* \"#utility.yul\":19349:19353   */\n      dup2\n        /* \"#utility.yul\":19223:19354   */\n      tag_503\n      jump\t// in\n    tag_566:\n        /* \"#utility.yul\":19215:19354   */\n      swap1\n      pop\n        /* \"#utility.yul\":18942:19361   */\n      swap2\n      swap1\n      pop\n      jump\t// out\n        /* \"#utility.yul\":19367:19786   */\n    tag_217:\n        /* \"#utility.yul\":19533:19537   */\n      0x00\n        /* \"#utility.yul\":19571:19573   */\n      0x20\n        /* \"#utility.yul\":19560:19569   */\n      dup3\n        /* \"#utility.yul\":19556:19574   */\n      add\n        /* \"#utility.yul\":19548:19574   */\n      swap1\n      pop\n        /* \"#utility.yul\":19620:19629   */\n      dup2\n        /* \"#utility.yul\":19614:19618   */\n      dup2\n        /* \"#utility.yul\":19610:19630   */\n      sub\n        /* \"#utility.yul\":19606:19607   */\n      0x00\n        /* \"#utility.yul\":19595:19604   */\n      dup4\n        /* \"#utility.yul\":19591:19608   */\n      add\n        /* \"#utility.yul\":19584:19631   */\n      mstore\n        /* \"#utility.yul\":19648:19779   */\n      tag_568\n        /* \"#utility.yul\":19774:19778   */\n      dup2\n        /* \"#utility.yul\":19648:19779   */\n      tag_508\n      jump\t// in\n    tag_568:\n        /* \"#utility.yul\":19640:19779   */\n      swap1\n      pop\n        /* \"#utility.yul\":19367:19786   */\n      swap2\n      swap1\n      pop\n      jump\t// out\n        /* \"#utility.yul\":19792:20211   */\n    tag_134:\n        /* \"#utility.yul\":19958:19962   */\n      0x00\n        /* \"#utility.yul\":19996:19998   */\n      0x20\n        /* \"#utility.yul\":19985:19994   */\n      dup3\n        /* \"#utility.yul\":19981:19999   */\n      add\n        /* \"#utility.yul\":19973:19999   */\n      swap1\n      pop\n        /* \"#utility.yul\":20045:20054   */\n      dup2\n        /* \"#utility.yul\":20039:20043   */\n      dup2\n        /* \"#utility.yul\":20035:20055   */\n      sub\n        /* \"#utility.yul\":20031:20032   */\n      0x00\n        /* \"#utility.yul\":20020:20029   */\n      dup4\n        /* \"#utility.yul\":20016:20033   */\n      add\n        /* \"#utility.yul\":20009:20056   */\n      mstore\n        /* \"#utility.yul\":20073:20204   */\n      tag_570\n        /* \"#utility.yul\":20199:20203   */\n      dup2\n        /* \"#utility.yul\":20073:20204   */\n      tag_513\n      jump\t// in\n    tag_570:\n        /* \"#utility.yul\":20065:20204   */\n      swap1\n      pop\n        /* \"#utility.yul\":19792:20211   */\n      swap2\n      swap1\n      pop\n      jump\t// out\n        /* \"#utility.yul\":20217:20636   */\n    tag_153:\n        /* \"#utility.yul\":20383:20387   */\n      0x00\n        /* \"#utility.yul\":20421:20423   */\n      0x20\n        /* \"#utility.yul\":20410:20419   */\n      dup3\n        /* \"#utility.yul\":20406:20424   */\n      add\n        /* \"#utility.yul\":20398:20424   */\n      swap1\n      pop\n        /* \"#utility.yul\":20470:20479   */\n      dup2\n        /* \"#utility.yul\":20464:20468   */\n      dup2\n        /* \"#utility.yul\":20460:20480   */\n      sub\n        /* \"#utility.yul\":20456:20457   */\n      0x00\n        /* \"#utility.yul\":20445:20454   */\n      dup4\n        /* \"#utility.yul\":20441:20458   */\n      add\n        /* \"#utility.yul\":20434:20481   */\n      mstore\n        /* \"#utility.yul\":20498:20629   */\n      tag_572\n        /* \"#utility.yul\":20624:20628   */\n      dup2\n        /* \"#utility.yul\":20498:20629   */\n      tag_518\n      jump\t// in\n    tag_572:\n        /* \"#utility.yul\":20490:20629   */\n      swap1\n      pop\n        /* \"#utility.yul\":20217:20636   */\n      swap2\n      swap1\n      pop\n      jump\t// out\n        /* \"#utility.yul\":20642:20864   */\n    tag_73:\n        /* \"#utility.yul\":20735:20739   */\n      0x00\n        /* \"#utility.yul\":20773:20775   */\n      0x20\n        /* \"#utility.yul\":20762:20771   */\n      dup3\n        /* \"#utility.yul\":20758:20776   */\n      add\n        /* \"#utility.yul\":20750:20776   */\n      swap1\n      pop\n        /* \"#utility.yul\":20786:20857   */\n      tag_574\n        /* \"#utility.yul\":20854:20855   */\n      0x00\n        /* \"#utility.yul\":20843:20852   */\n      dup4\n        /* \"#utility.yul\":20839:20856   */\n      add\n        /* \"#utility.yul\":20830:20836   */\n      dup5\n        /* \"#utility.yul\":20786:20857   */\n      tag_523\n      jump\t// in\n    tag_574:\n        /* \"#utility.yul\":20642:20864   */\n      swap3\n      swap2\n      pop\n      pop\n      jump\t// out\n        /* \"#utility.yul\":20870:21084   */\n    tag_54:\n        /* \"#utility.yul\":20959:20963   */\n      0x00\n        /* \"#utility.yul\":20997:20999   */\n      0x20\n        /* \"#utility.yul\":20986:20995   */\n      dup3\n        /* \"#utility.yul\":20982:21000   */\n      add\n        /* \"#utility.yul\":20974:21000   */\n      swap1\n      pop\n        /* \"#utility.yul\":21010:21077   */\n      tag_576\n        /* \"#utility.yul\":21074:21075   */\n      0x00\n        /* \"#utility.yul\":21063:21072   */\n      dup4\n        /* \"#utility.yul\":21059:21076   */\n      add\n        /* \"#utility.yul\":21050:21056   */\n      dup5\n        /* \"#utility.yul\":21010:21077   */\n      tag_527\n      jump\t// in\n    tag_576:\n        /* \"#utility.yul\":20870:21084   */\n      swap3\n      swap2\n      pop\n      pop\n      jump\t// out\n        /* \"#utility.yul\":21090:21219   */\n    tag_338:\n        /* \"#utility.yul\":21124:21130   */\n      0x00\n        /* \"#utility.yul\":21151:21171   */\n      tag_578\n      tag_579\n      jump\t// in\n    tag_578:\n        /* \"#utility.yul\":21141:21171   */\n      swap1\n      pop\n        /* \"#utility.yul\":21180:21213   */\n      tag_580\n        /* \"#utility.yul\":21208:21212   */\n      dup3\n        /* \"#utility.yul\":21200:21206   */\n      dup3\n        /* \"#utility.yul\":21180:21213   */\n      tag_581\n      jump\t// in\n    tag_580:\n        /* \"#utility.yul\":21090:21219   */\n      swap2\n      swap1\n      pop\n      jump\t// out\n        /* \"#utility.yul\":21225:21300   */\n    tag_579:\n        /* \"#utility.yul\":21258:21264   */\n      0x00\n        /* \"#utility.yul\":21291:21293   */\n      0x40\n        /* \"#utility.yul\":21285:21294   */\n      mload\n        /* \"#utility.yul\":21275:21294   */\n      swap1\n      pop\n        /* \"#utility.yul\":21225:21300   */\n      swap1\n      jump\t// out\n        /* \"#utility.yul\":21306:21613   */\n    tag_337:\n        /* \"#utility.yul\":21367:21371   */\n      0x00\n        /* \"#utility.yul\":21457:21475   */\n      0xffffffffffffffff\n        /* \"#utility.yul\":21449:21455   */\n      dup3\n        /* \"#utility.yul\":21446:21476   */\n      gt\n        /* \"#utility.yul\":21443:21499   */\n      iszero\n      tag_584\n      jumpi\n        /* \"#utility.yul\":21479:21497   */\n      tag_585\n      tag_291\n      jump\t// in\n    tag_585:\n        /* \"#utility.yul\":21443:21499   */\n    tag_584:\n        /* \"#utility.yul\":21517:21546   */\n      tag_586\n        /* \"#utility.yul\":21539:21545   */\n      dup3\n        /* \"#utility.yul\":21517:21546   */\n      tag_438\n      jump\t// in\n    tag_586:\n        /* \"#utility.yul\":21509:21546   */\n      swap1\n      pop\n        /* \"#utility.yul\":21601:21605   */\n      0x20\n        /* \"#utility.yul\":21595:21599   */\n      dup2\n        /* \"#utility.yul\":21591:21606   */\n      add\n        /* \"#utility.yul\":21583:21606   */\n      swap1\n      pop\n        /* \"#utility.yul\":21306:21613   */\n      swap2\n      swap1\n      pop\n      jump\t// out\n        /* \"#utility.yul\":21619:21717   */\n    tag_432:\n        /* \"#utility.yul\":21670:21676   */\n      0x00\n        /* \"#utility.yul\":21704:21709   */\n      dup2\n        /* \"#utility.yul\":21698:21710   */\n      mload\n        /* \"#utility.yul\":21688:21710   */\n      swap1\n      pop\n        /* \"#utility.yul\":21619:21717   */\n      swap2\n      swap1\n      pop\n      jump\t// out\n        /* \"#utility.yul\":21723:21822   */\n    tag_442:\n        /* \"#utility.yul\":21775:21781   */\n      0x00\n        /* \"#utility.yul\":21809:21814   */\n      dup2\n        /* \"#utility.yul\":21803:21815   */\n      mload\n        /* \"#utility.yul\":21793:21815   */\n      swap1\n      pop\n        /* \"#utility.yul\":21723:21822   */\n      swap2\n      swap1\n      pop\n      jump\t// out\n        /* \"#utility.yul\":21828:21996   */\n    tag_434:\n        /* \"#utility.yul\":21911:21922   */\n      0x00\n        /* \"#utility.yul\":21945:21951   */\n      dup3\n        /* \"#utility.yul\":21940:21943   */\n      dup3\n        /* \"#utility.yul\":21933:21952   */\n      mstore\n        /* \"#utility.yul\":21985:21989   */\n      0x20\n        /* \"#utility.yul\":21980:21983   */\n      dup3\n        /* \"#utility.yul\":21976:21990   */\n      add\n        /* \"#utility.yul\":21961:21990   */\n      swap1\n      pop\n        /* \"#utility.yul\":21828:21996   */\n      swap3\n      swap2\n      pop\n      pop\n      jump\t// out\n        /* \"#utility.yul\":22002:22171   */\n    tag_444:\n        /* \"#utility.yul\":22086:22097   */\n      0x00\n        /* \"#utility.yul\":22120:22126   */\n      dup3\n        /* \"#utility.yul\":22115:22118   */\n      dup3\n        /* \"#utility.yul\":22108:22127   */\n      mstore\n        /* \"#utility.yul\":22160:22164   */\n      0x20\n        /* \"#utility.yul\":22155:22158   */\n      dup3\n        /* \"#utility.yul\":22151:22165   */\n      add\n        /* \"#utility.yul\":22136:22165   */\n      swap1\n      pop\n        /* \"#utility.yul\":22002:22171   */\n      swap3\n      swap2\n      pop\n      pop\n      jump\t// out\n        /* \"#utility.yul\":22177:22325   */\n    tag_451:\n        /* \"#utility.yul\":22279:22290   */\n      0x00\n        /* \"#utility.yul\":22316:22319   */\n      dup2\n        /* \"#utility.yul\":22301:22319   */\n      swap1\n      pop\n        /* \"#utility.yul\":22177:22325   */\n      swap3\n      swap2\n      pop\n      pop\n      jump\t// out\n        /* \"#utility.yul\":22331:22636   */\n    tag_265:\n        /* \"#utility.yul\":22371:22374   */\n      0x00\n        /* \"#utility.yul\":22390:22410   */\n      tag_593\n        /* \"#utility.yul\":22408:22409   */\n      dup3\n        /* \"#utility.yul\":22390:22410   */\n      tag_526\n      jump\t// in\n    tag_593:\n        /* \"#utility.yul\":22385:22410   */\n      swap2\n      pop\n        /* \"#utility.yul\":22424:22444   */\n      tag_594\n        /* \"#utility.yul\":22442:22443   */\n      dup4\n        /* \"#utility.yul\":22424:22444   */\n      tag_526\n      jump\t// in\n    tag_594:\n        /* \"#utility.yul\":22419:22444   */\n      swap3\n      pop\n        /* \"#utility.yul\":22578:22579   */\n      dup3\n        /* \"#utility.yul\":22510:22576   */\n      0xffffffffffffffffffffffffffffffffffffffffffffffffffffffffffffffff\n        /* \"#utility.yul\":22506:22580   */\n      sub\n        /* \"#utility.yul\":22503:22504   */\n      dup3\n        /* \"#utility.yul\":22500:22581   */\n      gt\n        /* \"#utility.yul\":22497:22604   */\n      iszero\n      tag_595\n      jumpi\n        /* \"#utility.yul\":22584:22602   */\n      tag_596\n      tag_597\n      jump\t// in\n    tag_596:\n        /* \"#utility.yul\":22497:22604   */\n    tag_595:\n        /* \"#utility.yul\":22628:22629   */\n      dup3\n        /* \"#utility.yul\":22625:22626   */\n      dup3\n        /* \"#utility.yul\":22621:22630   */\n      add\n        /* \"#utility.yul\":22614:22630   */\n      swap1\n      pop\n        /* \"#utility.yul\":22331:22636   */\n      swap3\n      swap2\n      pop\n      pop\n      jump\t// out\n        /* \"#utility.yul\":22642:22827   */\n    tag_288:\n        /* \"#utility.yul\":22682:22683   */\n      0x00\n        /* \"#utility.yul\":22699:22719   */\n      tag_599\n        /* \"#utility.yul\":22717:22718   */\n      dup3\n        /* \"#utility.yul\":22699:22719   */\n      tag_526\n      jump\t// in\n    tag_599:\n        /* \"#utility.yul\":22694:22719   */\n      swap2\n      pop\n        /* \"#utility.yul\":22733:22753   */\n      tag_600\n        /* \"#utility.yul\":22751:22752   */\n      dup4\n        /* \"#utility.yul\":22733:22753   */\n      tag_526\n      jump\t// in\n    tag_600:\n        /* \"#utility.yul\":22728:22753   */\n      swap3\n      pop\n        /* \"#utility.yul\":22772:22773   */\n      dup3\n        /* \"#utility.yul\":22762:22797   */\n      tag_601\n      jumpi\n        /* \"#utility.yul\":22777:22795   */\n      tag_602\n      tag_603\n      jump\t// in\n    tag_602:\n        /* \"#utility.yul\":22762:22797   */\n    tag_601:\n        /* \"#utility.yul\":22819:22820   */\n      dup3\n        /* \"#utility.yul\":22816:22817   */\n      dup3\n        /* \"#utility.yul\":22812:22821   */\n      div\n        /* \"#utility.yul\":22807:22821   */\n      swap1\n      pop\n        /* \"#utility.yul\":22642:22827   */\n      swap3\n      swap2\n      pop\n      pop\n      jump\t// out\n        /* \"#utility.yul\":22833:23024   */\n    tag_263:\n        /* \"#utility.yul\":22873:22877   */\n      0x00\n        /* \"#utility.yul\":22893:22913   */\n      tag_605\n        /* \"#utility.yul\":22911:22912   */\n      dup3\n        /* \"#utility.yul\":22893:22913   */\n      tag_526\n      jump\t// in\n    tag_605:\n        /* \"#utility.yul\":22888:22913   */\n      swap2\n      pop\n        /* \"#utility.yul\":22927:22947   */\n      tag_606\n        /* \"#utility.yul\":22945:22946   */\n      dup4\n        /* \"#utility.yul\":22927:22947   */\n      tag_526\n      jump\t// in\n    tag_606:\n        /* \"#utility.yul\":22922:22947   */\n      swap3\n      pop\n        /* \"#utility.yul\":22966:22967   */\n      dup3\n        /* \"#utility.yul\":22963:22964   */\n      dup3\n        /* \"#utility.yul\":22960:22968   */\n      lt\n        /* \"#utility.yul\":22957:22991   */\n      iszero\n      tag_607\n      jumpi\n        /* \"#utility.yul\":22971:22989   */\n      tag_608\n      tag_597\n      jump\t// in\n    tag_608:\n        /* \"#utility.yul\":22957:22991   */\n    tag_607:\n        /* \"#utility.yul\":23016:23017   */\n      dup3\n        /* \"#utility.yul\":23013:23014   */\n      dup3\n        /* \"#utility.yul\":23009:23018   */\n      sub\n        /* \"#utility.yul\":23001:23018   */\n      swap1\n      pop\n        /* \"#utility.yul\":22833:23024   */\n      swap3\n      swap2\n      pop\n      pop\n      jump\t// out\n        /* \"#utility.yul\":23030:23126   */\n    tag_424:\n        /* \"#utility.yul\":23067:23074   */\n      0x00\n        /* \"#utility.yul\":23096:23120   */\n      tag_610\n        /* \"#utility.yul\":23114:23119   */\n      dup3\n        /* \"#utility.yul\":23096:23120   */\n      tag_611\n      jump\t// in\n    tag_610:\n        /* \"#utility.yul\":23085:23120   */\n      swap1\n      pop\n        /* \"#utility.yul\":23030:23126   */\n      swap2\n      swap1\n      pop\n      jump\t// out\n        /* \"#utility.yul\":23132:23222   */\n    tag_428:\n        /* \"#utility.yul\":23166:23173   */\n      0x00\n        /* \"#utility.yul\":23209:23214   */\n      dup2\n        /* \"#utility.yul\":23202:23215   */\n      iszero\n        /* \"#utility.yul\":23195:23216   */\n      iszero\n        /* \"#utility.yul\":23184:23216   */\n      swap1\n      pop\n        /* \"#utility.yul\":23132:23222   */\n      swap2\n      swap1\n      pop\n      jump\t// out\n        /* \"#utility.yul\":23228:23377   */\n    tag_613:\n        /* \"#utility.yul\":23264:23271   */\n      0x00\n        /* \"#utility.yul\":23304:23370   */\n      0xffffffff00000000000000000000000000000000000000000000000000000000\n        /* \"#utility.yul\":23297:23302   */\n      dup3\n        /* \"#utility.yul\":23293:23371   */\n      and\n        /* \"#utility.yul\":23282:23371   */\n      swap1\n      pop\n        /* \"#utility.yul\":23228:23377   */\n      swap2\n      swap1\n      pop\n      jump\t// out\n        /* \"#utility.yul\":23383:23509   */\n    tag_611:\n        /* \"#utility.yul\":23420:23427   */\n      0x00\n        /* \"#utility.yul\":23460:23502   */\n      0xffffffffffffffffffffffffffffffffffffffff\n        /* \"#utility.yul\":23453:23458   */\n      dup3\n        /* \"#utility.yul\":23449:23503   */\n      and\n        /* \"#utility.yul\":23438:23503   */\n      swap1\n      pop\n        /* \"#utility.yul\":23383:23509   */\n      swap2\n      swap1\n      pop\n      jump\t// out\n        /* \"#utility.yul\":23515:23592   */\n    tag_526:\n        /* \"#utility.yul\":23552:23559   */\n      0x00\n        /* \"#utility.yul\":23581:23586   */\n      dup2\n        /* \"#utility.yul\":23570:23586   */\n      swap1\n      pop\n        /* \"#utility.yul\":23515:23592   */\n      swap2\n      swap1\n      pop\n      jump\t// out\n        /* \"#utility.yul\":23598:23684   */\n    tag_530:\n        /* \"#utility.yul\":23633:23640   */\n      0x00\n        /* \"#utility.yul\":23673:23677   */\n      0xff\n        /* \"#utility.yul\":23666:23671   */\n      dup3\n        /* \"#utility.yul\":23662:23678   */\n      and\n        /* \"#utility.yul\":23651:23678   */\n      swap1\n      pop\n        /* \"#utility.yul\":23598:23684   */\n      swap2\n      swap1\n      pop\n      jump\t// out\n        /* \"#utility.yul\":23690:23824   */\n    tag_420:\n        /* \"#utility.yul\":23748:23757   */\n      0x00\n        /* \"#utility.yul\":23781:23818   */\n      tag_619\n        /* \"#utility.yul\":23812:23817   */\n      dup3\n        /* \"#utility.yul\":23781:23818   */\n      tag_620\n      jump\t// in\n    tag_619:\n        /* \"#utility.yul\":23768:23818   */\n      swap1\n      pop\n        /* \"#utility.yul\":23690:23824   */\n      swap2\n      swap1\n      pop\n      jump\t// out\n        /* \"#utility.yul\":23830:23956   */\n    tag_620:\n        /* \"#utility.yul\":23880:23889   */\n      0x00\n        /* \"#utility.yul\":23913:23950   */\n      tag_622\n        /* \"#utility.yul\":23944:23949   */\n      dup3\n        /* \"#utility.yul\":23913:23950   */\n      tag_623\n      jump\t// in\n    tag_622:\n        /* \"#utility.yul\":23900:23950   */\n      swap1\n      pop\n        /* \"#utility.yul\":23830:23956   */\n      swap2\n      swap1\n      pop\n      jump\t// out\n        /* \"#utility.yul\":23962:24075   */\n    tag_623:\n        /* \"#utility.yul\":24012:24021   */\n      0x00\n        /* \"#utility.yul\":24045:24069   */\n      tag_625\n        /* \"#utility.yul\":24063:24068   */\n      dup3\n        /* \"#utility.yul\":24045:24069   */\n      tag_611\n      jump\t// in\n    tag_625:\n        /* \"#utility.yul\":24032:24069   */\n      swap1\n      pop\n        /* \"#utility.yul\":23962:24075   */\n      swap2\n      swap1\n      pop\n      jump\t// out\n        /* \"#utility.yul\":24081:24235   */\n    tag_343:\n        /* \"#utility.yul\":24165:24171   */\n      dup3\n        /* \"#utility.yul\":24160:24163   */\n      dup2\n        /* \"#utility.yul\":24155:24158   */\n      dup4\n        /* \"#utility.yul\":24142:24172   */\n      calldatacopy\n        /* \"#utility.yul\":24227:24228   */\n      0x00\n        /* \"#utility.yul\":24218:24224   */\n      dup4\n        /* \"#utility.yul\":24213:24216   */\n      dup4\n        /* \"#utility.yul\":24209:24225   */\n      add\n        /* \"#utility.yul\":24202:24229   */\n      mstore\n        /* \"#utility.yul\":24081:24235   */\n      pop\n      pop\n      pop\n      jump\t// out\n        /* \"#utility.yul\":24241:24548   */\n    tag_436:\n        /* \"#utility.yul\":24309:24310   */\n      0x00\n        /* \"#utility.yul\":24319:24432   */\n    tag_628:\n        /* \"#utility.yul\":24333:24339   */\n      dup4\n        /* \"#utility.yul\":24330:24331   */\n      dup2\n        /* \"#utility.yul\":24327:24340   */\n      lt\n        /* \"#utility.yul\":24319:24432   */\n      iszero\n      tag_630\n      jumpi\n        /* \"#utility.yul\":24418:24419   */\n      dup1\n        /* \"#utility.yul\":24413:24416   */\n      dup3\n        /* \"#utility.yul\":24409:24420   */\n      add\n        /* \"#utility.yul\":24403:24421   */\n      mload\n        /* \"#utility.yul\":24399:24400   */\n      dup2\n        /* \"#utility.yul\":24394:24397   */\n      dup5\n        /* \"#utility.yul\":24390:24401   */\n      add\n        /* \"#utility.yul\":24383:24422   */\n      mstore\n        /* \"#utility.yul\":24355:24357   */\n      0x20\n        /* \"#utility.yul\":24352:24353   */\n      dup2\n        /* \"#utility.yul\":24348:24358   */\n      add\n        /* \"#utility.yul\":24343:24358   */\n      swap1\n      pop\n        /* \"#utility.yul\":24319:24432   */\n      jump(tag_628)\n    tag_630:\n        /* \"#utility.yul\":24450:24456   */\n      dup4\n        /* \"#utility.yul\":24447:24448   */\n      dup2\n        /* \"#utility.yul\":24444:24457   */\n      gt\n        /* \"#utility.yul\":24441:24542   */\n      iszero\n      tag_631\n      jumpi\n        /* \"#utility.yul\":24530:24531   */\n      0x00\n        /* \"#utility.yul\":24521:24527   */\n      dup5\n        /* \"#utility.yul\":24516:24519   */\n      dup5\n        /* \"#utility.yul\":24512:24528   */\n      add\n        /* \"#utility.yul\":24505:24532   */\n      mstore\n        /* \"#utility.yul\":24441:24542   */\n    tag_631:\n        /* \"#utility.yul\":24290:24548   */\n      pop\n        /* \"#utility.yul\":24241:24548   */\n      pop\n      pop\n      pop\n      jump\t// out\n        /* \"#utility.yul\":24554:24874   */\n    tag_115:\n        /* \"#utility.yul\":24598:24604   */\n      0x00\n        /* \"#utility.yul\":24635:24636   */\n      0x02\n        /* \"#utility.yul\":24629:24633   */\n      dup3\n        /* \"#utility.yul\":24625:24637   */\n      div\n        /* \"#utility.yul\":24615:24637   */\n      swap1\n      pop\n        /* \"#utility.yul\":24682:24683   */\n      0x01\n        /* \"#utility.yul\":24676:24680   */\n      dup3\n        /* \"#utility.yul\":24672:24684   */\n      and\n        /* \"#utility.yul\":24703:24721   */\n      dup1\n        /* \"#utility.yul\":24693:24774   */\n      tag_633\n      jumpi\n        /* \"#utility.yul\":24759:24763   */\n      0x7f\n        /* \"#utility.yul\":24751:24757   */\n      dup3\n        /* \"#utility.yul\":24747:24764   */\n      and\n        /* \"#utility.yul\":24737:24764   */\n      swap2\n      pop\n        /* \"#utility.yul\":24693:24774   */\n    tag_633:\n        /* \"#utility.yul\":24821:24823   */\n      0x20\n        /* \"#utility.yul\":24813:24819   */\n      dup3\n        /* \"#utility.yul\":24810:24824   */\n      lt\n        /* \"#utility.yul\":24790:24808   */\n      dup2\n        /* \"#utility.yul\":24787:24825   */\n      eq\n        /* \"#utility.yul\":24784:24868   */\n      iszero\n      tag_634\n      jumpi\n        /* \"#utility.yul\":24840:24858   */\n      tag_635\n      tag_636\n      jump\t// in\n    tag_635:\n        /* \"#utility.yul\":24784:24868   */\n    tag_634:\n        /* \"#utility.yul\":24605:24874   */\n      pop\n        /* \"#utility.yul\":24554:24874   */\n      swap2\n      swap1\n      pop\n      jump\t// out\n        /* \"#utility.yul\":24880:25161   */\n    tag_581:\n        /* \"#utility.yul\":24963:24990   */\n      tag_638\n        /* \"#utility.yul\":24985:24989   */\n      dup3\n        /* \"#utility.yul\":24963:24990   */\n      tag_438\n      jump\t// in\n    tag_638:\n        /* \"#utility.yul\":24955:24961   */\n      dup2\n        /* \"#utility.yul\":24951:24991   */\n      add\n        /* \"#utility.yul\":25093:25099   */\n      dup2\n        /* \"#utility.yul\":25081:25091   */\n      dup2\n        /* \"#utility.yul\":25078:25100   */\n      lt\n        /* \"#utility.yul\":25057:25075   */\n      0xffffffffffffffff\n        /* \"#utility.yul\":25045:25055   */\n      dup3\n        /* \"#utility.yul\":25042:25076   */\n      gt\n        /* \"#utility.yul\":25039:25101   */\n      or\n        /* \"#utility.yul\":25036:25124   */\n      iszero\n      tag_639\n      jumpi\n        /* \"#utility.yul\":25104:25122   */\n      tag_640\n      tag_291\n      jump\t// in\n    tag_640:\n        /* \"#utility.yul\":25036:25124   */\n    tag_639:\n        /* \"#utility.yul\":25144:25154   */\n      dup1\n        /* \"#utility.yul\":25140:25142   */\n      0x40\n        /* \"#utility.yul\":25133:25155   */\n      mstore\n        /* \"#utility.yul\":24923:25161   */\n      pop\n        /* \"#utility.yul\":24880:25161   */\n      pop\n      pop\n      jump\t// out\n        /* \"#utility.yul\":25167:25400   */\n    tag_286:\n        /* \"#utility.yul\":25206:25209   */\n      0x00\n        /* \"#utility.yul\":25229:25253   */\n      tag_642\n        /* \"#utility.yul\":25247:25252   */\n      dup3\n        /* \"#utility.yul\":25229:25253   */\n      tag_526\n      jump\t// in\n    tag_642:\n        /* \"#utility.yul\":25220:25253   */\n      swap2\n      pop\n        /* \"#utility.yul\":25275:25341   */\n      0xffffffffffffffffffffffffffffffffffffffffffffffffffffffffffffffff\n        /* \"#utility.yul\":25268:25273   */\n      dup3\n        /* \"#utility.yul\":25265:25342   */\n      eq\n        /* \"#utility.yul\":25262:25365   */\n      iszero\n      tag_643\n      jumpi\n        /* \"#utility.yul\":25345:25363   */\n      tag_644\n      tag_597\n      jump\t// in\n    tag_644:\n        /* \"#utility.yul\":25262:25365   */\n    tag_643:\n        /* \"#utility.yul\":25392:25393   */\n      0x01\n        /* \"#utility.yul\":25385:25390   */\n      dup3\n        /* \"#utility.yul\":25381:25394   */\n      add\n        /* \"#utility.yul\":25374:25394   */\n      swap1\n      pop\n        /* \"#utility.yul\":25167:25400   */\n      swap2\n      swap1\n      pop\n      jump\t// out\n        /* \"#utility.yul\":25406:25582   */\n    tag_297:\n        /* \"#utility.yul\":25438:25439   */\n      0x00\n        /* \"#utility.yul\":25455:25475   */\n      tag_646\n        /* \"#utility.yul\":25473:25474   */\n      dup3\n        /* \"#utility.yul\":25455:25475   */\n      tag_526\n      jump\t// in\n    tag_646:\n        /* \"#utility.yul\":25450:25475   */\n      swap2\n      pop\n        /* \"#utility.yul\":25489:25509   */\n      tag_647\n        /* \"#utility.yul\":25507:25508   */\n      dup4\n        /* \"#utility.yul\":25489:25509   */\n      tag_526\n      jump\t// in\n    tag_647:\n        /* \"#utility.yul\":25484:25509   */\n      swap3\n      pop\n        /* \"#utility.yul\":25528:25529   */\n      dup3\n        /* \"#utility.yul\":25518:25553   */\n      tag_648\n      jumpi\n        /* \"#utility.yul\":25533:25551   */\n      tag_649\n      tag_603\n      jump\t// in\n    tag_649:\n        /* \"#utility.yul\":25518:25553   */\n    tag_648:\n        /* \"#utility.yul\":25574:25575   */\n      dup3\n        /* \"#utility.yul\":25571:25572   */\n      dup3\n        /* \"#utility.yul\":25567:25576   */\n      mod\n        /* \"#utility.yul\":25562:25576   */\n      swap1\n      pop\n        /* \"#utility.yul\":25406:25582   */\n      swap3\n      swap2\n      pop\n      pop\n      jump\t// out\n        /* \"#utility.yul\":25588:25768   */\n    tag_597:\n        /* \"#utility.yul\":25636:25713   */\n      0x4e487b7100000000000000000000000000000000000000000000000000000000\n        /* \"#utility.yul\":25633:25634   */\n      0x00\n        /* \"#utility.yul\":25626:25714   */\n      mstore\n        /* \"#utility.yul\":25733:25737   */\n      0x11\n        /* \"#utility.yul\":25730:25731   */\n      0x04\n        /* \"#utility.yul\":25723:25738   */\n      mstore\n        /* \"#utility.yul\":25757:25761   */\n      0x24\n        /* \"#utility.yul\":25754:25755   */\n      0x00\n        /* \"#utility.yul\":25747:25762   */\n      revert\n        /* \"#utility.yul\":25774:25954   */\n    tag_603:\n        /* \"#utility.yul\":25822:25899   */\n      0x4e487b7100000000000000000000000000000000000000000000000000000000\n        /* \"#utility.yul\":25819:25820   */\n      0x00\n        /* \"#utility.yul\":25812:25900   */\n      mstore\n        /* \"#utility.yul\":25919:25923   */\n      0x12\n        /* \"#utility.yul\":25916:25917   */\n      0x04\n        /* \"#utility.yul\":25909:25924   */\n      mstore\n        /* \"#utility.yul\":25943:25947   */\n      0x24\n        /* \"#utility.yul\":25940:25941   */\n      0x00\n        /* \"#utility.yul\":25933:25948   */\n      revert\n        /* \"#utility.yul\":25960:26140   */\n    tag_636:\n        /* \"#utility.yul\":26008:26085   */\n      0x4e487b7100000000000000000000000000000000000000000000000000000000\n        /* \"#utility.yul\":26005:26006   */\n      0x00\n        /* \"#utility.yul\":25998:26086   */\n      mstore\n        /* \"#utility.yul\":26105:26109   */\n      0x22\n        /* \"#utility.yul\":26102:26103   */\n      0x04\n        /* \"#utility.yul\":26095:26110   */\n      mstore\n        /* \"#utility.yul\":26129:26133   */\n      0x24\n        /* \"#utility.yul\":26126:26127   */\n      0x00\n        /* \"#utility.yul\":26119:26134   */\n      revert\n        /* \"#utility.yul\":26146:26326   */\n    tag_301:\n        /* \"#utility.yul\":26194:26271   */\n      0x4e487b7100000000000000000000000000000000000000000000000000000000\n        /* \"#utility.yul\":26191:26192   */\n      0x00\n        /* \"#utility.yul\":26184:26272   */\n      mstore\n        /* \"#utility.yul\":26291:26295   */\n      0x32\n        /* \"#utility.yul\":26288:26289   */\n      0x04\n        /* \"#utility.yul\":26281:26296   */\n      mstore\n        /* \"#utility.yul\":26315:26319   */\n      0x24\n        /* \"#utility.yul\":26312:26313   */\n      0x00\n        /* \"#utility.yul\":26305:26320   */\n      revert\n        /* \"#utility.yul\":26332:26512   */\n    tag_291:\n        /* \"#utility.yul\":26380:26457   */\n      0x4e487b7100000000000000000000000000000000000000000000000000000000\n        /* \"#utility.yul\":26377:26378   */\n      0x00\n        /* \"#utility.yul\":26370:26458   */\n      mstore\n        /* \"#utility.yul\":26477:26481   */\n      0x41\n        /* \"#utility.yul\":26474:26475   */\n      0x04\n        /* \"#utility.yul\":26467:26482   */\n      mstore\n        /* \"#utility.yul\":26501:26505   */\n      0x24\n        /* \"#utility.yul\":26498:26499   */\n      0x00\n        /* \"#utility.yul\":26491:26506   */\n      revert\n        /* \"#utility.yul\":26518:26635   */\n    tag_363:\n        /* \"#utility.yul\":26627:26628   */\n      0x00\n        /* \"#utility.yul\":26624:26625   */\n      dup1\n        /* \"#utility.yul\":26617:26629   */\n      revert\n        /* \"#utility.yul\":26641:26758   */\n    tag_341:\n        /* \"#utility.yul\":26750:26751   */\n      0x00\n        /* \"#utility.yul\":26747:26748   */\n      dup1\n        /* \"#utility.yul\":26740:26752   */\n      revert\n        /* \"#utility.yul\":26764:26881   */\n    tag_393:\n        /* \"#utility.yul\":26873:26874   */\n      0x00\n        /* \"#utility.yul\":26870:26871   */\n      dup1\n        /* \"#utility.yul\":26863:26875   */\n      revert\n        /* \"#utility.yul\":26887:27004   */\n    tag_372:\n        /* \"#utility.yul\":26996:26997   */\n      0x00\n        /* \"#utility.yul\":26993:26994   */\n      dup1\n        /* \"#utility.yul\":26986:26998   */\n      revert\n        /* \"#utility.yul\":27010:27112   */\n    tag_438:\n        /* \"#utility.yul\":27051:27057   */\n      0x00\n        /* \"#utility.yul\":27102:27104   */\n      0x1f\n        /* \"#utility.yul\":27098:27105   */\n      not\n        /* \"#utility.yul\":27093:27095   */\n      0x1f\n        /* \"#utility.yul\":27086:27091   */\n      dup4\n        /* \"#utility.yul\":27082:27096   */\n      add\n        /* \"#utility.yul\":27078:27106   */\n      and\n        /* \"#utility.yul\":27068:27106   */\n      swap1\n      pop\n        /* \"#utility.yul\":27010:27112   */\n      swap2\n      swap1\n      pop\n      jump\t// out\n        /* \"#utility.yul\":27118:27355   */\n    tag_457:\n        /* \"#utility.yul\":27258:27292   */\n      0x4552433732313a207472616e7366657220746f206e6f6e204552433732315265\n        /* \"#utility.yul\":27254:27255   */\n      0x00\n        /* \"#utility.yul\":27246:27252   */\n      dup3\n        /* \"#utility.yul\":27242:27256   */\n      add\n        /* \"#utility.yul\":27235:27293   */\n      mstore\n        /* \"#utility.yul\":27327:27347   */\n      0x63656976657220696d706c656d656e7465720000000000000000000000000000\n        /* \"#utility.yul\":27322:27324   */\n      0x20\n        /* \"#utility.yul\":27314:27320   */\n      dup3\n        /* \"#utility.yul\":27310:27325   */\n      add\n        /* \"#utility.yul\":27303:27348   */\n      mstore\n        /* \"#utility.yul\":27118:27355   */\n      pop\n      jump\t// out\n        /* \"#utility.yul\":27361:27586   */\n    tag_462:\n        /* \"#utility.yul\":27501:27535   */\n      0x4f776e61626c653a206e6577206f776e657220697320746865207a65726f2061\n        /* \"#utility.yul\":27497:27498   */\n      0x00\n        /* \"#utility.yul\":27489:27495   */\n      dup3\n        /* \"#utility.yul\":27485:27499   */\n      add\n        /* \"#utility.yul\":27478:27536   */\n      mstore\n        /* \"#utility.yul\":27570:27578   */\n      0x6464726573730000000000000000000000000000000000000000000000000000\n        /* \"#utility.yul\":27565:27567   */\n      0x20\n        /* \"#utility.yul\":27557:27563   */\n      dup3\n        /* \"#utility.yul\":27553:27568   */\n      add\n        /* \"#utility.yul\":27546:27579   */\n      mstore\n        /* \"#utility.yul\":27361:27586   */\n      pop\n      jump\t// out\n        /* \"#utility.yul\":27592:27816   */\n    tag_467:\n        /* \"#utility.yul\":27732:27766   */\n      0x4552433732313a207472616e736665722066726f6d20696e636f727265637420\n        /* \"#utility.yul\":27728:27729   */\n      0x00\n        /* \"#utility.yul\":27720:27726   */\n      dup3\n        /* \"#utility.yul\":27716:27730   */\n      add\n        /* \"#utility.yul\":27709:27767   */\n      mstore\n        /* \"#utility.yul\":27801:27808   */\n      0x6f776e6572000000000000000000000000000000000000000000000000000000\n        /* \"#utility.yul\":27796:27798   */\n      0x20\n        /* \"#utility.yul\":27788:27794   */\n      dup3\n        /* \"#utility.yul\":27784:27799   */\n      add\n        /* \"#utility.yul\":27777:27809   */\n      mstore\n        /* \"#utility.yul\":27592:27816   */\n      pop\n      jump\t// out\n        /* \"#utility.yul\":27822:28045   */\n    tag_472:\n        /* \"#utility.yul\":27962:27996   */\n      0x4552433732313a207472616e7366657220746f20746865207a65726f20616464\n        /* \"#utility.yul\":27958:27959   */\n      0x00\n        /* \"#utility.yul\":27950:27956   */\n      dup3\n        /* \"#utility.yul\":27946:27960   */\n      add\n        /* \"#utility.yul\":27939:27997   */\n      mstore\n        /* \"#utility.yul\":28031:28037   */\n      0x7265737300000000000000000000000000000000000000000000000000000000\n        /* \"#utility.yul\":28026:28028   */\n      0x20\n        /* \"#utility.yul\":28018:28024   */\n      dup3\n        /* \"#utility.yul\":28014:28029   */\n      add\n        /* \"#utility.yul\":28007:28038   */\n      mstore\n        /* \"#utility.yul\":27822:28045   */\n      pop\n      jump\t// out\n        /* \"#utility.yul\":28051:28226   */\n    tag_477:\n        /* \"#utility.yul\":28191:28218   */\n      0x4552433732313a20617070726f766520746f2063616c6c657200000000000000\n        /* \"#utility.yul\":28187:28188   */\n      0x00\n        /* \"#utility.yul\":28179:28185   */\n      dup3\n        /* \"#utility.yul\":28175:28189   */\n      add\n        /* \"#utility.yul\":28168:28219   */\n      mstore\n        /* \"#utility.yul\":28051:28226   */\n      pop\n      jump\t// out\n        /* \"#utility.yul\":28232:28463   */\n    tag_482:\n        /* \"#utility.yul\":28372:28406   */\n      0x4552433732313a206f70657261746f7220717565727920666f72206e6f6e6578\n        /* \"#utility.yul\":28368:28369   */\n      0x00\n        /* \"#utility.yul\":28360:28366   */\n      dup3\n        /* \"#utility.yul\":28356:28370   */\n      add\n        /* \"#utility.yul\":28349:28407   */\n      mstore\n        /* \"#utility.yul\":28441:28455   */\n      0x697374656e7420746f6b656e0000000000000000000000000000000000000000\n        /* \"#utility.yul\":28436:28438   */\n      0x20\n        /* \"#utility.yul\":28428:28434   */\n      dup3\n        /* \"#utility.yul\":28424:28439   */\n      add\n        /* \"#utility.yul\":28417:28456   */\n      mstore\n        /* \"#utility.yul\":28232:28463   */\n      pop\n      jump\t// out\n        /* \"#utility.yul\":28469:28712   */\n    tag_487:\n        /* \"#utility.yul\":28609:28643   */\n      0x4552433732313a20617070726f76652063616c6c6572206973206e6f74206f77\n        /* \"#utility.yul\":28605:28606   */\n      0x00\n        /* \"#utility.yul\":28597:28603   */\n      dup3\n        /* \"#utility.yul\":28593:28607   */\n      add\n        /* \"#utility.yul\":28586:28644   */\n      mstore\n        /* \"#utility.yul\":28678:28704   */\n      0x6e6572206e6f7220617070726f76656420666f7220616c6c0000000000000000\n        /* \"#utility.yul\":28673:28675   */\n      0x20\n        /* \"#utility.yul\":28665:28671   */\n      dup3\n        /* \"#utility.yul\":28661:28676   */\n      add\n        /* \"#utility.yul\":28654:28705   */\n      mstore\n        /* \"#utility.yul\":28469:28712   */\n      pop\n      jump\t// out\n        /* \"#utility.yul\":28718:28947   */\n    tag_492:\n        /* \"#utility.yul\":28858:28892   */\n      0x4552433732313a2062616c616e636520717565727920666f7220746865207a65\n        /* \"#utility.yul\":28854:28855   */\n      0x00\n        /* \"#utility.yul\":28846:28852   */\n      dup3\n        /* \"#utility.yul\":28842:28856   */\n      add\n        /* \"#utility.yul\":28835:28893   */\n      mstore\n        /* \"#utility.yul\":28927:28939   */\n      0x726f206164647265737300000000000000000000000000000000000000000000\n        /* \"#utility.yul\":28922:28924   */\n      0x20\n        /* \"#utility.yul\":28914:28920   */\n      dup3\n        /* \"#utility.yul\":28910:28925   */\n      add\n        /* \"#utility.yul\":28903:28940   */\n      mstore\n        /* \"#utility.yul\":28718:28947   */\n      pop\n      jump\t// out\n        /* \"#utility.yul\":28953:29181   */\n    tag_497:\n        /* \"#utility.yul\":29093:29127   */\n      0x4552433732313a206f776e657220717565727920666f72206e6f6e6578697374\n        /* \"#utility.yul\":29089:29090   */\n      0x00\n        /* \"#utility.yul\":29081:29087   */\n      dup3\n        /* \"#utility.yul\":29077:29091   */\n      add\n        /* \"#utility.yul\":29070:29128   */\n      mstore\n        /* \"#utility.yul\":29162:29173   */\n      0x656e7420746f6b656e0000000000000000000000000000000000000000000000\n        /* \"#utility.yul\":29157:29159   */\n      0x20\n        /* \"#utility.yul\":29149:29155   */\n      dup3\n        /* \"#utility.yul\":29145:29160   */\n      add\n        /* \"#utility.yul\":29138:29174   */\n      mstore\n        /* \"#utility.yul\":28953:29181   */\n      pop\n      jump\t// out\n        /* \"#utility.yul\":29187:29418   */\n    tag_502:\n        /* \"#utility.yul\":29327:29361   */\n      0x4552433732313a20617070726f76656420717565727920666f72206e6f6e6578\n        /* \"#utility.yul\":29323:29324   */\n      0x00\n        /* \"#utility.yul\":29315:29321   */\n      dup3\n        /* \"#utility.yul\":29311:29325   */\n      add\n        /* \"#utility.yul\":29304:29362   */\n      mstore\n        /* \"#utility.yul\":29396:29410   */\n      0x697374656e7420746f6b656e0000000000000000000000000000000000000000\n        /* \"#utility.yul\":29391:29393   */\n      0x20\n        /* \"#utility.yul\":29383:29389   */\n      dup3\n        /* \"#utility.yul\":29379:29394   */\n      add\n        /* \"#utility.yul\":29372:29411   */\n      mstore\n        /* \"#utility.yul\":29187:29418   */\n      pop\n      jump\t// out\n        /* \"#utility.yul\":29424:29606   */\n    tag_507:\n        /* \"#utility.yul\":29564:29598   */\n      0x4f776e61626c653a2063616c6c6572206973206e6f7420746865206f776e6572\n        /* \"#utility.yul\":29560:29561   */\n      0x00\n        /* \"#utility.yul\":29552:29558   */\n      dup3\n        /* \"#utility.yul\":29548:29562   */\n      add\n        /* \"#utility.yul\":29541:29599   */\n      mstore\n        /* \"#utility.yul\":29424:29606   */\n      pop\n      jump\t// out\n        /* \"#utility.yul\":29612:29846   */\n    tag_512:\n        /* \"#utility.yul\":29752:29786   */\n      0x4552433732314d657461646174613a2055524920717565727920666f72206e6f\n        /* \"#utility.yul\":29748:29749   */\n      0x00\n        /* \"#utility.yul\":29740:29746   */\n      dup3\n        /* \"#utility.yul\":29736:29750   */\n      add\n        /* \"#utility.yul\":29729:29787   */\n      mstore\n        /* \"#utility.yul\":29821:29838   */\n      0x6e6578697374656e7420746f6b656e0000000000000000000000000000000000\n        /* \"#utility.yul\":29816:29818   */\n      0x20\n        /* \"#utility.yul\":29808:29814   */\n      dup3\n        /* \"#utility.yul\":29804:29819   */\n      add\n        /* \"#utility.yul\":29797:29839   */\n      mstore\n        /* \"#utility.yul\":29612:29846   */\n      pop\n      jump\t// out\n        /* \"#utility.yul\":29852:30072   */\n    tag_517:\n        /* \"#utility.yul\":29992:30026   */\n      0x4552433732313a20617070726f76616c20746f2063757272656e74206f776e65\n        /* \"#utility.yul\":29988:29989   */\n      0x00\n        /* \"#utility.yul\":29980:29986   */\n      dup3\n        /* \"#utility.yul\":29976:29990   */\n      add\n        /* \"#utility.yul\":29969:30027   */\n      mstore\n        /* \"#utility.yul\":30061:30064   */\n      0x7200000000000000000000000000000000000000000000000000000000000000\n        /* \"#utility.yul\":30056:30058   */\n      0x20\n        /* \"#utility.yul\":30048:30054   */\n      dup3\n        /* \"#utility.yul\":30044:30059   */\n      add\n        /* \"#utility.yul\":30037:30065   */\n      mstore\n        /* \"#utility.yul\":29852:30072   */\n      pop\n      jump\t// out\n        /* \"#utility.yul\":30078:30314   */\n    tag_522:\n        /* \"#utility.yul\":30218:30252   */\n      0x4552433732313a207472616e736665722063616c6c6572206973206e6f74206f\n        /* \"#utility.yul\":30214:30215   */\n      0x00\n        /* \"#utility.yul\":30206:30212   */\n      dup3\n        /* \"#utility.yul\":30202:30216   */\n      add\n        /* \"#utility.yul\":30195:30253   */\n      mstore\n        /* \"#utility.yul\":30287:30306   */\n      0x776e6572206e6f7220617070726f766564000000000000000000000000000000\n        /* \"#utility.yul\":30282:30284   */\n      0x20\n        /* \"#utility.yul\":30274:30280   */\n      dup3\n        /* \"#utility.yul\":30270:30285   */\n      add\n        /* \"#utility.yul\":30263:30307   */\n      mstore\n        /* \"#utility.yul\":30078:30314   */\n      pop\n      jump\t// out\n        /* \"#utility.yul\":30320:30442   */\n    tag_347:\n        /* \"#utility.yul\":30393:30417   */\n      tag_675\n        /* \"#utility.yul\":30411:30416   */\n      dup2\n        /* \"#utility.yul\":30393:30417   */\n      tag_424\n      jump\t// in\n    tag_675:\n        /* \"#utility.yul\":30386:30391   */\n      dup2\n        /* \"#utility.yul\":30383:30418   */\n      eq\n        /* \"#utility.yul\":30373:30436   */\n      tag_676\n      jumpi\n        /* \"#utility.yul\":30432:30433   */\n      0x00\n        /* \"#utility.yul\":30429:30430   */\n      dup1\n        /* \"#utility.yul\":30422:30434   */\n      revert\n        /* \"#utility.yul\":30373:30436   */\n    tag_676:\n        /* \"#utility.yul\":30320:30442   */\n      pop\n      jump\t// out\n        /* \"#utility.yul\":30448:30564   */\n    tag_351:\n        /* \"#utility.yul\":30518:30539   */\n      tag_678\n        /* \"#utility.yul\":30533:30538   */\n      dup2\n        /* \"#utility.yul\":30518:30539   */\n      tag_428\n      jump\t// in\n    tag_678:\n        /* \"#utility.yul\":30511:30516   */\n      dup2\n        /* \"#utility.yul\":30508:30540   */\n      eq\n        /* \"#utility.yul\":30498:30558   */\n      tag_679\n      jumpi\n        /* \"#utility.yul\":30554:30555   */\n      0x00\n        /* \"#utility.yul\":30551:30552   */\n      dup1\n        /* \"#utility.yul\":30544:30556   */\n      revert\n        /* \"#utility.yul\":30498:30558   */\n    tag_679:\n        /* \"#utility.yul\":30448:30564   */\n      pop\n      jump\t// out\n        /* \"#utility.yul\":30570:30690   */\n    tag_355:\n        /* \"#utility.yul\":30642:30665   */\n      tag_681\n        /* \"#utility.yul\":30659:30664   */\n      dup2\n        /* \"#utility.yul\":30642:30665   */\n      tag_613\n      jump\t// in\n    tag_681:\n        /* \"#utility.yul\":30635:30640   */\n      dup2\n        /* \"#utility.yul\":30632:30666   */\n      eq\n        /* \"#utility.yul\":30622:30684   */\n      tag_682\n      jumpi\n        /* \"#utility.yul\":30680:30681   */\n      0x00\n        /* \"#utility.yul\":30677:30678   */\n      dup1\n        /* \"#utility.yul\":30670:30682   */\n      revert\n        /* \"#utility.yul\":30622:30684   */\n    tag_682:\n        /* \"#utility.yul\":30570:30690   */\n      pop\n      jump\t// out\n        /* \"#utility.yul\":30696:30818   */\n    tag_368:\n        /* \"#utility.yul\":30769:30793   */\n      tag_684\n        /* \"#utility.yul\":30787:30792   */\n      dup2\n        /* \"#utility.yul\":30769:30793   */\n      tag_526\n      jump\t// in\n    tag_684:\n        /* \"#utility.yul\":30762:30767   */\n      dup2\n        /* \"#utility.yul\":30759:30794   */\n      eq\n        /* \"#utility.yul\":30749:30812   */\n      tag_685\n      jumpi\n        /* \"#utility.yul\":30808:30809   */\n      0x00\n        /* \"#utility.yul\":30805:30806   */\n      dup1\n        /* \"#utility.yul\":30798:30810   */\n      revert\n        /* \"#utility.yul\":30749:30812   */\n    tag_685:\n        /* \"#utility.yul\":30696:30818   */\n      pop\n      jump\t// out\n\n    auxdata: 0xa26469706673582212208e112514533076cf8416d59b9946082996a5e1dfac438a4354b6c3eb72b470b164736f6c63430008070033\n}\n",
				"bytecode": {
					"linkReferences": {},
					"object": "608060405260008060146101000a81548160ff0219169083151502179055503480156200002b57600080fd5b506040516200306c3803806200306c833981810160405281019062000051919062000271565b6000620000636200013b60201b60201c565b9050806000806101000a81548173ffffffffffffffffffffffffffffffffffffffff021916908373ffffffffffffffffffffffffffffffffffffffff1602179055508073ffffffffffffffffffffffffffffffffffffffff16600073ffffffffffffffffffffffffffffffffffffffff167f8be0079c531659141344cd1fd0a4f28419497f9722a3daafe3b4186f6b6457e060405160405180910390a35081600190805190602001906200011992919062000143565b5080600290805190602001906200013292919062000143565b5050506200047a565b600033905090565b82805462000151906200038b565b90600052602060002090601f016020900481019282620001755760008555620001c1565b82601f106200019057805160ff1916838001178555620001c1565b82800160010185558215620001c1579182015b82811115620001c0578251825591602001919060010190620001a3565b5b509050620001d09190620001d4565b5090565b5b80821115620001ef576000816000905550600101620001d5565b5090565b60006200020a62000204846200031f565b620002f6565b9050828152602081018484840111156200022957620002286200045a565b5b6200023684828562000355565b509392505050565b600082601f83011262000256576200025562000455565b5b815162000268848260208601620001f3565b91505092915050565b600080604083850312156200028b576200028a62000464565b5b600083015167ffffffffffffffff811115620002ac57620002ab6200045f565b5b620002ba858286016200023e565b925050602083015167ffffffffffffffff811115620002de57620002dd6200045f565b5b620002ec858286016200023e565b9150509250929050565b60006200030262000315565b9050620003108282620003c1565b919050565b6000604051905090565b600067ffffffffffffffff8211156200033d576200033c62000426565b5b620003488262000469565b9050602081019050919050565b60005b838110156200037557808201518184015260208101905062000358565b8381111562000385576000848401525b50505050565b60006002820490506001821680620003a457607f821691505b60208210811415620003bb57620003ba620003f7565b5b50919050565b620003cc8262000469565b810181811067ffffffffffffffff82111715620003ee57620003ed62000426565b5b80604052505050565b7f4e487b7100000000000000000000000000000000000000000000000000000000600052602260045260246000fd5b7f4e487b7100000000000000000000000000000000000000000000000000000000600052604160045260246000fd5b600080fd5b600080fd5b600080fd5b600080fd5b6000601f19601f8301169050919050565b612be2806200048a6000396000f3fe608060405234801561001057600080fd5b50600436106101375760003560e01c806370a08231116100b857806395d89b411161007c57806395d89b411461032c578063a22cb4651461034a578063b88d4fde14610366578063c87b56dd14610382578063e985e9c5146103b2578063f2fde38b146103e257610137565b806370a0823114610298578063715018a6146102c85780638456cb59146102d25780638da5cb5b146102f05780638f32d59b1461030e57610137565b8063313ce567116100ff578063313ce567146101f25780633f4ba83a1461021057806342842e0e1461022e5780635c975abb1461024a5780636352211e1461026857610137565b806301ffc9a71461013c57806306fdde031461016c578063081812fc1461018a578063095ea7b3146101ba57806323b872dd146101d6575b600080fd5b61015660048036038101906101519190611cf3565b6103fe565b60405161016391906120dd565b60405180910390f35b6101746104e0565b60405161018191906120f8565b60405180910390f35b6101a4600480360381019061019f9190611d4d565b610572565b6040516101b19190612076565b60405180910390f35b6101d460048036038101906101cf9190611cb3565b610610565b005b6101f060048036038101906101eb9190611b9d565b610742565b005b6101fa6107bc565b60405161020791906122f5565b60405180910390f35b6102186107c1565b60405161022591906120dd565b60405180910390f35b61024860048036038101906102439190611b9d565b610870565b005b6102526108aa565b60405161025f91906120dd565b60405180910390f35b610282600480360381019061027d9190611d4d565b6108bd565b60405161028f9190612076565b60405180910390f35b6102b260048036038101906102ad9190611b30565b61096f565b6040516102bf91906122da565b60405180910390f35b6102d0610a27565b005b6102da610b2c565b6040516102e791906120dd565b60405180910390f35b6102f8610bdd565b6040516103059190612076565b60405180910390f35b610316610c06565b60405161032391906120dd565b60405180910390f35b610334610c64565b60405161034191906120f8565b60405180910390f35b610364600480360381019061035f9190611c73565b610cf6565b005b610380600480360381019061037b9190611bf0565b610d26565b005b61039c60048036038101906103979190611d4d565b610da2565b6040516103a991906120f8565b60405180910390f35b6103cc60048036038101906103c79190611b5d565b610e49565b6040516103d991906120dd565b60405180910390f35b6103fc60048036038101906103f79190611b30565b610ef6565b005b60007f80ac58cd000000000000000000000000000000000000000000000000000000007bffffffffffffffffffffffffffffffffffffffffffffffffffffffff1916827bffffffffffffffffffffffffffffffffffffffffffffffffffffffff191614806104c957507f5b5e139f000000000000000000000000000000000000000000000000000000007bffffffffffffffffffffffffffffffffffffffffffffffffffffffff1916827bffffffffffffffffffffffffffffffffffffffffffffffffffffffff1916145b806104d957506104d882610f49565b5b9050919050565b6060600180546104ef9061255d565b80601f016020809104026020016040519081016040528092919081815260200182805461051b9061255d565b80156105685780601f1061053d57610100808354040283529160200191610568565b820191906000526020600020905b81548152906001019060200180831161054b57829003601f168201915b5050505050905090565b60008060149054906101000a900460ff161561058d57600080fd5b61059682610fb3565b6105d5576040517f08c379a00000000000000000000000000000000000000000000000000000000081526004016105cc9061223a565b60405180910390fd5b6005600083815260200190815260200160002060009054906101000a900473ffffffffffffffffffffffffffffffffffffffff169050919050565b600060149054906101000a900460ff161561062a57600080fd5b6000610635826108bd565b90508073ffffffffffffffffffffffffffffffffffffffff168373ffffffffffffffffffffffffffffffffffffffff1614156106a6576040517f08c379a000000000000000000000000000000000000000000000000000000000815260040161069d9061229a565b60405180910390fd5b8073ffffffffffffffffffffffffffffffffffffffff166106c561101f565b73ffffffffffffffffffffffffffffffffffffffff1614806106f457506106f3816106ee61101f565b610e49565b5b610733576040517f08c379a000000000000000000000000000000000000000000000000000000000815260040161072a906121da565b60405180910390fd5b61073d8383611027565b505050565b600060149054906101000a900460ff161561075c57600080fd5b61076d61076761101f565b826110e0565b6107ac576040517f08c379a00000000000000000000000000000000000000000000000000000000081526004016107a3906122ba565b60405180910390fd5b6107b78383836111be565b505050565b600090565b60006107cb610c06565b61080a576040517f08c379a00000000000000000000000000000000000000000000000000000000081526004016108019061225a565b60405180910390fd5b600060149054906101000a900460ff1661082357600080fd5b60008060146101000a81548160ff0219169083151502179055507f7805862f689e2f13df9f062ff482ad3ad112aca9e0847911ed832e158c525b3360405160405180910390a16001905090565b600060149054906101000a900460ff161561088a57600080fd5b6108a583838360405180602001604052806000815250610d26565b505050565b600060149054906101000a900460ff1681565b6000806003600084815260200190815260200160002060009054906101000a900473ffffffffffffffffffffffffffffffffffffffff169050600073ffffffffffffffffffffffffffffffffffffffff168173ffffffffffffffffffffffffffffffffffffffff161415610966576040517f08c379a000000000000000000000000000000000000000000000000000000000815260040161095d9061221a565b60405180910390fd5b80915050919050565b60008073ffffffffffffffffffffffffffffffffffffffff168273ffffffffffffffffffffffffffffffffffffffff1614156109e0576040517f08c379a00000000000000000000000000000000000000000000000000000000081526004016109d7906121fa565b60405180910390fd5b600460008373ffffffffffffffffffffffffffffffffffffffff1673ffffffffffffffffffffffffffffffffffffffff168152602001908152602001600020549050919050565b610a2f610c06565b610a6e576040517f08c379a0000000000000000000000000000000000000000000000000000000008152600401610a659061225a565b60405180910390fd5b600073ffffffffffffffffffffffffffffffffffffffff1660008054906101000a900473ffffffffffffffffffffffffffffffffffffffff1673ffffffffffffffffffffffffffffffffffffffff167f8be0079c531659141344cd1fd0a4f28419497f9722a3daafe3b4186f6b6457e060405160405180910390a360008060006101000a81548173ffffffffffffffffffffffffffffffffffffffff021916908373ffffffffffffffffffffffffffffffffffffffff160217905550565b6000610b36610c06565b610b75576040517f08c379a0000000000000000000000000000000000000000000000000000000008152600401610b6c9061225a565b60405180910390fd5b600060149054906101000a900460ff1615610b8f57600080fd5b6001600060146101000a81548160ff0219169083151502179055507f6985a02210a168e66602d3235cb6db0e70f92b3ba4d376a33c0f3d9434bff62560405160405180910390a16001905090565b60008060009054906101000a900473ffffffffffffffffffffffffffffffffffffffff16905090565b60008060009054906101000a900473ffffffffffffffffffffffffffffffffffffffff1673ffffffffffffffffffffffffffffffffffffffff16610c4861101f565b73ffffffffffffffffffffffffffffffffffffffff1614905090565b606060028054610c739061255d565b80601f0160208091040260200160405190810160405280929190818152602001828054610c9f9061255d565b8015610cec5780601f10610cc157610100808354040283529160200191610cec565b820191906000526020600020905b815481529060010190602001808311610ccf57829003601f168201915b5050505050905090565b600060149054906101000a900460ff1615610d1057600080fd5b610d22610d1b61101f565b8383611425565b5050565b600060149054906101000a900460ff1615610d4057600080fd5b610d51610d4b61101f565b836110e0565b610d90576040517f08c379a0000000000000000000000000000000000000000000000000000000008152600401610d87906122ba565b60405180910390fd5b610d9c84848484611592565b50505050565b6060610dad82610fb3565b610dec576040517f08c379a0000000000000000000000000000000000000000000000000000000008152600401610de39061227a565b60405180910390fd5b6000610df66115ee565b90506000815111610e165760405180602001604052806000815250610e41565b80610e2084611605565b604051602001610e31929190612052565b6040516020818303038152906040525b915050919050565b60008060149054906101000a900460ff1615610e6457600080fd5b600660008473ffffffffffffffffffffffffffffffffffffffff1673ffffffffffffffffffffffffffffffffffffffff16815260200190815260200160002060008373ffffffffffffffffffffffffffffffffffffffff1673ffffffffffffffffffffffffffffffffffffffff16815260200190815260200160002060009054906101000a900460ff16905092915050565b610efe610c06565b610f3d576040517f08c379a0000000000000000000000000000000000000000000000000000000008152600401610f349061225a565b60405180910390fd5b610f4681611766565b50565b60007f01ffc9a7000000000000000000000000000000000000000000000000000000007bffffffffffffffffffffffffffffffffffffffffffffffffffffffff1916827bffffffffffffffffffffffffffffffffffffffffffffffffffffffff1916149050919050565b60008073ffffffffffffffffffffffffffffffffffffffff166003600084815260200190815260200160002060009054906101000a900473ffffffffffffffffffffffffffffffffffffffff1673ffffffffffffffffffffffffffffffffffffffff1614159050919050565b600033905090565b816005600083815260200190815260200160002060006101000a81548173ffffffffffffffffffffffffffffffffffffffff021916908373ffffffffffffffffffffffffffffffffffffffff160217905550808273ffffffffffffffffffffffffffffffffffffffff1661109a836108bd565b73ffffffffffffffffffffffffffffffffffffffff167f8c5be1e5ebec7d5bd14f71427d1e84f3dd0314c0f7b2291e5b200ac8c7c3b92560405160405180910390a45050565b60006110eb82610fb3565b61112a576040517f08c379a0000000000000000000000000000000000000000000000000000000008152600401611121906121ba565b60405180910390fd5b6000611135836108bd565b90508073ffffffffffffffffffffffffffffffffffffffff168473ffffffffffffffffffffffffffffffffffffffff1614806111a457508373ffffffffffffffffffffffffffffffffffffffff1661118c84610572565b73ffffffffffffffffffffffffffffffffffffffff16145b806111b557506111b48185610e49565b5b91505092915050565b8273ffffffffffffffffffffffffffffffffffffffff166111de826108bd565b73ffffffffffffffffffffffffffffffffffffffff1614611234576040517f08c379a000000000000000000000000000000000000000000000000000000000815260040161122b9061215a565b60405180910390fd5b600073ffffffffffffffffffffffffffffffffffffffff168273ffffffffffffffffffffffffffffffffffffffff1614156112a4576040517f08c379a000000000000000000000000000000000000000000000000000000000815260040161129b9061217a565b60405180910390fd5b6112af838383611893565b6112ba600082611027565b6001600460008573ffffffffffffffffffffffffffffffffffffffff1673ffffffffffffffffffffffffffffffffffffffff168152602001908152602001600020600082825461130a9190612430565b925050819055506001600460008473ffffffffffffffffffffffffffffffffffffffff1673ffffffffffffffffffffffffffffffffffffffff168152602001908152602001600020600082825461136191906123a9565b92505081905550816003600083815260200190815260200160002060006101000a81548173ffffffffffffffffffffffffffffffffffffffff021916908373ffffffffffffffffffffffffffffffffffffffff160217905550808273ffffffffffffffffffffffffffffffffffffffff168473ffffffffffffffffffffffffffffffffffffffff167fddf252ad1be2c89b69c2b068fc378daa952ba7f163c4a11628f55a4df523b3ef60405160405180910390a4611420838383611898565b505050565b8173ffffffffffffffffffffffffffffffffffffffff168373ffffffffffffffffffffffffffffffffffffffff161415611494576040517f08c379a000000000000000000000000000000000000000000000000000000000815260040161148b9061219a565b60405180910390fd5b80600660008573ffffffffffffffffffffffffffffffffffffffff1673ffffffffffffffffffffffffffffffffffffffff16815260200190815260200160002060008473ffffffffffffffffffffffffffffffffffffffff1673ffffffffffffffffffffffffffffffffffffffff16815260200190815260200160002060006101000a81548160ff0219169083151502179055508173ffffffffffffffffffffffffffffffffffffffff168373ffffffffffffffffffffffffffffffffffffffff167f17307eab39ab6107e8899845ad3d59bd9653f200f220920489ca2b5937696c318360405161158591906120dd565b60405180910390a3505050565b61159d8484846111be565b6115a98484848461189d565b6115e8576040517f08c379a00000000000000000000000000000000000000000000000000000000081526004016115df9061211a565b60405180910390fd5b50505050565b606060405180602001604052806000815250905090565b6060600082141561164d576040518060400160405280600181526020017f30000000000000000000000000000000000000000000000000000000000000008152509050611761565b600082905060005b6000821461167f578080611668906125c0565b915050600a8261167891906123ff565b9150611655565b60008167ffffffffffffffff81111561169b5761169a6126f6565b5b6040519080825280601f01601f1916602001820160405280156116cd5781602001600182028036833780820191505090505b5090505b6000851461175a576001826116e69190612430565b9150600a856116f59190612609565b603061170191906123a9565b60f81b818381518110611717576117166126c7565b5b60200101907effffffffffffffffffffffffffffffffffffffffffffffffffffffffffffff1916908160001a905350600a8561175391906123ff565b94506116d1565b8093505050505b919050565b600073ffffffffffffffffffffffffffffffffffffffff168173ffffffffffffffffffffffffffffffffffffffff1614156117d6576040517f08c379a00000000000000000000000000000000000000000000000000000000081526004016117cd9061213a565b60405180910390fd5b8073ffffffffffffffffffffffffffffffffffffffff1660008054906101000a900473ffffffffffffffffffffffffffffffffffffffff1673ffffffffffffffffffffffffffffffffffffffff167f8be0079c531659141344cd1fd0a4f28419497f9722a3daafe3b4186f6b6457e060405160405180910390a3806000806101000a81548173ffffffffffffffffffffffffffffffffffffffff021916908373ffffffffffffffffffffffffffffffffffffffff16021790555050565b505050565b505050565b60006118be8473ffffffffffffffffffffffffffffffffffffffff16611a34565b15611a27578373ffffffffffffffffffffffffffffffffffffffff1663150b7a026118e761101f565b8786866040518563ffffffff1660e01b81526004016119099493929190612091565b602060405180830381600087803b15801561192357600080fd5b505af192505050801561195457506040513d601f19601f820116820180604052508101906119519190611d20565b60015b6119d7573d8060008114611984576040519150601f19603f3d011682016040523d82523d6000602084013e611989565b606091505b506000815114156119cf576040517f08c379a00000000000000000000000000000000000000000000000000000000081526004016119c69061211a565b60405180910390fd5b805181602001fd5b63150b7a0260e01b7bffffffffffffffffffffffffffffffffffffffffffffffffffffffff1916817bffffffffffffffffffffffffffffffffffffffffffffffffffffffff191614915050611a2c565b600190505b949350505050565b6000808273ffffffffffffffffffffffffffffffffffffffff163b119050919050565b6000611a6a611a6584612335565b612310565b905082815260208101848484011115611a8657611a8561272a565b5b611a9184828561251b565b509392505050565b600081359050611aa881612b50565b92915050565b600081359050611abd81612b67565b92915050565b600081359050611ad281612b7e565b92915050565b600081519050611ae781612b7e565b92915050565b600082601f830112611b0257611b01612725565b5b8135611b12848260208601611a57565b91505092915050565b600081359050611b2a81612b95565b92915050565b600060208284031215611b4657611b45612734565b5b6000611b5484828501611a99565b91505092915050565b60008060408385031215611b7457611b73612734565b5b6000611b8285828601611a99565b9250506020611b9385828601611a99565b9150509250929050565b600080600060608486031215611bb657611bb5612734565b5b6000611bc486828701611a99565b9350506020611bd586828701611a99565b9250506040611be686828701611b1b565b9150509250925092565b60008060008060808587031215611c0a57611c09612734565b5b6000611c1887828801611a99565b9450506020611c2987828801611a99565b9350506040611c3a87828801611b1b565b925050606085013567ffffffffffffffff811115611c5b57611c5a61272f565b5b611c6787828801611aed565b91505092959194509250565b60008060408385031215611c8a57611c89612734565b5b6000611c9885828601611a99565b9250506020611ca985828601611aae565b9150509250929050565b60008060408385031215611cca57611cc9612734565b5b6000611cd885828601611a99565b9250506020611ce985828601611b1b565b9150509250929050565b600060208284031215611d0957611d08612734565b5b6000611d1784828501611ac3565b91505092915050565b600060208284031215611d3657611d35612734565b5b6000611d4484828501611ad8565b91505092915050565b600060208284031215611d6357611d62612734565b5b6000611d7184828501611b1b565b91505092915050565b611d83816124e5565b82525050565b611d9281612464565b82525050565b611da181612476565b82525050565b6000611db282612366565b611dbc818561237c565b9350611dcc81856020860161252a565b611dd581612739565b840191505092915050565b6000611deb82612371565b611df5818561238d565b9350611e0581856020860161252a565b611e0e81612739565b840191505092915050565b6000611e2482612371565b611e2e818561239e565b9350611e3e81856020860161252a565b80840191505092915050565b6000611e5760328361238d565b9150611e628261274a565b604082019050919050565b6000611e7a60268361238d565b9150611e8582612799565b604082019050919050565b6000611e9d60258361238d565b9150611ea8826127e8565b604082019050919050565b6000611ec060248361238d565b9150611ecb82612837565b604082019050919050565b6000611ee360198361238d565b9150611eee82612886565b602082019050919050565b6000611f06602c8361238d565b9150611f11826128af565b604082019050919050565b6000611f2960388361238d565b9150611f34826128fe565b604082019050919050565b6000611f4c602a8361238d565b9150611f578261294d565b604082019050919050565b6000611f6f60298361238d565b9150611f7a8261299c565b604082019050919050565b6000611f92602c8361238d565b9150611f9d826129eb565b604082019050919050565b6000611fb560208361238d565b9150611fc082612a3a565b602082019050919050565b6000611fd8602f8361238d565b9150611fe382612a63565b604082019050919050565b6000611ffb60218361238d565b915061200682612ab2565b604082019050919050565b600061201e60318361238d565b915061202982612b01565b604082019050919050565b61203d816124ce565b82525050565b61204c816124d8565b82525050565b600061205e8285611e19565b915061206a8284611e19565b91508190509392505050565b600060208201905061208b6000830184611d89565b92915050565b60006080820190506120a66000830187611d7a565b6120b36020830186611d89565b6120c06040830185612034565b81810360608301526120d28184611da7565b905095945050505050565b60006020820190506120f26000830184611d98565b92915050565b600060208201905081810360008301526121128184611de0565b905092915050565b6000602082019050818103600083015261213381611e4a565b9050919050565b6000602082019050818103600083015261215381611e6d565b9050919050565b6000602082019050818103600083015261217381611e90565b9050919050565b6000602082019050818103600083015261219381611eb3565b9050919050565b600060208201905081810360008301526121b381611ed6565b9050919050565b600060208201905081810360008301526121d381611ef9565b9050919050565b600060208201905081810360008301526121f381611f1c565b9050919050565b6000602082019050818103600083015261221381611f3f565b9050919050565b6000602082019050818103600083015261223381611f62565b9050919050565b6000602082019050818103600083015261225381611f85565b9050919050565b6000602082019050818103600083015261227381611fa8565b9050919050565b6000602082019050818103600083015261229381611fcb565b9050919050565b600060208201905081810360008301526122b381611fee565b9050919050565b600060208201905081810360008301526122d381612011565b9050919050565b60006020820190506122ef6000830184612034565b92915050565b600060208201905061230a6000830184612043565b92915050565b600061231a61232b565b9050612326828261258f565b919050565b6000604051905090565b600067ffffffffffffffff8211156123505761234f6126f6565b5b61235982612739565b9050602081019050919050565b600081519050919050565b600081519050919050565b600082825260208201905092915050565b600082825260208201905092915050565b600081905092915050565b60006123b4826124ce565b91506123bf836124ce565b9250827fffffffffffffffffffffffffffffffffffffffffffffffffffffffffffffffff038211156123f4576123f361263a565b5b828201905092915050565b600061240a826124ce565b9150612415836124ce565b92508261242557612424612669565b5b828204905092915050565b600061243b826124ce565b9150612446836124ce565b9250828210156124595761245861263a565b5b828203905092915050565b600061246f826124ae565b9050919050565b60008115159050919050565b60007fffffffff0000000000000000000000000000000000000000000000000000000082169050919050565b600073ffffffffffffffffffffffffffffffffffffffff82169050919050565b6000819050919050565b600060ff82169050919050565b60006124f0826124f7565b9050919050565b600061250282612509565b9050919050565b6000612514826124ae565b9050919050565b82818337600083830152505050565b60005b8381101561254857808201518184015260208101905061252d565b83811115612557576000848401525b50505050565b6000600282049050600182168061257557607f821691505b6020821081141561258957612588612698565b5b50919050565b61259882612739565b810181811067ffffffffffffffff821117156125b7576125b66126f6565b5b80604052505050565b60006125cb826124ce565b91507fffffffffffffffffffffffffffffffffffffffffffffffffffffffffffffffff8214156125fe576125fd61263a565b5b600182019050919050565b6000612614826124ce565b915061261f836124ce565b92508261262f5761262e612669565b5b828206905092915050565b7f4e487b7100000000000000000000000000000000000000000000000000000000600052601160045260246000fd5b7f4e487b7100000000000000000000000000000000000000000000000000000000600052601260045260246000fd5b7f4e487b7100000000000000000000000000000000000000000000000000000000600052602260045260246000fd5b7f4e487b7100000000000000000000000000000000000000000000000000000000600052603260045260246000fd5b7f4e487b7100000000000000000000000000000000000000000000000000000000600052604160045260246000fd5b600080fd5b600080fd5b600080fd5b600080fd5b6000601f19601f8301169050919050565b7f4552433732313a207472616e7366657220746f206e6f6e20455243373231526560008201527f63656976657220696d706c656d656e7465720000000000000000000000000000602082015250565b7f4f776e61626c653a206e6577206f776e657220697320746865207a65726f206160008201527f6464726573730000000000000000000000000000000000000000000000000000602082015250565b7f4552433732313a207472616e736665722066726f6d20696e636f72726563742060008201527f6f776e6572000000000000000000000000000000000000000000000000000000602082015250565b7f4552433732313a207472616e7366657220746f20746865207a65726f2061646460008201527f7265737300000000000000000000000000000000000000000000000000000000602082015250565b7f4552433732313a20617070726f766520746f2063616c6c657200000000000000600082015250565b7f4552433732313a206f70657261746f7220717565727920666f72206e6f6e657860008201527f697374656e7420746f6b656e0000000000000000000000000000000000000000602082015250565b7f4552433732313a20617070726f76652063616c6c6572206973206e6f74206f7760008201527f6e6572206e6f7220617070726f76656420666f7220616c6c0000000000000000602082015250565b7f4552433732313a2062616c616e636520717565727920666f7220746865207a6560008201527f726f206164647265737300000000000000000000000000000000000000000000602082015250565b7f4552433732313a206f776e657220717565727920666f72206e6f6e657869737460008201527f656e7420746f6b656e0000000000000000000000000000000000000000000000602082015250565b7f4552433732313a20617070726f76656420717565727920666f72206e6f6e657860008201527f697374656e7420746f6b656e0000000000000000000000000000000000000000602082015250565b7f4f776e61626c653a2063616c6c6572206973206e6f7420746865206f776e6572600082015250565b7f4552433732314d657461646174613a2055524920717565727920666f72206e6f60008201527f6e6578697374656e7420746f6b656e0000000000000000000000000000000000602082015250565b7f4552433732313a20617070726f76616c20746f2063757272656e74206f776e6560008201527f7200000000000000000000000000000000000000000000000000000000000000602082015250565b7f4552433732313a207472616e736665722063616c6c6572206973206e6f74206f60008201527f776e6572206e6f7220617070726f766564000000000000000000000000000000602082015250565b612b5981612464565b8114612b6457600080fd5b50565b612b7081612476565b8114612b7b57600080fd5b50565b612b8781612482565b8114612b9257600080fd5b50565b612b9e816124ce565b8114612ba957600080fd5b5056fea26469706673582212208e112514533076cf8416d59b9946082996a5e1dfac438a4354b6c3eb72b470b164736f6c63430008070033",
					"opcodes": "PUSH1 0x80 PUSH1 0x40 MSTORE PUSH1 0x0 DUP1 PUSH1 0x14 PUSH2 0x100 EXP DUP2 SLOAD DUP2 PUSH1 0xFF MUL NOT AND SWAP1 DUP4 ISZERO ISZERO MUL OR SWAP1 SSTORE POP CALLVALUE DUP1 ISZERO PUSH3 0x2B JUMPI PUSH1 0x0 DUP1 REVERT JUMPDEST POP PUSH1 0x40 MLOAD PUSH3 0x306C CODESIZE SUB DUP1 PUSH3 0x306C DUP4 CODECOPY DUP2 DUP2 ADD PUSH1 0x40 MSTORE DUP2 ADD SWAP1 PUSH3 0x51 SWAP2 SWAP1 PUSH3 0x271 JUMP JUMPDEST PUSH1 0x0 PUSH3 0x63 PUSH3 0x13B PUSH1 0x20 SHL PUSH1 0x20 SHR JUMP JUMPDEST SWAP1 POP DUP1 PUSH1 0x0 DUP1 PUSH2 0x100 EXP DUP2 SLOAD DUP2 PUSH20 0xFFFFFFFFFFFFFFFFFFFFFFFFFFFFFFFFFFFFFFFF MUL NOT AND SWAP1 DUP4 PUSH20 0xFFFFFFFFFFFFFFFFFFFFFFFFFFFFFFFFFFFFFFFF AND MUL OR SWAP1 SSTORE POP DUP1 PUSH20 0xFFFFFFFFFFFFFFFFFFFFFFFFFFFFFFFFFFFFFFFF AND PUSH1 0x0 PUSH20 0xFFFFFFFFFFFFFFFFFFFFFFFFFFFFFFFFFFFFFFFF AND PUSH32 0x8BE0079C531659141344CD1FD0A4F28419497F9722A3DAAFE3B4186F6B6457E0 PUSH1 0x40 MLOAD PUSH1 0x40 MLOAD DUP1 SWAP2 SUB SWAP1 LOG3 POP DUP2 PUSH1 0x1 SWAP1 DUP1 MLOAD SWAP1 PUSH1 0x20 ADD SWAP1 PUSH3 0x119 SWAP3 SWAP2 SWAP1 PUSH3 0x143 JUMP JUMPDEST POP DUP1 PUSH1 0x2 SWAP1 DUP1 MLOAD SWAP1 PUSH1 0x20 ADD SWAP1 PUSH3 0x132 SWAP3 SWAP2 SWAP1 PUSH3 0x143 JUMP JUMPDEST POP POP POP PUSH3 0x47A JUMP JUMPDEST PUSH1 0x0 CALLER SWAP1 POP SWAP1 JUMP JUMPDEST DUP3 DUP1 SLOAD PUSH3 0x151 SWAP1 PUSH3 0x38B JUMP JUMPDEST SWAP1 PUSH1 0x0 MSTORE PUSH1 0x20 PUSH1 0x0 KECCAK256 SWAP1 PUSH1 0x1F ADD PUSH1 0x20 SWAP1 DIV DUP2 ADD SWAP3 DUP3 PUSH3 0x175 JUMPI PUSH1 0x0 DUP6 SSTORE PUSH3 0x1C1 JUMP JUMPDEST DUP3 PUSH1 0x1F LT PUSH3 0x190 JUMPI DUP1 MLOAD PUSH1 0xFF NOT AND DUP4 DUP1 ADD OR DUP6 SSTORE PUSH3 0x1C1 JUMP JUMPDEST DUP3 DUP1 ADD PUSH1 0x1 ADD DUP6 SSTORE DUP3 ISZERO PUSH3 0x1C1 JUMPI SWAP2 DUP3 ADD JUMPDEST DUP3 DUP2 GT ISZERO PUSH3 0x1C0 JUMPI DUP3 MLOAD DUP3 SSTORE SWAP2 PUSH1 0x20 ADD SWAP2 SWAP1 PUSH1 0x1 ADD SWAP1 PUSH3 0x1A3 JUMP JUMPDEST JUMPDEST POP SWAP1 POP PUSH3 0x1D0 SWAP2 SWAP1 PUSH3 0x1D4 JUMP JUMPDEST POP SWAP1 JUMP JUMPDEST JUMPDEST DUP1 DUP3 GT ISZERO PUSH3 0x1EF JUMPI PUSH1 0x0 DUP2 PUSH1 0x0 SWAP1 SSTORE POP PUSH1 0x1 ADD PUSH3 0x1D5 JUMP JUMPDEST POP SWAP1 JUMP JUMPDEST PUSH1 0x0 PUSH3 0x20A PUSH3 0x204 DUP5 PUSH3 0x31F JUMP JUMPDEST PUSH3 0x2F6 JUMP JUMPDEST SWAP1 POP DUP3 DUP2 MSTORE PUSH1 0x20 DUP2 ADD DUP5 DUP5 DUP5 ADD GT ISZERO PUSH3 0x229 JUMPI PUSH3 0x228 PUSH3 0x45A JUMP JUMPDEST JUMPDEST PUSH3 0x236 DUP5 DUP3 DUP6 PUSH3 0x355 JUMP JUMPDEST POP SWAP4 SWAP3 POP POP POP JUMP JUMPDEST PUSH1 0x0 DUP3 PUSH1 0x1F DUP4 ADD SLT PUSH3 0x256 JUMPI PUSH3 0x255 PUSH3 0x455 JUMP JUMPDEST JUMPDEST DUP2 MLOAD PUSH3 0x268 DUP5 DUP3 PUSH1 0x20 DUP7 ADD PUSH3 0x1F3 JUMP JUMPDEST SWAP2 POP POP SWAP3 SWAP2 POP POP JUMP JUMPDEST PUSH1 0x0 DUP1 PUSH1 0x40 DUP4 DUP6 SUB SLT ISZERO PUSH3 0x28B JUMPI PUSH3 0x28A PUSH3 0x464 JUMP JUMPDEST JUMPDEST PUSH1 0x0 DUP4 ADD MLOAD PUSH8 0xFFFFFFFFFFFFFFFF DUP2 GT ISZERO PUSH3 0x2AC JUMPI PUSH3 0x2AB PUSH3 0x45F JUMP JUMPDEST JUMPDEST PUSH3 0x2BA DUP6 DUP3 DUP7 ADD PUSH3 0x23E JUMP JUMPDEST SWAP3 POP POP PUSH1 0x20 DUP4 ADD MLOAD PUSH8 0xFFFFFFFFFFFFFFFF DUP2 GT ISZERO PUSH3 0x2DE JUMPI PUSH3 0x2DD PUSH3 0x45F JUMP JUMPDEST JUMPDEST PUSH3 0x2EC DUP6 DUP3 DUP7 ADD PUSH3 0x23E JUMP JUMPDEST SWAP2 POP POP SWAP3 POP SWAP3 SWAP1 POP JUMP JUMPDEST PUSH1 0x0 PUSH3 0x302 PUSH3 0x315 JUMP JUMPDEST SWAP1 POP PUSH3 0x310 DUP3 DUP3 PUSH3 0x3C1 JUMP JUMPDEST SWAP2 SWAP1 POP JUMP JUMPDEST PUSH1 0x0 PUSH1 0x40 MLOAD SWAP1 POP SWAP1 JUMP JUMPDEST PUSH1 0x0 PUSH8 0xFFFFFFFFFFFFFFFF DUP3 GT ISZERO PUSH3 0x33D JUMPI PUSH3 0x33C PUSH3 0x426 JUMP JUMPDEST JUMPDEST PUSH3 0x348 DUP3 PUSH3 0x469 JUMP JUMPDEST SWAP1 POP PUSH1 0x20 DUP2 ADD SWAP1 POP SWAP2 SWAP1 POP JUMP JUMPDEST PUSH1 0x0 JUMPDEST DUP4 DUP2 LT ISZERO PUSH3 0x375 JUMPI DUP1 DUP3 ADD MLOAD DUP2 DUP5 ADD MSTORE PUSH1 0x20 DUP2 ADD SWAP1 POP PUSH3 0x358 JUMP JUMPDEST DUP4 DUP2 GT ISZERO PUSH3 0x385 JUMPI PUSH1 0x0 DUP5 DUP5 ADD MSTORE JUMPDEST POP POP POP POP JUMP JUMPDEST PUSH1 0x0 PUSH1 0x2 DUP3 DIV SWAP1 POP PUSH1 0x1 DUP3 AND DUP1 PUSH3 0x3A4 JUMPI PUSH1 0x7F DUP3 AND SWAP2 POP JUMPDEST PUSH1 0x20 DUP3 LT DUP2 EQ ISZERO PUSH3 0x3BB JUMPI PUSH3 0x3BA PUSH3 0x3F7 JUMP JUMPDEST JUMPDEST POP SWAP2 SWAP1 POP JUMP JUMPDEST PUSH3 0x3CC DUP3 PUSH3 0x469 JUMP JUMPDEST DUP2 ADD DUP2 DUP2 LT PUSH8 0xFFFFFFFFFFFFFFFF DUP3 GT OR ISZERO PUSH3 0x3EE JUMPI PUSH3 0x3ED PUSH3 0x426 JUMP JUMPDEST JUMPDEST DUP1 PUSH1 0x40 MSTORE POP POP POP JUMP JUMPDEST PUSH32 0x4E487B7100000000000000000000000000000000000000000000000000000000 PUSH1 0x0 MSTORE PUSH1 0x22 PUSH1 0x4 MSTORE PUSH1 0x24 PUSH1 0x0 REVERT JUMPDEST PUSH32 0x4E487B7100000000000000000000000000000000000000000000000000000000 PUSH1 0x0 MSTORE PUSH1 0x41 PUSH1 0x4 MSTORE PUSH1 0x24 PUSH1 0x0 REVERT JUMPDEST PUSH1 0x0 DUP1 REVERT JUMPDEST PUSH1 0x0 DUP1 REVERT JUMPDEST PUSH1 0x0 DUP1 REVERT JUMPDEST PUSH1 0x0 DUP1 REVERT JUMPDEST PUSH1 0x0 PUSH1 0x1F NOT PUSH1 0x1F DUP4 ADD AND SWAP1 POP SWAP2 SWAP1 POP JUMP JUMPDEST PUSH2 0x2BE2 DUP1 PUSH3 0x48A PUSH1 0x0 CODECOPY PUSH1 0x0 RETURN INVALID PUSH1 0x80 PUSH1 0x40 MSTORE CALLVALUE DUP1 ISZERO PUSH2 0x10 JUMPI PUSH1 0x0 DUP1 REVERT JUMPDEST POP PUSH1 0x4 CALLDATASIZE LT PUSH2 0x137 JUMPI PUSH1 0x0 CALLDATALOAD PUSH1 0xE0 SHR DUP1 PUSH4 0x70A08231 GT PUSH2 0xB8 JUMPI DUP1 PUSH4 0x95D89B41 GT PUSH2 0x7C JUMPI DUP1 PUSH4 0x95D89B41 EQ PUSH2 0x32C JUMPI DUP1 PUSH4 0xA22CB465 EQ PUSH2 0x34A JUMPI DUP1 PUSH4 0xB88D4FDE EQ PUSH2 0x366 JUMPI DUP1 PUSH4 0xC87B56DD EQ PUSH2 0x382 JUMPI DUP1 PUSH4 0xE985E9C5 EQ PUSH2 0x3B2 JUMPI DUP1 PUSH4 0xF2FDE38B EQ PUSH2 0x3E2 JUMPI PUSH2 0x137 JUMP JUMPDEST DUP1 PUSH4 0x70A08231 EQ PUSH2 0x298 JUMPI DUP1 PUSH4 0x715018A6 EQ PUSH2 0x2C8 JUMPI DUP1 PUSH4 0x8456CB59 EQ PUSH2 0x2D2 JUMPI DUP1 PUSH4 0x8DA5CB5B EQ PUSH2 0x2F0 JUMPI DUP1 PUSH4 0x8F32D59B EQ PUSH2 0x30E JUMPI PUSH2 0x137 JUMP JUMPDEST DUP1 PUSH4 0x313CE567 GT PUSH2 0xFF JUMPI DUP1 PUSH4 0x313CE567 EQ PUSH2 0x1F2 JUMPI DUP1 PUSH4 0x3F4BA83A EQ PUSH2 0x210 JUMPI DUP1 PUSH4 0x42842E0E EQ PUSH2 0x22E JUMPI DUP1 PUSH4 0x5C975ABB EQ PUSH2 0x24A JUMPI DUP1 PUSH4 0x6352211E EQ PUSH2 0x268 JUMPI PUSH2 0x137 JUMP JUMPDEST DUP1 PUSH4 0x1FFC9A7 EQ PUSH2 0x13C JUMPI DUP1 PUSH4 0x6FDDE03 EQ PUSH2 0x16C JUMPI DUP1 PUSH4 0x81812FC EQ PUSH2 0x18A JUMPI DUP1 PUSH4 0x95EA7B3 EQ PUSH2 0x1BA JUMPI DUP1 PUSH4 0x23B872DD EQ PUSH2 0x1D6 JUMPI JUMPDEST PUSH1 0x0 DUP1 REVERT JUMPDEST PUSH2 0x156 PUSH1 0x4 DUP1 CALLDATASIZE SUB DUP2 ADD SWAP1 PUSH2 0x151 SWAP2 SWAP1 PUSH2 0x1CF3 JUMP JUMPDEST PUSH2 0x3FE JUMP JUMPDEST PUSH1 0x40 MLOAD PUSH2 0x163 SWAP2 SWAP1 PUSH2 0x20DD JUMP JUMPDEST PUSH1 0x40 MLOAD DUP1 SWAP2 SUB SWAP1 RETURN JUMPDEST PUSH2 0x174 PUSH2 0x4E0 JUMP JUMPDEST PUSH1 0x40 MLOAD PUSH2 0x181 SWAP2 SWAP1 PUSH2 0x20F8 JUMP JUMPDEST PUSH1 0x40 MLOAD DUP1 SWAP2 SUB SWAP1 RETURN JUMPDEST PUSH2 0x1A4 PUSH1 0x4 DUP1 CALLDATASIZE SUB DUP2 ADD SWAP1 PUSH2 0x19F SWAP2 SWAP1 PUSH2 0x1D4D JUMP JUMPDEST PUSH2 0x572 JUMP JUMPDEST PUSH1 0x40 MLOAD PUSH2 0x1B1 SWAP2 SWAP1 PUSH2 0x2076 JUMP JUMPDEST PUSH1 0x40 MLOAD DUP1 SWAP2 SUB SWAP1 RETURN JUMPDEST PUSH2 0x1D4 PUSH1 0x4 DUP1 CALLDATASIZE SUB DUP2 ADD SWAP1 PUSH2 0x1CF SWAP2 SWAP1 PUSH2 0x1CB3 JUMP JUMPDEST PUSH2 0x610 JUMP JUMPDEST STOP JUMPDEST PUSH2 0x1F0 PUSH1 0x4 DUP1 CALLDATASIZE SUB DUP2 ADD SWAP1 PUSH2 0x1EB SWAP2 SWAP1 PUSH2 0x1B9D JUMP JUMPDEST PUSH2 0x742 JUMP JUMPDEST STOP JUMPDEST PUSH2 0x1FA PUSH2 0x7BC JUMP JUMPDEST PUSH1 0x40 MLOAD PUSH2 0x207 SWAP2 SWAP1 PUSH2 0x22F5 JUMP JUMPDEST PUSH1 0x40 MLOAD DUP1 SWAP2 SUB SWAP1 RETURN JUMPDEST PUSH2 0x218 PUSH2 0x7C1 JUMP JUMPDEST PUSH1 0x40 MLOAD PUSH2 0x225 SWAP2 SWAP1 PUSH2 0x20DD JUMP JUMPDEST PUSH1 0x40 MLOAD DUP1 SWAP2 SUB SWAP1 RETURN JUMPDEST PUSH2 0x248 PUSH1 0x4 DUP1 CALLDATASIZE SUB DUP2 ADD SWAP1 PUSH2 0x243 SWAP2 SWAP1 PUSH2 0x1B9D JUMP JUMPDEST PUSH2 0x870 JUMP JUMPDEST STOP JUMPDEST PUSH2 0x252 PUSH2 0x8AA JUMP JUMPDEST PUSH1 0x40 MLOAD PUSH2 0x25F SWAP2 SWAP1 PUSH2 0x20DD JUMP JUMPDEST PUSH1 0x40 MLOAD DUP1 SWAP2 SUB SWAP1 RETURN JUMPDEST PUSH2 0x282 PUSH1 0x4 DUP1 CALLDATASIZE SUB DUP2 ADD SWAP1 PUSH2 0x27D SWAP2 SWAP1 PUSH2 0x1D4D JUMP JUMPDEST PUSH2 0x8BD JUMP JUMPDEST PUSH1 0x40 MLOAD PUSH2 0x28F SWAP2 SWAP1 PUSH2 0x2076 JUMP JUMPDEST PUSH1 0x40 MLOAD DUP1 SWAP2 SUB SWAP1 RETURN JUMPDEST PUSH2 0x2B2 PUSH1 0x4 DUP1 CALLDATASIZE SUB DUP2 ADD SWAP1 PUSH2 0x2AD SWAP2 SWAP1 PUSH2 0x1B30 JUMP JUMPDEST PUSH2 0x96F JUMP JUMPDEST PUSH1 0x40 MLOAD PUSH2 0x2BF SWAP2 SWAP1 PUSH2 0x22DA JUMP JUMPDEST PUSH1 0x40 MLOAD DUP1 SWAP2 SUB SWAP1 RETURN JUMPDEST PUSH2 0x2D0 PUSH2 0xA27 JUMP JUMPDEST STOP JUMPDEST PUSH2 0x2DA PUSH2 0xB2C JUMP JUMPDEST PUSH1 0x40 MLOAD PUSH2 0x2E7 SWAP2 SWAP1 PUSH2 0x20DD JUMP JUMPDEST PUSH1 0x40 MLOAD DUP1 SWAP2 SUB SWAP1 RETURN JUMPDEST PUSH2 0x2F8 PUSH2 0xBDD JUMP JUMPDEST PUSH1 0x40 MLOAD PUSH2 0x305 SWAP2 SWAP1 PUSH2 0x2076 JUMP JUMPDEST PUSH1 0x40 MLOAD DUP1 SWAP2 SUB SWAP1 RETURN JUMPDEST PUSH2 0x316 PUSH2 0xC06 JUMP JUMPDEST PUSH1 0x40 MLOAD PUSH2 0x323 SWAP2 SWAP1 PUSH2 0x20DD JUMP JUMPDEST PUSH1 0x40 MLOAD DUP1 SWAP2 SUB SWAP1 RETURN JUMPDEST PUSH2 0x334 PUSH2 0xC64 JUMP JUMPDEST PUSH1 0x40 MLOAD PUSH2 0x341 SWAP2 SWAP1 PUSH2 0x20F8 JUMP JUMPDEST PUSH1 0x40 MLOAD DUP1 SWAP2 SUB SWAP1 RETURN JUMPDEST PUSH2 0x364 PUSH1 0x4 DUP1 CALLDATASIZE SUB DUP2 ADD SWAP1 PUSH2 0x35F SWAP2 SWAP1 PUSH2 0x1C73 JUMP JUMPDEST PUSH2 0xCF6 JUMP JUMPDEST STOP JUMPDEST PUSH2 0x380 PUSH1 0x4 DUP1 CALLDATASIZE SUB DUP2 ADD SWAP1 PUSH2 0x37B SWAP2 SWAP1 PUSH2 0x1BF0 JUMP JUMPDEST PUSH2 0xD26 JUMP JUMPDEST STOP JUMPDEST PUSH2 0x39C PUSH1 0x4 DUP1 CALLDATASIZE SUB DUP2 ADD SWAP1 PUSH2 0x397 SWAP2 SWAP1 PUSH2 0x1D4D JUMP JUMPDEST PUSH2 0xDA2 JUMP JUMPDEST PUSH1 0x40 MLOAD PUSH2 0x3A9 SWAP2 SWAP1 PUSH2 0x20F8 JUMP JUMPDEST PUSH1 0x40 MLOAD DUP1 SWAP2 SUB SWAP1 RETURN JUMPDEST PUSH2 0x3CC PUSH1 0x4 DUP1 CALLDATASIZE SUB DUP2 ADD SWAP1 PUSH2 0x3C7 SWAP2 SWAP1 PUSH2 0x1B5D JUMP JUMPDEST PUSH2 0xE49 JUMP JUMPDEST PUSH1 0x40 MLOAD PUSH2 0x3D9 SWAP2 SWAP1 PUSH2 0x20DD JUMP JUMPDEST PUSH1 0x40 MLOAD DUP1 SWAP2 SUB SWAP1 RETURN JUMPDEST PUSH2 0x3FC PUSH1 0x4 DUP1 CALLDATASIZE SUB DUP2 ADD SWAP1 PUSH2 0x3F7 SWAP2 SWAP1 PUSH2 0x1B30 JUMP JUMPDEST PUSH2 0xEF6 JUMP JUMPDEST STOP JUMPDEST PUSH1 0x0 PUSH32 0x80AC58CD00000000000000000000000000000000000000000000000000000000 PUSH28 0xFFFFFFFFFFFFFFFFFFFFFFFFFFFFFFFFFFFFFFFFFFFFFFFFFFFFFFFF NOT AND DUP3 PUSH28 0xFFFFFFFFFFFFFFFFFFFFFFFFFFFFFFFFFFFFFFFFFFFFFFFFFFFFFFFF NOT AND EQ DUP1 PUSH2 0x4C9 JUMPI POP PUSH32 0x5B5E139F00000000000000000000000000000000000000000000000000000000 PUSH28 0xFFFFFFFFFFFFFFFFFFFFFFFFFFFFFFFFFFFFFFFFFFFFFFFFFFFFFFFF NOT AND DUP3 PUSH28 0xFFFFFFFFFFFFFFFFFFFFFFFFFFFFFFFFFFFFFFFFFFFFFFFFFFFFFFFF NOT AND EQ JUMPDEST DUP1 PUSH2 0x4D9 JUMPI POP PUSH2 0x4D8 DUP3 PUSH2 0xF49 JUMP JUMPDEST JUMPDEST SWAP1 POP SWAP2 SWAP1 POP JUMP JUMPDEST PUSH1 0x60 PUSH1 0x1 DUP1 SLOAD PUSH2 0x4EF SWAP1 PUSH2 0x255D JUMP JUMPDEST DUP1 PUSH1 0x1F ADD PUSH1 0x20 DUP1 SWAP2 DIV MUL PUSH1 0x20 ADD PUSH1 0x40 MLOAD SWAP1 DUP2 ADD PUSH1 0x40 MSTORE DUP1 SWAP3 SWAP2 SWAP1 DUP2 DUP2 MSTORE PUSH1 0x20 ADD DUP3 DUP1 SLOAD PUSH2 0x51B SWAP1 PUSH2 0x255D JUMP JUMPDEST DUP1 ISZERO PUSH2 0x568 JUMPI DUP1 PUSH1 0x1F LT PUSH2 0x53D JUMPI PUSH2 0x100 DUP1 DUP4 SLOAD DIV MUL DUP4 MSTORE SWAP2 PUSH1 0x20 ADD SWAP2 PUSH2 0x568 JUMP JUMPDEST DUP3 ADD SWAP2 SWAP1 PUSH1 0x0 MSTORE PUSH1 0x20 PUSH1 0x0 KECCAK256 SWAP1 JUMPDEST DUP2 SLOAD DUP2 MSTORE SWAP1 PUSH1 0x1 ADD SWAP1 PUSH1 0x20 ADD DUP1 DUP4 GT PUSH2 0x54B JUMPI DUP3 SWAP1 SUB PUSH1 0x1F AND DUP3 ADD SWAP2 JUMPDEST POP POP POP POP POP SWAP1 POP SWAP1 JUMP JUMPDEST PUSH1 0x0 DUP1 PUSH1 0x14 SWAP1 SLOAD SWAP1 PUSH2 0x100 EXP SWAP1 DIV PUSH1 0xFF AND ISZERO PUSH2 0x58D JUMPI PUSH1 0x0 DUP1 REVERT JUMPDEST PUSH2 0x596 DUP3 PUSH2 0xFB3 JUMP JUMPDEST PUSH2 0x5D5 JUMPI PUSH1 0x40 MLOAD PUSH32 0x8C379A000000000000000000000000000000000000000000000000000000000 DUP2 MSTORE PUSH1 0x4 ADD PUSH2 0x5CC SWAP1 PUSH2 0x223A JUMP JUMPDEST PUSH1 0x40 MLOAD DUP1 SWAP2 SUB SWAP1 REVERT JUMPDEST PUSH1 0x5 PUSH1 0x0 DUP4 DUP2 MSTORE PUSH1 0x20 ADD SWAP1 DUP2 MSTORE PUSH1 0x20 ADD PUSH1 0x0 KECCAK256 PUSH1 0x0 SWAP1 SLOAD SWAP1 PUSH2 0x100 EXP SWAP1 DIV PUSH20 0xFFFFFFFFFFFFFFFFFFFFFFFFFFFFFFFFFFFFFFFF AND SWAP1 POP SWAP2 SWAP1 POP JUMP JUMPDEST PUSH1 0x0 PUSH1 0x14 SWAP1 SLOAD SWAP1 PUSH2 0x100 EXP SWAP1 DIV PUSH1 0xFF AND ISZERO PUSH2 0x62A JUMPI PUSH1 0x0 DUP1 REVERT JUMPDEST PUSH1 0x0 PUSH2 0x635 DUP3 PUSH2 0x8BD JUMP JUMPDEST SWAP1 POP DUP1 PUSH20 0xFFFFFFFFFFFFFFFFFFFFFFFFFFFFFFFFFFFFFFFF AND DUP4 PUSH20 0xFFFFFFFFFFFFFFFFFFFFFFFFFFFFFFFFFFFFFFFF AND EQ ISZERO PUSH2 0x6A6 JUMPI PUSH1 0x40 MLOAD PUSH32 0x8C379A000000000000000000000000000000000000000000000000000000000 DUP2 MSTORE PUSH1 0x4 ADD PUSH2 0x69D SWAP1 PUSH2 0x229A JUMP JUMPDEST PUSH1 0x40 MLOAD DUP1 SWAP2 SUB SWAP1 REVERT JUMPDEST DUP1 PUSH20 0xFFFFFFFFFFFFFFFFFFFFFFFFFFFFFFFFFFFFFFFF AND PUSH2 0x6C5 PUSH2 0x101F JUMP JUMPDEST PUSH20 0xFFFFFFFFFFFFFFFFFFFFFFFFFFFFFFFFFFFFFFFF AND EQ DUP1 PUSH2 0x6F4 JUMPI POP PUSH2 0x6F3 DUP2 PUSH2 0x6EE PUSH2 0x101F JUMP JUMPDEST PUSH2 0xE49 JUMP JUMPDEST JUMPDEST PUSH2 0x733 JUMPI PUSH1 0x40 MLOAD PUSH32 0x8C379A000000000000000000000000000000000000000000000000000000000 DUP2 MSTORE PUSH1 0x4 ADD PUSH2 0x72A SWAP1 PUSH2 0x21DA JUMP JUMPDEST PUSH1 0x40 MLOAD DUP1 SWAP2 SUB SWAP1 REVERT JUMPDEST PUSH2 0x73D DUP4 DUP4 PUSH2 0x1027 JUMP JUMPDEST POP POP POP JUMP JUMPDEST PUSH1 0x0 PUSH1 0x14 SWAP1 SLOAD SWAP1 PUSH2 0x100 EXP SWAP1 DIV PUSH1 0xFF AND ISZERO PUSH2 0x75C JUMPI PUSH1 0x0 DUP1 REVERT JUMPDEST PUSH2 0x76D PUSH2 0x767 PUSH2 0x101F JUMP JUMPDEST DUP3 PUSH2 0x10E0 JUMP JUMPDEST PUSH2 0x7AC JUMPI PUSH1 0x40 MLOAD PUSH32 0x8C379A000000000000000000000000000000000000000000000000000000000 DUP2 MSTORE PUSH1 0x4 ADD PUSH2 0x7A3 SWAP1 PUSH2 0x22BA JUMP JUMPDEST PUSH1 0x40 MLOAD DUP1 SWAP2 SUB SWAP1 REVERT JUMPDEST PUSH2 0x7B7 DUP4 DUP4 DUP4 PUSH2 0x11BE JUMP JUMPDEST POP POP POP JUMP JUMPDEST PUSH1 0x0 SWAP1 JUMP JUMPDEST PUSH1 0x0 PUSH2 0x7CB PUSH2 0xC06 JUMP JUMPDEST PUSH2 0x80A JUMPI PUSH1 0x40 MLOAD PUSH32 0x8C379A000000000000000000000000000000000000000000000000000000000 DUP2 MSTORE PUSH1 0x4 ADD PUSH2 0x801 SWAP1 PUSH2 0x225A JUMP JUMPDEST PUSH1 0x40 MLOAD DUP1 SWAP2 SUB SWAP1 REVERT JUMPDEST PUSH1 0x0 PUSH1 0x14 SWAP1 SLOAD SWAP1 PUSH2 0x100 EXP SWAP1 DIV PUSH1 0xFF AND PUSH2 0x823 JUMPI PUSH1 0x0 DUP1 REVERT JUMPDEST PUSH1 0x0 DUP1 PUSH1 0x14 PUSH2 0x100 EXP DUP2 SLOAD DUP2 PUSH1 0xFF MUL NOT AND SWAP1 DUP4 ISZERO ISZERO MUL OR SWAP1 SSTORE POP PUSH32 0x7805862F689E2F13DF9F062FF482AD3AD112ACA9E0847911ED832E158C525B33 PUSH1 0x40 MLOAD PUSH1 0x40 MLOAD DUP1 SWAP2 SUB SWAP1 LOG1 PUSH1 0x1 SWAP1 POP SWAP1 JUMP JUMPDEST PUSH1 0x0 PUSH1 0x14 SWAP1 SLOAD SWAP1 PUSH2 0x100 EXP SWAP1 DIV PUSH1 0xFF AND ISZERO PUSH2 0x88A JUMPI PUSH1 0x0 DUP1 REVERT JUMPDEST PUSH2 0x8A5 DUP4 DUP4 DUP4 PUSH1 0x40 MLOAD DUP1 PUSH1 0x20 ADD PUSH1 0x40 MSTORE DUP1 PUSH1 0x0 DUP2 MSTORE POP PUSH2 0xD26 JUMP JUMPDEST POP POP POP JUMP JUMPDEST PUSH1 0x0 PUSH1 0x14 SWAP1 SLOAD SWAP1 PUSH2 0x100 EXP SWAP1 DIV PUSH1 0xFF AND DUP2 JUMP JUMPDEST PUSH1 0x0 DUP1 PUSH1 0x3 PUSH1 0x0 DUP5 DUP2 MSTORE PUSH1 0x20 ADD SWAP1 DUP2 MSTORE PUSH1 0x20 ADD PUSH1 0x0 KECCAK256 PUSH1 0x0 SWAP1 SLOAD SWAP1 PUSH2 0x100 EXP SWAP1 DIV PUSH20 0xFFFFFFFFFFFFFFFFFFFFFFFFFFFFFFFFFFFFFFFF AND SWAP1 POP PUSH1 0x0 PUSH20 0xFFFFFFFFFFFFFFFFFFFFFFFFFFFFFFFFFFFFFFFF AND DUP2 PUSH20 0xFFFFFFFFFFFFFFFFFFFFFFFFFFFFFFFFFFFFFFFF AND EQ ISZERO PUSH2 0x966 JUMPI PUSH1 0x40 MLOAD PUSH32 0x8C379A000000000000000000000000000000000000000000000000000000000 DUP2 MSTORE PUSH1 0x4 ADD PUSH2 0x95D SWAP1 PUSH2 0x221A JUMP JUMPDEST PUSH1 0x40 MLOAD DUP1 SWAP2 SUB SWAP1 REVERT JUMPDEST DUP1 SWAP2 POP POP SWAP2 SWAP1 POP JUMP JUMPDEST PUSH1 0x0 DUP1 PUSH20 0xFFFFFFFFFFFFFFFFFFFFFFFFFFFFFFFFFFFFFFFF AND DUP3 PUSH20 0xFFFFFFFFFFFFFFFFFFFFFFFFFFFFFFFFFFFFFFFF AND EQ ISZERO PUSH2 0x9E0 JUMPI PUSH1 0x40 MLOAD PUSH32 0x8C379A000000000000000000000000000000000000000000000000000000000 DUP2 MSTORE PUSH1 0x4 ADD PUSH2 0x9D7 SWAP1 PUSH2 0x21FA JUMP JUMPDEST PUSH1 0x40 MLOAD DUP1 SWAP2 SUB SWAP1 REVERT JUMPDEST PUSH1 0x4 PUSH1 0x0 DUP4 PUSH20 0xFFFFFFFFFFFFFFFFFFFFFFFFFFFFFFFFFFFFFFFF AND PUSH20 0xFFFFFFFFFFFFFFFFFFFFFFFFFFFFFFFFFFFFFFFF AND DUP2 MSTORE PUSH1 0x20 ADD SWAP1 DUP2 MSTORE PUSH1 0x20 ADD PUSH1 0x0 KECCAK256 SLOAD SWAP1 POP SWAP2 SWAP1 POP JUMP JUMPDEST PUSH2 0xA2F PUSH2 0xC06 JUMP JUMPDEST PUSH2 0xA6E JUMPI PUSH1 0x40 MLOAD PUSH32 0x8C379A000000000000000000000000000000000000000000000000000000000 DUP2 MSTORE PUSH1 0x4 ADD PUSH2 0xA65 SWAP1 PUSH2 0x225A JUMP JUMPDEST PUSH1 0x40 MLOAD DUP1 SWAP2 SUB SWAP1 REVERT JUMPDEST PUSH1 0x0 PUSH20 0xFFFFFFFFFFFFFFFFFFFFFFFFFFFFFFFFFFFFFFFF AND PUSH1 0x0 DUP1 SLOAD SWAP1 PUSH2 0x100 EXP SWAP1 DIV PUSH20 0xFFFFFFFFFFFFFFFFFFFFFFFFFFFFFFFFFFFFFFFF AND PUSH20 0xFFFFFFFFFFFFFFFFFFFFFFFFFFFFFFFFFFFFFFFF AND PUSH32 0x8BE0079C531659141344CD1FD0A4F28419497F9722A3DAAFE3B4186F6B6457E0 PUSH1 0x40 MLOAD PUSH1 0x40 MLOAD DUP1 SWAP2 SUB SWAP1 LOG3 PUSH1 0x0 DUP1 PUSH1 0x0 PUSH2 0x100 EXP DUP2 SLOAD DUP2 PUSH20 0xFFFFFFFFFFFFFFFFFFFFFFFFFFFFFFFFFFFFFFFF MUL NOT AND SWAP1 DUP4 PUSH20 0xFFFFFFFFFFFFFFFFFFFFFFFFFFFFFFFFFFFFFFFF AND MUL OR SWAP1 SSTORE POP JUMP JUMPDEST PUSH1 0x0 PUSH2 0xB36 PUSH2 0xC06 JUMP JUMPDEST PUSH2 0xB75 JUMPI PUSH1 0x40 MLOAD PUSH32 0x8C379A000000000000000000000000000000000000000000000000000000000 DUP2 MSTORE PUSH1 0x4 ADD PUSH2 0xB6C SWAP1 PUSH2 0x225A JUMP JUMPDEST PUSH1 0x40 MLOAD DUP1 SWAP2 SUB SWAP1 REVERT JUMPDEST PUSH1 0x0 PUSH1 0x14 SWAP1 SLOAD SWAP1 PUSH2 0x100 EXP SWAP1 DIV PUSH1 0xFF AND ISZERO PUSH2 0xB8F JUMPI PUSH1 0x0 DUP1 REVERT JUMPDEST PUSH1 0x1 PUSH1 0x0 PUSH1 0x14 PUSH2 0x100 EXP DUP2 SLOAD DUP2 PUSH1 0xFF MUL NOT AND SWAP1 DUP4 ISZERO ISZERO MUL OR SWAP1 SSTORE POP PUSH32 0x6985A02210A168E66602D3235CB6DB0E70F92B3BA4D376A33C0F3D9434BFF625 PUSH1 0x40 MLOAD PUSH1 0x40 MLOAD DUP1 SWAP2 SUB SWAP1 LOG1 PUSH1 0x1 SWAP1 POP SWAP1 JUMP JUMPDEST PUSH1 0x0 DUP1 PUSH1 0x0 SWAP1 SLOAD SWAP1 PUSH2 0x100 EXP SWAP1 DIV PUSH20 0xFFFFFFFFFFFFFFFFFFFFFFFFFFFFFFFFFFFFFFFF AND SWAP1 POP SWAP1 JUMP JUMPDEST PUSH1 0x0 DUP1 PUSH1 0x0 SWAP1 SLOAD SWAP1 PUSH2 0x100 EXP SWAP1 DIV PUSH20 0xFFFFFFFFFFFFFFFFFFFFFFFFFFFFFFFFFFFFFFFF AND PUSH20 0xFFFFFFFFFFFFFFFFFFFFFFFFFFFFFFFFFFFFFFFF AND PUSH2 0xC48 PUSH2 0x101F JUMP JUMPDEST PUSH20 0xFFFFFFFFFFFFFFFFFFFFFFFFFFFFFFFFFFFFFFFF AND EQ SWAP1 POP SWAP1 JUMP JUMPDEST PUSH1 0x60 PUSH1 0x2 DUP1 SLOAD PUSH2 0xC73 SWAP1 PUSH2 0x255D JUMP JUMPDEST DUP1 PUSH1 0x1F ADD PUSH1 0x20 DUP1 SWAP2 DIV MUL PUSH1 0x20 ADD PUSH1 0x40 MLOAD SWAP1 DUP2 ADD PUSH1 0x40 MSTORE DUP1 SWAP3 SWAP2 SWAP1 DUP2 DUP2 MSTORE PUSH1 0x20 ADD DUP3 DUP1 SLOAD PUSH2 0xC9F SWAP1 PUSH2 0x255D JUMP JUMPDEST DUP1 ISZERO PUSH2 0xCEC JUMPI DUP1 PUSH1 0x1F LT PUSH2 0xCC1 JUMPI PUSH2 0x100 DUP1 DUP4 SLOAD DIV MUL DUP4 MSTORE SWAP2 PUSH1 0x20 ADD SWAP2 PUSH2 0xCEC JUMP JUMPDEST DUP3 ADD SWAP2 SWAP1 PUSH1 0x0 MSTORE PUSH1 0x20 PUSH1 0x0 KECCAK256 SWAP1 JUMPDEST DUP2 SLOAD DUP2 MSTORE SWAP1 PUSH1 0x1 ADD SWAP1 PUSH1 0x20 ADD DUP1 DUP4 GT PUSH2 0xCCF JUMPI DUP3 SWAP1 SUB PUSH1 0x1F AND DUP3 ADD SWAP2 JUMPDEST POP POP POP POP POP SWAP1 POP SWAP1 JUMP JUMPDEST PUSH1 0x0 PUSH1 0x14 SWAP1 SLOAD SWAP1 PUSH2 0x100 EXP SWAP1 DIV PUSH1 0xFF AND ISZERO PUSH2 0xD10 JUMPI PUSH1 0x0 DUP1 REVERT JUMPDEST PUSH2 0xD22 PUSH2 0xD1B PUSH2 0x101F JUMP JUMPDEST DUP4 DUP4 PUSH2 0x1425 JUMP JUMPDEST POP POP JUMP JUMPDEST PUSH1 0x0 PUSH1 0x14 SWAP1 SLOAD SWAP1 PUSH2 0x100 EXP SWAP1 DIV PUSH1 0xFF AND ISZERO PUSH2 0xD40 JUMPI PUSH1 0x0 DUP1 REVERT JUMPDEST PUSH2 0xD51 PUSH2 0xD4B PUSH2 0x101F JUMP JUMPDEST DUP4 PUSH2 0x10E0 JUMP JUMPDEST PUSH2 0xD90 JUMPI PUSH1 0x40 MLOAD PUSH32 0x8C379A000000000000000000000000000000000000000000000000000000000 DUP2 MSTORE PUSH1 0x4 ADD PUSH2 0xD87 SWAP1 PUSH2 0x22BA JUMP JUMPDEST PUSH1 0x40 MLOAD DUP1 SWAP2 SUB SWAP1 REVERT JUMPDEST PUSH2 0xD9C DUP5 DUP5 DUP5 DUP5 PUSH2 0x1592 JUMP JUMPDEST POP POP POP POP JUMP JUMPDEST PUSH1 0x60 PUSH2 0xDAD DUP3 PUSH2 0xFB3 JUMP JUMPDEST PUSH2 0xDEC JUMPI PUSH1 0x40 MLOAD PUSH32 0x8C379A000000000000000000000000000000000000000000000000000000000 DUP2 MSTORE PUSH1 0x4 ADD PUSH2 0xDE3 SWAP1 PUSH2 0x227A JUMP JUMPDEST PUSH1 0x40 MLOAD DUP1 SWAP2 SUB SWAP1 REVERT JUMPDEST PUSH1 0x0 PUSH2 0xDF6 PUSH2 0x15EE JUMP JUMPDEST SWAP1 POP PUSH1 0x0 DUP2 MLOAD GT PUSH2 0xE16 JUMPI PUSH1 0x40 MLOAD DUP1 PUSH1 0x20 ADD PUSH1 0x40 MSTORE DUP1 PUSH1 0x0 DUP2 MSTORE POP PUSH2 0xE41 JUMP JUMPDEST DUP1 PUSH2 0xE20 DUP5 PUSH2 0x1605 JUMP JUMPDEST PUSH1 0x40 MLOAD PUSH1 0x20 ADD PUSH2 0xE31 SWAP3 SWAP2 SWAP1 PUSH2 0x2052 JUMP JUMPDEST PUSH1 0x40 MLOAD PUSH1 0x20 DUP2 DUP4 SUB SUB DUP2 MSTORE SWAP1 PUSH1 0x40 MSTORE JUMPDEST SWAP2 POP POP SWAP2 SWAP1 POP JUMP JUMPDEST PUSH1 0x0 DUP1 PUSH1 0x14 SWAP1 SLOAD SWAP1 PUSH2 0x100 EXP SWAP1 DIV PUSH1 0xFF AND ISZERO PUSH2 0xE64 JUMPI PUSH1 0x0 DUP1 REVERT JUMPDEST PUSH1 0x6 PUSH1 0x0 DUP5 PUSH20 0xFFFFFFFFFFFFFFFFFFFFFFFFFFFFFFFFFFFFFFFF AND PUSH20 0xFFFFFFFFFFFFFFFFFFFFFFFFFFFFFFFFFFFFFFFF AND DUP2 MSTORE PUSH1 0x20 ADD SWAP1 DUP2 MSTORE PUSH1 0x20 ADD PUSH1 0x0 KECCAK256 PUSH1 0x0 DUP4 PUSH20 0xFFFFFFFFFFFFFFFFFFFFFFFFFFFFFFFFFFFFFFFF AND PUSH20 0xFFFFFFFFFFFFFFFFFFFFFFFFFFFFFFFFFFFFFFFF AND DUP2 MSTORE PUSH1 0x20 ADD SWAP1 DUP2 MSTORE PUSH1 0x20 ADD PUSH1 0x0 KECCAK256 PUSH1 0x0 SWAP1 SLOAD SWAP1 PUSH2 0x100 EXP SWAP1 DIV PUSH1 0xFF AND SWAP1 POP SWAP3 SWAP2 POP POP JUMP JUMPDEST PUSH2 0xEFE PUSH2 0xC06 JUMP JUMPDEST PUSH2 0xF3D JUMPI PUSH1 0x40 MLOAD PUSH32 0x8C379A000000000000000000000000000000000000000000000000000000000 DUP2 MSTORE PUSH1 0x4 ADD PUSH2 0xF34 SWAP1 PUSH2 0x225A JUMP JUMPDEST PUSH1 0x40 MLOAD DUP1 SWAP2 SUB SWAP1 REVERT JUMPDEST PUSH2 0xF46 DUP2 PUSH2 0x1766 JUMP JUMPDEST POP JUMP JUMPDEST PUSH1 0x0 PUSH32 0x1FFC9A700000000000000000000000000000000000000000000000000000000 PUSH28 0xFFFFFFFFFFFFFFFFFFFFFFFFFFFFFFFFFFFFFFFFFFFFFFFFFFFFFFFF NOT AND DUP3 PUSH28 0xFFFFFFFFFFFFFFFFFFFFFFFFFFFFFFFFFFFFFFFFFFFFFFFFFFFFFFFF NOT AND EQ SWAP1 POP SWAP2 SWAP1 POP JUMP JUMPDEST PUSH1 0x0 DUP1 PUSH20 0xFFFFFFFFFFFFFFFFFFFFFFFFFFFFFFFFFFFFFFFF AND PUSH1 0x3 PUSH1 0x0 DUP5 DUP2 MSTORE PUSH1 0x20 ADD SWAP1 DUP2 MSTORE PUSH1 0x20 ADD PUSH1 0x0 KECCAK256 PUSH1 0x0 SWAP1 SLOAD SWAP1 PUSH2 0x100 EXP SWAP1 DIV PUSH20 0xFFFFFFFFFFFFFFFFFFFFFFFFFFFFFFFFFFFFFFFF AND PUSH20 0xFFFFFFFFFFFFFFFFFFFFFFFFFFFFFFFFFFFFFFFF AND EQ ISZERO SWAP1 POP SWAP2 SWAP1 POP JUMP JUMPDEST PUSH1 0x0 CALLER SWAP1 POP SWAP1 JUMP JUMPDEST DUP2 PUSH1 0x5 PUSH1 0x0 DUP4 DUP2 MSTORE PUSH1 0x20 ADD SWAP1 DUP2 MSTORE PUSH1 0x20 ADD PUSH1 0x0 KECCAK256 PUSH1 0x0 PUSH2 0x100 EXP DUP2 SLOAD DUP2 PUSH20 0xFFFFFFFFFFFFFFFFFFFFFFFFFFFFFFFFFFFFFFFF MUL NOT AND SWAP1 DUP4 PUSH20 0xFFFFFFFFFFFFFFFFFFFFFFFFFFFFFFFFFFFFFFFF AND MUL OR SWAP1 SSTORE POP DUP1 DUP3 PUSH20 0xFFFFFFFFFFFFFFFFFFFFFFFFFFFFFFFFFFFFFFFF AND PUSH2 0x109A DUP4 PUSH2 0x8BD JUMP JUMPDEST PUSH20 0xFFFFFFFFFFFFFFFFFFFFFFFFFFFFFFFFFFFFFFFF AND PUSH32 0x8C5BE1E5EBEC7D5BD14F71427D1E84F3DD0314C0F7B2291E5B200AC8C7C3B925 PUSH1 0x40 MLOAD PUSH1 0x40 MLOAD DUP1 SWAP2 SUB SWAP1 LOG4 POP POP JUMP JUMPDEST PUSH1 0x0 PUSH2 0x10EB DUP3 PUSH2 0xFB3 JUMP JUMPDEST PUSH2 0x112A JUMPI PUSH1 0x40 MLOAD PUSH32 0x8C379A000000000000000000000000000000000000000000000000000000000 DUP2 MSTORE PUSH1 0x4 ADD PUSH2 0x1121 SWAP1 PUSH2 0x21BA JUMP JUMPDEST PUSH1 0x40 MLOAD DUP1 SWAP2 SUB SWAP1 REVERT JUMPDEST PUSH1 0x0 PUSH2 0x1135 DUP4 PUSH2 0x8BD JUMP JUMPDEST SWAP1 POP DUP1 PUSH20 0xFFFFFFFFFFFFFFFFFFFFFFFFFFFFFFFFFFFFFFFF AND DUP5 PUSH20 0xFFFFFFFFFFFFFFFFFFFFFFFFFFFFFFFFFFFFFFFF AND EQ DUP1 PUSH2 0x11A4 JUMPI POP DUP4 PUSH20 0xFFFFFFFFFFFFFFFFFFFFFFFFFFFFFFFFFFFFFFFF AND PUSH2 0x118C DUP5 PUSH2 0x572 JUMP JUMPDEST PUSH20 0xFFFFFFFFFFFFFFFFFFFFFFFFFFFFFFFFFFFFFFFF AND EQ JUMPDEST DUP1 PUSH2 0x11B5 JUMPI POP PUSH2 0x11B4 DUP2 DUP6 PUSH2 0xE49 JUMP JUMPDEST JUMPDEST SWAP2 POP POP SWAP3 SWAP2 POP POP JUMP JUMPDEST DUP3 PUSH20 0xFFFFFFFFFFFFFFFFFFFFFFFFFFFFFFFFFFFFFFFF AND PUSH2 0x11DE DUP3 PUSH2 0x8BD JUMP JUMPDEST PUSH20 0xFFFFFFFFFFFFFFFFFFFFFFFFFFFFFFFFFFFFFFFF AND EQ PUSH2 0x1234 JUMPI PUSH1 0x40 MLOAD PUSH32 0x8C379A000000000000000000000000000000000000000000000000000000000 DUP2 MSTORE PUSH1 0x4 ADD PUSH2 0x122B SWAP1 PUSH2 0x215A JUMP JUMPDEST PUSH1 0x40 MLOAD DUP1 SWAP2 SUB SWAP1 REVERT JUMPDEST PUSH1 0x0 PUSH20 0xFFFFFFFFFFFFFFFFFFFFFFFFFFFFFFFFFFFFFFFF AND DUP3 PUSH20 0xFFFFFFFFFFFFFFFFFFFFFFFFFFFFFFFFFFFFFFFF AND EQ ISZERO PUSH2 0x12A4 JUMPI PUSH1 0x40 MLOAD PUSH32 0x8C379A000000000000000000000000000000000000000000000000000000000 DUP2 MSTORE PUSH1 0x4 ADD PUSH2 0x129B SWAP1 PUSH2 0x217A JUMP JUMPDEST PUSH1 0x40 MLOAD DUP1 SWAP2 SUB SWAP1 REVERT JUMPDEST PUSH2 0x12AF DUP4 DUP4 DUP4 PUSH2 0x1893 JUMP JUMPDEST PUSH2 0x12BA PUSH1 0x0 DUP3 PUSH2 0x1027 JUMP JUMPDEST PUSH1 0x1 PUSH1 0x4 PUSH1 0x0 DUP6 PUSH20 0xFFFFFFFFFFFFFFFFFFFFFFFFFFFFFFFFFFFFFFFF AND PUSH20 0xFFFFFFFFFFFFFFFFFFFFFFFFFFFFFFFFFFFFFFFF AND DUP2 MSTORE PUSH1 0x20 ADD SWAP1 DUP2 MSTORE PUSH1 0x20 ADD PUSH1 0x0 KECCAK256 PUSH1 0x0 DUP3 DUP3 SLOAD PUSH2 0x130A SWAP2 SWAP1 PUSH2 0x2430 JUMP JUMPDEST SWAP3 POP POP DUP2 SWAP1 SSTORE POP PUSH1 0x1 PUSH1 0x4 PUSH1 0x0 DUP5 PUSH20 0xFFFFFFFFFFFFFFFFFFFFFFFFFFFFFFFFFFFFFFFF AND PUSH20 0xFFFFFFFFFFFFFFFFFFFFFFFFFFFFFFFFFFFFFFFF AND DUP2 MSTORE PUSH1 0x20 ADD SWAP1 DUP2 MSTORE PUSH1 0x20 ADD PUSH1 0x0 KECCAK256 PUSH1 0x0 DUP3 DUP3 SLOAD PUSH2 0x1361 SWAP2 SWAP1 PUSH2 0x23A9 JUMP JUMPDEST SWAP3 POP POP DUP2 SWAP1 SSTORE POP DUP2 PUSH1 0x3 PUSH1 0x0 DUP4 DUP2 MSTORE PUSH1 0x20 ADD SWAP1 DUP2 MSTORE PUSH1 0x20 ADD PUSH1 0x0 KECCAK256 PUSH1 0x0 PUSH2 0x100 EXP DUP2 SLOAD DUP2 PUSH20 0xFFFFFFFFFFFFFFFFFFFFFFFFFFFFFFFFFFFFFFFF MUL NOT AND SWAP1 DUP4 PUSH20 0xFFFFFFFFFFFFFFFFFFFFFFFFFFFFFFFFFFFFFFFF AND MUL OR SWAP1 SSTORE POP DUP1 DUP3 PUSH20 0xFFFFFFFFFFFFFFFFFFFFFFFFFFFFFFFFFFFFFFFF AND DUP5 PUSH20 0xFFFFFFFFFFFFFFFFFFFFFFFFFFFFFFFFFFFFFFFF AND PUSH32 0xDDF252AD1BE2C89B69C2B068FC378DAA952BA7F163C4A11628F55A4DF523B3EF PUSH1 0x40 MLOAD PUSH1 0x40 MLOAD DUP1 SWAP2 SUB SWAP1 LOG4 PUSH2 0x1420 DUP4 DUP4 DUP4 PUSH2 0x1898 JUMP JUMPDEST POP POP POP JUMP JUMPDEST DUP2 PUSH20 0xFFFFFFFFFFFFFFFFFFFFFFFFFFFFFFFFFFFFFFFF AND DUP4 PUSH20 0xFFFFFFFFFFFFFFFFFFFFFFFFFFFFFFFFFFFFFFFF AND EQ ISZERO PUSH2 0x1494 JUMPI PUSH1 0x40 MLOAD PUSH32 0x8C379A000000000000000000000000000000000000000000000000000000000 DUP2 MSTORE PUSH1 0x4 ADD PUSH2 0x148B SWAP1 PUSH2 0x219A JUMP JUMPDEST PUSH1 0x40 MLOAD DUP1 SWAP2 SUB SWAP1 REVERT JUMPDEST DUP1 PUSH1 0x6 PUSH1 0x0 DUP6 PUSH20 0xFFFFFFFFFFFFFFFFFFFFFFFFFFFFFFFFFFFFFFFF AND PUSH20 0xFFFFFFFFFFFFFFFFFFFFFFFFFFFFFFFFFFFFFFFF AND DUP2 MSTORE PUSH1 0x20 ADD SWAP1 DUP2 MSTORE PUSH1 0x20 ADD PUSH1 0x0 KECCAK256 PUSH1 0x0 DUP5 PUSH20 0xFFFFFFFFFFFFFFFFFFFFFFFFFFFFFFFFFFFFFFFF AND PUSH20 0xFFFFFFFFFFFFFFFFFFFFFFFFFFFFFFFFFFFFFFFF AND DUP2 MSTORE PUSH1 0x20 ADD SWAP1 DUP2 MSTORE PUSH1 0x20 ADD PUSH1 0x0 KECCAK256 PUSH1 0x0 PUSH2 0x100 EXP DUP2 SLOAD DUP2 PUSH1 0xFF MUL NOT AND SWAP1 DUP4 ISZERO ISZERO MUL OR SWAP1 SSTORE POP DUP2 PUSH20 0xFFFFFFFFFFFFFFFFFFFFFFFFFFFFFFFFFFFFFFFF AND DUP4 PUSH20 0xFFFFFFFFFFFFFFFFFFFFFFFFFFFFFFFFFFFFFFFF AND PUSH32 0x17307EAB39AB6107E8899845AD3D59BD9653F200F220920489CA2B5937696C31 DUP4 PUSH1 0x40 MLOAD PUSH2 0x1585 SWAP2 SWAP1 PUSH2 0x20DD JUMP JUMPDEST PUSH1 0x40 MLOAD DUP1 SWAP2 SUB SWAP1 LOG3 POP POP POP JUMP JUMPDEST PUSH2 0x159D DUP5 DUP5 DUP5 PUSH2 0x11BE JUMP JUMPDEST PUSH2 0x15A9 DUP5 DUP5 DUP5 DUP5 PUSH2 0x189D JUMP JUMPDEST PUSH2 0x15E8 JUMPI PUSH1 0x40 MLOAD PUSH32 0x8C379A000000000000000000000000000000000000000000000000000000000 DUP2 MSTORE PUSH1 0x4 ADD PUSH2 0x15DF SWAP1 PUSH2 0x211A JUMP JUMPDEST PUSH1 0x40 MLOAD DUP1 SWAP2 SUB SWAP1 REVERT JUMPDEST POP POP POP POP JUMP JUMPDEST PUSH1 0x60 PUSH1 0x40 MLOAD DUP1 PUSH1 0x20 ADD PUSH1 0x40 MSTORE DUP1 PUSH1 0x0 DUP2 MSTORE POP SWAP1 POP SWAP1 JUMP JUMPDEST PUSH1 0x60 PUSH1 0x0 DUP3 EQ ISZERO PUSH2 0x164D JUMPI PUSH1 0x40 MLOAD DUP1 PUSH1 0x40 ADD PUSH1 0x40 MSTORE DUP1 PUSH1 0x1 DUP2 MSTORE PUSH1 0x20 ADD PUSH32 0x3000000000000000000000000000000000000000000000000000000000000000 DUP2 MSTORE POP SWAP1 POP PUSH2 0x1761 JUMP JUMPDEST PUSH1 0x0 DUP3 SWAP1 POP PUSH1 0x0 JUMPDEST PUSH1 0x0 DUP3 EQ PUSH2 0x167F JUMPI DUP1 DUP1 PUSH2 0x1668 SWAP1 PUSH2 0x25C0 JUMP JUMPDEST SWAP2 POP POP PUSH1 0xA DUP3 PUSH2 0x1678 SWAP2 SWAP1 PUSH2 0x23FF JUMP JUMPDEST SWAP2 POP PUSH2 0x1655 JUMP JUMPDEST PUSH1 0x0 DUP2 PUSH8 0xFFFFFFFFFFFFFFFF DUP2 GT ISZERO PUSH2 0x169B JUMPI PUSH2 0x169A PUSH2 0x26F6 JUMP JUMPDEST JUMPDEST PUSH1 0x40 MLOAD SWAP1 DUP1 DUP3 MSTORE DUP1 PUSH1 0x1F ADD PUSH1 0x1F NOT AND PUSH1 0x20 ADD DUP3 ADD PUSH1 0x40 MSTORE DUP1 ISZERO PUSH2 0x16CD JUMPI DUP2 PUSH1 0x20 ADD PUSH1 0x1 DUP3 MUL DUP1 CALLDATASIZE DUP4 CALLDATACOPY DUP1 DUP3 ADD SWAP2 POP POP SWAP1 POP JUMPDEST POP SWAP1 POP JUMPDEST PUSH1 0x0 DUP6 EQ PUSH2 0x175A JUMPI PUSH1 0x1 DUP3 PUSH2 0x16E6 SWAP2 SWAP1 PUSH2 0x2430 JUMP JUMPDEST SWAP2 POP PUSH1 0xA DUP6 PUSH2 0x16F5 SWAP2 SWAP1 PUSH2 0x2609 JUMP JUMPDEST PUSH1 0x30 PUSH2 0x1701 SWAP2 SWAP1 PUSH2 0x23A9 JUMP JUMPDEST PUSH1 0xF8 SHL DUP2 DUP4 DUP2 MLOAD DUP2 LT PUSH2 0x1717 JUMPI PUSH2 0x1716 PUSH2 0x26C7 JUMP JUMPDEST JUMPDEST PUSH1 0x20 ADD ADD SWAP1 PUSH31 0xFFFFFFFFFFFFFFFFFFFFFFFFFFFFFFFFFFFFFFFFFFFFFFFFFFFFFFFFFFFFFF NOT AND SWAP1 DUP2 PUSH1 0x0 BYTE SWAP1 MSTORE8 POP PUSH1 0xA DUP6 PUSH2 0x1753 SWAP2 SWAP1 PUSH2 0x23FF JUMP JUMPDEST SWAP5 POP PUSH2 0x16D1 JUMP JUMPDEST DUP1 SWAP4 POP POP POP POP JUMPDEST SWAP2 SWAP1 POP JUMP JUMPDEST PUSH1 0x0 PUSH20 0xFFFFFFFFFFFFFFFFFFFFFFFFFFFFFFFFFFFFFFFF AND DUP2 PUSH20 0xFFFFFFFFFFFFFFFFFFFFFFFFFFFFFFFFFFFFFFFF AND EQ ISZERO PUSH2 0x17D6 JUMPI PUSH1 0x40 MLOAD PUSH32 0x8C379A000000000000000000000000000000000000000000000000000000000 DUP2 MSTORE PUSH1 0x4 ADD PUSH2 0x17CD SWAP1 PUSH2 0x213A JUMP JUMPDEST PUSH1 0x40 MLOAD DUP1 SWAP2 SUB SWAP1 REVERT JUMPDEST DUP1 PUSH20 0xFFFFFFFFFFFFFFFFFFFFFFFFFFFFFFFFFFFFFFFF AND PUSH1 0x0 DUP1 SLOAD SWAP1 PUSH2 0x100 EXP SWAP1 DIV PUSH20 0xFFFFFFFFFFFFFFFFFFFFFFFFFFFFFFFFFFFFFFFF AND PUSH20 0xFFFFFFFFFFFFFFFFFFFFFFFFFFFFFFFFFFFFFFFF AND PUSH32 0x8BE0079C531659141344CD1FD0A4F28419497F9722A3DAAFE3B4186F6B6457E0 PUSH1 0x40 MLOAD PUSH1 0x40 MLOAD DUP1 SWAP2 SUB SWAP1 LOG3 DUP1 PUSH1 0x0 DUP1 PUSH2 0x100 EXP DUP2 SLOAD DUP2 PUSH20 0xFFFFFFFFFFFFFFFFFFFFFFFFFFFFFFFFFFFFFFFF MUL NOT AND SWAP1 DUP4 PUSH20 0xFFFFFFFFFFFFFFFFFFFFFFFFFFFFFFFFFFFFFFFF AND MUL OR SWAP1 SSTORE POP POP JUMP JUMPDEST POP POP POP JUMP JUMPDEST POP POP POP JUMP JUMPDEST PUSH1 0x0 PUSH2 0x18BE DUP5 PUSH20 0xFFFFFFFFFFFFFFFFFFFFFFFFFFFFFFFFFFFFFFFF AND PUSH2 0x1A34 JUMP JUMPDEST ISZERO PUSH2 0x1A27 JUMPI DUP4 PUSH20 0xFFFFFFFFFFFFFFFFFFFFFFFFFFFFFFFFFFFFFFFF AND PUSH4 0x150B7A02 PUSH2 0x18E7 PUSH2 0x101F JUMP JUMPDEST DUP8 DUP7 DUP7 PUSH1 0x40 MLOAD DUP6 PUSH4 0xFFFFFFFF AND PUSH1 0xE0 SHL DUP2 MSTORE PUSH1 0x4 ADD PUSH2 0x1909 SWAP5 SWAP4 SWAP3 SWAP2 SWAP1 PUSH2 0x2091 JUMP JUMPDEST PUSH1 0x20 PUSH1 0x40 MLOAD DUP1 DUP4 SUB DUP2 PUSH1 0x0 DUP8 DUP1 EXTCODESIZE ISZERO DUP1 ISZERO PUSH2 0x1923 JUMPI PUSH1 0x0 DUP1 REVERT JUMPDEST POP GAS CALL SWAP3 POP POP POP DUP1 ISZERO PUSH2 0x1954 JUMPI POP PUSH1 0x40 MLOAD RETURNDATASIZE PUSH1 0x1F NOT PUSH1 0x1F DUP3 ADD AND DUP3 ADD DUP1 PUSH1 0x40 MSTORE POP DUP2 ADD SWAP1 PUSH2 0x1951 SWAP2 SWAP1 PUSH2 0x1D20 JUMP JUMPDEST PUSH1 0x1 JUMPDEST PUSH2 0x19D7 JUMPI RETURNDATASIZE DUP1 PUSH1 0x0 DUP2 EQ PUSH2 0x1984 JUMPI PUSH1 0x40 MLOAD SWAP2 POP PUSH1 0x1F NOT PUSH1 0x3F RETURNDATASIZE ADD AND DUP3 ADD PUSH1 0x40 MSTORE RETURNDATASIZE DUP3 MSTORE RETURNDATASIZE PUSH1 0x0 PUSH1 0x20 DUP5 ADD RETURNDATACOPY PUSH2 0x1989 JUMP JUMPDEST PUSH1 0x60 SWAP2 POP JUMPDEST POP PUSH1 0x0 DUP2 MLOAD EQ ISZERO PUSH2 0x19CF JUMPI PUSH1 0x40 MLOAD PUSH32 0x8C379A000000000000000000000000000000000000000000000000000000000 DUP2 MSTORE PUSH1 0x4 ADD PUSH2 0x19C6 SWAP1 PUSH2 0x211A JUMP JUMPDEST PUSH1 0x40 MLOAD DUP1 SWAP2 SUB SWAP1 REVERT JUMPDEST DUP1 MLOAD DUP2 PUSH1 0x20 ADD REVERT JUMPDEST PUSH4 0x150B7A02 PUSH1 0xE0 SHL PUSH28 0xFFFFFFFFFFFFFFFFFFFFFFFFFFFFFFFFFFFFFFFFFFFFFFFFFFFFFFFF NOT AND DUP2 PUSH28 0xFFFFFFFFFFFFFFFFFFFFFFFFFFFFFFFFFFFFFFFFFFFFFFFFFFFFFFFF NOT AND EQ SWAP2 POP POP PUSH2 0x1A2C JUMP JUMPDEST PUSH1 0x1 SWAP1 POP JUMPDEST SWAP5 SWAP4 POP POP POP POP JUMP JUMPDEST PUSH1 0x0 DUP1 DUP3 PUSH20 0xFFFFFFFFFFFFFFFFFFFFFFFFFFFFFFFFFFFFFFFF AND EXTCODESIZE GT SWAP1 POP SWAP2 SWAP1 POP JUMP JUMPDEST PUSH1 0x0 PUSH2 0x1A6A PUSH2 0x1A65 DUP5 PUSH2 0x2335 JUMP JUMPDEST PUSH2 0x2310 JUMP JUMPDEST SWAP1 POP DUP3 DUP2 MSTORE PUSH1 0x20 DUP2 ADD DUP5 DUP5 DUP5 ADD GT ISZERO PUSH2 0x1A86 JUMPI PUSH2 0x1A85 PUSH2 0x272A JUMP JUMPDEST JUMPDEST PUSH2 0x1A91 DUP5 DUP3 DUP6 PUSH2 0x251B JUMP JUMPDEST POP SWAP4 SWAP3 POP POP POP JUMP JUMPDEST PUSH1 0x0 DUP2 CALLDATALOAD SWAP1 POP PUSH2 0x1AA8 DUP2 PUSH2 0x2B50 JUMP JUMPDEST SWAP3 SWAP2 POP POP JUMP JUMPDEST PUSH1 0x0 DUP2 CALLDATALOAD SWAP1 POP PUSH2 0x1ABD DUP2 PUSH2 0x2B67 JUMP JUMPDEST SWAP3 SWAP2 POP POP JUMP JUMPDEST PUSH1 0x0 DUP2 CALLDATALOAD SWAP1 POP PUSH2 0x1AD2 DUP2 PUSH2 0x2B7E JUMP JUMPDEST SWAP3 SWAP2 POP POP JUMP JUMPDEST PUSH1 0x0 DUP2 MLOAD SWAP1 POP PUSH2 0x1AE7 DUP2 PUSH2 0x2B7E JUMP JUMPDEST SWAP3 SWAP2 POP POP JUMP JUMPDEST PUSH1 0x0 DUP3 PUSH1 0x1F DUP4 ADD SLT PUSH2 0x1B02 JUMPI PUSH2 0x1B01 PUSH2 0x2725 JUMP JUMPDEST JUMPDEST DUP2 CALLDATALOAD PUSH2 0x1B12 DUP5 DUP3 PUSH1 0x20 DUP7 ADD PUSH2 0x1A57 JUMP JUMPDEST SWAP2 POP POP SWAP3 SWAP2 POP POP JUMP JUMPDEST PUSH1 0x0 DUP2 CALLDATALOAD SWAP1 POP PUSH2 0x1B2A DUP2 PUSH2 0x2B95 JUMP JUMPDEST SWAP3 SWAP2 POP POP JUMP JUMPDEST PUSH1 0x0 PUSH1 0x20 DUP3 DUP5 SUB SLT ISZERO PUSH2 0x1B46 JUMPI PUSH2 0x1B45 PUSH2 0x2734 JUMP JUMPDEST JUMPDEST PUSH1 0x0 PUSH2 0x1B54 DUP5 DUP3 DUP6 ADD PUSH2 0x1A99 JUMP JUMPDEST SWAP2 POP POP SWAP3 SWAP2 POP POP JUMP JUMPDEST PUSH1 0x0 DUP1 PUSH1 0x40 DUP4 DUP6 SUB SLT ISZERO PUSH2 0x1B74 JUMPI PUSH2 0x1B73 PUSH2 0x2734 JUMP JUMPDEST JUMPDEST PUSH1 0x0 PUSH2 0x1B82 DUP6 DUP3 DUP7 ADD PUSH2 0x1A99 JUMP JUMPDEST SWAP3 POP POP PUSH1 0x20 PUSH2 0x1B93 DUP6 DUP3 DUP7 ADD PUSH2 0x1A99 JUMP JUMPDEST SWAP2 POP POP SWAP3 POP SWAP3 SWAP1 POP JUMP JUMPDEST PUSH1 0x0 DUP1 PUSH1 0x0 PUSH1 0x60 DUP5 DUP7 SUB SLT ISZERO PUSH2 0x1BB6 JUMPI PUSH2 0x1BB5 PUSH2 0x2734 JUMP JUMPDEST JUMPDEST PUSH1 0x0 PUSH2 0x1BC4 DUP7 DUP3 DUP8 ADD PUSH2 0x1A99 JUMP JUMPDEST SWAP4 POP POP PUSH1 0x20 PUSH2 0x1BD5 DUP7 DUP3 DUP8 ADD PUSH2 0x1A99 JUMP JUMPDEST SWAP3 POP POP PUSH1 0x40 PUSH2 0x1BE6 DUP7 DUP3 DUP8 ADD PUSH2 0x1B1B JUMP JUMPDEST SWAP2 POP POP SWAP3 POP SWAP3 POP SWAP3 JUMP JUMPDEST PUSH1 0x0 DUP1 PUSH1 0x0 DUP1 PUSH1 0x80 DUP6 DUP8 SUB SLT ISZERO PUSH2 0x1C0A JUMPI PUSH2 0x1C09 PUSH2 0x2734 JUMP JUMPDEST JUMPDEST PUSH1 0x0 PUSH2 0x1C18 DUP8 DUP3 DUP9 ADD PUSH2 0x1A99 JUMP JUMPDEST SWAP5 POP POP PUSH1 0x20 PUSH2 0x1C29 DUP8 DUP3 DUP9 ADD PUSH2 0x1A99 JUMP JUMPDEST SWAP4 POP POP PUSH1 0x40 PUSH2 0x1C3A DUP8 DUP3 DUP9 ADD PUSH2 0x1B1B JUMP JUMPDEST SWAP3 POP POP PUSH1 0x60 DUP6 ADD CALLDATALOAD PUSH8 0xFFFFFFFFFFFFFFFF DUP2 GT ISZERO PUSH2 0x1C5B JUMPI PUSH2 0x1C5A PUSH2 0x272F JUMP JUMPDEST JUMPDEST PUSH2 0x1C67 DUP8 DUP3 DUP9 ADD PUSH2 0x1AED JUMP JUMPDEST SWAP2 POP POP SWAP3 SWAP6 SWAP2 SWAP5 POP SWAP3 POP JUMP JUMPDEST PUSH1 0x0 DUP1 PUSH1 0x40 DUP4 DUP6 SUB SLT ISZERO PUSH2 0x1C8A JUMPI PUSH2 0x1C89 PUSH2 0x2734 JUMP JUMPDEST JUMPDEST PUSH1 0x0 PUSH2 0x1C98 DUP6 DUP3 DUP7 ADD PUSH2 0x1A99 JUMP JUMPDEST SWAP3 POP POP PUSH1 0x20 PUSH2 0x1CA9 DUP6 DUP3 DUP7 ADD PUSH2 0x1AAE JUMP JUMPDEST SWAP2 POP POP SWAP3 POP SWAP3 SWAP1 POP JUMP JUMPDEST PUSH1 0x0 DUP1 PUSH1 0x40 DUP4 DUP6 SUB SLT ISZERO PUSH2 0x1CCA JUMPI PUSH2 0x1CC9 PUSH2 0x2734 JUMP JUMPDEST JUMPDEST PUSH1 0x0 PUSH2 0x1CD8 DUP6 DUP3 DUP7 ADD PUSH2 0x1A99 JUMP JUMPDEST SWAP3 POP POP PUSH1 0x20 PUSH2 0x1CE9 DUP6 DUP3 DUP7 ADD PUSH2 0x1B1B JUMP JUMPDEST SWAP2 POP POP SWAP3 POP SWAP3 SWAP1 POP JUMP JUMPDEST PUSH1 0x0 PUSH1 0x20 DUP3 DUP5 SUB SLT ISZERO PUSH2 0x1D09 JUMPI PUSH2 0x1D08 PUSH2 0x2734 JUMP JUMPDEST JUMPDEST PUSH1 0x0 PUSH2 0x1D17 DUP5 DUP3 DUP6 ADD PUSH2 0x1AC3 JUMP JUMPDEST SWAP2 POP POP SWAP3 SWAP2 POP POP JUMP JUMPDEST PUSH1 0x0 PUSH1 0x20 DUP3 DUP5 SUB SLT ISZERO PUSH2 0x1D36 JUMPI PUSH2 0x1D35 PUSH2 0x2734 JUMP JUMPDEST JUMPDEST PUSH1 0x0 PUSH2 0x1D44 DUP5 DUP3 DUP6 ADD PUSH2 0x1AD8 JUMP JUMPDEST SWAP2 POP POP SWAP3 SWAP2 POP POP JUMP JUMPDEST PUSH1 0x0 PUSH1 0x20 DUP3 DUP5 SUB SLT ISZERO PUSH2 0x1D63 JUMPI PUSH2 0x1D62 PUSH2 0x2734 JUMP JUMPDEST JUMPDEST PUSH1 0x0 PUSH2 0x1D71 DUP5 DUP3 DUP6 ADD PUSH2 0x1B1B JUMP JUMPDEST SWAP2 POP POP SWAP3 SWAP2 POP POP JUMP JUMPDEST PUSH2 0x1D83 DUP2 PUSH2 0x24E5 JUMP JUMPDEST DUP3 MSTORE POP POP JUMP JUMPDEST PUSH2 0x1D92 DUP2 PUSH2 0x2464 JUMP JUMPDEST DUP3 MSTORE POP POP JUMP JUMPDEST PUSH2 0x1DA1 DUP2 PUSH2 0x2476 JUMP JUMPDEST DUP3 MSTORE POP POP JUMP JUMPDEST PUSH1 0x0 PUSH2 0x1DB2 DUP3 PUSH2 0x2366 JUMP JUMPDEST PUSH2 0x1DBC DUP2 DUP6 PUSH2 0x237C JUMP JUMPDEST SWAP4 POP PUSH2 0x1DCC DUP2 DUP6 PUSH1 0x20 DUP7 ADD PUSH2 0x252A JUMP JUMPDEST PUSH2 0x1DD5 DUP2 PUSH2 0x2739 JUMP JUMPDEST DUP5 ADD SWAP2 POP POP SWAP3 SWAP2 POP POP JUMP JUMPDEST PUSH1 0x0 PUSH2 0x1DEB DUP3 PUSH2 0x2371 JUMP JUMPDEST PUSH2 0x1DF5 DUP2 DUP6 PUSH2 0x238D JUMP JUMPDEST SWAP4 POP PUSH2 0x1E05 DUP2 DUP6 PUSH1 0x20 DUP7 ADD PUSH2 0x252A JUMP JUMPDEST PUSH2 0x1E0E DUP2 PUSH2 0x2739 JUMP JUMPDEST DUP5 ADD SWAP2 POP POP SWAP3 SWAP2 POP POP JUMP JUMPDEST PUSH1 0x0 PUSH2 0x1E24 DUP3 PUSH2 0x2371 JUMP JUMPDEST PUSH2 0x1E2E DUP2 DUP6 PUSH2 0x239E JUMP JUMPDEST SWAP4 POP PUSH2 0x1E3E DUP2 DUP6 PUSH1 0x20 DUP7 ADD PUSH2 0x252A JUMP JUMPDEST DUP1 DUP5 ADD SWAP2 POP POP SWAP3 SWAP2 POP POP JUMP JUMPDEST PUSH1 0x0 PUSH2 0x1E57 PUSH1 0x32 DUP4 PUSH2 0x238D JUMP JUMPDEST SWAP2 POP PUSH2 0x1E62 DUP3 PUSH2 0x274A JUMP JUMPDEST PUSH1 0x40 DUP3 ADD SWAP1 POP SWAP2 SWAP1 POP JUMP JUMPDEST PUSH1 0x0 PUSH2 0x1E7A PUSH1 0x26 DUP4 PUSH2 0x238D JUMP JUMPDEST SWAP2 POP PUSH2 0x1E85 DUP3 PUSH2 0x2799 JUMP JUMPDEST PUSH1 0x40 DUP3 ADD SWAP1 POP SWAP2 SWAP1 POP JUMP JUMPDEST PUSH1 0x0 PUSH2 0x1E9D PUSH1 0x25 DUP4 PUSH2 0x238D JUMP JUMPDEST SWAP2 POP PUSH2 0x1EA8 DUP3 PUSH2 0x27E8 JUMP JUMPDEST PUSH1 0x40 DUP3 ADD SWAP1 POP SWAP2 SWAP1 POP JUMP JUMPDEST PUSH1 0x0 PUSH2 0x1EC0 PUSH1 0x24 DUP4 PUSH2 0x238D JUMP JUMPDEST SWAP2 POP PUSH2 0x1ECB DUP3 PUSH2 0x2837 JUMP JUMPDEST PUSH1 0x40 DUP3 ADD SWAP1 POP SWAP2 SWAP1 POP JUMP JUMPDEST PUSH1 0x0 PUSH2 0x1EE3 PUSH1 0x19 DUP4 PUSH2 0x238D JUMP JUMPDEST SWAP2 POP PUSH2 0x1EEE DUP3 PUSH2 0x2886 JUMP JUMPDEST PUSH1 0x20 DUP3 ADD SWAP1 POP SWAP2 SWAP1 POP JUMP JUMPDEST PUSH1 0x0 PUSH2 0x1F06 PUSH1 0x2C DUP4 PUSH2 0x238D JUMP JUMPDEST SWAP2 POP PUSH2 0x1F11 DUP3 PUSH2 0x28AF JUMP JUMPDEST PUSH1 0x40 DUP3 ADD SWAP1 POP SWAP2 SWAP1 POP JUMP JUMPDEST PUSH1 0x0 PUSH2 0x1F29 PUSH1 0x38 DUP4 PUSH2 0x238D JUMP JUMPDEST SWAP2 POP PUSH2 0x1F34 DUP3 PUSH2 0x28FE JUMP JUMPDEST PUSH1 0x40 DUP3 ADD SWAP1 POP SWAP2 SWAP1 POP JUMP JUMPDEST PUSH1 0x0 PUSH2 0x1F4C PUSH1 0x2A DUP4 PUSH2 0x238D JUMP JUMPDEST SWAP2 POP PUSH2 0x1F57 DUP3 PUSH2 0x294D JUMP JUMPDEST PUSH1 0x40 DUP3 ADD SWAP1 POP SWAP2 SWAP1 POP JUMP JUMPDEST PUSH1 0x0 PUSH2 0x1F6F PUSH1 0x29 DUP4 PUSH2 0x238D JUMP JUMPDEST SWAP2 POP PUSH2 0x1F7A DUP3 PUSH2 0x299C JUMP JUMPDEST PUSH1 0x40 DUP3 ADD SWAP1 POP SWAP2 SWAP1 POP JUMP JUMPDEST PUSH1 0x0 PUSH2 0x1F92 PUSH1 0x2C DUP4 PUSH2 0x238D JUMP JUMPDEST SWAP2 POP PUSH2 0x1F9D DUP3 PUSH2 0x29EB JUMP JUMPDEST PUSH1 0x40 DUP3 ADD SWAP1 POP SWAP2 SWAP1 POP JUMP JUMPDEST PUSH1 0x0 PUSH2 0x1FB5 PUSH1 0x20 DUP4 PUSH2 0x238D JUMP JUMPDEST SWAP2 POP PUSH2 0x1FC0 DUP3 PUSH2 0x2A3A JUMP JUMPDEST PUSH1 0x20 DUP3 ADD SWAP1 POP SWAP2 SWAP1 POP JUMP JUMPDEST PUSH1 0x0 PUSH2 0x1FD8 PUSH1 0x2F DUP4 PUSH2 0x238D JUMP JUMPDEST SWAP2 POP PUSH2 0x1FE3 DUP3 PUSH2 0x2A63 JUMP JUMPDEST PUSH1 0x40 DUP3 ADD SWAP1 POP SWAP2 SWAP1 POP JUMP JUMPDEST PUSH1 0x0 PUSH2 0x1FFB PUSH1 0x21 DUP4 PUSH2 0x238D JUMP JUMPDEST SWAP2 POP PUSH2 0x2006 DUP3 PUSH2 0x2AB2 JUMP JUMPDEST PUSH1 0x40 DUP3 ADD SWAP1 POP SWAP2 SWAP1 POP JUMP JUMPDEST PUSH1 0x0 PUSH2 0x201E PUSH1 0x31 DUP4 PUSH2 0x238D JUMP JUMPDEST SWAP2 POP PUSH2 0x2029 DUP3 PUSH2 0x2B01 JUMP JUMPDEST PUSH1 0x40 DUP3 ADD SWAP1 POP SWAP2 SWAP1 POP JUMP JUMPDEST PUSH2 0x203D DUP2 PUSH2 0x24CE JUMP JUMPDEST DUP3 MSTORE POP POP JUMP JUMPDEST PUSH2 0x204C DUP2 PUSH2 0x24D8 JUMP JUMPDEST DUP3 MSTORE POP POP JUMP JUMPDEST PUSH1 0x0 PUSH2 0x205E DUP3 DUP6 PUSH2 0x1E19 JUMP JUMPDEST SWAP2 POP PUSH2 0x206A DUP3 DUP5 PUSH2 0x1E19 JUMP JUMPDEST SWAP2 POP DUP2 SWAP1 POP SWAP4 SWAP3 POP POP POP JUMP JUMPDEST PUSH1 0x0 PUSH1 0x20 DUP3 ADD SWAP1 POP PUSH2 0x208B PUSH1 0x0 DUP4 ADD DUP5 PUSH2 0x1D89 JUMP JUMPDEST SWAP3 SWAP2 POP POP JUMP JUMPDEST PUSH1 0x0 PUSH1 0x80 DUP3 ADD SWAP1 POP PUSH2 0x20A6 PUSH1 0x0 DUP4 ADD DUP8 PUSH2 0x1D7A JUMP JUMPDEST PUSH2 0x20B3 PUSH1 0x20 DUP4 ADD DUP7 PUSH2 0x1D89 JUMP JUMPDEST PUSH2 0x20C0 PUSH1 0x40 DUP4 ADD DUP6 PUSH2 0x2034 JUMP JUMPDEST DUP2 DUP2 SUB PUSH1 0x60 DUP4 ADD MSTORE PUSH2 0x20D2 DUP2 DUP5 PUSH2 0x1DA7 JUMP JUMPDEST SWAP1 POP SWAP6 SWAP5 POP POP POP POP POP JUMP JUMPDEST PUSH1 0x0 PUSH1 0x20 DUP3 ADD SWAP1 POP PUSH2 0x20F2 PUSH1 0x0 DUP4 ADD DUP5 PUSH2 0x1D98 JUMP JUMPDEST SWAP3 SWAP2 POP POP JUMP JUMPDEST PUSH1 0x0 PUSH1 0x20 DUP3 ADD SWAP1 POP DUP2 DUP2 SUB PUSH1 0x0 DUP4 ADD MSTORE PUSH2 0x2112 DUP2 DUP5 PUSH2 0x1DE0 JUMP JUMPDEST SWAP1 POP SWAP3 SWAP2 POP POP JUMP JUMPDEST PUSH1 0x0 PUSH1 0x20 DUP3 ADD SWAP1 POP DUP2 DUP2 SUB PUSH1 0x0 DUP4 ADD MSTORE PUSH2 0x2133 DUP2 PUSH2 0x1E4A JUMP JUMPDEST SWAP1 POP SWAP2 SWAP1 POP JUMP JUMPDEST PUSH1 0x0 PUSH1 0x20 DUP3 ADD SWAP1 POP DUP2 DUP2 SUB PUSH1 0x0 DUP4 ADD MSTORE PUSH2 0x2153 DUP2 PUSH2 0x1E6D JUMP JUMPDEST SWAP1 POP SWAP2 SWAP1 POP JUMP JUMPDEST PUSH1 0x0 PUSH1 0x20 DUP3 ADD SWAP1 POP DUP2 DUP2 SUB PUSH1 0x0 DUP4 ADD MSTORE PUSH2 0x2173 DUP2 PUSH2 0x1E90 JUMP JUMPDEST SWAP1 POP SWAP2 SWAP1 POP JUMP JUMPDEST PUSH1 0x0 PUSH1 0x20 DUP3 ADD SWAP1 POP DUP2 DUP2 SUB PUSH1 0x0 DUP4 ADD MSTORE PUSH2 0x2193 DUP2 PUSH2 0x1EB3 JUMP JUMPDEST SWAP1 POP SWAP2 SWAP1 POP JUMP JUMPDEST PUSH1 0x0 PUSH1 0x20 DUP3 ADD SWAP1 POP DUP2 DUP2 SUB PUSH1 0x0 DUP4 ADD MSTORE PUSH2 0x21B3 DUP2 PUSH2 0x1ED6 JUMP JUMPDEST SWAP1 POP SWAP2 SWAP1 POP JUMP JUMPDEST PUSH1 0x0 PUSH1 0x20 DUP3 ADD SWAP1 POP DUP2 DUP2 SUB PUSH1 0x0 DUP4 ADD MSTORE PUSH2 0x21D3 DUP2 PUSH2 0x1EF9 JUMP JUMPDEST SWAP1 POP SWAP2 SWAP1 POP JUMP JUMPDEST PUSH1 0x0 PUSH1 0x20 DUP3 ADD SWAP1 POP DUP2 DUP2 SUB PUSH1 0x0 DUP4 ADD MSTORE PUSH2 0x21F3 DUP2 PUSH2 0x1F1C JUMP JUMPDEST SWAP1 POP SWAP2 SWAP1 POP JUMP JUMPDEST PUSH1 0x0 PUSH1 0x20 DUP3 ADD SWAP1 POP DUP2 DUP2 SUB PUSH1 0x0 DUP4 ADD MSTORE PUSH2 0x2213 DUP2 PUSH2 0x1F3F JUMP JUMPDEST SWAP1 POP SWAP2 SWAP1 POP JUMP JUMPDEST PUSH1 0x0 PUSH1 0x20 DUP3 ADD SWAP1 POP DUP2 DUP2 SUB PUSH1 0x0 DUP4 ADD MSTORE PUSH2 0x2233 DUP2 PUSH2 0x1F62 JUMP JUMPDEST SWAP1 POP SWAP2 SWAP1 POP JUMP JUMPDEST PUSH1 0x0 PUSH1 0x20 DUP3 ADD SWAP1 POP DUP2 DUP2 SUB PUSH1 0x0 DUP4 ADD MSTORE PUSH2 0x2253 DUP2 PUSH2 0x1F85 JUMP JUMPDEST SWAP1 POP SWAP2 SWAP1 POP JUMP JUMPDEST PUSH1 0x0 PUSH1 0x20 DUP3 ADD SWAP1 POP DUP2 DUP2 SUB PUSH1 0x0 DUP4 ADD MSTORE PUSH2 0x2273 DUP2 PUSH2 0x1FA8 JUMP JUMPDEST SWAP1 POP SWAP2 SWAP1 POP JUMP JUMPDEST PUSH1 0x0 PUSH1 0x20 DUP3 ADD SWAP1 POP DUP2 DUP2 SUB PUSH1 0x0 DUP4 ADD MSTORE PUSH2 0x2293 DUP2 PUSH2 0x1FCB JUMP JUMPDEST SWAP1 POP SWAP2 SWAP1 POP JUMP JUMPDEST PUSH1 0x0 PUSH1 0x20 DUP3 ADD SWAP1 POP DUP2 DUP2 SUB PUSH1 0x0 DUP4 ADD MSTORE PUSH2 0x22B3 DUP2 PUSH2 0x1FEE JUMP JUMPDEST SWAP1 POP SWAP2 SWAP1 POP JUMP JUMPDEST PUSH1 0x0 PUSH1 0x20 DUP3 ADD SWAP1 POP DUP2 DUP2 SUB PUSH1 0x0 DUP4 ADD MSTORE PUSH2 0x22D3 DUP2 PUSH2 0x2011 JUMP JUMPDEST SWAP1 POP SWAP2 SWAP1 POP JUMP JUMPDEST PUSH1 0x0 PUSH1 0x20 DUP3 ADD SWAP1 POP PUSH2 0x22EF PUSH1 0x0 DUP4 ADD DUP5 PUSH2 0x2034 JUMP JUMPDEST SWAP3 SWAP2 POP POP JUMP JUMPDEST PUSH1 0x0 PUSH1 0x20 DUP3 ADD SWAP1 POP PUSH2 0x230A PUSH1 0x0 DUP4 ADD DUP5 PUSH2 0x2043 JUMP JUMPDEST SWAP3 SWAP2 POP POP JUMP JUMPDEST PUSH1 0x0 PUSH2 0x231A PUSH2 0x232B JUMP JUMPDEST SWAP1 POP PUSH2 0x2326 DUP3 DUP3 PUSH2 0x258F JUMP JUMPDEST SWAP2 SWAP1 POP JUMP JUMPDEST PUSH1 0x0 PUSH1 0x40 MLOAD SWAP1 POP SWAP1 JUMP JUMPDEST PUSH1 0x0 PUSH8 0xFFFFFFFFFFFFFFFF DUP3 GT ISZERO PUSH2 0x2350 JUMPI PUSH2 0x234F PUSH2 0x26F6 JUMP JUMPDEST JUMPDEST PUSH2 0x2359 DUP3 PUSH2 0x2739 JUMP JUMPDEST SWAP1 POP PUSH1 0x20 DUP2 ADD SWAP1 POP SWAP2 SWAP1 POP JUMP JUMPDEST PUSH1 0x0 DUP2 MLOAD SWAP1 POP SWAP2 SWAP1 POP JUMP JUMPDEST PUSH1 0x0 DUP2 MLOAD SWAP1 POP SWAP2 SWAP1 POP JUMP JUMPDEST PUSH1 0x0 DUP3 DUP3 MSTORE PUSH1 0x20 DUP3 ADD SWAP1 POP SWAP3 SWAP2 POP POP JUMP JUMPDEST PUSH1 0x0 DUP3 DUP3 MSTORE PUSH1 0x20 DUP3 ADD SWAP1 POP SWAP3 SWAP2 POP POP JUMP JUMPDEST PUSH1 0x0 DUP2 SWAP1 POP SWAP3 SWAP2 POP POP JUMP JUMPDEST PUSH1 0x0 PUSH2 0x23B4 DUP3 PUSH2 0x24CE JUMP JUMPDEST SWAP2 POP PUSH2 0x23BF DUP4 PUSH2 0x24CE JUMP JUMPDEST SWAP3 POP DUP3 PUSH32 0xFFFFFFFFFFFFFFFFFFFFFFFFFFFFFFFFFFFFFFFFFFFFFFFFFFFFFFFFFFFFFFFF SUB DUP3 GT ISZERO PUSH2 0x23F4 JUMPI PUSH2 0x23F3 PUSH2 0x263A JUMP JUMPDEST JUMPDEST DUP3 DUP3 ADD SWAP1 POP SWAP3 SWAP2 POP POP JUMP JUMPDEST PUSH1 0x0 PUSH2 0x240A DUP3 PUSH2 0x24CE JUMP JUMPDEST SWAP2 POP PUSH2 0x2415 DUP4 PUSH2 0x24CE JUMP JUMPDEST SWAP3 POP DUP3 PUSH2 0x2425 JUMPI PUSH2 0x2424 PUSH2 0x2669 JUMP JUMPDEST JUMPDEST DUP3 DUP3 DIV SWAP1 POP SWAP3 SWAP2 POP POP JUMP JUMPDEST PUSH1 0x0 PUSH2 0x243B DUP3 PUSH2 0x24CE JUMP JUMPDEST SWAP2 POP PUSH2 0x2446 DUP4 PUSH2 0x24CE JUMP JUMPDEST SWAP3 POP DUP3 DUP3 LT ISZERO PUSH2 0x2459 JUMPI PUSH2 0x2458 PUSH2 0x263A JUMP JUMPDEST JUMPDEST DUP3 DUP3 SUB SWAP1 POP SWAP3 SWAP2 POP POP JUMP JUMPDEST PUSH1 0x0 PUSH2 0x246F DUP3 PUSH2 0x24AE JUMP JUMPDEST SWAP1 POP SWAP2 SWAP1 POP JUMP JUMPDEST PUSH1 0x0 DUP2 ISZERO ISZERO SWAP1 POP SWAP2 SWAP1 POP JUMP JUMPDEST PUSH1 0x0 PUSH32 0xFFFFFFFF00000000000000000000000000000000000000000000000000000000 DUP3 AND SWAP1 POP SWAP2 SWAP1 POP JUMP JUMPDEST PUSH1 0x0 PUSH20 0xFFFFFFFFFFFFFFFFFFFFFFFFFFFFFFFFFFFFFFFF DUP3 AND SWAP1 POP SWAP2 SWAP1 POP JUMP JUMPDEST PUSH1 0x0 DUP2 SWAP1 POP SWAP2 SWAP1 POP JUMP JUMPDEST PUSH1 0x0 PUSH1 0xFF DUP3 AND SWAP1 POP SWAP2 SWAP1 POP JUMP JUMPDEST PUSH1 0x0 PUSH2 0x24F0 DUP3 PUSH2 0x24F7 JUMP JUMPDEST SWAP1 POP SWAP2 SWAP1 POP JUMP JUMPDEST PUSH1 0x0 PUSH2 0x2502 DUP3 PUSH2 0x2509 JUMP JUMPDEST SWAP1 POP SWAP2 SWAP1 POP JUMP JUMPDEST PUSH1 0x0 PUSH2 0x2514 DUP3 PUSH2 0x24AE JUMP JUMPDEST SWAP1 POP SWAP2 SWAP1 POP JUMP JUMPDEST DUP3 DUP2 DUP4 CALLDATACOPY PUSH1 0x0 DUP4 DUP4 ADD MSTORE POP POP POP JUMP JUMPDEST PUSH1 0x0 JUMPDEST DUP4 DUP2 LT ISZERO PUSH2 0x2548 JUMPI DUP1 DUP3 ADD MLOAD DUP2 DUP5 ADD MSTORE PUSH1 0x20 DUP2 ADD SWAP1 POP PUSH2 0x252D JUMP JUMPDEST DUP4 DUP2 GT ISZERO PUSH2 0x2557 JUMPI PUSH1 0x0 DUP5 DUP5 ADD MSTORE JUMPDEST POP POP POP POP JUMP JUMPDEST PUSH1 0x0 PUSH1 0x2 DUP3 DIV SWAP1 POP PUSH1 0x1 DUP3 AND DUP1 PUSH2 0x2575 JUMPI PUSH1 0x7F DUP3 AND SWAP2 POP JUMPDEST PUSH1 0x20 DUP3 LT DUP2 EQ ISZERO PUSH2 0x2589 JUMPI PUSH2 0x2588 PUSH2 0x2698 JUMP JUMPDEST JUMPDEST POP SWAP2 SWAP1 POP JUMP JUMPDEST PUSH2 0x2598 DUP3 PUSH2 0x2739 JUMP JUMPDEST DUP2 ADD DUP2 DUP2 LT PUSH8 0xFFFFFFFFFFFFFFFF DUP3 GT OR ISZERO PUSH2 0x25B7 JUMPI PUSH2 0x25B6 PUSH2 0x26F6 JUMP JUMPDEST JUMPDEST DUP1 PUSH1 0x40 MSTORE POP POP POP JUMP JUMPDEST PUSH1 0x0 PUSH2 0x25CB DUP3 PUSH2 0x24CE JUMP JUMPDEST SWAP2 POP PUSH32 0xFFFFFFFFFFFFFFFFFFFFFFFFFFFFFFFFFFFFFFFFFFFFFFFFFFFFFFFFFFFFFFFF DUP3 EQ ISZERO PUSH2 0x25FE JUMPI PUSH2 0x25FD PUSH2 0x263A JUMP JUMPDEST JUMPDEST PUSH1 0x1 DUP3 ADD SWAP1 POP SWAP2 SWAP1 POP JUMP JUMPDEST PUSH1 0x0 PUSH2 0x2614 DUP3 PUSH2 0x24CE JUMP JUMPDEST SWAP2 POP PUSH2 0x261F DUP4 PUSH2 0x24CE JUMP JUMPDEST SWAP3 POP DUP3 PUSH2 0x262F JUMPI PUSH2 0x262E PUSH2 0x2669 JUMP JUMPDEST JUMPDEST DUP3 DUP3 MOD SWAP1 POP SWAP3 SWAP2 POP POP JUMP JUMPDEST PUSH32 0x4E487B7100000000000000000000000000000000000000000000000000000000 PUSH1 0x0 MSTORE PUSH1 0x11 PUSH1 0x4 MSTORE PUSH1 0x24 PUSH1 0x0 REVERT JUMPDEST PUSH32 0x4E487B7100000000000000000000000000000000000000000000000000000000 PUSH1 0x0 MSTORE PUSH1 0x12 PUSH1 0x4 MSTORE PUSH1 0x24 PUSH1 0x0 REVERT JUMPDEST PUSH32 0x4E487B7100000000000000000000000000000000000000000000000000000000 PUSH1 0x0 MSTORE PUSH1 0x22 PUSH1 0x4 MSTORE PUSH1 0x24 PUSH1 0x0 REVERT JUMPDEST PUSH32 0x4E487B7100000000000000000000000000000000000000000000000000000000 PUSH1 0x0 MSTORE PUSH1 0x32 PUSH1 0x4 MSTORE PUSH1 0x24 PUSH1 0x0 REVERT JUMPDEST PUSH32 0x4E487B7100000000000000000000000000000000000000000000000000000000 PUSH1 0x0 MSTORE PUSH1 0x41 PUSH1 0x4 MSTORE PUSH1 0x24 PUSH1 0x0 REVERT JUMPDEST PUSH1 0x0 DUP1 REVERT JUMPDEST PUSH1 0x0 DUP1 REVERT JUMPDEST PUSH1 0x0 DUP1 REVERT JUMPDEST PUSH1 0x0 DUP1 REVERT JUMPDEST PUSH1 0x0 PUSH1 0x1F NOT PUSH1 0x1F DUP4 ADD AND SWAP1 POP SWAP2 SWAP1 POP JUMP JUMPDEST PUSH32 0x4552433732313A207472616E7366657220746F206E6F6E204552433732315265 PUSH1 0x0 DUP3 ADD MSTORE PUSH32 0x63656976657220696D706C656D656E7465720000000000000000000000000000 PUSH1 0x20 DUP3 ADD MSTORE POP JUMP JUMPDEST PUSH32 0x4F776E61626C653A206E6577206F776E657220697320746865207A65726F2061 PUSH1 0x0 DUP3 ADD MSTORE PUSH32 0x6464726573730000000000000000000000000000000000000000000000000000 PUSH1 0x20 DUP3 ADD MSTORE POP JUMP JUMPDEST PUSH32 0x4552433732313A207472616E736665722066726F6D20696E636F727265637420 PUSH1 0x0 DUP3 ADD MSTORE PUSH32 0x6F776E6572000000000000000000000000000000000000000000000000000000 PUSH1 0x20 DUP3 ADD MSTORE POP JUMP JUMPDEST PUSH32 0x4552433732313A207472616E7366657220746F20746865207A65726F20616464 PUSH1 0x0 DUP3 ADD MSTORE PUSH32 0x7265737300000000000000000000000000000000000000000000000000000000 PUSH1 0x20 DUP3 ADD MSTORE POP JUMP JUMPDEST PUSH32 0x4552433732313A20617070726F766520746F2063616C6C657200000000000000 PUSH1 0x0 DUP3 ADD MSTORE POP JUMP JUMPDEST PUSH32 0x4552433732313A206F70657261746F7220717565727920666F72206E6F6E6578 PUSH1 0x0 DUP3 ADD MSTORE PUSH32 0x697374656E7420746F6B656E0000000000000000000000000000000000000000 PUSH1 0x20 DUP3 ADD MSTORE POP JUMP JUMPDEST PUSH32 0x4552433732313A20617070726F76652063616C6C6572206973206E6F74206F77 PUSH1 0x0 DUP3 ADD MSTORE PUSH32 0x6E6572206E6F7220617070726F76656420666F7220616C6C0000000000000000 PUSH1 0x20 DUP3 ADD MSTORE POP JUMP JUMPDEST PUSH32 0x4552433732313A2062616C616E636520717565727920666F7220746865207A65 PUSH1 0x0 DUP3 ADD MSTORE PUSH32 0x726F206164647265737300000000000000000000000000000000000000000000 PUSH1 0x20 DUP3 ADD MSTORE POP JUMP JUMPDEST PUSH32 0x4552433732313A206F776E657220717565727920666F72206E6F6E6578697374 PUSH1 0x0 DUP3 ADD MSTORE PUSH32 0x656E7420746F6B656E0000000000000000000000000000000000000000000000 PUSH1 0x20 DUP3 ADD MSTORE POP JUMP JUMPDEST PUSH32 0x4552433732313A20617070726F76656420717565727920666F72206E6F6E6578 PUSH1 0x0 DUP3 ADD MSTORE PUSH32 0x697374656E7420746F6B656E0000000000000000000000000000000000000000 PUSH1 0x20 DUP3 ADD MSTORE POP JUMP JUMPDEST PUSH32 0x4F776E61626C653A2063616C6C6572206973206E6F7420746865206F776E6572 PUSH1 0x0 DUP3 ADD MSTORE POP JUMP JUMPDEST PUSH32 0x4552433732314D657461646174613A2055524920717565727920666F72206E6F PUSH1 0x0 DUP3 ADD MSTORE PUSH32 0x6E6578697374656E7420746F6B656E0000000000000000000000000000000000 PUSH1 0x20 DUP3 ADD MSTORE POP JUMP JUMPDEST PUSH32 0x4552433732313A20617070726F76616C20746F2063757272656E74206F776E65 PUSH1 0x0 DUP3 ADD MSTORE PUSH32 0x7200000000000000000000000000000000000000000000000000000000000000 PUSH1 0x20 DUP3 ADD MSTORE POP JUMP JUMPDEST PUSH32 0x4552433732313A207472616E736665722063616C6C6572206973206E6F74206F PUSH1 0x0 DUP3 ADD MSTORE PUSH32 0x776E6572206E6F7220617070726F766564000000000000000000000000000000 PUSH1 0x20 DUP3 ADD MSTORE POP JUMP JUMPDEST PUSH2 0x2B59 DUP2 PUSH2 0x2464 JUMP JUMPDEST DUP2 EQ PUSH2 0x2B64 JUMPI PUSH1 0x0 DUP1 REVERT JUMPDEST POP JUMP JUMPDEST PUSH2 0x2B70 DUP2 PUSH2 0x2476 JUMP JUMPDEST DUP2 EQ PUSH2 0x2B7B JUMPI PUSH1 0x0 DUP1 REVERT JUMPDEST POP JUMP JUMPDEST PUSH2 0x2B87 DUP2 PUSH2 0x2482 JUMP JUMPDEST DUP2 EQ PUSH2 0x2B92 JUMPI PUSH1 0x0 DUP1 REVERT JUMPDEST POP JUMP JUMPDEST PUSH2 0x2B9E DUP2 PUSH2 0x24CE JUMP JUMPDEST DUP2 EQ PUSH2 0x2BA9 JUMPI PUSH1 0x0 DUP1 REVERT JUMPDEST POP JUMP INVALID LOG2 PUSH5 0x6970667358 0x22 SLT KECCAK256 DUP15 GT 0x25 EQ MSTORE8 ADDRESS PUSH23 0xCF8416D59B9946082996A5E1DFAC438A4354B6C3EB72B4 PUSH17 0xB164736F6C634300080700330000000000 "
				},
				"gasEstimates": {
					"creation": {
						"codeDepositCost": "2246800",
						"executionCost": "infinite",
						"totalCost": "infinite"
					},
					"external": {
						"approve(address,uint256)": "infinite",
						"balanceOf(address)": "2902",
						"decimals()": "358",
						"getApproved(uint256)": "7434",
						"isApprovedForAll(address,address)": "infinite",
						"isOwner()": "2642",
						"name()": "infinite",
						"owner()": "2611",
						"ownerOf(uint256)": "3088",
						"pause()": "29950",
						"paused()": "2610",
						"renounceOwnership()": "30374",
						"safeTransferFrom(address,address,uint256)": "infinite",
						"safeTransferFrom(address,address,uint256,bytes)": "infinite",
						"setApprovalForAll(address,bool)": "infinite",
						"supportsInterface(bytes4)": "797",
						"symbol()": "infinite",
						"tokenURI(uint256)": "3417",
						"transferFrom(address,address,uint256)": "infinite",
						"transferOwnership(address)": "30839",
						"unpause()": "29925"
					},
					"internal": {
						"_afterTokenTransfer(address,address,uint256)": "15",
						"_approve(address,uint256)": "infinite",
						"_baseURI()": "infinite",
						"_beforeTokenTransfer(address,address,uint256)": "15",
						"_burn(uint256)": "infinite",
						"_checkOnERC721Received(address,address,uint256,bytes memory)": "infinite",
						"_exists(uint256)": "2269",
						"_isApprovedOrOwner(address,uint256)": "infinite",
						"_mint(address,uint256)": "infinite",
						"_safeMint(address,uint256)": "infinite",
						"_safeMint(address,uint256,bytes memory)": "infinite",
						"_safeTransfer(address,address,uint256,bytes memory)": "infinite",
						"_setApprovalForAll(address,address,bool)": "infinite",
						"_transfer(address,address,uint256)": "infinite"
					}
				},
				"methodIdentifiers": {
					"approve(address,uint256)": "095ea7b3",
					"balanceOf(address)": "70a08231",
					"decimals()": "313ce567",
					"getApproved(uint256)": "081812fc",
					"isApprovedForAll(address,address)": "e985e9c5",
					"isOwner()": "8f32d59b",
					"name()": "06fdde03",
					"owner()": "8da5cb5b",
					"ownerOf(uint256)": "6352211e",
					"pause()": "8456cb59",
					"paused()": "5c975abb",
					"renounceOwnership()": "715018a6",
					"safeTransferFrom(address,address,uint256)": "42842e0e",
					"safeTransferFrom(address,address,uint256,bytes)": "b88d4fde",
					"setApprovalForAll(address,bool)": "a22cb465",
					"supportsInterface(bytes4)": "01ffc9a7",
					"symbol()": "95d89b41",
					"tokenURI(uint256)": "c87b56dd",
					"transferFrom(address,address,uint256)": "23b872dd",
					"transferOwnership(address)": "f2fde38b",
					"unpause()": "3f4ba83a"
				}
			},
			"storageLayout": {
				"storage": [
					{
						"astId": 332,
						"contract": "ERC721.sol:ERC721",
						"label": "_owner",
						"offset": 0,
						"slot": "0",
						"type": "t_address"
					},
					{
						"astId": 467,
						"contract": "ERC721.sol:ERC721",
						"label": "paused",
						"offset": 20,
						"slot": "0",
						"type": "t_bool"
					},
					{
						"astId": 580,
						"contract": "ERC721.sol:ERC721",
						"label": "_name",
						"offset": 0,
						"slot": "1",
						"type": "t_string_storage"
					},
					{
						"astId": 582,
						"contract": "ERC721.sol:ERC721",
						"label": "_symbol",
						"offset": 0,
						"slot": "2",
						"type": "t_string_storage"
					},
					{
						"astId": 586,
						"contract": "ERC721.sol:ERC721",
						"label": "_owners",
						"offset": 0,
						"slot": "3",
						"type": "t_mapping(t_uint256,t_address)"
					},
					{
						"astId": 590,
						"contract": "ERC721.sol:ERC721",
						"label": "_balances",
						"offset": 0,
						"slot": "4",
						"type": "t_mapping(t_address,t_uint256)"
					},
					{
						"astId": 594,
						"contract": "ERC721.sol:ERC721",
						"label": "_tokenApprovals",
						"offset": 0,
						"slot": "5",
						"type": "t_mapping(t_uint256,t_address)"
					},
					{
						"astId": 600,
						"contract": "ERC721.sol:ERC721",
						"label": "_operatorApprovals",
						"offset": 0,
						"slot": "6",
						"type": "t_mapping(t_address,t_mapping(t_address,t_bool))"
					}
				],
				"types": {
					"t_address": {
						"encoding": "inplace",
						"label": "address",
						"numberOfBytes": "20"
					},
					"t_bool": {
						"encoding": "inplace",
						"label": "bool",
						"numberOfBytes": "1"
					},
					"t_mapping(t_address,t_bool)": {
						"encoding": "mapping",
						"key": "t_address",
						"label": "mapping(address => bool)",
						"numberOfBytes": "32",
						"value": "t_bool"
					},
					"t_mapping(t_address,t_mapping(t_address,t_bool))": {
						"encoding": "mapping",
						"key": "t_address",
						"label": "mapping(address => mapping(address => bool))",
						"numberOfBytes": "32",
						"value": "t_mapping(t_address,t_bool)"
					},
					"t_mapping(t_address,t_uint256)": {
						"encoding": "mapping",
						"key": "t_address",
						"label": "mapping(address => uint256)",
						"numberOfBytes": "32",
						"value": "t_uint256"
					},
					"t_mapping(t_uint256,t_address)": {
						"encoding": "mapping",
						"key": "t_uint256",
						"label": "mapping(uint256 => address)",
						"numberOfBytes": "32",
						"value": "t_address"
					},
					"t_string_storage": {
						"encoding": "bytes",
						"label": "string",
						"numberOfBytes": "32"
					},
					"t_uint256": {
						"encoding": "inplace",
						"label": "uint256",
						"numberOfBytes": "32"
					}
				}
			},
			"userdoc": {
				"kind": "user",
				"methods": {},
				"version": 1
			}
		}
	}
}