{
	"marketplace.sol": {
		"marketplace": {
			"abi": [
				{
					"inputs": [],
					"stateMutability": "nonpayable",
					"type": "constructor"
				},
				{
					"anonymous": false,
					"inputs": [
						{
							"indexed": true,
							"internalType": "address",
							"name": "previousOwner",
							"type": "address"
						},
						{
							"indexed": true,
							"internalType": "address",
							"name": "newOwner",
							"type": "address"
						}
					],
					"name": "OwnershipTransferred",
					"type": "event"
				},
				{
					"anonymous": false,
					"inputs": [],
					"name": "Pause",
					"type": "event"
				},
				{
					"anonymous": false,
					"inputs": [],
					"name": "Unpause",
					"type": "event"
				},
				{
					"anonymous": false,
					"inputs": [
						{
							"indexed": false,
							"internalType": "address",
							"name": "_LiquidPool",
							"type": "address"
						}
					],
					"name": "changeLiquidPool",
					"type": "event"
				},
				{
					"anonymous": false,
					"inputs": [
						{
							"indexed": false,
							"internalType": "uint256",
							"name": "_MinBnB",
							"type": "uint256"
						}
					],
					"name": "changeMinBnB",
					"type": "event"
				},
				{
					"anonymous": false,
					"inputs": [
						{
							"indexed": false,
							"internalType": "address",
							"name": "_ShoseNFTContract",
							"type": "address"
						}
					],
					"name": "changeShoseNFTContract",
					"type": "event"
				},
				{
					"anonymous": false,
					"inputs": [
						{
							"indexed": false,
							"internalType": "address",
							"name": "_Treasury",
							"type": "address"
						}
					],
					"name": "changeTreasury",
					"type": "event"
				},
				{
					"anonymous": false,
					"inputs": [
						{
							"indexed": false,
							"internalType": "address",
							"name": "_VIMContract",
							"type": "address"
						}
					],
					"name": "changeVIMContract",
					"type": "event"
				},
				{
					"anonymous": false,
					"inputs": [
						{
							"indexed": false,
							"internalType": "uint256",
							"name": "tokenId",
							"type": "uint256"
						}
					],
					"name": "eventCancelSellVicShose",
					"type": "event"
				},
				{
					"anonymous": false,
					"inputs": [
						{
							"indexed": false,
							"internalType": "uint256",
							"name": "tokenId",
							"type": "uint256"
						},
						{
							"indexed": false,
							"internalType": "uint256",
							"name": "price",
							"type": "uint256"
						}
					],
					"name": "eventSellVicShose",
					"type": "event"
				},
				{
					"anonymous": false,
					"inputs": [
						{
							"indexed": false,
							"internalType": "address",
							"name": "to",
							"type": "address"
						},
						{
							"indexed": false,
							"internalType": "uint256",
							"name": "tokenId",
							"type": "uint256"
						}
					],
					"name": "eventtransferVicShose",
					"type": "event"
				},
				{
					"inputs": [
						{
							"internalType": "uint256",
							"name": "tokenId",
							"type": "uint256"
						}
					],
					"name": "CancelSellVicShose",
					"outputs": [],
					"stateMutability": "nonpayable",
					"type": "function"
				},
				{
					"inputs": [],
					"name": "LiquidPool",
					"outputs": [
						{
							"internalType": "address",
							"name": "",
							"type": "address"
						}
					],
					"stateMutability": "view",
					"type": "function"
				},
				{
					"inputs": [],
					"name": "MinBnB",
					"outputs": [
						{
							"internalType": "uint256",
							"name": "",
							"type": "uint256"
						}
					],
					"stateMutability": "view",
					"type": "function"
				},
				{
					"inputs": [
						{
							"internalType": "uint256",
							"name": "tokenId",
							"type": "uint256"
						},
						{
							"internalType": "uint256",
							"name": "price",
							"type": "uint256"
						}
					],
					"name": "SellVicShose",
					"outputs": [],
					"stateMutability": "nonpayable",
					"type": "function"
				},
				{
					"inputs": [],
					"name": "ShoseNFTContract",
					"outputs": [
						{
							"internalType": "address",
							"name": "",
							"type": "address"
						}
					],
					"stateMutability": "view",
					"type": "function"
				},
				{
					"inputs": [],
					"name": "Treasury",
					"outputs": [
						{
							"internalType": "address",
							"name": "",
							"type": "address"
						}
					],
					"stateMutability": "view",
					"type": "function"
				},
				{
					"inputs": [],
					"name": "VIMContract",
					"outputs": [
						{
							"internalType": "address",
							"name": "",
							"type": "address"
						}
					],
					"stateMutability": "view",
					"type": "function"
				},
				{
					"inputs": [],
					"name": "WBNBContract",
					"outputs": [
						{
							"internalType": "address",
							"name": "",
							"type": "address"
						}
					],
					"stateMutability": "view",
					"type": "function"
				},
				{
					"inputs": [
						{
							"internalType": "uint256",
							"name": "tokenId",
							"type": "uint256"
						}
					],
					"name": "checkShoseTranfer",
					"outputs": [
						{
							"internalType": "address",
							"name": "",
							"type": "address"
						}
					],
					"stateMutability": "view",
					"type": "function"
				},
				{
					"inputs": [],
					"name": "getMINPrice",
					"outputs": [
						{
							"internalType": "uint256",
							"name": "",
							"type": "uint256"
						}
					],
					"stateMutability": "view",
					"type": "function"
				},
				{
					"inputs": [],
					"name": "getSellingShose",
					"outputs": [
						{
							"internalType": "uint256[]",
							"name": "_tokenID",
							"type": "uint256[]"
						},
						{
							"internalType": "address[]",
							"name": "_owner",
							"type": "address[]"
						},
						{
							"internalType": "uint256[]",
							"name": "_Price",
							"type": "uint256[]"
						}
					],
					"stateMutability": "view",
					"type": "function"
				},
				{
					"inputs": [],
					"name": "isOwner",
					"outputs": [
						{
							"internalType": "bool",
							"name": "",
							"type": "bool"
						}
					],
					"stateMutability": "view",
					"type": "function"
				},
				{
					"inputs": [],
					"name": "owner",
					"outputs": [
						{
							"internalType": "address",
							"name": "",
							"type": "address"
						}
					],
					"stateMutability": "view",
					"type": "function"
				},
				{
					"inputs": [],
					"name": "pause",
					"outputs": [
						{
							"internalType": "bool",
							"name": "",
							"type": "bool"
						}
					],
					"stateMutability": "nonpayable",
					"type": "function"
				},
				{
					"inputs": [],
					"name": "paused",
					"outputs": [
						{
							"internalType": "bool",
							"name": "",
							"type": "bool"
						}
					],
					"stateMutability": "view",
					"type": "function"
				},
				{
					"inputs": [],
					"name": "renounceOwnership",
					"outputs": [],
					"stateMutability": "nonpayable",
					"type": "function"
				},
				{
					"inputs": [
						{
							"internalType": "address",
							"name": "_LiquidPool",
							"type": "address"
						}
					],
					"name": "setLiquidPool",
					"outputs": [],
					"stateMutability": "nonpayable",
					"type": "function"
				},
				{
					"inputs": [
						{
							"internalType": "uint256",
							"name": "_MinBnB",
							"type": "uint256"
						}
					],
					"name": "setMinBNB",
					"outputs": [],
					"stateMutability": "nonpayable",
					"type": "function"
				},
				{
					"inputs": [
						{
							"internalType": "address",
							"name": "_ShoseNFTContract",
							"type": "address"
						}
					],
					"name": "setShoseNFTContract",
					"outputs": [],
					"stateMutability": "nonpayable",
					"type": "function"
				},
				{
					"inputs": [
						{
							"internalType": "address",
							"name": "_Treasury",
							"type": "address"
						}
					],
					"name": "setTreasury",
					"outputs": [],
					"stateMutability": "nonpayable",
					"type": "function"
				},
				{
					"inputs": [
						{
							"internalType": "address",
							"name": "_VIMContract",
							"type": "address"
						}
					],
					"name": "setVIMContract",
					"outputs": [],
					"stateMutability": "nonpayable",
					"type": "function"
				},
				{
					"inputs": [
						{
							"internalType": "address",
							"name": "newOwner",
							"type": "address"
						}
					],
					"name": "transferOwnership",
					"outputs": [],
					"stateMutability": "nonpayable",
					"type": "function"
				},
				{
					"inputs": [
						{
							"internalType": "address",
							"name": "to",
							"type": "address"
						},
						{
							"internalType": "uint256",
							"name": "tokenId",
							"type": "uint256"
						}
					],
					"name": "transferVicShose",
					"outputs": [],
					"stateMutability": "nonpayable",
					"type": "function"
				},
				{
					"inputs": [],
					"name": "unpause",
					"outputs": [
						{
							"internalType": "bool",
							"name": "",
							"type": "bool"
						}
					],
					"stateMutability": "nonpayable",
					"type": "function"
				}
			],
			"devdoc": {
				"kind": "dev",
				"methods": {
					"isOwner()": {
						"details": "Returns true if the caller is the current owner."
					},
					"owner()": {
						"details": "Returns the address of the current owner."
					},
					"pause()": {
						"details": "called by the owner to pause, triggers stopped state"
					},
					"renounceOwnership()": {
						"details": "Leaves the contract without owner. It will not be possible to call `onlyOwner` functions anymore. Can only be called by the current owner. NOTE: Renouncing ownership will leave the contract without an owner, thereby removing any functionality that is only available to the owner."
					},
					"transferOwnership(address)": {
						"details": "Transfers ownership of the contract to a new account (`newOwner`). Can only be called by the current owner."
					},
					"unpause()": {
						"details": "called by the owner to unpause, returns to normal state"
					}
				},
				"version": 1
			},
			"evm": {
				"assembly": "    /* \"marketplace.sol\":229:5857  contract marketplace is BEPPausable {... */\n  mstore(0x40, 0x80)\n    /* \"BEPPausable.sol\":293:298  false */\n  0x00\n    /* \"BEPPausable.sol\":272:298  bool public paused = false */\n  dup1\n  exp(0x0100, 0x14)\n  dup2\n  sload\n  dup2\n  0xff\n  mul\n  not\n  and\n  swap1\n  dup4\n  iszero\n  iszero\n  mul\n  or\n  swap1\n  sstore\n  pop\n    /* \"marketplace.sol\":1079:1453  constructor() { ... */\n  callvalue\n  dup1\n  iszero\n  tag_1\n  jumpi\n  0x00\n  dup1\n  revert\ntag_1:\n  pop\n    /* \"BEPOwnable.sol\":716:733  address msgSender */\n  0x00\n    /* \"BEPOwnable.sol\":736:748  _msgSender() */\n  tag_7\n    /* \"BEPOwnable.sol\":736:746  _msgSender */\n  shl(0x20, tag_8)\n    /* \"BEPOwnable.sol\":736:748  _msgSender() */\n  0x20\n  shr\n  jump\t// in\ntag_7:\n    /* \"BEPOwnable.sol\":716:748  address msgSender = _msgSender() */\n  swap1\n  pop\n    /* \"BEPOwnable.sol\":763:772  msgSender */\n  dup1\n    /* \"BEPOwnable.sol\":754:760  _owner */\n  0x00\n  dup1\n    /* \"BEPOwnable.sol\":754:772  _owner = msgSender */\n  0x0100\n  exp\n  dup2\n  sload\n  dup2\n  0xffffffffffffffffffffffffffffffffffffffff\n  mul\n  not\n  and\n  swap1\n  dup4\n  0xffffffffffffffffffffffffffffffffffffffff\n  and\n  mul\n  or\n  swap1\n  sstore\n  pop\n    /* \"BEPOwnable.sol\":816:825  msgSender */\n  dup1\n    /* \"BEPOwnable.sol\":783:826  OwnershipTransferred(address(0), msgSender) */\n  0xffffffffffffffffffffffffffffffffffffffff\n  and\n    /* \"BEPOwnable.sol\":812:813  0 */\n  0x00\n    /* \"BEPOwnable.sol\":783:826  OwnershipTransferred(address(0), msgSender) */\n  0xffffffffffffffffffffffffffffffffffffffff\n  and\n  0x8be0079c531659141344cd1fd0a4f28419497f9722a3daafe3b4186f6b6457e0\n  mload(0x40)\n  mload(0x40)\n  dup1\n  swap2\n  sub\n  swap1\n  log3\n    /* \"BEPOwnable.sol\":710:831  {... */\n  pop\n    /* \"marketplace.sol\":1115:1157  0xcb3745379275252F4beB5d1094bF1a8A09F368b7 */\n  0xcb3745379275252f4beb5d1094bf1a8a09f368b7\n    /* \"marketplace.sol\":1104:1112  Treasury */\n  0x01\n  0x00\n    /* \"marketplace.sol\":1104:1157  Treasury = 0xcb3745379275252F4beB5d1094bF1a8A09F368b7 */\n  0x0100\n  exp\n  dup2\n  sload\n  dup2\n  0xffffffffffffffffffffffffffffffffffffffff\n  mul\n  not\n  and\n  swap1\n  dup4\n  0xffffffffffffffffffffffffffffffffffffffff\n  and\n  mul\n  or\n  swap1\n  sstore\n  pop\n    /* \"marketplace.sol\":1180:1222  0xd295cF5D859B9Ed331cdF69c49A81Eff5e1Bee83 */\n  0xd295cf5d859b9ed331cdf69c49a81eff5e1bee83\n    /* \"marketplace.sol\":1167:1177  LiquidPool */\n  0x02\n  0x00\n    /* \"marketplace.sol\":1167:1222  LiquidPool = 0xd295cF5D859B9Ed331cdF69c49A81Eff5e1Bee83 */\n  0x0100\n  exp\n  dup2\n  sload\n  dup2\n  0xffffffffffffffffffffffffffffffffffffffff\n  mul\n  not\n  and\n  swap1\n  dup4\n  0xffffffffffffffffffffffffffffffffffffffff\n  and\n  mul\n  or\n  swap1\n  sstore\n  pop\n    /* \"marketplace.sol\":1251:1293  0xC184af52Ca4E1B1f085aA8236Ff8508F52dc6eA7 */\n  0xc184af52ca4e1b1f085aa8236ff8508f52dc6ea7\n    /* \"marketplace.sol\":1232:1248  ShoseNFTContract */\n  0x03\n  0x00\n    /* \"marketplace.sol\":1232:1293  ShoseNFTContract = 0xC184af52Ca4E1B1f085aA8236Ff8508F52dc6eA7 */\n  0x0100\n  exp\n  dup2\n  sload\n  dup2\n  0xffffffffffffffffffffffffffffffffffffffff\n  mul\n  not\n  and\n  swap1\n  dup4\n  0xffffffffffffffffffffffffffffffffffffffff\n  and\n  mul\n  or\n  swap1\n  sstore\n  pop\n    /* \"marketplace.sol\":1317:1359  0x5bcd91C734d665Fe426A5D7156f2aD7d37b76e30 */\n  0x5bcd91c734d665fe426a5d7156f2ad7d37b76e30\n    /* \"marketplace.sol\":1303:1314  VIMContract */\n  0x04\n  0x00\n    /* \"marketplace.sol\":1303:1359  VIMContract = 0x5bcd91C734d665Fe426A5D7156f2aD7d37b76e30 */\n  0x0100\n  exp\n  dup2\n  sload\n  dup2\n  0xffffffffffffffffffffffffffffffffffffffff\n  mul\n  not\n  and\n  swap1\n  dup4\n  0xffffffffffffffffffffffffffffffffffffffff\n  and\n  mul\n  or\n  swap1\n  sstore\n  pop\n    /* \"marketplace.sol\":1384:1426  0xbb4CdB9CBd36B01bD1cBaEBF2De08d9173bc095c */\n  0xbb4cdb9cbd36b01bd1cbaebf2de08d9173bc095c\n    /* \"marketplace.sol\":1369:1381  WBNBContract */\n  0x05\n  0x00\n    /* \"marketplace.sol\":1369:1426  WBNBContract = 0xbb4CdB9CBd36B01bD1cBaEBF2De08d9173bc095c */\n  0x0100\n  exp\n  dup2\n  sload\n  dup2\n  0xffffffffffffffffffffffffffffffffffffffff\n  mul\n  not\n  and\n  swap1\n  dup4\n  0xffffffffffffffffffffffffffffffffffffffff\n  and\n  mul\n  or\n  swap1\n  sstore\n  pop\n    /* \"marketplace.sol\":1445:1446  6 */\n  0x06\n    /* \"marketplace.sol\":1436:1442  MinBnB */\n  dup1\n    /* \"marketplace.sol\":1436:1446  MinBnB = 6 */\n  dup2\n  swap1\n  sstore\n  pop\n    /* \"marketplace.sol\":229:5857  contract marketplace is BEPPausable {... */\n  jump(tag_10)\n    /* \"BEPContext.sol\":760:859  function _msgSender() internal view returns (address payable) {... */\ntag_8:\n    /* \"BEPContext.sol\":805:820  address payable */\n  0x00\n    /* \"BEPContext.sol\":843:853  msg.sender */\n  caller\n    /* \"BEPContext.sol\":828:854  return payable(msg.sender) */\n  swap1\n  pop\n    /* \"BEPContext.sol\":760:859  function _msgSender() internal view returns (address payable) {... */\n  swap1\n  jump\t// out\n    /* \"marketplace.sol\":229:5857  contract marketplace is BEPPausable {... */\ntag_10:\n  dataSize(sub_0)\n  dup1\n  dataOffset(sub_0)\n  0x00\n  codecopy\n  0x00\n  return\nstop\n\nsub_0: assembly {\n        /* \"marketplace.sol\":229:5857  contract marketplace is BEPPausable {... */\n      mstore(0x40, 0x80)\n      callvalue\n      dup1\n      iszero\n      tag_1\n      jumpi\n      0x00\n      dup1\n      revert\n    tag_1:\n      pop\n      jumpi(tag_2, lt(calldatasize, 0x04))\n      shr(0xe0, calldataload(0x00))\n      dup1\n      0x8456cb59\n      gt\n      tag_27\n      jumpi\n      dup1\n      0xbcfcba76\n      gt\n      tag_28\n      jumpi\n      dup1\n      0xbcfcba76\n      eq\n      tag_21\n      jumpi\n      dup1\n      0xd8882779\n      eq\n      tag_22\n      jumpi\n      dup1\n      0xde281e28\n      eq\n      tag_23\n      jumpi\n      dup1\n      0xea156f44\n      eq\n      tag_24\n      jumpi\n      dup1\n      0xf0f44260\n      eq\n      tag_25\n      jumpi\n      dup1\n      0xf2fde38b\n      eq\n      tag_26\n      jumpi\n      jump(tag_2)\n    tag_28:\n      dup1\n      0x8456cb59\n      eq\n      tag_15\n      jumpi\n      dup1\n      0x8da5cb5b\n      eq\n      tag_16\n      jumpi\n      dup1\n      0x8f32d59b\n      eq\n      tag_17\n      jumpi\n      dup1\n      0x99bc1bfb\n      eq\n      tag_18\n      jumpi\n      dup1\n      0xa888a93a\n      eq\n      tag_19\n      jumpi\n      dup1\n      0xb5620229\n      eq\n      tag_20\n      jumpi\n      jump(tag_2)\n    tag_27:\n      dup1\n      0x563df32f\n      gt\n      tag_29\n      jumpi\n      dup1\n      0x563df32f\n      eq\n      tag_9\n      jumpi\n      dup1\n      0x59464217\n      eq\n      tag_10\n      jumpi\n      dup1\n      0x5c975abb\n      eq\n      tag_11\n      jumpi\n      dup1\n      0x5c9e0d10\n      eq\n      tag_12\n      jumpi\n      dup1\n      0x715018a6\n      eq\n      tag_13\n      jumpi\n      dup1\n      0x83d58215\n      eq\n      tag_14\n      jumpi\n      jump(tag_2)\n    tag_29:\n      dup1\n      0x0ff32839\n      eq\n      tag_3\n      jumpi\n      dup1\n      0x1ecff38e\n      eq\n      tag_4\n      jumpi\n      dup1\n      0x36c3b4e2\n      eq\n      tag_5\n      jumpi\n      dup1\n      0x3f4ba83a\n      eq\n      tag_6\n      jumpi\n      dup1\n      0x458a635a\n      eq\n      tag_7\n      jumpi\n      dup1\n      0x4dd79f10\n      eq\n      tag_8\n      jumpi\n    tag_2:\n      0x00\n      dup1\n      revert\n        /* \"marketplace.sol\":401:428  address public WBNBContract */\n    tag_3:\n      tag_30\n      tag_31\n      jump\t// in\n    tag_30:\n      mload(0x40)\n      tag_32\n      swap2\n      swap1\n      tag_33\n      jump\t// in\n    tag_32:\n      mload(0x40)\n      dup1\n      swap2\n      sub\n      swap1\n      return\n        /* \"marketplace.sol\":1943:2096  function setVIMContract(address _VIMContract) external onlyOwner {... */\n    tag_4:\n      tag_34\n      0x04\n      dup1\n      calldatasize\n      sub\n      dup2\n      add\n      swap1\n      tag_35\n      swap2\n      swap1\n      tag_36\n      jump\t// in\n    tag_35:\n      tag_37\n      jump\t// in\n    tag_34:\n      stop\n        /* \"marketplace.sol\":301:326  address public LiquidPool */\n    tag_5:\n      tag_38\n      tag_39\n      jump\t// in\n    tag_38:\n      mload(0x40)\n      tag_40\n      swap2\n      swap1\n      tag_33\n      jump\t// in\n    tag_40:\n      mload(0x40)\n      dup1\n      swap2\n      sub\n      swap1\n      return\n        /* \"BEPPausable.sol\":870:994  function unpause() public onlyOwner whenPaused returns (bool) {... */\n    tag_6:\n      tag_41\n      tag_42\n      jump\t// in\n    tag_41:\n      mload(0x40)\n      tag_43\n      swap2\n      swap1\n      tag_44\n      jump\t// in\n    tag_43:\n      mload(0x40)\n      dup1\n      swap2\n      sub\n      swap1\n      return\n        /* \"marketplace.sol\":1754:1937  function setShoseNFTContract(address _ShoseNFTContract) external onlyOwner {... */\n    tag_7:\n      tag_45\n      0x04\n      dup1\n      calldatasize\n      sub\n      dup2\n      add\n      swap1\n      tag_46\n      swap2\n      swap1\n      tag_36\n      jump\t// in\n    tag_46:\n      tag_47\n      jump\t// in\n    tag_45:\n      stop\n        /* \"marketplace.sol\":3813:4181  function CancelSellVicShose(uint256 tokenId) external whenNotPaused {... */\n    tag_8:\n      tag_48\n      0x04\n      dup1\n      calldatasize\n      sub\n      dup2\n      add\n      swap1\n      tag_49\n      swap2\n      swap1\n      tag_50\n      jump\t// in\n    tag_49:\n      tag_51\n      jump\t// in\n    tag_48:\n      stop\n        /* \"marketplace.sol\":272:295  address public Treasury */\n    tag_9:\n      tag_52\n      tag_53\n      jump\t// in\n    tag_52:\n      mload(0x40)\n      tag_54\n      swap2\n      swap1\n      tag_33\n      jump\t// in\n    tag_54:\n      mload(0x40)\n      dup1\n      swap2\n      sub\n      swap1\n      return\n        /* \"marketplace.sol\":3116:3243  function checkShoseTranfer(uint256 tokenId) public view virtual returns (address) {... */\n    tag_10:\n      tag_55\n      0x04\n      dup1\n      calldatasize\n      sub\n      dup2\n      add\n      swap1\n      tag_56\n      swap2\n      swap1\n      tag_50\n      jump\t// in\n    tag_56:\n      tag_57\n      jump\t// in\n    tag_55:\n      mload(0x40)\n      tag_58\n      swap2\n      swap1\n      tag_33\n      jump\t// in\n    tag_58:\n      mload(0x40)\n      dup1\n      swap2\n      sub\n      swap1\n      return\n        /* \"BEPPausable.sol\":272:298  bool public paused = false */\n    tag_11:\n      tag_59\n      tag_60\n      jump\t// in\n    tag_59:\n      mload(0x40)\n      tag_61\n      swap2\n      swap1\n      tag_44\n      jump\t// in\n    tag_61:\n      mload(0x40)\n      dup1\n      swap2\n      sub\n      swap1\n      return\n        /* \"marketplace.sol\":2580:3111  function transferVicShose(address to,uint256 tokenId) external whenNotPaused {... */\n    tag_12:\n      tag_62\n      0x04\n      dup1\n      calldatasize\n      sub\n      dup2\n      add\n      swap1\n      tag_63\n      swap2\n      swap1\n      tag_64\n      jump\t// in\n    tag_63:\n      tag_65\n      jump\t// in\n    tag_62:\n      stop\n        /* \"BEPOwnable.sol\":1630:1757  function renounceOwnership() public onlyOwner {... */\n    tag_13:\n      tag_66\n      tag_67\n      jump\t// in\n    tag_66:\n      stop\n        /* \"marketplace.sol\":3249:3807  function SellVicShose(uint256 tokenId,uint256 price) external whenNotPaused {... */\n    tag_14:\n      tag_68\n      0x04\n      dup1\n      calldatasize\n      sub\n      dup2\n      add\n      swap1\n      tag_69\n      swap2\n      swap1\n      tag_70\n      jump\t// in\n    tag_69:\n      tag_71\n      jump\t// in\n    tag_68:\n      stop\n        /* \"BEPPausable.sol\":666:788  function pause() public onlyOwner whenNotPaused returns (bool) {... */\n    tag_15:\n      tag_72\n      tag_73\n      jump\t// in\n    tag_72:\n      mload(0x40)\n      tag_74\n      swap2\n      swap1\n      tag_44\n      jump\t// in\n    tag_74:\n      mload(0x40)\n      dup1\n      swap2\n      sub\n      swap1\n      return\n        /* \"BEPOwnable.sol\":899:970  function owner() public view returns (address) {... */\n    tag_16:\n      tag_75\n      tag_76\n      jump\t// in\n    tag_75:\n      mload(0x40)\n      tag_77\n      swap2\n      swap1\n      tag_33\n      jump\t// in\n    tag_77:\n      mload(0x40)\n      dup1\n      swap2\n      sub\n      swap1\n      return\n        /* \"BEPOwnable.sol\":1218:1304  function isOwner() public view returns (bool) {... */\n    tag_17:\n      tag_78\n      tag_79\n      jump\t// in\n    tag_78:\n      mload(0x40)\n      tag_80\n      swap2\n      swap1\n      tag_44\n      jump\t// in\n    tag_80:\n      mload(0x40)\n      dup1\n      swap2\n      sub\n      swap1\n      return\n        /* \"marketplace.sol\":5320:5855  function getSellingShose() external view returns (uint256[] memory _tokenID,address[] memory _owner, uint256[] memory _Price) {... */\n    tag_18:\n      tag_81\n      tag_82\n      jump\t// in\n    tag_81:\n      mload(0x40)\n      tag_83\n      swap4\n      swap3\n      swap2\n      swap1\n      tag_84\n      jump\t// in\n    tag_83:\n      mload(0x40)\n      dup1\n      swap2\n      sub\n      swap1\n      return\n        /* \"marketplace.sol\":1601:1748  function setLiquidPool(address _LiquidPool) external onlyOwner {... */\n    tag_19:\n      tag_85\n      0x04\n      dup1\n      calldatasize\n      sub\n      dup2\n      add\n      swap1\n      tag_86\n      swap2\n      swap1\n      tag_36\n      jump\t// in\n    tag_86:\n      tag_87\n      jump\t// in\n    tag_85:\n      stop\n        /* \"marketplace.sol\":369:395  address public VIMContract */\n    tag_20:\n      tag_88\n      tag_89\n      jump\t// in\n    tag_88:\n      mload(0x40)\n      tag_90\n      swap2\n      swap1\n      tag_33\n      jump\t// in\n    tag_90:\n      mload(0x40)\n      dup1\n      swap2\n      sub\n      swap1\n      return\n        /* \"marketplace.sol\":434:455  uint256 public MinBnB */\n    tag_21:\n      tag_91\n      tag_92\n      jump\t// in\n    tag_91:\n      mload(0x40)\n      tag_93\n      swap2\n      swap1\n      tag_94\n      jump\t// in\n    tag_93:\n      mload(0x40)\n      dup1\n      swap2\n      sub\n      swap1\n      return\n        /* \"marketplace.sol\":332:363  address public ShoseNFTContract */\n    tag_22:\n      tag_95\n      tag_96\n      jump\t// in\n    tag_95:\n      mload(0x40)\n      tag_97\n      swap2\n      swap1\n      tag_33\n      jump\t// in\n    tag_97:\n      mload(0x40)\n      dup1\n      swap2\n      sub\n      swap1\n      return\n        /* \"marketplace.sol\":2102:2226  function setMinBNB(uint256  _MinBnB) external onlyOwner {... */\n    tag_23:\n      tag_98\n      0x04\n      dup1\n      calldatasize\n      sub\n      dup2\n      add\n      swap1\n      tag_99\n      swap2\n      swap1\n      tag_50\n      jump\t// in\n    tag_99:\n      tag_100\n      jump\t// in\n    tag_98:\n      stop\n        /* \"marketplace.sol\":2233:2574  function getMINPrice() public view virtual returns (uint256) {... */\n    tag_24:\n      tag_101\n      tag_102\n      jump\t// in\n    tag_101:\n      mload(0x40)\n      tag_103\n      swap2\n      swap1\n      tag_94\n      jump\t// in\n    tag_103:\n      mload(0x40)\n      dup1\n      swap2\n      sub\n      swap1\n      return\n        /* \"marketplace.sol\":1459:1594  function setTreasury(address _Treasury) external onlyOwner {... */\n    tag_25:\n      tag_104\n      0x04\n      dup1\n      calldatasize\n      sub\n      dup2\n      add\n      swap1\n      tag_105\n      swap2\n      swap1\n      tag_36\n      jump\t// in\n    tag_105:\n      tag_106\n      jump\t// in\n    tag_104:\n      stop\n        /* \"BEPOwnable.sol\":1896:1997  function transferOwnership(address newOwner) public onlyOwner {... */\n    tag_26:\n      tag_107\n      0x04\n      dup1\n      calldatasize\n      sub\n      dup2\n      add\n      swap1\n      tag_108\n      swap2\n      swap1\n      tag_36\n      jump\t// in\n    tag_108:\n      tag_109\n      jump\t// in\n    tag_107:\n      stop\n        /* \"marketplace.sol\":401:428  address public WBNBContract */\n    tag_31:\n      0x05\n      0x00\n      swap1\n      sload\n      swap1\n      0x0100\n      exp\n      swap1\n      div\n      0xffffffffffffffffffffffffffffffffffffffff\n      and\n      dup2\n      jump\t// out\n        /* \"marketplace.sol\":1943:2096  function setVIMContract(address _VIMContract) external onlyOwner {... */\n    tag_37:\n        /* \"BEPOwnable.sol\":1085:1094  isOwner() */\n      tag_111\n        /* \"BEPOwnable.sol\":1085:1092  isOwner */\n      tag_79\n        /* \"BEPOwnable.sol\":1085:1094  isOwner() */\n      jump\t// in\n    tag_111:\n        /* \"BEPOwnable.sol\":1077:1131  require(isOwner(), \"Ownable: caller is not the owner\") */\n      tag_112\n      jumpi\n      mload(0x40)\n      0x08c379a000000000000000000000000000000000000000000000000000000000\n      dup2\n      mstore\n      0x04\n      add\n      tag_113\n      swap1\n      tag_114\n      jump\t// in\n    tag_113:\n      mload(0x40)\n      dup1\n      swap2\n      sub\n      swap1\n      revert\n    tag_112:\n        /* \"marketplace.sol\":2032:2044  _VIMContract */\n      dup1\n        /* \"marketplace.sol\":2018:2029  VIMContract */\n      0x04\n      0x00\n        /* \"marketplace.sol\":2018:2044  VIMContract = _VIMContract */\n      0x0100\n      exp\n      dup2\n      sload\n      dup2\n      0xffffffffffffffffffffffffffffffffffffffff\n      mul\n      not\n      and\n      swap1\n      dup4\n      0xffffffffffffffffffffffffffffffffffffffff\n      and\n      mul\n      or\n      swap1\n      sstore\n      pop\n        /* \"marketplace.sol\":2059:2089  changeVIMContract(VIMContract) */\n      0x136742181ff5fc7d13f647a125112ec36500105a024ce2dbbb7f28fa375eebfa\n        /* \"marketplace.sol\":2077:2088  VIMContract */\n      0x04\n      0x00\n      swap1\n      sload\n      swap1\n      0x0100\n      exp\n      swap1\n      div\n      0xffffffffffffffffffffffffffffffffffffffff\n      and\n        /* \"marketplace.sol\":2059:2089  changeVIMContract(VIMContract) */\n      mload(0x40)\n      tag_116\n      swap2\n      swap1\n      tag_33\n      jump\t// in\n    tag_116:\n      mload(0x40)\n      dup1\n      swap2\n      sub\n      swap1\n      log1\n        /* \"marketplace.sol\":1943:2096  function setVIMContract(address _VIMContract) external onlyOwner {... */\n      pop\n      jump\t// out\n        /* \"marketplace.sol\":301:326  address public LiquidPool */\n    tag_39:\n      0x02\n      0x00\n      swap1\n      sload\n      swap1\n      0x0100\n      exp\n      swap1\n      div\n      0xffffffffffffffffffffffffffffffffffffffff\n      and\n      dup2\n      jump\t// out\n        /* \"BEPPausable.sol\":870:994  function unpause() public onlyOwner whenPaused returns (bool) {... */\n    tag_42:\n        /* \"BEPPausable.sol\":926:930  bool */\n      0x00\n        /* \"BEPOwnable.sol\":1085:1094  isOwner() */\n      tag_118\n        /* \"BEPOwnable.sol\":1085:1092  isOwner */\n      tag_79\n        /* \"BEPOwnable.sol\":1085:1094  isOwner() */\n      jump\t// in\n    tag_118:\n        /* \"BEPOwnable.sol\":1077:1131  require(isOwner(), \"Ownable: caller is not the owner\") */\n      tag_119\n      jumpi\n      mload(0x40)\n      0x08c379a000000000000000000000000000000000000000000000000000000000\n      dup2\n      mstore\n      0x04\n      add\n      tag_120\n      swap1\n      tag_114\n      jump\t// in\n    tag_120:\n      mload(0x40)\n      dup1\n      swap2\n      sub\n      swap1\n      revert\n    tag_119:\n        /* \"BEPPausable.sol\":568:574  paused */\n      0x00\n      0x14\n      swap1\n      sload\n      swap1\n      0x0100\n      exp\n      swap1\n      div\n      0xff\n      and\n        /* \"BEPPausable.sol\":560:575  require(paused) */\n      tag_122\n      jumpi\n      0x00\n      dup1\n      revert\n    tag_122:\n        /* \"BEPPausable.sol\":947:952  false */\n      0x00\n        /* \"BEPPausable.sol\":938:944  paused */\n      dup1\n      0x14\n        /* \"BEPPausable.sol\":938:952  paused = false */\n      0x0100\n      exp\n      dup2\n      sload\n      dup2\n      0xff\n      mul\n      not\n      and\n      swap1\n      dup4\n      iszero\n      iszero\n      mul\n      or\n      swap1\n      sstore\n      pop\n        /* \"BEPPausable.sol\":963:972  Unpause() */\n      0x7805862f689e2f13df9f062ff482ad3ad112aca9e0847911ed832e158c525b33\n      mload(0x40)\n      mload(0x40)\n      dup1\n      swap2\n      sub\n      swap1\n      log1\n        /* \"BEPPausable.sol\":985:989  true */\n      0x01\n        /* \"BEPPausable.sol\":978:989  return true */\n      swap1\n      pop\n        /* \"BEPPausable.sol\":870:994  function unpause() public onlyOwner whenPaused returns (bool) {... */\n      swap1\n      jump\t// out\n        /* \"marketplace.sol\":1754:1937  function setShoseNFTContract(address _ShoseNFTContract) external onlyOwner {... */\n    tag_47:\n        /* \"BEPOwnable.sol\":1085:1094  isOwner() */\n      tag_125\n        /* \"BEPOwnable.sol\":1085:1092  isOwner */\n      tag_79\n        /* \"BEPOwnable.sol\":1085:1094  isOwner() */\n      jump\t// in\n    tag_125:\n        /* \"BEPOwnable.sol\":1077:1131  require(isOwner(), \"Ownable: caller is not the owner\") */\n      tag_126\n      jumpi\n      mload(0x40)\n      0x08c379a000000000000000000000000000000000000000000000000000000000\n      dup2\n      mstore\n      0x04\n      add\n      tag_127\n      swap1\n      tag_114\n      jump\t// in\n    tag_127:\n      mload(0x40)\n      dup1\n      swap2\n      sub\n      swap1\n      revert\n    tag_126:\n        /* \"marketplace.sol\":1858:1875  _ShoseNFTContract */\n      dup1\n        /* \"marketplace.sol\":1839:1855  ShoseNFTContract */\n      0x03\n      0x00\n        /* \"marketplace.sol\":1839:1875  ShoseNFTContract = _ShoseNFTContract */\n      0x0100\n      exp\n      dup2\n      sload\n      dup2\n      0xffffffffffffffffffffffffffffffffffffffff\n      mul\n      not\n      and\n      swap1\n      dup4\n      0xffffffffffffffffffffffffffffffffffffffff\n      and\n      mul\n      or\n      swap1\n      sstore\n      pop\n        /* \"marketplace.sol\":1890:1930  changeShoseNFTContract(ShoseNFTContract) */\n      0xb01e01d90e1da4079495db07c84276ef34a0ea39cd9be9c3844874eb35616e44\n        /* \"marketplace.sol\":1913:1929  ShoseNFTContract */\n      0x03\n      0x00\n      swap1\n      sload\n      swap1\n      0x0100\n      exp\n      swap1\n      div\n      0xffffffffffffffffffffffffffffffffffffffff\n      and\n        /* \"marketplace.sol\":1890:1930  changeShoseNFTContract(ShoseNFTContract) */\n      mload(0x40)\n      tag_129\n      swap2\n      swap1\n      tag_33\n      jump\t// in\n    tag_129:\n      mload(0x40)\n      dup1\n      swap2\n      sub\n      swap1\n      log1\n        /* \"marketplace.sol\":1754:1937  function setShoseNFTContract(address _ShoseNFTContract) external onlyOwner {... */\n      pop\n      jump\t// out\n        /* \"marketplace.sol\":3813:4181  function CancelSellVicShose(uint256 tokenId) external whenNotPaused {... */\n    tag_51:\n        /* \"BEPPausable.sol\":424:430  paused */\n      0x00\n      0x14\n      swap1\n      sload\n      swap1\n      0x0100\n      exp\n      swap1\n      div\n      0xff\n      and\n        /* \"BEPPausable.sol\":423:430  !paused */\n      iszero\n        /* \"BEPPausable.sol\":415:431  require(!paused) */\n      tag_131\n      jumpi\n      0x00\n      dup1\n      revert\n    tag_131:\n        /* \"marketplace.sol\":3920:3921  0 */\n      0x00\n        /* \"marketplace.sol\":3899:3908  shoseSell */\n      0x08\n        /* \"marketplace.sol\":3899:3917  shoseSell[tokenId] */\n      0x00\n        /* \"marketplace.sol\":3909:3916  tokenId */\n      dup4\n        /* \"marketplace.sol\":3899:3917  shoseSell[tokenId] */\n      dup2\n      mstore\n      0x20\n      add\n      swap1\n      dup2\n      mstore\n      0x20\n      add\n      0x00\n      keccak256\n      sload\n        /* \"marketplace.sol\":3899:3921  shoseSell[tokenId] > 0 */\n      gt\n        /* \"marketplace.sol\":3891:3945  require(shoseSell[tokenId] > 0,\"VicShose not in sell\") */\n      tag_133\n      jumpi\n      mload(0x40)\n      0x08c379a000000000000000000000000000000000000000000000000000000000\n      dup2\n      mstore\n      0x04\n      add\n      tag_134\n      swap1\n      tag_135\n      jump\t// in\n    tag_134:\n      mload(0x40)\n      dup1\n      swap2\n      sub\n      swap1\n      revert\n    tag_133:\n        /* \"marketplace.sol\":3955:3969  address seller */\n      0x00\n        /* \"marketplace.sol\":3972:3982  msg.sender */\n      caller\n        /* \"marketplace.sol\":3955:3982  address seller = msg.sender */\n      swap1\n      pop\n        /* \"marketplace.sol\":4056:4062  seller */\n      dup1\n        /* \"marketplace.sol\":4000:4062  IERC721Enumerable(ShoseNFTContract).ownerOf(tokenId) == seller */\n      0xffffffffffffffffffffffffffffffffffffffff\n      and\n        /* \"marketplace.sol\":4018:4034  ShoseNFTContract */\n      0x03\n      0x00\n      swap1\n      sload\n      swap1\n      0x0100\n      exp\n      swap1\n      div\n      0xffffffffffffffffffffffffffffffffffffffff\n      and\n        /* \"marketplace.sol\":4000:4043  IERC721Enumerable(ShoseNFTContract).ownerOf */\n      0xffffffffffffffffffffffffffffffffffffffff\n      and\n      0x6352211e\n        /* \"marketplace.sol\":4044:4051  tokenId */\n      dup5\n        /* \"marketplace.sol\":4000:4052  IERC721Enumerable(ShoseNFTContract).ownerOf(tokenId) */\n      mload(0x40)\n      dup3\n      0xffffffff\n      and\n      0xe0\n      shl\n      dup2\n      mstore\n      0x04\n      add\n      tag_136\n      swap2\n      swap1\n      tag_94\n      jump\t// in\n    tag_136:\n      0x20\n      mload(0x40)\n      dup1\n      dup4\n      sub\n      dup2\n      dup7\n      dup1\n      extcodesize\n      iszero\n      dup1\n      iszero\n      tag_137\n      jumpi\n      0x00\n      dup1\n      revert\n    tag_137:\n      pop\n      gas\n      staticcall\n      iszero\n      dup1\n      iszero\n      tag_139\n      jumpi\n      returndatasize\n      0x00\n      dup1\n      returndatacopy\n      revert(0x00, returndatasize)\n    tag_139:\n      pop\n      pop\n      pop\n      pop\n      mload(0x40)\n      returndatasize\n      not(0x1f)\n      0x1f\n      dup3\n      add\n      and\n      dup3\n      add\n      dup1\n      0x40\n      mstore\n      pop\n      dup2\n      add\n      swap1\n      tag_140\n      swap2\n      swap1\n      tag_141\n      jump\t// in\n    tag_140:\n        /* \"marketplace.sol\":4000:4062  IERC721Enumerable(ShoseNFTContract).ownerOf(tokenId) == seller */\n      0xffffffffffffffffffffffffffffffffffffffff\n      and\n      eq\n        /* \"marketplace.sol\":3992:4095  require(IERC721Enumerable(ShoseNFTContract).ownerOf(tokenId) == seller,\"seller need have this tokenid\") */\n      tag_142\n      jumpi\n      mload(0x40)\n      0x08c379a000000000000000000000000000000000000000000000000000000000\n      dup2\n      mstore\n      0x04\n      add\n      tag_143\n      swap1\n      tag_144\n      jump\t// in\n    tag_143:\n      mload(0x40)\n      dup1\n      swap2\n      sub\n      swap1\n      revert\n    tag_142:\n        /* \"marketplace.sol\":4105:4127  removeNFTSell(tokenId) */\n      tag_145\n        /* \"marketplace.sol\":4119:4126  tokenId */\n      dup3\n        /* \"marketplace.sol\":4105:4118  removeNFTSell */\n      tag_146\n        /* \"marketplace.sol\":4105:4127  removeNFTSell(tokenId) */\n      jump\t// in\n    tag_145:\n        /* \"marketplace.sol\":4142:4174  eventCancelSellVicShose(tokenId) */\n      0xd4ceea0833ac36cc33c805e4f164dedb6d75e092a34e14083bbb87976befdecf\n        /* \"marketplace.sol\":4166:4173  tokenId */\n      dup3\n        /* \"marketplace.sol\":4142:4174  eventCancelSellVicShose(tokenId) */\n      mload(0x40)\n      tag_147\n      swap2\n      swap1\n      tag_94\n      jump\t// in\n    tag_147:\n      mload(0x40)\n      dup1\n      swap2\n      sub\n      swap1\n      log1\n        /* \"marketplace.sol\":3881:4181  {... */\n      pop\n        /* \"marketplace.sol\":3813:4181  function CancelSellVicShose(uint256 tokenId) external whenNotPaused {... */\n      pop\n      jump\t// out\n        /* \"marketplace.sol\":272:295  address public Treasury */\n    tag_53:\n      0x01\n      0x00\n      swap1\n      sload\n      swap1\n      0x0100\n      exp\n      swap1\n      div\n      0xffffffffffffffffffffffffffffffffffffffff\n      and\n      dup2\n      jump\t// out\n        /* \"marketplace.sol\":3116:3243  function checkShoseTranfer(uint256 tokenId) public view virtual returns (address) {... */\n    tag_57:\n        /* \"marketplace.sol\":3189:3196  address */\n      0x00\n        /* \"marketplace.sol\":3215:3227  shoseTranfer */\n      0x07\n        /* \"marketplace.sol\":3215:3236  shoseTranfer[tokenId] */\n      0x00\n        /* \"marketplace.sol\":3228:3235  tokenId */\n      dup4\n        /* \"marketplace.sol\":3215:3236  shoseTranfer[tokenId] */\n      dup2\n      mstore\n      0x20\n      add\n      swap1\n      dup2\n      mstore\n      0x20\n      add\n      0x00\n      keccak256\n      0x00\n      swap1\n      sload\n      swap1\n      0x0100\n      exp\n      swap1\n      div\n      0xffffffffffffffffffffffffffffffffffffffff\n      and\n        /* \"marketplace.sol\":3208:3236  return shoseTranfer[tokenId] */\n      swap1\n      pop\n        /* \"marketplace.sol\":3116:3243  function checkShoseTranfer(uint256 tokenId) public view virtual returns (address) {... */\n      swap2\n      swap1\n      pop\n      jump\t// out\n        /* \"BEPPausable.sol\":272:298  bool public paused = false */\n    tag_60:\n      0x00\n      0x14\n      swap1\n      sload\n      swap1\n      0x0100\n      exp\n      swap1\n      div\n      0xff\n      and\n      dup2\n      jump\t// out\n        /* \"marketplace.sol\":2580:3111  function transferVicShose(address to,uint256 tokenId) external whenNotPaused {... */\n    tag_65:\n        /* \"BEPPausable.sol\":424:430  paused */\n      0x00\n      0x14\n      swap1\n      sload\n      swap1\n      0x0100\n      exp\n      swap1\n      div\n      0xff\n      and\n        /* \"BEPPausable.sol\":423:430  !paused */\n      iszero\n        /* \"BEPPausable.sol\":415:431  require(!paused) */\n      tag_150\n      jumpi\n      0x00\n      dup1\n      revert\n    tag_150:\n        /* \"marketplace.sol\":2667:2679  address from */\n      0x00\n        /* \"marketplace.sol\":2682:2692  msg.sender */\n      caller\n        /* \"marketplace.sol\":2667:2692  address from = msg.sender */\n      swap1\n      pop\n        /* \"marketplace.sol\":2728:2744  ShoseNFTContract */\n      0x03\n      0x00\n      swap1\n      sload\n      swap1\n      0x0100\n      exp\n      swap1\n      div\n      0xffffffffffffffffffffffffffffffffffffffff\n      and\n        /* \"marketplace.sol\":2710:2762  IERC721Enumerable(ShoseNFTContract).isApprovedForAll */\n      0xffffffffffffffffffffffffffffffffffffffff\n      and\n      0xe985e9c5\n        /* \"marketplace.sol\":2763:2767  from */\n      dup3\n        /* \"marketplace.sol\":2776:2780  this */\n      address\n        /* \"marketplace.sol\":2710:2782  IERC721Enumerable(ShoseNFTContract).isApprovedForAll(from,address(this)) */\n      mload(0x40)\n      dup4\n      0xffffffff\n      and\n      0xe0\n      shl\n      dup2\n      mstore\n      0x04\n      add\n      tag_152\n      swap3\n      swap2\n      swap1\n      tag_153\n      jump\t// in\n    tag_152:\n      0x20\n      mload(0x40)\n      dup1\n      dup4\n      sub\n      dup2\n      dup7\n      dup1\n      extcodesize\n      iszero\n      dup1\n      iszero\n      tag_154\n      jumpi\n      0x00\n      dup1\n      revert\n    tag_154:\n      pop\n      gas\n      staticcall\n      iszero\n      dup1\n      iszero\n      tag_156\n      jumpi\n      returndatasize\n      0x00\n      dup1\n      returndatacopy\n      revert(0x00, returndatasize)\n    tag_156:\n      pop\n      pop\n      pop\n      pop\n      mload(0x40)\n      returndatasize\n      not(0x1f)\n      0x1f\n      dup3\n      add\n      and\n      dup3\n      add\n      dup1\n      0x40\n      mstore\n      pop\n      dup2\n      add\n      swap1\n      tag_157\n      swap2\n      swap1\n      tag_158\n      jump\t// in\n    tag_157:\n        /* \"marketplace.sol\":2702:2826  require(IERC721Enumerable(ShoseNFTContract).isApprovedForAll(from,address(this)),\"You need Approve For All to this contact\") */\n      tag_159\n      jumpi\n      mload(0x40)\n      0x08c379a000000000000000000000000000000000000000000000000000000000\n      dup2\n      mstore\n      0x04\n      add\n      tag_160\n      swap1\n      tag_161\n      jump\t// in\n    tag_160:\n      mload(0x40)\n      dup1\n      swap2\n      sub\n      swap1\n      revert\n    tag_159:\n        /* \"marketplace.sol\":2858:2859  0 */\n      0x00\n        /* \"marketplace.sol\":2844:2860  to != address(0) */\n      0xffffffffffffffffffffffffffffffffffffffff\n      and\n        /* \"marketplace.sol\":2844:2846  to */\n      dup4\n        /* \"marketplace.sol\":2844:2860  to != address(0) */\n      0xffffffffffffffffffffffffffffffffffffffff\n      and\n      eq\n      iszero\n        /* \"marketplace.sol\":2836:2884  require(to != address(0),\"Address can not zero\") */\n      tag_162\n      jumpi\n      mload(0x40)\n      0x08c379a000000000000000000000000000000000000000000000000000000000\n      dup2\n      mstore\n      0x04\n      add\n      tag_163\n      swap1\n      tag_164\n      jump\t// in\n    tag_163:\n      mload(0x40)\n      dup1\n      swap2\n      sub\n      swap1\n      revert\n    tag_162:\n        /* \"marketplace.sol\":2908:2912  from */\n      dup1\n        /* \"marketplace.sol\":2902:2912  to != from */\n      0xffffffffffffffffffffffffffffffffffffffff\n      and\n        /* \"marketplace.sol\":2902:2904  to */\n      dup4\n        /* \"marketplace.sol\":2902:2912  to != from */\n      0xffffffffffffffffffffffffffffffffffffffff\n      and\n      eq\n      iszero\n        /* \"marketplace.sol\":2894:2940  require(to != from,\"From and To can not same\") */\n      tag_165\n      jumpi\n      mload(0x40)\n      0x08c379a000000000000000000000000000000000000000000000000000000000\n      dup2\n      mstore\n      0x04\n      add\n      tag_166\n      swap1\n      tag_167\n      jump\t// in\n    tag_166:\n      mload(0x40)\n      dup1\n      swap2\n      sub\n      swap1\n      revert\n    tag_165:\n        /* \"marketplace.sol\":2968:2984  ShoseNFTContract */\n      0x03\n      0x00\n      swap1\n      sload\n      swap1\n      0x0100\n      exp\n      swap1\n      div\n      0xffffffffffffffffffffffffffffffffffffffff\n      and\n        /* \"marketplace.sol\":2950:3002  IERC721Enumerable(ShoseNFTContract).safeTransferFrom */\n      0xffffffffffffffffffffffffffffffffffffffff\n      and\n      0x42842e0e\n        /* \"marketplace.sol\":3003:3007  from */\n      dup3\n        /* \"marketplace.sol\":3009:3011  to */\n      dup6\n        /* \"marketplace.sol\":3012:3019  tokenId */\n      dup6\n        /* \"marketplace.sol\":2950:3020  IERC721Enumerable(ShoseNFTContract).safeTransferFrom(from, to,tokenId) */\n      mload(0x40)\n      dup5\n      0xffffffff\n      and\n      0xe0\n      shl\n      dup2\n      mstore\n      0x04\n      add\n      tag_168\n      swap4\n      swap3\n      swap2\n      swap1\n      tag_169\n      jump\t// in\n    tag_168:\n      0x00\n      mload(0x40)\n      dup1\n      dup4\n      sub\n      dup2\n      0x00\n      dup8\n      dup1\n      extcodesize\n      iszero\n      dup1\n      iszero\n      tag_170\n      jumpi\n      0x00\n      dup1\n      revert\n    tag_170:\n      pop\n      gas\n      call\n      iszero\n      dup1\n      iszero\n      tag_172\n      jumpi\n      returndatasize\n      0x00\n      dup1\n      returndatacopy\n      revert(0x00, returndatasize)\n    tag_172:\n      pop\n      pop\n      pop\n      pop\n        /* \"marketplace.sol\":3054:3056  to */\n      dup3\n        /* \"marketplace.sol\":3030:3042  shoseTranfer */\n      0x07\n        /* \"marketplace.sol\":3030:3051  shoseTranfer[tokenId] */\n      0x00\n        /* \"marketplace.sol\":3043:3050  tokenId */\n      dup5\n        /* \"marketplace.sol\":3030:3051  shoseTranfer[tokenId] */\n      dup2\n      mstore\n      0x20\n      add\n      swap1\n      dup2\n      mstore\n      0x20\n      add\n      0x00\n      keccak256\n      0x00\n        /* \"marketplace.sol\":3030:3056  shoseTranfer[tokenId] = to */\n      0x0100\n      exp\n      dup2\n      sload\n      dup2\n      0xffffffffffffffffffffffffffffffffffffffff\n      mul\n      not\n      and\n      swap1\n      dup4\n      0xffffffffffffffffffffffffffffffffffffffff\n      and\n      mul\n      or\n      swap1\n      sstore\n      pop\n        /* \"marketplace.sol\":3071:3104  eventtransferVicShose(to,tokenId) */\n      0x2a422da7e70b3ca41064be14c50b74a43cbbef24634fa3b7e90d120b8ecc08b3\n        /* \"marketplace.sol\":3093:3095  to */\n      dup4\n        /* \"marketplace.sol\":3096:3103  tokenId */\n      dup4\n        /* \"marketplace.sol\":3071:3104  eventtransferVicShose(to,tokenId) */\n      mload(0x40)\n      tag_173\n      swap3\n      swap2\n      swap1\n      tag_174\n      jump\t// in\n    tag_173:\n      mload(0x40)\n      dup1\n      swap2\n      sub\n      swap1\n      log1\n        /* \"marketplace.sol\":2657:3111  {... */\n      pop\n        /* \"marketplace.sol\":2580:3111  function transferVicShose(address to,uint256 tokenId) external whenNotPaused {... */\n      pop\n      pop\n      jump\t// out\n        /* \"BEPOwnable.sol\":1630:1757  function renounceOwnership() public onlyOwner {... */\n    tag_67:\n        /* \"BEPOwnable.sol\":1085:1094  isOwner() */\n      tag_176\n        /* \"BEPOwnable.sol\":1085:1092  isOwner */\n      tag_79\n        /* \"BEPOwnable.sol\":1085:1094  isOwner() */\n      jump\t// in\n    tag_176:\n        /* \"BEPOwnable.sol\":1077:1131  require(isOwner(), \"Ownable: caller is not the owner\") */\n      tag_177\n      jumpi\n      mload(0x40)\n      0x08c379a000000000000000000000000000000000000000000000000000000000\n      dup2\n      mstore\n      0x04\n      add\n      tag_178\n      swap1\n      tag_114\n      jump\t// in\n    tag_178:\n      mload(0x40)\n      dup1\n      swap2\n      sub\n      swap1\n      revert\n    tag_177:\n        /* \"BEPOwnable.sol\":1724:1725  0 */\n      0x00\n        /* \"BEPOwnable.sol\":1687:1727  OwnershipTransferred(_owner, address(0)) */\n      0xffffffffffffffffffffffffffffffffffffffff\n      and\n        /* \"BEPOwnable.sol\":1708:1714  _owner */\n      0x00\n      dup1\n      sload\n      swap1\n      0x0100\n      exp\n      swap1\n      div\n      0xffffffffffffffffffffffffffffffffffffffff\n      and\n        /* \"BEPOwnable.sol\":1687:1727  OwnershipTransferred(_owner, address(0)) */\n      0xffffffffffffffffffffffffffffffffffffffff\n      and\n      0x8be0079c531659141344cd1fd0a4f28419497f9722a3daafe3b4186f6b6457e0\n      mload(0x40)\n      mload(0x40)\n      dup1\n      swap2\n      sub\n      swap1\n      log3\n        /* \"BEPOwnable.sol\":1750:1751  0 */\n      0x00\n        /* \"BEPOwnable.sol\":1733:1739  _owner */\n      dup1\n      0x00\n        /* \"BEPOwnable.sol\":1733:1752  _owner = address(0) */\n      0x0100\n      exp\n      dup2\n      sload\n      dup2\n      0xffffffffffffffffffffffffffffffffffffffff\n      mul\n      not\n      and\n      swap1\n      dup4\n      0xffffffffffffffffffffffffffffffffffffffff\n      and\n      mul\n      or\n      swap1\n      sstore\n      pop\n        /* \"BEPOwnable.sol\":1630:1757  function renounceOwnership() public onlyOwner {... */\n      jump\t// out\n        /* \"marketplace.sol\":3249:3807  function SellVicShose(uint256 tokenId,uint256 price) external whenNotPaused {... */\n    tag_71:\n        /* \"BEPPausable.sol\":424:430  paused */\n      0x00\n      0x14\n      swap1\n      sload\n      swap1\n      0x0100\n      exp\n      swap1\n      div\n      0xff\n      and\n        /* \"BEPPausable.sol\":423:430  !paused */\n      iszero\n        /* \"BEPPausable.sol\":415:431  require(!paused) */\n      tag_181\n      jumpi\n      0x00\n      dup1\n      revert\n    tag_181:\n        /* \"marketplace.sol\":3365:3366  0 */\n      0x00\n        /* \"marketplace.sol\":3343:3352  shoseSell */\n      0x08\n        /* \"marketplace.sol\":3343:3361  shoseSell[tokenId] */\n      0x00\n        /* \"marketplace.sol\":3353:3360  tokenId */\n      dup5\n        /* \"marketplace.sol\":3343:3361  shoseSell[tokenId] */\n      dup2\n      mstore\n      0x20\n      add\n      swap1\n      dup2\n      mstore\n      0x20\n      add\n      0x00\n      keccak256\n      sload\n        /* \"marketplace.sol\":3343:3366  shoseSell[tokenId] == 0 */\n      eq\n        /* \"marketplace.sol\":3335:3383  require(shoseSell[tokenId] == 0,\"it is selling\") */\n      tag_183\n      jumpi\n      mload(0x40)\n      0x08c379a000000000000000000000000000000000000000000000000000000000\n      dup2\n      mstore\n      0x04\n      add\n      tag_184\n      swap1\n      tag_185\n      jump\t// in\n    tag_184:\n      mload(0x40)\n      dup1\n      swap2\n      sub\n      swap1\n      revert\n    tag_183:\n        /* \"marketplace.sol\":3393:3407  address seller */\n      0x00\n        /* \"marketplace.sol\":3410:3420  msg.sender */\n      caller\n        /* \"marketplace.sol\":3393:3420  address seller = msg.sender */\n      swap1\n      pop\n        /* \"marketplace.sol\":3494:3500  seller */\n      dup1\n        /* \"marketplace.sol\":3438:3500  IERC721Enumerable(ShoseNFTContract).ownerOf(tokenId) == seller */\n      0xffffffffffffffffffffffffffffffffffffffff\n      and\n        /* \"marketplace.sol\":3456:3472  ShoseNFTContract */\n      0x03\n      0x00\n      swap1\n      sload\n      swap1\n      0x0100\n      exp\n      swap1\n      div\n      0xffffffffffffffffffffffffffffffffffffffff\n      and\n        /* \"marketplace.sol\":3438:3481  IERC721Enumerable(ShoseNFTContract).ownerOf */\n      0xffffffffffffffffffffffffffffffffffffffff\n      and\n      0x6352211e\n        /* \"marketplace.sol\":3482:3489  tokenId */\n      dup6\n        /* \"marketplace.sol\":3438:3490  IERC721Enumerable(ShoseNFTContract).ownerOf(tokenId) */\n      mload(0x40)\n      dup3\n      0xffffffff\n      and\n      0xe0\n      shl\n      dup2\n      mstore\n      0x04\n      add\n      tag_186\n      swap2\n      swap1\n      tag_94\n      jump\t// in\n    tag_186:\n      0x20\n      mload(0x40)\n      dup1\n      dup4\n      sub\n      dup2\n      dup7\n      dup1\n      extcodesize\n      iszero\n      dup1\n      iszero\n      tag_187\n      jumpi\n      0x00\n      dup1\n      revert\n    tag_187:\n      pop\n      gas\n      staticcall\n      iszero\n      dup1\n      iszero\n      tag_189\n      jumpi\n      returndatasize\n      0x00\n      dup1\n      returndatacopy\n      revert(0x00, returndatasize)\n    tag_189:\n      pop\n      pop\n      pop\n      pop\n      mload(0x40)\n      returndatasize\n      not(0x1f)\n      0x1f\n      dup3\n      add\n      and\n      dup3\n      add\n      dup1\n      0x40\n      mstore\n      pop\n      dup2\n      add\n      swap1\n      tag_190\n      swap2\n      swap1\n      tag_141\n      jump\t// in\n    tag_190:\n        /* \"marketplace.sol\":3438:3500  IERC721Enumerable(ShoseNFTContract).ownerOf(tokenId) == seller */\n      0xffffffffffffffffffffffffffffffffffffffff\n      and\n      eq\n        /* \"marketplace.sol\":3430:3533  require(IERC721Enumerable(ShoseNFTContract).ownerOf(tokenId) == seller,\"seller need have this tokenid\") */\n      tag_191\n      jumpi\n      mload(0x40)\n      0x08c379a000000000000000000000000000000000000000000000000000000000\n      dup2\n      mstore\n      0x04\n      add\n      tag_192\n      swap1\n      tag_144\n      jump\t// in\n    tag_192:\n      mload(0x40)\n      dup1\n      swap2\n      sub\n      swap1\n      revert\n    tag_191:\n        /* \"marketplace.sol\":3569:3585  ShoseNFTContract */\n      0x03\n      0x00\n      swap1\n      sload\n      swap1\n      0x0100\n      exp\n      swap1\n      div\n      0xffffffffffffffffffffffffffffffffffffffff\n      and\n        /* \"marketplace.sol\":3551:3603  IERC721Enumerable(ShoseNFTContract).isApprovedForAll */\n      0xffffffffffffffffffffffffffffffffffffffff\n      and\n      0xe985e9c5\n        /* \"marketplace.sol\":3604:3610  seller */\n      dup3\n        /* \"marketplace.sol\":3619:3623  this */\n      address\n        /* \"marketplace.sol\":3551:3625  IERC721Enumerable(ShoseNFTContract).isApprovedForAll(seller,address(this)) */\n      mload(0x40)\n      dup4\n      0xffffffff\n      and\n      0xe0\n      shl\n      dup2\n      mstore\n      0x04\n      add\n      tag_193\n      swap3\n      swap2\n      swap1\n      tag_153\n      jump\t// in\n    tag_193:\n      0x20\n      mload(0x40)\n      dup1\n      dup4\n      sub\n      dup2\n      dup7\n      dup1\n      extcodesize\n      iszero\n      dup1\n      iszero\n      tag_194\n      jumpi\n      0x00\n      dup1\n      revert\n    tag_194:\n      pop\n      gas\n      staticcall\n      iszero\n      dup1\n      iszero\n      tag_196\n      jumpi\n      returndatasize\n      0x00\n      dup1\n      returndatacopy\n      revert(0x00, returndatasize)\n    tag_196:\n      pop\n      pop\n      pop\n      pop\n      mload(0x40)\n      returndatasize\n      not(0x1f)\n      0x1f\n      dup3\n      add\n      and\n      dup3\n      add\n      dup1\n      0x40\n      mstore\n      pop\n      dup2\n      add\n      swap1\n      tag_197\n      swap2\n      swap1\n      tag_158\n      jump\t// in\n    tag_197:\n        /* \"marketplace.sol\":3543:3669  require(IERC721Enumerable(ShoseNFTContract).isApprovedForAll(seller,address(this)),\"You need Approve For All to this contact\") */\n      tag_198\n      jumpi\n      mload(0x40)\n      0x08c379a000000000000000000000000000000000000000000000000000000000\n      dup2\n      mstore\n      0x04\n      add\n      tag_199\n      swap1\n      tag_161\n      jump\t// in\n    tag_199:\n      mload(0x40)\n      dup1\n      swap2\n      sub\n      swap1\n      revert\n    tag_198:\n        /* \"marketplace.sol\":3695:3696  0 */\n      0x00\n        /* \"marketplace.sol\":3687:3692  price */\n      dup3\n        /* \"marketplace.sol\":3687:3696  price > 0 */\n      gt\n        /* \"marketplace.sol\":3679:3710  require(price > 0, \"Price > 0\") */\n      tag_200\n      jumpi\n      mload(0x40)\n      0x08c379a000000000000000000000000000000000000000000000000000000000\n      dup2\n      mstore\n      0x04\n      add\n      tag_201\n      swap1\n      tag_202\n      jump\t// in\n    tag_201:\n      mload(0x40)\n      dup1\n      swap2\n      sub\n      swap1\n      revert\n    tag_200:\n        /* \"marketplace.sol\":3720:3753  addNFTSell(tokenId, price,seller) */\n      tag_203\n        /* \"marketplace.sol\":3731:3738  tokenId */\n      dup4\n        /* \"marketplace.sol\":3740:3745  price */\n      dup4\n        /* \"marketplace.sol\":3746:3752  seller */\n      dup4\n        /* \"marketplace.sol\":3720:3730  addNFTSell */\n      tag_204\n        /* \"marketplace.sol\":3720:3753  addNFTSell(tokenId, price,seller) */\n      jump\t// in\n    tag_203:\n        /* \"marketplace.sol\":3768:3800  eventSellVicShose(tokenId,price) */\n      0x55bb046a6e950af74fcdaaa97a1a82c49209d72a5fcda0925a019dfba29c8f72\n        /* \"marketplace.sol\":3786:3793  tokenId */\n      dup4\n        /* \"marketplace.sol\":3794:3799  price */\n      dup4\n        /* \"marketplace.sol\":3768:3800  eventSellVicShose(tokenId,price) */\n      mload(0x40)\n      tag_205\n      swap3\n      swap2\n      swap1\n      tag_206\n      jump\t// in\n    tag_205:\n      mload(0x40)\n      dup1\n      swap2\n      sub\n      swap1\n      log1\n        /* \"marketplace.sol\":3325:3807  {... */\n      pop\n        /* \"marketplace.sol\":3249:3807  function SellVicShose(uint256 tokenId,uint256 price) external whenNotPaused {... */\n      pop\n      pop\n      jump\t// out\n        /* \"BEPPausable.sol\":666:788  function pause() public onlyOwner whenNotPaused returns (bool) {... */\n    tag_73:\n        /* \"BEPPausable.sol\":723:727  bool */\n      0x00\n        /* \"BEPOwnable.sol\":1085:1094  isOwner() */\n      tag_208\n        /* \"BEPOwnable.sol\":1085:1092  isOwner */\n      tag_79\n        /* \"BEPOwnable.sol\":1085:1094  isOwner() */\n      jump\t// in\n    tag_208:\n        /* \"BEPOwnable.sol\":1077:1131  require(isOwner(), \"Ownable: caller is not the owner\") */\n      tag_209\n      jumpi\n      mload(0x40)\n      0x08c379a000000000000000000000000000000000000000000000000000000000\n      dup2\n      mstore\n      0x04\n      add\n      tag_210\n      swap1\n      tag_114\n      jump\t// in\n    tag_210:\n      mload(0x40)\n      dup1\n      swap2\n      sub\n      swap1\n      revert\n    tag_209:\n        /* \"BEPPausable.sol\":424:430  paused */\n      0x00\n      0x14\n      swap1\n      sload\n      swap1\n      0x0100\n      exp\n      swap1\n      div\n      0xff\n      and\n        /* \"BEPPausable.sol\":423:430  !paused */\n      iszero\n        /* \"BEPPausable.sol\":415:431  require(!paused) */\n      tag_212\n      jumpi\n      0x00\n      dup1\n      revert\n    tag_212:\n        /* \"BEPPausable.sol\":744:748  true */\n      0x01\n        /* \"BEPPausable.sol\":735:741  paused */\n      0x00\n      0x14\n        /* \"BEPPausable.sol\":735:748  paused = true */\n      0x0100\n      exp\n      dup2\n      sload\n      dup2\n      0xff\n      mul\n      not\n      and\n      swap1\n      dup4\n      iszero\n      iszero\n      mul\n      or\n      swap1\n      sstore\n      pop\n        /* \"BEPPausable.sol\":759:766  Pause() */\n      0x6985a02210a168e66602d3235cb6db0e70f92b3ba4d376a33c0f3d9434bff625\n      mload(0x40)\n      mload(0x40)\n      dup1\n      swap2\n      sub\n      swap1\n      log1\n        /* \"BEPPausable.sol\":779:783  true */\n      0x01\n        /* \"BEPPausable.sol\":772:783  return true */\n      swap1\n      pop\n        /* \"BEPPausable.sol\":666:788  function pause() public onlyOwner whenNotPaused returns (bool) {... */\n      swap1\n      jump\t// out\n        /* \"BEPOwnable.sol\":899:970  function owner() public view returns (address) {... */\n    tag_76:\n        /* \"BEPOwnable.sol\":937:944  address */\n      0x00\n        /* \"BEPOwnable.sol\":959:965  _owner */\n      dup1\n      0x00\n      swap1\n      sload\n      swap1\n      0x0100\n      exp\n      swap1\n      div\n      0xffffffffffffffffffffffffffffffffffffffff\n      and\n        /* \"BEPOwnable.sol\":952:965  return _owner */\n      swap1\n      pop\n        /* \"BEPOwnable.sol\":899:970  function owner() public view returns (address) {... */\n      swap1\n      jump\t// out\n        /* \"BEPOwnable.sol\":1218:1304  function isOwner() public view returns (bool) {... */\n    tag_79:\n        /* \"BEPOwnable.sol\":1258:1262  bool */\n      0x00\n        /* \"BEPOwnable.sol\":1293:1299  _owner */\n      dup1\n      0x00\n      swap1\n      sload\n      swap1\n      0x0100\n      exp\n      swap1\n      div\n      0xffffffffffffffffffffffffffffffffffffffff\n      and\n        /* \"BEPOwnable.sol\":1277:1299  _msgSender() == _owner */\n      0xffffffffffffffffffffffffffffffffffffffff\n      and\n        /* \"BEPOwnable.sol\":1277:1289  _msgSender() */\n      tag_216\n        /* \"BEPOwnable.sol\":1277:1287  _msgSender */\n      tag_217\n        /* \"BEPOwnable.sol\":1277:1289  _msgSender() */\n      jump\t// in\n    tag_216:\n        /* \"BEPOwnable.sol\":1277:1299  _msgSender() == _owner */\n      0xffffffffffffffffffffffffffffffffffffffff\n      and\n      eq\n        /* \"BEPOwnable.sol\":1270:1299  return _msgSender() == _owner */\n      swap1\n      pop\n        /* \"BEPOwnable.sol\":1218:1304  function isOwner() public view returns (bool) {... */\n      swap1\n      jump\t// out\n        /* \"marketplace.sol\":5320:5855  function getSellingShose() external view returns (uint256[] memory _tokenID,address[] memory _owner, uint256[] memory _Price) {... */\n    tag_82:\n        /* \"marketplace.sol\":5370:5395  uint256[] memory _tokenID */\n      0x60\n        /* \"marketplace.sol\":5396:5419  address[] memory _owner */\n      dup1\n        /* \"marketplace.sol\":5421:5444  uint256[] memory _Price */\n      0x60\n        /* \"marketplace.sol\":5456:5479  uint256 shoseShellCount */\n      0x00\n        /* \"marketplace.sol\":5482:5495  allTokensSell */\n      0x0a\n        /* \"marketplace.sol\":5482:5502  allTokensSell.length */\n      dup1\n      sload\n      swap1\n      pop\n        /* \"marketplace.sol\":5456:5502  uint256 shoseShellCount = allTokensSell.length */\n      swap1\n      pop\n        /* \"marketplace.sol\":5512:5534  uint256[] memory Price */\n      0x00\n        /* \"marketplace.sol\":5551:5566  shoseShellCount */\n      dup2\n        /* \"marketplace.sol\":5537:5567  new uint256[](shoseShellCount) */\n      0xffffffffffffffff\n      dup2\n      gt\n      iszero\n      tag_219\n      jumpi\n      tag_220\n      tag_221\n      jump\t// in\n    tag_220:\n    tag_219:\n      mload(0x40)\n      swap1\n      dup1\n      dup3\n      mstore\n      dup1\n      0x20\n      mul\n      0x20\n      add\n      dup3\n      add\n      0x40\n      mstore\n      dup1\n      iszero\n      tag_222\n      jumpi\n      dup2\n      0x20\n      add\n      0x20\n      dup3\n      mul\n      dup1\n      calldatasize\n      dup4\n      calldatacopy\n      dup1\n      dup3\n      add\n      swap2\n      pop\n      pop\n      swap1\n      pop\n    tag_222:\n      pop\n        /* \"marketplace.sol\":5512:5567  uint256[] memory Price = new uint256[](shoseShellCount) */\n      swap1\n      pop\n        /* \"marketplace.sol\":5577:5599  address[] memory owner */\n      0x00\n        /* \"marketplace.sol\":5616:5631  shoseShellCount */\n      dup3\n        /* \"marketplace.sol\":5602:5632  new address[](shoseShellCount) */\n      0xffffffffffffffff\n      dup2\n      gt\n      iszero\n      tag_223\n      jumpi\n      tag_224\n      tag_221\n      jump\t// in\n    tag_224:\n    tag_223:\n      mload(0x40)\n      swap1\n      dup1\n      dup3\n      mstore\n      dup1\n      0x20\n      mul\n      0x20\n      add\n      dup3\n      add\n      0x40\n      mstore\n      dup1\n      iszero\n      tag_225\n      jumpi\n      dup2\n      0x20\n      add\n      0x20\n      dup3\n      mul\n      dup1\n      calldatasize\n      dup4\n      calldatacopy\n      dup1\n      dup3\n      add\n      swap2\n      pop\n      pop\n      swap1\n      pop\n    tag_225:\n      pop\n        /* \"marketplace.sol\":5577:5632  address[] memory owner = new address[](shoseShellCount) */\n      swap1\n      pop\n        /* \"marketplace.sol\":5647:5656  uint256 i */\n      0x00\n        /* \"marketplace.sol\":5642:5805  for (uint256 i = 0; i < shoseShellCount; i++) {... */\n    tag_226:\n        /* \"marketplace.sol\":5666:5681  shoseShellCount */\n      dup4\n        /* \"marketplace.sol\":5662:5663  i */\n      dup2\n        /* \"marketplace.sol\":5662:5681  i < shoseShellCount */\n      lt\n        /* \"marketplace.sol\":5642:5805  for (uint256 i = 0; i < shoseShellCount; i++) {... */\n      iszero\n      tag_227\n      jumpi\n        /* \"marketplace.sol\":5713:5722  shoseSell */\n      0x08\n        /* \"marketplace.sol\":5713:5740  shoseSell[allTokensSell[i]] */\n      0x00\n        /* \"marketplace.sol\":5723:5736  allTokensSell */\n      0x0a\n        /* \"marketplace.sol\":5737:5738  i */\n      dup4\n        /* \"marketplace.sol\":5723:5739  allTokensSell[i] */\n      dup2\n      sload\n      dup2\n      lt\n      tag_229\n      jumpi\n      tag_230\n      tag_231\n      jump\t// in\n    tag_230:\n    tag_229:\n      swap1\n      0x00\n      mstore\n      keccak256(0x00, 0x20)\n      add\n      sload\n        /* \"marketplace.sol\":5713:5740  shoseSell[allTokensSell[i]] */\n      dup2\n      mstore\n      0x20\n      add\n      swap1\n      dup2\n      mstore\n      0x20\n      add\n      0x00\n      keccak256\n      sload\n        /* \"marketplace.sol\":5702:5707  Price */\n      dup4\n        /* \"marketplace.sol\":5708:5709  i */\n      dup3\n        /* \"marketplace.sol\":5702:5710  Price[i] */\n      dup2\n      mload\n      dup2\n      lt\n      tag_233\n      jumpi\n      tag_234\n      tag_231\n      jump\t// in\n    tag_234:\n    tag_233:\n      0x20\n      mul\n      0x20\n      add\n      add\n        /* \"marketplace.sol\":5702:5740  Price[i] = shoseSell[allTokensSell[i]] */\n      dup2\n      dup2\n      mstore\n      pop\n      pop\n        /* \"marketplace.sol\":5765:5776  shoseSeller */\n      0x09\n        /* \"marketplace.sol\":5765:5794  shoseSeller[allTokensSell[i]] */\n      0x00\n        /* \"marketplace.sol\":5777:5790  allTokensSell */\n      0x0a\n        /* \"marketplace.sol\":5791:5792  i */\n      dup4\n        /* \"marketplace.sol\":5777:5793  allTokensSell[i] */\n      dup2\n      sload\n      dup2\n      lt\n      tag_235\n      jumpi\n      tag_236\n      tag_231\n      jump\t// in\n    tag_236:\n    tag_235:\n      swap1\n      0x00\n      mstore\n      keccak256(0x00, 0x20)\n      add\n      sload\n        /* \"marketplace.sol\":5765:5794  shoseSeller[allTokensSell[i]] */\n      dup2\n      mstore\n      0x20\n      add\n      swap1\n      dup2\n      mstore\n      0x20\n      add\n      0x00\n      keccak256\n      0x00\n      swap1\n      sload\n      swap1\n      0x0100\n      exp\n      swap1\n      div\n      0xffffffffffffffffffffffffffffffffffffffff\n      and\n        /* \"marketplace.sol\":5754:5759  owner */\n      dup3\n        /* \"marketplace.sol\":5760:5761  i */\n      dup3\n        /* \"marketplace.sol\":5754:5762  owner[i] */\n      dup2\n      mload\n      dup2\n      lt\n      tag_238\n      jumpi\n      tag_239\n      tag_231\n      jump\t// in\n    tag_239:\n    tag_238:\n      0x20\n      mul\n      0x20\n      add\n      add\n        /* \"marketplace.sol\":5754:5794  owner[i] = shoseSeller[allTokensSell[i]] */\n      swap1\n      0xffffffffffffffffffffffffffffffffffffffff\n      and\n      swap1\n      dup2\n      0xffffffffffffffffffffffffffffffffffffffff\n      and\n      dup2\n      mstore\n      pop\n      pop\n        /* \"marketplace.sol\":5683:5686  i++ */\n      dup1\n      dup1\n      tag_240\n      swap1\n      tag_241\n      jump\t// in\n    tag_240:\n      swap2\n      pop\n      pop\n        /* \"marketplace.sol\":5642:5805  for (uint256 i = 0; i < shoseShellCount; i++) {... */\n      jump(tag_226)\n    tag_227:\n      pop\n        /* \"marketplace.sol\":5822:5835  allTokensSell */\n      0x0a\n        /* \"marketplace.sol\":5836:5841  owner */\n      dup2\n        /* \"marketplace.sol\":5842:5847  Price */\n      dup4\n        /* \"marketplace.sol\":5814:5848  return (allTokensSell,owner,Price) */\n      dup3\n      dup1\n      sload\n      dup1\n      0x20\n      mul\n      0x20\n      add\n      mload(0x40)\n      swap1\n      dup2\n      add\n      0x40\n      mstore\n      dup1\n      swap3\n      swap2\n      swap1\n      dup2\n      dup2\n      mstore\n      0x20\n      add\n      dup3\n      dup1\n      sload\n      dup1\n      iszero\n      tag_242\n      jumpi\n      0x20\n      mul\n      dup3\n      add\n      swap2\n      swap1\n      0x00\n      mstore\n      keccak256(0x00, 0x20)\n      swap1\n    tag_243:\n      dup2\n      sload\n      dup2\n      mstore\n      0x20\n      add\n      swap1\n      0x01\n      add\n      swap1\n      dup1\n      dup4\n      gt\n      tag_243\n      jumpi\n    tag_242:\n      pop\n      pop\n      pop\n      pop\n      pop\n      swap3\n      pop\n      swap6\n      pop\n      swap6\n      pop\n      swap6\n      pop\n      pop\n      pop\n      pop\n        /* \"marketplace.sol\":5320:5855  function getSellingShose() external view returns (uint256[] memory _tokenID,address[] memory _owner, uint256[] memory _Price) {... */\n      swap1\n      swap2\n      swap3\n      jump\t// out\n        /* \"marketplace.sol\":1601:1748  function setLiquidPool(address _LiquidPool) external onlyOwner {... */\n    tag_87:\n        /* \"BEPOwnable.sol\":1085:1094  isOwner() */\n      tag_245\n        /* \"BEPOwnable.sol\":1085:1092  isOwner */\n      tag_79\n        /* \"BEPOwnable.sol\":1085:1094  isOwner() */\n      jump\t// in\n    tag_245:\n        /* \"BEPOwnable.sol\":1077:1131  require(isOwner(), \"Ownable: caller is not the owner\") */\n      tag_246\n      jumpi\n      mload(0x40)\n      0x08c379a000000000000000000000000000000000000000000000000000000000\n      dup2\n      mstore\n      0x04\n      add\n      tag_247\n      swap1\n      tag_114\n      jump\t// in\n    tag_247:\n      mload(0x40)\n      dup1\n      swap2\n      sub\n      swap1\n      revert\n    tag_246:\n        /* \"marketplace.sol\":1687:1698  _LiquidPool */\n      dup1\n        /* \"marketplace.sol\":1674:1684  LiquidPool */\n      0x02\n      0x00\n        /* \"marketplace.sol\":1674:1698  LiquidPool = _LiquidPool */\n      0x0100\n      exp\n      dup2\n      sload\n      dup2\n      0xffffffffffffffffffffffffffffffffffffffff\n      mul\n      not\n      and\n      swap1\n      dup4\n      0xffffffffffffffffffffffffffffffffffffffff\n      and\n      mul\n      or\n      swap1\n      sstore\n      pop\n        /* \"marketplace.sol\":1713:1741  changeLiquidPool(LiquidPool) */\n      0xacdd85d235b5b49226c2c4f2b72cb01fa1cc3ae64bb843a6def27788d05b1b60\n        /* \"marketplace.sol\":1730:1740  LiquidPool */\n      0x02\n      0x00\n      swap1\n      sload\n      swap1\n      0x0100\n      exp\n      swap1\n      div\n      0xffffffffffffffffffffffffffffffffffffffff\n      and\n        /* \"marketplace.sol\":1713:1741  changeLiquidPool(LiquidPool) */\n      mload(0x40)\n      tag_249\n      swap2\n      swap1\n      tag_33\n      jump\t// in\n    tag_249:\n      mload(0x40)\n      dup1\n      swap2\n      sub\n      swap1\n      log1\n        /* \"marketplace.sol\":1601:1748  function setLiquidPool(address _LiquidPool) external onlyOwner {... */\n      pop\n      jump\t// out\n        /* \"marketplace.sol\":369:395  address public VIMContract */\n    tag_89:\n      0x04\n      0x00\n      swap1\n      sload\n      swap1\n      0x0100\n      exp\n      swap1\n      div\n      0xffffffffffffffffffffffffffffffffffffffff\n      and\n      dup2\n      jump\t// out\n        /* \"marketplace.sol\":434:455  uint256 public MinBnB */\n    tag_92:\n      sload(0x06)\n      dup2\n      jump\t// out\n        /* \"marketplace.sol\":332:363  address public ShoseNFTContract */\n    tag_96:\n      0x03\n      0x00\n      swap1\n      sload\n      swap1\n      0x0100\n      exp\n      swap1\n      div\n      0xffffffffffffffffffffffffffffffffffffffff\n      and\n      dup2\n      jump\t// out\n        /* \"marketplace.sol\":2102:2226  function setMinBNB(uint256  _MinBnB) external onlyOwner {... */\n    tag_100:\n        /* \"BEPOwnable.sol\":1085:1094  isOwner() */\n      tag_251\n        /* \"BEPOwnable.sol\":1085:1092  isOwner */\n      tag_79\n        /* \"BEPOwnable.sol\":1085:1094  isOwner() */\n      jump\t// in\n    tag_251:\n        /* \"BEPOwnable.sol\":1077:1131  require(isOwner(), \"Ownable: caller is not the owner\") */\n      tag_252\n      jumpi\n      mload(0x40)\n      0x08c379a000000000000000000000000000000000000000000000000000000000\n      dup2\n      mstore\n      0x04\n      add\n      tag_253\n      swap1\n      tag_114\n      jump\t// in\n    tag_253:\n      mload(0x40)\n      dup1\n      swap2\n      sub\n      swap1\n      revert\n    tag_252:\n        /* \"marketplace.sol\":2177:2184  _MinBnB */\n      dup1\n        /* \"marketplace.sol\":2168:2174  MinBnB */\n      0x06\n        /* \"marketplace.sol\":2168:2184  MinBnB = _MinBnB */\n      dup2\n      swap1\n      sstore\n      pop\n        /* \"marketplace.sol\":2199:2219  changeMinBnB(MinBnB) */\n      0x4d8e30ff458bebdd848488669e63d632954487ca1bc64c28f3c920f74a5f8594\n        /* \"marketplace.sol\":2212:2218  MinBnB */\n      sload(0x06)\n        /* \"marketplace.sol\":2199:2219  changeMinBnB(MinBnB) */\n      mload(0x40)\n      tag_255\n      swap2\n      swap1\n      tag_94\n      jump\t// in\n    tag_255:\n      mload(0x40)\n      dup1\n      swap2\n      sub\n      swap1\n      log1\n        /* \"marketplace.sol\":2102:2226  function setMinBNB(uint256  _MinBnB) external onlyOwner {... */\n      pop\n      jump\t// out\n        /* \"marketplace.sol\":2233:2574  function getMINPrice() public view virtual returns (uint256) {... */\n    tag_102:\n        /* \"marketplace.sol\":2285:2292  uint256 */\n      0x00\n        /* \"marketplace.sol\":2304:2323  uint256 wbnbbalance */\n      dup1\n        /* \"marketplace.sol\":2333:2345  WBNBContract */\n      0x05\n      0x00\n      swap1\n      sload\n      swap1\n      0x0100\n      exp\n      swap1\n      div\n      0xffffffffffffffffffffffffffffffffffffffff\n      and\n        /* \"marketplace.sol\":2326:2356  IBEP20(WBNBContract).balanceOf */\n      0xffffffffffffffffffffffffffffffffffffffff\n      and\n      0x70a08231\n        /* \"marketplace.sol\":2357:2367  LiquidPool */\n      0x02\n      0x00\n      swap1\n      sload\n      swap1\n      0x0100\n      exp\n      swap1\n      div\n      0xffffffffffffffffffffffffffffffffffffffff\n      and\n        /* \"marketplace.sol\":2326:2368  IBEP20(WBNBContract).balanceOf(LiquidPool) */\n      mload(0x40)\n      dup3\n      0xffffffff\n      and\n      0xe0\n      shl\n      dup2\n      mstore\n      0x04\n      add\n      tag_257\n      swap2\n      swap1\n      tag_33\n      jump\t// in\n    tag_257:\n      0x20\n      mload(0x40)\n      dup1\n      dup4\n      sub\n      dup2\n      dup7\n      dup1\n      extcodesize\n      iszero\n      dup1\n      iszero\n      tag_258\n      jumpi\n      0x00\n      dup1\n      revert\n    tag_258:\n      pop\n      gas\n      staticcall\n      iszero\n      dup1\n      iszero\n      tag_260\n      jumpi\n      returndatasize\n      0x00\n      dup1\n      returndatacopy\n      revert(0x00, returndatasize)\n    tag_260:\n      pop\n      pop\n      pop\n      pop\n      mload(0x40)\n      returndatasize\n      not(0x1f)\n      0x1f\n      dup3\n      add\n      and\n      dup3\n      add\n      dup1\n      0x40\n      mstore\n      pop\n      dup2\n      add\n      swap1\n      tag_261\n      swap2\n      swap1\n      tag_262\n      jump\t// in\n    tag_261:\n        /* \"marketplace.sol\":2304:2368  uint256 wbnbbalance = IBEP20(WBNBContract).balanceOf(LiquidPool) */\n      swap1\n      pop\n        /* \"marketplace.sol\":2378:2396  uint256 vimbalance */\n      0x00\n        /* \"marketplace.sol\":2406:2417  VIMContract */\n      0x04\n      0x00\n      swap1\n      sload\n      swap1\n      0x0100\n      exp\n      swap1\n      div\n      0xffffffffffffffffffffffffffffffffffffffff\n      and\n        /* \"marketplace.sol\":2399:2428  IBEP20(VIMContract).balanceOf */\n      0xffffffffffffffffffffffffffffffffffffffff\n      and\n      0x70a08231\n        /* \"marketplace.sol\":2429:2439  LiquidPool */\n      0x02\n      0x00\n      swap1\n      sload\n      swap1\n      0x0100\n      exp\n      swap1\n      div\n      0xffffffffffffffffffffffffffffffffffffffff\n      and\n        /* \"marketplace.sol\":2399:2440  IBEP20(VIMContract).balanceOf(LiquidPool) */\n      mload(0x40)\n      dup3\n      0xffffffff\n      and\n      0xe0\n      shl\n      dup2\n      mstore\n      0x04\n      add\n      tag_263\n      swap2\n      swap1\n      tag_33\n      jump\t// in\n    tag_263:\n      0x20\n      mload(0x40)\n      dup1\n      dup4\n      sub\n      dup2\n      dup7\n      dup1\n      extcodesize\n      iszero\n      dup1\n      iszero\n      tag_264\n      jumpi\n      0x00\n      dup1\n      revert\n    tag_264:\n      pop\n      gas\n      staticcall\n      iszero\n      dup1\n      iszero\n      tag_266\n      jumpi\n      returndatasize\n      0x00\n      dup1\n      returndatacopy\n      revert(0x00, returndatasize)\n    tag_266:\n      pop\n      pop\n      pop\n      pop\n      mload(0x40)\n      returndatasize\n      not(0x1f)\n      0x1f\n      dup3\n      add\n      and\n      dup3\n      add\n      dup1\n      0x40\n      mstore\n      pop\n      dup2\n      add\n      swap1\n      tag_267\n      swap2\n      swap1\n      tag_262\n      jump\t// in\n    tag_267:\n        /* \"marketplace.sol\":2378:2440  uint256 vimbalance = IBEP20(VIMContract).balanceOf(LiquidPool) */\n      swap1\n      pop\n        /* \"marketplace.sol\":2450:2466  uint256 bnbprice */\n      0x00\n        /* \"marketplace.sol\":2480:2491  wbnbbalance */\n      dup3\n        /* \"marketplace.sol\":2469:2479  vimbalance */\n      dup3\n        /* \"marketplace.sol\":2469:2491  vimbalance/wbnbbalance */\n      tag_268\n      swap2\n      swap1\n      tag_269\n      jump\t// in\n    tag_268:\n        /* \"marketplace.sol\":2450:2491  uint256 bnbprice = vimbalance/wbnbbalance */\n      swap1\n      pop\n        /* \"marketplace.sol\":2501:2517  uint256 minprice */\n      0x00\n        /* \"marketplace.sol\":2540:2542  10 */\n      0x0a\n        /* \"marketplace.sol\":2531:2537  MinBnB */\n      sload(0x06)\n        /* \"marketplace.sol\":2520:2528  bnbprice */\n      dup4\n        /* \"marketplace.sol\":2520:2537  bnbprice * MinBnB */\n      tag_270\n      swap2\n      swap1\n      tag_271\n      jump\t// in\n    tag_270:\n        /* \"marketplace.sol\":2520:2542  bnbprice * MinBnB / 10 */\n      tag_272\n      swap2\n      swap1\n      tag_269\n      jump\t// in\n    tag_272:\n        /* \"marketplace.sol\":2501:2542  uint256 minprice = bnbprice * MinBnB / 10 */\n      swap1\n      pop\n        /* \"marketplace.sol\":2559:2567  minprice */\n      dup1\n        /* \"marketplace.sol\":2552:2567  return minprice */\n      swap5\n      pop\n      pop\n      pop\n      pop\n      pop\n        /* \"marketplace.sol\":2233:2574  function getMINPrice() public view virtual returns (uint256) {... */\n      swap1\n      jump\t// out\n        /* \"marketplace.sol\":1459:1594  function setTreasury(address _Treasury) external onlyOwner {... */\n    tag_106:\n        /* \"BEPOwnable.sol\":1085:1094  isOwner() */\n      tag_274\n        /* \"BEPOwnable.sol\":1085:1092  isOwner */\n      tag_79\n        /* \"BEPOwnable.sol\":1085:1094  isOwner() */\n      jump\t// in\n    tag_274:\n        /* \"BEPOwnable.sol\":1077:1131  require(isOwner(), \"Ownable: caller is not the owner\") */\n      tag_275\n      jumpi\n      mload(0x40)\n      0x08c379a000000000000000000000000000000000000000000000000000000000\n      dup2\n      mstore\n      0x04\n      add\n      tag_276\n      swap1\n      tag_114\n      jump\t// in\n    tag_276:\n      mload(0x40)\n      dup1\n      swap2\n      sub\n      swap1\n      revert\n    tag_275:\n        /* \"marketplace.sol\":1539:1548  _Treasury */\n      dup1\n        /* \"marketplace.sol\":1528:1536  Treasury */\n      0x01\n      0x00\n        /* \"marketplace.sol\":1528:1548  Treasury = _Treasury */\n      0x0100\n      exp\n      dup2\n      sload\n      dup2\n      0xffffffffffffffffffffffffffffffffffffffff\n      mul\n      not\n      and\n      swap1\n      dup4\n      0xffffffffffffffffffffffffffffffffffffffff\n      and\n      mul\n      or\n      swap1\n      sstore\n      pop\n        /* \"marketplace.sol\":1563:1587  changeTreasury(Treasury) */\n      0xb14f2a39bb21fda32827bbdb4be629c94036e10a3f6055a6454f884ca1b33fa1\n        /* \"marketplace.sol\":1578:1586  Treasury */\n      0x01\n      0x00\n      swap1\n      sload\n      swap1\n      0x0100\n      exp\n      swap1\n      div\n      0xffffffffffffffffffffffffffffffffffffffff\n      and\n        /* \"marketplace.sol\":1563:1587  changeTreasury(Treasury) */\n      mload(0x40)\n      tag_278\n      swap2\n      swap1\n      tag_33\n      jump\t// in\n    tag_278:\n      mload(0x40)\n      dup1\n      swap2\n      sub\n      swap1\n      log1\n        /* \"marketplace.sol\":1459:1594  function setTreasury(address _Treasury) external onlyOwner {... */\n      pop\n      jump\t// out\n        /* \"BEPOwnable.sol\":1896:1997  function transferOwnership(address newOwner) public onlyOwner {... */\n    tag_109:\n        /* \"BEPOwnable.sol\":1085:1094  isOwner() */\n      tag_280\n        /* \"BEPOwnable.sol\":1085:1092  isOwner */\n      tag_79\n        /* \"BEPOwnable.sol\":1085:1094  isOwner() */\n      jump\t// in\n    tag_280:\n        /* \"BEPOwnable.sol\":1077:1131  require(isOwner(), \"Ownable: caller is not the owner\") */\n      tag_281\n      jumpi\n      mload(0x40)\n      0x08c379a000000000000000000000000000000000000000000000000000000000\n      dup2\n      mstore\n      0x04\n      add\n      tag_282\n      swap1\n      tag_114\n      jump\t// in\n    tag_282:\n      mload(0x40)\n      dup1\n      swap2\n      sub\n      swap1\n      revert\n    tag_281:\n        /* \"BEPOwnable.sol\":1964:1992  _transferOwnership(newOwner) */\n      tag_284\n        /* \"BEPOwnable.sol\":1983:1991  newOwner */\n      dup2\n        /* \"BEPOwnable.sol\":1964:1982  _transferOwnership */\n      tag_285\n        /* \"BEPOwnable.sol\":1964:1992  _transferOwnership(newOwner) */\n      jump\t// in\n    tag_284:\n        /* \"BEPOwnable.sol\":1896:1997  function transferOwnership(address newOwner) public onlyOwner {... */\n      pop\n      jump\t// out\n        /* \"marketplace.sol\":4187:4614  function removeNFTSell(uint256 tokenId) internal{... */\n    tag_146:\n        /* \"marketplace.sol\":4252:4261  shoseSell */\n      0x08\n        /* \"marketplace.sol\":4252:4270  shoseSell[tokenId] */\n      0x00\n        /* \"marketplace.sol\":4262:4269  tokenId */\n      dup3\n        /* \"marketplace.sol\":4252:4270  shoseSell[tokenId] */\n      dup2\n      mstore\n      0x20\n      add\n      swap1\n      dup2\n      mstore\n      0x20\n      add\n      0x00\n      keccak256\n        /* \"marketplace.sol\":4245:4270  delete shoseSell[tokenId] */\n      0x00\n      swap1\n      sstore\n        /* \"marketplace.sol\":4284:4293  uint256 i */\n      0x00\n        /* \"marketplace.sol\":4280:4608  for(uint256 i = 0; i < allTokensSell.length; i++){... */\n    tag_287:\n        /* \"marketplace.sol\":4303:4316  allTokensSell */\n      0x0a\n        /* \"marketplace.sol\":4303:4323  allTokensSell.length */\n      dup1\n      sload\n      swap1\n      pop\n        /* \"marketplace.sol\":4299:4300  i */\n      dup2\n        /* \"marketplace.sol\":4299:4323  i < allTokensSell.length */\n      lt\n        /* \"marketplace.sol\":4280:4608  for(uint256 i = 0; i < allTokensSell.length; i++){... */\n      iszero\n      tag_288\n      jumpi\n        /* \"marketplace.sol\":4366:4373  tokenId */\n      dup2\n        /* \"marketplace.sol\":4346:4359  allTokensSell */\n      0x0a\n        /* \"marketplace.sol\":4360:4361  i */\n      dup3\n        /* \"marketplace.sol\":4346:4362  allTokensSell[i] */\n      dup2\n      sload\n      dup2\n      lt\n      tag_290\n      jumpi\n      tag_291\n      tag_231\n      jump\t// in\n    tag_291:\n    tag_290:\n      swap1\n      0x00\n      mstore\n      keccak256(0x00, 0x20)\n      add\n      sload\n        /* \"marketplace.sol\":4346:4373  allTokensSell[i] == tokenId */\n      eq\n        /* \"marketplace.sol\":4343:4598  if(allTokensSell[i] == tokenId){... */\n      iszero\n      tag_293\n      jumpi\n        /* \"marketplace.sol\":4396:4405  uint256 k */\n      0x00\n        /* \"marketplace.sol\":4408:4409  i */\n      dup2\n        /* \"marketplace.sol\":4396:4409  uint256 k = i */\n      swap1\n      pop\n        /* \"marketplace.sol\":4392:4523  for(uint256 k = i; k < allTokensSell.length - 1; k++){... */\n    tag_294:\n        /* \"marketplace.sol\":4438:4439  1 */\n      0x01\n        /* \"marketplace.sol\":4415:4428  allTokensSell */\n      0x0a\n        /* \"marketplace.sol\":4415:4435  allTokensSell.length */\n      dup1\n      sload\n      swap1\n      pop\n        /* \"marketplace.sol\":4415:4439  allTokensSell.length - 1 */\n      tag_297\n      swap2\n      swap1\n      tag_298\n      jump\t// in\n    tag_297:\n        /* \"marketplace.sol\":4411:4412  k */\n      dup2\n        /* \"marketplace.sol\":4411:4439  k < allTokensSell.length - 1 */\n      lt\n        /* \"marketplace.sol\":4392:4523  for(uint256 k = i; k < allTokensSell.length - 1; k++){... */\n      iszero\n      tag_295\n      jumpi\n        /* \"marketplace.sol\":4486:4499  allTokensSell */\n      0x0a\n        /* \"marketplace.sol\":4502:4503  1 */\n      0x01\n        /* \"marketplace.sol\":4500:4501  k */\n      dup3\n        /* \"marketplace.sol\":4500:4503  k+1 */\n      tag_299\n      swap2\n      swap1\n      tag_300\n      jump\t// in\n    tag_299:\n        /* \"marketplace.sol\":4486:4504  allTokensSell[k+1] */\n      dup2\n      sload\n      dup2\n      lt\n      tag_301\n      jumpi\n      tag_302\n      tag_231\n      jump\t// in\n    tag_302:\n    tag_301:\n      swap1\n      0x00\n      mstore\n      keccak256(0x00, 0x20)\n      add\n      sload\n        /* \"marketplace.sol\":4467:4480  allTokensSell */\n      0x0a\n        /* \"marketplace.sol\":4481:4482  k */\n      dup3\n        /* \"marketplace.sol\":4467:4483  allTokensSell[k] */\n      dup2\n      sload\n      dup2\n      lt\n      tag_304\n      jumpi\n      tag_305\n      tag_231\n      jump\t// in\n    tag_305:\n    tag_304:\n      swap1\n      0x00\n      mstore\n      keccak256(0x00, 0x20)\n      add\n        /* \"marketplace.sol\":4467:4504  allTokensSell[k] = allTokensSell[k+1] */\n      dup2\n      swap1\n      sstore\n      pop\n        /* \"marketplace.sol\":4441:4444  k++ */\n      dup1\n      dup1\n      tag_307\n      swap1\n      tag_241\n      jump\t// in\n    tag_307:\n      swap2\n      pop\n      pop\n        /* \"marketplace.sol\":4392:4523  for(uint256 k = i; k < allTokensSell.length - 1; k++){... */\n      jump(tag_294)\n    tag_295:\n      pop\n        /* \"marketplace.sol\":4540:4553  allTokensSell */\n      0x0a\n        /* \"marketplace.sol\":4540:4559  allTokensSell.pop() */\n      dup1\n      sload\n      dup1\n      tag_308\n      jumpi\n      tag_309\n      tag_310\n      jump\t// in\n    tag_309:\n    tag_308:\n      0x01\n      swap1\n      sub\n      dup2\n      dup2\n      swap1\n      0x00\n      mstore\n      keccak256(0x00, 0x20)\n      add\n      0x00\n      swap1\n      sstore\n      swap1\n      sstore\n        /* \"marketplace.sol\":4577:4584  return; */\n      pop\n      jump(tag_286)\n        /* \"marketplace.sol\":4343:4598  if(allTokensSell[i] == tokenId){... */\n    tag_293:\n        /* \"marketplace.sol\":4325:4328  i++ */\n      dup1\n      dup1\n      tag_312\n      swap1\n      tag_241\n      jump\t// in\n    tag_312:\n      swap2\n      pop\n      pop\n        /* \"marketplace.sol\":4280:4608  for(uint256 i = 0; i < allTokensSell.length; i++){... */\n      jump(tag_287)\n    tag_288:\n      pop\n        /* \"marketplace.sol\":4187:4614  function removeNFTSell(uint256 tokenId) internal{... */\n    tag_286:\n      pop\n      jump\t// out\n        /* \"marketplace.sol\":4620:5314  function addNFTSell(uint256 tokenId, uint256 price, address seller) internal{... */\n    tag_204:\n        /* \"marketplace.sol\":4727:4732  price */\n      dup2\n        /* \"marketplace.sol\":4706:4715  shoseSell */\n      0x08\n        /* \"marketplace.sol\":4706:4724  shoseSell[tokenId] */\n      0x00\n        /* \"marketplace.sol\":4716:4723  tokenId */\n      dup6\n        /* \"marketplace.sol\":4706:4724  shoseSell[tokenId] */\n      dup2\n      mstore\n      0x20\n      add\n      swap1\n      dup2\n      mstore\n      0x20\n      add\n      0x00\n      keccak256\n        /* \"marketplace.sol\":4706:4732  shoseSell[tokenId] = price */\n      dup2\n      swap1\n      sstore\n      pop\n        /* \"marketplace.sol\":4765:4771  seller */\n      dup1\n        /* \"marketplace.sol\":4742:4753  shoseSeller */\n      0x09\n        /* \"marketplace.sol\":4742:4762  shoseSeller[tokenId] */\n      0x00\n        /* \"marketplace.sol\":4754:4761  tokenId */\n      dup6\n        /* \"marketplace.sol\":4742:4762  shoseSeller[tokenId] */\n      dup2\n      mstore\n      0x20\n      add\n      swap1\n      dup2\n      mstore\n      0x20\n      add\n      0x00\n      keccak256\n      0x00\n        /* \"marketplace.sol\":4742:4771  shoseSeller[tokenId] = seller */\n      0x0100\n      exp\n      dup2\n      sload\n      dup2\n      0xffffffffffffffffffffffffffffffffffffffff\n      mul\n      not\n      and\n      swap1\n      dup4\n      0xffffffffffffffffffffffffffffffffffffffff\n      and\n      mul\n      or\n      swap1\n      sstore\n      pop\n        /* \"marketplace.sol\":4781:4794  allTokensSell */\n      0x0a\n        /* \"marketplace.sol\":4800:4807  tokenId */\n      dup4\n        /* \"marketplace.sol\":4781:4808  allTokensSell.push(tokenId) */\n      swap1\n      dup1\n      0x01\n      dup2\n      sload\n      add\n      dup1\n      dup3\n      sstore\n      dup1\n      swap2\n      pop\n      pop\n      0x01\n      swap1\n      sub\n      swap1\n      0x00\n      mstore\n      keccak256(0x00, 0x20)\n      add\n      0x00\n      swap1\n      swap2\n      swap1\n      swap2\n      swap1\n      swap2\n      pop\n      sstore\n        /* \"marketplace.sol\":4845:4846  2 */\n      0x02\n        /* \"marketplace.sol\":4821:4834  allTokensSell */\n      0x0a\n        /* \"marketplace.sol\":4821:4841  allTokensSell.length */\n      dup1\n      sload\n      swap1\n      pop\n        /* \"marketplace.sol\":4821:4846  allTokensSell.length >= 2 */\n      lt\n        /* \"marketplace.sol\":4818:5308  if(allTokensSell.length >= 2){... */\n      tag_315\n      jumpi\n        /* \"marketplace.sol\":4865:4874  uint256 i */\n      0x00\n        /* \"marketplace.sol\":4898:4899  2 */\n      0x02\n        /* \"marketplace.sol\":4877:4890  allTokensSell */\n      0x0a\n        /* \"marketplace.sol\":4877:4897  allTokensSell.length */\n      dup1\n      sload\n      swap1\n      pop\n        /* \"marketplace.sol\":4877:4899  allTokensSell.length-2 */\n      tag_319\n      swap2\n      swap1\n      tag_298\n      jump\t// in\n    tag_319:\n        /* \"marketplace.sol\":4865:4899  uint256 i = allTokensSell.length-2 */\n      swap1\n      pop\n        /* \"marketplace.sol\":4861:5298  for(uint256 i = allTokensSell.length-2; i >=0; i--){... */\n    tag_316:\n        /* \"marketplace.sol\":4905:4906  0 */\n      0x00\n        /* \"marketplace.sol\":4901:4902  i */\n      dup2\n        /* \"marketplace.sol\":4901:4906  i >=0 */\n      lt\n        /* \"marketplace.sol\":4861:5298  for(uint256 i = allTokensSell.length-2; i >=0; i--){... */\n      tag_317\n      jumpi\n        /* \"marketplace.sol\":4963:4968  price */\n      dup3\n        /* \"marketplace.sol\":4933:4942  shoseSell */\n      0x08\n        /* \"marketplace.sol\":4933:4960  shoseSell[allTokensSell[i]] */\n      0x00\n        /* \"marketplace.sol\":4943:4956  allTokensSell */\n      0x0a\n        /* \"marketplace.sol\":4957:4958  i */\n      dup5\n        /* \"marketplace.sol\":4943:4959  allTokensSell[i] */\n      dup2\n      sload\n      dup2\n      lt\n      tag_320\n      jumpi\n      tag_321\n      tag_231\n      jump\t// in\n    tag_321:\n    tag_320:\n      swap1\n      0x00\n      mstore\n      keccak256(0x00, 0x20)\n      add\n      sload\n        /* \"marketplace.sol\":4933:4960  shoseSell[allTokensSell[i]] */\n      dup2\n      mstore\n      0x20\n      add\n      swap1\n      dup2\n      mstore\n      0x20\n      add\n      0x00\n      keccak256\n      sload\n        /* \"marketplace.sol\":4933:4968  shoseSell[allTokensSell[i]] > price */\n      gt\n        /* \"marketplace.sol\":4930:5284  if(shoseSell[allTokensSell[i]] > price){... */\n      iszero\n      tag_323\n      jumpi\n        /* \"marketplace.sol\":5012:5025  allTokensSell */\n      0x0a\n        /* \"marketplace.sol\":5026:5027  i */\n      dup2\n        /* \"marketplace.sol\":5012:5028  allTokensSell[i] */\n      dup2\n      sload\n      dup2\n      lt\n      tag_324\n      jumpi\n      tag_325\n      tag_231\n      jump\t// in\n    tag_325:\n    tag_324:\n      swap1\n      0x00\n      mstore\n      keccak256(0x00, 0x20)\n      add\n      sload\n        /* \"marketplace.sol\":4991:5004  allTokensSell */\n      0x0a\n        /* \"marketplace.sol\":5007:5008  1 */\n      0x01\n        /* \"marketplace.sol\":5005:5006  i */\n      dup4\n        /* \"marketplace.sol\":5005:5008  i+1 */\n      tag_327\n      swap2\n      swap1\n      tag_300\n      jump\t// in\n    tag_327:\n        /* \"marketplace.sol\":4991:5009  allTokensSell[i+1] */\n      dup2\n      sload\n      dup2\n      lt\n      tag_328\n      jumpi\n      tag_329\n      tag_231\n      jump\t// in\n    tag_329:\n    tag_328:\n      swap1\n      0x00\n      mstore\n      keccak256(0x00, 0x20)\n      add\n        /* \"marketplace.sol\":4991:5028  allTokensSell[i+1] = allTokensSell[i] */\n      dup2\n      swap1\n      sstore\n      pop\n        /* \"marketplace.sol\":5056:5057  0 */\n      0x00\n        /* \"marketplace.sol\":5053:5054  i */\n      dup2\n        /* \"marketplace.sol\":5053:5057  i==0 */\n      eq\n        /* \"marketplace.sol\":5050:5165  if(i==0){... */\n      iszero\n      tag_331\n      jumpi\n        /* \"marketplace.sol\":5103:5110  tokenId */\n      dup4\n        /* \"marketplace.sol\":5084:5097  allTokensSell */\n      0x0a\n        /* \"marketplace.sol\":5098:5099  0 */\n      0x00\n        /* \"marketplace.sol\":5084:5100  allTokensSell[0] */\n      dup2\n      sload\n      dup2\n      lt\n      tag_332\n      jumpi\n      tag_333\n      tag_231\n      jump\t// in\n    tag_333:\n    tag_332:\n      swap1\n      0x00\n      mstore\n      keccak256(0x00, 0x20)\n      add\n        /* \"marketplace.sol\":5084:5110  allTokensSell[0] = tokenId */\n      dup2\n      swap1\n      sstore\n      pop\n        /* \"marketplace.sol\":5136:5143  return; */\n      pop\n      jump(tag_313)\n        /* \"marketplace.sol\":5050:5165  if(i==0){... */\n    tag_331:\n        /* \"marketplace.sol\":4930:5284  if(shoseSell[allTokensSell[i]] > price){... */\n      jump(tag_335)\n    tag_323:\n        /* \"marketplace.sol\":5230:5237  tokenId */\n      dup4\n        /* \"marketplace.sol\":5209:5222  allTokensSell */\n      0x0a\n        /* \"marketplace.sol\":5225:5226  1 */\n      0x01\n        /* \"marketplace.sol\":5223:5224  i */\n      dup4\n        /* \"marketplace.sol\":5223:5226  i+1 */\n      tag_336\n      swap2\n      swap1\n      tag_300\n      jump\t// in\n    tag_336:\n        /* \"marketplace.sol\":5209:5227  allTokensSell[i+1] */\n      dup2\n      sload\n      dup2\n      lt\n      tag_337\n      jumpi\n      tag_338\n      tag_231\n      jump\t// in\n    tag_338:\n    tag_337:\n      swap1\n      0x00\n      mstore\n      keccak256(0x00, 0x20)\n      add\n        /* \"marketplace.sol\":5209:5237  allTokensSell[i+1] = tokenId */\n      dup2\n      swap1\n      sstore\n      pop\n        /* \"marketplace.sol\":5259:5266  return; */\n      pop\n      jump(tag_313)\n        /* \"marketplace.sol\":4930:5284  if(shoseSell[allTokensSell[i]] > price){... */\n    tag_335:\n        /* \"marketplace.sol\":4908:4911  i-- */\n      dup1\n      dup1\n      tag_340\n      swap1\n      tag_341\n      jump\t// in\n    tag_340:\n      swap2\n      pop\n      pop\n        /* \"marketplace.sol\":4861:5298  for(uint256 i = allTokensSell.length-2; i >=0; i--){... */\n      jump(tag_316)\n    tag_317:\n      pop\n        /* \"marketplace.sol\":4818:5308  if(allTokensSell.length >= 2){... */\n    tag_315:\n        /* \"marketplace.sol\":4620:5314  function addNFTSell(uint256 tokenId, uint256 price, address seller) internal{... */\n    tag_313:\n      pop\n      pop\n      pop\n      jump\t// out\n        /* \"BEPContext.sol\":760:859  function _msgSender() internal view returns (address payable) {... */\n    tag_217:\n        /* \"BEPContext.sol\":805:820  address payable */\n      0x00\n        /* \"BEPContext.sol\":843:853  msg.sender */\n      caller\n        /* \"BEPContext.sol\":828:854  return payable(msg.sender) */\n      swap1\n      pop\n        /* \"BEPContext.sol\":760:859  function _msgSender() internal view returns (address payable) {... */\n      swap1\n      jump\t// out\n        /* \"BEPOwnable.sol\":2090:2301  function _transferOwnership(address newOwner) internal {... */\n    tag_285:\n        /* \"BEPOwnable.sol\":2179:2180  0 */\n      0x00\n        /* \"BEPOwnable.sol\":2159:2181  newOwner != address(0) */\n      0xffffffffffffffffffffffffffffffffffffffff\n      and\n        /* \"BEPOwnable.sol\":2159:2167  newOwner */\n      dup2\n        /* \"BEPOwnable.sol\":2159:2181  newOwner != address(0) */\n      0xffffffffffffffffffffffffffffffffffffffff\n      and\n      eq\n      iszero\n        /* \"BEPOwnable.sol\":2151:2224  require(newOwner != address(0), \"Ownable: new owner is the zero address\") */\n      tag_344\n      jumpi\n      mload(0x40)\n      0x08c379a000000000000000000000000000000000000000000000000000000000\n      dup2\n      mstore\n      0x04\n      add\n      tag_345\n      swap1\n      tag_346\n      jump\t// in\n    tag_345:\n      mload(0x40)\n      dup1\n      swap2\n      sub\n      swap1\n      revert\n    tag_344:\n        /* \"BEPOwnable.sol\":2264:2272  newOwner */\n      dup1\n        /* \"BEPOwnable.sol\":2235:2273  OwnershipTransferred(_owner, newOwner) */\n      0xffffffffffffffffffffffffffffffffffffffff\n      and\n        /* \"BEPOwnable.sol\":2256:2262  _owner */\n      0x00\n      dup1\n      sload\n      swap1\n      0x0100\n      exp\n      swap1\n      div\n      0xffffffffffffffffffffffffffffffffffffffff\n      and\n        /* \"BEPOwnable.sol\":2235:2273  OwnershipTransferred(_owner, newOwner) */\n      0xffffffffffffffffffffffffffffffffffffffff\n      and\n      0x8be0079c531659141344cd1fd0a4f28419497f9722a3daafe3b4186f6b6457e0\n      mload(0x40)\n      mload(0x40)\n      dup1\n      swap2\n      sub\n      swap1\n      log3\n        /* \"BEPOwnable.sol\":2288:2296  newOwner */\n      dup1\n        /* \"BEPOwnable.sol\":2279:2285  _owner */\n      0x00\n      dup1\n        /* \"BEPOwnable.sol\":2279:2296  _owner = newOwner */\n      0x0100\n      exp\n      dup2\n      sload\n      dup2\n      0xffffffffffffffffffffffffffffffffffffffff\n      mul\n      not\n      and\n      swap1\n      dup4\n      0xffffffffffffffffffffffffffffffffffffffff\n      and\n      mul\n      or\n      swap1\n      sstore\n      pop\n        /* \"BEPOwnable.sol\":2090:2301  function _transferOwnership(address newOwner) internal {... */\n      pop\n      jump\t// out\n        /* \"#utility.yul\":7:146   */\n    tag_348:\n        /* \"#utility.yul\":53:58   */\n      0x00\n        /* \"#utility.yul\":91:97   */\n      dup2\n        /* \"#utility.yul\":78:98   */\n      calldataload\n        /* \"#utility.yul\":69:98   */\n      swap1\n      pop\n        /* \"#utility.yul\":107:140   */\n      tag_350\n        /* \"#utility.yul\":134:139   */\n      dup2\n        /* \"#utility.yul\":107:140   */\n      tag_351\n      jump\t// in\n    tag_350:\n        /* \"#utility.yul\":7:146   */\n      swap3\n      swap2\n      pop\n      pop\n      jump\t// out\n        /* \"#utility.yul\":152:295   */\n    tag_352:\n        /* \"#utility.yul\":209:214   */\n      0x00\n        /* \"#utility.yul\":240:246   */\n      dup2\n        /* \"#utility.yul\":234:247   */\n      mload\n        /* \"#utility.yul\":225:247   */\n      swap1\n      pop\n        /* \"#utility.yul\":256:289   */\n      tag_354\n        /* \"#utility.yul\":283:288   */\n      dup2\n        /* \"#utility.yul\":256:289   */\n      tag_351\n      jump\t// in\n    tag_354:\n        /* \"#utility.yul\":152:295   */\n      swap3\n      swap2\n      pop\n      pop\n      jump\t// out\n        /* \"#utility.yul\":301:438   */\n    tag_355:\n        /* \"#utility.yul\":355:360   */\n      0x00\n        /* \"#utility.yul\":386:392   */\n      dup2\n        /* \"#utility.yul\":380:393   */\n      mload\n        /* \"#utility.yul\":371:393   */\n      swap1\n      pop\n        /* \"#utility.yul\":402:432   */\n      tag_357\n        /* \"#utility.yul\":426:431   */\n      dup2\n        /* \"#utility.yul\":402:432   */\n      tag_358\n      jump\t// in\n    tag_357:\n        /* \"#utility.yul\":301:438   */\n      swap3\n      swap2\n      pop\n      pop\n      jump\t// out\n        /* \"#utility.yul\":444:583   */\n    tag_359:\n        /* \"#utility.yul\":490:495   */\n      0x00\n        /* \"#utility.yul\":528:534   */\n      dup2\n        /* \"#utility.yul\":515:535   */\n      calldataload\n        /* \"#utility.yul\":506:535   */\n      swap1\n      pop\n        /* \"#utility.yul\":544:577   */\n      tag_361\n        /* \"#utility.yul\":571:576   */\n      dup2\n        /* \"#utility.yul\":544:577   */\n      tag_362\n      jump\t// in\n    tag_361:\n        /* \"#utility.yul\":444:583   */\n      swap3\n      swap2\n      pop\n      pop\n      jump\t// out\n        /* \"#utility.yul\":589:732   */\n    tag_363:\n        /* \"#utility.yul\":646:651   */\n      0x00\n        /* \"#utility.yul\":677:683   */\n      dup2\n        /* \"#utility.yul\":671:684   */\n      mload\n        /* \"#utility.yul\":662:684   */\n      swap1\n      pop\n        /* \"#utility.yul\":693:726   */\n      tag_365\n        /* \"#utility.yul\":720:725   */\n      dup2\n        /* \"#utility.yul\":693:726   */\n      tag_362\n      jump\t// in\n    tag_365:\n        /* \"#utility.yul\":589:732   */\n      swap3\n      swap2\n      pop\n      pop\n      jump\t// out\n        /* \"#utility.yul\":738:1067   */\n    tag_36:\n        /* \"#utility.yul\":797:803   */\n      0x00\n        /* \"#utility.yul\":846:848   */\n      0x20\n        /* \"#utility.yul\":834:843   */\n      dup3\n        /* \"#utility.yul\":825:832   */\n      dup5\n        /* \"#utility.yul\":821:844   */\n      sub\n        /* \"#utility.yul\":817:849   */\n      slt\n        /* \"#utility.yul\":814:933   */\n      iszero\n      tag_367\n      jumpi\n        /* \"#utility.yul\":852:931   */\n      tag_368\n      tag_369\n      jump\t// in\n    tag_368:\n        /* \"#utility.yul\":814:933   */\n    tag_367:\n        /* \"#utility.yul\":972:973   */\n      0x00\n        /* \"#utility.yul\":997:1050   */\n      tag_370\n        /* \"#utility.yul\":1042:1049   */\n      dup5\n        /* \"#utility.yul\":1033:1039   */\n      dup3\n        /* \"#utility.yul\":1022:1031   */\n      dup6\n        /* \"#utility.yul\":1018:1040   */\n      add\n        /* \"#utility.yul\":997:1050   */\n      tag_348\n      jump\t// in\n    tag_370:\n        /* \"#utility.yul\":987:1050   */\n      swap2\n      pop\n        /* \"#utility.yul\":943:1060   */\n      pop\n        /* \"#utility.yul\":738:1067   */\n      swap3\n      swap2\n      pop\n      pop\n      jump\t// out\n        /* \"#utility.yul\":1073:1424   */\n    tag_141:\n        /* \"#utility.yul\":1143:1149   */\n      0x00\n        /* \"#utility.yul\":1192:1194   */\n      0x20\n        /* \"#utility.yul\":1180:1189   */\n      dup3\n        /* \"#utility.yul\":1171:1178   */\n      dup5\n        /* \"#utility.yul\":1167:1190   */\n      sub\n        /* \"#utility.yul\":1163:1195   */\n      slt\n        /* \"#utility.yul\":1160:1279   */\n      iszero\n      tag_372\n      jumpi\n        /* \"#utility.yul\":1198:1277   */\n      tag_373\n      tag_369\n      jump\t// in\n    tag_373:\n        /* \"#utility.yul\":1160:1279   */\n    tag_372:\n        /* \"#utility.yul\":1318:1319   */\n      0x00\n        /* \"#utility.yul\":1343:1407   */\n      tag_374\n        /* \"#utility.yul\":1399:1406   */\n      dup5\n        /* \"#utility.yul\":1390:1396   */\n      dup3\n        /* \"#utility.yul\":1379:1388   */\n      dup6\n        /* \"#utility.yul\":1375:1397   */\n      add\n        /* \"#utility.yul\":1343:1407   */\n      tag_352\n      jump\t// in\n    tag_374:\n        /* \"#utility.yul\":1333:1407   */\n      swap2\n      pop\n        /* \"#utility.yul\":1289:1417   */\n      pop\n        /* \"#utility.yul\":1073:1424   */\n      swap3\n      swap2\n      pop\n      pop\n      jump\t// out\n        /* \"#utility.yul\":1430:1904   */\n    tag_64:\n        /* \"#utility.yul\":1498:1504   */\n      0x00\n        /* \"#utility.yul\":1506:1512   */\n      dup1\n        /* \"#utility.yul\":1555:1557   */\n      0x40\n        /* \"#utility.yul\":1543:1552   */\n      dup4\n        /* \"#utility.yul\":1534:1541   */\n      dup6\n        /* \"#utility.yul\":1530:1553   */\n      sub\n        /* \"#utility.yul\":1526:1558   */\n      slt\n        /* \"#utility.yul\":1523:1642   */\n      iszero\n      tag_376\n      jumpi\n        /* \"#utility.yul\":1561:1640   */\n      tag_377\n      tag_369\n      jump\t// in\n    tag_377:\n        /* \"#utility.yul\":1523:1642   */\n    tag_376:\n        /* \"#utility.yul\":1681:1682   */\n      0x00\n        /* \"#utility.yul\":1706:1759   */\n      tag_378\n        /* \"#utility.yul\":1751:1758   */\n      dup6\n        /* \"#utility.yul\":1742:1748   */\n      dup3\n        /* \"#utility.yul\":1731:1740   */\n      dup7\n        /* \"#utility.yul\":1727:1749   */\n      add\n        /* \"#utility.yul\":1706:1759   */\n      tag_348\n      jump\t// in\n    tag_378:\n        /* \"#utility.yul\":1696:1759   */\n      swap3\n      pop\n        /* \"#utility.yul\":1652:1769   */\n      pop\n        /* \"#utility.yul\":1808:1810   */\n      0x20\n        /* \"#utility.yul\":1834:1887   */\n      tag_379\n        /* \"#utility.yul\":1879:1886   */\n      dup6\n        /* \"#utility.yul\":1870:1876   */\n      dup3\n        /* \"#utility.yul\":1859:1868   */\n      dup7\n        /* \"#utility.yul\":1855:1877   */\n      add\n        /* \"#utility.yul\":1834:1887   */\n      tag_359\n      jump\t// in\n    tag_379:\n        /* \"#utility.yul\":1824:1887   */\n      swap2\n      pop\n        /* \"#utility.yul\":1779:1897   */\n      pop\n        /* \"#utility.yul\":1430:1904   */\n      swap3\n      pop\n      swap3\n      swap1\n      pop\n      jump\t// out\n        /* \"#utility.yul\":1910:2255   */\n    tag_158:\n        /* \"#utility.yul\":1977:1983   */\n      0x00\n        /* \"#utility.yul\":2026:2028   */\n      0x20\n        /* \"#utility.yul\":2014:2023   */\n      dup3\n        /* \"#utility.yul\":2005:2012   */\n      dup5\n        /* \"#utility.yul\":2001:2024   */\n      sub\n        /* \"#utility.yul\":1997:2029   */\n      slt\n        /* \"#utility.yul\":1994:2113   */\n      iszero\n      tag_381\n      jumpi\n        /* \"#utility.yul\":2032:2111   */\n      tag_382\n      tag_369\n      jump\t// in\n    tag_382:\n        /* \"#utility.yul\":1994:2113   */\n    tag_381:\n        /* \"#utility.yul\":2152:2153   */\n      0x00\n        /* \"#utility.yul\":2177:2238   */\n      tag_383\n        /* \"#utility.yul\":2230:2237   */\n      dup5\n        /* \"#utility.yul\":2221:2227   */\n      dup3\n        /* \"#utility.yul\":2210:2219   */\n      dup6\n        /* \"#utility.yul\":2206:2228   */\n      add\n        /* \"#utility.yul\":2177:2238   */\n      tag_355\n      jump\t// in\n    tag_383:\n        /* \"#utility.yul\":2167:2238   */\n      swap2\n      pop\n        /* \"#utility.yul\":2123:2248   */\n      pop\n        /* \"#utility.yul\":1910:2255   */\n      swap3\n      swap2\n      pop\n      pop\n      jump\t// out\n        /* \"#utility.yul\":2261:2590   */\n    tag_50:\n        /* \"#utility.yul\":2320:2326   */\n      0x00\n        /* \"#utility.yul\":2369:2371   */\n      0x20\n        /* \"#utility.yul\":2357:2366   */\n      dup3\n        /* \"#utility.yul\":2348:2355   */\n      dup5\n        /* \"#utility.yul\":2344:2367   */\n      sub\n        /* \"#utility.yul\":2340:2372   */\n      slt\n        /* \"#utility.yul\":2337:2456   */\n      iszero\n      tag_385\n      jumpi\n        /* \"#utility.yul\":2375:2454   */\n      tag_386\n      tag_369\n      jump\t// in\n    tag_386:\n        /* \"#utility.yul\":2337:2456   */\n    tag_385:\n        /* \"#utility.yul\":2495:2496   */\n      0x00\n        /* \"#utility.yul\":2520:2573   */\n      tag_387\n        /* \"#utility.yul\":2565:2572   */\n      dup5\n        /* \"#utility.yul\":2556:2562   */\n      dup3\n        /* \"#utility.yul\":2545:2554   */\n      dup6\n        /* \"#utility.yul\":2541:2563   */\n      add\n        /* \"#utility.yul\":2520:2573   */\n      tag_359\n      jump\t// in\n    tag_387:\n        /* \"#utility.yul\":2510:2573   */\n      swap2\n      pop\n        /* \"#utility.yul\":2466:2583   */\n      pop\n        /* \"#utility.yul\":2261:2590   */\n      swap3\n      swap2\n      pop\n      pop\n      jump\t// out\n        /* \"#utility.yul\":2596:2947   */\n    tag_262:\n        /* \"#utility.yul\":2666:2672   */\n      0x00\n        /* \"#utility.yul\":2715:2717   */\n      0x20\n        /* \"#utility.yul\":2703:2712   */\n      dup3\n        /* \"#utility.yul\":2694:2701   */\n      dup5\n        /* \"#utility.yul\":2690:2713   */\n      sub\n        /* \"#utility.yul\":2686:2718   */\n      slt\n        /* \"#utility.yul\":2683:2802   */\n      iszero\n      tag_389\n      jumpi\n        /* \"#utility.yul\":2721:2800   */\n      tag_390\n      tag_369\n      jump\t// in\n    tag_390:\n        /* \"#utility.yul\":2683:2802   */\n    tag_389:\n        /* \"#utility.yul\":2841:2842   */\n      0x00\n        /* \"#utility.yul\":2866:2930   */\n      tag_391\n        /* \"#utility.yul\":2922:2929   */\n      dup5\n        /* \"#utility.yul\":2913:2919   */\n      dup3\n        /* \"#utility.yul\":2902:2911   */\n      dup6\n        /* \"#utility.yul\":2898:2920   */\n      add\n        /* \"#utility.yul\":2866:2930   */\n      tag_363\n      jump\t// in\n    tag_391:\n        /* \"#utility.yul\":2856:2930   */\n      swap2\n      pop\n        /* \"#utility.yul\":2812:2940   */\n      pop\n        /* \"#utility.yul\":2596:2947   */\n      swap3\n      swap2\n      pop\n      pop\n      jump\t// out\n        /* \"#utility.yul\":2953:3427   */\n    tag_70:\n        /* \"#utility.yul\":3021:3027   */\n      0x00\n        /* \"#utility.yul\":3029:3035   */\n      dup1\n        /* \"#utility.yul\":3078:3080   */\n      0x40\n        /* \"#utility.yul\":3066:3075   */\n      dup4\n        /* \"#utility.yul\":3057:3064   */\n      dup6\n        /* \"#utility.yul\":3053:3076   */\n      sub\n        /* \"#utility.yul\":3049:3081   */\n      slt\n        /* \"#utility.yul\":3046:3165   */\n      iszero\n      tag_393\n      jumpi\n        /* \"#utility.yul\":3084:3163   */\n      tag_394\n      tag_369\n      jump\t// in\n    tag_394:\n        /* \"#utility.yul\":3046:3165   */\n    tag_393:\n        /* \"#utility.yul\":3204:3205   */\n      0x00\n        /* \"#utility.yul\":3229:3282   */\n      tag_395\n        /* \"#utility.yul\":3274:3281   */\n      dup6\n        /* \"#utility.yul\":3265:3271   */\n      dup3\n        /* \"#utility.yul\":3254:3263   */\n      dup7\n        /* \"#utility.yul\":3250:3272   */\n      add\n        /* \"#utility.yul\":3229:3282   */\n      tag_359\n      jump\t// in\n    tag_395:\n        /* \"#utility.yul\":3219:3282   */\n      swap3\n      pop\n        /* \"#utility.yul\":3175:3292   */\n      pop\n        /* \"#utility.yul\":3331:3333   */\n      0x20\n        /* \"#utility.yul\":3357:3410   */\n      tag_396\n        /* \"#utility.yul\":3402:3409   */\n      dup6\n        /* \"#utility.yul\":3393:3399   */\n      dup3\n        /* \"#utility.yul\":3382:3391   */\n      dup7\n        /* \"#utility.yul\":3378:3400   */\n      add\n        /* \"#utility.yul\":3357:3410   */\n      tag_359\n      jump\t// in\n    tag_396:\n        /* \"#utility.yul\":3347:3410   */\n      swap2\n      pop\n        /* \"#utility.yul\":3302:3420   */\n      pop\n        /* \"#utility.yul\":2953:3427   */\n      swap3\n      pop\n      swap3\n      swap1\n      pop\n      jump\t// out\n        /* \"#utility.yul\":3433:3612   */\n    tag_397:\n        /* \"#utility.yul\":3502:3512   */\n      0x00\n        /* \"#utility.yul\":3523:3569   */\n      tag_399\n        /* \"#utility.yul\":3565:3568   */\n      dup4\n        /* \"#utility.yul\":3557:3563   */\n      dup4\n        /* \"#utility.yul\":3523:3569   */\n      tag_400\n      jump\t// in\n    tag_399:\n        /* \"#utility.yul\":3601:3605   */\n      0x20\n        /* \"#utility.yul\":3596:3599   */\n      dup4\n        /* \"#utility.yul\":3592:3606   */\n      add\n        /* \"#utility.yul\":3578:3606   */\n      swap1\n      pop\n        /* \"#utility.yul\":3433:3612   */\n      swap3\n      swap2\n      pop\n      pop\n      jump\t// out\n        /* \"#utility.yul\":3618:3797   */\n    tag_401:\n        /* \"#utility.yul\":3687:3697   */\n      0x00\n        /* \"#utility.yul\":3708:3754   */\n      tag_403\n        /* \"#utility.yul\":3750:3753   */\n      dup4\n        /* \"#utility.yul\":3742:3748   */\n      dup4\n        /* \"#utility.yul\":3708:3754   */\n      tag_404\n      jump\t// in\n    tag_403:\n        /* \"#utility.yul\":3786:3790   */\n      0x20\n        /* \"#utility.yul\":3781:3784   */\n      dup4\n        /* \"#utility.yul\":3777:3791   */\n      add\n        /* \"#utility.yul\":3763:3791   */\n      swap1\n      pop\n        /* \"#utility.yul\":3618:3797   */\n      swap3\n      swap2\n      pop\n      pop\n      jump\t// out\n        /* \"#utility.yul\":3803:3911   */\n    tag_400:\n        /* \"#utility.yul\":3880:3904   */\n      tag_406\n        /* \"#utility.yul\":3898:3903   */\n      dup2\n        /* \"#utility.yul\":3880:3904   */\n      tag_407\n      jump\t// in\n    tag_406:\n        /* \"#utility.yul\":3875:3878   */\n      dup3\n        /* \"#utility.yul\":3868:3905   */\n      mstore\n        /* \"#utility.yul\":3803:3911   */\n      pop\n      pop\n      jump\t// out\n        /* \"#utility.yul\":3917:4035   */\n    tag_408:\n        /* \"#utility.yul\":4004:4028   */\n      tag_410\n        /* \"#utility.yul\":4022:4027   */\n      dup2\n        /* \"#utility.yul\":4004:4028   */\n      tag_407\n      jump\t// in\n    tag_410:\n        /* \"#utility.yul\":3999:4002   */\n      dup3\n        /* \"#utility.yul\":3992:4029   */\n      mstore\n        /* \"#utility.yul\":3917:4035   */\n      pop\n      pop\n      jump\t// out\n        /* \"#utility.yul\":4071:4803   */\n    tag_411:\n        /* \"#utility.yul\":4190:4193   */\n      0x00\n        /* \"#utility.yul\":4219:4273   */\n      tag_413\n        /* \"#utility.yul\":4267:4272   */\n      dup3\n        /* \"#utility.yul\":4219:4273   */\n      tag_414\n      jump\t// in\n    tag_413:\n        /* \"#utility.yul\":4289:4375   */\n      tag_415\n        /* \"#utility.yul\":4368:4374   */\n      dup2\n        /* \"#utility.yul\":4363:4366   */\n      dup6\n        /* \"#utility.yul\":4289:4375   */\n      tag_416\n      jump\t// in\n    tag_415:\n        /* \"#utility.yul\":4282:4375   */\n      swap4\n      pop\n        /* \"#utility.yul\":4399:4455   */\n      tag_417\n        /* \"#utility.yul\":4449:4454   */\n      dup4\n        /* \"#utility.yul\":4399:4455   */\n      tag_418\n      jump\t// in\n    tag_417:\n        /* \"#utility.yul\":4478:4485   */\n      dup1\n        /* \"#utility.yul\":4509:4510   */\n      0x00\n        /* \"#utility.yul\":4494:4778   */\n    tag_419:\n        /* \"#utility.yul\":4519:4525   */\n      dup4\n        /* \"#utility.yul\":4516:4517   */\n      dup2\n        /* \"#utility.yul\":4513:4526   */\n      lt\n        /* \"#utility.yul\":4494:4778   */\n      iszero\n      tag_421\n      jumpi\n        /* \"#utility.yul\":4595:4601   */\n      dup2\n        /* \"#utility.yul\":4589:4602   */\n      mload\n        /* \"#utility.yul\":4622:4685   */\n      tag_422\n        /* \"#utility.yul\":4681:4684   */\n      dup9\n        /* \"#utility.yul\":4666:4679   */\n      dup3\n        /* \"#utility.yul\":4622:4685   */\n      tag_397\n      jump\t// in\n    tag_422:\n        /* \"#utility.yul\":4615:4685   */\n      swap8\n      pop\n        /* \"#utility.yul\":4708:4768   */\n      tag_423\n        /* \"#utility.yul\":4761:4767   */\n      dup4\n        /* \"#utility.yul\":4708:4768   */\n      tag_424\n      jump\t// in\n    tag_423:\n        /* \"#utility.yul\":4698:4768   */\n      swap3\n      pop\n        /* \"#utility.yul\":4554:4778   */\n      pop\n        /* \"#utility.yul\":4541:4542   */\n      0x01\n        /* \"#utility.yul\":4538:4539   */\n      dup2\n        /* \"#utility.yul\":4534:4543   */\n      add\n        /* \"#utility.yul\":4529:4543   */\n      swap1\n      pop\n        /* \"#utility.yul\":4494:4778   */\n      jump(tag_419)\n    tag_421:\n        /* \"#utility.yul\":4498:4512   */\n      pop\n        /* \"#utility.yul\":4794:4797   */\n      dup6\n        /* \"#utility.yul\":4787:4797   */\n      swap4\n      pop\n        /* \"#utility.yul\":4195:4803   */\n      pop\n      pop\n      pop\n        /* \"#utility.yul\":4071:4803   */\n      swap3\n      swap2\n      pop\n      pop\n      jump\t// out\n        /* \"#utility.yul\":4839:5571   */\n    tag_425:\n        /* \"#utility.yul\":4958:4961   */\n      0x00\n        /* \"#utility.yul\":4987:5041   */\n      tag_427\n        /* \"#utility.yul\":5035:5040   */\n      dup3\n        /* \"#utility.yul\":4987:5041   */\n      tag_428\n      jump\t// in\n    tag_427:\n        /* \"#utility.yul\":5057:5143   */\n      tag_429\n        /* \"#utility.yul\":5136:5142   */\n      dup2\n        /* \"#utility.yul\":5131:5134   */\n      dup6\n        /* \"#utility.yul\":5057:5143   */\n      tag_430\n      jump\t// in\n    tag_429:\n        /* \"#utility.yul\":5050:5143   */\n      swap4\n      pop\n        /* \"#utility.yul\":5167:5223   */\n      tag_431\n        /* \"#utility.yul\":5217:5222   */\n      dup4\n        /* \"#utility.yul\":5167:5223   */\n      tag_432\n      jump\t// in\n    tag_431:\n        /* \"#utility.yul\":5246:5253   */\n      dup1\n        /* \"#utility.yul\":5277:5278   */\n      0x00\n        /* \"#utility.yul\":5262:5546   */\n    tag_433:\n        /* \"#utility.yul\":5287:5293   */\n      dup4\n        /* \"#utility.yul\":5284:5285   */\n      dup2\n        /* \"#utility.yul\":5281:5294   */\n      lt\n        /* \"#utility.yul\":5262:5546   */\n      iszero\n      tag_435\n      jumpi\n        /* \"#utility.yul\":5363:5369   */\n      dup2\n        /* \"#utility.yul\":5357:5370   */\n      mload\n        /* \"#utility.yul\":5390:5453   */\n      tag_436\n        /* \"#utility.yul\":5449:5452   */\n      dup9\n        /* \"#utility.yul\":5434:5447   */\n      dup3\n        /* \"#utility.yul\":5390:5453   */\n      tag_401\n      jump\t// in\n    tag_436:\n        /* \"#utility.yul\":5383:5453   */\n      swap8\n      pop\n        /* \"#utility.yul\":5476:5536   */\n      tag_437\n        /* \"#utility.yul\":5529:5535   */\n      dup4\n        /* \"#utility.yul\":5476:5536   */\n      tag_438\n      jump\t// in\n    tag_437:\n        /* \"#utility.yul\":5466:5536   */\n      swap3\n      pop\n        /* \"#utility.yul\":5322:5546   */\n      pop\n        /* \"#utility.yul\":5309:5310   */\n      0x01\n        /* \"#utility.yul\":5306:5307   */\n      dup2\n        /* \"#utility.yul\":5302:5311   */\n      add\n        /* \"#utility.yul\":5297:5311   */\n      swap1\n      pop\n        /* \"#utility.yul\":5262:5546   */\n      jump(tag_433)\n    tag_435:\n        /* \"#utility.yul\":5266:5280   */\n      pop\n        /* \"#utility.yul\":5562:5565   */\n      dup6\n        /* \"#utility.yul\":5555:5565   */\n      swap4\n      pop\n        /* \"#utility.yul\":4963:5571   */\n      pop\n      pop\n      pop\n        /* \"#utility.yul\":4839:5571   */\n      swap3\n      swap2\n      pop\n      pop\n      jump\t// out\n        /* \"#utility.yul\":5577:5686   */\n    tag_439:\n        /* \"#utility.yul\":5658:5679   */\n      tag_441\n        /* \"#utility.yul\":5673:5678   */\n      dup2\n        /* \"#utility.yul\":5658:5679   */\n      tag_442\n      jump\t// in\n    tag_441:\n        /* \"#utility.yul\":5653:5656   */\n      dup3\n        /* \"#utility.yul\":5646:5680   */\n      mstore\n        /* \"#utility.yul\":5577:5686   */\n      pop\n      pop\n      jump\t// out\n        /* \"#utility.yul\":5692:6058   */\n    tag_443:\n        /* \"#utility.yul\":5834:5837   */\n      0x00\n        /* \"#utility.yul\":5855:5922   */\n      tag_445\n        /* \"#utility.yul\":5919:5921   */\n      0x1d\n        /* \"#utility.yul\":5914:5917   */\n      dup4\n        /* \"#utility.yul\":5855:5922   */\n      tag_446\n      jump\t// in\n    tag_445:\n        /* \"#utility.yul\":5848:5922   */\n      swap2\n      pop\n        /* \"#utility.yul\":5931:6024   */\n      tag_447\n        /* \"#utility.yul\":6020:6023   */\n      dup3\n        /* \"#utility.yul\":5931:6024   */\n      tag_448\n      jump\t// in\n    tag_447:\n        /* \"#utility.yul\":6049:6051   */\n      0x20\n        /* \"#utility.yul\":6044:6047   */\n      dup3\n        /* \"#utility.yul\":6040:6052   */\n      add\n        /* \"#utility.yul\":6033:6052   */\n      swap1\n      pop\n        /* \"#utility.yul\":5692:6058   */\n      swap2\n      swap1\n      pop\n      jump\t// out\n        /* \"#utility.yul\":6064:6430   */\n    tag_449:\n        /* \"#utility.yul\":6206:6209   */\n      0x00\n        /* \"#utility.yul\":6227:6294   */\n      tag_451\n        /* \"#utility.yul\":6291:6293   */\n      0x0d\n        /* \"#utility.yul\":6286:6289   */\n      dup4\n        /* \"#utility.yul\":6227:6294   */\n      tag_446\n      jump\t// in\n    tag_451:\n        /* \"#utility.yul\":6220:6294   */\n      swap2\n      pop\n        /* \"#utility.yul\":6303:6396   */\n      tag_452\n        /* \"#utility.yul\":6392:6395   */\n      dup3\n        /* \"#utility.yul\":6303:6396   */\n      tag_453\n      jump\t// in\n    tag_452:\n        /* \"#utility.yul\":6421:6423   */\n      0x20\n        /* \"#utility.yul\":6416:6419   */\n      dup3\n        /* \"#utility.yul\":6412:6424   */\n      add\n        /* \"#utility.yul\":6405:6424   */\n      swap1\n      pop\n        /* \"#utility.yul\":6064:6430   */\n      swap2\n      swap1\n      pop\n      jump\t// out\n        /* \"#utility.yul\":6436:6802   */\n    tag_454:\n        /* \"#utility.yul\":6578:6581   */\n      0x00\n        /* \"#utility.yul\":6599:6666   */\n      tag_456\n        /* \"#utility.yul\":6663:6665   */\n      0x26\n        /* \"#utility.yul\":6658:6661   */\n      dup4\n        /* \"#utility.yul\":6599:6666   */\n      tag_446\n      jump\t// in\n    tag_456:\n        /* \"#utility.yul\":6592:6666   */\n      swap2\n      pop\n        /* \"#utility.yul\":6675:6768   */\n      tag_457\n        /* \"#utility.yul\":6764:6767   */\n      dup3\n        /* \"#utility.yul\":6675:6768   */\n      tag_458\n      jump\t// in\n    tag_457:\n        /* \"#utility.yul\":6793:6795   */\n      0x40\n        /* \"#utility.yul\":6788:6791   */\n      dup3\n        /* \"#utility.yul\":6784:6796   */\n      add\n        /* \"#utility.yul\":6777:6796   */\n      swap1\n      pop\n        /* \"#utility.yul\":6436:6802   */\n      swap2\n      swap1\n      pop\n      jump\t// out\n        /* \"#utility.yul\":6808:7174   */\n    tag_459:\n        /* \"#utility.yul\":6950:6953   */\n      0x00\n        /* \"#utility.yul\":6971:7038   */\n      tag_461\n        /* \"#utility.yul\":7035:7037   */\n      0x18\n        /* \"#utility.yul\":7030:7033   */\n      dup4\n        /* \"#utility.yul\":6971:7038   */\n      tag_446\n      jump\t// in\n    tag_461:\n        /* \"#utility.yul\":6964:7038   */\n      swap2\n      pop\n        /* \"#utility.yul\":7047:7140   */\n      tag_462\n        /* \"#utility.yul\":7136:7139   */\n      dup3\n        /* \"#utility.yul\":7047:7140   */\n      tag_463\n      jump\t// in\n    tag_462:\n        /* \"#utility.yul\":7165:7167   */\n      0x20\n        /* \"#utility.yul\":7160:7163   */\n      dup3\n        /* \"#utility.yul\":7156:7168   */\n      add\n        /* \"#utility.yul\":7149:7168   */\n      swap1\n      pop\n        /* \"#utility.yul\":6808:7174   */\n      swap2\n      swap1\n      pop\n      jump\t// out\n        /* \"#utility.yul\":7180:7545   */\n    tag_464:\n        /* \"#utility.yul\":7322:7325   */\n      0x00\n        /* \"#utility.yul\":7343:7409   */\n      tag_466\n        /* \"#utility.yul\":7407:7408   */\n      0x09\n        /* \"#utility.yul\":7402:7405   */\n      dup4\n        /* \"#utility.yul\":7343:7409   */\n      tag_446\n      jump\t// in\n    tag_466:\n        /* \"#utility.yul\":7336:7409   */\n      swap2\n      pop\n        /* \"#utility.yul\":7418:7511   */\n      tag_467\n        /* \"#utility.yul\":7507:7510   */\n      dup3\n        /* \"#utility.yul\":7418:7511   */\n      tag_468\n      jump\t// in\n    tag_467:\n        /* \"#utility.yul\":7536:7538   */\n      0x20\n        /* \"#utility.yul\":7531:7534   */\n      dup3\n        /* \"#utility.yul\":7527:7539   */\n      add\n        /* \"#utility.yul\":7520:7539   */\n      swap1\n      pop\n        /* \"#utility.yul\":7180:7545   */\n      swap2\n      swap1\n      pop\n      jump\t// out\n        /* \"#utility.yul\":7551:7917   */\n    tag_469:\n        /* \"#utility.yul\":7693:7696   */\n      0x00\n        /* \"#utility.yul\":7714:7781   */\n      tag_471\n        /* \"#utility.yul\":7778:7780   */\n      0x28\n        /* \"#utility.yul\":7773:7776   */\n      dup4\n        /* \"#utility.yul\":7714:7781   */\n      tag_446\n      jump\t// in\n    tag_471:\n        /* \"#utility.yul\":7707:7781   */\n      swap2\n      pop\n        /* \"#utility.yul\":7790:7883   */\n      tag_472\n        /* \"#utility.yul\":7879:7882   */\n      dup3\n        /* \"#utility.yul\":7790:7883   */\n      tag_473\n      jump\t// in\n    tag_472:\n        /* \"#utility.yul\":7908:7910   */\n      0x40\n        /* \"#utility.yul\":7903:7906   */\n      dup3\n        /* \"#utility.yul\":7899:7911   */\n      add\n        /* \"#utility.yul\":7892:7911   */\n      swap1\n      pop\n        /* \"#utility.yul\":7551:7917   */\n      swap2\n      swap1\n      pop\n      jump\t// out\n        /* \"#utility.yul\":7923:8289   */\n    tag_474:\n        /* \"#utility.yul\":8065:8068   */\n      0x00\n        /* \"#utility.yul\":8086:8153   */\n      tag_476\n        /* \"#utility.yul\":8150:8152   */\n      0x14\n        /* \"#utility.yul\":8145:8148   */\n      dup4\n        /* \"#utility.yul\":8086:8153   */\n      tag_446\n      jump\t// in\n    tag_476:\n        /* \"#utility.yul\":8079:8153   */\n      swap2\n      pop\n        /* \"#utility.yul\":8162:8255   */\n      tag_477\n        /* \"#utility.yul\":8251:8254   */\n      dup3\n        /* \"#utility.yul\":8162:8255   */\n      tag_478\n      jump\t// in\n    tag_477:\n        /* \"#utility.yul\":8280:8282   */\n      0x20\n        /* \"#utility.yul\":8275:8278   */\n      dup3\n        /* \"#utility.yul\":8271:8283   */\n      add\n        /* \"#utility.yul\":8264:8283   */\n      swap1\n      pop\n        /* \"#utility.yul\":7923:8289   */\n      swap2\n      swap1\n      pop\n      jump\t// out\n        /* \"#utility.yul\":8295:8661   */\n    tag_479:\n        /* \"#utility.yul\":8437:8440   */\n      0x00\n        /* \"#utility.yul\":8458:8525   */\n      tag_481\n        /* \"#utility.yul\":8522:8524   */\n      0x20\n        /* \"#utility.yul\":8517:8520   */\n      dup4\n        /* \"#utility.yul\":8458:8525   */\n      tag_446\n      jump\t// in\n    tag_481:\n        /* \"#utility.yul\":8451:8525   */\n      swap2\n      pop\n        /* \"#utility.yul\":8534:8627   */\n      tag_482\n        /* \"#utility.yul\":8623:8626   */\n      dup3\n        /* \"#utility.yul\":8534:8627   */\n      tag_483\n      jump\t// in\n    tag_482:\n        /* \"#utility.yul\":8652:8654   */\n      0x20\n        /* \"#utility.yul\":8647:8650   */\n      dup3\n        /* \"#utility.yul\":8643:8655   */\n      add\n        /* \"#utility.yul\":8636:8655   */\n      swap1\n      pop\n        /* \"#utility.yul\":8295:8661   */\n      swap2\n      swap1\n      pop\n      jump\t// out\n        /* \"#utility.yul\":8667:9033   */\n    tag_484:\n        /* \"#utility.yul\":8809:8812   */\n      0x00\n        /* \"#utility.yul\":8830:8897   */\n      tag_486\n        /* \"#utility.yul\":8894:8896   */\n      0x14\n        /* \"#utility.yul\":8889:8892   */\n      dup4\n        /* \"#utility.yul\":8830:8897   */\n      tag_446\n      jump\t// in\n    tag_486:\n        /* \"#utility.yul\":8823:8897   */\n      swap2\n      pop\n        /* \"#utility.yul\":8906:8999   */\n      tag_487\n        /* \"#utility.yul\":8995:8998   */\n      dup3\n        /* \"#utility.yul\":8906:8999   */\n      tag_488\n      jump\t// in\n    tag_487:\n        /* \"#utility.yul\":9024:9026   */\n      0x20\n        /* \"#utility.yul\":9019:9022   */\n      dup3\n        /* \"#utility.yul\":9015:9027   */\n      add\n        /* \"#utility.yul\":9008:9027   */\n      swap1\n      pop\n        /* \"#utility.yul\":8667:9033   */\n      swap2\n      swap1\n      pop\n      jump\t// out\n        /* \"#utility.yul\":9039:9147   */\n    tag_404:\n        /* \"#utility.yul\":9116:9140   */\n      tag_490\n        /* \"#utility.yul\":9134:9139   */\n      dup2\n        /* \"#utility.yul\":9116:9140   */\n      tag_491\n      jump\t// in\n    tag_490:\n        /* \"#utility.yul\":9111:9114   */\n      dup3\n        /* \"#utility.yul\":9104:9141   */\n      mstore\n        /* \"#utility.yul\":9039:9147   */\n      pop\n      pop\n      jump\t// out\n        /* \"#utility.yul\":9153:9271   */\n    tag_492:\n        /* \"#utility.yul\":9240:9264   */\n      tag_494\n        /* \"#utility.yul\":9258:9263   */\n      dup2\n        /* \"#utility.yul\":9240:9264   */\n      tag_491\n      jump\t// in\n    tag_494:\n        /* \"#utility.yul\":9235:9238   */\n      dup3\n        /* \"#utility.yul\":9228:9265   */\n      mstore\n        /* \"#utility.yul\":9153:9271   */\n      pop\n      pop\n      jump\t// out\n        /* \"#utility.yul\":9277:9499   */\n    tag_33:\n        /* \"#utility.yul\":9370:9374   */\n      0x00\n        /* \"#utility.yul\":9408:9410   */\n      0x20\n        /* \"#utility.yul\":9397:9406   */\n      dup3\n        /* \"#utility.yul\":9393:9411   */\n      add\n        /* \"#utility.yul\":9385:9411   */\n      swap1\n      pop\n        /* \"#utility.yul\":9421:9492   */\n      tag_496\n        /* \"#utility.yul\":9489:9490   */\n      0x00\n        /* \"#utility.yul\":9478:9487   */\n      dup4\n        /* \"#utility.yul\":9474:9491   */\n      add\n        /* \"#utility.yul\":9465:9471   */\n      dup5\n        /* \"#utility.yul\":9421:9492   */\n      tag_408\n      jump\t// in\n    tag_496:\n        /* \"#utility.yul\":9277:9499   */\n      swap3\n      swap2\n      pop\n      pop\n      jump\t// out\n        /* \"#utility.yul\":9505:9837   */\n    tag_153:\n        /* \"#utility.yul\":9626:9630   */\n      0x00\n        /* \"#utility.yul\":9664:9666   */\n      0x40\n        /* \"#utility.yul\":9653:9662   */\n      dup3\n        /* \"#utility.yul\":9649:9667   */\n      add\n        /* \"#utility.yul\":9641:9667   */\n      swap1\n      pop\n        /* \"#utility.yul\":9677:9748   */\n      tag_498\n        /* \"#utility.yul\":9745:9746   */\n      0x00\n        /* \"#utility.yul\":9734:9743   */\n      dup4\n        /* \"#utility.yul\":9730:9747   */\n      add\n        /* \"#utility.yul\":9721:9727   */\n      dup6\n        /* \"#utility.yul\":9677:9748   */\n      tag_408\n      jump\t// in\n    tag_498:\n        /* \"#utility.yul\":9758:9830   */\n      tag_499\n        /* \"#utility.yul\":9826:9828   */\n      0x20\n        /* \"#utility.yul\":9815:9824   */\n      dup4\n        /* \"#utility.yul\":9811:9829   */\n      add\n        /* \"#utility.yul\":9802:9808   */\n      dup5\n        /* \"#utility.yul\":9758:9830   */\n      tag_408\n      jump\t// in\n    tag_499:\n        /* \"#utility.yul\":9505:9837   */\n      swap4\n      swap3\n      pop\n      pop\n      pop\n      jump\t// out\n        /* \"#utility.yul\":9843:10285   */\n    tag_169:\n        /* \"#utility.yul\":9992:9996   */\n      0x00\n        /* \"#utility.yul\":10030:10032   */\n      0x60\n        /* \"#utility.yul\":10019:10028   */\n      dup3\n        /* \"#utility.yul\":10015:10033   */\n      add\n        /* \"#utility.yul\":10007:10033   */\n      swap1\n      pop\n        /* \"#utility.yul\":10043:10114   */\n      tag_501\n        /* \"#utility.yul\":10111:10112   */\n      0x00\n        /* \"#utility.yul\":10100:10109   */\n      dup4\n        /* \"#utility.yul\":10096:10113   */\n      add\n        /* \"#utility.yul\":10087:10093   */\n      dup7\n        /* \"#utility.yul\":10043:10114   */\n      tag_408\n      jump\t// in\n    tag_501:\n        /* \"#utility.yul\":10124:10196   */\n      tag_502\n        /* \"#utility.yul\":10192:10194   */\n      0x20\n        /* \"#utility.yul\":10181:10190   */\n      dup4\n        /* \"#utility.yul\":10177:10195   */\n      add\n        /* \"#utility.yul\":10168:10174   */\n      dup6\n        /* \"#utility.yul\":10124:10196   */\n      tag_408\n      jump\t// in\n    tag_502:\n        /* \"#utility.yul\":10206:10278   */\n      tag_503\n        /* \"#utility.yul\":10274:10276   */\n      0x40\n        /* \"#utility.yul\":10263:10272   */\n      dup4\n        /* \"#utility.yul\":10259:10277   */\n      add\n        /* \"#utility.yul\":10250:10256   */\n      dup5\n        /* \"#utility.yul\":10206:10278   */\n      tag_492\n      jump\t// in\n    tag_503:\n        /* \"#utility.yul\":9843:10285   */\n      swap5\n      swap4\n      pop\n      pop\n      pop\n      pop\n      jump\t// out\n        /* \"#utility.yul\":10291:10623   */\n    tag_174:\n        /* \"#utility.yul\":10412:10416   */\n      0x00\n        /* \"#utility.yul\":10450:10452   */\n      0x40\n        /* \"#utility.yul\":10439:10448   */\n      dup3\n        /* \"#utility.yul\":10435:10453   */\n      add\n        /* \"#utility.yul\":10427:10453   */\n      swap1\n      pop\n        /* \"#utility.yul\":10463:10534   */\n      tag_505\n        /* \"#utility.yul\":10531:10532   */\n      0x00\n        /* \"#utility.yul\":10520:10529   */\n      dup4\n        /* \"#utility.yul\":10516:10533   */\n      add\n        /* \"#utility.yul\":10507:10513   */\n      dup6\n        /* \"#utility.yul\":10463:10534   */\n      tag_408\n      jump\t// in\n    tag_505:\n        /* \"#utility.yul\":10544:10616   */\n      tag_506\n        /* \"#utility.yul\":10612:10614   */\n      0x20\n        /* \"#utility.yul\":10601:10610   */\n      dup4\n        /* \"#utility.yul\":10597:10615   */\n      add\n        /* \"#utility.yul\":10588:10594   */\n      dup5\n        /* \"#utility.yul\":10544:10616   */\n      tag_492\n      jump\t// in\n    tag_506:\n        /* \"#utility.yul\":10291:10623   */\n      swap4\n      swap3\n      pop\n      pop\n      pop\n      jump\t// out\n        /* \"#utility.yul\":10629:11524   */\n    tag_84:\n        /* \"#utility.yul\":10928:10932   */\n      0x00\n        /* \"#utility.yul\":10966:10968   */\n      0x60\n        /* \"#utility.yul\":10955:10964   */\n      dup3\n        /* \"#utility.yul\":10951:10969   */\n      add\n        /* \"#utility.yul\":10943:10969   */\n      swap1\n      pop\n        /* \"#utility.yul\":11015:11024   */\n      dup2\n        /* \"#utility.yul\":11009:11013   */\n      dup2\n        /* \"#utility.yul\":11005:11025   */\n      sub\n        /* \"#utility.yul\":11001:11002   */\n      0x00\n        /* \"#utility.yul\":10990:10999   */\n      dup4\n        /* \"#utility.yul\":10986:11003   */\n      add\n        /* \"#utility.yul\":10979:11026   */\n      mstore\n        /* \"#utility.yul\":11043:11151   */\n      tag_508\n        /* \"#utility.yul\":11146:11150   */\n      dup2\n        /* \"#utility.yul\":11137:11143   */\n      dup7\n        /* \"#utility.yul\":11043:11151   */\n      tag_425\n      jump\t// in\n    tag_508:\n        /* \"#utility.yul\":11035:11151   */\n      swap1\n      pop\n        /* \"#utility.yul\":11198:11207   */\n      dup2\n        /* \"#utility.yul\":11192:11196   */\n      dup2\n        /* \"#utility.yul\":11188:11208   */\n      sub\n        /* \"#utility.yul\":11183:11185   */\n      0x20\n        /* \"#utility.yul\":11172:11181   */\n      dup4\n        /* \"#utility.yul\":11168:11186   */\n      add\n        /* \"#utility.yul\":11161:11209   */\n      mstore\n        /* \"#utility.yul\":11226:11334   */\n      tag_509\n        /* \"#utility.yul\":11329:11333   */\n      dup2\n        /* \"#utility.yul\":11320:11326   */\n      dup6\n        /* \"#utility.yul\":11226:11334   */\n      tag_411\n      jump\t// in\n    tag_509:\n        /* \"#utility.yul\":11218:11334   */\n      swap1\n      pop\n        /* \"#utility.yul\":11381:11390   */\n      dup2\n        /* \"#utility.yul\":11375:11379   */\n      dup2\n        /* \"#utility.yul\":11371:11391   */\n      sub\n        /* \"#utility.yul\":11366:11368   */\n      0x40\n        /* \"#utility.yul\":11355:11364   */\n      dup4\n        /* \"#utility.yul\":11351:11369   */\n      add\n        /* \"#utility.yul\":11344:11392   */\n      mstore\n        /* \"#utility.yul\":11409:11517   */\n      tag_510\n        /* \"#utility.yul\":11512:11516   */\n      dup2\n        /* \"#utility.yul\":11503:11509   */\n      dup5\n        /* \"#utility.yul\":11409:11517   */\n      tag_425\n      jump\t// in\n    tag_510:\n        /* \"#utility.yul\":11401:11517   */\n      swap1\n      pop\n        /* \"#utility.yul\":10629:11524   */\n      swap5\n      swap4\n      pop\n      pop\n      pop\n      pop\n      jump\t// out\n        /* \"#utility.yul\":11530:11740   */\n    tag_44:\n        /* \"#utility.yul\":11617:11621   */\n      0x00\n        /* \"#utility.yul\":11655:11657   */\n      0x20\n        /* \"#utility.yul\":11644:11653   */\n      dup3\n        /* \"#utility.yul\":11640:11658   */\n      add\n        /* \"#utility.yul\":11632:11658   */\n      swap1\n      pop\n        /* \"#utility.yul\":11668:11733   */\n      tag_512\n        /* \"#utility.yul\":11730:11731   */\n      0x00\n        /* \"#utility.yul\":11719:11728   */\n      dup4\n        /* \"#utility.yul\":11715:11732   */\n      add\n        /* \"#utility.yul\":11706:11712   */\n      dup5\n        /* \"#utility.yul\":11668:11733   */\n      tag_439\n      jump\t// in\n    tag_512:\n        /* \"#utility.yul\":11530:11740   */\n      swap3\n      swap2\n      pop\n      pop\n      jump\t// out\n        /* \"#utility.yul\":11746:12165   */\n    tag_144:\n        /* \"#utility.yul\":11912:11916   */\n      0x00\n        /* \"#utility.yul\":11950:11952   */\n      0x20\n        /* \"#utility.yul\":11939:11948   */\n      dup3\n        /* \"#utility.yul\":11935:11953   */\n      add\n        /* \"#utility.yul\":11927:11953   */\n      swap1\n      pop\n        /* \"#utility.yul\":11999:12008   */\n      dup2\n        /* \"#utility.yul\":11993:11997   */\n      dup2\n        /* \"#utility.yul\":11989:12009   */\n      sub\n        /* \"#utility.yul\":11985:11986   */\n      0x00\n        /* \"#utility.yul\":11974:11983   */\n      dup4\n        /* \"#utility.yul\":11970:11987   */\n      add\n        /* \"#utility.yul\":11963:12010   */\n      mstore\n        /* \"#utility.yul\":12027:12158   */\n      tag_514\n        /* \"#utility.yul\":12153:12157   */\n      dup2\n        /* \"#utility.yul\":12027:12158   */\n      tag_443\n      jump\t// in\n    tag_514:\n        /* \"#utility.yul\":12019:12158   */\n      swap1\n      pop\n        /* \"#utility.yul\":11746:12165   */\n      swap2\n      swap1\n      pop\n      jump\t// out\n        /* \"#utility.yul\":12171:12590   */\n    tag_185:\n        /* \"#utility.yul\":12337:12341   */\n      0x00\n        /* \"#utility.yul\":12375:12377   */\n      0x20\n        /* \"#utility.yul\":12364:12373   */\n      dup3\n        /* \"#utility.yul\":12360:12378   */\n      add\n        /* \"#utility.yul\":12352:12378   */\n      swap1\n      pop\n        /* \"#utility.yul\":12424:12433   */\n      dup2\n        /* \"#utility.yul\":12418:12422   */\n      dup2\n        /* \"#utility.yul\":12414:12434   */\n      sub\n        /* \"#utility.yul\":12410:12411   */\n      0x00\n        /* \"#utility.yul\":12399:12408   */\n      dup4\n        /* \"#utility.yul\":12395:12412   */\n      add\n        /* \"#utility.yul\":12388:12435   */\n      mstore\n        /* \"#utility.yul\":12452:12583   */\n      tag_516\n        /* \"#utility.yul\":12578:12582   */\n      dup2\n        /* \"#utility.yul\":12452:12583   */\n      tag_449\n      jump\t// in\n    tag_516:\n        /* \"#utility.yul\":12444:12583   */\n      swap1\n      pop\n        /* \"#utility.yul\":12171:12590   */\n      swap2\n      swap1\n      pop\n      jump\t// out\n        /* \"#utility.yul\":12596:13015   */\n    tag_346:\n        /* \"#utility.yul\":12762:12766   */\n      0x00\n        /* \"#utility.yul\":12800:12802   */\n      0x20\n        /* \"#utility.yul\":12789:12798   */\n      dup3\n        /* \"#utility.yul\":12785:12803   */\n      add\n        /* \"#utility.yul\":12777:12803   */\n      swap1\n      pop\n        /* \"#utility.yul\":12849:12858   */\n      dup2\n        /* \"#utility.yul\":12843:12847   */\n      dup2\n        /* \"#utility.yul\":12839:12859   */\n      sub\n        /* \"#utility.yul\":12835:12836   */\n      0x00\n        /* \"#utility.yul\":12824:12833   */\n      dup4\n        /* \"#utility.yul\":12820:12837   */\n      add\n        /* \"#utility.yul\":12813:12860   */\n      mstore\n        /* \"#utility.yul\":12877:13008   */\n      tag_518\n        /* \"#utility.yul\":13003:13007   */\n      dup2\n        /* \"#utility.yul\":12877:13008   */\n      tag_454\n      jump\t// in\n    tag_518:\n        /* \"#utility.yul\":12869:13008   */\n      swap1\n      pop\n        /* \"#utility.yul\":12596:13015   */\n      swap2\n      swap1\n      pop\n      jump\t// out\n        /* \"#utility.yul\":13021:13440   */\n    tag_167:\n        /* \"#utility.yul\":13187:13191   */\n      0x00\n        /* \"#utility.yul\":13225:13227   */\n      0x20\n        /* \"#utility.yul\":13214:13223   */\n      dup3\n        /* \"#utility.yul\":13210:13228   */\n      add\n        /* \"#utility.yul\":13202:13228   */\n      swap1\n      pop\n        /* \"#utility.yul\":13274:13283   */\n      dup2\n        /* \"#utility.yul\":13268:13272   */\n      dup2\n        /* \"#utility.yul\":13264:13284   */\n      sub\n        /* \"#utility.yul\":13260:13261   */\n      0x00\n        /* \"#utility.yul\":13249:13258   */\n      dup4\n        /* \"#utility.yul\":13245:13262   */\n      add\n        /* \"#utility.yul\":13238:13285   */\n      mstore\n        /* \"#utility.yul\":13302:13433   */\n      tag_520\n        /* \"#utility.yul\":13428:13432   */\n      dup2\n        /* \"#utility.yul\":13302:13433   */\n      tag_459\n      jump\t// in\n    tag_520:\n        /* \"#utility.yul\":13294:13433   */\n      swap1\n      pop\n        /* \"#utility.yul\":13021:13440   */\n      swap2\n      swap1\n      pop\n      jump\t// out\n        /* \"#utility.yul\":13446:13865   */\n    tag_202:\n        /* \"#utility.yul\":13612:13616   */\n      0x00\n        /* \"#utility.yul\":13650:13652   */\n      0x20\n        /* \"#utility.yul\":13639:13648   */\n      dup3\n        /* \"#utility.yul\":13635:13653   */\n      add\n        /* \"#utility.yul\":13627:13653   */\n      swap1\n      pop\n        /* \"#utility.yul\":13699:13708   */\n      dup2\n        /* \"#utility.yul\":13693:13697   */\n      dup2\n        /* \"#utility.yul\":13689:13709   */\n      sub\n        /* \"#utility.yul\":13685:13686   */\n      0x00\n        /* \"#utility.yul\":13674:13683   */\n      dup4\n        /* \"#utility.yul\":13670:13687   */\n      add\n        /* \"#utility.yul\":13663:13710   */\n      mstore\n        /* \"#utility.yul\":13727:13858   */\n      tag_522\n        /* \"#utility.yul\":13853:13857   */\n      dup2\n        /* \"#utility.yul\":13727:13858   */\n      tag_464\n      jump\t// in\n    tag_522:\n        /* \"#utility.yul\":13719:13858   */\n      swap1\n      pop\n        /* \"#utility.yul\":13446:13865   */\n      swap2\n      swap1\n      pop\n      jump\t// out\n        /* \"#utility.yul\":13871:14290   */\n    tag_161:\n        /* \"#utility.yul\":14037:14041   */\n      0x00\n        /* \"#utility.yul\":14075:14077   */\n      0x20\n        /* \"#utility.yul\":14064:14073   */\n      dup3\n        /* \"#utility.yul\":14060:14078   */\n      add\n        /* \"#utility.yul\":14052:14078   */\n      swap1\n      pop\n        /* \"#utility.yul\":14124:14133   */\n      dup2\n        /* \"#utility.yul\":14118:14122   */\n      dup2\n        /* \"#utility.yul\":14114:14134   */\n      sub\n        /* \"#utility.yul\":14110:14111   */\n      0x00\n        /* \"#utility.yul\":14099:14108   */\n      dup4\n        /* \"#utility.yul\":14095:14112   */\n      add\n        /* \"#utility.yul\":14088:14135   */\n      mstore\n        /* \"#utility.yul\":14152:14283   */\n      tag_524\n        /* \"#utility.yul\":14278:14282   */\n      dup2\n        /* \"#utility.yul\":14152:14283   */\n      tag_469\n      jump\t// in\n    tag_524:\n        /* \"#utility.yul\":14144:14283   */\n      swap1\n      pop\n        /* \"#utility.yul\":13871:14290   */\n      swap2\n      swap1\n      pop\n      jump\t// out\n        /* \"#utility.yul\":14296:14715   */\n    tag_164:\n        /* \"#utility.yul\":14462:14466   */\n      0x00\n        /* \"#utility.yul\":14500:14502   */\n      0x20\n        /* \"#utility.yul\":14489:14498   */\n      dup3\n        /* \"#utility.yul\":14485:14503   */\n      add\n        /* \"#utility.yul\":14477:14503   */\n      swap1\n      pop\n        /* \"#utility.yul\":14549:14558   */\n      dup2\n        /* \"#utility.yul\":14543:14547   */\n      dup2\n        /* \"#utility.yul\":14539:14559   */\n      sub\n        /* \"#utility.yul\":14535:14536   */\n      0x00\n        /* \"#utility.yul\":14524:14533   */\n      dup4\n        /* \"#utility.yul\":14520:14537   */\n      add\n        /* \"#utility.yul\":14513:14560   */\n      mstore\n        /* \"#utility.yul\":14577:14708   */\n      tag_526\n        /* \"#utility.yul\":14703:14707   */\n      dup2\n        /* \"#utility.yul\":14577:14708   */\n      tag_474\n      jump\t// in\n    tag_526:\n        /* \"#utility.yul\":14569:14708   */\n      swap1\n      pop\n        /* \"#utility.yul\":14296:14715   */\n      swap2\n      swap1\n      pop\n      jump\t// out\n        /* \"#utility.yul\":14721:15140   */\n    tag_114:\n        /* \"#utility.yul\":14887:14891   */\n      0x00\n        /* \"#utility.yul\":14925:14927   */\n      0x20\n        /* \"#utility.yul\":14914:14923   */\n      dup3\n        /* \"#utility.yul\":14910:14928   */\n      add\n        /* \"#utility.yul\":14902:14928   */\n      swap1\n      pop\n        /* \"#utility.yul\":14974:14983   */\n      dup2\n        /* \"#utility.yul\":14968:14972   */\n      dup2\n        /* \"#utility.yul\":14964:14984   */\n      sub\n        /* \"#utility.yul\":14960:14961   */\n      0x00\n        /* \"#utility.yul\":14949:14958   */\n      dup4\n        /* \"#utility.yul\":14945:14962   */\n      add\n        /* \"#utility.yul\":14938:14985   */\n      mstore\n        /* \"#utility.yul\":15002:15133   */\n      tag_528\n        /* \"#utility.yul\":15128:15132   */\n      dup2\n        /* \"#utility.yul\":15002:15133   */\n      tag_479\n      jump\t// in\n    tag_528:\n        /* \"#utility.yul\":14994:15133   */\n      swap1\n      pop\n        /* \"#utility.yul\":14721:15140   */\n      swap2\n      swap1\n      pop\n      jump\t// out\n        /* \"#utility.yul\":15146:15565   */\n    tag_135:\n        /* \"#utility.yul\":15312:15316   */\n      0x00\n        /* \"#utility.yul\":15350:15352   */\n      0x20\n        /* \"#utility.yul\":15339:15348   */\n      dup3\n        /* \"#utility.yul\":15335:15353   */\n      add\n        /* \"#utility.yul\":15327:15353   */\n      swap1\n      pop\n        /* \"#utility.yul\":15399:15408   */\n      dup2\n        /* \"#utility.yul\":15393:15397   */\n      dup2\n        /* \"#utility.yul\":15389:15409   */\n      sub\n        /* \"#utility.yul\":15385:15386   */\n      0x00\n        /* \"#utility.yul\":15374:15383   */\n      dup4\n        /* \"#utility.yul\":15370:15387   */\n      add\n        /* \"#utility.yul\":15363:15410   */\n      mstore\n        /* \"#utility.yul\":15427:15558   */\n      tag_530\n        /* \"#utility.yul\":15553:15557   */\n      dup2\n        /* \"#utility.yul\":15427:15558   */\n      tag_484\n      jump\t// in\n    tag_530:\n        /* \"#utility.yul\":15419:15558   */\n      swap1\n      pop\n        /* \"#utility.yul\":15146:15565   */\n      swap2\n      swap1\n      pop\n      jump\t// out\n        /* \"#utility.yul\":15571:15793   */\n    tag_94:\n        /* \"#utility.yul\":15664:15668   */\n      0x00\n        /* \"#utility.yul\":15702:15704   */\n      0x20\n        /* \"#utility.yul\":15691:15700   */\n      dup3\n        /* \"#utility.yul\":15687:15705   */\n      add\n        /* \"#utility.yul\":15679:15705   */\n      swap1\n      pop\n        /* \"#utility.yul\":15715:15786   */\n      tag_532\n        /* \"#utility.yul\":15783:15784   */\n      0x00\n        /* \"#utility.yul\":15772:15781   */\n      dup4\n        /* \"#utility.yul\":15768:15785   */\n      add\n        /* \"#utility.yul\":15759:15765   */\n      dup5\n        /* \"#utility.yul\":15715:15786   */\n      tag_492\n      jump\t// in\n    tag_532:\n        /* \"#utility.yul\":15571:15793   */\n      swap3\n      swap2\n      pop\n      pop\n      jump\t// out\n        /* \"#utility.yul\":15799:16131   */\n    tag_206:\n        /* \"#utility.yul\":15920:15924   */\n      0x00\n        /* \"#utility.yul\":15958:15960   */\n      0x40\n        /* \"#utility.yul\":15947:15956   */\n      dup3\n        /* \"#utility.yul\":15943:15961   */\n      add\n        /* \"#utility.yul\":15935:15961   */\n      swap1\n      pop\n        /* \"#utility.yul\":15971:16042   */\n      tag_534\n        /* \"#utility.yul\":16039:16040   */\n      0x00\n        /* \"#utility.yul\":16028:16037   */\n      dup4\n        /* \"#utility.yul\":16024:16041   */\n      add\n        /* \"#utility.yul\":16015:16021   */\n      dup6\n        /* \"#utility.yul\":15971:16042   */\n      tag_492\n      jump\t// in\n    tag_534:\n        /* \"#utility.yul\":16052:16124   */\n      tag_535\n        /* \"#utility.yul\":16120:16122   */\n      0x20\n        /* \"#utility.yul\":16109:16118   */\n      dup4\n        /* \"#utility.yul\":16105:16123   */\n      add\n        /* \"#utility.yul\":16096:16102   */\n      dup5\n        /* \"#utility.yul\":16052:16124   */\n      tag_492\n      jump\t// in\n    tag_535:\n        /* \"#utility.yul\":15799:16131   */\n      swap4\n      swap3\n      pop\n      pop\n      pop\n      jump\t// out\n        /* \"#utility.yul\":16218:16350   */\n    tag_418:\n        /* \"#utility.yul\":16285:16289   */\n      0x00\n        /* \"#utility.yul\":16308:16311   */\n      dup2\n        /* \"#utility.yul\":16300:16311   */\n      swap1\n      pop\n        /* \"#utility.yul\":16338:16342   */\n      0x20\n        /* \"#utility.yul\":16333:16336   */\n      dup3\n        /* \"#utility.yul\":16329:16343   */\n      add\n        /* \"#utility.yul\":16321:16343   */\n      swap1\n      pop\n        /* \"#utility.yul\":16218:16350   */\n      swap2\n      swap1\n      pop\n      jump\t// out\n        /* \"#utility.yul\":16356:16488   */\n    tag_432:\n        /* \"#utility.yul\":16423:16427   */\n      0x00\n        /* \"#utility.yul\":16446:16449   */\n      dup2\n        /* \"#utility.yul\":16438:16449   */\n      swap1\n      pop\n        /* \"#utility.yul\":16476:16480   */\n      0x20\n        /* \"#utility.yul\":16471:16474   */\n      dup3\n        /* \"#utility.yul\":16467:16481   */\n      add\n        /* \"#utility.yul\":16459:16481   */\n      swap1\n      pop\n        /* \"#utility.yul\":16356:16488   */\n      swap2\n      swap1\n      pop\n      jump\t// out\n        /* \"#utility.yul\":16494:16608   */\n    tag_414:\n        /* \"#utility.yul\":16561:16567   */\n      0x00\n        /* \"#utility.yul\":16595:16600   */\n      dup2\n        /* \"#utility.yul\":16589:16601   */\n      mload\n        /* \"#utility.yul\":16579:16601   */\n      swap1\n      pop\n        /* \"#utility.yul\":16494:16608   */\n      swap2\n      swap1\n      pop\n      jump\t// out\n        /* \"#utility.yul\":16614:16728   */\n    tag_428:\n        /* \"#utility.yul\":16681:16687   */\n      0x00\n        /* \"#utility.yul\":16715:16720   */\n      dup2\n        /* \"#utility.yul\":16709:16721   */\n      mload\n        /* \"#utility.yul\":16699:16721   */\n      swap1\n      pop\n        /* \"#utility.yul\":16614:16728   */\n      swap2\n      swap1\n      pop\n      jump\t// out\n        /* \"#utility.yul\":16734:16847   */\n    tag_424:\n        /* \"#utility.yul\":16804:16808   */\n      0x00\n        /* \"#utility.yul\":16836:16840   */\n      0x20\n        /* \"#utility.yul\":16831:16834   */\n      dup3\n        /* \"#utility.yul\":16827:16841   */\n      add\n        /* \"#utility.yul\":16819:16841   */\n      swap1\n      pop\n        /* \"#utility.yul\":16734:16847   */\n      swap2\n      swap1\n      pop\n      jump\t// out\n        /* \"#utility.yul\":16853:16966   */\n    tag_438:\n        /* \"#utility.yul\":16923:16927   */\n      0x00\n        /* \"#utility.yul\":16955:16959   */\n      0x20\n        /* \"#utility.yul\":16950:16953   */\n      dup3\n        /* \"#utility.yul\":16946:16960   */\n      add\n        /* \"#utility.yul\":16938:16960   */\n      swap1\n      pop\n        /* \"#utility.yul\":16853:16966   */\n      swap2\n      swap1\n      pop\n      jump\t// out\n        /* \"#utility.yul\":16972:17156   */\n    tag_416:\n        /* \"#utility.yul\":17071:17082   */\n      0x00\n        /* \"#utility.yul\":17105:17111   */\n      dup3\n        /* \"#utility.yul\":17100:17103   */\n      dup3\n        /* \"#utility.yul\":17093:17112   */\n      mstore\n        /* \"#utility.yul\":17145:17149   */\n      0x20\n        /* \"#utility.yul\":17140:17143   */\n      dup3\n        /* \"#utility.yul\":17136:17150   */\n      add\n        /* \"#utility.yul\":17121:17150   */\n      swap1\n      pop\n        /* \"#utility.yul\":16972:17156   */\n      swap3\n      swap2\n      pop\n      pop\n      jump\t// out\n        /* \"#utility.yul\":17162:17346   */\n    tag_430:\n        /* \"#utility.yul\":17261:17272   */\n      0x00\n        /* \"#utility.yul\":17295:17301   */\n      dup3\n        /* \"#utility.yul\":17290:17293   */\n      dup3\n        /* \"#utility.yul\":17283:17302   */\n      mstore\n        /* \"#utility.yul\":17335:17339   */\n      0x20\n        /* \"#utility.yul\":17330:17333   */\n      dup3\n        /* \"#utility.yul\":17326:17340   */\n      add\n        /* \"#utility.yul\":17311:17340   */\n      swap1\n      pop\n        /* \"#utility.yul\":17162:17346   */\n      swap3\n      swap2\n      pop\n      pop\n      jump\t// out\n        /* \"#utility.yul\":17352:17521   */\n    tag_446:\n        /* \"#utility.yul\":17436:17447   */\n      0x00\n        /* \"#utility.yul\":17470:17476   */\n      dup3\n        /* \"#utility.yul\":17465:17468   */\n      dup3\n        /* \"#utility.yul\":17458:17477   */\n      mstore\n        /* \"#utility.yul\":17510:17514   */\n      0x20\n        /* \"#utility.yul\":17505:17508   */\n      dup3\n        /* \"#utility.yul\":17501:17515   */\n      add\n        /* \"#utility.yul\":17486:17515   */\n      swap1\n      pop\n        /* \"#utility.yul\":17352:17521   */\n      swap3\n      swap2\n      pop\n      pop\n      jump\t// out\n        /* \"#utility.yul\":17527:17832   */\n    tag_300:\n        /* \"#utility.yul\":17567:17570   */\n      0x00\n        /* \"#utility.yul\":17586:17606   */\n      tag_548\n        /* \"#utility.yul\":17604:17605   */\n      dup3\n        /* \"#utility.yul\":17586:17606   */\n      tag_491\n      jump\t// in\n    tag_548:\n        /* \"#utility.yul\":17581:17606   */\n      swap2\n      pop\n        /* \"#utility.yul\":17620:17640   */\n      tag_549\n        /* \"#utility.yul\":17638:17639   */\n      dup4\n        /* \"#utility.yul\":17620:17640   */\n      tag_491\n      jump\t// in\n    tag_549:\n        /* \"#utility.yul\":17615:17640   */\n      swap3\n      pop\n        /* \"#utility.yul\":17774:17775   */\n      dup3\n        /* \"#utility.yul\":17706:17772   */\n      0xffffffffffffffffffffffffffffffffffffffffffffffffffffffffffffffff\n        /* \"#utility.yul\":17702:17776   */\n      sub\n        /* \"#utility.yul\":17699:17700   */\n      dup3\n        /* \"#utility.yul\":17696:17777   */\n      gt\n        /* \"#utility.yul\":17693:17800   */\n      iszero\n      tag_550\n      jumpi\n        /* \"#utility.yul\":17780:17798   */\n      tag_551\n      tag_552\n      jump\t// in\n    tag_551:\n        /* \"#utility.yul\":17693:17800   */\n    tag_550:\n        /* \"#utility.yul\":17824:17825   */\n      dup3\n        /* \"#utility.yul\":17821:17822   */\n      dup3\n        /* \"#utility.yul\":17817:17826   */\n      add\n        /* \"#utility.yul\":17810:17826   */\n      swap1\n      pop\n        /* \"#utility.yul\":17527:17832   */\n      swap3\n      swap2\n      pop\n      pop\n      jump\t// out\n        /* \"#utility.yul\":17838:18023   */\n    tag_269:\n        /* \"#utility.yul\":17878:17879   */\n      0x00\n        /* \"#utility.yul\":17895:17915   */\n      tag_554\n        /* \"#utility.yul\":17913:17914   */\n      dup3\n        /* \"#utility.yul\":17895:17915   */\n      tag_491\n      jump\t// in\n    tag_554:\n        /* \"#utility.yul\":17890:17915   */\n      swap2\n      pop\n        /* \"#utility.yul\":17929:17949   */\n      tag_555\n        /* \"#utility.yul\":17947:17948   */\n      dup4\n        /* \"#utility.yul\":17929:17949   */\n      tag_491\n      jump\t// in\n    tag_555:\n        /* \"#utility.yul\":17924:17949   */\n      swap3\n      pop\n        /* \"#utility.yul\":17968:17969   */\n      dup3\n        /* \"#utility.yul\":17958:17993   */\n      tag_556\n      jumpi\n        /* \"#utility.yul\":17973:17991   */\n      tag_557\n      tag_558\n      jump\t// in\n    tag_557:\n        /* \"#utility.yul\":17958:17993   */\n    tag_556:\n        /* \"#utility.yul\":18015:18016   */\n      dup3\n        /* \"#utility.yul\":18012:18013   */\n      dup3\n        /* \"#utility.yul\":18008:18017   */\n      div\n        /* \"#utility.yul\":18003:18017   */\n      swap1\n      pop\n        /* \"#utility.yul\":17838:18023   */\n      swap3\n      swap2\n      pop\n      pop\n      jump\t// out\n        /* \"#utility.yul\":18029:18377   */\n    tag_271:\n        /* \"#utility.yul\":18069:18076   */\n      0x00\n        /* \"#utility.yul\":18092:18112   */\n      tag_560\n        /* \"#utility.yul\":18110:18111   */\n      dup3\n        /* \"#utility.yul\":18092:18112   */\n      tag_491\n      jump\t// in\n    tag_560:\n        /* \"#utility.yul\":18087:18112   */\n      swap2\n      pop\n        /* \"#utility.yul\":18126:18146   */\n      tag_561\n        /* \"#utility.yul\":18144:18145   */\n      dup4\n        /* \"#utility.yul\":18126:18146   */\n      tag_491\n      jump\t// in\n    tag_561:\n        /* \"#utility.yul\":18121:18146   */\n      swap3\n      pop\n        /* \"#utility.yul\":18314:18315   */\n      dup2\n        /* \"#utility.yul\":18246:18312   */\n      0xffffffffffffffffffffffffffffffffffffffffffffffffffffffffffffffff\n        /* \"#utility.yul\":18242:18316   */\n      div\n        /* \"#utility.yul\":18239:18240   */\n      dup4\n        /* \"#utility.yul\":18236:18317   */\n      gt\n        /* \"#utility.yul\":18231:18232   */\n      dup3\n        /* \"#utility.yul\":18224:18233   */\n      iszero\n        /* \"#utility.yul\":18217:18234   */\n      iszero\n        /* \"#utility.yul\":18213:18318   */\n      and\n        /* \"#utility.yul\":18210:18341   */\n      iszero\n      tag_562\n      jumpi\n        /* \"#utility.yul\":18321:18339   */\n      tag_563\n      tag_552\n      jump\t// in\n    tag_563:\n        /* \"#utility.yul\":18210:18341   */\n    tag_562:\n        /* \"#utility.yul\":18369:18370   */\n      dup3\n        /* \"#utility.yul\":18366:18367   */\n      dup3\n        /* \"#utility.yul\":18362:18371   */\n      mul\n        /* \"#utility.yul\":18351:18371   */\n      swap1\n      pop\n        /* \"#utility.yul\":18029:18377   */\n      swap3\n      swap2\n      pop\n      pop\n      jump\t// out\n        /* \"#utility.yul\":18383:18574   */\n    tag_298:\n        /* \"#utility.yul\":18423:18427   */\n      0x00\n        /* \"#utility.yul\":18443:18463   */\n      tag_565\n        /* \"#utility.yul\":18461:18462   */\n      dup3\n        /* \"#utility.yul\":18443:18463   */\n      tag_491\n      jump\t// in\n    tag_565:\n        /* \"#utility.yul\":18438:18463   */\n      swap2\n      pop\n        /* \"#utility.yul\":18477:18497   */\n      tag_566\n        /* \"#utility.yul\":18495:18496   */\n      dup4\n        /* \"#utility.yul\":18477:18497   */\n      tag_491\n      jump\t// in\n    tag_566:\n        /* \"#utility.yul\":18472:18497   */\n      swap3\n      pop\n        /* \"#utility.yul\":18516:18517   */\n      dup3\n        /* \"#utility.yul\":18513:18514   */\n      dup3\n        /* \"#utility.yul\":18510:18518   */\n      lt\n        /* \"#utility.yul\":18507:18541   */\n      iszero\n      tag_567\n      jumpi\n        /* \"#utility.yul\":18521:18539   */\n      tag_568\n      tag_552\n      jump\t// in\n    tag_568:\n        /* \"#utility.yul\":18507:18541   */\n    tag_567:\n        /* \"#utility.yul\":18566:18567   */\n      dup3\n        /* \"#utility.yul\":18563:18564   */\n      dup3\n        /* \"#utility.yul\":18559:18568   */\n      sub\n        /* \"#utility.yul\":18551:18568   */\n      swap1\n      pop\n        /* \"#utility.yul\":18383:18574   */\n      swap3\n      swap2\n      pop\n      pop\n      jump\t// out\n        /* \"#utility.yul\":18580:18676   */\n    tag_407:\n        /* \"#utility.yul\":18617:18624   */\n      0x00\n        /* \"#utility.yul\":18646:18670   */\n      tag_570\n        /* \"#utility.yul\":18664:18669   */\n      dup3\n        /* \"#utility.yul\":18646:18670   */\n      tag_571\n      jump\t// in\n    tag_570:\n        /* \"#utility.yul\":18635:18670   */\n      swap1\n      pop\n        /* \"#utility.yul\":18580:18676   */\n      swap2\n      swap1\n      pop\n      jump\t// out\n        /* \"#utility.yul\":18682:18772   */\n    tag_442:\n        /* \"#utility.yul\":18716:18723   */\n      0x00\n        /* \"#utility.yul\":18759:18764   */\n      dup2\n        /* \"#utility.yul\":18752:18765   */\n      iszero\n        /* \"#utility.yul\":18745:18766   */\n      iszero\n        /* \"#utility.yul\":18734:18766   */\n      swap1\n      pop\n        /* \"#utility.yul\":18682:18772   */\n      swap2\n      swap1\n      pop\n      jump\t// out\n        /* \"#utility.yul\":18778:18904   */\n    tag_571:\n        /* \"#utility.yul\":18815:18822   */\n      0x00\n        /* \"#utility.yul\":18855:18897   */\n      0xffffffffffffffffffffffffffffffffffffffff\n        /* \"#utility.yul\":18848:18853   */\n      dup3\n        /* \"#utility.yul\":18844:18898   */\n      and\n        /* \"#utility.yul\":18833:18898   */\n      swap1\n      pop\n        /* \"#utility.yul\":18778:18904   */\n      swap2\n      swap1\n      pop\n      jump\t// out\n        /* \"#utility.yul\":18910:18987   */\n    tag_491:\n        /* \"#utility.yul\":18947:18954   */\n      0x00\n        /* \"#utility.yul\":18976:18981   */\n      dup2\n        /* \"#utility.yul\":18965:18981   */\n      swap1\n      pop\n        /* \"#utility.yul\":18910:18987   */\n      swap2\n      swap1\n      pop\n      jump\t// out\n        /* \"#utility.yul\":18993:19164   */\n    tag_341:\n        /* \"#utility.yul\":19032:19035   */\n      0x00\n        /* \"#utility.yul\":19055:19079   */\n      tag_576\n        /* \"#utility.yul\":19073:19078   */\n      dup3\n        /* \"#utility.yul\":19055:19079   */\n      tag_491\n      jump\t// in\n    tag_576:\n        /* \"#utility.yul\":19046:19079   */\n      swap2\n      pop\n        /* \"#utility.yul\":19101:19105   */\n      0x00\n        /* \"#utility.yul\":19094:19099   */\n      dup3\n        /* \"#utility.yul\":19091:19106   */\n      eq\n        /* \"#utility.yul\":19088:19129   */\n      iszero\n      tag_577\n      jumpi\n        /* \"#utility.yul\":19109:19127   */\n      tag_578\n      tag_552\n      jump\t// in\n    tag_578:\n        /* \"#utility.yul\":19088:19129   */\n    tag_577:\n        /* \"#utility.yul\":19156:19157   */\n      0x01\n        /* \"#utility.yul\":19149:19154   */\n      dup3\n        /* \"#utility.yul\":19145:19158   */\n      sub\n        /* \"#utility.yul\":19138:19158   */\n      swap1\n      pop\n        /* \"#utility.yul\":18993:19164   */\n      swap2\n      swap1\n      pop\n      jump\t// out\n        /* \"#utility.yul\":19170:19403   */\n    tag_241:\n        /* \"#utility.yul\":19209:19212   */\n      0x00\n        /* \"#utility.yul\":19232:19256   */\n      tag_580\n        /* \"#utility.yul\":19250:19255   */\n      dup3\n        /* \"#utility.yul\":19232:19256   */\n      tag_491\n      jump\t// in\n    tag_580:\n        /* \"#utility.yul\":19223:19256   */\n      swap2\n      pop\n        /* \"#utility.yul\":19278:19344   */\n      0xffffffffffffffffffffffffffffffffffffffffffffffffffffffffffffffff\n        /* \"#utility.yul\":19271:19276   */\n      dup3\n        /* \"#utility.yul\":19268:19345   */\n      eq\n        /* \"#utility.yul\":19265:19368   */\n      iszero\n      tag_581\n      jumpi\n        /* \"#utility.yul\":19348:19366   */\n      tag_582\n      tag_552\n      jump\t// in\n    tag_582:\n        /* \"#utility.yul\":19265:19368   */\n    tag_581:\n        /* \"#utility.yul\":19395:19396   */\n      0x01\n        /* \"#utility.yul\":19388:19393   */\n      dup3\n        /* \"#utility.yul\":19384:19397   */\n      add\n        /* \"#utility.yul\":19377:19397   */\n      swap1\n      pop\n        /* \"#utility.yul\":19170:19403   */\n      swap2\n      swap1\n      pop\n      jump\t// out\n        /* \"#utility.yul\":19409:19589   */\n    tag_552:\n        /* \"#utility.yul\":19457:19534   */\n      0x4e487b7100000000000000000000000000000000000000000000000000000000\n        /* \"#utility.yul\":19454:19455   */\n      0x00\n        /* \"#utility.yul\":19447:19535   */\n      mstore\n        /* \"#utility.yul\":19554:19558   */\n      0x11\n        /* \"#utility.yul\":19551:19552   */\n      0x04\n        /* \"#utility.yul\":19544:19559   */\n      mstore\n        /* \"#utility.yul\":19578:19582   */\n      0x24\n        /* \"#utility.yul\":19575:19576   */\n      0x00\n        /* \"#utility.yul\":19568:19583   */\n      revert\n        /* \"#utility.yul\":19595:19775   */\n    tag_558:\n        /* \"#utility.yul\":19643:19720   */\n      0x4e487b7100000000000000000000000000000000000000000000000000000000\n        /* \"#utility.yul\":19640:19641   */\n      0x00\n        /* \"#utility.yul\":19633:19721   */\n      mstore\n        /* \"#utility.yul\":19740:19744   */\n      0x12\n        /* \"#utility.yul\":19737:19738   */\n      0x04\n        /* \"#utility.yul\":19730:19745   */\n      mstore\n        /* \"#utility.yul\":19764:19768   */\n      0x24\n        /* \"#utility.yul\":19761:19762   */\n      0x00\n        /* \"#utility.yul\":19754:19769   */\n      revert\n        /* \"#utility.yul\":19781:19961   */\n    tag_310:\n        /* \"#utility.yul\":19829:19906   */\n      0x4e487b7100000000000000000000000000000000000000000000000000000000\n        /* \"#utility.yul\":19826:19827   */\n      0x00\n        /* \"#utility.yul\":19819:19907   */\n      mstore\n        /* \"#utility.yul\":19926:19930   */\n      0x31\n        /* \"#utility.yul\":19923:19924   */\n      0x04\n        /* \"#utility.yul\":19916:19931   */\n      mstore\n        /* \"#utility.yul\":19950:19954   */\n      0x24\n        /* \"#utility.yul\":19947:19948   */\n      0x00\n        /* \"#utility.yul\":19940:19955   */\n      revert\n        /* \"#utility.yul\":19967:20147   */\n    tag_231:\n        /* \"#utility.yul\":20015:20092   */\n      0x4e487b7100000000000000000000000000000000000000000000000000000000\n        /* \"#utility.yul\":20012:20013   */\n      0x00\n        /* \"#utility.yul\":20005:20093   */\n      mstore\n        /* \"#utility.yul\":20112:20116   */\n      0x32\n        /* \"#utility.yul\":20109:20110   */\n      0x04\n        /* \"#utility.yul\":20102:20117   */\n      mstore\n        /* \"#utility.yul\":20136:20140   */\n      0x24\n        /* \"#utility.yul\":20133:20134   */\n      0x00\n        /* \"#utility.yul\":20126:20141   */\n      revert\n        /* \"#utility.yul\":20153:20333   */\n    tag_221:\n        /* \"#utility.yul\":20201:20278   */\n      0x4e487b7100000000000000000000000000000000000000000000000000000000\n        /* \"#utility.yul\":20198:20199   */\n      0x00\n        /* \"#utility.yul\":20191:20279   */\n      mstore\n        /* \"#utility.yul\":20298:20302   */\n      0x41\n        /* \"#utility.yul\":20295:20296   */\n      0x04\n        /* \"#utility.yul\":20288:20303   */\n      mstore\n        /* \"#utility.yul\":20322:20326   */\n      0x24\n        /* \"#utility.yul\":20319:20320   */\n      0x00\n        /* \"#utility.yul\":20312:20327   */\n      revert\n        /* \"#utility.yul\":20462:20579   */\n    tag_369:\n        /* \"#utility.yul\":20571:20572   */\n      0x00\n        /* \"#utility.yul\":20568:20569   */\n      dup1\n        /* \"#utility.yul\":20561:20573   */\n      revert\n        /* \"#utility.yul\":20585:20764   */\n    tag_448:\n        /* \"#utility.yul\":20725:20756   */\n      0x73656c6c6572206e6565642068617665207468697320746f6b656e6964000000\n        /* \"#utility.yul\":20721:20722   */\n      0x00\n        /* \"#utility.yul\":20713:20719   */\n      dup3\n        /* \"#utility.yul\":20709:20723   */\n      add\n        /* \"#utility.yul\":20702:20757   */\n      mstore\n        /* \"#utility.yul\":20585:20764   */\n      pop\n      jump\t// out\n        /* \"#utility.yul\":20770:20933   */\n    tag_453:\n        /* \"#utility.yul\":20910:20925   */\n      0x69742069732073656c6c696e6700000000000000000000000000000000000000\n        /* \"#utility.yul\":20906:20907   */\n      0x00\n        /* \"#utility.yul\":20898:20904   */\n      dup3\n        /* \"#utility.yul\":20894:20908   */\n      add\n        /* \"#utility.yul\":20887:20926   */\n      mstore\n        /* \"#utility.yul\":20770:20933   */\n      pop\n      jump\t// out\n        /* \"#utility.yul\":20939:21164   */\n    tag_458:\n        /* \"#utility.yul\":21079:21113   */\n      0x4f776e61626c653a206e6577206f776e657220697320746865207a65726f2061\n        /* \"#utility.yul\":21075:21076   */\n      0x00\n        /* \"#utility.yul\":21067:21073   */\n      dup3\n        /* \"#utility.yul\":21063:21077   */\n      add\n        /* \"#utility.yul\":21056:21114   */\n      mstore\n        /* \"#utility.yul\":21148:21156   */\n      0x6464726573730000000000000000000000000000000000000000000000000000\n        /* \"#utility.yul\":21143:21145   */\n      0x20\n        /* \"#utility.yul\":21135:21141   */\n      dup3\n        /* \"#utility.yul\":21131:21146   */\n      add\n        /* \"#utility.yul\":21124:21157   */\n      mstore\n        /* \"#utility.yul\":20939:21164   */\n      pop\n      jump\t// out\n        /* \"#utility.yul\":21170:21344   */\n    tag_463:\n        /* \"#utility.yul\":21310:21336   */\n      0x46726f6d20616e6420546f2063616e206e6f742073616d650000000000000000\n        /* \"#utility.yul\":21306:21307   */\n      0x00\n        /* \"#utility.yul\":21298:21304   */\n      dup3\n        /* \"#utility.yul\":21294:21308   */\n      add\n        /* \"#utility.yul\":21287:21337   */\n      mstore\n        /* \"#utility.yul\":21170:21344   */\n      pop\n      jump\t// out\n        /* \"#utility.yul\":21350:21509   */\n    tag_468:\n        /* \"#utility.yul\":21490:21501   */\n      0x5072696365203e20300000000000000000000000000000000000000000000000\n        /* \"#utility.yul\":21486:21487   */\n      0x00\n        /* \"#utility.yul\":21478:21484   */\n      dup3\n        /* \"#utility.yul\":21474:21488   */\n      add\n        /* \"#utility.yul\":21467:21502   */\n      mstore\n        /* \"#utility.yul\":21350:21509   */\n      pop\n      jump\t// out\n        /* \"#utility.yul\":21515:21742   */\n    tag_473:\n        /* \"#utility.yul\":21655:21689   */\n      0x596f75206e65656420417070726f766520466f7220416c6c20746f2074686973\n        /* \"#utility.yul\":21651:21652   */\n      0x00\n        /* \"#utility.yul\":21643:21649   */\n      dup3\n        /* \"#utility.yul\":21639:21653   */\n      add\n        /* \"#utility.yul\":21632:21690   */\n      mstore\n        /* \"#utility.yul\":21724:21734   */\n      0x20636f6e74616374000000000000000000000000000000000000000000000000\n        /* \"#utility.yul\":21719:21721   */\n      0x20\n        /* \"#utility.yul\":21711:21717   */\n      dup3\n        /* \"#utility.yul\":21707:21722   */\n      add\n        /* \"#utility.yul\":21700:21735   */\n      mstore\n        /* \"#utility.yul\":21515:21742   */\n      pop\n      jump\t// out\n        /* \"#utility.yul\":21748:21918   */\n    tag_478:\n        /* \"#utility.yul\":21888:21910   */\n      0x416464726573732063616e206e6f74207a65726f000000000000000000000000\n        /* \"#utility.yul\":21884:21885   */\n      0x00\n        /* \"#utility.yul\":21876:21882   */\n      dup3\n        /* \"#utility.yul\":21872:21886   */\n      add\n        /* \"#utility.yul\":21865:21911   */\n      mstore\n        /* \"#utility.yul\":21748:21918   */\n      pop\n      jump\t// out\n        /* \"#utility.yul\":21924:22106   */\n    tag_483:\n        /* \"#utility.yul\":22064:22098   */\n      0x4f776e61626c653a2063616c6c6572206973206e6f7420746865206f776e6572\n        /* \"#utility.yul\":22060:22061   */\n      0x00\n        /* \"#utility.yul\":22052:22058   */\n      dup3\n        /* \"#utility.yul\":22048:22062   */\n      add\n        /* \"#utility.yul\":22041:22099   */\n      mstore\n        /* \"#utility.yul\":21924:22106   */\n      pop\n      jump\t// out\n        /* \"#utility.yul\":22112:22282   */\n    tag_488:\n        /* \"#utility.yul\":22252:22274   */\n      0x56696353686f7365206e6f7420696e2073656c6c000000000000000000000000\n        /* \"#utility.yul\":22248:22249   */\n      0x00\n        /* \"#utility.yul\":22240:22246   */\n      dup3\n        /* \"#utility.yul\":22236:22250   */\n      add\n        /* \"#utility.yul\":22229:22275   */\n      mstore\n        /* \"#utility.yul\":22112:22282   */\n      pop\n      jump\t// out\n        /* \"#utility.yul\":22288:22410   */\n    tag_351:\n        /* \"#utility.yul\":22361:22385   */\n      tag_601\n        /* \"#utility.yul\":22379:22384   */\n      dup2\n        /* \"#utility.yul\":22361:22385   */\n      tag_407\n      jump\t// in\n    tag_601:\n        /* \"#utility.yul\":22354:22359   */\n      dup2\n        /* \"#utility.yul\":22351:22386   */\n      eq\n        /* \"#utility.yul\":22341:22404   */\n      tag_602\n      jumpi\n        /* \"#utility.yul\":22400:22401   */\n      0x00\n        /* \"#utility.yul\":22397:22398   */\n      dup1\n        /* \"#utility.yul\":22390:22402   */\n      revert\n        /* \"#utility.yul\":22341:22404   */\n    tag_602:\n        /* \"#utility.yul\":22288:22410   */\n      pop\n      jump\t// out\n        /* \"#utility.yul\":22416:22532   */\n    tag_358:\n        /* \"#utility.yul\":22486:22507   */\n      tag_604\n        /* \"#utility.yul\":22501:22506   */\n      dup2\n        /* \"#utility.yul\":22486:22507   */\n      tag_442\n      jump\t// in\n    tag_604:\n        /* \"#utility.yul\":22479:22484   */\n      dup2\n        /* \"#utility.yul\":22476:22508   */\n      eq\n        /* \"#utility.yul\":22466:22526   */\n      tag_605\n      jumpi\n        /* \"#utility.yul\":22522:22523   */\n      0x00\n        /* \"#utility.yul\":22519:22520   */\n      dup1\n        /* \"#utility.yul\":22512:22524   */\n      revert\n        /* \"#utility.yul\":22466:22526   */\n    tag_605:\n        /* \"#utility.yul\":22416:22532   */\n      pop\n      jump\t// out\n        /* \"#utility.yul\":22538:22660   */\n    tag_362:\n        /* \"#utility.yul\":22611:22635   */\n      tag_607\n        /* \"#utility.yul\":22629:22634   */\n      dup2\n        /* \"#utility.yul\":22611:22635   */\n      tag_491\n      jump\t// in\n    tag_607:\n        /* \"#utility.yul\":22604:22609   */\n      dup2\n        /* \"#utility.yul\":22601:22636   */\n      eq\n        /* \"#utility.yul\":22591:22654   */\n      tag_608\n      jumpi\n        /* \"#utility.yul\":22650:22651   */\n      0x00\n        /* \"#utility.yul\":22647:22648   */\n      dup1\n        /* \"#utility.yul\":22640:22652   */\n      revert\n        /* \"#utility.yul\":22591:22654   */\n    tag_608:\n        /* \"#utility.yul\":22538:22660   */\n      pop\n      jump\t// out\n\n    auxdata: 0xa26469706673582212204c94e30f5e054657b98b3c7aba8875a66f0a84a4e0f3b3cb6a3de0b3b91f70cc64736f6c63430008070033\n}\n",
				"bytecode": {
					"linkReferences": {},
					"object": "608060405260008060146101000a81548160ff02191690831515021790555034801561002a57600080fd5b50600061003b61028e60201b60201c565b9050806000806101000a81548173ffffffffffffffffffffffffffffffffffffffff021916908373ffffffffffffffffffffffffffffffffffffffff1602179055508073ffffffffffffffffffffffffffffffffffffffff16600073ffffffffffffffffffffffffffffffffffffffff167f8be0079c531659141344cd1fd0a4f28419497f9722a3daafe3b4186f6b6457e060405160405180910390a35073cb3745379275252f4beb5d1094bf1a8a09f368b7600160006101000a81548173ffffffffffffffffffffffffffffffffffffffff021916908373ffffffffffffffffffffffffffffffffffffffff16021790555073d295cf5d859b9ed331cdf69c49a81eff5e1bee83600260006101000a81548173ffffffffffffffffffffffffffffffffffffffff021916908373ffffffffffffffffffffffffffffffffffffffff16021790555073c184af52ca4e1b1f085aa8236ff8508f52dc6ea7600360006101000a81548173ffffffffffffffffffffffffffffffffffffffff021916908373ffffffffffffffffffffffffffffffffffffffff160217905550735bcd91c734d665fe426a5d7156f2ad7d37b76e30600460006101000a81548173ffffffffffffffffffffffffffffffffffffffff021916908373ffffffffffffffffffffffffffffffffffffffff16021790555073bb4cdb9cbd36b01bd1cbaebf2de08d9173bc095c600560006101000a81548173ffffffffffffffffffffffffffffffffffffffff021916908373ffffffffffffffffffffffffffffffffffffffff16021790555060068081905550610296565b600033905090565b61289b806102a56000396000f3fe608060405234801561001057600080fd5b50600436106101585760003560e01c80638456cb59116100c3578063bcfcba761161007c578063bcfcba761461036d578063d88827791461038b578063de281e28146103a9578063ea156f44146103c5578063f0f44260146103e3578063f2fde38b146103ff57610158565b80638456cb59146102b95780638da5cb5b146102d75780638f32d59b146102f557806399bc1bfb14610313578063a888a93a14610333578063b56202291461034f57610158565b8063563df32f11610115578063563df32f1461020b57806359464217146102295780635c975abb146102595780635c9e0d1014610277578063715018a61461029357806383d582151461029d57610158565b80630ff328391461015d5780631ecff38e1461017b57806336c3b4e2146101975780633f4ba83a146101b5578063458a635a146101d35780634dd79f10146101ef575b600080fd5b61016561041b565b60405161017291906120b1565b60405180910390f35b61019560048036038101906101909190611cde565b610441565b005b61019f610525565b6040516101ac91906120b1565b60405180910390f35b6101bd61054b565b6040516101ca91906121a1565b60405180910390f35b6101ed60048036038101906101e89190611cde565b6105fa565b005b61020960048036038101906102049190611da5565b6106de565b005b6102136108af565b60405161022091906120b1565b60405180910390f35b610243600480360381019061023e9190611da5565b6108d5565b60405161025091906120b1565b60405180910390f35b610261610912565b60405161026e91906121a1565b60405180910390f35b610291600480360381019061028c9190611d38565b610925565b005b61029b610c30565b005b6102b760048036038101906102b29190611dff565b610d35565b005b6102c161103a565b6040516102ce91906121a1565b60405180910390f35b6102df6110eb565b6040516102ec91906120b1565b60405180910390f35b6102fd611114565b60405161030a91906121a1565b60405180910390f35b61031b611172565b60405161032a93929190612155565b60405180910390f35b61034d60048036038101906103489190611cde565b61138e565b005b610357611472565b60405161036491906120b1565b60405180910390f35b610375611498565b60405161038291906122dc565b60405180910390f35b61039361149e565b6040516103a091906120b1565b60405180910390f35b6103c360048036038101906103be9190611da5565b6114c4565b005b6103cd61154e565b6040516103da91906122dc565b60405180910390f35b6103fd60048036038101906103f89190611cde565b611729565b005b61041960048036038101906104149190611cde565b61180d565b005b600560009054906101000a900473ffffffffffffffffffffffffffffffffffffffff1681565b610449611114565b610488576040517f08c379a000000000000000000000000000000000000000000000000000000000815260040161047f9061229c565b60405180910390fd5b80600460006101000a81548173ffffffffffffffffffffffffffffffffffffffff021916908373ffffffffffffffffffffffffffffffffffffffff1602179055507f136742181ff5fc7d13f647a125112ec36500105a024ce2dbbb7f28fa375eebfa600460009054906101000a900473ffffffffffffffffffffffffffffffffffffffff1660405161051a91906120b1565b60405180910390a150565b600260009054906101000a900473ffffffffffffffffffffffffffffffffffffffff1681565b6000610555611114565b610594576040517f08c379a000000000000000000000000000000000000000000000000000000000815260040161058b9061229c565b60405180910390fd5b600060149054906101000a900460ff166105ad57600080fd5b60008060146101000a81548160ff0219169083151502179055507f7805862f689e2f13df9f062ff482ad3ad112aca9e0847911ed832e158c525b3360405160405180910390a16001905090565b610602611114565b610641576040517f08c379a00000000000000000000000000000000000000000000000000000000081526004016106389061229c565b60405180910390fd5b80600360006101000a81548173ffffffffffffffffffffffffffffffffffffffff021916908373ffffffffffffffffffffffffffffffffffffffff1602179055507fb01e01d90e1da4079495db07c84276ef34a0ea39cd9be9c3844874eb35616e44600360009054906101000a900473ffffffffffffffffffffffffffffffffffffffff166040516106d391906120b1565b60405180910390a150565b600060149054906101000a900460ff16156106f857600080fd5b600060086000838152602001908152602001600020541161074e576040517f08c379a0000000000000000000000000000000000000000000000000000000008152600401610745906122bc565b60405180910390fd5b60003390508073ffffffffffffffffffffffffffffffffffffffff16600360009054906101000a900473ffffffffffffffffffffffffffffffffffffffff1673ffffffffffffffffffffffffffffffffffffffff16636352211e846040518263ffffffff1660e01b81526004016107c591906122dc565b60206040518083038186803b1580156107dd57600080fd5b505afa1580156107f1573d6000803e3d6000fd5b505050506040513d601f19601f820116820180604052508101906108159190611d0b565b73ffffffffffffffffffffffffffffffffffffffff161461086b576040517f08c379a0000000000000000000000000000000000000000000000000000000008152600401610862906121bc565b60405180910390fd5b61087482611860565b7fd4ceea0833ac36cc33c805e4f164dedb6d75e092a34e14083bbb87976befdecf826040516108a391906122dc565b60405180910390a15050565b600160009054906101000a900473ffffffffffffffffffffffffffffffffffffffff1681565b60006007600083815260200190815260200160002060009054906101000a900473ffffffffffffffffffffffffffffffffffffffff169050919050565b600060149054906101000a900460ff1681565b600060149054906101000a900460ff161561093f57600080fd5b6000339050600360009054906101000a900473ffffffffffffffffffffffffffffffffffffffff1673ffffffffffffffffffffffffffffffffffffffff1663e985e9c582306040518363ffffffff1660e01b81526004016109a19291906120cc565b60206040518083038186803b1580156109b957600080fd5b505afa1580156109cd573d6000803e3d6000fd5b505050506040513d601f19601f820116820180604052508101906109f19190611d78565b610a30576040517f08c379a0000000000000000000000000000000000000000000000000000000008152600401610a279061225c565b60405180910390fd5b600073ffffffffffffffffffffffffffffffffffffffff168373ffffffffffffffffffffffffffffffffffffffff161415610aa0576040517f08c379a0000000000000000000000000000000000000000000000000000000008152600401610a979061227c565b60405180910390fd5b8073ffffffffffffffffffffffffffffffffffffffff168373ffffffffffffffffffffffffffffffffffffffff161415610b0f576040517f08c379a0000000000000000000000000000000000000000000000000000000008152600401610b069061221c565b60405180910390fd5b600360009054906101000a900473ffffffffffffffffffffffffffffffffffffffff1673ffffffffffffffffffffffffffffffffffffffff166342842e0e8285856040518463ffffffff1660e01b8152600401610b6e939291906120f5565b600060405180830381600087803b158015610b8857600080fd5b505af1158015610b9c573d6000803e3d6000fd5b50505050826007600084815260200190815260200160002060006101000a81548173ffffffffffffffffffffffffffffffffffffffff021916908373ffffffffffffffffffffffffffffffffffffffff1602179055507f2a422da7e70b3ca41064be14c50b74a43cbbef24634fa3b7e90d120b8ecc08b38383604051610c2392919061212c565b60405180910390a1505050565b610c38611114565b610c77576040517f08c379a0000000000000000000000000000000000000000000000000000000008152600401610c6e9061229c565b60405180910390fd5b600073ffffffffffffffffffffffffffffffffffffffff1660008054906101000a900473ffffffffffffffffffffffffffffffffffffffff1673ffffffffffffffffffffffffffffffffffffffff167f8be0079c531659141344cd1fd0a4f28419497f9722a3daafe3b4186f6b6457e060405160405180910390a360008060006101000a81548173ffffffffffffffffffffffffffffffffffffffff021916908373ffffffffffffffffffffffffffffffffffffffff160217905550565b600060149054906101000a900460ff1615610d4f57600080fd5b6000600860008481526020019081526020016000205414610da5576040517f08c379a0000000000000000000000000000000000000000000000000000000008152600401610d9c906121dc565b60405180910390fd5b60003390508073ffffffffffffffffffffffffffffffffffffffff16600360009054906101000a900473ffffffffffffffffffffffffffffffffffffffff1673ffffffffffffffffffffffffffffffffffffffff16636352211e856040518263ffffffff1660e01b8152600401610e1c91906122dc565b60206040518083038186803b158015610e3457600080fd5b505afa158015610e48573d6000803e3d6000fd5b505050506040513d601f19601f82011682018060405250810190610e6c9190611d0b565b73ffffffffffffffffffffffffffffffffffffffff1614610ec2576040517f08c379a0000000000000000000000000000000000000000000000000000000008152600401610eb9906121bc565b60405180910390fd5b600360009054906101000a900473ffffffffffffffffffffffffffffffffffffffff1673ffffffffffffffffffffffffffffffffffffffff1663e985e9c582306040518363ffffffff1660e01b8152600401610f1f9291906120cc565b60206040518083038186803b158015610f3757600080fd5b505afa158015610f4b573d6000803e3d6000fd5b505050506040513d601f19601f82011682018060405250810190610f6f9190611d78565b610fae576040517f08c379a0000000000000000000000000000000000000000000000000000000008152600401610fa59061225c565b60405180910390fd5b60008211610ff1576040517f08c379a0000000000000000000000000000000000000000000000000000000008152600401610fe89061223c565b60405180910390fd5b610ffc838383611973565b7f55bb046a6e950af74fcdaaa97a1a82c49209d72a5fcda0925a019dfba29c8f72838360405161102d9291906122f7565b60405180910390a1505050565b6000611044611114565b611083576040517f08c379a000000000000000000000000000000000000000000000000000000000815260040161107a9061229c565b60405180910390fd5b600060149054906101000a900460ff161561109d57600080fd5b6001600060146101000a81548160ff0219169083151502179055507f6985a02210a168e66602d3235cb6db0e70f92b3ba4d376a33c0f3d9434bff62560405160405180910390a16001905090565b60008060009054906101000a900473ffffffffffffffffffffffffffffffffffffffff16905090565b60008060009054906101000a900473ffffffffffffffffffffffffffffffffffffffff1673ffffffffffffffffffffffffffffffffffffffff16611156611b40565b73ffffffffffffffffffffffffffffffffffffffff1614905090565b60608060606000600a80549050905060008167ffffffffffffffff81111561119d5761119c61262f565b5b6040519080825280602002602001820160405280156111cb5781602001602082028036833780820191505090505b50905060008267ffffffffffffffff8111156111ea576111e961262f565b5b6040519080825280602002602001820160405280156112185781602001602082028036833780820191505090505b50905060005b838110156113295760086000600a838154811061123e5761123d612600565b5b906000526020600020015481526020019081526020016000205483828151811061126b5761126a612600565b5b60200260200101818152505060096000600a838154811061128f5761128e612600565b5b9060005260206000200154815260200190815260200160002060009054906101000a900473ffffffffffffffffffffffffffffffffffffffff168282815181106112dc576112db612600565b5b602002602001019073ffffffffffffffffffffffffffffffffffffffff16908173ffffffffffffffffffffffffffffffffffffffff168152505080806113219061252a565b91505061121e565b50600a81838280548060200260200160405190810160405280929190818152602001828054801561137957602002820191906000526020600020905b815481526020019060010190808311611365575b50505050509250955095509550505050909192565b611396611114565b6113d5576040517f08c379a00000000000000000000000000000000000000000000000000000000081526004016113cc9061229c565b60405180910390fd5b80600260006101000a81548173ffffffffffffffffffffffffffffffffffffffff021916908373ffffffffffffffffffffffffffffffffffffffff1602179055507facdd85d235b5b49226c2c4f2b72cb01fa1cc3ae64bb843a6def27788d05b1b60600260009054906101000a900473ffffffffffffffffffffffffffffffffffffffff1660405161146791906120b1565b60405180910390a150565b600460009054906101000a900473ffffffffffffffffffffffffffffffffffffffff1681565b60065481565b600360009054906101000a900473ffffffffffffffffffffffffffffffffffffffff1681565b6114cc611114565b61150b576040517f08c379a00000000000000000000000000000000000000000000000000000000081526004016115029061229c565b60405180910390fd5b806006819055507f4d8e30ff458bebdd848488669e63d632954487ca1bc64c28f3c920f74a5f859460065460405161154391906122dc565b60405180910390a150565b600080600560009054906101000a900473ffffffffffffffffffffffffffffffffffffffff1673ffffffffffffffffffffffffffffffffffffffff166370a08231600260009054906101000a900473ffffffffffffffffffffffffffffffffffffffff166040518263ffffffff1660e01b81526004016115ce91906120b1565b60206040518083038186803b1580156115e657600080fd5b505afa1580156115fa573d6000803e3d6000fd5b505050506040513d601f19601f8201168201806040525081019061161e9190611dd2565b90506000600460009054906101000a900473ffffffffffffffffffffffffffffffffffffffff1673ffffffffffffffffffffffffffffffffffffffff166370a08231600260009054906101000a900473ffffffffffffffffffffffffffffffffffffffff166040518263ffffffff1660e01b815260040161169f91906120b1565b60206040518083038186803b1580156116b757600080fd5b505afa1580156116cb573d6000803e3d6000fd5b505050506040513d601f19601f820116820180604052508101906116ef9190611dd2565b9050600082826116ff91906123f9565b90506000600a60065483611713919061242a565b61171d91906123f9565b90508094505050505090565b611731611114565b611770576040517f08c379a00000000000000000000000000000000000000000000000000000000081526004016117679061229c565b60405180910390fd5b80600160006101000a81548173ffffffffffffffffffffffffffffffffffffffff021916908373ffffffffffffffffffffffffffffffffffffffff1602179055507fb14f2a39bb21fda32827bbdb4be629c94036e10a3f6055a6454f884ca1b33fa1600160009054906101000a900473ffffffffffffffffffffffffffffffffffffffff1660405161180291906120b1565b60405180910390a150565b611815611114565b611854576040517f08c379a000000000000000000000000000000000000000000000000000000000815260040161184b9061229c565b60405180910390fd5b61185d81611b48565b50565b600860008281526020019081526020016000206000905560005b600a8054905081101561196e5781600a828154811061189c5761189b612600565b5b9060005260206000200154141561195b5760008190505b6001600a805490506118c59190612484565b81101561192c57600a6001826118db91906123a3565b815481106118ec576118eb612600565b5b9060005260206000200154600a828154811061190b5761190a612600565b5b906000526020600020018190555080806119249061252a565b9150506118b3565b50600a80548061193f5761193e6125d1565b5b6001900381819060005260206000200160009055905550611970565b80806119669061252a565b91505061187a565b505b50565b816008600085815260200190815260200160002081905550806009600085815260200190815260200160002060006101000a81548173ffffffffffffffffffffffffffffffffffffffff021916908373ffffffffffffffffffffffffffffffffffffffff160217905550600a8390806001815401808255809150506001900390600052602060002001600090919091909150556002600a8054905010611b3a5760006002600a80549050611a279190612484565b90505b60008110611b38578260086000600a8481548110611a4b57611a4a612600565b5b90600052602060002001548152602001908152602001600020541115611af057600a8181548110611a7f57611a7e612600565b5b9060005260206000200154600a600183611a9991906123a3565b81548110611aaa57611aa9612600565b5b90600052602060002001819055506000811415611aeb5783600a600081548110611ad757611ad6612600565b5b906000526020600020018190555050611b3b565b611b25565b83600a600183611b0091906123a3565b81548110611b1157611b10612600565b5b906000526020600020018190555050611b3b565b8080611b3090612500565b915050611a2a565b505b5b505050565b600033905090565b600073ffffffffffffffffffffffffffffffffffffffff168173ffffffffffffffffffffffffffffffffffffffff161415611bb8576040517f08c379a0000000000000000000000000000000000000000000000000000000008152600401611baf906121fc565b60405180910390fd5b8073ffffffffffffffffffffffffffffffffffffffff1660008054906101000a900473ffffffffffffffffffffffffffffffffffffffff1673ffffffffffffffffffffffffffffffffffffffff167f8be0079c531659141344cd1fd0a4f28419497f9722a3daafe3b4186f6b6457e060405160405180910390a3806000806101000a81548173ffffffffffffffffffffffffffffffffffffffff021916908373ffffffffffffffffffffffffffffffffffffffff16021790555050565b600081359050611c8481612820565b92915050565b600081519050611c9981612820565b92915050565b600081519050611cae81612837565b92915050565b600081359050611cc38161284e565b92915050565b600081519050611cd88161284e565b92915050565b600060208284031215611cf457611cf361265e565b5b6000611d0284828501611c75565b91505092915050565b600060208284031215611d2157611d2061265e565b5b6000611d2f84828501611c8a565b91505092915050565b60008060408385031215611d4f57611d4e61265e565b5b6000611d5d85828601611c75565b9250506020611d6e85828601611cb4565b9150509250929050565b600060208284031215611d8e57611d8d61265e565b5b6000611d9c84828501611c9f565b91505092915050565b600060208284031215611dbb57611dba61265e565b5b6000611dc984828501611cb4565b91505092915050565b600060208284031215611de857611de761265e565b5b6000611df684828501611cc9565b91505092915050565b60008060408385031215611e1657611e1561265e565b5b6000611e2485828601611cb4565b9250506020611e3585828601611cb4565b9150509250929050565b6000611e4b8383611e6f565b60208301905092915050565b6000611e638383612093565b60208301905092915050565b611e78816124b8565b82525050565b611e87816124b8565b82525050565b6000611e9882612340565b611ea28185612370565b9350611ead83612320565b8060005b83811015611ede578151611ec58882611e3f565b9750611ed083612356565b925050600181019050611eb1565b5085935050505092915050565b6000611ef68261234b565b611f008185612381565b9350611f0b83612330565b8060005b83811015611f3c578151611f238882611e57565b9750611f2e83612363565b925050600181019050611f0f565b5085935050505092915050565b611f52816124ca565b82525050565b6000611f65601d83612392565b9150611f7082612663565b602082019050919050565b6000611f88600d83612392565b9150611f938261268c565b602082019050919050565b6000611fab602683612392565b9150611fb6826126b5565b604082019050919050565b6000611fce601883612392565b9150611fd982612704565b602082019050919050565b6000611ff1600983612392565b9150611ffc8261272d565b602082019050919050565b6000612014602883612392565b915061201f82612756565b604082019050919050565b6000612037601483612392565b9150612042826127a5565b602082019050919050565b600061205a602083612392565b9150612065826127ce565b602082019050919050565b600061207d601483612392565b9150612088826127f7565b602082019050919050565b61209c816124f6565b82525050565b6120ab816124f6565b82525050565b60006020820190506120c66000830184611e7e565b92915050565b60006040820190506120e16000830185611e7e565b6120ee6020830184611e7e565b9392505050565b600060608201905061210a6000830186611e7e565b6121176020830185611e7e565b61212460408301846120a2565b949350505050565b60006040820190506121416000830185611e7e565b61214e60208301846120a2565b9392505050565b6000606082019050818103600083015261216f8186611eeb565b905081810360208301526121838185611e8d565b905081810360408301526121978184611eeb565b9050949350505050565b60006020820190506121b66000830184611f49565b92915050565b600060208201905081810360008301526121d581611f58565b9050919050565b600060208201905081810360008301526121f581611f7b565b9050919050565b6000602082019050818103600083015261221581611f9e565b9050919050565b6000602082019050818103600083015261223581611fc1565b9050919050565b6000602082019050818103600083015261225581611fe4565b9050919050565b6000602082019050818103600083015261227581612007565b9050919050565b600060208201905081810360008301526122958161202a565b9050919050565b600060208201905081810360008301526122b58161204d565b9050919050565b600060208201905081810360008301526122d581612070565b9050919050565b60006020820190506122f160008301846120a2565b92915050565b600060408201905061230c60008301856120a2565b61231960208301846120a2565b9392505050565b6000819050602082019050919050565b6000819050602082019050919050565b600081519050919050565b600081519050919050565b6000602082019050919050565b6000602082019050919050565b600082825260208201905092915050565b600082825260208201905092915050565b600082825260208201905092915050565b60006123ae826124f6565b91506123b9836124f6565b9250827fffffffffffffffffffffffffffffffffffffffffffffffffffffffffffffffff038211156123ee576123ed612573565b5b828201905092915050565b6000612404826124f6565b915061240f836124f6565b92508261241f5761241e6125a2565b5b828204905092915050565b6000612435826124f6565b9150612440836124f6565b9250817fffffffffffffffffffffffffffffffffffffffffffffffffffffffffffffffff048311821515161561247957612478612573565b5b828202905092915050565b600061248f826124f6565b915061249a836124f6565b9250828210156124ad576124ac612573565b5b828203905092915050565b60006124c3826124d6565b9050919050565b60008115159050919050565b600073ffffffffffffffffffffffffffffffffffffffff82169050919050565b6000819050919050565b600061250b826124f6565b9150600082141561251f5761251e612573565b5b600182039050919050565b6000612535826124f6565b91507fffffffffffffffffffffffffffffffffffffffffffffffffffffffffffffffff82141561256857612567612573565b5b600182019050919050565b7f4e487b7100000000000000000000000000000000000000000000000000000000600052601160045260246000fd5b7f4e487b7100000000000000000000000000000000000000000000000000000000600052601260045260246000fd5b7f4e487b7100000000000000000000000000000000000000000000000000000000600052603160045260246000fd5b7f4e487b7100000000000000000000000000000000000000000000000000000000600052603260045260246000fd5b7f4e487b7100000000000000000000000000000000000000000000000000000000600052604160045260246000fd5b600080fd5b7f73656c6c6572206e6565642068617665207468697320746f6b656e6964000000600082015250565b7f69742069732073656c6c696e6700000000000000000000000000000000000000600082015250565b7f4f776e61626c653a206e6577206f776e657220697320746865207a65726f206160008201527f6464726573730000000000000000000000000000000000000000000000000000602082015250565b7f46726f6d20616e6420546f2063616e206e6f742073616d650000000000000000600082015250565b7f5072696365203e20300000000000000000000000000000000000000000000000600082015250565b7f596f75206e65656420417070726f766520466f7220416c6c20746f207468697360008201527f20636f6e74616374000000000000000000000000000000000000000000000000602082015250565b7f416464726573732063616e206e6f74207a65726f000000000000000000000000600082015250565b7f4f776e61626c653a2063616c6c6572206973206e6f7420746865206f776e6572600082015250565b7f56696353686f7365206e6f7420696e2073656c6c000000000000000000000000600082015250565b612829816124b8565b811461283457600080fd5b50565b612840816124ca565b811461284b57600080fd5b50565b612857816124f6565b811461286257600080fd5b5056fea26469706673582212204c94e30f5e054657b98b3c7aba8875a66f0a84a4e0f3b3cb6a3de0b3b91f70cc64736f6c63430008070033",
					"opcodes": "PUSH1 0x80 PUSH1 0x40 MSTORE PUSH1 0x0 DUP1 PUSH1 0x14 PUSH2 0x100 EXP DUP2 SLOAD DUP2 PUSH1 0xFF MUL NOT AND SWAP1 DUP4 ISZERO ISZERO MUL OR SWAP1 SSTORE POP CALLVALUE DUP1 ISZERO PUSH2 0x2A JUMPI PUSH1 0x0 DUP1 REVERT JUMPDEST POP PUSH1 0x0 PUSH2 0x3B PUSH2 0x28E PUSH1 0x20 SHL PUSH1 0x20 SHR JUMP JUMPDEST SWAP1 POP DUP1 PUSH1 0x0 DUP1 PUSH2 0x100 EXP DUP2 SLOAD DUP2 PUSH20 0xFFFFFFFFFFFFFFFFFFFFFFFFFFFFFFFFFFFFFFFF MUL NOT AND SWAP1 DUP4 PUSH20 0xFFFFFFFFFFFFFFFFFFFFFFFFFFFFFFFFFFFFFFFF AND MUL OR SWAP1 SSTORE POP DUP1 PUSH20 0xFFFFFFFFFFFFFFFFFFFFFFFFFFFFFFFFFFFFFFFF AND PUSH1 0x0 PUSH20 0xFFFFFFFFFFFFFFFFFFFFFFFFFFFFFFFFFFFFFFFF AND PUSH32 0x8BE0079C531659141344CD1FD0A4F28419497F9722A3DAAFE3B4186F6B6457E0 PUSH1 0x40 MLOAD PUSH1 0x40 MLOAD DUP1 SWAP2 SUB SWAP1 LOG3 POP PUSH20 0xCB3745379275252F4BEB5D1094BF1A8A09F368B7 PUSH1 0x1 PUSH1 0x0 PUSH2 0x100 EXP DUP2 SLOAD DUP2 PUSH20 0xFFFFFFFFFFFFFFFFFFFFFFFFFFFFFFFFFFFFFFFF MUL NOT AND SWAP1 DUP4 PUSH20 0xFFFFFFFFFFFFFFFFFFFFFFFFFFFFFFFFFFFFFFFF AND MUL OR SWAP1 SSTORE POP PUSH20 0xD295CF5D859B9ED331CDF69C49A81EFF5E1BEE83 PUSH1 0x2 PUSH1 0x0 PUSH2 0x100 EXP DUP2 SLOAD DUP2 PUSH20 0xFFFFFFFFFFFFFFFFFFFFFFFFFFFFFFFFFFFFFFFF MUL NOT AND SWAP1 DUP4 PUSH20 0xFFFFFFFFFFFFFFFFFFFFFFFFFFFFFFFFFFFFFFFF AND MUL OR SWAP1 SSTORE POP PUSH20 0xC184AF52CA4E1B1F085AA8236FF8508F52DC6EA7 PUSH1 0x3 PUSH1 0x0 PUSH2 0x100 EXP DUP2 SLOAD DUP2 PUSH20 0xFFFFFFFFFFFFFFFFFFFFFFFFFFFFFFFFFFFFFFFF MUL NOT AND SWAP1 DUP4 PUSH20 0xFFFFFFFFFFFFFFFFFFFFFFFFFFFFFFFFFFFFFFFF AND MUL OR SWAP1 SSTORE POP PUSH20 0x5BCD91C734D665FE426A5D7156F2AD7D37B76E30 PUSH1 0x4 PUSH1 0x0 PUSH2 0x100 EXP DUP2 SLOAD DUP2 PUSH20 0xFFFFFFFFFFFFFFFFFFFFFFFFFFFFFFFFFFFFFFFF MUL NOT AND SWAP1 DUP4 PUSH20 0xFFFFFFFFFFFFFFFFFFFFFFFFFFFFFFFFFFFFFFFF AND MUL OR SWAP1 SSTORE POP PUSH20 0xBB4CDB9CBD36B01BD1CBAEBF2DE08D9173BC095C PUSH1 0x5 PUSH1 0x0 PUSH2 0x100 EXP DUP2 SLOAD DUP2 PUSH20 0xFFFFFFFFFFFFFFFFFFFFFFFFFFFFFFFFFFFFFFFF MUL NOT AND SWAP1 DUP4 PUSH20 0xFFFFFFFFFFFFFFFFFFFFFFFFFFFFFFFFFFFFFFFF AND MUL OR SWAP1 SSTORE POP PUSH1 0x6 DUP1 DUP2 SWAP1 SSTORE POP PUSH2 0x296 JUMP JUMPDEST PUSH1 0x0 CALLER SWAP1 POP SWAP1 JUMP JUMPDEST PUSH2 0x289B DUP1 PUSH2 0x2A5 PUSH1 0x0 CODECOPY PUSH1 0x0 RETURN INVALID PUSH1 0x80 PUSH1 0x40 MSTORE CALLVALUE DUP1 ISZERO PUSH2 0x10 JUMPI PUSH1 0x0 DUP1 REVERT JUMPDEST POP PUSH1 0x4 CALLDATASIZE LT PUSH2 0x158 JUMPI PUSH1 0x0 CALLDATALOAD PUSH1 0xE0 SHR DUP1 PUSH4 0x8456CB59 GT PUSH2 0xC3 JUMPI DUP1 PUSH4 0xBCFCBA76 GT PUSH2 0x7C JUMPI DUP1 PUSH4 0xBCFCBA76 EQ PUSH2 0x36D JUMPI DUP1 PUSH4 0xD8882779 EQ PUSH2 0x38B JUMPI DUP1 PUSH4 0xDE281E28 EQ PUSH2 0x3A9 JUMPI DUP1 PUSH4 0xEA156F44 EQ PUSH2 0x3C5 JUMPI DUP1 PUSH4 0xF0F44260 EQ PUSH2 0x3E3 JUMPI DUP1 PUSH4 0xF2FDE38B EQ PUSH2 0x3FF JUMPI PUSH2 0x158 JUMP JUMPDEST DUP1 PUSH4 0x8456CB59 EQ PUSH2 0x2B9 JUMPI DUP1 PUSH4 0x8DA5CB5B EQ PUSH2 0x2D7 JUMPI DUP1 PUSH4 0x8F32D59B EQ PUSH2 0x2F5 JUMPI DUP1 PUSH4 0x99BC1BFB EQ PUSH2 0x313 JUMPI DUP1 PUSH4 0xA888A93A EQ PUSH2 0x333 JUMPI DUP1 PUSH4 0xB5620229 EQ PUSH2 0x34F JUMPI PUSH2 0x158 JUMP JUMPDEST DUP1 PUSH4 0x563DF32F GT PUSH2 0x115 JUMPI DUP1 PUSH4 0x563DF32F EQ PUSH2 0x20B JUMPI DUP1 PUSH4 0x59464217 EQ PUSH2 0x229 JUMPI DUP1 PUSH4 0x5C975ABB EQ PUSH2 0x259 JUMPI DUP1 PUSH4 0x5C9E0D10 EQ PUSH2 0x277 JUMPI DUP1 PUSH4 0x715018A6 EQ PUSH2 0x293 JUMPI DUP1 PUSH4 0x83D58215 EQ PUSH2 0x29D JUMPI PUSH2 0x158 JUMP JUMPDEST DUP1 PUSH4 0xFF32839 EQ PUSH2 0x15D JUMPI DUP1 PUSH4 0x1ECFF38E EQ PUSH2 0x17B JUMPI DUP1 PUSH4 0x36C3B4E2 EQ PUSH2 0x197 JUMPI DUP1 PUSH4 0x3F4BA83A EQ PUSH2 0x1B5 JUMPI DUP1 PUSH4 0x458A635A EQ PUSH2 0x1D3 JUMPI DUP1 PUSH4 0x4DD79F10 EQ PUSH2 0x1EF JUMPI JUMPDEST PUSH1 0x0 DUP1 REVERT JUMPDEST PUSH2 0x165 PUSH2 0x41B JUMP JUMPDEST PUSH1 0x40 MLOAD PUSH2 0x172 SWAP2 SWAP1 PUSH2 0x20B1 JUMP JUMPDEST PUSH1 0x40 MLOAD DUP1 SWAP2 SUB SWAP1 RETURN JUMPDEST PUSH2 0x195 PUSH1 0x4 DUP1 CALLDATASIZE SUB DUP2 ADD SWAP1 PUSH2 0x190 SWAP2 SWAP1 PUSH2 0x1CDE JUMP JUMPDEST PUSH2 0x441 JUMP JUMPDEST STOP JUMPDEST PUSH2 0x19F PUSH2 0x525 JUMP JUMPDEST PUSH1 0x40 MLOAD PUSH2 0x1AC SWAP2 SWAP1 PUSH2 0x20B1 JUMP JUMPDEST PUSH1 0x40 MLOAD DUP1 SWAP2 SUB SWAP1 RETURN JUMPDEST PUSH2 0x1BD PUSH2 0x54B JUMP JUMPDEST PUSH1 0x40 MLOAD PUSH2 0x1CA SWAP2 SWAP1 PUSH2 0x21A1 JUMP JUMPDEST PUSH1 0x40 MLOAD DUP1 SWAP2 SUB SWAP1 RETURN JUMPDEST PUSH2 0x1ED PUSH1 0x4 DUP1 CALLDATASIZE SUB DUP2 ADD SWAP1 PUSH2 0x1E8 SWAP2 SWAP1 PUSH2 0x1CDE JUMP JUMPDEST PUSH2 0x5FA JUMP JUMPDEST STOP JUMPDEST PUSH2 0x209 PUSH1 0x4 DUP1 CALLDATASIZE SUB DUP2 ADD SWAP1 PUSH2 0x204 SWAP2 SWAP1 PUSH2 0x1DA5 JUMP JUMPDEST PUSH2 0x6DE JUMP JUMPDEST STOP JUMPDEST PUSH2 0x213 PUSH2 0x8AF JUMP JUMPDEST PUSH1 0x40 MLOAD PUSH2 0x220 SWAP2 SWAP1 PUSH2 0x20B1 JUMP JUMPDEST PUSH1 0x40 MLOAD DUP1 SWAP2 SUB SWAP1 RETURN JUMPDEST PUSH2 0x243 PUSH1 0x4 DUP1 CALLDATASIZE SUB DUP2 ADD SWAP1 PUSH2 0x23E SWAP2 SWAP1 PUSH2 0x1DA5 JUMP JUMPDEST PUSH2 0x8D5 JUMP JUMPDEST PUSH1 0x40 MLOAD PUSH2 0x250 SWAP2 SWAP1 PUSH2 0x20B1 JUMP JUMPDEST PUSH1 0x40 MLOAD DUP1 SWAP2 SUB SWAP1 RETURN JUMPDEST PUSH2 0x261 PUSH2 0x912 JUMP JUMPDEST PUSH1 0x40 MLOAD PUSH2 0x26E SWAP2 SWAP1 PUSH2 0x21A1 JUMP JUMPDEST PUSH1 0x40 MLOAD DUP1 SWAP2 SUB SWAP1 RETURN JUMPDEST PUSH2 0x291 PUSH1 0x4 DUP1 CALLDATASIZE SUB DUP2 ADD SWAP1 PUSH2 0x28C SWAP2 SWAP1 PUSH2 0x1D38 JUMP JUMPDEST PUSH2 0x925 JUMP JUMPDEST STOP JUMPDEST PUSH2 0x29B PUSH2 0xC30 JUMP JUMPDEST STOP JUMPDEST PUSH2 0x2B7 PUSH1 0x4 DUP1 CALLDATASIZE SUB DUP2 ADD SWAP1 PUSH2 0x2B2 SWAP2 SWAP1 PUSH2 0x1DFF JUMP JUMPDEST PUSH2 0xD35 JUMP JUMPDEST STOP JUMPDEST PUSH2 0x2C1 PUSH2 0x103A JUMP JUMPDEST PUSH1 0x40 MLOAD PUSH2 0x2CE SWAP2 SWAP1 PUSH2 0x21A1 JUMP JUMPDEST PUSH1 0x40 MLOAD DUP1 SWAP2 SUB SWAP1 RETURN JUMPDEST PUSH2 0x2DF PUSH2 0x10EB JUMP JUMPDEST PUSH1 0x40 MLOAD PUSH2 0x2EC SWAP2 SWAP1 PUSH2 0x20B1 JUMP JUMPDEST PUSH1 0x40 MLOAD DUP1 SWAP2 SUB SWAP1 RETURN JUMPDEST PUSH2 0x2FD PUSH2 0x1114 JUMP JUMPDEST PUSH1 0x40 MLOAD PUSH2 0x30A SWAP2 SWAP1 PUSH2 0x21A1 JUMP JUMPDEST PUSH1 0x40 MLOAD DUP1 SWAP2 SUB SWAP1 RETURN JUMPDEST PUSH2 0x31B PUSH2 0x1172 JUMP JUMPDEST PUSH1 0x40 MLOAD PUSH2 0x32A SWAP4 SWAP3 SWAP2 SWAP1 PUSH2 0x2155 JUMP JUMPDEST PUSH1 0x40 MLOAD DUP1 SWAP2 SUB SWAP1 RETURN JUMPDEST PUSH2 0x34D PUSH1 0x4 DUP1 CALLDATASIZE SUB DUP2 ADD SWAP1 PUSH2 0x348 SWAP2 SWAP1 PUSH2 0x1CDE JUMP JUMPDEST PUSH2 0x138E JUMP JUMPDEST STOP JUMPDEST PUSH2 0x357 PUSH2 0x1472 JUMP JUMPDEST PUSH1 0x40 MLOAD PUSH2 0x364 SWAP2 SWAP1 PUSH2 0x20B1 JUMP JUMPDEST PUSH1 0x40 MLOAD DUP1 SWAP2 SUB SWAP1 RETURN JUMPDEST PUSH2 0x375 PUSH2 0x1498 JUMP JUMPDEST PUSH1 0x40 MLOAD PUSH2 0x382 SWAP2 SWAP1 PUSH2 0x22DC JUMP JUMPDEST PUSH1 0x40 MLOAD DUP1 SWAP2 SUB SWAP1 RETURN JUMPDEST PUSH2 0x393 PUSH2 0x149E JUMP JUMPDEST PUSH1 0x40 MLOAD PUSH2 0x3A0 SWAP2 SWAP1 PUSH2 0x20B1 JUMP JUMPDEST PUSH1 0x40 MLOAD DUP1 SWAP2 SUB SWAP1 RETURN JUMPDEST PUSH2 0x3C3 PUSH1 0x4 DUP1 CALLDATASIZE SUB DUP2 ADD SWAP1 PUSH2 0x3BE SWAP2 SWAP1 PUSH2 0x1DA5 JUMP JUMPDEST PUSH2 0x14C4 JUMP JUMPDEST STOP JUMPDEST PUSH2 0x3CD PUSH2 0x154E JUMP JUMPDEST PUSH1 0x40 MLOAD PUSH2 0x3DA SWAP2 SWAP1 PUSH2 0x22DC JUMP JUMPDEST PUSH1 0x40 MLOAD DUP1 SWAP2 SUB SWAP1 RETURN JUMPDEST PUSH2 0x3FD PUSH1 0x4 DUP1 CALLDATASIZE SUB DUP2 ADD SWAP1 PUSH2 0x3F8 SWAP2 SWAP1 PUSH2 0x1CDE JUMP JUMPDEST PUSH2 0x1729 JUMP JUMPDEST STOP JUMPDEST PUSH2 0x419 PUSH1 0x4 DUP1 CALLDATASIZE SUB DUP2 ADD SWAP1 PUSH2 0x414 SWAP2 SWAP1 PUSH2 0x1CDE JUMP JUMPDEST PUSH2 0x180D JUMP JUMPDEST STOP JUMPDEST PUSH1 0x5 PUSH1 0x0 SWAP1 SLOAD SWAP1 PUSH2 0x100 EXP SWAP1 DIV PUSH20 0xFFFFFFFFFFFFFFFFFFFFFFFFFFFFFFFFFFFFFFFF AND DUP2 JUMP JUMPDEST PUSH2 0x449 PUSH2 0x1114 JUMP JUMPDEST PUSH2 0x488 JUMPI PUSH1 0x40 MLOAD PUSH32 0x8C379A000000000000000000000000000000000000000000000000000000000 DUP2 MSTORE PUSH1 0x4 ADD PUSH2 0x47F SWAP1 PUSH2 0x229C JUMP JUMPDEST PUSH1 0x40 MLOAD DUP1 SWAP2 SUB SWAP1 REVERT JUMPDEST DUP1 PUSH1 0x4 PUSH1 0x0 PUSH2 0x100 EXP DUP2 SLOAD DUP2 PUSH20 0xFFFFFFFFFFFFFFFFFFFFFFFFFFFFFFFFFFFFFFFF MUL NOT AND SWAP1 DUP4 PUSH20 0xFFFFFFFFFFFFFFFFFFFFFFFFFFFFFFFFFFFFFFFF AND MUL OR SWAP1 SSTORE POP PUSH32 0x136742181FF5FC7D13F647A125112EC36500105A024CE2DBBB7F28FA375EEBFA PUSH1 0x4 PUSH1 0x0 SWAP1 SLOAD SWAP1 PUSH2 0x100 EXP SWAP1 DIV PUSH20 0xFFFFFFFFFFFFFFFFFFFFFFFFFFFFFFFFFFFFFFFF AND PUSH1 0x40 MLOAD PUSH2 0x51A SWAP2 SWAP1 PUSH2 0x20B1 JUMP JUMPDEST PUSH1 0x40 MLOAD DUP1 SWAP2 SUB SWAP1 LOG1 POP JUMP JUMPDEST PUSH1 0x2 PUSH1 0x0 SWAP1 SLOAD SWAP1 PUSH2 0x100 EXP SWAP1 DIV PUSH20 0xFFFFFFFFFFFFFFFFFFFFFFFFFFFFFFFFFFFFFFFF AND DUP2 JUMP JUMPDEST PUSH1 0x0 PUSH2 0x555 PUSH2 0x1114 JUMP JUMPDEST PUSH2 0x594 JUMPI PUSH1 0x40 MLOAD PUSH32 0x8C379A000000000000000000000000000000000000000000000000000000000 DUP2 MSTORE PUSH1 0x4 ADD PUSH2 0x58B SWAP1 PUSH2 0x229C JUMP JUMPDEST PUSH1 0x40 MLOAD DUP1 SWAP2 SUB SWAP1 REVERT JUMPDEST PUSH1 0x0 PUSH1 0x14 SWAP1 SLOAD SWAP1 PUSH2 0x100 EXP SWAP1 DIV PUSH1 0xFF AND PUSH2 0x5AD JUMPI PUSH1 0x0 DUP1 REVERT JUMPDEST PUSH1 0x0 DUP1 PUSH1 0x14 PUSH2 0x100 EXP DUP2 SLOAD DUP2 PUSH1 0xFF MUL NOT AND SWAP1 DUP4 ISZERO ISZERO MUL OR SWAP1 SSTORE POP PUSH32 0x7805862F689E2F13DF9F062FF482AD3AD112ACA9E0847911ED832E158C525B33 PUSH1 0x40 MLOAD PUSH1 0x40 MLOAD DUP1 SWAP2 SUB SWAP1 LOG1 PUSH1 0x1 SWAP1 POP SWAP1 JUMP JUMPDEST PUSH2 0x602 PUSH2 0x1114 JUMP JUMPDEST PUSH2 0x641 JUMPI PUSH1 0x40 MLOAD PUSH32 0x8C379A000000000000000000000000000000000000000000000000000000000 DUP2 MSTORE PUSH1 0x4 ADD PUSH2 0x638 SWAP1 PUSH2 0x229C JUMP JUMPDEST PUSH1 0x40 MLOAD DUP1 SWAP2 SUB SWAP1 REVERT JUMPDEST DUP1 PUSH1 0x3 PUSH1 0x0 PUSH2 0x100 EXP DUP2 SLOAD DUP2 PUSH20 0xFFFFFFFFFFFFFFFFFFFFFFFFFFFFFFFFFFFFFFFF MUL NOT AND SWAP1 DUP4 PUSH20 0xFFFFFFFFFFFFFFFFFFFFFFFFFFFFFFFFFFFFFFFF AND MUL OR SWAP1 SSTORE POP PUSH32 0xB01E01D90E1DA4079495DB07C84276EF34A0EA39CD9BE9C3844874EB35616E44 PUSH1 0x3 PUSH1 0x0 SWAP1 SLOAD SWAP1 PUSH2 0x100 EXP SWAP1 DIV PUSH20 0xFFFFFFFFFFFFFFFFFFFFFFFFFFFFFFFFFFFFFFFF AND PUSH1 0x40 MLOAD PUSH2 0x6D3 SWAP2 SWAP1 PUSH2 0x20B1 JUMP JUMPDEST PUSH1 0x40 MLOAD DUP1 SWAP2 SUB SWAP1 LOG1 POP JUMP JUMPDEST PUSH1 0x0 PUSH1 0x14 SWAP1 SLOAD SWAP1 PUSH2 0x100 EXP SWAP1 DIV PUSH1 0xFF AND ISZERO PUSH2 0x6F8 JUMPI PUSH1 0x0 DUP1 REVERT JUMPDEST PUSH1 0x0 PUSH1 0x8 PUSH1 0x0 DUP4 DUP2 MSTORE PUSH1 0x20 ADD SWAP1 DUP2 MSTORE PUSH1 0x20 ADD PUSH1 0x0 KECCAK256 SLOAD GT PUSH2 0x74E JUMPI PUSH1 0x40 MLOAD PUSH32 0x8C379A000000000000000000000000000000000000000000000000000000000 DUP2 MSTORE PUSH1 0x4 ADD PUSH2 0x745 SWAP1 PUSH2 0x22BC JUMP JUMPDEST PUSH1 0x40 MLOAD DUP1 SWAP2 SUB SWAP1 REVERT JUMPDEST PUSH1 0x0 CALLER SWAP1 POP DUP1 PUSH20 0xFFFFFFFFFFFFFFFFFFFFFFFFFFFFFFFFFFFFFFFF AND PUSH1 0x3 PUSH1 0x0 SWAP1 SLOAD SWAP1 PUSH2 0x100 EXP SWAP1 DIV PUSH20 0xFFFFFFFFFFFFFFFFFFFFFFFFFFFFFFFFFFFFFFFF AND PUSH20 0xFFFFFFFFFFFFFFFFFFFFFFFFFFFFFFFFFFFFFFFF AND PUSH4 0x6352211E DUP5 PUSH1 0x40 MLOAD DUP3 PUSH4 0xFFFFFFFF AND PUSH1 0xE0 SHL DUP2 MSTORE PUSH1 0x4 ADD PUSH2 0x7C5 SWAP2 SWAP1 PUSH2 0x22DC JUMP JUMPDEST PUSH1 0x20 PUSH1 0x40 MLOAD DUP1 DUP4 SUB DUP2 DUP7 DUP1 EXTCODESIZE ISZERO DUP1 ISZERO PUSH2 0x7DD JUMPI PUSH1 0x0 DUP1 REVERT JUMPDEST POP GAS STATICCALL ISZERO DUP1 ISZERO PUSH2 0x7F1 JUMPI RETURNDATASIZE PUSH1 0x0 DUP1 RETURNDATACOPY RETURNDATASIZE PUSH1 0x0 REVERT JUMPDEST POP POP POP POP PUSH1 0x40 MLOAD RETURNDATASIZE PUSH1 0x1F NOT PUSH1 0x1F DUP3 ADD AND DUP3 ADD DUP1 PUSH1 0x40 MSTORE POP DUP2 ADD SWAP1 PUSH2 0x815 SWAP2 SWAP1 PUSH2 0x1D0B JUMP JUMPDEST PUSH20 0xFFFFFFFFFFFFFFFFFFFFFFFFFFFFFFFFFFFFFFFF AND EQ PUSH2 0x86B JUMPI PUSH1 0x40 MLOAD PUSH32 0x8C379A000000000000000000000000000000000000000000000000000000000 DUP2 MSTORE PUSH1 0x4 ADD PUSH2 0x862 SWAP1 PUSH2 0x21BC JUMP JUMPDEST PUSH1 0x40 MLOAD DUP1 SWAP2 SUB SWAP1 REVERT JUMPDEST PUSH2 0x874 DUP3 PUSH2 0x1860 JUMP JUMPDEST PUSH32 0xD4CEEA0833AC36CC33C805E4F164DEDB6D75E092A34E14083BBB87976BEFDECF DUP3 PUSH1 0x40 MLOAD PUSH2 0x8A3 SWAP2 SWAP1 PUSH2 0x22DC JUMP JUMPDEST PUSH1 0x40 MLOAD DUP1 SWAP2 SUB SWAP1 LOG1 POP POP JUMP JUMPDEST PUSH1 0x1 PUSH1 0x0 SWAP1 SLOAD SWAP1 PUSH2 0x100 EXP SWAP1 DIV PUSH20 0xFFFFFFFFFFFFFFFFFFFFFFFFFFFFFFFFFFFFFFFF AND DUP2 JUMP JUMPDEST PUSH1 0x0 PUSH1 0x7 PUSH1 0x0 DUP4 DUP2 MSTORE PUSH1 0x20 ADD SWAP1 DUP2 MSTORE PUSH1 0x20 ADD PUSH1 0x0 KECCAK256 PUSH1 0x0 SWAP1 SLOAD SWAP1 PUSH2 0x100 EXP SWAP1 DIV PUSH20 0xFFFFFFFFFFFFFFFFFFFFFFFFFFFFFFFFFFFFFFFF AND SWAP1 POP SWAP2 SWAP1 POP JUMP JUMPDEST PUSH1 0x0 PUSH1 0x14 SWAP1 SLOAD SWAP1 PUSH2 0x100 EXP SWAP1 DIV PUSH1 0xFF AND DUP2 JUMP JUMPDEST PUSH1 0x0 PUSH1 0x14 SWAP1 SLOAD SWAP1 PUSH2 0x100 EXP SWAP1 DIV PUSH1 0xFF AND ISZERO PUSH2 0x93F JUMPI PUSH1 0x0 DUP1 REVERT JUMPDEST PUSH1 0x0 CALLER SWAP1 POP PUSH1 0x3 PUSH1 0x0 SWAP1 SLOAD SWAP1 PUSH2 0x100 EXP SWAP1 DIV PUSH20 0xFFFFFFFFFFFFFFFFFFFFFFFFFFFFFFFFFFFFFFFF AND PUSH20 0xFFFFFFFFFFFFFFFFFFFFFFFFFFFFFFFFFFFFFFFF AND PUSH4 0xE985E9C5 DUP3 ADDRESS PUSH1 0x40 MLOAD DUP4 PUSH4 0xFFFFFFFF AND PUSH1 0xE0 SHL DUP2 MSTORE PUSH1 0x4 ADD PUSH2 0x9A1 SWAP3 SWAP2 SWAP1 PUSH2 0x20CC JUMP JUMPDEST PUSH1 0x20 PUSH1 0x40 MLOAD DUP1 DUP4 SUB DUP2 DUP7 DUP1 EXTCODESIZE ISZERO DUP1 ISZERO PUSH2 0x9B9 JUMPI PUSH1 0x0 DUP1 REVERT JUMPDEST POP GAS STATICCALL ISZERO DUP1 ISZERO PUSH2 0x9CD JUMPI RETURNDATASIZE PUSH1 0x0 DUP1 RETURNDATACOPY RETURNDATASIZE PUSH1 0x0 REVERT JUMPDEST POP POP POP POP PUSH1 0x40 MLOAD RETURNDATASIZE PUSH1 0x1F NOT PUSH1 0x1F DUP3 ADD AND DUP3 ADD DUP1 PUSH1 0x40 MSTORE POP DUP2 ADD SWAP1 PUSH2 0x9F1 SWAP2 SWAP1 PUSH2 0x1D78 JUMP JUMPDEST PUSH2 0xA30 JUMPI PUSH1 0x40 MLOAD PUSH32 0x8C379A000000000000000000000000000000000000000000000000000000000 DUP2 MSTORE PUSH1 0x4 ADD PUSH2 0xA27 SWAP1 PUSH2 0x225C JUMP JUMPDEST PUSH1 0x40 MLOAD DUP1 SWAP2 SUB SWAP1 REVERT JUMPDEST PUSH1 0x0 PUSH20 0xFFFFFFFFFFFFFFFFFFFFFFFFFFFFFFFFFFFFFFFF AND DUP4 PUSH20 0xFFFFFFFFFFFFFFFFFFFFFFFFFFFFFFFFFFFFFFFF AND EQ ISZERO PUSH2 0xAA0 JUMPI PUSH1 0x40 MLOAD PUSH32 0x8C379A000000000000000000000000000000000000000000000000000000000 DUP2 MSTORE PUSH1 0x4 ADD PUSH2 0xA97 SWAP1 PUSH2 0x227C JUMP JUMPDEST PUSH1 0x40 MLOAD DUP1 SWAP2 SUB SWAP1 REVERT JUMPDEST DUP1 PUSH20 0xFFFFFFFFFFFFFFFFFFFFFFFFFFFFFFFFFFFFFFFF AND DUP4 PUSH20 0xFFFFFFFFFFFFFFFFFFFFFFFFFFFFFFFFFFFFFFFF AND EQ ISZERO PUSH2 0xB0F JUMPI PUSH1 0x40 MLOAD PUSH32 0x8C379A000000000000000000000000000000000000000000000000000000000 DUP2 MSTORE PUSH1 0x4 ADD PUSH2 0xB06 SWAP1 PUSH2 0x221C JUMP JUMPDEST PUSH1 0x40 MLOAD DUP1 SWAP2 SUB SWAP1 REVERT JUMPDEST PUSH1 0x3 PUSH1 0x0 SWAP1 SLOAD SWAP1 PUSH2 0x100 EXP SWAP1 DIV PUSH20 0xFFFFFFFFFFFFFFFFFFFFFFFFFFFFFFFFFFFFFFFF AND PUSH20 0xFFFFFFFFFFFFFFFFFFFFFFFFFFFFFFFFFFFFFFFF AND PUSH4 0x42842E0E DUP3 DUP6 DUP6 PUSH1 0x40 MLOAD DUP5 PUSH4 0xFFFFFFFF AND PUSH1 0xE0 SHL DUP2 MSTORE PUSH1 0x4 ADD PUSH2 0xB6E SWAP4 SWAP3 SWAP2 SWAP1 PUSH2 0x20F5 JUMP JUMPDEST PUSH1 0x0 PUSH1 0x40 MLOAD DUP1 DUP4 SUB DUP2 PUSH1 0x0 DUP8 DUP1 EXTCODESIZE ISZERO DUP1 ISZERO PUSH2 0xB88 JUMPI PUSH1 0x0 DUP1 REVERT JUMPDEST POP GAS CALL ISZERO DUP1 ISZERO PUSH2 0xB9C JUMPI RETURNDATASIZE PUSH1 0x0 DUP1 RETURNDATACOPY RETURNDATASIZE PUSH1 0x0 REVERT JUMPDEST POP POP POP POP DUP3 PUSH1 0x7 PUSH1 0x0 DUP5 DUP2 MSTORE PUSH1 0x20 ADD SWAP1 DUP2 MSTORE PUSH1 0x20 ADD PUSH1 0x0 KECCAK256 PUSH1 0x0 PUSH2 0x100 EXP DUP2 SLOAD DUP2 PUSH20 0xFFFFFFFFFFFFFFFFFFFFFFFFFFFFFFFFFFFFFFFF MUL NOT AND SWAP1 DUP4 PUSH20 0xFFFFFFFFFFFFFFFFFFFFFFFFFFFFFFFFFFFFFFFF AND MUL OR SWAP1 SSTORE POP PUSH32 0x2A422DA7E70B3CA41064BE14C50B74A43CBBEF24634FA3B7E90D120B8ECC08B3 DUP4 DUP4 PUSH1 0x40 MLOAD PUSH2 0xC23 SWAP3 SWAP2 SWAP1 PUSH2 0x212C JUMP JUMPDEST PUSH1 0x40 MLOAD DUP1 SWAP2 SUB SWAP1 LOG1 POP POP POP JUMP JUMPDEST PUSH2 0xC38 PUSH2 0x1114 JUMP JUMPDEST PUSH2 0xC77 JUMPI PUSH1 0x40 MLOAD PUSH32 0x8C379A000000000000000000000000000000000000000000000000000000000 DUP2 MSTORE PUSH1 0x4 ADD PUSH2 0xC6E SWAP1 PUSH2 0x229C JUMP JUMPDEST PUSH1 0x40 MLOAD DUP1 SWAP2 SUB SWAP1 REVERT JUMPDEST PUSH1 0x0 PUSH20 0xFFFFFFFFFFFFFFFFFFFFFFFFFFFFFFFFFFFFFFFF AND PUSH1 0x0 DUP1 SLOAD SWAP1 PUSH2 0x100 EXP SWAP1 DIV PUSH20 0xFFFFFFFFFFFFFFFFFFFFFFFFFFFFFFFFFFFFFFFF AND PUSH20 0xFFFFFFFFFFFFFFFFFFFFFFFFFFFFFFFFFFFFFFFF AND PUSH32 0x8BE0079C531659141344CD1FD0A4F28419497F9722A3DAAFE3B4186F6B6457E0 PUSH1 0x40 MLOAD PUSH1 0x40 MLOAD DUP1 SWAP2 SUB SWAP1 LOG3 PUSH1 0x0 DUP1 PUSH1 0x0 PUSH2 0x100 EXP DUP2 SLOAD DUP2 PUSH20 0xFFFFFFFFFFFFFFFFFFFFFFFFFFFFFFFFFFFFFFFF MUL NOT AND SWAP1 DUP4 PUSH20 0xFFFFFFFFFFFFFFFFFFFFFFFFFFFFFFFFFFFFFFFF AND MUL OR SWAP1 SSTORE POP JUMP JUMPDEST PUSH1 0x0 PUSH1 0x14 SWAP1 SLOAD SWAP1 PUSH2 0x100 EXP SWAP1 DIV PUSH1 0xFF AND ISZERO PUSH2 0xD4F JUMPI PUSH1 0x0 DUP1 REVERT JUMPDEST PUSH1 0x0 PUSH1 0x8 PUSH1 0x0 DUP5 DUP2 MSTORE PUSH1 0x20 ADD SWAP1 DUP2 MSTORE PUSH1 0x20 ADD PUSH1 0x0 KECCAK256 SLOAD EQ PUSH2 0xDA5 JUMPI PUSH1 0x40 MLOAD PUSH32 0x8C379A000000000000000000000000000000000000000000000000000000000 DUP2 MSTORE PUSH1 0x4 ADD PUSH2 0xD9C SWAP1 PUSH2 0x21DC JUMP JUMPDEST PUSH1 0x40 MLOAD DUP1 SWAP2 SUB SWAP1 REVERT JUMPDEST PUSH1 0x0 CALLER SWAP1 POP DUP1 PUSH20 0xFFFFFFFFFFFFFFFFFFFFFFFFFFFFFFFFFFFFFFFF AND PUSH1 0x3 PUSH1 0x0 SWAP1 SLOAD SWAP1 PUSH2 0x100 EXP SWAP1 DIV PUSH20 0xFFFFFFFFFFFFFFFFFFFFFFFFFFFFFFFFFFFFFFFF AND PUSH20 0xFFFFFFFFFFFFFFFFFFFFFFFFFFFFFFFFFFFFFFFF AND PUSH4 0x6352211E DUP6 PUSH1 0x40 MLOAD DUP3 PUSH4 0xFFFFFFFF AND PUSH1 0xE0 SHL DUP2 MSTORE PUSH1 0x4 ADD PUSH2 0xE1C SWAP2 SWAP1 PUSH2 0x22DC JUMP JUMPDEST PUSH1 0x20 PUSH1 0x40 MLOAD DUP1 DUP4 SUB DUP2 DUP7 DUP1 EXTCODESIZE ISZERO DUP1 ISZERO PUSH2 0xE34 JUMPI PUSH1 0x0 DUP1 REVERT JUMPDEST POP GAS STATICCALL ISZERO DUP1 ISZERO PUSH2 0xE48 JUMPI RETURNDATASIZE PUSH1 0x0 DUP1 RETURNDATACOPY RETURNDATASIZE PUSH1 0x0 REVERT JUMPDEST POP POP POP POP PUSH1 0x40 MLOAD RETURNDATASIZE PUSH1 0x1F NOT PUSH1 0x1F DUP3 ADD AND DUP3 ADD DUP1 PUSH1 0x40 MSTORE POP DUP2 ADD SWAP1 PUSH2 0xE6C SWAP2 SWAP1 PUSH2 0x1D0B JUMP JUMPDEST PUSH20 0xFFFFFFFFFFFFFFFFFFFFFFFFFFFFFFFFFFFFFFFF AND EQ PUSH2 0xEC2 JUMPI PUSH1 0x40 MLOAD PUSH32 0x8C379A000000000000000000000000000000000000000000000000000000000 DUP2 MSTORE PUSH1 0x4 ADD PUSH2 0xEB9 SWAP1 PUSH2 0x21BC JUMP JUMPDEST PUSH1 0x40 MLOAD DUP1 SWAP2 SUB SWAP1 REVERT JUMPDEST PUSH1 0x3 PUSH1 0x0 SWAP1 SLOAD SWAP1 PUSH2 0x100 EXP SWAP1 DIV PUSH20 0xFFFFFFFFFFFFFFFFFFFFFFFFFFFFFFFFFFFFFFFF AND PUSH20 0xFFFFFFFFFFFFFFFFFFFFFFFFFFFFFFFFFFFFFFFF AND PUSH4 0xE985E9C5 DUP3 ADDRESS PUSH1 0x40 MLOAD DUP4 PUSH4 0xFFFFFFFF AND PUSH1 0xE0 SHL DUP2 MSTORE PUSH1 0x4 ADD PUSH2 0xF1F SWAP3 SWAP2 SWAP1 PUSH2 0x20CC JUMP JUMPDEST PUSH1 0x20 PUSH1 0x40 MLOAD DUP1 DUP4 SUB DUP2 DUP7 DUP1 EXTCODESIZE ISZERO DUP1 ISZERO PUSH2 0xF37 JUMPI PUSH1 0x0 DUP1 REVERT JUMPDEST POP GAS STATICCALL ISZERO DUP1 ISZERO PUSH2 0xF4B JUMPI RETURNDATASIZE PUSH1 0x0 DUP1 RETURNDATACOPY RETURNDATASIZE PUSH1 0x0 REVERT JUMPDEST POP POP POP POP PUSH1 0x40 MLOAD RETURNDATASIZE PUSH1 0x1F NOT PUSH1 0x1F DUP3 ADD AND DUP3 ADD DUP1 PUSH1 0x40 MSTORE POP DUP2 ADD SWAP1 PUSH2 0xF6F SWAP2 SWAP1 PUSH2 0x1D78 JUMP JUMPDEST PUSH2 0xFAE JUMPI PUSH1 0x40 MLOAD PUSH32 0x8C379A000000000000000000000000000000000000000000000000000000000 DUP2 MSTORE PUSH1 0x4 ADD PUSH2 0xFA5 SWAP1 PUSH2 0x225C JUMP JUMPDEST PUSH1 0x40 MLOAD DUP1 SWAP2 SUB SWAP1 REVERT JUMPDEST PUSH1 0x0 DUP3 GT PUSH2 0xFF1 JUMPI PUSH1 0x40 MLOAD PUSH32 0x8C379A000000000000000000000000000000000000000000000000000000000 DUP2 MSTORE PUSH1 0x4 ADD PUSH2 0xFE8 SWAP1 PUSH2 0x223C JUMP JUMPDEST PUSH1 0x40 MLOAD DUP1 SWAP2 SUB SWAP1 REVERT JUMPDEST PUSH2 0xFFC DUP4 DUP4 DUP4 PUSH2 0x1973 JUMP JUMPDEST PUSH32 0x55BB046A6E950AF74FCDAAA97A1A82C49209D72A5FCDA0925A019DFBA29C8F72 DUP4 DUP4 PUSH1 0x40 MLOAD PUSH2 0x102D SWAP3 SWAP2 SWAP1 PUSH2 0x22F7 JUMP JUMPDEST PUSH1 0x40 MLOAD DUP1 SWAP2 SUB SWAP1 LOG1 POP POP POP JUMP JUMPDEST PUSH1 0x0 PUSH2 0x1044 PUSH2 0x1114 JUMP JUMPDEST PUSH2 0x1083 JUMPI PUSH1 0x40 MLOAD PUSH32 0x8C379A000000000000000000000000000000000000000000000000000000000 DUP2 MSTORE PUSH1 0x4 ADD PUSH2 0x107A SWAP1 PUSH2 0x229C JUMP JUMPDEST PUSH1 0x40 MLOAD DUP1 SWAP2 SUB SWAP1 REVERT JUMPDEST PUSH1 0x0 PUSH1 0x14 SWAP1 SLOAD SWAP1 PUSH2 0x100 EXP SWAP1 DIV PUSH1 0xFF AND ISZERO PUSH2 0x109D JUMPI PUSH1 0x0 DUP1 REVERT JUMPDEST PUSH1 0x1 PUSH1 0x0 PUSH1 0x14 PUSH2 0x100 EXP DUP2 SLOAD DUP2 PUSH1 0xFF MUL NOT AND SWAP1 DUP4 ISZERO ISZERO MUL OR SWAP1 SSTORE POP PUSH32 0x6985A02210A168E66602D3235CB6DB0E70F92B3BA4D376A33C0F3D9434BFF625 PUSH1 0x40 MLOAD PUSH1 0x40 MLOAD DUP1 SWAP2 SUB SWAP1 LOG1 PUSH1 0x1 SWAP1 POP SWAP1 JUMP JUMPDEST PUSH1 0x0 DUP1 PUSH1 0x0 SWAP1 SLOAD SWAP1 PUSH2 0x100 EXP SWAP1 DIV PUSH20 0xFFFFFFFFFFFFFFFFFFFFFFFFFFFFFFFFFFFFFFFF AND SWAP1 POP SWAP1 JUMP JUMPDEST PUSH1 0x0 DUP1 PUSH1 0x0 SWAP1 SLOAD SWAP1 PUSH2 0x100 EXP SWAP1 DIV PUSH20 0xFFFFFFFFFFFFFFFFFFFFFFFFFFFFFFFFFFFFFFFF AND PUSH20 0xFFFFFFFFFFFFFFFFFFFFFFFFFFFFFFFFFFFFFFFF AND PUSH2 0x1156 PUSH2 0x1B40 JUMP JUMPDEST PUSH20 0xFFFFFFFFFFFFFFFFFFFFFFFFFFFFFFFFFFFFFFFF AND EQ SWAP1 POP SWAP1 JUMP JUMPDEST PUSH1 0x60 DUP1 PUSH1 0x60 PUSH1 0x0 PUSH1 0xA DUP1 SLOAD SWAP1 POP SWAP1 POP PUSH1 0x0 DUP2 PUSH8 0xFFFFFFFFFFFFFFFF DUP2 GT ISZERO PUSH2 0x119D JUMPI PUSH2 0x119C PUSH2 0x262F JUMP JUMPDEST JUMPDEST PUSH1 0x40 MLOAD SWAP1 DUP1 DUP3 MSTORE DUP1 PUSH1 0x20 MUL PUSH1 0x20 ADD DUP3 ADD PUSH1 0x40 MSTORE DUP1 ISZERO PUSH2 0x11CB JUMPI DUP2 PUSH1 0x20 ADD PUSH1 0x20 DUP3 MUL DUP1 CALLDATASIZE DUP4 CALLDATACOPY DUP1 DUP3 ADD SWAP2 POP POP SWAP1 POP JUMPDEST POP SWAP1 POP PUSH1 0x0 DUP3 PUSH8 0xFFFFFFFFFFFFFFFF DUP2 GT ISZERO PUSH2 0x11EA JUMPI PUSH2 0x11E9 PUSH2 0x262F JUMP JUMPDEST JUMPDEST PUSH1 0x40 MLOAD SWAP1 DUP1 DUP3 MSTORE DUP1 PUSH1 0x20 MUL PUSH1 0x20 ADD DUP3 ADD PUSH1 0x40 MSTORE DUP1 ISZERO PUSH2 0x1218 JUMPI DUP2 PUSH1 0x20 ADD PUSH1 0x20 DUP3 MUL DUP1 CALLDATASIZE DUP4 CALLDATACOPY DUP1 DUP3 ADD SWAP2 POP POP SWAP1 POP JUMPDEST POP SWAP1 POP PUSH1 0x0 JUMPDEST DUP4 DUP2 LT ISZERO PUSH2 0x1329 JUMPI PUSH1 0x8 PUSH1 0x0 PUSH1 0xA DUP4 DUP2 SLOAD DUP2 LT PUSH2 0x123E JUMPI PUSH2 0x123D PUSH2 0x2600 JUMP JUMPDEST JUMPDEST SWAP1 PUSH1 0x0 MSTORE PUSH1 0x20 PUSH1 0x0 KECCAK256 ADD SLOAD DUP2 MSTORE PUSH1 0x20 ADD SWAP1 DUP2 MSTORE PUSH1 0x20 ADD PUSH1 0x0 KECCAK256 SLOAD DUP4 DUP3 DUP2 MLOAD DUP2 LT PUSH2 0x126B JUMPI PUSH2 0x126A PUSH2 0x2600 JUMP JUMPDEST JUMPDEST PUSH1 0x20 MUL PUSH1 0x20 ADD ADD DUP2 DUP2 MSTORE POP POP PUSH1 0x9 PUSH1 0x0 PUSH1 0xA DUP4 DUP2 SLOAD DUP2 LT PUSH2 0x128F JUMPI PUSH2 0x128E PUSH2 0x2600 JUMP JUMPDEST JUMPDEST SWAP1 PUSH1 0x0 MSTORE PUSH1 0x20 PUSH1 0x0 KECCAK256 ADD SLOAD DUP2 MSTORE PUSH1 0x20 ADD SWAP1 DUP2 MSTORE PUSH1 0x20 ADD PUSH1 0x0 KECCAK256 PUSH1 0x0 SWAP1 SLOAD SWAP1 PUSH2 0x100 EXP SWAP1 DIV PUSH20 0xFFFFFFFFFFFFFFFFFFFFFFFFFFFFFFFFFFFFFFFF AND DUP3 DUP3 DUP2 MLOAD DUP2 LT PUSH2 0x12DC JUMPI PUSH2 0x12DB PUSH2 0x2600 JUMP JUMPDEST JUMPDEST PUSH1 0x20 MUL PUSH1 0x20 ADD ADD SWAP1 PUSH20 0xFFFFFFFFFFFFFFFFFFFFFFFFFFFFFFFFFFFFFFFF AND SWAP1 DUP2 PUSH20 0xFFFFFFFFFFFFFFFFFFFFFFFFFFFFFFFFFFFFFFFF AND DUP2 MSTORE POP POP DUP1 DUP1 PUSH2 0x1321 SWAP1 PUSH2 0x252A JUMP JUMPDEST SWAP2 POP POP PUSH2 0x121E JUMP JUMPDEST POP PUSH1 0xA DUP2 DUP4 DUP3 DUP1 SLOAD DUP1 PUSH1 0x20 MUL PUSH1 0x20 ADD PUSH1 0x40 MLOAD SWAP1 DUP2 ADD PUSH1 0x40 MSTORE DUP1 SWAP3 SWAP2 SWAP1 DUP2 DUP2 MSTORE PUSH1 0x20 ADD DUP3 DUP1 SLOAD DUP1 ISZERO PUSH2 0x1379 JUMPI PUSH1 0x20 MUL DUP3 ADD SWAP2 SWAP1 PUSH1 0x0 MSTORE PUSH1 0x20 PUSH1 0x0 KECCAK256 SWAP1 JUMPDEST DUP2 SLOAD DUP2 MSTORE PUSH1 0x20 ADD SWAP1 PUSH1 0x1 ADD SWAP1 DUP1 DUP4 GT PUSH2 0x1365 JUMPI JUMPDEST POP POP POP POP POP SWAP3 POP SWAP6 POP SWAP6 POP SWAP6 POP POP POP POP SWAP1 SWAP2 SWAP3 JUMP JUMPDEST PUSH2 0x1396 PUSH2 0x1114 JUMP JUMPDEST PUSH2 0x13D5 JUMPI PUSH1 0x40 MLOAD PUSH32 0x8C379A000000000000000000000000000000000000000000000000000000000 DUP2 MSTORE PUSH1 0x4 ADD PUSH2 0x13CC SWAP1 PUSH2 0x229C JUMP JUMPDEST PUSH1 0x40 MLOAD DUP1 SWAP2 SUB SWAP1 REVERT JUMPDEST DUP1 PUSH1 0x2 PUSH1 0x0 PUSH2 0x100 EXP DUP2 SLOAD DUP2 PUSH20 0xFFFFFFFFFFFFFFFFFFFFFFFFFFFFFFFFFFFFFFFF MUL NOT AND SWAP1 DUP4 PUSH20 0xFFFFFFFFFFFFFFFFFFFFFFFFFFFFFFFFFFFFFFFF AND MUL OR SWAP1 SSTORE POP PUSH32 0xACDD85D235B5B49226C2C4F2B72CB01FA1CC3AE64BB843A6DEF27788D05B1B60 PUSH1 0x2 PUSH1 0x0 SWAP1 SLOAD SWAP1 PUSH2 0x100 EXP SWAP1 DIV PUSH20 0xFFFFFFFFFFFFFFFFFFFFFFFFFFFFFFFFFFFFFFFF AND PUSH1 0x40 MLOAD PUSH2 0x1467 SWAP2 SWAP1 PUSH2 0x20B1 JUMP JUMPDEST PUSH1 0x40 MLOAD DUP1 SWAP2 SUB SWAP1 LOG1 POP JUMP JUMPDEST PUSH1 0x4 PUSH1 0x0 SWAP1 SLOAD SWAP1 PUSH2 0x100 EXP SWAP1 DIV PUSH20 0xFFFFFFFFFFFFFFFFFFFFFFFFFFFFFFFFFFFFFFFF AND DUP2 JUMP JUMPDEST PUSH1 0x6 SLOAD DUP2 JUMP JUMPDEST PUSH1 0x3 PUSH1 0x0 SWAP1 SLOAD SWAP1 PUSH2 0x100 EXP SWAP1 DIV PUSH20 0xFFFFFFFFFFFFFFFFFFFFFFFFFFFFFFFFFFFFFFFF AND DUP2 JUMP JUMPDEST PUSH2 0x14CC PUSH2 0x1114 JUMP JUMPDEST PUSH2 0x150B JUMPI PUSH1 0x40 MLOAD PUSH32 0x8C379A000000000000000000000000000000000000000000000000000000000 DUP2 MSTORE PUSH1 0x4 ADD PUSH2 0x1502 SWAP1 PUSH2 0x229C JUMP JUMPDEST PUSH1 0x40 MLOAD DUP1 SWAP2 SUB SWAP1 REVERT JUMPDEST DUP1 PUSH1 0x6 DUP2 SWAP1 SSTORE POP PUSH32 0x4D8E30FF458BEBDD848488669E63D632954487CA1BC64C28F3C920F74A5F8594 PUSH1 0x6 SLOAD PUSH1 0x40 MLOAD PUSH2 0x1543 SWAP2 SWAP1 PUSH2 0x22DC JUMP JUMPDEST PUSH1 0x40 MLOAD DUP1 SWAP2 SUB SWAP1 LOG1 POP JUMP JUMPDEST PUSH1 0x0 DUP1 PUSH1 0x5 PUSH1 0x0 SWAP1 SLOAD SWAP1 PUSH2 0x100 EXP SWAP1 DIV PUSH20 0xFFFFFFFFFFFFFFFFFFFFFFFFFFFFFFFFFFFFFFFF AND PUSH20 0xFFFFFFFFFFFFFFFFFFFFFFFFFFFFFFFFFFFFFFFF AND PUSH4 0x70A08231 PUSH1 0x2 PUSH1 0x0 SWAP1 SLOAD SWAP1 PUSH2 0x100 EXP SWAP1 DIV PUSH20 0xFFFFFFFFFFFFFFFFFFFFFFFFFFFFFFFFFFFFFFFF AND PUSH1 0x40 MLOAD DUP3 PUSH4 0xFFFFFFFF AND PUSH1 0xE0 SHL DUP2 MSTORE PUSH1 0x4 ADD PUSH2 0x15CE SWAP2 SWAP1 PUSH2 0x20B1 JUMP JUMPDEST PUSH1 0x20 PUSH1 0x40 MLOAD DUP1 DUP4 SUB DUP2 DUP7 DUP1 EXTCODESIZE ISZERO DUP1 ISZERO PUSH2 0x15E6 JUMPI PUSH1 0x0 DUP1 REVERT JUMPDEST POP GAS STATICCALL ISZERO DUP1 ISZERO PUSH2 0x15FA JUMPI RETURNDATASIZE PUSH1 0x0 DUP1 RETURNDATACOPY RETURNDATASIZE PUSH1 0x0 REVERT JUMPDEST POP POP POP POP PUSH1 0x40 MLOAD RETURNDATASIZE PUSH1 0x1F NOT PUSH1 0x1F DUP3 ADD AND DUP3 ADD DUP1 PUSH1 0x40 MSTORE POP DUP2 ADD SWAP1 PUSH2 0x161E SWAP2 SWAP1 PUSH2 0x1DD2 JUMP JUMPDEST SWAP1 POP PUSH1 0x0 PUSH1 0x4 PUSH1 0x0 SWAP1 SLOAD SWAP1 PUSH2 0x100 EXP SWAP1 DIV PUSH20 0xFFFFFFFFFFFFFFFFFFFFFFFFFFFFFFFFFFFFFFFF AND PUSH20 0xFFFFFFFFFFFFFFFFFFFFFFFFFFFFFFFFFFFFFFFF AND PUSH4 0x70A08231 PUSH1 0x2 PUSH1 0x0 SWAP1 SLOAD SWAP1 PUSH2 0x100 EXP SWAP1 DIV PUSH20 0xFFFFFFFFFFFFFFFFFFFFFFFFFFFFFFFFFFFFFFFF AND PUSH1 0x40 MLOAD DUP3 PUSH4 0xFFFFFFFF AND PUSH1 0xE0 SHL DUP2 MSTORE PUSH1 0x4 ADD PUSH2 0x169F SWAP2 SWAP1 PUSH2 0x20B1 JUMP JUMPDEST PUSH1 0x20 PUSH1 0x40 MLOAD DUP1 DUP4 SUB DUP2 DUP7 DUP1 EXTCODESIZE ISZERO DUP1 ISZERO PUSH2 0x16B7 JUMPI PUSH1 0x0 DUP1 REVERT JUMPDEST POP GAS STATICCALL ISZERO DUP1 ISZERO PUSH2 0x16CB JUMPI RETURNDATASIZE PUSH1 0x0 DUP1 RETURNDATACOPY RETURNDATASIZE PUSH1 0x0 REVERT JUMPDEST POP POP POP POP PUSH1 0x40 MLOAD RETURNDATASIZE PUSH1 0x1F NOT PUSH1 0x1F DUP3 ADD AND DUP3 ADD DUP1 PUSH1 0x40 MSTORE POP DUP2 ADD SWAP1 PUSH2 0x16EF SWAP2 SWAP1 PUSH2 0x1DD2 JUMP JUMPDEST SWAP1 POP PUSH1 0x0 DUP3 DUP3 PUSH2 0x16FF SWAP2 SWAP1 PUSH2 0x23F9 JUMP JUMPDEST SWAP1 POP PUSH1 0x0 PUSH1 0xA PUSH1 0x6 SLOAD DUP4 PUSH2 0x1713 SWAP2 SWAP1 PUSH2 0x242A JUMP JUMPDEST PUSH2 0x171D SWAP2 SWAP1 PUSH2 0x23F9 JUMP JUMPDEST SWAP1 POP DUP1 SWAP5 POP POP POP POP POP SWAP1 JUMP JUMPDEST PUSH2 0x1731 PUSH2 0x1114 JUMP JUMPDEST PUSH2 0x1770 JUMPI PUSH1 0x40 MLOAD PUSH32 0x8C379A000000000000000000000000000000000000000000000000000000000 DUP2 MSTORE PUSH1 0x4 ADD PUSH2 0x1767 SWAP1 PUSH2 0x229C JUMP JUMPDEST PUSH1 0x40 MLOAD DUP1 SWAP2 SUB SWAP1 REVERT JUMPDEST DUP1 PUSH1 0x1 PUSH1 0x0 PUSH2 0x100 EXP DUP2 SLOAD DUP2 PUSH20 0xFFFFFFFFFFFFFFFFFFFFFFFFFFFFFFFFFFFFFFFF MUL NOT AND SWAP1 DUP4 PUSH20 0xFFFFFFFFFFFFFFFFFFFFFFFFFFFFFFFFFFFFFFFF AND MUL OR SWAP1 SSTORE POP PUSH32 0xB14F2A39BB21FDA32827BBDB4BE629C94036E10A3F6055A6454F884CA1B33FA1 PUSH1 0x1 PUSH1 0x0 SWAP1 SLOAD SWAP1 PUSH2 0x100 EXP SWAP1 DIV PUSH20 0xFFFFFFFFFFFFFFFFFFFFFFFFFFFFFFFFFFFFFFFF AND PUSH1 0x40 MLOAD PUSH2 0x1802 SWAP2 SWAP1 PUSH2 0x20B1 JUMP JUMPDEST PUSH1 0x40 MLOAD DUP1 SWAP2 SUB SWAP1 LOG1 POP JUMP JUMPDEST PUSH2 0x1815 PUSH2 0x1114 JUMP JUMPDEST PUSH2 0x1854 JUMPI PUSH1 0x40 MLOAD PUSH32 0x8C379A000000000000000000000000000000000000000000000000000000000 DUP2 MSTORE PUSH1 0x4 ADD PUSH2 0x184B SWAP1 PUSH2 0x229C JUMP JUMPDEST PUSH1 0x40 MLOAD DUP1 SWAP2 SUB SWAP1 REVERT JUMPDEST PUSH2 0x185D DUP2 PUSH2 0x1B48 JUMP JUMPDEST POP JUMP JUMPDEST PUSH1 0x8 PUSH1 0x0 DUP3 DUP2 MSTORE PUSH1 0x20 ADD SWAP1 DUP2 MSTORE PUSH1 0x20 ADD PUSH1 0x0 KECCAK256 PUSH1 0x0 SWAP1 SSTORE PUSH1 0x0 JUMPDEST PUSH1 0xA DUP1 SLOAD SWAP1 POP DUP2 LT ISZERO PUSH2 0x196E JUMPI DUP2 PUSH1 0xA DUP3 DUP2 SLOAD DUP2 LT PUSH2 0x189C JUMPI PUSH2 0x189B PUSH2 0x2600 JUMP JUMPDEST JUMPDEST SWAP1 PUSH1 0x0 MSTORE PUSH1 0x20 PUSH1 0x0 KECCAK256 ADD SLOAD EQ ISZERO PUSH2 0x195B JUMPI PUSH1 0x0 DUP2 SWAP1 POP JUMPDEST PUSH1 0x1 PUSH1 0xA DUP1 SLOAD SWAP1 POP PUSH2 0x18C5 SWAP2 SWAP1 PUSH2 0x2484 JUMP JUMPDEST DUP2 LT ISZERO PUSH2 0x192C JUMPI PUSH1 0xA PUSH1 0x1 DUP3 PUSH2 0x18DB SWAP2 SWAP1 PUSH2 0x23A3 JUMP JUMPDEST DUP2 SLOAD DUP2 LT PUSH2 0x18EC JUMPI PUSH2 0x18EB PUSH2 0x2600 JUMP JUMPDEST JUMPDEST SWAP1 PUSH1 0x0 MSTORE PUSH1 0x20 PUSH1 0x0 KECCAK256 ADD SLOAD PUSH1 0xA DUP3 DUP2 SLOAD DUP2 LT PUSH2 0x190B JUMPI PUSH2 0x190A PUSH2 0x2600 JUMP JUMPDEST JUMPDEST SWAP1 PUSH1 0x0 MSTORE PUSH1 0x20 PUSH1 0x0 KECCAK256 ADD DUP2 SWAP1 SSTORE POP DUP1 DUP1 PUSH2 0x1924 SWAP1 PUSH2 0x252A JUMP JUMPDEST SWAP2 POP POP PUSH2 0x18B3 JUMP JUMPDEST POP PUSH1 0xA DUP1 SLOAD DUP1 PUSH2 0x193F JUMPI PUSH2 0x193E PUSH2 0x25D1 JUMP JUMPDEST JUMPDEST PUSH1 0x1 SWAP1 SUB DUP2 DUP2 SWAP1 PUSH1 0x0 MSTORE PUSH1 0x20 PUSH1 0x0 KECCAK256 ADD PUSH1 0x0 SWAP1 SSTORE SWAP1 SSTORE POP PUSH2 0x1970 JUMP JUMPDEST DUP1 DUP1 PUSH2 0x1966 SWAP1 PUSH2 0x252A JUMP JUMPDEST SWAP2 POP POP PUSH2 0x187A JUMP JUMPDEST POP JUMPDEST POP JUMP JUMPDEST DUP2 PUSH1 0x8 PUSH1 0x0 DUP6 DUP2 MSTORE PUSH1 0x20 ADD SWAP1 DUP2 MSTORE PUSH1 0x20 ADD PUSH1 0x0 KECCAK256 DUP2 SWAP1 SSTORE POP DUP1 PUSH1 0x9 PUSH1 0x0 DUP6 DUP2 MSTORE PUSH1 0x20 ADD SWAP1 DUP2 MSTORE PUSH1 0x20 ADD PUSH1 0x0 KECCAK256 PUSH1 0x0 PUSH2 0x100 EXP DUP2 SLOAD DUP2 PUSH20 0xFFFFFFFFFFFFFFFFFFFFFFFFFFFFFFFFFFFFFFFF MUL NOT AND SWAP1 DUP4 PUSH20 0xFFFFFFFFFFFFFFFFFFFFFFFFFFFFFFFFFFFFFFFF AND MUL OR SWAP1 SSTORE POP PUSH1 0xA DUP4 SWAP1 DUP1 PUSH1 0x1 DUP2 SLOAD ADD DUP1 DUP3 SSTORE DUP1 SWAP2 POP POP PUSH1 0x1 SWAP1 SUB SWAP1 PUSH1 0x0 MSTORE PUSH1 0x20 PUSH1 0x0 KECCAK256 ADD PUSH1 0x0 SWAP1 SWAP2 SWAP1 SWAP2 SWAP1 SWAP2 POP SSTORE PUSH1 0x2 PUSH1 0xA DUP1 SLOAD SWAP1 POP LT PUSH2 0x1B3A JUMPI PUSH1 0x0 PUSH1 0x2 PUSH1 0xA DUP1 SLOAD SWAP1 POP PUSH2 0x1A27 SWAP2 SWAP1 PUSH2 0x2484 JUMP JUMPDEST SWAP1 POP JUMPDEST PUSH1 0x0 DUP2 LT PUSH2 0x1B38 JUMPI DUP3 PUSH1 0x8 PUSH1 0x0 PUSH1 0xA DUP5 DUP2 SLOAD DUP2 LT PUSH2 0x1A4B JUMPI PUSH2 0x1A4A PUSH2 0x2600 JUMP JUMPDEST JUMPDEST SWAP1 PUSH1 0x0 MSTORE PUSH1 0x20 PUSH1 0x0 KECCAK256 ADD SLOAD DUP2 MSTORE PUSH1 0x20 ADD SWAP1 DUP2 MSTORE PUSH1 0x20 ADD PUSH1 0x0 KECCAK256 SLOAD GT ISZERO PUSH2 0x1AF0 JUMPI PUSH1 0xA DUP2 DUP2 SLOAD DUP2 LT PUSH2 0x1A7F JUMPI PUSH2 0x1A7E PUSH2 0x2600 JUMP JUMPDEST JUMPDEST SWAP1 PUSH1 0x0 MSTORE PUSH1 0x20 PUSH1 0x0 KECCAK256 ADD SLOAD PUSH1 0xA PUSH1 0x1 DUP4 PUSH2 0x1A99 SWAP2 SWAP1 PUSH2 0x23A3 JUMP JUMPDEST DUP2 SLOAD DUP2 LT PUSH2 0x1AAA JUMPI PUSH2 0x1AA9 PUSH2 0x2600 JUMP JUMPDEST JUMPDEST SWAP1 PUSH1 0x0 MSTORE PUSH1 0x20 PUSH1 0x0 KECCAK256 ADD DUP2 SWAP1 SSTORE POP PUSH1 0x0 DUP2 EQ ISZERO PUSH2 0x1AEB JUMPI DUP4 PUSH1 0xA PUSH1 0x0 DUP2 SLOAD DUP2 LT PUSH2 0x1AD7 JUMPI PUSH2 0x1AD6 PUSH2 0x2600 JUMP JUMPDEST JUMPDEST SWAP1 PUSH1 0x0 MSTORE PUSH1 0x20 PUSH1 0x0 KECCAK256 ADD DUP2 SWAP1 SSTORE POP POP PUSH2 0x1B3B JUMP JUMPDEST PUSH2 0x1B25 JUMP JUMPDEST DUP4 PUSH1 0xA PUSH1 0x1 DUP4 PUSH2 0x1B00 SWAP2 SWAP1 PUSH2 0x23A3 JUMP JUMPDEST DUP2 SLOAD DUP2 LT PUSH2 0x1B11 JUMPI PUSH2 0x1B10 PUSH2 0x2600 JUMP JUMPDEST JUMPDEST SWAP1 PUSH1 0x0 MSTORE PUSH1 0x20 PUSH1 0x0 KECCAK256 ADD DUP2 SWAP1 SSTORE POP POP PUSH2 0x1B3B JUMP JUMPDEST DUP1 DUP1 PUSH2 0x1B30 SWAP1 PUSH2 0x2500 JUMP JUMPDEST SWAP2 POP POP PUSH2 0x1A2A JUMP JUMPDEST POP JUMPDEST JUMPDEST POP POP POP JUMP JUMPDEST PUSH1 0x0 CALLER SWAP1 POP SWAP1 JUMP JUMPDEST PUSH1 0x0 PUSH20 0xFFFFFFFFFFFFFFFFFFFFFFFFFFFFFFFFFFFFFFFF AND DUP2 PUSH20 0xFFFFFFFFFFFFFFFFFFFFFFFFFFFFFFFFFFFFFFFF AND EQ ISZERO PUSH2 0x1BB8 JUMPI PUSH1 0x40 MLOAD PUSH32 0x8C379A000000000000000000000000000000000000000000000000000000000 DUP2 MSTORE PUSH1 0x4 ADD PUSH2 0x1BAF SWAP1 PUSH2 0x21FC JUMP JUMPDEST PUSH1 0x40 MLOAD DUP1 SWAP2 SUB SWAP1 REVERT JUMPDEST DUP1 PUSH20 0xFFFFFFFFFFFFFFFFFFFFFFFFFFFFFFFFFFFFFFFF AND PUSH1 0x0 DUP1 SLOAD SWAP1 PUSH2 0x100 EXP SWAP1 DIV PUSH20 0xFFFFFFFFFFFFFFFFFFFFFFFFFFFFFFFFFFFFFFFF AND PUSH20 0xFFFFFFFFFFFFFFFFFFFFFFFFFFFFFFFFFFFFFFFF AND PUSH32 0x8BE0079C531659141344CD1FD0A4F28419497F9722A3DAAFE3B4186F6B6457E0 PUSH1 0x40 MLOAD PUSH1 0x40 MLOAD DUP1 SWAP2 SUB SWAP1 LOG3 DUP1 PUSH1 0x0 DUP1 PUSH2 0x100 EXP DUP2 SLOAD DUP2 PUSH20 0xFFFFFFFFFFFFFFFFFFFFFFFFFFFFFFFFFFFFFFFF MUL NOT AND SWAP1 DUP4 PUSH20 0xFFFFFFFFFFFFFFFFFFFFFFFFFFFFFFFFFFFFFFFF AND MUL OR SWAP1 SSTORE POP POP JUMP JUMPDEST PUSH1 0x0 DUP2 CALLDATALOAD SWAP1 POP PUSH2 0x1C84 DUP2 PUSH2 0x2820 JUMP JUMPDEST SWAP3 SWAP2 POP POP JUMP JUMPDEST PUSH1 0x0 DUP2 MLOAD SWAP1 POP PUSH2 0x1C99 DUP2 PUSH2 0x2820 JUMP JUMPDEST SWAP3 SWAP2 POP POP JUMP JUMPDEST PUSH1 0x0 DUP2 MLOAD SWAP1 POP PUSH2 0x1CAE DUP2 PUSH2 0x2837 JUMP JUMPDEST SWAP3 SWAP2 POP POP JUMP JUMPDEST PUSH1 0x0 DUP2 CALLDATALOAD SWAP1 POP PUSH2 0x1CC3 DUP2 PUSH2 0x284E JUMP JUMPDEST SWAP3 SWAP2 POP POP JUMP JUMPDEST PUSH1 0x0 DUP2 MLOAD SWAP1 POP PUSH2 0x1CD8 DUP2 PUSH2 0x284E JUMP JUMPDEST SWAP3 SWAP2 POP POP JUMP JUMPDEST PUSH1 0x0 PUSH1 0x20 DUP3 DUP5 SUB SLT ISZERO PUSH2 0x1CF4 JUMPI PUSH2 0x1CF3 PUSH2 0x265E JUMP JUMPDEST JUMPDEST PUSH1 0x0 PUSH2 0x1D02 DUP5 DUP3 DUP6 ADD PUSH2 0x1C75 JUMP JUMPDEST SWAP2 POP POP SWAP3 SWAP2 POP POP JUMP JUMPDEST PUSH1 0x0 PUSH1 0x20 DUP3 DUP5 SUB SLT ISZERO PUSH2 0x1D21 JUMPI PUSH2 0x1D20 PUSH2 0x265E JUMP JUMPDEST JUMPDEST PUSH1 0x0 PUSH2 0x1D2F DUP5 DUP3 DUP6 ADD PUSH2 0x1C8A JUMP JUMPDEST SWAP2 POP POP SWAP3 SWAP2 POP POP JUMP JUMPDEST PUSH1 0x0 DUP1 PUSH1 0x40 DUP4 DUP6 SUB SLT ISZERO PUSH2 0x1D4F JUMPI PUSH2 0x1D4E PUSH2 0x265E JUMP JUMPDEST JUMPDEST PUSH1 0x0 PUSH2 0x1D5D DUP6 DUP3 DUP7 ADD PUSH2 0x1C75 JUMP JUMPDEST SWAP3 POP POP PUSH1 0x20 PUSH2 0x1D6E DUP6 DUP3 DUP7 ADD PUSH2 0x1CB4 JUMP JUMPDEST SWAP2 POP POP SWAP3 POP SWAP3 SWAP1 POP JUMP JUMPDEST PUSH1 0x0 PUSH1 0x20 DUP3 DUP5 SUB SLT ISZERO PUSH2 0x1D8E JUMPI PUSH2 0x1D8D PUSH2 0x265E JUMP JUMPDEST JUMPDEST PUSH1 0x0 PUSH2 0x1D9C DUP5 DUP3 DUP6 ADD PUSH2 0x1C9F JUMP JUMPDEST SWAP2 POP POP SWAP3 SWAP2 POP POP JUMP JUMPDEST PUSH1 0x0 PUSH1 0x20 DUP3 DUP5 SUB SLT ISZERO PUSH2 0x1DBB JUMPI PUSH2 0x1DBA PUSH2 0x265E JUMP JUMPDEST JUMPDEST PUSH1 0x0 PUSH2 0x1DC9 DUP5 DUP3 DUP6 ADD PUSH2 0x1CB4 JUMP JUMPDEST SWAP2 POP POP SWAP3 SWAP2 POP POP JUMP JUMPDEST PUSH1 0x0 PUSH1 0x20 DUP3 DUP5 SUB SLT ISZERO PUSH2 0x1DE8 JUMPI PUSH2 0x1DE7 PUSH2 0x265E JUMP JUMPDEST JUMPDEST PUSH1 0x0 PUSH2 0x1DF6 DUP5 DUP3 DUP6 ADD PUSH2 0x1CC9 JUMP JUMPDEST SWAP2 POP POP SWAP3 SWAP2 POP POP JUMP JUMPDEST PUSH1 0x0 DUP1 PUSH1 0x40 DUP4 DUP6 SUB SLT ISZERO PUSH2 0x1E16 JUMPI PUSH2 0x1E15 PUSH2 0x265E JUMP JUMPDEST JUMPDEST PUSH1 0x0 PUSH2 0x1E24 DUP6 DUP3 DUP7 ADD PUSH2 0x1CB4 JUMP JUMPDEST SWAP3 POP POP PUSH1 0x20 PUSH2 0x1E35 DUP6 DUP3 DUP7 ADD PUSH2 0x1CB4 JUMP JUMPDEST SWAP2 POP POP SWAP3 POP SWAP3 SWAP1 POP JUMP JUMPDEST PUSH1 0x0 PUSH2 0x1E4B DUP4 DUP4 PUSH2 0x1E6F JUMP JUMPDEST PUSH1 0x20 DUP4 ADD SWAP1 POP SWAP3 SWAP2 POP POP JUMP JUMPDEST PUSH1 0x0 PUSH2 0x1E63 DUP4 DUP4 PUSH2 0x2093 JUMP JUMPDEST PUSH1 0x20 DUP4 ADD SWAP1 POP SWAP3 SWAP2 POP POP JUMP JUMPDEST PUSH2 0x1E78 DUP2 PUSH2 0x24B8 JUMP JUMPDEST DUP3 MSTORE POP POP JUMP JUMPDEST PUSH2 0x1E87 DUP2 PUSH2 0x24B8 JUMP JUMPDEST DUP3 MSTORE POP POP JUMP JUMPDEST PUSH1 0x0 PUSH2 0x1E98 DUP3 PUSH2 0x2340 JUMP JUMPDEST PUSH2 0x1EA2 DUP2 DUP6 PUSH2 0x2370 JUMP JUMPDEST SWAP4 POP PUSH2 0x1EAD DUP4 PUSH2 0x2320 JUMP JUMPDEST DUP1 PUSH1 0x0 JUMPDEST DUP4 DUP2 LT ISZERO PUSH2 0x1EDE JUMPI DUP2 MLOAD PUSH2 0x1EC5 DUP9 DUP3 PUSH2 0x1E3F JUMP JUMPDEST SWAP8 POP PUSH2 0x1ED0 DUP4 PUSH2 0x2356 JUMP JUMPDEST SWAP3 POP POP PUSH1 0x1 DUP2 ADD SWAP1 POP PUSH2 0x1EB1 JUMP JUMPDEST POP DUP6 SWAP4 POP POP POP POP SWAP3 SWAP2 POP POP JUMP JUMPDEST PUSH1 0x0 PUSH2 0x1EF6 DUP3 PUSH2 0x234B JUMP JUMPDEST PUSH2 0x1F00 DUP2 DUP6 PUSH2 0x2381 JUMP JUMPDEST SWAP4 POP PUSH2 0x1F0B DUP4 PUSH2 0x2330 JUMP JUMPDEST DUP1 PUSH1 0x0 JUMPDEST DUP4 DUP2 LT ISZERO PUSH2 0x1F3C JUMPI DUP2 MLOAD PUSH2 0x1F23 DUP9 DUP3 PUSH2 0x1E57 JUMP JUMPDEST SWAP8 POP PUSH2 0x1F2E DUP4 PUSH2 0x2363 JUMP JUMPDEST SWAP3 POP POP PUSH1 0x1 DUP2 ADD SWAP1 POP PUSH2 0x1F0F JUMP JUMPDEST POP DUP6 SWAP4 POP POP POP POP SWAP3 SWAP2 POP POP JUMP JUMPDEST PUSH2 0x1F52 DUP2 PUSH2 0x24CA JUMP JUMPDEST DUP3 MSTORE POP POP JUMP JUMPDEST PUSH1 0x0 PUSH2 0x1F65 PUSH1 0x1D DUP4 PUSH2 0x2392 JUMP JUMPDEST SWAP2 POP PUSH2 0x1F70 DUP3 PUSH2 0x2663 JUMP JUMPDEST PUSH1 0x20 DUP3 ADD SWAP1 POP SWAP2 SWAP1 POP JUMP JUMPDEST PUSH1 0x0 PUSH2 0x1F88 PUSH1 0xD DUP4 PUSH2 0x2392 JUMP JUMPDEST SWAP2 POP PUSH2 0x1F93 DUP3 PUSH2 0x268C JUMP JUMPDEST PUSH1 0x20 DUP3 ADD SWAP1 POP SWAP2 SWAP1 POP JUMP JUMPDEST PUSH1 0x0 PUSH2 0x1FAB PUSH1 0x26 DUP4 PUSH2 0x2392 JUMP JUMPDEST SWAP2 POP PUSH2 0x1FB6 DUP3 PUSH2 0x26B5 JUMP JUMPDEST PUSH1 0x40 DUP3 ADD SWAP1 POP SWAP2 SWAP1 POP JUMP JUMPDEST PUSH1 0x0 PUSH2 0x1FCE PUSH1 0x18 DUP4 PUSH2 0x2392 JUMP JUMPDEST SWAP2 POP PUSH2 0x1FD9 DUP3 PUSH2 0x2704 JUMP JUMPDEST PUSH1 0x20 DUP3 ADD SWAP1 POP SWAP2 SWAP1 POP JUMP JUMPDEST PUSH1 0x0 PUSH2 0x1FF1 PUSH1 0x9 DUP4 PUSH2 0x2392 JUMP JUMPDEST SWAP2 POP PUSH2 0x1FFC DUP3 PUSH2 0x272D JUMP JUMPDEST PUSH1 0x20 DUP3 ADD SWAP1 POP SWAP2 SWAP1 POP JUMP JUMPDEST PUSH1 0x0 PUSH2 0x2014 PUSH1 0x28 DUP4 PUSH2 0x2392 JUMP JUMPDEST SWAP2 POP PUSH2 0x201F DUP3 PUSH2 0x2756 JUMP JUMPDEST PUSH1 0x40 DUP3 ADD SWAP1 POP SWAP2 SWAP1 POP JUMP JUMPDEST PUSH1 0x0 PUSH2 0x2037 PUSH1 0x14 DUP4 PUSH2 0x2392 JUMP JUMPDEST SWAP2 POP PUSH2 0x2042 DUP3 PUSH2 0x27A5 JUMP JUMPDEST PUSH1 0x20 DUP3 ADD SWAP1 POP SWAP2 SWAP1 POP JUMP JUMPDEST PUSH1 0x0 PUSH2 0x205A PUSH1 0x20 DUP4 PUSH2 0x2392 JUMP JUMPDEST SWAP2 POP PUSH2 0x2065 DUP3 PUSH2 0x27CE JUMP JUMPDEST PUSH1 0x20 DUP3 ADD SWAP1 POP SWAP2 SWAP1 POP JUMP JUMPDEST PUSH1 0x0 PUSH2 0x207D PUSH1 0x14 DUP4 PUSH2 0x2392 JUMP JUMPDEST SWAP2 POP PUSH2 0x2088 DUP3 PUSH2 0x27F7 JUMP JUMPDEST PUSH1 0x20 DUP3 ADD SWAP1 POP SWAP2 SWAP1 POP JUMP JUMPDEST PUSH2 0x209C DUP2 PUSH2 0x24F6 JUMP JUMPDEST DUP3 MSTORE POP POP JUMP JUMPDEST PUSH2 0x20AB DUP2 PUSH2 0x24F6 JUMP JUMPDEST DUP3 MSTORE POP POP JUMP JUMPDEST PUSH1 0x0 PUSH1 0x20 DUP3 ADD SWAP1 POP PUSH2 0x20C6 PUSH1 0x0 DUP4 ADD DUP5 PUSH2 0x1E7E JUMP JUMPDEST SWAP3 SWAP2 POP POP JUMP JUMPDEST PUSH1 0x0 PUSH1 0x40 DUP3 ADD SWAP1 POP PUSH2 0x20E1 PUSH1 0x0 DUP4 ADD DUP6 PUSH2 0x1E7E JUMP JUMPDEST PUSH2 0x20EE PUSH1 0x20 DUP4 ADD DUP5 PUSH2 0x1E7E JUMP JUMPDEST SWAP4 SWAP3 POP POP POP JUMP JUMPDEST PUSH1 0x0 PUSH1 0x60 DUP3 ADD SWAP1 POP PUSH2 0x210A PUSH1 0x0 DUP4 ADD DUP7 PUSH2 0x1E7E JUMP JUMPDEST PUSH2 0x2117 PUSH1 0x20 DUP4 ADD DUP6 PUSH2 0x1E7E JUMP JUMPDEST PUSH2 0x2124 PUSH1 0x40 DUP4 ADD DUP5 PUSH2 0x20A2 JUMP JUMPDEST SWAP5 SWAP4 POP POP POP POP JUMP JUMPDEST PUSH1 0x0 PUSH1 0x40 DUP3 ADD SWAP1 POP PUSH2 0x2141 PUSH1 0x0 DUP4 ADD DUP6 PUSH2 0x1E7E JUMP JUMPDEST PUSH2 0x214E PUSH1 0x20 DUP4 ADD DUP5 PUSH2 0x20A2 JUMP JUMPDEST SWAP4 SWAP3 POP POP POP JUMP JUMPDEST PUSH1 0x0 PUSH1 0x60 DUP3 ADD SWAP1 POP DUP2 DUP2 SUB PUSH1 0x0 DUP4 ADD MSTORE PUSH2 0x216F DUP2 DUP7 PUSH2 0x1EEB JUMP JUMPDEST SWAP1 POP DUP2 DUP2 SUB PUSH1 0x20 DUP4 ADD MSTORE PUSH2 0x2183 DUP2 DUP6 PUSH2 0x1E8D JUMP JUMPDEST SWAP1 POP DUP2 DUP2 SUB PUSH1 0x40 DUP4 ADD MSTORE PUSH2 0x2197 DUP2 DUP5 PUSH2 0x1EEB JUMP JUMPDEST SWAP1 POP SWAP5 SWAP4 POP POP POP POP JUMP JUMPDEST PUSH1 0x0 PUSH1 0x20 DUP3 ADD SWAP1 POP PUSH2 0x21B6 PUSH1 0x0 DUP4 ADD DUP5 PUSH2 0x1F49 JUMP JUMPDEST SWAP3 SWAP2 POP POP JUMP JUMPDEST PUSH1 0x0 PUSH1 0x20 DUP3 ADD SWAP1 POP DUP2 DUP2 SUB PUSH1 0x0 DUP4 ADD MSTORE PUSH2 0x21D5 DUP2 PUSH2 0x1F58 JUMP JUMPDEST SWAP1 POP SWAP2 SWAP1 POP JUMP JUMPDEST PUSH1 0x0 PUSH1 0x20 DUP3 ADD SWAP1 POP DUP2 DUP2 SUB PUSH1 0x0 DUP4 ADD MSTORE PUSH2 0x21F5 DUP2 PUSH2 0x1F7B JUMP JUMPDEST SWAP1 POP SWAP2 SWAP1 POP JUMP JUMPDEST PUSH1 0x0 PUSH1 0x20 DUP3 ADD SWAP1 POP DUP2 DUP2 SUB PUSH1 0x0 DUP4 ADD MSTORE PUSH2 0x2215 DUP2 PUSH2 0x1F9E JUMP JUMPDEST SWAP1 POP SWAP2 SWAP1 POP JUMP JUMPDEST PUSH1 0x0 PUSH1 0x20 DUP3 ADD SWAP1 POP DUP2 DUP2 SUB PUSH1 0x0 DUP4 ADD MSTORE PUSH2 0x2235 DUP2 PUSH2 0x1FC1 JUMP JUMPDEST SWAP1 POP SWAP2 SWAP1 POP JUMP JUMPDEST PUSH1 0x0 PUSH1 0x20 DUP3 ADD SWAP1 POP DUP2 DUP2 SUB PUSH1 0x0 DUP4 ADD MSTORE PUSH2 0x2255 DUP2 PUSH2 0x1FE4 JUMP JUMPDEST SWAP1 POP SWAP2 SWAP1 POP JUMP JUMPDEST PUSH1 0x0 PUSH1 0x20 DUP3 ADD SWAP1 POP DUP2 DUP2 SUB PUSH1 0x0 DUP4 ADD MSTORE PUSH2 0x2275 DUP2 PUSH2 0x2007 JUMP JUMPDEST SWAP1 POP SWAP2 SWAP1 POP JUMP JUMPDEST PUSH1 0x0 PUSH1 0x20 DUP3 ADD SWAP1 POP DUP2 DUP2 SUB PUSH1 0x0 DUP4 ADD MSTORE PUSH2 0x2295 DUP2 PUSH2 0x202A JUMP JUMPDEST SWAP1 POP SWAP2 SWAP1 POP JUMP JUMPDEST PUSH1 0x0 PUSH1 0x20 DUP3 ADD SWAP1 POP DUP2 DUP2 SUB PUSH1 0x0 DUP4 ADD MSTORE PUSH2 0x22B5 DUP2 PUSH2 0x204D JUMP JUMPDEST SWAP1 POP SWAP2 SWAP1 POP JUMP JUMPDEST PUSH1 0x0 PUSH1 0x20 DUP3 ADD SWAP1 POP DUP2 DUP2 SUB PUSH1 0x0 DUP4 ADD MSTORE PUSH2 0x22D5 DUP2 PUSH2 0x2070 JUMP JUMPDEST SWAP1 POP SWAP2 SWAP1 POP JUMP JUMPDEST PUSH1 0x0 PUSH1 0x20 DUP3 ADD SWAP1 POP PUSH2 0x22F1 PUSH1 0x0 DUP4 ADD DUP5 PUSH2 0x20A2 JUMP JUMPDEST SWAP3 SWAP2 POP POP JUMP JUMPDEST PUSH1 0x0 PUSH1 0x40 DUP3 ADD SWAP1 POP PUSH2 0x230C PUSH1 0x0 DUP4 ADD DUP6 PUSH2 0x20A2 JUMP JUMPDEST PUSH2 0x2319 PUSH1 0x20 DUP4 ADD DUP5 PUSH2 0x20A2 JUMP JUMPDEST SWAP4 SWAP3 POP POP POP JUMP JUMPDEST PUSH1 0x0 DUP2 SWAP1 POP PUSH1 0x20 DUP3 ADD SWAP1 POP SWAP2 SWAP1 POP JUMP JUMPDEST PUSH1 0x0 DUP2 SWAP1 POP PUSH1 0x20 DUP3 ADD SWAP1 POP SWAP2 SWAP1 POP JUMP JUMPDEST PUSH1 0x0 DUP2 MLOAD SWAP1 POP SWAP2 SWAP1 POP JUMP JUMPDEST PUSH1 0x0 DUP2 MLOAD SWAP1 POP SWAP2 SWAP1 POP JUMP JUMPDEST PUSH1 0x0 PUSH1 0x20 DUP3 ADD SWAP1 POP SWAP2 SWAP1 POP JUMP JUMPDEST PUSH1 0x0 PUSH1 0x20 DUP3 ADD SWAP1 POP SWAP2 SWAP1 POP JUMP JUMPDEST PUSH1 0x0 DUP3 DUP3 MSTORE PUSH1 0x20 DUP3 ADD SWAP1 POP SWAP3 SWAP2 POP POP JUMP JUMPDEST PUSH1 0x0 DUP3 DUP3 MSTORE PUSH1 0x20 DUP3 ADD SWAP1 POP SWAP3 SWAP2 POP POP JUMP JUMPDEST PUSH1 0x0 DUP3 DUP3 MSTORE PUSH1 0x20 DUP3 ADD SWAP1 POP SWAP3 SWAP2 POP POP JUMP JUMPDEST PUSH1 0x0 PUSH2 0x23AE DUP3 PUSH2 0x24F6 JUMP JUMPDEST SWAP2 POP PUSH2 0x23B9 DUP4 PUSH2 0x24F6 JUMP JUMPDEST SWAP3 POP DUP3 PUSH32 0xFFFFFFFFFFFFFFFFFFFFFFFFFFFFFFFFFFFFFFFFFFFFFFFFFFFFFFFFFFFFFFFF SUB DUP3 GT ISZERO PUSH2 0x23EE JUMPI PUSH2 0x23ED PUSH2 0x2573 JUMP JUMPDEST JUMPDEST DUP3 DUP3 ADD SWAP1 POP SWAP3 SWAP2 POP POP JUMP JUMPDEST PUSH1 0x0 PUSH2 0x2404 DUP3 PUSH2 0x24F6 JUMP JUMPDEST SWAP2 POP PUSH2 0x240F DUP4 PUSH2 0x24F6 JUMP JUMPDEST SWAP3 POP DUP3 PUSH2 0x241F JUMPI PUSH2 0x241E PUSH2 0x25A2 JUMP JUMPDEST JUMPDEST DUP3 DUP3 DIV SWAP1 POP SWAP3 SWAP2 POP POP JUMP JUMPDEST PUSH1 0x0 PUSH2 0x2435 DUP3 PUSH2 0x24F6 JUMP JUMPDEST SWAP2 POP PUSH2 0x2440 DUP4 PUSH2 0x24F6 JUMP JUMPDEST SWAP3 POP DUP2 PUSH32 0xFFFFFFFFFFFFFFFFFFFFFFFFFFFFFFFFFFFFFFFFFFFFFFFFFFFFFFFFFFFFFFFF DIV DUP4 GT DUP3 ISZERO ISZERO AND ISZERO PUSH2 0x2479 JUMPI PUSH2 0x2478 PUSH2 0x2573 JUMP JUMPDEST JUMPDEST DUP3 DUP3 MUL SWAP1 POP SWAP3 SWAP2 POP POP JUMP JUMPDEST PUSH1 0x0 PUSH2 0x248F DUP3 PUSH2 0x24F6 JUMP JUMPDEST SWAP2 POP PUSH2 0x249A DUP4 PUSH2 0x24F6 JUMP JUMPDEST SWAP3 POP DUP3 DUP3 LT ISZERO PUSH2 0x24AD JUMPI PUSH2 0x24AC PUSH2 0x2573 JUMP JUMPDEST JUMPDEST DUP3 DUP3 SUB SWAP1 POP SWAP3 SWAP2 POP POP JUMP JUMPDEST PUSH1 0x0 PUSH2 0x24C3 DUP3 PUSH2 0x24D6 JUMP JUMPDEST SWAP1 POP SWAP2 SWAP1 POP JUMP JUMPDEST PUSH1 0x0 DUP2 ISZERO ISZERO SWAP1 POP SWAP2 SWAP1 POP JUMP JUMPDEST PUSH1 0x0 PUSH20 0xFFFFFFFFFFFFFFFFFFFFFFFFFFFFFFFFFFFFFFFF DUP3 AND SWAP1 POP SWAP2 SWAP1 POP JUMP JUMPDEST PUSH1 0x0 DUP2 SWAP1 POP SWAP2 SWAP1 POP JUMP JUMPDEST PUSH1 0x0 PUSH2 0x250B DUP3 PUSH2 0x24F6 JUMP JUMPDEST SWAP2 POP PUSH1 0x0 DUP3 EQ ISZERO PUSH2 0x251F JUMPI PUSH2 0x251E PUSH2 0x2573 JUMP JUMPDEST JUMPDEST PUSH1 0x1 DUP3 SUB SWAP1 POP SWAP2 SWAP1 POP JUMP JUMPDEST PUSH1 0x0 PUSH2 0x2535 DUP3 PUSH2 0x24F6 JUMP JUMPDEST SWAP2 POP PUSH32 0xFFFFFFFFFFFFFFFFFFFFFFFFFFFFFFFFFFFFFFFFFFFFFFFFFFFFFFFFFFFFFFFF DUP3 EQ ISZERO PUSH2 0x2568 JUMPI PUSH2 0x2567 PUSH2 0x2573 JUMP JUMPDEST JUMPDEST PUSH1 0x1 DUP3 ADD SWAP1 POP SWAP2 SWAP1 POP JUMP JUMPDEST PUSH32 0x4E487B7100000000000000000000000000000000000000000000000000000000 PUSH1 0x0 MSTORE PUSH1 0x11 PUSH1 0x4 MSTORE PUSH1 0x24 PUSH1 0x0 REVERT JUMPDEST PUSH32 0x4E487B7100000000000000000000000000000000000000000000000000000000 PUSH1 0x0 MSTORE PUSH1 0x12 PUSH1 0x4 MSTORE PUSH1 0x24 PUSH1 0x0 REVERT JUMPDEST PUSH32 0x4E487B7100000000000000000000000000000000000000000000000000000000 PUSH1 0x0 MSTORE PUSH1 0x31 PUSH1 0x4 MSTORE PUSH1 0x24 PUSH1 0x0 REVERT JUMPDEST PUSH32 0x4E487B7100000000000000000000000000000000000000000000000000000000 PUSH1 0x0 MSTORE PUSH1 0x32 PUSH1 0x4 MSTORE PUSH1 0x24 PUSH1 0x0 REVERT JUMPDEST PUSH32 0x4E487B7100000000000000000000000000000000000000000000000000000000 PUSH1 0x0 MSTORE PUSH1 0x41 PUSH1 0x4 MSTORE PUSH1 0x24 PUSH1 0x0 REVERT JUMPDEST PUSH1 0x0 DUP1 REVERT JUMPDEST PUSH32 0x73656C6C6572206E6565642068617665207468697320746F6B656E6964000000 PUSH1 0x0 DUP3 ADD MSTORE POP JUMP JUMPDEST PUSH32 0x69742069732073656C6C696E6700000000000000000000000000000000000000 PUSH1 0x0 DUP3 ADD MSTORE POP JUMP JUMPDEST PUSH32 0x4F776E61626C653A206E6577206F776E657220697320746865207A65726F2061 PUSH1 0x0 DUP3 ADD MSTORE PUSH32 0x6464726573730000000000000000000000000000000000000000000000000000 PUSH1 0x20 DUP3 ADD MSTORE POP JUMP JUMPDEST PUSH32 0x46726F6D20616E6420546F2063616E206E6F742073616D650000000000000000 PUSH1 0x0 DUP3 ADD MSTORE POP JUMP JUMPDEST PUSH32 0x5072696365203E20300000000000000000000000000000000000000000000000 PUSH1 0x0 DUP3 ADD MSTORE POP JUMP JUMPDEST PUSH32 0x596F75206E65656420417070726F766520466F7220416C6C20746F2074686973 PUSH1 0x0 DUP3 ADD MSTORE PUSH32 0x20636F6E74616374000000000000000000000000000000000000000000000000 PUSH1 0x20 DUP3 ADD MSTORE POP JUMP JUMPDEST PUSH32 0x416464726573732063616E206E6F74207A65726F000000000000000000000000 PUSH1 0x0 DUP3 ADD MSTORE POP JUMP JUMPDEST PUSH32 0x4F776E61626C653A2063616C6C6572206973206E6F7420746865206F776E6572 PUSH1 0x0 DUP3 ADD MSTORE POP JUMP JUMPDEST PUSH32 0x56696353686F7365206E6F7420696E2073656C6C000000000000000000000000 PUSH1 0x0 DUP3 ADD MSTORE POP JUMP JUMPDEST PUSH2 0x2829 DUP2 PUSH2 0x24B8 JUMP JUMPDEST DUP2 EQ PUSH2 0x2834 JUMPI PUSH1 0x0 DUP1 REVERT JUMPDEST POP JUMP JUMPDEST PUSH2 0x2840 DUP2 PUSH2 0x24CA JUMP JUMPDEST DUP2 EQ PUSH2 0x284B JUMPI PUSH1 0x0 DUP1 REVERT JUMPDEST POP JUMP JUMPDEST PUSH2 0x2857 DUP2 PUSH2 0x24F6 JUMP JUMPDEST DUP2 EQ PUSH2 0x2862 JUMPI PUSH1 0x0 DUP1 REVERT JUMPDEST POP JUMP INVALID LOG2 PUSH5 0x6970667358 0x22 SLT KECCAK256 0x4C SWAP5 0xE3 0xF 0x5E SDIV CHAINID JUMPI 0xB9 DUP12 EXTCODECOPY PUSH27 0xBA8875A66F0A84A4E0F3B3CB6A3DE0B3B91F70CC64736F6C634300 ADDMOD SMOD STOP CALLER "
				},
				"gasEstimates": {
					"creation": {
						"codeDepositCost": "2079000",
						"executionCost": "infinite",
						"totalCost": "infinite"
					},
					"external": {
						"CancelSellVicShose(uint256)": "infinite",
						"LiquidPool()": "2582",
						"MinBnB()": "2451",
						"SellVicShose(uint256,uint256)": "infinite",
						"ShoseNFTContract()": "2558",
						"Treasury()": "2537",
						"VIMContract()": "2647",
						"WBNBContract()": "2538",
						"checkShoseTranfer(uint256)": "2910",
						"getMINPrice()": "infinite",
						"getSellingShose()": "infinite",
						"isOwner()": "2598",
						"owner()": "2567",
						"pause()": "29906",
						"paused()": "2588",
						"renounceOwnership()": "30440",
						"setLiquidPool(address)": "infinite",
						"setMinBNB(uint256)": "infinite",
						"setShoseNFTContract(address)": "infinite",
						"setTreasury(address)": "infinite",
						"setVIMContract(address)": "infinite",
						"transferOwnership(address)": "30839",
						"transferVicShose(address,uint256)": "infinite",
						"unpause()": "29970"
					},
					"internal": {
						"addNFTSell(uint256,uint256,address)": "infinite",
						"removeNFTSell(uint256)": "infinite"
					}
				},
				"methodIdentifiers": {
					"CancelSellVicShose(uint256)": "4dd79f10",
					"LiquidPool()": "36c3b4e2",
					"MinBnB()": "bcfcba76",
					"SellVicShose(uint256,uint256)": "83d58215",
					"ShoseNFTContract()": "d8882779",
					"Treasury()": "563df32f",
					"VIMContract()": "b5620229",
					"WBNBContract()": "0ff32839",
					"checkShoseTranfer(uint256)": "59464217",
					"getMINPrice()": "ea156f44",
					"getSellingShose()": "99bc1bfb",
					"isOwner()": "8f32d59b",
					"owner()": "8da5cb5b",
					"pause()": "8456cb59",
					"paused()": "5c975abb",
					"renounceOwnership()": "715018a6",
					"setLiquidPool(address)": "a888a93a",
					"setMinBNB(uint256)": "de281e28",
					"setShoseNFTContract(address)": "458a635a",
					"setTreasury(address)": "f0f44260",
					"setVIMContract(address)": "1ecff38e",
					"transferOwnership(address)": "f2fde38b",
					"transferVicShose(address,uint256)": "5c9e0d10",
					"unpause()": "3f4ba83a"
				}
			},
			"storageLayout": {
				"storage": [
					{
						"astId": 332,
						"contract": "marketplace.sol:marketplace",
						"label": "_owner",
						"offset": 0,
						"slot": "0",
						"type": "t_address"
					},
					{
						"astId": 467,
						"contract": "marketplace.sol:marketplace",
						"label": "paused",
						"offset": 20,
						"slot": "0",
						"type": "t_bool"
					},
					{
						"astId": 773,
						"contract": "marketplace.sol:marketplace",
						"label": "Treasury",
						"offset": 0,
						"slot": "1",
						"type": "t_address"
					},
					{
						"astId": 775,
						"contract": "marketplace.sol:marketplace",
						"label": "LiquidPool",
						"offset": 0,
						"slot": "2",
						"type": "t_address"
					},
					{
						"astId": 777,
						"contract": "marketplace.sol:marketplace",
						"label": "ShoseNFTContract",
						"offset": 0,
						"slot": "3",
						"type": "t_address"
					},
					{
						"astId": 779,
						"contract": "marketplace.sol:marketplace",
						"label": "VIMContract",
						"offset": 0,
						"slot": "4",
						"type": "t_address"
					},
					{
						"astId": 781,
						"contract": "marketplace.sol:marketplace",
						"label": "WBNBContract",
						"offset": 0,
						"slot": "5",
						"type": "t_address"
					},
					{
						"astId": 783,
						"contract": "marketplace.sol:marketplace",
						"label": "MinBnB",
						"offset": 0,
						"slot": "6",
						"type": "t_uint256"
					},
					{
						"astId": 787,
						"contract": "marketplace.sol:marketplace",
						"label": "shoseTranfer",
						"offset": 0,
						"slot": "7",
						"type": "t_mapping(t_uint256,t_address)"
					},
					{
						"astId": 791,
						"contract": "marketplace.sol:marketplace",
						"label": "shoseSell",
						"offset": 0,
						"slot": "8",
						"type": "t_mapping(t_uint256,t_uint256)"
					},
					{
						"astId": 795,
						"contract": "marketplace.sol:marketplace",
						"label": "shoseSeller",
						"offset": 0,
						"slot": "9",
						"type": "t_mapping(t_uint256,t_address)"
					},
					{
						"astId": 798,
						"contract": "marketplace.sol:marketplace",
						"label": "allTokensSell",
						"offset": 0,
						"slot": "10",
						"type": "t_array(t_uint256)dyn_storage"
					}
				],
				"types": {
					"t_address": {
						"encoding": "inplace",
						"label": "address",
						"numberOfBytes": "20"
					},
					"t_array(t_uint256)dyn_storage": {
						"base": "t_uint256",
						"encoding": "dynamic_array",
						"label": "uint256[]",
						"numberOfBytes": "32"
					},
					"t_bool": {
						"encoding": "inplace",
						"label": "bool",
						"numberOfBytes": "1"
					},
					"t_mapping(t_uint256,t_address)": {
						"encoding": "mapping",
						"key": "t_uint256",
						"label": "mapping(uint256 => address)",
						"numberOfBytes": "32",
						"value": "t_address"
					},
					"t_mapping(t_uint256,t_uint256)": {
						"encoding": "mapping",
						"key": "t_uint256",
						"label": "mapping(uint256 => uint256)",
						"numberOfBytes": "32",
						"value": "t_uint256"
					},
					"t_uint256": {
						"encoding": "inplace",
						"label": "uint256",
						"numberOfBytes": "32"
					}
				}
			},
			"userdoc": {
				"kind": "user",
				"methods": {},
				"version": 1
			}
		}
	}
}