{
	"marketplace.sol": {
		"marketplace": {
			"abi": [
				{
					"inputs": [],
					"stateMutability": "payable",
					"type": "constructor"
				},
				{
					"anonymous": false,
					"inputs": [
						{
							"indexed": true,
							"internalType": "address",
							"name": "previousOwner",
							"type": "address"
						},
						{
							"indexed": true,
							"internalType": "address",
							"name": "newOwner",
							"type": "address"
						}
					],
					"name": "OwnershipTransferred",
					"type": "event"
				},
				{
					"anonymous": false,
					"inputs": [],
					"name": "Pause",
					"type": "event"
				},
				{
					"anonymous": false,
					"inputs": [],
					"name": "Unpause",
					"type": "event"
				},
				{
					"anonymous": false,
					"inputs": [
						{
							"indexed": false,
							"internalType": "address",
							"name": "_LiquidPool",
							"type": "address"
						}
					],
					"name": "changeLiquidPool",
					"type": "event"
				},
				{
					"anonymous": false,
					"inputs": [
						{
							"indexed": false,
							"internalType": "uint256",
							"name": "_MinBnB",
							"type": "uint256"
						}
					],
					"name": "changeMinBnB",
					"type": "event"
				},
				{
					"anonymous": false,
					"inputs": [
						{
							"indexed": false,
							"internalType": "address",
							"name": "_ShoseNFTContract",
							"type": "address"
						}
					],
					"name": "changeShoseNFTContract",
					"type": "event"
				},
				{
					"anonymous": false,
					"inputs": [
						{
							"indexed": false,
							"internalType": "address",
							"name": "_Treasury",
							"type": "address"
						}
					],
					"name": "changeTreasury",
					"type": "event"
				},
				{
					"anonymous": false,
					"inputs": [
						{
							"indexed": false,
							"internalType": "address",
							"name": "_VIMContract",
							"type": "address"
						}
					],
					"name": "changeVIMContract",
					"type": "event"
				},
				{
					"anonymous": false,
					"inputs": [
						{
							"indexed": false,
							"internalType": "uint256",
							"name": "tokenId",
							"type": "uint256"
						}
					],
					"name": "eventBuyVicShose",
					"type": "event"
				},
				{
					"anonymous": false,
					"inputs": [
						{
							"indexed": false,
							"internalType": "uint256",
							"name": "tokenId",
							"type": "uint256"
						}
					],
					"name": "eventCancelSellVicShose",
					"type": "event"
				},
				{
					"anonymous": false,
					"inputs": [
						{
							"indexed": false,
							"internalType": "uint256",
							"name": "tokenId",
							"type": "uint256"
						},
						{
							"indexed": false,
							"internalType": "uint256",
							"name": "price",
							"type": "uint256"
						}
					],
					"name": "eventSellVicShose",
					"type": "event"
				},
				{
					"anonymous": false,
					"inputs": [
						{
							"indexed": false,
							"internalType": "address",
							"name": "to",
							"type": "address"
						},
						{
							"indexed": false,
							"internalType": "uint256",
							"name": "tokenId",
							"type": "uint256"
						}
					],
					"name": "eventtransferVicShose",
					"type": "event"
				},
				{
					"inputs": [
						{
							"internalType": "uint256",
							"name": "tokenId",
							"type": "uint256"
						}
					],
					"name": "BuyVicShose",
					"outputs": [],
					"stateMutability": "nonpayable",
					"type": "function"
				},
				{
					"inputs": [
						{
							"internalType": "uint256",
							"name": "tokenId",
							"type": "uint256"
						}
					],
					"name": "CancelSellVicShose",
					"outputs": [],
					"stateMutability": "nonpayable",
					"type": "function"
				},
				{
					"inputs": [],
					"name": "LiquidPool",
					"outputs": [
						{
							"internalType": "address",
							"name": "",
							"type": "address"
						}
					],
					"stateMutability": "view",
					"type": "function"
				},
				{
					"inputs": [],
					"name": "MinBnB",
					"outputs": [
						{
							"internalType": "uint256",
							"name": "",
							"type": "uint256"
						}
					],
					"stateMutability": "view",
					"type": "function"
				},
				{
					"inputs": [],
					"name": "Pool2",
					"outputs": [
						{
							"internalType": "address",
							"name": "",
							"type": "address"
						}
					],
					"stateMutability": "view",
					"type": "function"
				},
				{
					"inputs": [
						{
							"internalType": "uint256",
							"name": "tokenId",
							"type": "uint256"
						},
						{
							"internalType": "uint256",
							"name": "price",
							"type": "uint256"
						}
					],
					"name": "SellVicShose",
					"outputs": [],
					"stateMutability": "nonpayable",
					"type": "function"
				},
				{
					"inputs": [],
					"name": "ShoseNFTContract",
					"outputs": [
						{
							"internalType": "address",
							"name": "",
							"type": "address"
						}
					],
					"stateMutability": "view",
					"type": "function"
				},
				{
					"inputs": [],
					"name": "Treasury",
					"outputs": [
						{
							"internalType": "address",
							"name": "",
							"type": "address"
						}
					],
					"stateMutability": "view",
					"type": "function"
				},
				{
					"inputs": [],
					"name": "VIMContract",
					"outputs": [
						{
							"internalType": "address",
							"name": "",
							"type": "address"
						}
					],
					"stateMutability": "view",
					"type": "function"
				},
				{
					"inputs": [],
					"name": "WBNBContract",
					"outputs": [
						{
							"internalType": "address",
							"name": "",
							"type": "address"
						}
					],
					"stateMutability": "view",
					"type": "function"
				},
				{
					"inputs": [
						{
							"internalType": "uint256",
							"name": "tokenId",
							"type": "uint256"
						}
					],
					"name": "checkShoseTranfer",
					"outputs": [
						{
							"internalType": "address",
							"name": "",
							"type": "address"
						}
					],
					"stateMutability": "view",
					"type": "function"
				},
				{
					"inputs": [],
					"name": "getBalanceBNB",
					"outputs": [
						{
							"internalType": "uint256",
							"name": "",
							"type": "uint256"
						}
					],
					"stateMutability": "view",
					"type": "function"
				},
				{
					"inputs": [
						{
							"internalType": "address",
							"name": "token",
							"type": "address"
						}
					],
					"name": "getBalanceToken",
					"outputs": [
						{
							"internalType": "uint256",
							"name": "",
							"type": "uint256"
						}
					],
					"stateMutability": "view",
					"type": "function"
				},
				{
					"inputs": [],
					"name": "getMINPrice",
					"outputs": [
						{
							"internalType": "uint256",
							"name": "",
							"type": "uint256"
						}
					],
					"stateMutability": "view",
					"type": "function"
				},
				{
					"inputs": [],
					"name": "getSellingShose",
					"outputs": [
						{
							"internalType": "uint256[]",
							"name": "_tokenID",
							"type": "uint256[]"
						},
						{
							"internalType": "address[]",
							"name": "_owner",
							"type": "address[]"
						},
						{
							"internalType": "uint256[]",
							"name": "_Price",
							"type": "uint256[]"
						}
					],
					"stateMutability": "view",
					"type": "function"
				},
				{
					"inputs": [],
					"name": "isOwner",
					"outputs": [
						{
							"internalType": "bool",
							"name": "",
							"type": "bool"
						}
					],
					"stateMutability": "view",
					"type": "function"
				},
				{
					"inputs": [],
					"name": "owner",
					"outputs": [
						{
							"internalType": "address",
							"name": "",
							"type": "address"
						}
					],
					"stateMutability": "view",
					"type": "function"
				},
				{
					"inputs": [],
					"name": "pause",
					"outputs": [
						{
							"internalType": "bool",
							"name": "",
							"type": "bool"
						}
					],
					"stateMutability": "nonpayable",
					"type": "function"
				},
				{
					"inputs": [],
					"name": "paused",
					"outputs": [
						{
							"internalType": "bool",
							"name": "",
							"type": "bool"
						}
					],
					"stateMutability": "view",
					"type": "function"
				},
				{
					"inputs": [],
					"name": "renounceOwnership",
					"outputs": [],
					"stateMutability": "nonpayable",
					"type": "function"
				},
				{
					"inputs": [
						{
							"internalType": "uint256",
							"name": "tokenId",
							"type": "uint256"
						}
					],
					"name": "sentNFT2Pool2",
					"outputs": [],
					"stateMutability": "nonpayable",
					"type": "function"
				},
				{
					"inputs": [
						{
							"internalType": "uint256",
							"name": "amount",
							"type": "uint256"
						}
					],
					"name": "sentT2Pool2BNB",
					"outputs": [],
					"stateMutability": "nonpayable",
					"type": "function"
				},
				{
					"inputs": [
						{
							"internalType": "address",
							"name": "tokenaddress",
							"type": "address"
						},
						{
							"internalType": "uint256",
							"name": "amount",
							"type": "uint256"
						}
					],
					"name": "sentT2Pool2Token",
					"outputs": [],
					"stateMutability": "nonpayable",
					"type": "function"
				},
				{
					"inputs": [
						{
							"internalType": "address",
							"name": "_LiquidPool",
							"type": "address"
						}
					],
					"name": "setLiquidPool",
					"outputs": [],
					"stateMutability": "nonpayable",
					"type": "function"
				},
				{
					"inputs": [
						{
							"internalType": "uint256",
							"name": "_MinBnB",
							"type": "uint256"
						}
					],
					"name": "setMinBNB",
					"outputs": [],
					"stateMutability": "nonpayable",
					"type": "function"
				},
				{
					"inputs": [
						{
							"internalType": "address",
							"name": "_Pool2",
							"type": "address"
						}
					],
					"name": "setPool2",
					"outputs": [],
					"stateMutability": "nonpayable",
					"type": "function"
				},
				{
					"inputs": [
						{
							"internalType": "address",
							"name": "_ShoseNFTContract",
							"type": "address"
						}
					],
					"name": "setShoseNFTContract",
					"outputs": [],
					"stateMutability": "nonpayable",
					"type": "function"
				},
				{
					"inputs": [
						{
							"internalType": "uint256",
							"name": "_Tax",
							"type": "uint256"
						}
					],
					"name": "setTax",
					"outputs": [],
					"stateMutability": "nonpayable",
					"type": "function"
				},
				{
					"inputs": [
						{
							"internalType": "address",
							"name": "_Treasury",
							"type": "address"
						}
					],
					"name": "setTreasury",
					"outputs": [],
					"stateMutability": "nonpayable",
					"type": "function"
				},
				{
					"inputs": [
						{
							"internalType": "address",
							"name": "_VIMContract",
							"type": "address"
						}
					],
					"name": "setVIMContract",
					"outputs": [],
					"stateMutability": "nonpayable",
					"type": "function"
				},
				{
					"inputs": [
						{
							"internalType": "address",
							"name": "newOwner",
							"type": "address"
						}
					],
					"name": "transferOwnership",
					"outputs": [],
					"stateMutability": "nonpayable",
					"type": "function"
				},
				{
					"inputs": [
						{
							"internalType": "address",
							"name": "to",
							"type": "address"
						},
						{
							"internalType": "uint256",
							"name": "tokenId",
							"type": "uint256"
						}
					],
					"name": "transferVicShose",
					"outputs": [],
					"stateMutability": "nonpayable",
					"type": "function"
				},
				{
					"inputs": [],
					"name": "unpause",
					"outputs": [
						{
							"internalType": "bool",
							"name": "",
							"type": "bool"
						}
					],
					"stateMutability": "nonpayable",
					"type": "function"
				},
				{
					"stateMutability": "payable",
					"type": "receive"
				}
			],
			"devdoc": {
				"kind": "dev",
				"methods": {
					"isOwner()": {
						"details": "Returns true if the caller is the current owner."
					},
					"owner()": {
						"details": "Returns the address of the current owner."
					},
					"pause()": {
						"details": "called by the owner to pause, triggers stopped state"
					},
					"renounceOwnership()": {
						"details": "Leaves the contract without owner. It will not be possible to call `onlyOwner` functions anymore. Can only be called by the current owner. NOTE: Renouncing ownership will leave the contract without an owner, thereby removing any functionality that is only available to the owner."
					},
					"transferOwnership(address)": {
						"details": "Transfers ownership of the contract to a new account (`newOwner`). Can only be called by the current owner."
					},
					"unpause()": {
						"details": "called by the owner to unpause, returns to normal state"
					}
				},
				"version": 1
			},
			"evm": {
				"assembly": "    /* \"marketplace.sol\":229:9632  contract marketplace is BEPPausable {... */\n  mstore(0x40, 0x80)\n    /* \"BEPPausable.sol\":293:298  false */\n  0x00\n    /* \"BEPPausable.sol\":272:298  bool public paused = false */\n  dup1\n  exp(0x0100, 0x14)\n  dup2\n  sload\n  dup2\n  0xff\n  mul\n  not\n  and\n  swap1\n  dup4\n  iszero\n  iszero\n  mul\n  or\n  swap1\n  sstore\n  pop\n    /* \"BEPOwnable.sol\":716:733  address msgSender */\n  0x00\n    /* \"BEPOwnable.sol\":736:748  _msgSender() */\n  tag_6\n    /* \"BEPOwnable.sol\":736:746  _msgSender */\n  shl(0x20, tag_7)\n    /* \"BEPOwnable.sol\":736:748  _msgSender() */\n  0x20\n  shr\n  jump\t// in\ntag_6:\n    /* \"BEPOwnable.sol\":716:748  address msgSender = _msgSender() */\n  swap1\n  pop\n    /* \"BEPOwnable.sol\":763:772  msgSender */\n  dup1\n    /* \"BEPOwnable.sol\":754:760  _owner */\n  0x00\n  dup1\n    /* \"BEPOwnable.sol\":754:772  _owner = msgSender */\n  0x0100\n  exp\n  dup2\n  sload\n  dup2\n  0xffffffffffffffffffffffffffffffffffffffff\n  mul\n  not\n  and\n  swap1\n  dup4\n  0xffffffffffffffffffffffffffffffffffffffff\n  and\n  mul\n  or\n  swap1\n  sstore\n  pop\n    /* \"BEPOwnable.sol\":816:825  msgSender */\n  dup1\n    /* \"BEPOwnable.sol\":783:826  OwnershipTransferred(address(0), msgSender) */\n  0xffffffffffffffffffffffffffffffffffffffff\n  and\n    /* \"BEPOwnable.sol\":812:813  0 */\n  0x00\n    /* \"BEPOwnable.sol\":783:826  OwnershipTransferred(address(0), msgSender) */\n  0xffffffffffffffffffffffffffffffffffffffff\n  and\n  0x8be0079c531659141344cd1fd0a4f28419497f9722a3daafe3b4186f6b6457e0\n  mload(0x40)\n  mload(0x40)\n  dup1\n  swap2\n  sub\n  swap1\n  log3\n    /* \"BEPOwnable.sol\":710:831  {... */\n  pop\n    /* \"marketplace.sol\":1218:1260  0xcb3745379275252F4beB5d1094bF1a8A09F368b7 */\n  0xcb3745379275252f4beb5d1094bf1a8a09f368b7\n    /* \"marketplace.sol\":1207:1215  Treasury */\n  0x01\n  0x00\n    /* \"marketplace.sol\":1207:1260  Treasury = 0xcb3745379275252F4beB5d1094bF1a8A09F368b7 */\n  0x0100\n  exp\n  dup2\n  sload\n  dup2\n  0xffffffffffffffffffffffffffffffffffffffff\n  mul\n  not\n  and\n  swap1\n  dup4\n  0xffffffffffffffffffffffffffffffffffffffff\n  and\n  mul\n  or\n  swap1\n  sstore\n  pop\n    /* \"marketplace.sol\":1283:1325  0xd295cF5D859B9Ed331cdF69c49A81Eff5e1Bee83 */\n  0xd295cf5d859b9ed331cdf69c49a81eff5e1bee83\n    /* \"marketplace.sol\":1270:1280  LiquidPool */\n  0x02\n  0x00\n    /* \"marketplace.sol\":1270:1325  LiquidPool = 0xd295cF5D859B9Ed331cdF69c49A81Eff5e1Bee83 */\n  0x0100\n  exp\n  dup2\n  sload\n  dup2\n  0xffffffffffffffffffffffffffffffffffffffff\n  mul\n  not\n  and\n  swap1\n  dup4\n  0xffffffffffffffffffffffffffffffffffffffff\n  and\n  mul\n  or\n  swap1\n  sstore\n  pop\n    /* \"marketplace.sol\":1354:1396  0xC184af52Ca4E1B1f085aA8236Ff8508F52dc6eA7 */\n  0xc184af52ca4e1b1f085aa8236ff8508f52dc6ea7\n    /* \"marketplace.sol\":1335:1351  ShoseNFTContract */\n  0x03\n  0x00\n    /* \"marketplace.sol\":1335:1396  ShoseNFTContract = 0xC184af52Ca4E1B1f085aA8236Ff8508F52dc6eA7 */\n  0x0100\n  exp\n  dup2\n  sload\n  dup2\n  0xffffffffffffffffffffffffffffffffffffffff\n  mul\n  not\n  and\n  swap1\n  dup4\n  0xffffffffffffffffffffffffffffffffffffffff\n  and\n  mul\n  or\n  swap1\n  sstore\n  pop\n    /* \"marketplace.sol\":1420:1462  0x5bcd91C734d665Fe426A5D7156f2aD7d37b76e30 */\n  0x5bcd91c734d665fe426a5d7156f2ad7d37b76e30\n    /* \"marketplace.sol\":1406:1417  VIMContract */\n  0x04\n  0x00\n    /* \"marketplace.sol\":1406:1462  VIMContract = 0x5bcd91C734d665Fe426A5D7156f2aD7d37b76e30 */\n  0x0100\n  exp\n  dup2\n  sload\n  dup2\n  0xffffffffffffffffffffffffffffffffffffffff\n  mul\n  not\n  and\n  swap1\n  dup4\n  0xffffffffffffffffffffffffffffffffffffffff\n  and\n  mul\n  or\n  swap1\n  sstore\n  pop\n    /* \"marketplace.sol\":1487:1529  0xbb4CdB9CBd36B01bD1cBaEBF2De08d9173bc095c */\n  0xbb4cdb9cbd36b01bd1cbaebf2de08d9173bc095c\n    /* \"marketplace.sol\":1472:1484  WBNBContract */\n  0x05\n  0x00\n    /* \"marketplace.sol\":1472:1529  WBNBContract = 0xbb4CdB9CBd36B01bD1cBaEBF2De08d9173bc095c */\n  0x0100\n  exp\n  dup2\n  sload\n  dup2\n  0xffffffffffffffffffffffffffffffffffffffff\n  mul\n  not\n  and\n  swap1\n  dup4\n  0xffffffffffffffffffffffffffffffffffffffff\n  and\n  mul\n  or\n  swap1\n  sstore\n  pop\n    /* \"marketplace.sol\":1547:1589  0xfA0E47A2d6a58b9fd7Ca1d4bFAADd11E8811824B */\n  0xfa0e47a2d6a58b9fd7ca1d4bfaadd11e8811824b\n    /* \"marketplace.sol\":1539:1544  Pool2 */\n  0x08\n  0x00\n    /* \"marketplace.sol\":1539:1589  Pool2 = 0xfA0E47A2d6a58b9fd7Ca1d4bFAADd11E8811824B */\n  0x0100\n  exp\n  dup2\n  sload\n  dup2\n  0xffffffffffffffffffffffffffffffffffffffff\n  mul\n  not\n  and\n  swap1\n  dup4\n  0xffffffffffffffffffffffffffffffffffffffff\n  and\n  mul\n  or\n  swap1\n  sstore\n  pop\n    /* \"marketplace.sol\":1608:1609  6 */\n  0x06\n    /* \"marketplace.sol\":1599:1605  MinBnB */\n  dup1\n    /* \"marketplace.sol\":1599:1609  MinBnB = 6 */\n  dup2\n  swap1\n  sstore\n  pop\n    /* \"marketplace.sol\":1625:1626  5 */\n  0x05\n    /* \"marketplace.sol\":1619:1622  tax */\n  0x07\n    /* \"marketplace.sol\":1619:1626  tax = 5 */\n  dup2\n  swap1\n  sstore\n  pop\n    /* \"marketplace.sol\":229:9632  contract marketplace is BEPPausable {... */\n  jump(tag_9)\n    /* \"BEPContext.sol\":760:859  function _msgSender() internal view returns (address payable) {... */\ntag_7:\n    /* \"BEPContext.sol\":805:820  address payable */\n  0x00\n    /* \"BEPContext.sol\":843:853  msg.sender */\n  caller\n    /* \"BEPContext.sol\":828:854  return payable(msg.sender) */\n  swap1\n  pop\n    /* \"BEPContext.sol\":760:859  function _msgSender() internal view returns (address payable) {... */\n  swap1\n  jump\t// out\n    /* \"marketplace.sol\":229:9632  contract marketplace is BEPPausable {... */\ntag_9:\n  dataSize(sub_0)\n  dup1\n  dataOffset(sub_0)\n  0x00\n  codecopy\n  0x00\n  return\nstop\n\nsub_0: assembly {\n        /* \"marketplace.sol\":229:9632  contract marketplace is BEPPausable {... */\n      mstore(0x40, 0x80)\n      jumpi(tag_1, lt(calldatasize, 0x04))\n      shr(0xe0, calldataload(0x00))\n      dup1\n      0x8cef6437\n      gt\n      tag_36\n      jumpi\n      dup1\n      0xbcfcba76\n      gt\n      tag_37\n      jumpi\n      dup1\n      0xd8882779\n      gt\n      tag_38\n      jumpi\n      dup1\n      0xd8882779\n      eq\n      tag_31\n      jumpi\n      dup1\n      0xde281e28\n      eq\n      tag_32\n      jumpi\n      dup1\n      0xea156f44\n      eq\n      tag_33\n      jumpi\n      dup1\n      0xf0f44260\n      eq\n      tag_34\n      jumpi\n      dup1\n      0xf2fde38b\n      eq\n      tag_35\n      jumpi\n      jump(tag_2)\n    tag_38:\n      dup1\n      0xbcfcba76\n      eq\n      tag_27\n      jumpi\n      dup1\n      0xcc24c800\n      eq\n      tag_28\n      jumpi\n      dup1\n      0xd1f19989\n      eq\n      tag_29\n      jumpi\n      dup1\n      0xd57b6a4a\n      eq\n      tag_30\n      jumpi\n      jump(tag_2)\n    tag_37:\n      dup1\n      0xa888a93a\n      gt\n      tag_39\n      jumpi\n      dup1\n      0xa888a93a\n      eq\n      tag_23\n      jumpi\n      dup1\n      0xac4b3b0a\n      eq\n      tag_24\n      jumpi\n      dup1\n      0xb5620229\n      eq\n      tag_25\n      jumpi\n      dup1\n      0xbc127127\n      eq\n      tag_26\n      jumpi\n      jump(tag_2)\n    tag_39:\n      dup1\n      0x8cef6437\n      eq\n      tag_19\n      jumpi\n      dup1\n      0x8da5cb5b\n      eq\n      tag_20\n      jumpi\n      dup1\n      0x8f32d59b\n      eq\n      tag_21\n      jumpi\n      dup1\n      0x99bc1bfb\n      eq\n      tag_22\n      jumpi\n      jump(tag_2)\n    tag_36:\n      dup1\n      0x563df32f\n      gt\n      tag_40\n      jumpi\n      dup1\n      0x715018a6\n      gt\n      tag_41\n      jumpi\n      dup1\n      0x715018a6\n      eq\n      tag_15\n      jumpi\n      dup1\n      0x7880e606\n      eq\n      tag_16\n      jumpi\n      dup1\n      0x83d58215\n      eq\n      tag_17\n      jumpi\n      dup1\n      0x8456cb59\n      eq\n      tag_18\n      jumpi\n      jump(tag_2)\n    tag_41:\n      dup1\n      0x563df32f\n      eq\n      tag_11\n      jumpi\n      dup1\n      0x59464217\n      eq\n      tag_12\n      jumpi\n      dup1\n      0x5c975abb\n      eq\n      tag_13\n      jumpi\n      dup1\n      0x5c9e0d10\n      eq\n      tag_14\n      jumpi\n      jump(tag_2)\n    tag_40:\n      dup1\n      0x3f4ba83a\n      gt\n      tag_42\n      jumpi\n      dup1\n      0x3f4ba83a\n      eq\n      tag_7\n      jumpi\n      dup1\n      0x458a635a\n      eq\n      tag_8\n      jumpi\n      dup1\n      0x48eca45c\n      eq\n      tag_9\n      jumpi\n      dup1\n      0x4dd79f10\n      eq\n      tag_10\n      jumpi\n      jump(tag_2)\n    tag_42:\n      dup1\n      0x0ff32839\n      eq\n      tag_3\n      jumpi\n      dup1\n      0x1ecff38e\n      eq\n      tag_4\n      jumpi\n      dup1\n      0x2e5bb6ff\n      eq\n      tag_5\n      jumpi\n      dup1\n      0x36c3b4e2\n      eq\n      tag_6\n      jumpi\n      jump(tag_2)\n    tag_1:\n      jumpi(tag_2, calldatasize)\n      stop\n    tag_2:\n      0x00\n      dup1\n      revert\n        /* \"marketplace.sol\":401:428  address public WBNBContract */\n    tag_3:\n      callvalue\n      dup1\n      iszero\n      tag_45\n      jumpi\n      0x00\n      dup1\n      revert\n    tag_45:\n      pop\n      tag_46\n      tag_47\n      jump\t// in\n    tag_46:\n      mload(0x40)\n      tag_48\n      swap2\n      swap1\n      tag_49\n      jump\t// in\n    tag_48:\n      mload(0x40)\n      dup1\n      swap2\n      sub\n      swap1\n      return\n        /* \"marketplace.sol\":2213:2366  function setVIMContract(address _VIMContract) external onlyOwner {... */\n    tag_4:\n      callvalue\n      dup1\n      iszero\n      tag_50\n      jumpi\n      0x00\n      dup1\n      revert\n    tag_50:\n      pop\n      tag_51\n      0x04\n      dup1\n      calldatasize\n      sub\n      dup2\n      add\n      swap1\n      tag_52\n      swap2\n      swap1\n      tag_53\n      jump\t// in\n    tag_52:\n      tag_54\n      jump\t// in\n    tag_51:\n      stop\n        /* \"marketplace.sol\":2502:2604  function setTax(uint256 _Tax) external onlyOwner {... */\n    tag_5:\n      callvalue\n      dup1\n      iszero\n      tag_55\n      jumpi\n      0x00\n      dup1\n      revert\n    tag_55:\n      pop\n      tag_56\n      0x04\n      dup1\n      calldatasize\n      sub\n      dup2\n      add\n      swap1\n      tag_57\n      swap2\n      swap1\n      tag_58\n      jump\t// in\n    tag_57:\n      tag_59\n      jump\t// in\n    tag_56:\n      stop\n        /* \"marketplace.sol\":301:326  address public LiquidPool */\n    tag_6:\n      callvalue\n      dup1\n      iszero\n      tag_60\n      jumpi\n      0x00\n      dup1\n      revert\n    tag_60:\n      pop\n      tag_61\n      tag_62\n      jump\t// in\n    tag_61:\n      mload(0x40)\n      tag_63\n      swap2\n      swap1\n      tag_49\n      jump\t// in\n    tag_63:\n      mload(0x40)\n      dup1\n      swap2\n      sub\n      swap1\n      return\n        /* \"BEPPausable.sol\":870:994  function unpause() public onlyOwner whenPaused returns (bool) {... */\n    tag_7:\n      callvalue\n      dup1\n      iszero\n      tag_64\n      jumpi\n      0x00\n      dup1\n      revert\n    tag_64:\n      pop\n      tag_65\n      tag_66\n      jump\t// in\n    tag_65:\n      mload(0x40)\n      tag_67\n      swap2\n      swap1\n      tag_68\n      jump\t// in\n    tag_67:\n      mload(0x40)\n      dup1\n      swap2\n      sub\n      swap1\n      return\n        /* \"marketplace.sol\":2024:2207  function setShoseNFTContract(address _ShoseNFTContract) external onlyOwner {... */\n    tag_8:\n      callvalue\n      dup1\n      iszero\n      tag_69\n      jumpi\n      0x00\n      dup1\n      revert\n    tag_69:\n      pop\n      tag_70\n      0x04\n      dup1\n      calldatasize\n      sub\n      dup2\n      add\n      swap1\n      tag_71\n      swap2\n      swap1\n      tag_53\n      jump\t// in\n    tag_71:\n      tag_72\n      jump\t// in\n    tag_70:\n      stop\n        /* \"marketplace.sol\":8529:8669  function getBalanceToken(address token) public view virtual returns (uint256) {... */\n    tag_9:\n      callvalue\n      dup1\n      iszero\n      tag_73\n      jumpi\n      0x00\n      dup1\n      revert\n    tag_73:\n      pop\n      tag_74\n      0x04\n      dup1\n      calldatasize\n      sub\n      dup2\n      add\n      swap1\n      tag_75\n      swap2\n      swap1\n      tag_53\n      jump\t// in\n    tag_75:\n      tag_76\n      jump\t// in\n    tag_74:\n      mload(0x40)\n      tag_77\n      swap2\n      swap1\n      tag_78\n      jump\t// in\n    tag_77:\n      mload(0x40)\n      dup1\n      swap2\n      sub\n      swap1\n      return\n        /* \"marketplace.sol\":4191:4559  function CancelSellVicShose(uint256 tokenId) external whenNotPaused {... */\n    tag_10:\n      callvalue\n      dup1\n      iszero\n      tag_79\n      jumpi\n      0x00\n      dup1\n      revert\n    tag_79:\n      pop\n      tag_80\n      0x04\n      dup1\n      calldatasize\n      sub\n      dup2\n      add\n      swap1\n      tag_81\n      swap2\n      swap1\n      tag_58\n      jump\t// in\n    tag_81:\n      tag_82\n      jump\t// in\n    tag_80:\n      stop\n        /* \"marketplace.sol\":272:295  address public Treasury */\n    tag_11:\n      callvalue\n      dup1\n      iszero\n      tag_83\n      jumpi\n      0x00\n      dup1\n      revert\n    tag_83:\n      pop\n      tag_84\n      tag_85\n      jump\t// in\n    tag_84:\n      mload(0x40)\n      tag_86\n      swap2\n      swap1\n      tag_49\n      jump\t// in\n    tag_86:\n      mload(0x40)\n      dup1\n      swap2\n      sub\n      swap1\n      return\n        /* \"marketplace.sol\":3494:3621  function checkShoseTranfer(uint256 tokenId) public view virtual returns (address) {... */\n    tag_12:\n      callvalue\n      dup1\n      iszero\n      tag_87\n      jumpi\n      0x00\n      dup1\n      revert\n    tag_87:\n      pop\n      tag_88\n      0x04\n      dup1\n      calldatasize\n      sub\n      dup2\n      add\n      swap1\n      tag_89\n      swap2\n      swap1\n      tag_58\n      jump\t// in\n    tag_89:\n      tag_90\n      jump\t// in\n    tag_88:\n      mload(0x40)\n      tag_91\n      swap2\n      swap1\n      tag_49\n      jump\t// in\n    tag_91:\n      mload(0x40)\n      dup1\n      swap2\n      sub\n      swap1\n      return\n        /* \"BEPPausable.sol\":272:298  bool public paused = false */\n    tag_13:\n      callvalue\n      dup1\n      iszero\n      tag_92\n      jumpi\n      0x00\n      dup1\n      revert\n    tag_92:\n      pop\n      tag_93\n      tag_94\n      jump\t// in\n    tag_93:\n      mload(0x40)\n      tag_95\n      swap2\n      swap1\n      tag_68\n      jump\t// in\n    tag_95:\n      mload(0x40)\n      dup1\n      swap2\n      sub\n      swap1\n      return\n        /* \"marketplace.sol\":2958:3489  function transferVicShose(address to,uint256 tokenId) external whenNotPaused {... */\n    tag_14:\n      callvalue\n      dup1\n      iszero\n      tag_96\n      jumpi\n      0x00\n      dup1\n      revert\n    tag_96:\n      pop\n      tag_97\n      0x04\n      dup1\n      calldatasize\n      sub\n      dup2\n      add\n      swap1\n      tag_98\n      swap2\n      swap1\n      tag_99\n      jump\t// in\n    tag_98:\n      tag_100\n      jump\t// in\n    tag_97:\n      stop\n        /* \"BEPOwnable.sol\":1630:1757  function renounceOwnership() public onlyOwner {... */\n    tag_15:\n      callvalue\n      dup1\n      iszero\n      tag_101\n      jumpi\n      0x00\n      dup1\n      revert\n    tag_101:\n      pop\n      tag_102\n      tag_103\n      jump\t// in\n    tag_102:\n      stop\n        /* \"marketplace.sol\":4565:6618  function BuyVicShose(uint256 tokenId) external whenNotPaused {... */\n    tag_16:\n      callvalue\n      dup1\n      iszero\n      tag_104\n      jumpi\n      0x00\n      dup1\n      revert\n    tag_104:\n      pop\n      tag_105\n      0x04\n      dup1\n      calldatasize\n      sub\n      dup2\n      add\n      swap1\n      tag_106\n      swap2\n      swap1\n      tag_58\n      jump\t// in\n    tag_106:\n      tag_107\n      jump\t// in\n    tag_105:\n      stop\n        /* \"marketplace.sol\":3627:4185  function SellVicShose(uint256 tokenId,uint256 price) external whenNotPaused {... */\n    tag_17:\n      callvalue\n      dup1\n      iszero\n      tag_108\n      jumpi\n      0x00\n      dup1\n      revert\n    tag_108:\n      pop\n      tag_109\n      0x04\n      dup1\n      calldatasize\n      sub\n      dup2\n      add\n      swap1\n      tag_110\n      swap2\n      swap1\n      tag_111\n      jump\t// in\n    tag_110:\n      tag_112\n      jump\t// in\n    tag_109:\n      stop\n        /* \"BEPPausable.sol\":666:788  function pause() public onlyOwner whenNotPaused returns (bool) {... */\n    tag_18:\n      callvalue\n      dup1\n      iszero\n      tag_113\n      jumpi\n      0x00\n      dup1\n      revert\n    tag_113:\n      pop\n      tag_114\n      tag_115\n      jump\t// in\n    tag_114:\n      mload(0x40)\n      tag_116\n      swap2\n      swap1\n      tag_68\n      jump\t// in\n    tag_116:\n      mload(0x40)\n      dup1\n      swap2\n      sub\n      swap1\n      return\n        /* \"marketplace.sol\":8674:8969  function sentT2Pool2Token(address tokenaddress, uint256 amount) external onlyOwner {... */\n    tag_19:\n      callvalue\n      dup1\n      iszero\n      tag_117\n      jumpi\n      0x00\n      dup1\n      revert\n    tag_117:\n      pop\n      tag_118\n      0x04\n      dup1\n      calldatasize\n      sub\n      dup2\n      add\n      swap1\n      tag_119\n      swap2\n      swap1\n      tag_99\n      jump\t// in\n    tag_119:\n      tag_120\n      jump\t// in\n    tag_118:\n      stop\n        /* \"BEPOwnable.sol\":899:970  function owner() public view returns (address) {... */\n    tag_20:\n      callvalue\n      dup1\n      iszero\n      tag_121\n      jumpi\n      0x00\n      dup1\n      revert\n    tag_121:\n      pop\n      tag_122\n      tag_123\n      jump\t// in\n    tag_122:\n      mload(0x40)\n      tag_124\n      swap2\n      swap1\n      tag_49\n      jump\t// in\n    tag_124:\n      mload(0x40)\n      dup1\n      swap2\n      sub\n      swap1\n      return\n        /* \"BEPOwnable.sol\":1218:1304  function isOwner() public view returns (bool) {... */\n    tag_21:\n      callvalue\n      dup1\n      iszero\n      tag_125\n      jumpi\n      0x00\n      dup1\n      revert\n    tag_125:\n      pop\n      tag_126\n      tag_127\n      jump\t// in\n    tag_126:\n      mload(0x40)\n      tag_128\n      swap2\n      swap1\n      tag_68\n      jump\t// in\n    tag_128:\n      mload(0x40)\n      dup1\n      swap2\n      sub\n      swap1\n      return\n        /* \"marketplace.sol\":7757:8514  function getSellingShose() external view returns (uint256[] memory _tokenID,address[] memory _owner, uint256[] memory _Price) {... */\n    tag_22:\n      callvalue\n      dup1\n      iszero\n      tag_129\n      jumpi\n      0x00\n      dup1\n      revert\n    tag_129:\n      pop\n      tag_130\n      tag_131\n      jump\t// in\n    tag_130:\n      mload(0x40)\n      tag_132\n      swap4\n      swap3\n      swap2\n      swap1\n      tag_133\n      jump\t// in\n    tag_132:\n      mload(0x40)\n      dup1\n      swap2\n      sub\n      swap1\n      return\n        /* \"marketplace.sol\":1871:2018  function setLiquidPool(address _LiquidPool) external onlyOwner {... */\n    tag_23:\n      callvalue\n      dup1\n      iszero\n      tag_134\n      jumpi\n      0x00\n      dup1\n      revert\n    tag_134:\n      pop\n      tag_135\n      0x04\n      dup1\n      calldatasize\n      sub\n      dup2\n      add\n      swap1\n      tag_136\n      swap2\n      swap1\n      tag_53\n      jump\t// in\n    tag_136:\n      tag_137\n      jump\t// in\n    tag_135:\n      stop\n        /* \"marketplace.sol\":486:506  address public Pool2 */\n    tag_24:\n      callvalue\n      dup1\n      iszero\n      tag_138\n      jumpi\n      0x00\n      dup1\n      revert\n    tag_138:\n      pop\n      tag_139\n      tag_140\n      jump\t// in\n    tag_139:\n      mload(0x40)\n      tag_141\n      swap2\n      swap1\n      tag_49\n      jump\t// in\n    tag_141:\n      mload(0x40)\n      dup1\n      swap2\n      sub\n      swap1\n      return\n        /* \"marketplace.sol\":369:395  address public VIMContract */\n    tag_25:\n      callvalue\n      dup1\n      iszero\n      tag_142\n      jumpi\n      0x00\n      dup1\n      revert\n    tag_142:\n      pop\n      tag_143\n      tag_144\n      jump\t// in\n    tag_143:\n      mload(0x40)\n      tag_145\n      swap2\n      swap1\n      tag_49\n      jump\t// in\n    tag_145:\n      mload(0x40)\n      dup1\n      swap2\n      sub\n      swap1\n      return\n        /* \"marketplace.sol\":8975:9083  function getBalanceBNB() public view virtual returns (uint256) {... */\n    tag_26:\n      callvalue\n      dup1\n      iszero\n      tag_146\n      jumpi\n      0x00\n      dup1\n      revert\n    tag_146:\n      pop\n      tag_147\n      tag_148\n      jump\t// in\n    tag_147:\n      mload(0x40)\n      tag_149\n      swap2\n      swap1\n      tag_78\n      jump\t// in\n    tag_149:\n      mload(0x40)\n      dup1\n      swap2\n      sub\n      swap1\n      return\n        /* \"marketplace.sol\":434:455  uint256 public MinBnB */\n    tag_27:\n      callvalue\n      dup1\n      iszero\n      tag_150\n      jumpi\n      0x00\n      dup1\n      revert\n    tag_150:\n      pop\n      tag_151\n      tag_152\n      jump\t// in\n    tag_151:\n      mload(0x40)\n      tag_153\n      swap2\n      swap1\n      tag_78\n      jump\t// in\n    tag_153:\n      mload(0x40)\n      dup1\n      swap2\n      sub\n      swap1\n      return\n        /* \"marketplace.sol\":1638:1722  function setPool2(address _Pool2) external onlyOwner {... */\n    tag_28:\n      callvalue\n      dup1\n      iszero\n      tag_154\n      jumpi\n      0x00\n      dup1\n      revert\n    tag_154:\n      pop\n      tag_155\n      0x04\n      dup1\n      calldatasize\n      sub\n      dup2\n      add\n      swap1\n      tag_156\n      swap2\n      swap1\n      tag_53\n      jump\t// in\n    tag_156:\n      tag_157\n      jump\t// in\n    tag_155:\n      stop\n        /* \"marketplace.sol\":9088:9322  function sentT2Pool2BNB(uint256 amount) external onlyOwner {... */\n    tag_29:\n      callvalue\n      dup1\n      iszero\n      tag_158\n      jumpi\n      0x00\n      dup1\n      revert\n    tag_158:\n      pop\n      tag_159\n      0x04\n      dup1\n      calldatasize\n      sub\n      dup2\n      add\n      swap1\n      tag_160\n      swap2\n      swap1\n      tag_58\n      jump\t// in\n    tag_160:\n      tag_161\n      jump\t// in\n    tag_159:\n      stop\n        /* \"marketplace.sol\":9327:9596  function sentNFT2Pool2(uint256 tokenId) external onlyOwner {... */\n    tag_30:\n      callvalue\n      dup1\n      iszero\n      tag_162\n      jumpi\n      0x00\n      dup1\n      revert\n    tag_162:\n      pop\n      tag_163\n      0x04\n      dup1\n      calldatasize\n      sub\n      dup2\n      add\n      swap1\n      tag_164\n      swap2\n      swap1\n      tag_58\n      jump\t// in\n    tag_164:\n      tag_165\n      jump\t// in\n    tag_163:\n      stop\n        /* \"marketplace.sol\":332:363  address public ShoseNFTContract */\n    tag_31:\n      callvalue\n      dup1\n      iszero\n      tag_166\n      jumpi\n      0x00\n      dup1\n      revert\n    tag_166:\n      pop\n      tag_167\n      tag_168\n      jump\t// in\n    tag_167:\n      mload(0x40)\n      tag_169\n      swap2\n      swap1\n      tag_49\n      jump\t// in\n    tag_169:\n      mload(0x40)\n      dup1\n      swap2\n      sub\n      swap1\n      return\n        /* \"marketplace.sol\":2372:2496  function setMinBNB(uint256  _MinBnB) external onlyOwner {... */\n    tag_32:\n      callvalue\n      dup1\n      iszero\n      tag_170\n      jumpi\n      0x00\n      dup1\n      revert\n    tag_170:\n      pop\n      tag_171\n      0x04\n      dup1\n      calldatasize\n      sub\n      dup2\n      add\n      swap1\n      tag_172\n      swap2\n      swap1\n      tag_58\n      jump\t// in\n    tag_172:\n      tag_173\n      jump\t// in\n    tag_171:\n      stop\n        /* \"marketplace.sol\":2611:2952  function getMINPrice() public view virtual returns (uint256) {... */\n    tag_33:\n      callvalue\n      dup1\n      iszero\n      tag_174\n      jumpi\n      0x00\n      dup1\n      revert\n    tag_174:\n      pop\n      tag_175\n      tag_176\n      jump\t// in\n    tag_175:\n      mload(0x40)\n      tag_177\n      swap2\n      swap1\n      tag_78\n      jump\t// in\n    tag_177:\n      mload(0x40)\n      dup1\n      swap2\n      sub\n      swap1\n      return\n        /* \"marketplace.sol\":1729:1864  function setTreasury(address _Treasury) external onlyOwner {... */\n    tag_34:\n      callvalue\n      dup1\n      iszero\n      tag_178\n      jumpi\n      0x00\n      dup1\n      revert\n    tag_178:\n      pop\n      tag_179\n      0x04\n      dup1\n      calldatasize\n      sub\n      dup2\n      add\n      swap1\n      tag_180\n      swap2\n      swap1\n      tag_53\n      jump\t// in\n    tag_180:\n      tag_181\n      jump\t// in\n    tag_179:\n      stop\n        /* \"BEPOwnable.sol\":1896:1997  function transferOwnership(address newOwner) public onlyOwner {... */\n    tag_35:\n      callvalue\n      dup1\n      iszero\n      tag_182\n      jumpi\n      0x00\n      dup1\n      revert\n    tag_182:\n      pop\n      tag_183\n      0x04\n      dup1\n      calldatasize\n      sub\n      dup2\n      add\n      swap1\n      tag_184\n      swap2\n      swap1\n      tag_53\n      jump\t// in\n    tag_184:\n      tag_185\n      jump\t// in\n    tag_183:\n      stop\n        /* \"marketplace.sol\":401:428  address public WBNBContract */\n    tag_47:\n      0x05\n      0x00\n      swap1\n      sload\n      swap1\n      0x0100\n      exp\n      swap1\n      div\n      0xffffffffffffffffffffffffffffffffffffffff\n      and\n      dup2\n      jump\t// out\n        /* \"marketplace.sol\":2213:2366  function setVIMContract(address _VIMContract) external onlyOwner {... */\n    tag_54:\n        /* \"BEPOwnable.sol\":1085:1094  isOwner() */\n      tag_187\n        /* \"BEPOwnable.sol\":1085:1092  isOwner */\n      tag_127\n        /* \"BEPOwnable.sol\":1085:1094  isOwner() */\n      jump\t// in\n    tag_187:\n        /* \"BEPOwnable.sol\":1077:1131  require(isOwner(), \"Ownable: caller is not the owner\") */\n      tag_188\n      jumpi\n      mload(0x40)\n      0x08c379a000000000000000000000000000000000000000000000000000000000\n      dup2\n      mstore\n      0x04\n      add\n      tag_189\n      swap1\n      tag_190\n      jump\t// in\n    tag_189:\n      mload(0x40)\n      dup1\n      swap2\n      sub\n      swap1\n      revert\n    tag_188:\n        /* \"marketplace.sol\":2302:2314  _VIMContract */\n      dup1\n        /* \"marketplace.sol\":2288:2299  VIMContract */\n      0x04\n      0x00\n        /* \"marketplace.sol\":2288:2314  VIMContract = _VIMContract */\n      0x0100\n      exp\n      dup2\n      sload\n      dup2\n      0xffffffffffffffffffffffffffffffffffffffff\n      mul\n      not\n      and\n      swap1\n      dup4\n      0xffffffffffffffffffffffffffffffffffffffff\n      and\n      mul\n      or\n      swap1\n      sstore\n      pop\n        /* \"marketplace.sol\":2329:2359  changeVIMContract(VIMContract) */\n      0x136742181ff5fc7d13f647a125112ec36500105a024ce2dbbb7f28fa375eebfa\n        /* \"marketplace.sol\":2347:2358  VIMContract */\n      0x04\n      0x00\n      swap1\n      sload\n      swap1\n      0x0100\n      exp\n      swap1\n      div\n      0xffffffffffffffffffffffffffffffffffffffff\n      and\n        /* \"marketplace.sol\":2329:2359  changeVIMContract(VIMContract) */\n      mload(0x40)\n      tag_192\n      swap2\n      swap1\n      tag_49\n      jump\t// in\n    tag_192:\n      mload(0x40)\n      dup1\n      swap2\n      sub\n      swap1\n      log1\n        /* \"marketplace.sol\":2213:2366  function setVIMContract(address _VIMContract) external onlyOwner {... */\n      pop\n      jump\t// out\n        /* \"marketplace.sol\":2502:2604  function setTax(uint256 _Tax) external onlyOwner {... */\n    tag_59:\n        /* \"BEPOwnable.sol\":1085:1094  isOwner() */\n      tag_194\n        /* \"BEPOwnable.sol\":1085:1092  isOwner */\n      tag_127\n        /* \"BEPOwnable.sol\":1085:1094  isOwner() */\n      jump\t// in\n    tag_194:\n        /* \"BEPOwnable.sol\":1077:1131  require(isOwner(), \"Ownable: caller is not the owner\") */\n      tag_195\n      jumpi\n      mload(0x40)\n      0x08c379a000000000000000000000000000000000000000000000000000000000\n      dup2\n      mstore\n      0x04\n      add\n      tag_196\n      swap1\n      tag_190\n      jump\t// in\n    tag_196:\n      mload(0x40)\n      dup1\n      swap2\n      sub\n      swap1\n      revert\n    tag_195:\n        /* \"marketplace.sol\":2574:2576  50 */\n      0x32\n        /* \"marketplace.sol\":2569:2573  _Tax */\n      dup2\n        /* \"marketplace.sol\":2569:2576  _Tax<50 */\n      lt\n        /* \"marketplace.sol\":2561:2577  require(_Tax<50) */\n      tag_198\n      jumpi\n      0x00\n      dup1\n      revert\n    tag_198:\n        /* \"marketplace.sol\":2593:2597  _Tax */\n      dup1\n        /* \"marketplace.sol\":2587:2590  tax */\n      0x07\n        /* \"marketplace.sol\":2587:2597  tax = _Tax */\n      dup2\n      swap1\n      sstore\n      pop\n        /* \"marketplace.sol\":2502:2604  function setTax(uint256 _Tax) external onlyOwner {... */\n      pop\n      jump\t// out\n        /* \"marketplace.sol\":301:326  address public LiquidPool */\n    tag_62:\n      0x02\n      0x00\n      swap1\n      sload\n      swap1\n      0x0100\n      exp\n      swap1\n      div\n      0xffffffffffffffffffffffffffffffffffffffff\n      and\n      dup2\n      jump\t// out\n        /* \"BEPPausable.sol\":870:994  function unpause() public onlyOwner whenPaused returns (bool) {... */\n    tag_66:\n        /* \"BEPPausable.sol\":926:930  bool */\n      0x00\n        /* \"BEPOwnable.sol\":1085:1094  isOwner() */\n      tag_200\n        /* \"BEPOwnable.sol\":1085:1092  isOwner */\n      tag_127\n        /* \"BEPOwnable.sol\":1085:1094  isOwner() */\n      jump\t// in\n    tag_200:\n        /* \"BEPOwnable.sol\":1077:1131  require(isOwner(), \"Ownable: caller is not the owner\") */\n      tag_201\n      jumpi\n      mload(0x40)\n      0x08c379a000000000000000000000000000000000000000000000000000000000\n      dup2\n      mstore\n      0x04\n      add\n      tag_202\n      swap1\n      tag_190\n      jump\t// in\n    tag_202:\n      mload(0x40)\n      dup1\n      swap2\n      sub\n      swap1\n      revert\n    tag_201:\n        /* \"BEPPausable.sol\":568:574  paused */\n      0x00\n      0x14\n      swap1\n      sload\n      swap1\n      0x0100\n      exp\n      swap1\n      div\n      0xff\n      and\n        /* \"BEPPausable.sol\":560:575  require(paused) */\n      tag_204\n      jumpi\n      0x00\n      dup1\n      revert\n    tag_204:\n        /* \"BEPPausable.sol\":947:952  false */\n      0x00\n        /* \"BEPPausable.sol\":938:944  paused */\n      dup1\n      0x14\n        /* \"BEPPausable.sol\":938:952  paused = false */\n      0x0100\n      exp\n      dup2\n      sload\n      dup2\n      0xff\n      mul\n      not\n      and\n      swap1\n      dup4\n      iszero\n      iszero\n      mul\n      or\n      swap1\n      sstore\n      pop\n        /* \"BEPPausable.sol\":963:972  Unpause() */\n      0x7805862f689e2f13df9f062ff482ad3ad112aca9e0847911ed832e158c525b33\n      mload(0x40)\n      mload(0x40)\n      dup1\n      swap2\n      sub\n      swap1\n      log1\n        /* \"BEPPausable.sol\":985:989  true */\n      0x01\n        /* \"BEPPausable.sol\":978:989  return true */\n      swap1\n      pop\n        /* \"BEPPausable.sol\":870:994  function unpause() public onlyOwner whenPaused returns (bool) {... */\n      swap1\n      jump\t// out\n        /* \"marketplace.sol\":2024:2207  function setShoseNFTContract(address _ShoseNFTContract) external onlyOwner {... */\n    tag_72:\n        /* \"BEPOwnable.sol\":1085:1094  isOwner() */\n      tag_207\n        /* \"BEPOwnable.sol\":1085:1092  isOwner */\n      tag_127\n        /* \"BEPOwnable.sol\":1085:1094  isOwner() */\n      jump\t// in\n    tag_207:\n        /* \"BEPOwnable.sol\":1077:1131  require(isOwner(), \"Ownable: caller is not the owner\") */\n      tag_208\n      jumpi\n      mload(0x40)\n      0x08c379a000000000000000000000000000000000000000000000000000000000\n      dup2\n      mstore\n      0x04\n      add\n      tag_209\n      swap1\n      tag_190\n      jump\t// in\n    tag_209:\n      mload(0x40)\n      dup1\n      swap2\n      sub\n      swap1\n      revert\n    tag_208:\n        /* \"marketplace.sol\":2128:2145  _ShoseNFTContract */\n      dup1\n        /* \"marketplace.sol\":2109:2125  ShoseNFTContract */\n      0x03\n      0x00\n        /* \"marketplace.sol\":2109:2145  ShoseNFTContract = _ShoseNFTContract */\n      0x0100\n      exp\n      dup2\n      sload\n      dup2\n      0xffffffffffffffffffffffffffffffffffffffff\n      mul\n      not\n      and\n      swap1\n      dup4\n      0xffffffffffffffffffffffffffffffffffffffff\n      and\n      mul\n      or\n      swap1\n      sstore\n      pop\n        /* \"marketplace.sol\":2160:2200  changeShoseNFTContract(ShoseNFTContract) */\n      0xb01e01d90e1da4079495db07c84276ef34a0ea39cd9be9c3844874eb35616e44\n        /* \"marketplace.sol\":2183:2199  ShoseNFTContract */\n      0x03\n      0x00\n      swap1\n      sload\n      swap1\n      0x0100\n      exp\n      swap1\n      div\n      0xffffffffffffffffffffffffffffffffffffffff\n      and\n        /* \"marketplace.sol\":2160:2200  changeShoseNFTContract(ShoseNFTContract) */\n      mload(0x40)\n      tag_211\n      swap2\n      swap1\n      tag_49\n      jump\t// in\n    tag_211:\n      mload(0x40)\n      dup1\n      swap2\n      sub\n      swap1\n      log1\n        /* \"marketplace.sol\":2024:2207  function setShoseNFTContract(address _ShoseNFTContract) external onlyOwner {... */\n      pop\n      jump\t// out\n        /* \"marketplace.sol\":8529:8669  function getBalanceToken(address token) public view virtual returns (uint256) {... */\n    tag_76:\n        /* \"marketplace.sol\":8598:8605  uint256 */\n      0x00\n        /* \"marketplace.sol\":8631:8636  token */\n      dup2\n        /* \"marketplace.sol\":8624:8647  IBEP20(token).balanceOf */\n      0xffffffffffffffffffffffffffffffffffffffff\n      and\n      0x70a08231\n        /* \"marketplace.sol\":8656:8660  this */\n      address\n        /* \"marketplace.sol\":8624:8662  IBEP20(token).balanceOf(address(this)) */\n      mload(0x40)\n      dup3\n      0xffffffff\n      and\n      0xe0\n      shl\n      dup2\n      mstore\n      0x04\n      add\n      tag_213\n      swap2\n      swap1\n      tag_49\n      jump\t// in\n    tag_213:\n      0x20\n      mload(0x40)\n      dup1\n      dup4\n      sub\n      dup2\n      dup7\n      dup1\n      extcodesize\n      iszero\n      dup1\n      iszero\n      tag_214\n      jumpi\n      0x00\n      dup1\n      revert\n    tag_214:\n      pop\n      gas\n      staticcall\n      iszero\n      dup1\n      iszero\n      tag_216\n      jumpi\n      returndatasize\n      0x00\n      dup1\n      returndatacopy\n      revert(0x00, returndatasize)\n    tag_216:\n      pop\n      pop\n      pop\n      pop\n      mload(0x40)\n      returndatasize\n      not(0x1f)\n      0x1f\n      dup3\n      add\n      and\n      dup3\n      add\n      dup1\n      0x40\n      mstore\n      pop\n      dup2\n      add\n      swap1\n      tag_217\n      swap2\n      swap1\n      tag_218\n      jump\t// in\n    tag_217:\n        /* \"marketplace.sol\":8617:8662  return IBEP20(token).balanceOf(address(this)) */\n      swap1\n      pop\n        /* \"marketplace.sol\":8529:8669  function getBalanceToken(address token) public view virtual returns (uint256) {... */\n      swap2\n      swap1\n      pop\n      jump\t// out\n        /* \"marketplace.sol\":4191:4559  function CancelSellVicShose(uint256 tokenId) external whenNotPaused {... */\n    tag_82:\n        /* \"BEPPausable.sol\":424:430  paused */\n      0x00\n      0x14\n      swap1\n      sload\n      swap1\n      0x0100\n      exp\n      swap1\n      div\n      0xff\n      and\n        /* \"BEPPausable.sol\":423:430  !paused */\n      iszero\n        /* \"BEPPausable.sol\":415:431  require(!paused) */\n      tag_220\n      jumpi\n      0x00\n      dup1\n      revert\n    tag_220:\n        /* \"marketplace.sol\":4298:4299  0 */\n      0x00\n        /* \"marketplace.sol\":4277:4286  shoseSell */\n      0x0a\n        /* \"marketplace.sol\":4277:4295  shoseSell[tokenId] */\n      0x00\n        /* \"marketplace.sol\":4287:4294  tokenId */\n      dup4\n        /* \"marketplace.sol\":4277:4295  shoseSell[tokenId] */\n      dup2\n      mstore\n      0x20\n      add\n      swap1\n      dup2\n      mstore\n      0x20\n      add\n      0x00\n      keccak256\n      sload\n        /* \"marketplace.sol\":4277:4299  shoseSell[tokenId] > 0 */\n      gt\n        /* \"marketplace.sol\":4269:4323  require(shoseSell[tokenId] > 0,\"VicShose not in sell\") */\n      tag_222\n      jumpi\n      mload(0x40)\n      0x08c379a000000000000000000000000000000000000000000000000000000000\n      dup2\n      mstore\n      0x04\n      add\n      tag_223\n      swap1\n      tag_224\n      jump\t// in\n    tag_223:\n      mload(0x40)\n      dup1\n      swap2\n      sub\n      swap1\n      revert\n    tag_222:\n        /* \"marketplace.sol\":4333:4347  address seller */\n      0x00\n        /* \"marketplace.sol\":4350:4360  msg.sender */\n      caller\n        /* \"marketplace.sol\":4333:4360  address seller = msg.sender */\n      swap1\n      pop\n        /* \"marketplace.sol\":4434:4440  seller */\n      dup1\n        /* \"marketplace.sol\":4378:4440  IERC721Enumerable(ShoseNFTContract).ownerOf(tokenId) == seller */\n      0xffffffffffffffffffffffffffffffffffffffff\n      and\n        /* \"marketplace.sol\":4396:4412  ShoseNFTContract */\n      0x03\n      0x00\n      swap1\n      sload\n      swap1\n      0x0100\n      exp\n      swap1\n      div\n      0xffffffffffffffffffffffffffffffffffffffff\n      and\n        /* \"marketplace.sol\":4378:4421  IERC721Enumerable(ShoseNFTContract).ownerOf */\n      0xffffffffffffffffffffffffffffffffffffffff\n      and\n      0x6352211e\n        /* \"marketplace.sol\":4422:4429  tokenId */\n      dup5\n        /* \"marketplace.sol\":4378:4430  IERC721Enumerable(ShoseNFTContract).ownerOf(tokenId) */\n      mload(0x40)\n      dup3\n      0xffffffff\n      and\n      0xe0\n      shl\n      dup2\n      mstore\n      0x04\n      add\n      tag_225\n      swap2\n      swap1\n      tag_78\n      jump\t// in\n    tag_225:\n      0x20\n      mload(0x40)\n      dup1\n      dup4\n      sub\n      dup2\n      dup7\n      dup1\n      extcodesize\n      iszero\n      dup1\n      iszero\n      tag_226\n      jumpi\n      0x00\n      dup1\n      revert\n    tag_226:\n      pop\n      gas\n      staticcall\n      iszero\n      dup1\n      iszero\n      tag_228\n      jumpi\n      returndatasize\n      0x00\n      dup1\n      returndatacopy\n      revert(0x00, returndatasize)\n    tag_228:\n      pop\n      pop\n      pop\n      pop\n      mload(0x40)\n      returndatasize\n      not(0x1f)\n      0x1f\n      dup3\n      add\n      and\n      dup3\n      add\n      dup1\n      0x40\n      mstore\n      pop\n      dup2\n      add\n      swap1\n      tag_229\n      swap2\n      swap1\n      tag_230\n      jump\t// in\n    tag_229:\n        /* \"marketplace.sol\":4378:4440  IERC721Enumerable(ShoseNFTContract).ownerOf(tokenId) == seller */\n      0xffffffffffffffffffffffffffffffffffffffff\n      and\n      eq\n        /* \"marketplace.sol\":4370:4473  require(IERC721Enumerable(ShoseNFTContract).ownerOf(tokenId) == seller,\"seller need have this tokenid\") */\n      tag_231\n      jumpi\n      mload(0x40)\n      0x08c379a000000000000000000000000000000000000000000000000000000000\n      dup2\n      mstore\n      0x04\n      add\n      tag_232\n      swap1\n      tag_233\n      jump\t// in\n    tag_232:\n      mload(0x40)\n      dup1\n      swap2\n      sub\n      swap1\n      revert\n    tag_231:\n        /* \"marketplace.sol\":4483:4505  removeNFTSell(tokenId) */\n      tag_234\n        /* \"marketplace.sol\":4497:4504  tokenId */\n      dup3\n        /* \"marketplace.sol\":4483:4496  removeNFTSell */\n      tag_235\n        /* \"marketplace.sol\":4483:4505  removeNFTSell(tokenId) */\n      jump\t// in\n    tag_234:\n        /* \"marketplace.sol\":4520:4552  eventCancelSellVicShose(tokenId) */\n      0xd4ceea0833ac36cc33c805e4f164dedb6d75e092a34e14083bbb87976befdecf\n        /* \"marketplace.sol\":4544:4551  tokenId */\n      dup3\n        /* \"marketplace.sol\":4520:4552  eventCancelSellVicShose(tokenId) */\n      mload(0x40)\n      tag_236\n      swap2\n      swap1\n      tag_78\n      jump\t// in\n    tag_236:\n      mload(0x40)\n      dup1\n      swap2\n      sub\n      swap1\n      log1\n        /* \"marketplace.sol\":4259:4559  {... */\n      pop\n        /* \"marketplace.sol\":4191:4559  function CancelSellVicShose(uint256 tokenId) external whenNotPaused {... */\n      pop\n      jump\t// out\n        /* \"marketplace.sol\":272:295  address public Treasury */\n    tag_85:\n      0x01\n      0x00\n      swap1\n      sload\n      swap1\n      0x0100\n      exp\n      swap1\n      div\n      0xffffffffffffffffffffffffffffffffffffffff\n      and\n      dup2\n      jump\t// out\n        /* \"marketplace.sol\":3494:3621  function checkShoseTranfer(uint256 tokenId) public view virtual returns (address) {... */\n    tag_90:\n        /* \"marketplace.sol\":3567:3574  address */\n      0x00\n        /* \"marketplace.sol\":3593:3605  shoseTranfer */\n      0x09\n        /* \"marketplace.sol\":3593:3614  shoseTranfer[tokenId] */\n      0x00\n        /* \"marketplace.sol\":3606:3613  tokenId */\n      dup4\n        /* \"marketplace.sol\":3593:3614  shoseTranfer[tokenId] */\n      dup2\n      mstore\n      0x20\n      add\n      swap1\n      dup2\n      mstore\n      0x20\n      add\n      0x00\n      keccak256\n      0x00\n      swap1\n      sload\n      swap1\n      0x0100\n      exp\n      swap1\n      div\n      0xffffffffffffffffffffffffffffffffffffffff\n      and\n        /* \"marketplace.sol\":3586:3614  return shoseTranfer[tokenId] */\n      swap1\n      pop\n        /* \"marketplace.sol\":3494:3621  function checkShoseTranfer(uint256 tokenId) public view virtual returns (address) {... */\n      swap2\n      swap1\n      pop\n      jump\t// out\n        /* \"BEPPausable.sol\":272:298  bool public paused = false */\n    tag_94:\n      0x00\n      0x14\n      swap1\n      sload\n      swap1\n      0x0100\n      exp\n      swap1\n      div\n      0xff\n      and\n      dup2\n      jump\t// out\n        /* \"marketplace.sol\":2958:3489  function transferVicShose(address to,uint256 tokenId) external whenNotPaused {... */\n    tag_100:\n        /* \"BEPPausable.sol\":424:430  paused */\n      0x00\n      0x14\n      swap1\n      sload\n      swap1\n      0x0100\n      exp\n      swap1\n      div\n      0xff\n      and\n        /* \"BEPPausable.sol\":423:430  !paused */\n      iszero\n        /* \"BEPPausable.sol\":415:431  require(!paused) */\n      tag_239\n      jumpi\n      0x00\n      dup1\n      revert\n    tag_239:\n        /* \"marketplace.sol\":3045:3057  address from */\n      0x00\n        /* \"marketplace.sol\":3060:3070  msg.sender */\n      caller\n        /* \"marketplace.sol\":3045:3070  address from = msg.sender */\n      swap1\n      pop\n        /* \"marketplace.sol\":3106:3122  ShoseNFTContract */\n      0x03\n      0x00\n      swap1\n      sload\n      swap1\n      0x0100\n      exp\n      swap1\n      div\n      0xffffffffffffffffffffffffffffffffffffffff\n      and\n        /* \"marketplace.sol\":3088:3140  IERC721Enumerable(ShoseNFTContract).isApprovedForAll */\n      0xffffffffffffffffffffffffffffffffffffffff\n      and\n      0xe985e9c5\n        /* \"marketplace.sol\":3141:3145  from */\n      dup3\n        /* \"marketplace.sol\":3154:3158  this */\n      address\n        /* \"marketplace.sol\":3088:3160  IERC721Enumerable(ShoseNFTContract).isApprovedForAll(from,address(this)) */\n      mload(0x40)\n      dup4\n      0xffffffff\n      and\n      0xe0\n      shl\n      dup2\n      mstore\n      0x04\n      add\n      tag_241\n      swap3\n      swap2\n      swap1\n      tag_242\n      jump\t// in\n    tag_241:\n      0x20\n      mload(0x40)\n      dup1\n      dup4\n      sub\n      dup2\n      dup7\n      dup1\n      extcodesize\n      iszero\n      dup1\n      iszero\n      tag_243\n      jumpi\n      0x00\n      dup1\n      revert\n    tag_243:\n      pop\n      gas\n      staticcall\n      iszero\n      dup1\n      iszero\n      tag_245\n      jumpi\n      returndatasize\n      0x00\n      dup1\n      returndatacopy\n      revert(0x00, returndatasize)\n    tag_245:\n      pop\n      pop\n      pop\n      pop\n      mload(0x40)\n      returndatasize\n      not(0x1f)\n      0x1f\n      dup3\n      add\n      and\n      dup3\n      add\n      dup1\n      0x40\n      mstore\n      pop\n      dup2\n      add\n      swap1\n      tag_246\n      swap2\n      swap1\n      tag_247\n      jump\t// in\n    tag_246:\n        /* \"marketplace.sol\":3080:3204  require(IERC721Enumerable(ShoseNFTContract).isApprovedForAll(from,address(this)),\"You need Approve For All to this contact\") */\n      tag_248\n      jumpi\n      mload(0x40)\n      0x08c379a000000000000000000000000000000000000000000000000000000000\n      dup2\n      mstore\n      0x04\n      add\n      tag_249\n      swap1\n      tag_250\n      jump\t// in\n    tag_249:\n      mload(0x40)\n      dup1\n      swap2\n      sub\n      swap1\n      revert\n    tag_248:\n        /* \"marketplace.sol\":3236:3237  0 */\n      0x00\n        /* \"marketplace.sol\":3222:3238  to != address(0) */\n      0xffffffffffffffffffffffffffffffffffffffff\n      and\n        /* \"marketplace.sol\":3222:3224  to */\n      dup4\n        /* \"marketplace.sol\":3222:3238  to != address(0) */\n      0xffffffffffffffffffffffffffffffffffffffff\n      and\n      eq\n      iszero\n        /* \"marketplace.sol\":3214:3262  require(to != address(0),\"Address can not zero\") */\n      tag_251\n      jumpi\n      mload(0x40)\n      0x08c379a000000000000000000000000000000000000000000000000000000000\n      dup2\n      mstore\n      0x04\n      add\n      tag_252\n      swap1\n      tag_253\n      jump\t// in\n    tag_252:\n      mload(0x40)\n      dup1\n      swap2\n      sub\n      swap1\n      revert\n    tag_251:\n        /* \"marketplace.sol\":3286:3290  from */\n      dup1\n        /* \"marketplace.sol\":3280:3290  to != from */\n      0xffffffffffffffffffffffffffffffffffffffff\n      and\n        /* \"marketplace.sol\":3280:3282  to */\n      dup4\n        /* \"marketplace.sol\":3280:3290  to != from */\n      0xffffffffffffffffffffffffffffffffffffffff\n      and\n      eq\n      iszero\n        /* \"marketplace.sol\":3272:3318  require(to != from,\"From and To can not same\") */\n      tag_254\n      jumpi\n      mload(0x40)\n      0x08c379a000000000000000000000000000000000000000000000000000000000\n      dup2\n      mstore\n      0x04\n      add\n      tag_255\n      swap1\n      tag_256\n      jump\t// in\n    tag_255:\n      mload(0x40)\n      dup1\n      swap2\n      sub\n      swap1\n      revert\n    tag_254:\n        /* \"marketplace.sol\":3346:3362  ShoseNFTContract */\n      0x03\n      0x00\n      swap1\n      sload\n      swap1\n      0x0100\n      exp\n      swap1\n      div\n      0xffffffffffffffffffffffffffffffffffffffff\n      and\n        /* \"marketplace.sol\":3328:3380  IERC721Enumerable(ShoseNFTContract).safeTransferFrom */\n      0xffffffffffffffffffffffffffffffffffffffff\n      and\n      0x42842e0e\n        /* \"marketplace.sol\":3381:3385  from */\n      dup3\n        /* \"marketplace.sol\":3387:3389  to */\n      dup6\n        /* \"marketplace.sol\":3390:3397  tokenId */\n      dup6\n        /* \"marketplace.sol\":3328:3398  IERC721Enumerable(ShoseNFTContract).safeTransferFrom(from, to,tokenId) */\n      mload(0x40)\n      dup5\n      0xffffffff\n      and\n      0xe0\n      shl\n      dup2\n      mstore\n      0x04\n      add\n      tag_257\n      swap4\n      swap3\n      swap2\n      swap1\n      tag_258\n      jump\t// in\n    tag_257:\n      0x00\n      mload(0x40)\n      dup1\n      dup4\n      sub\n      dup2\n      0x00\n      dup8\n      dup1\n      extcodesize\n      iszero\n      dup1\n      iszero\n      tag_259\n      jumpi\n      0x00\n      dup1\n      revert\n    tag_259:\n      pop\n      gas\n      call\n      iszero\n      dup1\n      iszero\n      tag_261\n      jumpi\n      returndatasize\n      0x00\n      dup1\n      returndatacopy\n      revert(0x00, returndatasize)\n    tag_261:\n      pop\n      pop\n      pop\n      pop\n        /* \"marketplace.sol\":3432:3434  to */\n      dup3\n        /* \"marketplace.sol\":3408:3420  shoseTranfer */\n      0x09\n        /* \"marketplace.sol\":3408:3429  shoseTranfer[tokenId] */\n      0x00\n        /* \"marketplace.sol\":3421:3428  tokenId */\n      dup5\n        /* \"marketplace.sol\":3408:3429  shoseTranfer[tokenId] */\n      dup2\n      mstore\n      0x20\n      add\n      swap1\n      dup2\n      mstore\n      0x20\n      add\n      0x00\n      keccak256\n      0x00\n        /* \"marketplace.sol\":3408:3434  shoseTranfer[tokenId] = to */\n      0x0100\n      exp\n      dup2\n      sload\n      dup2\n      0xffffffffffffffffffffffffffffffffffffffff\n      mul\n      not\n      and\n      swap1\n      dup4\n      0xffffffffffffffffffffffffffffffffffffffff\n      and\n      mul\n      or\n      swap1\n      sstore\n      pop\n        /* \"marketplace.sol\":3449:3482  eventtransferVicShose(to,tokenId) */\n      0x2a422da7e70b3ca41064be14c50b74a43cbbef24634fa3b7e90d120b8ecc08b3\n        /* \"marketplace.sol\":3471:3473  to */\n      dup4\n        /* \"marketplace.sol\":3474:3481  tokenId */\n      dup4\n        /* \"marketplace.sol\":3449:3482  eventtransferVicShose(to,tokenId) */\n      mload(0x40)\n      tag_262\n      swap3\n      swap2\n      swap1\n      tag_263\n      jump\t// in\n    tag_262:\n      mload(0x40)\n      dup1\n      swap2\n      sub\n      swap1\n      log1\n        /* \"marketplace.sol\":3035:3489  {... */\n      pop\n        /* \"marketplace.sol\":2958:3489  function transferVicShose(address to,uint256 tokenId) external whenNotPaused {... */\n      pop\n      pop\n      jump\t// out\n        /* \"BEPOwnable.sol\":1630:1757  function renounceOwnership() public onlyOwner {... */\n    tag_103:\n        /* \"BEPOwnable.sol\":1085:1094  isOwner() */\n      tag_265\n        /* \"BEPOwnable.sol\":1085:1092  isOwner */\n      tag_127\n        /* \"BEPOwnable.sol\":1085:1094  isOwner() */\n      jump\t// in\n    tag_265:\n        /* \"BEPOwnable.sol\":1077:1131  require(isOwner(), \"Ownable: caller is not the owner\") */\n      tag_266\n      jumpi\n      mload(0x40)\n      0x08c379a000000000000000000000000000000000000000000000000000000000\n      dup2\n      mstore\n      0x04\n      add\n      tag_267\n      swap1\n      tag_190\n      jump\t// in\n    tag_267:\n      mload(0x40)\n      dup1\n      swap2\n      sub\n      swap1\n      revert\n    tag_266:\n        /* \"BEPOwnable.sol\":1724:1725  0 */\n      0x00\n        /* \"BEPOwnable.sol\":1687:1727  OwnershipTransferred(_owner, address(0)) */\n      0xffffffffffffffffffffffffffffffffffffffff\n      and\n        /* \"BEPOwnable.sol\":1708:1714  _owner */\n      0x00\n      dup1\n      sload\n      swap1\n      0x0100\n      exp\n      swap1\n      div\n      0xffffffffffffffffffffffffffffffffffffffff\n      and\n        /* \"BEPOwnable.sol\":1687:1727  OwnershipTransferred(_owner, address(0)) */\n      0xffffffffffffffffffffffffffffffffffffffff\n      and\n      0x8be0079c531659141344cd1fd0a4f28419497f9722a3daafe3b4186f6b6457e0\n      mload(0x40)\n      mload(0x40)\n      dup1\n      swap2\n      sub\n      swap1\n      log3\n        /* \"BEPOwnable.sol\":1750:1751  0 */\n      0x00\n        /* \"BEPOwnable.sol\":1733:1739  _owner */\n      dup1\n      0x00\n        /* \"BEPOwnable.sol\":1733:1752  _owner = address(0) */\n      0x0100\n      exp\n      dup2\n      sload\n      dup2\n      0xffffffffffffffffffffffffffffffffffffffff\n      mul\n      not\n      and\n      swap1\n      dup4\n      0xffffffffffffffffffffffffffffffffffffffff\n      and\n      mul\n      or\n      swap1\n      sstore\n      pop\n        /* \"BEPOwnable.sol\":1630:1757  function renounceOwnership() public onlyOwner {... */\n      jump\t// out\n        /* \"marketplace.sol\":4565:6618  function BuyVicShose(uint256 tokenId) external whenNotPaused {... */\n    tag_107:\n        /* \"BEPPausable.sol\":424:430  paused */\n      0x00\n      0x14\n      swap1\n      sload\n      swap1\n      0x0100\n      exp\n      swap1\n      div\n      0xff\n      and\n        /* \"BEPPausable.sol\":423:430  !paused */\n      iszero\n        /* \"BEPPausable.sol\":415:431  require(!paused) */\n      tag_270\n      jumpi\n      0x00\n      dup1\n      revert\n    tag_270:\n        /* \"marketplace.sol\":4636:4650  address seller */\n      0x00\n        /* \"marketplace.sol\":4653:4664  shoseSeller */\n      0x0b\n        /* \"marketplace.sol\":4653:4673  shoseSeller[tokenId] */\n      0x00\n        /* \"marketplace.sol\":4665:4672  tokenId */\n      dup4\n        /* \"marketplace.sol\":4653:4673  shoseSeller[tokenId] */\n      dup2\n      mstore\n      0x20\n      add\n      swap1\n      dup2\n      mstore\n      0x20\n      add\n      0x00\n      keccak256\n      0x00\n      swap1\n      sload\n      swap1\n      0x0100\n      exp\n      swap1\n      div\n      0xffffffffffffffffffffffffffffffffffffffff\n      and\n        /* \"marketplace.sol\":4636:4673  address seller = shoseSeller[tokenId] */\n      swap1\n      pop\n        /* \"marketplace.sol\":4712:4713  0 */\n      0x00\n        /* \"marketplace.sol\":4691:4700  shoseSell */\n      0x0a\n        /* \"marketplace.sol\":4691:4709  shoseSell[tokenId] */\n      0x00\n        /* \"marketplace.sol\":4701:4708  tokenId */\n      dup5\n        /* \"marketplace.sol\":4691:4709  shoseSell[tokenId] */\n      dup2\n      mstore\n      0x20\n      add\n      swap1\n      dup2\n      mstore\n      0x20\n      add\n      0x00\n      keccak256\n      sload\n        /* \"marketplace.sol\":4691:4713  shoseSell[tokenId] > 0 */\n      gt\n        /* \"marketplace.sol\":4683:4737  require(shoseSell[tokenId] > 0,\"VicShose not in sell\") */\n      tag_272\n      jumpi\n      mload(0x40)\n      0x08c379a000000000000000000000000000000000000000000000000000000000\n      dup2\n      mstore\n      0x04\n      add\n      tag_273\n      swap1\n      tag_224\n      jump\t// in\n    tag_273:\n      mload(0x40)\n      dup1\n      swap2\n      sub\n      swap1\n      revert\n    tag_272:\n        /* \"marketplace.sol\":4840:4846  seller */\n      dup1\n        /* \"marketplace.sol\":4784:4846  IERC721Enumerable(ShoseNFTContract).ownerOf(tokenId) == seller */\n      0xffffffffffffffffffffffffffffffffffffffff\n      and\n        /* \"marketplace.sol\":4802:4818  ShoseNFTContract */\n      0x03\n      0x00\n      swap1\n      sload\n      swap1\n      0x0100\n      exp\n      swap1\n      div\n      0xffffffffffffffffffffffffffffffffffffffff\n      and\n        /* \"marketplace.sol\":4784:4827  IERC721Enumerable(ShoseNFTContract).ownerOf */\n      0xffffffffffffffffffffffffffffffffffffffff\n      and\n      0x6352211e\n        /* \"marketplace.sol\":4828:4835  tokenId */\n      dup5\n        /* \"marketplace.sol\":4784:4836  IERC721Enumerable(ShoseNFTContract).ownerOf(tokenId) */\n      mload(0x40)\n      dup3\n      0xffffffff\n      and\n      0xe0\n      shl\n      dup2\n      mstore\n      0x04\n      add\n      tag_274\n      swap2\n      swap1\n      tag_78\n      jump\t// in\n    tag_274:\n      0x20\n      mload(0x40)\n      dup1\n      dup4\n      sub\n      dup2\n      dup7\n      dup1\n      extcodesize\n      iszero\n      dup1\n      iszero\n      tag_275\n      jumpi\n      0x00\n      dup1\n      revert\n    tag_275:\n      pop\n      gas\n      staticcall\n      iszero\n      dup1\n      iszero\n      tag_277\n      jumpi\n      returndatasize\n      0x00\n      dup1\n      returndatacopy\n      revert(0x00, returndatasize)\n    tag_277:\n      pop\n      pop\n      pop\n      pop\n      mload(0x40)\n      returndatasize\n      not(0x1f)\n      0x1f\n      dup3\n      add\n      and\n      dup3\n      add\n      dup1\n      0x40\n      mstore\n      pop\n      dup2\n      add\n      swap1\n      tag_278\n      swap2\n      swap1\n      tag_230\n      jump\t// in\n    tag_278:\n        /* \"marketplace.sol\":4784:4846  IERC721Enumerable(ShoseNFTContract).ownerOf(tokenId) == seller */\n      0xffffffffffffffffffffffffffffffffffffffff\n      and\n      eq\n        /* \"marketplace.sol\":4776:4879  require(IERC721Enumerable(ShoseNFTContract).ownerOf(tokenId) == seller,\"seller need have this tokenid\") */\n      tag_279\n      jumpi\n      mload(0x40)\n      0x08c379a000000000000000000000000000000000000000000000000000000000\n      dup2\n      mstore\n      0x04\n      add\n      tag_280\n      swap1\n      tag_233\n      jump\t// in\n    tag_280:\n      mload(0x40)\n      dup1\n      swap2\n      sub\n      swap1\n      revert\n    tag_279:\n        /* \"marketplace.sol\":4966:4982  ShoseNFTContract */\n      0x03\n      0x00\n      swap1\n      sload\n      swap1\n      0x0100\n      exp\n      swap1\n      div\n      0xffffffffffffffffffffffffffffffffffffffff\n      and\n        /* \"marketplace.sol\":4948:5000  IERC721Enumerable(ShoseNFTContract).isApprovedForAll */\n      0xffffffffffffffffffffffffffffffffffffffff\n      and\n      0xe985e9c5\n        /* \"marketplace.sol\":5001:5007  seller */\n      dup3\n        /* \"marketplace.sol\":5016:5020  this */\n      address\n        /* \"marketplace.sol\":4948:5022  IERC721Enumerable(ShoseNFTContract).isApprovedForAll(seller,address(this)) */\n      mload(0x40)\n      dup4\n      0xffffffff\n      and\n      0xe0\n      shl\n      dup2\n      mstore\n      0x04\n      add\n      tag_281\n      swap3\n      swap2\n      swap1\n      tag_242\n      jump\t// in\n    tag_281:\n      0x20\n      mload(0x40)\n      dup1\n      dup4\n      sub\n      dup2\n      dup7\n      dup1\n      extcodesize\n      iszero\n      dup1\n      iszero\n      tag_282\n      jumpi\n      0x00\n      dup1\n      revert\n    tag_282:\n      pop\n      gas\n      staticcall\n      iszero\n      dup1\n      iszero\n      tag_284\n      jumpi\n      returndatasize\n      0x00\n      dup1\n      returndatacopy\n      revert(0x00, returndatasize)\n    tag_284:\n      pop\n      pop\n      pop\n      pop\n      mload(0x40)\n      returndatasize\n      not(0x1f)\n      0x1f\n      dup3\n      add\n      and\n      dup3\n      add\n      dup1\n      0x40\n      mstore\n      pop\n      dup2\n      add\n      swap1\n      tag_285\n      swap2\n      swap1\n      tag_247\n      jump\t// in\n    tag_285:\n        /* \"marketplace.sol\":4940:5066  require(IERC721Enumerable(ShoseNFTContract).isApprovedForAll(seller,address(this)),\"You need Approve For All to this contact\") */\n      tag_286\n      jumpi\n      mload(0x40)\n      0x08c379a000000000000000000000000000000000000000000000000000000000\n      dup2\n      mstore\n      0x04\n      add\n      tag_287\n      swap1\n      tag_250\n      jump\t// in\n    tag_287:\n      mload(0x40)\n      dup1\n      swap2\n      sub\n      swap1\n      revert\n    tag_286:\n        /* \"marketplace.sol\":5076:5089  address buyer */\n      0x00\n        /* \"marketplace.sol\":5092:5102  msg.sender */\n      caller\n        /* \"marketplace.sol\":5076:5102  address buyer = msg.sender */\n      swap1\n      pop\n        /* \"marketplace.sol\":5112:5128  uint256 minprice */\n      0x00\n        /* \"marketplace.sol\":5131:5144  getMINPrice() */\n      tag_288\n        /* \"marketplace.sol\":5131:5142  getMINPrice */\n      tag_176\n        /* \"marketplace.sol\":5131:5144  getMINPrice() */\n      jump\t// in\n    tag_288:\n        /* \"marketplace.sol\":5112:5144  uint256 minprice = getMINPrice() */\n      swap1\n      pop\n        /* \"marketplace.sol\":5154:5170  uint256 buyPrice */\n      0x00\n        /* \"marketplace.sol\":5173:5181  minprice */\n      dup2\n        /* \"marketplace.sol\":5154:5181  uint256 buyPrice = minprice */\n      swap1\n      pop\n        /* \"marketplace.sol\":5191:5208  uint256 sellPrice */\n      0x00\n        /* \"marketplace.sol\":5211:5220  shoseSell */\n      0x0a\n        /* \"marketplace.sol\":5211:5229  shoseSell[tokenId] */\n      0x00\n        /* \"marketplace.sol\":5221:5228  tokenId */\n      dup8\n        /* \"marketplace.sol\":5211:5229  shoseSell[tokenId] */\n      dup2\n      mstore\n      0x20\n      add\n      swap1\n      dup2\n      mstore\n      0x20\n      add\n      0x00\n      keccak256\n      sload\n        /* \"marketplace.sol\":5191:5229  uint256 sellPrice = shoseSell[tokenId] */\n      swap1\n      pop\n        /* \"marketplace.sol\":5254:5262  minprice */\n      dup3\n        /* \"marketplace.sol\":5242:5251  sellPrice */\n      dup2\n        /* \"marketplace.sol\":5242:5262  sellPrice > minprice */\n      gt\n        /* \"marketplace.sol\":5239:5308  if(sellPrice > minprice){... */\n      iszero\n      tag_289\n      jumpi\n        /* \"marketplace.sol\":5288:5297  sellPrice */\n      dup1\n        /* \"marketplace.sol\":5277:5297  buyPrice = sellPrice */\n      swap2\n      pop\n        /* \"marketplace.sol\":5239:5308  if(sellPrice > minprice){... */\n    tag_289:\n        /* \"marketplace.sol\":5379:5387  buyPrice */\n      dup2\n        /* \"marketplace.sol\":5332:5343  VIMContract */\n      0x04\n      0x00\n      swap1\n      sload\n      swap1\n      0x0100\n      exp\n      swap1\n      div\n      0xffffffffffffffffffffffffffffffffffffffff\n      and\n        /* \"marketplace.sol\":5325:5354  IBEP20(VIMContract).allowance */\n      0xffffffffffffffffffffffffffffffffffffffff\n      and\n      0xdd62ed3e\n        /* \"marketplace.sol\":5355:5360  buyer */\n      dup7\n        /* \"marketplace.sol\":5369:5373  this */\n      address\n        /* \"marketplace.sol\":5325:5375  IBEP20(VIMContract).allowance(buyer,address(this)) */\n      mload(0x40)\n      dup4\n      0xffffffff\n      and\n      0xe0\n      shl\n      dup2\n      mstore\n      0x04\n      add\n      tag_290\n      swap3\n      swap2\n      swap1\n      tag_242\n      jump\t// in\n    tag_290:\n      0x20\n      mload(0x40)\n      dup1\n      dup4\n      sub\n      dup2\n      dup7\n      dup1\n      extcodesize\n      iszero\n      dup1\n      iszero\n      tag_291\n      jumpi\n      0x00\n      dup1\n      revert\n    tag_291:\n      pop\n      gas\n      staticcall\n      iszero\n      dup1\n      iszero\n      tag_293\n      jumpi\n      returndatasize\n      0x00\n      dup1\n      returndatacopy\n      revert(0x00, returndatasize)\n    tag_293:\n      pop\n      pop\n      pop\n      pop\n      mload(0x40)\n      returndatasize\n      not(0x1f)\n      0x1f\n      dup3\n      add\n      and\n      dup3\n      add\n      dup1\n      0x40\n      mstore\n      pop\n      dup2\n      add\n      swap1\n      tag_294\n      swap2\n      swap1\n      tag_218\n      jump\t// in\n    tag_294:\n        /* \"marketplace.sol\":5325:5387  IBEP20(VIMContract).allowance(buyer,address(this)) >= buyPrice */\n      lt\n      iszero\n        /* \"marketplace.sol\":5317:5462  require(IBEP20(VIMContract).allowance(buyer,address(this)) >= buyPrice,\"The money allowed is not enough to buy shoes. You need approve more VIM\") */\n      tag_295\n      jumpi\n      mload(0x40)\n      0x08c379a000000000000000000000000000000000000000000000000000000000\n      dup2\n      mstore\n      0x04\n      add\n      tag_296\n      swap1\n      tag_297\n      jump\t// in\n    tag_296:\n      mload(0x40)\n      dup1\n      swap2\n      sub\n      swap1\n      revert\n    tag_295:\n        /* \"marketplace.sol\":5598:5614  ShoseNFTContract */\n      0x03\n      0x00\n      swap1\n      sload\n      swap1\n      0x0100\n      exp\n      swap1\n      div\n      0xffffffffffffffffffffffffffffffffffffffff\n      and\n        /* \"marketplace.sol\":5580:5632  IERC721Enumerable(ShoseNFTContract).safeTransferFrom */\n      0xffffffffffffffffffffffffffffffffffffffff\n      and\n      0x42842e0e\n        /* \"marketplace.sol\":5633:5639  seller */\n      dup7\n        /* \"marketplace.sol\":5648:5652  this */\n      address\n        /* \"marketplace.sol\":5655:5662  tokenId */\n      dup10\n        /* \"marketplace.sol\":5580:5663  IERC721Enumerable(ShoseNFTContract).safeTransferFrom(seller,address(this), tokenId) */\n      mload(0x40)\n      dup5\n      0xffffffff\n      and\n      0xe0\n      shl\n      dup2\n      mstore\n      0x04\n      add\n      tag_298\n      swap4\n      swap3\n      swap2\n      swap1\n      tag_258\n      jump\t// in\n    tag_298:\n      0x00\n      mload(0x40)\n      dup1\n      dup4\n      sub\n      dup2\n      0x00\n      dup8\n      dup1\n      extcodesize\n      iszero\n      dup1\n      iszero\n      tag_299\n      jumpi\n      0x00\n      dup1\n      revert\n    tag_299:\n      pop\n      gas\n      call\n      iszero\n      dup1\n      iszero\n      tag_301\n      jumpi\n      returndatasize\n      0x00\n      dup1\n      returndatacopy\n      revert(0x00, returndatasize)\n    tag_301:\n      pop\n      pop\n      pop\n      pop\n        /* \"marketplace.sol\":5713:5724  VIMContract */\n      0x04\n      0x00\n      swap1\n      sload\n      swap1\n      0x0100\n      exp\n      swap1\n      div\n      0xffffffffffffffffffffffffffffffffffffffff\n      and\n        /* \"marketplace.sol\":5706:5738  IBEP20(VIMContract).transferFrom */\n      0xffffffffffffffffffffffffffffffffffffffff\n      and\n      0x23b872dd\n        /* \"marketplace.sol\":5739:5744  buyer */\n      dup6\n        /* \"marketplace.sol\":5753:5757  this */\n      address\n        /* \"marketplace.sol\":5759:5767  buyPrice */\n      dup6\n        /* \"marketplace.sol\":5706:5768  IBEP20(VIMContract).transferFrom(buyer,address(this),buyPrice) */\n      mload(0x40)\n      dup5\n      0xffffffff\n      and\n      0xe0\n      shl\n      dup2\n      mstore\n      0x04\n      add\n      tag_302\n      swap4\n      swap3\n      swap2\n      swap1\n      tag_258\n      jump\t// in\n    tag_302:\n      0x20\n      mload(0x40)\n      dup1\n      dup4\n      sub\n      dup2\n      0x00\n      dup8\n      dup1\n      extcodesize\n      iszero\n      dup1\n      iszero\n      tag_303\n      jumpi\n      0x00\n      dup1\n      revert\n    tag_303:\n      pop\n      gas\n      call\n      iszero\n      dup1\n      iszero\n      tag_305\n      jumpi\n      returndatasize\n      0x00\n      dup1\n      returndatacopy\n      revert(0x00, returndatasize)\n    tag_305:\n      pop\n      pop\n      pop\n      pop\n      mload(0x40)\n      returndatasize\n      not(0x1f)\n      0x1f\n      dup3\n      add\n      and\n      dup3\n      add\n      dup1\n      0x40\n      mstore\n      pop\n      dup2\n      add\n      swap1\n      tag_306\n      swap2\n      swap1\n      tag_247\n      jump\t// in\n    tag_306:\n      pop\n        /* \"marketplace.sol\":5827:5843  ShoseNFTContract */\n      0x03\n      0x00\n      swap1\n      sload\n      swap1\n      0x0100\n      exp\n      swap1\n      div\n      0xffffffffffffffffffffffffffffffffffffffff\n      and\n        /* \"marketplace.sol\":5809:5861  IERC721Enumerable(ShoseNFTContract).safeTransferFrom */\n      0xffffffffffffffffffffffffffffffffffffffff\n      and\n      0x42842e0e\n        /* \"marketplace.sol\":5870:5874  this */\n      address\n        /* \"marketplace.sol\":5876:5881  buyer */\n      dup7\n        /* \"marketplace.sol\":5883:5890  tokenId */\n      dup10\n        /* \"marketplace.sol\":5809:5891  IERC721Enumerable(ShoseNFTContract).safeTransferFrom(address(this),buyer, tokenId) */\n      mload(0x40)\n      dup5\n      0xffffffff\n      and\n      0xe0\n      shl\n      dup2\n      mstore\n      0x04\n      add\n      tag_307\n      swap4\n      swap3\n      swap2\n      swap1\n      tag_258\n      jump\t// in\n    tag_307:\n      0x00\n      mload(0x40)\n      dup1\n      dup4\n      sub\n      dup2\n      0x00\n      dup8\n      dup1\n      extcodesize\n      iszero\n      dup1\n      iszero\n      tag_308\n      jumpi\n      0x00\n      dup1\n      revert\n    tag_308:\n      pop\n      gas\n      call\n      iszero\n      dup1\n      iszero\n      tag_310\n      jumpi\n      returndatasize\n      0x00\n      dup1\n      returndatacopy\n      revert(0x00, returndatasize)\n    tag_310:\n      pop\n      pop\n      pop\n      pop\n        /* \"marketplace.sol\":5966:5977  uint256 fee */\n      0x00\n        /* \"marketplace.sol\":6026:6029  100 */\n      0x64\n        /* \"marketplace.sol\":6021:6024  tax */\n      sload(0x07)\n        /* \"marketplace.sol\":6017:6020  100 */\n      0x64\n        /* \"marketplace.sol\":6017:6024  100-tax */\n      tag_311\n      swap2\n      swap1\n      tag_312\n      jump\t// in\n    tag_311:\n        /* \"marketplace.sol\":6007:6015  minprice */\n      dup6\n        /* \"marketplace.sol\":6007:6025  minprice*(100-tax) */\n      tag_313\n      swap2\n      swap1\n      tag_314\n      jump\t// in\n    tag_313:\n        /* \"marketplace.sol\":6007:6029  minprice*(100-tax)/100 */\n      tag_315\n      swap2\n      swap1\n      tag_316\n      jump\t// in\n    tag_315:\n        /* \"marketplace.sol\":5994:6003  sellPrice */\n      dup3\n        /* \"marketplace.sol\":5994:6029  sellPrice >= minprice*(100-tax)/100 */\n      lt\n        /* \"marketplace.sol\":5991:6132  if(sellPrice >= minprice*(100-tax)/100){... */\n      tag_317\n      jumpi\n        /* \"marketplace.sol\":6063:6066  100 */\n      0x64\n        /* \"marketplace.sol\":6059:6062  tax */\n      sload(0x07)\n        /* \"marketplace.sol\":6050:6058  buyPrice */\n      dup5\n        /* \"marketplace.sol\":6050:6062  buyPrice*tax */\n      tag_318\n      swap2\n      swap1\n      tag_314\n      jump\t// in\n    tag_318:\n        /* \"marketplace.sol\":6050:6066  buyPrice*tax/100 */\n      tag_319\n      swap2\n      swap1\n      tag_316\n      jump\t// in\n    tag_319:\n        /* \"marketplace.sol\":6044:6066  fee = buyPrice*tax/100 */\n      swap1\n      pop\n        /* \"marketplace.sol\":5991:6132  if(sellPrice >= minprice*(100-tax)/100){... */\n      jump(tag_320)\n    tag_317:\n        /* \"marketplace.sol\":6112:6121  sellPrice */\n      dup2\n        /* \"marketplace.sol\":6101:6109  minprice */\n      dup5\n        /* \"marketplace.sol\":6101:6121  minprice - sellPrice */\n      tag_321\n      swap2\n      swap1\n      tag_312\n      jump\t// in\n    tag_321:\n        /* \"marketplace.sol\":6095:6121  fee = minprice - sellPrice */\n      swap1\n      pop\n        /* \"marketplace.sol\":5991:6132  if(sellPrice >= minprice*(100-tax)/100){... */\n    tag_320:\n        /* \"marketplace.sol\":6148:6159  VIMContract */\n      0x04\n      0x00\n      swap1\n      sload\n      swap1\n      0x0100\n      exp\n      swap1\n      div\n      0xffffffffffffffffffffffffffffffffffffffff\n      and\n        /* \"marketplace.sol\":6141:6173  IBEP20(VIMContract).transferFrom */\n      0xffffffffffffffffffffffffffffffffffffffff\n      and\n      0x23b872dd\n        /* \"marketplace.sol\":6182:6186  this */\n      address\n        /* \"marketplace.sol\":6188:6194  seller */\n      dup9\n        /* \"marketplace.sol\":6204:6207  fee */\n      dup5\n        /* \"marketplace.sol\":6195:6203  buyPrice */\n      dup8\n        /* \"marketplace.sol\":6195:6207  buyPrice-fee */\n      tag_322\n      swap2\n      swap1\n      tag_312\n      jump\t// in\n    tag_322:\n        /* \"marketplace.sol\":6141:6208  IBEP20(VIMContract).transferFrom(address(this),seller,buyPrice-fee) */\n      mload(0x40)\n      dup5\n      0xffffffff\n      and\n      0xe0\n      shl\n      dup2\n      mstore\n      0x04\n      add\n      tag_323\n      swap4\n      swap3\n      swap2\n      swap1\n      tag_258\n      jump\t// in\n    tag_323:\n      0x20\n      mload(0x40)\n      dup1\n      dup4\n      sub\n      dup2\n      0x00\n      dup8\n      dup1\n      extcodesize\n      iszero\n      dup1\n      iszero\n      tag_324\n      jumpi\n      0x00\n      dup1\n      revert\n    tag_324:\n      pop\n      gas\n      call\n      iszero\n      dup1\n      iszero\n      tag_326\n      jumpi\n      returndatasize\n      0x00\n      dup1\n      returndatacopy\n      revert(0x00, returndatasize)\n    tag_326:\n      pop\n      pop\n      pop\n      pop\n      mload(0x40)\n      returndatasize\n      not(0x1f)\n      0x1f\n      dup3\n      add\n      and\n      dup3\n      add\n      dup1\n      0x40\n      mstore\n      pop\n      dup2\n      add\n      swap1\n      tag_327\n      swap2\n      swap1\n      tag_247\n      jump\t// in\n    tag_327:\n      pop\n        /* \"marketplace.sol\":6284:6295  VIMContract */\n      0x04\n      0x00\n      swap1\n      sload\n      swap1\n      0x0100\n      exp\n      swap1\n      div\n      0xffffffffffffffffffffffffffffffffffffffff\n      and\n        /* \"marketplace.sol\":6277:6309  IBEP20(VIMContract).transferFrom */\n      0xffffffffffffffffffffffffffffffffffffffff\n      and\n      0x23b872dd\n        /* \"marketplace.sol\":6318:6322  this */\n      address\n        /* \"marketplace.sol\":6324:6332  Treasury */\n      0x01\n      0x00\n      swap1\n      sload\n      swap1\n      0x0100\n      exp\n      swap1\n      div\n      0xffffffffffffffffffffffffffffffffffffffff\n      and\n        /* \"marketplace.sol\":6333:6336  fee */\n      dup5\n        /* \"marketplace.sol\":6277:6337  IBEP20(VIMContract).transferFrom(address(this),Treasury,fee) */\n      mload(0x40)\n      dup5\n      0xffffffff\n      and\n      0xe0\n      shl\n      dup2\n      mstore\n      0x04\n      add\n      tag_328\n      swap4\n      swap3\n      swap2\n      swap1\n      tag_258\n      jump\t// in\n    tag_328:\n      0x20\n      mload(0x40)\n      dup1\n      dup4\n      sub\n      dup2\n      0x00\n      dup8\n      dup1\n      extcodesize\n      iszero\n      dup1\n      iszero\n      tag_329\n      jumpi\n      0x00\n      dup1\n      revert\n    tag_329:\n      pop\n      gas\n      call\n      iszero\n      dup1\n      iszero\n      tag_331\n      jumpi\n      returndatasize\n      0x00\n      dup1\n      returndatacopy\n      revert(0x00, returndatasize)\n    tag_331:\n      pop\n      pop\n      pop\n      pop\n      mload(0x40)\n      returndatasize\n      not(0x1f)\n      0x1f\n      dup3\n      add\n      and\n      dup3\n      add\n      dup1\n      0x40\n      mstore\n      pop\n      dup2\n      add\n      swap1\n      tag_332\n      swap2\n      swap1\n      tag_247\n      jump\t// in\n    tag_332:\n      pop\n        /* \"marketplace.sol\":6423:6428  buyer */\n      dup5\n        /* \"marketplace.sol\":6399:6411  shoseTranfer */\n      0x09\n        /* \"marketplace.sol\":6399:6420  shoseTranfer[tokenId] */\n      0x00\n        /* \"marketplace.sol\":6412:6419  tokenId */\n      dup10\n        /* \"marketplace.sol\":6399:6420  shoseTranfer[tokenId] */\n      dup2\n      mstore\n      0x20\n      add\n      swap1\n      dup2\n      mstore\n      0x20\n      add\n      0x00\n      keccak256\n      0x00\n        /* \"marketplace.sol\":6399:6428  shoseTranfer[tokenId] = buyer */\n      0x0100\n      exp\n      dup2\n      sload\n      dup2\n      0xffffffffffffffffffffffffffffffffffffffff\n      mul\n      not\n      and\n      swap1\n      dup4\n      0xffffffffffffffffffffffffffffffffffffffff\n      and\n      mul\n      or\n      swap1\n      sstore\n      pop\n        /* \"marketplace.sol\":6515:6537  removeNFTSell(tokenId) */\n      tag_333\n        /* \"marketplace.sol\":6529:6536  tokenId */\n      dup8\n        /* \"marketplace.sol\":6515:6528  removeNFTSell */\n      tag_235\n        /* \"marketplace.sol\":6515:6537  removeNFTSell(tokenId) */\n      jump\t// in\n    tag_333:\n        /* \"marketplace.sol\":6574:6599  eventBuyVicShose(tokenId) */\n      0x2b66287559b2a137ea3e7a6ab376630ef6165451c4d691bd218b503aa276f89d\n        /* \"marketplace.sol\":6591:6598  tokenId */\n      dup8\n        /* \"marketplace.sol\":6574:6599  eventBuyVicShose(tokenId) */\n      mload(0x40)\n      tag_334\n      swap2\n      swap1\n      tag_78\n      jump\t// in\n    tag_334:\n      mload(0x40)\n      dup1\n      swap2\n      sub\n      swap1\n      log1\n        /* \"marketplace.sol\":4626:6618  {... */\n      pop\n      pop\n      pop\n      pop\n      pop\n      pop\n        /* \"marketplace.sol\":4565:6618  function BuyVicShose(uint256 tokenId) external whenNotPaused {... */\n      pop\n      jump\t// out\n        /* \"marketplace.sol\":3627:4185  function SellVicShose(uint256 tokenId,uint256 price) external whenNotPaused {... */\n    tag_112:\n        /* \"BEPPausable.sol\":424:430  paused */\n      0x00\n      0x14\n      swap1\n      sload\n      swap1\n      0x0100\n      exp\n      swap1\n      div\n      0xff\n      and\n        /* \"BEPPausable.sol\":423:430  !paused */\n      iszero\n        /* \"BEPPausable.sol\":415:431  require(!paused) */\n      tag_336\n      jumpi\n      0x00\n      dup1\n      revert\n    tag_336:\n        /* \"marketplace.sol\":3743:3744  0 */\n      0x00\n        /* \"marketplace.sol\":3721:3730  shoseSell */\n      0x0a\n        /* \"marketplace.sol\":3721:3739  shoseSell[tokenId] */\n      0x00\n        /* \"marketplace.sol\":3731:3738  tokenId */\n      dup5\n        /* \"marketplace.sol\":3721:3739  shoseSell[tokenId] */\n      dup2\n      mstore\n      0x20\n      add\n      swap1\n      dup2\n      mstore\n      0x20\n      add\n      0x00\n      keccak256\n      sload\n        /* \"marketplace.sol\":3721:3744  shoseSell[tokenId] == 0 */\n      eq\n        /* \"marketplace.sol\":3713:3761  require(shoseSell[tokenId] == 0,\"it is selling\") */\n      tag_338\n      jumpi\n      mload(0x40)\n      0x08c379a000000000000000000000000000000000000000000000000000000000\n      dup2\n      mstore\n      0x04\n      add\n      tag_339\n      swap1\n      tag_340\n      jump\t// in\n    tag_339:\n      mload(0x40)\n      dup1\n      swap2\n      sub\n      swap1\n      revert\n    tag_338:\n        /* \"marketplace.sol\":3771:3785  address seller */\n      0x00\n        /* \"marketplace.sol\":3788:3798  msg.sender */\n      caller\n        /* \"marketplace.sol\":3771:3798  address seller = msg.sender */\n      swap1\n      pop\n        /* \"marketplace.sol\":3872:3878  seller */\n      dup1\n        /* \"marketplace.sol\":3816:3878  IERC721Enumerable(ShoseNFTContract).ownerOf(tokenId) == seller */\n      0xffffffffffffffffffffffffffffffffffffffff\n      and\n        /* \"marketplace.sol\":3834:3850  ShoseNFTContract */\n      0x03\n      0x00\n      swap1\n      sload\n      swap1\n      0x0100\n      exp\n      swap1\n      div\n      0xffffffffffffffffffffffffffffffffffffffff\n      and\n        /* \"marketplace.sol\":3816:3859  IERC721Enumerable(ShoseNFTContract).ownerOf */\n      0xffffffffffffffffffffffffffffffffffffffff\n      and\n      0x6352211e\n        /* \"marketplace.sol\":3860:3867  tokenId */\n      dup6\n        /* \"marketplace.sol\":3816:3868  IERC721Enumerable(ShoseNFTContract).ownerOf(tokenId) */\n      mload(0x40)\n      dup3\n      0xffffffff\n      and\n      0xe0\n      shl\n      dup2\n      mstore\n      0x04\n      add\n      tag_341\n      swap2\n      swap1\n      tag_78\n      jump\t// in\n    tag_341:\n      0x20\n      mload(0x40)\n      dup1\n      dup4\n      sub\n      dup2\n      dup7\n      dup1\n      extcodesize\n      iszero\n      dup1\n      iszero\n      tag_342\n      jumpi\n      0x00\n      dup1\n      revert\n    tag_342:\n      pop\n      gas\n      staticcall\n      iszero\n      dup1\n      iszero\n      tag_344\n      jumpi\n      returndatasize\n      0x00\n      dup1\n      returndatacopy\n      revert(0x00, returndatasize)\n    tag_344:\n      pop\n      pop\n      pop\n      pop\n      mload(0x40)\n      returndatasize\n      not(0x1f)\n      0x1f\n      dup3\n      add\n      and\n      dup3\n      add\n      dup1\n      0x40\n      mstore\n      pop\n      dup2\n      add\n      swap1\n      tag_345\n      swap2\n      swap1\n      tag_230\n      jump\t// in\n    tag_345:\n        /* \"marketplace.sol\":3816:3878  IERC721Enumerable(ShoseNFTContract).ownerOf(tokenId) == seller */\n      0xffffffffffffffffffffffffffffffffffffffff\n      and\n      eq\n        /* \"marketplace.sol\":3808:3911  require(IERC721Enumerable(ShoseNFTContract).ownerOf(tokenId) == seller,\"seller need have this tokenid\") */\n      tag_346\n      jumpi\n      mload(0x40)\n      0x08c379a000000000000000000000000000000000000000000000000000000000\n      dup2\n      mstore\n      0x04\n      add\n      tag_347\n      swap1\n      tag_233\n      jump\t// in\n    tag_347:\n      mload(0x40)\n      dup1\n      swap2\n      sub\n      swap1\n      revert\n    tag_346:\n        /* \"marketplace.sol\":3947:3963  ShoseNFTContract */\n      0x03\n      0x00\n      swap1\n      sload\n      swap1\n      0x0100\n      exp\n      swap1\n      div\n      0xffffffffffffffffffffffffffffffffffffffff\n      and\n        /* \"marketplace.sol\":3929:3981  IERC721Enumerable(ShoseNFTContract).isApprovedForAll */\n      0xffffffffffffffffffffffffffffffffffffffff\n      and\n      0xe985e9c5\n        /* \"marketplace.sol\":3982:3988  seller */\n      dup3\n        /* \"marketplace.sol\":3997:4001  this */\n      address\n        /* \"marketplace.sol\":3929:4003  IERC721Enumerable(ShoseNFTContract).isApprovedForAll(seller,address(this)) */\n      mload(0x40)\n      dup4\n      0xffffffff\n      and\n      0xe0\n      shl\n      dup2\n      mstore\n      0x04\n      add\n      tag_348\n      swap3\n      swap2\n      swap1\n      tag_242\n      jump\t// in\n    tag_348:\n      0x20\n      mload(0x40)\n      dup1\n      dup4\n      sub\n      dup2\n      dup7\n      dup1\n      extcodesize\n      iszero\n      dup1\n      iszero\n      tag_349\n      jumpi\n      0x00\n      dup1\n      revert\n    tag_349:\n      pop\n      gas\n      staticcall\n      iszero\n      dup1\n      iszero\n      tag_351\n      jumpi\n      returndatasize\n      0x00\n      dup1\n      returndatacopy\n      revert(0x00, returndatasize)\n    tag_351:\n      pop\n      pop\n      pop\n      pop\n      mload(0x40)\n      returndatasize\n      not(0x1f)\n      0x1f\n      dup3\n      add\n      and\n      dup3\n      add\n      dup1\n      0x40\n      mstore\n      pop\n      dup2\n      add\n      swap1\n      tag_352\n      swap2\n      swap1\n      tag_247\n      jump\t// in\n    tag_352:\n        /* \"marketplace.sol\":3921:4047  require(IERC721Enumerable(ShoseNFTContract).isApprovedForAll(seller,address(this)),\"You need Approve For All to this contact\") */\n      tag_353\n      jumpi\n      mload(0x40)\n      0x08c379a000000000000000000000000000000000000000000000000000000000\n      dup2\n      mstore\n      0x04\n      add\n      tag_354\n      swap1\n      tag_250\n      jump\t// in\n    tag_354:\n      mload(0x40)\n      dup1\n      swap2\n      sub\n      swap1\n      revert\n    tag_353:\n        /* \"marketplace.sol\":4073:4074  0 */\n      0x00\n        /* \"marketplace.sol\":4065:4070  price */\n      dup3\n        /* \"marketplace.sol\":4065:4074  price > 0 */\n      gt\n        /* \"marketplace.sol\":4057:4088  require(price > 0, \"Price > 0\") */\n      tag_355\n      jumpi\n      mload(0x40)\n      0x08c379a000000000000000000000000000000000000000000000000000000000\n      dup2\n      mstore\n      0x04\n      add\n      tag_356\n      swap1\n      tag_357\n      jump\t// in\n    tag_356:\n      mload(0x40)\n      dup1\n      swap2\n      sub\n      swap1\n      revert\n    tag_355:\n        /* \"marketplace.sol\":4098:4131  addNFTSell(tokenId, price,seller) */\n      tag_358\n        /* \"marketplace.sol\":4109:4116  tokenId */\n      dup4\n        /* \"marketplace.sol\":4118:4123  price */\n      dup4\n        /* \"marketplace.sol\":4124:4130  seller */\n      dup4\n        /* \"marketplace.sol\":4098:4108  addNFTSell */\n      tag_359\n        /* \"marketplace.sol\":4098:4131  addNFTSell(tokenId, price,seller) */\n      jump\t// in\n    tag_358:\n        /* \"marketplace.sol\":4146:4178  eventSellVicShose(tokenId,price) */\n      0x55bb046a6e950af74fcdaaa97a1a82c49209d72a5fcda0925a019dfba29c8f72\n        /* \"marketplace.sol\":4164:4171  tokenId */\n      dup4\n        /* \"marketplace.sol\":4172:4177  price */\n      dup4\n        /* \"marketplace.sol\":4146:4178  eventSellVicShose(tokenId,price) */\n      mload(0x40)\n      tag_360\n      swap3\n      swap2\n      swap1\n      tag_361\n      jump\t// in\n    tag_360:\n      mload(0x40)\n      dup1\n      swap2\n      sub\n      swap1\n      log1\n        /* \"marketplace.sol\":3703:4185  {... */\n      pop\n        /* \"marketplace.sol\":3627:4185  function SellVicShose(uint256 tokenId,uint256 price) external whenNotPaused {... */\n      pop\n      pop\n      jump\t// out\n        /* \"BEPPausable.sol\":666:788  function pause() public onlyOwner whenNotPaused returns (bool) {... */\n    tag_115:\n        /* \"BEPPausable.sol\":723:727  bool */\n      0x00\n        /* \"BEPOwnable.sol\":1085:1094  isOwner() */\n      tag_363\n        /* \"BEPOwnable.sol\":1085:1092  isOwner */\n      tag_127\n        /* \"BEPOwnable.sol\":1085:1094  isOwner() */\n      jump\t// in\n    tag_363:\n        /* \"BEPOwnable.sol\":1077:1131  require(isOwner(), \"Ownable: caller is not the owner\") */\n      tag_364\n      jumpi\n      mload(0x40)\n      0x08c379a000000000000000000000000000000000000000000000000000000000\n      dup2\n      mstore\n      0x04\n      add\n      tag_365\n      swap1\n      tag_190\n      jump\t// in\n    tag_365:\n      mload(0x40)\n      dup1\n      swap2\n      sub\n      swap1\n      revert\n    tag_364:\n        /* \"BEPPausable.sol\":424:430  paused */\n      0x00\n      0x14\n      swap1\n      sload\n      swap1\n      0x0100\n      exp\n      swap1\n      div\n      0xff\n      and\n        /* \"BEPPausable.sol\":423:430  !paused */\n      iszero\n        /* \"BEPPausable.sol\":415:431  require(!paused) */\n      tag_367\n      jumpi\n      0x00\n      dup1\n      revert\n    tag_367:\n        /* \"BEPPausable.sol\":744:748  true */\n      0x01\n        /* \"BEPPausable.sol\":735:741  paused */\n      0x00\n      0x14\n        /* \"BEPPausable.sol\":735:748  paused = true */\n      0x0100\n      exp\n      dup2\n      sload\n      dup2\n      0xff\n      mul\n      not\n      and\n      swap1\n      dup4\n      iszero\n      iszero\n      mul\n      or\n      swap1\n      sstore\n      pop\n        /* \"BEPPausable.sol\":759:766  Pause() */\n      0x6985a02210a168e66602d3235cb6db0e70f92b3ba4d376a33c0f3d9434bff625\n      mload(0x40)\n      mload(0x40)\n      dup1\n      swap2\n      sub\n      swap1\n      log1\n        /* \"BEPPausable.sol\":779:783  true */\n      0x01\n        /* \"BEPPausable.sol\":772:783  return true */\n      swap1\n      pop\n        /* \"BEPPausable.sol\":666:788  function pause() public onlyOwner whenNotPaused returns (bool) {... */\n      swap1\n      jump\t// out\n        /* \"marketplace.sol\":8674:8969  function sentT2Pool2Token(address tokenaddress, uint256 amount) external onlyOwner {... */\n    tag_120:\n        /* \"BEPOwnable.sol\":1085:1094  isOwner() */\n      tag_370\n        /* \"BEPOwnable.sol\":1085:1092  isOwner */\n      tag_127\n        /* \"BEPOwnable.sol\":1085:1094  isOwner() */\n      jump\t// in\n    tag_370:\n        /* \"BEPOwnable.sol\":1077:1131  require(isOwner(), \"Ownable: caller is not the owner\") */\n      tag_371\n      jumpi\n      mload(0x40)\n      0x08c379a000000000000000000000000000000000000000000000000000000000\n      dup2\n      mstore\n      0x04\n      add\n      tag_372\n      swap1\n      tag_190\n      jump\t// in\n    tag_372:\n      mload(0x40)\n      dup1\n      swap2\n      sub\n      swap1\n      revert\n    tag_371:\n        /* \"marketplace.sol\":8767:8785  uint256 newBalance */\n      0x00\n        /* \"marketplace.sol\":8795:8807  tokenaddress */\n      dup3\n        /* \"marketplace.sol\":8788:8818  IBEP20(tokenaddress).balanceOf */\n      0xffffffffffffffffffffffffffffffffffffffff\n      and\n      0x70a08231\n        /* \"marketplace.sol\":8827:8831  this */\n      address\n        /* \"marketplace.sol\":8788:8833  IBEP20(tokenaddress).balanceOf(address(this)) */\n      mload(0x40)\n      dup3\n      0xffffffff\n      and\n      0xe0\n      shl\n      dup2\n      mstore\n      0x04\n      add\n      tag_374\n      swap2\n      swap1\n      tag_49\n      jump\t// in\n    tag_374:\n      0x20\n      mload(0x40)\n      dup1\n      dup4\n      sub\n      dup2\n      dup7\n      dup1\n      extcodesize\n      iszero\n      dup1\n      iszero\n      tag_375\n      jumpi\n      0x00\n      dup1\n      revert\n    tag_375:\n      pop\n      gas\n      staticcall\n      iszero\n      dup1\n      iszero\n      tag_377\n      jumpi\n      returndatasize\n      0x00\n      dup1\n      returndatacopy\n      revert(0x00, returndatasize)\n    tag_377:\n      pop\n      pop\n      pop\n      pop\n      mload(0x40)\n      returndatasize\n      not(0x1f)\n      0x1f\n      dup3\n      add\n      and\n      dup3\n      add\n      dup1\n      0x40\n      mstore\n      pop\n      dup2\n      add\n      swap1\n      tag_378\n      swap2\n      swap1\n      tag_218\n      jump\t// in\n    tag_378:\n        /* \"marketplace.sol\":8767:8833  uint256 newBalance = IBEP20(tokenaddress).balanceOf(address(this)) */\n      swap1\n      pop\n        /* \"marketplace.sol\":8858:8859  0 */\n      0x00\n        /* \"marketplace.sol\":8851:8857  amount */\n      dup3\n        /* \"marketplace.sol\":8851:8859  amount>0 */\n      gt\n        /* \"marketplace.sol\":8851:8881  amount>0 && amount<=newBalance */\n      dup1\n      iszero\n      tag_379\n      jumpi\n      pop\n        /* \"marketplace.sol\":8871:8881  newBalance */\n      dup1\n        /* \"marketplace.sol\":8863:8869  amount */\n      dup3\n        /* \"marketplace.sol\":8863:8881  amount<=newBalance */\n      gt\n      iszero\n        /* \"marketplace.sol\":8851:8881  amount>0 && amount<=newBalance */\n    tag_379:\n        /* \"marketplace.sol\":8843:8908  require(amount>0 && amount<=newBalance,\"Amount > 0 && < Balance\") */\n      tag_380\n      jumpi\n      mload(0x40)\n      0x08c379a000000000000000000000000000000000000000000000000000000000\n      dup2\n      mstore\n      0x04\n      add\n      tag_381\n      swap1\n      tag_382\n      jump\t// in\n    tag_381:\n      mload(0x40)\n      dup1\n      swap2\n      sub\n      swap1\n      revert\n    tag_380:\n        /* \"marketplace.sol\":8925:8937  tokenaddress */\n      dup3\n        /* \"marketplace.sol\":8918:8947  IBEP20(tokenaddress).transfer */\n      0xffffffffffffffffffffffffffffffffffffffff\n      and\n      0xa9059cbb\n        /* \"marketplace.sol\":8948:8953  Pool2 */\n      0x08\n      0x00\n      swap1\n      sload\n      swap1\n      0x0100\n      exp\n      swap1\n      div\n      0xffffffffffffffffffffffffffffffffffffffff\n      and\n        /* \"marketplace.sol\":8955:8961  amount */\n      dup5\n        /* \"marketplace.sol\":8918:8962  IBEP20(tokenaddress).transfer(Pool2, amount) */\n      mload(0x40)\n      dup4\n      0xffffffff\n      and\n      0xe0\n      shl\n      dup2\n      mstore\n      0x04\n      add\n      tag_383\n      swap3\n      swap2\n      swap1\n      tag_263\n      jump\t// in\n    tag_383:\n      0x20\n      mload(0x40)\n      dup1\n      dup4\n      sub\n      dup2\n      0x00\n      dup8\n      dup1\n      extcodesize\n      iszero\n      dup1\n      iszero\n      tag_384\n      jumpi\n      0x00\n      dup1\n      revert\n    tag_384:\n      pop\n      gas\n      call\n      iszero\n      dup1\n      iszero\n      tag_386\n      jumpi\n      returndatasize\n      0x00\n      dup1\n      returndatacopy\n      revert(0x00, returndatasize)\n    tag_386:\n      pop\n      pop\n      pop\n      pop\n      mload(0x40)\n      returndatasize\n      not(0x1f)\n      0x1f\n      dup3\n      add\n      and\n      dup3\n      add\n      dup1\n      0x40\n      mstore\n      pop\n      dup2\n      add\n      swap1\n      tag_387\n      swap2\n      swap1\n      tag_247\n      jump\t// in\n    tag_387:\n      pop\n        /* \"marketplace.sol\":8757:8969  {... */\n      pop\n        /* \"marketplace.sol\":8674:8969  function sentT2Pool2Token(address tokenaddress, uint256 amount) external onlyOwner {... */\n      pop\n      pop\n      jump\t// out\n        /* \"BEPOwnable.sol\":899:970  function owner() public view returns (address) {... */\n    tag_123:\n        /* \"BEPOwnable.sol\":937:944  address */\n      0x00\n        /* \"BEPOwnable.sol\":959:965  _owner */\n      dup1\n      0x00\n      swap1\n      sload\n      swap1\n      0x0100\n      exp\n      swap1\n      div\n      0xffffffffffffffffffffffffffffffffffffffff\n      and\n        /* \"BEPOwnable.sol\":952:965  return _owner */\n      swap1\n      pop\n        /* \"BEPOwnable.sol\":899:970  function owner() public view returns (address) {... */\n      swap1\n      jump\t// out\n        /* \"BEPOwnable.sol\":1218:1304  function isOwner() public view returns (bool) {... */\n    tag_127:\n        /* \"BEPOwnable.sol\":1258:1262  bool */\n      0x00\n        /* \"BEPOwnable.sol\":1293:1299  _owner */\n      dup1\n      0x00\n      swap1\n      sload\n      swap1\n      0x0100\n      exp\n      swap1\n      div\n      0xffffffffffffffffffffffffffffffffffffffff\n      and\n        /* \"BEPOwnable.sol\":1277:1299  _msgSender() == _owner */\n      0xffffffffffffffffffffffffffffffffffffffff\n      and\n        /* \"BEPOwnable.sol\":1277:1289  _msgSender() */\n      tag_390\n        /* \"BEPOwnable.sol\":1277:1287  _msgSender */\n      tag_391\n        /* \"BEPOwnable.sol\":1277:1289  _msgSender() */\n      jump\t// in\n    tag_390:\n        /* \"BEPOwnable.sol\":1277:1299  _msgSender() == _owner */\n      0xffffffffffffffffffffffffffffffffffffffff\n      and\n      eq\n        /* \"BEPOwnable.sol\":1270:1299  return _msgSender() == _owner */\n      swap1\n      pop\n        /* \"BEPOwnable.sol\":1218:1304  function isOwner() public view returns (bool) {... */\n      swap1\n      jump\t// out\n        /* \"marketplace.sol\":7757:8514  function getSellingShose() external view returns (uint256[] memory _tokenID,address[] memory _owner, uint256[] memory _Price) {... */\n    tag_131:\n        /* \"marketplace.sol\":7807:7832  uint256[] memory _tokenID */\n      0x60\n        /* \"marketplace.sol\":7833:7856  address[] memory _owner */\n      dup1\n        /* \"marketplace.sol\":7858:7881  uint256[] memory _Price */\n      0x60\n        /* \"marketplace.sol\":7893:7916  uint256 shoseShellCount */\n      0x00\n        /* \"marketplace.sol\":7919:7932  allTokensSell */\n      0x0c\n        /* \"marketplace.sol\":7919:7939  allTokensSell.length */\n      dup1\n      sload\n      swap1\n      pop\n        /* \"marketplace.sol\":7893:7939  uint256 shoseShellCount = allTokensSell.length */\n      swap1\n      pop\n        /* \"marketplace.sol\":7949:7971  uint256[] memory Price */\n      0x00\n        /* \"marketplace.sol\":7988:8003  shoseShellCount */\n      dup2\n        /* \"marketplace.sol\":7974:8004  new uint256[](shoseShellCount) */\n      0xffffffffffffffff\n      dup2\n      gt\n      iszero\n      tag_393\n      jumpi\n      tag_394\n      tag_395\n      jump\t// in\n    tag_394:\n    tag_393:\n      mload(0x40)\n      swap1\n      dup1\n      dup3\n      mstore\n      dup1\n      0x20\n      mul\n      0x20\n      add\n      dup3\n      add\n      0x40\n      mstore\n      dup1\n      iszero\n      tag_396\n      jumpi\n      dup2\n      0x20\n      add\n      0x20\n      dup3\n      mul\n      dup1\n      calldatasize\n      dup4\n      calldatacopy\n      dup1\n      dup3\n      add\n      swap2\n      pop\n      pop\n      swap1\n      pop\n    tag_396:\n      pop\n        /* \"marketplace.sol\":7949:8004  uint256[] memory Price = new uint256[](shoseShellCount) */\n      swap1\n      pop\n        /* \"marketplace.sol\":8014:8036  address[] memory owner */\n      0x00\n        /* \"marketplace.sol\":8053:8068  shoseShellCount */\n      dup3\n        /* \"marketplace.sol\":8039:8069  new address[](shoseShellCount) */\n      0xffffffffffffffff\n      dup2\n      gt\n      iszero\n      tag_397\n      jumpi\n      tag_398\n      tag_395\n      jump\t// in\n    tag_398:\n    tag_397:\n      mload(0x40)\n      swap1\n      dup1\n      dup3\n      mstore\n      dup1\n      0x20\n      mul\n      0x20\n      add\n      dup3\n      add\n      0x40\n      mstore\n      dup1\n      iszero\n      tag_399\n      jumpi\n      dup2\n      0x20\n      add\n      0x20\n      dup3\n      mul\n      dup1\n      calldatasize\n      dup4\n      calldatacopy\n      dup1\n      dup3\n      add\n      swap2\n      pop\n      pop\n      swap1\n      pop\n    tag_399:\n      pop\n        /* \"marketplace.sol\":8014:8069  address[] memory owner = new address[](shoseShellCount) */\n      swap1\n      pop\n        /* \"marketplace.sol\":8084:8093  uint256 i */\n      0x00\n        /* \"marketplace.sol\":8079:8464  for (uint256 i = 0; i < shoseShellCount; i++) {... */\n    tag_400:\n        /* \"marketplace.sol\":8103:8118  shoseShellCount */\n      dup4\n        /* \"marketplace.sol\":8099:8100  i */\n      dup2\n        /* \"marketplace.sol\":8099:8118  i < shoseShellCount */\n      lt\n        /* \"marketplace.sol\":8079:8464  for (uint256 i = 0; i < shoseShellCount; i++) {... */\n      iszero\n      tag_401\n      jumpi\n        /* \"marketplace.sol\":8207:8218  shoseSeller */\n      0x0b\n        /* \"marketplace.sol\":8207:8236  shoseSeller[allTokensSell[i]] */\n      0x00\n        /* \"marketplace.sol\":8219:8232  allTokensSell */\n      0x0c\n        /* \"marketplace.sol\":8233:8234  i */\n      dup4\n        /* \"marketplace.sol\":8219:8235  allTokensSell[i] */\n      dup2\n      sload\n      dup2\n      lt\n      tag_403\n      jumpi\n      tag_404\n      tag_405\n      jump\t// in\n    tag_404:\n    tag_403:\n      swap1\n      0x00\n      mstore\n      keccak256(0x00, 0x20)\n      add\n      sload\n        /* \"marketplace.sol\":8207:8236  shoseSeller[allTokensSell[i]] */\n      dup2\n      mstore\n      0x20\n      add\n      swap1\n      dup2\n      mstore\n      0x20\n      add\n      0x00\n      keccak256\n      0x00\n      swap1\n      sload\n      swap1\n      0x0100\n      exp\n      swap1\n      div\n      0xffffffffffffffffffffffffffffffffffffffff\n      and\n        /* \"marketplace.sol\":8142:8236  IERC721Enumerable(ShoseNFTContract).ownerOf(allTokensSell[i]) == shoseSeller[allTokensSell[i]] */\n      0xffffffffffffffffffffffffffffffffffffffff\n      and\n        /* \"marketplace.sol\":8160:8176  ShoseNFTContract */\n      0x03\n      0x00\n      swap1\n      sload\n      swap1\n      0x0100\n      exp\n      swap1\n      div\n      0xffffffffffffffffffffffffffffffffffffffff\n      and\n        /* \"marketplace.sol\":8142:8185  IERC721Enumerable(ShoseNFTContract).ownerOf */\n      0xffffffffffffffffffffffffffffffffffffffff\n      and\n      0x6352211e\n        /* \"marketplace.sol\":8186:8199  allTokensSell */\n      0x0c\n        /* \"marketplace.sol\":8200:8201  i */\n      dup5\n        /* \"marketplace.sol\":8186:8202  allTokensSell[i] */\n      dup2\n      sload\n      dup2\n      lt\n      tag_407\n      jumpi\n      tag_408\n      tag_405\n      jump\t// in\n    tag_408:\n    tag_407:\n      swap1\n      0x00\n      mstore\n      keccak256(0x00, 0x20)\n      add\n      sload\n        /* \"marketplace.sol\":8142:8203  IERC721Enumerable(ShoseNFTContract).ownerOf(allTokensSell[i]) */\n      mload(0x40)\n      dup3\n      0xffffffff\n      and\n      0xe0\n      shl\n      dup2\n      mstore\n      0x04\n      add\n      tag_410\n      swap2\n      swap1\n      tag_78\n      jump\t// in\n    tag_410:\n      0x20\n      mload(0x40)\n      dup1\n      dup4\n      sub\n      dup2\n      dup7\n      dup1\n      extcodesize\n      iszero\n      dup1\n      iszero\n      tag_411\n      jumpi\n      0x00\n      dup1\n      revert\n    tag_411:\n      pop\n      gas\n      staticcall\n      iszero\n      dup1\n      iszero\n      tag_413\n      jumpi\n      returndatasize\n      0x00\n      dup1\n      returndatacopy\n      revert(0x00, returndatasize)\n    tag_413:\n      pop\n      pop\n      pop\n      pop\n      mload(0x40)\n      returndatasize\n      not(0x1f)\n      0x1f\n      dup3\n      add\n      and\n      dup3\n      add\n      dup1\n      0x40\n      mstore\n      pop\n      dup2\n      add\n      swap1\n      tag_414\n      swap2\n      swap1\n      tag_230\n      jump\t// in\n    tag_414:\n        /* \"marketplace.sol\":8142:8236  IERC721Enumerable(ShoseNFTContract).ownerOf(allTokensSell[i]) == shoseSeller[allTokensSell[i]] */\n      0xffffffffffffffffffffffffffffffffffffffff\n      and\n      eq\n        /* \"marketplace.sol\":8139:8454  if(IERC721Enumerable(ShoseNFTContract).ownerOf(allTokensSell[i]) == shoseSeller[allTokensSell[i]]){... */\n      iszero\n      tag_415\n      jumpi\n        /* \"marketplace.sol\":8266:8275  shoseSell */\n      0x0a\n        /* \"marketplace.sol\":8266:8293  shoseSell[allTokensSell[i]] */\n      0x00\n        /* \"marketplace.sol\":8276:8289  allTokensSell */\n      0x0c\n        /* \"marketplace.sol\":8290:8291  i */\n      dup4\n        /* \"marketplace.sol\":8276:8292  allTokensSell[i] */\n      dup2\n      sload\n      dup2\n      lt\n      tag_416\n      jumpi\n      tag_417\n      tag_405\n      jump\t// in\n    tag_417:\n    tag_416:\n      swap1\n      0x00\n      mstore\n      keccak256(0x00, 0x20)\n      add\n      sload\n        /* \"marketplace.sol\":8266:8293  shoseSell[allTokensSell[i]] */\n      dup2\n      mstore\n      0x20\n      add\n      swap1\n      dup2\n      mstore\n      0x20\n      add\n      0x00\n      keccak256\n      sload\n        /* \"marketplace.sol\":8255:8260  Price */\n      dup4\n        /* \"marketplace.sol\":8261:8262  i */\n      dup3\n        /* \"marketplace.sol\":8255:8263  Price[i] */\n      dup2\n      mload\n      dup2\n      lt\n      tag_419\n      jumpi\n      tag_420\n      tag_405\n      jump\t// in\n    tag_420:\n    tag_419:\n      0x20\n      mul\n      0x20\n      add\n      add\n        /* \"marketplace.sol\":8255:8293  Price[i] = shoseSell[allTokensSell[i]] */\n      dup2\n      dup2\n      mstore\n      pop\n      pop\n        /* \"marketplace.sol\":8322:8333  shoseSeller */\n      0x0b\n        /* \"marketplace.sol\":8322:8351  shoseSeller[allTokensSell[i]] */\n      0x00\n        /* \"marketplace.sol\":8334:8347  allTokensSell */\n      0x0c\n        /* \"marketplace.sol\":8348:8349  i */\n      dup4\n        /* \"marketplace.sol\":8334:8350  allTokensSell[i] */\n      dup2\n      sload\n      dup2\n      lt\n      tag_421\n      jumpi\n      tag_422\n      tag_405\n      jump\t// in\n    tag_422:\n    tag_421:\n      swap1\n      0x00\n      mstore\n      keccak256(0x00, 0x20)\n      add\n      sload\n        /* \"marketplace.sol\":8322:8351  shoseSeller[allTokensSell[i]] */\n      dup2\n      mstore\n      0x20\n      add\n      swap1\n      dup2\n      mstore\n      0x20\n      add\n      0x00\n      keccak256\n      0x00\n      swap1\n      sload\n      swap1\n      0x0100\n      exp\n      swap1\n      div\n      0xffffffffffffffffffffffffffffffffffffffff\n      and\n        /* \"marketplace.sol\":8311:8316  owner */\n      dup3\n        /* \"marketplace.sol\":8317:8318  i */\n      dup3\n        /* \"marketplace.sol\":8311:8319  owner[i] */\n      dup2\n      mload\n      dup2\n      lt\n      tag_424\n      jumpi\n      tag_425\n      tag_405\n      jump\t// in\n    tag_425:\n    tag_424:\n      0x20\n      mul\n      0x20\n      add\n      add\n        /* \"marketplace.sol\":8311:8351  owner[i] = shoseSeller[allTokensSell[i]] */\n      swap1\n      0xffffffffffffffffffffffffffffffffffffffff\n      and\n      swap1\n      dup2\n      0xffffffffffffffffffffffffffffffffffffffff\n      and\n      dup2\n      mstore\n      pop\n      pop\n        /* \"marketplace.sol\":8139:8454  if(IERC721Enumerable(ShoseNFTContract).ownerOf(allTokensSell[i]) == shoseSeller[allTokensSell[i]]){... */\n      jump(tag_426)\n    tag_415:\n        /* \"marketplace.sol\":8399:8400  0 */\n      0x00\n        /* \"marketplace.sol\":8388:8393  Price */\n      dup4\n        /* \"marketplace.sol\":8394:8395  i */\n      dup3\n        /* \"marketplace.sol\":8388:8396  Price[i] */\n      dup2\n      mload\n      dup2\n      lt\n      tag_427\n      jumpi\n      tag_428\n      tag_405\n      jump\t// in\n    tag_428:\n    tag_427:\n      0x20\n      mul\n      0x20\n      add\n      add\n        /* \"marketplace.sol\":8388:8400  Price[i] = 0 */\n      dup2\n      dup2\n      mstore\n      pop\n      pop\n        /* \"marketplace.sol\":8437:8438  0 */\n      0x00\n        /* \"marketplace.sol\":8418:8423  owner */\n      dup3\n        /* \"marketplace.sol\":8424:8425  i */\n      dup3\n        /* \"marketplace.sol\":8418:8426  owner[i] */\n      dup2\n      mload\n      dup2\n      lt\n      tag_429\n      jumpi\n      tag_430\n      tag_405\n      jump\t// in\n    tag_430:\n    tag_429:\n      0x20\n      mul\n      0x20\n      add\n      add\n        /* \"marketplace.sol\":8418:8439  owner[i] = address(0) */\n      swap1\n      0xffffffffffffffffffffffffffffffffffffffff\n      and\n      swap1\n      dup2\n      0xffffffffffffffffffffffffffffffffffffffff\n      and\n      dup2\n      mstore\n      pop\n      pop\n        /* \"marketplace.sol\":8139:8454  if(IERC721Enumerable(ShoseNFTContract).ownerOf(allTokensSell[i]) == shoseSeller[allTokensSell[i]]){... */\n    tag_426:\n        /* \"marketplace.sol\":8120:8123  i++ */\n      dup1\n      dup1\n      tag_431\n      swap1\n      tag_432\n      jump\t// in\n    tag_431:\n      swap2\n      pop\n      pop\n        /* \"marketplace.sol\":8079:8464  for (uint256 i = 0; i < shoseShellCount; i++) {... */\n      jump(tag_400)\n    tag_401:\n      pop\n        /* \"marketplace.sol\":8481:8494  allTokensSell */\n      0x0c\n        /* \"marketplace.sol\":8495:8500  owner */\n      dup2\n        /* \"marketplace.sol\":8501:8506  Price */\n      dup4\n        /* \"marketplace.sol\":8473:8507  return (allTokensSell,owner,Price) */\n      dup3\n      dup1\n      sload\n      dup1\n      0x20\n      mul\n      0x20\n      add\n      mload(0x40)\n      swap1\n      dup2\n      add\n      0x40\n      mstore\n      dup1\n      swap3\n      swap2\n      swap1\n      dup2\n      dup2\n      mstore\n      0x20\n      add\n      dup3\n      dup1\n      sload\n      dup1\n      iszero\n      tag_433\n      jumpi\n      0x20\n      mul\n      dup3\n      add\n      swap2\n      swap1\n      0x00\n      mstore\n      keccak256(0x00, 0x20)\n      swap1\n    tag_434:\n      dup2\n      sload\n      dup2\n      mstore\n      0x20\n      add\n      swap1\n      0x01\n      add\n      swap1\n      dup1\n      dup4\n      gt\n      tag_434\n      jumpi\n    tag_433:\n      pop\n      pop\n      pop\n      pop\n      pop\n      swap3\n      pop\n      swap6\n      pop\n      swap6\n      pop\n      swap6\n      pop\n      pop\n      pop\n      pop\n        /* \"marketplace.sol\":7757:8514  function getSellingShose() external view returns (uint256[] memory _tokenID,address[] memory _owner, uint256[] memory _Price) {... */\n      swap1\n      swap2\n      swap3\n      jump\t// out\n        /* \"marketplace.sol\":1871:2018  function setLiquidPool(address _LiquidPool) external onlyOwner {... */\n    tag_137:\n        /* \"BEPOwnable.sol\":1085:1094  isOwner() */\n      tag_436\n        /* \"BEPOwnable.sol\":1085:1092  isOwner */\n      tag_127\n        /* \"BEPOwnable.sol\":1085:1094  isOwner() */\n      jump\t// in\n    tag_436:\n        /* \"BEPOwnable.sol\":1077:1131  require(isOwner(), \"Ownable: caller is not the owner\") */\n      tag_437\n      jumpi\n      mload(0x40)\n      0x08c379a000000000000000000000000000000000000000000000000000000000\n      dup2\n      mstore\n      0x04\n      add\n      tag_438\n      swap1\n      tag_190\n      jump\t// in\n    tag_438:\n      mload(0x40)\n      dup1\n      swap2\n      sub\n      swap1\n      revert\n    tag_437:\n        /* \"marketplace.sol\":1957:1968  _LiquidPool */\n      dup1\n        /* \"marketplace.sol\":1944:1954  LiquidPool */\n      0x02\n      0x00\n        /* \"marketplace.sol\":1944:1968  LiquidPool = _LiquidPool */\n      0x0100\n      exp\n      dup2\n      sload\n      dup2\n      0xffffffffffffffffffffffffffffffffffffffff\n      mul\n      not\n      and\n      swap1\n      dup4\n      0xffffffffffffffffffffffffffffffffffffffff\n      and\n      mul\n      or\n      swap1\n      sstore\n      pop\n        /* \"marketplace.sol\":1983:2011  changeLiquidPool(LiquidPool) */\n      0xacdd85d235b5b49226c2c4f2b72cb01fa1cc3ae64bb843a6def27788d05b1b60\n        /* \"marketplace.sol\":2000:2010  LiquidPool */\n      0x02\n      0x00\n      swap1\n      sload\n      swap1\n      0x0100\n      exp\n      swap1\n      div\n      0xffffffffffffffffffffffffffffffffffffffff\n      and\n        /* \"marketplace.sol\":1983:2011  changeLiquidPool(LiquidPool) */\n      mload(0x40)\n      tag_440\n      swap2\n      swap1\n      tag_49\n      jump\t// in\n    tag_440:\n      mload(0x40)\n      dup1\n      swap2\n      sub\n      swap1\n      log1\n        /* \"marketplace.sol\":1871:2018  function setLiquidPool(address _LiquidPool) external onlyOwner {... */\n      pop\n      jump\t// out\n        /* \"marketplace.sol\":486:506  address public Pool2 */\n    tag_140:\n      0x08\n      0x00\n      swap1\n      sload\n      swap1\n      0x0100\n      exp\n      swap1\n      div\n      0xffffffffffffffffffffffffffffffffffffffff\n      and\n      dup2\n      jump\t// out\n        /* \"marketplace.sol\":369:395  address public VIMContract */\n    tag_144:\n      0x04\n      0x00\n      swap1\n      sload\n      swap1\n      0x0100\n      exp\n      swap1\n      div\n      0xffffffffffffffffffffffffffffffffffffffff\n      and\n      dup2\n      jump\t// out\n        /* \"marketplace.sol\":8975:9083  function getBalanceBNB() public view virtual returns (uint256) {... */\n    tag_148:\n        /* \"marketplace.sol\":9029:9036  uint256 */\n      0x00\n        /* \"marketplace.sol\":9055:9076  address(this).balance */\n      selfbalance\n        /* \"marketplace.sol\":9048:9076  return address(this).balance */\n      swap1\n      pop\n        /* \"marketplace.sol\":8975:9083  function getBalanceBNB() public view virtual returns (uint256) {... */\n      swap1\n      jump\t// out\n        /* \"marketplace.sol\":434:455  uint256 public MinBnB */\n    tag_152:\n      sload(0x06)\n      dup2\n      jump\t// out\n        /* \"marketplace.sol\":1638:1722  function setPool2(address _Pool2) external onlyOwner {... */\n    tag_157:\n        /* \"BEPOwnable.sol\":1085:1094  isOwner() */\n      tag_443\n        /* \"BEPOwnable.sol\":1085:1092  isOwner */\n      tag_127\n        /* \"BEPOwnable.sol\":1085:1094  isOwner() */\n      jump\t// in\n    tag_443:\n        /* \"BEPOwnable.sol\":1077:1131  require(isOwner(), \"Ownable: caller is not the owner\") */\n      tag_444\n      jumpi\n      mload(0x40)\n      0x08c379a000000000000000000000000000000000000000000000000000000000\n      dup2\n      mstore\n      0x04\n      add\n      tag_445\n      swap1\n      tag_190\n      jump\t// in\n    tag_445:\n      mload(0x40)\n      dup1\n      swap2\n      sub\n      swap1\n      revert\n    tag_444:\n        /* \"marketplace.sol\":1709:1715  _Pool2 */\n      dup1\n        /* \"marketplace.sol\":1701:1706  Pool2 */\n      0x08\n      0x00\n        /* \"marketplace.sol\":1701:1715  Pool2 = _Pool2 */\n      0x0100\n      exp\n      dup2\n      sload\n      dup2\n      0xffffffffffffffffffffffffffffffffffffffff\n      mul\n      not\n      and\n      swap1\n      dup4\n      0xffffffffffffffffffffffffffffffffffffffff\n      and\n      mul\n      or\n      swap1\n      sstore\n      pop\n        /* \"marketplace.sol\":1638:1722  function setPool2(address _Pool2) external onlyOwner {... */\n      pop\n      jump\t// out\n        /* \"marketplace.sol\":9088:9322  function sentT2Pool2BNB(uint256 amount) external onlyOwner {... */\n    tag_161:\n        /* \"BEPOwnable.sol\":1085:1094  isOwner() */\n      tag_448\n        /* \"BEPOwnable.sol\":1085:1092  isOwner */\n      tag_127\n        /* \"BEPOwnable.sol\":1085:1094  isOwner() */\n      jump\t// in\n    tag_448:\n        /* \"BEPOwnable.sol\":1077:1131  require(isOwner(), \"Ownable: caller is not the owner\") */\n      tag_449\n      jumpi\n      mload(0x40)\n      0x08c379a000000000000000000000000000000000000000000000000000000000\n      dup2\n      mstore\n      0x04\n      add\n      tag_450\n      swap1\n      tag_190\n      jump\t// in\n    tag_450:\n      mload(0x40)\n      dup1\n      swap2\n      sub\n      swap1\n      revert\n    tag_449:\n        /* \"marketplace.sol\":9157:9175  uint256 newBalance */\n      0x00\n        /* \"marketplace.sol\":9178:9199  address(this).balance */\n      selfbalance\n        /* \"marketplace.sol\":9157:9199  uint256 newBalance = address(this).balance */\n      swap1\n      pop\n        /* \"marketplace.sol\":9224:9225  0 */\n      0x00\n        /* \"marketplace.sol\":9217:9223  amount */\n      dup3\n        /* \"marketplace.sol\":9217:9225  amount>0 */\n      gt\n        /* \"marketplace.sol\":9217:9247  amount>0 && amount<=newBalance */\n      dup1\n      iszero\n      tag_452\n      jumpi\n      pop\n        /* \"marketplace.sol\":9237:9247  newBalance */\n      dup1\n        /* \"marketplace.sol\":9229:9235  amount */\n      dup3\n        /* \"marketplace.sol\":9229:9247  amount<=newBalance */\n      gt\n      iszero\n        /* \"marketplace.sol\":9217:9247  amount>0 && amount<=newBalance */\n    tag_452:\n        /* \"marketplace.sol\":9209:9274  require(amount>0 && amount<=newBalance,\"Amount > 0 && < Balance\") */\n      tag_453\n      jumpi\n      mload(0x40)\n      0x08c379a000000000000000000000000000000000000000000000000000000000\n      dup2\n      mstore\n      0x04\n      add\n      tag_454\n      swap1\n      tag_382\n      jump\t// in\n    tag_454:\n      mload(0x40)\n      dup1\n      swap2\n      sub\n      swap1\n      revert\n    tag_453:\n        /* \"marketplace.sol\":9292:9297  Pool2 */\n      0x08\n      0x00\n      swap1\n      sload\n      swap1\n      0x0100\n      exp\n      swap1\n      div\n      0xffffffffffffffffffffffffffffffffffffffff\n      and\n        /* \"marketplace.sol\":9284:9307  payable(Pool2).transfer */\n      0xffffffffffffffffffffffffffffffffffffffff\n      and\n        /* \"marketplace.sol\":9284:9315  payable(Pool2).transfer(amount) */\n      0x08fc\n        /* \"marketplace.sol\":9308:9314  amount */\n      dup4\n        /* \"marketplace.sol\":9284:9315  payable(Pool2).transfer(amount) */\n      swap1\n      dup2\n      iszero\n      mul\n      swap1\n      mload(0x40)\n      0x00\n      mload(0x40)\n      dup1\n      dup4\n      sub\n      dup2\n      dup6\n      dup9\n      dup9\n      call\n      swap4\n      pop\n      pop\n      pop\n      pop\n      iszero\n      dup1\n      iszero\n      tag_456\n      jumpi\n      returndatasize\n      0x00\n      dup1\n      returndatacopy\n      revert(0x00, returndatasize)\n    tag_456:\n      pop\n        /* \"marketplace.sol\":9147:9322  {... */\n      pop\n        /* \"marketplace.sol\":9088:9322  function sentT2Pool2BNB(uint256 amount) external onlyOwner {... */\n      pop\n      jump\t// out\n        /* \"marketplace.sol\":9327:9596  function sentNFT2Pool2(uint256 tokenId) external onlyOwner {... */\n    tag_165:\n        /* \"BEPOwnable.sol\":1085:1094  isOwner() */\n      tag_458\n        /* \"BEPOwnable.sol\":1085:1092  isOwner */\n      tag_127\n        /* \"BEPOwnable.sol\":1085:1094  isOwner() */\n      jump\t// in\n    tag_458:\n        /* \"BEPOwnable.sol\":1077:1131  require(isOwner(), \"Ownable: caller is not the owner\") */\n      tag_459\n      jumpi\n      mload(0x40)\n      0x08c379a000000000000000000000000000000000000000000000000000000000\n      dup2\n      mstore\n      0x04\n      add\n      tag_460\n      swap1\n      tag_190\n      jump\t// in\n    tag_460:\n      mload(0x40)\n      dup1\n      swap2\n      sub\n      swap1\n      revert\n    tag_459:\n        /* \"marketplace.sol\":9468:9472  this */\n      address\n        /* \"marketplace.sol\":9404:9473  IERC721Enumerable(ShoseNFTContract).ownerOf(tokenId) == address(this) */\n      0xffffffffffffffffffffffffffffffffffffffff\n      and\n        /* \"marketplace.sol\":9422:9438  ShoseNFTContract */\n      0x03\n      0x00\n      swap1\n      sload\n      swap1\n      0x0100\n      exp\n      swap1\n      div\n      0xffffffffffffffffffffffffffffffffffffffff\n      and\n        /* \"marketplace.sol\":9404:9447  IERC721Enumerable(ShoseNFTContract).ownerOf */\n      0xffffffffffffffffffffffffffffffffffffffff\n      and\n      0x6352211e\n        /* \"marketplace.sol\":9448:9455  tokenId */\n      dup4\n        /* \"marketplace.sol\":9404:9456  IERC721Enumerable(ShoseNFTContract).ownerOf(tokenId) */\n      mload(0x40)\n      dup3\n      0xffffffff\n      and\n      0xe0\n      shl\n      dup2\n      mstore\n      0x04\n      add\n      tag_462\n      swap2\n      swap1\n      tag_78\n      jump\t// in\n    tag_462:\n      0x20\n      mload(0x40)\n      dup1\n      dup4\n      sub\n      dup2\n      dup7\n      dup1\n      extcodesize\n      iszero\n      dup1\n      iszero\n      tag_463\n      jumpi\n      0x00\n      dup1\n      revert\n    tag_463:\n      pop\n      gas\n      staticcall\n      iszero\n      dup1\n      iszero\n      tag_465\n      jumpi\n      returndatasize\n      0x00\n      dup1\n      returndatacopy\n      revert(0x00, returndatasize)\n    tag_465:\n      pop\n      pop\n      pop\n      pop\n      mload(0x40)\n      returndatasize\n      not(0x1f)\n      0x1f\n      dup3\n      add\n      and\n      dup3\n      add\n      dup1\n      0x40\n      mstore\n      pop\n      dup2\n      add\n      swap1\n      tag_466\n      swap2\n      swap1\n      tag_230\n      jump\t// in\n    tag_466:\n        /* \"marketplace.sol\":9404:9473  IERC721Enumerable(ShoseNFTContract).ownerOf(tokenId) == address(this) */\n      0xffffffffffffffffffffffffffffffffffffffff\n      and\n      eq\n        /* \"marketplace.sol\":9396:9497  require(IERC721Enumerable(ShoseNFTContract).ownerOf(tokenId) == address(this),\"Not in this contract\") */\n      tag_467\n      jumpi\n      mload(0x40)\n      0x08c379a000000000000000000000000000000000000000000000000000000000\n      dup2\n      mstore\n      0x04\n      add\n      tag_468\n      swap1\n      tag_469\n      jump\t// in\n    tag_468:\n      mload(0x40)\n      dup1\n      swap2\n      sub\n      swap1\n      revert\n    tag_467:\n        /* \"marketplace.sol\":9525:9541  ShoseNFTContract */\n      0x03\n      0x00\n      swap1\n      sload\n      swap1\n      0x0100\n      exp\n      swap1\n      div\n      0xffffffffffffffffffffffffffffffffffffffff\n      and\n        /* \"marketplace.sol\":9507:9559  IERC721Enumerable(ShoseNFTContract).safeTransferFrom */\n      0xffffffffffffffffffffffffffffffffffffffff\n      and\n      0x42842e0e\n        /* \"marketplace.sol\":9568:9572  this */\n      address\n        /* \"marketplace.sol\":9575:9580  Pool2 */\n      0x08\n      0x00\n      swap1\n      sload\n      swap1\n      0x0100\n      exp\n      swap1\n      div\n      0xffffffffffffffffffffffffffffffffffffffff\n      and\n        /* \"marketplace.sol\":9581:9588  tokenId */\n      dup5\n        /* \"marketplace.sol\":9507:9589  IERC721Enumerable(ShoseNFTContract).safeTransferFrom(address(this), Pool2,tokenId) */\n      mload(0x40)\n      dup5\n      0xffffffff\n      and\n      0xe0\n      shl\n      dup2\n      mstore\n      0x04\n      add\n      tag_470\n      swap4\n      swap3\n      swap2\n      swap1\n      tag_258\n      jump\t// in\n    tag_470:\n      0x00\n      mload(0x40)\n      dup1\n      dup4\n      sub\n      dup2\n      0x00\n      dup8\n      dup1\n      extcodesize\n      iszero\n      dup1\n      iszero\n      tag_471\n      jumpi\n      0x00\n      dup1\n      revert\n    tag_471:\n      pop\n      gas\n      call\n      iszero\n      dup1\n      iszero\n      tag_473\n      jumpi\n      returndatasize\n      0x00\n      dup1\n      returndatacopy\n      revert(0x00, returndatasize)\n    tag_473:\n      pop\n      pop\n      pop\n      pop\n        /* \"marketplace.sol\":9327:9596  function sentNFT2Pool2(uint256 tokenId) external onlyOwner {... */\n      pop\n      jump\t// out\n        /* \"marketplace.sol\":332:363  address public ShoseNFTContract */\n    tag_168:\n      0x03\n      0x00\n      swap1\n      sload\n      swap1\n      0x0100\n      exp\n      swap1\n      div\n      0xffffffffffffffffffffffffffffffffffffffff\n      and\n      dup2\n      jump\t// out\n        /* \"marketplace.sol\":2372:2496  function setMinBNB(uint256  _MinBnB) external onlyOwner {... */\n    tag_173:\n        /* \"BEPOwnable.sol\":1085:1094  isOwner() */\n      tag_475\n        /* \"BEPOwnable.sol\":1085:1092  isOwner */\n      tag_127\n        /* \"BEPOwnable.sol\":1085:1094  isOwner() */\n      jump\t// in\n    tag_475:\n        /* \"BEPOwnable.sol\":1077:1131  require(isOwner(), \"Ownable: caller is not the owner\") */\n      tag_476\n      jumpi\n      mload(0x40)\n      0x08c379a000000000000000000000000000000000000000000000000000000000\n      dup2\n      mstore\n      0x04\n      add\n      tag_477\n      swap1\n      tag_190\n      jump\t// in\n    tag_477:\n      mload(0x40)\n      dup1\n      swap2\n      sub\n      swap1\n      revert\n    tag_476:\n        /* \"marketplace.sol\":2447:2454  _MinBnB */\n      dup1\n        /* \"marketplace.sol\":2438:2444  MinBnB */\n      0x06\n        /* \"marketplace.sol\":2438:2454  MinBnB = _MinBnB */\n      dup2\n      swap1\n      sstore\n      pop\n        /* \"marketplace.sol\":2469:2489  changeMinBnB(MinBnB) */\n      0x4d8e30ff458bebdd848488669e63d632954487ca1bc64c28f3c920f74a5f8594\n        /* \"marketplace.sol\":2482:2488  MinBnB */\n      sload(0x06)\n        /* \"marketplace.sol\":2469:2489  changeMinBnB(MinBnB) */\n      mload(0x40)\n      tag_479\n      swap2\n      swap1\n      tag_78\n      jump\t// in\n    tag_479:\n      mload(0x40)\n      dup1\n      swap2\n      sub\n      swap1\n      log1\n        /* \"marketplace.sol\":2372:2496  function setMinBNB(uint256  _MinBnB) external onlyOwner {... */\n      pop\n      jump\t// out\n        /* \"marketplace.sol\":2611:2952  function getMINPrice() public view virtual returns (uint256) {... */\n    tag_176:\n        /* \"marketplace.sol\":2663:2670  uint256 */\n      0x00\n        /* \"marketplace.sol\":2682:2701  uint256 wbnbbalance */\n      dup1\n        /* \"marketplace.sol\":2711:2723  WBNBContract */\n      0x05\n      0x00\n      swap1\n      sload\n      swap1\n      0x0100\n      exp\n      swap1\n      div\n      0xffffffffffffffffffffffffffffffffffffffff\n      and\n        /* \"marketplace.sol\":2704:2734  IBEP20(WBNBContract).balanceOf */\n      0xffffffffffffffffffffffffffffffffffffffff\n      and\n      0x70a08231\n        /* \"marketplace.sol\":2735:2745  LiquidPool */\n      0x02\n      0x00\n      swap1\n      sload\n      swap1\n      0x0100\n      exp\n      swap1\n      div\n      0xffffffffffffffffffffffffffffffffffffffff\n      and\n        /* \"marketplace.sol\":2704:2746  IBEP20(WBNBContract).balanceOf(LiquidPool) */\n      mload(0x40)\n      dup3\n      0xffffffff\n      and\n      0xe0\n      shl\n      dup2\n      mstore\n      0x04\n      add\n      tag_481\n      swap2\n      swap1\n      tag_49\n      jump\t// in\n    tag_481:\n      0x20\n      mload(0x40)\n      dup1\n      dup4\n      sub\n      dup2\n      dup7\n      dup1\n      extcodesize\n      iszero\n      dup1\n      iszero\n      tag_482\n      jumpi\n      0x00\n      dup1\n      revert\n    tag_482:\n      pop\n      gas\n      staticcall\n      iszero\n      dup1\n      iszero\n      tag_484\n      jumpi\n      returndatasize\n      0x00\n      dup1\n      returndatacopy\n      revert(0x00, returndatasize)\n    tag_484:\n      pop\n      pop\n      pop\n      pop\n      mload(0x40)\n      returndatasize\n      not(0x1f)\n      0x1f\n      dup3\n      add\n      and\n      dup3\n      add\n      dup1\n      0x40\n      mstore\n      pop\n      dup2\n      add\n      swap1\n      tag_485\n      swap2\n      swap1\n      tag_218\n      jump\t// in\n    tag_485:\n        /* \"marketplace.sol\":2682:2746  uint256 wbnbbalance = IBEP20(WBNBContract).balanceOf(LiquidPool) */\n      swap1\n      pop\n        /* \"marketplace.sol\":2756:2774  uint256 vimbalance */\n      0x00\n        /* \"marketplace.sol\":2784:2795  VIMContract */\n      0x04\n      0x00\n      swap1\n      sload\n      swap1\n      0x0100\n      exp\n      swap1\n      div\n      0xffffffffffffffffffffffffffffffffffffffff\n      and\n        /* \"marketplace.sol\":2777:2806  IBEP20(VIMContract).balanceOf */\n      0xffffffffffffffffffffffffffffffffffffffff\n      and\n      0x70a08231\n        /* \"marketplace.sol\":2807:2817  LiquidPool */\n      0x02\n      0x00\n      swap1\n      sload\n      swap1\n      0x0100\n      exp\n      swap1\n      div\n      0xffffffffffffffffffffffffffffffffffffffff\n      and\n        /* \"marketplace.sol\":2777:2818  IBEP20(VIMContract).balanceOf(LiquidPool) */\n      mload(0x40)\n      dup3\n      0xffffffff\n      and\n      0xe0\n      shl\n      dup2\n      mstore\n      0x04\n      add\n      tag_486\n      swap2\n      swap1\n      tag_49\n      jump\t// in\n    tag_486:\n      0x20\n      mload(0x40)\n      dup1\n      dup4\n      sub\n      dup2\n      dup7\n      dup1\n      extcodesize\n      iszero\n      dup1\n      iszero\n      tag_487\n      jumpi\n      0x00\n      dup1\n      revert\n    tag_487:\n      pop\n      gas\n      staticcall\n      iszero\n      dup1\n      iszero\n      tag_489\n      jumpi\n      returndatasize\n      0x00\n      dup1\n      returndatacopy\n      revert(0x00, returndatasize)\n    tag_489:\n      pop\n      pop\n      pop\n      pop\n      mload(0x40)\n      returndatasize\n      not(0x1f)\n      0x1f\n      dup3\n      add\n      and\n      dup3\n      add\n      dup1\n      0x40\n      mstore\n      pop\n      dup2\n      add\n      swap1\n      tag_490\n      swap2\n      swap1\n      tag_218\n      jump\t// in\n    tag_490:\n        /* \"marketplace.sol\":2756:2818  uint256 vimbalance = IBEP20(VIMContract).balanceOf(LiquidPool) */\n      swap1\n      pop\n        /* \"marketplace.sol\":2828:2844  uint256 bnbprice */\n      0x00\n        /* \"marketplace.sol\":2858:2869  wbnbbalance */\n      dup3\n        /* \"marketplace.sol\":2847:2857  vimbalance */\n      dup3\n        /* \"marketplace.sol\":2847:2869  vimbalance/wbnbbalance */\n      tag_491\n      swap2\n      swap1\n      tag_316\n      jump\t// in\n    tag_491:\n        /* \"marketplace.sol\":2828:2869  uint256 bnbprice = vimbalance/wbnbbalance */\n      swap1\n      pop\n        /* \"marketplace.sol\":2879:2895  uint256 minprice */\n      0x00\n        /* \"marketplace.sol\":2918:2920  10 */\n      0x0a\n        /* \"marketplace.sol\":2909:2915  MinBnB */\n      sload(0x06)\n        /* \"marketplace.sol\":2898:2906  bnbprice */\n      dup4\n        /* \"marketplace.sol\":2898:2915  bnbprice * MinBnB */\n      tag_492\n      swap2\n      swap1\n      tag_314\n      jump\t// in\n    tag_492:\n        /* \"marketplace.sol\":2898:2920  bnbprice * MinBnB / 10 */\n      tag_493\n      swap2\n      swap1\n      tag_316\n      jump\t// in\n    tag_493:\n        /* \"marketplace.sol\":2879:2920  uint256 minprice = bnbprice * MinBnB / 10 */\n      swap1\n      pop\n        /* \"marketplace.sol\":2937:2945  minprice */\n      dup1\n        /* \"marketplace.sol\":2930:2945  return minprice */\n      swap5\n      pop\n      pop\n      pop\n      pop\n      pop\n        /* \"marketplace.sol\":2611:2952  function getMINPrice() public view virtual returns (uint256) {... */\n      swap1\n      jump\t// out\n        /* \"marketplace.sol\":1729:1864  function setTreasury(address _Treasury) external onlyOwner {... */\n    tag_181:\n        /* \"BEPOwnable.sol\":1085:1094  isOwner() */\n      tag_495\n        /* \"BEPOwnable.sol\":1085:1092  isOwner */\n      tag_127\n        /* \"BEPOwnable.sol\":1085:1094  isOwner() */\n      jump\t// in\n    tag_495:\n        /* \"BEPOwnable.sol\":1077:1131  require(isOwner(), \"Ownable: caller is not the owner\") */\n      tag_496\n      jumpi\n      mload(0x40)\n      0x08c379a000000000000000000000000000000000000000000000000000000000\n      dup2\n      mstore\n      0x04\n      add\n      tag_497\n      swap1\n      tag_190\n      jump\t// in\n    tag_497:\n      mload(0x40)\n      dup1\n      swap2\n      sub\n      swap1\n      revert\n    tag_496:\n        /* \"marketplace.sol\":1809:1818  _Treasury */\n      dup1\n        /* \"marketplace.sol\":1798:1806  Treasury */\n      0x01\n      0x00\n        /* \"marketplace.sol\":1798:1818  Treasury = _Treasury */\n      0x0100\n      exp\n      dup2\n      sload\n      dup2\n      0xffffffffffffffffffffffffffffffffffffffff\n      mul\n      not\n      and\n      swap1\n      dup4\n      0xffffffffffffffffffffffffffffffffffffffff\n      and\n      mul\n      or\n      swap1\n      sstore\n      pop\n        /* \"marketplace.sol\":1833:1857  changeTreasury(Treasury) */\n      0xb14f2a39bb21fda32827bbdb4be629c94036e10a3f6055a6454f884ca1b33fa1\n        /* \"marketplace.sol\":1848:1856  Treasury */\n      0x01\n      0x00\n      swap1\n      sload\n      swap1\n      0x0100\n      exp\n      swap1\n      div\n      0xffffffffffffffffffffffffffffffffffffffff\n      and\n        /* \"marketplace.sol\":1833:1857  changeTreasury(Treasury) */\n      mload(0x40)\n      tag_499\n      swap2\n      swap1\n      tag_49\n      jump\t// in\n    tag_499:\n      mload(0x40)\n      dup1\n      swap2\n      sub\n      swap1\n      log1\n        /* \"marketplace.sol\":1729:1864  function setTreasury(address _Treasury) external onlyOwner {... */\n      pop\n      jump\t// out\n        /* \"BEPOwnable.sol\":1896:1997  function transferOwnership(address newOwner) public onlyOwner {... */\n    tag_185:\n        /* \"BEPOwnable.sol\":1085:1094  isOwner() */\n      tag_501\n        /* \"BEPOwnable.sol\":1085:1092  isOwner */\n      tag_127\n        /* \"BEPOwnable.sol\":1085:1094  isOwner() */\n      jump\t// in\n    tag_501:\n        /* \"BEPOwnable.sol\":1077:1131  require(isOwner(), \"Ownable: caller is not the owner\") */\n      tag_502\n      jumpi\n      mload(0x40)\n      0x08c379a000000000000000000000000000000000000000000000000000000000\n      dup2\n      mstore\n      0x04\n      add\n      tag_503\n      swap1\n      tag_190\n      jump\t// in\n    tag_503:\n      mload(0x40)\n      dup1\n      swap2\n      sub\n      swap1\n      revert\n    tag_502:\n        /* \"BEPOwnable.sol\":1964:1992  _transferOwnership(newOwner) */\n      tag_505\n        /* \"BEPOwnable.sol\":1983:1991  newOwner */\n      dup2\n        /* \"BEPOwnable.sol\":1964:1982  _transferOwnership */\n      tag_506\n        /* \"BEPOwnable.sol\":1964:1992  _transferOwnership(newOwner) */\n      jump\t// in\n    tag_505:\n        /* \"BEPOwnable.sol\":1896:1997  function transferOwnership(address newOwner) public onlyOwner {... */\n      pop\n      jump\t// out\n        /* \"marketplace.sol\":6624:7051  function removeNFTSell(uint256 tokenId) internal{... */\n    tag_235:\n        /* \"marketplace.sol\":6689:6698  shoseSell */\n      0x0a\n        /* \"marketplace.sol\":6689:6707  shoseSell[tokenId] */\n      0x00\n        /* \"marketplace.sol\":6699:6706  tokenId */\n      dup3\n        /* \"marketplace.sol\":6689:6707  shoseSell[tokenId] */\n      dup2\n      mstore\n      0x20\n      add\n      swap1\n      dup2\n      mstore\n      0x20\n      add\n      0x00\n      keccak256\n        /* \"marketplace.sol\":6682:6707  delete shoseSell[tokenId] */\n      0x00\n      swap1\n      sstore\n        /* \"marketplace.sol\":6721:6730  uint256 i */\n      0x00\n        /* \"marketplace.sol\":6717:7045  for(uint256 i = 0; i < allTokensSell.length; i++){... */\n    tag_508:\n        /* \"marketplace.sol\":6740:6753  allTokensSell */\n      0x0c\n        /* \"marketplace.sol\":6740:6760  allTokensSell.length */\n      dup1\n      sload\n      swap1\n      pop\n        /* \"marketplace.sol\":6736:6737  i */\n      dup2\n        /* \"marketplace.sol\":6736:6760  i < allTokensSell.length */\n      lt\n        /* \"marketplace.sol\":6717:7045  for(uint256 i = 0; i < allTokensSell.length; i++){... */\n      iszero\n      tag_509\n      jumpi\n        /* \"marketplace.sol\":6803:6810  tokenId */\n      dup2\n        /* \"marketplace.sol\":6783:6796  allTokensSell */\n      0x0c\n        /* \"marketplace.sol\":6797:6798  i */\n      dup3\n        /* \"marketplace.sol\":6783:6799  allTokensSell[i] */\n      dup2\n      sload\n      dup2\n      lt\n      tag_511\n      jumpi\n      tag_512\n      tag_405\n      jump\t// in\n    tag_512:\n    tag_511:\n      swap1\n      0x00\n      mstore\n      keccak256(0x00, 0x20)\n      add\n      sload\n        /* \"marketplace.sol\":6783:6810  allTokensSell[i] == tokenId */\n      eq\n        /* \"marketplace.sol\":6780:7035  if(allTokensSell[i] == tokenId){... */\n      iszero\n      tag_514\n      jumpi\n        /* \"marketplace.sol\":6833:6842  uint256 k */\n      0x00\n        /* \"marketplace.sol\":6845:6846  i */\n      dup2\n        /* \"marketplace.sol\":6833:6846  uint256 k = i */\n      swap1\n      pop\n        /* \"marketplace.sol\":6829:6960  for(uint256 k = i; k < allTokensSell.length - 1; k++){... */\n    tag_515:\n        /* \"marketplace.sol\":6875:6876  1 */\n      0x01\n        /* \"marketplace.sol\":6852:6865  allTokensSell */\n      0x0c\n        /* \"marketplace.sol\":6852:6872  allTokensSell.length */\n      dup1\n      sload\n      swap1\n      pop\n        /* \"marketplace.sol\":6852:6876  allTokensSell.length - 1 */\n      tag_518\n      swap2\n      swap1\n      tag_312\n      jump\t// in\n    tag_518:\n        /* \"marketplace.sol\":6848:6849  k */\n      dup2\n        /* \"marketplace.sol\":6848:6876  k < allTokensSell.length - 1 */\n      lt\n        /* \"marketplace.sol\":6829:6960  for(uint256 k = i; k < allTokensSell.length - 1; k++){... */\n      iszero\n      tag_516\n      jumpi\n        /* \"marketplace.sol\":6923:6936  allTokensSell */\n      0x0c\n        /* \"marketplace.sol\":6939:6940  1 */\n      0x01\n        /* \"marketplace.sol\":6937:6938  k */\n      dup3\n        /* \"marketplace.sol\":6937:6940  k+1 */\n      tag_519\n      swap2\n      swap1\n      tag_520\n      jump\t// in\n    tag_519:\n        /* \"marketplace.sol\":6923:6941  allTokensSell[k+1] */\n      dup2\n      sload\n      dup2\n      lt\n      tag_521\n      jumpi\n      tag_522\n      tag_405\n      jump\t// in\n    tag_522:\n    tag_521:\n      swap1\n      0x00\n      mstore\n      keccak256(0x00, 0x20)\n      add\n      sload\n        /* \"marketplace.sol\":6904:6917  allTokensSell */\n      0x0c\n        /* \"marketplace.sol\":6918:6919  k */\n      dup3\n        /* \"marketplace.sol\":6904:6920  allTokensSell[k] */\n      dup2\n      sload\n      dup2\n      lt\n      tag_524\n      jumpi\n      tag_525\n      tag_405\n      jump\t// in\n    tag_525:\n    tag_524:\n      swap1\n      0x00\n      mstore\n      keccak256(0x00, 0x20)\n      add\n        /* \"marketplace.sol\":6904:6941  allTokensSell[k] = allTokensSell[k+1] */\n      dup2\n      swap1\n      sstore\n      pop\n        /* \"marketplace.sol\":6878:6881  k++ */\n      dup1\n      dup1\n      tag_527\n      swap1\n      tag_432\n      jump\t// in\n    tag_527:\n      swap2\n      pop\n      pop\n        /* \"marketplace.sol\":6829:6960  for(uint256 k = i; k < allTokensSell.length - 1; k++){... */\n      jump(tag_515)\n    tag_516:\n      pop\n        /* \"marketplace.sol\":6977:6990  allTokensSell */\n      0x0c\n        /* \"marketplace.sol\":6977:6996  allTokensSell.pop() */\n      dup1\n      sload\n      dup1\n      tag_528\n      jumpi\n      tag_529\n      tag_530\n      jump\t// in\n    tag_529:\n    tag_528:\n      0x01\n      swap1\n      sub\n      dup2\n      dup2\n      swap1\n      0x00\n      mstore\n      keccak256(0x00, 0x20)\n      add\n      0x00\n      swap1\n      sstore\n      swap1\n      sstore\n        /* \"marketplace.sol\":7014:7021  return; */\n      pop\n      jump(tag_507)\n        /* \"marketplace.sol\":6780:7035  if(allTokensSell[i] == tokenId){... */\n    tag_514:\n        /* \"marketplace.sol\":6762:6765  i++ */\n      dup1\n      dup1\n      tag_532\n      swap1\n      tag_432\n      jump\t// in\n    tag_532:\n      swap2\n      pop\n      pop\n        /* \"marketplace.sol\":6717:7045  for(uint256 i = 0; i < allTokensSell.length; i++){... */\n      jump(tag_508)\n    tag_509:\n      pop\n        /* \"marketplace.sol\":6624:7051  function removeNFTSell(uint256 tokenId) internal{... */\n    tag_507:\n      pop\n      jump\t// out\n        /* \"marketplace.sol\":7057:7751  function addNFTSell(uint256 tokenId, uint256 price, address seller) internal{... */\n    tag_359:\n        /* \"marketplace.sol\":7164:7169  price */\n      dup2\n        /* \"marketplace.sol\":7143:7152  shoseSell */\n      0x0a\n        /* \"marketplace.sol\":7143:7161  shoseSell[tokenId] */\n      0x00\n        /* \"marketplace.sol\":7153:7160  tokenId */\n      dup6\n        /* \"marketplace.sol\":7143:7161  shoseSell[tokenId] */\n      dup2\n      mstore\n      0x20\n      add\n      swap1\n      dup2\n      mstore\n      0x20\n      add\n      0x00\n      keccak256\n        /* \"marketplace.sol\":7143:7169  shoseSell[tokenId] = price */\n      dup2\n      swap1\n      sstore\n      pop\n        /* \"marketplace.sol\":7202:7208  seller */\n      dup1\n        /* \"marketplace.sol\":7179:7190  shoseSeller */\n      0x0b\n        /* \"marketplace.sol\":7179:7199  shoseSeller[tokenId] */\n      0x00\n        /* \"marketplace.sol\":7191:7198  tokenId */\n      dup6\n        /* \"marketplace.sol\":7179:7199  shoseSeller[tokenId] */\n      dup2\n      mstore\n      0x20\n      add\n      swap1\n      dup2\n      mstore\n      0x20\n      add\n      0x00\n      keccak256\n      0x00\n        /* \"marketplace.sol\":7179:7208  shoseSeller[tokenId] = seller */\n      0x0100\n      exp\n      dup2\n      sload\n      dup2\n      0xffffffffffffffffffffffffffffffffffffffff\n      mul\n      not\n      and\n      swap1\n      dup4\n      0xffffffffffffffffffffffffffffffffffffffff\n      and\n      mul\n      or\n      swap1\n      sstore\n      pop\n        /* \"marketplace.sol\":7218:7231  allTokensSell */\n      0x0c\n        /* \"marketplace.sol\":7237:7244  tokenId */\n      dup4\n        /* \"marketplace.sol\":7218:7245  allTokensSell.push(tokenId) */\n      swap1\n      dup1\n      0x01\n      dup2\n      sload\n      add\n      dup1\n      dup3\n      sstore\n      dup1\n      swap2\n      pop\n      pop\n      0x01\n      swap1\n      sub\n      swap1\n      0x00\n      mstore\n      keccak256(0x00, 0x20)\n      add\n      0x00\n      swap1\n      swap2\n      swap1\n      swap2\n      swap1\n      swap2\n      pop\n      sstore\n        /* \"marketplace.sol\":7282:7283  2 */\n      0x02\n        /* \"marketplace.sol\":7258:7271  allTokensSell */\n      0x0c\n        /* \"marketplace.sol\":7258:7278  allTokensSell.length */\n      dup1\n      sload\n      swap1\n      pop\n        /* \"marketplace.sol\":7258:7283  allTokensSell.length >= 2 */\n      lt\n        /* \"marketplace.sol\":7255:7745  if(allTokensSell.length >= 2){... */\n      tag_535\n      jumpi\n        /* \"marketplace.sol\":7302:7311  uint256 i */\n      0x00\n        /* \"marketplace.sol\":7335:7336  2 */\n      0x02\n        /* \"marketplace.sol\":7314:7327  allTokensSell */\n      0x0c\n        /* \"marketplace.sol\":7314:7334  allTokensSell.length */\n      dup1\n      sload\n      swap1\n      pop\n        /* \"marketplace.sol\":7314:7336  allTokensSell.length-2 */\n      tag_539\n      swap2\n      swap1\n      tag_312\n      jump\t// in\n    tag_539:\n        /* \"marketplace.sol\":7302:7336  uint256 i = allTokensSell.length-2 */\n      swap1\n      pop\n        /* \"marketplace.sol\":7298:7735  for(uint256 i = allTokensSell.length-2; i >=0; i--){... */\n    tag_536:\n        /* \"marketplace.sol\":7342:7343  0 */\n      0x00\n        /* \"marketplace.sol\":7338:7339  i */\n      dup2\n        /* \"marketplace.sol\":7338:7343  i >=0 */\n      lt\n        /* \"marketplace.sol\":7298:7735  for(uint256 i = allTokensSell.length-2; i >=0; i--){... */\n      tag_537\n      jumpi\n        /* \"marketplace.sol\":7400:7405  price */\n      dup3\n        /* \"marketplace.sol\":7370:7379  shoseSell */\n      0x0a\n        /* \"marketplace.sol\":7370:7397  shoseSell[allTokensSell[i]] */\n      0x00\n        /* \"marketplace.sol\":7380:7393  allTokensSell */\n      0x0c\n        /* \"marketplace.sol\":7394:7395  i */\n      dup5\n        /* \"marketplace.sol\":7380:7396  allTokensSell[i] */\n      dup2\n      sload\n      dup2\n      lt\n      tag_540\n      jumpi\n      tag_541\n      tag_405\n      jump\t// in\n    tag_541:\n    tag_540:\n      swap1\n      0x00\n      mstore\n      keccak256(0x00, 0x20)\n      add\n      sload\n        /* \"marketplace.sol\":7370:7397  shoseSell[allTokensSell[i]] */\n      dup2\n      mstore\n      0x20\n      add\n      swap1\n      dup2\n      mstore\n      0x20\n      add\n      0x00\n      keccak256\n      sload\n        /* \"marketplace.sol\":7370:7405  shoseSell[allTokensSell[i]] > price */\n      gt\n        /* \"marketplace.sol\":7367:7721  if(shoseSell[allTokensSell[i]] > price){... */\n      iszero\n      tag_543\n      jumpi\n        /* \"marketplace.sol\":7449:7462  allTokensSell */\n      0x0c\n        /* \"marketplace.sol\":7463:7464  i */\n      dup2\n        /* \"marketplace.sol\":7449:7465  allTokensSell[i] */\n      dup2\n      sload\n      dup2\n      lt\n      tag_544\n      jumpi\n      tag_545\n      tag_405\n      jump\t// in\n    tag_545:\n    tag_544:\n      swap1\n      0x00\n      mstore\n      keccak256(0x00, 0x20)\n      add\n      sload\n        /* \"marketplace.sol\":7428:7441  allTokensSell */\n      0x0c\n        /* \"marketplace.sol\":7444:7445  1 */\n      0x01\n        /* \"marketplace.sol\":7442:7443  i */\n      dup4\n        /* \"marketplace.sol\":7442:7445  i+1 */\n      tag_547\n      swap2\n      swap1\n      tag_520\n      jump\t// in\n    tag_547:\n        /* \"marketplace.sol\":7428:7446  allTokensSell[i+1] */\n      dup2\n      sload\n      dup2\n      lt\n      tag_548\n      jumpi\n      tag_549\n      tag_405\n      jump\t// in\n    tag_549:\n    tag_548:\n      swap1\n      0x00\n      mstore\n      keccak256(0x00, 0x20)\n      add\n        /* \"marketplace.sol\":7428:7465  allTokensSell[i+1] = allTokensSell[i] */\n      dup2\n      swap1\n      sstore\n      pop\n        /* \"marketplace.sol\":7493:7494  0 */\n      0x00\n        /* \"marketplace.sol\":7490:7491  i */\n      dup2\n        /* \"marketplace.sol\":7490:7494  i==0 */\n      eq\n        /* \"marketplace.sol\":7487:7602  if(i==0){... */\n      iszero\n      tag_551\n      jumpi\n        /* \"marketplace.sol\":7540:7547  tokenId */\n      dup4\n        /* \"marketplace.sol\":7521:7534  allTokensSell */\n      0x0c\n        /* \"marketplace.sol\":7535:7536  0 */\n      0x00\n        /* \"marketplace.sol\":7521:7537  allTokensSell[0] */\n      dup2\n      sload\n      dup2\n      lt\n      tag_552\n      jumpi\n      tag_553\n      tag_405\n      jump\t// in\n    tag_553:\n    tag_552:\n      swap1\n      0x00\n      mstore\n      keccak256(0x00, 0x20)\n      add\n        /* \"marketplace.sol\":7521:7547  allTokensSell[0] = tokenId */\n      dup2\n      swap1\n      sstore\n      pop\n        /* \"marketplace.sol\":7573:7580  return; */\n      pop\n      jump(tag_533)\n        /* \"marketplace.sol\":7487:7602  if(i==0){... */\n    tag_551:\n        /* \"marketplace.sol\":7367:7721  if(shoseSell[allTokensSell[i]] > price){... */\n      jump(tag_555)\n    tag_543:\n        /* \"marketplace.sol\":7667:7674  tokenId */\n      dup4\n        /* \"marketplace.sol\":7646:7659  allTokensSell */\n      0x0c\n        /* \"marketplace.sol\":7662:7663  1 */\n      0x01\n        /* \"marketplace.sol\":7660:7661  i */\n      dup4\n        /* \"marketplace.sol\":7660:7663  i+1 */\n      tag_556\n      swap2\n      swap1\n      tag_520\n      jump\t// in\n    tag_556:\n        /* \"marketplace.sol\":7646:7664  allTokensSell[i+1] */\n      dup2\n      sload\n      dup2\n      lt\n      tag_557\n      jumpi\n      tag_558\n      tag_405\n      jump\t// in\n    tag_558:\n    tag_557:\n      swap1\n      0x00\n      mstore\n      keccak256(0x00, 0x20)\n      add\n        /* \"marketplace.sol\":7646:7674  allTokensSell[i+1] = tokenId */\n      dup2\n      swap1\n      sstore\n      pop\n        /* \"marketplace.sol\":7696:7703  return; */\n      pop\n      jump(tag_533)\n        /* \"marketplace.sol\":7367:7721  if(shoseSell[allTokensSell[i]] > price){... */\n    tag_555:\n        /* \"marketplace.sol\":7345:7348  i-- */\n      dup1\n      dup1\n      tag_560\n      swap1\n      tag_561\n      jump\t// in\n    tag_560:\n      swap2\n      pop\n      pop\n        /* \"marketplace.sol\":7298:7735  for(uint256 i = allTokensSell.length-2; i >=0; i--){... */\n      jump(tag_536)\n    tag_537:\n      pop\n        /* \"marketplace.sol\":7255:7745  if(allTokensSell.length >= 2){... */\n    tag_535:\n        /* \"marketplace.sol\":7057:7751  function addNFTSell(uint256 tokenId, uint256 price, address seller) internal{... */\n    tag_533:\n      pop\n      pop\n      pop\n      jump\t// out\n        /* \"BEPContext.sol\":760:859  function _msgSender() internal view returns (address payable) {... */\n    tag_391:\n        /* \"BEPContext.sol\":805:820  address payable */\n      0x00\n        /* \"BEPContext.sol\":843:853  msg.sender */\n      caller\n        /* \"BEPContext.sol\":828:854  return payable(msg.sender) */\n      swap1\n      pop\n        /* \"BEPContext.sol\":760:859  function _msgSender() internal view returns (address payable) {... */\n      swap1\n      jump\t// out\n        /* \"BEPOwnable.sol\":2090:2301  function _transferOwnership(address newOwner) internal {... */\n    tag_506:\n        /* \"BEPOwnable.sol\":2179:2180  0 */\n      0x00\n        /* \"BEPOwnable.sol\":2159:2181  newOwner != address(0) */\n      0xffffffffffffffffffffffffffffffffffffffff\n      and\n        /* \"BEPOwnable.sol\":2159:2167  newOwner */\n      dup2\n        /* \"BEPOwnable.sol\":2159:2181  newOwner != address(0) */\n      0xffffffffffffffffffffffffffffffffffffffff\n      and\n      eq\n      iszero\n        /* \"BEPOwnable.sol\":2151:2224  require(newOwner != address(0), \"Ownable: new owner is the zero address\") */\n      tag_564\n      jumpi\n      mload(0x40)\n      0x08c379a000000000000000000000000000000000000000000000000000000000\n      dup2\n      mstore\n      0x04\n      add\n      tag_565\n      swap1\n      tag_566\n      jump\t// in\n    tag_565:\n      mload(0x40)\n      dup1\n      swap2\n      sub\n      swap1\n      revert\n    tag_564:\n        /* \"BEPOwnable.sol\":2264:2272  newOwner */\n      dup1\n        /* \"BEPOwnable.sol\":2235:2273  OwnershipTransferred(_owner, newOwner) */\n      0xffffffffffffffffffffffffffffffffffffffff\n      and\n        /* \"BEPOwnable.sol\":2256:2262  _owner */\n      0x00\n      dup1\n      sload\n      swap1\n      0x0100\n      exp\n      swap1\n      div\n      0xffffffffffffffffffffffffffffffffffffffff\n      and\n        /* \"BEPOwnable.sol\":2235:2273  OwnershipTransferred(_owner, newOwner) */\n      0xffffffffffffffffffffffffffffffffffffffff\n      and\n      0x8be0079c531659141344cd1fd0a4f28419497f9722a3daafe3b4186f6b6457e0\n      mload(0x40)\n      mload(0x40)\n      dup1\n      swap2\n      sub\n      swap1\n      log3\n        /* \"BEPOwnable.sol\":2288:2296  newOwner */\n      dup1\n        /* \"BEPOwnable.sol\":2279:2285  _owner */\n      0x00\n      dup1\n        /* \"BEPOwnable.sol\":2279:2296  _owner = newOwner */\n      0x0100\n      exp\n      dup2\n      sload\n      dup2\n      0xffffffffffffffffffffffffffffffffffffffff\n      mul\n      not\n      and\n      swap1\n      dup4\n      0xffffffffffffffffffffffffffffffffffffffff\n      and\n      mul\n      or\n      swap1\n      sstore\n      pop\n        /* \"BEPOwnable.sol\":2090:2301  function _transferOwnership(address newOwner) internal {... */\n      pop\n      jump\t// out\n        /* \"#utility.yul\":7:146   */\n    tag_568:\n        /* \"#utility.yul\":53:58   */\n      0x00\n        /* \"#utility.yul\":91:97   */\n      dup2\n        /* \"#utility.yul\":78:98   */\n      calldataload\n        /* \"#utility.yul\":69:98   */\n      swap1\n      pop\n        /* \"#utility.yul\":107:140   */\n      tag_570\n        /* \"#utility.yul\":134:139   */\n      dup2\n        /* \"#utility.yul\":107:140   */\n      tag_571\n      jump\t// in\n    tag_570:\n        /* \"#utility.yul\":7:146   */\n      swap3\n      swap2\n      pop\n      pop\n      jump\t// out\n        /* \"#utility.yul\":152:295   */\n    tag_572:\n        /* \"#utility.yul\":209:214   */\n      0x00\n        /* \"#utility.yul\":240:246   */\n      dup2\n        /* \"#utility.yul\":234:247   */\n      mload\n        /* \"#utility.yul\":225:247   */\n      swap1\n      pop\n        /* \"#utility.yul\":256:289   */\n      tag_574\n        /* \"#utility.yul\":283:288   */\n      dup2\n        /* \"#utility.yul\":256:289   */\n      tag_571\n      jump\t// in\n    tag_574:\n        /* \"#utility.yul\":152:295   */\n      swap3\n      swap2\n      pop\n      pop\n      jump\t// out\n        /* \"#utility.yul\":301:438   */\n    tag_575:\n        /* \"#utility.yul\":355:360   */\n      0x00\n        /* \"#utility.yul\":386:392   */\n      dup2\n        /* \"#utility.yul\":380:393   */\n      mload\n        /* \"#utility.yul\":371:393   */\n      swap1\n      pop\n        /* \"#utility.yul\":402:432   */\n      tag_577\n        /* \"#utility.yul\":426:431   */\n      dup2\n        /* \"#utility.yul\":402:432   */\n      tag_578\n      jump\t// in\n    tag_577:\n        /* \"#utility.yul\":301:438   */\n      swap3\n      swap2\n      pop\n      pop\n      jump\t// out\n        /* \"#utility.yul\":444:583   */\n    tag_579:\n        /* \"#utility.yul\":490:495   */\n      0x00\n        /* \"#utility.yul\":528:534   */\n      dup2\n        /* \"#utility.yul\":515:535   */\n      calldataload\n        /* \"#utility.yul\":506:535   */\n      swap1\n      pop\n        /* \"#utility.yul\":544:577   */\n      tag_581\n        /* \"#utility.yul\":571:576   */\n      dup2\n        /* \"#utility.yul\":544:577   */\n      tag_582\n      jump\t// in\n    tag_581:\n        /* \"#utility.yul\":444:583   */\n      swap3\n      swap2\n      pop\n      pop\n      jump\t// out\n        /* \"#utility.yul\":589:732   */\n    tag_583:\n        /* \"#utility.yul\":646:651   */\n      0x00\n        /* \"#utility.yul\":677:683   */\n      dup2\n        /* \"#utility.yul\":671:684   */\n      mload\n        /* \"#utility.yul\":662:684   */\n      swap1\n      pop\n        /* \"#utility.yul\":693:726   */\n      tag_585\n        /* \"#utility.yul\":720:725   */\n      dup2\n        /* \"#utility.yul\":693:726   */\n      tag_582\n      jump\t// in\n    tag_585:\n        /* \"#utility.yul\":589:732   */\n      swap3\n      swap2\n      pop\n      pop\n      jump\t// out\n        /* \"#utility.yul\":738:1067   */\n    tag_53:\n        /* \"#utility.yul\":797:803   */\n      0x00\n        /* \"#utility.yul\":846:848   */\n      0x20\n        /* \"#utility.yul\":834:843   */\n      dup3\n        /* \"#utility.yul\":825:832   */\n      dup5\n        /* \"#utility.yul\":821:844   */\n      sub\n        /* \"#utility.yul\":817:849   */\n      slt\n        /* \"#utility.yul\":814:933   */\n      iszero\n      tag_587\n      jumpi\n        /* \"#utility.yul\":852:931   */\n      tag_588\n      tag_589\n      jump\t// in\n    tag_588:\n        /* \"#utility.yul\":814:933   */\n    tag_587:\n        /* \"#utility.yul\":972:973   */\n      0x00\n        /* \"#utility.yul\":997:1050   */\n      tag_590\n        /* \"#utility.yul\":1042:1049   */\n      dup5\n        /* \"#utility.yul\":1033:1039   */\n      dup3\n        /* \"#utility.yul\":1022:1031   */\n      dup6\n        /* \"#utility.yul\":1018:1040   */\n      add\n        /* \"#utility.yul\":997:1050   */\n      tag_568\n      jump\t// in\n    tag_590:\n        /* \"#utility.yul\":987:1050   */\n      swap2\n      pop\n        /* \"#utility.yul\":943:1060   */\n      pop\n        /* \"#utility.yul\":738:1067   */\n      swap3\n      swap2\n      pop\n      pop\n      jump\t// out\n        /* \"#utility.yul\":1073:1424   */\n    tag_230:\n        /* \"#utility.yul\":1143:1149   */\n      0x00\n        /* \"#utility.yul\":1192:1194   */\n      0x20\n        /* \"#utility.yul\":1180:1189   */\n      dup3\n        /* \"#utility.yul\":1171:1178   */\n      dup5\n        /* \"#utility.yul\":1167:1190   */\n      sub\n        /* \"#utility.yul\":1163:1195   */\n      slt\n        /* \"#utility.yul\":1160:1279   */\n      iszero\n      tag_592\n      jumpi\n        /* \"#utility.yul\":1198:1277   */\n      tag_593\n      tag_589\n      jump\t// in\n    tag_593:\n        /* \"#utility.yul\":1160:1279   */\n    tag_592:\n        /* \"#utility.yul\":1318:1319   */\n      0x00\n        /* \"#utility.yul\":1343:1407   */\n      tag_594\n        /* \"#utility.yul\":1399:1406   */\n      dup5\n        /* \"#utility.yul\":1390:1396   */\n      dup3\n        /* \"#utility.yul\":1379:1388   */\n      dup6\n        /* \"#utility.yul\":1375:1397   */\n      add\n        /* \"#utility.yul\":1343:1407   */\n      tag_572\n      jump\t// in\n    tag_594:\n        /* \"#utility.yul\":1333:1407   */\n      swap2\n      pop\n        /* \"#utility.yul\":1289:1417   */\n      pop\n        /* \"#utility.yul\":1073:1424   */\n      swap3\n      swap2\n      pop\n      pop\n      jump\t// out\n        /* \"#utility.yul\":1430:1904   */\n    tag_99:\n        /* \"#utility.yul\":1498:1504   */\n      0x00\n        /* \"#utility.yul\":1506:1512   */\n      dup1\n        /* \"#utility.yul\":1555:1557   */\n      0x40\n        /* \"#utility.yul\":1543:1552   */\n      dup4\n        /* \"#utility.yul\":1534:1541   */\n      dup6\n        /* \"#utility.yul\":1530:1553   */\n      sub\n        /* \"#utility.yul\":1526:1558   */\n      slt\n        /* \"#utility.yul\":1523:1642   */\n      iszero\n      tag_596\n      jumpi\n        /* \"#utility.yul\":1561:1640   */\n      tag_597\n      tag_589\n      jump\t// in\n    tag_597:\n        /* \"#utility.yul\":1523:1642   */\n    tag_596:\n        /* \"#utility.yul\":1681:1682   */\n      0x00\n        /* \"#utility.yul\":1706:1759   */\n      tag_598\n        /* \"#utility.yul\":1751:1758   */\n      dup6\n        /* \"#utility.yul\":1742:1748   */\n      dup3\n        /* \"#utility.yul\":1731:1740   */\n      dup7\n        /* \"#utility.yul\":1727:1749   */\n      add\n        /* \"#utility.yul\":1706:1759   */\n      tag_568\n      jump\t// in\n    tag_598:\n        /* \"#utility.yul\":1696:1759   */\n      swap3\n      pop\n        /* \"#utility.yul\":1652:1769   */\n      pop\n        /* \"#utility.yul\":1808:1810   */\n      0x20\n        /* \"#utility.yul\":1834:1887   */\n      tag_599\n        /* \"#utility.yul\":1879:1886   */\n      dup6\n        /* \"#utility.yul\":1870:1876   */\n      dup3\n        /* \"#utility.yul\":1859:1868   */\n      dup7\n        /* \"#utility.yul\":1855:1877   */\n      add\n        /* \"#utility.yul\":1834:1887   */\n      tag_579\n      jump\t// in\n    tag_599:\n        /* \"#utility.yul\":1824:1887   */\n      swap2\n      pop\n        /* \"#utility.yul\":1779:1897   */\n      pop\n        /* \"#utility.yul\":1430:1904   */\n      swap3\n      pop\n      swap3\n      swap1\n      pop\n      jump\t// out\n        /* \"#utility.yul\":1910:2255   */\n    tag_247:\n        /* \"#utility.yul\":1977:1983   */\n      0x00\n        /* \"#utility.yul\":2026:2028   */\n      0x20\n        /* \"#utility.yul\":2014:2023   */\n      dup3\n        /* \"#utility.yul\":2005:2012   */\n      dup5\n        /* \"#utility.yul\":2001:2024   */\n      sub\n        /* \"#utility.yul\":1997:2029   */\n      slt\n        /* \"#utility.yul\":1994:2113   */\n      iszero\n      tag_601\n      jumpi\n        /* \"#utility.yul\":2032:2111   */\n      tag_602\n      tag_589\n      jump\t// in\n    tag_602:\n        /* \"#utility.yul\":1994:2113   */\n    tag_601:\n        /* \"#utility.yul\":2152:2153   */\n      0x00\n        /* \"#utility.yul\":2177:2238   */\n      tag_603\n        /* \"#utility.yul\":2230:2237   */\n      dup5\n        /* \"#utility.yul\":2221:2227   */\n      dup3\n        /* \"#utility.yul\":2210:2219   */\n      dup6\n        /* \"#utility.yul\":2206:2228   */\n      add\n        /* \"#utility.yul\":2177:2238   */\n      tag_575\n      jump\t// in\n    tag_603:\n        /* \"#utility.yul\":2167:2238   */\n      swap2\n      pop\n        /* \"#utility.yul\":2123:2248   */\n      pop\n        /* \"#utility.yul\":1910:2255   */\n      swap3\n      swap2\n      pop\n      pop\n      jump\t// out\n        /* \"#utility.yul\":2261:2590   */\n    tag_58:\n        /* \"#utility.yul\":2320:2326   */\n      0x00\n        /* \"#utility.yul\":2369:2371   */\n      0x20\n        /* \"#utility.yul\":2357:2366   */\n      dup3\n        /* \"#utility.yul\":2348:2355   */\n      dup5\n        /* \"#utility.yul\":2344:2367   */\n      sub\n        /* \"#utility.yul\":2340:2372   */\n      slt\n        /* \"#utility.yul\":2337:2456   */\n      iszero\n      tag_605\n      jumpi\n        /* \"#utility.yul\":2375:2454   */\n      tag_606\n      tag_589\n      jump\t// in\n    tag_606:\n        /* \"#utility.yul\":2337:2456   */\n    tag_605:\n        /* \"#utility.yul\":2495:2496   */\n      0x00\n        /* \"#utility.yul\":2520:2573   */\n      tag_607\n        /* \"#utility.yul\":2565:2572   */\n      dup5\n        /* \"#utility.yul\":2556:2562   */\n      dup3\n        /* \"#utility.yul\":2545:2554   */\n      dup6\n        /* \"#utility.yul\":2541:2563   */\n      add\n        /* \"#utility.yul\":2520:2573   */\n      tag_579\n      jump\t// in\n    tag_607:\n        /* \"#utility.yul\":2510:2573   */\n      swap2\n      pop\n        /* \"#utility.yul\":2466:2583   */\n      pop\n        /* \"#utility.yul\":2261:2590   */\n      swap3\n      swap2\n      pop\n      pop\n      jump\t// out\n        /* \"#utility.yul\":2596:2947   */\n    tag_218:\n        /* \"#utility.yul\":2666:2672   */\n      0x00\n        /* \"#utility.yul\":2715:2717   */\n      0x20\n        /* \"#utility.yul\":2703:2712   */\n      dup3\n        /* \"#utility.yul\":2694:2701   */\n      dup5\n        /* \"#utility.yul\":2690:2713   */\n      sub\n        /* \"#utility.yul\":2686:2718   */\n      slt\n        /* \"#utility.yul\":2683:2802   */\n      iszero\n      tag_609\n      jumpi\n        /* \"#utility.yul\":2721:2800   */\n      tag_610\n      tag_589\n      jump\t// in\n    tag_610:\n        /* \"#utility.yul\":2683:2802   */\n    tag_609:\n        /* \"#utility.yul\":2841:2842   */\n      0x00\n        /* \"#utility.yul\":2866:2930   */\n      tag_611\n        /* \"#utility.yul\":2922:2929   */\n      dup5\n        /* \"#utility.yul\":2913:2919   */\n      dup3\n        /* \"#utility.yul\":2902:2911   */\n      dup6\n        /* \"#utility.yul\":2898:2920   */\n      add\n        /* \"#utility.yul\":2866:2930   */\n      tag_583\n      jump\t// in\n    tag_611:\n        /* \"#utility.yul\":2856:2930   */\n      swap2\n      pop\n        /* \"#utility.yul\":2812:2940   */\n      pop\n        /* \"#utility.yul\":2596:2947   */\n      swap3\n      swap2\n      pop\n      pop\n      jump\t// out\n        /* \"#utility.yul\":2953:3427   */\n    tag_111:\n        /* \"#utility.yul\":3021:3027   */\n      0x00\n        /* \"#utility.yul\":3029:3035   */\n      dup1\n        /* \"#utility.yul\":3078:3080   */\n      0x40\n        /* \"#utility.yul\":3066:3075   */\n      dup4\n        /* \"#utility.yul\":3057:3064   */\n      dup6\n        /* \"#utility.yul\":3053:3076   */\n      sub\n        /* \"#utility.yul\":3049:3081   */\n      slt\n        /* \"#utility.yul\":3046:3165   */\n      iszero\n      tag_613\n      jumpi\n        /* \"#utility.yul\":3084:3163   */\n      tag_614\n      tag_589\n      jump\t// in\n    tag_614:\n        /* \"#utility.yul\":3046:3165   */\n    tag_613:\n        /* \"#utility.yul\":3204:3205   */\n      0x00\n        /* \"#utility.yul\":3229:3282   */\n      tag_615\n        /* \"#utility.yul\":3274:3281   */\n      dup6\n        /* \"#utility.yul\":3265:3271   */\n      dup3\n        /* \"#utility.yul\":3254:3263   */\n      dup7\n        /* \"#utility.yul\":3250:3272   */\n      add\n        /* \"#utility.yul\":3229:3282   */\n      tag_579\n      jump\t// in\n    tag_615:\n        /* \"#utility.yul\":3219:3282   */\n      swap3\n      pop\n        /* \"#utility.yul\":3175:3292   */\n      pop\n        /* \"#utility.yul\":3331:3333   */\n      0x20\n        /* \"#utility.yul\":3357:3410   */\n      tag_616\n        /* \"#utility.yul\":3402:3409   */\n      dup6\n        /* \"#utility.yul\":3393:3399   */\n      dup3\n        /* \"#utility.yul\":3382:3391   */\n      dup7\n        /* \"#utility.yul\":3378:3400   */\n      add\n        /* \"#utility.yul\":3357:3410   */\n      tag_579\n      jump\t// in\n    tag_616:\n        /* \"#utility.yul\":3347:3410   */\n      swap2\n      pop\n        /* \"#utility.yul\":3302:3420   */\n      pop\n        /* \"#utility.yul\":2953:3427   */\n      swap3\n      pop\n      swap3\n      swap1\n      pop\n      jump\t// out\n        /* \"#utility.yul\":3433:3612   */\n    tag_617:\n        /* \"#utility.yul\":3502:3512   */\n      0x00\n        /* \"#utility.yul\":3523:3569   */\n      tag_619\n        /* \"#utility.yul\":3565:3568   */\n      dup4\n        /* \"#utility.yul\":3557:3563   */\n      dup4\n        /* \"#utility.yul\":3523:3569   */\n      tag_620\n      jump\t// in\n    tag_619:\n        /* \"#utility.yul\":3601:3605   */\n      0x20\n        /* \"#utility.yul\":3596:3599   */\n      dup4\n        /* \"#utility.yul\":3592:3606   */\n      add\n        /* \"#utility.yul\":3578:3606   */\n      swap1\n      pop\n        /* \"#utility.yul\":3433:3612   */\n      swap3\n      swap2\n      pop\n      pop\n      jump\t// out\n        /* \"#utility.yul\":3618:3797   */\n    tag_621:\n        /* \"#utility.yul\":3687:3697   */\n      0x00\n        /* \"#utility.yul\":3708:3754   */\n      tag_623\n        /* \"#utility.yul\":3750:3753   */\n      dup4\n        /* \"#utility.yul\":3742:3748   */\n      dup4\n        /* \"#utility.yul\":3708:3754   */\n      tag_624\n      jump\t// in\n    tag_623:\n        /* \"#utility.yul\":3786:3790   */\n      0x20\n        /* \"#utility.yul\":3781:3784   */\n      dup4\n        /* \"#utility.yul\":3777:3791   */\n      add\n        /* \"#utility.yul\":3763:3791   */\n      swap1\n      pop\n        /* \"#utility.yul\":3618:3797   */\n      swap3\n      swap2\n      pop\n      pop\n      jump\t// out\n        /* \"#utility.yul\":3803:3911   */\n    tag_620:\n        /* \"#utility.yul\":3880:3904   */\n      tag_626\n        /* \"#utility.yul\":3898:3903   */\n      dup2\n        /* \"#utility.yul\":3880:3904   */\n      tag_627\n      jump\t// in\n    tag_626:\n        /* \"#utility.yul\":3875:3878   */\n      dup3\n        /* \"#utility.yul\":3868:3905   */\n      mstore\n        /* \"#utility.yul\":3803:3911   */\n      pop\n      pop\n      jump\t// out\n        /* \"#utility.yul\":3917:4035   */\n    tag_628:\n        /* \"#utility.yul\":4004:4028   */\n      tag_630\n        /* \"#utility.yul\":4022:4027   */\n      dup2\n        /* \"#utility.yul\":4004:4028   */\n      tag_627\n      jump\t// in\n    tag_630:\n        /* \"#utility.yul\":3999:4002   */\n      dup3\n        /* \"#utility.yul\":3992:4029   */\n      mstore\n        /* \"#utility.yul\":3917:4035   */\n      pop\n      pop\n      jump\t// out\n        /* \"#utility.yul\":4071:4803   */\n    tag_631:\n        /* \"#utility.yul\":4190:4193   */\n      0x00\n        /* \"#utility.yul\":4219:4273   */\n      tag_633\n        /* \"#utility.yul\":4267:4272   */\n      dup3\n        /* \"#utility.yul\":4219:4273   */\n      tag_634\n      jump\t// in\n    tag_633:\n        /* \"#utility.yul\":4289:4375   */\n      tag_635\n        /* \"#utility.yul\":4368:4374   */\n      dup2\n        /* \"#utility.yul\":4363:4366   */\n      dup6\n        /* \"#utility.yul\":4289:4375   */\n      tag_636\n      jump\t// in\n    tag_635:\n        /* \"#utility.yul\":4282:4375   */\n      swap4\n      pop\n        /* \"#utility.yul\":4399:4455   */\n      tag_637\n        /* \"#utility.yul\":4449:4454   */\n      dup4\n        /* \"#utility.yul\":4399:4455   */\n      tag_638\n      jump\t// in\n    tag_637:\n        /* \"#utility.yul\":4478:4485   */\n      dup1\n        /* \"#utility.yul\":4509:4510   */\n      0x00\n        /* \"#utility.yul\":4494:4778   */\n    tag_639:\n        /* \"#utility.yul\":4519:4525   */\n      dup4\n        /* \"#utility.yul\":4516:4517   */\n      dup2\n        /* \"#utility.yul\":4513:4526   */\n      lt\n        /* \"#utility.yul\":4494:4778   */\n      iszero\n      tag_641\n      jumpi\n        /* \"#utility.yul\":4595:4601   */\n      dup2\n        /* \"#utility.yul\":4589:4602   */\n      mload\n        /* \"#utility.yul\":4622:4685   */\n      tag_642\n        /* \"#utility.yul\":4681:4684   */\n      dup9\n        /* \"#utility.yul\":4666:4679   */\n      dup3\n        /* \"#utility.yul\":4622:4685   */\n      tag_617\n      jump\t// in\n    tag_642:\n        /* \"#utility.yul\":4615:4685   */\n      swap8\n      pop\n        /* \"#utility.yul\":4708:4768   */\n      tag_643\n        /* \"#utility.yul\":4761:4767   */\n      dup4\n        /* \"#utility.yul\":4708:4768   */\n      tag_644\n      jump\t// in\n    tag_643:\n        /* \"#utility.yul\":4698:4768   */\n      swap3\n      pop\n        /* \"#utility.yul\":4554:4778   */\n      pop\n        /* \"#utility.yul\":4541:4542   */\n      0x01\n        /* \"#utility.yul\":4538:4539   */\n      dup2\n        /* \"#utility.yul\":4534:4543   */\n      add\n        /* \"#utility.yul\":4529:4543   */\n      swap1\n      pop\n        /* \"#utility.yul\":4494:4778   */\n      jump(tag_639)\n    tag_641:\n        /* \"#utility.yul\":4498:4512   */\n      pop\n        /* \"#utility.yul\":4794:4797   */\n      dup6\n        /* \"#utility.yul\":4787:4797   */\n      swap4\n      pop\n        /* \"#utility.yul\":4195:4803   */\n      pop\n      pop\n      pop\n        /* \"#utility.yul\":4071:4803   */\n      swap3\n      swap2\n      pop\n      pop\n      jump\t// out\n        /* \"#utility.yul\":4839:5571   */\n    tag_645:\n        /* \"#utility.yul\":4958:4961   */\n      0x00\n        /* \"#utility.yul\":4987:5041   */\n      tag_647\n        /* \"#utility.yul\":5035:5040   */\n      dup3\n        /* \"#utility.yul\":4987:5041   */\n      tag_648\n      jump\t// in\n    tag_647:\n        /* \"#utility.yul\":5057:5143   */\n      tag_649\n        /* \"#utility.yul\":5136:5142   */\n      dup2\n        /* \"#utility.yul\":5131:5134   */\n      dup6\n        /* \"#utility.yul\":5057:5143   */\n      tag_650\n      jump\t// in\n    tag_649:\n        /* \"#utility.yul\":5050:5143   */\n      swap4\n      pop\n        /* \"#utility.yul\":5167:5223   */\n      tag_651\n        /* \"#utility.yul\":5217:5222   */\n      dup4\n        /* \"#utility.yul\":5167:5223   */\n      tag_652\n      jump\t// in\n    tag_651:\n        /* \"#utility.yul\":5246:5253   */\n      dup1\n        /* \"#utility.yul\":5277:5278   */\n      0x00\n        /* \"#utility.yul\":5262:5546   */\n    tag_653:\n        /* \"#utility.yul\":5287:5293   */\n      dup4\n        /* \"#utility.yul\":5284:5285   */\n      dup2\n        /* \"#utility.yul\":5281:5294   */\n      lt\n        /* \"#utility.yul\":5262:5546   */\n      iszero\n      tag_655\n      jumpi\n        /* \"#utility.yul\":5363:5369   */\n      dup2\n        /* \"#utility.yul\":5357:5370   */\n      mload\n        /* \"#utility.yul\":5390:5453   */\n      tag_656\n        /* \"#utility.yul\":5449:5452   */\n      dup9\n        /* \"#utility.yul\":5434:5447   */\n      dup3\n        /* \"#utility.yul\":5390:5453   */\n      tag_621\n      jump\t// in\n    tag_656:\n        /* \"#utility.yul\":5383:5453   */\n      swap8\n      pop\n        /* \"#utility.yul\":5476:5536   */\n      tag_657\n        /* \"#utility.yul\":5529:5535   */\n      dup4\n        /* \"#utility.yul\":5476:5536   */\n      tag_658\n      jump\t// in\n    tag_657:\n        /* \"#utility.yul\":5466:5536   */\n      swap3\n      pop\n        /* \"#utility.yul\":5322:5546   */\n      pop\n        /* \"#utility.yul\":5309:5310   */\n      0x01\n        /* \"#utility.yul\":5306:5307   */\n      dup2\n        /* \"#utility.yul\":5302:5311   */\n      add\n        /* \"#utility.yul\":5297:5311   */\n      swap1\n      pop\n        /* \"#utility.yul\":5262:5546   */\n      jump(tag_653)\n    tag_655:\n        /* \"#utility.yul\":5266:5280   */\n      pop\n        /* \"#utility.yul\":5562:5565   */\n      dup6\n        /* \"#utility.yul\":5555:5565   */\n      swap4\n      pop\n        /* \"#utility.yul\":4963:5571   */\n      pop\n      pop\n      pop\n        /* \"#utility.yul\":4839:5571   */\n      swap3\n      swap2\n      pop\n      pop\n      jump\t// out\n        /* \"#utility.yul\":5577:5686   */\n    tag_659:\n        /* \"#utility.yul\":5658:5679   */\n      tag_661\n        /* \"#utility.yul\":5673:5678   */\n      dup2\n        /* \"#utility.yul\":5658:5679   */\n      tag_662\n      jump\t// in\n    tag_661:\n        /* \"#utility.yul\":5653:5656   */\n      dup3\n        /* \"#utility.yul\":5646:5680   */\n      mstore\n        /* \"#utility.yul\":5577:5686   */\n      pop\n      pop\n      jump\t// out\n        /* \"#utility.yul\":5692:6058   */\n    tag_663:\n        /* \"#utility.yul\":5834:5837   */\n      0x00\n        /* \"#utility.yul\":5855:5922   */\n      tag_665\n        /* \"#utility.yul\":5919:5921   */\n      0x1d\n        /* \"#utility.yul\":5914:5917   */\n      dup4\n        /* \"#utility.yul\":5855:5922   */\n      tag_666\n      jump\t// in\n    tag_665:\n        /* \"#utility.yul\":5848:5922   */\n      swap2\n      pop\n        /* \"#utility.yul\":5931:6024   */\n      tag_667\n        /* \"#utility.yul\":6020:6023   */\n      dup3\n        /* \"#utility.yul\":5931:6024   */\n      tag_668\n      jump\t// in\n    tag_667:\n        /* \"#utility.yul\":6049:6051   */\n      0x20\n        /* \"#utility.yul\":6044:6047   */\n      dup3\n        /* \"#utility.yul\":6040:6052   */\n      add\n        /* \"#utility.yul\":6033:6052   */\n      swap1\n      pop\n        /* \"#utility.yul\":5692:6058   */\n      swap2\n      swap1\n      pop\n      jump\t// out\n        /* \"#utility.yul\":6064:6430   */\n    tag_669:\n        /* \"#utility.yul\":6206:6209   */\n      0x00\n        /* \"#utility.yul\":6227:6294   */\n      tag_671\n        /* \"#utility.yul\":6291:6293   */\n      0x0d\n        /* \"#utility.yul\":6286:6289   */\n      dup4\n        /* \"#utility.yul\":6227:6294   */\n      tag_666\n      jump\t// in\n    tag_671:\n        /* \"#utility.yul\":6220:6294   */\n      swap2\n      pop\n        /* \"#utility.yul\":6303:6396   */\n      tag_672\n        /* \"#utility.yul\":6392:6395   */\n      dup3\n        /* \"#utility.yul\":6303:6396   */\n      tag_673\n      jump\t// in\n    tag_672:\n        /* \"#utility.yul\":6421:6423   */\n      0x20\n        /* \"#utility.yul\":6416:6419   */\n      dup3\n        /* \"#utility.yul\":6412:6424   */\n      add\n        /* \"#utility.yul\":6405:6424   */\n      swap1\n      pop\n        /* \"#utility.yul\":6064:6430   */\n      swap2\n      swap1\n      pop\n      jump\t// out\n        /* \"#utility.yul\":6436:6802   */\n    tag_674:\n        /* \"#utility.yul\":6578:6581   */\n      0x00\n        /* \"#utility.yul\":6599:6666   */\n      tag_676\n        /* \"#utility.yul\":6663:6665   */\n      0x26\n        /* \"#utility.yul\":6658:6661   */\n      dup4\n        /* \"#utility.yul\":6599:6666   */\n      tag_666\n      jump\t// in\n    tag_676:\n        /* \"#utility.yul\":6592:6666   */\n      swap2\n      pop\n        /* \"#utility.yul\":6675:6768   */\n      tag_677\n        /* \"#utility.yul\":6764:6767   */\n      dup3\n        /* \"#utility.yul\":6675:6768   */\n      tag_678\n      jump\t// in\n    tag_677:\n        /* \"#utility.yul\":6793:6795   */\n      0x40\n        /* \"#utility.yul\":6788:6791   */\n      dup3\n        /* \"#utility.yul\":6784:6796   */\n      add\n        /* \"#utility.yul\":6777:6796   */\n      swap1\n      pop\n        /* \"#utility.yul\":6436:6802   */\n      swap2\n      swap1\n      pop\n      jump\t// out\n        /* \"#utility.yul\":6808:7174   */\n    tag_679:\n        /* \"#utility.yul\":6950:6953   */\n      0x00\n        /* \"#utility.yul\":6971:7038   */\n      tag_681\n        /* \"#utility.yul\":7035:7037   */\n      0x17\n        /* \"#utility.yul\":7030:7033   */\n      dup4\n        /* \"#utility.yul\":6971:7038   */\n      tag_666\n      jump\t// in\n    tag_681:\n        /* \"#utility.yul\":6964:7038   */\n      swap2\n      pop\n        /* \"#utility.yul\":7047:7140   */\n      tag_682\n        /* \"#utility.yul\":7136:7139   */\n      dup3\n        /* \"#utility.yul\":7047:7140   */\n      tag_683\n      jump\t// in\n    tag_682:\n        /* \"#utility.yul\":7165:7167   */\n      0x20\n        /* \"#utility.yul\":7160:7163   */\n      dup3\n        /* \"#utility.yul\":7156:7168   */\n      add\n        /* \"#utility.yul\":7149:7168   */\n      swap1\n      pop\n        /* \"#utility.yul\":6808:7174   */\n      swap2\n      swap1\n      pop\n      jump\t// out\n        /* \"#utility.yul\":7180:7546   */\n    tag_684:\n        /* \"#utility.yul\":7322:7325   */\n      0x00\n        /* \"#utility.yul\":7343:7410   */\n      tag_686\n        /* \"#utility.yul\":7407:7409   */\n      0x18\n        /* \"#utility.yul\":7402:7405   */\n      dup4\n        /* \"#utility.yul\":7343:7410   */\n      tag_666\n      jump\t// in\n    tag_686:\n        /* \"#utility.yul\":7336:7410   */\n      swap2\n      pop\n        /* \"#utility.yul\":7419:7512   */\n      tag_687\n        /* \"#utility.yul\":7508:7511   */\n      dup3\n        /* \"#utility.yul\":7419:7512   */\n      tag_688\n      jump\t// in\n    tag_687:\n        /* \"#utility.yul\":7537:7539   */\n      0x20\n        /* \"#utility.yul\":7532:7535   */\n      dup3\n        /* \"#utility.yul\":7528:7540   */\n      add\n        /* \"#utility.yul\":7521:7540   */\n      swap1\n      pop\n        /* \"#utility.yul\":7180:7546   */\n      swap2\n      swap1\n      pop\n      jump\t// out\n        /* \"#utility.yul\":7552:7917   */\n    tag_689:\n        /* \"#utility.yul\":7694:7697   */\n      0x00\n        /* \"#utility.yul\":7715:7781   */\n      tag_691\n        /* \"#utility.yul\":7779:7780   */\n      0x09\n        /* \"#utility.yul\":7774:7777   */\n      dup4\n        /* \"#utility.yul\":7715:7781   */\n      tag_666\n      jump\t// in\n    tag_691:\n        /* \"#utility.yul\":7708:7781   */\n      swap2\n      pop\n        /* \"#utility.yul\":7790:7883   */\n      tag_692\n        /* \"#utility.yul\":7879:7882   */\n      dup3\n        /* \"#utility.yul\":7790:7883   */\n      tag_693\n      jump\t// in\n    tag_692:\n        /* \"#utility.yul\":7908:7910   */\n      0x20\n        /* \"#utility.yul\":7903:7906   */\n      dup3\n        /* \"#utility.yul\":7899:7911   */\n      add\n        /* \"#utility.yul\":7892:7911   */\n      swap1\n      pop\n        /* \"#utility.yul\":7552:7917   */\n      swap2\n      swap1\n      pop\n      jump\t// out\n        /* \"#utility.yul\":7923:8289   */\n    tag_694:\n        /* \"#utility.yul\":8065:8068   */\n      0x00\n        /* \"#utility.yul\":8086:8153   */\n      tag_696\n        /* \"#utility.yul\":8150:8152   */\n      0x14\n        /* \"#utility.yul\":8145:8148   */\n      dup4\n        /* \"#utility.yul\":8086:8153   */\n      tag_666\n      jump\t// in\n    tag_696:\n        /* \"#utility.yul\":8079:8153   */\n      swap2\n      pop\n        /* \"#utility.yul\":8162:8255   */\n      tag_697\n        /* \"#utility.yul\":8251:8254   */\n      dup3\n        /* \"#utility.yul\":8162:8255   */\n      tag_698\n      jump\t// in\n    tag_697:\n        /* \"#utility.yul\":8280:8282   */\n      0x20\n        /* \"#utility.yul\":8275:8278   */\n      dup3\n        /* \"#utility.yul\":8271:8283   */\n      add\n        /* \"#utility.yul\":8264:8283   */\n      swap1\n      pop\n        /* \"#utility.yul\":7923:8289   */\n      swap2\n      swap1\n      pop\n      jump\t// out\n        /* \"#utility.yul\":8295:8661   */\n    tag_699:\n        /* \"#utility.yul\":8437:8440   */\n      0x00\n        /* \"#utility.yul\":8458:8525   */\n      tag_701\n        /* \"#utility.yul\":8522:8524   */\n      0x28\n        /* \"#utility.yul\":8517:8520   */\n      dup4\n        /* \"#utility.yul\":8458:8525   */\n      tag_666\n      jump\t// in\n    tag_701:\n        /* \"#utility.yul\":8451:8525   */\n      swap2\n      pop\n        /* \"#utility.yul\":8534:8627   */\n      tag_702\n        /* \"#utility.yul\":8623:8626   */\n      dup3\n        /* \"#utility.yul\":8534:8627   */\n      tag_703\n      jump\t// in\n    tag_702:\n        /* \"#utility.yul\":8652:8654   */\n      0x40\n        /* \"#utility.yul\":8647:8650   */\n      dup3\n        /* \"#utility.yul\":8643:8655   */\n      add\n        /* \"#utility.yul\":8636:8655   */\n      swap1\n      pop\n        /* \"#utility.yul\":8295:8661   */\n      swap2\n      swap1\n      pop\n      jump\t// out\n        /* \"#utility.yul\":8667:9033   */\n    tag_704:\n        /* \"#utility.yul\":8809:8812   */\n      0x00\n        /* \"#utility.yul\":8830:8897   */\n      tag_706\n        /* \"#utility.yul\":8894:8896   */\n      0x14\n        /* \"#utility.yul\":8889:8892   */\n      dup4\n        /* \"#utility.yul\":8830:8897   */\n      tag_666\n      jump\t// in\n    tag_706:\n        /* \"#utility.yul\":8823:8897   */\n      swap2\n      pop\n        /* \"#utility.yul\":8906:8999   */\n      tag_707\n        /* \"#utility.yul\":8995:8998   */\n      dup3\n        /* \"#utility.yul\":8906:8999   */\n      tag_708\n      jump\t// in\n    tag_707:\n        /* \"#utility.yul\":9024:9026   */\n      0x20\n        /* \"#utility.yul\":9019:9022   */\n      dup3\n        /* \"#utility.yul\":9015:9027   */\n      add\n        /* \"#utility.yul\":9008:9027   */\n      swap1\n      pop\n        /* \"#utility.yul\":8667:9033   */\n      swap2\n      swap1\n      pop\n      jump\t// out\n        /* \"#utility.yul\":9039:9405   */\n    tag_709:\n        /* \"#utility.yul\":9181:9184   */\n      0x00\n        /* \"#utility.yul\":9202:9269   */\n      tag_711\n        /* \"#utility.yul\":9266:9268   */\n      0x20\n        /* \"#utility.yul\":9261:9264   */\n      dup4\n        /* \"#utility.yul\":9202:9269   */\n      tag_666\n      jump\t// in\n    tag_711:\n        /* \"#utility.yul\":9195:9269   */\n      swap2\n      pop\n        /* \"#utility.yul\":9278:9371   */\n      tag_712\n        /* \"#utility.yul\":9367:9370   */\n      dup3\n        /* \"#utility.yul\":9278:9371   */\n      tag_713\n      jump\t// in\n    tag_712:\n        /* \"#utility.yul\":9396:9398   */\n      0x20\n        /* \"#utility.yul\":9391:9394   */\n      dup3\n        /* \"#utility.yul\":9387:9399   */\n      add\n        /* \"#utility.yul\":9380:9399   */\n      swap1\n      pop\n        /* \"#utility.yul\":9039:9405   */\n      swap2\n      swap1\n      pop\n      jump\t// out\n        /* \"#utility.yul\":9411:9777   */\n    tag_714:\n        /* \"#utility.yul\":9553:9556   */\n      0x00\n        /* \"#utility.yul\":9574:9641   */\n      tag_716\n        /* \"#utility.yul\":9638:9640   */\n      0x14\n        /* \"#utility.yul\":9633:9636   */\n      dup4\n        /* \"#utility.yul\":9574:9641   */\n      tag_666\n      jump\t// in\n    tag_716:\n        /* \"#utility.yul\":9567:9641   */\n      swap2\n      pop\n        /* \"#utility.yul\":9650:9743   */\n      tag_717\n        /* \"#utility.yul\":9739:9742   */\n      dup3\n        /* \"#utility.yul\":9650:9743   */\n      tag_718\n      jump\t// in\n    tag_717:\n        /* \"#utility.yul\":9768:9770   */\n      0x20\n        /* \"#utility.yul\":9763:9766   */\n      dup3\n        /* \"#utility.yul\":9759:9771   */\n      add\n        /* \"#utility.yul\":9752:9771   */\n      swap1\n      pop\n        /* \"#utility.yul\":9411:9777   */\n      swap2\n      swap1\n      pop\n      jump\t// out\n        /* \"#utility.yul\":9783:10149   */\n    tag_719:\n        /* \"#utility.yul\":9925:9928   */\n      0x00\n        /* \"#utility.yul\":9946:10013   */\n      tag_721\n        /* \"#utility.yul\":10010:10012   */\n      0x47\n        /* \"#utility.yul\":10005:10008   */\n      dup4\n        /* \"#utility.yul\":9946:10013   */\n      tag_666\n      jump\t// in\n    tag_721:\n        /* \"#utility.yul\":9939:10013   */\n      swap2\n      pop\n        /* \"#utility.yul\":10022:10115   */\n      tag_722\n        /* \"#utility.yul\":10111:10114   */\n      dup3\n        /* \"#utility.yul\":10022:10115   */\n      tag_723\n      jump\t// in\n    tag_722:\n        /* \"#utility.yul\":10140:10142   */\n      0x60\n        /* \"#utility.yul\":10135:10138   */\n      dup3\n        /* \"#utility.yul\":10131:10143   */\n      add\n        /* \"#utility.yul\":10124:10143   */\n      swap1\n      pop\n        /* \"#utility.yul\":9783:10149   */\n      swap2\n      swap1\n      pop\n      jump\t// out\n        /* \"#utility.yul\":10155:10263   */\n    tag_624:\n        /* \"#utility.yul\":10232:10256   */\n      tag_725\n        /* \"#utility.yul\":10250:10255   */\n      dup2\n        /* \"#utility.yul\":10232:10256   */\n      tag_726\n      jump\t// in\n    tag_725:\n        /* \"#utility.yul\":10227:10230   */\n      dup3\n        /* \"#utility.yul\":10220:10257   */\n      mstore\n        /* \"#utility.yul\":10155:10263   */\n      pop\n      pop\n      jump\t// out\n        /* \"#utility.yul\":10269:10387   */\n    tag_727:\n        /* \"#utility.yul\":10356:10380   */\n      tag_729\n        /* \"#utility.yul\":10374:10379   */\n      dup2\n        /* \"#utility.yul\":10356:10380   */\n      tag_726\n      jump\t// in\n    tag_729:\n        /* \"#utility.yul\":10351:10354   */\n      dup3\n        /* \"#utility.yul\":10344:10381   */\n      mstore\n        /* \"#utility.yul\":10269:10387   */\n      pop\n      pop\n      jump\t// out\n        /* \"#utility.yul\":10393:10615   */\n    tag_49:\n        /* \"#utility.yul\":10486:10490   */\n      0x00\n        /* \"#utility.yul\":10524:10526   */\n      0x20\n        /* \"#utility.yul\":10513:10522   */\n      dup3\n        /* \"#utility.yul\":10509:10527   */\n      add\n        /* \"#utility.yul\":10501:10527   */\n      swap1\n      pop\n        /* \"#utility.yul\":10537:10608   */\n      tag_731\n        /* \"#utility.yul\":10605:10606   */\n      0x00\n        /* \"#utility.yul\":10594:10603   */\n      dup4\n        /* \"#utility.yul\":10590:10607   */\n      add\n        /* \"#utility.yul\":10581:10587   */\n      dup5\n        /* \"#utility.yul\":10537:10608   */\n      tag_628\n      jump\t// in\n    tag_731:\n        /* \"#utility.yul\":10393:10615   */\n      swap3\n      swap2\n      pop\n      pop\n      jump\t// out\n        /* \"#utility.yul\":10621:10953   */\n    tag_242:\n        /* \"#utility.yul\":10742:10746   */\n      0x00\n        /* \"#utility.yul\":10780:10782   */\n      0x40\n        /* \"#utility.yul\":10769:10778   */\n      dup3\n        /* \"#utility.yul\":10765:10783   */\n      add\n        /* \"#utility.yul\":10757:10783   */\n      swap1\n      pop\n        /* \"#utility.yul\":10793:10864   */\n      tag_733\n        /* \"#utility.yul\":10861:10862   */\n      0x00\n        /* \"#utility.yul\":10850:10859   */\n      dup4\n        /* \"#utility.yul\":10846:10863   */\n      add\n        /* \"#utility.yul\":10837:10843   */\n      dup6\n        /* \"#utility.yul\":10793:10864   */\n      tag_628\n      jump\t// in\n    tag_733:\n        /* \"#utility.yul\":10874:10946   */\n      tag_734\n        /* \"#utility.yul\":10942:10944   */\n      0x20\n        /* \"#utility.yul\":10931:10940   */\n      dup4\n        /* \"#utility.yul\":10927:10945   */\n      add\n        /* \"#utility.yul\":10918:10924   */\n      dup5\n        /* \"#utility.yul\":10874:10946   */\n      tag_628\n      jump\t// in\n    tag_734:\n        /* \"#utility.yul\":10621:10953   */\n      swap4\n      swap3\n      pop\n      pop\n      pop\n      jump\t// out\n        /* \"#utility.yul\":10959:11401   */\n    tag_258:\n        /* \"#utility.yul\":11108:11112   */\n      0x00\n        /* \"#utility.yul\":11146:11148   */\n      0x60\n        /* \"#utility.yul\":11135:11144   */\n      dup3\n        /* \"#utility.yul\":11131:11149   */\n      add\n        /* \"#utility.yul\":11123:11149   */\n      swap1\n      pop\n        /* \"#utility.yul\":11159:11230   */\n      tag_736\n        /* \"#utility.yul\":11227:11228   */\n      0x00\n        /* \"#utility.yul\":11216:11225   */\n      dup4\n        /* \"#utility.yul\":11212:11229   */\n      add\n        /* \"#utility.yul\":11203:11209   */\n      dup7\n        /* \"#utility.yul\":11159:11230   */\n      tag_628\n      jump\t// in\n    tag_736:\n        /* \"#utility.yul\":11240:11312   */\n      tag_737\n        /* \"#utility.yul\":11308:11310   */\n      0x20\n        /* \"#utility.yul\":11297:11306   */\n      dup4\n        /* \"#utility.yul\":11293:11311   */\n      add\n        /* \"#utility.yul\":11284:11290   */\n      dup6\n        /* \"#utility.yul\":11240:11312   */\n      tag_628\n      jump\t// in\n    tag_737:\n        /* \"#utility.yul\":11322:11394   */\n      tag_738\n        /* \"#utility.yul\":11390:11392   */\n      0x40\n        /* \"#utility.yul\":11379:11388   */\n      dup4\n        /* \"#utility.yul\":11375:11393   */\n      add\n        /* \"#utility.yul\":11366:11372   */\n      dup5\n        /* \"#utility.yul\":11322:11394   */\n      tag_727\n      jump\t// in\n    tag_738:\n        /* \"#utility.yul\":10959:11401   */\n      swap5\n      swap4\n      pop\n      pop\n      pop\n      pop\n      jump\t// out\n        /* \"#utility.yul\":11407:11739   */\n    tag_263:\n        /* \"#utility.yul\":11528:11532   */\n      0x00\n        /* \"#utility.yul\":11566:11568   */\n      0x40\n        /* \"#utility.yul\":11555:11564   */\n      dup3\n        /* \"#utility.yul\":11551:11569   */\n      add\n        /* \"#utility.yul\":11543:11569   */\n      swap1\n      pop\n        /* \"#utility.yul\":11579:11650   */\n      tag_740\n        /* \"#utility.yul\":11647:11648   */\n      0x00\n        /* \"#utility.yul\":11636:11645   */\n      dup4\n        /* \"#utility.yul\":11632:11649   */\n      add\n        /* \"#utility.yul\":11623:11629   */\n      dup6\n        /* \"#utility.yul\":11579:11650   */\n      tag_628\n      jump\t// in\n    tag_740:\n        /* \"#utility.yul\":11660:11732   */\n      tag_741\n        /* \"#utility.yul\":11728:11730   */\n      0x20\n        /* \"#utility.yul\":11717:11726   */\n      dup4\n        /* \"#utility.yul\":11713:11731   */\n      add\n        /* \"#utility.yul\":11704:11710   */\n      dup5\n        /* \"#utility.yul\":11660:11732   */\n      tag_727\n      jump\t// in\n    tag_741:\n        /* \"#utility.yul\":11407:11739   */\n      swap4\n      swap3\n      pop\n      pop\n      pop\n      jump\t// out\n        /* \"#utility.yul\":11745:12640   */\n    tag_133:\n        /* \"#utility.yul\":12044:12048   */\n      0x00\n        /* \"#utility.yul\":12082:12084   */\n      0x60\n        /* \"#utility.yul\":12071:12080   */\n      dup3\n        /* \"#utility.yul\":12067:12085   */\n      add\n        /* \"#utility.yul\":12059:12085   */\n      swap1\n      pop\n        /* \"#utility.yul\":12131:12140   */\n      dup2\n        /* \"#utility.yul\":12125:12129   */\n      dup2\n        /* \"#utility.yul\":12121:12141   */\n      sub\n        /* \"#utility.yul\":12117:12118   */\n      0x00\n        /* \"#utility.yul\":12106:12115   */\n      dup4\n        /* \"#utility.yul\":12102:12119   */\n      add\n        /* \"#utility.yul\":12095:12142   */\n      mstore\n        /* \"#utility.yul\":12159:12267   */\n      tag_743\n        /* \"#utility.yul\":12262:12266   */\n      dup2\n        /* \"#utility.yul\":12253:12259   */\n      dup7\n        /* \"#utility.yul\":12159:12267   */\n      tag_645\n      jump\t// in\n    tag_743:\n        /* \"#utility.yul\":12151:12267   */\n      swap1\n      pop\n        /* \"#utility.yul\":12314:12323   */\n      dup2\n        /* \"#utility.yul\":12308:12312   */\n      dup2\n        /* \"#utility.yul\":12304:12324   */\n      sub\n        /* \"#utility.yul\":12299:12301   */\n      0x20\n        /* \"#utility.yul\":12288:12297   */\n      dup4\n        /* \"#utility.yul\":12284:12302   */\n      add\n        /* \"#utility.yul\":12277:12325   */\n      mstore\n        /* \"#utility.yul\":12342:12450   */\n      tag_744\n        /* \"#utility.yul\":12445:12449   */\n      dup2\n        /* \"#utility.yul\":12436:12442   */\n      dup6\n        /* \"#utility.yul\":12342:12450   */\n      tag_631\n      jump\t// in\n    tag_744:\n        /* \"#utility.yul\":12334:12450   */\n      swap1\n      pop\n        /* \"#utility.yul\":12497:12506   */\n      dup2\n        /* \"#utility.yul\":12491:12495   */\n      dup2\n        /* \"#utility.yul\":12487:12507   */\n      sub\n        /* \"#utility.yul\":12482:12484   */\n      0x40\n        /* \"#utility.yul\":12471:12480   */\n      dup4\n        /* \"#utility.yul\":12467:12485   */\n      add\n        /* \"#utility.yul\":12460:12508   */\n      mstore\n        /* \"#utility.yul\":12525:12633   */\n      tag_745\n        /* \"#utility.yul\":12628:12632   */\n      dup2\n        /* \"#utility.yul\":12619:12625   */\n      dup5\n        /* \"#utility.yul\":12525:12633   */\n      tag_645\n      jump\t// in\n    tag_745:\n        /* \"#utility.yul\":12517:12633   */\n      swap1\n      pop\n        /* \"#utility.yul\":11745:12640   */\n      swap5\n      swap4\n      pop\n      pop\n      pop\n      pop\n      jump\t// out\n        /* \"#utility.yul\":12646:12856   */\n    tag_68:\n        /* \"#utility.yul\":12733:12737   */\n      0x00\n        /* \"#utility.yul\":12771:12773   */\n      0x20\n        /* \"#utility.yul\":12760:12769   */\n      dup3\n        /* \"#utility.yul\":12756:12774   */\n      add\n        /* \"#utility.yul\":12748:12774   */\n      swap1\n      pop\n        /* \"#utility.yul\":12784:12849   */\n      tag_747\n        /* \"#utility.yul\":12846:12847   */\n      0x00\n        /* \"#utility.yul\":12835:12844   */\n      dup4\n        /* \"#utility.yul\":12831:12848   */\n      add\n        /* \"#utility.yul\":12822:12828   */\n      dup5\n        /* \"#utility.yul\":12784:12849   */\n      tag_659\n      jump\t// in\n    tag_747:\n        /* \"#utility.yul\":12646:12856   */\n      swap3\n      swap2\n      pop\n      pop\n      jump\t// out\n        /* \"#utility.yul\":12862:13281   */\n    tag_233:\n        /* \"#utility.yul\":13028:13032   */\n      0x00\n        /* \"#utility.yul\":13066:13068   */\n      0x20\n        /* \"#utility.yul\":13055:13064   */\n      dup3\n        /* \"#utility.yul\":13051:13069   */\n      add\n        /* \"#utility.yul\":13043:13069   */\n      swap1\n      pop\n        /* \"#utility.yul\":13115:13124   */\n      dup2\n        /* \"#utility.yul\":13109:13113   */\n      dup2\n        /* \"#utility.yul\":13105:13125   */\n      sub\n        /* \"#utility.yul\":13101:13102   */\n      0x00\n        /* \"#utility.yul\":13090:13099   */\n      dup4\n        /* \"#utility.yul\":13086:13103   */\n      add\n        /* \"#utility.yul\":13079:13126   */\n      mstore\n        /* \"#utility.yul\":13143:13274   */\n      tag_749\n        /* \"#utility.yul\":13269:13273   */\n      dup2\n        /* \"#utility.yul\":13143:13274   */\n      tag_663\n      jump\t// in\n    tag_749:\n        /* \"#utility.yul\":13135:13274   */\n      swap1\n      pop\n        /* \"#utility.yul\":12862:13281   */\n      swap2\n      swap1\n      pop\n      jump\t// out\n        /* \"#utility.yul\":13287:13706   */\n    tag_340:\n        /* \"#utility.yul\":13453:13457   */\n      0x00\n        /* \"#utility.yul\":13491:13493   */\n      0x20\n        /* \"#utility.yul\":13480:13489   */\n      dup3\n        /* \"#utility.yul\":13476:13494   */\n      add\n        /* \"#utility.yul\":13468:13494   */\n      swap1\n      pop\n        /* \"#utility.yul\":13540:13549   */\n      dup2\n        /* \"#utility.yul\":13534:13538   */\n      dup2\n        /* \"#utility.yul\":13530:13550   */\n      sub\n        /* \"#utility.yul\":13526:13527   */\n      0x00\n        /* \"#utility.yul\":13515:13524   */\n      dup4\n        /* \"#utility.yul\":13511:13528   */\n      add\n        /* \"#utility.yul\":13504:13551   */\n      mstore\n        /* \"#utility.yul\":13568:13699   */\n      tag_751\n        /* \"#utility.yul\":13694:13698   */\n      dup2\n        /* \"#utility.yul\":13568:13699   */\n      tag_669\n      jump\t// in\n    tag_751:\n        /* \"#utility.yul\":13560:13699   */\n      swap1\n      pop\n        /* \"#utility.yul\":13287:13706   */\n      swap2\n      swap1\n      pop\n      jump\t// out\n        /* \"#utility.yul\":13712:14131   */\n    tag_566:\n        /* \"#utility.yul\":13878:13882   */\n      0x00\n        /* \"#utility.yul\":13916:13918   */\n      0x20\n        /* \"#utility.yul\":13905:13914   */\n      dup3\n        /* \"#utility.yul\":13901:13919   */\n      add\n        /* \"#utility.yul\":13893:13919   */\n      swap1\n      pop\n        /* \"#utility.yul\":13965:13974   */\n      dup2\n        /* \"#utility.yul\":13959:13963   */\n      dup2\n        /* \"#utility.yul\":13955:13975   */\n      sub\n        /* \"#utility.yul\":13951:13952   */\n      0x00\n        /* \"#utility.yul\":13940:13949   */\n      dup4\n        /* \"#utility.yul\":13936:13953   */\n      add\n        /* \"#utility.yul\":13929:13976   */\n      mstore\n        /* \"#utility.yul\":13993:14124   */\n      tag_753\n        /* \"#utility.yul\":14119:14123   */\n      dup2\n        /* \"#utility.yul\":13993:14124   */\n      tag_674\n      jump\t// in\n    tag_753:\n        /* \"#utility.yul\":13985:14124   */\n      swap1\n      pop\n        /* \"#utility.yul\":13712:14131   */\n      swap2\n      swap1\n      pop\n      jump\t// out\n        /* \"#utility.yul\":14137:14556   */\n    tag_382:\n        /* \"#utility.yul\":14303:14307   */\n      0x00\n        /* \"#utility.yul\":14341:14343   */\n      0x20\n        /* \"#utility.yul\":14330:14339   */\n      dup3\n        /* \"#utility.yul\":14326:14344   */\n      add\n        /* \"#utility.yul\":14318:14344   */\n      swap1\n      pop\n        /* \"#utility.yul\":14390:14399   */\n      dup2\n        /* \"#utility.yul\":14384:14388   */\n      dup2\n        /* \"#utility.yul\":14380:14400   */\n      sub\n        /* \"#utility.yul\":14376:14377   */\n      0x00\n        /* \"#utility.yul\":14365:14374   */\n      dup4\n        /* \"#utility.yul\":14361:14378   */\n      add\n        /* \"#utility.yul\":14354:14401   */\n      mstore\n        /* \"#utility.yul\":14418:14549   */\n      tag_755\n        /* \"#utility.yul\":14544:14548   */\n      dup2\n        /* \"#utility.yul\":14418:14549   */\n      tag_679\n      jump\t// in\n    tag_755:\n        /* \"#utility.yul\":14410:14549   */\n      swap1\n      pop\n        /* \"#utility.yul\":14137:14556   */\n      swap2\n      swap1\n      pop\n      jump\t// out\n        /* \"#utility.yul\":14562:14981   */\n    tag_256:\n        /* \"#utility.yul\":14728:14732   */\n      0x00\n        /* \"#utility.yul\":14766:14768   */\n      0x20\n        /* \"#utility.yul\":14755:14764   */\n      dup3\n        /* \"#utility.yul\":14751:14769   */\n      add\n        /* \"#utility.yul\":14743:14769   */\n      swap1\n      pop\n        /* \"#utility.yul\":14815:14824   */\n      dup2\n        /* \"#utility.yul\":14809:14813   */\n      dup2\n        /* \"#utility.yul\":14805:14825   */\n      sub\n        /* \"#utility.yul\":14801:14802   */\n      0x00\n        /* \"#utility.yul\":14790:14799   */\n      dup4\n        /* \"#utility.yul\":14786:14803   */\n      add\n        /* \"#utility.yul\":14779:14826   */\n      mstore\n        /* \"#utility.yul\":14843:14974   */\n      tag_757\n        /* \"#utility.yul\":14969:14973   */\n      dup2\n        /* \"#utility.yul\":14843:14974   */\n      tag_684\n      jump\t// in\n    tag_757:\n        /* \"#utility.yul\":14835:14974   */\n      swap1\n      pop\n        /* \"#utility.yul\":14562:14981   */\n      swap2\n      swap1\n      pop\n      jump\t// out\n        /* \"#utility.yul\":14987:15406   */\n    tag_357:\n        /* \"#utility.yul\":15153:15157   */\n      0x00\n        /* \"#utility.yul\":15191:15193   */\n      0x20\n        /* \"#utility.yul\":15180:15189   */\n      dup3\n        /* \"#utility.yul\":15176:15194   */\n      add\n        /* \"#utility.yul\":15168:15194   */\n      swap1\n      pop\n        /* \"#utility.yul\":15240:15249   */\n      dup2\n        /* \"#utility.yul\":15234:15238   */\n      dup2\n        /* \"#utility.yul\":15230:15250   */\n      sub\n        /* \"#utility.yul\":15226:15227   */\n      0x00\n        /* \"#utility.yul\":15215:15224   */\n      dup4\n        /* \"#utility.yul\":15211:15228   */\n      add\n        /* \"#utility.yul\":15204:15251   */\n      mstore\n        /* \"#utility.yul\":15268:15399   */\n      tag_759\n        /* \"#utility.yul\":15394:15398   */\n      dup2\n        /* \"#utility.yul\":15268:15399   */\n      tag_689\n      jump\t// in\n    tag_759:\n        /* \"#utility.yul\":15260:15399   */\n      swap1\n      pop\n        /* \"#utility.yul\":14987:15406   */\n      swap2\n      swap1\n      pop\n      jump\t// out\n        /* \"#utility.yul\":15412:15831   */\n    tag_469:\n        /* \"#utility.yul\":15578:15582   */\n      0x00\n        /* \"#utility.yul\":15616:15618   */\n      0x20\n        /* \"#utility.yul\":15605:15614   */\n      dup3\n        /* \"#utility.yul\":15601:15619   */\n      add\n        /* \"#utility.yul\":15593:15619   */\n      swap1\n      pop\n        /* \"#utility.yul\":15665:15674   */\n      dup2\n        /* \"#utility.yul\":15659:15663   */\n      dup2\n        /* \"#utility.yul\":15655:15675   */\n      sub\n        /* \"#utility.yul\":15651:15652   */\n      0x00\n        /* \"#utility.yul\":15640:15649   */\n      dup4\n        /* \"#utility.yul\":15636:15653   */\n      add\n        /* \"#utility.yul\":15629:15676   */\n      mstore\n        /* \"#utility.yul\":15693:15824   */\n      tag_761\n        /* \"#utility.yul\":15819:15823   */\n      dup2\n        /* \"#utility.yul\":15693:15824   */\n      tag_694\n      jump\t// in\n    tag_761:\n        /* \"#utility.yul\":15685:15824   */\n      swap1\n      pop\n        /* \"#utility.yul\":15412:15831   */\n      swap2\n      swap1\n      pop\n      jump\t// out\n        /* \"#utility.yul\":15837:16256   */\n    tag_250:\n        /* \"#utility.yul\":16003:16007   */\n      0x00\n        /* \"#utility.yul\":16041:16043   */\n      0x20\n        /* \"#utility.yul\":16030:16039   */\n      dup3\n        /* \"#utility.yul\":16026:16044   */\n      add\n        /* \"#utility.yul\":16018:16044   */\n      swap1\n      pop\n        /* \"#utility.yul\":16090:16099   */\n      dup2\n        /* \"#utility.yul\":16084:16088   */\n      dup2\n        /* \"#utility.yul\":16080:16100   */\n      sub\n        /* \"#utility.yul\":16076:16077   */\n      0x00\n        /* \"#utility.yul\":16065:16074   */\n      dup4\n        /* \"#utility.yul\":16061:16078   */\n      add\n        /* \"#utility.yul\":16054:16101   */\n      mstore\n        /* \"#utility.yul\":16118:16249   */\n      tag_763\n        /* \"#utility.yul\":16244:16248   */\n      dup2\n        /* \"#utility.yul\":16118:16249   */\n      tag_699\n      jump\t// in\n    tag_763:\n        /* \"#utility.yul\":16110:16249   */\n      swap1\n      pop\n        /* \"#utility.yul\":15837:16256   */\n      swap2\n      swap1\n      pop\n      jump\t// out\n        /* \"#utility.yul\":16262:16681   */\n    tag_253:\n        /* \"#utility.yul\":16428:16432   */\n      0x00\n        /* \"#utility.yul\":16466:16468   */\n      0x20\n        /* \"#utility.yul\":16455:16464   */\n      dup3\n        /* \"#utility.yul\":16451:16469   */\n      add\n        /* \"#utility.yul\":16443:16469   */\n      swap1\n      pop\n        /* \"#utility.yul\":16515:16524   */\n      dup2\n        /* \"#utility.yul\":16509:16513   */\n      dup2\n        /* \"#utility.yul\":16505:16525   */\n      sub\n        /* \"#utility.yul\":16501:16502   */\n      0x00\n        /* \"#utility.yul\":16490:16499   */\n      dup4\n        /* \"#utility.yul\":16486:16503   */\n      add\n        /* \"#utility.yul\":16479:16526   */\n      mstore\n        /* \"#utility.yul\":16543:16674   */\n      tag_765\n        /* \"#utility.yul\":16669:16673   */\n      dup2\n        /* \"#utility.yul\":16543:16674   */\n      tag_704\n      jump\t// in\n    tag_765:\n        /* \"#utility.yul\":16535:16674   */\n      swap1\n      pop\n        /* \"#utility.yul\":16262:16681   */\n      swap2\n      swap1\n      pop\n      jump\t// out\n        /* \"#utility.yul\":16687:17106   */\n    tag_190:\n        /* \"#utility.yul\":16853:16857   */\n      0x00\n        /* \"#utility.yul\":16891:16893   */\n      0x20\n        /* \"#utility.yul\":16880:16889   */\n      dup3\n        /* \"#utility.yul\":16876:16894   */\n      add\n        /* \"#utility.yul\":16868:16894   */\n      swap1\n      pop\n        /* \"#utility.yul\":16940:16949   */\n      dup2\n        /* \"#utility.yul\":16934:16938   */\n      dup2\n        /* \"#utility.yul\":16930:16950   */\n      sub\n        /* \"#utility.yul\":16926:16927   */\n      0x00\n        /* \"#utility.yul\":16915:16924   */\n      dup4\n        /* \"#utility.yul\":16911:16928   */\n      add\n        /* \"#utility.yul\":16904:16951   */\n      mstore\n        /* \"#utility.yul\":16968:17099   */\n      tag_767\n        /* \"#utility.yul\":17094:17098   */\n      dup2\n        /* \"#utility.yul\":16968:17099   */\n      tag_709\n      jump\t// in\n    tag_767:\n        /* \"#utility.yul\":16960:17099   */\n      swap1\n      pop\n        /* \"#utility.yul\":16687:17106   */\n      swap2\n      swap1\n      pop\n      jump\t// out\n        /* \"#utility.yul\":17112:17531   */\n    tag_224:\n        /* \"#utility.yul\":17278:17282   */\n      0x00\n        /* \"#utility.yul\":17316:17318   */\n      0x20\n        /* \"#utility.yul\":17305:17314   */\n      dup3\n        /* \"#utility.yul\":17301:17319   */\n      add\n        /* \"#utility.yul\":17293:17319   */\n      swap1\n      pop\n        /* \"#utility.yul\":17365:17374   */\n      dup2\n        /* \"#utility.yul\":17359:17363   */\n      dup2\n        /* \"#utility.yul\":17355:17375   */\n      sub\n        /* \"#utility.yul\":17351:17352   */\n      0x00\n        /* \"#utility.yul\":17340:17349   */\n      dup4\n        /* \"#utility.yul\":17336:17353   */\n      add\n        /* \"#utility.yul\":17329:17376   */\n      mstore\n        /* \"#utility.yul\":17393:17524   */\n      tag_769\n        /* \"#utility.yul\":17519:17523   */\n      dup2\n        /* \"#utility.yul\":17393:17524   */\n      tag_714\n      jump\t// in\n    tag_769:\n        /* \"#utility.yul\":17385:17524   */\n      swap1\n      pop\n        /* \"#utility.yul\":17112:17531   */\n      swap2\n      swap1\n      pop\n      jump\t// out\n        /* \"#utility.yul\":17537:17956   */\n    tag_297:\n        /* \"#utility.yul\":17703:17707   */\n      0x00\n        /* \"#utility.yul\":17741:17743   */\n      0x20\n        /* \"#utility.yul\":17730:17739   */\n      dup3\n        /* \"#utility.yul\":17726:17744   */\n      add\n        /* \"#utility.yul\":17718:17744   */\n      swap1\n      pop\n        /* \"#utility.yul\":17790:17799   */\n      dup2\n        /* \"#utility.yul\":17784:17788   */\n      dup2\n        /* \"#utility.yul\":17780:17800   */\n      sub\n        /* \"#utility.yul\":17776:17777   */\n      0x00\n        /* \"#utility.yul\":17765:17774   */\n      dup4\n        /* \"#utility.yul\":17761:17778   */\n      add\n        /* \"#utility.yul\":17754:17801   */\n      mstore\n        /* \"#utility.yul\":17818:17949   */\n      tag_771\n        /* \"#utility.yul\":17944:17948   */\n      dup2\n        /* \"#utility.yul\":17818:17949   */\n      tag_719\n      jump\t// in\n    tag_771:\n        /* \"#utility.yul\":17810:17949   */\n      swap1\n      pop\n        /* \"#utility.yul\":17537:17956   */\n      swap2\n      swap1\n      pop\n      jump\t// out\n        /* \"#utility.yul\":17962:18184   */\n    tag_78:\n        /* \"#utility.yul\":18055:18059   */\n      0x00\n        /* \"#utility.yul\":18093:18095   */\n      0x20\n        /* \"#utility.yul\":18082:18091   */\n      dup3\n        /* \"#utility.yul\":18078:18096   */\n      add\n        /* \"#utility.yul\":18070:18096   */\n      swap1\n      pop\n        /* \"#utility.yul\":18106:18177   */\n      tag_773\n        /* \"#utility.yul\":18174:18175   */\n      0x00\n        /* \"#utility.yul\":18163:18172   */\n      dup4\n        /* \"#utility.yul\":18159:18176   */\n      add\n        /* \"#utility.yul\":18150:18156   */\n      dup5\n        /* \"#utility.yul\":18106:18177   */\n      tag_727\n      jump\t// in\n    tag_773:\n        /* \"#utility.yul\":17962:18184   */\n      swap3\n      swap2\n      pop\n      pop\n      jump\t// out\n        /* \"#utility.yul\":18190:18522   */\n    tag_361:\n        /* \"#utility.yul\":18311:18315   */\n      0x00\n        /* \"#utility.yul\":18349:18351   */\n      0x40\n        /* \"#utility.yul\":18338:18347   */\n      dup3\n        /* \"#utility.yul\":18334:18352   */\n      add\n        /* \"#utility.yul\":18326:18352   */\n      swap1\n      pop\n        /* \"#utility.yul\":18362:18433   */\n      tag_775\n        /* \"#utility.yul\":18430:18431   */\n      0x00\n        /* \"#utility.yul\":18419:18428   */\n      dup4\n        /* \"#utility.yul\":18415:18432   */\n      add\n        /* \"#utility.yul\":18406:18412   */\n      dup6\n        /* \"#utility.yul\":18362:18433   */\n      tag_727\n      jump\t// in\n    tag_775:\n        /* \"#utility.yul\":18443:18515   */\n      tag_776\n        /* \"#utility.yul\":18511:18513   */\n      0x20\n        /* \"#utility.yul\":18500:18509   */\n      dup4\n        /* \"#utility.yul\":18496:18514   */\n      add\n        /* \"#utility.yul\":18487:18493   */\n      dup5\n        /* \"#utility.yul\":18443:18515   */\n      tag_727\n      jump\t// in\n    tag_776:\n        /* \"#utility.yul\":18190:18522   */\n      swap4\n      swap3\n      pop\n      pop\n      pop\n      jump\t// out\n        /* \"#utility.yul\":18609:18741   */\n    tag_638:\n        /* \"#utility.yul\":18676:18680   */\n      0x00\n        /* \"#utility.yul\":18699:18702   */\n      dup2\n        /* \"#utility.yul\":18691:18702   */\n      swap1\n      pop\n        /* \"#utility.yul\":18729:18733   */\n      0x20\n        /* \"#utility.yul\":18724:18727   */\n      dup3\n        /* \"#utility.yul\":18720:18734   */\n      add\n        /* \"#utility.yul\":18712:18734   */\n      swap1\n      pop\n        /* \"#utility.yul\":18609:18741   */\n      swap2\n      swap1\n      pop\n      jump\t// out\n        /* \"#utility.yul\":18747:18879   */\n    tag_652:\n        /* \"#utility.yul\":18814:18818   */\n      0x00\n        /* \"#utility.yul\":18837:18840   */\n      dup2\n        /* \"#utility.yul\":18829:18840   */\n      swap1\n      pop\n        /* \"#utility.yul\":18867:18871   */\n      0x20\n        /* \"#utility.yul\":18862:18865   */\n      dup3\n        /* \"#utility.yul\":18858:18872   */\n      add\n        /* \"#utility.yul\":18850:18872   */\n      swap1\n      pop\n        /* \"#utility.yul\":18747:18879   */\n      swap2\n      swap1\n      pop\n      jump\t// out\n        /* \"#utility.yul\":18885:18999   */\n    tag_634:\n        /* \"#utility.yul\":18952:18958   */\n      0x00\n        /* \"#utility.yul\":18986:18991   */\n      dup2\n        /* \"#utility.yul\":18980:18992   */\n      mload\n        /* \"#utility.yul\":18970:18992   */\n      swap1\n      pop\n        /* \"#utility.yul\":18885:18999   */\n      swap2\n      swap1\n      pop\n      jump\t// out\n        /* \"#utility.yul\":19005:19119   */\n    tag_648:\n        /* \"#utility.yul\":19072:19078   */\n      0x00\n        /* \"#utility.yul\":19106:19111   */\n      dup2\n        /* \"#utility.yul\":19100:19112   */\n      mload\n        /* \"#utility.yul\":19090:19112   */\n      swap1\n      pop\n        /* \"#utility.yul\":19005:19119   */\n      swap2\n      swap1\n      pop\n      jump\t// out\n        /* \"#utility.yul\":19125:19238   */\n    tag_644:\n        /* \"#utility.yul\":19195:19199   */\n      0x00\n        /* \"#utility.yul\":19227:19231   */\n      0x20\n        /* \"#utility.yul\":19222:19225   */\n      dup3\n        /* \"#utility.yul\":19218:19232   */\n      add\n        /* \"#utility.yul\":19210:19232   */\n      swap1\n      pop\n        /* \"#utility.yul\":19125:19238   */\n      swap2\n      swap1\n      pop\n      jump\t// out\n        /* \"#utility.yul\":19244:19357   */\n    tag_658:\n        /* \"#utility.yul\":19314:19318   */\n      0x00\n        /* \"#utility.yul\":19346:19350   */\n      0x20\n        /* \"#utility.yul\":19341:19344   */\n      dup3\n        /* \"#utility.yul\":19337:19351   */\n      add\n        /* \"#utility.yul\":19329:19351   */\n      swap1\n      pop\n        /* \"#utility.yul\":19244:19357   */\n      swap2\n      swap1\n      pop\n      jump\t// out\n        /* \"#utility.yul\":19363:19547   */\n    tag_636:\n        /* \"#utility.yul\":19462:19473   */\n      0x00\n        /* \"#utility.yul\":19496:19502   */\n      dup3\n        /* \"#utility.yul\":19491:19494   */\n      dup3\n        /* \"#utility.yul\":19484:19503   */\n      mstore\n        /* \"#utility.yul\":19536:19540   */\n      0x20\n        /* \"#utility.yul\":19531:19534   */\n      dup3\n        /* \"#utility.yul\":19527:19541   */\n      add\n        /* \"#utility.yul\":19512:19541   */\n      swap1\n      pop\n        /* \"#utility.yul\":19363:19547   */\n      swap3\n      swap2\n      pop\n      pop\n      jump\t// out\n        /* \"#utility.yul\":19553:19737   */\n    tag_650:\n        /* \"#utility.yul\":19652:19663   */\n      0x00\n        /* \"#utility.yul\":19686:19692   */\n      dup3\n        /* \"#utility.yul\":19681:19684   */\n      dup3\n        /* \"#utility.yul\":19674:19693   */\n      mstore\n        /* \"#utility.yul\":19726:19730   */\n      0x20\n        /* \"#utility.yul\":19721:19724   */\n      dup3\n        /* \"#utility.yul\":19717:19731   */\n      add\n        /* \"#utility.yul\":19702:19731   */\n      swap1\n      pop\n        /* \"#utility.yul\":19553:19737   */\n      swap3\n      swap2\n      pop\n      pop\n      jump\t// out\n        /* \"#utility.yul\":19743:19912   */\n    tag_666:\n        /* \"#utility.yul\":19827:19838   */\n      0x00\n        /* \"#utility.yul\":19861:19867   */\n      dup3\n        /* \"#utility.yul\":19856:19859   */\n      dup3\n        /* \"#utility.yul\":19849:19868   */\n      mstore\n        /* \"#utility.yul\":19901:19905   */\n      0x20\n        /* \"#utility.yul\":19896:19899   */\n      dup3\n        /* \"#utility.yul\":19892:19906   */\n      add\n        /* \"#utility.yul\":19877:19906   */\n      swap1\n      pop\n        /* \"#utility.yul\":19743:19912   */\n      swap3\n      swap2\n      pop\n      pop\n      jump\t// out\n        /* \"#utility.yul\":19918:20223   */\n    tag_520:\n        /* \"#utility.yul\":19958:19961   */\n      0x00\n        /* \"#utility.yul\":19977:19997   */\n      tag_789\n        /* \"#utility.yul\":19995:19996   */\n      dup3\n        /* \"#utility.yul\":19977:19997   */\n      tag_726\n      jump\t// in\n    tag_789:\n        /* \"#utility.yul\":19972:19997   */\n      swap2\n      pop\n        /* \"#utility.yul\":20011:20031   */\n      tag_790\n        /* \"#utility.yul\":20029:20030   */\n      dup4\n        /* \"#utility.yul\":20011:20031   */\n      tag_726\n      jump\t// in\n    tag_790:\n        /* \"#utility.yul\":20006:20031   */\n      swap3\n      pop\n        /* \"#utility.yul\":20165:20166   */\n      dup3\n        /* \"#utility.yul\":20097:20163   */\n      0xffffffffffffffffffffffffffffffffffffffffffffffffffffffffffffffff\n        /* \"#utility.yul\":20093:20167   */\n      sub\n        /* \"#utility.yul\":20090:20091   */\n      dup3\n        /* \"#utility.yul\":20087:20168   */\n      gt\n        /* \"#utility.yul\":20084:20191   */\n      iszero\n      tag_791\n      jumpi\n        /* \"#utility.yul\":20171:20189   */\n      tag_792\n      tag_793\n      jump\t// in\n    tag_792:\n        /* \"#utility.yul\":20084:20191   */\n    tag_791:\n        /* \"#utility.yul\":20215:20216   */\n      dup3\n        /* \"#utility.yul\":20212:20213   */\n      dup3\n        /* \"#utility.yul\":20208:20217   */\n      add\n        /* \"#utility.yul\":20201:20217   */\n      swap1\n      pop\n        /* \"#utility.yul\":19918:20223   */\n      swap3\n      swap2\n      pop\n      pop\n      jump\t// out\n        /* \"#utility.yul\":20229:20414   */\n    tag_316:\n        /* \"#utility.yul\":20269:20270   */\n      0x00\n        /* \"#utility.yul\":20286:20306   */\n      tag_795\n        /* \"#utility.yul\":20304:20305   */\n      dup3\n        /* \"#utility.yul\":20286:20306   */\n      tag_726\n      jump\t// in\n    tag_795:\n        /* \"#utility.yul\":20281:20306   */\n      swap2\n      pop\n        /* \"#utility.yul\":20320:20340   */\n      tag_796\n        /* \"#utility.yul\":20338:20339   */\n      dup4\n        /* \"#utility.yul\":20320:20340   */\n      tag_726\n      jump\t// in\n    tag_796:\n        /* \"#utility.yul\":20315:20340   */\n      swap3\n      pop\n        /* \"#utility.yul\":20359:20360   */\n      dup3\n        /* \"#utility.yul\":20349:20384   */\n      tag_797\n      jumpi\n        /* \"#utility.yul\":20364:20382   */\n      tag_798\n      tag_799\n      jump\t// in\n    tag_798:\n        /* \"#utility.yul\":20349:20384   */\n    tag_797:\n        /* \"#utility.yul\":20406:20407   */\n      dup3\n        /* \"#utility.yul\":20403:20404   */\n      dup3\n        /* \"#utility.yul\":20399:20408   */\n      div\n        /* \"#utility.yul\":20394:20408   */\n      swap1\n      pop\n        /* \"#utility.yul\":20229:20414   */\n      swap3\n      swap2\n      pop\n      pop\n      jump\t// out\n        /* \"#utility.yul\":20420:20768   */\n    tag_314:\n        /* \"#utility.yul\":20460:20467   */\n      0x00\n        /* \"#utility.yul\":20483:20503   */\n      tag_801\n        /* \"#utility.yul\":20501:20502   */\n      dup3\n        /* \"#utility.yul\":20483:20503   */\n      tag_726\n      jump\t// in\n    tag_801:\n        /* \"#utility.yul\":20478:20503   */\n      swap2\n      pop\n        /* \"#utility.yul\":20517:20537   */\n      tag_802\n        /* \"#utility.yul\":20535:20536   */\n      dup4\n        /* \"#utility.yul\":20517:20537   */\n      tag_726\n      jump\t// in\n    tag_802:\n        /* \"#utility.yul\":20512:20537   */\n      swap3\n      pop\n        /* \"#utility.yul\":20705:20706   */\n      dup2\n        /* \"#utility.yul\":20637:20703   */\n      0xffffffffffffffffffffffffffffffffffffffffffffffffffffffffffffffff\n        /* \"#utility.yul\":20633:20707   */\n      div\n        /* \"#utility.yul\":20630:20631   */\n      dup4\n        /* \"#utility.yul\":20627:20708   */\n      gt\n        /* \"#utility.yul\":20622:20623   */\n      dup3\n        /* \"#utility.yul\":20615:20624   */\n      iszero\n        /* \"#utility.yul\":20608:20625   */\n      iszero\n        /* \"#utility.yul\":20604:20709   */\n      and\n        /* \"#utility.yul\":20601:20732   */\n      iszero\n      tag_803\n      jumpi\n        /* \"#utility.yul\":20712:20730   */\n      tag_804\n      tag_793\n      jump\t// in\n    tag_804:\n        /* \"#utility.yul\":20601:20732   */\n    tag_803:\n        /* \"#utility.yul\":20760:20761   */\n      dup3\n        /* \"#utility.yul\":20757:20758   */\n      dup3\n        /* \"#utility.yul\":20753:20762   */\n      mul\n        /* \"#utility.yul\":20742:20762   */\n      swap1\n      pop\n        /* \"#utility.yul\":20420:20768   */\n      swap3\n      swap2\n      pop\n      pop\n      jump\t// out\n        /* \"#utility.yul\":20774:20965   */\n    tag_312:\n        /* \"#utility.yul\":20814:20818   */\n      0x00\n        /* \"#utility.yul\":20834:20854   */\n      tag_806\n        /* \"#utility.yul\":20852:20853   */\n      dup3\n        /* \"#utility.yul\":20834:20854   */\n      tag_726\n      jump\t// in\n    tag_806:\n        /* \"#utility.yul\":20829:20854   */\n      swap2\n      pop\n        /* \"#utility.yul\":20868:20888   */\n      tag_807\n        /* \"#utility.yul\":20886:20887   */\n      dup4\n        /* \"#utility.yul\":20868:20888   */\n      tag_726\n      jump\t// in\n    tag_807:\n        /* \"#utility.yul\":20863:20888   */\n      swap3\n      pop\n        /* \"#utility.yul\":20907:20908   */\n      dup3\n        /* \"#utility.yul\":20904:20905   */\n      dup3\n        /* \"#utility.yul\":20901:20909   */\n      lt\n        /* \"#utility.yul\":20898:20932   */\n      iszero\n      tag_808\n      jumpi\n        /* \"#utility.yul\":20912:20930   */\n      tag_809\n      tag_793\n      jump\t// in\n    tag_809:\n        /* \"#utility.yul\":20898:20932   */\n    tag_808:\n        /* \"#utility.yul\":20957:20958   */\n      dup3\n        /* \"#utility.yul\":20954:20955   */\n      dup3\n        /* \"#utility.yul\":20950:20959   */\n      sub\n        /* \"#utility.yul\":20942:20959   */\n      swap1\n      pop\n        /* \"#utility.yul\":20774:20965   */\n      swap3\n      swap2\n      pop\n      pop\n      jump\t// out\n        /* \"#utility.yul\":20971:21067   */\n    tag_627:\n        /* \"#utility.yul\":21008:21015   */\n      0x00\n        /* \"#utility.yul\":21037:21061   */\n      tag_811\n        /* \"#utility.yul\":21055:21060   */\n      dup3\n        /* \"#utility.yul\":21037:21061   */\n      tag_812\n      jump\t// in\n    tag_811:\n        /* \"#utility.yul\":21026:21061   */\n      swap1\n      pop\n        /* \"#utility.yul\":20971:21067   */\n      swap2\n      swap1\n      pop\n      jump\t// out\n        /* \"#utility.yul\":21073:21163   */\n    tag_662:\n        /* \"#utility.yul\":21107:21114   */\n      0x00\n        /* \"#utility.yul\":21150:21155   */\n      dup2\n        /* \"#utility.yul\":21143:21156   */\n      iszero\n        /* \"#utility.yul\":21136:21157   */\n      iszero\n        /* \"#utility.yul\":21125:21157   */\n      swap1\n      pop\n        /* \"#utility.yul\":21073:21163   */\n      swap2\n      swap1\n      pop\n      jump\t// out\n        /* \"#utility.yul\":21169:21295   */\n    tag_812:\n        /* \"#utility.yul\":21206:21213   */\n      0x00\n        /* \"#utility.yul\":21246:21288   */\n      0xffffffffffffffffffffffffffffffffffffffff\n        /* \"#utility.yul\":21239:21244   */\n      dup3\n        /* \"#utility.yul\":21235:21289   */\n      and\n        /* \"#utility.yul\":21224:21289   */\n      swap1\n      pop\n        /* \"#utility.yul\":21169:21295   */\n      swap2\n      swap1\n      pop\n      jump\t// out\n        /* \"#utility.yul\":21301:21378   */\n    tag_726:\n        /* \"#utility.yul\":21338:21345   */\n      0x00\n        /* \"#utility.yul\":21367:21372   */\n      dup2\n        /* \"#utility.yul\":21356:21372   */\n      swap1\n      pop\n        /* \"#utility.yul\":21301:21378   */\n      swap2\n      swap1\n      pop\n      jump\t// out\n        /* \"#utility.yul\":21384:21555   */\n    tag_561:\n        /* \"#utility.yul\":21423:21426   */\n      0x00\n        /* \"#utility.yul\":21446:21470   */\n      tag_817\n        /* \"#utility.yul\":21464:21469   */\n      dup3\n        /* \"#utility.yul\":21446:21470   */\n      tag_726\n      jump\t// in\n    tag_817:\n        /* \"#utility.yul\":21437:21470   */\n      swap2\n      pop\n        /* \"#utility.yul\":21492:21496   */\n      0x00\n        /* \"#utility.yul\":21485:21490   */\n      dup3\n        /* \"#utility.yul\":21482:21497   */\n      eq\n        /* \"#utility.yul\":21479:21520   */\n      iszero\n      tag_818\n      jumpi\n        /* \"#utility.yul\":21500:21518   */\n      tag_819\n      tag_793\n      jump\t// in\n    tag_819:\n        /* \"#utility.yul\":21479:21520   */\n    tag_818:\n        /* \"#utility.yul\":21547:21548   */\n      0x01\n        /* \"#utility.yul\":21540:21545   */\n      dup3\n        /* \"#utility.yul\":21536:21549   */\n      sub\n        /* \"#utility.yul\":21529:21549   */\n      swap1\n      pop\n        /* \"#utility.yul\":21384:21555   */\n      swap2\n      swap1\n      pop\n      jump\t// out\n        /* \"#utility.yul\":21561:21794   */\n    tag_432:\n        /* \"#utility.yul\":21600:21603   */\n      0x00\n        /* \"#utility.yul\":21623:21647   */\n      tag_821\n        /* \"#utility.yul\":21641:21646   */\n      dup3\n        /* \"#utility.yul\":21623:21647   */\n      tag_726\n      jump\t// in\n    tag_821:\n        /* \"#utility.yul\":21614:21647   */\n      swap2\n      pop\n        /* \"#utility.yul\":21669:21735   */\n      0xffffffffffffffffffffffffffffffffffffffffffffffffffffffffffffffff\n        /* \"#utility.yul\":21662:21667   */\n      dup3\n        /* \"#utility.yul\":21659:21736   */\n      eq\n        /* \"#utility.yul\":21656:21759   */\n      iszero\n      tag_822\n      jumpi\n        /* \"#utility.yul\":21739:21757   */\n      tag_823\n      tag_793\n      jump\t// in\n    tag_823:\n        /* \"#utility.yul\":21656:21759   */\n    tag_822:\n        /* \"#utility.yul\":21786:21787   */\n      0x01\n        /* \"#utility.yul\":21779:21784   */\n      dup3\n        /* \"#utility.yul\":21775:21788   */\n      add\n        /* \"#utility.yul\":21768:21788   */\n      swap1\n      pop\n        /* \"#utility.yul\":21561:21794   */\n      swap2\n      swap1\n      pop\n      jump\t// out\n        /* \"#utility.yul\":21800:21980   */\n    tag_793:\n        /* \"#utility.yul\":21848:21925   */\n      0x4e487b7100000000000000000000000000000000000000000000000000000000\n        /* \"#utility.yul\":21845:21846   */\n      0x00\n        /* \"#utility.yul\":21838:21926   */\n      mstore\n        /* \"#utility.yul\":21945:21949   */\n      0x11\n        /* \"#utility.yul\":21942:21943   */\n      0x04\n        /* \"#utility.yul\":21935:21950   */\n      mstore\n        /* \"#utility.yul\":21969:21973   */\n      0x24\n        /* \"#utility.yul\":21966:21967   */\n      0x00\n        /* \"#utility.yul\":21959:21974   */\n      revert\n        /* \"#utility.yul\":21986:22166   */\n    tag_799:\n        /* \"#utility.yul\":22034:22111   */\n      0x4e487b7100000000000000000000000000000000000000000000000000000000\n        /* \"#utility.yul\":22031:22032   */\n      0x00\n        /* \"#utility.yul\":22024:22112   */\n      mstore\n        /* \"#utility.yul\":22131:22135   */\n      0x12\n        /* \"#utility.yul\":22128:22129   */\n      0x04\n        /* \"#utility.yul\":22121:22136   */\n      mstore\n        /* \"#utility.yul\":22155:22159   */\n      0x24\n        /* \"#utility.yul\":22152:22153   */\n      0x00\n        /* \"#utility.yul\":22145:22160   */\n      revert\n        /* \"#utility.yul\":22172:22352   */\n    tag_530:\n        /* \"#utility.yul\":22220:22297   */\n      0x4e487b7100000000000000000000000000000000000000000000000000000000\n        /* \"#utility.yul\":22217:22218   */\n      0x00\n        /* \"#utility.yul\":22210:22298   */\n      mstore\n        /* \"#utility.yul\":22317:22321   */\n      0x31\n        /* \"#utility.yul\":22314:22315   */\n      0x04\n        /* \"#utility.yul\":22307:22322   */\n      mstore\n        /* \"#utility.yul\":22341:22345   */\n      0x24\n        /* \"#utility.yul\":22338:22339   */\n      0x00\n        /* \"#utility.yul\":22331:22346   */\n      revert\n        /* \"#utility.yul\":22358:22538   */\n    tag_405:\n        /* \"#utility.yul\":22406:22483   */\n      0x4e487b7100000000000000000000000000000000000000000000000000000000\n        /* \"#utility.yul\":22403:22404   */\n      0x00\n        /* \"#utility.yul\":22396:22484   */\n      mstore\n        /* \"#utility.yul\":22503:22507   */\n      0x32\n        /* \"#utility.yul\":22500:22501   */\n      0x04\n        /* \"#utility.yul\":22493:22508   */\n      mstore\n        /* \"#utility.yul\":22527:22531   */\n      0x24\n        /* \"#utility.yul\":22524:22525   */\n      0x00\n        /* \"#utility.yul\":22517:22532   */\n      revert\n        /* \"#utility.yul\":22544:22724   */\n    tag_395:\n        /* \"#utility.yul\":22592:22669   */\n      0x4e487b7100000000000000000000000000000000000000000000000000000000\n        /* \"#utility.yul\":22589:22590   */\n      0x00\n        /* \"#utility.yul\":22582:22670   */\n      mstore\n        /* \"#utility.yul\":22689:22693   */\n      0x41\n        /* \"#utility.yul\":22686:22687   */\n      0x04\n        /* \"#utility.yul\":22679:22694   */\n      mstore\n        /* \"#utility.yul\":22713:22717   */\n      0x24\n        /* \"#utility.yul\":22710:22711   */\n      0x00\n        /* \"#utility.yul\":22703:22718   */\n      revert\n        /* \"#utility.yul\":22853:22970   */\n    tag_589:\n        /* \"#utility.yul\":22962:22963   */\n      0x00\n        /* \"#utility.yul\":22959:22960   */\n      dup1\n        /* \"#utility.yul\":22952:22964   */\n      revert\n        /* \"#utility.yul\":22976:23155   */\n    tag_668:\n        /* \"#utility.yul\":23116:23147   */\n      0x73656c6c6572206e6565642068617665207468697320746f6b656e6964000000\n        /* \"#utility.yul\":23112:23113   */\n      0x00\n        /* \"#utility.yul\":23104:23110   */\n      dup3\n        /* \"#utility.yul\":23100:23114   */\n      add\n        /* \"#utility.yul\":23093:23148   */\n      mstore\n        /* \"#utility.yul\":22976:23155   */\n      pop\n      jump\t// out\n        /* \"#utility.yul\":23161:23324   */\n    tag_673:\n        /* \"#utility.yul\":23301:23316   */\n      0x69742069732073656c6c696e6700000000000000000000000000000000000000\n        /* \"#utility.yul\":23297:23298   */\n      0x00\n        /* \"#utility.yul\":23289:23295   */\n      dup3\n        /* \"#utility.yul\":23285:23299   */\n      add\n        /* \"#utility.yul\":23278:23317   */\n      mstore\n        /* \"#utility.yul\":23161:23324   */\n      pop\n      jump\t// out\n        /* \"#utility.yul\":23330:23555   */\n    tag_678:\n        /* \"#utility.yul\":23470:23504   */\n      0x4f776e61626c653a206e6577206f776e657220697320746865207a65726f2061\n        /* \"#utility.yul\":23466:23467   */\n      0x00\n        /* \"#utility.yul\":23458:23464   */\n      dup3\n        /* \"#utility.yul\":23454:23468   */\n      add\n        /* \"#utility.yul\":23447:23505   */\n      mstore\n        /* \"#utility.yul\":23539:23547   */\n      0x6464726573730000000000000000000000000000000000000000000000000000\n        /* \"#utility.yul\":23534:23536   */\n      0x20\n        /* \"#utility.yul\":23526:23532   */\n      dup3\n        /* \"#utility.yul\":23522:23537   */\n      add\n        /* \"#utility.yul\":23515:23548   */\n      mstore\n        /* \"#utility.yul\":23330:23555   */\n      pop\n      jump\t// out\n        /* \"#utility.yul\":23561:23734   */\n    tag_683:\n        /* \"#utility.yul\":23701:23726   */\n      0x416d6f756e74203e2030202626203c2042616c616e6365000000000000000000\n        /* \"#utility.yul\":23697:23698   */\n      0x00\n        /* \"#utility.yul\":23689:23695   */\n      dup3\n        /* \"#utility.yul\":23685:23699   */\n      add\n        /* \"#utility.yul\":23678:23727   */\n      mstore\n        /* \"#utility.yul\":23561:23734   */\n      pop\n      jump\t// out\n        /* \"#utility.yul\":23740:23914   */\n    tag_688:\n        /* \"#utility.yul\":23880:23906   */\n      0x46726f6d20616e6420546f2063616e206e6f742073616d650000000000000000\n        /* \"#utility.yul\":23876:23877   */\n      0x00\n        /* \"#utility.yul\":23868:23874   */\n      dup3\n        /* \"#utility.yul\":23864:23878   */\n      add\n        /* \"#utility.yul\":23857:23907   */\n      mstore\n        /* \"#utility.yul\":23740:23914   */\n      pop\n      jump\t// out\n        /* \"#utility.yul\":23920:24079   */\n    tag_693:\n        /* \"#utility.yul\":24060:24071   */\n      0x5072696365203e20300000000000000000000000000000000000000000000000\n        /* \"#utility.yul\":24056:24057   */\n      0x00\n        /* \"#utility.yul\":24048:24054   */\n      dup3\n        /* \"#utility.yul\":24044:24058   */\n      add\n        /* \"#utility.yul\":24037:24072   */\n      mstore\n        /* \"#utility.yul\":23920:24079   */\n      pop\n      jump\t// out\n        /* \"#utility.yul\":24085:24255   */\n    tag_698:\n        /* \"#utility.yul\":24225:24247   */\n      0x4e6f7420696e207468697320636f6e7472616374000000000000000000000000\n        /* \"#utility.yul\":24221:24222   */\n      0x00\n        /* \"#utility.yul\":24213:24219   */\n      dup3\n        /* \"#utility.yul\":24209:24223   */\n      add\n        /* \"#utility.yul\":24202:24248   */\n      mstore\n        /* \"#utility.yul\":24085:24255   */\n      pop\n      jump\t// out\n        /* \"#utility.yul\":24261:24488   */\n    tag_703:\n        /* \"#utility.yul\":24401:24435   */\n      0x596f75206e65656420417070726f766520466f7220416c6c20746f2074686973\n        /* \"#utility.yul\":24397:24398   */\n      0x00\n        /* \"#utility.yul\":24389:24395   */\n      dup3\n        /* \"#utility.yul\":24385:24399   */\n      add\n        /* \"#utility.yul\":24378:24436   */\n      mstore\n        /* \"#utility.yul\":24470:24480   */\n      0x20636f6e74616374000000000000000000000000000000000000000000000000\n        /* \"#utility.yul\":24465:24467   */\n      0x20\n        /* \"#utility.yul\":24457:24463   */\n      dup3\n        /* \"#utility.yul\":24453:24468   */\n      add\n        /* \"#utility.yul\":24446:24481   */\n      mstore\n        /* \"#utility.yul\":24261:24488   */\n      pop\n      jump\t// out\n        /* \"#utility.yul\":24494:24664   */\n    tag_708:\n        /* \"#utility.yul\":24634:24656   */\n      0x416464726573732063616e206e6f74207a65726f000000000000000000000000\n        /* \"#utility.yul\":24630:24631   */\n      0x00\n        /* \"#utility.yul\":24622:24628   */\n      dup3\n        /* \"#utility.yul\":24618:24632   */\n      add\n        /* \"#utility.yul\":24611:24657   */\n      mstore\n        /* \"#utility.yul\":24494:24664   */\n      pop\n      jump\t// out\n        /* \"#utility.yul\":24670:24852   */\n    tag_713:\n        /* \"#utility.yul\":24810:24844   */\n      0x4f776e61626c653a2063616c6c6572206973206e6f7420746865206f776e6572\n        /* \"#utility.yul\":24806:24807   */\n      0x00\n        /* \"#utility.yul\":24798:24804   */\n      dup3\n        /* \"#utility.yul\":24794:24808   */\n      add\n        /* \"#utility.yul\":24787:24845   */\n      mstore\n        /* \"#utility.yul\":24670:24852   */\n      pop\n      jump\t// out\n        /* \"#utility.yul\":24858:25028   */\n    tag_718:\n        /* \"#utility.yul\":24998:25020   */\n      0x56696353686f7365206e6f7420696e2073656c6c000000000000000000000000\n        /* \"#utility.yul\":24994:24995   */\n      0x00\n        /* \"#utility.yul\":24986:24992   */\n      dup3\n        /* \"#utility.yul\":24982:24996   */\n      add\n        /* \"#utility.yul\":24975:25021   */\n      mstore\n        /* \"#utility.yul\":24858:25028   */\n      pop\n      jump\t// out\n        /* \"#utility.yul\":25034:25329   */\n    tag_723:\n        /* \"#utility.yul\":25174:25208   */\n      0x546865206d6f6e657920616c6c6f776564206973206e6f7420656e6f75676820\n        /* \"#utility.yul\":25170:25171   */\n      0x00\n        /* \"#utility.yul\":25162:25168   */\n      dup3\n        /* \"#utility.yul\":25158:25172   */\n      add\n        /* \"#utility.yul\":25151:25209   */\n      mstore\n        /* \"#utility.yul\":25243:25277   */\n      0x746f206275792073686f65732e20596f75206e65656420617070726f7665206d\n        /* \"#utility.yul\":25238:25240   */\n      0x20\n        /* \"#utility.yul\":25230:25236   */\n      dup3\n        /* \"#utility.yul\":25226:25241   */\n      add\n        /* \"#utility.yul\":25219:25278   */\n      mstore\n        /* \"#utility.yul\":25312:25321   */\n      0x6f72652056494d00000000000000000000000000000000000000000000000000\n        /* \"#utility.yul\":25307:25309   */\n      0x40\n        /* \"#utility.yul\":25299:25305   */\n      dup3\n        /* \"#utility.yul\":25295:25310   */\n      add\n        /* \"#utility.yul\":25288:25322   */\n      mstore\n        /* \"#utility.yul\":25034:25329   */\n      pop\n      jump\t// out\n        /* \"#utility.yul\":25335:25457   */\n    tag_571:\n        /* \"#utility.yul\":25408:25432   */\n      tag_845\n        /* \"#utility.yul\":25426:25431   */\n      dup2\n        /* \"#utility.yul\":25408:25432   */\n      tag_627\n      jump\t// in\n    tag_845:\n        /* \"#utility.yul\":25401:25406   */\n      dup2\n        /* \"#utility.yul\":25398:25433   */\n      eq\n        /* \"#utility.yul\":25388:25451   */\n      tag_846\n      jumpi\n        /* \"#utility.yul\":25447:25448   */\n      0x00\n        /* \"#utility.yul\":25444:25445   */\n      dup1\n        /* \"#utility.yul\":25437:25449   */\n      revert\n        /* \"#utility.yul\":25388:25451   */\n    tag_846:\n        /* \"#utility.yul\":25335:25457   */\n      pop\n      jump\t// out\n        /* \"#utility.yul\":25463:25579   */\n    tag_578:\n        /* \"#utility.yul\":25533:25554   */\n      tag_848\n        /* \"#utility.yul\":25548:25553   */\n      dup2\n        /* \"#utility.yul\":25533:25554   */\n      tag_662\n      jump\t// in\n    tag_848:\n        /* \"#utility.yul\":25526:25531   */\n      dup2\n        /* \"#utility.yul\":25523:25555   */\n      eq\n        /* \"#utility.yul\":25513:25573   */\n      tag_849\n      jumpi\n        /* \"#utility.yul\":25569:25570   */\n      0x00\n        /* \"#utility.yul\":25566:25567   */\n      dup1\n        /* \"#utility.yul\":25559:25571   */\n      revert\n        /* \"#utility.yul\":25513:25573   */\n    tag_849:\n        /* \"#utility.yul\":25463:25579   */\n      pop\n      jump\t// out\n        /* \"#utility.yul\":25585:25707   */\n    tag_582:\n        /* \"#utility.yul\":25658:25682   */\n      tag_851\n        /* \"#utility.yul\":25676:25681   */\n      dup2\n        /* \"#utility.yul\":25658:25682   */\n      tag_726\n      jump\t// in\n    tag_851:\n        /* \"#utility.yul\":25651:25656   */\n      dup2\n        /* \"#utility.yul\":25648:25683   */\n      eq\n        /* \"#utility.yul\":25638:25701   */\n      tag_852\n      jumpi\n        /* \"#utility.yul\":25697:25698   */\n      0x00\n        /* \"#utility.yul\":25694:25695   */\n      dup1\n        /* \"#utility.yul\":25687:25699   */\n      revert\n        /* \"#utility.yul\":25638:25701   */\n    tag_852:\n        /* \"#utility.yul\":25585:25707   */\n      pop\n      jump\t// out\n\n    auxdata: 0xa26469706673582212204bb7a5388aecec21a4ff4e6c0f28f5901881a76c197d83db57bdf9f3561277fa64736f6c63430008070033\n}\n",
				"bytecode": {
					"linkReferences": {},
					"object": "608060405260008060146101000a81548160ff021916908315150217905550600061002e6102de60201b60201c565b9050806000806101000a81548173ffffffffffffffffffffffffffffffffffffffff021916908373ffffffffffffffffffffffffffffffffffffffff1602179055508073ffffffffffffffffffffffffffffffffffffffff16600073ffffffffffffffffffffffffffffffffffffffff167f8be0079c531659141344cd1fd0a4f28419497f9722a3daafe3b4186f6b6457e060405160405180910390a35073cb3745379275252f4beb5d1094bf1a8a09f368b7600160006101000a81548173ffffffffffffffffffffffffffffffffffffffff021916908373ffffffffffffffffffffffffffffffffffffffff16021790555073d295cf5d859b9ed331cdf69c49a81eff5e1bee83600260006101000a81548173ffffffffffffffffffffffffffffffffffffffff021916908373ffffffffffffffffffffffffffffffffffffffff16021790555073c184af52ca4e1b1f085aa8236ff8508f52dc6ea7600360006101000a81548173ffffffffffffffffffffffffffffffffffffffff021916908373ffffffffffffffffffffffffffffffffffffffff160217905550735bcd91c734d665fe426a5d7156f2ad7d37b76e30600460006101000a81548173ffffffffffffffffffffffffffffffffffffffff021916908373ffffffffffffffffffffffffffffffffffffffff16021790555073bb4cdb9cbd36b01bd1cbaebf2de08d9173bc095c600560006101000a81548173ffffffffffffffffffffffffffffffffffffffff021916908373ffffffffffffffffffffffffffffffffffffffff16021790555073fa0e47a2d6a58b9fd7ca1d4bfaadd11e8811824b600860006101000a81548173ffffffffffffffffffffffffffffffffffffffff021916908373ffffffffffffffffffffffffffffffffffffffff1602179055506006808190555060056007819055506102e6565b600033905090565b613e2180620002f66000396000f3fe6080604052600436106101f25760003560e01c80638cef64371161010d578063bcfcba76116100a0578063d88827791161006f578063d8882779146106ac578063de281e28146106d7578063ea156f4414610700578063f0f442601461072b578063f2fde38b14610754576101f9565b8063bcfcba7614610606578063cc24c80014610631578063d1f199891461065a578063d57b6a4a14610683576101f9565b8063a888a93a116100dc578063a888a93a1461055c578063ac4b3b0a14610585578063b5620229146105b0578063bc127127146105db576101f9565b80638cef6437146104b05780638da5cb5b146104d95780638f32d59b1461050457806399bc1bfb1461052f576101f9565b8063563df32f11610185578063715018a611610154578063715018a61461041c5780637880e6061461043357806383d582151461045c5780638456cb5914610485576101f9565b8063563df32f14610360578063594642171461038b5780635c975abb146103c85780635c9e0d10146103f3576101f9565b80633f4ba83a116101c15780633f4ba83a146102a6578063458a635a146102d157806348eca45c146102fa5780634dd79f1014610337576101f9565b80630ff32839146101fe5780631ecff38e146102295780632e5bb6ff1461025257806336c3b4e21461027b576101f9565b366101f957005b600080fd5b34801561020a57600080fd5b5061021361077d565b6040516102209190613510565b60405180910390f35b34801561023557600080fd5b50610250600480360381019061024b91906130d4565b6107a3565b005b34801561025e57600080fd5b506102796004803603810190610274919061319b565b610887565b005b34801561028757600080fd5b506102906108e5565b60405161029d9190613510565b60405180910390f35b3480156102b257600080fd5b506102bb61090b565b6040516102c89190613600565b60405180910390f35b3480156102dd57600080fd5b506102f860048036038101906102f391906130d4565b6109ba565b005b34801561030657600080fd5b50610321600480360381019061031c91906130d4565b610a9e565b60405161032e919061379b565b60405180910390f35b34801561034357600080fd5b5061035e6004803603810190610359919061319b565b610b30565b005b34801561036c57600080fd5b50610375610d01565b6040516103829190613510565b60405180910390f35b34801561039757600080fd5b506103b260048036038101906103ad919061319b565b610d27565b6040516103bf9190613510565b60405180910390f35b3480156103d457600080fd5b506103dd610d64565b6040516103ea9190613600565b60405180910390f35b3480156103ff57600080fd5b5061041a6004803603810190610415919061312e565b610d77565b005b34801561042857600080fd5b50610431611082565b005b34801561043f57600080fd5b5061045a6004803603810190610455919061319b565b611187565b005b34801561046857600080fd5b50610483600480360381019061047e91906131f5565b6119ba565b005b34801561049157600080fd5b5061049a611cbf565b6040516104a79190613600565b60405180910390f35b3480156104bc57600080fd5b506104d760048036038101906104d2919061312e565b611d70565b005b3480156104e557600080fd5b506104ee611f48565b6040516104fb9190613510565b60405180910390f35b34801561051057600080fd5b50610519611f71565b6040516105269190613600565b60405180910390f35b34801561053b57600080fd5b50610544611fcf565b604051610553939291906135b4565b60405180910390f35b34801561056857600080fd5b50610583600480360381019061057e91906130d4565b6123ae565b005b34801561059157600080fd5b5061059a612492565b6040516105a79190613510565b60405180910390f35b3480156105bc57600080fd5b506105c56124b8565b6040516105d29190613510565b60405180910390f35b3480156105e757600080fd5b506105f06124de565b6040516105fd919061379b565b60405180910390f35b34801561061257600080fd5b5061061b6124e6565b604051610628919061379b565b60405180910390f35b34801561063d57600080fd5b50610658600480360381019061065391906130d4565b6124ec565b005b34801561066657600080fd5b50610681600480360381019061067c919061319b565b612577565b005b34801561068f57600080fd5b506106aa60048036038101906106a5919061319b565b61267f565b005b3480156106b857600080fd5b506106c1612894565b6040516106ce9190613510565b60405180910390f35b3480156106e357600080fd5b506106fe60048036038101906106f9919061319b565b6128ba565b005b34801561070c57600080fd5b50610715612944565b604051610722919061379b565b60405180910390f35b34801561073757600080fd5b50610752600480360381019061074d91906130d4565b612b1f565b005b34801561076057600080fd5b5061077b600480360381019061077691906130d4565b612c03565b005b600560009054906101000a900473ffffffffffffffffffffffffffffffffffffffff1681565b6107ab611f71565b6107ea576040517f08c379a00000000000000000000000000000000000000000000000000000000081526004016107e19061373b565b60405180910390fd5b80600460006101000a81548173ffffffffffffffffffffffffffffffffffffffff021916908373ffffffffffffffffffffffffffffffffffffffff1602179055507f136742181ff5fc7d13f647a125112ec36500105a024ce2dbbb7f28fa375eebfa600460009054906101000a900473ffffffffffffffffffffffffffffffffffffffff1660405161087c9190613510565b60405180910390a150565b61088f611f71565b6108ce576040517f08c379a00000000000000000000000000000000000000000000000000000000081526004016108c59061373b565b60405180910390fd5b603281106108db57600080fd5b8060078190555050565b600260009054906101000a900473ffffffffffffffffffffffffffffffffffffffff1681565b6000610915611f71565b610954576040517f08c379a000000000000000000000000000000000000000000000000000000000815260040161094b9061373b565b60405180910390fd5b600060149054906101000a900460ff1661096d57600080fd5b60008060146101000a81548160ff0219169083151502179055507f7805862f689e2f13df9f062ff482ad3ad112aca9e0847911ed832e158c525b3360405160405180910390a16001905090565b6109c2611f71565b610a01576040517f08c379a00000000000000000000000000000000000000000000000000000000081526004016109f89061373b565b60405180910390fd5b80600360006101000a81548173ffffffffffffffffffffffffffffffffffffffff021916908373ffffffffffffffffffffffffffffffffffffffff1602179055507fb01e01d90e1da4079495db07c84276ef34a0ea39cd9be9c3844874eb35616e44600360009054906101000a900473ffffffffffffffffffffffffffffffffffffffff16604051610a939190613510565b60405180910390a150565b60008173ffffffffffffffffffffffffffffffffffffffff166370a08231306040518263ffffffff1660e01b8152600401610ad99190613510565b60206040518083038186803b158015610af157600080fd5b505afa158015610b05573d6000803e3d6000fd5b505050506040513d601f19601f82011682018060405250810190610b2991906131c8565b9050919050565b600060149054906101000a900460ff1615610b4a57600080fd5b6000600a60008381526020019081526020016000205411610ba0576040517f08c379a0000000000000000000000000000000000000000000000000000000008152600401610b979061375b565b60405180910390fd5b60003390508073ffffffffffffffffffffffffffffffffffffffff16600360009054906101000a900473ffffffffffffffffffffffffffffffffffffffff1673ffffffffffffffffffffffffffffffffffffffff16636352211e846040518263ffffffff1660e01b8152600401610c17919061379b565b60206040518083038186803b158015610c2f57600080fd5b505afa158015610c43573d6000803e3d6000fd5b505050506040513d601f19601f82011682018060405250810190610c679190613101565b73ffffffffffffffffffffffffffffffffffffffff1614610cbd576040517f08c379a0000000000000000000000000000000000000000000000000000000008152600401610cb49061361b565b60405180910390fd5b610cc682612c56565b7fd4ceea0833ac36cc33c805e4f164dedb6d75e092a34e14083bbb87976befdecf82604051610cf5919061379b565b60405180910390a15050565b600160009054906101000a900473ffffffffffffffffffffffffffffffffffffffff1681565b60006009600083815260200190815260200160002060009054906101000a900473ffffffffffffffffffffffffffffffffffffffff169050919050565b600060149054906101000a900460ff1681565b600060149054906101000a900460ff1615610d9157600080fd5b6000339050600360009054906101000a900473ffffffffffffffffffffffffffffffffffffffff1673ffffffffffffffffffffffffffffffffffffffff1663e985e9c582306040518363ffffffff1660e01b8152600401610df392919061352b565b60206040518083038186803b158015610e0b57600080fd5b505afa158015610e1f573d6000803e3d6000fd5b505050506040513d601f19601f82011682018060405250810190610e43919061316e565b610e82576040517f08c379a0000000000000000000000000000000000000000000000000000000008152600401610e79906136fb565b60405180910390fd5b600073ffffffffffffffffffffffffffffffffffffffff168373ffffffffffffffffffffffffffffffffffffffff161415610ef2576040517f08c379a0000000000000000000000000000000000000000000000000000000008152600401610ee99061371b565b60405180910390fd5b8073ffffffffffffffffffffffffffffffffffffffff168373ffffffffffffffffffffffffffffffffffffffff161415610f61576040517f08c379a0000000000000000000000000000000000000000000000000000000008152600401610f589061369b565b60405180910390fd5b600360009054906101000a900473ffffffffffffffffffffffffffffffffffffffff1673ffffffffffffffffffffffffffffffffffffffff166342842e0e8285856040518463ffffffff1660e01b8152600401610fc093929190613554565b600060405180830381600087803b158015610fda57600080fd5b505af1158015610fee573d6000803e3d6000fd5b50505050826009600084815260200190815260200160002060006101000a81548173ffffffffffffffffffffffffffffffffffffffff021916908373ffffffffffffffffffffffffffffffffffffffff1602179055507f2a422da7e70b3ca41064be14c50b74a43cbbef24634fa3b7e90d120b8ecc08b3838360405161107592919061358b565b60405180910390a1505050565b61108a611f71565b6110c9576040517f08c379a00000000000000000000000000000000000000000000000000000000081526004016110c09061373b565b60405180910390fd5b600073ffffffffffffffffffffffffffffffffffffffff1660008054906101000a900473ffffffffffffffffffffffffffffffffffffffff1673ffffffffffffffffffffffffffffffffffffffff167f8be0079c531659141344cd1fd0a4f28419497f9722a3daafe3b4186f6b6457e060405160405180910390a360008060006101000a81548173ffffffffffffffffffffffffffffffffffffffff021916908373ffffffffffffffffffffffffffffffffffffffff160217905550565b600060149054906101000a900460ff16156111a157600080fd5b6000600b600083815260200190815260200160002060009054906101000a900473ffffffffffffffffffffffffffffffffffffffff1690506000600a6000848152602001908152602001600020541161122f576040517f08c379a00000000000000000000000000000000000000000000000000000000081526004016112269061375b565b60405180910390fd5b8073ffffffffffffffffffffffffffffffffffffffff16600360009054906101000a900473ffffffffffffffffffffffffffffffffffffffff1673ffffffffffffffffffffffffffffffffffffffff16636352211e846040518263ffffffff1660e01b81526004016112a1919061379b565b60206040518083038186803b1580156112b957600080fd5b505afa1580156112cd573d6000803e3d6000fd5b505050506040513d601f19601f820116820180604052508101906112f19190613101565b73ffffffffffffffffffffffffffffffffffffffff1614611347576040517f08c379a000000000000000000000000000000000000000000000000000000000815260040161133e9061361b565b60405180910390fd5b600360009054906101000a900473ffffffffffffffffffffffffffffffffffffffff1673ffffffffffffffffffffffffffffffffffffffff1663e985e9c582306040518363ffffffff1660e01b81526004016113a492919061352b565b60206040518083038186803b1580156113bc57600080fd5b505afa1580156113d0573d6000803e3d6000fd5b505050506040513d601f19601f820116820180604052508101906113f4919061316e565b611433576040517f08c379a000000000000000000000000000000000000000000000000000000000815260040161142a906136fb565b60405180910390fd5b60003390506000611442612944565b905060008190506000600a60008781526020019081526020016000205490508281111561146d578091505b81600460009054906101000a900473ffffffffffffffffffffffffffffffffffffffff1673ffffffffffffffffffffffffffffffffffffffff1663dd62ed3e86306040518363ffffffff1660e01b81526004016114cb92919061352b565b60206040518083038186803b1580156114e357600080fd5b505afa1580156114f7573d6000803e3d6000fd5b505050506040513d601f19601f8201168201806040525081019061151b91906131c8565b101561155c576040517f08c379a00000000000000000000000000000000000000000000000000000000081526004016115539061377b565b60405180910390fd5b600360009054906101000a900473ffffffffffffffffffffffffffffffffffffffff1673ffffffffffffffffffffffffffffffffffffffff166342842e0e8630896040518463ffffffff1660e01b81526004016115bb93929190613554565b600060405180830381600087803b1580156115d557600080fd5b505af11580156115e9573d6000803e3d6000fd5b50505050600460009054906101000a900473ffffffffffffffffffffffffffffffffffffffff1673ffffffffffffffffffffffffffffffffffffffff166323b872dd8530856040518463ffffffff1660e01b815260040161164c93929190613554565b602060405180830381600087803b15801561166657600080fd5b505af115801561167a573d6000803e3d6000fd5b505050506040513d601f19601f8201168201806040525081019061169e919061316e565b50600360009054906101000a900473ffffffffffffffffffffffffffffffffffffffff1673ffffffffffffffffffffffffffffffffffffffff166342842e0e3086896040518463ffffffff1660e01b81526004016116fe93929190613554565b600060405180830381600087803b15801561171857600080fd5b505af115801561172c573d6000803e3d6000fd5b505050506000606460075460646117439190613943565b8561174e91906138e9565b61175891906138b8565b821061177f5760646007548461176e91906138e9565b61177891906138b8565b905061178e565b818461178b9190613943565b90505b600460009054906101000a900473ffffffffffffffffffffffffffffffffffffffff1673ffffffffffffffffffffffffffffffffffffffff166323b872dd308884876117da9190613943565b6040518463ffffffff1660e01b81526004016117f893929190613554565b602060405180830381600087803b15801561181257600080fd5b505af1158015611826573d6000803e3d6000fd5b505050506040513d601f19601f8201168201806040525081019061184a919061316e565b50600460009054906101000a900473ffffffffffffffffffffffffffffffffffffffff1673ffffffffffffffffffffffffffffffffffffffff166323b872dd30600160009054906101000a900473ffffffffffffffffffffffffffffffffffffffff16846040518463ffffffff1660e01b81526004016118cc93929190613554565b602060405180830381600087803b1580156118e657600080fd5b505af11580156118fa573d6000803e3d6000fd5b505050506040513d601f19601f8201168201806040525081019061191e919061316e565b50846009600089815260200190815260200160002060006101000a81548173ffffffffffffffffffffffffffffffffffffffff021916908373ffffffffffffffffffffffffffffffffffffffff16021790555061197a87612c56565b7f2b66287559b2a137ea3e7a6ab376630ef6165451c4d691bd218b503aa276f89d876040516119a9919061379b565b60405180910390a150505050505050565b600060149054906101000a900460ff16156119d457600080fd5b6000600a60008481526020019081526020016000205414611a2a576040517f08c379a0000000000000000000000000000000000000000000000000000000008152600401611a219061363b565b60405180910390fd5b60003390508073ffffffffffffffffffffffffffffffffffffffff16600360009054906101000a900473ffffffffffffffffffffffffffffffffffffffff1673ffffffffffffffffffffffffffffffffffffffff16636352211e856040518263ffffffff1660e01b8152600401611aa1919061379b565b60206040518083038186803b158015611ab957600080fd5b505afa158015611acd573d6000803e3d6000fd5b505050506040513d601f19601f82011682018060405250810190611af19190613101565b73ffffffffffffffffffffffffffffffffffffffff1614611b47576040517f08c379a0000000000000000000000000000000000000000000000000000000008152600401611b3e9061361b565b60405180910390fd5b600360009054906101000a900473ffffffffffffffffffffffffffffffffffffffff1673ffffffffffffffffffffffffffffffffffffffff1663e985e9c582306040518363ffffffff1660e01b8152600401611ba492919061352b565b60206040518083038186803b158015611bbc57600080fd5b505afa158015611bd0573d6000803e3d6000fd5b505050506040513d601f19601f82011682018060405250810190611bf4919061316e565b611c33576040517f08c379a0000000000000000000000000000000000000000000000000000000008152600401611c2a906136fb565b60405180910390fd5b60008211611c76576040517f08c379a0000000000000000000000000000000000000000000000000000000008152600401611c6d906136bb565b60405180910390fd5b611c81838383612d69565b7f55bb046a6e950af74fcdaaa97a1a82c49209d72a5fcda0925a019dfba29c8f728383604051611cb29291906137b6565b60405180910390a1505050565b6000611cc9611f71565b611d08576040517f08c379a0000000000000000000000000000000000000000000000000000000008152600401611cff9061373b565b60405180910390fd5b600060149054906101000a900460ff1615611d2257600080fd5b6001600060146101000a81548160ff0219169083151502179055507f6985a02210a168e66602d3235cb6db0e70f92b3ba4d376a33c0f3d9434bff62560405160405180910390a16001905090565b611d78611f71565b611db7576040517f08c379a0000000000000000000000000000000000000000000000000000000008152600401611dae9061373b565b60405180910390fd5b60008273ffffffffffffffffffffffffffffffffffffffff166370a08231306040518263ffffffff1660e01b8152600401611df29190613510565b60206040518083038186803b158015611e0a57600080fd5b505afa158015611e1e573d6000803e3d6000fd5b505050506040513d601f19601f82011682018060405250810190611e4291906131c8565b9050600082118015611e545750808211155b611e93576040517f08c379a0000000000000000000000000000000000000000000000000000000008152600401611e8a9061367b565b60405180910390fd5b8273ffffffffffffffffffffffffffffffffffffffff1663a9059cbb600860009054906101000a900473ffffffffffffffffffffffffffffffffffffffff16846040518363ffffffff1660e01b8152600401611ef092919061358b565b602060405180830381600087803b158015611f0a57600080fd5b505af1158015611f1e573d6000803e3d6000fd5b505050506040513d601f19601f82011682018060405250810190611f42919061316e565b50505050565b60008060009054906101000a900473ffffffffffffffffffffffffffffffffffffffff16905090565b60008060009054906101000a900473ffffffffffffffffffffffffffffffffffffffff1673ffffffffffffffffffffffffffffffffffffffff16611fb3612f36565b73ffffffffffffffffffffffffffffffffffffffff1614905090565b60608060606000600c80549050905060008167ffffffffffffffff811115611ffa57611ff9613aee565b5b6040519080825280602002602001820160405280156120285781602001602082028036833780820191505090505b50905060008267ffffffffffffffff81111561204757612046613aee565b5b6040519080825280602002602001820160405280156120755781602001602082028036833780820191505090505b50905060005b8381101561234957600b6000600c838154811061209b5761209a613abf565b5b9060005260206000200154815260200190815260200160002060009054906101000a900473ffffffffffffffffffffffffffffffffffffffff1673ffffffffffffffffffffffffffffffffffffffff16600360009054906101000a900473ffffffffffffffffffffffffffffffffffffffff1673ffffffffffffffffffffffffffffffffffffffff16636352211e600c848154811061213d5761213c613abf565b5b90600052602060002001546040518263ffffffff1660e01b8152600401612164919061379b565b60206040518083038186803b15801561217c57600080fd5b505afa158015612190573d6000803e3d6000fd5b505050506040513d601f19601f820116820180604052508101906121b49190613101565b73ffffffffffffffffffffffffffffffffffffffff1614156122c557600a6000600c83815481106121e8576121e7613abf565b5b906000526020600020015481526020019081526020016000205483828151811061221557612214613abf565b5b602002602001018181525050600b6000600c838154811061223957612238613abf565b5b9060005260206000200154815260200190815260200160002060009054906101000a900473ffffffffffffffffffffffffffffffffffffffff1682828151811061228657612285613abf565b5b602002602001019073ffffffffffffffffffffffffffffffffffffffff16908173ffffffffffffffffffffffffffffffffffffffff1681525050612336565b60008382815181106122da576122d9613abf565b5b60200260200101818152505060008282815181106122fb576122fa613abf565b5b602002602001019073ffffffffffffffffffffffffffffffffffffffff16908173ffffffffffffffffffffffffffffffffffffffff16815250505b8080612341906139e9565b91505061207b565b50600c81838280548060200260200160405190810160405280929190818152602001828054801561239957602002820191906000526020600020905b815481526020019060010190808311612385575b50505050509250955095509550505050909192565b6123b6611f71565b6123f5576040517f08c379a00000000000000000000000000000000000000000000000000000000081526004016123ec9061373b565b60405180910390fd5b80600260006101000a81548173ffffffffffffffffffffffffffffffffffffffff021916908373ffffffffffffffffffffffffffffffffffffffff1602179055507facdd85d235b5b49226c2c4f2b72cb01fa1cc3ae64bb843a6def27788d05b1b60600260009054906101000a900473ffffffffffffffffffffffffffffffffffffffff166040516124879190613510565b60405180910390a150565b600860009054906101000a900473ffffffffffffffffffffffffffffffffffffffff1681565b600460009054906101000a900473ffffffffffffffffffffffffffffffffffffffff1681565b600047905090565b60065481565b6124f4611f71565b612533576040517f08c379a000000000000000000000000000000000000000000000000000000000815260040161252a9061373b565b60405180910390fd5b80600860006101000a81548173ffffffffffffffffffffffffffffffffffffffff021916908373ffffffffffffffffffffffffffffffffffffffff16021790555050565b61257f611f71565b6125be576040517f08c379a00000000000000000000000000000000000000000000000000000000081526004016125b59061373b565b60405180910390fd5b60004790506000821180156125d35750808211155b612612576040517f08c379a00000000000000000000000000000000000000000000000000000000081526004016126099061367b565b60405180910390fd5b600860009054906101000a900473ffffffffffffffffffffffffffffffffffffffff1673ffffffffffffffffffffffffffffffffffffffff166108fc839081150290604051600060405180830381858888f1935050505015801561267a573d6000803e3d6000fd5b505050565b612687611f71565b6126c6576040517f08c379a00000000000000000000000000000000000000000000000000000000081526004016126bd9061373b565b60405180910390fd5b3073ffffffffffffffffffffffffffffffffffffffff16600360009054906101000a900473ffffffffffffffffffffffffffffffffffffffff1673ffffffffffffffffffffffffffffffffffffffff16636352211e836040518263ffffffff1660e01b8152600401612738919061379b565b60206040518083038186803b15801561275057600080fd5b505afa158015612764573d6000803e3d6000fd5b505050506040513d601f19601f820116820180604052508101906127889190613101565b73ffffffffffffffffffffffffffffffffffffffff16146127de576040517f08c379a00000000000000000000000000000000000000000000000000000000081526004016127d5906136db565b60405180910390fd5b600360009054906101000a900473ffffffffffffffffffffffffffffffffffffffff1673ffffffffffffffffffffffffffffffffffffffff166342842e0e30600860009054906101000a900473ffffffffffffffffffffffffffffffffffffffff16846040518463ffffffff1660e01b815260040161285f93929190613554565b600060405180830381600087803b15801561287957600080fd5b505af115801561288d573d6000803e3d6000fd5b5050505050565b600360009054906101000a900473ffffffffffffffffffffffffffffffffffffffff1681565b6128c2611f71565b612901576040517f08c379a00000000000000000000000000000000000000000000000000000000081526004016128f89061373b565b60405180910390fd5b806006819055507f4d8e30ff458bebdd848488669e63d632954487ca1bc64c28f3c920f74a5f8594600654604051612939919061379b565b60405180910390a150565b600080600560009054906101000a900473ffffffffffffffffffffffffffffffffffffffff1673ffffffffffffffffffffffffffffffffffffffff166370a08231600260009054906101000a900473ffffffffffffffffffffffffffffffffffffffff166040518263ffffffff1660e01b81526004016129c49190613510565b60206040518083038186803b1580156129dc57600080fd5b505afa1580156129f0573d6000803e3d6000fd5b505050506040513d601f19601f82011682018060405250810190612a1491906131c8565b90506000600460009054906101000a900473ffffffffffffffffffffffffffffffffffffffff1673ffffffffffffffffffffffffffffffffffffffff166370a08231600260009054906101000a900473ffffffffffffffffffffffffffffffffffffffff166040518263ffffffff1660e01b8152600401612a959190613510565b60206040518083038186803b158015612aad57600080fd5b505afa158015612ac1573d6000803e3d6000fd5b505050506040513d601f19601f82011682018060405250810190612ae591906131c8565b905060008282612af591906138b8565b90506000600a60065483612b0991906138e9565b612b1391906138b8565b90508094505050505090565b612b27611f71565b612b66576040517f08c379a0000000000000000000000000000000000000000000000000000000008152600401612b5d9061373b565b60405180910390fd5b80600160006101000a81548173ffffffffffffffffffffffffffffffffffffffff021916908373ffffffffffffffffffffffffffffffffffffffff1602179055507fb14f2a39bb21fda32827bbdb4be629c94036e10a3f6055a6454f884ca1b33fa1600160009054906101000a900473ffffffffffffffffffffffffffffffffffffffff16604051612bf89190613510565b60405180910390a150565b612c0b611f71565b612c4a576040517f08c379a0000000000000000000000000000000000000000000000000000000008152600401612c419061373b565b60405180910390fd5b612c5381612f3e565b50565b600a60008281526020019081526020016000206000905560005b600c80549050811015612d645781600c8281548110612c9257612c91613abf565b5b90600052602060002001541415612d515760008190505b6001600c80549050612cbb9190613943565b811015612d2257600c600182612cd19190613862565b81548110612ce257612ce1613abf565b5b9060005260206000200154600c8281548110612d0157612d00613abf565b5b90600052602060002001819055508080612d1a906139e9565b915050612ca9565b50600c805480612d3557612d34613a90565b5b6001900381819060005260206000200160009055905550612d66565b8080612d5c906139e9565b915050612c70565b505b50565b81600a60008581526020019081526020016000208190555080600b600085815260200190815260200160002060006101000a81548173ffffffffffffffffffffffffffffffffffffffff021916908373ffffffffffffffffffffffffffffffffffffffff160217905550600c8390806001815401808255809150506001900390600052602060002001600090919091909150556002600c8054905010612f305760006002600c80549050612e1d9190613943565b90505b60008110612f2e5782600a6000600c8481548110612e4157612e40613abf565b5b90600052602060002001548152602001908152602001600020541115612ee657600c8181548110612e7557612e74613abf565b5b9060005260206000200154600c600183612e8f9190613862565b81548110612ea057612e9f613abf565b5b90600052602060002001819055506000811415612ee15783600c600081548110612ecd57612ecc613abf565b5b906000526020600020018190555050612f31565b612f1b565b83600c600183612ef69190613862565b81548110612f0757612f06613abf565b5b906000526020600020018190555050612f31565b8080612f26906139bf565b915050612e20565b505b5b505050565b600033905090565b600073ffffffffffffffffffffffffffffffffffffffff168173ffffffffffffffffffffffffffffffffffffffff161415612fae576040517f08c379a0000000000000000000000000000000000000000000000000000000008152600401612fa59061365b565b60405180910390fd5b8073ffffffffffffffffffffffffffffffffffffffff1660008054906101000a900473ffffffffffffffffffffffffffffffffffffffff1673ffffffffffffffffffffffffffffffffffffffff167f8be0079c531659141344cd1fd0a4f28419497f9722a3daafe3b4186f6b6457e060405160405180910390a3806000806101000a81548173ffffffffffffffffffffffffffffffffffffffff021916908373ffffffffffffffffffffffffffffffffffffffff16021790555050565b60008135905061307a81613da6565b92915050565b60008151905061308f81613da6565b92915050565b6000815190506130a481613dbd565b92915050565b6000813590506130b981613dd4565b92915050565b6000815190506130ce81613dd4565b92915050565b6000602082840312156130ea576130e9613b1d565b5b60006130f88482850161306b565b91505092915050565b60006020828403121561311757613116613b1d565b5b600061312584828501613080565b91505092915050565b6000806040838503121561314557613144613b1d565b5b60006131538582860161306b565b9250506020613164858286016130aa565b9150509250929050565b60006020828403121561318457613183613b1d565b5b600061319284828501613095565b91505092915050565b6000602082840312156131b1576131b0613b1d565b5b60006131bf848285016130aa565b91505092915050565b6000602082840312156131de576131dd613b1d565b5b60006131ec848285016130bf565b91505092915050565b6000806040838503121561320c5761320b613b1d565b5b600061321a858286016130aa565b925050602061322b858286016130aa565b9150509250929050565b60006132418383613265565b60208301905092915050565b600061325983836134f2565b60208301905092915050565b61326e81613977565b82525050565b61327d81613977565b82525050565b600061328e826137ff565b613298818561382f565b93506132a3836137df565b8060005b838110156132d45781516132bb8882613235565b97506132c683613815565b9250506001810190506132a7565b5085935050505092915050565b60006132ec8261380a565b6132f68185613840565b9350613301836137ef565b8060005b83811015613332578151613319888261324d565b975061332483613822565b925050600181019050613305565b5085935050505092915050565b61334881613989565b82525050565b600061335b601d83613851565b915061336682613b22565b602082019050919050565b600061337e600d83613851565b915061338982613b4b565b602082019050919050565b60006133a1602683613851565b91506133ac82613b74565b604082019050919050565b60006133c4601783613851565b91506133cf82613bc3565b602082019050919050565b60006133e7601883613851565b91506133f282613bec565b602082019050919050565b600061340a600983613851565b915061341582613c15565b602082019050919050565b600061342d601483613851565b915061343882613c3e565b602082019050919050565b6000613450602883613851565b915061345b82613c67565b604082019050919050565b6000613473601483613851565b915061347e82613cb6565b602082019050919050565b6000613496602083613851565b91506134a182613cdf565b602082019050919050565b60006134b9601483613851565b91506134c482613d08565b602082019050919050565b60006134dc604783613851565b91506134e782613d31565b606082019050919050565b6134fb816139b5565b82525050565b61350a816139b5565b82525050565b60006020820190506135256000830184613274565b92915050565b60006040820190506135406000830185613274565b61354d6020830184613274565b9392505050565b60006060820190506135696000830186613274565b6135766020830185613274565b6135836040830184613501565b949350505050565b60006040820190506135a06000830185613274565b6135ad6020830184613501565b9392505050565b600060608201905081810360008301526135ce81866132e1565b905081810360208301526135e28185613283565b905081810360408301526135f681846132e1565b9050949350505050565b6000602082019050613615600083018461333f565b92915050565b600060208201905081810360008301526136348161334e565b9050919050565b6000602082019050818103600083015261365481613371565b9050919050565b6000602082019050818103600083015261367481613394565b9050919050565b60006020820190508181036000830152613694816133b7565b9050919050565b600060208201905081810360008301526136b4816133da565b9050919050565b600060208201905081810360008301526136d4816133fd565b9050919050565b600060208201905081810360008301526136f481613420565b9050919050565b6000602082019050818103600083015261371481613443565b9050919050565b6000602082019050818103600083015261373481613466565b9050919050565b6000602082019050818103600083015261375481613489565b9050919050565b60006020820190508181036000830152613774816134ac565b9050919050565b60006020820190508181036000830152613794816134cf565b9050919050565b60006020820190506137b06000830184613501565b92915050565b60006040820190506137cb6000830185613501565b6137d86020830184613501565b9392505050565b6000819050602082019050919050565b6000819050602082019050919050565b600081519050919050565b600081519050919050565b6000602082019050919050565b6000602082019050919050565b600082825260208201905092915050565b600082825260208201905092915050565b600082825260208201905092915050565b600061386d826139b5565b9150613878836139b5565b9250827fffffffffffffffffffffffffffffffffffffffffffffffffffffffffffffffff038211156138ad576138ac613a32565b5b828201905092915050565b60006138c3826139b5565b91506138ce836139b5565b9250826138de576138dd613a61565b5b828204905092915050565b60006138f4826139b5565b91506138ff836139b5565b9250817fffffffffffffffffffffffffffffffffffffffffffffffffffffffffffffffff048311821515161561393857613937613a32565b5b828202905092915050565b600061394e826139b5565b9150613959836139b5565b92508282101561396c5761396b613a32565b5b828203905092915050565b600061398282613995565b9050919050565b60008115159050919050565b600073ffffffffffffffffffffffffffffffffffffffff82169050919050565b6000819050919050565b60006139ca826139b5565b915060008214156139de576139dd613a32565b5b600182039050919050565b60006139f4826139b5565b91507fffffffffffffffffffffffffffffffffffffffffffffffffffffffffffffffff821415613a2757613a26613a32565b5b600182019050919050565b7f4e487b7100000000000000000000000000000000000000000000000000000000600052601160045260246000fd5b7f4e487b7100000000000000000000000000000000000000000000000000000000600052601260045260246000fd5b7f4e487b7100000000000000000000000000000000000000000000000000000000600052603160045260246000fd5b7f4e487b7100000000000000000000000000000000000000000000000000000000600052603260045260246000fd5b7f4e487b7100000000000000000000000000000000000000000000000000000000600052604160045260246000fd5b600080fd5b7f73656c6c6572206e6565642068617665207468697320746f6b656e6964000000600082015250565b7f69742069732073656c6c696e6700000000000000000000000000000000000000600082015250565b7f4f776e61626c653a206e6577206f776e657220697320746865207a65726f206160008201527f6464726573730000000000000000000000000000000000000000000000000000602082015250565b7f416d6f756e74203e2030202626203c2042616c616e6365000000000000000000600082015250565b7f46726f6d20616e6420546f2063616e206e6f742073616d650000000000000000600082015250565b7f5072696365203e20300000000000000000000000000000000000000000000000600082015250565b7f4e6f7420696e207468697320636f6e7472616374000000000000000000000000600082015250565b7f596f75206e65656420417070726f766520466f7220416c6c20746f207468697360008201527f20636f6e74616374000000000000000000000000000000000000000000000000602082015250565b7f416464726573732063616e206e6f74207a65726f000000000000000000000000600082015250565b7f4f776e61626c653a2063616c6c6572206973206e6f7420746865206f776e6572600082015250565b7f56696353686f7365206e6f7420696e2073656c6c000000000000000000000000600082015250565b7f546865206d6f6e657920616c6c6f776564206973206e6f7420656e6f7567682060008201527f746f206275792073686f65732e20596f75206e65656420617070726f7665206d60208201527f6f72652056494d00000000000000000000000000000000000000000000000000604082015250565b613daf81613977565b8114613dba57600080fd5b50565b613dc681613989565b8114613dd157600080fd5b50565b613ddd816139b5565b8114613de857600080fd5b5056fea26469706673582212204bb7a5388aecec21a4ff4e6c0f28f5901881a76c197d83db57bdf9f3561277fa64736f6c63430008070033",
					"opcodes": "PUSH1 0x80 PUSH1 0x40 MSTORE PUSH1 0x0 DUP1 PUSH1 0x14 PUSH2 0x100 EXP DUP2 SLOAD DUP2 PUSH1 0xFF MUL NOT AND SWAP1 DUP4 ISZERO ISZERO MUL OR SWAP1 SSTORE POP PUSH1 0x0 PUSH2 0x2E PUSH2 0x2DE PUSH1 0x20 SHL PUSH1 0x20 SHR JUMP JUMPDEST SWAP1 POP DUP1 PUSH1 0x0 DUP1 PUSH2 0x100 EXP DUP2 SLOAD DUP2 PUSH20 0xFFFFFFFFFFFFFFFFFFFFFFFFFFFFFFFFFFFFFFFF MUL NOT AND SWAP1 DUP4 PUSH20 0xFFFFFFFFFFFFFFFFFFFFFFFFFFFFFFFFFFFFFFFF AND MUL OR SWAP1 SSTORE POP DUP1 PUSH20 0xFFFFFFFFFFFFFFFFFFFFFFFFFFFFFFFFFFFFFFFF AND PUSH1 0x0 PUSH20 0xFFFFFFFFFFFFFFFFFFFFFFFFFFFFFFFFFFFFFFFF AND PUSH32 0x8BE0079C531659141344CD1FD0A4F28419497F9722A3DAAFE3B4186F6B6457E0 PUSH1 0x40 MLOAD PUSH1 0x40 MLOAD DUP1 SWAP2 SUB SWAP1 LOG3 POP PUSH20 0xCB3745379275252F4BEB5D1094BF1A8A09F368B7 PUSH1 0x1 PUSH1 0x0 PUSH2 0x100 EXP DUP2 SLOAD DUP2 PUSH20 0xFFFFFFFFFFFFFFFFFFFFFFFFFFFFFFFFFFFFFFFF MUL NOT AND SWAP1 DUP4 PUSH20 0xFFFFFFFFFFFFFFFFFFFFFFFFFFFFFFFFFFFFFFFF AND MUL OR SWAP1 SSTORE POP PUSH20 0xD295CF5D859B9ED331CDF69C49A81EFF5E1BEE83 PUSH1 0x2 PUSH1 0x0 PUSH2 0x100 EXP DUP2 SLOAD DUP2 PUSH20 0xFFFFFFFFFFFFFFFFFFFFFFFFFFFFFFFFFFFFFFFF MUL NOT AND SWAP1 DUP4 PUSH20 0xFFFFFFFFFFFFFFFFFFFFFFFFFFFFFFFFFFFFFFFF AND MUL OR SWAP1 SSTORE POP PUSH20 0xC184AF52CA4E1B1F085AA8236FF8508F52DC6EA7 PUSH1 0x3 PUSH1 0x0 PUSH2 0x100 EXP DUP2 SLOAD DUP2 PUSH20 0xFFFFFFFFFFFFFFFFFFFFFFFFFFFFFFFFFFFFFFFF MUL NOT AND SWAP1 DUP4 PUSH20 0xFFFFFFFFFFFFFFFFFFFFFFFFFFFFFFFFFFFFFFFF AND MUL OR SWAP1 SSTORE POP PUSH20 0x5BCD91C734D665FE426A5D7156F2AD7D37B76E30 PUSH1 0x4 PUSH1 0x0 PUSH2 0x100 EXP DUP2 SLOAD DUP2 PUSH20 0xFFFFFFFFFFFFFFFFFFFFFFFFFFFFFFFFFFFFFFFF MUL NOT AND SWAP1 DUP4 PUSH20 0xFFFFFFFFFFFFFFFFFFFFFFFFFFFFFFFFFFFFFFFF AND MUL OR SWAP1 SSTORE POP PUSH20 0xBB4CDB9CBD36B01BD1CBAEBF2DE08D9173BC095C PUSH1 0x5 PUSH1 0x0 PUSH2 0x100 EXP DUP2 SLOAD DUP2 PUSH20 0xFFFFFFFFFFFFFFFFFFFFFFFFFFFFFFFFFFFFFFFF MUL NOT AND SWAP1 DUP4 PUSH20 0xFFFFFFFFFFFFFFFFFFFFFFFFFFFFFFFFFFFFFFFF AND MUL OR SWAP1 SSTORE POP PUSH20 0xFA0E47A2D6A58B9FD7CA1D4BFAADD11E8811824B PUSH1 0x8 PUSH1 0x0 PUSH2 0x100 EXP DUP2 SLOAD DUP2 PUSH20 0xFFFFFFFFFFFFFFFFFFFFFFFFFFFFFFFFFFFFFFFF MUL NOT AND SWAP1 DUP4 PUSH20 0xFFFFFFFFFFFFFFFFFFFFFFFFFFFFFFFFFFFFFFFF AND MUL OR SWAP1 SSTORE POP PUSH1 0x6 DUP1 DUP2 SWAP1 SSTORE POP PUSH1 0x5 PUSH1 0x7 DUP2 SWAP1 SSTORE POP PUSH2 0x2E6 JUMP JUMPDEST PUSH1 0x0 CALLER SWAP1 POP SWAP1 JUMP JUMPDEST PUSH2 0x3E21 DUP1 PUSH3 0x2F6 PUSH1 0x0 CODECOPY PUSH1 0x0 RETURN INVALID PUSH1 0x80 PUSH1 0x40 MSTORE PUSH1 0x4 CALLDATASIZE LT PUSH2 0x1F2 JUMPI PUSH1 0x0 CALLDATALOAD PUSH1 0xE0 SHR DUP1 PUSH4 0x8CEF6437 GT PUSH2 0x10D JUMPI DUP1 PUSH4 0xBCFCBA76 GT PUSH2 0xA0 JUMPI DUP1 PUSH4 0xD8882779 GT PUSH2 0x6F JUMPI DUP1 PUSH4 0xD8882779 EQ PUSH2 0x6AC JUMPI DUP1 PUSH4 0xDE281E28 EQ PUSH2 0x6D7 JUMPI DUP1 PUSH4 0xEA156F44 EQ PUSH2 0x700 JUMPI DUP1 PUSH4 0xF0F44260 EQ PUSH2 0x72B JUMPI DUP1 PUSH4 0xF2FDE38B EQ PUSH2 0x754 JUMPI PUSH2 0x1F9 JUMP JUMPDEST DUP1 PUSH4 0xBCFCBA76 EQ PUSH2 0x606 JUMPI DUP1 PUSH4 0xCC24C800 EQ PUSH2 0x631 JUMPI DUP1 PUSH4 0xD1F19989 EQ PUSH2 0x65A JUMPI DUP1 PUSH4 0xD57B6A4A EQ PUSH2 0x683 JUMPI PUSH2 0x1F9 JUMP JUMPDEST DUP1 PUSH4 0xA888A93A GT PUSH2 0xDC JUMPI DUP1 PUSH4 0xA888A93A EQ PUSH2 0x55C JUMPI DUP1 PUSH4 0xAC4B3B0A EQ PUSH2 0x585 JUMPI DUP1 PUSH4 0xB5620229 EQ PUSH2 0x5B0 JUMPI DUP1 PUSH4 0xBC127127 EQ PUSH2 0x5DB JUMPI PUSH2 0x1F9 JUMP JUMPDEST DUP1 PUSH4 0x8CEF6437 EQ PUSH2 0x4B0 JUMPI DUP1 PUSH4 0x8DA5CB5B EQ PUSH2 0x4D9 JUMPI DUP1 PUSH4 0x8F32D59B EQ PUSH2 0x504 JUMPI DUP1 PUSH4 0x99BC1BFB EQ PUSH2 0x52F JUMPI PUSH2 0x1F9 JUMP JUMPDEST DUP1 PUSH4 0x563DF32F GT PUSH2 0x185 JUMPI DUP1 PUSH4 0x715018A6 GT PUSH2 0x154 JUMPI DUP1 PUSH4 0x715018A6 EQ PUSH2 0x41C JUMPI DUP1 PUSH4 0x7880E606 EQ PUSH2 0x433 JUMPI DUP1 PUSH4 0x83D58215 EQ PUSH2 0x45C JUMPI DUP1 PUSH4 0x8456CB59 EQ PUSH2 0x485 JUMPI PUSH2 0x1F9 JUMP JUMPDEST DUP1 PUSH4 0x563DF32F EQ PUSH2 0x360 JUMPI DUP1 PUSH4 0x59464217 EQ PUSH2 0x38B JUMPI DUP1 PUSH4 0x5C975ABB EQ PUSH2 0x3C8 JUMPI DUP1 PUSH4 0x5C9E0D10 EQ PUSH2 0x3F3 JUMPI PUSH2 0x1F9 JUMP JUMPDEST DUP1 PUSH4 0x3F4BA83A GT PUSH2 0x1C1 JUMPI DUP1 PUSH4 0x3F4BA83A EQ PUSH2 0x2A6 JUMPI DUP1 PUSH4 0x458A635A EQ PUSH2 0x2D1 JUMPI DUP1 PUSH4 0x48ECA45C EQ PUSH2 0x2FA JUMPI DUP1 PUSH4 0x4DD79F10 EQ PUSH2 0x337 JUMPI PUSH2 0x1F9 JUMP JUMPDEST DUP1 PUSH4 0xFF32839 EQ PUSH2 0x1FE JUMPI DUP1 PUSH4 0x1ECFF38E EQ PUSH2 0x229 JUMPI DUP1 PUSH4 0x2E5BB6FF EQ PUSH2 0x252 JUMPI DUP1 PUSH4 0x36C3B4E2 EQ PUSH2 0x27B JUMPI PUSH2 0x1F9 JUMP JUMPDEST CALLDATASIZE PUSH2 0x1F9 JUMPI STOP JUMPDEST PUSH1 0x0 DUP1 REVERT JUMPDEST CALLVALUE DUP1 ISZERO PUSH2 0x20A JUMPI PUSH1 0x0 DUP1 REVERT JUMPDEST POP PUSH2 0x213 PUSH2 0x77D JUMP JUMPDEST PUSH1 0x40 MLOAD PUSH2 0x220 SWAP2 SWAP1 PUSH2 0x3510 JUMP JUMPDEST PUSH1 0x40 MLOAD DUP1 SWAP2 SUB SWAP1 RETURN JUMPDEST CALLVALUE DUP1 ISZERO PUSH2 0x235 JUMPI PUSH1 0x0 DUP1 REVERT JUMPDEST POP PUSH2 0x250 PUSH1 0x4 DUP1 CALLDATASIZE SUB DUP2 ADD SWAP1 PUSH2 0x24B SWAP2 SWAP1 PUSH2 0x30D4 JUMP JUMPDEST PUSH2 0x7A3 JUMP JUMPDEST STOP JUMPDEST CALLVALUE DUP1 ISZERO PUSH2 0x25E JUMPI PUSH1 0x0 DUP1 REVERT JUMPDEST POP PUSH2 0x279 PUSH1 0x4 DUP1 CALLDATASIZE SUB DUP2 ADD SWAP1 PUSH2 0x274 SWAP2 SWAP1 PUSH2 0x319B JUMP JUMPDEST PUSH2 0x887 JUMP JUMPDEST STOP JUMPDEST CALLVALUE DUP1 ISZERO PUSH2 0x287 JUMPI PUSH1 0x0 DUP1 REVERT JUMPDEST POP PUSH2 0x290 PUSH2 0x8E5 JUMP JUMPDEST PUSH1 0x40 MLOAD PUSH2 0x29D SWAP2 SWAP1 PUSH2 0x3510 JUMP JUMPDEST PUSH1 0x40 MLOAD DUP1 SWAP2 SUB SWAP1 RETURN JUMPDEST CALLVALUE DUP1 ISZERO PUSH2 0x2B2 JUMPI PUSH1 0x0 DUP1 REVERT JUMPDEST POP PUSH2 0x2BB PUSH2 0x90B JUMP JUMPDEST PUSH1 0x40 MLOAD PUSH2 0x2C8 SWAP2 SWAP1 PUSH2 0x3600 JUMP JUMPDEST PUSH1 0x40 MLOAD DUP1 SWAP2 SUB SWAP1 RETURN JUMPDEST CALLVALUE DUP1 ISZERO PUSH2 0x2DD JUMPI PUSH1 0x0 DUP1 REVERT JUMPDEST POP PUSH2 0x2F8 PUSH1 0x4 DUP1 CALLDATASIZE SUB DUP2 ADD SWAP1 PUSH2 0x2F3 SWAP2 SWAP1 PUSH2 0x30D4 JUMP JUMPDEST PUSH2 0x9BA JUMP JUMPDEST STOP JUMPDEST CALLVALUE DUP1 ISZERO PUSH2 0x306 JUMPI PUSH1 0x0 DUP1 REVERT JUMPDEST POP PUSH2 0x321 PUSH1 0x4 DUP1 CALLDATASIZE SUB DUP2 ADD SWAP1 PUSH2 0x31C SWAP2 SWAP1 PUSH2 0x30D4 JUMP JUMPDEST PUSH2 0xA9E JUMP JUMPDEST PUSH1 0x40 MLOAD PUSH2 0x32E SWAP2 SWAP1 PUSH2 0x379B JUMP JUMPDEST PUSH1 0x40 MLOAD DUP1 SWAP2 SUB SWAP1 RETURN JUMPDEST CALLVALUE DUP1 ISZERO PUSH2 0x343 JUMPI PUSH1 0x0 DUP1 REVERT JUMPDEST POP PUSH2 0x35E PUSH1 0x4 DUP1 CALLDATASIZE SUB DUP2 ADD SWAP1 PUSH2 0x359 SWAP2 SWAP1 PUSH2 0x319B JUMP JUMPDEST PUSH2 0xB30 JUMP JUMPDEST STOP JUMPDEST CALLVALUE DUP1 ISZERO PUSH2 0x36C JUMPI PUSH1 0x0 DUP1 REVERT JUMPDEST POP PUSH2 0x375 PUSH2 0xD01 JUMP JUMPDEST PUSH1 0x40 MLOAD PUSH2 0x382 SWAP2 SWAP1 PUSH2 0x3510 JUMP JUMPDEST PUSH1 0x40 MLOAD DUP1 SWAP2 SUB SWAP1 RETURN JUMPDEST CALLVALUE DUP1 ISZERO PUSH2 0x397 JUMPI PUSH1 0x0 DUP1 REVERT JUMPDEST POP PUSH2 0x3B2 PUSH1 0x4 DUP1 CALLDATASIZE SUB DUP2 ADD SWAP1 PUSH2 0x3AD SWAP2 SWAP1 PUSH2 0x319B JUMP JUMPDEST PUSH2 0xD27 JUMP JUMPDEST PUSH1 0x40 MLOAD PUSH2 0x3BF SWAP2 SWAP1 PUSH2 0x3510 JUMP JUMPDEST PUSH1 0x40 MLOAD DUP1 SWAP2 SUB SWAP1 RETURN JUMPDEST CALLVALUE DUP1 ISZERO PUSH2 0x3D4 JUMPI PUSH1 0x0 DUP1 REVERT JUMPDEST POP PUSH2 0x3DD PUSH2 0xD64 JUMP JUMPDEST PUSH1 0x40 MLOAD PUSH2 0x3EA SWAP2 SWAP1 PUSH2 0x3600 JUMP JUMPDEST PUSH1 0x40 MLOAD DUP1 SWAP2 SUB SWAP1 RETURN JUMPDEST CALLVALUE DUP1 ISZERO PUSH2 0x3FF JUMPI PUSH1 0x0 DUP1 REVERT JUMPDEST POP PUSH2 0x41A PUSH1 0x4 DUP1 CALLDATASIZE SUB DUP2 ADD SWAP1 PUSH2 0x415 SWAP2 SWAP1 PUSH2 0x312E JUMP JUMPDEST PUSH2 0xD77 JUMP JUMPDEST STOP JUMPDEST CALLVALUE DUP1 ISZERO PUSH2 0x428 JUMPI PUSH1 0x0 DUP1 REVERT JUMPDEST POP PUSH2 0x431 PUSH2 0x1082 JUMP JUMPDEST STOP JUMPDEST CALLVALUE DUP1 ISZERO PUSH2 0x43F JUMPI PUSH1 0x0 DUP1 REVERT JUMPDEST POP PUSH2 0x45A PUSH1 0x4 DUP1 CALLDATASIZE SUB DUP2 ADD SWAP1 PUSH2 0x455 SWAP2 SWAP1 PUSH2 0x319B JUMP JUMPDEST PUSH2 0x1187 JUMP JUMPDEST STOP JUMPDEST CALLVALUE DUP1 ISZERO PUSH2 0x468 JUMPI PUSH1 0x0 DUP1 REVERT JUMPDEST POP PUSH2 0x483 PUSH1 0x4 DUP1 CALLDATASIZE SUB DUP2 ADD SWAP1 PUSH2 0x47E SWAP2 SWAP1 PUSH2 0x31F5 JUMP JUMPDEST PUSH2 0x19BA JUMP JUMPDEST STOP JUMPDEST CALLVALUE DUP1 ISZERO PUSH2 0x491 JUMPI PUSH1 0x0 DUP1 REVERT JUMPDEST POP PUSH2 0x49A PUSH2 0x1CBF JUMP JUMPDEST PUSH1 0x40 MLOAD PUSH2 0x4A7 SWAP2 SWAP1 PUSH2 0x3600 JUMP JUMPDEST PUSH1 0x40 MLOAD DUP1 SWAP2 SUB SWAP1 RETURN JUMPDEST CALLVALUE DUP1 ISZERO PUSH2 0x4BC JUMPI PUSH1 0x0 DUP1 REVERT JUMPDEST POP PUSH2 0x4D7 PUSH1 0x4 DUP1 CALLDATASIZE SUB DUP2 ADD SWAP1 PUSH2 0x4D2 SWAP2 SWAP1 PUSH2 0x312E JUMP JUMPDEST PUSH2 0x1D70 JUMP JUMPDEST STOP JUMPDEST CALLVALUE DUP1 ISZERO PUSH2 0x4E5 JUMPI PUSH1 0x0 DUP1 REVERT JUMPDEST POP PUSH2 0x4EE PUSH2 0x1F48 JUMP JUMPDEST PUSH1 0x40 MLOAD PUSH2 0x4FB SWAP2 SWAP1 PUSH2 0x3510 JUMP JUMPDEST PUSH1 0x40 MLOAD DUP1 SWAP2 SUB SWAP1 RETURN JUMPDEST CALLVALUE DUP1 ISZERO PUSH2 0x510 JUMPI PUSH1 0x0 DUP1 REVERT JUMPDEST POP PUSH2 0x519 PUSH2 0x1F71 JUMP JUMPDEST PUSH1 0x40 MLOAD PUSH2 0x526 SWAP2 SWAP1 PUSH2 0x3600 JUMP JUMPDEST PUSH1 0x40 MLOAD DUP1 SWAP2 SUB SWAP1 RETURN JUMPDEST CALLVALUE DUP1 ISZERO PUSH2 0x53B JUMPI PUSH1 0x0 DUP1 REVERT JUMPDEST POP PUSH2 0x544 PUSH2 0x1FCF JUMP JUMPDEST PUSH1 0x40 MLOAD PUSH2 0x553 SWAP4 SWAP3 SWAP2 SWAP1 PUSH2 0x35B4 JUMP JUMPDEST PUSH1 0x40 MLOAD DUP1 SWAP2 SUB SWAP1 RETURN JUMPDEST CALLVALUE DUP1 ISZERO PUSH2 0x568 JUMPI PUSH1 0x0 DUP1 REVERT JUMPDEST POP PUSH2 0x583 PUSH1 0x4 DUP1 CALLDATASIZE SUB DUP2 ADD SWAP1 PUSH2 0x57E SWAP2 SWAP1 PUSH2 0x30D4 JUMP JUMPDEST PUSH2 0x23AE JUMP JUMPDEST STOP JUMPDEST CALLVALUE DUP1 ISZERO PUSH2 0x591 JUMPI PUSH1 0x0 DUP1 REVERT JUMPDEST POP PUSH2 0x59A PUSH2 0x2492 JUMP JUMPDEST PUSH1 0x40 MLOAD PUSH2 0x5A7 SWAP2 SWAP1 PUSH2 0x3510 JUMP JUMPDEST PUSH1 0x40 MLOAD DUP1 SWAP2 SUB SWAP1 RETURN JUMPDEST CALLVALUE DUP1 ISZERO PUSH2 0x5BC JUMPI PUSH1 0x0 DUP1 REVERT JUMPDEST POP PUSH2 0x5C5 PUSH2 0x24B8 JUMP JUMPDEST PUSH1 0x40 MLOAD PUSH2 0x5D2 SWAP2 SWAP1 PUSH2 0x3510 JUMP JUMPDEST PUSH1 0x40 MLOAD DUP1 SWAP2 SUB SWAP1 RETURN JUMPDEST CALLVALUE DUP1 ISZERO PUSH2 0x5E7 JUMPI PUSH1 0x0 DUP1 REVERT JUMPDEST POP PUSH2 0x5F0 PUSH2 0x24DE JUMP JUMPDEST PUSH1 0x40 MLOAD PUSH2 0x5FD SWAP2 SWAP1 PUSH2 0x379B JUMP JUMPDEST PUSH1 0x40 MLOAD DUP1 SWAP2 SUB SWAP1 RETURN JUMPDEST CALLVALUE DUP1 ISZERO PUSH2 0x612 JUMPI PUSH1 0x0 DUP1 REVERT JUMPDEST POP PUSH2 0x61B PUSH2 0x24E6 JUMP JUMPDEST PUSH1 0x40 MLOAD PUSH2 0x628 SWAP2 SWAP1 PUSH2 0x379B JUMP JUMPDEST PUSH1 0x40 MLOAD DUP1 SWAP2 SUB SWAP1 RETURN JUMPDEST CALLVALUE DUP1 ISZERO PUSH2 0x63D JUMPI PUSH1 0x0 DUP1 REVERT JUMPDEST POP PUSH2 0x658 PUSH1 0x4 DUP1 CALLDATASIZE SUB DUP2 ADD SWAP1 PUSH2 0x653 SWAP2 SWAP1 PUSH2 0x30D4 JUMP JUMPDEST PUSH2 0x24EC JUMP JUMPDEST STOP JUMPDEST CALLVALUE DUP1 ISZERO PUSH2 0x666 JUMPI PUSH1 0x0 DUP1 REVERT JUMPDEST POP PUSH2 0x681 PUSH1 0x4 DUP1 CALLDATASIZE SUB DUP2 ADD SWAP1 PUSH2 0x67C SWAP2 SWAP1 PUSH2 0x319B JUMP JUMPDEST PUSH2 0x2577 JUMP JUMPDEST STOP JUMPDEST CALLVALUE DUP1 ISZERO PUSH2 0x68F JUMPI PUSH1 0x0 DUP1 REVERT JUMPDEST POP PUSH2 0x6AA PUSH1 0x4 DUP1 CALLDATASIZE SUB DUP2 ADD SWAP1 PUSH2 0x6A5 SWAP2 SWAP1 PUSH2 0x319B JUMP JUMPDEST PUSH2 0x267F JUMP JUMPDEST STOP JUMPDEST CALLVALUE DUP1 ISZERO PUSH2 0x6B8 JUMPI PUSH1 0x0 DUP1 REVERT JUMPDEST POP PUSH2 0x6C1 PUSH2 0x2894 JUMP JUMPDEST PUSH1 0x40 MLOAD PUSH2 0x6CE SWAP2 SWAP1 PUSH2 0x3510 JUMP JUMPDEST PUSH1 0x40 MLOAD DUP1 SWAP2 SUB SWAP1 RETURN JUMPDEST CALLVALUE DUP1 ISZERO PUSH2 0x6E3 JUMPI PUSH1 0x0 DUP1 REVERT JUMPDEST POP PUSH2 0x6FE PUSH1 0x4 DUP1 CALLDATASIZE SUB DUP2 ADD SWAP1 PUSH2 0x6F9 SWAP2 SWAP1 PUSH2 0x319B JUMP JUMPDEST PUSH2 0x28BA JUMP JUMPDEST STOP JUMPDEST CALLVALUE DUP1 ISZERO PUSH2 0x70C JUMPI PUSH1 0x0 DUP1 REVERT JUMPDEST POP PUSH2 0x715 PUSH2 0x2944 JUMP JUMPDEST PUSH1 0x40 MLOAD PUSH2 0x722 SWAP2 SWAP1 PUSH2 0x379B JUMP JUMPDEST PUSH1 0x40 MLOAD DUP1 SWAP2 SUB SWAP1 RETURN JUMPDEST CALLVALUE DUP1 ISZERO PUSH2 0x737 JUMPI PUSH1 0x0 DUP1 REVERT JUMPDEST POP PUSH2 0x752 PUSH1 0x4 DUP1 CALLDATASIZE SUB DUP2 ADD SWAP1 PUSH2 0x74D SWAP2 SWAP1 PUSH2 0x30D4 JUMP JUMPDEST PUSH2 0x2B1F JUMP JUMPDEST STOP JUMPDEST CALLVALUE DUP1 ISZERO PUSH2 0x760 JUMPI PUSH1 0x0 DUP1 REVERT JUMPDEST POP PUSH2 0x77B PUSH1 0x4 DUP1 CALLDATASIZE SUB DUP2 ADD SWAP1 PUSH2 0x776 SWAP2 SWAP1 PUSH2 0x30D4 JUMP JUMPDEST PUSH2 0x2C03 JUMP JUMPDEST STOP JUMPDEST PUSH1 0x5 PUSH1 0x0 SWAP1 SLOAD SWAP1 PUSH2 0x100 EXP SWAP1 DIV PUSH20 0xFFFFFFFFFFFFFFFFFFFFFFFFFFFFFFFFFFFFFFFF AND DUP2 JUMP JUMPDEST PUSH2 0x7AB PUSH2 0x1F71 JUMP JUMPDEST PUSH2 0x7EA JUMPI PUSH1 0x40 MLOAD PUSH32 0x8C379A000000000000000000000000000000000000000000000000000000000 DUP2 MSTORE PUSH1 0x4 ADD PUSH2 0x7E1 SWAP1 PUSH2 0x373B JUMP JUMPDEST PUSH1 0x40 MLOAD DUP1 SWAP2 SUB SWAP1 REVERT JUMPDEST DUP1 PUSH1 0x4 PUSH1 0x0 PUSH2 0x100 EXP DUP2 SLOAD DUP2 PUSH20 0xFFFFFFFFFFFFFFFFFFFFFFFFFFFFFFFFFFFFFFFF MUL NOT AND SWAP1 DUP4 PUSH20 0xFFFFFFFFFFFFFFFFFFFFFFFFFFFFFFFFFFFFFFFF AND MUL OR SWAP1 SSTORE POP PUSH32 0x136742181FF5FC7D13F647A125112EC36500105A024CE2DBBB7F28FA375EEBFA PUSH1 0x4 PUSH1 0x0 SWAP1 SLOAD SWAP1 PUSH2 0x100 EXP SWAP1 DIV PUSH20 0xFFFFFFFFFFFFFFFFFFFFFFFFFFFFFFFFFFFFFFFF AND PUSH1 0x40 MLOAD PUSH2 0x87C SWAP2 SWAP1 PUSH2 0x3510 JUMP JUMPDEST PUSH1 0x40 MLOAD DUP1 SWAP2 SUB SWAP1 LOG1 POP JUMP JUMPDEST PUSH2 0x88F PUSH2 0x1F71 JUMP JUMPDEST PUSH2 0x8CE JUMPI PUSH1 0x40 MLOAD PUSH32 0x8C379A000000000000000000000000000000000000000000000000000000000 DUP2 MSTORE PUSH1 0x4 ADD PUSH2 0x8C5 SWAP1 PUSH2 0x373B JUMP JUMPDEST PUSH1 0x40 MLOAD DUP1 SWAP2 SUB SWAP1 REVERT JUMPDEST PUSH1 0x32 DUP2 LT PUSH2 0x8DB JUMPI PUSH1 0x0 DUP1 REVERT JUMPDEST DUP1 PUSH1 0x7 DUP2 SWAP1 SSTORE POP POP JUMP JUMPDEST PUSH1 0x2 PUSH1 0x0 SWAP1 SLOAD SWAP1 PUSH2 0x100 EXP SWAP1 DIV PUSH20 0xFFFFFFFFFFFFFFFFFFFFFFFFFFFFFFFFFFFFFFFF AND DUP2 JUMP JUMPDEST PUSH1 0x0 PUSH2 0x915 PUSH2 0x1F71 JUMP JUMPDEST PUSH2 0x954 JUMPI PUSH1 0x40 MLOAD PUSH32 0x8C379A000000000000000000000000000000000000000000000000000000000 DUP2 MSTORE PUSH1 0x4 ADD PUSH2 0x94B SWAP1 PUSH2 0x373B JUMP JUMPDEST PUSH1 0x40 MLOAD DUP1 SWAP2 SUB SWAP1 REVERT JUMPDEST PUSH1 0x0 PUSH1 0x14 SWAP1 SLOAD SWAP1 PUSH2 0x100 EXP SWAP1 DIV PUSH1 0xFF AND PUSH2 0x96D JUMPI PUSH1 0x0 DUP1 REVERT JUMPDEST PUSH1 0x0 DUP1 PUSH1 0x14 PUSH2 0x100 EXP DUP2 SLOAD DUP2 PUSH1 0xFF MUL NOT AND SWAP1 DUP4 ISZERO ISZERO MUL OR SWAP1 SSTORE POP PUSH32 0x7805862F689E2F13DF9F062FF482AD3AD112ACA9E0847911ED832E158C525B33 PUSH1 0x40 MLOAD PUSH1 0x40 MLOAD DUP1 SWAP2 SUB SWAP1 LOG1 PUSH1 0x1 SWAP1 POP SWAP1 JUMP JUMPDEST PUSH2 0x9C2 PUSH2 0x1F71 JUMP JUMPDEST PUSH2 0xA01 JUMPI PUSH1 0x40 MLOAD PUSH32 0x8C379A000000000000000000000000000000000000000000000000000000000 DUP2 MSTORE PUSH1 0x4 ADD PUSH2 0x9F8 SWAP1 PUSH2 0x373B JUMP JUMPDEST PUSH1 0x40 MLOAD DUP1 SWAP2 SUB SWAP1 REVERT JUMPDEST DUP1 PUSH1 0x3 PUSH1 0x0 PUSH2 0x100 EXP DUP2 SLOAD DUP2 PUSH20 0xFFFFFFFFFFFFFFFFFFFFFFFFFFFFFFFFFFFFFFFF MUL NOT AND SWAP1 DUP4 PUSH20 0xFFFFFFFFFFFFFFFFFFFFFFFFFFFFFFFFFFFFFFFF AND MUL OR SWAP1 SSTORE POP PUSH32 0xB01E01D90E1DA4079495DB07C84276EF34A0EA39CD9BE9C3844874EB35616E44 PUSH1 0x3 PUSH1 0x0 SWAP1 SLOAD SWAP1 PUSH2 0x100 EXP SWAP1 DIV PUSH20 0xFFFFFFFFFFFFFFFFFFFFFFFFFFFFFFFFFFFFFFFF AND PUSH1 0x40 MLOAD PUSH2 0xA93 SWAP2 SWAP1 PUSH2 0x3510 JUMP JUMPDEST PUSH1 0x40 MLOAD DUP1 SWAP2 SUB SWAP1 LOG1 POP JUMP JUMPDEST PUSH1 0x0 DUP2 PUSH20 0xFFFFFFFFFFFFFFFFFFFFFFFFFFFFFFFFFFFFFFFF AND PUSH4 0x70A08231 ADDRESS PUSH1 0x40 MLOAD DUP3 PUSH4 0xFFFFFFFF AND PUSH1 0xE0 SHL DUP2 MSTORE PUSH1 0x4 ADD PUSH2 0xAD9 SWAP2 SWAP1 PUSH2 0x3510 JUMP JUMPDEST PUSH1 0x20 PUSH1 0x40 MLOAD DUP1 DUP4 SUB DUP2 DUP7 DUP1 EXTCODESIZE ISZERO DUP1 ISZERO PUSH2 0xAF1 JUMPI PUSH1 0x0 DUP1 REVERT JUMPDEST POP GAS STATICCALL ISZERO DUP1 ISZERO PUSH2 0xB05 JUMPI RETURNDATASIZE PUSH1 0x0 DUP1 RETURNDATACOPY RETURNDATASIZE PUSH1 0x0 REVERT JUMPDEST POP POP POP POP PUSH1 0x40 MLOAD RETURNDATASIZE PUSH1 0x1F NOT PUSH1 0x1F DUP3 ADD AND DUP3 ADD DUP1 PUSH1 0x40 MSTORE POP DUP2 ADD SWAP1 PUSH2 0xB29 SWAP2 SWAP1 PUSH2 0x31C8 JUMP JUMPDEST SWAP1 POP SWAP2 SWAP1 POP JUMP JUMPDEST PUSH1 0x0 PUSH1 0x14 SWAP1 SLOAD SWAP1 PUSH2 0x100 EXP SWAP1 DIV PUSH1 0xFF AND ISZERO PUSH2 0xB4A JUMPI PUSH1 0x0 DUP1 REVERT JUMPDEST PUSH1 0x0 PUSH1 0xA PUSH1 0x0 DUP4 DUP2 MSTORE PUSH1 0x20 ADD SWAP1 DUP2 MSTORE PUSH1 0x20 ADD PUSH1 0x0 KECCAK256 SLOAD GT PUSH2 0xBA0 JUMPI PUSH1 0x40 MLOAD PUSH32 0x8C379A000000000000000000000000000000000000000000000000000000000 DUP2 MSTORE PUSH1 0x4 ADD PUSH2 0xB97 SWAP1 PUSH2 0x375B JUMP JUMPDEST PUSH1 0x40 MLOAD DUP1 SWAP2 SUB SWAP1 REVERT JUMPDEST PUSH1 0x0 CALLER SWAP1 POP DUP1 PUSH20 0xFFFFFFFFFFFFFFFFFFFFFFFFFFFFFFFFFFFFFFFF AND PUSH1 0x3 PUSH1 0x0 SWAP1 SLOAD SWAP1 PUSH2 0x100 EXP SWAP1 DIV PUSH20 0xFFFFFFFFFFFFFFFFFFFFFFFFFFFFFFFFFFFFFFFF AND PUSH20 0xFFFFFFFFFFFFFFFFFFFFFFFFFFFFFFFFFFFFFFFF AND PUSH4 0x6352211E DUP5 PUSH1 0x40 MLOAD DUP3 PUSH4 0xFFFFFFFF AND PUSH1 0xE0 SHL DUP2 MSTORE PUSH1 0x4 ADD PUSH2 0xC17 SWAP2 SWAP1 PUSH2 0x379B JUMP JUMPDEST PUSH1 0x20 PUSH1 0x40 MLOAD DUP1 DUP4 SUB DUP2 DUP7 DUP1 EXTCODESIZE ISZERO DUP1 ISZERO PUSH2 0xC2F JUMPI PUSH1 0x0 DUP1 REVERT JUMPDEST POP GAS STATICCALL ISZERO DUP1 ISZERO PUSH2 0xC43 JUMPI RETURNDATASIZE PUSH1 0x0 DUP1 RETURNDATACOPY RETURNDATASIZE PUSH1 0x0 REVERT JUMPDEST POP POP POP POP PUSH1 0x40 MLOAD RETURNDATASIZE PUSH1 0x1F NOT PUSH1 0x1F DUP3 ADD AND DUP3 ADD DUP1 PUSH1 0x40 MSTORE POP DUP2 ADD SWAP1 PUSH2 0xC67 SWAP2 SWAP1 PUSH2 0x3101 JUMP JUMPDEST PUSH20 0xFFFFFFFFFFFFFFFFFFFFFFFFFFFFFFFFFFFFFFFF AND EQ PUSH2 0xCBD JUMPI PUSH1 0x40 MLOAD PUSH32 0x8C379A000000000000000000000000000000000000000000000000000000000 DUP2 MSTORE PUSH1 0x4 ADD PUSH2 0xCB4 SWAP1 PUSH2 0x361B JUMP JUMPDEST PUSH1 0x40 MLOAD DUP1 SWAP2 SUB SWAP1 REVERT JUMPDEST PUSH2 0xCC6 DUP3 PUSH2 0x2C56 JUMP JUMPDEST PUSH32 0xD4CEEA0833AC36CC33C805E4F164DEDB6D75E092A34E14083BBB87976BEFDECF DUP3 PUSH1 0x40 MLOAD PUSH2 0xCF5 SWAP2 SWAP1 PUSH2 0x379B JUMP JUMPDEST PUSH1 0x40 MLOAD DUP1 SWAP2 SUB SWAP1 LOG1 POP POP JUMP JUMPDEST PUSH1 0x1 PUSH1 0x0 SWAP1 SLOAD SWAP1 PUSH2 0x100 EXP SWAP1 DIV PUSH20 0xFFFFFFFFFFFFFFFFFFFFFFFFFFFFFFFFFFFFFFFF AND DUP2 JUMP JUMPDEST PUSH1 0x0 PUSH1 0x9 PUSH1 0x0 DUP4 DUP2 MSTORE PUSH1 0x20 ADD SWAP1 DUP2 MSTORE PUSH1 0x20 ADD PUSH1 0x0 KECCAK256 PUSH1 0x0 SWAP1 SLOAD SWAP1 PUSH2 0x100 EXP SWAP1 DIV PUSH20 0xFFFFFFFFFFFFFFFFFFFFFFFFFFFFFFFFFFFFFFFF AND SWAP1 POP SWAP2 SWAP1 POP JUMP JUMPDEST PUSH1 0x0 PUSH1 0x14 SWAP1 SLOAD SWAP1 PUSH2 0x100 EXP SWAP1 DIV PUSH1 0xFF AND DUP2 JUMP JUMPDEST PUSH1 0x0 PUSH1 0x14 SWAP1 SLOAD SWAP1 PUSH2 0x100 EXP SWAP1 DIV PUSH1 0xFF AND ISZERO PUSH2 0xD91 JUMPI PUSH1 0x0 DUP1 REVERT JUMPDEST PUSH1 0x0 CALLER SWAP1 POP PUSH1 0x3 PUSH1 0x0 SWAP1 SLOAD SWAP1 PUSH2 0x100 EXP SWAP1 DIV PUSH20 0xFFFFFFFFFFFFFFFFFFFFFFFFFFFFFFFFFFFFFFFF AND PUSH20 0xFFFFFFFFFFFFFFFFFFFFFFFFFFFFFFFFFFFFFFFF AND PUSH4 0xE985E9C5 DUP3 ADDRESS PUSH1 0x40 MLOAD DUP4 PUSH4 0xFFFFFFFF AND PUSH1 0xE0 SHL DUP2 MSTORE PUSH1 0x4 ADD PUSH2 0xDF3 SWAP3 SWAP2 SWAP1 PUSH2 0x352B JUMP JUMPDEST PUSH1 0x20 PUSH1 0x40 MLOAD DUP1 DUP4 SUB DUP2 DUP7 DUP1 EXTCODESIZE ISZERO DUP1 ISZERO PUSH2 0xE0B JUMPI PUSH1 0x0 DUP1 REVERT JUMPDEST POP GAS STATICCALL ISZERO DUP1 ISZERO PUSH2 0xE1F JUMPI RETURNDATASIZE PUSH1 0x0 DUP1 RETURNDATACOPY RETURNDATASIZE PUSH1 0x0 REVERT JUMPDEST POP POP POP POP PUSH1 0x40 MLOAD RETURNDATASIZE PUSH1 0x1F NOT PUSH1 0x1F DUP3 ADD AND DUP3 ADD DUP1 PUSH1 0x40 MSTORE POP DUP2 ADD SWAP1 PUSH2 0xE43 SWAP2 SWAP1 PUSH2 0x316E JUMP JUMPDEST PUSH2 0xE82 JUMPI PUSH1 0x40 MLOAD PUSH32 0x8C379A000000000000000000000000000000000000000000000000000000000 DUP2 MSTORE PUSH1 0x4 ADD PUSH2 0xE79 SWAP1 PUSH2 0x36FB JUMP JUMPDEST PUSH1 0x40 MLOAD DUP1 SWAP2 SUB SWAP1 REVERT JUMPDEST PUSH1 0x0 PUSH20 0xFFFFFFFFFFFFFFFFFFFFFFFFFFFFFFFFFFFFFFFF AND DUP4 PUSH20 0xFFFFFFFFFFFFFFFFFFFFFFFFFFFFFFFFFFFFFFFF AND EQ ISZERO PUSH2 0xEF2 JUMPI PUSH1 0x40 MLOAD PUSH32 0x8C379A000000000000000000000000000000000000000000000000000000000 DUP2 MSTORE PUSH1 0x4 ADD PUSH2 0xEE9 SWAP1 PUSH2 0x371B JUMP JUMPDEST PUSH1 0x40 MLOAD DUP1 SWAP2 SUB SWAP1 REVERT JUMPDEST DUP1 PUSH20 0xFFFFFFFFFFFFFFFFFFFFFFFFFFFFFFFFFFFFFFFF AND DUP4 PUSH20 0xFFFFFFFFFFFFFFFFFFFFFFFFFFFFFFFFFFFFFFFF AND EQ ISZERO PUSH2 0xF61 JUMPI PUSH1 0x40 MLOAD PUSH32 0x8C379A000000000000000000000000000000000000000000000000000000000 DUP2 MSTORE PUSH1 0x4 ADD PUSH2 0xF58 SWAP1 PUSH2 0x369B JUMP JUMPDEST PUSH1 0x40 MLOAD DUP1 SWAP2 SUB SWAP1 REVERT JUMPDEST PUSH1 0x3 PUSH1 0x0 SWAP1 SLOAD SWAP1 PUSH2 0x100 EXP SWAP1 DIV PUSH20 0xFFFFFFFFFFFFFFFFFFFFFFFFFFFFFFFFFFFFFFFF AND PUSH20 0xFFFFFFFFFFFFFFFFFFFFFFFFFFFFFFFFFFFFFFFF AND PUSH4 0x42842E0E DUP3 DUP6 DUP6 PUSH1 0x40 MLOAD DUP5 PUSH4 0xFFFFFFFF AND PUSH1 0xE0 SHL DUP2 MSTORE PUSH1 0x4 ADD PUSH2 0xFC0 SWAP4 SWAP3 SWAP2 SWAP1 PUSH2 0x3554 JUMP JUMPDEST PUSH1 0x0 PUSH1 0x40 MLOAD DUP1 DUP4 SUB DUP2 PUSH1 0x0 DUP8 DUP1 EXTCODESIZE ISZERO DUP1 ISZERO PUSH2 0xFDA JUMPI PUSH1 0x0 DUP1 REVERT JUMPDEST POP GAS CALL ISZERO DUP1 ISZERO PUSH2 0xFEE JUMPI RETURNDATASIZE PUSH1 0x0 DUP1 RETURNDATACOPY RETURNDATASIZE PUSH1 0x0 REVERT JUMPDEST POP POP POP POP DUP3 PUSH1 0x9 PUSH1 0x0 DUP5 DUP2 MSTORE PUSH1 0x20 ADD SWAP1 DUP2 MSTORE PUSH1 0x20 ADD PUSH1 0x0 KECCAK256 PUSH1 0x0 PUSH2 0x100 EXP DUP2 SLOAD DUP2 PUSH20 0xFFFFFFFFFFFFFFFFFFFFFFFFFFFFFFFFFFFFFFFF MUL NOT AND SWAP1 DUP4 PUSH20 0xFFFFFFFFFFFFFFFFFFFFFFFFFFFFFFFFFFFFFFFF AND MUL OR SWAP1 SSTORE POP PUSH32 0x2A422DA7E70B3CA41064BE14C50B74A43CBBEF24634FA3B7E90D120B8ECC08B3 DUP4 DUP4 PUSH1 0x40 MLOAD PUSH2 0x1075 SWAP3 SWAP2 SWAP1 PUSH2 0x358B JUMP JUMPDEST PUSH1 0x40 MLOAD DUP1 SWAP2 SUB SWAP1 LOG1 POP POP POP JUMP JUMPDEST PUSH2 0x108A PUSH2 0x1F71 JUMP JUMPDEST PUSH2 0x10C9 JUMPI PUSH1 0x40 MLOAD PUSH32 0x8C379A000000000000000000000000000000000000000000000000000000000 DUP2 MSTORE PUSH1 0x4 ADD PUSH2 0x10C0 SWAP1 PUSH2 0x373B JUMP JUMPDEST PUSH1 0x40 MLOAD DUP1 SWAP2 SUB SWAP1 REVERT JUMPDEST PUSH1 0x0 PUSH20 0xFFFFFFFFFFFFFFFFFFFFFFFFFFFFFFFFFFFFFFFF AND PUSH1 0x0 DUP1 SLOAD SWAP1 PUSH2 0x100 EXP SWAP1 DIV PUSH20 0xFFFFFFFFFFFFFFFFFFFFFFFFFFFFFFFFFFFFFFFF AND PUSH20 0xFFFFFFFFFFFFFFFFFFFFFFFFFFFFFFFFFFFFFFFF AND PUSH32 0x8BE0079C531659141344CD1FD0A4F28419497F9722A3DAAFE3B4186F6B6457E0 PUSH1 0x40 MLOAD PUSH1 0x40 MLOAD DUP1 SWAP2 SUB SWAP1 LOG3 PUSH1 0x0 DUP1 PUSH1 0x0 PUSH2 0x100 EXP DUP2 SLOAD DUP2 PUSH20 0xFFFFFFFFFFFFFFFFFFFFFFFFFFFFFFFFFFFFFFFF MUL NOT AND SWAP1 DUP4 PUSH20 0xFFFFFFFFFFFFFFFFFFFFFFFFFFFFFFFFFFFFFFFF AND MUL OR SWAP1 SSTORE POP JUMP JUMPDEST PUSH1 0x0 PUSH1 0x14 SWAP1 SLOAD SWAP1 PUSH2 0x100 EXP SWAP1 DIV PUSH1 0xFF AND ISZERO PUSH2 0x11A1 JUMPI PUSH1 0x0 DUP1 REVERT JUMPDEST PUSH1 0x0 PUSH1 0xB PUSH1 0x0 DUP4 DUP2 MSTORE PUSH1 0x20 ADD SWAP1 DUP2 MSTORE PUSH1 0x20 ADD PUSH1 0x0 KECCAK256 PUSH1 0x0 SWAP1 SLOAD SWAP1 PUSH2 0x100 EXP SWAP1 DIV PUSH20 0xFFFFFFFFFFFFFFFFFFFFFFFFFFFFFFFFFFFFFFFF AND SWAP1 POP PUSH1 0x0 PUSH1 0xA PUSH1 0x0 DUP5 DUP2 MSTORE PUSH1 0x20 ADD SWAP1 DUP2 MSTORE PUSH1 0x20 ADD PUSH1 0x0 KECCAK256 SLOAD GT PUSH2 0x122F JUMPI PUSH1 0x40 MLOAD PUSH32 0x8C379A000000000000000000000000000000000000000000000000000000000 DUP2 MSTORE PUSH1 0x4 ADD PUSH2 0x1226 SWAP1 PUSH2 0x375B JUMP JUMPDEST PUSH1 0x40 MLOAD DUP1 SWAP2 SUB SWAP1 REVERT JUMPDEST DUP1 PUSH20 0xFFFFFFFFFFFFFFFFFFFFFFFFFFFFFFFFFFFFFFFF AND PUSH1 0x3 PUSH1 0x0 SWAP1 SLOAD SWAP1 PUSH2 0x100 EXP SWAP1 DIV PUSH20 0xFFFFFFFFFFFFFFFFFFFFFFFFFFFFFFFFFFFFFFFF AND PUSH20 0xFFFFFFFFFFFFFFFFFFFFFFFFFFFFFFFFFFFFFFFF AND PUSH4 0x6352211E DUP5 PUSH1 0x40 MLOAD DUP3 PUSH4 0xFFFFFFFF AND PUSH1 0xE0 SHL DUP2 MSTORE PUSH1 0x4 ADD PUSH2 0x12A1 SWAP2 SWAP1 PUSH2 0x379B JUMP JUMPDEST PUSH1 0x20 PUSH1 0x40 MLOAD DUP1 DUP4 SUB DUP2 DUP7 DUP1 EXTCODESIZE ISZERO DUP1 ISZERO PUSH2 0x12B9 JUMPI PUSH1 0x0 DUP1 REVERT JUMPDEST POP GAS STATICCALL ISZERO DUP1 ISZERO PUSH2 0x12CD JUMPI RETURNDATASIZE PUSH1 0x0 DUP1 RETURNDATACOPY RETURNDATASIZE PUSH1 0x0 REVERT JUMPDEST POP POP POP POP PUSH1 0x40 MLOAD RETURNDATASIZE PUSH1 0x1F NOT PUSH1 0x1F DUP3 ADD AND DUP3 ADD DUP1 PUSH1 0x40 MSTORE POP DUP2 ADD SWAP1 PUSH2 0x12F1 SWAP2 SWAP1 PUSH2 0x3101 JUMP JUMPDEST PUSH20 0xFFFFFFFFFFFFFFFFFFFFFFFFFFFFFFFFFFFFFFFF AND EQ PUSH2 0x1347 JUMPI PUSH1 0x40 MLOAD PUSH32 0x8C379A000000000000000000000000000000000000000000000000000000000 DUP2 MSTORE PUSH1 0x4 ADD PUSH2 0x133E SWAP1 PUSH2 0x361B JUMP JUMPDEST PUSH1 0x40 MLOAD DUP1 SWAP2 SUB SWAP1 REVERT JUMPDEST PUSH1 0x3 PUSH1 0x0 SWAP1 SLOAD SWAP1 PUSH2 0x100 EXP SWAP1 DIV PUSH20 0xFFFFFFFFFFFFFFFFFFFFFFFFFFFFFFFFFFFFFFFF AND PUSH20 0xFFFFFFFFFFFFFFFFFFFFFFFFFFFFFFFFFFFFFFFF AND PUSH4 0xE985E9C5 DUP3 ADDRESS PUSH1 0x40 MLOAD DUP4 PUSH4 0xFFFFFFFF AND PUSH1 0xE0 SHL DUP2 MSTORE PUSH1 0x4 ADD PUSH2 0x13A4 SWAP3 SWAP2 SWAP1 PUSH2 0x352B JUMP JUMPDEST PUSH1 0x20 PUSH1 0x40 MLOAD DUP1 DUP4 SUB DUP2 DUP7 DUP1 EXTCODESIZE ISZERO DUP1 ISZERO PUSH2 0x13BC JUMPI PUSH1 0x0 DUP1 REVERT JUMPDEST POP GAS STATICCALL ISZERO DUP1 ISZERO PUSH2 0x13D0 JUMPI RETURNDATASIZE PUSH1 0x0 DUP1 RETURNDATACOPY RETURNDATASIZE PUSH1 0x0 REVERT JUMPDEST POP POP POP POP PUSH1 0x40 MLOAD RETURNDATASIZE PUSH1 0x1F NOT PUSH1 0x1F DUP3 ADD AND DUP3 ADD DUP1 PUSH1 0x40 MSTORE POP DUP2 ADD SWAP1 PUSH2 0x13F4 SWAP2 SWAP1 PUSH2 0x316E JUMP JUMPDEST PUSH2 0x1433 JUMPI PUSH1 0x40 MLOAD PUSH32 0x8C379A000000000000000000000000000000000000000000000000000000000 DUP2 MSTORE PUSH1 0x4 ADD PUSH2 0x142A SWAP1 PUSH2 0x36FB JUMP JUMPDEST PUSH1 0x40 MLOAD DUP1 SWAP2 SUB SWAP1 REVERT JUMPDEST PUSH1 0x0 CALLER SWAP1 POP PUSH1 0x0 PUSH2 0x1442 PUSH2 0x2944 JUMP JUMPDEST SWAP1 POP PUSH1 0x0 DUP2 SWAP1 POP PUSH1 0x0 PUSH1 0xA PUSH1 0x0 DUP8 DUP2 MSTORE PUSH1 0x20 ADD SWAP1 DUP2 MSTORE PUSH1 0x20 ADD PUSH1 0x0 KECCAK256 SLOAD SWAP1 POP DUP3 DUP2 GT ISZERO PUSH2 0x146D JUMPI DUP1 SWAP2 POP JUMPDEST DUP2 PUSH1 0x4 PUSH1 0x0 SWAP1 SLOAD SWAP1 PUSH2 0x100 EXP SWAP1 DIV PUSH20 0xFFFFFFFFFFFFFFFFFFFFFFFFFFFFFFFFFFFFFFFF AND PUSH20 0xFFFFFFFFFFFFFFFFFFFFFFFFFFFFFFFFFFFFFFFF AND PUSH4 0xDD62ED3E DUP7 ADDRESS PUSH1 0x40 MLOAD DUP4 PUSH4 0xFFFFFFFF AND PUSH1 0xE0 SHL DUP2 MSTORE PUSH1 0x4 ADD PUSH2 0x14CB SWAP3 SWAP2 SWAP1 PUSH2 0x352B JUMP JUMPDEST PUSH1 0x20 PUSH1 0x40 MLOAD DUP1 DUP4 SUB DUP2 DUP7 DUP1 EXTCODESIZE ISZERO DUP1 ISZERO PUSH2 0x14E3 JUMPI PUSH1 0x0 DUP1 REVERT JUMPDEST POP GAS STATICCALL ISZERO DUP1 ISZERO PUSH2 0x14F7 JUMPI RETURNDATASIZE PUSH1 0x0 DUP1 RETURNDATACOPY RETURNDATASIZE PUSH1 0x0 REVERT JUMPDEST POP POP POP POP PUSH1 0x40 MLOAD RETURNDATASIZE PUSH1 0x1F NOT PUSH1 0x1F DUP3 ADD AND DUP3 ADD DUP1 PUSH1 0x40 MSTORE POP DUP2 ADD SWAP1 PUSH2 0x151B SWAP2 SWAP1 PUSH2 0x31C8 JUMP JUMPDEST LT ISZERO PUSH2 0x155C JUMPI PUSH1 0x40 MLOAD PUSH32 0x8C379A000000000000000000000000000000000000000000000000000000000 DUP2 MSTORE PUSH1 0x4 ADD PUSH2 0x1553 SWAP1 PUSH2 0x377B JUMP JUMPDEST PUSH1 0x40 MLOAD DUP1 SWAP2 SUB SWAP1 REVERT JUMPDEST PUSH1 0x3 PUSH1 0x0 SWAP1 SLOAD SWAP1 PUSH2 0x100 EXP SWAP1 DIV PUSH20 0xFFFFFFFFFFFFFFFFFFFFFFFFFFFFFFFFFFFFFFFF AND PUSH20 0xFFFFFFFFFFFFFFFFFFFFFFFFFFFFFFFFFFFFFFFF AND PUSH4 0x42842E0E DUP7 ADDRESS DUP10 PUSH1 0x40 MLOAD DUP5 PUSH4 0xFFFFFFFF AND PUSH1 0xE0 SHL DUP2 MSTORE PUSH1 0x4 ADD PUSH2 0x15BB SWAP4 SWAP3 SWAP2 SWAP1 PUSH2 0x3554 JUMP JUMPDEST PUSH1 0x0 PUSH1 0x40 MLOAD DUP1 DUP4 SUB DUP2 PUSH1 0x0 DUP8 DUP1 EXTCODESIZE ISZERO DUP1 ISZERO PUSH2 0x15D5 JUMPI PUSH1 0x0 DUP1 REVERT JUMPDEST POP GAS CALL ISZERO DUP1 ISZERO PUSH2 0x15E9 JUMPI RETURNDATASIZE PUSH1 0x0 DUP1 RETURNDATACOPY RETURNDATASIZE PUSH1 0x0 REVERT JUMPDEST POP POP POP POP PUSH1 0x4 PUSH1 0x0 SWAP1 SLOAD SWAP1 PUSH2 0x100 EXP SWAP1 DIV PUSH20 0xFFFFFFFFFFFFFFFFFFFFFFFFFFFFFFFFFFFFFFFF AND PUSH20 0xFFFFFFFFFFFFFFFFFFFFFFFFFFFFFFFFFFFFFFFF AND PUSH4 0x23B872DD DUP6 ADDRESS DUP6 PUSH1 0x40 MLOAD DUP5 PUSH4 0xFFFFFFFF AND PUSH1 0xE0 SHL DUP2 MSTORE PUSH1 0x4 ADD PUSH2 0x164C SWAP4 SWAP3 SWAP2 SWAP1 PUSH2 0x3554 JUMP JUMPDEST PUSH1 0x20 PUSH1 0x40 MLOAD DUP1 DUP4 SUB DUP2 PUSH1 0x0 DUP8 DUP1 EXTCODESIZE ISZERO DUP1 ISZERO PUSH2 0x1666 JUMPI PUSH1 0x0 DUP1 REVERT JUMPDEST POP GAS CALL ISZERO DUP1 ISZERO PUSH2 0x167A JUMPI RETURNDATASIZE PUSH1 0x0 DUP1 RETURNDATACOPY RETURNDATASIZE PUSH1 0x0 REVERT JUMPDEST POP POP POP POP PUSH1 0x40 MLOAD RETURNDATASIZE PUSH1 0x1F NOT PUSH1 0x1F DUP3 ADD AND DUP3 ADD DUP1 PUSH1 0x40 MSTORE POP DUP2 ADD SWAP1 PUSH2 0x169E SWAP2 SWAP1 PUSH2 0x316E JUMP JUMPDEST POP PUSH1 0x3 PUSH1 0x0 SWAP1 SLOAD SWAP1 PUSH2 0x100 EXP SWAP1 DIV PUSH20 0xFFFFFFFFFFFFFFFFFFFFFFFFFFFFFFFFFFFFFFFF AND PUSH20 0xFFFFFFFFFFFFFFFFFFFFFFFFFFFFFFFFFFFFFFFF AND PUSH4 0x42842E0E ADDRESS DUP7 DUP10 PUSH1 0x40 MLOAD DUP5 PUSH4 0xFFFFFFFF AND PUSH1 0xE0 SHL DUP2 MSTORE PUSH1 0x4 ADD PUSH2 0x16FE SWAP4 SWAP3 SWAP2 SWAP1 PUSH2 0x3554 JUMP JUMPDEST PUSH1 0x0 PUSH1 0x40 MLOAD DUP1 DUP4 SUB DUP2 PUSH1 0x0 DUP8 DUP1 EXTCODESIZE ISZERO DUP1 ISZERO PUSH2 0x1718 JUMPI PUSH1 0x0 DUP1 REVERT JUMPDEST POP GAS CALL ISZERO DUP1 ISZERO PUSH2 0x172C JUMPI RETURNDATASIZE PUSH1 0x0 DUP1 RETURNDATACOPY RETURNDATASIZE PUSH1 0x0 REVERT JUMPDEST POP POP POP POP PUSH1 0x0 PUSH1 0x64 PUSH1 0x7 SLOAD PUSH1 0x64 PUSH2 0x1743 SWAP2 SWAP1 PUSH2 0x3943 JUMP JUMPDEST DUP6 PUSH2 0x174E SWAP2 SWAP1 PUSH2 0x38E9 JUMP JUMPDEST PUSH2 0x1758 SWAP2 SWAP1 PUSH2 0x38B8 JUMP JUMPDEST DUP3 LT PUSH2 0x177F JUMPI PUSH1 0x64 PUSH1 0x7 SLOAD DUP5 PUSH2 0x176E SWAP2 SWAP1 PUSH2 0x38E9 JUMP JUMPDEST PUSH2 0x1778 SWAP2 SWAP1 PUSH2 0x38B8 JUMP JUMPDEST SWAP1 POP PUSH2 0x178E JUMP JUMPDEST DUP2 DUP5 PUSH2 0x178B SWAP2 SWAP1 PUSH2 0x3943 JUMP JUMPDEST SWAP1 POP JUMPDEST PUSH1 0x4 PUSH1 0x0 SWAP1 SLOAD SWAP1 PUSH2 0x100 EXP SWAP1 DIV PUSH20 0xFFFFFFFFFFFFFFFFFFFFFFFFFFFFFFFFFFFFFFFF AND PUSH20 0xFFFFFFFFFFFFFFFFFFFFFFFFFFFFFFFFFFFFFFFF AND PUSH4 0x23B872DD ADDRESS DUP9 DUP5 DUP8 PUSH2 0x17DA SWAP2 SWAP1 PUSH2 0x3943 JUMP JUMPDEST PUSH1 0x40 MLOAD DUP5 PUSH4 0xFFFFFFFF AND PUSH1 0xE0 SHL DUP2 MSTORE PUSH1 0x4 ADD PUSH2 0x17F8 SWAP4 SWAP3 SWAP2 SWAP1 PUSH2 0x3554 JUMP JUMPDEST PUSH1 0x20 PUSH1 0x40 MLOAD DUP1 DUP4 SUB DUP2 PUSH1 0x0 DUP8 DUP1 EXTCODESIZE ISZERO DUP1 ISZERO PUSH2 0x1812 JUMPI PUSH1 0x0 DUP1 REVERT JUMPDEST POP GAS CALL ISZERO DUP1 ISZERO PUSH2 0x1826 JUMPI RETURNDATASIZE PUSH1 0x0 DUP1 RETURNDATACOPY RETURNDATASIZE PUSH1 0x0 REVERT JUMPDEST POP POP POP POP PUSH1 0x40 MLOAD RETURNDATASIZE PUSH1 0x1F NOT PUSH1 0x1F DUP3 ADD AND DUP3 ADD DUP1 PUSH1 0x40 MSTORE POP DUP2 ADD SWAP1 PUSH2 0x184A SWAP2 SWAP1 PUSH2 0x316E JUMP JUMPDEST POP PUSH1 0x4 PUSH1 0x0 SWAP1 SLOAD SWAP1 PUSH2 0x100 EXP SWAP1 DIV PUSH20 0xFFFFFFFFFFFFFFFFFFFFFFFFFFFFFFFFFFFFFFFF AND PUSH20 0xFFFFFFFFFFFFFFFFFFFFFFFFFFFFFFFFFFFFFFFF AND PUSH4 0x23B872DD ADDRESS PUSH1 0x1 PUSH1 0x0 SWAP1 SLOAD SWAP1 PUSH2 0x100 EXP SWAP1 DIV PUSH20 0xFFFFFFFFFFFFFFFFFFFFFFFFFFFFFFFFFFFFFFFF AND DUP5 PUSH1 0x40 MLOAD DUP5 PUSH4 0xFFFFFFFF AND PUSH1 0xE0 SHL DUP2 MSTORE PUSH1 0x4 ADD PUSH2 0x18CC SWAP4 SWAP3 SWAP2 SWAP1 PUSH2 0x3554 JUMP JUMPDEST PUSH1 0x20 PUSH1 0x40 MLOAD DUP1 DUP4 SUB DUP2 PUSH1 0x0 DUP8 DUP1 EXTCODESIZE ISZERO DUP1 ISZERO PUSH2 0x18E6 JUMPI PUSH1 0x0 DUP1 REVERT JUMPDEST POP GAS CALL ISZERO DUP1 ISZERO PUSH2 0x18FA JUMPI RETURNDATASIZE PUSH1 0x0 DUP1 RETURNDATACOPY RETURNDATASIZE PUSH1 0x0 REVERT JUMPDEST POP POP POP POP PUSH1 0x40 MLOAD RETURNDATASIZE PUSH1 0x1F NOT PUSH1 0x1F DUP3 ADD AND DUP3 ADD DUP1 PUSH1 0x40 MSTORE POP DUP2 ADD SWAP1 PUSH2 0x191E SWAP2 SWAP1 PUSH2 0x316E JUMP JUMPDEST POP DUP5 PUSH1 0x9 PUSH1 0x0 DUP10 DUP2 MSTORE PUSH1 0x20 ADD SWAP1 DUP2 MSTORE PUSH1 0x20 ADD PUSH1 0x0 KECCAK256 PUSH1 0x0 PUSH2 0x100 EXP DUP2 SLOAD DUP2 PUSH20 0xFFFFFFFFFFFFFFFFFFFFFFFFFFFFFFFFFFFFFFFF MUL NOT AND SWAP1 DUP4 PUSH20 0xFFFFFFFFFFFFFFFFFFFFFFFFFFFFFFFFFFFFFFFF AND MUL OR SWAP1 SSTORE POP PUSH2 0x197A DUP8 PUSH2 0x2C56 JUMP JUMPDEST PUSH32 0x2B66287559B2A137EA3E7A6AB376630EF6165451C4D691BD218B503AA276F89D DUP8 PUSH1 0x40 MLOAD PUSH2 0x19A9 SWAP2 SWAP1 PUSH2 0x379B JUMP JUMPDEST PUSH1 0x40 MLOAD DUP1 SWAP2 SUB SWAP1 LOG1 POP POP POP POP POP POP POP JUMP JUMPDEST PUSH1 0x0 PUSH1 0x14 SWAP1 SLOAD SWAP1 PUSH2 0x100 EXP SWAP1 DIV PUSH1 0xFF AND ISZERO PUSH2 0x19D4 JUMPI PUSH1 0x0 DUP1 REVERT JUMPDEST PUSH1 0x0 PUSH1 0xA PUSH1 0x0 DUP5 DUP2 MSTORE PUSH1 0x20 ADD SWAP1 DUP2 MSTORE PUSH1 0x20 ADD PUSH1 0x0 KECCAK256 SLOAD EQ PUSH2 0x1A2A JUMPI PUSH1 0x40 MLOAD PUSH32 0x8C379A000000000000000000000000000000000000000000000000000000000 DUP2 MSTORE PUSH1 0x4 ADD PUSH2 0x1A21 SWAP1 PUSH2 0x363B JUMP JUMPDEST PUSH1 0x40 MLOAD DUP1 SWAP2 SUB SWAP1 REVERT JUMPDEST PUSH1 0x0 CALLER SWAP1 POP DUP1 PUSH20 0xFFFFFFFFFFFFFFFFFFFFFFFFFFFFFFFFFFFFFFFF AND PUSH1 0x3 PUSH1 0x0 SWAP1 SLOAD SWAP1 PUSH2 0x100 EXP SWAP1 DIV PUSH20 0xFFFFFFFFFFFFFFFFFFFFFFFFFFFFFFFFFFFFFFFF AND PUSH20 0xFFFFFFFFFFFFFFFFFFFFFFFFFFFFFFFFFFFFFFFF AND PUSH4 0x6352211E DUP6 PUSH1 0x40 MLOAD DUP3 PUSH4 0xFFFFFFFF AND PUSH1 0xE0 SHL DUP2 MSTORE PUSH1 0x4 ADD PUSH2 0x1AA1 SWAP2 SWAP1 PUSH2 0x379B JUMP JUMPDEST PUSH1 0x20 PUSH1 0x40 MLOAD DUP1 DUP4 SUB DUP2 DUP7 DUP1 EXTCODESIZE ISZERO DUP1 ISZERO PUSH2 0x1AB9 JUMPI PUSH1 0x0 DUP1 REVERT JUMPDEST POP GAS STATICCALL ISZERO DUP1 ISZERO PUSH2 0x1ACD JUMPI RETURNDATASIZE PUSH1 0x0 DUP1 RETURNDATACOPY RETURNDATASIZE PUSH1 0x0 REVERT JUMPDEST POP POP POP POP PUSH1 0x40 MLOAD RETURNDATASIZE PUSH1 0x1F NOT PUSH1 0x1F DUP3 ADD AND DUP3 ADD DUP1 PUSH1 0x40 MSTORE POP DUP2 ADD SWAP1 PUSH2 0x1AF1 SWAP2 SWAP1 PUSH2 0x3101 JUMP JUMPDEST PUSH20 0xFFFFFFFFFFFFFFFFFFFFFFFFFFFFFFFFFFFFFFFF AND EQ PUSH2 0x1B47 JUMPI PUSH1 0x40 MLOAD PUSH32 0x8C379A000000000000000000000000000000000000000000000000000000000 DUP2 MSTORE PUSH1 0x4 ADD PUSH2 0x1B3E SWAP1 PUSH2 0x361B JUMP JUMPDEST PUSH1 0x40 MLOAD DUP1 SWAP2 SUB SWAP1 REVERT JUMPDEST PUSH1 0x3 PUSH1 0x0 SWAP1 SLOAD SWAP1 PUSH2 0x100 EXP SWAP1 DIV PUSH20 0xFFFFFFFFFFFFFFFFFFFFFFFFFFFFFFFFFFFFFFFF AND PUSH20 0xFFFFFFFFFFFFFFFFFFFFFFFFFFFFFFFFFFFFFFFF AND PUSH4 0xE985E9C5 DUP3 ADDRESS PUSH1 0x40 MLOAD DUP4 PUSH4 0xFFFFFFFF AND PUSH1 0xE0 SHL DUP2 MSTORE PUSH1 0x4 ADD PUSH2 0x1BA4 SWAP3 SWAP2 SWAP1 PUSH2 0x352B JUMP JUMPDEST PUSH1 0x20 PUSH1 0x40 MLOAD DUP1 DUP4 SUB DUP2 DUP7 DUP1 EXTCODESIZE ISZERO DUP1 ISZERO PUSH2 0x1BBC JUMPI PUSH1 0x0 DUP1 REVERT JUMPDEST POP GAS STATICCALL ISZERO DUP1 ISZERO PUSH2 0x1BD0 JUMPI RETURNDATASIZE PUSH1 0x0 DUP1 RETURNDATACOPY RETURNDATASIZE PUSH1 0x0 REVERT JUMPDEST POP POP POP POP PUSH1 0x40 MLOAD RETURNDATASIZE PUSH1 0x1F NOT PUSH1 0x1F DUP3 ADD AND DUP3 ADD DUP1 PUSH1 0x40 MSTORE POP DUP2 ADD SWAP1 PUSH2 0x1BF4 SWAP2 SWAP1 PUSH2 0x316E JUMP JUMPDEST PUSH2 0x1C33 JUMPI PUSH1 0x40 MLOAD PUSH32 0x8C379A000000000000000000000000000000000000000000000000000000000 DUP2 MSTORE PUSH1 0x4 ADD PUSH2 0x1C2A SWAP1 PUSH2 0x36FB JUMP JUMPDEST PUSH1 0x40 MLOAD DUP1 SWAP2 SUB SWAP1 REVERT JUMPDEST PUSH1 0x0 DUP3 GT PUSH2 0x1C76 JUMPI PUSH1 0x40 MLOAD PUSH32 0x8C379A000000000000000000000000000000000000000000000000000000000 DUP2 MSTORE PUSH1 0x4 ADD PUSH2 0x1C6D SWAP1 PUSH2 0x36BB JUMP JUMPDEST PUSH1 0x40 MLOAD DUP1 SWAP2 SUB SWAP1 REVERT JUMPDEST PUSH2 0x1C81 DUP4 DUP4 DUP4 PUSH2 0x2D69 JUMP JUMPDEST PUSH32 0x55BB046A6E950AF74FCDAAA97A1A82C49209D72A5FCDA0925A019DFBA29C8F72 DUP4 DUP4 PUSH1 0x40 MLOAD PUSH2 0x1CB2 SWAP3 SWAP2 SWAP1 PUSH2 0x37B6 JUMP JUMPDEST PUSH1 0x40 MLOAD DUP1 SWAP2 SUB SWAP1 LOG1 POP POP POP JUMP JUMPDEST PUSH1 0x0 PUSH2 0x1CC9 PUSH2 0x1F71 JUMP JUMPDEST PUSH2 0x1D08 JUMPI PUSH1 0x40 MLOAD PUSH32 0x8C379A000000000000000000000000000000000000000000000000000000000 DUP2 MSTORE PUSH1 0x4 ADD PUSH2 0x1CFF SWAP1 PUSH2 0x373B JUMP JUMPDEST PUSH1 0x40 MLOAD DUP1 SWAP2 SUB SWAP1 REVERT JUMPDEST PUSH1 0x0 PUSH1 0x14 SWAP1 SLOAD SWAP1 PUSH2 0x100 EXP SWAP1 DIV PUSH1 0xFF AND ISZERO PUSH2 0x1D22 JUMPI PUSH1 0x0 DUP1 REVERT JUMPDEST PUSH1 0x1 PUSH1 0x0 PUSH1 0x14 PUSH2 0x100 EXP DUP2 SLOAD DUP2 PUSH1 0xFF MUL NOT AND SWAP1 DUP4 ISZERO ISZERO MUL OR SWAP1 SSTORE POP PUSH32 0x6985A02210A168E66602D3235CB6DB0E70F92B3BA4D376A33C0F3D9434BFF625 PUSH1 0x40 MLOAD PUSH1 0x40 MLOAD DUP1 SWAP2 SUB SWAP1 LOG1 PUSH1 0x1 SWAP1 POP SWAP1 JUMP JUMPDEST PUSH2 0x1D78 PUSH2 0x1F71 JUMP JUMPDEST PUSH2 0x1DB7 JUMPI PUSH1 0x40 MLOAD PUSH32 0x8C379A000000000000000000000000000000000000000000000000000000000 DUP2 MSTORE PUSH1 0x4 ADD PUSH2 0x1DAE SWAP1 PUSH2 0x373B JUMP JUMPDEST PUSH1 0x40 MLOAD DUP1 SWAP2 SUB SWAP1 REVERT JUMPDEST PUSH1 0x0 DUP3 PUSH20 0xFFFFFFFFFFFFFFFFFFFFFFFFFFFFFFFFFFFFFFFF AND PUSH4 0x70A08231 ADDRESS PUSH1 0x40 MLOAD DUP3 PUSH4 0xFFFFFFFF AND PUSH1 0xE0 SHL DUP2 MSTORE PUSH1 0x4 ADD PUSH2 0x1DF2 SWAP2 SWAP1 PUSH2 0x3510 JUMP JUMPDEST PUSH1 0x20 PUSH1 0x40 MLOAD DUP1 DUP4 SUB DUP2 DUP7 DUP1 EXTCODESIZE ISZERO DUP1 ISZERO PUSH2 0x1E0A JUMPI PUSH1 0x0 DUP1 REVERT JUMPDEST POP GAS STATICCALL ISZERO DUP1 ISZERO PUSH2 0x1E1E JUMPI RETURNDATASIZE PUSH1 0x0 DUP1 RETURNDATACOPY RETURNDATASIZE PUSH1 0x0 REVERT JUMPDEST POP POP POP POP PUSH1 0x40 MLOAD RETURNDATASIZE PUSH1 0x1F NOT PUSH1 0x1F DUP3 ADD AND DUP3 ADD DUP1 PUSH1 0x40 MSTORE POP DUP2 ADD SWAP1 PUSH2 0x1E42 SWAP2 SWAP1 PUSH2 0x31C8 JUMP JUMPDEST SWAP1 POP PUSH1 0x0 DUP3 GT DUP1 ISZERO PUSH2 0x1E54 JUMPI POP DUP1 DUP3 GT ISZERO JUMPDEST PUSH2 0x1E93 JUMPI PUSH1 0x40 MLOAD PUSH32 0x8C379A000000000000000000000000000000000000000000000000000000000 DUP2 MSTORE PUSH1 0x4 ADD PUSH2 0x1E8A SWAP1 PUSH2 0x367B JUMP JUMPDEST PUSH1 0x40 MLOAD DUP1 SWAP2 SUB SWAP1 REVERT JUMPDEST DUP3 PUSH20 0xFFFFFFFFFFFFFFFFFFFFFFFFFFFFFFFFFFFFFFFF AND PUSH4 0xA9059CBB PUSH1 0x8 PUSH1 0x0 SWAP1 SLOAD SWAP1 PUSH2 0x100 EXP SWAP1 DIV PUSH20 0xFFFFFFFFFFFFFFFFFFFFFFFFFFFFFFFFFFFFFFFF AND DUP5 PUSH1 0x40 MLOAD DUP4 PUSH4 0xFFFFFFFF AND PUSH1 0xE0 SHL DUP2 MSTORE PUSH1 0x4 ADD PUSH2 0x1EF0 SWAP3 SWAP2 SWAP1 PUSH2 0x358B JUMP JUMPDEST PUSH1 0x20 PUSH1 0x40 MLOAD DUP1 DUP4 SUB DUP2 PUSH1 0x0 DUP8 DUP1 EXTCODESIZE ISZERO DUP1 ISZERO PUSH2 0x1F0A JUMPI PUSH1 0x0 DUP1 REVERT JUMPDEST POP GAS CALL ISZERO DUP1 ISZERO PUSH2 0x1F1E JUMPI RETURNDATASIZE PUSH1 0x0 DUP1 RETURNDATACOPY RETURNDATASIZE PUSH1 0x0 REVERT JUMPDEST POP POP POP POP PUSH1 0x40 MLOAD RETURNDATASIZE PUSH1 0x1F NOT PUSH1 0x1F DUP3 ADD AND DUP3 ADD DUP1 PUSH1 0x40 MSTORE POP DUP2 ADD SWAP1 PUSH2 0x1F42 SWAP2 SWAP1 PUSH2 0x316E JUMP JUMPDEST POP POP POP POP JUMP JUMPDEST PUSH1 0x0 DUP1 PUSH1 0x0 SWAP1 SLOAD SWAP1 PUSH2 0x100 EXP SWAP1 DIV PUSH20 0xFFFFFFFFFFFFFFFFFFFFFFFFFFFFFFFFFFFFFFFF AND SWAP1 POP SWAP1 JUMP JUMPDEST PUSH1 0x0 DUP1 PUSH1 0x0 SWAP1 SLOAD SWAP1 PUSH2 0x100 EXP SWAP1 DIV PUSH20 0xFFFFFFFFFFFFFFFFFFFFFFFFFFFFFFFFFFFFFFFF AND PUSH20 0xFFFFFFFFFFFFFFFFFFFFFFFFFFFFFFFFFFFFFFFF AND PUSH2 0x1FB3 PUSH2 0x2F36 JUMP JUMPDEST PUSH20 0xFFFFFFFFFFFFFFFFFFFFFFFFFFFFFFFFFFFFFFFF AND EQ SWAP1 POP SWAP1 JUMP JUMPDEST PUSH1 0x60 DUP1 PUSH1 0x60 PUSH1 0x0 PUSH1 0xC DUP1 SLOAD SWAP1 POP SWAP1 POP PUSH1 0x0 DUP2 PUSH8 0xFFFFFFFFFFFFFFFF DUP2 GT ISZERO PUSH2 0x1FFA JUMPI PUSH2 0x1FF9 PUSH2 0x3AEE JUMP JUMPDEST JUMPDEST PUSH1 0x40 MLOAD SWAP1 DUP1 DUP3 MSTORE DUP1 PUSH1 0x20 MUL PUSH1 0x20 ADD DUP3 ADD PUSH1 0x40 MSTORE DUP1 ISZERO PUSH2 0x2028 JUMPI DUP2 PUSH1 0x20 ADD PUSH1 0x20 DUP3 MUL DUP1 CALLDATASIZE DUP4 CALLDATACOPY DUP1 DUP3 ADD SWAP2 POP POP SWAP1 POP JUMPDEST POP SWAP1 POP PUSH1 0x0 DUP3 PUSH8 0xFFFFFFFFFFFFFFFF DUP2 GT ISZERO PUSH2 0x2047 JUMPI PUSH2 0x2046 PUSH2 0x3AEE JUMP JUMPDEST JUMPDEST PUSH1 0x40 MLOAD SWAP1 DUP1 DUP3 MSTORE DUP1 PUSH1 0x20 MUL PUSH1 0x20 ADD DUP3 ADD PUSH1 0x40 MSTORE DUP1 ISZERO PUSH2 0x2075 JUMPI DUP2 PUSH1 0x20 ADD PUSH1 0x20 DUP3 MUL DUP1 CALLDATASIZE DUP4 CALLDATACOPY DUP1 DUP3 ADD SWAP2 POP POP SWAP1 POP JUMPDEST POP SWAP1 POP PUSH1 0x0 JUMPDEST DUP4 DUP2 LT ISZERO PUSH2 0x2349 JUMPI PUSH1 0xB PUSH1 0x0 PUSH1 0xC DUP4 DUP2 SLOAD DUP2 LT PUSH2 0x209B JUMPI PUSH2 0x209A PUSH2 0x3ABF JUMP JUMPDEST JUMPDEST SWAP1 PUSH1 0x0 MSTORE PUSH1 0x20 PUSH1 0x0 KECCAK256 ADD SLOAD DUP2 MSTORE PUSH1 0x20 ADD SWAP1 DUP2 MSTORE PUSH1 0x20 ADD PUSH1 0x0 KECCAK256 PUSH1 0x0 SWAP1 SLOAD SWAP1 PUSH2 0x100 EXP SWAP1 DIV PUSH20 0xFFFFFFFFFFFFFFFFFFFFFFFFFFFFFFFFFFFFFFFF AND PUSH20 0xFFFFFFFFFFFFFFFFFFFFFFFFFFFFFFFFFFFFFFFF AND PUSH1 0x3 PUSH1 0x0 SWAP1 SLOAD SWAP1 PUSH2 0x100 EXP SWAP1 DIV PUSH20 0xFFFFFFFFFFFFFFFFFFFFFFFFFFFFFFFFFFFFFFFF AND PUSH20 0xFFFFFFFFFFFFFFFFFFFFFFFFFFFFFFFFFFFFFFFF AND PUSH4 0x6352211E PUSH1 0xC DUP5 DUP2 SLOAD DUP2 LT PUSH2 0x213D JUMPI PUSH2 0x213C PUSH2 0x3ABF JUMP JUMPDEST JUMPDEST SWAP1 PUSH1 0x0 MSTORE PUSH1 0x20 PUSH1 0x0 KECCAK256 ADD SLOAD PUSH1 0x40 MLOAD DUP3 PUSH4 0xFFFFFFFF AND PUSH1 0xE0 SHL DUP2 MSTORE PUSH1 0x4 ADD PUSH2 0x2164 SWAP2 SWAP1 PUSH2 0x379B JUMP JUMPDEST PUSH1 0x20 PUSH1 0x40 MLOAD DUP1 DUP4 SUB DUP2 DUP7 DUP1 EXTCODESIZE ISZERO DUP1 ISZERO PUSH2 0x217C JUMPI PUSH1 0x0 DUP1 REVERT JUMPDEST POP GAS STATICCALL ISZERO DUP1 ISZERO PUSH2 0x2190 JUMPI RETURNDATASIZE PUSH1 0x0 DUP1 RETURNDATACOPY RETURNDATASIZE PUSH1 0x0 REVERT JUMPDEST POP POP POP POP PUSH1 0x40 MLOAD RETURNDATASIZE PUSH1 0x1F NOT PUSH1 0x1F DUP3 ADD AND DUP3 ADD DUP1 PUSH1 0x40 MSTORE POP DUP2 ADD SWAP1 PUSH2 0x21B4 SWAP2 SWAP1 PUSH2 0x3101 JUMP JUMPDEST PUSH20 0xFFFFFFFFFFFFFFFFFFFFFFFFFFFFFFFFFFFFFFFF AND EQ ISZERO PUSH2 0x22C5 JUMPI PUSH1 0xA PUSH1 0x0 PUSH1 0xC DUP4 DUP2 SLOAD DUP2 LT PUSH2 0x21E8 JUMPI PUSH2 0x21E7 PUSH2 0x3ABF JUMP JUMPDEST JUMPDEST SWAP1 PUSH1 0x0 MSTORE PUSH1 0x20 PUSH1 0x0 KECCAK256 ADD SLOAD DUP2 MSTORE PUSH1 0x20 ADD SWAP1 DUP2 MSTORE PUSH1 0x20 ADD PUSH1 0x0 KECCAK256 SLOAD DUP4 DUP3 DUP2 MLOAD DUP2 LT PUSH2 0x2215 JUMPI PUSH2 0x2214 PUSH2 0x3ABF JUMP JUMPDEST JUMPDEST PUSH1 0x20 MUL PUSH1 0x20 ADD ADD DUP2 DUP2 MSTORE POP POP PUSH1 0xB PUSH1 0x0 PUSH1 0xC DUP4 DUP2 SLOAD DUP2 LT PUSH2 0x2239 JUMPI PUSH2 0x2238 PUSH2 0x3ABF JUMP JUMPDEST JUMPDEST SWAP1 PUSH1 0x0 MSTORE PUSH1 0x20 PUSH1 0x0 KECCAK256 ADD SLOAD DUP2 MSTORE PUSH1 0x20 ADD SWAP1 DUP2 MSTORE PUSH1 0x20 ADD PUSH1 0x0 KECCAK256 PUSH1 0x0 SWAP1 SLOAD SWAP1 PUSH2 0x100 EXP SWAP1 DIV PUSH20 0xFFFFFFFFFFFFFFFFFFFFFFFFFFFFFFFFFFFFFFFF AND DUP3 DUP3 DUP2 MLOAD DUP2 LT PUSH2 0x2286 JUMPI PUSH2 0x2285 PUSH2 0x3ABF JUMP JUMPDEST JUMPDEST PUSH1 0x20 MUL PUSH1 0x20 ADD ADD SWAP1 PUSH20 0xFFFFFFFFFFFFFFFFFFFFFFFFFFFFFFFFFFFFFFFF AND SWAP1 DUP2 PUSH20 0xFFFFFFFFFFFFFFFFFFFFFFFFFFFFFFFFFFFFFFFF AND DUP2 MSTORE POP POP PUSH2 0x2336 JUMP JUMPDEST PUSH1 0x0 DUP4 DUP3 DUP2 MLOAD DUP2 LT PUSH2 0x22DA JUMPI PUSH2 0x22D9 PUSH2 0x3ABF JUMP JUMPDEST JUMPDEST PUSH1 0x20 MUL PUSH1 0x20 ADD ADD DUP2 DUP2 MSTORE POP POP PUSH1 0x0 DUP3 DUP3 DUP2 MLOAD DUP2 LT PUSH2 0x22FB JUMPI PUSH2 0x22FA PUSH2 0x3ABF JUMP JUMPDEST JUMPDEST PUSH1 0x20 MUL PUSH1 0x20 ADD ADD SWAP1 PUSH20 0xFFFFFFFFFFFFFFFFFFFFFFFFFFFFFFFFFFFFFFFF AND SWAP1 DUP2 PUSH20 0xFFFFFFFFFFFFFFFFFFFFFFFFFFFFFFFFFFFFFFFF AND DUP2 MSTORE POP POP JUMPDEST DUP1 DUP1 PUSH2 0x2341 SWAP1 PUSH2 0x39E9 JUMP JUMPDEST SWAP2 POP POP PUSH2 0x207B JUMP JUMPDEST POP PUSH1 0xC DUP2 DUP4 DUP3 DUP1 SLOAD DUP1 PUSH1 0x20 MUL PUSH1 0x20 ADD PUSH1 0x40 MLOAD SWAP1 DUP2 ADD PUSH1 0x40 MSTORE DUP1 SWAP3 SWAP2 SWAP1 DUP2 DUP2 MSTORE PUSH1 0x20 ADD DUP3 DUP1 SLOAD DUP1 ISZERO PUSH2 0x2399 JUMPI PUSH1 0x20 MUL DUP3 ADD SWAP2 SWAP1 PUSH1 0x0 MSTORE PUSH1 0x20 PUSH1 0x0 KECCAK256 SWAP1 JUMPDEST DUP2 SLOAD DUP2 MSTORE PUSH1 0x20 ADD SWAP1 PUSH1 0x1 ADD SWAP1 DUP1 DUP4 GT PUSH2 0x2385 JUMPI JUMPDEST POP POP POP POP POP SWAP3 POP SWAP6 POP SWAP6 POP SWAP6 POP POP POP POP SWAP1 SWAP2 SWAP3 JUMP JUMPDEST PUSH2 0x23B6 PUSH2 0x1F71 JUMP JUMPDEST PUSH2 0x23F5 JUMPI PUSH1 0x40 MLOAD PUSH32 0x8C379A000000000000000000000000000000000000000000000000000000000 DUP2 MSTORE PUSH1 0x4 ADD PUSH2 0x23EC SWAP1 PUSH2 0x373B JUMP JUMPDEST PUSH1 0x40 MLOAD DUP1 SWAP2 SUB SWAP1 REVERT JUMPDEST DUP1 PUSH1 0x2 PUSH1 0x0 PUSH2 0x100 EXP DUP2 SLOAD DUP2 PUSH20 0xFFFFFFFFFFFFFFFFFFFFFFFFFFFFFFFFFFFFFFFF MUL NOT AND SWAP1 DUP4 PUSH20 0xFFFFFFFFFFFFFFFFFFFFFFFFFFFFFFFFFFFFFFFF AND MUL OR SWAP1 SSTORE POP PUSH32 0xACDD85D235B5B49226C2C4F2B72CB01FA1CC3AE64BB843A6DEF27788D05B1B60 PUSH1 0x2 PUSH1 0x0 SWAP1 SLOAD SWAP1 PUSH2 0x100 EXP SWAP1 DIV PUSH20 0xFFFFFFFFFFFFFFFFFFFFFFFFFFFFFFFFFFFFFFFF AND PUSH1 0x40 MLOAD PUSH2 0x2487 SWAP2 SWAP1 PUSH2 0x3510 JUMP JUMPDEST PUSH1 0x40 MLOAD DUP1 SWAP2 SUB SWAP1 LOG1 POP JUMP JUMPDEST PUSH1 0x8 PUSH1 0x0 SWAP1 SLOAD SWAP1 PUSH2 0x100 EXP SWAP1 DIV PUSH20 0xFFFFFFFFFFFFFFFFFFFFFFFFFFFFFFFFFFFFFFFF AND DUP2 JUMP JUMPDEST PUSH1 0x4 PUSH1 0x0 SWAP1 SLOAD SWAP1 PUSH2 0x100 EXP SWAP1 DIV PUSH20 0xFFFFFFFFFFFFFFFFFFFFFFFFFFFFFFFFFFFFFFFF AND DUP2 JUMP JUMPDEST PUSH1 0x0 SELFBALANCE SWAP1 POP SWAP1 JUMP JUMPDEST PUSH1 0x6 SLOAD DUP2 JUMP JUMPDEST PUSH2 0x24F4 PUSH2 0x1F71 JUMP JUMPDEST PUSH2 0x2533 JUMPI PUSH1 0x40 MLOAD PUSH32 0x8C379A000000000000000000000000000000000000000000000000000000000 DUP2 MSTORE PUSH1 0x4 ADD PUSH2 0x252A SWAP1 PUSH2 0x373B JUMP JUMPDEST PUSH1 0x40 MLOAD DUP1 SWAP2 SUB SWAP1 REVERT JUMPDEST DUP1 PUSH1 0x8 PUSH1 0x0 PUSH2 0x100 EXP DUP2 SLOAD DUP2 PUSH20 0xFFFFFFFFFFFFFFFFFFFFFFFFFFFFFFFFFFFFFFFF MUL NOT AND SWAP1 DUP4 PUSH20 0xFFFFFFFFFFFFFFFFFFFFFFFFFFFFFFFFFFFFFFFF AND MUL OR SWAP1 SSTORE POP POP JUMP JUMPDEST PUSH2 0x257F PUSH2 0x1F71 JUMP JUMPDEST PUSH2 0x25BE JUMPI PUSH1 0x40 MLOAD PUSH32 0x8C379A000000000000000000000000000000000000000000000000000000000 DUP2 MSTORE PUSH1 0x4 ADD PUSH2 0x25B5 SWAP1 PUSH2 0x373B JUMP JUMPDEST PUSH1 0x40 MLOAD DUP1 SWAP2 SUB SWAP1 REVERT JUMPDEST PUSH1 0x0 SELFBALANCE SWAP1 POP PUSH1 0x0 DUP3 GT DUP1 ISZERO PUSH2 0x25D3 JUMPI POP DUP1 DUP3 GT ISZERO JUMPDEST PUSH2 0x2612 JUMPI PUSH1 0x40 MLOAD PUSH32 0x8C379A000000000000000000000000000000000000000000000000000000000 DUP2 MSTORE PUSH1 0x4 ADD PUSH2 0x2609 SWAP1 PUSH2 0x367B JUMP JUMPDEST PUSH1 0x40 MLOAD DUP1 SWAP2 SUB SWAP1 REVERT JUMPDEST PUSH1 0x8 PUSH1 0x0 SWAP1 SLOAD SWAP1 PUSH2 0x100 EXP SWAP1 DIV PUSH20 0xFFFFFFFFFFFFFFFFFFFFFFFFFFFFFFFFFFFFFFFF AND PUSH20 0xFFFFFFFFFFFFFFFFFFFFFFFFFFFFFFFFFFFFFFFF AND PUSH2 0x8FC DUP4 SWAP1 DUP2 ISZERO MUL SWAP1 PUSH1 0x40 MLOAD PUSH1 0x0 PUSH1 0x40 MLOAD DUP1 DUP4 SUB DUP2 DUP6 DUP9 DUP9 CALL SWAP4 POP POP POP POP ISZERO DUP1 ISZERO PUSH2 0x267A JUMPI RETURNDATASIZE PUSH1 0x0 DUP1 RETURNDATACOPY RETURNDATASIZE PUSH1 0x0 REVERT JUMPDEST POP POP POP JUMP JUMPDEST PUSH2 0x2687 PUSH2 0x1F71 JUMP JUMPDEST PUSH2 0x26C6 JUMPI PUSH1 0x40 MLOAD PUSH32 0x8C379A000000000000000000000000000000000000000000000000000000000 DUP2 MSTORE PUSH1 0x4 ADD PUSH2 0x26BD SWAP1 PUSH2 0x373B JUMP JUMPDEST PUSH1 0x40 MLOAD DUP1 SWAP2 SUB SWAP1 REVERT JUMPDEST ADDRESS PUSH20 0xFFFFFFFFFFFFFFFFFFFFFFFFFFFFFFFFFFFFFFFF AND PUSH1 0x3 PUSH1 0x0 SWAP1 SLOAD SWAP1 PUSH2 0x100 EXP SWAP1 DIV PUSH20 0xFFFFFFFFFFFFFFFFFFFFFFFFFFFFFFFFFFFFFFFF AND PUSH20 0xFFFFFFFFFFFFFFFFFFFFFFFFFFFFFFFFFFFFFFFF AND PUSH4 0x6352211E DUP4 PUSH1 0x40 MLOAD DUP3 PUSH4 0xFFFFFFFF AND PUSH1 0xE0 SHL DUP2 MSTORE PUSH1 0x4 ADD PUSH2 0x2738 SWAP2 SWAP1 PUSH2 0x379B JUMP JUMPDEST PUSH1 0x20 PUSH1 0x40 MLOAD DUP1 DUP4 SUB DUP2 DUP7 DUP1 EXTCODESIZE ISZERO DUP1 ISZERO PUSH2 0x2750 JUMPI PUSH1 0x0 DUP1 REVERT JUMPDEST POP GAS STATICCALL ISZERO DUP1 ISZERO PUSH2 0x2764 JUMPI RETURNDATASIZE PUSH1 0x0 DUP1 RETURNDATACOPY RETURNDATASIZE PUSH1 0x0 REVERT JUMPDEST POP POP POP POP PUSH1 0x40 MLOAD RETURNDATASIZE PUSH1 0x1F NOT PUSH1 0x1F DUP3 ADD AND DUP3 ADD DUP1 PUSH1 0x40 MSTORE POP DUP2 ADD SWAP1 PUSH2 0x2788 SWAP2 SWAP1 PUSH2 0x3101 JUMP JUMPDEST PUSH20 0xFFFFFFFFFFFFFFFFFFFFFFFFFFFFFFFFFFFFFFFF AND EQ PUSH2 0x27DE JUMPI PUSH1 0x40 MLOAD PUSH32 0x8C379A000000000000000000000000000000000000000000000000000000000 DUP2 MSTORE PUSH1 0x4 ADD PUSH2 0x27D5 SWAP1 PUSH2 0x36DB JUMP JUMPDEST PUSH1 0x40 MLOAD DUP1 SWAP2 SUB SWAP1 REVERT JUMPDEST PUSH1 0x3 PUSH1 0x0 SWAP1 SLOAD SWAP1 PUSH2 0x100 EXP SWAP1 DIV PUSH20 0xFFFFFFFFFFFFFFFFFFFFFFFFFFFFFFFFFFFFFFFF AND PUSH20 0xFFFFFFFFFFFFFFFFFFFFFFFFFFFFFFFFFFFFFFFF AND PUSH4 0x42842E0E ADDRESS PUSH1 0x8 PUSH1 0x0 SWAP1 SLOAD SWAP1 PUSH2 0x100 EXP SWAP1 DIV PUSH20 0xFFFFFFFFFFFFFFFFFFFFFFFFFFFFFFFFFFFFFFFF AND DUP5 PUSH1 0x40 MLOAD DUP5 PUSH4 0xFFFFFFFF AND PUSH1 0xE0 SHL DUP2 MSTORE PUSH1 0x4 ADD PUSH2 0x285F SWAP4 SWAP3 SWAP2 SWAP1 PUSH2 0x3554 JUMP JUMPDEST PUSH1 0x0 PUSH1 0x40 MLOAD DUP1 DUP4 SUB DUP2 PUSH1 0x0 DUP8 DUP1 EXTCODESIZE ISZERO DUP1 ISZERO PUSH2 0x2879 JUMPI PUSH1 0x0 DUP1 REVERT JUMPDEST POP GAS CALL ISZERO DUP1 ISZERO PUSH2 0x288D JUMPI RETURNDATASIZE PUSH1 0x0 DUP1 RETURNDATACOPY RETURNDATASIZE PUSH1 0x0 REVERT JUMPDEST POP POP POP POP POP JUMP JUMPDEST PUSH1 0x3 PUSH1 0x0 SWAP1 SLOAD SWAP1 PUSH2 0x100 EXP SWAP1 DIV PUSH20 0xFFFFFFFFFFFFFFFFFFFFFFFFFFFFFFFFFFFFFFFF AND DUP2 JUMP JUMPDEST PUSH2 0x28C2 PUSH2 0x1F71 JUMP JUMPDEST PUSH2 0x2901 JUMPI PUSH1 0x40 MLOAD PUSH32 0x8C379A000000000000000000000000000000000000000000000000000000000 DUP2 MSTORE PUSH1 0x4 ADD PUSH2 0x28F8 SWAP1 PUSH2 0x373B JUMP JUMPDEST PUSH1 0x40 MLOAD DUP1 SWAP2 SUB SWAP1 REVERT JUMPDEST DUP1 PUSH1 0x6 DUP2 SWAP1 SSTORE POP PUSH32 0x4D8E30FF458BEBDD848488669E63D632954487CA1BC64C28F3C920F74A5F8594 PUSH1 0x6 SLOAD PUSH1 0x40 MLOAD PUSH2 0x2939 SWAP2 SWAP1 PUSH2 0x379B JUMP JUMPDEST PUSH1 0x40 MLOAD DUP1 SWAP2 SUB SWAP1 LOG1 POP JUMP JUMPDEST PUSH1 0x0 DUP1 PUSH1 0x5 PUSH1 0x0 SWAP1 SLOAD SWAP1 PUSH2 0x100 EXP SWAP1 DIV PUSH20 0xFFFFFFFFFFFFFFFFFFFFFFFFFFFFFFFFFFFFFFFF AND PUSH20 0xFFFFFFFFFFFFFFFFFFFFFFFFFFFFFFFFFFFFFFFF AND PUSH4 0x70A08231 PUSH1 0x2 PUSH1 0x0 SWAP1 SLOAD SWAP1 PUSH2 0x100 EXP SWAP1 DIV PUSH20 0xFFFFFFFFFFFFFFFFFFFFFFFFFFFFFFFFFFFFFFFF AND PUSH1 0x40 MLOAD DUP3 PUSH4 0xFFFFFFFF AND PUSH1 0xE0 SHL DUP2 MSTORE PUSH1 0x4 ADD PUSH2 0x29C4 SWAP2 SWAP1 PUSH2 0x3510 JUMP JUMPDEST PUSH1 0x20 PUSH1 0x40 MLOAD DUP1 DUP4 SUB DUP2 DUP7 DUP1 EXTCODESIZE ISZERO DUP1 ISZERO PUSH2 0x29DC JUMPI PUSH1 0x0 DUP1 REVERT JUMPDEST POP GAS STATICCALL ISZERO DUP1 ISZERO PUSH2 0x29F0 JUMPI RETURNDATASIZE PUSH1 0x0 DUP1 RETURNDATACOPY RETURNDATASIZE PUSH1 0x0 REVERT JUMPDEST POP POP POP POP PUSH1 0x40 MLOAD RETURNDATASIZE PUSH1 0x1F NOT PUSH1 0x1F DUP3 ADD AND DUP3 ADD DUP1 PUSH1 0x40 MSTORE POP DUP2 ADD SWAP1 PUSH2 0x2A14 SWAP2 SWAP1 PUSH2 0x31C8 JUMP JUMPDEST SWAP1 POP PUSH1 0x0 PUSH1 0x4 PUSH1 0x0 SWAP1 SLOAD SWAP1 PUSH2 0x100 EXP SWAP1 DIV PUSH20 0xFFFFFFFFFFFFFFFFFFFFFFFFFFFFFFFFFFFFFFFF AND PUSH20 0xFFFFFFFFFFFFFFFFFFFFFFFFFFFFFFFFFFFFFFFF AND PUSH4 0x70A08231 PUSH1 0x2 PUSH1 0x0 SWAP1 SLOAD SWAP1 PUSH2 0x100 EXP SWAP1 DIV PUSH20 0xFFFFFFFFFFFFFFFFFFFFFFFFFFFFFFFFFFFFFFFF AND PUSH1 0x40 MLOAD DUP3 PUSH4 0xFFFFFFFF AND PUSH1 0xE0 SHL DUP2 MSTORE PUSH1 0x4 ADD PUSH2 0x2A95 SWAP2 SWAP1 PUSH2 0x3510 JUMP JUMPDEST PUSH1 0x20 PUSH1 0x40 MLOAD DUP1 DUP4 SUB DUP2 DUP7 DUP1 EXTCODESIZE ISZERO DUP1 ISZERO PUSH2 0x2AAD JUMPI PUSH1 0x0 DUP1 REVERT JUMPDEST POP GAS STATICCALL ISZERO DUP1 ISZERO PUSH2 0x2AC1 JUMPI RETURNDATASIZE PUSH1 0x0 DUP1 RETURNDATACOPY RETURNDATASIZE PUSH1 0x0 REVERT JUMPDEST POP POP POP POP PUSH1 0x40 MLOAD RETURNDATASIZE PUSH1 0x1F NOT PUSH1 0x1F DUP3 ADD AND DUP3 ADD DUP1 PUSH1 0x40 MSTORE POP DUP2 ADD SWAP1 PUSH2 0x2AE5 SWAP2 SWAP1 PUSH2 0x31C8 JUMP JUMPDEST SWAP1 POP PUSH1 0x0 DUP3 DUP3 PUSH2 0x2AF5 SWAP2 SWAP1 PUSH2 0x38B8 JUMP JUMPDEST SWAP1 POP PUSH1 0x0 PUSH1 0xA PUSH1 0x6 SLOAD DUP4 PUSH2 0x2B09 SWAP2 SWAP1 PUSH2 0x38E9 JUMP JUMPDEST PUSH2 0x2B13 SWAP2 SWAP1 PUSH2 0x38B8 JUMP JUMPDEST SWAP1 POP DUP1 SWAP5 POP POP POP POP POP SWAP1 JUMP JUMPDEST PUSH2 0x2B27 PUSH2 0x1F71 JUMP JUMPDEST PUSH2 0x2B66 JUMPI PUSH1 0x40 MLOAD PUSH32 0x8C379A000000000000000000000000000000000000000000000000000000000 DUP2 MSTORE PUSH1 0x4 ADD PUSH2 0x2B5D SWAP1 PUSH2 0x373B JUMP JUMPDEST PUSH1 0x40 MLOAD DUP1 SWAP2 SUB SWAP1 REVERT JUMPDEST DUP1 PUSH1 0x1 PUSH1 0x0 PUSH2 0x100 EXP DUP2 SLOAD DUP2 PUSH20 0xFFFFFFFFFFFFFFFFFFFFFFFFFFFFFFFFFFFFFFFF MUL NOT AND SWAP1 DUP4 PUSH20 0xFFFFFFFFFFFFFFFFFFFFFFFFFFFFFFFFFFFFFFFF AND MUL OR SWAP1 SSTORE POP PUSH32 0xB14F2A39BB21FDA32827BBDB4BE629C94036E10A3F6055A6454F884CA1B33FA1 PUSH1 0x1 PUSH1 0x0 SWAP1 SLOAD SWAP1 PUSH2 0x100 EXP SWAP1 DIV PUSH20 0xFFFFFFFFFFFFFFFFFFFFFFFFFFFFFFFFFFFFFFFF AND PUSH1 0x40 MLOAD PUSH2 0x2BF8 SWAP2 SWAP1 PUSH2 0x3510 JUMP JUMPDEST PUSH1 0x40 MLOAD DUP1 SWAP2 SUB SWAP1 LOG1 POP JUMP JUMPDEST PUSH2 0x2C0B PUSH2 0x1F71 JUMP JUMPDEST PUSH2 0x2C4A JUMPI PUSH1 0x40 MLOAD PUSH32 0x8C379A000000000000000000000000000000000000000000000000000000000 DUP2 MSTORE PUSH1 0x4 ADD PUSH2 0x2C41 SWAP1 PUSH2 0x373B JUMP JUMPDEST PUSH1 0x40 MLOAD DUP1 SWAP2 SUB SWAP1 REVERT JUMPDEST PUSH2 0x2C53 DUP2 PUSH2 0x2F3E JUMP JUMPDEST POP JUMP JUMPDEST PUSH1 0xA PUSH1 0x0 DUP3 DUP2 MSTORE PUSH1 0x20 ADD SWAP1 DUP2 MSTORE PUSH1 0x20 ADD PUSH1 0x0 KECCAK256 PUSH1 0x0 SWAP1 SSTORE PUSH1 0x0 JUMPDEST PUSH1 0xC DUP1 SLOAD SWAP1 POP DUP2 LT ISZERO PUSH2 0x2D64 JUMPI DUP2 PUSH1 0xC DUP3 DUP2 SLOAD DUP2 LT PUSH2 0x2C92 JUMPI PUSH2 0x2C91 PUSH2 0x3ABF JUMP JUMPDEST JUMPDEST SWAP1 PUSH1 0x0 MSTORE PUSH1 0x20 PUSH1 0x0 KECCAK256 ADD SLOAD EQ ISZERO PUSH2 0x2D51 JUMPI PUSH1 0x0 DUP2 SWAP1 POP JUMPDEST PUSH1 0x1 PUSH1 0xC DUP1 SLOAD SWAP1 POP PUSH2 0x2CBB SWAP2 SWAP1 PUSH2 0x3943 JUMP JUMPDEST DUP2 LT ISZERO PUSH2 0x2D22 JUMPI PUSH1 0xC PUSH1 0x1 DUP3 PUSH2 0x2CD1 SWAP2 SWAP1 PUSH2 0x3862 JUMP JUMPDEST DUP2 SLOAD DUP2 LT PUSH2 0x2CE2 JUMPI PUSH2 0x2CE1 PUSH2 0x3ABF JUMP JUMPDEST JUMPDEST SWAP1 PUSH1 0x0 MSTORE PUSH1 0x20 PUSH1 0x0 KECCAK256 ADD SLOAD PUSH1 0xC DUP3 DUP2 SLOAD DUP2 LT PUSH2 0x2D01 JUMPI PUSH2 0x2D00 PUSH2 0x3ABF JUMP JUMPDEST JUMPDEST SWAP1 PUSH1 0x0 MSTORE PUSH1 0x20 PUSH1 0x0 KECCAK256 ADD DUP2 SWAP1 SSTORE POP DUP1 DUP1 PUSH2 0x2D1A SWAP1 PUSH2 0x39E9 JUMP JUMPDEST SWAP2 POP POP PUSH2 0x2CA9 JUMP JUMPDEST POP PUSH1 0xC DUP1 SLOAD DUP1 PUSH2 0x2D35 JUMPI PUSH2 0x2D34 PUSH2 0x3A90 JUMP JUMPDEST JUMPDEST PUSH1 0x1 SWAP1 SUB DUP2 DUP2 SWAP1 PUSH1 0x0 MSTORE PUSH1 0x20 PUSH1 0x0 KECCAK256 ADD PUSH1 0x0 SWAP1 SSTORE SWAP1 SSTORE POP PUSH2 0x2D66 JUMP JUMPDEST DUP1 DUP1 PUSH2 0x2D5C SWAP1 PUSH2 0x39E9 JUMP JUMPDEST SWAP2 POP POP PUSH2 0x2C70 JUMP JUMPDEST POP JUMPDEST POP JUMP JUMPDEST DUP2 PUSH1 0xA PUSH1 0x0 DUP6 DUP2 MSTORE PUSH1 0x20 ADD SWAP1 DUP2 MSTORE PUSH1 0x20 ADD PUSH1 0x0 KECCAK256 DUP2 SWAP1 SSTORE POP DUP1 PUSH1 0xB PUSH1 0x0 DUP6 DUP2 MSTORE PUSH1 0x20 ADD SWAP1 DUP2 MSTORE PUSH1 0x20 ADD PUSH1 0x0 KECCAK256 PUSH1 0x0 PUSH2 0x100 EXP DUP2 SLOAD DUP2 PUSH20 0xFFFFFFFFFFFFFFFFFFFFFFFFFFFFFFFFFFFFFFFF MUL NOT AND SWAP1 DUP4 PUSH20 0xFFFFFFFFFFFFFFFFFFFFFFFFFFFFFFFFFFFFFFFF AND MUL OR SWAP1 SSTORE POP PUSH1 0xC DUP4 SWAP1 DUP1 PUSH1 0x1 DUP2 SLOAD ADD DUP1 DUP3 SSTORE DUP1 SWAP2 POP POP PUSH1 0x1 SWAP1 SUB SWAP1 PUSH1 0x0 MSTORE PUSH1 0x20 PUSH1 0x0 KECCAK256 ADD PUSH1 0x0 SWAP1 SWAP2 SWAP1 SWAP2 SWAP1 SWAP2 POP SSTORE PUSH1 0x2 PUSH1 0xC DUP1 SLOAD SWAP1 POP LT PUSH2 0x2F30 JUMPI PUSH1 0x0 PUSH1 0x2 PUSH1 0xC DUP1 SLOAD SWAP1 POP PUSH2 0x2E1D SWAP2 SWAP1 PUSH2 0x3943 JUMP JUMPDEST SWAP1 POP JUMPDEST PUSH1 0x0 DUP2 LT PUSH2 0x2F2E JUMPI DUP3 PUSH1 0xA PUSH1 0x0 PUSH1 0xC DUP5 DUP2 SLOAD DUP2 LT PUSH2 0x2E41 JUMPI PUSH2 0x2E40 PUSH2 0x3ABF JUMP JUMPDEST JUMPDEST SWAP1 PUSH1 0x0 MSTORE PUSH1 0x20 PUSH1 0x0 KECCAK256 ADD SLOAD DUP2 MSTORE PUSH1 0x20 ADD SWAP1 DUP2 MSTORE PUSH1 0x20 ADD PUSH1 0x0 KECCAK256 SLOAD GT ISZERO PUSH2 0x2EE6 JUMPI PUSH1 0xC DUP2 DUP2 SLOAD DUP2 LT PUSH2 0x2E75 JUMPI PUSH2 0x2E74 PUSH2 0x3ABF JUMP JUMPDEST JUMPDEST SWAP1 PUSH1 0x0 MSTORE PUSH1 0x20 PUSH1 0x0 KECCAK256 ADD SLOAD PUSH1 0xC PUSH1 0x1 DUP4 PUSH2 0x2E8F SWAP2 SWAP1 PUSH2 0x3862 JUMP JUMPDEST DUP2 SLOAD DUP2 LT PUSH2 0x2EA0 JUMPI PUSH2 0x2E9F PUSH2 0x3ABF JUMP JUMPDEST JUMPDEST SWAP1 PUSH1 0x0 MSTORE PUSH1 0x20 PUSH1 0x0 KECCAK256 ADD DUP2 SWAP1 SSTORE POP PUSH1 0x0 DUP2 EQ ISZERO PUSH2 0x2EE1 JUMPI DUP4 PUSH1 0xC PUSH1 0x0 DUP2 SLOAD DUP2 LT PUSH2 0x2ECD JUMPI PUSH2 0x2ECC PUSH2 0x3ABF JUMP JUMPDEST JUMPDEST SWAP1 PUSH1 0x0 MSTORE PUSH1 0x20 PUSH1 0x0 KECCAK256 ADD DUP2 SWAP1 SSTORE POP POP PUSH2 0x2F31 JUMP JUMPDEST PUSH2 0x2F1B JUMP JUMPDEST DUP4 PUSH1 0xC PUSH1 0x1 DUP4 PUSH2 0x2EF6 SWAP2 SWAP1 PUSH2 0x3862 JUMP JUMPDEST DUP2 SLOAD DUP2 LT PUSH2 0x2F07 JUMPI PUSH2 0x2F06 PUSH2 0x3ABF JUMP JUMPDEST JUMPDEST SWAP1 PUSH1 0x0 MSTORE PUSH1 0x20 PUSH1 0x0 KECCAK256 ADD DUP2 SWAP1 SSTORE POP POP PUSH2 0x2F31 JUMP JUMPDEST DUP1 DUP1 PUSH2 0x2F26 SWAP1 PUSH2 0x39BF JUMP JUMPDEST SWAP2 POP POP PUSH2 0x2E20 JUMP JUMPDEST POP JUMPDEST JUMPDEST POP POP POP JUMP JUMPDEST PUSH1 0x0 CALLER SWAP1 POP SWAP1 JUMP JUMPDEST PUSH1 0x0 PUSH20 0xFFFFFFFFFFFFFFFFFFFFFFFFFFFFFFFFFFFFFFFF AND DUP2 PUSH20 0xFFFFFFFFFFFFFFFFFFFFFFFFFFFFFFFFFFFFFFFF AND EQ ISZERO PUSH2 0x2FAE JUMPI PUSH1 0x40 MLOAD PUSH32 0x8C379A000000000000000000000000000000000000000000000000000000000 DUP2 MSTORE PUSH1 0x4 ADD PUSH2 0x2FA5 SWAP1 PUSH2 0x365B JUMP JUMPDEST PUSH1 0x40 MLOAD DUP1 SWAP2 SUB SWAP1 REVERT JUMPDEST DUP1 PUSH20 0xFFFFFFFFFFFFFFFFFFFFFFFFFFFFFFFFFFFFFFFF AND PUSH1 0x0 DUP1 SLOAD SWAP1 PUSH2 0x100 EXP SWAP1 DIV PUSH20 0xFFFFFFFFFFFFFFFFFFFFFFFFFFFFFFFFFFFFFFFF AND PUSH20 0xFFFFFFFFFFFFFFFFFFFFFFFFFFFFFFFFFFFFFFFF AND PUSH32 0x8BE0079C531659141344CD1FD0A4F28419497F9722A3DAAFE3B4186F6B6457E0 PUSH1 0x40 MLOAD PUSH1 0x40 MLOAD DUP1 SWAP2 SUB SWAP1 LOG3 DUP1 PUSH1 0x0 DUP1 PUSH2 0x100 EXP DUP2 SLOAD DUP2 PUSH20 0xFFFFFFFFFFFFFFFFFFFFFFFFFFFFFFFFFFFFFFFF MUL NOT AND SWAP1 DUP4 PUSH20 0xFFFFFFFFFFFFFFFFFFFFFFFFFFFFFFFFFFFFFFFF AND MUL OR SWAP1 SSTORE POP POP JUMP JUMPDEST PUSH1 0x0 DUP2 CALLDATALOAD SWAP1 POP PUSH2 0x307A DUP2 PUSH2 0x3DA6 JUMP JUMPDEST SWAP3 SWAP2 POP POP JUMP JUMPDEST PUSH1 0x0 DUP2 MLOAD SWAP1 POP PUSH2 0x308F DUP2 PUSH2 0x3DA6 JUMP JUMPDEST SWAP3 SWAP2 POP POP JUMP JUMPDEST PUSH1 0x0 DUP2 MLOAD SWAP1 POP PUSH2 0x30A4 DUP2 PUSH2 0x3DBD JUMP JUMPDEST SWAP3 SWAP2 POP POP JUMP JUMPDEST PUSH1 0x0 DUP2 CALLDATALOAD SWAP1 POP PUSH2 0x30B9 DUP2 PUSH2 0x3DD4 JUMP JUMPDEST SWAP3 SWAP2 POP POP JUMP JUMPDEST PUSH1 0x0 DUP2 MLOAD SWAP1 POP PUSH2 0x30CE DUP2 PUSH2 0x3DD4 JUMP JUMPDEST SWAP3 SWAP2 POP POP JUMP JUMPDEST PUSH1 0x0 PUSH1 0x20 DUP3 DUP5 SUB SLT ISZERO PUSH2 0x30EA JUMPI PUSH2 0x30E9 PUSH2 0x3B1D JUMP JUMPDEST JUMPDEST PUSH1 0x0 PUSH2 0x30F8 DUP5 DUP3 DUP6 ADD PUSH2 0x306B JUMP JUMPDEST SWAP2 POP POP SWAP3 SWAP2 POP POP JUMP JUMPDEST PUSH1 0x0 PUSH1 0x20 DUP3 DUP5 SUB SLT ISZERO PUSH2 0x3117 JUMPI PUSH2 0x3116 PUSH2 0x3B1D JUMP JUMPDEST JUMPDEST PUSH1 0x0 PUSH2 0x3125 DUP5 DUP3 DUP6 ADD PUSH2 0x3080 JUMP JUMPDEST SWAP2 POP POP SWAP3 SWAP2 POP POP JUMP JUMPDEST PUSH1 0x0 DUP1 PUSH1 0x40 DUP4 DUP6 SUB SLT ISZERO PUSH2 0x3145 JUMPI PUSH2 0x3144 PUSH2 0x3B1D JUMP JUMPDEST JUMPDEST PUSH1 0x0 PUSH2 0x3153 DUP6 DUP3 DUP7 ADD PUSH2 0x306B JUMP JUMPDEST SWAP3 POP POP PUSH1 0x20 PUSH2 0x3164 DUP6 DUP3 DUP7 ADD PUSH2 0x30AA JUMP JUMPDEST SWAP2 POP POP SWAP3 POP SWAP3 SWAP1 POP JUMP JUMPDEST PUSH1 0x0 PUSH1 0x20 DUP3 DUP5 SUB SLT ISZERO PUSH2 0x3184 JUMPI PUSH2 0x3183 PUSH2 0x3B1D JUMP JUMPDEST JUMPDEST PUSH1 0x0 PUSH2 0x3192 DUP5 DUP3 DUP6 ADD PUSH2 0x3095 JUMP JUMPDEST SWAP2 POP POP SWAP3 SWAP2 POP POP JUMP JUMPDEST PUSH1 0x0 PUSH1 0x20 DUP3 DUP5 SUB SLT ISZERO PUSH2 0x31B1 JUMPI PUSH2 0x31B0 PUSH2 0x3B1D JUMP JUMPDEST JUMPDEST PUSH1 0x0 PUSH2 0x31BF DUP5 DUP3 DUP6 ADD PUSH2 0x30AA JUMP JUMPDEST SWAP2 POP POP SWAP3 SWAP2 POP POP JUMP JUMPDEST PUSH1 0x0 PUSH1 0x20 DUP3 DUP5 SUB SLT ISZERO PUSH2 0x31DE JUMPI PUSH2 0x31DD PUSH2 0x3B1D JUMP JUMPDEST JUMPDEST PUSH1 0x0 PUSH2 0x31EC DUP5 DUP3 DUP6 ADD PUSH2 0x30BF JUMP JUMPDEST SWAP2 POP POP SWAP3 SWAP2 POP POP JUMP JUMPDEST PUSH1 0x0 DUP1 PUSH1 0x40 DUP4 DUP6 SUB SLT ISZERO PUSH2 0x320C JUMPI PUSH2 0x320B PUSH2 0x3B1D JUMP JUMPDEST JUMPDEST PUSH1 0x0 PUSH2 0x321A DUP6 DUP3 DUP7 ADD PUSH2 0x30AA JUMP JUMPDEST SWAP3 POP POP PUSH1 0x20 PUSH2 0x322B DUP6 DUP3 DUP7 ADD PUSH2 0x30AA JUMP JUMPDEST SWAP2 POP POP SWAP3 POP SWAP3 SWAP1 POP JUMP JUMPDEST PUSH1 0x0 PUSH2 0x3241 DUP4 DUP4 PUSH2 0x3265 JUMP JUMPDEST PUSH1 0x20 DUP4 ADD SWAP1 POP SWAP3 SWAP2 POP POP JUMP JUMPDEST PUSH1 0x0 PUSH2 0x3259 DUP4 DUP4 PUSH2 0x34F2 JUMP JUMPDEST PUSH1 0x20 DUP4 ADD SWAP1 POP SWAP3 SWAP2 POP POP JUMP JUMPDEST PUSH2 0x326E DUP2 PUSH2 0x3977 JUMP JUMPDEST DUP3 MSTORE POP POP JUMP JUMPDEST PUSH2 0x327D DUP2 PUSH2 0x3977 JUMP JUMPDEST DUP3 MSTORE POP POP JUMP JUMPDEST PUSH1 0x0 PUSH2 0x328E DUP3 PUSH2 0x37FF JUMP JUMPDEST PUSH2 0x3298 DUP2 DUP6 PUSH2 0x382F JUMP JUMPDEST SWAP4 POP PUSH2 0x32A3 DUP4 PUSH2 0x37DF JUMP JUMPDEST DUP1 PUSH1 0x0 JUMPDEST DUP4 DUP2 LT ISZERO PUSH2 0x32D4 JUMPI DUP2 MLOAD PUSH2 0x32BB DUP9 DUP3 PUSH2 0x3235 JUMP JUMPDEST SWAP8 POP PUSH2 0x32C6 DUP4 PUSH2 0x3815 JUMP JUMPDEST SWAP3 POP POP PUSH1 0x1 DUP2 ADD SWAP1 POP PUSH2 0x32A7 JUMP JUMPDEST POP DUP6 SWAP4 POP POP POP POP SWAP3 SWAP2 POP POP JUMP JUMPDEST PUSH1 0x0 PUSH2 0x32EC DUP3 PUSH2 0x380A JUMP JUMPDEST PUSH2 0x32F6 DUP2 DUP6 PUSH2 0x3840 JUMP JUMPDEST SWAP4 POP PUSH2 0x3301 DUP4 PUSH2 0x37EF JUMP JUMPDEST DUP1 PUSH1 0x0 JUMPDEST DUP4 DUP2 LT ISZERO PUSH2 0x3332 JUMPI DUP2 MLOAD PUSH2 0x3319 DUP9 DUP3 PUSH2 0x324D JUMP JUMPDEST SWAP8 POP PUSH2 0x3324 DUP4 PUSH2 0x3822 JUMP JUMPDEST SWAP3 POP POP PUSH1 0x1 DUP2 ADD SWAP1 POP PUSH2 0x3305 JUMP JUMPDEST POP DUP6 SWAP4 POP POP POP POP SWAP3 SWAP2 POP POP JUMP JUMPDEST PUSH2 0x3348 DUP2 PUSH2 0x3989 JUMP JUMPDEST DUP3 MSTORE POP POP JUMP JUMPDEST PUSH1 0x0 PUSH2 0x335B PUSH1 0x1D DUP4 PUSH2 0x3851 JUMP JUMPDEST SWAP2 POP PUSH2 0x3366 DUP3 PUSH2 0x3B22 JUMP JUMPDEST PUSH1 0x20 DUP3 ADD SWAP1 POP SWAP2 SWAP1 POP JUMP JUMPDEST PUSH1 0x0 PUSH2 0x337E PUSH1 0xD DUP4 PUSH2 0x3851 JUMP JUMPDEST SWAP2 POP PUSH2 0x3389 DUP3 PUSH2 0x3B4B JUMP JUMPDEST PUSH1 0x20 DUP3 ADD SWAP1 POP SWAP2 SWAP1 POP JUMP JUMPDEST PUSH1 0x0 PUSH2 0x33A1 PUSH1 0x26 DUP4 PUSH2 0x3851 JUMP JUMPDEST SWAP2 POP PUSH2 0x33AC DUP3 PUSH2 0x3B74 JUMP JUMPDEST PUSH1 0x40 DUP3 ADD SWAP1 POP SWAP2 SWAP1 POP JUMP JUMPDEST PUSH1 0x0 PUSH2 0x33C4 PUSH1 0x17 DUP4 PUSH2 0x3851 JUMP JUMPDEST SWAP2 POP PUSH2 0x33CF DUP3 PUSH2 0x3BC3 JUMP JUMPDEST PUSH1 0x20 DUP3 ADD SWAP1 POP SWAP2 SWAP1 POP JUMP JUMPDEST PUSH1 0x0 PUSH2 0x33E7 PUSH1 0x18 DUP4 PUSH2 0x3851 JUMP JUMPDEST SWAP2 POP PUSH2 0x33F2 DUP3 PUSH2 0x3BEC JUMP JUMPDEST PUSH1 0x20 DUP3 ADD SWAP1 POP SWAP2 SWAP1 POP JUMP JUMPDEST PUSH1 0x0 PUSH2 0x340A PUSH1 0x9 DUP4 PUSH2 0x3851 JUMP JUMPDEST SWAP2 POP PUSH2 0x3415 DUP3 PUSH2 0x3C15 JUMP JUMPDEST PUSH1 0x20 DUP3 ADD SWAP1 POP SWAP2 SWAP1 POP JUMP JUMPDEST PUSH1 0x0 PUSH2 0x342D PUSH1 0x14 DUP4 PUSH2 0x3851 JUMP JUMPDEST SWAP2 POP PUSH2 0x3438 DUP3 PUSH2 0x3C3E JUMP JUMPDEST PUSH1 0x20 DUP3 ADD SWAP1 POP SWAP2 SWAP1 POP JUMP JUMPDEST PUSH1 0x0 PUSH2 0x3450 PUSH1 0x28 DUP4 PUSH2 0x3851 JUMP JUMPDEST SWAP2 POP PUSH2 0x345B DUP3 PUSH2 0x3C67 JUMP JUMPDEST PUSH1 0x40 DUP3 ADD SWAP1 POP SWAP2 SWAP1 POP JUMP JUMPDEST PUSH1 0x0 PUSH2 0x3473 PUSH1 0x14 DUP4 PUSH2 0x3851 JUMP JUMPDEST SWAP2 POP PUSH2 0x347E DUP3 PUSH2 0x3CB6 JUMP JUMPDEST PUSH1 0x20 DUP3 ADD SWAP1 POP SWAP2 SWAP1 POP JUMP JUMPDEST PUSH1 0x0 PUSH2 0x3496 PUSH1 0x20 DUP4 PUSH2 0x3851 JUMP JUMPDEST SWAP2 POP PUSH2 0x34A1 DUP3 PUSH2 0x3CDF JUMP JUMPDEST PUSH1 0x20 DUP3 ADD SWAP1 POP SWAP2 SWAP1 POP JUMP JUMPDEST PUSH1 0x0 PUSH2 0x34B9 PUSH1 0x14 DUP4 PUSH2 0x3851 JUMP JUMPDEST SWAP2 POP PUSH2 0x34C4 DUP3 PUSH2 0x3D08 JUMP JUMPDEST PUSH1 0x20 DUP3 ADD SWAP1 POP SWAP2 SWAP1 POP JUMP JUMPDEST PUSH1 0x0 PUSH2 0x34DC PUSH1 0x47 DUP4 PUSH2 0x3851 JUMP JUMPDEST SWAP2 POP PUSH2 0x34E7 DUP3 PUSH2 0x3D31 JUMP JUMPDEST PUSH1 0x60 DUP3 ADD SWAP1 POP SWAP2 SWAP1 POP JUMP JUMPDEST PUSH2 0x34FB DUP2 PUSH2 0x39B5 JUMP JUMPDEST DUP3 MSTORE POP POP JUMP JUMPDEST PUSH2 0x350A DUP2 PUSH2 0x39B5 JUMP JUMPDEST DUP3 MSTORE POP POP JUMP JUMPDEST PUSH1 0x0 PUSH1 0x20 DUP3 ADD SWAP1 POP PUSH2 0x3525 PUSH1 0x0 DUP4 ADD DUP5 PUSH2 0x3274 JUMP JUMPDEST SWAP3 SWAP2 POP POP JUMP JUMPDEST PUSH1 0x0 PUSH1 0x40 DUP3 ADD SWAP1 POP PUSH2 0x3540 PUSH1 0x0 DUP4 ADD DUP6 PUSH2 0x3274 JUMP JUMPDEST PUSH2 0x354D PUSH1 0x20 DUP4 ADD DUP5 PUSH2 0x3274 JUMP JUMPDEST SWAP4 SWAP3 POP POP POP JUMP JUMPDEST PUSH1 0x0 PUSH1 0x60 DUP3 ADD SWAP1 POP PUSH2 0x3569 PUSH1 0x0 DUP4 ADD DUP7 PUSH2 0x3274 JUMP JUMPDEST PUSH2 0x3576 PUSH1 0x20 DUP4 ADD DUP6 PUSH2 0x3274 JUMP JUMPDEST PUSH2 0x3583 PUSH1 0x40 DUP4 ADD DUP5 PUSH2 0x3501 JUMP JUMPDEST SWAP5 SWAP4 POP POP POP POP JUMP JUMPDEST PUSH1 0x0 PUSH1 0x40 DUP3 ADD SWAP1 POP PUSH2 0x35A0 PUSH1 0x0 DUP4 ADD DUP6 PUSH2 0x3274 JUMP JUMPDEST PUSH2 0x35AD PUSH1 0x20 DUP4 ADD DUP5 PUSH2 0x3501 JUMP JUMPDEST SWAP4 SWAP3 POP POP POP JUMP JUMPDEST PUSH1 0x0 PUSH1 0x60 DUP3 ADD SWAP1 POP DUP2 DUP2 SUB PUSH1 0x0 DUP4 ADD MSTORE PUSH2 0x35CE DUP2 DUP7 PUSH2 0x32E1 JUMP JUMPDEST SWAP1 POP DUP2 DUP2 SUB PUSH1 0x20 DUP4 ADD MSTORE PUSH2 0x35E2 DUP2 DUP6 PUSH2 0x3283 JUMP JUMPDEST SWAP1 POP DUP2 DUP2 SUB PUSH1 0x40 DUP4 ADD MSTORE PUSH2 0x35F6 DUP2 DUP5 PUSH2 0x32E1 JUMP JUMPDEST SWAP1 POP SWAP5 SWAP4 POP POP POP POP JUMP JUMPDEST PUSH1 0x0 PUSH1 0x20 DUP3 ADD SWAP1 POP PUSH2 0x3615 PUSH1 0x0 DUP4 ADD DUP5 PUSH2 0x333F JUMP JUMPDEST SWAP3 SWAP2 POP POP JUMP JUMPDEST PUSH1 0x0 PUSH1 0x20 DUP3 ADD SWAP1 POP DUP2 DUP2 SUB PUSH1 0x0 DUP4 ADD MSTORE PUSH2 0x3634 DUP2 PUSH2 0x334E JUMP JUMPDEST SWAP1 POP SWAP2 SWAP1 POP JUMP JUMPDEST PUSH1 0x0 PUSH1 0x20 DUP3 ADD SWAP1 POP DUP2 DUP2 SUB PUSH1 0x0 DUP4 ADD MSTORE PUSH2 0x3654 DUP2 PUSH2 0x3371 JUMP JUMPDEST SWAP1 POP SWAP2 SWAP1 POP JUMP JUMPDEST PUSH1 0x0 PUSH1 0x20 DUP3 ADD SWAP1 POP DUP2 DUP2 SUB PUSH1 0x0 DUP4 ADD MSTORE PUSH2 0x3674 DUP2 PUSH2 0x3394 JUMP JUMPDEST SWAP1 POP SWAP2 SWAP1 POP JUMP JUMPDEST PUSH1 0x0 PUSH1 0x20 DUP3 ADD SWAP1 POP DUP2 DUP2 SUB PUSH1 0x0 DUP4 ADD MSTORE PUSH2 0x3694 DUP2 PUSH2 0x33B7 JUMP JUMPDEST SWAP1 POP SWAP2 SWAP1 POP JUMP JUMPDEST PUSH1 0x0 PUSH1 0x20 DUP3 ADD SWAP1 POP DUP2 DUP2 SUB PUSH1 0x0 DUP4 ADD MSTORE PUSH2 0x36B4 DUP2 PUSH2 0x33DA JUMP JUMPDEST SWAP1 POP SWAP2 SWAP1 POP JUMP JUMPDEST PUSH1 0x0 PUSH1 0x20 DUP3 ADD SWAP1 POP DUP2 DUP2 SUB PUSH1 0x0 DUP4 ADD MSTORE PUSH2 0x36D4 DUP2 PUSH2 0x33FD JUMP JUMPDEST SWAP1 POP SWAP2 SWAP1 POP JUMP JUMPDEST PUSH1 0x0 PUSH1 0x20 DUP3 ADD SWAP1 POP DUP2 DUP2 SUB PUSH1 0x0 DUP4 ADD MSTORE PUSH2 0x36F4 DUP2 PUSH2 0x3420 JUMP JUMPDEST SWAP1 POP SWAP2 SWAP1 POP JUMP JUMPDEST PUSH1 0x0 PUSH1 0x20 DUP3 ADD SWAP1 POP DUP2 DUP2 SUB PUSH1 0x0 DUP4 ADD MSTORE PUSH2 0x3714 DUP2 PUSH2 0x3443 JUMP JUMPDEST SWAP1 POP SWAP2 SWAP1 POP JUMP JUMPDEST PUSH1 0x0 PUSH1 0x20 DUP3 ADD SWAP1 POP DUP2 DUP2 SUB PUSH1 0x0 DUP4 ADD MSTORE PUSH2 0x3734 DUP2 PUSH2 0x3466 JUMP JUMPDEST SWAP1 POP SWAP2 SWAP1 POP JUMP JUMPDEST PUSH1 0x0 PUSH1 0x20 DUP3 ADD SWAP1 POP DUP2 DUP2 SUB PUSH1 0x0 DUP4 ADD MSTORE PUSH2 0x3754 DUP2 PUSH2 0x3489 JUMP JUMPDEST SWAP1 POP SWAP2 SWAP1 POP JUMP JUMPDEST PUSH1 0x0 PUSH1 0x20 DUP3 ADD SWAP1 POP DUP2 DUP2 SUB PUSH1 0x0 DUP4 ADD MSTORE PUSH2 0x3774 DUP2 PUSH2 0x34AC JUMP JUMPDEST SWAP1 POP SWAP2 SWAP1 POP JUMP JUMPDEST PUSH1 0x0 PUSH1 0x20 DUP3 ADD SWAP1 POP DUP2 DUP2 SUB PUSH1 0x0 DUP4 ADD MSTORE PUSH2 0x3794 DUP2 PUSH2 0x34CF JUMP JUMPDEST SWAP1 POP SWAP2 SWAP1 POP JUMP JUMPDEST PUSH1 0x0 PUSH1 0x20 DUP3 ADD SWAP1 POP PUSH2 0x37B0 PUSH1 0x0 DUP4 ADD DUP5 PUSH2 0x3501 JUMP JUMPDEST SWAP3 SWAP2 POP POP JUMP JUMPDEST PUSH1 0x0 PUSH1 0x40 DUP3 ADD SWAP1 POP PUSH2 0x37CB PUSH1 0x0 DUP4 ADD DUP6 PUSH2 0x3501 JUMP JUMPDEST PUSH2 0x37D8 PUSH1 0x20 DUP4 ADD DUP5 PUSH2 0x3501 JUMP JUMPDEST SWAP4 SWAP3 POP POP POP JUMP JUMPDEST PUSH1 0x0 DUP2 SWAP1 POP PUSH1 0x20 DUP3 ADD SWAP1 POP SWAP2 SWAP1 POP JUMP JUMPDEST PUSH1 0x0 DUP2 SWAP1 POP PUSH1 0x20 DUP3 ADD SWAP1 POP SWAP2 SWAP1 POP JUMP JUMPDEST PUSH1 0x0 DUP2 MLOAD SWAP1 POP SWAP2 SWAP1 POP JUMP JUMPDEST PUSH1 0x0 DUP2 MLOAD SWAP1 POP SWAP2 SWAP1 POP JUMP JUMPDEST PUSH1 0x0 PUSH1 0x20 DUP3 ADD SWAP1 POP SWAP2 SWAP1 POP JUMP JUMPDEST PUSH1 0x0 PUSH1 0x20 DUP3 ADD SWAP1 POP SWAP2 SWAP1 POP JUMP JUMPDEST PUSH1 0x0 DUP3 DUP3 MSTORE PUSH1 0x20 DUP3 ADD SWAP1 POP SWAP3 SWAP2 POP POP JUMP JUMPDEST PUSH1 0x0 DUP3 DUP3 MSTORE PUSH1 0x20 DUP3 ADD SWAP1 POP SWAP3 SWAP2 POP POP JUMP JUMPDEST PUSH1 0x0 DUP3 DUP3 MSTORE PUSH1 0x20 DUP3 ADD SWAP1 POP SWAP3 SWAP2 POP POP JUMP JUMPDEST PUSH1 0x0 PUSH2 0x386D DUP3 PUSH2 0x39B5 JUMP JUMPDEST SWAP2 POP PUSH2 0x3878 DUP4 PUSH2 0x39B5 JUMP JUMPDEST SWAP3 POP DUP3 PUSH32 0xFFFFFFFFFFFFFFFFFFFFFFFFFFFFFFFFFFFFFFFFFFFFFFFFFFFFFFFFFFFFFFFF SUB DUP3 GT ISZERO PUSH2 0x38AD JUMPI PUSH2 0x38AC PUSH2 0x3A32 JUMP JUMPDEST JUMPDEST DUP3 DUP3 ADD SWAP1 POP SWAP3 SWAP2 POP POP JUMP JUMPDEST PUSH1 0x0 PUSH2 0x38C3 DUP3 PUSH2 0x39B5 JUMP JUMPDEST SWAP2 POP PUSH2 0x38CE DUP4 PUSH2 0x39B5 JUMP JUMPDEST SWAP3 POP DUP3 PUSH2 0x38DE JUMPI PUSH2 0x38DD PUSH2 0x3A61 JUMP JUMPDEST JUMPDEST DUP3 DUP3 DIV SWAP1 POP SWAP3 SWAP2 POP POP JUMP JUMPDEST PUSH1 0x0 PUSH2 0x38F4 DUP3 PUSH2 0x39B5 JUMP JUMPDEST SWAP2 POP PUSH2 0x38FF DUP4 PUSH2 0x39B5 JUMP JUMPDEST SWAP3 POP DUP2 PUSH32 0xFFFFFFFFFFFFFFFFFFFFFFFFFFFFFFFFFFFFFFFFFFFFFFFFFFFFFFFFFFFFFFFF DIV DUP4 GT DUP3 ISZERO ISZERO AND ISZERO PUSH2 0x3938 JUMPI PUSH2 0x3937 PUSH2 0x3A32 JUMP JUMPDEST JUMPDEST DUP3 DUP3 MUL SWAP1 POP SWAP3 SWAP2 POP POP JUMP JUMPDEST PUSH1 0x0 PUSH2 0x394E DUP3 PUSH2 0x39B5 JUMP JUMPDEST SWAP2 POP PUSH2 0x3959 DUP4 PUSH2 0x39B5 JUMP JUMPDEST SWAP3 POP DUP3 DUP3 LT ISZERO PUSH2 0x396C JUMPI PUSH2 0x396B PUSH2 0x3A32 JUMP JUMPDEST JUMPDEST DUP3 DUP3 SUB SWAP1 POP SWAP3 SWAP2 POP POP JUMP JUMPDEST PUSH1 0x0 PUSH2 0x3982 DUP3 PUSH2 0x3995 JUMP JUMPDEST SWAP1 POP SWAP2 SWAP1 POP JUMP JUMPDEST PUSH1 0x0 DUP2 ISZERO ISZERO SWAP1 POP SWAP2 SWAP1 POP JUMP JUMPDEST PUSH1 0x0 PUSH20 0xFFFFFFFFFFFFFFFFFFFFFFFFFFFFFFFFFFFFFFFF DUP3 AND SWAP1 POP SWAP2 SWAP1 POP JUMP JUMPDEST PUSH1 0x0 DUP2 SWAP1 POP SWAP2 SWAP1 POP JUMP JUMPDEST PUSH1 0x0 PUSH2 0x39CA DUP3 PUSH2 0x39B5 JUMP JUMPDEST SWAP2 POP PUSH1 0x0 DUP3 EQ ISZERO PUSH2 0x39DE JUMPI PUSH2 0x39DD PUSH2 0x3A32 JUMP JUMPDEST JUMPDEST PUSH1 0x1 DUP3 SUB SWAP1 POP SWAP2 SWAP1 POP JUMP JUMPDEST PUSH1 0x0 PUSH2 0x39F4 DUP3 PUSH2 0x39B5 JUMP JUMPDEST SWAP2 POP PUSH32 0xFFFFFFFFFFFFFFFFFFFFFFFFFFFFFFFFFFFFFFFFFFFFFFFFFFFFFFFFFFFFFFFF DUP3 EQ ISZERO PUSH2 0x3A27 JUMPI PUSH2 0x3A26 PUSH2 0x3A32 JUMP JUMPDEST JUMPDEST PUSH1 0x1 DUP3 ADD SWAP1 POP SWAP2 SWAP1 POP JUMP JUMPDEST PUSH32 0x4E487B7100000000000000000000000000000000000000000000000000000000 PUSH1 0x0 MSTORE PUSH1 0x11 PUSH1 0x4 MSTORE PUSH1 0x24 PUSH1 0x0 REVERT JUMPDEST PUSH32 0x4E487B7100000000000000000000000000000000000000000000000000000000 PUSH1 0x0 MSTORE PUSH1 0x12 PUSH1 0x4 MSTORE PUSH1 0x24 PUSH1 0x0 REVERT JUMPDEST PUSH32 0x4E487B7100000000000000000000000000000000000000000000000000000000 PUSH1 0x0 MSTORE PUSH1 0x31 PUSH1 0x4 MSTORE PUSH1 0x24 PUSH1 0x0 REVERT JUMPDEST PUSH32 0x4E487B7100000000000000000000000000000000000000000000000000000000 PUSH1 0x0 MSTORE PUSH1 0x32 PUSH1 0x4 MSTORE PUSH1 0x24 PUSH1 0x0 REVERT JUMPDEST PUSH32 0x4E487B7100000000000000000000000000000000000000000000000000000000 PUSH1 0x0 MSTORE PUSH1 0x41 PUSH1 0x4 MSTORE PUSH1 0x24 PUSH1 0x0 REVERT JUMPDEST PUSH1 0x0 DUP1 REVERT JUMPDEST PUSH32 0x73656C6C6572206E6565642068617665207468697320746F6B656E6964000000 PUSH1 0x0 DUP3 ADD MSTORE POP JUMP JUMPDEST PUSH32 0x69742069732073656C6C696E6700000000000000000000000000000000000000 PUSH1 0x0 DUP3 ADD MSTORE POP JUMP JUMPDEST PUSH32 0x4F776E61626C653A206E6577206F776E657220697320746865207A65726F2061 PUSH1 0x0 DUP3 ADD MSTORE PUSH32 0x6464726573730000000000000000000000000000000000000000000000000000 PUSH1 0x20 DUP3 ADD MSTORE POP JUMP JUMPDEST PUSH32 0x416D6F756E74203E2030202626203C2042616C616E6365000000000000000000 PUSH1 0x0 DUP3 ADD MSTORE POP JUMP JUMPDEST PUSH32 0x46726F6D20616E6420546F2063616E206E6F742073616D650000000000000000 PUSH1 0x0 DUP3 ADD MSTORE POP JUMP JUMPDEST PUSH32 0x5072696365203E20300000000000000000000000000000000000000000000000 PUSH1 0x0 DUP3 ADD MSTORE POP JUMP JUMPDEST PUSH32 0x4E6F7420696E207468697320636F6E7472616374000000000000000000000000 PUSH1 0x0 DUP3 ADD MSTORE POP JUMP JUMPDEST PUSH32 0x596F75206E65656420417070726F766520466F7220416C6C20746F2074686973 PUSH1 0x0 DUP3 ADD MSTORE PUSH32 0x20636F6E74616374000000000000000000000000000000000000000000000000 PUSH1 0x20 DUP3 ADD MSTORE POP JUMP JUMPDEST PUSH32 0x416464726573732063616E206E6F74207A65726F000000000000000000000000 PUSH1 0x0 DUP3 ADD MSTORE POP JUMP JUMPDEST PUSH32 0x4F776E61626C653A2063616C6C6572206973206E6F7420746865206F776E6572 PUSH1 0x0 DUP3 ADD MSTORE POP JUMP JUMPDEST PUSH32 0x56696353686F7365206E6F7420696E2073656C6C000000000000000000000000 PUSH1 0x0 DUP3 ADD MSTORE POP JUMP JUMPDEST PUSH32 0x546865206D6F6E657920616C6C6F776564206973206E6F7420656E6F75676820 PUSH1 0x0 DUP3 ADD MSTORE PUSH32 0x746F206275792073686F65732E20596F75206E65656420617070726F7665206D PUSH1 0x20 DUP3 ADD MSTORE PUSH32 0x6F72652056494D00000000000000000000000000000000000000000000000000 PUSH1 0x40 DUP3 ADD MSTORE POP JUMP JUMPDEST PUSH2 0x3DAF DUP2 PUSH2 0x3977 JUMP JUMPDEST DUP2 EQ PUSH2 0x3DBA JUMPI PUSH1 0x0 DUP1 REVERT JUMPDEST POP JUMP JUMPDEST PUSH2 0x3DC6 DUP2 PUSH2 0x3989 JUMP JUMPDEST DUP2 EQ PUSH2 0x3DD1 JUMPI PUSH1 0x0 DUP1 REVERT JUMPDEST POP JUMP JUMPDEST PUSH2 0x3DDD DUP2 PUSH2 0x39B5 JUMP JUMPDEST DUP2 EQ PUSH2 0x3DE8 JUMPI PUSH1 0x0 DUP1 REVERT JUMPDEST POP JUMP INVALID LOG2 PUSH5 0x6970667358 0x22 SLT KECCAK256 0x4B 0xB7 0xA5 CODESIZE DUP11 0xEC 0xEC 0x21 LOG4 SELFDESTRUCT 0x4E PUSH13 0xF28F5901881A76C197D83DB57 0xBD 0xF9 RETURN JUMP SLT PUSH24 0xFA64736F6C63430008070033000000000000000000000000 "
				},
				"gasEstimates": {
					"creation": {
						"codeDepositCost": "3181000",
						"executionCost": "infinite",
						"totalCost": "infinite"
					},
					"external": {
						"BuyVicShose(uint256)": "infinite",
						"CancelSellVicShose(uint256)": "infinite",
						"LiquidPool()": "2627",
						"MinBnB()": "2474",
						"Pool2()": "2581",
						"SellVicShose(uint256,uint256)": "infinite",
						"ShoseNFTContract()": "2558",
						"Treasury()": "2560",
						"VIMContract()": "2603",
						"WBNBContract()": "2561",
						"checkShoseTranfer(uint256)": "2933",
						"getBalanceBNB()": "450",
						"getBalanceToken(address)": "infinite",
						"getMINPrice()": "infinite",
						"getSellingShose()": "infinite",
						"isOwner()": "2621",
						"owner()": "2590",
						"pause()": "29994",
						"paused()": "2611",
						"renounceOwnership()": "30374",
						"sentNFT2Pool2(uint256)": "infinite",
						"sentT2Pool2BNB(uint256)": "infinite",
						"sentT2Pool2Token(address,uint256)": "infinite",
						"setLiquidPool(address)": "infinite",
						"setMinBNB(uint256)": "infinite",
						"setPool2(address)": "27029",
						"setShoseNFTContract(address)": "infinite",
						"setTax(uint256)": "24874",
						"setTreasury(address)": "infinite",
						"setVIMContract(address)": "infinite",
						"transferOwnership(address)": "30839",
						"transferVicShose(address,uint256)": "infinite",
						"unpause()": "29926"
					},
					"internal": {
						"addNFTSell(uint256,uint256,address)": "infinite",
						"removeNFTSell(uint256)": "infinite"
					}
				},
				"methodIdentifiers": {
					"BuyVicShose(uint256)": "7880e606",
					"CancelSellVicShose(uint256)": "4dd79f10",
					"LiquidPool()": "36c3b4e2",
					"MinBnB()": "bcfcba76",
					"Pool2()": "ac4b3b0a",
					"SellVicShose(uint256,uint256)": "83d58215",
					"ShoseNFTContract()": "d8882779",
					"Treasury()": "563df32f",
					"VIMContract()": "b5620229",
					"WBNBContract()": "0ff32839",
					"checkShoseTranfer(uint256)": "59464217",
					"getBalanceBNB()": "bc127127",
					"getBalanceToken(address)": "48eca45c",
					"getMINPrice()": "ea156f44",
					"getSellingShose()": "99bc1bfb",
					"isOwner()": "8f32d59b",
					"owner()": "8da5cb5b",
					"pause()": "8456cb59",
					"paused()": "5c975abb",
					"renounceOwnership()": "715018a6",
					"sentNFT2Pool2(uint256)": "d57b6a4a",
					"sentT2Pool2BNB(uint256)": "d1f19989",
					"sentT2Pool2Token(address,uint256)": "8cef6437",
					"setLiquidPool(address)": "a888a93a",
					"setMinBNB(uint256)": "de281e28",
					"setPool2(address)": "cc24c800",
					"setShoseNFTContract(address)": "458a635a",
					"setTax(uint256)": "2e5bb6ff",
					"setTreasury(address)": "f0f44260",
					"setVIMContract(address)": "1ecff38e",
					"transferOwnership(address)": "f2fde38b",
					"transferVicShose(address,uint256)": "5c9e0d10",
					"unpause()": "3f4ba83a"
				}
			},
			"storageLayout": {
				"storage": [
					{
						"astId": 332,
						"contract": "marketplace.sol:marketplace",
						"label": "_owner",
						"offset": 0,
						"slot": "0",
						"type": "t_address"
					},
					{
						"astId": 467,
						"contract": "marketplace.sol:marketplace",
						"label": "paused",
						"offset": 20,
						"slot": "0",
						"type": "t_bool"
					},
					{
						"astId": 773,
						"contract": "marketplace.sol:marketplace",
						"label": "Treasury",
						"offset": 0,
						"slot": "1",
						"type": "t_address"
					},
					{
						"astId": 775,
						"contract": "marketplace.sol:marketplace",
						"label": "LiquidPool",
						"offset": 0,
						"slot": "2",
						"type": "t_address"
					},
					{
						"astId": 777,
						"contract": "marketplace.sol:marketplace",
						"label": "ShoseNFTContract",
						"offset": 0,
						"slot": "3",
						"type": "t_address"
					},
					{
						"astId": 779,
						"contract": "marketplace.sol:marketplace",
						"label": "VIMContract",
						"offset": 0,
						"slot": "4",
						"type": "t_address"
					},
					{
						"astId": 781,
						"contract": "marketplace.sol:marketplace",
						"label": "WBNBContract",
						"offset": 0,
						"slot": "5",
						"type": "t_address"
					},
					{
						"astId": 783,
						"contract": "marketplace.sol:marketplace",
						"label": "MinBnB",
						"offset": 0,
						"slot": "6",
						"type": "t_uint256"
					},
					{
						"astId": 785,
						"contract": "marketplace.sol:marketplace",
						"label": "tax",
						"offset": 0,
						"slot": "7",
						"type": "t_uint256"
					},
					{
						"astId": 787,
						"contract": "marketplace.sol:marketplace",
						"label": "Pool2",
						"offset": 0,
						"slot": "8",
						"type": "t_address"
					},
					{
						"astId": 791,
						"contract": "marketplace.sol:marketplace",
						"label": "shoseTranfer",
						"offset": 0,
						"slot": "9",
						"type": "t_mapping(t_uint256,t_address)"
					},
					{
						"astId": 795,
						"contract": "marketplace.sol:marketplace",
						"label": "shoseSell",
						"offset": 0,
						"slot": "10",
						"type": "t_mapping(t_uint256,t_uint256)"
					},
					{
						"astId": 799,
						"contract": "marketplace.sol:marketplace",
						"label": "shoseSeller",
						"offset": 0,
						"slot": "11",
						"type": "t_mapping(t_uint256,t_address)"
					},
					{
						"astId": 802,
						"contract": "marketplace.sol:marketplace",
						"label": "allTokensSell",
						"offset": 0,
						"slot": "12",
						"type": "t_array(t_uint256)dyn_storage"
					}
				],
				"types": {
					"t_address": {
						"encoding": "inplace",
						"label": "address",
						"numberOfBytes": "20"
					},
					"t_array(t_uint256)dyn_storage": {
						"base": "t_uint256",
						"encoding": "dynamic_array",
						"label": "uint256[]",
						"numberOfBytes": "32"
					},
					"t_bool": {
						"encoding": "inplace",
						"label": "bool",
						"numberOfBytes": "1"
					},
					"t_mapping(t_uint256,t_address)": {
						"encoding": "mapping",
						"key": "t_uint256",
						"label": "mapping(uint256 => address)",
						"numberOfBytes": "32",
						"value": "t_address"
					},
					"t_mapping(t_uint256,t_uint256)": {
						"encoding": "mapping",
						"key": "t_uint256",
						"label": "mapping(uint256 => uint256)",
						"numberOfBytes": "32",
						"value": "t_uint256"
					},
					"t_uint256": {
						"encoding": "inplace",
						"label": "uint256",
						"numberOfBytes": "32"
					}
				}
			},
			"userdoc": {
				"kind": "user",
				"methods": {},
				"version": 1
			}
		}
	}
}