{
	"marketplace.sol": {
		"marketplace": {
			"abi": [
				{
					"inputs": [],
					"stateMutability": "payable",
					"type": "constructor"
				},
				{
					"anonymous": false,
					"inputs": [
						{
							"indexed": true,
							"internalType": "address",
							"name": "previousOwner",
							"type": "address"
						},
						{
							"indexed": true,
							"internalType": "address",
							"name": "newOwner",
							"type": "address"
						}
					],
					"name": "OwnershipTransferred",
					"type": "event"
				},
				{
					"anonymous": false,
					"inputs": [],
					"name": "Pause",
					"type": "event"
				},
				{
					"anonymous": false,
					"inputs": [],
					"name": "Unpause",
					"type": "event"
				},
				{
					"anonymous": false,
					"inputs": [
						{
							"indexed": false,
							"internalType": "address",
							"name": "_LiquidPool",
							"type": "address"
						}
					],
					"name": "changeLiquidPool",
					"type": "event"
				},
				{
					"anonymous": false,
					"inputs": [
						{
							"indexed": false,
							"internalType": "uint256",
							"name": "_MinBnB",
							"type": "uint256"
						}
					],
					"name": "changeMinBnB",
					"type": "event"
				},
				{
					"anonymous": false,
					"inputs": [
						{
							"indexed": false,
							"internalType": "address",
							"name": "_ShoseNFTContract",
							"type": "address"
						}
					],
					"name": "changeShoseNFTContract",
					"type": "event"
				},
				{
					"anonymous": false,
					"inputs": [
						{
							"indexed": false,
							"internalType": "address",
							"name": "_Treasury",
							"type": "address"
						}
					],
					"name": "changeTreasury",
					"type": "event"
				},
				{
					"anonymous": false,
					"inputs": [
						{
							"indexed": false,
							"internalType": "address",
							"name": "_VIMContract",
							"type": "address"
						}
					],
					"name": "changeVIMContract",
					"type": "event"
				},
				{
					"anonymous": false,
					"inputs": [
						{
							"indexed": false,
							"internalType": "uint256",
							"name": "tokenId",
							"type": "uint256"
						}
					],
					"name": "eventBuyVicShose",
					"type": "event"
				},
				{
					"anonymous": false,
					"inputs": [
						{
							"indexed": false,
							"internalType": "uint256",
							"name": "tokenId",
							"type": "uint256"
						}
					],
					"name": "eventCancelSellVicShose",
					"type": "event"
				},
				{
					"anonymous": false,
					"inputs": [
						{
							"indexed": false,
							"internalType": "uint256",
							"name": "tokenId",
							"type": "uint256"
						},
						{
							"indexed": false,
							"internalType": "uint256",
							"name": "price",
							"type": "uint256"
						}
					],
					"name": "eventSellVicShose",
					"type": "event"
				},
				{
					"anonymous": false,
					"inputs": [
						{
							"indexed": false,
							"internalType": "address",
							"name": "to",
							"type": "address"
						},
						{
							"indexed": false,
							"internalType": "uint256",
							"name": "tokenId",
							"type": "uint256"
						}
					],
					"name": "eventtransferVicShose",
					"type": "event"
				},
				{
					"inputs": [
						{
							"internalType": "uint256",
							"name": "tokenId",
							"type": "uint256"
						}
					],
					"name": "BuyVicShose",
					"outputs": [],
					"stateMutability": "nonpayable",
					"type": "function"
				},
				{
					"inputs": [
						{
							"internalType": "uint256",
							"name": "tokenId",
							"type": "uint256"
						}
					],
					"name": "CancelSellVicShose",
					"outputs": [],
					"stateMutability": "nonpayable",
					"type": "function"
				},
				{
					"inputs": [],
					"name": "LiquidPool",
					"outputs": [
						{
							"internalType": "address",
							"name": "",
							"type": "address"
						}
					],
					"stateMutability": "view",
					"type": "function"
				},
				{
					"inputs": [],
					"name": "MinBnB",
					"outputs": [
						{
							"internalType": "uint256",
							"name": "",
							"type": "uint256"
						}
					],
					"stateMutability": "view",
					"type": "function"
				},
				{
					"inputs": [],
					"name": "Pool2",
					"outputs": [
						{
							"internalType": "address",
							"name": "",
							"type": "address"
						}
					],
					"stateMutability": "view",
					"type": "function"
				},
				{
					"inputs": [
						{
							"internalType": "uint256",
							"name": "tokenId",
							"type": "uint256"
						},
						{
							"internalType": "uint256",
							"name": "price",
							"type": "uint256"
						}
					],
					"name": "SellVicShose",
					"outputs": [],
					"stateMutability": "nonpayable",
					"type": "function"
				},
				{
					"inputs": [],
					"name": "ShoseNFTContract",
					"outputs": [
						{
							"internalType": "address",
							"name": "",
							"type": "address"
						}
					],
					"stateMutability": "view",
					"type": "function"
				},
				{
					"inputs": [],
					"name": "Treasury",
					"outputs": [
						{
							"internalType": "address",
							"name": "",
							"type": "address"
						}
					],
					"stateMutability": "view",
					"type": "function"
				},
				{
					"inputs": [],
					"name": "VIMContract",
					"outputs": [
						{
							"internalType": "address",
							"name": "",
							"type": "address"
						}
					],
					"stateMutability": "view",
					"type": "function"
				},
				{
					"inputs": [],
					"name": "WBNBContract",
					"outputs": [
						{
							"internalType": "address",
							"name": "",
							"type": "address"
						}
					],
					"stateMutability": "view",
					"type": "function"
				},
				{
					"inputs": [
						{
							"internalType": "uint256",
							"name": "tokenId",
							"type": "uint256"
						}
					],
					"name": "checkShoseTranfer",
					"outputs": [
						{
							"internalType": "address",
							"name": "",
							"type": "address"
						}
					],
					"stateMutability": "view",
					"type": "function"
				},
				{
					"inputs": [],
					"name": "getBalanceBNB",
					"outputs": [
						{
							"internalType": "uint256",
							"name": "",
							"type": "uint256"
						}
					],
					"stateMutability": "view",
					"type": "function"
				},
				{
					"inputs": [
						{
							"internalType": "address",
							"name": "token",
							"type": "address"
						}
					],
					"name": "getBalanceToken",
					"outputs": [
						{
							"internalType": "uint256",
							"name": "",
							"type": "uint256"
						}
					],
					"stateMutability": "view",
					"type": "function"
				},
				{
					"inputs": [],
					"name": "getMINPrice",
					"outputs": [
						{
							"internalType": "uint256",
							"name": "",
							"type": "uint256"
						}
					],
					"stateMutability": "view",
					"type": "function"
				},
				{
					"inputs": [],
					"name": "getSellingShose",
					"outputs": [
						{
							"internalType": "uint256[]",
							"name": "_tokenID",
							"type": "uint256[]"
						},
						{
							"internalType": "address[]",
							"name": "_owner",
							"type": "address[]"
						},
						{
							"internalType": "uint256[]",
							"name": "_Price",
							"type": "uint256[]"
						}
					],
					"stateMutability": "view",
					"type": "function"
				},
				{
					"inputs": [],
					"name": "isOwner",
					"outputs": [
						{
							"internalType": "bool",
							"name": "",
							"type": "bool"
						}
					],
					"stateMutability": "view",
					"type": "function"
				},
				{
					"inputs": [],
					"name": "owner",
					"outputs": [
						{
							"internalType": "address",
							"name": "",
							"type": "address"
						}
					],
					"stateMutability": "view",
					"type": "function"
				},
				{
					"inputs": [],
					"name": "pause",
					"outputs": [
						{
							"internalType": "bool",
							"name": "",
							"type": "bool"
						}
					],
					"stateMutability": "nonpayable",
					"type": "function"
				},
				{
					"inputs": [],
					"name": "paused",
					"outputs": [
						{
							"internalType": "bool",
							"name": "",
							"type": "bool"
						}
					],
					"stateMutability": "view",
					"type": "function"
				},
				{
					"inputs": [],
					"name": "renounceOwnership",
					"outputs": [],
					"stateMutability": "nonpayable",
					"type": "function"
				},
				{
					"inputs": [
						{
							"internalType": "uint256",
							"name": "amount",
							"type": "uint256"
						}
					],
					"name": "sentT2Pool2BNB",
					"outputs": [],
					"stateMutability": "nonpayable",
					"type": "function"
				},
				{
					"inputs": [
						{
							"internalType": "address",
							"name": "tokenaddress",
							"type": "address"
						},
						{
							"internalType": "uint256",
							"name": "amount",
							"type": "uint256"
						}
					],
					"name": "sentT2Pool2Token",
					"outputs": [],
					"stateMutability": "nonpayable",
					"type": "function"
				},
				{
					"inputs": [
						{
							"internalType": "address",
							"name": "_LiquidPool",
							"type": "address"
						}
					],
					"name": "setLiquidPool",
					"outputs": [],
					"stateMutability": "nonpayable",
					"type": "function"
				},
				{
					"inputs": [
						{
							"internalType": "uint256",
							"name": "_MinBnB",
							"type": "uint256"
						}
					],
					"name": "setMinBNB",
					"outputs": [],
					"stateMutability": "nonpayable",
					"type": "function"
				},
				{
					"inputs": [
						{
							"internalType": "address",
							"name": "_Pool2",
							"type": "address"
						}
					],
					"name": "setPool2",
					"outputs": [],
					"stateMutability": "nonpayable",
					"type": "function"
				},
				{
					"inputs": [
						{
							"internalType": "address",
							"name": "_ShoseNFTContract",
							"type": "address"
						}
					],
					"name": "setShoseNFTContract",
					"outputs": [],
					"stateMutability": "nonpayable",
					"type": "function"
				},
				{
					"inputs": [
						{
							"internalType": "uint256",
							"name": "_Tax",
							"type": "uint256"
						}
					],
					"name": "setTax",
					"outputs": [],
					"stateMutability": "nonpayable",
					"type": "function"
				},
				{
					"inputs": [
						{
							"internalType": "address",
							"name": "_Treasury",
							"type": "address"
						}
					],
					"name": "setTreasury",
					"outputs": [],
					"stateMutability": "nonpayable",
					"type": "function"
				},
				{
					"inputs": [
						{
							"internalType": "address",
							"name": "_VIMContract",
							"type": "address"
						}
					],
					"name": "setVIMContract",
					"outputs": [],
					"stateMutability": "nonpayable",
					"type": "function"
				},
				{
					"inputs": [],
					"name": "test",
					"outputs": [],
					"stateMutability": "nonpayable",
					"type": "function"
				},
				{
					"inputs": [
						{
							"internalType": "address",
							"name": "newOwner",
							"type": "address"
						}
					],
					"name": "transferOwnership",
					"outputs": [],
					"stateMutability": "nonpayable",
					"type": "function"
				},
				{
					"inputs": [
						{
							"internalType": "address",
							"name": "to",
							"type": "address"
						},
						{
							"internalType": "uint256",
							"name": "tokenId",
							"type": "uint256"
						}
					],
					"name": "transferVicShose",
					"outputs": [],
					"stateMutability": "nonpayable",
					"type": "function"
				},
				{
					"inputs": [],
					"name": "unpause",
					"outputs": [
						{
							"internalType": "bool",
							"name": "",
							"type": "bool"
						}
					],
					"stateMutability": "nonpayable",
					"type": "function"
				},
				{
					"stateMutability": "payable",
					"type": "receive"
				}
			],
			"devdoc": {
				"kind": "dev",
				"methods": {
					"isOwner()": {
						"details": "Returns true if the caller is the current owner."
					},
					"owner()": {
						"details": "Returns the address of the current owner."
					},
					"pause()": {
						"details": "called by the owner to pause, triggers stopped state"
					},
					"renounceOwnership()": {
						"details": "Leaves the contract without owner. It will not be possible to call `onlyOwner` functions anymore. Can only be called by the current owner. NOTE: Renouncing ownership will leave the contract without an owner, thereby removing any functionality that is only available to the owner."
					},
					"transferOwnership(address)": {
						"details": "Transfers ownership of the contract to a new account (`newOwner`). Can only be called by the current owner."
					},
					"unpause()": {
						"details": "called by the owner to unpause, returns to normal state"
					}
				},
				"version": 1
			},
			"evm": {
				"assembly": "    /* \"marketplace.sol\":229:9797  contract marketplace is BEPPausable {... */\n  mstore(0x40, 0x80)\n    /* \"BEPPausable.sol\":293:298  false */\n  0x00\n    /* \"BEPPausable.sol\":272:298  bool public paused = false */\n  dup1\n  exp(0x0100, 0x14)\n  dup2\n  sload\n  dup2\n  0xff\n  mul\n  not\n  and\n  swap1\n  dup4\n  iszero\n  iszero\n  mul\n  or\n  swap1\n  sstore\n  pop\n    /* \"BEPOwnable.sol\":716:733  address msgSender */\n  0x00\n    /* \"BEPOwnable.sol\":736:748  _msgSender() */\n  tag_6\n    /* \"BEPOwnable.sol\":736:746  _msgSender */\n  shl(0x20, tag_7)\n    /* \"BEPOwnable.sol\":736:748  _msgSender() */\n  0x20\n  shr\n  jump\t// in\ntag_6:\n    /* \"BEPOwnable.sol\":716:748  address msgSender = _msgSender() */\n  swap1\n  pop\n    /* \"BEPOwnable.sol\":763:772  msgSender */\n  dup1\n    /* \"BEPOwnable.sol\":754:760  _owner */\n  0x00\n  dup1\n    /* \"BEPOwnable.sol\":754:772  _owner = msgSender */\n  0x0100\n  exp\n  dup2\n  sload\n  dup2\n  0xffffffffffffffffffffffffffffffffffffffff\n  mul\n  not\n  and\n  swap1\n  dup4\n  0xffffffffffffffffffffffffffffffffffffffff\n  and\n  mul\n  or\n  swap1\n  sstore\n  pop\n    /* \"BEPOwnable.sol\":816:825  msgSender */\n  dup1\n    /* \"BEPOwnable.sol\":783:826  OwnershipTransferred(address(0), msgSender) */\n  0xffffffffffffffffffffffffffffffffffffffff\n  and\n    /* \"BEPOwnable.sol\":812:813  0 */\n  0x00\n    /* \"BEPOwnable.sol\":783:826  OwnershipTransferred(address(0), msgSender) */\n  0xffffffffffffffffffffffffffffffffffffffff\n  and\n  0x8be0079c531659141344cd1fd0a4f28419497f9722a3daafe3b4186f6b6457e0\n  mload(0x40)\n  mload(0x40)\n  dup1\n  swap2\n  sub\n  swap1\n  log3\n    /* \"BEPOwnable.sol\":710:831  {... */\n  pop\n    /* \"marketplace.sol\":1218:1260  0xcb3745379275252F4beB5d1094bF1a8A09F368b7 */\n  0xcb3745379275252f4beb5d1094bf1a8a09f368b7\n    /* \"marketplace.sol\":1207:1215  Treasury */\n  0x01\n  0x00\n    /* \"marketplace.sol\":1207:1260  Treasury = 0xcb3745379275252F4beB5d1094bF1a8A09F368b7 */\n  0x0100\n  exp\n  dup2\n  sload\n  dup2\n  0xffffffffffffffffffffffffffffffffffffffff\n  mul\n  not\n  and\n  swap1\n  dup4\n  0xffffffffffffffffffffffffffffffffffffffff\n  and\n  mul\n  or\n  swap1\n  sstore\n  pop\n    /* \"marketplace.sol\":1283:1325  0xd295cF5D859B9Ed331cdF69c49A81Eff5e1Bee83 */\n  0xd295cf5d859b9ed331cdf69c49a81eff5e1bee83\n    /* \"marketplace.sol\":1270:1280  LiquidPool */\n  0x02\n  0x00\n    /* \"marketplace.sol\":1270:1325  LiquidPool = 0xd295cF5D859B9Ed331cdF69c49A81Eff5e1Bee83 */\n  0x0100\n  exp\n  dup2\n  sload\n  dup2\n  0xffffffffffffffffffffffffffffffffffffffff\n  mul\n  not\n  and\n  swap1\n  dup4\n  0xffffffffffffffffffffffffffffffffffffffff\n  and\n  mul\n  or\n  swap1\n  sstore\n  pop\n    /* \"marketplace.sol\":1354:1396  0xC184af52Ca4E1B1f085aA8236Ff8508F52dc6eA7 */\n  0xc184af52ca4e1b1f085aa8236ff8508f52dc6ea7\n    /* \"marketplace.sol\":1335:1351  ShoseNFTContract */\n  0x03\n  0x00\n    /* \"marketplace.sol\":1335:1396  ShoseNFTContract = 0xC184af52Ca4E1B1f085aA8236Ff8508F52dc6eA7 */\n  0x0100\n  exp\n  dup2\n  sload\n  dup2\n  0xffffffffffffffffffffffffffffffffffffffff\n  mul\n  not\n  and\n  swap1\n  dup4\n  0xffffffffffffffffffffffffffffffffffffffff\n  and\n  mul\n  or\n  swap1\n  sstore\n  pop\n    /* \"marketplace.sol\":1420:1462  0x5bcd91C734d665Fe426A5D7156f2aD7d37b76e30 */\n  0x5bcd91c734d665fe426a5d7156f2ad7d37b76e30\n    /* \"marketplace.sol\":1406:1417  VIMContract */\n  0x04\n  0x00\n    /* \"marketplace.sol\":1406:1462  VIMContract = 0x5bcd91C734d665Fe426A5D7156f2aD7d37b76e30 */\n  0x0100\n  exp\n  dup2\n  sload\n  dup2\n  0xffffffffffffffffffffffffffffffffffffffff\n  mul\n  not\n  and\n  swap1\n  dup4\n  0xffffffffffffffffffffffffffffffffffffffff\n  and\n  mul\n  or\n  swap1\n  sstore\n  pop\n    /* \"marketplace.sol\":1487:1529  0xbb4CdB9CBd36B01bD1cBaEBF2De08d9173bc095c */\n  0xbb4cdb9cbd36b01bd1cbaebf2de08d9173bc095c\n    /* \"marketplace.sol\":1472:1484  WBNBContract */\n  0x05\n  0x00\n    /* \"marketplace.sol\":1472:1529  WBNBContract = 0xbb4CdB9CBd36B01bD1cBaEBF2De08d9173bc095c */\n  0x0100\n  exp\n  dup2\n  sload\n  dup2\n  0xffffffffffffffffffffffffffffffffffffffff\n  mul\n  not\n  and\n  swap1\n  dup4\n  0xffffffffffffffffffffffffffffffffffffffff\n  and\n  mul\n  or\n  swap1\n  sstore\n  pop\n    /* \"marketplace.sol\":1547:1589  0xfA0E47A2d6a58b9fd7Ca1d4bFAADd11E8811824B */\n  0xfa0e47a2d6a58b9fd7ca1d4bfaadd11e8811824b\n    /* \"marketplace.sol\":1539:1544  Pool2 */\n  0x08\n  0x00\n    /* \"marketplace.sol\":1539:1589  Pool2 = 0xfA0E47A2d6a58b9fd7Ca1d4bFAADd11E8811824B */\n  0x0100\n  exp\n  dup2\n  sload\n  dup2\n  0xffffffffffffffffffffffffffffffffffffffff\n  mul\n  not\n  and\n  swap1\n  dup4\n  0xffffffffffffffffffffffffffffffffffffffff\n  and\n  mul\n  or\n  swap1\n  sstore\n  pop\n    /* \"marketplace.sol\":1608:1609  1 */\n  0x01\n    /* \"marketplace.sol\":1599:1605  MinBnB */\n  0x06\n    /* \"marketplace.sol\":1599:1609  MinBnB = 1 */\n  dup2\n  swap1\n  sstore\n  pop\n    /* \"marketplace.sol\":1625:1626  5 */\n  0x05\n    /* \"marketplace.sol\":1619:1622  tax */\n  0x07\n    /* \"marketplace.sol\":1619:1626  tax = 5 */\n  dup2\n  swap1\n  sstore\n  pop\n    /* \"marketplace.sol\":229:9797  contract marketplace is BEPPausable {... */\n  jump(tag_9)\n    /* \"BEPContext.sol\":760:859  function _msgSender() internal view returns (address payable) {... */\ntag_7:\n    /* \"BEPContext.sol\":805:820  address payable */\n  0x00\n    /* \"BEPContext.sol\":843:853  msg.sender */\n  caller\n    /* \"BEPContext.sol\":828:854  return payable(msg.sender) */\n  swap1\n  pop\n    /* \"BEPContext.sol\":760:859  function _msgSender() internal view returns (address payable) {... */\n  swap1\n  jump\t// out\n    /* \"marketplace.sol\":229:9797  contract marketplace is BEPPausable {... */\ntag_9:\n  dataSize(sub_0)\n  dup1\n  dataOffset(sub_0)\n  0x00\n  codecopy\n  0x00\n  return\nstop\n\nsub_0: assembly {\n        /* \"marketplace.sol\":229:9797  contract marketplace is BEPPausable {... */\n      mstore(0x40, 0x80)\n      jumpi(tag_1, lt(calldatasize, 0x04))\n      shr(0xe0, calldataload(0x00))\n      dup1\n      0x8cef6437\n      gt\n      tag_36\n      jumpi\n      dup1\n      0xbcfcba76\n      gt\n      tag_37\n      jumpi\n      dup1\n      0xde281e28\n      gt\n      tag_38\n      jumpi\n      dup1\n      0xde281e28\n      eq\n      tag_31\n      jumpi\n      dup1\n      0xea156f44\n      eq\n      tag_32\n      jumpi\n      dup1\n      0xf0f44260\n      eq\n      tag_33\n      jumpi\n      dup1\n      0xf2fde38b\n      eq\n      tag_34\n      jumpi\n      dup1\n      0xf8a8fd6d\n      eq\n      tag_35\n      jumpi\n      jump(tag_2)\n    tag_38:\n      dup1\n      0xbcfcba76\n      eq\n      tag_27\n      jumpi\n      dup1\n      0xcc24c800\n      eq\n      tag_28\n      jumpi\n      dup1\n      0xd1f19989\n      eq\n      tag_29\n      jumpi\n      dup1\n      0xd8882779\n      eq\n      tag_30\n      jumpi\n      jump(tag_2)\n    tag_37:\n      dup1\n      0xa888a93a\n      gt\n      tag_39\n      jumpi\n      dup1\n      0xa888a93a\n      eq\n      tag_23\n      jumpi\n      dup1\n      0xac4b3b0a\n      eq\n      tag_24\n      jumpi\n      dup1\n      0xb5620229\n      eq\n      tag_25\n      jumpi\n      dup1\n      0xbc127127\n      eq\n      tag_26\n      jumpi\n      jump(tag_2)\n    tag_39:\n      dup1\n      0x8cef6437\n      eq\n      tag_19\n      jumpi\n      dup1\n      0x8da5cb5b\n      eq\n      tag_20\n      jumpi\n      dup1\n      0x8f32d59b\n      eq\n      tag_21\n      jumpi\n      dup1\n      0x99bc1bfb\n      eq\n      tag_22\n      jumpi\n      jump(tag_2)\n    tag_36:\n      dup1\n      0x563df32f\n      gt\n      tag_40\n      jumpi\n      dup1\n      0x715018a6\n      gt\n      tag_41\n      jumpi\n      dup1\n      0x715018a6\n      eq\n      tag_15\n      jumpi\n      dup1\n      0x7880e606\n      eq\n      tag_16\n      jumpi\n      dup1\n      0x83d58215\n      eq\n      tag_17\n      jumpi\n      dup1\n      0x8456cb59\n      eq\n      tag_18\n      jumpi\n      jump(tag_2)\n    tag_41:\n      dup1\n      0x563df32f\n      eq\n      tag_11\n      jumpi\n      dup1\n      0x59464217\n      eq\n      tag_12\n      jumpi\n      dup1\n      0x5c975abb\n      eq\n      tag_13\n      jumpi\n      dup1\n      0x5c9e0d10\n      eq\n      tag_14\n      jumpi\n      jump(tag_2)\n    tag_40:\n      dup1\n      0x3f4ba83a\n      gt\n      tag_42\n      jumpi\n      dup1\n      0x3f4ba83a\n      eq\n      tag_7\n      jumpi\n      dup1\n      0x458a635a\n      eq\n      tag_8\n      jumpi\n      dup1\n      0x48eca45c\n      eq\n      tag_9\n      jumpi\n      dup1\n      0x4dd79f10\n      eq\n      tag_10\n      jumpi\n      jump(tag_2)\n    tag_42:\n      dup1\n      0x0ff32839\n      eq\n      tag_3\n      jumpi\n      dup1\n      0x1ecff38e\n      eq\n      tag_4\n      jumpi\n      dup1\n      0x2e5bb6ff\n      eq\n      tag_5\n      jumpi\n      dup1\n      0x36c3b4e2\n      eq\n      tag_6\n      jumpi\n      jump(tag_2)\n    tag_1:\n      jumpi(tag_2, calldatasize)\n      stop\n    tag_2:\n      0x00\n      dup1\n      revert\n        /* \"marketplace.sol\":401:428  address public WBNBContract */\n    tag_3:\n      callvalue\n      dup1\n      iszero\n      tag_45\n      jumpi\n      0x00\n      dup1\n      revert\n    tag_45:\n      pop\n      tag_46\n      tag_47\n      jump\t// in\n    tag_46:\n      mload(0x40)\n      tag_48\n      swap2\n      swap1\n      tag_49\n      jump\t// in\n    tag_48:\n      mload(0x40)\n      dup1\n      swap2\n      sub\n      swap1\n      return\n        /* \"marketplace.sol\":2213:2366  function setVIMContract(address _VIMContract) external onlyOwner {... */\n    tag_4:\n      callvalue\n      dup1\n      iszero\n      tag_50\n      jumpi\n      0x00\n      dup1\n      revert\n    tag_50:\n      pop\n      tag_51\n      0x04\n      dup1\n      calldatasize\n      sub\n      dup2\n      add\n      swap1\n      tag_52\n      swap2\n      swap1\n      tag_53\n      jump\t// in\n    tag_52:\n      tag_54\n      jump\t// in\n    tag_51:\n      stop\n        /* \"marketplace.sol\":2502:2604  function setTax(uint256 _Tax) external onlyOwner {... */\n    tag_5:\n      callvalue\n      dup1\n      iszero\n      tag_55\n      jumpi\n      0x00\n      dup1\n      revert\n    tag_55:\n      pop\n      tag_56\n      0x04\n      dup1\n      calldatasize\n      sub\n      dup2\n      add\n      swap1\n      tag_57\n      swap2\n      swap1\n      tag_58\n      jump\t// in\n    tag_57:\n      tag_59\n      jump\t// in\n    tag_56:\n      stop\n        /* \"marketplace.sol\":301:326  address public LiquidPool */\n    tag_6:\n      callvalue\n      dup1\n      iszero\n      tag_60\n      jumpi\n      0x00\n      dup1\n      revert\n    tag_60:\n      pop\n      tag_61\n      tag_62\n      jump\t// in\n    tag_61:\n      mload(0x40)\n      tag_63\n      swap2\n      swap1\n      tag_49\n      jump\t// in\n    tag_63:\n      mload(0x40)\n      dup1\n      swap2\n      sub\n      swap1\n      return\n        /* \"BEPPausable.sol\":870:994  function unpause() public onlyOwner whenPaused returns (bool) {... */\n    tag_7:\n      callvalue\n      dup1\n      iszero\n      tag_64\n      jumpi\n      0x00\n      dup1\n      revert\n    tag_64:\n      pop\n      tag_65\n      tag_66\n      jump\t// in\n    tag_65:\n      mload(0x40)\n      tag_67\n      swap2\n      swap1\n      tag_68\n      jump\t// in\n    tag_67:\n      mload(0x40)\n      dup1\n      swap2\n      sub\n      swap1\n      return\n        /* \"marketplace.sol\":2024:2207  function setShoseNFTContract(address _ShoseNFTContract) external onlyOwner {... */\n    tag_8:\n      callvalue\n      dup1\n      iszero\n      tag_69\n      jumpi\n      0x00\n      dup1\n      revert\n    tag_69:\n      pop\n      tag_70\n      0x04\n      dup1\n      calldatasize\n      sub\n      dup2\n      add\n      swap1\n      tag_71\n      swap2\n      swap1\n      tag_53\n      jump\t// in\n    tag_71:\n      tag_72\n      jump\t// in\n    tag_70:\n      stop\n        /* \"marketplace.sol\":8542:8682  function getBalanceToken(address token) public view virtual returns (uint256) {... */\n    tag_9:\n      callvalue\n      dup1\n      iszero\n      tag_73\n      jumpi\n      0x00\n      dup1\n      revert\n    tag_73:\n      pop\n      tag_74\n      0x04\n      dup1\n      calldatasize\n      sub\n      dup2\n      add\n      swap1\n      tag_75\n      swap2\n      swap1\n      tag_53\n      jump\t// in\n    tag_75:\n      tag_76\n      jump\t// in\n    tag_74:\n      mload(0x40)\n      tag_77\n      swap2\n      swap1\n      tag_78\n      jump\t// in\n    tag_77:\n      mload(0x40)\n      dup1\n      swap2\n      sub\n      swap1\n      return\n        /* \"marketplace.sol\":4191:4559  function CancelSellVicShose(uint256 tokenId) external whenNotPaused {... */\n    tag_10:\n      callvalue\n      dup1\n      iszero\n      tag_79\n      jumpi\n      0x00\n      dup1\n      revert\n    tag_79:\n      pop\n      tag_80\n      0x04\n      dup1\n      calldatasize\n      sub\n      dup2\n      add\n      swap1\n      tag_81\n      swap2\n      swap1\n      tag_58\n      jump\t// in\n    tag_81:\n      tag_82\n      jump\t// in\n    tag_80:\n      stop\n        /* \"marketplace.sol\":272:295  address public Treasury */\n    tag_11:\n      callvalue\n      dup1\n      iszero\n      tag_83\n      jumpi\n      0x00\n      dup1\n      revert\n    tag_83:\n      pop\n      tag_84\n      tag_85\n      jump\t// in\n    tag_84:\n      mload(0x40)\n      tag_86\n      swap2\n      swap1\n      tag_49\n      jump\t// in\n    tag_86:\n      mload(0x40)\n      dup1\n      swap2\n      sub\n      swap1\n      return\n        /* \"marketplace.sol\":3494:3621  function checkShoseTranfer(uint256 tokenId) public view virtual returns (address) {... */\n    tag_12:\n      callvalue\n      dup1\n      iszero\n      tag_87\n      jumpi\n      0x00\n      dup1\n      revert\n    tag_87:\n      pop\n      tag_88\n      0x04\n      dup1\n      calldatasize\n      sub\n      dup2\n      add\n      swap1\n      tag_89\n      swap2\n      swap1\n      tag_58\n      jump\t// in\n    tag_89:\n      tag_90\n      jump\t// in\n    tag_88:\n      mload(0x40)\n      tag_91\n      swap2\n      swap1\n      tag_49\n      jump\t// in\n    tag_91:\n      mload(0x40)\n      dup1\n      swap2\n      sub\n      swap1\n      return\n        /* \"BEPPausable.sol\":272:298  bool public paused = false */\n    tag_13:\n      callvalue\n      dup1\n      iszero\n      tag_92\n      jumpi\n      0x00\n      dup1\n      revert\n    tag_92:\n      pop\n      tag_93\n      tag_94\n      jump\t// in\n    tag_93:\n      mload(0x40)\n      tag_95\n      swap2\n      swap1\n      tag_68\n      jump\t// in\n    tag_95:\n      mload(0x40)\n      dup1\n      swap2\n      sub\n      swap1\n      return\n        /* \"marketplace.sol\":2958:3489  function transferVicShose(address to,uint256 tokenId) external whenNotPaused {... */\n    tag_14:\n      callvalue\n      dup1\n      iszero\n      tag_96\n      jumpi\n      0x00\n      dup1\n      revert\n    tag_96:\n      pop\n      tag_97\n      0x04\n      dup1\n      calldatasize\n      sub\n      dup2\n      add\n      swap1\n      tag_98\n      swap2\n      swap1\n      tag_99\n      jump\t// in\n    tag_98:\n      tag_100\n      jump\t// in\n    tag_97:\n      stop\n        /* \"BEPOwnable.sol\":1630:1757  function renounceOwnership() public onlyOwner {... */\n    tag_15:\n      callvalue\n      dup1\n      iszero\n      tag_101\n      jumpi\n      0x00\n      dup1\n      revert\n    tag_101:\n      pop\n      tag_102\n      tag_103\n      jump\t// in\n    tag_102:\n      stop\n        /* \"marketplace.sol\":4565:6631  function BuyVicShose(uint256 tokenId) external whenNotPaused {... */\n    tag_16:\n      callvalue\n      dup1\n      iszero\n      tag_104\n      jumpi\n      0x00\n      dup1\n      revert\n    tag_104:\n      pop\n      tag_105\n      0x04\n      dup1\n      calldatasize\n      sub\n      dup2\n      add\n      swap1\n      tag_106\n      swap2\n      swap1\n      tag_58\n      jump\t// in\n    tag_106:\n      tag_107\n      jump\t// in\n    tag_105:\n      stop\n        /* \"marketplace.sol\":3627:4185  function SellVicShose(uint256 tokenId,uint256 price) external whenNotPaused {... */\n    tag_17:\n      callvalue\n      dup1\n      iszero\n      tag_108\n      jumpi\n      0x00\n      dup1\n      revert\n    tag_108:\n      pop\n      tag_109\n      0x04\n      dup1\n      calldatasize\n      sub\n      dup2\n      add\n      swap1\n      tag_110\n      swap2\n      swap1\n      tag_111\n      jump\t// in\n    tag_110:\n      tag_112\n      jump\t// in\n    tag_109:\n      stop\n        /* \"BEPPausable.sol\":666:788  function pause() public onlyOwner whenNotPaused returns (bool) {... */\n    tag_18:\n      callvalue\n      dup1\n      iszero\n      tag_113\n      jumpi\n      0x00\n      dup1\n      revert\n    tag_113:\n      pop\n      tag_114\n      tag_115\n      jump\t// in\n    tag_114:\n      mload(0x40)\n      tag_116\n      swap2\n      swap1\n      tag_68\n      jump\t// in\n    tag_116:\n      mload(0x40)\n      dup1\n      swap2\n      sub\n      swap1\n      return\n        /* \"marketplace.sol\":8687:8982  function sentT2Pool2Token(address tokenaddress, uint256 amount) external onlyOwner {... */\n    tag_19:\n      callvalue\n      dup1\n      iszero\n      tag_117\n      jumpi\n      0x00\n      dup1\n      revert\n    tag_117:\n      pop\n      tag_118\n      0x04\n      dup1\n      calldatasize\n      sub\n      dup2\n      add\n      swap1\n      tag_119\n      swap2\n      swap1\n      tag_99\n      jump\t// in\n    tag_119:\n      tag_120\n      jump\t// in\n    tag_118:\n      stop\n        /* \"BEPOwnable.sol\":899:970  function owner() public view returns (address) {... */\n    tag_20:\n      callvalue\n      dup1\n      iszero\n      tag_121\n      jumpi\n      0x00\n      dup1\n      revert\n    tag_121:\n      pop\n      tag_122\n      tag_123\n      jump\t// in\n    tag_122:\n      mload(0x40)\n      tag_124\n      swap2\n      swap1\n      tag_49\n      jump\t// in\n    tag_124:\n      mload(0x40)\n      dup1\n      swap2\n      sub\n      swap1\n      return\n        /* \"BEPOwnable.sol\":1218:1304  function isOwner() public view returns (bool) {... */\n    tag_21:\n      callvalue\n      dup1\n      iszero\n      tag_125\n      jumpi\n      0x00\n      dup1\n      revert\n    tag_125:\n      pop\n      tag_126\n      tag_127\n      jump\t// in\n    tag_126:\n      mload(0x40)\n      tag_128\n      swap2\n      swap1\n      tag_68\n      jump\t// in\n    tag_128:\n      mload(0x40)\n      dup1\n      swap2\n      sub\n      swap1\n      return\n        /* \"marketplace.sol\":7770:8527  function getSellingShose() external view returns (uint256[] memory _tokenID,address[] memory _owner, uint256[] memory _Price) {... */\n    tag_22:\n      callvalue\n      dup1\n      iszero\n      tag_129\n      jumpi\n      0x00\n      dup1\n      revert\n    tag_129:\n      pop\n      tag_130\n      tag_131\n      jump\t// in\n    tag_130:\n      mload(0x40)\n      tag_132\n      swap4\n      swap3\n      swap2\n      swap1\n      tag_133\n      jump\t// in\n    tag_132:\n      mload(0x40)\n      dup1\n      swap2\n      sub\n      swap1\n      return\n        /* \"marketplace.sol\":1871:2018  function setLiquidPool(address _LiquidPool) external onlyOwner {... */\n    tag_23:\n      callvalue\n      dup1\n      iszero\n      tag_134\n      jumpi\n      0x00\n      dup1\n      revert\n    tag_134:\n      pop\n      tag_135\n      0x04\n      dup1\n      calldatasize\n      sub\n      dup2\n      add\n      swap1\n      tag_136\n      swap2\n      swap1\n      tag_53\n      jump\t// in\n    tag_136:\n      tag_137\n      jump\t// in\n    tag_135:\n      stop\n        /* \"marketplace.sol\":486:506  address public Pool2 */\n    tag_24:\n      callvalue\n      dup1\n      iszero\n      tag_138\n      jumpi\n      0x00\n      dup1\n      revert\n    tag_138:\n      pop\n      tag_139\n      tag_140\n      jump\t// in\n    tag_139:\n      mload(0x40)\n      tag_141\n      swap2\n      swap1\n      tag_49\n      jump\t// in\n    tag_141:\n      mload(0x40)\n      dup1\n      swap2\n      sub\n      swap1\n      return\n        /* \"marketplace.sol\":369:395  address public VIMContract */\n    tag_25:\n      callvalue\n      dup1\n      iszero\n      tag_142\n      jumpi\n      0x00\n      dup1\n      revert\n    tag_142:\n      pop\n      tag_143\n      tag_144\n      jump\t// in\n    tag_143:\n      mload(0x40)\n      tag_145\n      swap2\n      swap1\n      tag_49\n      jump\t// in\n    tag_145:\n      mload(0x40)\n      dup1\n      swap2\n      sub\n      swap1\n      return\n        /* \"marketplace.sol\":8988:9096  function getBalanceBNB() public view virtual returns (uint256) {... */\n    tag_26:\n      callvalue\n      dup1\n      iszero\n      tag_146\n      jumpi\n      0x00\n      dup1\n      revert\n    tag_146:\n      pop\n      tag_147\n      tag_148\n      jump\t// in\n    tag_147:\n      mload(0x40)\n      tag_149\n      swap2\n      swap1\n      tag_78\n      jump\t// in\n    tag_149:\n      mload(0x40)\n      dup1\n      swap2\n      sub\n      swap1\n      return\n        /* \"marketplace.sol\":434:455  uint256 public MinBnB */\n    tag_27:\n      callvalue\n      dup1\n      iszero\n      tag_150\n      jumpi\n      0x00\n      dup1\n      revert\n    tag_150:\n      pop\n      tag_151\n      tag_152\n      jump\t// in\n    tag_151:\n      mload(0x40)\n      tag_153\n      swap2\n      swap1\n      tag_78\n      jump\t// in\n    tag_153:\n      mload(0x40)\n      dup1\n      swap2\n      sub\n      swap1\n      return\n        /* \"marketplace.sol\":1638:1722  function setPool2(address _Pool2) external onlyOwner {... */\n    tag_28:\n      callvalue\n      dup1\n      iszero\n      tag_154\n      jumpi\n      0x00\n      dup1\n      revert\n    tag_154:\n      pop\n      tag_155\n      0x04\n      dup1\n      calldatasize\n      sub\n      dup2\n      add\n      swap1\n      tag_156\n      swap2\n      swap1\n      tag_53\n      jump\t// in\n    tag_156:\n      tag_157\n      jump\t// in\n    tag_155:\n      stop\n        /* \"marketplace.sol\":9101:9335  function sentT2Pool2BNB(uint256 amount) external onlyOwner {... */\n    tag_29:\n      callvalue\n      dup1\n      iszero\n      tag_158\n      jumpi\n      0x00\n      dup1\n      revert\n    tag_158:\n      pop\n      tag_159\n      0x04\n      dup1\n      calldatasize\n      sub\n      dup2\n      add\n      swap1\n      tag_160\n      swap2\n      swap1\n      tag_58\n      jump\t// in\n    tag_160:\n      tag_161\n      jump\t// in\n    tag_159:\n      stop\n        /* \"marketplace.sol\":332:363  address public ShoseNFTContract */\n    tag_30:\n      callvalue\n      dup1\n      iszero\n      tag_162\n      jumpi\n      0x00\n      dup1\n      revert\n    tag_162:\n      pop\n      tag_163\n      tag_164\n      jump\t// in\n    tag_163:\n      mload(0x40)\n      tag_165\n      swap2\n      swap1\n      tag_49\n      jump\t// in\n    tag_165:\n      mload(0x40)\n      dup1\n      swap2\n      sub\n      swap1\n      return\n        /* \"marketplace.sol\":2372:2496  function setMinBNB(uint256  _MinBnB) external onlyOwner {... */\n    tag_31:\n      callvalue\n      dup1\n      iszero\n      tag_166\n      jumpi\n      0x00\n      dup1\n      revert\n    tag_166:\n      pop\n      tag_167\n      0x04\n      dup1\n      calldatasize\n      sub\n      dup2\n      add\n      swap1\n      tag_168\n      swap2\n      swap1\n      tag_58\n      jump\t// in\n    tag_168:\n      tag_169\n      jump\t// in\n    tag_167:\n      stop\n        /* \"marketplace.sol\":2611:2952  function getMINPrice() public view virtual returns (uint256) {... */\n    tag_32:\n      callvalue\n      dup1\n      iszero\n      tag_170\n      jumpi\n      0x00\n      dup1\n      revert\n    tag_170:\n      pop\n      tag_171\n      tag_172\n      jump\t// in\n    tag_171:\n      mload(0x40)\n      tag_173\n      swap2\n      swap1\n      tag_78\n      jump\t// in\n    tag_173:\n      mload(0x40)\n      dup1\n      swap2\n      sub\n      swap1\n      return\n        /* \"marketplace.sol\":1729:1864  function setTreasury(address _Treasury) external onlyOwner {... */\n    tag_33:\n      callvalue\n      dup1\n      iszero\n      tag_174\n      jumpi\n      0x00\n      dup1\n      revert\n    tag_174:\n      pop\n      tag_175\n      0x04\n      dup1\n      calldatasize\n      sub\n      dup2\n      add\n      swap1\n      tag_176\n      swap2\n      swap1\n      tag_53\n      jump\t// in\n    tag_176:\n      tag_177\n      jump\t// in\n    tag_175:\n      stop\n        /* \"BEPOwnable.sol\":1896:1997  function transferOwnership(address newOwner) public onlyOwner {... */\n    tag_34:\n      callvalue\n      dup1\n      iszero\n      tag_178\n      jumpi\n      0x00\n      dup1\n      revert\n    tag_178:\n      pop\n      tag_179\n      0x04\n      dup1\n      calldatasize\n      sub\n      dup2\n      add\n      swap1\n      tag_180\n      swap2\n      swap1\n      tag_53\n      jump\t// in\n    tag_180:\n      tag_181\n      jump\t// in\n    tag_179:\n      stop\n        /* \"marketplace.sol\":9345:9761  function test() external {... */\n    tag_35:\n      callvalue\n      dup1\n      iszero\n      tag_182\n      jumpi\n      0x00\n      dup1\n      revert\n    tag_182:\n      pop\n      tag_183\n      tag_184\n      jump\t// in\n    tag_183:\n      stop\n        /* \"marketplace.sol\":401:428  address public WBNBContract */\n    tag_47:\n      0x05\n      0x00\n      swap1\n      sload\n      swap1\n      0x0100\n      exp\n      swap1\n      div\n      0xffffffffffffffffffffffffffffffffffffffff\n      and\n      dup2\n      jump\t// out\n        /* \"marketplace.sol\":2213:2366  function setVIMContract(address _VIMContract) external onlyOwner {... */\n    tag_54:\n        /* \"BEPOwnable.sol\":1085:1094  isOwner() */\n      tag_186\n        /* \"BEPOwnable.sol\":1085:1092  isOwner */\n      tag_127\n        /* \"BEPOwnable.sol\":1085:1094  isOwner() */\n      jump\t// in\n    tag_186:\n        /* \"BEPOwnable.sol\":1077:1131  require(isOwner(), \"Ownable: caller is not the owner\") */\n      tag_187\n      jumpi\n      mload(0x40)\n      0x08c379a000000000000000000000000000000000000000000000000000000000\n      dup2\n      mstore\n      0x04\n      add\n      tag_188\n      swap1\n      tag_189\n      jump\t// in\n    tag_188:\n      mload(0x40)\n      dup1\n      swap2\n      sub\n      swap1\n      revert\n    tag_187:\n        /* \"marketplace.sol\":2302:2314  _VIMContract */\n      dup1\n        /* \"marketplace.sol\":2288:2299  VIMContract */\n      0x04\n      0x00\n        /* \"marketplace.sol\":2288:2314  VIMContract = _VIMContract */\n      0x0100\n      exp\n      dup2\n      sload\n      dup2\n      0xffffffffffffffffffffffffffffffffffffffff\n      mul\n      not\n      and\n      swap1\n      dup4\n      0xffffffffffffffffffffffffffffffffffffffff\n      and\n      mul\n      or\n      swap1\n      sstore\n      pop\n        /* \"marketplace.sol\":2329:2359  changeVIMContract(VIMContract) */\n      0x136742181ff5fc7d13f647a125112ec36500105a024ce2dbbb7f28fa375eebfa\n        /* \"marketplace.sol\":2347:2358  VIMContract */\n      0x04\n      0x00\n      swap1\n      sload\n      swap1\n      0x0100\n      exp\n      swap1\n      div\n      0xffffffffffffffffffffffffffffffffffffffff\n      and\n        /* \"marketplace.sol\":2329:2359  changeVIMContract(VIMContract) */\n      mload(0x40)\n      tag_191\n      swap2\n      swap1\n      tag_49\n      jump\t// in\n    tag_191:\n      mload(0x40)\n      dup1\n      swap2\n      sub\n      swap1\n      log1\n        /* \"marketplace.sol\":2213:2366  function setVIMContract(address _VIMContract) external onlyOwner {... */\n      pop\n      jump\t// out\n        /* \"marketplace.sol\":2502:2604  function setTax(uint256 _Tax) external onlyOwner {... */\n    tag_59:\n        /* \"BEPOwnable.sol\":1085:1094  isOwner() */\n      tag_193\n        /* \"BEPOwnable.sol\":1085:1092  isOwner */\n      tag_127\n        /* \"BEPOwnable.sol\":1085:1094  isOwner() */\n      jump\t// in\n    tag_193:\n        /* \"BEPOwnable.sol\":1077:1131  require(isOwner(), \"Ownable: caller is not the owner\") */\n      tag_194\n      jumpi\n      mload(0x40)\n      0x08c379a000000000000000000000000000000000000000000000000000000000\n      dup2\n      mstore\n      0x04\n      add\n      tag_195\n      swap1\n      tag_189\n      jump\t// in\n    tag_195:\n      mload(0x40)\n      dup1\n      swap2\n      sub\n      swap1\n      revert\n    tag_194:\n        /* \"marketplace.sol\":2574:2576  50 */\n      0x32\n        /* \"marketplace.sol\":2569:2573  _Tax */\n      dup2\n        /* \"marketplace.sol\":2569:2576  _Tax<50 */\n      lt\n        /* \"marketplace.sol\":2561:2577  require(_Tax<50) */\n      tag_197\n      jumpi\n      0x00\n      dup1\n      revert\n    tag_197:\n        /* \"marketplace.sol\":2593:2597  _Tax */\n      dup1\n        /* \"marketplace.sol\":2587:2590  tax */\n      0x07\n        /* \"marketplace.sol\":2587:2597  tax = _Tax */\n      dup2\n      swap1\n      sstore\n      pop\n        /* \"marketplace.sol\":2502:2604  function setTax(uint256 _Tax) external onlyOwner {... */\n      pop\n      jump\t// out\n        /* \"marketplace.sol\":301:326  address public LiquidPool */\n    tag_62:\n      0x02\n      0x00\n      swap1\n      sload\n      swap1\n      0x0100\n      exp\n      swap1\n      div\n      0xffffffffffffffffffffffffffffffffffffffff\n      and\n      dup2\n      jump\t// out\n        /* \"BEPPausable.sol\":870:994  function unpause() public onlyOwner whenPaused returns (bool) {... */\n    tag_66:\n        /* \"BEPPausable.sol\":926:930  bool */\n      0x00\n        /* \"BEPOwnable.sol\":1085:1094  isOwner() */\n      tag_199\n        /* \"BEPOwnable.sol\":1085:1092  isOwner */\n      tag_127\n        /* \"BEPOwnable.sol\":1085:1094  isOwner() */\n      jump\t// in\n    tag_199:\n        /* \"BEPOwnable.sol\":1077:1131  require(isOwner(), \"Ownable: caller is not the owner\") */\n      tag_200\n      jumpi\n      mload(0x40)\n      0x08c379a000000000000000000000000000000000000000000000000000000000\n      dup2\n      mstore\n      0x04\n      add\n      tag_201\n      swap1\n      tag_189\n      jump\t// in\n    tag_201:\n      mload(0x40)\n      dup1\n      swap2\n      sub\n      swap1\n      revert\n    tag_200:\n        /* \"BEPPausable.sol\":568:574  paused */\n      0x00\n      0x14\n      swap1\n      sload\n      swap1\n      0x0100\n      exp\n      swap1\n      div\n      0xff\n      and\n        /* \"BEPPausable.sol\":560:575  require(paused) */\n      tag_203\n      jumpi\n      0x00\n      dup1\n      revert\n    tag_203:\n        /* \"BEPPausable.sol\":947:952  false */\n      0x00\n        /* \"BEPPausable.sol\":938:944  paused */\n      dup1\n      0x14\n        /* \"BEPPausable.sol\":938:952  paused = false */\n      0x0100\n      exp\n      dup2\n      sload\n      dup2\n      0xff\n      mul\n      not\n      and\n      swap1\n      dup4\n      iszero\n      iszero\n      mul\n      or\n      swap1\n      sstore\n      pop\n        /* \"BEPPausable.sol\":963:972  Unpause() */\n      0x7805862f689e2f13df9f062ff482ad3ad112aca9e0847911ed832e158c525b33\n      mload(0x40)\n      mload(0x40)\n      dup1\n      swap2\n      sub\n      swap1\n      log1\n        /* \"BEPPausable.sol\":985:989  true */\n      0x01\n        /* \"BEPPausable.sol\":978:989  return true */\n      swap1\n      pop\n        /* \"BEPPausable.sol\":870:994  function unpause() public onlyOwner whenPaused returns (bool) {... */\n      swap1\n      jump\t// out\n        /* \"marketplace.sol\":2024:2207  function setShoseNFTContract(address _ShoseNFTContract) external onlyOwner {... */\n    tag_72:\n        /* \"BEPOwnable.sol\":1085:1094  isOwner() */\n      tag_206\n        /* \"BEPOwnable.sol\":1085:1092  isOwner */\n      tag_127\n        /* \"BEPOwnable.sol\":1085:1094  isOwner() */\n      jump\t// in\n    tag_206:\n        /* \"BEPOwnable.sol\":1077:1131  require(isOwner(), \"Ownable: caller is not the owner\") */\n      tag_207\n      jumpi\n      mload(0x40)\n      0x08c379a000000000000000000000000000000000000000000000000000000000\n      dup2\n      mstore\n      0x04\n      add\n      tag_208\n      swap1\n      tag_189\n      jump\t// in\n    tag_208:\n      mload(0x40)\n      dup1\n      swap2\n      sub\n      swap1\n      revert\n    tag_207:\n        /* \"marketplace.sol\":2128:2145  _ShoseNFTContract */\n      dup1\n        /* \"marketplace.sol\":2109:2125  ShoseNFTContract */\n      0x03\n      0x00\n        /* \"marketplace.sol\":2109:2145  ShoseNFTContract = _ShoseNFTContract */\n      0x0100\n      exp\n      dup2\n      sload\n      dup2\n      0xffffffffffffffffffffffffffffffffffffffff\n      mul\n      not\n      and\n      swap1\n      dup4\n      0xffffffffffffffffffffffffffffffffffffffff\n      and\n      mul\n      or\n      swap1\n      sstore\n      pop\n        /* \"marketplace.sol\":2160:2200  changeShoseNFTContract(ShoseNFTContract) */\n      0xb01e01d90e1da4079495db07c84276ef34a0ea39cd9be9c3844874eb35616e44\n        /* \"marketplace.sol\":2183:2199  ShoseNFTContract */\n      0x03\n      0x00\n      swap1\n      sload\n      swap1\n      0x0100\n      exp\n      swap1\n      div\n      0xffffffffffffffffffffffffffffffffffffffff\n      and\n        /* \"marketplace.sol\":2160:2200  changeShoseNFTContract(ShoseNFTContract) */\n      mload(0x40)\n      tag_210\n      swap2\n      swap1\n      tag_49\n      jump\t// in\n    tag_210:\n      mload(0x40)\n      dup1\n      swap2\n      sub\n      swap1\n      log1\n        /* \"marketplace.sol\":2024:2207  function setShoseNFTContract(address _ShoseNFTContract) external onlyOwner {... */\n      pop\n      jump\t// out\n        /* \"marketplace.sol\":8542:8682  function getBalanceToken(address token) public view virtual returns (uint256) {... */\n    tag_76:\n        /* \"marketplace.sol\":8611:8618  uint256 */\n      0x00\n        /* \"marketplace.sol\":8644:8649  token */\n      dup2\n        /* \"marketplace.sol\":8637:8660  IBEP20(token).balanceOf */\n      0xffffffffffffffffffffffffffffffffffffffff\n      and\n      0x70a08231\n        /* \"marketplace.sol\":8669:8673  this */\n      address\n        /* \"marketplace.sol\":8637:8675  IBEP20(token).balanceOf(address(this)) */\n      mload(0x40)\n      dup3\n      0xffffffff\n      and\n      0xe0\n      shl\n      dup2\n      mstore\n      0x04\n      add\n      tag_212\n      swap2\n      swap1\n      tag_49\n      jump\t// in\n    tag_212:\n      0x20\n      mload(0x40)\n      dup1\n      dup4\n      sub\n      dup2\n      dup7\n      dup1\n      extcodesize\n      iszero\n      dup1\n      iszero\n      tag_213\n      jumpi\n      0x00\n      dup1\n      revert\n    tag_213:\n      pop\n      gas\n      staticcall\n      iszero\n      dup1\n      iszero\n      tag_215\n      jumpi\n      returndatasize\n      0x00\n      dup1\n      returndatacopy\n      revert(0x00, returndatasize)\n    tag_215:\n      pop\n      pop\n      pop\n      pop\n      mload(0x40)\n      returndatasize\n      not(0x1f)\n      0x1f\n      dup3\n      add\n      and\n      dup3\n      add\n      dup1\n      0x40\n      mstore\n      pop\n      dup2\n      add\n      swap1\n      tag_216\n      swap2\n      swap1\n      tag_217\n      jump\t// in\n    tag_216:\n        /* \"marketplace.sol\":8630:8675  return IBEP20(token).balanceOf(address(this)) */\n      swap1\n      pop\n        /* \"marketplace.sol\":8542:8682  function getBalanceToken(address token) public view virtual returns (uint256) {... */\n      swap2\n      swap1\n      pop\n      jump\t// out\n        /* \"marketplace.sol\":4191:4559  function CancelSellVicShose(uint256 tokenId) external whenNotPaused {... */\n    tag_82:\n        /* \"BEPPausable.sol\":424:430  paused */\n      0x00\n      0x14\n      swap1\n      sload\n      swap1\n      0x0100\n      exp\n      swap1\n      div\n      0xff\n      and\n        /* \"BEPPausable.sol\":423:430  !paused */\n      iszero\n        /* \"BEPPausable.sol\":415:431  require(!paused) */\n      tag_219\n      jumpi\n      0x00\n      dup1\n      revert\n    tag_219:\n        /* \"marketplace.sol\":4298:4299  0 */\n      0x00\n        /* \"marketplace.sol\":4277:4286  shoseSell */\n      0x0a\n        /* \"marketplace.sol\":4277:4295  shoseSell[tokenId] */\n      0x00\n        /* \"marketplace.sol\":4287:4294  tokenId */\n      dup4\n        /* \"marketplace.sol\":4277:4295  shoseSell[tokenId] */\n      dup2\n      mstore\n      0x20\n      add\n      swap1\n      dup2\n      mstore\n      0x20\n      add\n      0x00\n      keccak256\n      sload\n        /* \"marketplace.sol\":4277:4299  shoseSell[tokenId] > 0 */\n      gt\n        /* \"marketplace.sol\":4269:4323  require(shoseSell[tokenId] > 0,\"VicShose not in sell\") */\n      tag_221\n      jumpi\n      mload(0x40)\n      0x08c379a000000000000000000000000000000000000000000000000000000000\n      dup2\n      mstore\n      0x04\n      add\n      tag_222\n      swap1\n      tag_223\n      jump\t// in\n    tag_222:\n      mload(0x40)\n      dup1\n      swap2\n      sub\n      swap1\n      revert\n    tag_221:\n        /* \"marketplace.sol\":4333:4347  address seller */\n      0x00\n        /* \"marketplace.sol\":4350:4360  msg.sender */\n      caller\n        /* \"marketplace.sol\":4333:4360  address seller = msg.sender */\n      swap1\n      pop\n        /* \"marketplace.sol\":4434:4440  seller */\n      dup1\n        /* \"marketplace.sol\":4378:4440  IERC721Enumerable(ShoseNFTContract).ownerOf(tokenId) == seller */\n      0xffffffffffffffffffffffffffffffffffffffff\n      and\n        /* \"marketplace.sol\":4396:4412  ShoseNFTContract */\n      0x03\n      0x00\n      swap1\n      sload\n      swap1\n      0x0100\n      exp\n      swap1\n      div\n      0xffffffffffffffffffffffffffffffffffffffff\n      and\n        /* \"marketplace.sol\":4378:4421  IERC721Enumerable(ShoseNFTContract).ownerOf */\n      0xffffffffffffffffffffffffffffffffffffffff\n      and\n      0x6352211e\n        /* \"marketplace.sol\":4422:4429  tokenId */\n      dup5\n        /* \"marketplace.sol\":4378:4430  IERC721Enumerable(ShoseNFTContract).ownerOf(tokenId) */\n      mload(0x40)\n      dup3\n      0xffffffff\n      and\n      0xe0\n      shl\n      dup2\n      mstore\n      0x04\n      add\n      tag_224\n      swap2\n      swap1\n      tag_78\n      jump\t// in\n    tag_224:\n      0x20\n      mload(0x40)\n      dup1\n      dup4\n      sub\n      dup2\n      dup7\n      dup1\n      extcodesize\n      iszero\n      dup1\n      iszero\n      tag_225\n      jumpi\n      0x00\n      dup1\n      revert\n    tag_225:\n      pop\n      gas\n      staticcall\n      iszero\n      dup1\n      iszero\n      tag_227\n      jumpi\n      returndatasize\n      0x00\n      dup1\n      returndatacopy\n      revert(0x00, returndatasize)\n    tag_227:\n      pop\n      pop\n      pop\n      pop\n      mload(0x40)\n      returndatasize\n      not(0x1f)\n      0x1f\n      dup3\n      add\n      and\n      dup3\n      add\n      dup1\n      0x40\n      mstore\n      pop\n      dup2\n      add\n      swap1\n      tag_228\n      swap2\n      swap1\n      tag_229\n      jump\t// in\n    tag_228:\n        /* \"marketplace.sol\":4378:4440  IERC721Enumerable(ShoseNFTContract).ownerOf(tokenId) == seller */\n      0xffffffffffffffffffffffffffffffffffffffff\n      and\n      eq\n        /* \"marketplace.sol\":4370:4473  require(IERC721Enumerable(ShoseNFTContract).ownerOf(tokenId) == seller,\"seller need have this tokenid\") */\n      tag_230\n      jumpi\n      mload(0x40)\n      0x08c379a000000000000000000000000000000000000000000000000000000000\n      dup2\n      mstore\n      0x04\n      add\n      tag_231\n      swap1\n      tag_232\n      jump\t// in\n    tag_231:\n      mload(0x40)\n      dup1\n      swap2\n      sub\n      swap1\n      revert\n    tag_230:\n        /* \"marketplace.sol\":4483:4505  removeNFTSell(tokenId) */\n      tag_233\n        /* \"marketplace.sol\":4497:4504  tokenId */\n      dup3\n        /* \"marketplace.sol\":4483:4496  removeNFTSell */\n      tag_234\n        /* \"marketplace.sol\":4483:4505  removeNFTSell(tokenId) */\n      jump\t// in\n    tag_233:\n        /* \"marketplace.sol\":4520:4552  eventCancelSellVicShose(tokenId) */\n      0xd4ceea0833ac36cc33c805e4f164dedb6d75e092a34e14083bbb87976befdecf\n        /* \"marketplace.sol\":4544:4551  tokenId */\n      dup3\n        /* \"marketplace.sol\":4520:4552  eventCancelSellVicShose(tokenId) */\n      mload(0x40)\n      tag_235\n      swap2\n      swap1\n      tag_78\n      jump\t// in\n    tag_235:\n      mload(0x40)\n      dup1\n      swap2\n      sub\n      swap1\n      log1\n        /* \"marketplace.sol\":4259:4559  {... */\n      pop\n        /* \"marketplace.sol\":4191:4559  function CancelSellVicShose(uint256 tokenId) external whenNotPaused {... */\n      pop\n      jump\t// out\n        /* \"marketplace.sol\":272:295  address public Treasury */\n    tag_85:\n      0x01\n      0x00\n      swap1\n      sload\n      swap1\n      0x0100\n      exp\n      swap1\n      div\n      0xffffffffffffffffffffffffffffffffffffffff\n      and\n      dup2\n      jump\t// out\n        /* \"marketplace.sol\":3494:3621  function checkShoseTranfer(uint256 tokenId) public view virtual returns (address) {... */\n    tag_90:\n        /* \"marketplace.sol\":3567:3574  address */\n      0x00\n        /* \"marketplace.sol\":3593:3605  shoseTranfer */\n      0x09\n        /* \"marketplace.sol\":3593:3614  shoseTranfer[tokenId] */\n      0x00\n        /* \"marketplace.sol\":3606:3613  tokenId */\n      dup4\n        /* \"marketplace.sol\":3593:3614  shoseTranfer[tokenId] */\n      dup2\n      mstore\n      0x20\n      add\n      swap1\n      dup2\n      mstore\n      0x20\n      add\n      0x00\n      keccak256\n      0x00\n      swap1\n      sload\n      swap1\n      0x0100\n      exp\n      swap1\n      div\n      0xffffffffffffffffffffffffffffffffffffffff\n      and\n        /* \"marketplace.sol\":3586:3614  return shoseTranfer[tokenId] */\n      swap1\n      pop\n        /* \"marketplace.sol\":3494:3621  function checkShoseTranfer(uint256 tokenId) public view virtual returns (address) {... */\n      swap2\n      swap1\n      pop\n      jump\t// out\n        /* \"BEPPausable.sol\":272:298  bool public paused = false */\n    tag_94:\n      0x00\n      0x14\n      swap1\n      sload\n      swap1\n      0x0100\n      exp\n      swap1\n      div\n      0xff\n      and\n      dup2\n      jump\t// out\n        /* \"marketplace.sol\":2958:3489  function transferVicShose(address to,uint256 tokenId) external whenNotPaused {... */\n    tag_100:\n        /* \"BEPPausable.sol\":424:430  paused */\n      0x00\n      0x14\n      swap1\n      sload\n      swap1\n      0x0100\n      exp\n      swap1\n      div\n      0xff\n      and\n        /* \"BEPPausable.sol\":423:430  !paused */\n      iszero\n        /* \"BEPPausable.sol\":415:431  require(!paused) */\n      tag_238\n      jumpi\n      0x00\n      dup1\n      revert\n    tag_238:\n        /* \"marketplace.sol\":3045:3057  address from */\n      0x00\n        /* \"marketplace.sol\":3060:3070  msg.sender */\n      caller\n        /* \"marketplace.sol\":3045:3070  address from = msg.sender */\n      swap1\n      pop\n        /* \"marketplace.sol\":3106:3122  ShoseNFTContract */\n      0x03\n      0x00\n      swap1\n      sload\n      swap1\n      0x0100\n      exp\n      swap1\n      div\n      0xffffffffffffffffffffffffffffffffffffffff\n      and\n        /* \"marketplace.sol\":3088:3140  IERC721Enumerable(ShoseNFTContract).isApprovedForAll */\n      0xffffffffffffffffffffffffffffffffffffffff\n      and\n      0xe985e9c5\n        /* \"marketplace.sol\":3141:3145  from */\n      dup3\n        /* \"marketplace.sol\":3154:3158  this */\n      address\n        /* \"marketplace.sol\":3088:3160  IERC721Enumerable(ShoseNFTContract).isApprovedForAll(from,address(this)) */\n      mload(0x40)\n      dup4\n      0xffffffff\n      and\n      0xe0\n      shl\n      dup2\n      mstore\n      0x04\n      add\n      tag_240\n      swap3\n      swap2\n      swap1\n      tag_241\n      jump\t// in\n    tag_240:\n      0x20\n      mload(0x40)\n      dup1\n      dup4\n      sub\n      dup2\n      dup7\n      dup1\n      extcodesize\n      iszero\n      dup1\n      iszero\n      tag_242\n      jumpi\n      0x00\n      dup1\n      revert\n    tag_242:\n      pop\n      gas\n      staticcall\n      iszero\n      dup1\n      iszero\n      tag_244\n      jumpi\n      returndatasize\n      0x00\n      dup1\n      returndatacopy\n      revert(0x00, returndatasize)\n    tag_244:\n      pop\n      pop\n      pop\n      pop\n      mload(0x40)\n      returndatasize\n      not(0x1f)\n      0x1f\n      dup3\n      add\n      and\n      dup3\n      add\n      dup1\n      0x40\n      mstore\n      pop\n      dup2\n      add\n      swap1\n      tag_245\n      swap2\n      swap1\n      tag_246\n      jump\t// in\n    tag_245:\n        /* \"marketplace.sol\":3080:3204  require(IERC721Enumerable(ShoseNFTContract).isApprovedForAll(from,address(this)),\"You need Approve For All to this contact\") */\n      tag_247\n      jumpi\n      mload(0x40)\n      0x08c379a000000000000000000000000000000000000000000000000000000000\n      dup2\n      mstore\n      0x04\n      add\n      tag_248\n      swap1\n      tag_249\n      jump\t// in\n    tag_248:\n      mload(0x40)\n      dup1\n      swap2\n      sub\n      swap1\n      revert\n    tag_247:\n        /* \"marketplace.sol\":3236:3237  0 */\n      0x00\n        /* \"marketplace.sol\":3222:3238  to != address(0) */\n      0xffffffffffffffffffffffffffffffffffffffff\n      and\n        /* \"marketplace.sol\":3222:3224  to */\n      dup4\n        /* \"marketplace.sol\":3222:3238  to != address(0) */\n      0xffffffffffffffffffffffffffffffffffffffff\n      and\n      eq\n      iszero\n        /* \"marketplace.sol\":3214:3262  require(to != address(0),\"Address can not zero\") */\n      tag_250\n      jumpi\n      mload(0x40)\n      0x08c379a000000000000000000000000000000000000000000000000000000000\n      dup2\n      mstore\n      0x04\n      add\n      tag_251\n      swap1\n      tag_252\n      jump\t// in\n    tag_251:\n      mload(0x40)\n      dup1\n      swap2\n      sub\n      swap1\n      revert\n    tag_250:\n        /* \"marketplace.sol\":3286:3290  from */\n      dup1\n        /* \"marketplace.sol\":3280:3290  to != from */\n      0xffffffffffffffffffffffffffffffffffffffff\n      and\n        /* \"marketplace.sol\":3280:3282  to */\n      dup4\n        /* \"marketplace.sol\":3280:3290  to != from */\n      0xffffffffffffffffffffffffffffffffffffffff\n      and\n      eq\n      iszero\n        /* \"marketplace.sol\":3272:3318  require(to != from,\"From and To can not same\") */\n      tag_253\n      jumpi\n      mload(0x40)\n      0x08c379a000000000000000000000000000000000000000000000000000000000\n      dup2\n      mstore\n      0x04\n      add\n      tag_254\n      swap1\n      tag_255\n      jump\t// in\n    tag_254:\n      mload(0x40)\n      dup1\n      swap2\n      sub\n      swap1\n      revert\n    tag_253:\n        /* \"marketplace.sol\":3346:3362  ShoseNFTContract */\n      0x03\n      0x00\n      swap1\n      sload\n      swap1\n      0x0100\n      exp\n      swap1\n      div\n      0xffffffffffffffffffffffffffffffffffffffff\n      and\n        /* \"marketplace.sol\":3328:3380  IERC721Enumerable(ShoseNFTContract).safeTransferFrom */\n      0xffffffffffffffffffffffffffffffffffffffff\n      and\n      0x42842e0e\n        /* \"marketplace.sol\":3381:3385  from */\n      dup3\n        /* \"marketplace.sol\":3387:3389  to */\n      dup6\n        /* \"marketplace.sol\":3390:3397  tokenId */\n      dup6\n        /* \"marketplace.sol\":3328:3398  IERC721Enumerable(ShoseNFTContract).safeTransferFrom(from, to,tokenId) */\n      mload(0x40)\n      dup5\n      0xffffffff\n      and\n      0xe0\n      shl\n      dup2\n      mstore\n      0x04\n      add\n      tag_256\n      swap4\n      swap3\n      swap2\n      swap1\n      tag_257\n      jump\t// in\n    tag_256:\n      0x00\n      mload(0x40)\n      dup1\n      dup4\n      sub\n      dup2\n      0x00\n      dup8\n      dup1\n      extcodesize\n      iszero\n      dup1\n      iszero\n      tag_258\n      jumpi\n      0x00\n      dup1\n      revert\n    tag_258:\n      pop\n      gas\n      call\n      iszero\n      dup1\n      iszero\n      tag_260\n      jumpi\n      returndatasize\n      0x00\n      dup1\n      returndatacopy\n      revert(0x00, returndatasize)\n    tag_260:\n      pop\n      pop\n      pop\n      pop\n        /* \"marketplace.sol\":3432:3434  to */\n      dup3\n        /* \"marketplace.sol\":3408:3420  shoseTranfer */\n      0x09\n        /* \"marketplace.sol\":3408:3429  shoseTranfer[tokenId] */\n      0x00\n        /* \"marketplace.sol\":3421:3428  tokenId */\n      dup5\n        /* \"marketplace.sol\":3408:3429  shoseTranfer[tokenId] */\n      dup2\n      mstore\n      0x20\n      add\n      swap1\n      dup2\n      mstore\n      0x20\n      add\n      0x00\n      keccak256\n      0x00\n        /* \"marketplace.sol\":3408:3434  shoseTranfer[tokenId] = to */\n      0x0100\n      exp\n      dup2\n      sload\n      dup2\n      0xffffffffffffffffffffffffffffffffffffffff\n      mul\n      not\n      and\n      swap1\n      dup4\n      0xffffffffffffffffffffffffffffffffffffffff\n      and\n      mul\n      or\n      swap1\n      sstore\n      pop\n        /* \"marketplace.sol\":3449:3482  eventtransferVicShose(to,tokenId) */\n      0x2a422da7e70b3ca41064be14c50b74a43cbbef24634fa3b7e90d120b8ecc08b3\n        /* \"marketplace.sol\":3471:3473  to */\n      dup4\n        /* \"marketplace.sol\":3474:3481  tokenId */\n      dup4\n        /* \"marketplace.sol\":3449:3482  eventtransferVicShose(to,tokenId) */\n      mload(0x40)\n      tag_261\n      swap3\n      swap2\n      swap1\n      tag_262\n      jump\t// in\n    tag_261:\n      mload(0x40)\n      dup1\n      swap2\n      sub\n      swap1\n      log1\n        /* \"marketplace.sol\":3035:3489  {... */\n      pop\n        /* \"marketplace.sol\":2958:3489  function transferVicShose(address to,uint256 tokenId) external whenNotPaused {... */\n      pop\n      pop\n      jump\t// out\n        /* \"BEPOwnable.sol\":1630:1757  function renounceOwnership() public onlyOwner {... */\n    tag_103:\n        /* \"BEPOwnable.sol\":1085:1094  isOwner() */\n      tag_264\n        /* \"BEPOwnable.sol\":1085:1092  isOwner */\n      tag_127\n        /* \"BEPOwnable.sol\":1085:1094  isOwner() */\n      jump\t// in\n    tag_264:\n        /* \"BEPOwnable.sol\":1077:1131  require(isOwner(), \"Ownable: caller is not the owner\") */\n      tag_265\n      jumpi\n      mload(0x40)\n      0x08c379a000000000000000000000000000000000000000000000000000000000\n      dup2\n      mstore\n      0x04\n      add\n      tag_266\n      swap1\n      tag_189\n      jump\t// in\n    tag_266:\n      mload(0x40)\n      dup1\n      swap2\n      sub\n      swap1\n      revert\n    tag_265:\n        /* \"BEPOwnable.sol\":1724:1725  0 */\n      0x00\n        /* \"BEPOwnable.sol\":1687:1727  OwnershipTransferred(_owner, address(0)) */\n      0xffffffffffffffffffffffffffffffffffffffff\n      and\n        /* \"BEPOwnable.sol\":1708:1714  _owner */\n      0x00\n      dup1\n      sload\n      swap1\n      0x0100\n      exp\n      swap1\n      div\n      0xffffffffffffffffffffffffffffffffffffffff\n      and\n        /* \"BEPOwnable.sol\":1687:1727  OwnershipTransferred(_owner, address(0)) */\n      0xffffffffffffffffffffffffffffffffffffffff\n      and\n      0x8be0079c531659141344cd1fd0a4f28419497f9722a3daafe3b4186f6b6457e0\n      mload(0x40)\n      mload(0x40)\n      dup1\n      swap2\n      sub\n      swap1\n      log3\n        /* \"BEPOwnable.sol\":1750:1751  0 */\n      0x00\n        /* \"BEPOwnable.sol\":1733:1739  _owner */\n      dup1\n      0x00\n        /* \"BEPOwnable.sol\":1733:1752  _owner = address(0) */\n      0x0100\n      exp\n      dup2\n      sload\n      dup2\n      0xffffffffffffffffffffffffffffffffffffffff\n      mul\n      not\n      and\n      swap1\n      dup4\n      0xffffffffffffffffffffffffffffffffffffffff\n      and\n      mul\n      or\n      swap1\n      sstore\n      pop\n        /* \"BEPOwnable.sol\":1630:1757  function renounceOwnership() public onlyOwner {... */\n      jump\t// out\n        /* \"marketplace.sol\":4565:6631  function BuyVicShose(uint256 tokenId) external whenNotPaused {... */\n    tag_107:\n        /* \"BEPPausable.sol\":424:430  paused */\n      0x00\n      0x14\n      swap1\n      sload\n      swap1\n      0x0100\n      exp\n      swap1\n      div\n      0xff\n      and\n        /* \"BEPPausable.sol\":423:430  !paused */\n      iszero\n        /* \"BEPPausable.sol\":415:431  require(!paused) */\n      tag_269\n      jumpi\n      0x00\n      dup1\n      revert\n    tag_269:\n        /* \"marketplace.sol\":4636:4650  address seller */\n      0x00\n        /* \"marketplace.sol\":4653:4664  shoseSeller */\n      0x0b\n        /* \"marketplace.sol\":4653:4673  shoseSeller[tokenId] */\n      0x00\n        /* \"marketplace.sol\":4665:4672  tokenId */\n      dup4\n        /* \"marketplace.sol\":4653:4673  shoseSeller[tokenId] */\n      dup2\n      mstore\n      0x20\n      add\n      swap1\n      dup2\n      mstore\n      0x20\n      add\n      0x00\n      keccak256\n      0x00\n      swap1\n      sload\n      swap1\n      0x0100\n      exp\n      swap1\n      div\n      0xffffffffffffffffffffffffffffffffffffffff\n      and\n        /* \"marketplace.sol\":4636:4673  address seller = shoseSeller[tokenId] */\n      swap1\n      pop\n        /* \"marketplace.sol\":4712:4713  0 */\n      0x00\n        /* \"marketplace.sol\":4691:4700  shoseSell */\n      0x0a\n        /* \"marketplace.sol\":4691:4709  shoseSell[tokenId] */\n      0x00\n        /* \"marketplace.sol\":4701:4708  tokenId */\n      dup5\n        /* \"marketplace.sol\":4691:4709  shoseSell[tokenId] */\n      dup2\n      mstore\n      0x20\n      add\n      swap1\n      dup2\n      mstore\n      0x20\n      add\n      0x00\n      keccak256\n      sload\n        /* \"marketplace.sol\":4691:4713  shoseSell[tokenId] > 0 */\n      gt\n        /* \"marketplace.sol\":4683:4737  require(shoseSell[tokenId] > 0,\"VicShose not in sell\") */\n      tag_271\n      jumpi\n      mload(0x40)\n      0x08c379a000000000000000000000000000000000000000000000000000000000\n      dup2\n      mstore\n      0x04\n      add\n      tag_272\n      swap1\n      tag_223\n      jump\t// in\n    tag_272:\n      mload(0x40)\n      dup1\n      swap2\n      sub\n      swap1\n      revert\n    tag_271:\n        /* \"marketplace.sol\":4840:4846  seller */\n      dup1\n        /* \"marketplace.sol\":4784:4846  IERC721Enumerable(ShoseNFTContract).ownerOf(tokenId) == seller */\n      0xffffffffffffffffffffffffffffffffffffffff\n      and\n        /* \"marketplace.sol\":4802:4818  ShoseNFTContract */\n      0x03\n      0x00\n      swap1\n      sload\n      swap1\n      0x0100\n      exp\n      swap1\n      div\n      0xffffffffffffffffffffffffffffffffffffffff\n      and\n        /* \"marketplace.sol\":4784:4827  IERC721Enumerable(ShoseNFTContract).ownerOf */\n      0xffffffffffffffffffffffffffffffffffffffff\n      and\n      0x6352211e\n        /* \"marketplace.sol\":4828:4835  tokenId */\n      dup5\n        /* \"marketplace.sol\":4784:4836  IERC721Enumerable(ShoseNFTContract).ownerOf(tokenId) */\n      mload(0x40)\n      dup3\n      0xffffffff\n      and\n      0xe0\n      shl\n      dup2\n      mstore\n      0x04\n      add\n      tag_273\n      swap2\n      swap1\n      tag_78\n      jump\t// in\n    tag_273:\n      0x20\n      mload(0x40)\n      dup1\n      dup4\n      sub\n      dup2\n      dup7\n      dup1\n      extcodesize\n      iszero\n      dup1\n      iszero\n      tag_274\n      jumpi\n      0x00\n      dup1\n      revert\n    tag_274:\n      pop\n      gas\n      staticcall\n      iszero\n      dup1\n      iszero\n      tag_276\n      jumpi\n      returndatasize\n      0x00\n      dup1\n      returndatacopy\n      revert(0x00, returndatasize)\n    tag_276:\n      pop\n      pop\n      pop\n      pop\n      mload(0x40)\n      returndatasize\n      not(0x1f)\n      0x1f\n      dup3\n      add\n      and\n      dup3\n      add\n      dup1\n      0x40\n      mstore\n      pop\n      dup2\n      add\n      swap1\n      tag_277\n      swap2\n      swap1\n      tag_229\n      jump\t// in\n    tag_277:\n        /* \"marketplace.sol\":4784:4846  IERC721Enumerable(ShoseNFTContract).ownerOf(tokenId) == seller */\n      0xffffffffffffffffffffffffffffffffffffffff\n      and\n      eq\n        /* \"marketplace.sol\":4776:4879  require(IERC721Enumerable(ShoseNFTContract).ownerOf(tokenId) == seller,\"seller need have this tokenid\") */\n      tag_278\n      jumpi\n      mload(0x40)\n      0x08c379a000000000000000000000000000000000000000000000000000000000\n      dup2\n      mstore\n      0x04\n      add\n      tag_279\n      swap1\n      tag_232\n      jump\t// in\n    tag_279:\n      mload(0x40)\n      dup1\n      swap2\n      sub\n      swap1\n      revert\n    tag_278:\n        /* \"marketplace.sol\":4966:4982  ShoseNFTContract */\n      0x03\n      0x00\n      swap1\n      sload\n      swap1\n      0x0100\n      exp\n      swap1\n      div\n      0xffffffffffffffffffffffffffffffffffffffff\n      and\n        /* \"marketplace.sol\":4948:5000  IERC721Enumerable(ShoseNFTContract).isApprovedForAll */\n      0xffffffffffffffffffffffffffffffffffffffff\n      and\n      0xe985e9c5\n        /* \"marketplace.sol\":5001:5007  seller */\n      dup3\n        /* \"marketplace.sol\":5016:5020  this */\n      address\n        /* \"marketplace.sol\":4948:5022  IERC721Enumerable(ShoseNFTContract).isApprovedForAll(seller,address(this)) */\n      mload(0x40)\n      dup4\n      0xffffffff\n      and\n      0xe0\n      shl\n      dup2\n      mstore\n      0x04\n      add\n      tag_280\n      swap3\n      swap2\n      swap1\n      tag_241\n      jump\t// in\n    tag_280:\n      0x20\n      mload(0x40)\n      dup1\n      dup4\n      sub\n      dup2\n      dup7\n      dup1\n      extcodesize\n      iszero\n      dup1\n      iszero\n      tag_281\n      jumpi\n      0x00\n      dup1\n      revert\n    tag_281:\n      pop\n      gas\n      staticcall\n      iszero\n      dup1\n      iszero\n      tag_283\n      jumpi\n      returndatasize\n      0x00\n      dup1\n      returndatacopy\n      revert(0x00, returndatasize)\n    tag_283:\n      pop\n      pop\n      pop\n      pop\n      mload(0x40)\n      returndatasize\n      not(0x1f)\n      0x1f\n      dup3\n      add\n      and\n      dup3\n      add\n      dup1\n      0x40\n      mstore\n      pop\n      dup2\n      add\n      swap1\n      tag_284\n      swap2\n      swap1\n      tag_246\n      jump\t// in\n    tag_284:\n        /* \"marketplace.sol\":4940:5066  require(IERC721Enumerable(ShoseNFTContract).isApprovedForAll(seller,address(this)),\"You need Approve For All to this contact\") */\n      tag_285\n      jumpi\n      mload(0x40)\n      0x08c379a000000000000000000000000000000000000000000000000000000000\n      dup2\n      mstore\n      0x04\n      add\n      tag_286\n      swap1\n      tag_249\n      jump\t// in\n    tag_286:\n      mload(0x40)\n      dup1\n      swap2\n      sub\n      swap1\n      revert\n    tag_285:\n        /* \"marketplace.sol\":5076:5089  address buyer */\n      0x00\n        /* \"marketplace.sol\":5092:5102  msg.sender */\n      caller\n        /* \"marketplace.sol\":5076:5102  address buyer = msg.sender */\n      swap1\n      pop\n        /* \"marketplace.sol\":5112:5128  uint256 minprice */\n      0x00\n        /* \"marketplace.sol\":5131:5144  getMINPrice() */\n      tag_287\n        /* \"marketplace.sol\":5131:5142  getMINPrice */\n      tag_172\n        /* \"marketplace.sol\":5131:5144  getMINPrice() */\n      jump\t// in\n    tag_287:\n        /* \"marketplace.sol\":5112:5144  uint256 minprice = getMINPrice() */\n      swap1\n      pop\n        /* \"marketplace.sol\":5154:5170  uint256 buyPrice */\n      0x00\n        /* \"marketplace.sol\":5173:5181  minprice */\n      dup2\n        /* \"marketplace.sol\":5154:5181  uint256 buyPrice = minprice */\n      swap1\n      pop\n        /* \"marketplace.sol\":5191:5208  uint256 sellPrice */\n      0x00\n        /* \"marketplace.sol\":5211:5220  shoseSell */\n      0x0a\n        /* \"marketplace.sol\":5211:5229  shoseSell[tokenId] */\n      0x00\n        /* \"marketplace.sol\":5221:5228  tokenId */\n      dup8\n        /* \"marketplace.sol\":5211:5229  shoseSell[tokenId] */\n      dup2\n      mstore\n      0x20\n      add\n      swap1\n      dup2\n      mstore\n      0x20\n      add\n      0x00\n      keccak256\n      sload\n        /* \"marketplace.sol\":5191:5229  uint256 sellPrice = shoseSell[tokenId] */\n      swap1\n      pop\n        /* \"marketplace.sol\":5254:5262  minprice */\n      dup3\n        /* \"marketplace.sol\":5242:5251  sellPrice */\n      dup2\n        /* \"marketplace.sol\":5242:5262  sellPrice > minprice */\n      gt\n        /* \"marketplace.sol\":5239:5308  if(sellPrice > minprice){... */\n      iszero\n      tag_288\n      jumpi\n        /* \"marketplace.sol\":5288:5297  sellPrice */\n      dup1\n        /* \"marketplace.sol\":5277:5297  buyPrice = sellPrice */\n      swap2\n      pop\n        /* \"marketplace.sol\":5239:5308  if(sellPrice > minprice){... */\n    tag_288:\n        /* \"marketplace.sol\":5390:5396  10**18 */\n      0x0de0b6b3a7640000\n        /* \"marketplace.sol\":5379:5387  buyPrice */\n      dup3\n        /* \"marketplace.sol\":5379:5396  buyPrice * 10**18 */\n      tag_289\n      swap2\n      swap1\n      tag_290\n      jump\t// in\n    tag_289:\n        /* \"marketplace.sol\":5332:5343  VIMContract */\n      0x04\n      0x00\n      swap1\n      sload\n      swap1\n      0x0100\n      exp\n      swap1\n      div\n      0xffffffffffffffffffffffffffffffffffffffff\n      and\n        /* \"marketplace.sol\":5325:5354  IBEP20(VIMContract).allowance */\n      0xffffffffffffffffffffffffffffffffffffffff\n      and\n      0xdd62ed3e\n        /* \"marketplace.sol\":5355:5360  buyer */\n      dup7\n        /* \"marketplace.sol\":5369:5373  this */\n      address\n        /* \"marketplace.sol\":5325:5375  IBEP20(VIMContract).allowance(buyer,address(this)) */\n      mload(0x40)\n      dup4\n      0xffffffff\n      and\n      0xe0\n      shl\n      dup2\n      mstore\n      0x04\n      add\n      tag_291\n      swap3\n      swap2\n      swap1\n      tag_241\n      jump\t// in\n    tag_291:\n      0x20\n      mload(0x40)\n      dup1\n      dup4\n      sub\n      dup2\n      dup7\n      dup1\n      extcodesize\n      iszero\n      dup1\n      iszero\n      tag_292\n      jumpi\n      0x00\n      dup1\n      revert\n    tag_292:\n      pop\n      gas\n      staticcall\n      iszero\n      dup1\n      iszero\n      tag_294\n      jumpi\n      returndatasize\n      0x00\n      dup1\n      returndatacopy\n      revert(0x00, returndatasize)\n    tag_294:\n      pop\n      pop\n      pop\n      pop\n      mload(0x40)\n      returndatasize\n      not(0x1f)\n      0x1f\n      dup3\n      add\n      and\n      dup3\n      add\n      dup1\n      0x40\n      mstore\n      pop\n      dup2\n      add\n      swap1\n      tag_295\n      swap2\n      swap1\n      tag_217\n      jump\t// in\n    tag_295:\n        /* \"marketplace.sol\":5325:5396  IBEP20(VIMContract).allowance(buyer,address(this)) >= buyPrice * 10**18 */\n      lt\n      iszero\n        /* \"marketplace.sol\":5317:5471  require(IBEP20(VIMContract).allowance(buyer,address(this)) >= buyPrice * 10**18,\"The money allowed is not enough to buy shoes. You need approve more VIM\") */\n      tag_296\n      jumpi\n      mload(0x40)\n      0x08c379a000000000000000000000000000000000000000000000000000000000\n      dup2\n      mstore\n      0x04\n      add\n      tag_297\n      swap1\n      tag_298\n      jump\t// in\n    tag_297:\n      mload(0x40)\n      dup1\n      swap2\n      sub\n      swap1\n      revert\n    tag_296:\n        /* \"marketplace.sol\":5596:5607  VIMContract */\n      0x04\n      0x00\n      swap1\n      sload\n      swap1\n      0x0100\n      exp\n      swap1\n      div\n      0xffffffffffffffffffffffffffffffffffffffff\n      and\n        /* \"marketplace.sol\":5589:5621  IBEP20(VIMContract).transferFrom */\n      0xffffffffffffffffffffffffffffffffffffffff\n      and\n      0x23b872dd\n        /* \"marketplace.sol\":5622:5627  buyer */\n      dup6\n        /* \"marketplace.sol\":5636:5640  this */\n      address\n        /* \"marketplace.sol\":5653:5659  10**18 */\n      0x0de0b6b3a7640000\n        /* \"marketplace.sol\":5642:5650  buyPrice */\n      dup7\n        /* \"marketplace.sol\":5642:5659  buyPrice * 10**18 */\n      tag_299\n      swap2\n      swap1\n      tag_290\n      jump\t// in\n    tag_299:\n        /* \"marketplace.sol\":5589:5660  IBEP20(VIMContract).transferFrom(buyer,address(this),buyPrice * 10**18) */\n      mload(0x40)\n      dup5\n      0xffffffff\n      and\n      0xe0\n      shl\n      dup2\n      mstore\n      0x04\n      add\n      tag_300\n      swap4\n      swap3\n      swap2\n      swap1\n      tag_257\n      jump\t// in\n    tag_300:\n      0x20\n      mload(0x40)\n      dup1\n      dup4\n      sub\n      dup2\n      0x00\n      dup8\n      dup1\n      extcodesize\n      iszero\n      dup1\n      iszero\n      tag_301\n      jumpi\n      0x00\n      dup1\n      revert\n    tag_301:\n      pop\n      gas\n      call\n      iszero\n      dup1\n      iszero\n      tag_303\n      jumpi\n      returndatasize\n      0x00\n      dup1\n      returndatacopy\n      revert(0x00, returndatasize)\n    tag_303:\n      pop\n      pop\n      pop\n      pop\n      mload(0x40)\n      returndatasize\n      not(0x1f)\n      0x1f\n      dup3\n      add\n      and\n      dup3\n      add\n      dup1\n      0x40\n      mstore\n      pop\n      dup2\n      add\n      swap1\n      tag_304\n      swap2\n      swap1\n      tag_246\n      jump\t// in\n    tag_304:\n      pop\n        /* \"marketplace.sol\":5719:5735  ShoseNFTContract */\n      0x03\n      0x00\n      swap1\n      sload\n      swap1\n      0x0100\n      exp\n      swap1\n      div\n      0xffffffffffffffffffffffffffffffffffffffff\n      and\n        /* \"marketplace.sol\":5701:5753  IERC721Enumerable(ShoseNFTContract).safeTransferFrom */\n      0xffffffffffffffffffffffffffffffffffffffff\n      and\n      0x42842e0e\n        /* \"marketplace.sol\":5754:5760  seller */\n      dup7\n        /* \"marketplace.sol\":5761:5766  buyer */\n      dup7\n        /* \"marketplace.sol\":5768:5775  tokenId */\n      dup10\n        /* \"marketplace.sol\":5701:5776  IERC721Enumerable(ShoseNFTContract).safeTransferFrom(seller,buyer, tokenId) */\n      mload(0x40)\n      dup5\n      0xffffffff\n      and\n      0xe0\n      shl\n      dup2\n      mstore\n      0x04\n      add\n      tag_305\n      swap4\n      swap3\n      swap2\n      swap1\n      tag_257\n      jump\t// in\n    tag_305:\n      0x00\n      mload(0x40)\n      dup1\n      dup4\n      sub\n      dup2\n      0x00\n      dup8\n      dup1\n      extcodesize\n      iszero\n      dup1\n      iszero\n      tag_306\n      jumpi\n      0x00\n      dup1\n      revert\n    tag_306:\n      pop\n      gas\n      call\n      iszero\n      dup1\n      iszero\n      tag_308\n      jumpi\n      returndatasize\n      0x00\n      dup1\n      returndatacopy\n      revert(0x00, returndatasize)\n    tag_308:\n      pop\n      pop\n      pop\n      pop\n        /* \"marketplace.sol\":5871:5882  uint256 fee */\n      0x00\n        /* \"marketplace.sol\":5912:5920  minprice */\n      dup4\n        /* \"marketplace.sol\":5899:5908  sellPrice */\n      dup3\n        /* \"marketplace.sol\":5899:5920  sellPrice >= minprice */\n      lt\n        /* \"marketplace.sol\":5896:6160  if(sellPrice >= minprice){... */\n      tag_309\n      jumpi\n        /* \"marketplace.sol\":5955:5958  100 */\n      0x64\n        /* \"marketplace.sol\":5951:5954  tax */\n      sload(0x07)\n        /* \"marketplace.sol\":5941:5950  sellPrice */\n      dup4\n        /* \"marketplace.sol\":5941:5954  sellPrice*tax */\n      tag_310\n      swap2\n      swap1\n      tag_290\n      jump\t// in\n    tag_310:\n        /* \"marketplace.sol\":5941:5958  sellPrice*tax/100 */\n      tag_311\n      swap2\n      swap1\n      tag_312\n      jump\t// in\n    tag_311:\n        /* \"marketplace.sol\":5935:5958  fee = sellPrice*tax/100 */\n      swap1\n      pop\n        /* \"marketplace.sol\":5896:6160  if(sellPrice >= minprice){... */\n      jump(tag_313)\n    tag_309:\n        /* \"marketplace.sol\":6021:6030  sellPrice */\n      dup2\n        /* \"marketplace.sol\":6010:6018  minprice */\n      dup5\n        /* \"marketplace.sol\":6010:6030  minprice - sellPrice */\n      tag_314\n      swap2\n      swap1\n      tag_315\n      jump\t// in\n    tag_314:\n        /* \"marketplace.sol\":6004:6007  100 */\n      0x64\n        /* \"marketplace.sol\":6000:6003  tax */\n      sload(0x07)\n        /* \"marketplace.sol\":5990:5999  sellPrice */\n      dup5\n        /* \"marketplace.sol\":5990:6003  sellPrice*tax */\n      tag_316\n      swap2\n      swap1\n      tag_290\n      jump\t// in\n    tag_316:\n        /* \"marketplace.sol\":5990:6007  sellPrice*tax/100 */\n      tag_317\n      swap2\n      swap1\n      tag_312\n      jump\t// in\n    tag_317:\n        /* \"marketplace.sol\":5990:6030  sellPrice*tax/100 > minprice - sellPrice */\n      gt\n        /* \"marketplace.sol\":5987:6150  if(sellPrice*tax/100 > minprice - sellPrice){... */\n      iszero\n      tag_318\n      jumpi\n        /* \"marketplace.sol\":6069:6072  100 */\n      0x64\n        /* \"marketplace.sol\":6065:6068  tax */\n      sload(0x07)\n        /* \"marketplace.sol\":6055:6064  sellPrice */\n      dup4\n        /* \"marketplace.sol\":6055:6068  sellPrice*tax */\n      tag_319\n      swap2\n      swap1\n      tag_290\n      jump\t// in\n    tag_319:\n        /* \"marketplace.sol\":6055:6072  sellPrice*tax/100 */\n      tag_320\n      swap2\n      swap1\n      tag_312\n      jump\t// in\n    tag_320:\n        /* \"marketplace.sol\":6049:6072  fee = sellPrice*tax/100 */\n      swap1\n      pop\n        /* \"marketplace.sol\":5987:6150  if(sellPrice*tax/100 > minprice - sellPrice){... */\n      jump(tag_321)\n    tag_318:\n        /* \"marketplace.sol\":6126:6135  sellPrice */\n      dup2\n        /* \"marketplace.sol\":6115:6123  minprice */\n      dup5\n        /* \"marketplace.sol\":6115:6135  minprice - sellPrice */\n      tag_322\n      swap2\n      swap1\n      tag_315\n      jump\t// in\n    tag_322:\n        /* \"marketplace.sol\":6109:6135  fee = minprice - sellPrice */\n      swap1\n      pop\n        /* \"marketplace.sol\":5987:6150  if(sellPrice*tax/100 > minprice - sellPrice){... */\n    tag_321:\n        /* \"marketplace.sol\":5896:6160  if(sellPrice >= minprice){... */\n    tag_313:\n        /* \"marketplace.sol\":6176:6187  VIMContract */\n      0x04\n      0x00\n      swap1\n      sload\n      swap1\n      0x0100\n      exp\n      swap1\n      div\n      0xffffffffffffffffffffffffffffffffffffffff\n      and\n        /* \"marketplace.sol\":6169:6197  IBEP20(VIMContract).transfer */\n      0xffffffffffffffffffffffffffffffffffffffff\n      and\n      0xa9059cbb\n        /* \"marketplace.sol\":6198:6204  seller */\n      dup8\n        /* \"marketplace.sol\":6223:6229  10**18 */\n      0x0de0b6b3a7640000\n        /* \"marketplace.sol\":6216:6219  fee */\n      dup5\n        /* \"marketplace.sol\":6207:6215  buyPrice */\n      dup8\n        /* \"marketplace.sol\":6207:6219  buyPrice-fee */\n      tag_323\n      swap2\n      swap1\n      tag_315\n      jump\t// in\n    tag_323:\n        /* \"marketplace.sol\":6206:6229  (buyPrice-fee) * 10**18 */\n      tag_324\n      swap2\n      swap1\n      tag_290\n      jump\t// in\n    tag_324:\n        /* \"marketplace.sol\":6169:6230  IBEP20(VIMContract).transfer(seller, (buyPrice-fee) * 10**18) */\n      mload(0x40)\n      dup4\n      0xffffffff\n      and\n      0xe0\n      shl\n      dup2\n      mstore\n      0x04\n      add\n      tag_325\n      swap3\n      swap2\n      swap1\n      tag_262\n      jump\t// in\n    tag_325:\n      0x20\n      mload(0x40)\n      dup1\n      dup4\n      sub\n      dup2\n      0x00\n      dup8\n      dup1\n      extcodesize\n      iszero\n      dup1\n      iszero\n      tag_326\n      jumpi\n      0x00\n      dup1\n      revert\n    tag_326:\n      pop\n      gas\n      call\n      iszero\n      dup1\n      iszero\n      tag_328\n      jumpi\n      returndatasize\n      0x00\n      dup1\n      returndatacopy\n      revert(0x00, returndatasize)\n    tag_328:\n      pop\n      pop\n      pop\n      pop\n      mload(0x40)\n      returndatasize\n      not(0x1f)\n      0x1f\n      dup3\n      add\n      and\n      dup3\n      add\n      dup1\n      0x40\n      mstore\n      pop\n      dup2\n      add\n      swap1\n      tag_329\n      swap2\n      swap1\n      tag_246\n      jump\t// in\n    tag_329:\n      pop\n        /* \"marketplace.sol\":6306:6317  VIMContract */\n      0x04\n      0x00\n      swap1\n      sload\n      swap1\n      0x0100\n      exp\n      swap1\n      div\n      0xffffffffffffffffffffffffffffffffffffffff\n      and\n        /* \"marketplace.sol\":6299:6327  IBEP20(VIMContract).transfer */\n      0xffffffffffffffffffffffffffffffffffffffff\n      and\n      0xa9059cbb\n        /* \"marketplace.sol\":6328:6336  Treasury */\n      0x01\n      0x00\n      swap1\n      sload\n      swap1\n      0x0100\n      exp\n      swap1\n      div\n      0xffffffffffffffffffffffffffffffffffffffff\n      and\n        /* \"marketplace.sol\":6343:6349  10**18 */\n      0x0de0b6b3a7640000\n        /* \"marketplace.sol\":6337:6340  fee */\n      dup5\n        /* \"marketplace.sol\":6337:6349  fee * 10**18 */\n      tag_330\n      swap2\n      swap1\n      tag_290\n      jump\t// in\n    tag_330:\n        /* \"marketplace.sol\":6299:6350  IBEP20(VIMContract).transfer(Treasury,fee * 10**18) */\n      mload(0x40)\n      dup4\n      0xffffffff\n      and\n      0xe0\n      shl\n      dup2\n      mstore\n      0x04\n      add\n      tag_331\n      swap3\n      swap2\n      swap1\n      tag_262\n      jump\t// in\n    tag_331:\n      0x20\n      mload(0x40)\n      dup1\n      dup4\n      sub\n      dup2\n      0x00\n      dup8\n      dup1\n      extcodesize\n      iszero\n      dup1\n      iszero\n      tag_332\n      jumpi\n      0x00\n      dup1\n      revert\n    tag_332:\n      pop\n      gas\n      call\n      iszero\n      dup1\n      iszero\n      tag_334\n      jumpi\n      returndatasize\n      0x00\n      dup1\n      returndatacopy\n      revert(0x00, returndatasize)\n    tag_334:\n      pop\n      pop\n      pop\n      pop\n      mload(0x40)\n      returndatasize\n      not(0x1f)\n      0x1f\n      dup3\n      add\n      and\n      dup3\n      add\n      dup1\n      0x40\n      mstore\n      pop\n      dup2\n      add\n      swap1\n      tag_335\n      swap2\n      swap1\n      tag_246\n      jump\t// in\n    tag_335:\n      pop\n        /* \"marketplace.sol\":6436:6441  buyer */\n      dup5\n        /* \"marketplace.sol\":6412:6424  shoseTranfer */\n      0x09\n        /* \"marketplace.sol\":6412:6433  shoseTranfer[tokenId] */\n      0x00\n        /* \"marketplace.sol\":6425:6432  tokenId */\n      dup10\n        /* \"marketplace.sol\":6412:6433  shoseTranfer[tokenId] */\n      dup2\n      mstore\n      0x20\n      add\n      swap1\n      dup2\n      mstore\n      0x20\n      add\n      0x00\n      keccak256\n      0x00\n        /* \"marketplace.sol\":6412:6441  shoseTranfer[tokenId] = buyer */\n      0x0100\n      exp\n      dup2\n      sload\n      dup2\n      0xffffffffffffffffffffffffffffffffffffffff\n      mul\n      not\n      and\n      swap1\n      dup4\n      0xffffffffffffffffffffffffffffffffffffffff\n      and\n      mul\n      or\n      swap1\n      sstore\n      pop\n        /* \"marketplace.sol\":6528:6550  removeNFTSell(tokenId) */\n      tag_336\n        /* \"marketplace.sol\":6542:6549  tokenId */\n      dup8\n        /* \"marketplace.sol\":6528:6541  removeNFTSell */\n      tag_234\n        /* \"marketplace.sol\":6528:6550  removeNFTSell(tokenId) */\n      jump\t// in\n    tag_336:\n        /* \"marketplace.sol\":6587:6612  eventBuyVicShose(tokenId) */\n      0x2b66287559b2a137ea3e7a6ab376630ef6165451c4d691bd218b503aa276f89d\n        /* \"marketplace.sol\":6604:6611  tokenId */\n      dup8\n        /* \"marketplace.sol\":6587:6612  eventBuyVicShose(tokenId) */\n      mload(0x40)\n      tag_337\n      swap2\n      swap1\n      tag_78\n      jump\t// in\n    tag_337:\n      mload(0x40)\n      dup1\n      swap2\n      sub\n      swap1\n      log1\n        /* \"marketplace.sol\":4626:6631  {... */\n      pop\n      pop\n      pop\n      pop\n      pop\n      pop\n        /* \"marketplace.sol\":4565:6631  function BuyVicShose(uint256 tokenId) external whenNotPaused {... */\n      pop\n      jump\t// out\n        /* \"marketplace.sol\":3627:4185  function SellVicShose(uint256 tokenId,uint256 price) external whenNotPaused {... */\n    tag_112:\n        /* \"BEPPausable.sol\":424:430  paused */\n      0x00\n      0x14\n      swap1\n      sload\n      swap1\n      0x0100\n      exp\n      swap1\n      div\n      0xff\n      and\n        /* \"BEPPausable.sol\":423:430  !paused */\n      iszero\n        /* \"BEPPausable.sol\":415:431  require(!paused) */\n      tag_339\n      jumpi\n      0x00\n      dup1\n      revert\n    tag_339:\n        /* \"marketplace.sol\":3743:3744  0 */\n      0x00\n        /* \"marketplace.sol\":3721:3730  shoseSell */\n      0x0a\n        /* \"marketplace.sol\":3721:3739  shoseSell[tokenId] */\n      0x00\n        /* \"marketplace.sol\":3731:3738  tokenId */\n      dup5\n        /* \"marketplace.sol\":3721:3739  shoseSell[tokenId] */\n      dup2\n      mstore\n      0x20\n      add\n      swap1\n      dup2\n      mstore\n      0x20\n      add\n      0x00\n      keccak256\n      sload\n        /* \"marketplace.sol\":3721:3744  shoseSell[tokenId] == 0 */\n      eq\n        /* \"marketplace.sol\":3713:3761  require(shoseSell[tokenId] == 0,\"it is selling\") */\n      tag_341\n      jumpi\n      mload(0x40)\n      0x08c379a000000000000000000000000000000000000000000000000000000000\n      dup2\n      mstore\n      0x04\n      add\n      tag_342\n      swap1\n      tag_343\n      jump\t// in\n    tag_342:\n      mload(0x40)\n      dup1\n      swap2\n      sub\n      swap1\n      revert\n    tag_341:\n        /* \"marketplace.sol\":3771:3785  address seller */\n      0x00\n        /* \"marketplace.sol\":3788:3798  msg.sender */\n      caller\n        /* \"marketplace.sol\":3771:3798  address seller = msg.sender */\n      swap1\n      pop\n        /* \"marketplace.sol\":3872:3878  seller */\n      dup1\n        /* \"marketplace.sol\":3816:3878  IERC721Enumerable(ShoseNFTContract).ownerOf(tokenId) == seller */\n      0xffffffffffffffffffffffffffffffffffffffff\n      and\n        /* \"marketplace.sol\":3834:3850  ShoseNFTContract */\n      0x03\n      0x00\n      swap1\n      sload\n      swap1\n      0x0100\n      exp\n      swap1\n      div\n      0xffffffffffffffffffffffffffffffffffffffff\n      and\n        /* \"marketplace.sol\":3816:3859  IERC721Enumerable(ShoseNFTContract).ownerOf */\n      0xffffffffffffffffffffffffffffffffffffffff\n      and\n      0x6352211e\n        /* \"marketplace.sol\":3860:3867  tokenId */\n      dup6\n        /* \"marketplace.sol\":3816:3868  IERC721Enumerable(ShoseNFTContract).ownerOf(tokenId) */\n      mload(0x40)\n      dup3\n      0xffffffff\n      and\n      0xe0\n      shl\n      dup2\n      mstore\n      0x04\n      add\n      tag_344\n      swap2\n      swap1\n      tag_78\n      jump\t// in\n    tag_344:\n      0x20\n      mload(0x40)\n      dup1\n      dup4\n      sub\n      dup2\n      dup7\n      dup1\n      extcodesize\n      iszero\n      dup1\n      iszero\n      tag_345\n      jumpi\n      0x00\n      dup1\n      revert\n    tag_345:\n      pop\n      gas\n      staticcall\n      iszero\n      dup1\n      iszero\n      tag_347\n      jumpi\n      returndatasize\n      0x00\n      dup1\n      returndatacopy\n      revert(0x00, returndatasize)\n    tag_347:\n      pop\n      pop\n      pop\n      pop\n      mload(0x40)\n      returndatasize\n      not(0x1f)\n      0x1f\n      dup3\n      add\n      and\n      dup3\n      add\n      dup1\n      0x40\n      mstore\n      pop\n      dup2\n      add\n      swap1\n      tag_348\n      swap2\n      swap1\n      tag_229\n      jump\t// in\n    tag_348:\n        /* \"marketplace.sol\":3816:3878  IERC721Enumerable(ShoseNFTContract).ownerOf(tokenId) == seller */\n      0xffffffffffffffffffffffffffffffffffffffff\n      and\n      eq\n        /* \"marketplace.sol\":3808:3911  require(IERC721Enumerable(ShoseNFTContract).ownerOf(tokenId) == seller,\"seller need have this tokenid\") */\n      tag_349\n      jumpi\n      mload(0x40)\n      0x08c379a000000000000000000000000000000000000000000000000000000000\n      dup2\n      mstore\n      0x04\n      add\n      tag_350\n      swap1\n      tag_232\n      jump\t// in\n    tag_350:\n      mload(0x40)\n      dup1\n      swap2\n      sub\n      swap1\n      revert\n    tag_349:\n        /* \"marketplace.sol\":3947:3963  ShoseNFTContract */\n      0x03\n      0x00\n      swap1\n      sload\n      swap1\n      0x0100\n      exp\n      swap1\n      div\n      0xffffffffffffffffffffffffffffffffffffffff\n      and\n        /* \"marketplace.sol\":3929:3981  IERC721Enumerable(ShoseNFTContract).isApprovedForAll */\n      0xffffffffffffffffffffffffffffffffffffffff\n      and\n      0xe985e9c5\n        /* \"marketplace.sol\":3982:3988  seller */\n      dup3\n        /* \"marketplace.sol\":3997:4001  this */\n      address\n        /* \"marketplace.sol\":3929:4003  IERC721Enumerable(ShoseNFTContract).isApprovedForAll(seller,address(this)) */\n      mload(0x40)\n      dup4\n      0xffffffff\n      and\n      0xe0\n      shl\n      dup2\n      mstore\n      0x04\n      add\n      tag_351\n      swap3\n      swap2\n      swap1\n      tag_241\n      jump\t// in\n    tag_351:\n      0x20\n      mload(0x40)\n      dup1\n      dup4\n      sub\n      dup2\n      dup7\n      dup1\n      extcodesize\n      iszero\n      dup1\n      iszero\n      tag_352\n      jumpi\n      0x00\n      dup1\n      revert\n    tag_352:\n      pop\n      gas\n      staticcall\n      iszero\n      dup1\n      iszero\n      tag_354\n      jumpi\n      returndatasize\n      0x00\n      dup1\n      returndatacopy\n      revert(0x00, returndatasize)\n    tag_354:\n      pop\n      pop\n      pop\n      pop\n      mload(0x40)\n      returndatasize\n      not(0x1f)\n      0x1f\n      dup3\n      add\n      and\n      dup3\n      add\n      dup1\n      0x40\n      mstore\n      pop\n      dup2\n      add\n      swap1\n      tag_355\n      swap2\n      swap1\n      tag_246\n      jump\t// in\n    tag_355:\n        /* \"marketplace.sol\":3921:4047  require(IERC721Enumerable(ShoseNFTContract).isApprovedForAll(seller,address(this)),\"You need Approve For All to this contact\") */\n      tag_356\n      jumpi\n      mload(0x40)\n      0x08c379a000000000000000000000000000000000000000000000000000000000\n      dup2\n      mstore\n      0x04\n      add\n      tag_357\n      swap1\n      tag_249\n      jump\t// in\n    tag_357:\n      mload(0x40)\n      dup1\n      swap2\n      sub\n      swap1\n      revert\n    tag_356:\n        /* \"marketplace.sol\":4073:4074  0 */\n      0x00\n        /* \"marketplace.sol\":4065:4070  price */\n      dup3\n        /* \"marketplace.sol\":4065:4074  price > 0 */\n      gt\n        /* \"marketplace.sol\":4057:4088  require(price > 0, \"Price > 0\") */\n      tag_358\n      jumpi\n      mload(0x40)\n      0x08c379a000000000000000000000000000000000000000000000000000000000\n      dup2\n      mstore\n      0x04\n      add\n      tag_359\n      swap1\n      tag_360\n      jump\t// in\n    tag_359:\n      mload(0x40)\n      dup1\n      swap2\n      sub\n      swap1\n      revert\n    tag_358:\n        /* \"marketplace.sol\":4098:4131  addNFTSell(tokenId, price,seller) */\n      tag_361\n        /* \"marketplace.sol\":4109:4116  tokenId */\n      dup4\n        /* \"marketplace.sol\":4118:4123  price */\n      dup4\n        /* \"marketplace.sol\":4124:4130  seller */\n      dup4\n        /* \"marketplace.sol\":4098:4108  addNFTSell */\n      tag_362\n        /* \"marketplace.sol\":4098:4131  addNFTSell(tokenId, price,seller) */\n      jump\t// in\n    tag_361:\n        /* \"marketplace.sol\":4146:4178  eventSellVicShose(tokenId,price) */\n      0x55bb046a6e950af74fcdaaa97a1a82c49209d72a5fcda0925a019dfba29c8f72\n        /* \"marketplace.sol\":4164:4171  tokenId */\n      dup4\n        /* \"marketplace.sol\":4172:4177  price */\n      dup4\n        /* \"marketplace.sol\":4146:4178  eventSellVicShose(tokenId,price) */\n      mload(0x40)\n      tag_363\n      swap3\n      swap2\n      swap1\n      tag_364\n      jump\t// in\n    tag_363:\n      mload(0x40)\n      dup1\n      swap2\n      sub\n      swap1\n      log1\n        /* \"marketplace.sol\":3703:4185  {... */\n      pop\n        /* \"marketplace.sol\":3627:4185  function SellVicShose(uint256 tokenId,uint256 price) external whenNotPaused {... */\n      pop\n      pop\n      jump\t// out\n        /* \"BEPPausable.sol\":666:788  function pause() public onlyOwner whenNotPaused returns (bool) {... */\n    tag_115:\n        /* \"BEPPausable.sol\":723:727  bool */\n      0x00\n        /* \"BEPOwnable.sol\":1085:1094  isOwner() */\n      tag_366\n        /* \"BEPOwnable.sol\":1085:1092  isOwner */\n      tag_127\n        /* \"BEPOwnable.sol\":1085:1094  isOwner() */\n      jump\t// in\n    tag_366:\n        /* \"BEPOwnable.sol\":1077:1131  require(isOwner(), \"Ownable: caller is not the owner\") */\n      tag_367\n      jumpi\n      mload(0x40)\n      0x08c379a000000000000000000000000000000000000000000000000000000000\n      dup2\n      mstore\n      0x04\n      add\n      tag_368\n      swap1\n      tag_189\n      jump\t// in\n    tag_368:\n      mload(0x40)\n      dup1\n      swap2\n      sub\n      swap1\n      revert\n    tag_367:\n        /* \"BEPPausable.sol\":424:430  paused */\n      0x00\n      0x14\n      swap1\n      sload\n      swap1\n      0x0100\n      exp\n      swap1\n      div\n      0xff\n      and\n        /* \"BEPPausable.sol\":423:430  !paused */\n      iszero\n        /* \"BEPPausable.sol\":415:431  require(!paused) */\n      tag_370\n      jumpi\n      0x00\n      dup1\n      revert\n    tag_370:\n        /* \"BEPPausable.sol\":744:748  true */\n      0x01\n        /* \"BEPPausable.sol\":735:741  paused */\n      0x00\n      0x14\n        /* \"BEPPausable.sol\":735:748  paused = true */\n      0x0100\n      exp\n      dup2\n      sload\n      dup2\n      0xff\n      mul\n      not\n      and\n      swap1\n      dup4\n      iszero\n      iszero\n      mul\n      or\n      swap1\n      sstore\n      pop\n        /* \"BEPPausable.sol\":759:766  Pause() */\n      0x6985a02210a168e66602d3235cb6db0e70f92b3ba4d376a33c0f3d9434bff625\n      mload(0x40)\n      mload(0x40)\n      dup1\n      swap2\n      sub\n      swap1\n      log1\n        /* \"BEPPausable.sol\":779:783  true */\n      0x01\n        /* \"BEPPausable.sol\":772:783  return true */\n      swap1\n      pop\n        /* \"BEPPausable.sol\":666:788  function pause() public onlyOwner whenNotPaused returns (bool) {... */\n      swap1\n      jump\t// out\n        /* \"marketplace.sol\":8687:8982  function sentT2Pool2Token(address tokenaddress, uint256 amount) external onlyOwner {... */\n    tag_120:\n        /* \"BEPOwnable.sol\":1085:1094  isOwner() */\n      tag_373\n        /* \"BEPOwnable.sol\":1085:1092  isOwner */\n      tag_127\n        /* \"BEPOwnable.sol\":1085:1094  isOwner() */\n      jump\t// in\n    tag_373:\n        /* \"BEPOwnable.sol\":1077:1131  require(isOwner(), \"Ownable: caller is not the owner\") */\n      tag_374\n      jumpi\n      mload(0x40)\n      0x08c379a000000000000000000000000000000000000000000000000000000000\n      dup2\n      mstore\n      0x04\n      add\n      tag_375\n      swap1\n      tag_189\n      jump\t// in\n    tag_375:\n      mload(0x40)\n      dup1\n      swap2\n      sub\n      swap1\n      revert\n    tag_374:\n        /* \"marketplace.sol\":8780:8798  uint256 newBalance */\n      0x00\n        /* \"marketplace.sol\":8808:8820  tokenaddress */\n      dup3\n        /* \"marketplace.sol\":8801:8831  IBEP20(tokenaddress).balanceOf */\n      0xffffffffffffffffffffffffffffffffffffffff\n      and\n      0x70a08231\n        /* \"marketplace.sol\":8840:8844  this */\n      address\n        /* \"marketplace.sol\":8801:8846  IBEP20(tokenaddress).balanceOf(address(this)) */\n      mload(0x40)\n      dup3\n      0xffffffff\n      and\n      0xe0\n      shl\n      dup2\n      mstore\n      0x04\n      add\n      tag_377\n      swap2\n      swap1\n      tag_49\n      jump\t// in\n    tag_377:\n      0x20\n      mload(0x40)\n      dup1\n      dup4\n      sub\n      dup2\n      dup7\n      dup1\n      extcodesize\n      iszero\n      dup1\n      iszero\n      tag_378\n      jumpi\n      0x00\n      dup1\n      revert\n    tag_378:\n      pop\n      gas\n      staticcall\n      iszero\n      dup1\n      iszero\n      tag_380\n      jumpi\n      returndatasize\n      0x00\n      dup1\n      returndatacopy\n      revert(0x00, returndatasize)\n    tag_380:\n      pop\n      pop\n      pop\n      pop\n      mload(0x40)\n      returndatasize\n      not(0x1f)\n      0x1f\n      dup3\n      add\n      and\n      dup3\n      add\n      dup1\n      0x40\n      mstore\n      pop\n      dup2\n      add\n      swap1\n      tag_381\n      swap2\n      swap1\n      tag_217\n      jump\t// in\n    tag_381:\n        /* \"marketplace.sol\":8780:8846  uint256 newBalance = IBEP20(tokenaddress).balanceOf(address(this)) */\n      swap1\n      pop\n        /* \"marketplace.sol\":8871:8872  0 */\n      0x00\n        /* \"marketplace.sol\":8864:8870  amount */\n      dup3\n        /* \"marketplace.sol\":8864:8872  amount>0 */\n      gt\n        /* \"marketplace.sol\":8864:8894  amount>0 && amount<=newBalance */\n      dup1\n      iszero\n      tag_382\n      jumpi\n      pop\n        /* \"marketplace.sol\":8884:8894  newBalance */\n      dup1\n        /* \"marketplace.sol\":8876:8882  amount */\n      dup3\n        /* \"marketplace.sol\":8876:8894  amount<=newBalance */\n      gt\n      iszero\n        /* \"marketplace.sol\":8864:8894  amount>0 && amount<=newBalance */\n    tag_382:\n        /* \"marketplace.sol\":8856:8921  require(amount>0 && amount<=newBalance,\"Amount > 0 && < Balance\") */\n      tag_383\n      jumpi\n      mload(0x40)\n      0x08c379a000000000000000000000000000000000000000000000000000000000\n      dup2\n      mstore\n      0x04\n      add\n      tag_384\n      swap1\n      tag_385\n      jump\t// in\n    tag_384:\n      mload(0x40)\n      dup1\n      swap2\n      sub\n      swap1\n      revert\n    tag_383:\n        /* \"marketplace.sol\":8938:8950  tokenaddress */\n      dup3\n        /* \"marketplace.sol\":8931:8960  IBEP20(tokenaddress).transfer */\n      0xffffffffffffffffffffffffffffffffffffffff\n      and\n      0xa9059cbb\n        /* \"marketplace.sol\":8961:8966  Pool2 */\n      0x08\n      0x00\n      swap1\n      sload\n      swap1\n      0x0100\n      exp\n      swap1\n      div\n      0xffffffffffffffffffffffffffffffffffffffff\n      and\n        /* \"marketplace.sol\":8968:8974  amount */\n      dup5\n        /* \"marketplace.sol\":8931:8975  IBEP20(tokenaddress).transfer(Pool2, amount) */\n      mload(0x40)\n      dup4\n      0xffffffff\n      and\n      0xe0\n      shl\n      dup2\n      mstore\n      0x04\n      add\n      tag_386\n      swap3\n      swap2\n      swap1\n      tag_262\n      jump\t// in\n    tag_386:\n      0x20\n      mload(0x40)\n      dup1\n      dup4\n      sub\n      dup2\n      0x00\n      dup8\n      dup1\n      extcodesize\n      iszero\n      dup1\n      iszero\n      tag_387\n      jumpi\n      0x00\n      dup1\n      revert\n    tag_387:\n      pop\n      gas\n      call\n      iszero\n      dup1\n      iszero\n      tag_389\n      jumpi\n      returndatasize\n      0x00\n      dup1\n      returndatacopy\n      revert(0x00, returndatasize)\n    tag_389:\n      pop\n      pop\n      pop\n      pop\n      mload(0x40)\n      returndatasize\n      not(0x1f)\n      0x1f\n      dup3\n      add\n      and\n      dup3\n      add\n      dup1\n      0x40\n      mstore\n      pop\n      dup2\n      add\n      swap1\n      tag_390\n      swap2\n      swap1\n      tag_246\n      jump\t// in\n    tag_390:\n      pop\n        /* \"marketplace.sol\":8770:8982  {... */\n      pop\n        /* \"marketplace.sol\":8687:8982  function sentT2Pool2Token(address tokenaddress, uint256 amount) external onlyOwner {... */\n      pop\n      pop\n      jump\t// out\n        /* \"BEPOwnable.sol\":899:970  function owner() public view returns (address) {... */\n    tag_123:\n        /* \"BEPOwnable.sol\":937:944  address */\n      0x00\n        /* \"BEPOwnable.sol\":959:965  _owner */\n      dup1\n      0x00\n      swap1\n      sload\n      swap1\n      0x0100\n      exp\n      swap1\n      div\n      0xffffffffffffffffffffffffffffffffffffffff\n      and\n        /* \"BEPOwnable.sol\":952:965  return _owner */\n      swap1\n      pop\n        /* \"BEPOwnable.sol\":899:970  function owner() public view returns (address) {... */\n      swap1\n      jump\t// out\n        /* \"BEPOwnable.sol\":1218:1304  function isOwner() public view returns (bool) {... */\n    tag_127:\n        /* \"BEPOwnable.sol\":1258:1262  bool */\n      0x00\n        /* \"BEPOwnable.sol\":1293:1299  _owner */\n      dup1\n      0x00\n      swap1\n      sload\n      swap1\n      0x0100\n      exp\n      swap1\n      div\n      0xffffffffffffffffffffffffffffffffffffffff\n      and\n        /* \"BEPOwnable.sol\":1277:1299  _msgSender() == _owner */\n      0xffffffffffffffffffffffffffffffffffffffff\n      and\n        /* \"BEPOwnable.sol\":1277:1289  _msgSender() */\n      tag_393\n        /* \"BEPOwnable.sol\":1277:1287  _msgSender */\n      tag_394\n        /* \"BEPOwnable.sol\":1277:1289  _msgSender() */\n      jump\t// in\n    tag_393:\n        /* \"BEPOwnable.sol\":1277:1299  _msgSender() == _owner */\n      0xffffffffffffffffffffffffffffffffffffffff\n      and\n      eq\n        /* \"BEPOwnable.sol\":1270:1299  return _msgSender() == _owner */\n      swap1\n      pop\n        /* \"BEPOwnable.sol\":1218:1304  function isOwner() public view returns (bool) {... */\n      swap1\n      jump\t// out\n        /* \"marketplace.sol\":7770:8527  function getSellingShose() external view returns (uint256[] memory _tokenID,address[] memory _owner, uint256[] memory _Price) {... */\n    tag_131:\n        /* \"marketplace.sol\":7820:7845  uint256[] memory _tokenID */\n      0x60\n        /* \"marketplace.sol\":7846:7869  address[] memory _owner */\n      dup1\n        /* \"marketplace.sol\":7871:7894  uint256[] memory _Price */\n      0x60\n        /* \"marketplace.sol\":7906:7929  uint256 shoseShellCount */\n      0x00\n        /* \"marketplace.sol\":7932:7945  allTokensSell */\n      0x0c\n        /* \"marketplace.sol\":7932:7952  allTokensSell.length */\n      dup1\n      sload\n      swap1\n      pop\n        /* \"marketplace.sol\":7906:7952  uint256 shoseShellCount = allTokensSell.length */\n      swap1\n      pop\n        /* \"marketplace.sol\":7962:7984  uint256[] memory Price */\n      0x00\n        /* \"marketplace.sol\":8001:8016  shoseShellCount */\n      dup2\n        /* \"marketplace.sol\":7987:8017  new uint256[](shoseShellCount) */\n      0xffffffffffffffff\n      dup2\n      gt\n      iszero\n      tag_396\n      jumpi\n      tag_397\n      tag_398\n      jump\t// in\n    tag_397:\n    tag_396:\n      mload(0x40)\n      swap1\n      dup1\n      dup3\n      mstore\n      dup1\n      0x20\n      mul\n      0x20\n      add\n      dup3\n      add\n      0x40\n      mstore\n      dup1\n      iszero\n      tag_399\n      jumpi\n      dup2\n      0x20\n      add\n      0x20\n      dup3\n      mul\n      dup1\n      calldatasize\n      dup4\n      calldatacopy\n      dup1\n      dup3\n      add\n      swap2\n      pop\n      pop\n      swap1\n      pop\n    tag_399:\n      pop\n        /* \"marketplace.sol\":7962:8017  uint256[] memory Price = new uint256[](shoseShellCount) */\n      swap1\n      pop\n        /* \"marketplace.sol\":8027:8049  address[] memory owner */\n      0x00\n        /* \"marketplace.sol\":8066:8081  shoseShellCount */\n      dup3\n        /* \"marketplace.sol\":8052:8082  new address[](shoseShellCount) */\n      0xffffffffffffffff\n      dup2\n      gt\n      iszero\n      tag_400\n      jumpi\n      tag_401\n      tag_398\n      jump\t// in\n    tag_401:\n    tag_400:\n      mload(0x40)\n      swap1\n      dup1\n      dup3\n      mstore\n      dup1\n      0x20\n      mul\n      0x20\n      add\n      dup3\n      add\n      0x40\n      mstore\n      dup1\n      iszero\n      tag_402\n      jumpi\n      dup2\n      0x20\n      add\n      0x20\n      dup3\n      mul\n      dup1\n      calldatasize\n      dup4\n      calldatacopy\n      dup1\n      dup3\n      add\n      swap2\n      pop\n      pop\n      swap1\n      pop\n    tag_402:\n      pop\n        /* \"marketplace.sol\":8027:8082  address[] memory owner = new address[](shoseShellCount) */\n      swap1\n      pop\n        /* \"marketplace.sol\":8097:8106  uint256 i */\n      0x00\n        /* \"marketplace.sol\":8092:8477  for (uint256 i = 0; i < shoseShellCount; i++) {... */\n    tag_403:\n        /* \"marketplace.sol\":8116:8131  shoseShellCount */\n      dup4\n        /* \"marketplace.sol\":8112:8113  i */\n      dup2\n        /* \"marketplace.sol\":8112:8131  i < shoseShellCount */\n      lt\n        /* \"marketplace.sol\":8092:8477  for (uint256 i = 0; i < shoseShellCount; i++) {... */\n      iszero\n      tag_404\n      jumpi\n        /* \"marketplace.sol\":8220:8231  shoseSeller */\n      0x0b\n        /* \"marketplace.sol\":8220:8249  shoseSeller[allTokensSell[i]] */\n      0x00\n        /* \"marketplace.sol\":8232:8245  allTokensSell */\n      0x0c\n        /* \"marketplace.sol\":8246:8247  i */\n      dup4\n        /* \"marketplace.sol\":8232:8248  allTokensSell[i] */\n      dup2\n      sload\n      dup2\n      lt\n      tag_406\n      jumpi\n      tag_407\n      tag_408\n      jump\t// in\n    tag_407:\n    tag_406:\n      swap1\n      0x00\n      mstore\n      keccak256(0x00, 0x20)\n      add\n      sload\n        /* \"marketplace.sol\":8220:8249  shoseSeller[allTokensSell[i]] */\n      dup2\n      mstore\n      0x20\n      add\n      swap1\n      dup2\n      mstore\n      0x20\n      add\n      0x00\n      keccak256\n      0x00\n      swap1\n      sload\n      swap1\n      0x0100\n      exp\n      swap1\n      div\n      0xffffffffffffffffffffffffffffffffffffffff\n      and\n        /* \"marketplace.sol\":8155:8249  IERC721Enumerable(ShoseNFTContract).ownerOf(allTokensSell[i]) == shoseSeller[allTokensSell[i]] */\n      0xffffffffffffffffffffffffffffffffffffffff\n      and\n        /* \"marketplace.sol\":8173:8189  ShoseNFTContract */\n      0x03\n      0x00\n      swap1\n      sload\n      swap1\n      0x0100\n      exp\n      swap1\n      div\n      0xffffffffffffffffffffffffffffffffffffffff\n      and\n        /* \"marketplace.sol\":8155:8198  IERC721Enumerable(ShoseNFTContract).ownerOf */\n      0xffffffffffffffffffffffffffffffffffffffff\n      and\n      0x6352211e\n        /* \"marketplace.sol\":8199:8212  allTokensSell */\n      0x0c\n        /* \"marketplace.sol\":8213:8214  i */\n      dup5\n        /* \"marketplace.sol\":8199:8215  allTokensSell[i] */\n      dup2\n      sload\n      dup2\n      lt\n      tag_410\n      jumpi\n      tag_411\n      tag_408\n      jump\t// in\n    tag_411:\n    tag_410:\n      swap1\n      0x00\n      mstore\n      keccak256(0x00, 0x20)\n      add\n      sload\n        /* \"marketplace.sol\":8155:8216  IERC721Enumerable(ShoseNFTContract).ownerOf(allTokensSell[i]) */\n      mload(0x40)\n      dup3\n      0xffffffff\n      and\n      0xe0\n      shl\n      dup2\n      mstore\n      0x04\n      add\n      tag_413\n      swap2\n      swap1\n      tag_78\n      jump\t// in\n    tag_413:\n      0x20\n      mload(0x40)\n      dup1\n      dup4\n      sub\n      dup2\n      dup7\n      dup1\n      extcodesize\n      iszero\n      dup1\n      iszero\n      tag_414\n      jumpi\n      0x00\n      dup1\n      revert\n    tag_414:\n      pop\n      gas\n      staticcall\n      iszero\n      dup1\n      iszero\n      tag_416\n      jumpi\n      returndatasize\n      0x00\n      dup1\n      returndatacopy\n      revert(0x00, returndatasize)\n    tag_416:\n      pop\n      pop\n      pop\n      pop\n      mload(0x40)\n      returndatasize\n      not(0x1f)\n      0x1f\n      dup3\n      add\n      and\n      dup3\n      add\n      dup1\n      0x40\n      mstore\n      pop\n      dup2\n      add\n      swap1\n      tag_417\n      swap2\n      swap1\n      tag_229\n      jump\t// in\n    tag_417:\n        /* \"marketplace.sol\":8155:8249  IERC721Enumerable(ShoseNFTContract).ownerOf(allTokensSell[i]) == shoseSeller[allTokensSell[i]] */\n      0xffffffffffffffffffffffffffffffffffffffff\n      and\n      eq\n        /* \"marketplace.sol\":8152:8467  if(IERC721Enumerable(ShoseNFTContract).ownerOf(allTokensSell[i]) == shoseSeller[allTokensSell[i]]){... */\n      iszero\n      tag_418\n      jumpi\n        /* \"marketplace.sol\":8279:8288  shoseSell */\n      0x0a\n        /* \"marketplace.sol\":8279:8306  shoseSell[allTokensSell[i]] */\n      0x00\n        /* \"marketplace.sol\":8289:8302  allTokensSell */\n      0x0c\n        /* \"marketplace.sol\":8303:8304  i */\n      dup4\n        /* \"marketplace.sol\":8289:8305  allTokensSell[i] */\n      dup2\n      sload\n      dup2\n      lt\n      tag_419\n      jumpi\n      tag_420\n      tag_408\n      jump\t// in\n    tag_420:\n    tag_419:\n      swap1\n      0x00\n      mstore\n      keccak256(0x00, 0x20)\n      add\n      sload\n        /* \"marketplace.sol\":8279:8306  shoseSell[allTokensSell[i]] */\n      dup2\n      mstore\n      0x20\n      add\n      swap1\n      dup2\n      mstore\n      0x20\n      add\n      0x00\n      keccak256\n      sload\n        /* \"marketplace.sol\":8268:8273  Price */\n      dup4\n        /* \"marketplace.sol\":8274:8275  i */\n      dup3\n        /* \"marketplace.sol\":8268:8276  Price[i] */\n      dup2\n      mload\n      dup2\n      lt\n      tag_422\n      jumpi\n      tag_423\n      tag_408\n      jump\t// in\n    tag_423:\n    tag_422:\n      0x20\n      mul\n      0x20\n      add\n      add\n        /* \"marketplace.sol\":8268:8306  Price[i] = shoseSell[allTokensSell[i]] */\n      dup2\n      dup2\n      mstore\n      pop\n      pop\n        /* \"marketplace.sol\":8335:8346  shoseSeller */\n      0x0b\n        /* \"marketplace.sol\":8335:8364  shoseSeller[allTokensSell[i]] */\n      0x00\n        /* \"marketplace.sol\":8347:8360  allTokensSell */\n      0x0c\n        /* \"marketplace.sol\":8361:8362  i */\n      dup4\n        /* \"marketplace.sol\":8347:8363  allTokensSell[i] */\n      dup2\n      sload\n      dup2\n      lt\n      tag_424\n      jumpi\n      tag_425\n      tag_408\n      jump\t// in\n    tag_425:\n    tag_424:\n      swap1\n      0x00\n      mstore\n      keccak256(0x00, 0x20)\n      add\n      sload\n        /* \"marketplace.sol\":8335:8364  shoseSeller[allTokensSell[i]] */\n      dup2\n      mstore\n      0x20\n      add\n      swap1\n      dup2\n      mstore\n      0x20\n      add\n      0x00\n      keccak256\n      0x00\n      swap1\n      sload\n      swap1\n      0x0100\n      exp\n      swap1\n      div\n      0xffffffffffffffffffffffffffffffffffffffff\n      and\n        /* \"marketplace.sol\":8324:8329  owner */\n      dup3\n        /* \"marketplace.sol\":8330:8331  i */\n      dup3\n        /* \"marketplace.sol\":8324:8332  owner[i] */\n      dup2\n      mload\n      dup2\n      lt\n      tag_427\n      jumpi\n      tag_428\n      tag_408\n      jump\t// in\n    tag_428:\n    tag_427:\n      0x20\n      mul\n      0x20\n      add\n      add\n        /* \"marketplace.sol\":8324:8364  owner[i] = shoseSeller[allTokensSell[i]] */\n      swap1\n      0xffffffffffffffffffffffffffffffffffffffff\n      and\n      swap1\n      dup2\n      0xffffffffffffffffffffffffffffffffffffffff\n      and\n      dup2\n      mstore\n      pop\n      pop\n        /* \"marketplace.sol\":8152:8467  if(IERC721Enumerable(ShoseNFTContract).ownerOf(allTokensSell[i]) == shoseSeller[allTokensSell[i]]){... */\n      jump(tag_429)\n    tag_418:\n        /* \"marketplace.sol\":8412:8413  0 */\n      0x00\n        /* \"marketplace.sol\":8401:8406  Price */\n      dup4\n        /* \"marketplace.sol\":8407:8408  i */\n      dup3\n        /* \"marketplace.sol\":8401:8409  Price[i] */\n      dup2\n      mload\n      dup2\n      lt\n      tag_430\n      jumpi\n      tag_431\n      tag_408\n      jump\t// in\n    tag_431:\n    tag_430:\n      0x20\n      mul\n      0x20\n      add\n      add\n        /* \"marketplace.sol\":8401:8413  Price[i] = 0 */\n      dup2\n      dup2\n      mstore\n      pop\n      pop\n        /* \"marketplace.sol\":8450:8451  0 */\n      0x00\n        /* \"marketplace.sol\":8431:8436  owner */\n      dup3\n        /* \"marketplace.sol\":8437:8438  i */\n      dup3\n        /* \"marketplace.sol\":8431:8439  owner[i] */\n      dup2\n      mload\n      dup2\n      lt\n      tag_432\n      jumpi\n      tag_433\n      tag_408\n      jump\t// in\n    tag_433:\n    tag_432:\n      0x20\n      mul\n      0x20\n      add\n      add\n        /* \"marketplace.sol\":8431:8452  owner[i] = address(0) */\n      swap1\n      0xffffffffffffffffffffffffffffffffffffffff\n      and\n      swap1\n      dup2\n      0xffffffffffffffffffffffffffffffffffffffff\n      and\n      dup2\n      mstore\n      pop\n      pop\n        /* \"marketplace.sol\":8152:8467  if(IERC721Enumerable(ShoseNFTContract).ownerOf(allTokensSell[i]) == shoseSeller[allTokensSell[i]]){... */\n    tag_429:\n        /* \"marketplace.sol\":8133:8136  i++ */\n      dup1\n      dup1\n      tag_434\n      swap1\n      tag_435\n      jump\t// in\n    tag_434:\n      swap2\n      pop\n      pop\n        /* \"marketplace.sol\":8092:8477  for (uint256 i = 0; i < shoseShellCount; i++) {... */\n      jump(tag_403)\n    tag_404:\n      pop\n        /* \"marketplace.sol\":8494:8507  allTokensSell */\n      0x0c\n        /* \"marketplace.sol\":8508:8513  owner */\n      dup2\n        /* \"marketplace.sol\":8514:8519  Price */\n      dup4\n        /* \"marketplace.sol\":8486:8520  return (allTokensSell,owner,Price) */\n      dup3\n      dup1\n      sload\n      dup1\n      0x20\n      mul\n      0x20\n      add\n      mload(0x40)\n      swap1\n      dup2\n      add\n      0x40\n      mstore\n      dup1\n      swap3\n      swap2\n      swap1\n      dup2\n      dup2\n      mstore\n      0x20\n      add\n      dup3\n      dup1\n      sload\n      dup1\n      iszero\n      tag_436\n      jumpi\n      0x20\n      mul\n      dup3\n      add\n      swap2\n      swap1\n      0x00\n      mstore\n      keccak256(0x00, 0x20)\n      swap1\n    tag_437:\n      dup2\n      sload\n      dup2\n      mstore\n      0x20\n      add\n      swap1\n      0x01\n      add\n      swap1\n      dup1\n      dup4\n      gt\n      tag_437\n      jumpi\n    tag_436:\n      pop\n      pop\n      pop\n      pop\n      pop\n      swap3\n      pop\n      swap6\n      pop\n      swap6\n      pop\n      swap6\n      pop\n      pop\n      pop\n      pop\n        /* \"marketplace.sol\":7770:8527  function getSellingShose() external view returns (uint256[] memory _tokenID,address[] memory _owner, uint256[] memory _Price) {... */\n      swap1\n      swap2\n      swap3\n      jump\t// out\n        /* \"marketplace.sol\":1871:2018  function setLiquidPool(address _LiquidPool) external onlyOwner {... */\n    tag_137:\n        /* \"BEPOwnable.sol\":1085:1094  isOwner() */\n      tag_439\n        /* \"BEPOwnable.sol\":1085:1092  isOwner */\n      tag_127\n        /* \"BEPOwnable.sol\":1085:1094  isOwner() */\n      jump\t// in\n    tag_439:\n        /* \"BEPOwnable.sol\":1077:1131  require(isOwner(), \"Ownable: caller is not the owner\") */\n      tag_440\n      jumpi\n      mload(0x40)\n      0x08c379a000000000000000000000000000000000000000000000000000000000\n      dup2\n      mstore\n      0x04\n      add\n      tag_441\n      swap1\n      tag_189\n      jump\t// in\n    tag_441:\n      mload(0x40)\n      dup1\n      swap2\n      sub\n      swap1\n      revert\n    tag_440:\n        /* \"marketplace.sol\":1957:1968  _LiquidPool */\n      dup1\n        /* \"marketplace.sol\":1944:1954  LiquidPool */\n      0x02\n      0x00\n        /* \"marketplace.sol\":1944:1968  LiquidPool = _LiquidPool */\n      0x0100\n      exp\n      dup2\n      sload\n      dup2\n      0xffffffffffffffffffffffffffffffffffffffff\n      mul\n      not\n      and\n      swap1\n      dup4\n      0xffffffffffffffffffffffffffffffffffffffff\n      and\n      mul\n      or\n      swap1\n      sstore\n      pop\n        /* \"marketplace.sol\":1983:2011  changeLiquidPool(LiquidPool) */\n      0xacdd85d235b5b49226c2c4f2b72cb01fa1cc3ae64bb843a6def27788d05b1b60\n        /* \"marketplace.sol\":2000:2010  LiquidPool */\n      0x02\n      0x00\n      swap1\n      sload\n      swap1\n      0x0100\n      exp\n      swap1\n      div\n      0xffffffffffffffffffffffffffffffffffffffff\n      and\n        /* \"marketplace.sol\":1983:2011  changeLiquidPool(LiquidPool) */\n      mload(0x40)\n      tag_443\n      swap2\n      swap1\n      tag_49\n      jump\t// in\n    tag_443:\n      mload(0x40)\n      dup1\n      swap2\n      sub\n      swap1\n      log1\n        /* \"marketplace.sol\":1871:2018  function setLiquidPool(address _LiquidPool) external onlyOwner {... */\n      pop\n      jump\t// out\n        /* \"marketplace.sol\":486:506  address public Pool2 */\n    tag_140:\n      0x08\n      0x00\n      swap1\n      sload\n      swap1\n      0x0100\n      exp\n      swap1\n      div\n      0xffffffffffffffffffffffffffffffffffffffff\n      and\n      dup2\n      jump\t// out\n        /* \"marketplace.sol\":369:395  address public VIMContract */\n    tag_144:\n      0x04\n      0x00\n      swap1\n      sload\n      swap1\n      0x0100\n      exp\n      swap1\n      div\n      0xffffffffffffffffffffffffffffffffffffffff\n      and\n      dup2\n      jump\t// out\n        /* \"marketplace.sol\":8988:9096  function getBalanceBNB() public view virtual returns (uint256) {... */\n    tag_148:\n        /* \"marketplace.sol\":9042:9049  uint256 */\n      0x00\n        /* \"marketplace.sol\":9068:9089  address(this).balance */\n      selfbalance\n        /* \"marketplace.sol\":9061:9089  return address(this).balance */\n      swap1\n      pop\n        /* \"marketplace.sol\":8988:9096  function getBalanceBNB() public view virtual returns (uint256) {... */\n      swap1\n      jump\t// out\n        /* \"marketplace.sol\":434:455  uint256 public MinBnB */\n    tag_152:\n      sload(0x06)\n      dup2\n      jump\t// out\n        /* \"marketplace.sol\":1638:1722  function setPool2(address _Pool2) external onlyOwner {... */\n    tag_157:\n        /* \"BEPOwnable.sol\":1085:1094  isOwner() */\n      tag_446\n        /* \"BEPOwnable.sol\":1085:1092  isOwner */\n      tag_127\n        /* \"BEPOwnable.sol\":1085:1094  isOwner() */\n      jump\t// in\n    tag_446:\n        /* \"BEPOwnable.sol\":1077:1131  require(isOwner(), \"Ownable: caller is not the owner\") */\n      tag_447\n      jumpi\n      mload(0x40)\n      0x08c379a000000000000000000000000000000000000000000000000000000000\n      dup2\n      mstore\n      0x04\n      add\n      tag_448\n      swap1\n      tag_189\n      jump\t// in\n    tag_448:\n      mload(0x40)\n      dup1\n      swap2\n      sub\n      swap1\n      revert\n    tag_447:\n        /* \"marketplace.sol\":1709:1715  _Pool2 */\n      dup1\n        /* \"marketplace.sol\":1701:1706  Pool2 */\n      0x08\n      0x00\n        /* \"marketplace.sol\":1701:1715  Pool2 = _Pool2 */\n      0x0100\n      exp\n      dup2\n      sload\n      dup2\n      0xffffffffffffffffffffffffffffffffffffffff\n      mul\n      not\n      and\n      swap1\n      dup4\n      0xffffffffffffffffffffffffffffffffffffffff\n      and\n      mul\n      or\n      swap1\n      sstore\n      pop\n        /* \"marketplace.sol\":1638:1722  function setPool2(address _Pool2) external onlyOwner {... */\n      pop\n      jump\t// out\n        /* \"marketplace.sol\":9101:9335  function sentT2Pool2BNB(uint256 amount) external onlyOwner {... */\n    tag_161:\n        /* \"BEPOwnable.sol\":1085:1094  isOwner() */\n      tag_451\n        /* \"BEPOwnable.sol\":1085:1092  isOwner */\n      tag_127\n        /* \"BEPOwnable.sol\":1085:1094  isOwner() */\n      jump\t// in\n    tag_451:\n        /* \"BEPOwnable.sol\":1077:1131  require(isOwner(), \"Ownable: caller is not the owner\") */\n      tag_452\n      jumpi\n      mload(0x40)\n      0x08c379a000000000000000000000000000000000000000000000000000000000\n      dup2\n      mstore\n      0x04\n      add\n      tag_453\n      swap1\n      tag_189\n      jump\t// in\n    tag_453:\n      mload(0x40)\n      dup1\n      swap2\n      sub\n      swap1\n      revert\n    tag_452:\n        /* \"marketplace.sol\":9170:9188  uint256 newBalance */\n      0x00\n        /* \"marketplace.sol\":9191:9212  address(this).balance */\n      selfbalance\n        /* \"marketplace.sol\":9170:9212  uint256 newBalance = address(this).balance */\n      swap1\n      pop\n        /* \"marketplace.sol\":9237:9238  0 */\n      0x00\n        /* \"marketplace.sol\":9230:9236  amount */\n      dup3\n        /* \"marketplace.sol\":9230:9238  amount>0 */\n      gt\n        /* \"marketplace.sol\":9230:9260  amount>0 && amount<=newBalance */\n      dup1\n      iszero\n      tag_455\n      jumpi\n      pop\n        /* \"marketplace.sol\":9250:9260  newBalance */\n      dup1\n        /* \"marketplace.sol\":9242:9248  amount */\n      dup3\n        /* \"marketplace.sol\":9242:9260  amount<=newBalance */\n      gt\n      iszero\n        /* \"marketplace.sol\":9230:9260  amount>0 && amount<=newBalance */\n    tag_455:\n        /* \"marketplace.sol\":9222:9287  require(amount>0 && amount<=newBalance,\"Amount > 0 && < Balance\") */\n      tag_456\n      jumpi\n      mload(0x40)\n      0x08c379a000000000000000000000000000000000000000000000000000000000\n      dup2\n      mstore\n      0x04\n      add\n      tag_457\n      swap1\n      tag_385\n      jump\t// in\n    tag_457:\n      mload(0x40)\n      dup1\n      swap2\n      sub\n      swap1\n      revert\n    tag_456:\n        /* \"marketplace.sol\":9305:9310  Pool2 */\n      0x08\n      0x00\n      swap1\n      sload\n      swap1\n      0x0100\n      exp\n      swap1\n      div\n      0xffffffffffffffffffffffffffffffffffffffff\n      and\n        /* \"marketplace.sol\":9297:9320  payable(Pool2).transfer */\n      0xffffffffffffffffffffffffffffffffffffffff\n      and\n        /* \"marketplace.sol\":9297:9328  payable(Pool2).transfer(amount) */\n      0x08fc\n        /* \"marketplace.sol\":9321:9327  amount */\n      dup4\n        /* \"marketplace.sol\":9297:9328  payable(Pool2).transfer(amount) */\n      swap1\n      dup2\n      iszero\n      mul\n      swap1\n      mload(0x40)\n      0x00\n      mload(0x40)\n      dup1\n      dup4\n      sub\n      dup2\n      dup6\n      dup9\n      dup9\n      call\n      swap4\n      pop\n      pop\n      pop\n      pop\n      iszero\n      dup1\n      iszero\n      tag_459\n      jumpi\n      returndatasize\n      0x00\n      dup1\n      returndatacopy\n      revert(0x00, returndatasize)\n    tag_459:\n      pop\n        /* \"marketplace.sol\":9160:9335  {... */\n      pop\n        /* \"marketplace.sol\":9101:9335  function sentT2Pool2BNB(uint256 amount) external onlyOwner {... */\n      pop\n      jump\t// out\n        /* \"marketplace.sol\":332:363  address public ShoseNFTContract */\n    tag_164:\n      0x03\n      0x00\n      swap1\n      sload\n      swap1\n      0x0100\n      exp\n      swap1\n      div\n      0xffffffffffffffffffffffffffffffffffffffff\n      and\n      dup2\n      jump\t// out\n        /* \"marketplace.sol\":2372:2496  function setMinBNB(uint256  _MinBnB) external onlyOwner {... */\n    tag_169:\n        /* \"BEPOwnable.sol\":1085:1094  isOwner() */\n      tag_461\n        /* \"BEPOwnable.sol\":1085:1092  isOwner */\n      tag_127\n        /* \"BEPOwnable.sol\":1085:1094  isOwner() */\n      jump\t// in\n    tag_461:\n        /* \"BEPOwnable.sol\":1077:1131  require(isOwner(), \"Ownable: caller is not the owner\") */\n      tag_462\n      jumpi\n      mload(0x40)\n      0x08c379a000000000000000000000000000000000000000000000000000000000\n      dup2\n      mstore\n      0x04\n      add\n      tag_463\n      swap1\n      tag_189\n      jump\t// in\n    tag_463:\n      mload(0x40)\n      dup1\n      swap2\n      sub\n      swap1\n      revert\n    tag_462:\n        /* \"marketplace.sol\":2447:2454  _MinBnB */\n      dup1\n        /* \"marketplace.sol\":2438:2444  MinBnB */\n      0x06\n        /* \"marketplace.sol\":2438:2454  MinBnB = _MinBnB */\n      dup2\n      swap1\n      sstore\n      pop\n        /* \"marketplace.sol\":2469:2489  changeMinBnB(MinBnB) */\n      0x4d8e30ff458bebdd848488669e63d632954487ca1bc64c28f3c920f74a5f8594\n        /* \"marketplace.sol\":2482:2488  MinBnB */\n      sload(0x06)\n        /* \"marketplace.sol\":2469:2489  changeMinBnB(MinBnB) */\n      mload(0x40)\n      tag_465\n      swap2\n      swap1\n      tag_78\n      jump\t// in\n    tag_465:\n      mload(0x40)\n      dup1\n      swap2\n      sub\n      swap1\n      log1\n        /* \"marketplace.sol\":2372:2496  function setMinBNB(uint256  _MinBnB) external onlyOwner {... */\n      pop\n      jump\t// out\n        /* \"marketplace.sol\":2611:2952  function getMINPrice() public view virtual returns (uint256) {... */\n    tag_172:\n        /* \"marketplace.sol\":2663:2670  uint256 */\n      0x00\n        /* \"marketplace.sol\":2682:2701  uint256 wbnbbalance */\n      dup1\n        /* \"marketplace.sol\":2711:2723  WBNBContract */\n      0x05\n      0x00\n      swap1\n      sload\n      swap1\n      0x0100\n      exp\n      swap1\n      div\n      0xffffffffffffffffffffffffffffffffffffffff\n      and\n        /* \"marketplace.sol\":2704:2734  IBEP20(WBNBContract).balanceOf */\n      0xffffffffffffffffffffffffffffffffffffffff\n      and\n      0x70a08231\n        /* \"marketplace.sol\":2735:2745  LiquidPool */\n      0x02\n      0x00\n      swap1\n      sload\n      swap1\n      0x0100\n      exp\n      swap1\n      div\n      0xffffffffffffffffffffffffffffffffffffffff\n      and\n        /* \"marketplace.sol\":2704:2746  IBEP20(WBNBContract).balanceOf(LiquidPool) */\n      mload(0x40)\n      dup3\n      0xffffffff\n      and\n      0xe0\n      shl\n      dup2\n      mstore\n      0x04\n      add\n      tag_467\n      swap2\n      swap1\n      tag_49\n      jump\t// in\n    tag_467:\n      0x20\n      mload(0x40)\n      dup1\n      dup4\n      sub\n      dup2\n      dup7\n      dup1\n      extcodesize\n      iszero\n      dup1\n      iszero\n      tag_468\n      jumpi\n      0x00\n      dup1\n      revert\n    tag_468:\n      pop\n      gas\n      staticcall\n      iszero\n      dup1\n      iszero\n      tag_470\n      jumpi\n      returndatasize\n      0x00\n      dup1\n      returndatacopy\n      revert(0x00, returndatasize)\n    tag_470:\n      pop\n      pop\n      pop\n      pop\n      mload(0x40)\n      returndatasize\n      not(0x1f)\n      0x1f\n      dup3\n      add\n      and\n      dup3\n      add\n      dup1\n      0x40\n      mstore\n      pop\n      dup2\n      add\n      swap1\n      tag_471\n      swap2\n      swap1\n      tag_217\n      jump\t// in\n    tag_471:\n        /* \"marketplace.sol\":2682:2746  uint256 wbnbbalance = IBEP20(WBNBContract).balanceOf(LiquidPool) */\n      swap1\n      pop\n        /* \"marketplace.sol\":2756:2774  uint256 vimbalance */\n      0x00\n        /* \"marketplace.sol\":2784:2795  VIMContract */\n      0x04\n      0x00\n      swap1\n      sload\n      swap1\n      0x0100\n      exp\n      swap1\n      div\n      0xffffffffffffffffffffffffffffffffffffffff\n      and\n        /* \"marketplace.sol\":2777:2806  IBEP20(VIMContract).balanceOf */\n      0xffffffffffffffffffffffffffffffffffffffff\n      and\n      0x70a08231\n        /* \"marketplace.sol\":2807:2817  LiquidPool */\n      0x02\n      0x00\n      swap1\n      sload\n      swap1\n      0x0100\n      exp\n      swap1\n      div\n      0xffffffffffffffffffffffffffffffffffffffff\n      and\n        /* \"marketplace.sol\":2777:2818  IBEP20(VIMContract).balanceOf(LiquidPool) */\n      mload(0x40)\n      dup3\n      0xffffffff\n      and\n      0xe0\n      shl\n      dup2\n      mstore\n      0x04\n      add\n      tag_472\n      swap2\n      swap1\n      tag_49\n      jump\t// in\n    tag_472:\n      0x20\n      mload(0x40)\n      dup1\n      dup4\n      sub\n      dup2\n      dup7\n      dup1\n      extcodesize\n      iszero\n      dup1\n      iszero\n      tag_473\n      jumpi\n      0x00\n      dup1\n      revert\n    tag_473:\n      pop\n      gas\n      staticcall\n      iszero\n      dup1\n      iszero\n      tag_475\n      jumpi\n      returndatasize\n      0x00\n      dup1\n      returndatacopy\n      revert(0x00, returndatasize)\n    tag_475:\n      pop\n      pop\n      pop\n      pop\n      mload(0x40)\n      returndatasize\n      not(0x1f)\n      0x1f\n      dup3\n      add\n      and\n      dup3\n      add\n      dup1\n      0x40\n      mstore\n      pop\n      dup2\n      add\n      swap1\n      tag_476\n      swap2\n      swap1\n      tag_217\n      jump\t// in\n    tag_476:\n        /* \"marketplace.sol\":2756:2818  uint256 vimbalance = IBEP20(VIMContract).balanceOf(LiquidPool) */\n      swap1\n      pop\n        /* \"marketplace.sol\":2828:2844  uint256 bnbprice */\n      0x00\n        /* \"marketplace.sol\":2858:2869  wbnbbalance */\n      dup3\n        /* \"marketplace.sol\":2847:2857  vimbalance */\n      dup3\n        /* \"marketplace.sol\":2847:2869  vimbalance/wbnbbalance */\n      tag_477\n      swap2\n      swap1\n      tag_312\n      jump\t// in\n    tag_477:\n        /* \"marketplace.sol\":2828:2869  uint256 bnbprice = vimbalance/wbnbbalance */\n      swap1\n      pop\n        /* \"marketplace.sol\":2879:2895  uint256 minprice */\n      0x00\n        /* \"marketplace.sol\":2918:2920  10 */\n      0x0a\n        /* \"marketplace.sol\":2909:2915  MinBnB */\n      sload(0x06)\n        /* \"marketplace.sol\":2898:2906  bnbprice */\n      dup4\n        /* \"marketplace.sol\":2898:2915  bnbprice * MinBnB */\n      tag_478\n      swap2\n      swap1\n      tag_290\n      jump\t// in\n    tag_478:\n        /* \"marketplace.sol\":2898:2920  bnbprice * MinBnB / 10 */\n      tag_479\n      swap2\n      swap1\n      tag_312\n      jump\t// in\n    tag_479:\n        /* \"marketplace.sol\":2879:2920  uint256 minprice = bnbprice * MinBnB / 10 */\n      swap1\n      pop\n        /* \"marketplace.sol\":2937:2945  minprice */\n      dup1\n        /* \"marketplace.sol\":2930:2945  return minprice */\n      swap5\n      pop\n      pop\n      pop\n      pop\n      pop\n        /* \"marketplace.sol\":2611:2952  function getMINPrice() public view virtual returns (uint256) {... */\n      swap1\n      jump\t// out\n        /* \"marketplace.sol\":1729:1864  function setTreasury(address _Treasury) external onlyOwner {... */\n    tag_177:\n        /* \"BEPOwnable.sol\":1085:1094  isOwner() */\n      tag_481\n        /* \"BEPOwnable.sol\":1085:1092  isOwner */\n      tag_127\n        /* \"BEPOwnable.sol\":1085:1094  isOwner() */\n      jump\t// in\n    tag_481:\n        /* \"BEPOwnable.sol\":1077:1131  require(isOwner(), \"Ownable: caller is not the owner\") */\n      tag_482\n      jumpi\n      mload(0x40)\n      0x08c379a000000000000000000000000000000000000000000000000000000000\n      dup2\n      mstore\n      0x04\n      add\n      tag_483\n      swap1\n      tag_189\n      jump\t// in\n    tag_483:\n      mload(0x40)\n      dup1\n      swap2\n      sub\n      swap1\n      revert\n    tag_482:\n        /* \"marketplace.sol\":1809:1818  _Treasury */\n      dup1\n        /* \"marketplace.sol\":1798:1806  Treasury */\n      0x01\n      0x00\n        /* \"marketplace.sol\":1798:1818  Treasury = _Treasury */\n      0x0100\n      exp\n      dup2\n      sload\n      dup2\n      0xffffffffffffffffffffffffffffffffffffffff\n      mul\n      not\n      and\n      swap1\n      dup4\n      0xffffffffffffffffffffffffffffffffffffffff\n      and\n      mul\n      or\n      swap1\n      sstore\n      pop\n        /* \"marketplace.sol\":1833:1857  changeTreasury(Treasury) */\n      0xb14f2a39bb21fda32827bbdb4be629c94036e10a3f6055a6454f884ca1b33fa1\n        /* \"marketplace.sol\":1848:1856  Treasury */\n      0x01\n      0x00\n      swap1\n      sload\n      swap1\n      0x0100\n      exp\n      swap1\n      div\n      0xffffffffffffffffffffffffffffffffffffffff\n      and\n        /* \"marketplace.sol\":1833:1857  changeTreasury(Treasury) */\n      mload(0x40)\n      tag_485\n      swap2\n      swap1\n      tag_49\n      jump\t// in\n    tag_485:\n      mload(0x40)\n      dup1\n      swap2\n      sub\n      swap1\n      log1\n        /* \"marketplace.sol\":1729:1864  function setTreasury(address _Treasury) external onlyOwner {... */\n      pop\n      jump\t// out\n        /* \"BEPOwnable.sol\":1896:1997  function transferOwnership(address newOwner) public onlyOwner {... */\n    tag_181:\n        /* \"BEPOwnable.sol\":1085:1094  isOwner() */\n      tag_487\n        /* \"BEPOwnable.sol\":1085:1092  isOwner */\n      tag_127\n        /* \"BEPOwnable.sol\":1085:1094  isOwner() */\n      jump\t// in\n    tag_487:\n        /* \"BEPOwnable.sol\":1077:1131  require(isOwner(), \"Ownable: caller is not the owner\") */\n      tag_488\n      jumpi\n      mload(0x40)\n      0x08c379a000000000000000000000000000000000000000000000000000000000\n      dup2\n      mstore\n      0x04\n      add\n      tag_489\n      swap1\n      tag_189\n      jump\t// in\n    tag_489:\n      mload(0x40)\n      dup1\n      swap2\n      sub\n      swap1\n      revert\n    tag_488:\n        /* \"BEPOwnable.sol\":1964:1992  _transferOwnership(newOwner) */\n      tag_491\n        /* \"BEPOwnable.sol\":1983:1991  newOwner */\n      dup2\n        /* \"BEPOwnable.sol\":1964:1982  _transferOwnership */\n      tag_492\n        /* \"BEPOwnable.sol\":1964:1992  _transferOwnership(newOwner) */\n      jump\t// in\n    tag_491:\n        /* \"BEPOwnable.sol\":1896:1997  function transferOwnership(address newOwner) public onlyOwner {... */\n      pop\n      jump\t// out\n        /* \"marketplace.sol\":9345:9761  function test() external {... */\n    tag_184:\n        /* \"marketplace.sol\":9447:9459  100 * 10**18 */\n      0x056bc75e2d63100000\n        /* \"marketplace.sol\":9395:9406  VIMContract */\n      0x04\n      0x00\n      swap1\n      sload\n      swap1\n      0x0100\n      exp\n      swap1\n      div\n      0xffffffffffffffffffffffffffffffffffffffff\n      and\n        /* \"marketplace.sol\":9388:9417  IBEP20(VIMContract).allowance */\n      0xffffffffffffffffffffffffffffffffffffffff\n      and\n      0xdd62ed3e\n        /* \"marketplace.sol\":9418:9428  msg.sender */\n      caller\n        /* \"marketplace.sol\":9437:9441  this */\n      address\n        /* \"marketplace.sol\":9388:9443  IBEP20(VIMContract).allowance(msg.sender,address(this)) */\n      mload(0x40)\n      dup4\n      0xffffffff\n      and\n      0xe0\n      shl\n      dup2\n      mstore\n      0x04\n      add\n      tag_494\n      swap3\n      swap2\n      swap1\n      tag_241\n      jump\t// in\n    tag_494:\n      0x20\n      mload(0x40)\n      dup1\n      dup4\n      sub\n      dup2\n      dup7\n      dup1\n      extcodesize\n      iszero\n      dup1\n      iszero\n      tag_495\n      jumpi\n      0x00\n      dup1\n      revert\n    tag_495:\n      pop\n      gas\n      staticcall\n      iszero\n      dup1\n      iszero\n      tag_497\n      jumpi\n      returndatasize\n      0x00\n      dup1\n      returndatacopy\n      revert(0x00, returndatasize)\n    tag_497:\n      pop\n      pop\n      pop\n      pop\n      mload(0x40)\n      returndatasize\n      not(0x1f)\n      0x1f\n      dup3\n      add\n      and\n      dup3\n      add\n      dup1\n      0x40\n      mstore\n      pop\n      dup2\n      add\n      swap1\n      tag_498\n      swap2\n      swap1\n      tag_217\n      jump\t// in\n    tag_498:\n        /* \"marketplace.sol\":9388:9459  IBEP20(VIMContract).allowance(msg.sender,address(this)) >= 100 * 10**18 */\n      lt\n      iszero\n        /* \"marketplace.sol\":9380:9534  require(IBEP20(VIMContract).allowance(msg.sender,address(this)) >= 100 * 10**18,\"The money allowed is not enough to buy shoes. You need approve more VIM\") */\n      tag_499\n      jumpi\n      mload(0x40)\n      0x08c379a000000000000000000000000000000000000000000000000000000000\n      dup2\n      mstore\n      0x04\n      add\n      tag_500\n      swap1\n      tag_298\n      jump\t// in\n    tag_500:\n      mload(0x40)\n      dup1\n      swap2\n      sub\n      swap1\n      revert\n    tag_499:\n        /* \"marketplace.sol\":9659:9670  VIMContract */\n      0x04\n      0x00\n      swap1\n      sload\n      swap1\n      0x0100\n      exp\n      swap1\n      div\n      0xffffffffffffffffffffffffffffffffffffffff\n      and\n        /* \"marketplace.sol\":9652:9684  IBEP20(VIMContract).transferFrom */\n      0xffffffffffffffffffffffffffffffffffffffff\n      and\n      0x23b872dd\n        /* \"marketplace.sol\":9685:9695  msg.sender */\n      caller\n        /* \"marketplace.sol\":9704:9708  this */\n      address\n        /* \"marketplace.sol\":9710:9722  100 * 10**18 */\n      0x056bc75e2d63100000\n        /* \"marketplace.sol\":9652:9723  IBEP20(VIMContract).transferFrom(msg.sender,address(this),100 * 10**18) */\n      mload(0x40)\n      dup5\n      0xffffffff\n      and\n      0xe0\n      shl\n      dup2\n      mstore\n      0x04\n      add\n      tag_501\n      swap4\n      swap3\n      swap2\n      swap1\n      tag_502\n      jump\t// in\n    tag_501:\n      0x20\n      mload(0x40)\n      dup1\n      dup4\n      sub\n      dup2\n      0x00\n      dup8\n      dup1\n      extcodesize\n      iszero\n      dup1\n      iszero\n      tag_503\n      jumpi\n      0x00\n      dup1\n      revert\n    tag_503:\n      pop\n      gas\n      call\n      iszero\n      dup1\n      iszero\n      tag_505\n      jumpi\n      returndatasize\n      0x00\n      dup1\n      returndatacopy\n      revert(0x00, returndatasize)\n    tag_505:\n      pop\n      pop\n      pop\n      pop\n      mload(0x40)\n      returndatasize\n      not(0x1f)\n      0x1f\n      dup3\n      add\n      and\n      dup3\n      add\n      dup1\n      0x40\n      mstore\n      pop\n      dup2\n      add\n      swap1\n      tag_506\n      swap2\n      swap1\n      tag_246\n      jump\t// in\n    tag_506:\n      pop\n        /* \"marketplace.sol\":9345:9761  function test() external {... */\n      jump\t// out\n        /* \"marketplace.sol\":6637:7064  function removeNFTSell(uint256 tokenId) internal{... */\n    tag_234:\n        /* \"marketplace.sol\":6702:6711  shoseSell */\n      0x0a\n        /* \"marketplace.sol\":6702:6720  shoseSell[tokenId] */\n      0x00\n        /* \"marketplace.sol\":6712:6719  tokenId */\n      dup3\n        /* \"marketplace.sol\":6702:6720  shoseSell[tokenId] */\n      dup2\n      mstore\n      0x20\n      add\n      swap1\n      dup2\n      mstore\n      0x20\n      add\n      0x00\n      keccak256\n        /* \"marketplace.sol\":6695:6720  delete shoseSell[tokenId] */\n      0x00\n      swap1\n      sstore\n        /* \"marketplace.sol\":6734:6743  uint256 i */\n      0x00\n        /* \"marketplace.sol\":6730:7058  for(uint256 i = 0; i < allTokensSell.length; i++){... */\n    tag_508:\n        /* \"marketplace.sol\":6753:6766  allTokensSell */\n      0x0c\n        /* \"marketplace.sol\":6753:6773  allTokensSell.length */\n      dup1\n      sload\n      swap1\n      pop\n        /* \"marketplace.sol\":6749:6750  i */\n      dup2\n        /* \"marketplace.sol\":6749:6773  i < allTokensSell.length */\n      lt\n        /* \"marketplace.sol\":6730:7058  for(uint256 i = 0; i < allTokensSell.length; i++){... */\n      iszero\n      tag_509\n      jumpi\n        /* \"marketplace.sol\":6816:6823  tokenId */\n      dup2\n        /* \"marketplace.sol\":6796:6809  allTokensSell */\n      0x0c\n        /* \"marketplace.sol\":6810:6811  i */\n      dup3\n        /* \"marketplace.sol\":6796:6812  allTokensSell[i] */\n      dup2\n      sload\n      dup2\n      lt\n      tag_511\n      jumpi\n      tag_512\n      tag_408\n      jump\t// in\n    tag_512:\n    tag_511:\n      swap1\n      0x00\n      mstore\n      keccak256(0x00, 0x20)\n      add\n      sload\n        /* \"marketplace.sol\":6796:6823  allTokensSell[i] == tokenId */\n      eq\n        /* \"marketplace.sol\":6793:7048  if(allTokensSell[i] == tokenId){... */\n      iszero\n      tag_514\n      jumpi\n        /* \"marketplace.sol\":6846:6855  uint256 k */\n      0x00\n        /* \"marketplace.sol\":6858:6859  i */\n      dup2\n        /* \"marketplace.sol\":6846:6859  uint256 k = i */\n      swap1\n      pop\n        /* \"marketplace.sol\":6842:6973  for(uint256 k = i; k < allTokensSell.length - 1; k++){... */\n    tag_515:\n        /* \"marketplace.sol\":6888:6889  1 */\n      0x01\n        /* \"marketplace.sol\":6865:6878  allTokensSell */\n      0x0c\n        /* \"marketplace.sol\":6865:6885  allTokensSell.length */\n      dup1\n      sload\n      swap1\n      pop\n        /* \"marketplace.sol\":6865:6889  allTokensSell.length - 1 */\n      tag_518\n      swap2\n      swap1\n      tag_315\n      jump\t// in\n    tag_518:\n        /* \"marketplace.sol\":6861:6862  k */\n      dup2\n        /* \"marketplace.sol\":6861:6889  k < allTokensSell.length - 1 */\n      lt\n        /* \"marketplace.sol\":6842:6973  for(uint256 k = i; k < allTokensSell.length - 1; k++){... */\n      iszero\n      tag_516\n      jumpi\n        /* \"marketplace.sol\":6936:6949  allTokensSell */\n      0x0c\n        /* \"marketplace.sol\":6952:6953  1 */\n      0x01\n        /* \"marketplace.sol\":6950:6951  k */\n      dup3\n        /* \"marketplace.sol\":6950:6953  k+1 */\n      tag_519\n      swap2\n      swap1\n      tag_520\n      jump\t// in\n    tag_519:\n        /* \"marketplace.sol\":6936:6954  allTokensSell[k+1] */\n      dup2\n      sload\n      dup2\n      lt\n      tag_521\n      jumpi\n      tag_522\n      tag_408\n      jump\t// in\n    tag_522:\n    tag_521:\n      swap1\n      0x00\n      mstore\n      keccak256(0x00, 0x20)\n      add\n      sload\n        /* \"marketplace.sol\":6917:6930  allTokensSell */\n      0x0c\n        /* \"marketplace.sol\":6931:6932  k */\n      dup3\n        /* \"marketplace.sol\":6917:6933  allTokensSell[k] */\n      dup2\n      sload\n      dup2\n      lt\n      tag_524\n      jumpi\n      tag_525\n      tag_408\n      jump\t// in\n    tag_525:\n    tag_524:\n      swap1\n      0x00\n      mstore\n      keccak256(0x00, 0x20)\n      add\n        /* \"marketplace.sol\":6917:6954  allTokensSell[k] = allTokensSell[k+1] */\n      dup2\n      swap1\n      sstore\n      pop\n        /* \"marketplace.sol\":6891:6894  k++ */\n      dup1\n      dup1\n      tag_527\n      swap1\n      tag_435\n      jump\t// in\n    tag_527:\n      swap2\n      pop\n      pop\n        /* \"marketplace.sol\":6842:6973  for(uint256 k = i; k < allTokensSell.length - 1; k++){... */\n      jump(tag_515)\n    tag_516:\n      pop\n        /* \"marketplace.sol\":6990:7003  allTokensSell */\n      0x0c\n        /* \"marketplace.sol\":6990:7009  allTokensSell.pop() */\n      dup1\n      sload\n      dup1\n      tag_528\n      jumpi\n      tag_529\n      tag_530\n      jump\t// in\n    tag_529:\n    tag_528:\n      0x01\n      swap1\n      sub\n      dup2\n      dup2\n      swap1\n      0x00\n      mstore\n      keccak256(0x00, 0x20)\n      add\n      0x00\n      swap1\n      sstore\n      swap1\n      sstore\n        /* \"marketplace.sol\":7027:7034  return; */\n      pop\n      jump(tag_507)\n        /* \"marketplace.sol\":6793:7048  if(allTokensSell[i] == tokenId){... */\n    tag_514:\n        /* \"marketplace.sol\":6775:6778  i++ */\n      dup1\n      dup1\n      tag_532\n      swap1\n      tag_435\n      jump\t// in\n    tag_532:\n      swap2\n      pop\n      pop\n        /* \"marketplace.sol\":6730:7058  for(uint256 i = 0; i < allTokensSell.length; i++){... */\n      jump(tag_508)\n    tag_509:\n      pop\n        /* \"marketplace.sol\":6637:7064  function removeNFTSell(uint256 tokenId) internal{... */\n    tag_507:\n      pop\n      jump\t// out\n        /* \"marketplace.sol\":7070:7764  function addNFTSell(uint256 tokenId, uint256 price, address seller) internal{... */\n    tag_362:\n        /* \"marketplace.sol\":7177:7182  price */\n      dup2\n        /* \"marketplace.sol\":7156:7165  shoseSell */\n      0x0a\n        /* \"marketplace.sol\":7156:7174  shoseSell[tokenId] */\n      0x00\n        /* \"marketplace.sol\":7166:7173  tokenId */\n      dup6\n        /* \"marketplace.sol\":7156:7174  shoseSell[tokenId] */\n      dup2\n      mstore\n      0x20\n      add\n      swap1\n      dup2\n      mstore\n      0x20\n      add\n      0x00\n      keccak256\n        /* \"marketplace.sol\":7156:7182  shoseSell[tokenId] = price */\n      dup2\n      swap1\n      sstore\n      pop\n        /* \"marketplace.sol\":7215:7221  seller */\n      dup1\n        /* \"marketplace.sol\":7192:7203  shoseSeller */\n      0x0b\n        /* \"marketplace.sol\":7192:7212  shoseSeller[tokenId] */\n      0x00\n        /* \"marketplace.sol\":7204:7211  tokenId */\n      dup6\n        /* \"marketplace.sol\":7192:7212  shoseSeller[tokenId] */\n      dup2\n      mstore\n      0x20\n      add\n      swap1\n      dup2\n      mstore\n      0x20\n      add\n      0x00\n      keccak256\n      0x00\n        /* \"marketplace.sol\":7192:7221  shoseSeller[tokenId] = seller */\n      0x0100\n      exp\n      dup2\n      sload\n      dup2\n      0xffffffffffffffffffffffffffffffffffffffff\n      mul\n      not\n      and\n      swap1\n      dup4\n      0xffffffffffffffffffffffffffffffffffffffff\n      and\n      mul\n      or\n      swap1\n      sstore\n      pop\n        /* \"marketplace.sol\":7231:7244  allTokensSell */\n      0x0c\n        /* \"marketplace.sol\":7250:7257  tokenId */\n      dup4\n        /* \"marketplace.sol\":7231:7258  allTokensSell.push(tokenId) */\n      swap1\n      dup1\n      0x01\n      dup2\n      sload\n      add\n      dup1\n      dup3\n      sstore\n      dup1\n      swap2\n      pop\n      pop\n      0x01\n      swap1\n      sub\n      swap1\n      0x00\n      mstore\n      keccak256(0x00, 0x20)\n      add\n      0x00\n      swap1\n      swap2\n      swap1\n      swap2\n      swap1\n      swap2\n      pop\n      sstore\n        /* \"marketplace.sol\":7295:7296  2 */\n      0x02\n        /* \"marketplace.sol\":7271:7284  allTokensSell */\n      0x0c\n        /* \"marketplace.sol\":7271:7291  allTokensSell.length */\n      dup1\n      sload\n      swap1\n      pop\n        /* \"marketplace.sol\":7271:7296  allTokensSell.length >= 2 */\n      lt\n        /* \"marketplace.sol\":7268:7758  if(allTokensSell.length >= 2){... */\n      tag_535\n      jumpi\n        /* \"marketplace.sol\":7315:7324  uint256 i */\n      0x00\n        /* \"marketplace.sol\":7348:7349  2 */\n      0x02\n        /* \"marketplace.sol\":7327:7340  allTokensSell */\n      0x0c\n        /* \"marketplace.sol\":7327:7347  allTokensSell.length */\n      dup1\n      sload\n      swap1\n      pop\n        /* \"marketplace.sol\":7327:7349  allTokensSell.length-2 */\n      tag_539\n      swap2\n      swap1\n      tag_315\n      jump\t// in\n    tag_539:\n        /* \"marketplace.sol\":7315:7349  uint256 i = allTokensSell.length-2 */\n      swap1\n      pop\n        /* \"marketplace.sol\":7311:7748  for(uint256 i = allTokensSell.length-2; i >=0; i--){... */\n    tag_536:\n        /* \"marketplace.sol\":7355:7356  0 */\n      0x00\n        /* \"marketplace.sol\":7351:7352  i */\n      dup2\n        /* \"marketplace.sol\":7351:7356  i >=0 */\n      lt\n        /* \"marketplace.sol\":7311:7748  for(uint256 i = allTokensSell.length-2; i >=0; i--){... */\n      tag_537\n      jumpi\n        /* \"marketplace.sol\":7413:7418  price */\n      dup3\n        /* \"marketplace.sol\":7383:7392  shoseSell */\n      0x0a\n        /* \"marketplace.sol\":7383:7410  shoseSell[allTokensSell[i]] */\n      0x00\n        /* \"marketplace.sol\":7393:7406  allTokensSell */\n      0x0c\n        /* \"marketplace.sol\":7407:7408  i */\n      dup5\n        /* \"marketplace.sol\":7393:7409  allTokensSell[i] */\n      dup2\n      sload\n      dup2\n      lt\n      tag_540\n      jumpi\n      tag_541\n      tag_408\n      jump\t// in\n    tag_541:\n    tag_540:\n      swap1\n      0x00\n      mstore\n      keccak256(0x00, 0x20)\n      add\n      sload\n        /* \"marketplace.sol\":7383:7410  shoseSell[allTokensSell[i]] */\n      dup2\n      mstore\n      0x20\n      add\n      swap1\n      dup2\n      mstore\n      0x20\n      add\n      0x00\n      keccak256\n      sload\n        /* \"marketplace.sol\":7383:7418  shoseSell[allTokensSell[i]] > price */\n      gt\n        /* \"marketplace.sol\":7380:7734  if(shoseSell[allTokensSell[i]] > price){... */\n      iszero\n      tag_543\n      jumpi\n        /* \"marketplace.sol\":7462:7475  allTokensSell */\n      0x0c\n        /* \"marketplace.sol\":7476:7477  i */\n      dup2\n        /* \"marketplace.sol\":7462:7478  allTokensSell[i] */\n      dup2\n      sload\n      dup2\n      lt\n      tag_544\n      jumpi\n      tag_545\n      tag_408\n      jump\t// in\n    tag_545:\n    tag_544:\n      swap1\n      0x00\n      mstore\n      keccak256(0x00, 0x20)\n      add\n      sload\n        /* \"marketplace.sol\":7441:7454  allTokensSell */\n      0x0c\n        /* \"marketplace.sol\":7457:7458  1 */\n      0x01\n        /* \"marketplace.sol\":7455:7456  i */\n      dup4\n        /* \"marketplace.sol\":7455:7458  i+1 */\n      tag_547\n      swap2\n      swap1\n      tag_520\n      jump\t// in\n    tag_547:\n        /* \"marketplace.sol\":7441:7459  allTokensSell[i+1] */\n      dup2\n      sload\n      dup2\n      lt\n      tag_548\n      jumpi\n      tag_549\n      tag_408\n      jump\t// in\n    tag_549:\n    tag_548:\n      swap1\n      0x00\n      mstore\n      keccak256(0x00, 0x20)\n      add\n        /* \"marketplace.sol\":7441:7478  allTokensSell[i+1] = allTokensSell[i] */\n      dup2\n      swap1\n      sstore\n      pop\n        /* \"marketplace.sol\":7506:7507  0 */\n      0x00\n        /* \"marketplace.sol\":7503:7504  i */\n      dup2\n        /* \"marketplace.sol\":7503:7507  i==0 */\n      eq\n        /* \"marketplace.sol\":7500:7615  if(i==0){... */\n      iszero\n      tag_551\n      jumpi\n        /* \"marketplace.sol\":7553:7560  tokenId */\n      dup4\n        /* \"marketplace.sol\":7534:7547  allTokensSell */\n      0x0c\n        /* \"marketplace.sol\":7548:7549  0 */\n      0x00\n        /* \"marketplace.sol\":7534:7550  allTokensSell[0] */\n      dup2\n      sload\n      dup2\n      lt\n      tag_552\n      jumpi\n      tag_553\n      tag_408\n      jump\t// in\n    tag_553:\n    tag_552:\n      swap1\n      0x00\n      mstore\n      keccak256(0x00, 0x20)\n      add\n        /* \"marketplace.sol\":7534:7560  allTokensSell[0] = tokenId */\n      dup2\n      swap1\n      sstore\n      pop\n        /* \"marketplace.sol\":7586:7593  return; */\n      pop\n      jump(tag_533)\n        /* \"marketplace.sol\":7500:7615  if(i==0){... */\n    tag_551:\n        /* \"marketplace.sol\":7380:7734  if(shoseSell[allTokensSell[i]] > price){... */\n      jump(tag_555)\n    tag_543:\n        /* \"marketplace.sol\":7680:7687  tokenId */\n      dup4\n        /* \"marketplace.sol\":7659:7672  allTokensSell */\n      0x0c\n        /* \"marketplace.sol\":7675:7676  1 */\n      0x01\n        /* \"marketplace.sol\":7673:7674  i */\n      dup4\n        /* \"marketplace.sol\":7673:7676  i+1 */\n      tag_556\n      swap2\n      swap1\n      tag_520\n      jump\t// in\n    tag_556:\n        /* \"marketplace.sol\":7659:7677  allTokensSell[i+1] */\n      dup2\n      sload\n      dup2\n      lt\n      tag_557\n      jumpi\n      tag_558\n      tag_408\n      jump\t// in\n    tag_558:\n    tag_557:\n      swap1\n      0x00\n      mstore\n      keccak256(0x00, 0x20)\n      add\n        /* \"marketplace.sol\":7659:7687  allTokensSell[i+1] = tokenId */\n      dup2\n      swap1\n      sstore\n      pop\n        /* \"marketplace.sol\":7709:7716  return; */\n      pop\n      jump(tag_533)\n        /* \"marketplace.sol\":7380:7734  if(shoseSell[allTokensSell[i]] > price){... */\n    tag_555:\n        /* \"marketplace.sol\":7358:7361  i-- */\n      dup1\n      dup1\n      tag_560\n      swap1\n      tag_561\n      jump\t// in\n    tag_560:\n      swap2\n      pop\n      pop\n        /* \"marketplace.sol\":7311:7748  for(uint256 i = allTokensSell.length-2; i >=0; i--){... */\n      jump(tag_536)\n    tag_537:\n      pop\n        /* \"marketplace.sol\":7268:7758  if(allTokensSell.length >= 2){... */\n    tag_535:\n        /* \"marketplace.sol\":7070:7764  function addNFTSell(uint256 tokenId, uint256 price, address seller) internal{... */\n    tag_533:\n      pop\n      pop\n      pop\n      jump\t// out\n        /* \"BEPContext.sol\":760:859  function _msgSender() internal view returns (address payable) {... */\n    tag_394:\n        /* \"BEPContext.sol\":805:820  address payable */\n      0x00\n        /* \"BEPContext.sol\":843:853  msg.sender */\n      caller\n        /* \"BEPContext.sol\":828:854  return payable(msg.sender) */\n      swap1\n      pop\n        /* \"BEPContext.sol\":760:859  function _msgSender() internal view returns (address payable) {... */\n      swap1\n      jump\t// out\n        /* \"BEPOwnable.sol\":2090:2301  function _transferOwnership(address newOwner) internal {... */\n    tag_492:\n        /* \"BEPOwnable.sol\":2179:2180  0 */\n      0x00\n        /* \"BEPOwnable.sol\":2159:2181  newOwner != address(0) */\n      0xffffffffffffffffffffffffffffffffffffffff\n      and\n        /* \"BEPOwnable.sol\":2159:2167  newOwner */\n      dup2\n        /* \"BEPOwnable.sol\":2159:2181  newOwner != address(0) */\n      0xffffffffffffffffffffffffffffffffffffffff\n      and\n      eq\n      iszero\n        /* \"BEPOwnable.sol\":2151:2224  require(newOwner != address(0), \"Ownable: new owner is the zero address\") */\n      tag_564\n      jumpi\n      mload(0x40)\n      0x08c379a000000000000000000000000000000000000000000000000000000000\n      dup2\n      mstore\n      0x04\n      add\n      tag_565\n      swap1\n      tag_566\n      jump\t// in\n    tag_565:\n      mload(0x40)\n      dup1\n      swap2\n      sub\n      swap1\n      revert\n    tag_564:\n        /* \"BEPOwnable.sol\":2264:2272  newOwner */\n      dup1\n        /* \"BEPOwnable.sol\":2235:2273  OwnershipTransferred(_owner, newOwner) */\n      0xffffffffffffffffffffffffffffffffffffffff\n      and\n        /* \"BEPOwnable.sol\":2256:2262  _owner */\n      0x00\n      dup1\n      sload\n      swap1\n      0x0100\n      exp\n      swap1\n      div\n      0xffffffffffffffffffffffffffffffffffffffff\n      and\n        /* \"BEPOwnable.sol\":2235:2273  OwnershipTransferred(_owner, newOwner) */\n      0xffffffffffffffffffffffffffffffffffffffff\n      and\n      0x8be0079c531659141344cd1fd0a4f28419497f9722a3daafe3b4186f6b6457e0\n      mload(0x40)\n      mload(0x40)\n      dup1\n      swap2\n      sub\n      swap1\n      log3\n        /* \"BEPOwnable.sol\":2288:2296  newOwner */\n      dup1\n        /* \"BEPOwnable.sol\":2279:2285  _owner */\n      0x00\n      dup1\n        /* \"BEPOwnable.sol\":2279:2296  _owner = newOwner */\n      0x0100\n      exp\n      dup2\n      sload\n      dup2\n      0xffffffffffffffffffffffffffffffffffffffff\n      mul\n      not\n      and\n      swap1\n      dup4\n      0xffffffffffffffffffffffffffffffffffffffff\n      and\n      mul\n      or\n      swap1\n      sstore\n      pop\n        /* \"BEPOwnable.sol\":2090:2301  function _transferOwnership(address newOwner) internal {... */\n      pop\n      jump\t// out\n        /* \"#utility.yul\":7:146   */\n    tag_568:\n        /* \"#utility.yul\":53:58   */\n      0x00\n        /* \"#utility.yul\":91:97   */\n      dup2\n        /* \"#utility.yul\":78:98   */\n      calldataload\n        /* \"#utility.yul\":69:98   */\n      swap1\n      pop\n        /* \"#utility.yul\":107:140   */\n      tag_570\n        /* \"#utility.yul\":134:139   */\n      dup2\n        /* \"#utility.yul\":107:140   */\n      tag_571\n      jump\t// in\n    tag_570:\n        /* \"#utility.yul\":7:146   */\n      swap3\n      swap2\n      pop\n      pop\n      jump\t// out\n        /* \"#utility.yul\":152:295   */\n    tag_572:\n        /* \"#utility.yul\":209:214   */\n      0x00\n        /* \"#utility.yul\":240:246   */\n      dup2\n        /* \"#utility.yul\":234:247   */\n      mload\n        /* \"#utility.yul\":225:247   */\n      swap1\n      pop\n        /* \"#utility.yul\":256:289   */\n      tag_574\n        /* \"#utility.yul\":283:288   */\n      dup2\n        /* \"#utility.yul\":256:289   */\n      tag_571\n      jump\t// in\n    tag_574:\n        /* \"#utility.yul\":152:295   */\n      swap3\n      swap2\n      pop\n      pop\n      jump\t// out\n        /* \"#utility.yul\":301:438   */\n    tag_575:\n        /* \"#utility.yul\":355:360   */\n      0x00\n        /* \"#utility.yul\":386:392   */\n      dup2\n        /* \"#utility.yul\":380:393   */\n      mload\n        /* \"#utility.yul\":371:393   */\n      swap1\n      pop\n        /* \"#utility.yul\":402:432   */\n      tag_577\n        /* \"#utility.yul\":426:431   */\n      dup2\n        /* \"#utility.yul\":402:432   */\n      tag_578\n      jump\t// in\n    tag_577:\n        /* \"#utility.yul\":301:438   */\n      swap3\n      swap2\n      pop\n      pop\n      jump\t// out\n        /* \"#utility.yul\":444:583   */\n    tag_579:\n        /* \"#utility.yul\":490:495   */\n      0x00\n        /* \"#utility.yul\":528:534   */\n      dup2\n        /* \"#utility.yul\":515:535   */\n      calldataload\n        /* \"#utility.yul\":506:535   */\n      swap1\n      pop\n        /* \"#utility.yul\":544:577   */\n      tag_581\n        /* \"#utility.yul\":571:576   */\n      dup2\n        /* \"#utility.yul\":544:577   */\n      tag_582\n      jump\t// in\n    tag_581:\n        /* \"#utility.yul\":444:583   */\n      swap3\n      swap2\n      pop\n      pop\n      jump\t// out\n        /* \"#utility.yul\":589:732   */\n    tag_583:\n        /* \"#utility.yul\":646:651   */\n      0x00\n        /* \"#utility.yul\":677:683   */\n      dup2\n        /* \"#utility.yul\":671:684   */\n      mload\n        /* \"#utility.yul\":662:684   */\n      swap1\n      pop\n        /* \"#utility.yul\":693:726   */\n      tag_585\n        /* \"#utility.yul\":720:725   */\n      dup2\n        /* \"#utility.yul\":693:726   */\n      tag_582\n      jump\t// in\n    tag_585:\n        /* \"#utility.yul\":589:732   */\n      swap3\n      swap2\n      pop\n      pop\n      jump\t// out\n        /* \"#utility.yul\":738:1067   */\n    tag_53:\n        /* \"#utility.yul\":797:803   */\n      0x00\n        /* \"#utility.yul\":846:848   */\n      0x20\n        /* \"#utility.yul\":834:843   */\n      dup3\n        /* \"#utility.yul\":825:832   */\n      dup5\n        /* \"#utility.yul\":821:844   */\n      sub\n        /* \"#utility.yul\":817:849   */\n      slt\n        /* \"#utility.yul\":814:933   */\n      iszero\n      tag_587\n      jumpi\n        /* \"#utility.yul\":852:931   */\n      tag_588\n      tag_589\n      jump\t// in\n    tag_588:\n        /* \"#utility.yul\":814:933   */\n    tag_587:\n        /* \"#utility.yul\":972:973   */\n      0x00\n        /* \"#utility.yul\":997:1050   */\n      tag_590\n        /* \"#utility.yul\":1042:1049   */\n      dup5\n        /* \"#utility.yul\":1033:1039   */\n      dup3\n        /* \"#utility.yul\":1022:1031   */\n      dup6\n        /* \"#utility.yul\":1018:1040   */\n      add\n        /* \"#utility.yul\":997:1050   */\n      tag_568\n      jump\t// in\n    tag_590:\n        /* \"#utility.yul\":987:1050   */\n      swap2\n      pop\n        /* \"#utility.yul\":943:1060   */\n      pop\n        /* \"#utility.yul\":738:1067   */\n      swap3\n      swap2\n      pop\n      pop\n      jump\t// out\n        /* \"#utility.yul\":1073:1424   */\n    tag_229:\n        /* \"#utility.yul\":1143:1149   */\n      0x00\n        /* \"#utility.yul\":1192:1194   */\n      0x20\n        /* \"#utility.yul\":1180:1189   */\n      dup3\n        /* \"#utility.yul\":1171:1178   */\n      dup5\n        /* \"#utility.yul\":1167:1190   */\n      sub\n        /* \"#utility.yul\":1163:1195   */\n      slt\n        /* \"#utility.yul\":1160:1279   */\n      iszero\n      tag_592\n      jumpi\n        /* \"#utility.yul\":1198:1277   */\n      tag_593\n      tag_589\n      jump\t// in\n    tag_593:\n        /* \"#utility.yul\":1160:1279   */\n    tag_592:\n        /* \"#utility.yul\":1318:1319   */\n      0x00\n        /* \"#utility.yul\":1343:1407   */\n      tag_594\n        /* \"#utility.yul\":1399:1406   */\n      dup5\n        /* \"#utility.yul\":1390:1396   */\n      dup3\n        /* \"#utility.yul\":1379:1388   */\n      dup6\n        /* \"#utility.yul\":1375:1397   */\n      add\n        /* \"#utility.yul\":1343:1407   */\n      tag_572\n      jump\t// in\n    tag_594:\n        /* \"#utility.yul\":1333:1407   */\n      swap2\n      pop\n        /* \"#utility.yul\":1289:1417   */\n      pop\n        /* \"#utility.yul\":1073:1424   */\n      swap3\n      swap2\n      pop\n      pop\n      jump\t// out\n        /* \"#utility.yul\":1430:1904   */\n    tag_99:\n        /* \"#utility.yul\":1498:1504   */\n      0x00\n        /* \"#utility.yul\":1506:1512   */\n      dup1\n        /* \"#utility.yul\":1555:1557   */\n      0x40\n        /* \"#utility.yul\":1543:1552   */\n      dup4\n        /* \"#utility.yul\":1534:1541   */\n      dup6\n        /* \"#utility.yul\":1530:1553   */\n      sub\n        /* \"#utility.yul\":1526:1558   */\n      slt\n        /* \"#utility.yul\":1523:1642   */\n      iszero\n      tag_596\n      jumpi\n        /* \"#utility.yul\":1561:1640   */\n      tag_597\n      tag_589\n      jump\t// in\n    tag_597:\n        /* \"#utility.yul\":1523:1642   */\n    tag_596:\n        /* \"#utility.yul\":1681:1682   */\n      0x00\n        /* \"#utility.yul\":1706:1759   */\n      tag_598\n        /* \"#utility.yul\":1751:1758   */\n      dup6\n        /* \"#utility.yul\":1742:1748   */\n      dup3\n        /* \"#utility.yul\":1731:1740   */\n      dup7\n        /* \"#utility.yul\":1727:1749   */\n      add\n        /* \"#utility.yul\":1706:1759   */\n      tag_568\n      jump\t// in\n    tag_598:\n        /* \"#utility.yul\":1696:1759   */\n      swap3\n      pop\n        /* \"#utility.yul\":1652:1769   */\n      pop\n        /* \"#utility.yul\":1808:1810   */\n      0x20\n        /* \"#utility.yul\":1834:1887   */\n      tag_599\n        /* \"#utility.yul\":1879:1886   */\n      dup6\n        /* \"#utility.yul\":1870:1876   */\n      dup3\n        /* \"#utility.yul\":1859:1868   */\n      dup7\n        /* \"#utility.yul\":1855:1877   */\n      add\n        /* \"#utility.yul\":1834:1887   */\n      tag_579\n      jump\t// in\n    tag_599:\n        /* \"#utility.yul\":1824:1887   */\n      swap2\n      pop\n        /* \"#utility.yul\":1779:1897   */\n      pop\n        /* \"#utility.yul\":1430:1904   */\n      swap3\n      pop\n      swap3\n      swap1\n      pop\n      jump\t// out\n        /* \"#utility.yul\":1910:2255   */\n    tag_246:\n        /* \"#utility.yul\":1977:1983   */\n      0x00\n        /* \"#utility.yul\":2026:2028   */\n      0x20\n        /* \"#utility.yul\":2014:2023   */\n      dup3\n        /* \"#utility.yul\":2005:2012   */\n      dup5\n        /* \"#utility.yul\":2001:2024   */\n      sub\n        /* \"#utility.yul\":1997:2029   */\n      slt\n        /* \"#utility.yul\":1994:2113   */\n      iszero\n      tag_601\n      jumpi\n        /* \"#utility.yul\":2032:2111   */\n      tag_602\n      tag_589\n      jump\t// in\n    tag_602:\n        /* \"#utility.yul\":1994:2113   */\n    tag_601:\n        /* \"#utility.yul\":2152:2153   */\n      0x00\n        /* \"#utility.yul\":2177:2238   */\n      tag_603\n        /* \"#utility.yul\":2230:2237   */\n      dup5\n        /* \"#utility.yul\":2221:2227   */\n      dup3\n        /* \"#utility.yul\":2210:2219   */\n      dup6\n        /* \"#utility.yul\":2206:2228   */\n      add\n        /* \"#utility.yul\":2177:2238   */\n      tag_575\n      jump\t// in\n    tag_603:\n        /* \"#utility.yul\":2167:2238   */\n      swap2\n      pop\n        /* \"#utility.yul\":2123:2248   */\n      pop\n        /* \"#utility.yul\":1910:2255   */\n      swap3\n      swap2\n      pop\n      pop\n      jump\t// out\n        /* \"#utility.yul\":2261:2590   */\n    tag_58:\n        /* \"#utility.yul\":2320:2326   */\n      0x00\n        /* \"#utility.yul\":2369:2371   */\n      0x20\n        /* \"#utility.yul\":2357:2366   */\n      dup3\n        /* \"#utility.yul\":2348:2355   */\n      dup5\n        /* \"#utility.yul\":2344:2367   */\n      sub\n        /* \"#utility.yul\":2340:2372   */\n      slt\n        /* \"#utility.yul\":2337:2456   */\n      iszero\n      tag_605\n      jumpi\n        /* \"#utility.yul\":2375:2454   */\n      tag_606\n      tag_589\n      jump\t// in\n    tag_606:\n        /* \"#utility.yul\":2337:2456   */\n    tag_605:\n        /* \"#utility.yul\":2495:2496   */\n      0x00\n        /* \"#utility.yul\":2520:2573   */\n      tag_607\n        /* \"#utility.yul\":2565:2572   */\n      dup5\n        /* \"#utility.yul\":2556:2562   */\n      dup3\n        /* \"#utility.yul\":2545:2554   */\n      dup6\n        /* \"#utility.yul\":2541:2563   */\n      add\n        /* \"#utility.yul\":2520:2573   */\n      tag_579\n      jump\t// in\n    tag_607:\n        /* \"#utility.yul\":2510:2573   */\n      swap2\n      pop\n        /* \"#utility.yul\":2466:2583   */\n      pop\n        /* \"#utility.yul\":2261:2590   */\n      swap3\n      swap2\n      pop\n      pop\n      jump\t// out\n        /* \"#utility.yul\":2596:2947   */\n    tag_217:\n        /* \"#utility.yul\":2666:2672   */\n      0x00\n        /* \"#utility.yul\":2715:2717   */\n      0x20\n        /* \"#utility.yul\":2703:2712   */\n      dup3\n        /* \"#utility.yul\":2694:2701   */\n      dup5\n        /* \"#utility.yul\":2690:2713   */\n      sub\n        /* \"#utility.yul\":2686:2718   */\n      slt\n        /* \"#utility.yul\":2683:2802   */\n      iszero\n      tag_609\n      jumpi\n        /* \"#utility.yul\":2721:2800   */\n      tag_610\n      tag_589\n      jump\t// in\n    tag_610:\n        /* \"#utility.yul\":2683:2802   */\n    tag_609:\n        /* \"#utility.yul\":2841:2842   */\n      0x00\n        /* \"#utility.yul\":2866:2930   */\n      tag_611\n        /* \"#utility.yul\":2922:2929   */\n      dup5\n        /* \"#utility.yul\":2913:2919   */\n      dup3\n        /* \"#utility.yul\":2902:2911   */\n      dup6\n        /* \"#utility.yul\":2898:2920   */\n      add\n        /* \"#utility.yul\":2866:2930   */\n      tag_583\n      jump\t// in\n    tag_611:\n        /* \"#utility.yul\":2856:2930   */\n      swap2\n      pop\n        /* \"#utility.yul\":2812:2940   */\n      pop\n        /* \"#utility.yul\":2596:2947   */\n      swap3\n      swap2\n      pop\n      pop\n      jump\t// out\n        /* \"#utility.yul\":2953:3427   */\n    tag_111:\n        /* \"#utility.yul\":3021:3027   */\n      0x00\n        /* \"#utility.yul\":3029:3035   */\n      dup1\n        /* \"#utility.yul\":3078:3080   */\n      0x40\n        /* \"#utility.yul\":3066:3075   */\n      dup4\n        /* \"#utility.yul\":3057:3064   */\n      dup6\n        /* \"#utility.yul\":3053:3076   */\n      sub\n        /* \"#utility.yul\":3049:3081   */\n      slt\n        /* \"#utility.yul\":3046:3165   */\n      iszero\n      tag_613\n      jumpi\n        /* \"#utility.yul\":3084:3163   */\n      tag_614\n      tag_589\n      jump\t// in\n    tag_614:\n        /* \"#utility.yul\":3046:3165   */\n    tag_613:\n        /* \"#utility.yul\":3204:3205   */\n      0x00\n        /* \"#utility.yul\":3229:3282   */\n      tag_615\n        /* \"#utility.yul\":3274:3281   */\n      dup6\n        /* \"#utility.yul\":3265:3271   */\n      dup3\n        /* \"#utility.yul\":3254:3263   */\n      dup7\n        /* \"#utility.yul\":3250:3272   */\n      add\n        /* \"#utility.yul\":3229:3282   */\n      tag_579\n      jump\t// in\n    tag_615:\n        /* \"#utility.yul\":3219:3282   */\n      swap3\n      pop\n        /* \"#utility.yul\":3175:3292   */\n      pop\n        /* \"#utility.yul\":3331:3333   */\n      0x20\n        /* \"#utility.yul\":3357:3410   */\n      tag_616\n        /* \"#utility.yul\":3402:3409   */\n      dup6\n        /* \"#utility.yul\":3393:3399   */\n      dup3\n        /* \"#utility.yul\":3382:3391   */\n      dup7\n        /* \"#utility.yul\":3378:3400   */\n      add\n        /* \"#utility.yul\":3357:3410   */\n      tag_579\n      jump\t// in\n    tag_616:\n        /* \"#utility.yul\":3347:3410   */\n      swap2\n      pop\n        /* \"#utility.yul\":3302:3420   */\n      pop\n        /* \"#utility.yul\":2953:3427   */\n      swap3\n      pop\n      swap3\n      swap1\n      pop\n      jump\t// out\n        /* \"#utility.yul\":3433:3612   */\n    tag_617:\n        /* \"#utility.yul\":3502:3512   */\n      0x00\n        /* \"#utility.yul\":3523:3569   */\n      tag_619\n        /* \"#utility.yul\":3565:3568   */\n      dup4\n        /* \"#utility.yul\":3557:3563   */\n      dup4\n        /* \"#utility.yul\":3523:3569   */\n      tag_620\n      jump\t// in\n    tag_619:\n        /* \"#utility.yul\":3601:3605   */\n      0x20\n        /* \"#utility.yul\":3596:3599   */\n      dup4\n        /* \"#utility.yul\":3592:3606   */\n      add\n        /* \"#utility.yul\":3578:3606   */\n      swap1\n      pop\n        /* \"#utility.yul\":3433:3612   */\n      swap3\n      swap2\n      pop\n      pop\n      jump\t// out\n        /* \"#utility.yul\":3618:3797   */\n    tag_621:\n        /* \"#utility.yul\":3687:3697   */\n      0x00\n        /* \"#utility.yul\":3708:3754   */\n      tag_623\n        /* \"#utility.yul\":3750:3753   */\n      dup4\n        /* \"#utility.yul\":3742:3748   */\n      dup4\n        /* \"#utility.yul\":3708:3754   */\n      tag_624\n      jump\t// in\n    tag_623:\n        /* \"#utility.yul\":3786:3790   */\n      0x20\n        /* \"#utility.yul\":3781:3784   */\n      dup4\n        /* \"#utility.yul\":3777:3791   */\n      add\n        /* \"#utility.yul\":3763:3791   */\n      swap1\n      pop\n        /* \"#utility.yul\":3618:3797   */\n      swap3\n      swap2\n      pop\n      pop\n      jump\t// out\n        /* \"#utility.yul\":3803:3911   */\n    tag_620:\n        /* \"#utility.yul\":3880:3904   */\n      tag_626\n        /* \"#utility.yul\":3898:3903   */\n      dup2\n        /* \"#utility.yul\":3880:3904   */\n      tag_627\n      jump\t// in\n    tag_626:\n        /* \"#utility.yul\":3875:3878   */\n      dup3\n        /* \"#utility.yul\":3868:3905   */\n      mstore\n        /* \"#utility.yul\":3803:3911   */\n      pop\n      pop\n      jump\t// out\n        /* \"#utility.yul\":3917:4035   */\n    tag_628:\n        /* \"#utility.yul\":4004:4028   */\n      tag_630\n        /* \"#utility.yul\":4022:4027   */\n      dup2\n        /* \"#utility.yul\":4004:4028   */\n      tag_627\n      jump\t// in\n    tag_630:\n        /* \"#utility.yul\":3999:4002   */\n      dup3\n        /* \"#utility.yul\":3992:4029   */\n      mstore\n        /* \"#utility.yul\":3917:4035   */\n      pop\n      pop\n      jump\t// out\n        /* \"#utility.yul\":4071:4803   */\n    tag_631:\n        /* \"#utility.yul\":4190:4193   */\n      0x00\n        /* \"#utility.yul\":4219:4273   */\n      tag_633\n        /* \"#utility.yul\":4267:4272   */\n      dup3\n        /* \"#utility.yul\":4219:4273   */\n      tag_634\n      jump\t// in\n    tag_633:\n        /* \"#utility.yul\":4289:4375   */\n      tag_635\n        /* \"#utility.yul\":4368:4374   */\n      dup2\n        /* \"#utility.yul\":4363:4366   */\n      dup6\n        /* \"#utility.yul\":4289:4375   */\n      tag_636\n      jump\t// in\n    tag_635:\n        /* \"#utility.yul\":4282:4375   */\n      swap4\n      pop\n        /* \"#utility.yul\":4399:4455   */\n      tag_637\n        /* \"#utility.yul\":4449:4454   */\n      dup4\n        /* \"#utility.yul\":4399:4455   */\n      tag_638\n      jump\t// in\n    tag_637:\n        /* \"#utility.yul\":4478:4485   */\n      dup1\n        /* \"#utility.yul\":4509:4510   */\n      0x00\n        /* \"#utility.yul\":4494:4778   */\n    tag_639:\n        /* \"#utility.yul\":4519:4525   */\n      dup4\n        /* \"#utility.yul\":4516:4517   */\n      dup2\n        /* \"#utility.yul\":4513:4526   */\n      lt\n        /* \"#utility.yul\":4494:4778   */\n      iszero\n      tag_641\n      jumpi\n        /* \"#utility.yul\":4595:4601   */\n      dup2\n        /* \"#utility.yul\":4589:4602   */\n      mload\n        /* \"#utility.yul\":4622:4685   */\n      tag_642\n        /* \"#utility.yul\":4681:4684   */\n      dup9\n        /* \"#utility.yul\":4666:4679   */\n      dup3\n        /* \"#utility.yul\":4622:4685   */\n      tag_617\n      jump\t// in\n    tag_642:\n        /* \"#utility.yul\":4615:4685   */\n      swap8\n      pop\n        /* \"#utility.yul\":4708:4768   */\n      tag_643\n        /* \"#utility.yul\":4761:4767   */\n      dup4\n        /* \"#utility.yul\":4708:4768   */\n      tag_644\n      jump\t// in\n    tag_643:\n        /* \"#utility.yul\":4698:4768   */\n      swap3\n      pop\n        /* \"#utility.yul\":4554:4778   */\n      pop\n        /* \"#utility.yul\":4541:4542   */\n      0x01\n        /* \"#utility.yul\":4538:4539   */\n      dup2\n        /* \"#utility.yul\":4534:4543   */\n      add\n        /* \"#utility.yul\":4529:4543   */\n      swap1\n      pop\n        /* \"#utility.yul\":4494:4778   */\n      jump(tag_639)\n    tag_641:\n        /* \"#utility.yul\":4498:4512   */\n      pop\n        /* \"#utility.yul\":4794:4797   */\n      dup6\n        /* \"#utility.yul\":4787:4797   */\n      swap4\n      pop\n        /* \"#utility.yul\":4195:4803   */\n      pop\n      pop\n      pop\n        /* \"#utility.yul\":4071:4803   */\n      swap3\n      swap2\n      pop\n      pop\n      jump\t// out\n        /* \"#utility.yul\":4839:5571   */\n    tag_645:\n        /* \"#utility.yul\":4958:4961   */\n      0x00\n        /* \"#utility.yul\":4987:5041   */\n      tag_647\n        /* \"#utility.yul\":5035:5040   */\n      dup3\n        /* \"#utility.yul\":4987:5041   */\n      tag_648\n      jump\t// in\n    tag_647:\n        /* \"#utility.yul\":5057:5143   */\n      tag_649\n        /* \"#utility.yul\":5136:5142   */\n      dup2\n        /* \"#utility.yul\":5131:5134   */\n      dup6\n        /* \"#utility.yul\":5057:5143   */\n      tag_650\n      jump\t// in\n    tag_649:\n        /* \"#utility.yul\":5050:5143   */\n      swap4\n      pop\n        /* \"#utility.yul\":5167:5223   */\n      tag_651\n        /* \"#utility.yul\":5217:5222   */\n      dup4\n        /* \"#utility.yul\":5167:5223   */\n      tag_652\n      jump\t// in\n    tag_651:\n        /* \"#utility.yul\":5246:5253   */\n      dup1\n        /* \"#utility.yul\":5277:5278   */\n      0x00\n        /* \"#utility.yul\":5262:5546   */\n    tag_653:\n        /* \"#utility.yul\":5287:5293   */\n      dup4\n        /* \"#utility.yul\":5284:5285   */\n      dup2\n        /* \"#utility.yul\":5281:5294   */\n      lt\n        /* \"#utility.yul\":5262:5546   */\n      iszero\n      tag_655\n      jumpi\n        /* \"#utility.yul\":5363:5369   */\n      dup2\n        /* \"#utility.yul\":5357:5370   */\n      mload\n        /* \"#utility.yul\":5390:5453   */\n      tag_656\n        /* \"#utility.yul\":5449:5452   */\n      dup9\n        /* \"#utility.yul\":5434:5447   */\n      dup3\n        /* \"#utility.yul\":5390:5453   */\n      tag_621\n      jump\t// in\n    tag_656:\n        /* \"#utility.yul\":5383:5453   */\n      swap8\n      pop\n        /* \"#utility.yul\":5476:5536   */\n      tag_657\n        /* \"#utility.yul\":5529:5535   */\n      dup4\n        /* \"#utility.yul\":5476:5536   */\n      tag_658\n      jump\t// in\n    tag_657:\n        /* \"#utility.yul\":5466:5536   */\n      swap3\n      pop\n        /* \"#utility.yul\":5322:5546   */\n      pop\n        /* \"#utility.yul\":5309:5310   */\n      0x01\n        /* \"#utility.yul\":5306:5307   */\n      dup2\n        /* \"#utility.yul\":5302:5311   */\n      add\n        /* \"#utility.yul\":5297:5311   */\n      swap1\n      pop\n        /* \"#utility.yul\":5262:5546   */\n      jump(tag_653)\n    tag_655:\n        /* \"#utility.yul\":5266:5280   */\n      pop\n        /* \"#utility.yul\":5562:5565   */\n      dup6\n        /* \"#utility.yul\":5555:5565   */\n      swap4\n      pop\n        /* \"#utility.yul\":4963:5571   */\n      pop\n      pop\n      pop\n        /* \"#utility.yul\":4839:5571   */\n      swap3\n      swap2\n      pop\n      pop\n      jump\t// out\n        /* \"#utility.yul\":5577:5686   */\n    tag_659:\n        /* \"#utility.yul\":5658:5679   */\n      tag_661\n        /* \"#utility.yul\":5673:5678   */\n      dup2\n        /* \"#utility.yul\":5658:5679   */\n      tag_662\n      jump\t// in\n    tag_661:\n        /* \"#utility.yul\":5653:5656   */\n      dup3\n        /* \"#utility.yul\":5646:5680   */\n      mstore\n        /* \"#utility.yul\":5577:5686   */\n      pop\n      pop\n      jump\t// out\n        /* \"#utility.yul\":5692:5879   */\n    tag_663:\n        /* \"#utility.yul\":5807:5872   */\n      tag_665\n        /* \"#utility.yul\":5866:5871   */\n      dup2\n        /* \"#utility.yul\":5807:5872   */\n      tag_666\n      jump\t// in\n    tag_665:\n        /* \"#utility.yul\":5802:5805   */\n      dup3\n        /* \"#utility.yul\":5795:5873   */\n      mstore\n        /* \"#utility.yul\":5692:5879   */\n      pop\n      pop\n      jump\t// out\n        /* \"#utility.yul\":5885:6251   */\n    tag_667:\n        /* \"#utility.yul\":6027:6030   */\n      0x00\n        /* \"#utility.yul\":6048:6115   */\n      tag_669\n        /* \"#utility.yul\":6112:6114   */\n      0x1d\n        /* \"#utility.yul\":6107:6110   */\n      dup4\n        /* \"#utility.yul\":6048:6115   */\n      tag_670\n      jump\t// in\n    tag_669:\n        /* \"#utility.yul\":6041:6115   */\n      swap2\n      pop\n        /* \"#utility.yul\":6124:6217   */\n      tag_671\n        /* \"#utility.yul\":6213:6216   */\n      dup3\n        /* \"#utility.yul\":6124:6217   */\n      tag_672\n      jump\t// in\n    tag_671:\n        /* \"#utility.yul\":6242:6244   */\n      0x20\n        /* \"#utility.yul\":6237:6240   */\n      dup3\n        /* \"#utility.yul\":6233:6245   */\n      add\n        /* \"#utility.yul\":6226:6245   */\n      swap1\n      pop\n        /* \"#utility.yul\":5885:6251   */\n      swap2\n      swap1\n      pop\n      jump\t// out\n        /* \"#utility.yul\":6257:6623   */\n    tag_673:\n        /* \"#utility.yul\":6399:6402   */\n      0x00\n        /* \"#utility.yul\":6420:6487   */\n      tag_675\n        /* \"#utility.yul\":6484:6486   */\n      0x0d\n        /* \"#utility.yul\":6479:6482   */\n      dup4\n        /* \"#utility.yul\":6420:6487   */\n      tag_670\n      jump\t// in\n    tag_675:\n        /* \"#utility.yul\":6413:6487   */\n      swap2\n      pop\n        /* \"#utility.yul\":6496:6589   */\n      tag_676\n        /* \"#utility.yul\":6585:6588   */\n      dup3\n        /* \"#utility.yul\":6496:6589   */\n      tag_677\n      jump\t// in\n    tag_676:\n        /* \"#utility.yul\":6614:6616   */\n      0x20\n        /* \"#utility.yul\":6609:6612   */\n      dup3\n        /* \"#utility.yul\":6605:6617   */\n      add\n        /* \"#utility.yul\":6598:6617   */\n      swap1\n      pop\n        /* \"#utility.yul\":6257:6623   */\n      swap2\n      swap1\n      pop\n      jump\t// out\n        /* \"#utility.yul\":6629:6995   */\n    tag_678:\n        /* \"#utility.yul\":6771:6774   */\n      0x00\n        /* \"#utility.yul\":6792:6859   */\n      tag_680\n        /* \"#utility.yul\":6856:6858   */\n      0x26\n        /* \"#utility.yul\":6851:6854   */\n      dup4\n        /* \"#utility.yul\":6792:6859   */\n      tag_670\n      jump\t// in\n    tag_680:\n        /* \"#utility.yul\":6785:6859   */\n      swap2\n      pop\n        /* \"#utility.yul\":6868:6961   */\n      tag_681\n        /* \"#utility.yul\":6957:6960   */\n      dup3\n        /* \"#utility.yul\":6868:6961   */\n      tag_682\n      jump\t// in\n    tag_681:\n        /* \"#utility.yul\":6986:6988   */\n      0x40\n        /* \"#utility.yul\":6981:6984   */\n      dup3\n        /* \"#utility.yul\":6977:6989   */\n      add\n        /* \"#utility.yul\":6970:6989   */\n      swap1\n      pop\n        /* \"#utility.yul\":6629:6995   */\n      swap2\n      swap1\n      pop\n      jump\t// out\n        /* \"#utility.yul\":7001:7367   */\n    tag_683:\n        /* \"#utility.yul\":7143:7146   */\n      0x00\n        /* \"#utility.yul\":7164:7231   */\n      tag_685\n        /* \"#utility.yul\":7228:7230   */\n      0x17\n        /* \"#utility.yul\":7223:7226   */\n      dup4\n        /* \"#utility.yul\":7164:7231   */\n      tag_670\n      jump\t// in\n    tag_685:\n        /* \"#utility.yul\":7157:7231   */\n      swap2\n      pop\n        /* \"#utility.yul\":7240:7333   */\n      tag_686\n        /* \"#utility.yul\":7329:7332   */\n      dup3\n        /* \"#utility.yul\":7240:7333   */\n      tag_687\n      jump\t// in\n    tag_686:\n        /* \"#utility.yul\":7358:7360   */\n      0x20\n        /* \"#utility.yul\":7353:7356   */\n      dup3\n        /* \"#utility.yul\":7349:7361   */\n      add\n        /* \"#utility.yul\":7342:7361   */\n      swap1\n      pop\n        /* \"#utility.yul\":7001:7367   */\n      swap2\n      swap1\n      pop\n      jump\t// out\n        /* \"#utility.yul\":7373:7739   */\n    tag_688:\n        /* \"#utility.yul\":7515:7518   */\n      0x00\n        /* \"#utility.yul\":7536:7603   */\n      tag_690\n        /* \"#utility.yul\":7600:7602   */\n      0x18\n        /* \"#utility.yul\":7595:7598   */\n      dup4\n        /* \"#utility.yul\":7536:7603   */\n      tag_670\n      jump\t// in\n    tag_690:\n        /* \"#utility.yul\":7529:7603   */\n      swap2\n      pop\n        /* \"#utility.yul\":7612:7705   */\n      tag_691\n        /* \"#utility.yul\":7701:7704   */\n      dup3\n        /* \"#utility.yul\":7612:7705   */\n      tag_692\n      jump\t// in\n    tag_691:\n        /* \"#utility.yul\":7730:7732   */\n      0x20\n        /* \"#utility.yul\":7725:7728   */\n      dup3\n        /* \"#utility.yul\":7721:7733   */\n      add\n        /* \"#utility.yul\":7714:7733   */\n      swap1\n      pop\n        /* \"#utility.yul\":7373:7739   */\n      swap2\n      swap1\n      pop\n      jump\t// out\n        /* \"#utility.yul\":7745:8110   */\n    tag_693:\n        /* \"#utility.yul\":7887:7890   */\n      0x00\n        /* \"#utility.yul\":7908:7974   */\n      tag_695\n        /* \"#utility.yul\":7972:7973   */\n      0x09\n        /* \"#utility.yul\":7967:7970   */\n      dup4\n        /* \"#utility.yul\":7908:7974   */\n      tag_670\n      jump\t// in\n    tag_695:\n        /* \"#utility.yul\":7901:7974   */\n      swap2\n      pop\n        /* \"#utility.yul\":7983:8076   */\n      tag_696\n        /* \"#utility.yul\":8072:8075   */\n      dup3\n        /* \"#utility.yul\":7983:8076   */\n      tag_697\n      jump\t// in\n    tag_696:\n        /* \"#utility.yul\":8101:8103   */\n      0x20\n        /* \"#utility.yul\":8096:8099   */\n      dup3\n        /* \"#utility.yul\":8092:8104   */\n      add\n        /* \"#utility.yul\":8085:8104   */\n      swap1\n      pop\n        /* \"#utility.yul\":7745:8110   */\n      swap2\n      swap1\n      pop\n      jump\t// out\n        /* \"#utility.yul\":8116:8482   */\n    tag_698:\n        /* \"#utility.yul\":8258:8261   */\n      0x00\n        /* \"#utility.yul\":8279:8346   */\n      tag_700\n        /* \"#utility.yul\":8343:8345   */\n      0x28\n        /* \"#utility.yul\":8338:8341   */\n      dup4\n        /* \"#utility.yul\":8279:8346   */\n      tag_670\n      jump\t// in\n    tag_700:\n        /* \"#utility.yul\":8272:8346   */\n      swap2\n      pop\n        /* \"#utility.yul\":8355:8448   */\n      tag_701\n        /* \"#utility.yul\":8444:8447   */\n      dup3\n        /* \"#utility.yul\":8355:8448   */\n      tag_702\n      jump\t// in\n    tag_701:\n        /* \"#utility.yul\":8473:8475   */\n      0x40\n        /* \"#utility.yul\":8468:8471   */\n      dup3\n        /* \"#utility.yul\":8464:8476   */\n      add\n        /* \"#utility.yul\":8457:8476   */\n      swap1\n      pop\n        /* \"#utility.yul\":8116:8482   */\n      swap2\n      swap1\n      pop\n      jump\t// out\n        /* \"#utility.yul\":8488:8854   */\n    tag_703:\n        /* \"#utility.yul\":8630:8633   */\n      0x00\n        /* \"#utility.yul\":8651:8718   */\n      tag_705\n        /* \"#utility.yul\":8715:8717   */\n      0x14\n        /* \"#utility.yul\":8710:8713   */\n      dup4\n        /* \"#utility.yul\":8651:8718   */\n      tag_670\n      jump\t// in\n    tag_705:\n        /* \"#utility.yul\":8644:8718   */\n      swap2\n      pop\n        /* \"#utility.yul\":8727:8820   */\n      tag_706\n        /* \"#utility.yul\":8816:8819   */\n      dup3\n        /* \"#utility.yul\":8727:8820   */\n      tag_707\n      jump\t// in\n    tag_706:\n        /* \"#utility.yul\":8845:8847   */\n      0x20\n        /* \"#utility.yul\":8840:8843   */\n      dup3\n        /* \"#utility.yul\":8836:8848   */\n      add\n        /* \"#utility.yul\":8829:8848   */\n      swap1\n      pop\n        /* \"#utility.yul\":8488:8854   */\n      swap2\n      swap1\n      pop\n      jump\t// out\n        /* \"#utility.yul\":8860:9226   */\n    tag_708:\n        /* \"#utility.yul\":9002:9005   */\n      0x00\n        /* \"#utility.yul\":9023:9090   */\n      tag_710\n        /* \"#utility.yul\":9087:9089   */\n      0x20\n        /* \"#utility.yul\":9082:9085   */\n      dup4\n        /* \"#utility.yul\":9023:9090   */\n      tag_670\n      jump\t// in\n    tag_710:\n        /* \"#utility.yul\":9016:9090   */\n      swap2\n      pop\n        /* \"#utility.yul\":9099:9192   */\n      tag_711\n        /* \"#utility.yul\":9188:9191   */\n      dup3\n        /* \"#utility.yul\":9099:9192   */\n      tag_712\n      jump\t// in\n    tag_711:\n        /* \"#utility.yul\":9217:9219   */\n      0x20\n        /* \"#utility.yul\":9212:9215   */\n      dup3\n        /* \"#utility.yul\":9208:9220   */\n      add\n        /* \"#utility.yul\":9201:9220   */\n      swap1\n      pop\n        /* \"#utility.yul\":8860:9226   */\n      swap2\n      swap1\n      pop\n      jump\t// out\n        /* \"#utility.yul\":9232:9598   */\n    tag_713:\n        /* \"#utility.yul\":9374:9377   */\n      0x00\n        /* \"#utility.yul\":9395:9462   */\n      tag_715\n        /* \"#utility.yul\":9459:9461   */\n      0x14\n        /* \"#utility.yul\":9454:9457   */\n      dup4\n        /* \"#utility.yul\":9395:9462   */\n      tag_670\n      jump\t// in\n    tag_715:\n        /* \"#utility.yul\":9388:9462   */\n      swap2\n      pop\n        /* \"#utility.yul\":9471:9564   */\n      tag_716\n        /* \"#utility.yul\":9560:9563   */\n      dup3\n        /* \"#utility.yul\":9471:9564   */\n      tag_717\n      jump\t// in\n    tag_716:\n        /* \"#utility.yul\":9589:9591   */\n      0x20\n        /* \"#utility.yul\":9584:9587   */\n      dup3\n        /* \"#utility.yul\":9580:9592   */\n      add\n        /* \"#utility.yul\":9573:9592   */\n      swap1\n      pop\n        /* \"#utility.yul\":9232:9598   */\n      swap2\n      swap1\n      pop\n      jump\t// out\n        /* \"#utility.yul\":9604:9970   */\n    tag_718:\n        /* \"#utility.yul\":9746:9749   */\n      0x00\n        /* \"#utility.yul\":9767:9834   */\n      tag_720\n        /* \"#utility.yul\":9831:9833   */\n      0x47\n        /* \"#utility.yul\":9826:9829   */\n      dup4\n        /* \"#utility.yul\":9767:9834   */\n      tag_670\n      jump\t// in\n    tag_720:\n        /* \"#utility.yul\":9760:9834   */\n      swap2\n      pop\n        /* \"#utility.yul\":9843:9936   */\n      tag_721\n        /* \"#utility.yul\":9932:9935   */\n      dup3\n        /* \"#utility.yul\":9843:9936   */\n      tag_722\n      jump\t// in\n    tag_721:\n        /* \"#utility.yul\":9961:9963   */\n      0x60\n        /* \"#utility.yul\":9956:9959   */\n      dup3\n        /* \"#utility.yul\":9952:9964   */\n      add\n        /* \"#utility.yul\":9945:9964   */\n      swap1\n      pop\n        /* \"#utility.yul\":9604:9970   */\n      swap2\n      swap1\n      pop\n      jump\t// out\n        /* \"#utility.yul\":9976:10084   */\n    tag_624:\n        /* \"#utility.yul\":10053:10077   */\n      tag_724\n        /* \"#utility.yul\":10071:10076   */\n      dup2\n        /* \"#utility.yul\":10053:10077   */\n      tag_725\n      jump\t// in\n    tag_724:\n        /* \"#utility.yul\":10048:10051   */\n      dup3\n        /* \"#utility.yul\":10041:10078   */\n      mstore\n        /* \"#utility.yul\":9976:10084   */\n      pop\n      pop\n      jump\t// out\n        /* \"#utility.yul\":10090:10208   */\n    tag_726:\n        /* \"#utility.yul\":10177:10201   */\n      tag_728\n        /* \"#utility.yul\":10195:10200   */\n      dup2\n        /* \"#utility.yul\":10177:10201   */\n      tag_725\n      jump\t// in\n    tag_728:\n        /* \"#utility.yul\":10172:10175   */\n      dup3\n        /* \"#utility.yul\":10165:10202   */\n      mstore\n        /* \"#utility.yul\":10090:10208   */\n      pop\n      pop\n      jump\t// out\n        /* \"#utility.yul\":10214:10436   */\n    tag_49:\n        /* \"#utility.yul\":10307:10311   */\n      0x00\n        /* \"#utility.yul\":10345:10347   */\n      0x20\n        /* \"#utility.yul\":10334:10343   */\n      dup3\n        /* \"#utility.yul\":10330:10348   */\n      add\n        /* \"#utility.yul\":10322:10348   */\n      swap1\n      pop\n        /* \"#utility.yul\":10358:10429   */\n      tag_730\n        /* \"#utility.yul\":10426:10427   */\n      0x00\n        /* \"#utility.yul\":10415:10424   */\n      dup4\n        /* \"#utility.yul\":10411:10428   */\n      add\n        /* \"#utility.yul\":10402:10408   */\n      dup5\n        /* \"#utility.yul\":10358:10429   */\n      tag_628\n      jump\t// in\n    tag_730:\n        /* \"#utility.yul\":10214:10436   */\n      swap3\n      swap2\n      pop\n      pop\n      jump\t// out\n        /* \"#utility.yul\":10442:10774   */\n    tag_241:\n        /* \"#utility.yul\":10563:10567   */\n      0x00\n        /* \"#utility.yul\":10601:10603   */\n      0x40\n        /* \"#utility.yul\":10590:10599   */\n      dup3\n        /* \"#utility.yul\":10586:10604   */\n      add\n        /* \"#utility.yul\":10578:10604   */\n      swap1\n      pop\n        /* \"#utility.yul\":10614:10685   */\n      tag_732\n        /* \"#utility.yul\":10682:10683   */\n      0x00\n        /* \"#utility.yul\":10671:10680   */\n      dup4\n        /* \"#utility.yul\":10667:10684   */\n      add\n        /* \"#utility.yul\":10658:10664   */\n      dup6\n        /* \"#utility.yul\":10614:10685   */\n      tag_628\n      jump\t// in\n    tag_732:\n        /* \"#utility.yul\":10695:10767   */\n      tag_733\n        /* \"#utility.yul\":10763:10765   */\n      0x20\n        /* \"#utility.yul\":10752:10761   */\n      dup4\n        /* \"#utility.yul\":10748:10766   */\n      add\n        /* \"#utility.yul\":10739:10745   */\n      dup5\n        /* \"#utility.yul\":10695:10767   */\n      tag_628\n      jump\t// in\n    tag_733:\n        /* \"#utility.yul\":10442:10774   */\n      swap4\n      swap3\n      pop\n      pop\n      pop\n      jump\t// out\n        /* \"#utility.yul\":10780:11278   */\n    tag_502:\n        /* \"#utility.yul\":10957:10961   */\n      0x00\n        /* \"#utility.yul\":10995:10997   */\n      0x60\n        /* \"#utility.yul\":10984:10993   */\n      dup3\n        /* \"#utility.yul\":10980:10998   */\n      add\n        /* \"#utility.yul\":10972:10998   */\n      swap1\n      pop\n        /* \"#utility.yul\":11008:11079   */\n      tag_735\n        /* \"#utility.yul\":11076:11077   */\n      0x00\n        /* \"#utility.yul\":11065:11074   */\n      dup4\n        /* \"#utility.yul\":11061:11078   */\n      add\n        /* \"#utility.yul\":11052:11058   */\n      dup7\n        /* \"#utility.yul\":11008:11079   */\n      tag_628\n      jump\t// in\n    tag_735:\n        /* \"#utility.yul\":11089:11161   */\n      tag_736\n        /* \"#utility.yul\":11157:11159   */\n      0x20\n        /* \"#utility.yul\":11146:11155   */\n      dup4\n        /* \"#utility.yul\":11142:11160   */\n      add\n        /* \"#utility.yul\":11133:11139   */\n      dup6\n        /* \"#utility.yul\":11089:11161   */\n      tag_628\n      jump\t// in\n    tag_736:\n        /* \"#utility.yul\":11171:11271   */\n      tag_737\n        /* \"#utility.yul\":11267:11269   */\n      0x40\n        /* \"#utility.yul\":11256:11265   */\n      dup4\n        /* \"#utility.yul\":11252:11270   */\n      add\n        /* \"#utility.yul\":11243:11249   */\n      dup5\n        /* \"#utility.yul\":11171:11271   */\n      tag_663\n      jump\t// in\n    tag_737:\n        /* \"#utility.yul\":10780:11278   */\n      swap5\n      swap4\n      pop\n      pop\n      pop\n      pop\n      jump\t// out\n        /* \"#utility.yul\":11284:11726   */\n    tag_257:\n        /* \"#utility.yul\":11433:11437   */\n      0x00\n        /* \"#utility.yul\":11471:11473   */\n      0x60\n        /* \"#utility.yul\":11460:11469   */\n      dup3\n        /* \"#utility.yul\":11456:11474   */\n      add\n        /* \"#utility.yul\":11448:11474   */\n      swap1\n      pop\n        /* \"#utility.yul\":11484:11555   */\n      tag_739\n        /* \"#utility.yul\":11552:11553   */\n      0x00\n        /* \"#utility.yul\":11541:11550   */\n      dup4\n        /* \"#utility.yul\":11537:11554   */\n      add\n        /* \"#utility.yul\":11528:11534   */\n      dup7\n        /* \"#utility.yul\":11484:11555   */\n      tag_628\n      jump\t// in\n    tag_739:\n        /* \"#utility.yul\":11565:11637   */\n      tag_740\n        /* \"#utility.yul\":11633:11635   */\n      0x20\n        /* \"#utility.yul\":11622:11631   */\n      dup4\n        /* \"#utility.yul\":11618:11636   */\n      add\n        /* \"#utility.yul\":11609:11615   */\n      dup6\n        /* \"#utility.yul\":11565:11637   */\n      tag_628\n      jump\t// in\n    tag_740:\n        /* \"#utility.yul\":11647:11719   */\n      tag_741\n        /* \"#utility.yul\":11715:11717   */\n      0x40\n        /* \"#utility.yul\":11704:11713   */\n      dup4\n        /* \"#utility.yul\":11700:11718   */\n      add\n        /* \"#utility.yul\":11691:11697   */\n      dup5\n        /* \"#utility.yul\":11647:11719   */\n      tag_726\n      jump\t// in\n    tag_741:\n        /* \"#utility.yul\":11284:11726   */\n      swap5\n      swap4\n      pop\n      pop\n      pop\n      pop\n      jump\t// out\n        /* \"#utility.yul\":11732:12064   */\n    tag_262:\n        /* \"#utility.yul\":11853:11857   */\n      0x00\n        /* \"#utility.yul\":11891:11893   */\n      0x40\n        /* \"#utility.yul\":11880:11889   */\n      dup3\n        /* \"#utility.yul\":11876:11894   */\n      add\n        /* \"#utility.yul\":11868:11894   */\n      swap1\n      pop\n        /* \"#utility.yul\":11904:11975   */\n      tag_743\n        /* \"#utility.yul\":11972:11973   */\n      0x00\n        /* \"#utility.yul\":11961:11970   */\n      dup4\n        /* \"#utility.yul\":11957:11974   */\n      add\n        /* \"#utility.yul\":11948:11954   */\n      dup6\n        /* \"#utility.yul\":11904:11975   */\n      tag_628\n      jump\t// in\n    tag_743:\n        /* \"#utility.yul\":11985:12057   */\n      tag_744\n        /* \"#utility.yul\":12053:12055   */\n      0x20\n        /* \"#utility.yul\":12042:12051   */\n      dup4\n        /* \"#utility.yul\":12038:12056   */\n      add\n        /* \"#utility.yul\":12029:12035   */\n      dup5\n        /* \"#utility.yul\":11985:12057   */\n      tag_726\n      jump\t// in\n    tag_744:\n        /* \"#utility.yul\":11732:12064   */\n      swap4\n      swap3\n      pop\n      pop\n      pop\n      jump\t// out\n        /* \"#utility.yul\":12070:12965   */\n    tag_133:\n        /* \"#utility.yul\":12369:12373   */\n      0x00\n        /* \"#utility.yul\":12407:12409   */\n      0x60\n        /* \"#utility.yul\":12396:12405   */\n      dup3\n        /* \"#utility.yul\":12392:12410   */\n      add\n        /* \"#utility.yul\":12384:12410   */\n      swap1\n      pop\n        /* \"#utility.yul\":12456:12465   */\n      dup2\n        /* \"#utility.yul\":12450:12454   */\n      dup2\n        /* \"#utility.yul\":12446:12466   */\n      sub\n        /* \"#utility.yul\":12442:12443   */\n      0x00\n        /* \"#utility.yul\":12431:12440   */\n      dup4\n        /* \"#utility.yul\":12427:12444   */\n      add\n        /* \"#utility.yul\":12420:12467   */\n      mstore\n        /* \"#utility.yul\":12484:12592   */\n      tag_746\n        /* \"#utility.yul\":12587:12591   */\n      dup2\n        /* \"#utility.yul\":12578:12584   */\n      dup7\n        /* \"#utility.yul\":12484:12592   */\n      tag_645\n      jump\t// in\n    tag_746:\n        /* \"#utility.yul\":12476:12592   */\n      swap1\n      pop\n        /* \"#utility.yul\":12639:12648   */\n      dup2\n        /* \"#utility.yul\":12633:12637   */\n      dup2\n        /* \"#utility.yul\":12629:12649   */\n      sub\n        /* \"#utility.yul\":12624:12626   */\n      0x20\n        /* \"#utility.yul\":12613:12622   */\n      dup4\n        /* \"#utility.yul\":12609:12627   */\n      add\n        /* \"#utility.yul\":12602:12650   */\n      mstore\n        /* \"#utility.yul\":12667:12775   */\n      tag_747\n        /* \"#utility.yul\":12770:12774   */\n      dup2\n        /* \"#utility.yul\":12761:12767   */\n      dup6\n        /* \"#utility.yul\":12667:12775   */\n      tag_631\n      jump\t// in\n    tag_747:\n        /* \"#utility.yul\":12659:12775   */\n      swap1\n      pop\n        /* \"#utility.yul\":12822:12831   */\n      dup2\n        /* \"#utility.yul\":12816:12820   */\n      dup2\n        /* \"#utility.yul\":12812:12832   */\n      sub\n        /* \"#utility.yul\":12807:12809   */\n      0x40\n        /* \"#utility.yul\":12796:12805   */\n      dup4\n        /* \"#utility.yul\":12792:12810   */\n      add\n        /* \"#utility.yul\":12785:12833   */\n      mstore\n        /* \"#utility.yul\":12850:12958   */\n      tag_748\n        /* \"#utility.yul\":12953:12957   */\n      dup2\n        /* \"#utility.yul\":12944:12950   */\n      dup5\n        /* \"#utility.yul\":12850:12958   */\n      tag_645\n      jump\t// in\n    tag_748:\n        /* \"#utility.yul\":12842:12958   */\n      swap1\n      pop\n        /* \"#utility.yul\":12070:12965   */\n      swap5\n      swap4\n      pop\n      pop\n      pop\n      pop\n      jump\t// out\n        /* \"#utility.yul\":12971:13181   */\n    tag_68:\n        /* \"#utility.yul\":13058:13062   */\n      0x00\n        /* \"#utility.yul\":13096:13098   */\n      0x20\n        /* \"#utility.yul\":13085:13094   */\n      dup3\n        /* \"#utility.yul\":13081:13099   */\n      add\n        /* \"#utility.yul\":13073:13099   */\n      swap1\n      pop\n        /* \"#utility.yul\":13109:13174   */\n      tag_750\n        /* \"#utility.yul\":13171:13172   */\n      0x00\n        /* \"#utility.yul\":13160:13169   */\n      dup4\n        /* \"#utility.yul\":13156:13173   */\n      add\n        /* \"#utility.yul\":13147:13153   */\n      dup5\n        /* \"#utility.yul\":13109:13174   */\n      tag_659\n      jump\t// in\n    tag_750:\n        /* \"#utility.yul\":12971:13181   */\n      swap3\n      swap2\n      pop\n      pop\n      jump\t// out\n        /* \"#utility.yul\":13187:13606   */\n    tag_232:\n        /* \"#utility.yul\":13353:13357   */\n      0x00\n        /* \"#utility.yul\":13391:13393   */\n      0x20\n        /* \"#utility.yul\":13380:13389   */\n      dup3\n        /* \"#utility.yul\":13376:13394   */\n      add\n        /* \"#utility.yul\":13368:13394   */\n      swap1\n      pop\n        /* \"#utility.yul\":13440:13449   */\n      dup2\n        /* \"#utility.yul\":13434:13438   */\n      dup2\n        /* \"#utility.yul\":13430:13450   */\n      sub\n        /* \"#utility.yul\":13426:13427   */\n      0x00\n        /* \"#utility.yul\":13415:13424   */\n      dup4\n        /* \"#utility.yul\":13411:13428   */\n      add\n        /* \"#utility.yul\":13404:13451   */\n      mstore\n        /* \"#utility.yul\":13468:13599   */\n      tag_752\n        /* \"#utility.yul\":13594:13598   */\n      dup2\n        /* \"#utility.yul\":13468:13599   */\n      tag_667\n      jump\t// in\n    tag_752:\n        /* \"#utility.yul\":13460:13599   */\n      swap1\n      pop\n        /* \"#utility.yul\":13187:13606   */\n      swap2\n      swap1\n      pop\n      jump\t// out\n        /* \"#utility.yul\":13612:14031   */\n    tag_343:\n        /* \"#utility.yul\":13778:13782   */\n      0x00\n        /* \"#utility.yul\":13816:13818   */\n      0x20\n        /* \"#utility.yul\":13805:13814   */\n      dup3\n        /* \"#utility.yul\":13801:13819   */\n      add\n        /* \"#utility.yul\":13793:13819   */\n      swap1\n      pop\n        /* \"#utility.yul\":13865:13874   */\n      dup2\n        /* \"#utility.yul\":13859:13863   */\n      dup2\n        /* \"#utility.yul\":13855:13875   */\n      sub\n        /* \"#utility.yul\":13851:13852   */\n      0x00\n        /* \"#utility.yul\":13840:13849   */\n      dup4\n        /* \"#utility.yul\":13836:13853   */\n      add\n        /* \"#utility.yul\":13829:13876   */\n      mstore\n        /* \"#utility.yul\":13893:14024   */\n      tag_754\n        /* \"#utility.yul\":14019:14023   */\n      dup2\n        /* \"#utility.yul\":13893:14024   */\n      tag_673\n      jump\t// in\n    tag_754:\n        /* \"#utility.yul\":13885:14024   */\n      swap1\n      pop\n        /* \"#utility.yul\":13612:14031   */\n      swap2\n      swap1\n      pop\n      jump\t// out\n        /* \"#utility.yul\":14037:14456   */\n    tag_566:\n        /* \"#utility.yul\":14203:14207   */\n      0x00\n        /* \"#utility.yul\":14241:14243   */\n      0x20\n        /* \"#utility.yul\":14230:14239   */\n      dup3\n        /* \"#utility.yul\":14226:14244   */\n      add\n        /* \"#utility.yul\":14218:14244   */\n      swap1\n      pop\n        /* \"#utility.yul\":14290:14299   */\n      dup2\n        /* \"#utility.yul\":14284:14288   */\n      dup2\n        /* \"#utility.yul\":14280:14300   */\n      sub\n        /* \"#utility.yul\":14276:14277   */\n      0x00\n        /* \"#utility.yul\":14265:14274   */\n      dup4\n        /* \"#utility.yul\":14261:14278   */\n      add\n        /* \"#utility.yul\":14254:14301   */\n      mstore\n        /* \"#utility.yul\":14318:14449   */\n      tag_756\n        /* \"#utility.yul\":14444:14448   */\n      dup2\n        /* \"#utility.yul\":14318:14449   */\n      tag_678\n      jump\t// in\n    tag_756:\n        /* \"#utility.yul\":14310:14449   */\n      swap1\n      pop\n        /* \"#utility.yul\":14037:14456   */\n      swap2\n      swap1\n      pop\n      jump\t// out\n        /* \"#utility.yul\":14462:14881   */\n    tag_385:\n        /* \"#utility.yul\":14628:14632   */\n      0x00\n        /* \"#utility.yul\":14666:14668   */\n      0x20\n        /* \"#utility.yul\":14655:14664   */\n      dup3\n        /* \"#utility.yul\":14651:14669   */\n      add\n        /* \"#utility.yul\":14643:14669   */\n      swap1\n      pop\n        /* \"#utility.yul\":14715:14724   */\n      dup2\n        /* \"#utility.yul\":14709:14713   */\n      dup2\n        /* \"#utility.yul\":14705:14725   */\n      sub\n        /* \"#utility.yul\":14701:14702   */\n      0x00\n        /* \"#utility.yul\":14690:14699   */\n      dup4\n        /* \"#utility.yul\":14686:14703   */\n      add\n        /* \"#utility.yul\":14679:14726   */\n      mstore\n        /* \"#utility.yul\":14743:14874   */\n      tag_758\n        /* \"#utility.yul\":14869:14873   */\n      dup2\n        /* \"#utility.yul\":14743:14874   */\n      tag_683\n      jump\t// in\n    tag_758:\n        /* \"#utility.yul\":14735:14874   */\n      swap1\n      pop\n        /* \"#utility.yul\":14462:14881   */\n      swap2\n      swap1\n      pop\n      jump\t// out\n        /* \"#utility.yul\":14887:15306   */\n    tag_255:\n        /* \"#utility.yul\":15053:15057   */\n      0x00\n        /* \"#utility.yul\":15091:15093   */\n      0x20\n        /* \"#utility.yul\":15080:15089   */\n      dup3\n        /* \"#utility.yul\":15076:15094   */\n      add\n        /* \"#utility.yul\":15068:15094   */\n      swap1\n      pop\n        /* \"#utility.yul\":15140:15149   */\n      dup2\n        /* \"#utility.yul\":15134:15138   */\n      dup2\n        /* \"#utility.yul\":15130:15150   */\n      sub\n        /* \"#utility.yul\":15126:15127   */\n      0x00\n        /* \"#utility.yul\":15115:15124   */\n      dup4\n        /* \"#utility.yul\":15111:15128   */\n      add\n        /* \"#utility.yul\":15104:15151   */\n      mstore\n        /* \"#utility.yul\":15168:15299   */\n      tag_760\n        /* \"#utility.yul\":15294:15298   */\n      dup2\n        /* \"#utility.yul\":15168:15299   */\n      tag_688\n      jump\t// in\n    tag_760:\n        /* \"#utility.yul\":15160:15299   */\n      swap1\n      pop\n        /* \"#utility.yul\":14887:15306   */\n      swap2\n      swap1\n      pop\n      jump\t// out\n        /* \"#utility.yul\":15312:15731   */\n    tag_360:\n        /* \"#utility.yul\":15478:15482   */\n      0x00\n        /* \"#utility.yul\":15516:15518   */\n      0x20\n        /* \"#utility.yul\":15505:15514   */\n      dup3\n        /* \"#utility.yul\":15501:15519   */\n      add\n        /* \"#utility.yul\":15493:15519   */\n      swap1\n      pop\n        /* \"#utility.yul\":15565:15574   */\n      dup2\n        /* \"#utility.yul\":15559:15563   */\n      dup2\n        /* \"#utility.yul\":15555:15575   */\n      sub\n        /* \"#utility.yul\":15551:15552   */\n      0x00\n        /* \"#utility.yul\":15540:15549   */\n      dup4\n        /* \"#utility.yul\":15536:15553   */\n      add\n        /* \"#utility.yul\":15529:15576   */\n      mstore\n        /* \"#utility.yul\":15593:15724   */\n      tag_762\n        /* \"#utility.yul\":15719:15723   */\n      dup2\n        /* \"#utility.yul\":15593:15724   */\n      tag_693\n      jump\t// in\n    tag_762:\n        /* \"#utility.yul\":15585:15724   */\n      swap1\n      pop\n        /* \"#utility.yul\":15312:15731   */\n      swap2\n      swap1\n      pop\n      jump\t// out\n        /* \"#utility.yul\":15737:16156   */\n    tag_249:\n        /* \"#utility.yul\":15903:15907   */\n      0x00\n        /* \"#utility.yul\":15941:15943   */\n      0x20\n        /* \"#utility.yul\":15930:15939   */\n      dup3\n        /* \"#utility.yul\":15926:15944   */\n      add\n        /* \"#utility.yul\":15918:15944   */\n      swap1\n      pop\n        /* \"#utility.yul\":15990:15999   */\n      dup2\n        /* \"#utility.yul\":15984:15988   */\n      dup2\n        /* \"#utility.yul\":15980:16000   */\n      sub\n        /* \"#utility.yul\":15976:15977   */\n      0x00\n        /* \"#utility.yul\":15965:15974   */\n      dup4\n        /* \"#utility.yul\":15961:15978   */\n      add\n        /* \"#utility.yul\":15954:16001   */\n      mstore\n        /* \"#utility.yul\":16018:16149   */\n      tag_764\n        /* \"#utility.yul\":16144:16148   */\n      dup2\n        /* \"#utility.yul\":16018:16149   */\n      tag_698\n      jump\t// in\n    tag_764:\n        /* \"#utility.yul\":16010:16149   */\n      swap1\n      pop\n        /* \"#utility.yul\":15737:16156   */\n      swap2\n      swap1\n      pop\n      jump\t// out\n        /* \"#utility.yul\":16162:16581   */\n    tag_252:\n        /* \"#utility.yul\":16328:16332   */\n      0x00\n        /* \"#utility.yul\":16366:16368   */\n      0x20\n        /* \"#utility.yul\":16355:16364   */\n      dup3\n        /* \"#utility.yul\":16351:16369   */\n      add\n        /* \"#utility.yul\":16343:16369   */\n      swap1\n      pop\n        /* \"#utility.yul\":16415:16424   */\n      dup2\n        /* \"#utility.yul\":16409:16413   */\n      dup2\n        /* \"#utility.yul\":16405:16425   */\n      sub\n        /* \"#utility.yul\":16401:16402   */\n      0x00\n        /* \"#utility.yul\":16390:16399   */\n      dup4\n        /* \"#utility.yul\":16386:16403   */\n      add\n        /* \"#utility.yul\":16379:16426   */\n      mstore\n        /* \"#utility.yul\":16443:16574   */\n      tag_766\n        /* \"#utility.yul\":16569:16573   */\n      dup2\n        /* \"#utility.yul\":16443:16574   */\n      tag_703\n      jump\t// in\n    tag_766:\n        /* \"#utility.yul\":16435:16574   */\n      swap1\n      pop\n        /* \"#utility.yul\":16162:16581   */\n      swap2\n      swap1\n      pop\n      jump\t// out\n        /* \"#utility.yul\":16587:17006   */\n    tag_189:\n        /* \"#utility.yul\":16753:16757   */\n      0x00\n        /* \"#utility.yul\":16791:16793   */\n      0x20\n        /* \"#utility.yul\":16780:16789   */\n      dup3\n        /* \"#utility.yul\":16776:16794   */\n      add\n        /* \"#utility.yul\":16768:16794   */\n      swap1\n      pop\n        /* \"#utility.yul\":16840:16849   */\n      dup2\n        /* \"#utility.yul\":16834:16838   */\n      dup2\n        /* \"#utility.yul\":16830:16850   */\n      sub\n        /* \"#utility.yul\":16826:16827   */\n      0x00\n        /* \"#utility.yul\":16815:16824   */\n      dup4\n        /* \"#utility.yul\":16811:16828   */\n      add\n        /* \"#utility.yul\":16804:16851   */\n      mstore\n        /* \"#utility.yul\":16868:16999   */\n      tag_768\n        /* \"#utility.yul\":16994:16998   */\n      dup2\n        /* \"#utility.yul\":16868:16999   */\n      tag_708\n      jump\t// in\n    tag_768:\n        /* \"#utility.yul\":16860:16999   */\n      swap1\n      pop\n        /* \"#utility.yul\":16587:17006   */\n      swap2\n      swap1\n      pop\n      jump\t// out\n        /* \"#utility.yul\":17012:17431   */\n    tag_223:\n        /* \"#utility.yul\":17178:17182   */\n      0x00\n        /* \"#utility.yul\":17216:17218   */\n      0x20\n        /* \"#utility.yul\":17205:17214   */\n      dup3\n        /* \"#utility.yul\":17201:17219   */\n      add\n        /* \"#utility.yul\":17193:17219   */\n      swap1\n      pop\n        /* \"#utility.yul\":17265:17274   */\n      dup2\n        /* \"#utility.yul\":17259:17263   */\n      dup2\n        /* \"#utility.yul\":17255:17275   */\n      sub\n        /* \"#utility.yul\":17251:17252   */\n      0x00\n        /* \"#utility.yul\":17240:17249   */\n      dup4\n        /* \"#utility.yul\":17236:17253   */\n      add\n        /* \"#utility.yul\":17229:17276   */\n      mstore\n        /* \"#utility.yul\":17293:17424   */\n      tag_770\n        /* \"#utility.yul\":17419:17423   */\n      dup2\n        /* \"#utility.yul\":17293:17424   */\n      tag_713\n      jump\t// in\n    tag_770:\n        /* \"#utility.yul\":17285:17424   */\n      swap1\n      pop\n        /* \"#utility.yul\":17012:17431   */\n      swap2\n      swap1\n      pop\n      jump\t// out\n        /* \"#utility.yul\":17437:17856   */\n    tag_298:\n        /* \"#utility.yul\":17603:17607   */\n      0x00\n        /* \"#utility.yul\":17641:17643   */\n      0x20\n        /* \"#utility.yul\":17630:17639   */\n      dup3\n        /* \"#utility.yul\":17626:17644   */\n      add\n        /* \"#utility.yul\":17618:17644   */\n      swap1\n      pop\n        /* \"#utility.yul\":17690:17699   */\n      dup2\n        /* \"#utility.yul\":17684:17688   */\n      dup2\n        /* \"#utility.yul\":17680:17700   */\n      sub\n        /* \"#utility.yul\":17676:17677   */\n      0x00\n        /* \"#utility.yul\":17665:17674   */\n      dup4\n        /* \"#utility.yul\":17661:17678   */\n      add\n        /* \"#utility.yul\":17654:17701   */\n      mstore\n        /* \"#utility.yul\":17718:17849   */\n      tag_772\n        /* \"#utility.yul\":17844:17848   */\n      dup2\n        /* \"#utility.yul\":17718:17849   */\n      tag_718\n      jump\t// in\n    tag_772:\n        /* \"#utility.yul\":17710:17849   */\n      swap1\n      pop\n        /* \"#utility.yul\":17437:17856   */\n      swap2\n      swap1\n      pop\n      jump\t// out\n        /* \"#utility.yul\":17862:18084   */\n    tag_78:\n        /* \"#utility.yul\":17955:17959   */\n      0x00\n        /* \"#utility.yul\":17993:17995   */\n      0x20\n        /* \"#utility.yul\":17982:17991   */\n      dup3\n        /* \"#utility.yul\":17978:17996   */\n      add\n        /* \"#utility.yul\":17970:17996   */\n      swap1\n      pop\n        /* \"#utility.yul\":18006:18077   */\n      tag_774\n        /* \"#utility.yul\":18074:18075   */\n      0x00\n        /* \"#utility.yul\":18063:18072   */\n      dup4\n        /* \"#utility.yul\":18059:18076   */\n      add\n        /* \"#utility.yul\":18050:18056   */\n      dup5\n        /* \"#utility.yul\":18006:18077   */\n      tag_726\n      jump\t// in\n    tag_774:\n        /* \"#utility.yul\":17862:18084   */\n      swap3\n      swap2\n      pop\n      pop\n      jump\t// out\n        /* \"#utility.yul\":18090:18422   */\n    tag_364:\n        /* \"#utility.yul\":18211:18215   */\n      0x00\n        /* \"#utility.yul\":18249:18251   */\n      0x40\n        /* \"#utility.yul\":18238:18247   */\n      dup3\n        /* \"#utility.yul\":18234:18252   */\n      add\n        /* \"#utility.yul\":18226:18252   */\n      swap1\n      pop\n        /* \"#utility.yul\":18262:18333   */\n      tag_776\n        /* \"#utility.yul\":18330:18331   */\n      0x00\n        /* \"#utility.yul\":18319:18328   */\n      dup4\n        /* \"#utility.yul\":18315:18332   */\n      add\n        /* \"#utility.yul\":18306:18312   */\n      dup6\n        /* \"#utility.yul\":18262:18333   */\n      tag_726\n      jump\t// in\n    tag_776:\n        /* \"#utility.yul\":18343:18415   */\n      tag_777\n        /* \"#utility.yul\":18411:18413   */\n      0x20\n        /* \"#utility.yul\":18400:18409   */\n      dup4\n        /* \"#utility.yul\":18396:18414   */\n      add\n        /* \"#utility.yul\":18387:18393   */\n      dup5\n        /* \"#utility.yul\":18343:18415   */\n      tag_726\n      jump\t// in\n    tag_777:\n        /* \"#utility.yul\":18090:18422   */\n      swap4\n      swap3\n      pop\n      pop\n      pop\n      jump\t// out\n        /* \"#utility.yul\":18509:18641   */\n    tag_638:\n        /* \"#utility.yul\":18576:18580   */\n      0x00\n        /* \"#utility.yul\":18599:18602   */\n      dup2\n        /* \"#utility.yul\":18591:18602   */\n      swap1\n      pop\n        /* \"#utility.yul\":18629:18633   */\n      0x20\n        /* \"#utility.yul\":18624:18627   */\n      dup3\n        /* \"#utility.yul\":18620:18634   */\n      add\n        /* \"#utility.yul\":18612:18634   */\n      swap1\n      pop\n        /* \"#utility.yul\":18509:18641   */\n      swap2\n      swap1\n      pop\n      jump\t// out\n        /* \"#utility.yul\":18647:18779   */\n    tag_652:\n        /* \"#utility.yul\":18714:18718   */\n      0x00\n        /* \"#utility.yul\":18737:18740   */\n      dup2\n        /* \"#utility.yul\":18729:18740   */\n      swap1\n      pop\n        /* \"#utility.yul\":18767:18771   */\n      0x20\n        /* \"#utility.yul\":18762:18765   */\n      dup3\n        /* \"#utility.yul\":18758:18772   */\n      add\n        /* \"#utility.yul\":18750:18772   */\n      swap1\n      pop\n        /* \"#utility.yul\":18647:18779   */\n      swap2\n      swap1\n      pop\n      jump\t// out\n        /* \"#utility.yul\":18785:18899   */\n    tag_634:\n        /* \"#utility.yul\":18852:18858   */\n      0x00\n        /* \"#utility.yul\":18886:18891   */\n      dup2\n        /* \"#utility.yul\":18880:18892   */\n      mload\n        /* \"#utility.yul\":18870:18892   */\n      swap1\n      pop\n        /* \"#utility.yul\":18785:18899   */\n      swap2\n      swap1\n      pop\n      jump\t// out\n        /* \"#utility.yul\":18905:19019   */\n    tag_648:\n        /* \"#utility.yul\":18972:18978   */\n      0x00\n        /* \"#utility.yul\":19006:19011   */\n      dup2\n        /* \"#utility.yul\":19000:19012   */\n      mload\n        /* \"#utility.yul\":18990:19012   */\n      swap1\n      pop\n        /* \"#utility.yul\":18905:19019   */\n      swap2\n      swap1\n      pop\n      jump\t// out\n        /* \"#utility.yul\":19025:19138   */\n    tag_644:\n        /* \"#utility.yul\":19095:19099   */\n      0x00\n        /* \"#utility.yul\":19127:19131   */\n      0x20\n        /* \"#utility.yul\":19122:19125   */\n      dup3\n        /* \"#utility.yul\":19118:19132   */\n      add\n        /* \"#utility.yul\":19110:19132   */\n      swap1\n      pop\n        /* \"#utility.yul\":19025:19138   */\n      swap2\n      swap1\n      pop\n      jump\t// out\n        /* \"#utility.yul\":19144:19257   */\n    tag_658:\n        /* \"#utility.yul\":19214:19218   */\n      0x00\n        /* \"#utility.yul\":19246:19250   */\n      0x20\n        /* \"#utility.yul\":19241:19244   */\n      dup3\n        /* \"#utility.yul\":19237:19251   */\n      add\n        /* \"#utility.yul\":19229:19251   */\n      swap1\n      pop\n        /* \"#utility.yul\":19144:19257   */\n      swap2\n      swap1\n      pop\n      jump\t// out\n        /* \"#utility.yul\":19263:19447   */\n    tag_636:\n        /* \"#utility.yul\":19362:19373   */\n      0x00\n        /* \"#utility.yul\":19396:19402   */\n      dup3\n        /* \"#utility.yul\":19391:19394   */\n      dup3\n        /* \"#utility.yul\":19384:19403   */\n      mstore\n        /* \"#utility.yul\":19436:19440   */\n      0x20\n        /* \"#utility.yul\":19431:19434   */\n      dup3\n        /* \"#utility.yul\":19427:19441   */\n      add\n        /* \"#utility.yul\":19412:19441   */\n      swap1\n      pop\n        /* \"#utility.yul\":19263:19447   */\n      swap3\n      swap2\n      pop\n      pop\n      jump\t// out\n        /* \"#utility.yul\":19453:19637   */\n    tag_650:\n        /* \"#utility.yul\":19552:19563   */\n      0x00\n        /* \"#utility.yul\":19586:19592   */\n      dup3\n        /* \"#utility.yul\":19581:19584   */\n      dup3\n        /* \"#utility.yul\":19574:19593   */\n      mstore\n        /* \"#utility.yul\":19626:19630   */\n      0x20\n        /* \"#utility.yul\":19621:19624   */\n      dup3\n        /* \"#utility.yul\":19617:19631   */\n      add\n        /* \"#utility.yul\":19602:19631   */\n      swap1\n      pop\n        /* \"#utility.yul\":19453:19637   */\n      swap3\n      swap2\n      pop\n      pop\n      jump\t// out\n        /* \"#utility.yul\":19643:19812   */\n    tag_670:\n        /* \"#utility.yul\":19727:19738   */\n      0x00\n        /* \"#utility.yul\":19761:19767   */\n      dup3\n        /* \"#utility.yul\":19756:19759   */\n      dup3\n        /* \"#utility.yul\":19749:19768   */\n      mstore\n        /* \"#utility.yul\":19801:19805   */\n      0x20\n        /* \"#utility.yul\":19796:19799   */\n      dup3\n        /* \"#utility.yul\":19792:19806   */\n      add\n        /* \"#utility.yul\":19777:19806   */\n      swap1\n      pop\n        /* \"#utility.yul\":19643:19812   */\n      swap3\n      swap2\n      pop\n      pop\n      jump\t// out\n        /* \"#utility.yul\":19818:20123   */\n    tag_520:\n        /* \"#utility.yul\":19858:19861   */\n      0x00\n        /* \"#utility.yul\":19877:19897   */\n      tag_790\n        /* \"#utility.yul\":19895:19896   */\n      dup3\n        /* \"#utility.yul\":19877:19897   */\n      tag_725\n      jump\t// in\n    tag_790:\n        /* \"#utility.yul\":19872:19897   */\n      swap2\n      pop\n        /* \"#utility.yul\":19911:19931   */\n      tag_791\n        /* \"#utility.yul\":19929:19930   */\n      dup4\n        /* \"#utility.yul\":19911:19931   */\n      tag_725\n      jump\t// in\n    tag_791:\n        /* \"#utility.yul\":19906:19931   */\n      swap3\n      pop\n        /* \"#utility.yul\":20065:20066   */\n      dup3\n        /* \"#utility.yul\":19997:20063   */\n      0xffffffffffffffffffffffffffffffffffffffffffffffffffffffffffffffff\n        /* \"#utility.yul\":19993:20067   */\n      sub\n        /* \"#utility.yul\":19990:19991   */\n      dup3\n        /* \"#utility.yul\":19987:20068   */\n      gt\n        /* \"#utility.yul\":19984:20091   */\n      iszero\n      tag_792\n      jumpi\n        /* \"#utility.yul\":20071:20089   */\n      tag_793\n      tag_794\n      jump\t// in\n    tag_793:\n        /* \"#utility.yul\":19984:20091   */\n    tag_792:\n        /* \"#utility.yul\":20115:20116   */\n      dup3\n        /* \"#utility.yul\":20112:20113   */\n      dup3\n        /* \"#utility.yul\":20108:20117   */\n      add\n        /* \"#utility.yul\":20101:20117   */\n      swap1\n      pop\n        /* \"#utility.yul\":19818:20123   */\n      swap3\n      swap2\n      pop\n      pop\n      jump\t// out\n        /* \"#utility.yul\":20129:20314   */\n    tag_312:\n        /* \"#utility.yul\":20169:20170   */\n      0x00\n        /* \"#utility.yul\":20186:20206   */\n      tag_796\n        /* \"#utility.yul\":20204:20205   */\n      dup3\n        /* \"#utility.yul\":20186:20206   */\n      tag_725\n      jump\t// in\n    tag_796:\n        /* \"#utility.yul\":20181:20206   */\n      swap2\n      pop\n        /* \"#utility.yul\":20220:20240   */\n      tag_797\n        /* \"#utility.yul\":20238:20239   */\n      dup4\n        /* \"#utility.yul\":20220:20240   */\n      tag_725\n      jump\t// in\n    tag_797:\n        /* \"#utility.yul\":20215:20240   */\n      swap3\n      pop\n        /* \"#utility.yul\":20259:20260   */\n      dup3\n        /* \"#utility.yul\":20249:20284   */\n      tag_798\n      jumpi\n        /* \"#utility.yul\":20264:20282   */\n      tag_799\n      tag_800\n      jump\t// in\n    tag_799:\n        /* \"#utility.yul\":20249:20284   */\n    tag_798:\n        /* \"#utility.yul\":20306:20307   */\n      dup3\n        /* \"#utility.yul\":20303:20304   */\n      dup3\n        /* \"#utility.yul\":20299:20308   */\n      div\n        /* \"#utility.yul\":20294:20308   */\n      swap1\n      pop\n        /* \"#utility.yul\":20129:20314   */\n      swap3\n      swap2\n      pop\n      pop\n      jump\t// out\n        /* \"#utility.yul\":20320:20668   */\n    tag_290:\n        /* \"#utility.yul\":20360:20367   */\n      0x00\n        /* \"#utility.yul\":20383:20403   */\n      tag_802\n        /* \"#utility.yul\":20401:20402   */\n      dup3\n        /* \"#utility.yul\":20383:20403   */\n      tag_725\n      jump\t// in\n    tag_802:\n        /* \"#utility.yul\":20378:20403   */\n      swap2\n      pop\n        /* \"#utility.yul\":20417:20437   */\n      tag_803\n        /* \"#utility.yul\":20435:20436   */\n      dup4\n        /* \"#utility.yul\":20417:20437   */\n      tag_725\n      jump\t// in\n    tag_803:\n        /* \"#utility.yul\":20412:20437   */\n      swap3\n      pop\n        /* \"#utility.yul\":20605:20606   */\n      dup2\n        /* \"#utility.yul\":20537:20603   */\n      0xffffffffffffffffffffffffffffffffffffffffffffffffffffffffffffffff\n        /* \"#utility.yul\":20533:20607   */\n      div\n        /* \"#utility.yul\":20530:20531   */\n      dup4\n        /* \"#utility.yul\":20527:20608   */\n      gt\n        /* \"#utility.yul\":20522:20523   */\n      dup3\n        /* \"#utility.yul\":20515:20524   */\n      iszero\n        /* \"#utility.yul\":20508:20525   */\n      iszero\n        /* \"#utility.yul\":20504:20609   */\n      and\n        /* \"#utility.yul\":20501:20632   */\n      iszero\n      tag_804\n      jumpi\n        /* \"#utility.yul\":20612:20630   */\n      tag_805\n      tag_794\n      jump\t// in\n    tag_805:\n        /* \"#utility.yul\":20501:20632   */\n    tag_804:\n        /* \"#utility.yul\":20660:20661   */\n      dup3\n        /* \"#utility.yul\":20657:20658   */\n      dup3\n        /* \"#utility.yul\":20653:20662   */\n      mul\n        /* \"#utility.yul\":20642:20662   */\n      swap1\n      pop\n        /* \"#utility.yul\":20320:20668   */\n      swap3\n      swap2\n      pop\n      pop\n      jump\t// out\n        /* \"#utility.yul\":20674:20865   */\n    tag_315:\n        /* \"#utility.yul\":20714:20718   */\n      0x00\n        /* \"#utility.yul\":20734:20754   */\n      tag_807\n        /* \"#utility.yul\":20752:20753   */\n      dup3\n        /* \"#utility.yul\":20734:20754   */\n      tag_725\n      jump\t// in\n    tag_807:\n        /* \"#utility.yul\":20729:20754   */\n      swap2\n      pop\n        /* \"#utility.yul\":20768:20788   */\n      tag_808\n        /* \"#utility.yul\":20786:20787   */\n      dup4\n        /* \"#utility.yul\":20768:20788   */\n      tag_725\n      jump\t// in\n    tag_808:\n        /* \"#utility.yul\":20763:20788   */\n      swap3\n      pop\n        /* \"#utility.yul\":20807:20808   */\n      dup3\n        /* \"#utility.yul\":20804:20805   */\n      dup3\n        /* \"#utility.yul\":20801:20809   */\n      lt\n        /* \"#utility.yul\":20798:20832   */\n      iszero\n      tag_809\n      jumpi\n        /* \"#utility.yul\":20812:20830   */\n      tag_810\n      tag_794\n      jump\t// in\n    tag_810:\n        /* \"#utility.yul\":20798:20832   */\n    tag_809:\n        /* \"#utility.yul\":20857:20858   */\n      dup3\n        /* \"#utility.yul\":20854:20855   */\n      dup3\n        /* \"#utility.yul\":20850:20859   */\n      sub\n        /* \"#utility.yul\":20842:20859   */\n      swap1\n      pop\n        /* \"#utility.yul\":20674:20865   */\n      swap3\n      swap2\n      pop\n      pop\n      jump\t// out\n        /* \"#utility.yul\":20871:20967   */\n    tag_627:\n        /* \"#utility.yul\":20908:20915   */\n      0x00\n        /* \"#utility.yul\":20937:20961   */\n      tag_812\n        /* \"#utility.yul\":20955:20960   */\n      dup3\n        /* \"#utility.yul\":20937:20961   */\n      tag_813\n      jump\t// in\n    tag_812:\n        /* \"#utility.yul\":20926:20961   */\n      swap1\n      pop\n        /* \"#utility.yul\":20871:20967   */\n      swap2\n      swap1\n      pop\n      jump\t// out\n        /* \"#utility.yul\":20973:21063   */\n    tag_662:\n        /* \"#utility.yul\":21007:21014   */\n      0x00\n        /* \"#utility.yul\":21050:21055   */\n      dup2\n        /* \"#utility.yul\":21043:21056   */\n      iszero\n        /* \"#utility.yul\":21036:21057   */\n      iszero\n        /* \"#utility.yul\":21025:21057   */\n      swap1\n      pop\n        /* \"#utility.yul\":20973:21063   */\n      swap2\n      swap1\n      pop\n      jump\t// out\n        /* \"#utility.yul\":21069:21195   */\n    tag_813:\n        /* \"#utility.yul\":21106:21113   */\n      0x00\n        /* \"#utility.yul\":21146:21188   */\n      0xffffffffffffffffffffffffffffffffffffffff\n        /* \"#utility.yul\":21139:21144   */\n      dup3\n        /* \"#utility.yul\":21135:21189   */\n      and\n        /* \"#utility.yul\":21124:21189   */\n      swap1\n      pop\n        /* \"#utility.yul\":21069:21195   */\n      swap2\n      swap1\n      pop\n      jump\t// out\n        /* \"#utility.yul\":21201:21278   */\n    tag_725:\n        /* \"#utility.yul\":21238:21245   */\n      0x00\n        /* \"#utility.yul\":21267:21272   */\n      dup2\n        /* \"#utility.yul\":21256:21272   */\n      swap1\n      pop\n        /* \"#utility.yul\":21201:21278   */\n      swap2\n      swap1\n      pop\n      jump\t// out\n        /* \"#utility.yul\":21284:21425   */\n    tag_666:\n        /* \"#utility.yul\":21362:21371   */\n      0x00\n        /* \"#utility.yul\":21395:21419   */\n      tag_818\n        /* \"#utility.yul\":21413:21418   */\n      dup3\n        /* \"#utility.yul\":21395:21419   */\n      tag_725\n      jump\t// in\n    tag_818:\n        /* \"#utility.yul\":21382:21419   */\n      swap1\n      pop\n        /* \"#utility.yul\":21284:21425   */\n      swap2\n      swap1\n      pop\n      jump\t// out\n        /* \"#utility.yul\":21431:21602   */\n    tag_561:\n        /* \"#utility.yul\":21470:21473   */\n      0x00\n        /* \"#utility.yul\":21493:21517   */\n      tag_820\n        /* \"#utility.yul\":21511:21516   */\n      dup3\n        /* \"#utility.yul\":21493:21517   */\n      tag_725\n      jump\t// in\n    tag_820:\n        /* \"#utility.yul\":21484:21517   */\n      swap2\n      pop\n        /* \"#utility.yul\":21539:21543   */\n      0x00\n        /* \"#utility.yul\":21532:21537   */\n      dup3\n        /* \"#utility.yul\":21529:21544   */\n      eq\n        /* \"#utility.yul\":21526:21567   */\n      iszero\n      tag_821\n      jumpi\n        /* \"#utility.yul\":21547:21565   */\n      tag_822\n      tag_794\n      jump\t// in\n    tag_822:\n        /* \"#utility.yul\":21526:21567   */\n    tag_821:\n        /* \"#utility.yul\":21594:21595   */\n      0x01\n        /* \"#utility.yul\":21587:21592   */\n      dup3\n        /* \"#utility.yul\":21583:21596   */\n      sub\n        /* \"#utility.yul\":21576:21596   */\n      swap1\n      pop\n        /* \"#utility.yul\":21431:21602   */\n      swap2\n      swap1\n      pop\n      jump\t// out\n        /* \"#utility.yul\":21608:21841   */\n    tag_435:\n        /* \"#utility.yul\":21647:21650   */\n      0x00\n        /* \"#utility.yul\":21670:21694   */\n      tag_824\n        /* \"#utility.yul\":21688:21693   */\n      dup3\n        /* \"#utility.yul\":21670:21694   */\n      tag_725\n      jump\t// in\n    tag_824:\n        /* \"#utility.yul\":21661:21694   */\n      swap2\n      pop\n        /* \"#utility.yul\":21716:21782   */\n      0xffffffffffffffffffffffffffffffffffffffffffffffffffffffffffffffff\n        /* \"#utility.yul\":21709:21714   */\n      dup3\n        /* \"#utility.yul\":21706:21783   */\n      eq\n        /* \"#utility.yul\":21703:21806   */\n      iszero\n      tag_825\n      jumpi\n        /* \"#utility.yul\":21786:21804   */\n      tag_826\n      tag_794\n      jump\t// in\n    tag_826:\n        /* \"#utility.yul\":21703:21806   */\n    tag_825:\n        /* \"#utility.yul\":21833:21834   */\n      0x01\n        /* \"#utility.yul\":21826:21831   */\n      dup3\n        /* \"#utility.yul\":21822:21835   */\n      add\n        /* \"#utility.yul\":21815:21835   */\n      swap1\n      pop\n        /* \"#utility.yul\":21608:21841   */\n      swap2\n      swap1\n      pop\n      jump\t// out\n        /* \"#utility.yul\":21847:22027   */\n    tag_794:\n        /* \"#utility.yul\":21895:21972   */\n      0x4e487b7100000000000000000000000000000000000000000000000000000000\n        /* \"#utility.yul\":21892:21893   */\n      0x00\n        /* \"#utility.yul\":21885:21973   */\n      mstore\n        /* \"#utility.yul\":21992:21996   */\n      0x11\n        /* \"#utility.yul\":21989:21990   */\n      0x04\n        /* \"#utility.yul\":21982:21997   */\n      mstore\n        /* \"#utility.yul\":22016:22020   */\n      0x24\n        /* \"#utility.yul\":22013:22014   */\n      0x00\n        /* \"#utility.yul\":22006:22021   */\n      revert\n        /* \"#utility.yul\":22033:22213   */\n    tag_800:\n        /* \"#utility.yul\":22081:22158   */\n      0x4e487b7100000000000000000000000000000000000000000000000000000000\n        /* \"#utility.yul\":22078:22079   */\n      0x00\n        /* \"#utility.yul\":22071:22159   */\n      mstore\n        /* \"#utility.yul\":22178:22182   */\n      0x12\n        /* \"#utility.yul\":22175:22176   */\n      0x04\n        /* \"#utility.yul\":22168:22183   */\n      mstore\n        /* \"#utility.yul\":22202:22206   */\n      0x24\n        /* \"#utility.yul\":22199:22200   */\n      0x00\n        /* \"#utility.yul\":22192:22207   */\n      revert\n        /* \"#utility.yul\":22219:22399   */\n    tag_530:\n        /* \"#utility.yul\":22267:22344   */\n      0x4e487b7100000000000000000000000000000000000000000000000000000000\n        /* \"#utility.yul\":22264:22265   */\n      0x00\n        /* \"#utility.yul\":22257:22345   */\n      mstore\n        /* \"#utility.yul\":22364:22368   */\n      0x31\n        /* \"#utility.yul\":22361:22362   */\n      0x04\n        /* \"#utility.yul\":22354:22369   */\n      mstore\n        /* \"#utility.yul\":22388:22392   */\n      0x24\n        /* \"#utility.yul\":22385:22386   */\n      0x00\n        /* \"#utility.yul\":22378:22393   */\n      revert\n        /* \"#utility.yul\":22405:22585   */\n    tag_408:\n        /* \"#utility.yul\":22453:22530   */\n      0x4e487b7100000000000000000000000000000000000000000000000000000000\n        /* \"#utility.yul\":22450:22451   */\n      0x00\n        /* \"#utility.yul\":22443:22531   */\n      mstore\n        /* \"#utility.yul\":22550:22554   */\n      0x32\n        /* \"#utility.yul\":22547:22548   */\n      0x04\n        /* \"#utility.yul\":22540:22555   */\n      mstore\n        /* \"#utility.yul\":22574:22578   */\n      0x24\n        /* \"#utility.yul\":22571:22572   */\n      0x00\n        /* \"#utility.yul\":22564:22579   */\n      revert\n        /* \"#utility.yul\":22591:22771   */\n    tag_398:\n        /* \"#utility.yul\":22639:22716   */\n      0x4e487b7100000000000000000000000000000000000000000000000000000000\n        /* \"#utility.yul\":22636:22637   */\n      0x00\n        /* \"#utility.yul\":22629:22717   */\n      mstore\n        /* \"#utility.yul\":22736:22740   */\n      0x41\n        /* \"#utility.yul\":22733:22734   */\n      0x04\n        /* \"#utility.yul\":22726:22741   */\n      mstore\n        /* \"#utility.yul\":22760:22764   */\n      0x24\n        /* \"#utility.yul\":22757:22758   */\n      0x00\n        /* \"#utility.yul\":22750:22765   */\n      revert\n        /* \"#utility.yul\":22900:23017   */\n    tag_589:\n        /* \"#utility.yul\":23009:23010   */\n      0x00\n        /* \"#utility.yul\":23006:23007   */\n      dup1\n        /* \"#utility.yul\":22999:23011   */\n      revert\n        /* \"#utility.yul\":23023:23202   */\n    tag_672:\n        /* \"#utility.yul\":23163:23194   */\n      0x73656c6c6572206e6565642068617665207468697320746f6b656e6964000000\n        /* \"#utility.yul\":23159:23160   */\n      0x00\n        /* \"#utility.yul\":23151:23157   */\n      dup3\n        /* \"#utility.yul\":23147:23161   */\n      add\n        /* \"#utility.yul\":23140:23195   */\n      mstore\n        /* \"#utility.yul\":23023:23202   */\n      pop\n      jump\t// out\n        /* \"#utility.yul\":23208:23371   */\n    tag_677:\n        /* \"#utility.yul\":23348:23363   */\n      0x69742069732073656c6c696e6700000000000000000000000000000000000000\n        /* \"#utility.yul\":23344:23345   */\n      0x00\n        /* \"#utility.yul\":23336:23342   */\n      dup3\n        /* \"#utility.yul\":23332:23346   */\n      add\n        /* \"#utility.yul\":23325:23364   */\n      mstore\n        /* \"#utility.yul\":23208:23371   */\n      pop\n      jump\t// out\n        /* \"#utility.yul\":23377:23602   */\n    tag_682:\n        /* \"#utility.yul\":23517:23551   */\n      0x4f776e61626c653a206e6577206f776e657220697320746865207a65726f2061\n        /* \"#utility.yul\":23513:23514   */\n      0x00\n        /* \"#utility.yul\":23505:23511   */\n      dup3\n        /* \"#utility.yul\":23501:23515   */\n      add\n        /* \"#utility.yul\":23494:23552   */\n      mstore\n        /* \"#utility.yul\":23586:23594   */\n      0x6464726573730000000000000000000000000000000000000000000000000000\n        /* \"#utility.yul\":23581:23583   */\n      0x20\n        /* \"#utility.yul\":23573:23579   */\n      dup3\n        /* \"#utility.yul\":23569:23584   */\n      add\n        /* \"#utility.yul\":23562:23595   */\n      mstore\n        /* \"#utility.yul\":23377:23602   */\n      pop\n      jump\t// out\n        /* \"#utility.yul\":23608:23781   */\n    tag_687:\n        /* \"#utility.yul\":23748:23773   */\n      0x416d6f756e74203e2030202626203c2042616c616e6365000000000000000000\n        /* \"#utility.yul\":23744:23745   */\n      0x00\n        /* \"#utility.yul\":23736:23742   */\n      dup3\n        /* \"#utility.yul\":23732:23746   */\n      add\n        /* \"#utility.yul\":23725:23774   */\n      mstore\n        /* \"#utility.yul\":23608:23781   */\n      pop\n      jump\t// out\n        /* \"#utility.yul\":23787:23961   */\n    tag_692:\n        /* \"#utility.yul\":23927:23953   */\n      0x46726f6d20616e6420546f2063616e206e6f742073616d650000000000000000\n        /* \"#utility.yul\":23923:23924   */\n      0x00\n        /* \"#utility.yul\":23915:23921   */\n      dup3\n        /* \"#utility.yul\":23911:23925   */\n      add\n        /* \"#utility.yul\":23904:23954   */\n      mstore\n        /* \"#utility.yul\":23787:23961   */\n      pop\n      jump\t// out\n        /* \"#utility.yul\":23967:24126   */\n    tag_697:\n        /* \"#utility.yul\":24107:24118   */\n      0x5072696365203e20300000000000000000000000000000000000000000000000\n        /* \"#utility.yul\":24103:24104   */\n      0x00\n        /* \"#utility.yul\":24095:24101   */\n      dup3\n        /* \"#utility.yul\":24091:24105   */\n      add\n        /* \"#utility.yul\":24084:24119   */\n      mstore\n        /* \"#utility.yul\":23967:24126   */\n      pop\n      jump\t// out\n        /* \"#utility.yul\":24132:24359   */\n    tag_702:\n        /* \"#utility.yul\":24272:24306   */\n      0x596f75206e65656420417070726f766520466f7220416c6c20746f2074686973\n        /* \"#utility.yul\":24268:24269   */\n      0x00\n        /* \"#utility.yul\":24260:24266   */\n      dup3\n        /* \"#utility.yul\":24256:24270   */\n      add\n        /* \"#utility.yul\":24249:24307   */\n      mstore\n        /* \"#utility.yul\":24341:24351   */\n      0x20636f6e74616374000000000000000000000000000000000000000000000000\n        /* \"#utility.yul\":24336:24338   */\n      0x20\n        /* \"#utility.yul\":24328:24334   */\n      dup3\n        /* \"#utility.yul\":24324:24339   */\n      add\n        /* \"#utility.yul\":24317:24352   */\n      mstore\n        /* \"#utility.yul\":24132:24359   */\n      pop\n      jump\t// out\n        /* \"#utility.yul\":24365:24535   */\n    tag_707:\n        /* \"#utility.yul\":24505:24527   */\n      0x416464726573732063616e206e6f74207a65726f000000000000000000000000\n        /* \"#utility.yul\":24501:24502   */\n      0x00\n        /* \"#utility.yul\":24493:24499   */\n      dup3\n        /* \"#utility.yul\":24489:24503   */\n      add\n        /* \"#utility.yul\":24482:24528   */\n      mstore\n        /* \"#utility.yul\":24365:24535   */\n      pop\n      jump\t// out\n        /* \"#utility.yul\":24541:24723   */\n    tag_712:\n        /* \"#utility.yul\":24681:24715   */\n      0x4f776e61626c653a2063616c6c6572206973206e6f7420746865206f776e6572\n        /* \"#utility.yul\":24677:24678   */\n      0x00\n        /* \"#utility.yul\":24669:24675   */\n      dup3\n        /* \"#utility.yul\":24665:24679   */\n      add\n        /* \"#utility.yul\":24658:24716   */\n      mstore\n        /* \"#utility.yul\":24541:24723   */\n      pop\n      jump\t// out\n        /* \"#utility.yul\":24729:24899   */\n    tag_717:\n        /* \"#utility.yul\":24869:24891   */\n      0x56696353686f7365206e6f7420696e2073656c6c000000000000000000000000\n        /* \"#utility.yul\":24865:24866   */\n      0x00\n        /* \"#utility.yul\":24857:24863   */\n      dup3\n        /* \"#utility.yul\":24853:24867   */\n      add\n        /* \"#utility.yul\":24846:24892   */\n      mstore\n        /* \"#utility.yul\":24729:24899   */\n      pop\n      jump\t// out\n        /* \"#utility.yul\":24905:25200   */\n    tag_722:\n        /* \"#utility.yul\":25045:25079   */\n      0x546865206d6f6e657920616c6c6f776564206973206e6f7420656e6f75676820\n        /* \"#utility.yul\":25041:25042   */\n      0x00\n        /* \"#utility.yul\":25033:25039   */\n      dup3\n        /* \"#utility.yul\":25029:25043   */\n      add\n        /* \"#utility.yul\":25022:25080   */\n      mstore\n        /* \"#utility.yul\":25114:25148   */\n      0x746f206275792073686f65732e20596f75206e65656420617070726f7665206d\n        /* \"#utility.yul\":25109:25111   */\n      0x20\n        /* \"#utility.yul\":25101:25107   */\n      dup3\n        /* \"#utility.yul\":25097:25112   */\n      add\n        /* \"#utility.yul\":25090:25149   */\n      mstore\n        /* \"#utility.yul\":25183:25192   */\n      0x6f72652056494d00000000000000000000000000000000000000000000000000\n        /* \"#utility.yul\":25178:25180   */\n      0x40\n        /* \"#utility.yul\":25170:25176   */\n      dup3\n        /* \"#utility.yul\":25166:25181   */\n      add\n        /* \"#utility.yul\":25159:25193   */\n      mstore\n        /* \"#utility.yul\":24905:25200   */\n      pop\n      jump\t// out\n        /* \"#utility.yul\":25206:25328   */\n    tag_571:\n        /* \"#utility.yul\":25279:25303   */\n      tag_847\n        /* \"#utility.yul\":25297:25302   */\n      dup2\n        /* \"#utility.yul\":25279:25303   */\n      tag_627\n      jump\t// in\n    tag_847:\n        /* \"#utility.yul\":25272:25277   */\n      dup2\n        /* \"#utility.yul\":25269:25304   */\n      eq\n        /* \"#utility.yul\":25259:25322   */\n      tag_848\n      jumpi\n        /* \"#utility.yul\":25318:25319   */\n      0x00\n        /* \"#utility.yul\":25315:25316   */\n      dup1\n        /* \"#utility.yul\":25308:25320   */\n      revert\n        /* \"#utility.yul\":25259:25322   */\n    tag_848:\n        /* \"#utility.yul\":25206:25328   */\n      pop\n      jump\t// out\n        /* \"#utility.yul\":25334:25450   */\n    tag_578:\n        /* \"#utility.yul\":25404:25425   */\n      tag_850\n        /* \"#utility.yul\":25419:25424   */\n      dup2\n        /* \"#utility.yul\":25404:25425   */\n      tag_662\n      jump\t// in\n    tag_850:\n        /* \"#utility.yul\":25397:25402   */\n      dup2\n        /* \"#utility.yul\":25394:25426   */\n      eq\n        /* \"#utility.yul\":25384:25444   */\n      tag_851\n      jumpi\n        /* \"#utility.yul\":25440:25441   */\n      0x00\n        /* \"#utility.yul\":25437:25438   */\n      dup1\n        /* \"#utility.yul\":25430:25442   */\n      revert\n        /* \"#utility.yul\":25384:25444   */\n    tag_851:\n        /* \"#utility.yul\":25334:25450   */\n      pop\n      jump\t// out\n        /* \"#utility.yul\":25456:25578   */\n    tag_582:\n        /* \"#utility.yul\":25529:25553   */\n      tag_853\n        /* \"#utility.yul\":25547:25552   */\n      dup2\n        /* \"#utility.yul\":25529:25553   */\n      tag_725\n      jump\t// in\n    tag_853:\n        /* \"#utility.yul\":25522:25527   */\n      dup2\n        /* \"#utility.yul\":25519:25554   */\n      eq\n        /* \"#utility.yul\":25509:25572   */\n      tag_854\n      jumpi\n        /* \"#utility.yul\":25568:25569   */\n      0x00\n        /* \"#utility.yul\":25565:25566   */\n      dup1\n        /* \"#utility.yul\":25558:25570   */\n      revert\n        /* \"#utility.yul\":25509:25572   */\n    tag_854:\n        /* \"#utility.yul\":25456:25578   */\n      pop\n      jump\t// out\n\n    auxdata: 0xa26469706673582212200d181683d5ca1323bcc7ce6e3e0082bda7e6548bb37c8855917c38aeec23eed464736f6c63430008070033\n}\n",
				"bytecode": {
					"linkReferences": {},
					"object": "608060405260008060146101000a81548160ff021916908315150217905550600061002e6102df60201b60201c565b9050806000806101000a81548173ffffffffffffffffffffffffffffffffffffffff021916908373ffffffffffffffffffffffffffffffffffffffff1602179055508073ffffffffffffffffffffffffffffffffffffffff16600073ffffffffffffffffffffffffffffffffffffffff167f8be0079c531659141344cd1fd0a4f28419497f9722a3daafe3b4186f6b6457e060405160405180910390a35073cb3745379275252f4beb5d1094bf1a8a09f368b7600160006101000a81548173ffffffffffffffffffffffffffffffffffffffff021916908373ffffffffffffffffffffffffffffffffffffffff16021790555073d295cf5d859b9ed331cdf69c49a81eff5e1bee83600260006101000a81548173ffffffffffffffffffffffffffffffffffffffff021916908373ffffffffffffffffffffffffffffffffffffffff16021790555073c184af52ca4e1b1f085aa8236ff8508f52dc6ea7600360006101000a81548173ffffffffffffffffffffffffffffffffffffffff021916908373ffffffffffffffffffffffffffffffffffffffff160217905550735bcd91c734d665fe426a5d7156f2ad7d37b76e30600460006101000a81548173ffffffffffffffffffffffffffffffffffffffff021916908373ffffffffffffffffffffffffffffffffffffffff16021790555073bb4cdb9cbd36b01bd1cbaebf2de08d9173bc095c600560006101000a81548173ffffffffffffffffffffffffffffffffffffffff021916908373ffffffffffffffffffffffffffffffffffffffff16021790555073fa0e47a2d6a58b9fd7ca1d4bfaadd11e8811824b600860006101000a81548173ffffffffffffffffffffffffffffffffffffffff021916908373ffffffffffffffffffffffffffffffffffffffff160217905550600160068190555060056007819055506102e7565b600033905090565b613d7b80620002f76000396000f3fe6080604052600436106101f25760003560e01c80638cef64371161010d578063bcfcba76116100a0578063de281e281161006f578063de281e28146106ae578063ea156f44146106d7578063f0f4426014610702578063f2fde38b1461072b578063f8a8fd6d14610754576101f9565b8063bcfcba7614610606578063cc24c80014610631578063d1f199891461065a578063d888277914610683576101f9565b8063a888a93a116100dc578063a888a93a1461055c578063ac4b3b0a14610585578063b5620229146105b0578063bc127127146105db576101f9565b80638cef6437146104b05780638da5cb5b146104d95780638f32d59b1461050457806399bc1bfb1461052f576101f9565b8063563df32f11610185578063715018a611610154578063715018a61461041c5780637880e6061461043357806383d582151461045c5780638456cb5914610485576101f9565b8063563df32f14610360578063594642171461038b5780635c975abb146103c85780635c9e0d10146103f3576101f9565b80633f4ba83a116101c15780633f4ba83a146102a6578063458a635a146102d157806348eca45c146102fa5780634dd79f1014610337576101f9565b80630ff32839146101fe5780631ecff38e146102295780632e5bb6ff1461025257806336c3b4e21461027b576101f9565b366101f957005b600080fd5b34801561020a57600080fd5b5061021361076b565b604051610220919061346a565b60405180910390f35b34801561023557600080fd5b50610250600480360381019061024b9190613042565b610791565b005b34801561025e57600080fd5b5061027960048036038101906102749190613109565b610875565b005b34801561028757600080fd5b506102906108d3565b60405161029d919061346a565b60405180910390f35b3480156102b257600080fd5b506102bb6108f9565b6040516102c89190613591565b60405180910390f35b3480156102dd57600080fd5b506102f860048036038101906102f39190613042565b6109a8565b005b34801561030657600080fd5b50610321600480360381019061031c9190613042565b610a8c565b60405161032e919061370c565b60405180910390f35b34801561034357600080fd5b5061035e60048036038101906103599190613109565b610b1e565b005b34801561036c57600080fd5b50610375610cef565b604051610382919061346a565b60405180910390f35b34801561039757600080fd5b506103b260048036038101906103ad9190613109565b610d15565b6040516103bf919061346a565b60405180910390f35b3480156103d457600080fd5b506103dd610d52565b6040516103ea9190613591565b60405180910390f35b3480156103ff57600080fd5b5061041a6004803603810190610415919061309c565b610d65565b005b34801561042857600080fd5b50610431611070565b005b34801561043f57600080fd5b5061045a60048036038101906104559190613109565b611175565b005b34801561046857600080fd5b50610483600480360381019061047e9190613163565b611988565b005b34801561049157600080fd5b5061049a611c8d565b6040516104a79190613591565b60405180910390f35b3480156104bc57600080fd5b506104d760048036038101906104d2919061309c565b611d3e565b005b3480156104e557600080fd5b506104ee611f16565b6040516104fb919061346a565b60405180910390f35b34801561051057600080fd5b50610519611f3f565b6040516105269190613591565b60405180910390f35b34801561053b57600080fd5b50610544611f9d565b60405161055393929190613545565b60405180910390f35b34801561056857600080fd5b50610583600480360381019061057e9190613042565b61237c565b005b34801561059157600080fd5b5061059a612460565b6040516105a7919061346a565b60405180910390f35b3480156105bc57600080fd5b506105c5612486565b6040516105d2919061346a565b60405180910390f35b3480156105e757600080fd5b506105f06124ac565b6040516105fd919061370c565b60405180910390f35b34801561061257600080fd5b5061061b6124b4565b604051610628919061370c565b60405180910390f35b34801561063d57600080fd5b5061065860048036038101906106539190613042565b6124ba565b005b34801561066657600080fd5b50610681600480360381019061067c9190613109565b612545565b005b34801561068f57600080fd5b5061069861264d565b6040516106a5919061346a565b60405180910390f35b3480156106ba57600080fd5b506106d560048036038101906106d09190613109565b612673565b005b3480156106e357600080fd5b506106ec6126fd565b6040516106f9919061370c565b60405180910390f35b34801561070e57600080fd5b5061072960048036038101906107249190613042565b6128d8565b005b34801561073757600080fd5b50610752600480360381019061074d9190613042565b6129bc565b005b34801561076057600080fd5b50610769612a0f565b005b600560009054906101000a900473ffffffffffffffffffffffffffffffffffffffff1681565b610799611f3f565b6107d8576040517f08c379a00000000000000000000000000000000000000000000000000000000081526004016107cf906136ac565b60405180910390fd5b80600460006101000a81548173ffffffffffffffffffffffffffffffffffffffff021916908373ffffffffffffffffffffffffffffffffffffffff1602179055507f136742181ff5fc7d13f647a125112ec36500105a024ce2dbbb7f28fa375eebfa600460009054906101000a900473ffffffffffffffffffffffffffffffffffffffff1660405161086a919061346a565b60405180910390a150565b61087d611f3f565b6108bc576040517f08c379a00000000000000000000000000000000000000000000000000000000081526004016108b3906136ac565b60405180910390fd5b603281106108c957600080fd5b8060078190555050565b600260009054906101000a900473ffffffffffffffffffffffffffffffffffffffff1681565b6000610903611f3f565b610942576040517f08c379a0000000000000000000000000000000000000000000000000000000008152600401610939906136ac565b60405180910390fd5b600060149054906101000a900460ff1661095b57600080fd5b60008060146101000a81548160ff0219169083151502179055507f7805862f689e2f13df9f062ff482ad3ad112aca9e0847911ed832e158c525b3360405160405180910390a16001905090565b6109b0611f3f565b6109ef576040517f08c379a00000000000000000000000000000000000000000000000000000000081526004016109e6906136ac565b60405180910390fd5b80600360006101000a81548173ffffffffffffffffffffffffffffffffffffffff021916908373ffffffffffffffffffffffffffffffffffffffff1602179055507fb01e01d90e1da4079495db07c84276ef34a0ea39cd9be9c3844874eb35616e44600360009054906101000a900473ffffffffffffffffffffffffffffffffffffffff16604051610a81919061346a565b60405180910390a150565b60008173ffffffffffffffffffffffffffffffffffffffff166370a08231306040518263ffffffff1660e01b8152600401610ac7919061346a565b60206040518083038186803b158015610adf57600080fd5b505afa158015610af3573d6000803e3d6000fd5b505050506040513d601f19601f82011682018060405250810190610b179190613136565b9050919050565b600060149054906101000a900460ff1615610b3857600080fd5b6000600a60008381526020019081526020016000205411610b8e576040517f08c379a0000000000000000000000000000000000000000000000000000000008152600401610b85906136cc565b60405180910390fd5b60003390508073ffffffffffffffffffffffffffffffffffffffff16600360009054906101000a900473ffffffffffffffffffffffffffffffffffffffff1673ffffffffffffffffffffffffffffffffffffffff16636352211e846040518263ffffffff1660e01b8152600401610c05919061370c565b60206040518083038186803b158015610c1d57600080fd5b505afa158015610c31573d6000803e3d6000fd5b505050506040513d601f19601f82011682018060405250810190610c55919061306f565b73ffffffffffffffffffffffffffffffffffffffff1614610cab576040517f08c379a0000000000000000000000000000000000000000000000000000000008152600401610ca2906135ac565b60405180910390fd5b610cb482612bc4565b7fd4ceea0833ac36cc33c805e4f164dedb6d75e092a34e14083bbb87976befdecf82604051610ce3919061370c565b60405180910390a15050565b600160009054906101000a900473ffffffffffffffffffffffffffffffffffffffff1681565b60006009600083815260200190815260200160002060009054906101000a900473ffffffffffffffffffffffffffffffffffffffff169050919050565b600060149054906101000a900460ff1681565b600060149054906101000a900460ff1615610d7f57600080fd5b6000339050600360009054906101000a900473ffffffffffffffffffffffffffffffffffffffff1673ffffffffffffffffffffffffffffffffffffffff1663e985e9c582306040518363ffffffff1660e01b8152600401610de1929190613485565b60206040518083038186803b158015610df957600080fd5b505afa158015610e0d573d6000803e3d6000fd5b505050506040513d601f19601f82011682018060405250810190610e3191906130dc565b610e70576040517f08c379a0000000000000000000000000000000000000000000000000000000008152600401610e679061366c565b60405180910390fd5b600073ffffffffffffffffffffffffffffffffffffffff168373ffffffffffffffffffffffffffffffffffffffff161415610ee0576040517f08c379a0000000000000000000000000000000000000000000000000000000008152600401610ed79061368c565b60405180910390fd5b8073ffffffffffffffffffffffffffffffffffffffff168373ffffffffffffffffffffffffffffffffffffffff161415610f4f576040517f08c379a0000000000000000000000000000000000000000000000000000000008152600401610f469061362c565b60405180910390fd5b600360009054906101000a900473ffffffffffffffffffffffffffffffffffffffff1673ffffffffffffffffffffffffffffffffffffffff166342842e0e8285856040518463ffffffff1660e01b8152600401610fae939291906134e5565b600060405180830381600087803b158015610fc857600080fd5b505af1158015610fdc573d6000803e3d6000fd5b50505050826009600084815260200190815260200160002060006101000a81548173ffffffffffffffffffffffffffffffffffffffff021916908373ffffffffffffffffffffffffffffffffffffffff1602179055507f2a422da7e70b3ca41064be14c50b74a43cbbef24634fa3b7e90d120b8ecc08b3838360405161106392919061351c565b60405180910390a1505050565b611078611f3f565b6110b7576040517f08c379a00000000000000000000000000000000000000000000000000000000081526004016110ae906136ac565b60405180910390fd5b600073ffffffffffffffffffffffffffffffffffffffff1660008054906101000a900473ffffffffffffffffffffffffffffffffffffffff1673ffffffffffffffffffffffffffffffffffffffff167f8be0079c531659141344cd1fd0a4f28419497f9722a3daafe3b4186f6b6457e060405160405180910390a360008060006101000a81548173ffffffffffffffffffffffffffffffffffffffff021916908373ffffffffffffffffffffffffffffffffffffffff160217905550565b600060149054906101000a900460ff161561118f57600080fd5b6000600b600083815260200190815260200160002060009054906101000a900473ffffffffffffffffffffffffffffffffffffffff1690506000600a6000848152602001908152602001600020541161121d576040517f08c379a0000000000000000000000000000000000000000000000000000000008152600401611214906136cc565b60405180910390fd5b8073ffffffffffffffffffffffffffffffffffffffff16600360009054906101000a900473ffffffffffffffffffffffffffffffffffffffff1673ffffffffffffffffffffffffffffffffffffffff16636352211e846040518263ffffffff1660e01b815260040161128f919061370c565b60206040518083038186803b1580156112a757600080fd5b505afa1580156112bb573d6000803e3d6000fd5b505050506040513d601f19601f820116820180604052508101906112df919061306f565b73ffffffffffffffffffffffffffffffffffffffff1614611335576040517f08c379a000000000000000000000000000000000000000000000000000000000815260040161132c906135ac565b60405180910390fd5b600360009054906101000a900473ffffffffffffffffffffffffffffffffffffffff1673ffffffffffffffffffffffffffffffffffffffff1663e985e9c582306040518363ffffffff1660e01b8152600401611392929190613485565b60206040518083038186803b1580156113aa57600080fd5b505afa1580156113be573d6000803e3d6000fd5b505050506040513d601f19601f820116820180604052508101906113e291906130dc565b611421576040517f08c379a00000000000000000000000000000000000000000000000000000000081526004016114189061366c565b60405180910390fd5b600033905060006114306126fd565b905060008190506000600a60008781526020019081526020016000205490508281111561145b578091505b670de0b6b3a76400008261146f919061385a565b600460009054906101000a900473ffffffffffffffffffffffffffffffffffffffff1673ffffffffffffffffffffffffffffffffffffffff1663dd62ed3e86306040518363ffffffff1660e01b81526004016114cc929190613485565b60206040518083038186803b1580156114e457600080fd5b505afa1580156114f8573d6000803e3d6000fd5b505050506040513d601f19601f8201168201806040525081019061151c9190613136565b101561155d576040517f08c379a0000000000000000000000000000000000000000000000000000000008152600401611554906136ec565b60405180910390fd5b600460009054906101000a900473ffffffffffffffffffffffffffffffffffffffff1673ffffffffffffffffffffffffffffffffffffffff166323b872dd8530670de0b6b3a7640000866115b1919061385a565b6040518463ffffffff1660e01b81526004016115cf939291906134e5565b602060405180830381600087803b1580156115e957600080fd5b505af11580156115fd573d6000803e3d6000fd5b505050506040513d601f19601f8201168201806040525081019061162191906130dc565b50600360009054906101000a900473ffffffffffffffffffffffffffffffffffffffff1673ffffffffffffffffffffffffffffffffffffffff166342842e0e8686896040518463ffffffff1660e01b8152600401611681939291906134e5565b600060405180830381600087803b15801561169b57600080fd5b505af11580156116af573d6000803e3d6000fd5b5050505060008382106116dd576064600754836116cc919061385a565b6116d69190613829565b905061173a565b81846116e991906138b4565b6064600754846116f9919061385a565b6117039190613829565b111561172a57606460075483611719919061385a565b6117239190613829565b9050611739565b818461173691906138b4565b90505b5b600460009054906101000a900473ffffffffffffffffffffffffffffffffffffffff1673ffffffffffffffffffffffffffffffffffffffff1663a9059cbb87670de0b6b3a7640000848761178e91906138b4565b611798919061385a565b6040518363ffffffff1660e01b81526004016117b592919061351c565b602060405180830381600087803b1580156117cf57600080fd5b505af11580156117e3573d6000803e3d6000fd5b505050506040513d601f19601f8201168201806040525081019061180791906130dc565b50600460009054906101000a900473ffffffffffffffffffffffffffffffffffffffff1673ffffffffffffffffffffffffffffffffffffffff1663a9059cbb600160009054906101000a900473ffffffffffffffffffffffffffffffffffffffff16670de0b6b3a76400008461187d919061385a565b6040518363ffffffff1660e01b815260040161189a92919061351c565b602060405180830381600087803b1580156118b457600080fd5b505af11580156118c8573d6000803e3d6000fd5b505050506040513d601f19601f820116820180604052508101906118ec91906130dc565b50846009600089815260200190815260200160002060006101000a81548173ffffffffffffffffffffffffffffffffffffffff021916908373ffffffffffffffffffffffffffffffffffffffff16021790555061194887612bc4565b7f2b66287559b2a137ea3e7a6ab376630ef6165451c4d691bd218b503aa276f89d87604051611977919061370c565b60405180910390a150505050505050565b600060149054906101000a900460ff16156119a257600080fd5b6000600a600084815260200190815260200160002054146119f8576040517f08c379a00000000000000000000000000000000000000000000000000000000081526004016119ef906135cc565b60405180910390fd5b60003390508073ffffffffffffffffffffffffffffffffffffffff16600360009054906101000a900473ffffffffffffffffffffffffffffffffffffffff1673ffffffffffffffffffffffffffffffffffffffff16636352211e856040518263ffffffff1660e01b8152600401611a6f919061370c565b60206040518083038186803b158015611a8757600080fd5b505afa158015611a9b573d6000803e3d6000fd5b505050506040513d601f19601f82011682018060405250810190611abf919061306f565b73ffffffffffffffffffffffffffffffffffffffff1614611b15576040517f08c379a0000000000000000000000000000000000000000000000000000000008152600401611b0c906135ac565b60405180910390fd5b600360009054906101000a900473ffffffffffffffffffffffffffffffffffffffff1673ffffffffffffffffffffffffffffffffffffffff1663e985e9c582306040518363ffffffff1660e01b8152600401611b72929190613485565b60206040518083038186803b158015611b8a57600080fd5b505afa158015611b9e573d6000803e3d6000fd5b505050506040513d601f19601f82011682018060405250810190611bc291906130dc565b611c01576040517f08c379a0000000000000000000000000000000000000000000000000000000008152600401611bf89061366c565b60405180910390fd5b60008211611c44576040517f08c379a0000000000000000000000000000000000000000000000000000000008152600401611c3b9061364c565b60405180910390fd5b611c4f838383612cd7565b7f55bb046a6e950af74fcdaaa97a1a82c49209d72a5fcda0925a019dfba29c8f728383604051611c80929190613727565b60405180910390a1505050565b6000611c97611f3f565b611cd6576040517f08c379a0000000000000000000000000000000000000000000000000000000008152600401611ccd906136ac565b60405180910390fd5b600060149054906101000a900460ff1615611cf057600080fd5b6001600060146101000a81548160ff0219169083151502179055507f6985a02210a168e66602d3235cb6db0e70f92b3ba4d376a33c0f3d9434bff62560405160405180910390a16001905090565b611d46611f3f565b611d85576040517f08c379a0000000000000000000000000000000000000000000000000000000008152600401611d7c906136ac565b60405180910390fd5b60008273ffffffffffffffffffffffffffffffffffffffff166370a08231306040518263ffffffff1660e01b8152600401611dc0919061346a565b60206040518083038186803b158015611dd857600080fd5b505afa158015611dec573d6000803e3d6000fd5b505050506040513d601f19601f82011682018060405250810190611e109190613136565b9050600082118015611e225750808211155b611e61576040517f08c379a0000000000000000000000000000000000000000000000000000000008152600401611e589061360c565b60405180910390fd5b8273ffffffffffffffffffffffffffffffffffffffff1663a9059cbb600860009054906101000a900473ffffffffffffffffffffffffffffffffffffffff16846040518363ffffffff1660e01b8152600401611ebe92919061351c565b602060405180830381600087803b158015611ed857600080fd5b505af1158015611eec573d6000803e3d6000fd5b505050506040513d601f19601f82011682018060405250810190611f1091906130dc565b50505050565b60008060009054906101000a900473ffffffffffffffffffffffffffffffffffffffff16905090565b60008060009054906101000a900473ffffffffffffffffffffffffffffffffffffffff1673ffffffffffffffffffffffffffffffffffffffff16611f81612ea4565b73ffffffffffffffffffffffffffffffffffffffff1614905090565b60608060606000600c80549050905060008167ffffffffffffffff811115611fc857611fc7613a71565b5b604051908082528060200260200182016040528015611ff65781602001602082028036833780820191505090505b50905060008267ffffffffffffffff81111561201557612014613a71565b5b6040519080825280602002602001820160405280156120435781602001602082028036833780820191505090505b50905060005b8381101561231757600b6000600c838154811061206957612068613a42565b5b9060005260206000200154815260200190815260200160002060009054906101000a900473ffffffffffffffffffffffffffffffffffffffff1673ffffffffffffffffffffffffffffffffffffffff16600360009054906101000a900473ffffffffffffffffffffffffffffffffffffffff1673ffffffffffffffffffffffffffffffffffffffff16636352211e600c848154811061210b5761210a613a42565b5b90600052602060002001546040518263ffffffff1660e01b8152600401612132919061370c565b60206040518083038186803b15801561214a57600080fd5b505afa15801561215e573d6000803e3d6000fd5b505050506040513d601f19601f82011682018060405250810190612182919061306f565b73ffffffffffffffffffffffffffffffffffffffff16141561229357600a6000600c83815481106121b6576121b5613a42565b5b90600052602060002001548152602001908152602001600020548382815181106121e3576121e2613a42565b5b602002602001018181525050600b6000600c838154811061220757612206613a42565b5b9060005260206000200154815260200190815260200160002060009054906101000a900473ffffffffffffffffffffffffffffffffffffffff1682828151811061225457612253613a42565b5b602002602001019073ffffffffffffffffffffffffffffffffffffffff16908173ffffffffffffffffffffffffffffffffffffffff1681525050612304565b60008382815181106122a8576122a7613a42565b5b60200260200101818152505060008282815181106122c9576122c8613a42565b5b602002602001019073ffffffffffffffffffffffffffffffffffffffff16908173ffffffffffffffffffffffffffffffffffffffff16815250505b808061230f9061396c565b915050612049565b50600c81838280548060200260200160405190810160405280929190818152602001828054801561236757602002820191906000526020600020905b815481526020019060010190808311612353575b50505050509250955095509550505050909192565b612384611f3f565b6123c3576040517f08c379a00000000000000000000000000000000000000000000000000000000081526004016123ba906136ac565b60405180910390fd5b80600260006101000a81548173ffffffffffffffffffffffffffffffffffffffff021916908373ffffffffffffffffffffffffffffffffffffffff1602179055507facdd85d235b5b49226c2c4f2b72cb01fa1cc3ae64bb843a6def27788d05b1b60600260009054906101000a900473ffffffffffffffffffffffffffffffffffffffff16604051612455919061346a565b60405180910390a150565b600860009054906101000a900473ffffffffffffffffffffffffffffffffffffffff1681565b600460009054906101000a900473ffffffffffffffffffffffffffffffffffffffff1681565b600047905090565b60065481565b6124c2611f3f565b612501576040517f08c379a00000000000000000000000000000000000000000000000000000000081526004016124f8906136ac565b60405180910390fd5b80600860006101000a81548173ffffffffffffffffffffffffffffffffffffffff021916908373ffffffffffffffffffffffffffffffffffffffff16021790555050565b61254d611f3f565b61258c576040517f08c379a0000000000000000000000000000000000000000000000000000000008152600401612583906136ac565b60405180910390fd5b60004790506000821180156125a15750808211155b6125e0576040517f08c379a00000000000000000000000000000000000000000000000000000000081526004016125d79061360c565b60405180910390fd5b600860009054906101000a900473ffffffffffffffffffffffffffffffffffffffff1673ffffffffffffffffffffffffffffffffffffffff166108fc839081150290604051600060405180830381858888f19350505050158015612648573d6000803e3d6000fd5b505050565b600360009054906101000a900473ffffffffffffffffffffffffffffffffffffffff1681565b61267b611f3f565b6126ba576040517f08c379a00000000000000000000000000000000000000000000000000000000081526004016126b1906136ac565b60405180910390fd5b806006819055507f4d8e30ff458bebdd848488669e63d632954487ca1bc64c28f3c920f74a5f85946006546040516126f2919061370c565b60405180910390a150565b600080600560009054906101000a900473ffffffffffffffffffffffffffffffffffffffff1673ffffffffffffffffffffffffffffffffffffffff166370a08231600260009054906101000a900473ffffffffffffffffffffffffffffffffffffffff166040518263ffffffff1660e01b815260040161277d919061346a565b60206040518083038186803b15801561279557600080fd5b505afa1580156127a9573d6000803e3d6000fd5b505050506040513d601f19601f820116820180604052508101906127cd9190613136565b90506000600460009054906101000a900473ffffffffffffffffffffffffffffffffffffffff1673ffffffffffffffffffffffffffffffffffffffff166370a08231600260009054906101000a900473ffffffffffffffffffffffffffffffffffffffff166040518263ffffffff1660e01b815260040161284e919061346a565b60206040518083038186803b15801561286657600080fd5b505afa15801561287a573d6000803e3d6000fd5b505050506040513d601f19601f8201168201806040525081019061289e9190613136565b9050600082826128ae9190613829565b90506000600a600654836128c2919061385a565b6128cc9190613829565b90508094505050505090565b6128e0611f3f565b61291f576040517f08c379a0000000000000000000000000000000000000000000000000000000008152600401612916906136ac565b60405180910390fd5b80600160006101000a81548173ffffffffffffffffffffffffffffffffffffffff021916908373ffffffffffffffffffffffffffffffffffffffff1602179055507fb14f2a39bb21fda32827bbdb4be629c94036e10a3f6055a6454f884ca1b33fa1600160009054906101000a900473ffffffffffffffffffffffffffffffffffffffff166040516129b1919061346a565b60405180910390a150565b6129c4611f3f565b612a03576040517f08c379a00000000000000000000000000000000000000000000000000000000081526004016129fa906136ac565b60405180910390fd5b612a0c81612eac565b50565b68056bc75e2d63100000600460009054906101000a900473ffffffffffffffffffffffffffffffffffffffff1673ffffffffffffffffffffffffffffffffffffffff1663dd62ed3e33306040518363ffffffff1660e01b8152600401612a76929190613485565b60206040518083038186803b158015612a8e57600080fd5b505afa158015612aa2573d6000803e3d6000fd5b505050506040513d601f19601f82011682018060405250810190612ac69190613136565b1015612b07576040517f08c379a0000000000000000000000000000000000000000000000000000000008152600401612afe906136ec565b60405180910390fd5b600460009054906101000a900473ffffffffffffffffffffffffffffffffffffffff1673ffffffffffffffffffffffffffffffffffffffff166323b872dd333068056bc75e2d631000006040518463ffffffff1660e01b8152600401612b6f939291906134ae565b602060405180830381600087803b158015612b8957600080fd5b505af1158015612b9d573d6000803e3d6000fd5b505050506040513d601f19601f82011682018060405250810190612bc191906130dc565b50565b600a60008281526020019081526020016000206000905560005b600c80549050811015612cd25781600c8281548110612c0057612bff613a42565b5b90600052602060002001541415612cbf5760008190505b6001600c80549050612c2991906138b4565b811015612c9057600c600182612c3f91906137d3565b81548110612c5057612c4f613a42565b5b9060005260206000200154600c8281548110612c6f57612c6e613a42565b5b90600052602060002001819055508080612c889061396c565b915050612c17565b50600c805480612ca357612ca2613a13565b5b6001900381819060005260206000200160009055905550612cd4565b8080612cca9061396c565b915050612bde565b505b50565b81600a60008581526020019081526020016000208190555080600b600085815260200190815260200160002060006101000a81548173ffffffffffffffffffffffffffffffffffffffff021916908373ffffffffffffffffffffffffffffffffffffffff160217905550600c8390806001815401808255809150506001900390600052602060002001600090919091909150556002600c8054905010612e9e5760006002600c80549050612d8b91906138b4565b90505b60008110612e9c5782600a6000600c8481548110612daf57612dae613a42565b5b90600052602060002001548152602001908152602001600020541115612e5457600c8181548110612de357612de2613a42565b5b9060005260206000200154600c600183612dfd91906137d3565b81548110612e0e57612e0d613a42565b5b90600052602060002001819055506000811415612e4f5783600c600081548110612e3b57612e3a613a42565b5b906000526020600020018190555050612e9f565b612e89565b83600c600183612e6491906137d3565b81548110612e7557612e74613a42565b5b906000526020600020018190555050612e9f565b8080612e9490613942565b915050612d8e565b505b5b505050565b600033905090565b600073ffffffffffffffffffffffffffffffffffffffff168173ffffffffffffffffffffffffffffffffffffffff161415612f1c576040517f08c379a0000000000000000000000000000000000000000000000000000000008152600401612f13906135ec565b60405180910390fd5b8073ffffffffffffffffffffffffffffffffffffffff1660008054906101000a900473ffffffffffffffffffffffffffffffffffffffff1673ffffffffffffffffffffffffffffffffffffffff167f8be0079c531659141344cd1fd0a4f28419497f9722a3daafe3b4186f6b6457e060405160405180910390a3806000806101000a81548173ffffffffffffffffffffffffffffffffffffffff021916908373ffffffffffffffffffffffffffffffffffffffff16021790555050565b600081359050612fe881613d00565b92915050565b600081519050612ffd81613d00565b92915050565b60008151905061301281613d17565b92915050565b60008135905061302781613d2e565b92915050565b60008151905061303c81613d2e565b92915050565b60006020828403121561305857613057613aa0565b5b600061306684828501612fd9565b91505092915050565b60006020828403121561308557613084613aa0565b5b600061309384828501612fee565b91505092915050565b600080604083850312156130b3576130b2613aa0565b5b60006130c185828601612fd9565b92505060206130d285828601613018565b9150509250929050565b6000602082840312156130f2576130f1613aa0565b5b600061310084828501613003565b91505092915050565b60006020828403121561311f5761311e613aa0565b5b600061312d84828501613018565b91505092915050565b60006020828403121561314c5761314b613aa0565b5b600061315a8482850161302d565b91505092915050565b6000806040838503121561317a57613179613aa0565b5b600061318885828601613018565b925050602061319985828601613018565b9150509250929050565b60006131af83836131d3565b60208301905092915050565b60006131c7838361344c565b60208301905092915050565b6131dc816138e8565b82525050565b6131eb816138e8565b82525050565b60006131fc82613770565b61320681856137a0565b935061321183613750565b8060005b8381101561324257815161322988826131a3565b975061323483613786565b925050600181019050613215565b5085935050505092915050565b600061325a8261377b565b61326481856137b1565b935061326f83613760565b8060005b838110156132a057815161328788826131bb565b975061329283613793565b925050600181019050613273565b5085935050505092915050565b6132b6816138fa565b82525050565b6132c581613930565b82525050565b60006132d8601d836137c2565b91506132e382613aa5565b602082019050919050565b60006132fb600d836137c2565b915061330682613ace565b602082019050919050565b600061331e6026836137c2565b915061332982613af7565b604082019050919050565b60006133416017836137c2565b915061334c82613b46565b602082019050919050565b60006133646018836137c2565b915061336f82613b6f565b602082019050919050565b60006133876009836137c2565b915061339282613b98565b602082019050919050565b60006133aa6028836137c2565b91506133b582613bc1565b604082019050919050565b60006133cd6014836137c2565b91506133d882613c10565b602082019050919050565b60006133f06020836137c2565b91506133fb82613c39565b602082019050919050565b60006134136014836137c2565b915061341e82613c62565b602082019050919050565b60006134366047836137c2565b915061344182613c8b565b606082019050919050565b61345581613926565b82525050565b61346481613926565b82525050565b600060208201905061347f60008301846131e2565b92915050565b600060408201905061349a60008301856131e2565b6134a760208301846131e2565b9392505050565b60006060820190506134c360008301866131e2565b6134d060208301856131e2565b6134dd60408301846132bc565b949350505050565b60006060820190506134fa60008301866131e2565b61350760208301856131e2565b613514604083018461345b565b949350505050565b600060408201905061353160008301856131e2565b61353e602083018461345b565b9392505050565b6000606082019050818103600083015261355f818661324f565b9050818103602083015261357381856131f1565b90508181036040830152613587818461324f565b9050949350505050565b60006020820190506135a660008301846132ad565b92915050565b600060208201905081810360008301526135c5816132cb565b9050919050565b600060208201905081810360008301526135e5816132ee565b9050919050565b6000602082019050818103600083015261360581613311565b9050919050565b6000602082019050818103600083015261362581613334565b9050919050565b6000602082019050818103600083015261364581613357565b9050919050565b600060208201905081810360008301526136658161337a565b9050919050565b600060208201905081810360008301526136858161339d565b9050919050565b600060208201905081810360008301526136a5816133c0565b9050919050565b600060208201905081810360008301526136c5816133e3565b9050919050565b600060208201905081810360008301526136e581613406565b9050919050565b6000602082019050818103600083015261370581613429565b9050919050565b6000602082019050613721600083018461345b565b92915050565b600060408201905061373c600083018561345b565b613749602083018461345b565b9392505050565b6000819050602082019050919050565b6000819050602082019050919050565b600081519050919050565b600081519050919050565b6000602082019050919050565b6000602082019050919050565b600082825260208201905092915050565b600082825260208201905092915050565b600082825260208201905092915050565b60006137de82613926565b91506137e983613926565b9250827fffffffffffffffffffffffffffffffffffffffffffffffffffffffffffffffff0382111561381e5761381d6139b5565b5b828201905092915050565b600061383482613926565b915061383f83613926565b92508261384f5761384e6139e4565b5b828204905092915050565b600061386582613926565b915061387083613926565b9250817fffffffffffffffffffffffffffffffffffffffffffffffffffffffffffffffff04831182151516156138a9576138a86139b5565b5b828202905092915050565b60006138bf82613926565b91506138ca83613926565b9250828210156138dd576138dc6139b5565b5b828203905092915050565b60006138f382613906565b9050919050565b60008115159050919050565b600073ffffffffffffffffffffffffffffffffffffffff82169050919050565b6000819050919050565b600061393b82613926565b9050919050565b600061394d82613926565b91506000821415613961576139606139b5565b5b600182039050919050565b600061397782613926565b91507fffffffffffffffffffffffffffffffffffffffffffffffffffffffffffffffff8214156139aa576139a96139b5565b5b600182019050919050565b7f4e487b7100000000000000000000000000000000000000000000000000000000600052601160045260246000fd5b7f4e487b7100000000000000000000000000000000000000000000000000000000600052601260045260246000fd5b7f4e487b7100000000000000000000000000000000000000000000000000000000600052603160045260246000fd5b7f4e487b7100000000000000000000000000000000000000000000000000000000600052603260045260246000fd5b7f4e487b7100000000000000000000000000000000000000000000000000000000600052604160045260246000fd5b600080fd5b7f73656c6c6572206e6565642068617665207468697320746f6b656e6964000000600082015250565b7f69742069732073656c6c696e6700000000000000000000000000000000000000600082015250565b7f4f776e61626c653a206e6577206f776e657220697320746865207a65726f206160008201527f6464726573730000000000000000000000000000000000000000000000000000602082015250565b7f416d6f756e74203e2030202626203c2042616c616e6365000000000000000000600082015250565b7f46726f6d20616e6420546f2063616e206e6f742073616d650000000000000000600082015250565b7f5072696365203e20300000000000000000000000000000000000000000000000600082015250565b7f596f75206e65656420417070726f766520466f7220416c6c20746f207468697360008201527f20636f6e74616374000000000000000000000000000000000000000000000000602082015250565b7f416464726573732063616e206e6f74207a65726f000000000000000000000000600082015250565b7f4f776e61626c653a2063616c6c6572206973206e6f7420746865206f776e6572600082015250565b7f56696353686f7365206e6f7420696e2073656c6c000000000000000000000000600082015250565b7f546865206d6f6e657920616c6c6f776564206973206e6f7420656e6f7567682060008201527f746f206275792073686f65732e20596f75206e65656420617070726f7665206d60208201527f6f72652056494d00000000000000000000000000000000000000000000000000604082015250565b613d09816138e8565b8114613d1457600080fd5b50565b613d20816138fa565b8114613d2b57600080fd5b50565b613d3781613926565b8114613d4257600080fd5b5056fea26469706673582212200d181683d5ca1323bcc7ce6e3e0082bda7e6548bb37c8855917c38aeec23eed464736f6c63430008070033",
					"opcodes": "PUSH1 0x80 PUSH1 0x40 MSTORE PUSH1 0x0 DUP1 PUSH1 0x14 PUSH2 0x100 EXP DUP2 SLOAD DUP2 PUSH1 0xFF MUL NOT AND SWAP1 DUP4 ISZERO ISZERO MUL OR SWAP1 SSTORE POP PUSH1 0x0 PUSH2 0x2E PUSH2 0x2DF PUSH1 0x20 SHL PUSH1 0x20 SHR JUMP JUMPDEST SWAP1 POP DUP1 PUSH1 0x0 DUP1 PUSH2 0x100 EXP DUP2 SLOAD DUP2 PUSH20 0xFFFFFFFFFFFFFFFFFFFFFFFFFFFFFFFFFFFFFFFF MUL NOT AND SWAP1 DUP4 PUSH20 0xFFFFFFFFFFFFFFFFFFFFFFFFFFFFFFFFFFFFFFFF AND MUL OR SWAP1 SSTORE POP DUP1 PUSH20 0xFFFFFFFFFFFFFFFFFFFFFFFFFFFFFFFFFFFFFFFF AND PUSH1 0x0 PUSH20 0xFFFFFFFFFFFFFFFFFFFFFFFFFFFFFFFFFFFFFFFF AND PUSH32 0x8BE0079C531659141344CD1FD0A4F28419497F9722A3DAAFE3B4186F6B6457E0 PUSH1 0x40 MLOAD PUSH1 0x40 MLOAD DUP1 SWAP2 SUB SWAP1 LOG3 POP PUSH20 0xCB3745379275252F4BEB5D1094BF1A8A09F368B7 PUSH1 0x1 PUSH1 0x0 PUSH2 0x100 EXP DUP2 SLOAD DUP2 PUSH20 0xFFFFFFFFFFFFFFFFFFFFFFFFFFFFFFFFFFFFFFFF MUL NOT AND SWAP1 DUP4 PUSH20 0xFFFFFFFFFFFFFFFFFFFFFFFFFFFFFFFFFFFFFFFF AND MUL OR SWAP1 SSTORE POP PUSH20 0xD295CF5D859B9ED331CDF69C49A81EFF5E1BEE83 PUSH1 0x2 PUSH1 0x0 PUSH2 0x100 EXP DUP2 SLOAD DUP2 PUSH20 0xFFFFFFFFFFFFFFFFFFFFFFFFFFFFFFFFFFFFFFFF MUL NOT AND SWAP1 DUP4 PUSH20 0xFFFFFFFFFFFFFFFFFFFFFFFFFFFFFFFFFFFFFFFF AND MUL OR SWAP1 SSTORE POP PUSH20 0xC184AF52CA4E1B1F085AA8236FF8508F52DC6EA7 PUSH1 0x3 PUSH1 0x0 PUSH2 0x100 EXP DUP2 SLOAD DUP2 PUSH20 0xFFFFFFFFFFFFFFFFFFFFFFFFFFFFFFFFFFFFFFFF MUL NOT AND SWAP1 DUP4 PUSH20 0xFFFFFFFFFFFFFFFFFFFFFFFFFFFFFFFFFFFFFFFF AND MUL OR SWAP1 SSTORE POP PUSH20 0x5BCD91C734D665FE426A5D7156F2AD7D37B76E30 PUSH1 0x4 PUSH1 0x0 PUSH2 0x100 EXP DUP2 SLOAD DUP2 PUSH20 0xFFFFFFFFFFFFFFFFFFFFFFFFFFFFFFFFFFFFFFFF MUL NOT AND SWAP1 DUP4 PUSH20 0xFFFFFFFFFFFFFFFFFFFFFFFFFFFFFFFFFFFFFFFF AND MUL OR SWAP1 SSTORE POP PUSH20 0xBB4CDB9CBD36B01BD1CBAEBF2DE08D9173BC095C PUSH1 0x5 PUSH1 0x0 PUSH2 0x100 EXP DUP2 SLOAD DUP2 PUSH20 0xFFFFFFFFFFFFFFFFFFFFFFFFFFFFFFFFFFFFFFFF MUL NOT AND SWAP1 DUP4 PUSH20 0xFFFFFFFFFFFFFFFFFFFFFFFFFFFFFFFFFFFFFFFF AND MUL OR SWAP1 SSTORE POP PUSH20 0xFA0E47A2D6A58B9FD7CA1D4BFAADD11E8811824B PUSH1 0x8 PUSH1 0x0 PUSH2 0x100 EXP DUP2 SLOAD DUP2 PUSH20 0xFFFFFFFFFFFFFFFFFFFFFFFFFFFFFFFFFFFFFFFF MUL NOT AND SWAP1 DUP4 PUSH20 0xFFFFFFFFFFFFFFFFFFFFFFFFFFFFFFFFFFFFFFFF AND MUL OR SWAP1 SSTORE POP PUSH1 0x1 PUSH1 0x6 DUP2 SWAP1 SSTORE POP PUSH1 0x5 PUSH1 0x7 DUP2 SWAP1 SSTORE POP PUSH2 0x2E7 JUMP JUMPDEST PUSH1 0x0 CALLER SWAP1 POP SWAP1 JUMP JUMPDEST PUSH2 0x3D7B DUP1 PUSH3 0x2F7 PUSH1 0x0 CODECOPY PUSH1 0x0 RETURN INVALID PUSH1 0x80 PUSH1 0x40 MSTORE PUSH1 0x4 CALLDATASIZE LT PUSH2 0x1F2 JUMPI PUSH1 0x0 CALLDATALOAD PUSH1 0xE0 SHR DUP1 PUSH4 0x8CEF6437 GT PUSH2 0x10D JUMPI DUP1 PUSH4 0xBCFCBA76 GT PUSH2 0xA0 JUMPI DUP1 PUSH4 0xDE281E28 GT PUSH2 0x6F JUMPI DUP1 PUSH4 0xDE281E28 EQ PUSH2 0x6AE JUMPI DUP1 PUSH4 0xEA156F44 EQ PUSH2 0x6D7 JUMPI DUP1 PUSH4 0xF0F44260 EQ PUSH2 0x702 JUMPI DUP1 PUSH4 0xF2FDE38B EQ PUSH2 0x72B JUMPI DUP1 PUSH4 0xF8A8FD6D EQ PUSH2 0x754 JUMPI PUSH2 0x1F9 JUMP JUMPDEST DUP1 PUSH4 0xBCFCBA76 EQ PUSH2 0x606 JUMPI DUP1 PUSH4 0xCC24C800 EQ PUSH2 0x631 JUMPI DUP1 PUSH4 0xD1F19989 EQ PUSH2 0x65A JUMPI DUP1 PUSH4 0xD8882779 EQ PUSH2 0x683 JUMPI PUSH2 0x1F9 JUMP JUMPDEST DUP1 PUSH4 0xA888A93A GT PUSH2 0xDC JUMPI DUP1 PUSH4 0xA888A93A EQ PUSH2 0x55C JUMPI DUP1 PUSH4 0xAC4B3B0A EQ PUSH2 0x585 JUMPI DUP1 PUSH4 0xB5620229 EQ PUSH2 0x5B0 JUMPI DUP1 PUSH4 0xBC127127 EQ PUSH2 0x5DB JUMPI PUSH2 0x1F9 JUMP JUMPDEST DUP1 PUSH4 0x8CEF6437 EQ PUSH2 0x4B0 JUMPI DUP1 PUSH4 0x8DA5CB5B EQ PUSH2 0x4D9 JUMPI DUP1 PUSH4 0x8F32D59B EQ PUSH2 0x504 JUMPI DUP1 PUSH4 0x99BC1BFB EQ PUSH2 0x52F JUMPI PUSH2 0x1F9 JUMP JUMPDEST DUP1 PUSH4 0x563DF32F GT PUSH2 0x185 JUMPI DUP1 PUSH4 0x715018A6 GT PUSH2 0x154 JUMPI DUP1 PUSH4 0x715018A6 EQ PUSH2 0x41C JUMPI DUP1 PUSH4 0x7880E606 EQ PUSH2 0x433 JUMPI DUP1 PUSH4 0x83D58215 EQ PUSH2 0x45C JUMPI DUP1 PUSH4 0x8456CB59 EQ PUSH2 0x485 JUMPI PUSH2 0x1F9 JUMP JUMPDEST DUP1 PUSH4 0x563DF32F EQ PUSH2 0x360 JUMPI DUP1 PUSH4 0x59464217 EQ PUSH2 0x38B JUMPI DUP1 PUSH4 0x5C975ABB EQ PUSH2 0x3C8 JUMPI DUP1 PUSH4 0x5C9E0D10 EQ PUSH2 0x3F3 JUMPI PUSH2 0x1F9 JUMP JUMPDEST DUP1 PUSH4 0x3F4BA83A GT PUSH2 0x1C1 JUMPI DUP1 PUSH4 0x3F4BA83A EQ PUSH2 0x2A6 JUMPI DUP1 PUSH4 0x458A635A EQ PUSH2 0x2D1 JUMPI DUP1 PUSH4 0x48ECA45C EQ PUSH2 0x2FA JUMPI DUP1 PUSH4 0x4DD79F10 EQ PUSH2 0x337 JUMPI PUSH2 0x1F9 JUMP JUMPDEST DUP1 PUSH4 0xFF32839 EQ PUSH2 0x1FE JUMPI DUP1 PUSH4 0x1ECFF38E EQ PUSH2 0x229 JUMPI DUP1 PUSH4 0x2E5BB6FF EQ PUSH2 0x252 JUMPI DUP1 PUSH4 0x36C3B4E2 EQ PUSH2 0x27B JUMPI PUSH2 0x1F9 JUMP JUMPDEST CALLDATASIZE PUSH2 0x1F9 JUMPI STOP JUMPDEST PUSH1 0x0 DUP1 REVERT JUMPDEST CALLVALUE DUP1 ISZERO PUSH2 0x20A JUMPI PUSH1 0x0 DUP1 REVERT JUMPDEST POP PUSH2 0x213 PUSH2 0x76B JUMP JUMPDEST PUSH1 0x40 MLOAD PUSH2 0x220 SWAP2 SWAP1 PUSH2 0x346A JUMP JUMPDEST PUSH1 0x40 MLOAD DUP1 SWAP2 SUB SWAP1 RETURN JUMPDEST CALLVALUE DUP1 ISZERO PUSH2 0x235 JUMPI PUSH1 0x0 DUP1 REVERT JUMPDEST POP PUSH2 0x250 PUSH1 0x4 DUP1 CALLDATASIZE SUB DUP2 ADD SWAP1 PUSH2 0x24B SWAP2 SWAP1 PUSH2 0x3042 JUMP JUMPDEST PUSH2 0x791 JUMP JUMPDEST STOP JUMPDEST CALLVALUE DUP1 ISZERO PUSH2 0x25E JUMPI PUSH1 0x0 DUP1 REVERT JUMPDEST POP PUSH2 0x279 PUSH1 0x4 DUP1 CALLDATASIZE SUB DUP2 ADD SWAP1 PUSH2 0x274 SWAP2 SWAP1 PUSH2 0x3109 JUMP JUMPDEST PUSH2 0x875 JUMP JUMPDEST STOP JUMPDEST CALLVALUE DUP1 ISZERO PUSH2 0x287 JUMPI PUSH1 0x0 DUP1 REVERT JUMPDEST POP PUSH2 0x290 PUSH2 0x8D3 JUMP JUMPDEST PUSH1 0x40 MLOAD PUSH2 0x29D SWAP2 SWAP1 PUSH2 0x346A JUMP JUMPDEST PUSH1 0x40 MLOAD DUP1 SWAP2 SUB SWAP1 RETURN JUMPDEST CALLVALUE DUP1 ISZERO PUSH2 0x2B2 JUMPI PUSH1 0x0 DUP1 REVERT JUMPDEST POP PUSH2 0x2BB PUSH2 0x8F9 JUMP JUMPDEST PUSH1 0x40 MLOAD PUSH2 0x2C8 SWAP2 SWAP1 PUSH2 0x3591 JUMP JUMPDEST PUSH1 0x40 MLOAD DUP1 SWAP2 SUB SWAP1 RETURN JUMPDEST CALLVALUE DUP1 ISZERO PUSH2 0x2DD JUMPI PUSH1 0x0 DUP1 REVERT JUMPDEST POP PUSH2 0x2F8 PUSH1 0x4 DUP1 CALLDATASIZE SUB DUP2 ADD SWAP1 PUSH2 0x2F3 SWAP2 SWAP1 PUSH2 0x3042 JUMP JUMPDEST PUSH2 0x9A8 JUMP JUMPDEST STOP JUMPDEST CALLVALUE DUP1 ISZERO PUSH2 0x306 JUMPI PUSH1 0x0 DUP1 REVERT JUMPDEST POP PUSH2 0x321 PUSH1 0x4 DUP1 CALLDATASIZE SUB DUP2 ADD SWAP1 PUSH2 0x31C SWAP2 SWAP1 PUSH2 0x3042 JUMP JUMPDEST PUSH2 0xA8C JUMP JUMPDEST PUSH1 0x40 MLOAD PUSH2 0x32E SWAP2 SWAP1 PUSH2 0x370C JUMP JUMPDEST PUSH1 0x40 MLOAD DUP1 SWAP2 SUB SWAP1 RETURN JUMPDEST CALLVALUE DUP1 ISZERO PUSH2 0x343 JUMPI PUSH1 0x0 DUP1 REVERT JUMPDEST POP PUSH2 0x35E PUSH1 0x4 DUP1 CALLDATASIZE SUB DUP2 ADD SWAP1 PUSH2 0x359 SWAP2 SWAP1 PUSH2 0x3109 JUMP JUMPDEST PUSH2 0xB1E JUMP JUMPDEST STOP JUMPDEST CALLVALUE DUP1 ISZERO PUSH2 0x36C JUMPI PUSH1 0x0 DUP1 REVERT JUMPDEST POP PUSH2 0x375 PUSH2 0xCEF JUMP JUMPDEST PUSH1 0x40 MLOAD PUSH2 0x382 SWAP2 SWAP1 PUSH2 0x346A JUMP JUMPDEST PUSH1 0x40 MLOAD DUP1 SWAP2 SUB SWAP1 RETURN JUMPDEST CALLVALUE DUP1 ISZERO PUSH2 0x397 JUMPI PUSH1 0x0 DUP1 REVERT JUMPDEST POP PUSH2 0x3B2 PUSH1 0x4 DUP1 CALLDATASIZE SUB DUP2 ADD SWAP1 PUSH2 0x3AD SWAP2 SWAP1 PUSH2 0x3109 JUMP JUMPDEST PUSH2 0xD15 JUMP JUMPDEST PUSH1 0x40 MLOAD PUSH2 0x3BF SWAP2 SWAP1 PUSH2 0x346A JUMP JUMPDEST PUSH1 0x40 MLOAD DUP1 SWAP2 SUB SWAP1 RETURN JUMPDEST CALLVALUE DUP1 ISZERO PUSH2 0x3D4 JUMPI PUSH1 0x0 DUP1 REVERT JUMPDEST POP PUSH2 0x3DD PUSH2 0xD52 JUMP JUMPDEST PUSH1 0x40 MLOAD PUSH2 0x3EA SWAP2 SWAP1 PUSH2 0x3591 JUMP JUMPDEST PUSH1 0x40 MLOAD DUP1 SWAP2 SUB SWAP1 RETURN JUMPDEST CALLVALUE DUP1 ISZERO PUSH2 0x3FF JUMPI PUSH1 0x0 DUP1 REVERT JUMPDEST POP PUSH2 0x41A PUSH1 0x4 DUP1 CALLDATASIZE SUB DUP2 ADD SWAP1 PUSH2 0x415 SWAP2 SWAP1 PUSH2 0x309C JUMP JUMPDEST PUSH2 0xD65 JUMP JUMPDEST STOP JUMPDEST CALLVALUE DUP1 ISZERO PUSH2 0x428 JUMPI PUSH1 0x0 DUP1 REVERT JUMPDEST POP PUSH2 0x431 PUSH2 0x1070 JUMP JUMPDEST STOP JUMPDEST CALLVALUE DUP1 ISZERO PUSH2 0x43F JUMPI PUSH1 0x0 DUP1 REVERT JUMPDEST POP PUSH2 0x45A PUSH1 0x4 DUP1 CALLDATASIZE SUB DUP2 ADD SWAP1 PUSH2 0x455 SWAP2 SWAP1 PUSH2 0x3109 JUMP JUMPDEST PUSH2 0x1175 JUMP JUMPDEST STOP JUMPDEST CALLVALUE DUP1 ISZERO PUSH2 0x468 JUMPI PUSH1 0x0 DUP1 REVERT JUMPDEST POP PUSH2 0x483 PUSH1 0x4 DUP1 CALLDATASIZE SUB DUP2 ADD SWAP1 PUSH2 0x47E SWAP2 SWAP1 PUSH2 0x3163 JUMP JUMPDEST PUSH2 0x1988 JUMP JUMPDEST STOP JUMPDEST CALLVALUE DUP1 ISZERO PUSH2 0x491 JUMPI PUSH1 0x0 DUP1 REVERT JUMPDEST POP PUSH2 0x49A PUSH2 0x1C8D JUMP JUMPDEST PUSH1 0x40 MLOAD PUSH2 0x4A7 SWAP2 SWAP1 PUSH2 0x3591 JUMP JUMPDEST PUSH1 0x40 MLOAD DUP1 SWAP2 SUB SWAP1 RETURN JUMPDEST CALLVALUE DUP1 ISZERO PUSH2 0x4BC JUMPI PUSH1 0x0 DUP1 REVERT JUMPDEST POP PUSH2 0x4D7 PUSH1 0x4 DUP1 CALLDATASIZE SUB DUP2 ADD SWAP1 PUSH2 0x4D2 SWAP2 SWAP1 PUSH2 0x309C JUMP JUMPDEST PUSH2 0x1D3E JUMP JUMPDEST STOP JUMPDEST CALLVALUE DUP1 ISZERO PUSH2 0x4E5 JUMPI PUSH1 0x0 DUP1 REVERT JUMPDEST POP PUSH2 0x4EE PUSH2 0x1F16 JUMP JUMPDEST PUSH1 0x40 MLOAD PUSH2 0x4FB SWAP2 SWAP1 PUSH2 0x346A JUMP JUMPDEST PUSH1 0x40 MLOAD DUP1 SWAP2 SUB SWAP1 RETURN JUMPDEST CALLVALUE DUP1 ISZERO PUSH2 0x510 JUMPI PUSH1 0x0 DUP1 REVERT JUMPDEST POP PUSH2 0x519 PUSH2 0x1F3F JUMP JUMPDEST PUSH1 0x40 MLOAD PUSH2 0x526 SWAP2 SWAP1 PUSH2 0x3591 JUMP JUMPDEST PUSH1 0x40 MLOAD DUP1 SWAP2 SUB SWAP1 RETURN JUMPDEST CALLVALUE DUP1 ISZERO PUSH2 0x53B JUMPI PUSH1 0x0 DUP1 REVERT JUMPDEST POP PUSH2 0x544 PUSH2 0x1F9D JUMP JUMPDEST PUSH1 0x40 MLOAD PUSH2 0x553 SWAP4 SWAP3 SWAP2 SWAP1 PUSH2 0x3545 JUMP JUMPDEST PUSH1 0x40 MLOAD DUP1 SWAP2 SUB SWAP1 RETURN JUMPDEST CALLVALUE DUP1 ISZERO PUSH2 0x568 JUMPI PUSH1 0x0 DUP1 REVERT JUMPDEST POP PUSH2 0x583 PUSH1 0x4 DUP1 CALLDATASIZE SUB DUP2 ADD SWAP1 PUSH2 0x57E SWAP2 SWAP1 PUSH2 0x3042 JUMP JUMPDEST PUSH2 0x237C JUMP JUMPDEST STOP JUMPDEST CALLVALUE DUP1 ISZERO PUSH2 0x591 JUMPI PUSH1 0x0 DUP1 REVERT JUMPDEST POP PUSH2 0x59A PUSH2 0x2460 JUMP JUMPDEST PUSH1 0x40 MLOAD PUSH2 0x5A7 SWAP2 SWAP1 PUSH2 0x346A JUMP JUMPDEST PUSH1 0x40 MLOAD DUP1 SWAP2 SUB SWAP1 RETURN JUMPDEST CALLVALUE DUP1 ISZERO PUSH2 0x5BC JUMPI PUSH1 0x0 DUP1 REVERT JUMPDEST POP PUSH2 0x5C5 PUSH2 0x2486 JUMP JUMPDEST PUSH1 0x40 MLOAD PUSH2 0x5D2 SWAP2 SWAP1 PUSH2 0x346A JUMP JUMPDEST PUSH1 0x40 MLOAD DUP1 SWAP2 SUB SWAP1 RETURN JUMPDEST CALLVALUE DUP1 ISZERO PUSH2 0x5E7 JUMPI PUSH1 0x0 DUP1 REVERT JUMPDEST POP PUSH2 0x5F0 PUSH2 0x24AC JUMP JUMPDEST PUSH1 0x40 MLOAD PUSH2 0x5FD SWAP2 SWAP1 PUSH2 0x370C JUMP JUMPDEST PUSH1 0x40 MLOAD DUP1 SWAP2 SUB SWAP1 RETURN JUMPDEST CALLVALUE DUP1 ISZERO PUSH2 0x612 JUMPI PUSH1 0x0 DUP1 REVERT JUMPDEST POP PUSH2 0x61B PUSH2 0x24B4 JUMP JUMPDEST PUSH1 0x40 MLOAD PUSH2 0x628 SWAP2 SWAP1 PUSH2 0x370C JUMP JUMPDEST PUSH1 0x40 MLOAD DUP1 SWAP2 SUB SWAP1 RETURN JUMPDEST CALLVALUE DUP1 ISZERO PUSH2 0x63D JUMPI PUSH1 0x0 DUP1 REVERT JUMPDEST POP PUSH2 0x658 PUSH1 0x4 DUP1 CALLDATASIZE SUB DUP2 ADD SWAP1 PUSH2 0x653 SWAP2 SWAP1 PUSH2 0x3042 JUMP JUMPDEST PUSH2 0x24BA JUMP JUMPDEST STOP JUMPDEST CALLVALUE DUP1 ISZERO PUSH2 0x666 JUMPI PUSH1 0x0 DUP1 REVERT JUMPDEST POP PUSH2 0x681 PUSH1 0x4 DUP1 CALLDATASIZE SUB DUP2 ADD SWAP1 PUSH2 0x67C SWAP2 SWAP1 PUSH2 0x3109 JUMP JUMPDEST PUSH2 0x2545 JUMP JUMPDEST STOP JUMPDEST CALLVALUE DUP1 ISZERO PUSH2 0x68F JUMPI PUSH1 0x0 DUP1 REVERT JUMPDEST POP PUSH2 0x698 PUSH2 0x264D JUMP JUMPDEST PUSH1 0x40 MLOAD PUSH2 0x6A5 SWAP2 SWAP1 PUSH2 0x346A JUMP JUMPDEST PUSH1 0x40 MLOAD DUP1 SWAP2 SUB SWAP1 RETURN JUMPDEST CALLVALUE DUP1 ISZERO PUSH2 0x6BA JUMPI PUSH1 0x0 DUP1 REVERT JUMPDEST POP PUSH2 0x6D5 PUSH1 0x4 DUP1 CALLDATASIZE SUB DUP2 ADD SWAP1 PUSH2 0x6D0 SWAP2 SWAP1 PUSH2 0x3109 JUMP JUMPDEST PUSH2 0x2673 JUMP JUMPDEST STOP JUMPDEST CALLVALUE DUP1 ISZERO PUSH2 0x6E3 JUMPI PUSH1 0x0 DUP1 REVERT JUMPDEST POP PUSH2 0x6EC PUSH2 0x26FD JUMP JUMPDEST PUSH1 0x40 MLOAD PUSH2 0x6F9 SWAP2 SWAP1 PUSH2 0x370C JUMP JUMPDEST PUSH1 0x40 MLOAD DUP1 SWAP2 SUB SWAP1 RETURN JUMPDEST CALLVALUE DUP1 ISZERO PUSH2 0x70E JUMPI PUSH1 0x0 DUP1 REVERT JUMPDEST POP PUSH2 0x729 PUSH1 0x4 DUP1 CALLDATASIZE SUB DUP2 ADD SWAP1 PUSH2 0x724 SWAP2 SWAP1 PUSH2 0x3042 JUMP JUMPDEST PUSH2 0x28D8 JUMP JUMPDEST STOP JUMPDEST CALLVALUE DUP1 ISZERO PUSH2 0x737 JUMPI PUSH1 0x0 DUP1 REVERT JUMPDEST POP PUSH2 0x752 PUSH1 0x4 DUP1 CALLDATASIZE SUB DUP2 ADD SWAP1 PUSH2 0x74D SWAP2 SWAP1 PUSH2 0x3042 JUMP JUMPDEST PUSH2 0x29BC JUMP JUMPDEST STOP JUMPDEST CALLVALUE DUP1 ISZERO PUSH2 0x760 JUMPI PUSH1 0x0 DUP1 REVERT JUMPDEST POP PUSH2 0x769 PUSH2 0x2A0F JUMP JUMPDEST STOP JUMPDEST PUSH1 0x5 PUSH1 0x0 SWAP1 SLOAD SWAP1 PUSH2 0x100 EXP SWAP1 DIV PUSH20 0xFFFFFFFFFFFFFFFFFFFFFFFFFFFFFFFFFFFFFFFF AND DUP2 JUMP JUMPDEST PUSH2 0x799 PUSH2 0x1F3F JUMP JUMPDEST PUSH2 0x7D8 JUMPI PUSH1 0x40 MLOAD PUSH32 0x8C379A000000000000000000000000000000000000000000000000000000000 DUP2 MSTORE PUSH1 0x4 ADD PUSH2 0x7CF SWAP1 PUSH2 0x36AC JUMP JUMPDEST PUSH1 0x40 MLOAD DUP1 SWAP2 SUB SWAP1 REVERT JUMPDEST DUP1 PUSH1 0x4 PUSH1 0x0 PUSH2 0x100 EXP DUP2 SLOAD DUP2 PUSH20 0xFFFFFFFFFFFFFFFFFFFFFFFFFFFFFFFFFFFFFFFF MUL NOT AND SWAP1 DUP4 PUSH20 0xFFFFFFFFFFFFFFFFFFFFFFFFFFFFFFFFFFFFFFFF AND MUL OR SWAP1 SSTORE POP PUSH32 0x136742181FF5FC7D13F647A125112EC36500105A024CE2DBBB7F28FA375EEBFA PUSH1 0x4 PUSH1 0x0 SWAP1 SLOAD SWAP1 PUSH2 0x100 EXP SWAP1 DIV PUSH20 0xFFFFFFFFFFFFFFFFFFFFFFFFFFFFFFFFFFFFFFFF AND PUSH1 0x40 MLOAD PUSH2 0x86A SWAP2 SWAP1 PUSH2 0x346A JUMP JUMPDEST PUSH1 0x40 MLOAD DUP1 SWAP2 SUB SWAP1 LOG1 POP JUMP JUMPDEST PUSH2 0x87D PUSH2 0x1F3F JUMP JUMPDEST PUSH2 0x8BC JUMPI PUSH1 0x40 MLOAD PUSH32 0x8C379A000000000000000000000000000000000000000000000000000000000 DUP2 MSTORE PUSH1 0x4 ADD PUSH2 0x8B3 SWAP1 PUSH2 0x36AC JUMP JUMPDEST PUSH1 0x40 MLOAD DUP1 SWAP2 SUB SWAP1 REVERT JUMPDEST PUSH1 0x32 DUP2 LT PUSH2 0x8C9 JUMPI PUSH1 0x0 DUP1 REVERT JUMPDEST DUP1 PUSH1 0x7 DUP2 SWAP1 SSTORE POP POP JUMP JUMPDEST PUSH1 0x2 PUSH1 0x0 SWAP1 SLOAD SWAP1 PUSH2 0x100 EXP SWAP1 DIV PUSH20 0xFFFFFFFFFFFFFFFFFFFFFFFFFFFFFFFFFFFFFFFF AND DUP2 JUMP JUMPDEST PUSH1 0x0 PUSH2 0x903 PUSH2 0x1F3F JUMP JUMPDEST PUSH2 0x942 JUMPI PUSH1 0x40 MLOAD PUSH32 0x8C379A000000000000000000000000000000000000000000000000000000000 DUP2 MSTORE PUSH1 0x4 ADD PUSH2 0x939 SWAP1 PUSH2 0x36AC JUMP JUMPDEST PUSH1 0x40 MLOAD DUP1 SWAP2 SUB SWAP1 REVERT JUMPDEST PUSH1 0x0 PUSH1 0x14 SWAP1 SLOAD SWAP1 PUSH2 0x100 EXP SWAP1 DIV PUSH1 0xFF AND PUSH2 0x95B JUMPI PUSH1 0x0 DUP1 REVERT JUMPDEST PUSH1 0x0 DUP1 PUSH1 0x14 PUSH2 0x100 EXP DUP2 SLOAD DUP2 PUSH1 0xFF MUL NOT AND SWAP1 DUP4 ISZERO ISZERO MUL OR SWAP1 SSTORE POP PUSH32 0x7805862F689E2F13DF9F062FF482AD3AD112ACA9E0847911ED832E158C525B33 PUSH1 0x40 MLOAD PUSH1 0x40 MLOAD DUP1 SWAP2 SUB SWAP1 LOG1 PUSH1 0x1 SWAP1 POP SWAP1 JUMP JUMPDEST PUSH2 0x9B0 PUSH2 0x1F3F JUMP JUMPDEST PUSH2 0x9EF JUMPI PUSH1 0x40 MLOAD PUSH32 0x8C379A000000000000000000000000000000000000000000000000000000000 DUP2 MSTORE PUSH1 0x4 ADD PUSH2 0x9E6 SWAP1 PUSH2 0x36AC JUMP JUMPDEST PUSH1 0x40 MLOAD DUP1 SWAP2 SUB SWAP1 REVERT JUMPDEST DUP1 PUSH1 0x3 PUSH1 0x0 PUSH2 0x100 EXP DUP2 SLOAD DUP2 PUSH20 0xFFFFFFFFFFFFFFFFFFFFFFFFFFFFFFFFFFFFFFFF MUL NOT AND SWAP1 DUP4 PUSH20 0xFFFFFFFFFFFFFFFFFFFFFFFFFFFFFFFFFFFFFFFF AND MUL OR SWAP1 SSTORE POP PUSH32 0xB01E01D90E1DA4079495DB07C84276EF34A0EA39CD9BE9C3844874EB35616E44 PUSH1 0x3 PUSH1 0x0 SWAP1 SLOAD SWAP1 PUSH2 0x100 EXP SWAP1 DIV PUSH20 0xFFFFFFFFFFFFFFFFFFFFFFFFFFFFFFFFFFFFFFFF AND PUSH1 0x40 MLOAD PUSH2 0xA81 SWAP2 SWAP1 PUSH2 0x346A JUMP JUMPDEST PUSH1 0x40 MLOAD DUP1 SWAP2 SUB SWAP1 LOG1 POP JUMP JUMPDEST PUSH1 0x0 DUP2 PUSH20 0xFFFFFFFFFFFFFFFFFFFFFFFFFFFFFFFFFFFFFFFF AND PUSH4 0x70A08231 ADDRESS PUSH1 0x40 MLOAD DUP3 PUSH4 0xFFFFFFFF AND PUSH1 0xE0 SHL DUP2 MSTORE PUSH1 0x4 ADD PUSH2 0xAC7 SWAP2 SWAP1 PUSH2 0x346A JUMP JUMPDEST PUSH1 0x20 PUSH1 0x40 MLOAD DUP1 DUP4 SUB DUP2 DUP7 DUP1 EXTCODESIZE ISZERO DUP1 ISZERO PUSH2 0xADF JUMPI PUSH1 0x0 DUP1 REVERT JUMPDEST POP GAS STATICCALL ISZERO DUP1 ISZERO PUSH2 0xAF3 JUMPI RETURNDATASIZE PUSH1 0x0 DUP1 RETURNDATACOPY RETURNDATASIZE PUSH1 0x0 REVERT JUMPDEST POP POP POP POP PUSH1 0x40 MLOAD RETURNDATASIZE PUSH1 0x1F NOT PUSH1 0x1F DUP3 ADD AND DUP3 ADD DUP1 PUSH1 0x40 MSTORE POP DUP2 ADD SWAP1 PUSH2 0xB17 SWAP2 SWAP1 PUSH2 0x3136 JUMP JUMPDEST SWAP1 POP SWAP2 SWAP1 POP JUMP JUMPDEST PUSH1 0x0 PUSH1 0x14 SWAP1 SLOAD SWAP1 PUSH2 0x100 EXP SWAP1 DIV PUSH1 0xFF AND ISZERO PUSH2 0xB38 JUMPI PUSH1 0x0 DUP1 REVERT JUMPDEST PUSH1 0x0 PUSH1 0xA PUSH1 0x0 DUP4 DUP2 MSTORE PUSH1 0x20 ADD SWAP1 DUP2 MSTORE PUSH1 0x20 ADD PUSH1 0x0 KECCAK256 SLOAD GT PUSH2 0xB8E JUMPI PUSH1 0x40 MLOAD PUSH32 0x8C379A000000000000000000000000000000000000000000000000000000000 DUP2 MSTORE PUSH1 0x4 ADD PUSH2 0xB85 SWAP1 PUSH2 0x36CC JUMP JUMPDEST PUSH1 0x40 MLOAD DUP1 SWAP2 SUB SWAP1 REVERT JUMPDEST PUSH1 0x0 CALLER SWAP1 POP DUP1 PUSH20 0xFFFFFFFFFFFFFFFFFFFFFFFFFFFFFFFFFFFFFFFF AND PUSH1 0x3 PUSH1 0x0 SWAP1 SLOAD SWAP1 PUSH2 0x100 EXP SWAP1 DIV PUSH20 0xFFFFFFFFFFFFFFFFFFFFFFFFFFFFFFFFFFFFFFFF AND PUSH20 0xFFFFFFFFFFFFFFFFFFFFFFFFFFFFFFFFFFFFFFFF AND PUSH4 0x6352211E DUP5 PUSH1 0x40 MLOAD DUP3 PUSH4 0xFFFFFFFF AND PUSH1 0xE0 SHL DUP2 MSTORE PUSH1 0x4 ADD PUSH2 0xC05 SWAP2 SWAP1 PUSH2 0x370C JUMP JUMPDEST PUSH1 0x20 PUSH1 0x40 MLOAD DUP1 DUP4 SUB DUP2 DUP7 DUP1 EXTCODESIZE ISZERO DUP1 ISZERO PUSH2 0xC1D JUMPI PUSH1 0x0 DUP1 REVERT JUMPDEST POP GAS STATICCALL ISZERO DUP1 ISZERO PUSH2 0xC31 JUMPI RETURNDATASIZE PUSH1 0x0 DUP1 RETURNDATACOPY RETURNDATASIZE PUSH1 0x0 REVERT JUMPDEST POP POP POP POP PUSH1 0x40 MLOAD RETURNDATASIZE PUSH1 0x1F NOT PUSH1 0x1F DUP3 ADD AND DUP3 ADD DUP1 PUSH1 0x40 MSTORE POP DUP2 ADD SWAP1 PUSH2 0xC55 SWAP2 SWAP1 PUSH2 0x306F JUMP JUMPDEST PUSH20 0xFFFFFFFFFFFFFFFFFFFFFFFFFFFFFFFFFFFFFFFF AND EQ PUSH2 0xCAB JUMPI PUSH1 0x40 MLOAD PUSH32 0x8C379A000000000000000000000000000000000000000000000000000000000 DUP2 MSTORE PUSH1 0x4 ADD PUSH2 0xCA2 SWAP1 PUSH2 0x35AC JUMP JUMPDEST PUSH1 0x40 MLOAD DUP1 SWAP2 SUB SWAP1 REVERT JUMPDEST PUSH2 0xCB4 DUP3 PUSH2 0x2BC4 JUMP JUMPDEST PUSH32 0xD4CEEA0833AC36CC33C805E4F164DEDB6D75E092A34E14083BBB87976BEFDECF DUP3 PUSH1 0x40 MLOAD PUSH2 0xCE3 SWAP2 SWAP1 PUSH2 0x370C JUMP JUMPDEST PUSH1 0x40 MLOAD DUP1 SWAP2 SUB SWAP1 LOG1 POP POP JUMP JUMPDEST PUSH1 0x1 PUSH1 0x0 SWAP1 SLOAD SWAP1 PUSH2 0x100 EXP SWAP1 DIV PUSH20 0xFFFFFFFFFFFFFFFFFFFFFFFFFFFFFFFFFFFFFFFF AND DUP2 JUMP JUMPDEST PUSH1 0x0 PUSH1 0x9 PUSH1 0x0 DUP4 DUP2 MSTORE PUSH1 0x20 ADD SWAP1 DUP2 MSTORE PUSH1 0x20 ADD PUSH1 0x0 KECCAK256 PUSH1 0x0 SWAP1 SLOAD SWAP1 PUSH2 0x100 EXP SWAP1 DIV PUSH20 0xFFFFFFFFFFFFFFFFFFFFFFFFFFFFFFFFFFFFFFFF AND SWAP1 POP SWAP2 SWAP1 POP JUMP JUMPDEST PUSH1 0x0 PUSH1 0x14 SWAP1 SLOAD SWAP1 PUSH2 0x100 EXP SWAP1 DIV PUSH1 0xFF AND DUP2 JUMP JUMPDEST PUSH1 0x0 PUSH1 0x14 SWAP1 SLOAD SWAP1 PUSH2 0x100 EXP SWAP1 DIV PUSH1 0xFF AND ISZERO PUSH2 0xD7F JUMPI PUSH1 0x0 DUP1 REVERT JUMPDEST PUSH1 0x0 CALLER SWAP1 POP PUSH1 0x3 PUSH1 0x0 SWAP1 SLOAD SWAP1 PUSH2 0x100 EXP SWAP1 DIV PUSH20 0xFFFFFFFFFFFFFFFFFFFFFFFFFFFFFFFFFFFFFFFF AND PUSH20 0xFFFFFFFFFFFFFFFFFFFFFFFFFFFFFFFFFFFFFFFF AND PUSH4 0xE985E9C5 DUP3 ADDRESS PUSH1 0x40 MLOAD DUP4 PUSH4 0xFFFFFFFF AND PUSH1 0xE0 SHL DUP2 MSTORE PUSH1 0x4 ADD PUSH2 0xDE1 SWAP3 SWAP2 SWAP1 PUSH2 0x3485 JUMP JUMPDEST PUSH1 0x20 PUSH1 0x40 MLOAD DUP1 DUP4 SUB DUP2 DUP7 DUP1 EXTCODESIZE ISZERO DUP1 ISZERO PUSH2 0xDF9 JUMPI PUSH1 0x0 DUP1 REVERT JUMPDEST POP GAS STATICCALL ISZERO DUP1 ISZERO PUSH2 0xE0D JUMPI RETURNDATASIZE PUSH1 0x0 DUP1 RETURNDATACOPY RETURNDATASIZE PUSH1 0x0 REVERT JUMPDEST POP POP POP POP PUSH1 0x40 MLOAD RETURNDATASIZE PUSH1 0x1F NOT PUSH1 0x1F DUP3 ADD AND DUP3 ADD DUP1 PUSH1 0x40 MSTORE POP DUP2 ADD SWAP1 PUSH2 0xE31 SWAP2 SWAP1 PUSH2 0x30DC JUMP JUMPDEST PUSH2 0xE70 JUMPI PUSH1 0x40 MLOAD PUSH32 0x8C379A000000000000000000000000000000000000000000000000000000000 DUP2 MSTORE PUSH1 0x4 ADD PUSH2 0xE67 SWAP1 PUSH2 0x366C JUMP JUMPDEST PUSH1 0x40 MLOAD DUP1 SWAP2 SUB SWAP1 REVERT JUMPDEST PUSH1 0x0 PUSH20 0xFFFFFFFFFFFFFFFFFFFFFFFFFFFFFFFFFFFFFFFF AND DUP4 PUSH20 0xFFFFFFFFFFFFFFFFFFFFFFFFFFFFFFFFFFFFFFFF AND EQ ISZERO PUSH2 0xEE0 JUMPI PUSH1 0x40 MLOAD PUSH32 0x8C379A000000000000000000000000000000000000000000000000000000000 DUP2 MSTORE PUSH1 0x4 ADD PUSH2 0xED7 SWAP1 PUSH2 0x368C JUMP JUMPDEST PUSH1 0x40 MLOAD DUP1 SWAP2 SUB SWAP1 REVERT JUMPDEST DUP1 PUSH20 0xFFFFFFFFFFFFFFFFFFFFFFFFFFFFFFFFFFFFFFFF AND DUP4 PUSH20 0xFFFFFFFFFFFFFFFFFFFFFFFFFFFFFFFFFFFFFFFF AND EQ ISZERO PUSH2 0xF4F JUMPI PUSH1 0x40 MLOAD PUSH32 0x8C379A000000000000000000000000000000000000000000000000000000000 DUP2 MSTORE PUSH1 0x4 ADD PUSH2 0xF46 SWAP1 PUSH2 0x362C JUMP JUMPDEST PUSH1 0x40 MLOAD DUP1 SWAP2 SUB SWAP1 REVERT JUMPDEST PUSH1 0x3 PUSH1 0x0 SWAP1 SLOAD SWAP1 PUSH2 0x100 EXP SWAP1 DIV PUSH20 0xFFFFFFFFFFFFFFFFFFFFFFFFFFFFFFFFFFFFFFFF AND PUSH20 0xFFFFFFFFFFFFFFFFFFFFFFFFFFFFFFFFFFFFFFFF AND PUSH4 0x42842E0E DUP3 DUP6 DUP6 PUSH1 0x40 MLOAD DUP5 PUSH4 0xFFFFFFFF AND PUSH1 0xE0 SHL DUP2 MSTORE PUSH1 0x4 ADD PUSH2 0xFAE SWAP4 SWAP3 SWAP2 SWAP1 PUSH2 0x34E5 JUMP JUMPDEST PUSH1 0x0 PUSH1 0x40 MLOAD DUP1 DUP4 SUB DUP2 PUSH1 0x0 DUP8 DUP1 EXTCODESIZE ISZERO DUP1 ISZERO PUSH2 0xFC8 JUMPI PUSH1 0x0 DUP1 REVERT JUMPDEST POP GAS CALL ISZERO DUP1 ISZERO PUSH2 0xFDC JUMPI RETURNDATASIZE PUSH1 0x0 DUP1 RETURNDATACOPY RETURNDATASIZE PUSH1 0x0 REVERT JUMPDEST POP POP POP POP DUP3 PUSH1 0x9 PUSH1 0x0 DUP5 DUP2 MSTORE PUSH1 0x20 ADD SWAP1 DUP2 MSTORE PUSH1 0x20 ADD PUSH1 0x0 KECCAK256 PUSH1 0x0 PUSH2 0x100 EXP DUP2 SLOAD DUP2 PUSH20 0xFFFFFFFFFFFFFFFFFFFFFFFFFFFFFFFFFFFFFFFF MUL NOT AND SWAP1 DUP4 PUSH20 0xFFFFFFFFFFFFFFFFFFFFFFFFFFFFFFFFFFFFFFFF AND MUL OR SWAP1 SSTORE POP PUSH32 0x2A422DA7E70B3CA41064BE14C50B74A43CBBEF24634FA3B7E90D120B8ECC08B3 DUP4 DUP4 PUSH1 0x40 MLOAD PUSH2 0x1063 SWAP3 SWAP2 SWAP1 PUSH2 0x351C JUMP JUMPDEST PUSH1 0x40 MLOAD DUP1 SWAP2 SUB SWAP1 LOG1 POP POP POP JUMP JUMPDEST PUSH2 0x1078 PUSH2 0x1F3F JUMP JUMPDEST PUSH2 0x10B7 JUMPI PUSH1 0x40 MLOAD PUSH32 0x8C379A000000000000000000000000000000000000000000000000000000000 DUP2 MSTORE PUSH1 0x4 ADD PUSH2 0x10AE SWAP1 PUSH2 0x36AC JUMP JUMPDEST PUSH1 0x40 MLOAD DUP1 SWAP2 SUB SWAP1 REVERT JUMPDEST PUSH1 0x0 PUSH20 0xFFFFFFFFFFFFFFFFFFFFFFFFFFFFFFFFFFFFFFFF AND PUSH1 0x0 DUP1 SLOAD SWAP1 PUSH2 0x100 EXP SWAP1 DIV PUSH20 0xFFFFFFFFFFFFFFFFFFFFFFFFFFFFFFFFFFFFFFFF AND PUSH20 0xFFFFFFFFFFFFFFFFFFFFFFFFFFFFFFFFFFFFFFFF AND PUSH32 0x8BE0079C531659141344CD1FD0A4F28419497F9722A3DAAFE3B4186F6B6457E0 PUSH1 0x40 MLOAD PUSH1 0x40 MLOAD DUP1 SWAP2 SUB SWAP1 LOG3 PUSH1 0x0 DUP1 PUSH1 0x0 PUSH2 0x100 EXP DUP2 SLOAD DUP2 PUSH20 0xFFFFFFFFFFFFFFFFFFFFFFFFFFFFFFFFFFFFFFFF MUL NOT AND SWAP1 DUP4 PUSH20 0xFFFFFFFFFFFFFFFFFFFFFFFFFFFFFFFFFFFFFFFF AND MUL OR SWAP1 SSTORE POP JUMP JUMPDEST PUSH1 0x0 PUSH1 0x14 SWAP1 SLOAD SWAP1 PUSH2 0x100 EXP SWAP1 DIV PUSH1 0xFF AND ISZERO PUSH2 0x118F JUMPI PUSH1 0x0 DUP1 REVERT JUMPDEST PUSH1 0x0 PUSH1 0xB PUSH1 0x0 DUP4 DUP2 MSTORE PUSH1 0x20 ADD SWAP1 DUP2 MSTORE PUSH1 0x20 ADD PUSH1 0x0 KECCAK256 PUSH1 0x0 SWAP1 SLOAD SWAP1 PUSH2 0x100 EXP SWAP1 DIV PUSH20 0xFFFFFFFFFFFFFFFFFFFFFFFFFFFFFFFFFFFFFFFF AND SWAP1 POP PUSH1 0x0 PUSH1 0xA PUSH1 0x0 DUP5 DUP2 MSTORE PUSH1 0x20 ADD SWAP1 DUP2 MSTORE PUSH1 0x20 ADD PUSH1 0x0 KECCAK256 SLOAD GT PUSH2 0x121D JUMPI PUSH1 0x40 MLOAD PUSH32 0x8C379A000000000000000000000000000000000000000000000000000000000 DUP2 MSTORE PUSH1 0x4 ADD PUSH2 0x1214 SWAP1 PUSH2 0x36CC JUMP JUMPDEST PUSH1 0x40 MLOAD DUP1 SWAP2 SUB SWAP1 REVERT JUMPDEST DUP1 PUSH20 0xFFFFFFFFFFFFFFFFFFFFFFFFFFFFFFFFFFFFFFFF AND PUSH1 0x3 PUSH1 0x0 SWAP1 SLOAD SWAP1 PUSH2 0x100 EXP SWAP1 DIV PUSH20 0xFFFFFFFFFFFFFFFFFFFFFFFFFFFFFFFFFFFFFFFF AND PUSH20 0xFFFFFFFFFFFFFFFFFFFFFFFFFFFFFFFFFFFFFFFF AND PUSH4 0x6352211E DUP5 PUSH1 0x40 MLOAD DUP3 PUSH4 0xFFFFFFFF AND PUSH1 0xE0 SHL DUP2 MSTORE PUSH1 0x4 ADD PUSH2 0x128F SWAP2 SWAP1 PUSH2 0x370C JUMP JUMPDEST PUSH1 0x20 PUSH1 0x40 MLOAD DUP1 DUP4 SUB DUP2 DUP7 DUP1 EXTCODESIZE ISZERO DUP1 ISZERO PUSH2 0x12A7 JUMPI PUSH1 0x0 DUP1 REVERT JUMPDEST POP GAS STATICCALL ISZERO DUP1 ISZERO PUSH2 0x12BB JUMPI RETURNDATASIZE PUSH1 0x0 DUP1 RETURNDATACOPY RETURNDATASIZE PUSH1 0x0 REVERT JUMPDEST POP POP POP POP PUSH1 0x40 MLOAD RETURNDATASIZE PUSH1 0x1F NOT PUSH1 0x1F DUP3 ADD AND DUP3 ADD DUP1 PUSH1 0x40 MSTORE POP DUP2 ADD SWAP1 PUSH2 0x12DF SWAP2 SWAP1 PUSH2 0x306F JUMP JUMPDEST PUSH20 0xFFFFFFFFFFFFFFFFFFFFFFFFFFFFFFFFFFFFFFFF AND EQ PUSH2 0x1335 JUMPI PUSH1 0x40 MLOAD PUSH32 0x8C379A000000000000000000000000000000000000000000000000000000000 DUP2 MSTORE PUSH1 0x4 ADD PUSH2 0x132C SWAP1 PUSH2 0x35AC JUMP JUMPDEST PUSH1 0x40 MLOAD DUP1 SWAP2 SUB SWAP1 REVERT JUMPDEST PUSH1 0x3 PUSH1 0x0 SWAP1 SLOAD SWAP1 PUSH2 0x100 EXP SWAP1 DIV PUSH20 0xFFFFFFFFFFFFFFFFFFFFFFFFFFFFFFFFFFFFFFFF AND PUSH20 0xFFFFFFFFFFFFFFFFFFFFFFFFFFFFFFFFFFFFFFFF AND PUSH4 0xE985E9C5 DUP3 ADDRESS PUSH1 0x40 MLOAD DUP4 PUSH4 0xFFFFFFFF AND PUSH1 0xE0 SHL DUP2 MSTORE PUSH1 0x4 ADD PUSH2 0x1392 SWAP3 SWAP2 SWAP1 PUSH2 0x3485 JUMP JUMPDEST PUSH1 0x20 PUSH1 0x40 MLOAD DUP1 DUP4 SUB DUP2 DUP7 DUP1 EXTCODESIZE ISZERO DUP1 ISZERO PUSH2 0x13AA JUMPI PUSH1 0x0 DUP1 REVERT JUMPDEST POP GAS STATICCALL ISZERO DUP1 ISZERO PUSH2 0x13BE JUMPI RETURNDATASIZE PUSH1 0x0 DUP1 RETURNDATACOPY RETURNDATASIZE PUSH1 0x0 REVERT JUMPDEST POP POP POP POP PUSH1 0x40 MLOAD RETURNDATASIZE PUSH1 0x1F NOT PUSH1 0x1F DUP3 ADD AND DUP3 ADD DUP1 PUSH1 0x40 MSTORE POP DUP2 ADD SWAP1 PUSH2 0x13E2 SWAP2 SWAP1 PUSH2 0x30DC JUMP JUMPDEST PUSH2 0x1421 JUMPI PUSH1 0x40 MLOAD PUSH32 0x8C379A000000000000000000000000000000000000000000000000000000000 DUP2 MSTORE PUSH1 0x4 ADD PUSH2 0x1418 SWAP1 PUSH2 0x366C JUMP JUMPDEST PUSH1 0x40 MLOAD DUP1 SWAP2 SUB SWAP1 REVERT JUMPDEST PUSH1 0x0 CALLER SWAP1 POP PUSH1 0x0 PUSH2 0x1430 PUSH2 0x26FD JUMP JUMPDEST SWAP1 POP PUSH1 0x0 DUP2 SWAP1 POP PUSH1 0x0 PUSH1 0xA PUSH1 0x0 DUP8 DUP2 MSTORE PUSH1 0x20 ADD SWAP1 DUP2 MSTORE PUSH1 0x20 ADD PUSH1 0x0 KECCAK256 SLOAD SWAP1 POP DUP3 DUP2 GT ISZERO PUSH2 0x145B JUMPI DUP1 SWAP2 POP JUMPDEST PUSH8 0xDE0B6B3A7640000 DUP3 PUSH2 0x146F SWAP2 SWAP1 PUSH2 0x385A JUMP JUMPDEST PUSH1 0x4 PUSH1 0x0 SWAP1 SLOAD SWAP1 PUSH2 0x100 EXP SWAP1 DIV PUSH20 0xFFFFFFFFFFFFFFFFFFFFFFFFFFFFFFFFFFFFFFFF AND PUSH20 0xFFFFFFFFFFFFFFFFFFFFFFFFFFFFFFFFFFFFFFFF AND PUSH4 0xDD62ED3E DUP7 ADDRESS PUSH1 0x40 MLOAD DUP4 PUSH4 0xFFFFFFFF AND PUSH1 0xE0 SHL DUP2 MSTORE PUSH1 0x4 ADD PUSH2 0x14CC SWAP3 SWAP2 SWAP1 PUSH2 0x3485 JUMP JUMPDEST PUSH1 0x20 PUSH1 0x40 MLOAD DUP1 DUP4 SUB DUP2 DUP7 DUP1 EXTCODESIZE ISZERO DUP1 ISZERO PUSH2 0x14E4 JUMPI PUSH1 0x0 DUP1 REVERT JUMPDEST POP GAS STATICCALL ISZERO DUP1 ISZERO PUSH2 0x14F8 JUMPI RETURNDATASIZE PUSH1 0x0 DUP1 RETURNDATACOPY RETURNDATASIZE PUSH1 0x0 REVERT JUMPDEST POP POP POP POP PUSH1 0x40 MLOAD RETURNDATASIZE PUSH1 0x1F NOT PUSH1 0x1F DUP3 ADD AND DUP3 ADD DUP1 PUSH1 0x40 MSTORE POP DUP2 ADD SWAP1 PUSH2 0x151C SWAP2 SWAP1 PUSH2 0x3136 JUMP JUMPDEST LT ISZERO PUSH2 0x155D JUMPI PUSH1 0x40 MLOAD PUSH32 0x8C379A000000000000000000000000000000000000000000000000000000000 DUP2 MSTORE PUSH1 0x4 ADD PUSH2 0x1554 SWAP1 PUSH2 0x36EC JUMP JUMPDEST PUSH1 0x40 MLOAD DUP1 SWAP2 SUB SWAP1 REVERT JUMPDEST PUSH1 0x4 PUSH1 0x0 SWAP1 SLOAD SWAP1 PUSH2 0x100 EXP SWAP1 DIV PUSH20 0xFFFFFFFFFFFFFFFFFFFFFFFFFFFFFFFFFFFFFFFF AND PUSH20 0xFFFFFFFFFFFFFFFFFFFFFFFFFFFFFFFFFFFFFFFF AND PUSH4 0x23B872DD DUP6 ADDRESS PUSH8 0xDE0B6B3A7640000 DUP7 PUSH2 0x15B1 SWAP2 SWAP1 PUSH2 0x385A JUMP JUMPDEST PUSH1 0x40 MLOAD DUP5 PUSH4 0xFFFFFFFF AND PUSH1 0xE0 SHL DUP2 MSTORE PUSH1 0x4 ADD PUSH2 0x15CF SWAP4 SWAP3 SWAP2 SWAP1 PUSH2 0x34E5 JUMP JUMPDEST PUSH1 0x20 PUSH1 0x40 MLOAD DUP1 DUP4 SUB DUP2 PUSH1 0x0 DUP8 DUP1 EXTCODESIZE ISZERO DUP1 ISZERO PUSH2 0x15E9 JUMPI PUSH1 0x0 DUP1 REVERT JUMPDEST POP GAS CALL ISZERO DUP1 ISZERO PUSH2 0x15FD JUMPI RETURNDATASIZE PUSH1 0x0 DUP1 RETURNDATACOPY RETURNDATASIZE PUSH1 0x0 REVERT JUMPDEST POP POP POP POP PUSH1 0x40 MLOAD RETURNDATASIZE PUSH1 0x1F NOT PUSH1 0x1F DUP3 ADD AND DUP3 ADD DUP1 PUSH1 0x40 MSTORE POP DUP2 ADD SWAP1 PUSH2 0x1621 SWAP2 SWAP1 PUSH2 0x30DC JUMP JUMPDEST POP PUSH1 0x3 PUSH1 0x0 SWAP1 SLOAD SWAP1 PUSH2 0x100 EXP SWAP1 DIV PUSH20 0xFFFFFFFFFFFFFFFFFFFFFFFFFFFFFFFFFFFFFFFF AND PUSH20 0xFFFFFFFFFFFFFFFFFFFFFFFFFFFFFFFFFFFFFFFF AND PUSH4 0x42842E0E DUP7 DUP7 DUP10 PUSH1 0x40 MLOAD DUP5 PUSH4 0xFFFFFFFF AND PUSH1 0xE0 SHL DUP2 MSTORE PUSH1 0x4 ADD PUSH2 0x1681 SWAP4 SWAP3 SWAP2 SWAP1 PUSH2 0x34E5 JUMP JUMPDEST PUSH1 0x0 PUSH1 0x40 MLOAD DUP1 DUP4 SUB DUP2 PUSH1 0x0 DUP8 DUP1 EXTCODESIZE ISZERO DUP1 ISZERO PUSH2 0x169B JUMPI PUSH1 0x0 DUP1 REVERT JUMPDEST POP GAS CALL ISZERO DUP1 ISZERO PUSH2 0x16AF JUMPI RETURNDATASIZE PUSH1 0x0 DUP1 RETURNDATACOPY RETURNDATASIZE PUSH1 0x0 REVERT JUMPDEST POP POP POP POP PUSH1 0x0 DUP4 DUP3 LT PUSH2 0x16DD JUMPI PUSH1 0x64 PUSH1 0x7 SLOAD DUP4 PUSH2 0x16CC SWAP2 SWAP1 PUSH2 0x385A JUMP JUMPDEST PUSH2 0x16D6 SWAP2 SWAP1 PUSH2 0x3829 JUMP JUMPDEST SWAP1 POP PUSH2 0x173A JUMP JUMPDEST DUP2 DUP5 PUSH2 0x16E9 SWAP2 SWAP1 PUSH2 0x38B4 JUMP JUMPDEST PUSH1 0x64 PUSH1 0x7 SLOAD DUP5 PUSH2 0x16F9 SWAP2 SWAP1 PUSH2 0x385A JUMP JUMPDEST PUSH2 0x1703 SWAP2 SWAP1 PUSH2 0x3829 JUMP JUMPDEST GT ISZERO PUSH2 0x172A JUMPI PUSH1 0x64 PUSH1 0x7 SLOAD DUP4 PUSH2 0x1719 SWAP2 SWAP1 PUSH2 0x385A JUMP JUMPDEST PUSH2 0x1723 SWAP2 SWAP1 PUSH2 0x3829 JUMP JUMPDEST SWAP1 POP PUSH2 0x1739 JUMP JUMPDEST DUP2 DUP5 PUSH2 0x1736 SWAP2 SWAP1 PUSH2 0x38B4 JUMP JUMPDEST SWAP1 POP JUMPDEST JUMPDEST PUSH1 0x4 PUSH1 0x0 SWAP1 SLOAD SWAP1 PUSH2 0x100 EXP SWAP1 DIV PUSH20 0xFFFFFFFFFFFFFFFFFFFFFFFFFFFFFFFFFFFFFFFF AND PUSH20 0xFFFFFFFFFFFFFFFFFFFFFFFFFFFFFFFFFFFFFFFF AND PUSH4 0xA9059CBB DUP8 PUSH8 0xDE0B6B3A7640000 DUP5 DUP8 PUSH2 0x178E SWAP2 SWAP1 PUSH2 0x38B4 JUMP JUMPDEST PUSH2 0x1798 SWAP2 SWAP1 PUSH2 0x385A JUMP JUMPDEST PUSH1 0x40 MLOAD DUP4 PUSH4 0xFFFFFFFF AND PUSH1 0xE0 SHL DUP2 MSTORE PUSH1 0x4 ADD PUSH2 0x17B5 SWAP3 SWAP2 SWAP1 PUSH2 0x351C JUMP JUMPDEST PUSH1 0x20 PUSH1 0x40 MLOAD DUP1 DUP4 SUB DUP2 PUSH1 0x0 DUP8 DUP1 EXTCODESIZE ISZERO DUP1 ISZERO PUSH2 0x17CF JUMPI PUSH1 0x0 DUP1 REVERT JUMPDEST POP GAS CALL ISZERO DUP1 ISZERO PUSH2 0x17E3 JUMPI RETURNDATASIZE PUSH1 0x0 DUP1 RETURNDATACOPY RETURNDATASIZE PUSH1 0x0 REVERT JUMPDEST POP POP POP POP PUSH1 0x40 MLOAD RETURNDATASIZE PUSH1 0x1F NOT PUSH1 0x1F DUP3 ADD AND DUP3 ADD DUP1 PUSH1 0x40 MSTORE POP DUP2 ADD SWAP1 PUSH2 0x1807 SWAP2 SWAP1 PUSH2 0x30DC JUMP JUMPDEST POP PUSH1 0x4 PUSH1 0x0 SWAP1 SLOAD SWAP1 PUSH2 0x100 EXP SWAP1 DIV PUSH20 0xFFFFFFFFFFFFFFFFFFFFFFFFFFFFFFFFFFFFFFFF AND PUSH20 0xFFFFFFFFFFFFFFFFFFFFFFFFFFFFFFFFFFFFFFFF AND PUSH4 0xA9059CBB PUSH1 0x1 PUSH1 0x0 SWAP1 SLOAD SWAP1 PUSH2 0x100 EXP SWAP1 DIV PUSH20 0xFFFFFFFFFFFFFFFFFFFFFFFFFFFFFFFFFFFFFFFF AND PUSH8 0xDE0B6B3A7640000 DUP5 PUSH2 0x187D SWAP2 SWAP1 PUSH2 0x385A JUMP JUMPDEST PUSH1 0x40 MLOAD DUP4 PUSH4 0xFFFFFFFF AND PUSH1 0xE0 SHL DUP2 MSTORE PUSH1 0x4 ADD PUSH2 0x189A SWAP3 SWAP2 SWAP1 PUSH2 0x351C JUMP JUMPDEST PUSH1 0x20 PUSH1 0x40 MLOAD DUP1 DUP4 SUB DUP2 PUSH1 0x0 DUP8 DUP1 EXTCODESIZE ISZERO DUP1 ISZERO PUSH2 0x18B4 JUMPI PUSH1 0x0 DUP1 REVERT JUMPDEST POP GAS CALL ISZERO DUP1 ISZERO PUSH2 0x18C8 JUMPI RETURNDATASIZE PUSH1 0x0 DUP1 RETURNDATACOPY RETURNDATASIZE PUSH1 0x0 REVERT JUMPDEST POP POP POP POP PUSH1 0x40 MLOAD RETURNDATASIZE PUSH1 0x1F NOT PUSH1 0x1F DUP3 ADD AND DUP3 ADD DUP1 PUSH1 0x40 MSTORE POP DUP2 ADD SWAP1 PUSH2 0x18EC SWAP2 SWAP1 PUSH2 0x30DC JUMP JUMPDEST POP DUP5 PUSH1 0x9 PUSH1 0x0 DUP10 DUP2 MSTORE PUSH1 0x20 ADD SWAP1 DUP2 MSTORE PUSH1 0x20 ADD PUSH1 0x0 KECCAK256 PUSH1 0x0 PUSH2 0x100 EXP DUP2 SLOAD DUP2 PUSH20 0xFFFFFFFFFFFFFFFFFFFFFFFFFFFFFFFFFFFFFFFF MUL NOT AND SWAP1 DUP4 PUSH20 0xFFFFFFFFFFFFFFFFFFFFFFFFFFFFFFFFFFFFFFFF AND MUL OR SWAP1 SSTORE POP PUSH2 0x1948 DUP8 PUSH2 0x2BC4 JUMP JUMPDEST PUSH32 0x2B66287559B2A137EA3E7A6AB376630EF6165451C4D691BD218B503AA276F89D DUP8 PUSH1 0x40 MLOAD PUSH2 0x1977 SWAP2 SWAP1 PUSH2 0x370C JUMP JUMPDEST PUSH1 0x40 MLOAD DUP1 SWAP2 SUB SWAP1 LOG1 POP POP POP POP POP POP POP JUMP JUMPDEST PUSH1 0x0 PUSH1 0x14 SWAP1 SLOAD SWAP1 PUSH2 0x100 EXP SWAP1 DIV PUSH1 0xFF AND ISZERO PUSH2 0x19A2 JUMPI PUSH1 0x0 DUP1 REVERT JUMPDEST PUSH1 0x0 PUSH1 0xA PUSH1 0x0 DUP5 DUP2 MSTORE PUSH1 0x20 ADD SWAP1 DUP2 MSTORE PUSH1 0x20 ADD PUSH1 0x0 KECCAK256 SLOAD EQ PUSH2 0x19F8 JUMPI PUSH1 0x40 MLOAD PUSH32 0x8C379A000000000000000000000000000000000000000000000000000000000 DUP2 MSTORE PUSH1 0x4 ADD PUSH2 0x19EF SWAP1 PUSH2 0x35CC JUMP JUMPDEST PUSH1 0x40 MLOAD DUP1 SWAP2 SUB SWAP1 REVERT JUMPDEST PUSH1 0x0 CALLER SWAP1 POP DUP1 PUSH20 0xFFFFFFFFFFFFFFFFFFFFFFFFFFFFFFFFFFFFFFFF AND PUSH1 0x3 PUSH1 0x0 SWAP1 SLOAD SWAP1 PUSH2 0x100 EXP SWAP1 DIV PUSH20 0xFFFFFFFFFFFFFFFFFFFFFFFFFFFFFFFFFFFFFFFF AND PUSH20 0xFFFFFFFFFFFFFFFFFFFFFFFFFFFFFFFFFFFFFFFF AND PUSH4 0x6352211E DUP6 PUSH1 0x40 MLOAD DUP3 PUSH4 0xFFFFFFFF AND PUSH1 0xE0 SHL DUP2 MSTORE PUSH1 0x4 ADD PUSH2 0x1A6F SWAP2 SWAP1 PUSH2 0x370C JUMP JUMPDEST PUSH1 0x20 PUSH1 0x40 MLOAD DUP1 DUP4 SUB DUP2 DUP7 DUP1 EXTCODESIZE ISZERO DUP1 ISZERO PUSH2 0x1A87 JUMPI PUSH1 0x0 DUP1 REVERT JUMPDEST POP GAS STATICCALL ISZERO DUP1 ISZERO PUSH2 0x1A9B JUMPI RETURNDATASIZE PUSH1 0x0 DUP1 RETURNDATACOPY RETURNDATASIZE PUSH1 0x0 REVERT JUMPDEST POP POP POP POP PUSH1 0x40 MLOAD RETURNDATASIZE PUSH1 0x1F NOT PUSH1 0x1F DUP3 ADD AND DUP3 ADD DUP1 PUSH1 0x40 MSTORE POP DUP2 ADD SWAP1 PUSH2 0x1ABF SWAP2 SWAP1 PUSH2 0x306F JUMP JUMPDEST PUSH20 0xFFFFFFFFFFFFFFFFFFFFFFFFFFFFFFFFFFFFFFFF AND EQ PUSH2 0x1B15 JUMPI PUSH1 0x40 MLOAD PUSH32 0x8C379A000000000000000000000000000000000000000000000000000000000 DUP2 MSTORE PUSH1 0x4 ADD PUSH2 0x1B0C SWAP1 PUSH2 0x35AC JUMP JUMPDEST PUSH1 0x40 MLOAD DUP1 SWAP2 SUB SWAP1 REVERT JUMPDEST PUSH1 0x3 PUSH1 0x0 SWAP1 SLOAD SWAP1 PUSH2 0x100 EXP SWAP1 DIV PUSH20 0xFFFFFFFFFFFFFFFFFFFFFFFFFFFFFFFFFFFFFFFF AND PUSH20 0xFFFFFFFFFFFFFFFFFFFFFFFFFFFFFFFFFFFFFFFF AND PUSH4 0xE985E9C5 DUP3 ADDRESS PUSH1 0x40 MLOAD DUP4 PUSH4 0xFFFFFFFF AND PUSH1 0xE0 SHL DUP2 MSTORE PUSH1 0x4 ADD PUSH2 0x1B72 SWAP3 SWAP2 SWAP1 PUSH2 0x3485 JUMP JUMPDEST PUSH1 0x20 PUSH1 0x40 MLOAD DUP1 DUP4 SUB DUP2 DUP7 DUP1 EXTCODESIZE ISZERO DUP1 ISZERO PUSH2 0x1B8A JUMPI PUSH1 0x0 DUP1 REVERT JUMPDEST POP GAS STATICCALL ISZERO DUP1 ISZERO PUSH2 0x1B9E JUMPI RETURNDATASIZE PUSH1 0x0 DUP1 RETURNDATACOPY RETURNDATASIZE PUSH1 0x0 REVERT JUMPDEST POP POP POP POP PUSH1 0x40 MLOAD RETURNDATASIZE PUSH1 0x1F NOT PUSH1 0x1F DUP3 ADD AND DUP3 ADD DUP1 PUSH1 0x40 MSTORE POP DUP2 ADD SWAP1 PUSH2 0x1BC2 SWAP2 SWAP1 PUSH2 0x30DC JUMP JUMPDEST PUSH2 0x1C01 JUMPI PUSH1 0x40 MLOAD PUSH32 0x8C379A000000000000000000000000000000000000000000000000000000000 DUP2 MSTORE PUSH1 0x4 ADD PUSH2 0x1BF8 SWAP1 PUSH2 0x366C JUMP JUMPDEST PUSH1 0x40 MLOAD DUP1 SWAP2 SUB SWAP1 REVERT JUMPDEST PUSH1 0x0 DUP3 GT PUSH2 0x1C44 JUMPI PUSH1 0x40 MLOAD PUSH32 0x8C379A000000000000000000000000000000000000000000000000000000000 DUP2 MSTORE PUSH1 0x4 ADD PUSH2 0x1C3B SWAP1 PUSH2 0x364C JUMP JUMPDEST PUSH1 0x40 MLOAD DUP1 SWAP2 SUB SWAP1 REVERT JUMPDEST PUSH2 0x1C4F DUP4 DUP4 DUP4 PUSH2 0x2CD7 JUMP JUMPDEST PUSH32 0x55BB046A6E950AF74FCDAAA97A1A82C49209D72A5FCDA0925A019DFBA29C8F72 DUP4 DUP4 PUSH1 0x40 MLOAD PUSH2 0x1C80 SWAP3 SWAP2 SWAP1 PUSH2 0x3727 JUMP JUMPDEST PUSH1 0x40 MLOAD DUP1 SWAP2 SUB SWAP1 LOG1 POP POP POP JUMP JUMPDEST PUSH1 0x0 PUSH2 0x1C97 PUSH2 0x1F3F JUMP JUMPDEST PUSH2 0x1CD6 JUMPI PUSH1 0x40 MLOAD PUSH32 0x8C379A000000000000000000000000000000000000000000000000000000000 DUP2 MSTORE PUSH1 0x4 ADD PUSH2 0x1CCD SWAP1 PUSH2 0x36AC JUMP JUMPDEST PUSH1 0x40 MLOAD DUP1 SWAP2 SUB SWAP1 REVERT JUMPDEST PUSH1 0x0 PUSH1 0x14 SWAP1 SLOAD SWAP1 PUSH2 0x100 EXP SWAP1 DIV PUSH1 0xFF AND ISZERO PUSH2 0x1CF0 JUMPI PUSH1 0x0 DUP1 REVERT JUMPDEST PUSH1 0x1 PUSH1 0x0 PUSH1 0x14 PUSH2 0x100 EXP DUP2 SLOAD DUP2 PUSH1 0xFF MUL NOT AND SWAP1 DUP4 ISZERO ISZERO MUL OR SWAP1 SSTORE POP PUSH32 0x6985A02210A168E66602D3235CB6DB0E70F92B3BA4D376A33C0F3D9434BFF625 PUSH1 0x40 MLOAD PUSH1 0x40 MLOAD DUP1 SWAP2 SUB SWAP1 LOG1 PUSH1 0x1 SWAP1 POP SWAP1 JUMP JUMPDEST PUSH2 0x1D46 PUSH2 0x1F3F JUMP JUMPDEST PUSH2 0x1D85 JUMPI PUSH1 0x40 MLOAD PUSH32 0x8C379A000000000000000000000000000000000000000000000000000000000 DUP2 MSTORE PUSH1 0x4 ADD PUSH2 0x1D7C SWAP1 PUSH2 0x36AC JUMP JUMPDEST PUSH1 0x40 MLOAD DUP1 SWAP2 SUB SWAP1 REVERT JUMPDEST PUSH1 0x0 DUP3 PUSH20 0xFFFFFFFFFFFFFFFFFFFFFFFFFFFFFFFFFFFFFFFF AND PUSH4 0x70A08231 ADDRESS PUSH1 0x40 MLOAD DUP3 PUSH4 0xFFFFFFFF AND PUSH1 0xE0 SHL DUP2 MSTORE PUSH1 0x4 ADD PUSH2 0x1DC0 SWAP2 SWAP1 PUSH2 0x346A JUMP JUMPDEST PUSH1 0x20 PUSH1 0x40 MLOAD DUP1 DUP4 SUB DUP2 DUP7 DUP1 EXTCODESIZE ISZERO DUP1 ISZERO PUSH2 0x1DD8 JUMPI PUSH1 0x0 DUP1 REVERT JUMPDEST POP GAS STATICCALL ISZERO DUP1 ISZERO PUSH2 0x1DEC JUMPI RETURNDATASIZE PUSH1 0x0 DUP1 RETURNDATACOPY RETURNDATASIZE PUSH1 0x0 REVERT JUMPDEST POP POP POP POP PUSH1 0x40 MLOAD RETURNDATASIZE PUSH1 0x1F NOT PUSH1 0x1F DUP3 ADD AND DUP3 ADD DUP1 PUSH1 0x40 MSTORE POP DUP2 ADD SWAP1 PUSH2 0x1E10 SWAP2 SWAP1 PUSH2 0x3136 JUMP JUMPDEST SWAP1 POP PUSH1 0x0 DUP3 GT DUP1 ISZERO PUSH2 0x1E22 JUMPI POP DUP1 DUP3 GT ISZERO JUMPDEST PUSH2 0x1E61 JUMPI PUSH1 0x40 MLOAD PUSH32 0x8C379A000000000000000000000000000000000000000000000000000000000 DUP2 MSTORE PUSH1 0x4 ADD PUSH2 0x1E58 SWAP1 PUSH2 0x360C JUMP JUMPDEST PUSH1 0x40 MLOAD DUP1 SWAP2 SUB SWAP1 REVERT JUMPDEST DUP3 PUSH20 0xFFFFFFFFFFFFFFFFFFFFFFFFFFFFFFFFFFFFFFFF AND PUSH4 0xA9059CBB PUSH1 0x8 PUSH1 0x0 SWAP1 SLOAD SWAP1 PUSH2 0x100 EXP SWAP1 DIV PUSH20 0xFFFFFFFFFFFFFFFFFFFFFFFFFFFFFFFFFFFFFFFF AND DUP5 PUSH1 0x40 MLOAD DUP4 PUSH4 0xFFFFFFFF AND PUSH1 0xE0 SHL DUP2 MSTORE PUSH1 0x4 ADD PUSH2 0x1EBE SWAP3 SWAP2 SWAP1 PUSH2 0x351C JUMP JUMPDEST PUSH1 0x20 PUSH1 0x40 MLOAD DUP1 DUP4 SUB DUP2 PUSH1 0x0 DUP8 DUP1 EXTCODESIZE ISZERO DUP1 ISZERO PUSH2 0x1ED8 JUMPI PUSH1 0x0 DUP1 REVERT JUMPDEST POP GAS CALL ISZERO DUP1 ISZERO PUSH2 0x1EEC JUMPI RETURNDATASIZE PUSH1 0x0 DUP1 RETURNDATACOPY RETURNDATASIZE PUSH1 0x0 REVERT JUMPDEST POP POP POP POP PUSH1 0x40 MLOAD RETURNDATASIZE PUSH1 0x1F NOT PUSH1 0x1F DUP3 ADD AND DUP3 ADD DUP1 PUSH1 0x40 MSTORE POP DUP2 ADD SWAP1 PUSH2 0x1F10 SWAP2 SWAP1 PUSH2 0x30DC JUMP JUMPDEST POP POP POP POP JUMP JUMPDEST PUSH1 0x0 DUP1 PUSH1 0x0 SWAP1 SLOAD SWAP1 PUSH2 0x100 EXP SWAP1 DIV PUSH20 0xFFFFFFFFFFFFFFFFFFFFFFFFFFFFFFFFFFFFFFFF AND SWAP1 POP SWAP1 JUMP JUMPDEST PUSH1 0x0 DUP1 PUSH1 0x0 SWAP1 SLOAD SWAP1 PUSH2 0x100 EXP SWAP1 DIV PUSH20 0xFFFFFFFFFFFFFFFFFFFFFFFFFFFFFFFFFFFFFFFF AND PUSH20 0xFFFFFFFFFFFFFFFFFFFFFFFFFFFFFFFFFFFFFFFF AND PUSH2 0x1F81 PUSH2 0x2EA4 JUMP JUMPDEST PUSH20 0xFFFFFFFFFFFFFFFFFFFFFFFFFFFFFFFFFFFFFFFF AND EQ SWAP1 POP SWAP1 JUMP JUMPDEST PUSH1 0x60 DUP1 PUSH1 0x60 PUSH1 0x0 PUSH1 0xC DUP1 SLOAD SWAP1 POP SWAP1 POP PUSH1 0x0 DUP2 PUSH8 0xFFFFFFFFFFFFFFFF DUP2 GT ISZERO PUSH2 0x1FC8 JUMPI PUSH2 0x1FC7 PUSH2 0x3A71 JUMP JUMPDEST JUMPDEST PUSH1 0x40 MLOAD SWAP1 DUP1 DUP3 MSTORE DUP1 PUSH1 0x20 MUL PUSH1 0x20 ADD DUP3 ADD PUSH1 0x40 MSTORE DUP1 ISZERO PUSH2 0x1FF6 JUMPI DUP2 PUSH1 0x20 ADD PUSH1 0x20 DUP3 MUL DUP1 CALLDATASIZE DUP4 CALLDATACOPY DUP1 DUP3 ADD SWAP2 POP POP SWAP1 POP JUMPDEST POP SWAP1 POP PUSH1 0x0 DUP3 PUSH8 0xFFFFFFFFFFFFFFFF DUP2 GT ISZERO PUSH2 0x2015 JUMPI PUSH2 0x2014 PUSH2 0x3A71 JUMP JUMPDEST JUMPDEST PUSH1 0x40 MLOAD SWAP1 DUP1 DUP3 MSTORE DUP1 PUSH1 0x20 MUL PUSH1 0x20 ADD DUP3 ADD PUSH1 0x40 MSTORE DUP1 ISZERO PUSH2 0x2043 JUMPI DUP2 PUSH1 0x20 ADD PUSH1 0x20 DUP3 MUL DUP1 CALLDATASIZE DUP4 CALLDATACOPY DUP1 DUP3 ADD SWAP2 POP POP SWAP1 POP JUMPDEST POP SWAP1 POP PUSH1 0x0 JUMPDEST DUP4 DUP2 LT ISZERO PUSH2 0x2317 JUMPI PUSH1 0xB PUSH1 0x0 PUSH1 0xC DUP4 DUP2 SLOAD DUP2 LT PUSH2 0x2069 JUMPI PUSH2 0x2068 PUSH2 0x3A42 JUMP JUMPDEST JUMPDEST SWAP1 PUSH1 0x0 MSTORE PUSH1 0x20 PUSH1 0x0 KECCAK256 ADD SLOAD DUP2 MSTORE PUSH1 0x20 ADD SWAP1 DUP2 MSTORE PUSH1 0x20 ADD PUSH1 0x0 KECCAK256 PUSH1 0x0 SWAP1 SLOAD SWAP1 PUSH2 0x100 EXP SWAP1 DIV PUSH20 0xFFFFFFFFFFFFFFFFFFFFFFFFFFFFFFFFFFFFFFFF AND PUSH20 0xFFFFFFFFFFFFFFFFFFFFFFFFFFFFFFFFFFFFFFFF AND PUSH1 0x3 PUSH1 0x0 SWAP1 SLOAD SWAP1 PUSH2 0x100 EXP SWAP1 DIV PUSH20 0xFFFFFFFFFFFFFFFFFFFFFFFFFFFFFFFFFFFFFFFF AND PUSH20 0xFFFFFFFFFFFFFFFFFFFFFFFFFFFFFFFFFFFFFFFF AND PUSH4 0x6352211E PUSH1 0xC DUP5 DUP2 SLOAD DUP2 LT PUSH2 0x210B JUMPI PUSH2 0x210A PUSH2 0x3A42 JUMP JUMPDEST JUMPDEST SWAP1 PUSH1 0x0 MSTORE PUSH1 0x20 PUSH1 0x0 KECCAK256 ADD SLOAD PUSH1 0x40 MLOAD DUP3 PUSH4 0xFFFFFFFF AND PUSH1 0xE0 SHL DUP2 MSTORE PUSH1 0x4 ADD PUSH2 0x2132 SWAP2 SWAP1 PUSH2 0x370C JUMP JUMPDEST PUSH1 0x20 PUSH1 0x40 MLOAD DUP1 DUP4 SUB DUP2 DUP7 DUP1 EXTCODESIZE ISZERO DUP1 ISZERO PUSH2 0x214A JUMPI PUSH1 0x0 DUP1 REVERT JUMPDEST POP GAS STATICCALL ISZERO DUP1 ISZERO PUSH2 0x215E JUMPI RETURNDATASIZE PUSH1 0x0 DUP1 RETURNDATACOPY RETURNDATASIZE PUSH1 0x0 REVERT JUMPDEST POP POP POP POP PUSH1 0x40 MLOAD RETURNDATASIZE PUSH1 0x1F NOT PUSH1 0x1F DUP3 ADD AND DUP3 ADD DUP1 PUSH1 0x40 MSTORE POP DUP2 ADD SWAP1 PUSH2 0x2182 SWAP2 SWAP1 PUSH2 0x306F JUMP JUMPDEST PUSH20 0xFFFFFFFFFFFFFFFFFFFFFFFFFFFFFFFFFFFFFFFF AND EQ ISZERO PUSH2 0x2293 JUMPI PUSH1 0xA PUSH1 0x0 PUSH1 0xC DUP4 DUP2 SLOAD DUP2 LT PUSH2 0x21B6 JUMPI PUSH2 0x21B5 PUSH2 0x3A42 JUMP JUMPDEST JUMPDEST SWAP1 PUSH1 0x0 MSTORE PUSH1 0x20 PUSH1 0x0 KECCAK256 ADD SLOAD DUP2 MSTORE PUSH1 0x20 ADD SWAP1 DUP2 MSTORE PUSH1 0x20 ADD PUSH1 0x0 KECCAK256 SLOAD DUP4 DUP3 DUP2 MLOAD DUP2 LT PUSH2 0x21E3 JUMPI PUSH2 0x21E2 PUSH2 0x3A42 JUMP JUMPDEST JUMPDEST PUSH1 0x20 MUL PUSH1 0x20 ADD ADD DUP2 DUP2 MSTORE POP POP PUSH1 0xB PUSH1 0x0 PUSH1 0xC DUP4 DUP2 SLOAD DUP2 LT PUSH2 0x2207 JUMPI PUSH2 0x2206 PUSH2 0x3A42 JUMP JUMPDEST JUMPDEST SWAP1 PUSH1 0x0 MSTORE PUSH1 0x20 PUSH1 0x0 KECCAK256 ADD SLOAD DUP2 MSTORE PUSH1 0x20 ADD SWAP1 DUP2 MSTORE PUSH1 0x20 ADD PUSH1 0x0 KECCAK256 PUSH1 0x0 SWAP1 SLOAD SWAP1 PUSH2 0x100 EXP SWAP1 DIV PUSH20 0xFFFFFFFFFFFFFFFFFFFFFFFFFFFFFFFFFFFFFFFF AND DUP3 DUP3 DUP2 MLOAD DUP2 LT PUSH2 0x2254 JUMPI PUSH2 0x2253 PUSH2 0x3A42 JUMP JUMPDEST JUMPDEST PUSH1 0x20 MUL PUSH1 0x20 ADD ADD SWAP1 PUSH20 0xFFFFFFFFFFFFFFFFFFFFFFFFFFFFFFFFFFFFFFFF AND SWAP1 DUP2 PUSH20 0xFFFFFFFFFFFFFFFFFFFFFFFFFFFFFFFFFFFFFFFF AND DUP2 MSTORE POP POP PUSH2 0x2304 JUMP JUMPDEST PUSH1 0x0 DUP4 DUP3 DUP2 MLOAD DUP2 LT PUSH2 0x22A8 JUMPI PUSH2 0x22A7 PUSH2 0x3A42 JUMP JUMPDEST JUMPDEST PUSH1 0x20 MUL PUSH1 0x20 ADD ADD DUP2 DUP2 MSTORE POP POP PUSH1 0x0 DUP3 DUP3 DUP2 MLOAD DUP2 LT PUSH2 0x22C9 JUMPI PUSH2 0x22C8 PUSH2 0x3A42 JUMP JUMPDEST JUMPDEST PUSH1 0x20 MUL PUSH1 0x20 ADD ADD SWAP1 PUSH20 0xFFFFFFFFFFFFFFFFFFFFFFFFFFFFFFFFFFFFFFFF AND SWAP1 DUP2 PUSH20 0xFFFFFFFFFFFFFFFFFFFFFFFFFFFFFFFFFFFFFFFF AND DUP2 MSTORE POP POP JUMPDEST DUP1 DUP1 PUSH2 0x230F SWAP1 PUSH2 0x396C JUMP JUMPDEST SWAP2 POP POP PUSH2 0x2049 JUMP JUMPDEST POP PUSH1 0xC DUP2 DUP4 DUP3 DUP1 SLOAD DUP1 PUSH1 0x20 MUL PUSH1 0x20 ADD PUSH1 0x40 MLOAD SWAP1 DUP2 ADD PUSH1 0x40 MSTORE DUP1 SWAP3 SWAP2 SWAP1 DUP2 DUP2 MSTORE PUSH1 0x20 ADD DUP3 DUP1 SLOAD DUP1 ISZERO PUSH2 0x2367 JUMPI PUSH1 0x20 MUL DUP3 ADD SWAP2 SWAP1 PUSH1 0x0 MSTORE PUSH1 0x20 PUSH1 0x0 KECCAK256 SWAP1 JUMPDEST DUP2 SLOAD DUP2 MSTORE PUSH1 0x20 ADD SWAP1 PUSH1 0x1 ADD SWAP1 DUP1 DUP4 GT PUSH2 0x2353 JUMPI JUMPDEST POP POP POP POP POP SWAP3 POP SWAP6 POP SWAP6 POP SWAP6 POP POP POP POP SWAP1 SWAP2 SWAP3 JUMP JUMPDEST PUSH2 0x2384 PUSH2 0x1F3F JUMP JUMPDEST PUSH2 0x23C3 JUMPI PUSH1 0x40 MLOAD PUSH32 0x8C379A000000000000000000000000000000000000000000000000000000000 DUP2 MSTORE PUSH1 0x4 ADD PUSH2 0x23BA SWAP1 PUSH2 0x36AC JUMP JUMPDEST PUSH1 0x40 MLOAD DUP1 SWAP2 SUB SWAP1 REVERT JUMPDEST DUP1 PUSH1 0x2 PUSH1 0x0 PUSH2 0x100 EXP DUP2 SLOAD DUP2 PUSH20 0xFFFFFFFFFFFFFFFFFFFFFFFFFFFFFFFFFFFFFFFF MUL NOT AND SWAP1 DUP4 PUSH20 0xFFFFFFFFFFFFFFFFFFFFFFFFFFFFFFFFFFFFFFFF AND MUL OR SWAP1 SSTORE POP PUSH32 0xACDD85D235B5B49226C2C4F2B72CB01FA1CC3AE64BB843A6DEF27788D05B1B60 PUSH1 0x2 PUSH1 0x0 SWAP1 SLOAD SWAP1 PUSH2 0x100 EXP SWAP1 DIV PUSH20 0xFFFFFFFFFFFFFFFFFFFFFFFFFFFFFFFFFFFFFFFF AND PUSH1 0x40 MLOAD PUSH2 0x2455 SWAP2 SWAP1 PUSH2 0x346A JUMP JUMPDEST PUSH1 0x40 MLOAD DUP1 SWAP2 SUB SWAP1 LOG1 POP JUMP JUMPDEST PUSH1 0x8 PUSH1 0x0 SWAP1 SLOAD SWAP1 PUSH2 0x100 EXP SWAP1 DIV PUSH20 0xFFFFFFFFFFFFFFFFFFFFFFFFFFFFFFFFFFFFFFFF AND DUP2 JUMP JUMPDEST PUSH1 0x4 PUSH1 0x0 SWAP1 SLOAD SWAP1 PUSH2 0x100 EXP SWAP1 DIV PUSH20 0xFFFFFFFFFFFFFFFFFFFFFFFFFFFFFFFFFFFFFFFF AND DUP2 JUMP JUMPDEST PUSH1 0x0 SELFBALANCE SWAP1 POP SWAP1 JUMP JUMPDEST PUSH1 0x6 SLOAD DUP2 JUMP JUMPDEST PUSH2 0x24C2 PUSH2 0x1F3F JUMP JUMPDEST PUSH2 0x2501 JUMPI PUSH1 0x40 MLOAD PUSH32 0x8C379A000000000000000000000000000000000000000000000000000000000 DUP2 MSTORE PUSH1 0x4 ADD PUSH2 0x24F8 SWAP1 PUSH2 0x36AC JUMP JUMPDEST PUSH1 0x40 MLOAD DUP1 SWAP2 SUB SWAP1 REVERT JUMPDEST DUP1 PUSH1 0x8 PUSH1 0x0 PUSH2 0x100 EXP DUP2 SLOAD DUP2 PUSH20 0xFFFFFFFFFFFFFFFFFFFFFFFFFFFFFFFFFFFFFFFF MUL NOT AND SWAP1 DUP4 PUSH20 0xFFFFFFFFFFFFFFFFFFFFFFFFFFFFFFFFFFFFFFFF AND MUL OR SWAP1 SSTORE POP POP JUMP JUMPDEST PUSH2 0x254D PUSH2 0x1F3F JUMP JUMPDEST PUSH2 0x258C JUMPI PUSH1 0x40 MLOAD PUSH32 0x8C379A000000000000000000000000000000000000000000000000000000000 DUP2 MSTORE PUSH1 0x4 ADD PUSH2 0x2583 SWAP1 PUSH2 0x36AC JUMP JUMPDEST PUSH1 0x40 MLOAD DUP1 SWAP2 SUB SWAP1 REVERT JUMPDEST PUSH1 0x0 SELFBALANCE SWAP1 POP PUSH1 0x0 DUP3 GT DUP1 ISZERO PUSH2 0x25A1 JUMPI POP DUP1 DUP3 GT ISZERO JUMPDEST PUSH2 0x25E0 JUMPI PUSH1 0x40 MLOAD PUSH32 0x8C379A000000000000000000000000000000000000000000000000000000000 DUP2 MSTORE PUSH1 0x4 ADD PUSH2 0x25D7 SWAP1 PUSH2 0x360C JUMP JUMPDEST PUSH1 0x40 MLOAD DUP1 SWAP2 SUB SWAP1 REVERT JUMPDEST PUSH1 0x8 PUSH1 0x0 SWAP1 SLOAD SWAP1 PUSH2 0x100 EXP SWAP1 DIV PUSH20 0xFFFFFFFFFFFFFFFFFFFFFFFFFFFFFFFFFFFFFFFF AND PUSH20 0xFFFFFFFFFFFFFFFFFFFFFFFFFFFFFFFFFFFFFFFF AND PUSH2 0x8FC DUP4 SWAP1 DUP2 ISZERO MUL SWAP1 PUSH1 0x40 MLOAD PUSH1 0x0 PUSH1 0x40 MLOAD DUP1 DUP4 SUB DUP2 DUP6 DUP9 DUP9 CALL SWAP4 POP POP POP POP ISZERO DUP1 ISZERO PUSH2 0x2648 JUMPI RETURNDATASIZE PUSH1 0x0 DUP1 RETURNDATACOPY RETURNDATASIZE PUSH1 0x0 REVERT JUMPDEST POP POP POP JUMP JUMPDEST PUSH1 0x3 PUSH1 0x0 SWAP1 SLOAD SWAP1 PUSH2 0x100 EXP SWAP1 DIV PUSH20 0xFFFFFFFFFFFFFFFFFFFFFFFFFFFFFFFFFFFFFFFF AND DUP2 JUMP JUMPDEST PUSH2 0x267B PUSH2 0x1F3F JUMP JUMPDEST PUSH2 0x26BA JUMPI PUSH1 0x40 MLOAD PUSH32 0x8C379A000000000000000000000000000000000000000000000000000000000 DUP2 MSTORE PUSH1 0x4 ADD PUSH2 0x26B1 SWAP1 PUSH2 0x36AC JUMP JUMPDEST PUSH1 0x40 MLOAD DUP1 SWAP2 SUB SWAP1 REVERT JUMPDEST DUP1 PUSH1 0x6 DUP2 SWAP1 SSTORE POP PUSH32 0x4D8E30FF458BEBDD848488669E63D632954487CA1BC64C28F3C920F74A5F8594 PUSH1 0x6 SLOAD PUSH1 0x40 MLOAD PUSH2 0x26F2 SWAP2 SWAP1 PUSH2 0x370C JUMP JUMPDEST PUSH1 0x40 MLOAD DUP1 SWAP2 SUB SWAP1 LOG1 POP JUMP JUMPDEST PUSH1 0x0 DUP1 PUSH1 0x5 PUSH1 0x0 SWAP1 SLOAD SWAP1 PUSH2 0x100 EXP SWAP1 DIV PUSH20 0xFFFFFFFFFFFFFFFFFFFFFFFFFFFFFFFFFFFFFFFF AND PUSH20 0xFFFFFFFFFFFFFFFFFFFFFFFFFFFFFFFFFFFFFFFF AND PUSH4 0x70A08231 PUSH1 0x2 PUSH1 0x0 SWAP1 SLOAD SWAP1 PUSH2 0x100 EXP SWAP1 DIV PUSH20 0xFFFFFFFFFFFFFFFFFFFFFFFFFFFFFFFFFFFFFFFF AND PUSH1 0x40 MLOAD DUP3 PUSH4 0xFFFFFFFF AND PUSH1 0xE0 SHL DUP2 MSTORE PUSH1 0x4 ADD PUSH2 0x277D SWAP2 SWAP1 PUSH2 0x346A JUMP JUMPDEST PUSH1 0x20 PUSH1 0x40 MLOAD DUP1 DUP4 SUB DUP2 DUP7 DUP1 EXTCODESIZE ISZERO DUP1 ISZERO PUSH2 0x2795 JUMPI PUSH1 0x0 DUP1 REVERT JUMPDEST POP GAS STATICCALL ISZERO DUP1 ISZERO PUSH2 0x27A9 JUMPI RETURNDATASIZE PUSH1 0x0 DUP1 RETURNDATACOPY RETURNDATASIZE PUSH1 0x0 REVERT JUMPDEST POP POP POP POP PUSH1 0x40 MLOAD RETURNDATASIZE PUSH1 0x1F NOT PUSH1 0x1F DUP3 ADD AND DUP3 ADD DUP1 PUSH1 0x40 MSTORE POP DUP2 ADD SWAP1 PUSH2 0x27CD SWAP2 SWAP1 PUSH2 0x3136 JUMP JUMPDEST SWAP1 POP PUSH1 0x0 PUSH1 0x4 PUSH1 0x0 SWAP1 SLOAD SWAP1 PUSH2 0x100 EXP SWAP1 DIV PUSH20 0xFFFFFFFFFFFFFFFFFFFFFFFFFFFFFFFFFFFFFFFF AND PUSH20 0xFFFFFFFFFFFFFFFFFFFFFFFFFFFFFFFFFFFFFFFF AND PUSH4 0x70A08231 PUSH1 0x2 PUSH1 0x0 SWAP1 SLOAD SWAP1 PUSH2 0x100 EXP SWAP1 DIV PUSH20 0xFFFFFFFFFFFFFFFFFFFFFFFFFFFFFFFFFFFFFFFF AND PUSH1 0x40 MLOAD DUP3 PUSH4 0xFFFFFFFF AND PUSH1 0xE0 SHL DUP2 MSTORE PUSH1 0x4 ADD PUSH2 0x284E SWAP2 SWAP1 PUSH2 0x346A JUMP JUMPDEST PUSH1 0x20 PUSH1 0x40 MLOAD DUP1 DUP4 SUB DUP2 DUP7 DUP1 EXTCODESIZE ISZERO DUP1 ISZERO PUSH2 0x2866 JUMPI PUSH1 0x0 DUP1 REVERT JUMPDEST POP GAS STATICCALL ISZERO DUP1 ISZERO PUSH2 0x287A JUMPI RETURNDATASIZE PUSH1 0x0 DUP1 RETURNDATACOPY RETURNDATASIZE PUSH1 0x0 REVERT JUMPDEST POP POP POP POP PUSH1 0x40 MLOAD RETURNDATASIZE PUSH1 0x1F NOT PUSH1 0x1F DUP3 ADD AND DUP3 ADD DUP1 PUSH1 0x40 MSTORE POP DUP2 ADD SWAP1 PUSH2 0x289E SWAP2 SWAP1 PUSH2 0x3136 JUMP JUMPDEST SWAP1 POP PUSH1 0x0 DUP3 DUP3 PUSH2 0x28AE SWAP2 SWAP1 PUSH2 0x3829 JUMP JUMPDEST SWAP1 POP PUSH1 0x0 PUSH1 0xA PUSH1 0x6 SLOAD DUP4 PUSH2 0x28C2 SWAP2 SWAP1 PUSH2 0x385A JUMP JUMPDEST PUSH2 0x28CC SWAP2 SWAP1 PUSH2 0x3829 JUMP JUMPDEST SWAP1 POP DUP1 SWAP5 POP POP POP POP POP SWAP1 JUMP JUMPDEST PUSH2 0x28E0 PUSH2 0x1F3F JUMP JUMPDEST PUSH2 0x291F JUMPI PUSH1 0x40 MLOAD PUSH32 0x8C379A000000000000000000000000000000000000000000000000000000000 DUP2 MSTORE PUSH1 0x4 ADD PUSH2 0x2916 SWAP1 PUSH2 0x36AC JUMP JUMPDEST PUSH1 0x40 MLOAD DUP1 SWAP2 SUB SWAP1 REVERT JUMPDEST DUP1 PUSH1 0x1 PUSH1 0x0 PUSH2 0x100 EXP DUP2 SLOAD DUP2 PUSH20 0xFFFFFFFFFFFFFFFFFFFFFFFFFFFFFFFFFFFFFFFF MUL NOT AND SWAP1 DUP4 PUSH20 0xFFFFFFFFFFFFFFFFFFFFFFFFFFFFFFFFFFFFFFFF AND MUL OR SWAP1 SSTORE POP PUSH32 0xB14F2A39BB21FDA32827BBDB4BE629C94036E10A3F6055A6454F884CA1B33FA1 PUSH1 0x1 PUSH1 0x0 SWAP1 SLOAD SWAP1 PUSH2 0x100 EXP SWAP1 DIV PUSH20 0xFFFFFFFFFFFFFFFFFFFFFFFFFFFFFFFFFFFFFFFF AND PUSH1 0x40 MLOAD PUSH2 0x29B1 SWAP2 SWAP1 PUSH2 0x346A JUMP JUMPDEST PUSH1 0x40 MLOAD DUP1 SWAP2 SUB SWAP1 LOG1 POP JUMP JUMPDEST PUSH2 0x29C4 PUSH2 0x1F3F JUMP JUMPDEST PUSH2 0x2A03 JUMPI PUSH1 0x40 MLOAD PUSH32 0x8C379A000000000000000000000000000000000000000000000000000000000 DUP2 MSTORE PUSH1 0x4 ADD PUSH2 0x29FA SWAP1 PUSH2 0x36AC JUMP JUMPDEST PUSH1 0x40 MLOAD DUP1 SWAP2 SUB SWAP1 REVERT JUMPDEST PUSH2 0x2A0C DUP2 PUSH2 0x2EAC JUMP JUMPDEST POP JUMP JUMPDEST PUSH9 0x56BC75E2D63100000 PUSH1 0x4 PUSH1 0x0 SWAP1 SLOAD SWAP1 PUSH2 0x100 EXP SWAP1 DIV PUSH20 0xFFFFFFFFFFFFFFFFFFFFFFFFFFFFFFFFFFFFFFFF AND PUSH20 0xFFFFFFFFFFFFFFFFFFFFFFFFFFFFFFFFFFFFFFFF AND PUSH4 0xDD62ED3E CALLER ADDRESS PUSH1 0x40 MLOAD DUP4 PUSH4 0xFFFFFFFF AND PUSH1 0xE0 SHL DUP2 MSTORE PUSH1 0x4 ADD PUSH2 0x2A76 SWAP3 SWAP2 SWAP1 PUSH2 0x3485 JUMP JUMPDEST PUSH1 0x20 PUSH1 0x40 MLOAD DUP1 DUP4 SUB DUP2 DUP7 DUP1 EXTCODESIZE ISZERO DUP1 ISZERO PUSH2 0x2A8E JUMPI PUSH1 0x0 DUP1 REVERT JUMPDEST POP GAS STATICCALL ISZERO DUP1 ISZERO PUSH2 0x2AA2 JUMPI RETURNDATASIZE PUSH1 0x0 DUP1 RETURNDATACOPY RETURNDATASIZE PUSH1 0x0 REVERT JUMPDEST POP POP POP POP PUSH1 0x40 MLOAD RETURNDATASIZE PUSH1 0x1F NOT PUSH1 0x1F DUP3 ADD AND DUP3 ADD DUP1 PUSH1 0x40 MSTORE POP DUP2 ADD SWAP1 PUSH2 0x2AC6 SWAP2 SWAP1 PUSH2 0x3136 JUMP JUMPDEST LT ISZERO PUSH2 0x2B07 JUMPI PUSH1 0x40 MLOAD PUSH32 0x8C379A000000000000000000000000000000000000000000000000000000000 DUP2 MSTORE PUSH1 0x4 ADD PUSH2 0x2AFE SWAP1 PUSH2 0x36EC JUMP JUMPDEST PUSH1 0x40 MLOAD DUP1 SWAP2 SUB SWAP1 REVERT JUMPDEST PUSH1 0x4 PUSH1 0x0 SWAP1 SLOAD SWAP1 PUSH2 0x100 EXP SWAP1 DIV PUSH20 0xFFFFFFFFFFFFFFFFFFFFFFFFFFFFFFFFFFFFFFFF AND PUSH20 0xFFFFFFFFFFFFFFFFFFFFFFFFFFFFFFFFFFFFFFFF AND PUSH4 0x23B872DD CALLER ADDRESS PUSH9 0x56BC75E2D63100000 PUSH1 0x40 MLOAD DUP5 PUSH4 0xFFFFFFFF AND PUSH1 0xE0 SHL DUP2 MSTORE PUSH1 0x4 ADD PUSH2 0x2B6F SWAP4 SWAP3 SWAP2 SWAP1 PUSH2 0x34AE JUMP JUMPDEST PUSH1 0x20 PUSH1 0x40 MLOAD DUP1 DUP4 SUB DUP2 PUSH1 0x0 DUP8 DUP1 EXTCODESIZE ISZERO DUP1 ISZERO PUSH2 0x2B89 JUMPI PUSH1 0x0 DUP1 REVERT JUMPDEST POP GAS CALL ISZERO DUP1 ISZERO PUSH2 0x2B9D JUMPI RETURNDATASIZE PUSH1 0x0 DUP1 RETURNDATACOPY RETURNDATASIZE PUSH1 0x0 REVERT JUMPDEST POP POP POP POP PUSH1 0x40 MLOAD RETURNDATASIZE PUSH1 0x1F NOT PUSH1 0x1F DUP3 ADD AND DUP3 ADD DUP1 PUSH1 0x40 MSTORE POP DUP2 ADD SWAP1 PUSH2 0x2BC1 SWAP2 SWAP1 PUSH2 0x30DC JUMP JUMPDEST POP JUMP JUMPDEST PUSH1 0xA PUSH1 0x0 DUP3 DUP2 MSTORE PUSH1 0x20 ADD SWAP1 DUP2 MSTORE PUSH1 0x20 ADD PUSH1 0x0 KECCAK256 PUSH1 0x0 SWAP1 SSTORE PUSH1 0x0 JUMPDEST PUSH1 0xC DUP1 SLOAD SWAP1 POP DUP2 LT ISZERO PUSH2 0x2CD2 JUMPI DUP2 PUSH1 0xC DUP3 DUP2 SLOAD DUP2 LT PUSH2 0x2C00 JUMPI PUSH2 0x2BFF PUSH2 0x3A42 JUMP JUMPDEST JUMPDEST SWAP1 PUSH1 0x0 MSTORE PUSH1 0x20 PUSH1 0x0 KECCAK256 ADD SLOAD EQ ISZERO PUSH2 0x2CBF JUMPI PUSH1 0x0 DUP2 SWAP1 POP JUMPDEST PUSH1 0x1 PUSH1 0xC DUP1 SLOAD SWAP1 POP PUSH2 0x2C29 SWAP2 SWAP1 PUSH2 0x38B4 JUMP JUMPDEST DUP2 LT ISZERO PUSH2 0x2C90 JUMPI PUSH1 0xC PUSH1 0x1 DUP3 PUSH2 0x2C3F SWAP2 SWAP1 PUSH2 0x37D3 JUMP JUMPDEST DUP2 SLOAD DUP2 LT PUSH2 0x2C50 JUMPI PUSH2 0x2C4F PUSH2 0x3A42 JUMP JUMPDEST JUMPDEST SWAP1 PUSH1 0x0 MSTORE PUSH1 0x20 PUSH1 0x0 KECCAK256 ADD SLOAD PUSH1 0xC DUP3 DUP2 SLOAD DUP2 LT PUSH2 0x2C6F JUMPI PUSH2 0x2C6E PUSH2 0x3A42 JUMP JUMPDEST JUMPDEST SWAP1 PUSH1 0x0 MSTORE PUSH1 0x20 PUSH1 0x0 KECCAK256 ADD DUP2 SWAP1 SSTORE POP DUP1 DUP1 PUSH2 0x2C88 SWAP1 PUSH2 0x396C JUMP JUMPDEST SWAP2 POP POP PUSH2 0x2C17 JUMP JUMPDEST POP PUSH1 0xC DUP1 SLOAD DUP1 PUSH2 0x2CA3 JUMPI PUSH2 0x2CA2 PUSH2 0x3A13 JUMP JUMPDEST JUMPDEST PUSH1 0x1 SWAP1 SUB DUP2 DUP2 SWAP1 PUSH1 0x0 MSTORE PUSH1 0x20 PUSH1 0x0 KECCAK256 ADD PUSH1 0x0 SWAP1 SSTORE SWAP1 SSTORE POP PUSH2 0x2CD4 JUMP JUMPDEST DUP1 DUP1 PUSH2 0x2CCA SWAP1 PUSH2 0x396C JUMP JUMPDEST SWAP2 POP POP PUSH2 0x2BDE JUMP JUMPDEST POP JUMPDEST POP JUMP JUMPDEST DUP2 PUSH1 0xA PUSH1 0x0 DUP6 DUP2 MSTORE PUSH1 0x20 ADD SWAP1 DUP2 MSTORE PUSH1 0x20 ADD PUSH1 0x0 KECCAK256 DUP2 SWAP1 SSTORE POP DUP1 PUSH1 0xB PUSH1 0x0 DUP6 DUP2 MSTORE PUSH1 0x20 ADD SWAP1 DUP2 MSTORE PUSH1 0x20 ADD PUSH1 0x0 KECCAK256 PUSH1 0x0 PUSH2 0x100 EXP DUP2 SLOAD DUP2 PUSH20 0xFFFFFFFFFFFFFFFFFFFFFFFFFFFFFFFFFFFFFFFF MUL NOT AND SWAP1 DUP4 PUSH20 0xFFFFFFFFFFFFFFFFFFFFFFFFFFFFFFFFFFFFFFFF AND MUL OR SWAP1 SSTORE POP PUSH1 0xC DUP4 SWAP1 DUP1 PUSH1 0x1 DUP2 SLOAD ADD DUP1 DUP3 SSTORE DUP1 SWAP2 POP POP PUSH1 0x1 SWAP1 SUB SWAP1 PUSH1 0x0 MSTORE PUSH1 0x20 PUSH1 0x0 KECCAK256 ADD PUSH1 0x0 SWAP1 SWAP2 SWAP1 SWAP2 SWAP1 SWAP2 POP SSTORE PUSH1 0x2 PUSH1 0xC DUP1 SLOAD SWAP1 POP LT PUSH2 0x2E9E JUMPI PUSH1 0x0 PUSH1 0x2 PUSH1 0xC DUP1 SLOAD SWAP1 POP PUSH2 0x2D8B SWAP2 SWAP1 PUSH2 0x38B4 JUMP JUMPDEST SWAP1 POP JUMPDEST PUSH1 0x0 DUP2 LT PUSH2 0x2E9C JUMPI DUP3 PUSH1 0xA PUSH1 0x0 PUSH1 0xC DUP5 DUP2 SLOAD DUP2 LT PUSH2 0x2DAF JUMPI PUSH2 0x2DAE PUSH2 0x3A42 JUMP JUMPDEST JUMPDEST SWAP1 PUSH1 0x0 MSTORE PUSH1 0x20 PUSH1 0x0 KECCAK256 ADD SLOAD DUP2 MSTORE PUSH1 0x20 ADD SWAP1 DUP2 MSTORE PUSH1 0x20 ADD PUSH1 0x0 KECCAK256 SLOAD GT ISZERO PUSH2 0x2E54 JUMPI PUSH1 0xC DUP2 DUP2 SLOAD DUP2 LT PUSH2 0x2DE3 JUMPI PUSH2 0x2DE2 PUSH2 0x3A42 JUMP JUMPDEST JUMPDEST SWAP1 PUSH1 0x0 MSTORE PUSH1 0x20 PUSH1 0x0 KECCAK256 ADD SLOAD PUSH1 0xC PUSH1 0x1 DUP4 PUSH2 0x2DFD SWAP2 SWAP1 PUSH2 0x37D3 JUMP JUMPDEST DUP2 SLOAD DUP2 LT PUSH2 0x2E0E JUMPI PUSH2 0x2E0D PUSH2 0x3A42 JUMP JUMPDEST JUMPDEST SWAP1 PUSH1 0x0 MSTORE PUSH1 0x20 PUSH1 0x0 KECCAK256 ADD DUP2 SWAP1 SSTORE POP PUSH1 0x0 DUP2 EQ ISZERO PUSH2 0x2E4F JUMPI DUP4 PUSH1 0xC PUSH1 0x0 DUP2 SLOAD DUP2 LT PUSH2 0x2E3B JUMPI PUSH2 0x2E3A PUSH2 0x3A42 JUMP JUMPDEST JUMPDEST SWAP1 PUSH1 0x0 MSTORE PUSH1 0x20 PUSH1 0x0 KECCAK256 ADD DUP2 SWAP1 SSTORE POP POP PUSH2 0x2E9F JUMP JUMPDEST PUSH2 0x2E89 JUMP JUMPDEST DUP4 PUSH1 0xC PUSH1 0x1 DUP4 PUSH2 0x2E64 SWAP2 SWAP1 PUSH2 0x37D3 JUMP JUMPDEST DUP2 SLOAD DUP2 LT PUSH2 0x2E75 JUMPI PUSH2 0x2E74 PUSH2 0x3A42 JUMP JUMPDEST JUMPDEST SWAP1 PUSH1 0x0 MSTORE PUSH1 0x20 PUSH1 0x0 KECCAK256 ADD DUP2 SWAP1 SSTORE POP POP PUSH2 0x2E9F JUMP JUMPDEST DUP1 DUP1 PUSH2 0x2E94 SWAP1 PUSH2 0x3942 JUMP JUMPDEST SWAP2 POP POP PUSH2 0x2D8E JUMP JUMPDEST POP JUMPDEST JUMPDEST POP POP POP JUMP JUMPDEST PUSH1 0x0 CALLER SWAP1 POP SWAP1 JUMP JUMPDEST PUSH1 0x0 PUSH20 0xFFFFFFFFFFFFFFFFFFFFFFFFFFFFFFFFFFFFFFFF AND DUP2 PUSH20 0xFFFFFFFFFFFFFFFFFFFFFFFFFFFFFFFFFFFFFFFF AND EQ ISZERO PUSH2 0x2F1C JUMPI PUSH1 0x40 MLOAD PUSH32 0x8C379A000000000000000000000000000000000000000000000000000000000 DUP2 MSTORE PUSH1 0x4 ADD PUSH2 0x2F13 SWAP1 PUSH2 0x35EC JUMP JUMPDEST PUSH1 0x40 MLOAD DUP1 SWAP2 SUB SWAP1 REVERT JUMPDEST DUP1 PUSH20 0xFFFFFFFFFFFFFFFFFFFFFFFFFFFFFFFFFFFFFFFF AND PUSH1 0x0 DUP1 SLOAD SWAP1 PUSH2 0x100 EXP SWAP1 DIV PUSH20 0xFFFFFFFFFFFFFFFFFFFFFFFFFFFFFFFFFFFFFFFF AND PUSH20 0xFFFFFFFFFFFFFFFFFFFFFFFFFFFFFFFFFFFFFFFF AND PUSH32 0x8BE0079C531659141344CD1FD0A4F28419497F9722A3DAAFE3B4186F6B6457E0 PUSH1 0x40 MLOAD PUSH1 0x40 MLOAD DUP1 SWAP2 SUB SWAP1 LOG3 DUP1 PUSH1 0x0 DUP1 PUSH2 0x100 EXP DUP2 SLOAD DUP2 PUSH20 0xFFFFFFFFFFFFFFFFFFFFFFFFFFFFFFFFFFFFFFFF MUL NOT AND SWAP1 DUP4 PUSH20 0xFFFFFFFFFFFFFFFFFFFFFFFFFFFFFFFFFFFFFFFF AND MUL OR SWAP1 SSTORE POP POP JUMP JUMPDEST PUSH1 0x0 DUP2 CALLDATALOAD SWAP1 POP PUSH2 0x2FE8 DUP2 PUSH2 0x3D00 JUMP JUMPDEST SWAP3 SWAP2 POP POP JUMP JUMPDEST PUSH1 0x0 DUP2 MLOAD SWAP1 POP PUSH2 0x2FFD DUP2 PUSH2 0x3D00 JUMP JUMPDEST SWAP3 SWAP2 POP POP JUMP JUMPDEST PUSH1 0x0 DUP2 MLOAD SWAP1 POP PUSH2 0x3012 DUP2 PUSH2 0x3D17 JUMP JUMPDEST SWAP3 SWAP2 POP POP JUMP JUMPDEST PUSH1 0x0 DUP2 CALLDATALOAD SWAP1 POP PUSH2 0x3027 DUP2 PUSH2 0x3D2E JUMP JUMPDEST SWAP3 SWAP2 POP POP JUMP JUMPDEST PUSH1 0x0 DUP2 MLOAD SWAP1 POP PUSH2 0x303C DUP2 PUSH2 0x3D2E JUMP JUMPDEST SWAP3 SWAP2 POP POP JUMP JUMPDEST PUSH1 0x0 PUSH1 0x20 DUP3 DUP5 SUB SLT ISZERO PUSH2 0x3058 JUMPI PUSH2 0x3057 PUSH2 0x3AA0 JUMP JUMPDEST JUMPDEST PUSH1 0x0 PUSH2 0x3066 DUP5 DUP3 DUP6 ADD PUSH2 0x2FD9 JUMP JUMPDEST SWAP2 POP POP SWAP3 SWAP2 POP POP JUMP JUMPDEST PUSH1 0x0 PUSH1 0x20 DUP3 DUP5 SUB SLT ISZERO PUSH2 0x3085 JUMPI PUSH2 0x3084 PUSH2 0x3AA0 JUMP JUMPDEST JUMPDEST PUSH1 0x0 PUSH2 0x3093 DUP5 DUP3 DUP6 ADD PUSH2 0x2FEE JUMP JUMPDEST SWAP2 POP POP SWAP3 SWAP2 POP POP JUMP JUMPDEST PUSH1 0x0 DUP1 PUSH1 0x40 DUP4 DUP6 SUB SLT ISZERO PUSH2 0x30B3 JUMPI PUSH2 0x30B2 PUSH2 0x3AA0 JUMP JUMPDEST JUMPDEST PUSH1 0x0 PUSH2 0x30C1 DUP6 DUP3 DUP7 ADD PUSH2 0x2FD9 JUMP JUMPDEST SWAP3 POP POP PUSH1 0x20 PUSH2 0x30D2 DUP6 DUP3 DUP7 ADD PUSH2 0x3018 JUMP JUMPDEST SWAP2 POP POP SWAP3 POP SWAP3 SWAP1 POP JUMP JUMPDEST PUSH1 0x0 PUSH1 0x20 DUP3 DUP5 SUB SLT ISZERO PUSH2 0x30F2 JUMPI PUSH2 0x30F1 PUSH2 0x3AA0 JUMP JUMPDEST JUMPDEST PUSH1 0x0 PUSH2 0x3100 DUP5 DUP3 DUP6 ADD PUSH2 0x3003 JUMP JUMPDEST SWAP2 POP POP SWAP3 SWAP2 POP POP JUMP JUMPDEST PUSH1 0x0 PUSH1 0x20 DUP3 DUP5 SUB SLT ISZERO PUSH2 0x311F JUMPI PUSH2 0x311E PUSH2 0x3AA0 JUMP JUMPDEST JUMPDEST PUSH1 0x0 PUSH2 0x312D DUP5 DUP3 DUP6 ADD PUSH2 0x3018 JUMP JUMPDEST SWAP2 POP POP SWAP3 SWAP2 POP POP JUMP JUMPDEST PUSH1 0x0 PUSH1 0x20 DUP3 DUP5 SUB SLT ISZERO PUSH2 0x314C JUMPI PUSH2 0x314B PUSH2 0x3AA0 JUMP JUMPDEST JUMPDEST PUSH1 0x0 PUSH2 0x315A DUP5 DUP3 DUP6 ADD PUSH2 0x302D JUMP JUMPDEST SWAP2 POP POP SWAP3 SWAP2 POP POP JUMP JUMPDEST PUSH1 0x0 DUP1 PUSH1 0x40 DUP4 DUP6 SUB SLT ISZERO PUSH2 0x317A JUMPI PUSH2 0x3179 PUSH2 0x3AA0 JUMP JUMPDEST JUMPDEST PUSH1 0x0 PUSH2 0x3188 DUP6 DUP3 DUP7 ADD PUSH2 0x3018 JUMP JUMPDEST SWAP3 POP POP PUSH1 0x20 PUSH2 0x3199 DUP6 DUP3 DUP7 ADD PUSH2 0x3018 JUMP JUMPDEST SWAP2 POP POP SWAP3 POP SWAP3 SWAP1 POP JUMP JUMPDEST PUSH1 0x0 PUSH2 0x31AF DUP4 DUP4 PUSH2 0x31D3 JUMP JUMPDEST PUSH1 0x20 DUP4 ADD SWAP1 POP SWAP3 SWAP2 POP POP JUMP JUMPDEST PUSH1 0x0 PUSH2 0x31C7 DUP4 DUP4 PUSH2 0x344C JUMP JUMPDEST PUSH1 0x20 DUP4 ADD SWAP1 POP SWAP3 SWAP2 POP POP JUMP JUMPDEST PUSH2 0x31DC DUP2 PUSH2 0x38E8 JUMP JUMPDEST DUP3 MSTORE POP POP JUMP JUMPDEST PUSH2 0x31EB DUP2 PUSH2 0x38E8 JUMP JUMPDEST DUP3 MSTORE POP POP JUMP JUMPDEST PUSH1 0x0 PUSH2 0x31FC DUP3 PUSH2 0x3770 JUMP JUMPDEST PUSH2 0x3206 DUP2 DUP6 PUSH2 0x37A0 JUMP JUMPDEST SWAP4 POP PUSH2 0x3211 DUP4 PUSH2 0x3750 JUMP JUMPDEST DUP1 PUSH1 0x0 JUMPDEST DUP4 DUP2 LT ISZERO PUSH2 0x3242 JUMPI DUP2 MLOAD PUSH2 0x3229 DUP9 DUP3 PUSH2 0x31A3 JUMP JUMPDEST SWAP8 POP PUSH2 0x3234 DUP4 PUSH2 0x3786 JUMP JUMPDEST SWAP3 POP POP PUSH1 0x1 DUP2 ADD SWAP1 POP PUSH2 0x3215 JUMP JUMPDEST POP DUP6 SWAP4 POP POP POP POP SWAP3 SWAP2 POP POP JUMP JUMPDEST PUSH1 0x0 PUSH2 0x325A DUP3 PUSH2 0x377B JUMP JUMPDEST PUSH2 0x3264 DUP2 DUP6 PUSH2 0x37B1 JUMP JUMPDEST SWAP4 POP PUSH2 0x326F DUP4 PUSH2 0x3760 JUMP JUMPDEST DUP1 PUSH1 0x0 JUMPDEST DUP4 DUP2 LT ISZERO PUSH2 0x32A0 JUMPI DUP2 MLOAD PUSH2 0x3287 DUP9 DUP3 PUSH2 0x31BB JUMP JUMPDEST SWAP8 POP PUSH2 0x3292 DUP4 PUSH2 0x3793 JUMP JUMPDEST SWAP3 POP POP PUSH1 0x1 DUP2 ADD SWAP1 POP PUSH2 0x3273 JUMP JUMPDEST POP DUP6 SWAP4 POP POP POP POP SWAP3 SWAP2 POP POP JUMP JUMPDEST PUSH2 0x32B6 DUP2 PUSH2 0x38FA JUMP JUMPDEST DUP3 MSTORE POP POP JUMP JUMPDEST PUSH2 0x32C5 DUP2 PUSH2 0x3930 JUMP JUMPDEST DUP3 MSTORE POP POP JUMP JUMPDEST PUSH1 0x0 PUSH2 0x32D8 PUSH1 0x1D DUP4 PUSH2 0x37C2 JUMP JUMPDEST SWAP2 POP PUSH2 0x32E3 DUP3 PUSH2 0x3AA5 JUMP JUMPDEST PUSH1 0x20 DUP3 ADD SWAP1 POP SWAP2 SWAP1 POP JUMP JUMPDEST PUSH1 0x0 PUSH2 0x32FB PUSH1 0xD DUP4 PUSH2 0x37C2 JUMP JUMPDEST SWAP2 POP PUSH2 0x3306 DUP3 PUSH2 0x3ACE JUMP JUMPDEST PUSH1 0x20 DUP3 ADD SWAP1 POP SWAP2 SWAP1 POP JUMP JUMPDEST PUSH1 0x0 PUSH2 0x331E PUSH1 0x26 DUP4 PUSH2 0x37C2 JUMP JUMPDEST SWAP2 POP PUSH2 0x3329 DUP3 PUSH2 0x3AF7 JUMP JUMPDEST PUSH1 0x40 DUP3 ADD SWAP1 POP SWAP2 SWAP1 POP JUMP JUMPDEST PUSH1 0x0 PUSH2 0x3341 PUSH1 0x17 DUP4 PUSH2 0x37C2 JUMP JUMPDEST SWAP2 POP PUSH2 0x334C DUP3 PUSH2 0x3B46 JUMP JUMPDEST PUSH1 0x20 DUP3 ADD SWAP1 POP SWAP2 SWAP1 POP JUMP JUMPDEST PUSH1 0x0 PUSH2 0x3364 PUSH1 0x18 DUP4 PUSH2 0x37C2 JUMP JUMPDEST SWAP2 POP PUSH2 0x336F DUP3 PUSH2 0x3B6F JUMP JUMPDEST PUSH1 0x20 DUP3 ADD SWAP1 POP SWAP2 SWAP1 POP JUMP JUMPDEST PUSH1 0x0 PUSH2 0x3387 PUSH1 0x9 DUP4 PUSH2 0x37C2 JUMP JUMPDEST SWAP2 POP PUSH2 0x3392 DUP3 PUSH2 0x3B98 JUMP JUMPDEST PUSH1 0x20 DUP3 ADD SWAP1 POP SWAP2 SWAP1 POP JUMP JUMPDEST PUSH1 0x0 PUSH2 0x33AA PUSH1 0x28 DUP4 PUSH2 0x37C2 JUMP JUMPDEST SWAP2 POP PUSH2 0x33B5 DUP3 PUSH2 0x3BC1 JUMP JUMPDEST PUSH1 0x40 DUP3 ADD SWAP1 POP SWAP2 SWAP1 POP JUMP JUMPDEST PUSH1 0x0 PUSH2 0x33CD PUSH1 0x14 DUP4 PUSH2 0x37C2 JUMP JUMPDEST SWAP2 POP PUSH2 0x33D8 DUP3 PUSH2 0x3C10 JUMP JUMPDEST PUSH1 0x20 DUP3 ADD SWAP1 POP SWAP2 SWAP1 POP JUMP JUMPDEST PUSH1 0x0 PUSH2 0x33F0 PUSH1 0x20 DUP4 PUSH2 0x37C2 JUMP JUMPDEST SWAP2 POP PUSH2 0x33FB DUP3 PUSH2 0x3C39 JUMP JUMPDEST PUSH1 0x20 DUP3 ADD SWAP1 POP SWAP2 SWAP1 POP JUMP JUMPDEST PUSH1 0x0 PUSH2 0x3413 PUSH1 0x14 DUP4 PUSH2 0x37C2 JUMP JUMPDEST SWAP2 POP PUSH2 0x341E DUP3 PUSH2 0x3C62 JUMP JUMPDEST PUSH1 0x20 DUP3 ADD SWAP1 POP SWAP2 SWAP1 POP JUMP JUMPDEST PUSH1 0x0 PUSH2 0x3436 PUSH1 0x47 DUP4 PUSH2 0x37C2 JUMP JUMPDEST SWAP2 POP PUSH2 0x3441 DUP3 PUSH2 0x3C8B JUMP JUMPDEST PUSH1 0x60 DUP3 ADD SWAP1 POP SWAP2 SWAP1 POP JUMP JUMPDEST PUSH2 0x3455 DUP2 PUSH2 0x3926 JUMP JUMPDEST DUP3 MSTORE POP POP JUMP JUMPDEST PUSH2 0x3464 DUP2 PUSH2 0x3926 JUMP JUMPDEST DUP3 MSTORE POP POP JUMP JUMPDEST PUSH1 0x0 PUSH1 0x20 DUP3 ADD SWAP1 POP PUSH2 0x347F PUSH1 0x0 DUP4 ADD DUP5 PUSH2 0x31E2 JUMP JUMPDEST SWAP3 SWAP2 POP POP JUMP JUMPDEST PUSH1 0x0 PUSH1 0x40 DUP3 ADD SWAP1 POP PUSH2 0x349A PUSH1 0x0 DUP4 ADD DUP6 PUSH2 0x31E2 JUMP JUMPDEST PUSH2 0x34A7 PUSH1 0x20 DUP4 ADD DUP5 PUSH2 0x31E2 JUMP JUMPDEST SWAP4 SWAP3 POP POP POP JUMP JUMPDEST PUSH1 0x0 PUSH1 0x60 DUP3 ADD SWAP1 POP PUSH2 0x34C3 PUSH1 0x0 DUP4 ADD DUP7 PUSH2 0x31E2 JUMP JUMPDEST PUSH2 0x34D0 PUSH1 0x20 DUP4 ADD DUP6 PUSH2 0x31E2 JUMP JUMPDEST PUSH2 0x34DD PUSH1 0x40 DUP4 ADD DUP5 PUSH2 0x32BC JUMP JUMPDEST SWAP5 SWAP4 POP POP POP POP JUMP JUMPDEST PUSH1 0x0 PUSH1 0x60 DUP3 ADD SWAP1 POP PUSH2 0x34FA PUSH1 0x0 DUP4 ADD DUP7 PUSH2 0x31E2 JUMP JUMPDEST PUSH2 0x3507 PUSH1 0x20 DUP4 ADD DUP6 PUSH2 0x31E2 JUMP JUMPDEST PUSH2 0x3514 PUSH1 0x40 DUP4 ADD DUP5 PUSH2 0x345B JUMP JUMPDEST SWAP5 SWAP4 POP POP POP POP JUMP JUMPDEST PUSH1 0x0 PUSH1 0x40 DUP3 ADD SWAP1 POP PUSH2 0x3531 PUSH1 0x0 DUP4 ADD DUP6 PUSH2 0x31E2 JUMP JUMPDEST PUSH2 0x353E PUSH1 0x20 DUP4 ADD DUP5 PUSH2 0x345B JUMP JUMPDEST SWAP4 SWAP3 POP POP POP JUMP JUMPDEST PUSH1 0x0 PUSH1 0x60 DUP3 ADD SWAP1 POP DUP2 DUP2 SUB PUSH1 0x0 DUP4 ADD MSTORE PUSH2 0x355F DUP2 DUP7 PUSH2 0x324F JUMP JUMPDEST SWAP1 POP DUP2 DUP2 SUB PUSH1 0x20 DUP4 ADD MSTORE PUSH2 0x3573 DUP2 DUP6 PUSH2 0x31F1 JUMP JUMPDEST SWAP1 POP DUP2 DUP2 SUB PUSH1 0x40 DUP4 ADD MSTORE PUSH2 0x3587 DUP2 DUP5 PUSH2 0x324F JUMP JUMPDEST SWAP1 POP SWAP5 SWAP4 POP POP POP POP JUMP JUMPDEST PUSH1 0x0 PUSH1 0x20 DUP3 ADD SWAP1 POP PUSH2 0x35A6 PUSH1 0x0 DUP4 ADD DUP5 PUSH2 0x32AD JUMP JUMPDEST SWAP3 SWAP2 POP POP JUMP JUMPDEST PUSH1 0x0 PUSH1 0x20 DUP3 ADD SWAP1 POP DUP2 DUP2 SUB PUSH1 0x0 DUP4 ADD MSTORE PUSH2 0x35C5 DUP2 PUSH2 0x32CB JUMP JUMPDEST SWAP1 POP SWAP2 SWAP1 POP JUMP JUMPDEST PUSH1 0x0 PUSH1 0x20 DUP3 ADD SWAP1 POP DUP2 DUP2 SUB PUSH1 0x0 DUP4 ADD MSTORE PUSH2 0x35E5 DUP2 PUSH2 0x32EE JUMP JUMPDEST SWAP1 POP SWAP2 SWAP1 POP JUMP JUMPDEST PUSH1 0x0 PUSH1 0x20 DUP3 ADD SWAP1 POP DUP2 DUP2 SUB PUSH1 0x0 DUP4 ADD MSTORE PUSH2 0x3605 DUP2 PUSH2 0x3311 JUMP JUMPDEST SWAP1 POP SWAP2 SWAP1 POP JUMP JUMPDEST PUSH1 0x0 PUSH1 0x20 DUP3 ADD SWAP1 POP DUP2 DUP2 SUB PUSH1 0x0 DUP4 ADD MSTORE PUSH2 0x3625 DUP2 PUSH2 0x3334 JUMP JUMPDEST SWAP1 POP SWAP2 SWAP1 POP JUMP JUMPDEST PUSH1 0x0 PUSH1 0x20 DUP3 ADD SWAP1 POP DUP2 DUP2 SUB PUSH1 0x0 DUP4 ADD MSTORE PUSH2 0x3645 DUP2 PUSH2 0x3357 JUMP JUMPDEST SWAP1 POP SWAP2 SWAP1 POP JUMP JUMPDEST PUSH1 0x0 PUSH1 0x20 DUP3 ADD SWAP1 POP DUP2 DUP2 SUB PUSH1 0x0 DUP4 ADD MSTORE PUSH2 0x3665 DUP2 PUSH2 0x337A JUMP JUMPDEST SWAP1 POP SWAP2 SWAP1 POP JUMP JUMPDEST PUSH1 0x0 PUSH1 0x20 DUP3 ADD SWAP1 POP DUP2 DUP2 SUB PUSH1 0x0 DUP4 ADD MSTORE PUSH2 0x3685 DUP2 PUSH2 0x339D JUMP JUMPDEST SWAP1 POP SWAP2 SWAP1 POP JUMP JUMPDEST PUSH1 0x0 PUSH1 0x20 DUP3 ADD SWAP1 POP DUP2 DUP2 SUB PUSH1 0x0 DUP4 ADD MSTORE PUSH2 0x36A5 DUP2 PUSH2 0x33C0 JUMP JUMPDEST SWAP1 POP SWAP2 SWAP1 POP JUMP JUMPDEST PUSH1 0x0 PUSH1 0x20 DUP3 ADD SWAP1 POP DUP2 DUP2 SUB PUSH1 0x0 DUP4 ADD MSTORE PUSH2 0x36C5 DUP2 PUSH2 0x33E3 JUMP JUMPDEST SWAP1 POP SWAP2 SWAP1 POP JUMP JUMPDEST PUSH1 0x0 PUSH1 0x20 DUP3 ADD SWAP1 POP DUP2 DUP2 SUB PUSH1 0x0 DUP4 ADD MSTORE PUSH2 0x36E5 DUP2 PUSH2 0x3406 JUMP JUMPDEST SWAP1 POP SWAP2 SWAP1 POP JUMP JUMPDEST PUSH1 0x0 PUSH1 0x20 DUP3 ADD SWAP1 POP DUP2 DUP2 SUB PUSH1 0x0 DUP4 ADD MSTORE PUSH2 0x3705 DUP2 PUSH2 0x3429 JUMP JUMPDEST SWAP1 POP SWAP2 SWAP1 POP JUMP JUMPDEST PUSH1 0x0 PUSH1 0x20 DUP3 ADD SWAP1 POP PUSH2 0x3721 PUSH1 0x0 DUP4 ADD DUP5 PUSH2 0x345B JUMP JUMPDEST SWAP3 SWAP2 POP POP JUMP JUMPDEST PUSH1 0x0 PUSH1 0x40 DUP3 ADD SWAP1 POP PUSH2 0x373C PUSH1 0x0 DUP4 ADD DUP6 PUSH2 0x345B JUMP JUMPDEST PUSH2 0x3749 PUSH1 0x20 DUP4 ADD DUP5 PUSH2 0x345B JUMP JUMPDEST SWAP4 SWAP3 POP POP POP JUMP JUMPDEST PUSH1 0x0 DUP2 SWAP1 POP PUSH1 0x20 DUP3 ADD SWAP1 POP SWAP2 SWAP1 POP JUMP JUMPDEST PUSH1 0x0 DUP2 SWAP1 POP PUSH1 0x20 DUP3 ADD SWAP1 POP SWAP2 SWAP1 POP JUMP JUMPDEST PUSH1 0x0 DUP2 MLOAD SWAP1 POP SWAP2 SWAP1 POP JUMP JUMPDEST PUSH1 0x0 DUP2 MLOAD SWAP1 POP SWAP2 SWAP1 POP JUMP JUMPDEST PUSH1 0x0 PUSH1 0x20 DUP3 ADD SWAP1 POP SWAP2 SWAP1 POP JUMP JUMPDEST PUSH1 0x0 PUSH1 0x20 DUP3 ADD SWAP1 POP SWAP2 SWAP1 POP JUMP JUMPDEST PUSH1 0x0 DUP3 DUP3 MSTORE PUSH1 0x20 DUP3 ADD SWAP1 POP SWAP3 SWAP2 POP POP JUMP JUMPDEST PUSH1 0x0 DUP3 DUP3 MSTORE PUSH1 0x20 DUP3 ADD SWAP1 POP SWAP3 SWAP2 POP POP JUMP JUMPDEST PUSH1 0x0 DUP3 DUP3 MSTORE PUSH1 0x20 DUP3 ADD SWAP1 POP SWAP3 SWAP2 POP POP JUMP JUMPDEST PUSH1 0x0 PUSH2 0x37DE DUP3 PUSH2 0x3926 JUMP JUMPDEST SWAP2 POP PUSH2 0x37E9 DUP4 PUSH2 0x3926 JUMP JUMPDEST SWAP3 POP DUP3 PUSH32 0xFFFFFFFFFFFFFFFFFFFFFFFFFFFFFFFFFFFFFFFFFFFFFFFFFFFFFFFFFFFFFFFF SUB DUP3 GT ISZERO PUSH2 0x381E JUMPI PUSH2 0x381D PUSH2 0x39B5 JUMP JUMPDEST JUMPDEST DUP3 DUP3 ADD SWAP1 POP SWAP3 SWAP2 POP POP JUMP JUMPDEST PUSH1 0x0 PUSH2 0x3834 DUP3 PUSH2 0x3926 JUMP JUMPDEST SWAP2 POP PUSH2 0x383F DUP4 PUSH2 0x3926 JUMP JUMPDEST SWAP3 POP DUP3 PUSH2 0x384F JUMPI PUSH2 0x384E PUSH2 0x39E4 JUMP JUMPDEST JUMPDEST DUP3 DUP3 DIV SWAP1 POP SWAP3 SWAP2 POP POP JUMP JUMPDEST PUSH1 0x0 PUSH2 0x3865 DUP3 PUSH2 0x3926 JUMP JUMPDEST SWAP2 POP PUSH2 0x3870 DUP4 PUSH2 0x3926 JUMP JUMPDEST SWAP3 POP DUP2 PUSH32 0xFFFFFFFFFFFFFFFFFFFFFFFFFFFFFFFFFFFFFFFFFFFFFFFFFFFFFFFFFFFFFFFF DIV DUP4 GT DUP3 ISZERO ISZERO AND ISZERO PUSH2 0x38A9 JUMPI PUSH2 0x38A8 PUSH2 0x39B5 JUMP JUMPDEST JUMPDEST DUP3 DUP3 MUL SWAP1 POP SWAP3 SWAP2 POP POP JUMP JUMPDEST PUSH1 0x0 PUSH2 0x38BF DUP3 PUSH2 0x3926 JUMP JUMPDEST SWAP2 POP PUSH2 0x38CA DUP4 PUSH2 0x3926 JUMP JUMPDEST SWAP3 POP DUP3 DUP3 LT ISZERO PUSH2 0x38DD JUMPI PUSH2 0x38DC PUSH2 0x39B5 JUMP JUMPDEST JUMPDEST DUP3 DUP3 SUB SWAP1 POP SWAP3 SWAP2 POP POP JUMP JUMPDEST PUSH1 0x0 PUSH2 0x38F3 DUP3 PUSH2 0x3906 JUMP JUMPDEST SWAP1 POP SWAP2 SWAP1 POP JUMP JUMPDEST PUSH1 0x0 DUP2 ISZERO ISZERO SWAP1 POP SWAP2 SWAP1 POP JUMP JUMPDEST PUSH1 0x0 PUSH20 0xFFFFFFFFFFFFFFFFFFFFFFFFFFFFFFFFFFFFFFFF DUP3 AND SWAP1 POP SWAP2 SWAP1 POP JUMP JUMPDEST PUSH1 0x0 DUP2 SWAP1 POP SWAP2 SWAP1 POP JUMP JUMPDEST PUSH1 0x0 PUSH2 0x393B DUP3 PUSH2 0x3926 JUMP JUMPDEST SWAP1 POP SWAP2 SWAP1 POP JUMP JUMPDEST PUSH1 0x0 PUSH2 0x394D DUP3 PUSH2 0x3926 JUMP JUMPDEST SWAP2 POP PUSH1 0x0 DUP3 EQ ISZERO PUSH2 0x3961 JUMPI PUSH2 0x3960 PUSH2 0x39B5 JUMP JUMPDEST JUMPDEST PUSH1 0x1 DUP3 SUB SWAP1 POP SWAP2 SWAP1 POP JUMP JUMPDEST PUSH1 0x0 PUSH2 0x3977 DUP3 PUSH2 0x3926 JUMP JUMPDEST SWAP2 POP PUSH32 0xFFFFFFFFFFFFFFFFFFFFFFFFFFFFFFFFFFFFFFFFFFFFFFFFFFFFFFFFFFFFFFFF DUP3 EQ ISZERO PUSH2 0x39AA JUMPI PUSH2 0x39A9 PUSH2 0x39B5 JUMP JUMPDEST JUMPDEST PUSH1 0x1 DUP3 ADD SWAP1 POP SWAP2 SWAP1 POP JUMP JUMPDEST PUSH32 0x4E487B7100000000000000000000000000000000000000000000000000000000 PUSH1 0x0 MSTORE PUSH1 0x11 PUSH1 0x4 MSTORE PUSH1 0x24 PUSH1 0x0 REVERT JUMPDEST PUSH32 0x4E487B7100000000000000000000000000000000000000000000000000000000 PUSH1 0x0 MSTORE PUSH1 0x12 PUSH1 0x4 MSTORE PUSH1 0x24 PUSH1 0x0 REVERT JUMPDEST PUSH32 0x4E487B7100000000000000000000000000000000000000000000000000000000 PUSH1 0x0 MSTORE PUSH1 0x31 PUSH1 0x4 MSTORE PUSH1 0x24 PUSH1 0x0 REVERT JUMPDEST PUSH32 0x4E487B7100000000000000000000000000000000000000000000000000000000 PUSH1 0x0 MSTORE PUSH1 0x32 PUSH1 0x4 MSTORE PUSH1 0x24 PUSH1 0x0 REVERT JUMPDEST PUSH32 0x4E487B7100000000000000000000000000000000000000000000000000000000 PUSH1 0x0 MSTORE PUSH1 0x41 PUSH1 0x4 MSTORE PUSH1 0x24 PUSH1 0x0 REVERT JUMPDEST PUSH1 0x0 DUP1 REVERT JUMPDEST PUSH32 0x73656C6C6572206E6565642068617665207468697320746F6B656E6964000000 PUSH1 0x0 DUP3 ADD MSTORE POP JUMP JUMPDEST PUSH32 0x69742069732073656C6C696E6700000000000000000000000000000000000000 PUSH1 0x0 DUP3 ADD MSTORE POP JUMP JUMPDEST PUSH32 0x4F776E61626C653A206E6577206F776E657220697320746865207A65726F2061 PUSH1 0x0 DUP3 ADD MSTORE PUSH32 0x6464726573730000000000000000000000000000000000000000000000000000 PUSH1 0x20 DUP3 ADD MSTORE POP JUMP JUMPDEST PUSH32 0x416D6F756E74203E2030202626203C2042616C616E6365000000000000000000 PUSH1 0x0 DUP3 ADD MSTORE POP JUMP JUMPDEST PUSH32 0x46726F6D20616E6420546F2063616E206E6F742073616D650000000000000000 PUSH1 0x0 DUP3 ADD MSTORE POP JUMP JUMPDEST PUSH32 0x5072696365203E20300000000000000000000000000000000000000000000000 PUSH1 0x0 DUP3 ADD MSTORE POP JUMP JUMPDEST PUSH32 0x596F75206E65656420417070726F766520466F7220416C6C20746F2074686973 PUSH1 0x0 DUP3 ADD MSTORE PUSH32 0x20636F6E74616374000000000000000000000000000000000000000000000000 PUSH1 0x20 DUP3 ADD MSTORE POP JUMP JUMPDEST PUSH32 0x416464726573732063616E206E6F74207A65726F000000000000000000000000 PUSH1 0x0 DUP3 ADD MSTORE POP JUMP JUMPDEST PUSH32 0x4F776E61626C653A2063616C6C6572206973206E6F7420746865206F776E6572 PUSH1 0x0 DUP3 ADD MSTORE POP JUMP JUMPDEST PUSH32 0x56696353686F7365206E6F7420696E2073656C6C000000000000000000000000 PUSH1 0x0 DUP3 ADD MSTORE POP JUMP JUMPDEST PUSH32 0x546865206D6F6E657920616C6C6F776564206973206E6F7420656E6F75676820 PUSH1 0x0 DUP3 ADD MSTORE PUSH32 0x746F206275792073686F65732E20596F75206E65656420617070726F7665206D PUSH1 0x20 DUP3 ADD MSTORE PUSH32 0x6F72652056494D00000000000000000000000000000000000000000000000000 PUSH1 0x40 DUP3 ADD MSTORE POP JUMP JUMPDEST PUSH2 0x3D09 DUP2 PUSH2 0x38E8 JUMP JUMPDEST DUP2 EQ PUSH2 0x3D14 JUMPI PUSH1 0x0 DUP1 REVERT JUMPDEST POP JUMP JUMPDEST PUSH2 0x3D20 DUP2 PUSH2 0x38FA JUMP JUMPDEST DUP2 EQ PUSH2 0x3D2B JUMPI PUSH1 0x0 DUP1 REVERT JUMPDEST POP JUMP JUMPDEST PUSH2 0x3D37 DUP2 PUSH2 0x3926 JUMP JUMPDEST DUP2 EQ PUSH2 0x3D42 JUMPI PUSH1 0x0 DUP1 REVERT JUMPDEST POP JUMP INVALID LOG2 PUSH5 0x6970667358 0x22 SLT KECCAK256 0xD XOR AND DUP4 0xD5 0xCA SGT 0x23 0xBC 0xC7 0xCE PUSH15 0x3E0082BDA7E6548BB37C8855917C38 0xAE 0xEC 0x23 0xEE 0xD4 PUSH5 0x736F6C6343 STOP ADDMOD SMOD STOP CALLER "
				},
				"gasEstimates": {
					"creation": {
						"codeDepositCost": "3147800",
						"executionCost": "infinite",
						"totalCost": "infinite"
					},
					"external": {
						"BuyVicShose(uint256)": "infinite",
						"CancelSellVicShose(uint256)": "infinite",
						"LiquidPool()": "2627",
						"MinBnB()": "2474",
						"Pool2()": "2581",
						"SellVicShose(uint256,uint256)": "infinite",
						"ShoseNFTContract()": "2625",
						"Treasury()": "2560",
						"VIMContract()": "2603",
						"WBNBContract()": "2561",
						"checkShoseTranfer(uint256)": "2933",
						"getBalanceBNB()": "450",
						"getBalanceToken(address)": "infinite",
						"getMINPrice()": "infinite",
						"getSellingShose()": "infinite",
						"isOwner()": "2621",
						"owner()": "2590",
						"pause()": "29994",
						"paused()": "2611",
						"renounceOwnership()": "30374",
						"sentT2Pool2BNB(uint256)": "infinite",
						"sentT2Pool2Token(address,uint256)": "infinite",
						"setLiquidPool(address)": "infinite",
						"setMinBNB(uint256)": "infinite",
						"setPool2(address)": "27029",
						"setShoseNFTContract(address)": "infinite",
						"setTax(uint256)": "24874",
						"setTreasury(address)": "infinite",
						"setVIMContract(address)": "infinite",
						"test()": "infinite",
						"transferOwnership(address)": "30817",
						"transferVicShose(address,uint256)": "infinite",
						"unpause()": "29926"
					},
					"internal": {
						"addNFTSell(uint256,uint256,address)": "infinite",
						"removeNFTSell(uint256)": "infinite"
					}
				},
				"methodIdentifiers": {
					"BuyVicShose(uint256)": "7880e606",
					"CancelSellVicShose(uint256)": "4dd79f10",
					"LiquidPool()": "36c3b4e2",
					"MinBnB()": "bcfcba76",
					"Pool2()": "ac4b3b0a",
					"SellVicShose(uint256,uint256)": "83d58215",
					"ShoseNFTContract()": "d8882779",
					"Treasury()": "563df32f",
					"VIMContract()": "b5620229",
					"WBNBContract()": "0ff32839",
					"checkShoseTranfer(uint256)": "59464217",
					"getBalanceBNB()": "bc127127",
					"getBalanceToken(address)": "48eca45c",
					"getMINPrice()": "ea156f44",
					"getSellingShose()": "99bc1bfb",
					"isOwner()": "8f32d59b",
					"owner()": "8da5cb5b",
					"pause()": "8456cb59",
					"paused()": "5c975abb",
					"renounceOwnership()": "715018a6",
					"sentT2Pool2BNB(uint256)": "d1f19989",
					"sentT2Pool2Token(address,uint256)": "8cef6437",
					"setLiquidPool(address)": "a888a93a",
					"setMinBNB(uint256)": "de281e28",
					"setPool2(address)": "cc24c800",
					"setShoseNFTContract(address)": "458a635a",
					"setTax(uint256)": "2e5bb6ff",
					"setTreasury(address)": "f0f44260",
					"setVIMContract(address)": "1ecff38e",
					"test()": "f8a8fd6d",
					"transferOwnership(address)": "f2fde38b",
					"transferVicShose(address,uint256)": "5c9e0d10",
					"unpause()": "3f4ba83a"
				}
			},
			"storageLayout": {
				"storage": [
					{
						"astId": 332,
						"contract": "marketplace.sol:marketplace",
						"label": "_owner",
						"offset": 0,
						"slot": "0",
						"type": "t_address"
					},
					{
						"astId": 467,
						"contract": "marketplace.sol:marketplace",
						"label": "paused",
						"offset": 20,
						"slot": "0",
						"type": "t_bool"
					},
					{
						"astId": 773,
						"contract": "marketplace.sol:marketplace",
						"label": "Treasury",
						"offset": 0,
						"slot": "1",
						"type": "t_address"
					},
					{
						"astId": 775,
						"contract": "marketplace.sol:marketplace",
						"label": "LiquidPool",
						"offset": 0,
						"slot": "2",
						"type": "t_address"
					},
					{
						"astId": 777,
						"contract": "marketplace.sol:marketplace",
						"label": "ShoseNFTContract",
						"offset": 0,
						"slot": "3",
						"type": "t_address"
					},
					{
						"astId": 779,
						"contract": "marketplace.sol:marketplace",
						"label": "VIMContract",
						"offset": 0,
						"slot": "4",
						"type": "t_address"
					},
					{
						"astId": 781,
						"contract": "marketplace.sol:marketplace",
						"label": "WBNBContract",
						"offset": 0,
						"slot": "5",
						"type": "t_address"
					},
					{
						"astId": 783,
						"contract": "marketplace.sol:marketplace",
						"label": "MinBnB",
						"offset": 0,
						"slot": "6",
						"type": "t_uint256"
					},
					{
						"astId": 785,
						"contract": "marketplace.sol:marketplace",
						"label": "tax",
						"offset": 0,
						"slot": "7",
						"type": "t_uint256"
					},
					{
						"astId": 787,
						"contract": "marketplace.sol:marketplace",
						"label": "Pool2",
						"offset": 0,
						"slot": "8",
						"type": "t_address"
					},
					{
						"astId": 791,
						"contract": "marketplace.sol:marketplace",
						"label": "shoseTranfer",
						"offset": 0,
						"slot": "9",
						"type": "t_mapping(t_uint256,t_address)"
					},
					{
						"astId": 795,
						"contract": "marketplace.sol:marketplace",
						"label": "shoseSell",
						"offset": 0,
						"slot": "10",
						"type": "t_mapping(t_uint256,t_uint256)"
					},
					{
						"astId": 799,
						"contract": "marketplace.sol:marketplace",
						"label": "shoseSeller",
						"offset": 0,
						"slot": "11",
						"type": "t_mapping(t_uint256,t_address)"
					},
					{
						"astId": 802,
						"contract": "marketplace.sol:marketplace",
						"label": "allTokensSell",
						"offset": 0,
						"slot": "12",
						"type": "t_array(t_uint256)dyn_storage"
					}
				],
				"types": {
					"t_address": {
						"encoding": "inplace",
						"label": "address",
						"numberOfBytes": "20"
					},
					"t_array(t_uint256)dyn_storage": {
						"base": "t_uint256",
						"encoding": "dynamic_array",
						"label": "uint256[]",
						"numberOfBytes": "32"
					},
					"t_bool": {
						"encoding": "inplace",
						"label": "bool",
						"numberOfBytes": "1"
					},
					"t_mapping(t_uint256,t_address)": {
						"encoding": "mapping",
						"key": "t_uint256",
						"label": "mapping(uint256 => address)",
						"numberOfBytes": "32",
						"value": "t_address"
					},
					"t_mapping(t_uint256,t_uint256)": {
						"encoding": "mapping",
						"key": "t_uint256",
						"label": "mapping(uint256 => uint256)",
						"numberOfBytes": "32",
						"value": "t_uint256"
					},
					"t_uint256": {
						"encoding": "inplace",
						"label": "uint256",
						"numberOfBytes": "32"
					}
				}
			},
			"userdoc": {
				"kind": "user",
				"methods": {},
				"version": 1
			}
		}
	}
}