{
	"BEP20.sol": {
		"BEP20": {
			"abi": [
				{
					"anonymous": false,
					"inputs": [
						{
							"indexed": true,
							"internalType": "address",
							"name": "owner",
							"type": "address"
						},
						{
							"indexed": true,
							"internalType": "address",
							"name": "spender",
							"type": "address"
						},
						{
							"indexed": false,
							"internalType": "uint256",
							"name": "value",
							"type": "uint256"
						}
					],
					"name": "Approval",
					"type": "event"
				},
				{
					"anonymous": false,
					"inputs": [
						{
							"indexed": true,
							"internalType": "address",
							"name": "previousOwner",
							"type": "address"
						},
						{
							"indexed": true,
							"internalType": "address",
							"name": "newOwner",
							"type": "address"
						}
					],
					"name": "OwnershipTransferred",
					"type": "event"
				},
				{
					"anonymous": false,
					"inputs": [
						{
							"indexed": true,
							"internalType": "address",
							"name": "from",
							"type": "address"
						},
						{
							"indexed": true,
							"internalType": "address",
							"name": "to",
							"type": "address"
						},
						{
							"indexed": false,
							"internalType": "uint256",
							"name": "value",
							"type": "uint256"
						}
					],
					"name": "Transfer",
					"type": "event"
				},
				{
					"inputs": [
						{
							"internalType": "address",
							"name": "owner",
							"type": "address"
						},
						{
							"internalType": "address",
							"name": "spender",
							"type": "address"
						}
					],
					"name": "allowance",
					"outputs": [
						{
							"internalType": "uint256",
							"name": "",
							"type": "uint256"
						}
					],
					"stateMutability": "view",
					"type": "function"
				},
				{
					"inputs": [
						{
							"internalType": "address",
							"name": "spender",
							"type": "address"
						},
						{
							"internalType": "uint256",
							"name": "amount",
							"type": "uint256"
						}
					],
					"name": "approve",
					"outputs": [
						{
							"internalType": "bool",
							"name": "",
							"type": "bool"
						}
					],
					"stateMutability": "nonpayable",
					"type": "function"
				},
				{
					"inputs": [
						{
							"internalType": "address",
							"name": "account",
							"type": "address"
						}
					],
					"name": "balanceOf",
					"outputs": [
						{
							"internalType": "uint256",
							"name": "",
							"type": "uint256"
						}
					],
					"stateMutability": "view",
					"type": "function"
				},
				{
					"inputs": [
						{
							"internalType": "address",
							"name": "spender",
							"type": "address"
						},
						{
							"internalType": "uint256",
							"name": "subtractedValue",
							"type": "uint256"
						}
					],
					"name": "decreaseAllowance",
					"outputs": [
						{
							"internalType": "bool",
							"name": "",
							"type": "bool"
						}
					],
					"stateMutability": "nonpayable",
					"type": "function"
				},
				{
					"inputs": [
						{
							"internalType": "address",
							"name": "spender",
							"type": "address"
						},
						{
							"internalType": "uint256",
							"name": "addedValue",
							"type": "uint256"
						}
					],
					"name": "increaseAllowance",
					"outputs": [
						{
							"internalType": "bool",
							"name": "",
							"type": "bool"
						}
					],
					"stateMutability": "nonpayable",
					"type": "function"
				},
				{
					"inputs": [],
					"name": "isOwner",
					"outputs": [
						{
							"internalType": "bool",
							"name": "",
							"type": "bool"
						}
					],
					"stateMutability": "view",
					"type": "function"
				},
				{
					"inputs": [],
					"name": "owner",
					"outputs": [
						{
							"internalType": "address",
							"name": "",
							"type": "address"
						}
					],
					"stateMutability": "view",
					"type": "function"
				},
				{
					"inputs": [],
					"name": "renounceOwnership",
					"outputs": [],
					"stateMutability": "nonpayable",
					"type": "function"
				},
				{
					"inputs": [],
					"name": "totalSupply",
					"outputs": [
						{
							"internalType": "uint256",
							"name": "",
							"type": "uint256"
						}
					],
					"stateMutability": "view",
					"type": "function"
				},
				{
					"inputs": [
						{
							"internalType": "address",
							"name": "recipient",
							"type": "address"
						},
						{
							"internalType": "uint256",
							"name": "amount",
							"type": "uint256"
						}
					],
					"name": "transfer",
					"outputs": [
						{
							"internalType": "bool",
							"name": "",
							"type": "bool"
						}
					],
					"stateMutability": "nonpayable",
					"type": "function"
				},
				{
					"inputs": [
						{
							"internalType": "address",
							"name": "sender",
							"type": "address"
						},
						{
							"internalType": "address",
							"name": "recipient",
							"type": "address"
						},
						{
							"internalType": "uint256",
							"name": "amount",
							"type": "uint256"
						}
					],
					"name": "transferFrom",
					"outputs": [
						{
							"internalType": "bool",
							"name": "",
							"type": "bool"
						}
					],
					"stateMutability": "nonpayable",
					"type": "function"
				},
				{
					"inputs": [
						{
							"internalType": "address",
							"name": "newOwner",
							"type": "address"
						}
					],
					"name": "transferOwnership",
					"outputs": [],
					"stateMutability": "nonpayable",
					"type": "function"
				}
			],
			"devdoc": {
				"details": "Implementation of the {IBEP20} interface. This implementation is agnostic to the way tokens are created. This means that a supply mechanism has to be added in a derived contract using {_mint}. For a generic mechanism see {BEP20Mintable}. We have followed general OpenZeppelin guidelines: functions revert instead of returning `false` on failure. This behavior is nonetheless conventional and does not conflict with the expectations of BEP20 applications. Additionally, an {Approval} event is emitted on calls to {transferFrom}. This allows applications to reconstruct the allowance for all accounts just by listening to said events. Other implementations of the EIP may not emit these events, as it isn't required by the specification. Finally, the non-standard {decreaseAllowance} and {increaseAllowance} functions have been added to mitigate the well-known issues around setting allowances. See {IBEP20-approve}.",
				"kind": "dev",
				"methods": {
					"allowance(address,address)": {
						"details": "See {IBEP20-allowance}."
					},
					"approve(address,uint256)": {
						"details": "See {IBEP20-approve}. Requirements: - `spender` cannot be the zero address."
					},
					"balanceOf(address)": {
						"details": "See {IBEP20-balanceOf}."
					},
					"decreaseAllowance(address,uint256)": {
						"details": "Atomically decreases the allowance granted to `spender` by the caller. This is an alternative to {approve} that can be used as a mitigation for problems described in {IBEP20-approve}. Emits an {Approval} event indicating the updated allowance. Requirements: - `spender` cannot be the zero address. - `spender` must have allowance for the caller of at least `subtractedValue`."
					},
					"increaseAllowance(address,uint256)": {
						"details": "Atomically increases the allowance granted to `spender` by the caller. This is an alternative to {approve} that can be used as a mitigation for problems described in {IBEP20-approve}. Emits an {Approval} event indicating the updated allowance. Requirements: - `spender` cannot be the zero address."
					},
					"isOwner()": {
						"details": "Returns true if the caller is the current owner."
					},
					"owner()": {
						"details": "Returns the address of the current owner."
					},
					"renounceOwnership()": {
						"details": "Leaves the contract without owner. It will not be possible to call `onlyOwner` functions anymore. Can only be called by the current owner. NOTE: Renouncing ownership will leave the contract without an owner, thereby removing any functionality that is only available to the owner."
					},
					"totalSupply()": {
						"details": "See {IBEP20-totalSupply}."
					},
					"transfer(address,uint256)": {
						"details": "See {IBEP20-transfer}. Requirements: - `recipient` cannot be the zero address. - the caller must have a balance of at least `amount`."
					},
					"transferFrom(address,address,uint256)": {
						"details": "See {IBEP20-transferFrom}. Emits an {Approval} event indicating the updated allowance. This is not required by the EIP. See the note at the beginning of {BEP20}; Requirements: - `sender` and `recipient` cannot be the zero address. - `sender` must have a balance of at least `amount`. - the caller must have allowance for `sender`'s tokens of at least `amount`."
					},
					"transferOwnership(address)": {
						"details": "Transfers ownership of the contract to a new account (`newOwner`). Can only be called by the current owner."
					}
				},
				"version": 1
			},
			"evm": {
				"assembly": "    /* \"BEP20.sol\":1140:7751  contract BEP20 is BEPContext, IBEP20, BEPOwnable {... */\n  mstore(0x40, 0x80)\n  callvalue\n  dup1\n  iszero\n  tag_1\n  jumpi\n  0x00\n  dup1\n  revert\ntag_1:\n  pop\n    /* \"BEPOwnable.sol\":716:733  address msgSender */\n  0x00\n    /* \"BEPOwnable.sol\":736:748  _msgSender() */\n  tag_6\n    /* \"BEPOwnable.sol\":736:746  _msgSender */\n  shl(0x20, tag_7)\n    /* \"BEPOwnable.sol\":736:748  _msgSender() */\n  0x20\n  shr\n  jump\t// in\ntag_6:\n    /* \"BEPOwnable.sol\":716:748  address msgSender = _msgSender() */\n  swap1\n  pop\n    /* \"BEPOwnable.sol\":763:772  msgSender */\n  dup1\n    /* \"BEPOwnable.sol\":754:760  _owner */\n  0x00\n  dup1\n    /* \"BEPOwnable.sol\":754:772  _owner = msgSender */\n  0x0100\n  exp\n  dup2\n  sload\n  dup2\n  0xffffffffffffffffffffffffffffffffffffffff\n  mul\n  not\n  and\n  swap1\n  dup4\n  0xffffffffffffffffffffffffffffffffffffffff\n  and\n  mul\n  or\n  swap1\n  sstore\n  pop\n    /* \"BEPOwnable.sol\":816:825  msgSender */\n  dup1\n    /* \"BEPOwnable.sol\":783:826  OwnershipTransferred(address(0), msgSender) */\n  0xffffffffffffffffffffffffffffffffffffffff\n  and\n    /* \"BEPOwnable.sol\":812:813  0 */\n  0x00\n    /* \"BEPOwnable.sol\":783:826  OwnershipTransferred(address(0), msgSender) */\n  0xffffffffffffffffffffffffffffffffffffffff\n  and\n  0x8be0079c531659141344cd1fd0a4f28419497f9722a3daafe3b4186f6b6457e0\n  mload(0x40)\n  mload(0x40)\n  dup1\n  swap2\n  sub\n  swap1\n  log3\n    /* \"BEPOwnable.sol\":710:831  {... */\n  pop\n    /* \"BEP20.sol\":1140:7751  contract BEP20 is BEPContext, IBEP20, BEPOwnable {... */\n  jump(tag_8)\n    /* \"BEPContext.sol\":760:859  function _msgSender() internal view returns (address payable) {... */\ntag_7:\n    /* \"BEPContext.sol\":805:820  address payable */\n  0x00\n    /* \"BEPContext.sol\":843:853  msg.sender */\n  caller\n    /* \"BEPContext.sol\":828:854  return payable(msg.sender) */\n  swap1\n  pop\n    /* \"BEPContext.sol\":760:859  function _msgSender() internal view returns (address payable) {... */\n  swap1\n  jump\t// out\n    /* \"BEP20.sol\":1140:7751  contract BEP20 is BEPContext, IBEP20, BEPOwnable {... */\ntag_8:\n  dataSize(sub_0)\n  dup1\n  dataOffset(sub_0)\n  0x00\n  codecopy\n  0x00\n  return\nstop\n\nsub_0: assembly {\n        /* \"BEP20.sol\":1140:7751  contract BEP20 is BEPContext, IBEP20, BEPOwnable {... */\n      mstore(0x40, 0x80)\n      callvalue\n      dup1\n      iszero\n      tag_1\n      jumpi\n      0x00\n      dup1\n      revert\n    tag_1:\n      pop\n      jumpi(tag_2, lt(calldatasize, 0x04))\n      shr(0xe0, calldataload(0x00))\n      dup1\n      0x8da5cb5b\n      gt\n      tag_15\n      jumpi\n      dup1\n      0x8da5cb5b\n      eq\n      tag_9\n      jumpi\n      dup1\n      0x8f32d59b\n      eq\n      tag_10\n      jumpi\n      dup1\n      0xa457c2d7\n      eq\n      tag_11\n      jumpi\n      dup1\n      0xa9059cbb\n      eq\n      tag_12\n      jumpi\n      dup1\n      0xdd62ed3e\n      eq\n      tag_13\n      jumpi\n      dup1\n      0xf2fde38b\n      eq\n      tag_14\n      jumpi\n      jump(tag_2)\n    tag_15:\n      dup1\n      0x095ea7b3\n      eq\n      tag_3\n      jumpi\n      dup1\n      0x18160ddd\n      eq\n      tag_4\n      jumpi\n      dup1\n      0x23b872dd\n      eq\n      tag_5\n      jumpi\n      dup1\n      0x39509351\n      eq\n      tag_6\n      jumpi\n      dup1\n      0x70a08231\n      eq\n      tag_7\n      jumpi\n      dup1\n      0x715018a6\n      eq\n      tag_8\n      jumpi\n    tag_2:\n      0x00\n      dup1\n      revert\n        /* \"BEP20.sol\":2334:2482  function approve(address spender, uint256 amount) public override returns (bool) {... */\n    tag_3:\n      tag_16\n      0x04\n      dup1\n      calldatasize\n      sub\n      dup2\n      add\n      swap1\n      tag_17\n      swap2\n      swap1\n      tag_18\n      jump\t// in\n    tag_17:\n      tag_19\n      jump\t// in\n    tag_16:\n      mload(0x40)\n      tag_20\n      swap2\n      swap1\n      tag_21\n      jump\t// in\n    tag_20:\n      mload(0x40)\n      dup1\n      swap2\n      sub\n      swap1\n      return\n        /* \"BEP20.sol\":1427:1519  function totalSupply() public view override returns (uint256) {... */\n    tag_4:\n      tag_22\n      tag_23\n      jump\t// in\n    tag_22:\n      mload(0x40)\n      tag_24\n      swap2\n      swap1\n      tag_25\n      jump\t// in\n    tag_24:\n      mload(0x40)\n      dup1\n      swap2\n      sub\n      swap1\n      return\n        /* \"BEP20.sol\":2914:3257  function transferFrom(... */\n    tag_5:\n      tag_26\n      0x04\n      dup1\n      calldatasize\n      sub\n      dup2\n      add\n      swap1\n      tag_27\n      swap2\n      swap1\n      tag_28\n      jump\t// in\n    tag_27:\n      tag_29\n      jump\t// in\n    tag_26:\n      mload(0x40)\n      tag_30\n      swap2\n      swap1\n      tag_21\n      jump\t// in\n    tag_30:\n      mload(0x40)\n      dup1\n      swap2\n      sub\n      swap1\n      return\n        /* \"BEP20.sol\":3626:3823  function increaseAllowance(address spender, uint256 addedValue) public returns (bool) {... */\n    tag_6:\n      tag_31\n      0x04\n      dup1\n      calldatasize\n      sub\n      dup2\n      add\n      swap1\n      tag_32\n      swap2\n      swap1\n      tag_18\n      jump\t// in\n    tag_32:\n      tag_33\n      jump\t// in\n    tag_31:\n      mload(0x40)\n      tag_34\n      swap2\n      swap1\n      tag_21\n      jump\t// in\n    tag_34:\n      mload(0x40)\n      dup1\n      swap2\n      sub\n      swap1\n      return\n        /* \"BEP20.sol\":1569:1680  function balanceOf(address account) public view override returns (uint256) {... */\n    tag_7:\n      tag_35\n      0x04\n      dup1\n      calldatasize\n      sub\n      dup2\n      add\n      swap1\n      tag_36\n      swap2\n      swap1\n      tag_37\n      jump\t// in\n    tag_36:\n      tag_38\n      jump\t// in\n    tag_35:\n      mload(0x40)\n      tag_39\n      swap2\n      swap1\n      tag_25\n      jump\t// in\n    tag_39:\n      mload(0x40)\n      dup1\n      swap2\n      sub\n      swap1\n      return\n        /* \"BEPOwnable.sol\":1630:1757  function renounceOwnership() public onlyOwner {... */\n    tag_8:\n      tag_40\n      tag_41\n      jump\t// in\n    tag_40:\n      stop\n        /* \"BEPOwnable.sol\":899:970  function owner() public view returns (address) {... */\n    tag_9:\n      tag_42\n      tag_43\n      jump\t// in\n    tag_42:\n      mload(0x40)\n      tag_44\n      swap2\n      swap1\n      tag_45\n      jump\t// in\n    tag_44:\n      mload(0x40)\n      dup1\n      swap2\n      sub\n      swap1\n      return\n        /* \"BEPOwnable.sol\":1218:1304  function isOwner() public view returns (bool) {... */\n    tag_10:\n      tag_46\n      tag_47\n      jump\t// in\n    tag_46:\n      mload(0x40)\n      tag_48\n      swap2\n      swap1\n      tag_21\n      jump\t// in\n    tag_48:\n      mload(0x40)\n      dup1\n      swap2\n      sub\n      swap1\n      return\n        /* \"BEP20.sol\":4280:4552  function decreaseAllowance(address spender, uint256 subtractedValue) public returns (bool) {... */\n    tag_11:\n      tag_49\n      0x04\n      dup1\n      calldatasize\n      sub\n      dup2\n      add\n      swap1\n      tag_50\n      swap2\n      swap1\n      tag_18\n      jump\t// in\n    tag_50:\n      tag_51\n      jump\t// in\n    tag_49:\n      mload(0x40)\n      tag_52\n      swap2\n      swap1\n      tag_21\n      jump\t// in\n    tag_52:\n      mload(0x40)\n      dup1\n      swap2\n      sub\n      swap1\n      return\n        /* \"BEP20.sol\":1865:2027  function transfer(address recipient, uint256 amount) public virtual override returns (bool) {... */\n    tag_12:\n      tag_53\n      0x04\n      dup1\n      calldatasize\n      sub\n      dup2\n      add\n      swap1\n      tag_54\n      swap2\n      swap1\n      tag_18\n      jump\t// in\n    tag_54:\n      tag_55\n      jump\t// in\n    tag_53:\n      mload(0x40)\n      tag_56\n      swap2\n      swap1\n      tag_21\n      jump\t// in\n    tag_56:\n      mload(0x40)\n      dup1\n      swap2\n      sub\n      swap1\n      return\n        /* \"BEP20.sol\":2077:2212  function allowance(address owner, address spender) public view override returns (uint256) {... */\n    tag_13:\n      tag_57\n      0x04\n      dup1\n      calldatasize\n      sub\n      dup2\n      add\n      swap1\n      tag_58\n      swap2\n      swap1\n      tag_59\n      jump\t// in\n    tag_58:\n      tag_60\n      jump\t// in\n    tag_57:\n      mload(0x40)\n      tag_61\n      swap2\n      swap1\n      tag_25\n      jump\t// in\n    tag_61:\n      mload(0x40)\n      dup1\n      swap2\n      sub\n      swap1\n      return\n        /* \"BEPOwnable.sol\":1896:1997  function transferOwnership(address newOwner) public onlyOwner {... */\n    tag_14:\n      tag_62\n      0x04\n      dup1\n      calldatasize\n      sub\n      dup2\n      add\n      swap1\n      tag_63\n      swap2\n      swap1\n      tag_37\n      jump\t// in\n    tag_63:\n      tag_64\n      jump\t// in\n    tag_62:\n      stop\n        /* \"BEP20.sol\":2334:2482  function approve(address spender, uint256 amount) public override returns (bool) {... */\n    tag_19:\n        /* \"BEP20.sol\":2409:2413  bool */\n      0x00\n        /* \"BEP20.sol\":2421:2460  _approve(_msgSender(), spender, amount) */\n      tag_66\n        /* \"BEP20.sol\":2430:2442  _msgSender() */\n      tag_67\n        /* \"BEP20.sol\":2430:2440  _msgSender */\n      tag_68\n        /* \"BEP20.sol\":2430:2442  _msgSender() */\n      jump\t// in\n    tag_67:\n        /* \"BEP20.sol\":2444:2451  spender */\n      dup5\n        /* \"BEP20.sol\":2453:2459  amount */\n      dup5\n        /* \"BEP20.sol\":2421:2429  _approve */\n      tag_69\n        /* \"BEP20.sol\":2421:2460  _approve(_msgSender(), spender, amount) */\n      jump\t// in\n    tag_66:\n        /* \"BEP20.sol\":2473:2477  true */\n      0x01\n        /* \"BEP20.sol\":2466:2477  return true */\n      swap1\n      pop\n        /* \"BEP20.sol\":2334:2482  function approve(address spender, uint256 amount) public override returns (bool) {... */\n      swap3\n      swap2\n      pop\n      pop\n      jump\t// out\n        /* \"BEP20.sol\":1427:1519  function totalSupply() public view override returns (uint256) {... */\n    tag_23:\n        /* \"BEP20.sol\":1480:1487  uint256 */\n      0x00\n        /* \"BEP20.sol\":1502:1514  _totalSupply */\n      sload(0x03)\n        /* \"BEP20.sol\":1495:1514  return _totalSupply */\n      swap1\n      pop\n        /* \"BEP20.sol\":1427:1519  function totalSupply() public view override returns (uint256) {... */\n      swap1\n      jump\t// out\n        /* \"BEP20.sol\":2914:3257  function transferFrom(... */\n    tag_29:\n        /* \"BEP20.sol\":3036:3040  bool */\n      0x00\n        /* \"BEP20.sol\":3048:3084  _transfer(sender, recipient, amount) */\n      tag_72\n        /* \"BEP20.sol\":3058:3064  sender */\n      dup5\n        /* \"BEP20.sol\":3066:3075  recipient */\n      dup5\n        /* \"BEP20.sol\":3077:3083  amount */\n      dup5\n        /* \"BEP20.sol\":3048:3057  _transfer */\n      tag_73\n        /* \"BEP20.sol\":3048:3084  _transfer(sender, recipient, amount) */\n      jump\t// in\n    tag_72:\n        /* \"BEP20.sol\":3090:3235  _approve(... */\n      tag_74\n        /* \"BEP20.sol\":3106:3112  sender */\n      dup5\n        /* \"BEP20.sol\":3120:3132  _msgSender() */\n      tag_75\n        /* \"BEP20.sol\":3120:3130  _msgSender */\n      tag_68\n        /* \"BEP20.sol\":3120:3132  _msgSender() */\n      jump\t// in\n    tag_75:\n        /* \"BEP20.sol\":3140:3229  _allowances[sender][_msgSender()].sub(amount, \"BEP20: transfer amount exceeds allowance\") */\n      tag_76\n        /* \"BEP20.sol\":3178:3184  amount */\n      dup6\n        /* \"BEP20.sol\":3140:3229  _allowances[sender][_msgSender()].sub(amount, \"BEP20: transfer amount exceeds allowance\") */\n      mload(0x40)\n      dup1\n      0x60\n      add\n      0x40\n      mstore\n      dup1\n      0x28\n      dup2\n      mstore\n      0x20\n      add\n      data_4f3506f4ba71c79c3cbd442a3afeb30e9b27af2d84e116a4385b34e267d2287e\n      0x28\n      swap2\n      codecopy\n        /* \"BEP20.sol\":3140:3151  _allowances */\n      0x02\n        /* \"BEP20.sol\":3140:3159  _allowances[sender] */\n      0x00\n        /* \"BEP20.sol\":3152:3158  sender */\n      dup12\n        /* \"BEP20.sol\":3140:3159  _allowances[sender] */\n      0xffffffffffffffffffffffffffffffffffffffff\n      and\n      0xffffffffffffffffffffffffffffffffffffffff\n      and\n      dup2\n      mstore\n      0x20\n      add\n      swap1\n      dup2\n      mstore\n      0x20\n      add\n      0x00\n      keccak256\n        /* \"BEP20.sol\":3140:3173  _allowances[sender][_msgSender()] */\n      0x00\n        /* \"BEP20.sol\":3160:3172  _msgSender() */\n      tag_77\n        /* \"BEP20.sol\":3160:3170  _msgSender */\n      tag_68\n        /* \"BEP20.sol\":3160:3172  _msgSender() */\n      jump\t// in\n    tag_77:\n        /* \"BEP20.sol\":3140:3173  _allowances[sender][_msgSender()] */\n      0xffffffffffffffffffffffffffffffffffffffff\n      and\n      0xffffffffffffffffffffffffffffffffffffffff\n      and\n      dup2\n      mstore\n      0x20\n      add\n      swap1\n      dup2\n      mstore\n      0x20\n      add\n      0x00\n      keccak256\n      sload\n        /* \"BEP20.sol\":3140:3177  _allowances[sender][_msgSender()].sub */\n      tag_78\n      swap1\n        /* \"BEP20.sol\":3140:3229  _allowances[sender][_msgSender()].sub(amount, \"BEP20: transfer amount exceeds allowance\") */\n      swap3\n      swap2\n      swap1\n      0xffffffff\n      and\n      jump\t// in\n    tag_76:\n        /* \"BEP20.sol\":3090:3098  _approve */\n      tag_69\n        /* \"BEP20.sol\":3090:3235  _approve(... */\n      jump\t// in\n    tag_74:\n        /* \"BEP20.sol\":3248:3252  true */\n      0x01\n        /* \"BEP20.sol\":3241:3252  return true */\n      swap1\n      pop\n        /* \"BEP20.sol\":2914:3257  function transferFrom(... */\n      swap4\n      swap3\n      pop\n      pop\n      pop\n      jump\t// out\n        /* \"BEP20.sol\":3626:3823  function increaseAllowance(address spender, uint256 addedValue) public returns (bool) {... */\n    tag_33:\n        /* \"BEP20.sol\":3706:3710  bool */\n      0x00\n        /* \"BEP20.sol\":3718:3801  _approve(_msgSender(), spender, _allowances[_msgSender()][spender].add(addedValue)) */\n      tag_80\n        /* \"BEP20.sol\":3727:3739  _msgSender() */\n      tag_81\n        /* \"BEP20.sol\":3727:3737  _msgSender */\n      tag_68\n        /* \"BEP20.sol\":3727:3739  _msgSender() */\n      jump\t// in\n    tag_81:\n        /* \"BEP20.sol\":3741:3748  spender */\n      dup5\n        /* \"BEP20.sol\":3750:3800  _allowances[_msgSender()][spender].add(addedValue) */\n      tag_82\n        /* \"BEP20.sol\":3789:3799  addedValue */\n      dup6\n        /* \"BEP20.sol\":3750:3761  _allowances */\n      0x02\n        /* \"BEP20.sol\":3750:3775  _allowances[_msgSender()] */\n      0x00\n        /* \"BEP20.sol\":3762:3774  _msgSender() */\n      tag_83\n        /* \"BEP20.sol\":3762:3772  _msgSender */\n      tag_68\n        /* \"BEP20.sol\":3762:3774  _msgSender() */\n      jump\t// in\n    tag_83:\n        /* \"BEP20.sol\":3750:3775  _allowances[_msgSender()] */\n      0xffffffffffffffffffffffffffffffffffffffff\n      and\n      0xffffffffffffffffffffffffffffffffffffffff\n      and\n      dup2\n      mstore\n      0x20\n      add\n      swap1\n      dup2\n      mstore\n      0x20\n      add\n      0x00\n      keccak256\n        /* \"BEP20.sol\":3750:3784  _allowances[_msgSender()][spender] */\n      0x00\n        /* \"BEP20.sol\":3776:3783  spender */\n      dup10\n        /* \"BEP20.sol\":3750:3784  _allowances[_msgSender()][spender] */\n      0xffffffffffffffffffffffffffffffffffffffff\n      and\n      0xffffffffffffffffffffffffffffffffffffffff\n      and\n      dup2\n      mstore\n      0x20\n      add\n      swap1\n      dup2\n      mstore\n      0x20\n      add\n      0x00\n      keccak256\n      sload\n        /* \"BEP20.sol\":3750:3788  _allowances[_msgSender()][spender].add */\n      tag_84\n      swap1\n        /* \"BEP20.sol\":3750:3800  _allowances[_msgSender()][spender].add(addedValue) */\n      swap2\n      swap1\n      0xffffffff\n      and\n      jump\t// in\n    tag_82:\n        /* \"BEP20.sol\":3718:3726  _approve */\n      tag_69\n        /* \"BEP20.sol\":3718:3801  _approve(_msgSender(), spender, _allowances[_msgSender()][spender].add(addedValue)) */\n      jump\t// in\n    tag_80:\n        /* \"BEP20.sol\":3814:3818  true */\n      0x01\n        /* \"BEP20.sol\":3807:3818  return true */\n      swap1\n      pop\n        /* \"BEP20.sol\":3626:3823  function increaseAllowance(address spender, uint256 addedValue) public returns (bool) {... */\n      swap3\n      swap2\n      pop\n      pop\n      jump\t// out\n        /* \"BEP20.sol\":1569:1680  function balanceOf(address account) public view override returns (uint256) {... */\n    tag_38:\n        /* \"BEP20.sol\":1635:1642  uint256 */\n      0x00\n        /* \"BEP20.sol\":1657:1666  _balances */\n      0x01\n        /* \"BEP20.sol\":1657:1675  _balances[account] */\n      0x00\n        /* \"BEP20.sol\":1667:1674  account */\n      dup4\n        /* \"BEP20.sol\":1657:1675  _balances[account] */\n      0xffffffffffffffffffffffffffffffffffffffff\n      and\n      0xffffffffffffffffffffffffffffffffffffffff\n      and\n      dup2\n      mstore\n      0x20\n      add\n      swap1\n      dup2\n      mstore\n      0x20\n      add\n      0x00\n      keccak256\n      sload\n        /* \"BEP20.sol\":1650:1675  return _balances[account] */\n      swap1\n      pop\n        /* \"BEP20.sol\":1569:1680  function balanceOf(address account) public view override returns (uint256) {... */\n      swap2\n      swap1\n      pop\n      jump\t// out\n        /* \"BEPOwnable.sol\":1630:1757  function renounceOwnership() public onlyOwner {... */\n    tag_41:\n        /* \"BEPOwnable.sol\":1085:1094  isOwner() */\n      tag_87\n        /* \"BEPOwnable.sol\":1085:1092  isOwner */\n      tag_47\n        /* \"BEPOwnable.sol\":1085:1094  isOwner() */\n      jump\t// in\n    tag_87:\n        /* \"BEPOwnable.sol\":1077:1131  require(isOwner(), \"Ownable: caller is not the owner\") */\n      tag_88\n      jumpi\n      mload(0x40)\n      0x08c379a000000000000000000000000000000000000000000000000000000000\n      dup2\n      mstore\n      0x04\n      add\n      tag_89\n      swap1\n      tag_90\n      jump\t// in\n    tag_89:\n      mload(0x40)\n      dup1\n      swap2\n      sub\n      swap1\n      revert\n    tag_88:\n        /* \"BEPOwnable.sol\":1724:1725  0 */\n      0x00\n        /* \"BEPOwnable.sol\":1687:1727  OwnershipTransferred(_owner, address(0)) */\n      0xffffffffffffffffffffffffffffffffffffffff\n      and\n        /* \"BEPOwnable.sol\":1708:1714  _owner */\n      0x00\n      dup1\n      sload\n      swap1\n      0x0100\n      exp\n      swap1\n      div\n      0xffffffffffffffffffffffffffffffffffffffff\n      and\n        /* \"BEPOwnable.sol\":1687:1727  OwnershipTransferred(_owner, address(0)) */\n      0xffffffffffffffffffffffffffffffffffffffff\n      and\n      0x8be0079c531659141344cd1fd0a4f28419497f9722a3daafe3b4186f6b6457e0\n      mload(0x40)\n      mload(0x40)\n      dup1\n      swap2\n      sub\n      swap1\n      log3\n        /* \"BEPOwnable.sol\":1750:1751  0 */\n      0x00\n        /* \"BEPOwnable.sol\":1733:1739  _owner */\n      dup1\n      0x00\n        /* \"BEPOwnable.sol\":1733:1752  _owner = address(0) */\n      0x0100\n      exp\n      dup2\n      sload\n      dup2\n      0xffffffffffffffffffffffffffffffffffffffff\n      mul\n      not\n      and\n      swap1\n      dup4\n      0xffffffffffffffffffffffffffffffffffffffff\n      and\n      mul\n      or\n      swap1\n      sstore\n      pop\n        /* \"BEPOwnable.sol\":1630:1757  function renounceOwnership() public onlyOwner {... */\n      jump\t// out\n        /* \"BEPOwnable.sol\":899:970  function owner() public view returns (address) {... */\n    tag_43:\n        /* \"BEPOwnable.sol\":937:944  address */\n      0x00\n        /* \"BEPOwnable.sol\":959:965  _owner */\n      dup1\n      0x00\n      swap1\n      sload\n      swap1\n      0x0100\n      exp\n      swap1\n      div\n      0xffffffffffffffffffffffffffffffffffffffff\n      and\n        /* \"BEPOwnable.sol\":952:965  return _owner */\n      swap1\n      pop\n        /* \"BEPOwnable.sol\":899:970  function owner() public view returns (address) {... */\n      swap1\n      jump\t// out\n        /* \"BEPOwnable.sol\":1218:1304  function isOwner() public view returns (bool) {... */\n    tag_47:\n        /* \"BEPOwnable.sol\":1258:1262  bool */\n      0x00\n        /* \"BEPOwnable.sol\":1293:1299  _owner */\n      dup1\n      0x00\n      swap1\n      sload\n      swap1\n      0x0100\n      exp\n      swap1\n      div\n      0xffffffffffffffffffffffffffffffffffffffff\n      and\n        /* \"BEPOwnable.sol\":1277:1299  _msgSender() == _owner */\n      0xffffffffffffffffffffffffffffffffffffffff\n      and\n        /* \"BEPOwnable.sol\":1277:1289  _msgSender() */\n      tag_94\n        /* \"BEPOwnable.sol\":1277:1287  _msgSender */\n      tag_68\n        /* \"BEPOwnable.sol\":1277:1289  _msgSender() */\n      jump\t// in\n    tag_94:\n        /* \"BEPOwnable.sol\":1277:1299  _msgSender() == _owner */\n      0xffffffffffffffffffffffffffffffffffffffff\n      and\n      eq\n        /* \"BEPOwnable.sol\":1270:1299  return _msgSender() == _owner */\n      swap1\n      pop\n        /* \"BEPOwnable.sol\":1218:1304  function isOwner() public view returns (bool) {... */\n      swap1\n      jump\t// out\n        /* \"BEP20.sol\":4280:4552  function decreaseAllowance(address spender, uint256 subtractedValue) public returns (bool) {... */\n    tag_51:\n        /* \"BEP20.sol\":4365:4369  bool */\n      0x00\n        /* \"BEP20.sol\":4377:4530  _approve(... */\n      tag_96\n        /* \"BEP20.sol\":4393:4405  _msgSender() */\n      tag_97\n        /* \"BEP20.sol\":4393:4403  _msgSender */\n      tag_68\n        /* \"BEP20.sol\":4393:4405  _msgSender() */\n      jump\t// in\n    tag_97:\n        /* \"BEP20.sol\":4413:4420  spender */\n      dup5\n        /* \"BEP20.sol\":4428:4524  _allowances[_msgSender()][spender].sub(subtractedValue, \"BEP20: decreased allowance below zero\") */\n      tag_98\n        /* \"BEP20.sol\":4467:4482  subtractedValue */\n      dup6\n        /* \"BEP20.sol\":4428:4524  _allowances[_msgSender()][spender].sub(subtractedValue, \"BEP20: decreased allowance below zero\") */\n      mload(0x40)\n      dup1\n      0x60\n      add\n      0x40\n      mstore\n      dup1\n      0x25\n      dup2\n      mstore\n      0x20\n      add\n      data_b7060b3538dcd3ddc8a941c91636a8115a1aa46914747fd9809d543bbb46cd22\n      0x25\n      swap2\n      codecopy\n        /* \"BEP20.sol\":4428:4439  _allowances */\n      0x02\n        /* \"BEP20.sol\":4428:4453  _allowances[_msgSender()] */\n      0x00\n        /* \"BEP20.sol\":4440:4452  _msgSender() */\n      tag_99\n        /* \"BEP20.sol\":4440:4450  _msgSender */\n      tag_68\n        /* \"BEP20.sol\":4440:4452  _msgSender() */\n      jump\t// in\n    tag_99:\n        /* \"BEP20.sol\":4428:4453  _allowances[_msgSender()] */\n      0xffffffffffffffffffffffffffffffffffffffff\n      and\n      0xffffffffffffffffffffffffffffffffffffffff\n      and\n      dup2\n      mstore\n      0x20\n      add\n      swap1\n      dup2\n      mstore\n      0x20\n      add\n      0x00\n      keccak256\n        /* \"BEP20.sol\":4428:4462  _allowances[_msgSender()][spender] */\n      0x00\n        /* \"BEP20.sol\":4454:4461  spender */\n      dup11\n        /* \"BEP20.sol\":4428:4462  _allowances[_msgSender()][spender] */\n      0xffffffffffffffffffffffffffffffffffffffff\n      and\n      0xffffffffffffffffffffffffffffffffffffffff\n      and\n      dup2\n      mstore\n      0x20\n      add\n      swap1\n      dup2\n      mstore\n      0x20\n      add\n      0x00\n      keccak256\n      sload\n        /* \"BEP20.sol\":4428:4466  _allowances[_msgSender()][spender].sub */\n      tag_78\n      swap1\n        /* \"BEP20.sol\":4428:4524  _allowances[_msgSender()][spender].sub(subtractedValue, \"BEP20: decreased allowance below zero\") */\n      swap3\n      swap2\n      swap1\n      0xffffffff\n      and\n      jump\t// in\n    tag_98:\n        /* \"BEP20.sol\":4377:4385  _approve */\n      tag_69\n        /* \"BEP20.sol\":4377:4530  _approve(... */\n      jump\t// in\n    tag_96:\n        /* \"BEP20.sol\":4543:4547  true */\n      0x01\n        /* \"BEP20.sol\":4536:4547  return true */\n      swap1\n      pop\n        /* \"BEP20.sol\":4280:4552  function decreaseAllowance(address spender, uint256 subtractedValue) public returns (bool) {... */\n      swap3\n      swap2\n      pop\n      pop\n      jump\t// out\n        /* \"BEP20.sol\":1865:2027  function transfer(address recipient, uint256 amount) public virtual override returns (bool) {... */\n    tag_55:\n        /* \"BEP20.sol\":1951:1955  bool */\n      0x00\n        /* \"BEP20.sol\":1963:2005  _transfer(_msgSender(), recipient, amount) */\n      tag_101\n        /* \"BEP20.sol\":1973:1985  _msgSender() */\n      tag_102\n        /* \"BEP20.sol\":1973:1983  _msgSender */\n      tag_68\n        /* \"BEP20.sol\":1973:1985  _msgSender() */\n      jump\t// in\n    tag_102:\n        /* \"BEP20.sol\":1987:1996  recipient */\n      dup5\n        /* \"BEP20.sol\":1998:2004  amount */\n      dup5\n        /* \"BEP20.sol\":1963:1972  _transfer */\n      tag_73\n        /* \"BEP20.sol\":1963:2005  _transfer(_msgSender(), recipient, amount) */\n      jump\t// in\n    tag_101:\n        /* \"BEP20.sol\":2018:2022  true */\n      0x01\n        /* \"BEP20.sol\":2011:2022  return true */\n      swap1\n      pop\n        /* \"BEP20.sol\":1865:2027  function transfer(address recipient, uint256 amount) public virtual override returns (bool) {... */\n      swap3\n      swap2\n      pop\n      pop\n      jump\t// out\n        /* \"BEP20.sol\":2077:2212  function allowance(address owner, address spender) public view override returns (uint256) {... */\n    tag_60:\n        /* \"BEP20.sol\":2158:2165  uint256 */\n      0x00\n        /* \"BEP20.sol\":2180:2191  _allowances */\n      0x02\n        /* \"BEP20.sol\":2180:2198  _allowances[owner] */\n      0x00\n        /* \"BEP20.sol\":2192:2197  owner */\n      dup5\n        /* \"BEP20.sol\":2180:2198  _allowances[owner] */\n      0xffffffffffffffffffffffffffffffffffffffff\n      and\n      0xffffffffffffffffffffffffffffffffffffffff\n      and\n      dup2\n      mstore\n      0x20\n      add\n      swap1\n      dup2\n      mstore\n      0x20\n      add\n      0x00\n      keccak256\n        /* \"BEP20.sol\":2180:2207  _allowances[owner][spender] */\n      0x00\n        /* \"BEP20.sol\":2199:2206  spender */\n      dup4\n        /* \"BEP20.sol\":2180:2207  _allowances[owner][spender] */\n      0xffffffffffffffffffffffffffffffffffffffff\n      and\n      0xffffffffffffffffffffffffffffffffffffffff\n      and\n      dup2\n      mstore\n      0x20\n      add\n      swap1\n      dup2\n      mstore\n      0x20\n      add\n      0x00\n      keccak256\n      sload\n        /* \"BEP20.sol\":2173:2207  return _allowances[owner][spender] */\n      swap1\n      pop\n        /* \"BEP20.sol\":2077:2212  function allowance(address owner, address spender) public view override returns (uint256) {... */\n      swap3\n      swap2\n      pop\n      pop\n      jump\t// out\n        /* \"BEPOwnable.sol\":1896:1997  function transferOwnership(address newOwner) public onlyOwner {... */\n    tag_64:\n        /* \"BEPOwnable.sol\":1085:1094  isOwner() */\n      tag_105\n        /* \"BEPOwnable.sol\":1085:1092  isOwner */\n      tag_47\n        /* \"BEPOwnable.sol\":1085:1094  isOwner() */\n      jump\t// in\n    tag_105:\n        /* \"BEPOwnable.sol\":1077:1131  require(isOwner(), \"Ownable: caller is not the owner\") */\n      tag_106\n      jumpi\n      mload(0x40)\n      0x08c379a000000000000000000000000000000000000000000000000000000000\n      dup2\n      mstore\n      0x04\n      add\n      tag_107\n      swap1\n      tag_90\n      jump\t// in\n    tag_107:\n      mload(0x40)\n      dup1\n      swap2\n      sub\n      swap1\n      revert\n    tag_106:\n        /* \"BEPOwnable.sol\":1964:1992  _transferOwnership(newOwner) */\n      tag_109\n        /* \"BEPOwnable.sol\":1983:1991  newOwner */\n      dup2\n        /* \"BEPOwnable.sol\":1964:1982  _transferOwnership */\n      tag_110\n        /* \"BEPOwnable.sol\":1964:1992  _transferOwnership(newOwner) */\n      jump\t// in\n    tag_109:\n        /* \"BEPOwnable.sol\":1896:1997  function transferOwnership(address newOwner) public onlyOwner {... */\n      pop\n      jump\t// out\n        /* \"BEPContext.sol\":760:859  function _msgSender() internal view returns (address payable) {... */\n    tag_68:\n        /* \"BEPContext.sol\":805:820  address payable */\n      0x00\n        /* \"BEPContext.sol\":843:853  msg.sender */\n      caller\n        /* \"BEPContext.sol\":828:854  return payable(msg.sender) */\n      swap1\n      pop\n        /* \"BEPContext.sol\":760:859  function _msgSender() internal view returns (address payable) {... */\n      swap1\n      jump\t// out\n        /* \"BEP20.sol\":7012:7342  function _approve(... */\n    tag_69:\n        /* \"BEP20.sol\":7134:7135  0 */\n      0x00\n        /* \"BEP20.sol\":7117:7136  owner != address(0) */\n      0xffffffffffffffffffffffffffffffffffffffff\n      and\n        /* \"BEP20.sol\":7117:7122  owner */\n      dup4\n        /* \"BEP20.sol\":7117:7136  owner != address(0) */\n      0xffffffffffffffffffffffffffffffffffffffff\n      and\n      eq\n      iszero\n        /* \"BEP20.sol\":7109:7177  require(owner != address(0), \"BEP20: approve from the zero address\") */\n      tag_113\n      jumpi\n      mload(0x40)\n      0x08c379a000000000000000000000000000000000000000000000000000000000\n      dup2\n      mstore\n      0x04\n      add\n      tag_114\n      swap1\n      tag_115\n      jump\t// in\n    tag_114:\n      mload(0x40)\n      dup1\n      swap2\n      sub\n      swap1\n      revert\n    tag_113:\n        /* \"BEP20.sol\":7210:7211  0 */\n      0x00\n        /* \"BEP20.sol\":7191:7212  spender != address(0) */\n      0xffffffffffffffffffffffffffffffffffffffff\n      and\n        /* \"BEP20.sol\":7191:7198  spender */\n      dup3\n        /* \"BEP20.sol\":7191:7212  spender != address(0) */\n      0xffffffffffffffffffffffffffffffffffffffff\n      and\n      eq\n      iszero\n        /* \"BEP20.sol\":7183:7251  require(spender != address(0), \"BEP20: approve to the zero address\") */\n      tag_116\n      jumpi\n      mload(0x40)\n      0x08c379a000000000000000000000000000000000000000000000000000000000\n      dup2\n      mstore\n      0x04\n      add\n      tag_117\n      swap1\n      tag_118\n      jump\t// in\n    tag_117:\n      mload(0x40)\n      dup1\n      swap2\n      sub\n      swap1\n      revert\n    tag_116:\n        /* \"BEP20.sol\":7288:7294  amount */\n      dup1\n        /* \"BEP20.sol\":7258:7269  _allowances */\n      0x02\n        /* \"BEP20.sol\":7258:7276  _allowances[owner] */\n      0x00\n        /* \"BEP20.sol\":7270:7275  owner */\n      dup6\n        /* \"BEP20.sol\":7258:7276  _allowances[owner] */\n      0xffffffffffffffffffffffffffffffffffffffff\n      and\n      0xffffffffffffffffffffffffffffffffffffffff\n      and\n      dup2\n      mstore\n      0x20\n      add\n      swap1\n      dup2\n      mstore\n      0x20\n      add\n      0x00\n      keccak256\n        /* \"BEP20.sol\":7258:7285  _allowances[owner][spender] */\n      0x00\n        /* \"BEP20.sol\":7277:7284  spender */\n      dup5\n        /* \"BEP20.sol\":7258:7285  _allowances[owner][spender] */\n      0xffffffffffffffffffffffffffffffffffffffff\n      and\n      0xffffffffffffffffffffffffffffffffffffffff\n      and\n      dup2\n      mstore\n      0x20\n      add\n      swap1\n      dup2\n      mstore\n      0x20\n      add\n      0x00\n      keccak256\n        /* \"BEP20.sol\":7258:7294  _allowances[owner][spender] = amount */\n      dup2\n      swap1\n      sstore\n      pop\n        /* \"BEP20.sol\":7321:7328  spender */\n      dup2\n        /* \"BEP20.sol\":7305:7337  Approval(owner, spender, amount) */\n      0xffffffffffffffffffffffffffffffffffffffff\n      and\n        /* \"BEP20.sol\":7314:7319  owner */\n      dup4\n        /* \"BEP20.sol\":7305:7337  Approval(owner, spender, amount) */\n      0xffffffffffffffffffffffffffffffffffffffff\n      and\n      0x8c5be1e5ebec7d5bd14f71427d1e84f3dd0314c0f7b2291e5b200ac8c7c3b925\n        /* \"BEP20.sol\":7330:7336  amount */\n      dup4\n        /* \"BEP20.sol\":7305:7337  Approval(owner, spender, amount) */\n      mload(0x40)\n      tag_119\n      swap2\n      swap1\n      tag_25\n      jump\t// in\n    tag_119:\n      mload(0x40)\n      dup1\n      swap2\n      sub\n      swap1\n      log3\n        /* \"BEP20.sol\":7012:7342  function _approve(... */\n      pop\n      pop\n      pop\n      jump\t// out\n        /* \"BEP20.sol\":4996:5462  function _transfer(... */\n    tag_73:\n        /* \"BEP20.sol\":5131:5132  0 */\n      0x00\n        /* \"BEP20.sol\":5113:5133  sender != address(0) */\n      0xffffffffffffffffffffffffffffffffffffffff\n      and\n        /* \"BEP20.sol\":5113:5119  sender */\n      dup4\n        /* \"BEP20.sol\":5113:5133  sender != address(0) */\n      0xffffffffffffffffffffffffffffffffffffffff\n      and\n      eq\n      iszero\n        /* \"BEP20.sol\":5105:5175  require(sender != address(0), \"BEP20: transfer from the zero address\") */\n      tag_121\n      jumpi\n      mload(0x40)\n      0x08c379a000000000000000000000000000000000000000000000000000000000\n      dup2\n      mstore\n      0x04\n      add\n      tag_122\n      swap1\n      tag_123\n      jump\t// in\n    tag_122:\n      mload(0x40)\n      dup1\n      swap2\n      sub\n      swap1\n      revert\n    tag_121:\n        /* \"BEP20.sol\":5210:5211  0 */\n      0x00\n        /* \"BEP20.sol\":5189:5212  recipient != address(0) */\n      0xffffffffffffffffffffffffffffffffffffffff\n      and\n        /* \"BEP20.sol\":5189:5198  recipient */\n      dup3\n        /* \"BEP20.sol\":5189:5212  recipient != address(0) */\n      0xffffffffffffffffffffffffffffffffffffffff\n      and\n      eq\n      iszero\n        /* \"BEP20.sol\":5181:5252  require(recipient != address(0), \"BEP20: transfer to the zero address\") */\n      tag_124\n      jumpi\n      mload(0x40)\n      0x08c379a000000000000000000000000000000000000000000000000000000000\n      dup2\n      mstore\n      0x04\n      add\n      tag_125\n      swap1\n      tag_126\n      jump\t// in\n    tag_125:\n      mload(0x40)\n      dup1\n      swap2\n      sub\n      swap1\n      revert\n    tag_124:\n        /* \"BEP20.sol\":5279:5350  _balances[sender].sub(amount, \"BEP20: transfer amount exceeds balance\") */\n      tag_127\n        /* \"BEP20.sol\":5301:5307  amount */\n      dup2\n        /* \"BEP20.sol\":5279:5350  _balances[sender].sub(amount, \"BEP20: transfer amount exceeds balance\") */\n      mload(0x40)\n      dup1\n      0x60\n      add\n      0x40\n      mstore\n      dup1\n      0x26\n      dup2\n      mstore\n      0x20\n      add\n      data_a91efd7a65ef5b4ae4d6568d674798b78a5a89184dd296c100513251c22d3e73\n      0x26\n      swap2\n      codecopy\n        /* \"BEP20.sol\":5279:5288  _balances */\n      0x01\n        /* \"BEP20.sol\":5279:5296  _balances[sender] */\n      0x00\n        /* \"BEP20.sol\":5289:5295  sender */\n      dup8\n        /* \"BEP20.sol\":5279:5296  _balances[sender] */\n      0xffffffffffffffffffffffffffffffffffffffff\n      and\n      0xffffffffffffffffffffffffffffffffffffffff\n      and\n      dup2\n      mstore\n      0x20\n      add\n      swap1\n      dup2\n      mstore\n      0x20\n      add\n      0x00\n      keccak256\n      sload\n        /* \"BEP20.sol\":5279:5300  _balances[sender].sub */\n      tag_78\n      swap1\n        /* \"BEP20.sol\":5279:5350  _balances[sender].sub(amount, \"BEP20: transfer amount exceeds balance\") */\n      swap3\n      swap2\n      swap1\n      0xffffffff\n      and\n      jump\t// in\n    tag_127:\n        /* \"BEP20.sol\":5259:5268  _balances */\n      0x01\n        /* \"BEP20.sol\":5259:5276  _balances[sender] */\n      0x00\n        /* \"BEP20.sol\":5269:5275  sender */\n      dup6\n        /* \"BEP20.sol\":5259:5276  _balances[sender] */\n      0xffffffffffffffffffffffffffffffffffffffff\n      and\n      0xffffffffffffffffffffffffffffffffffffffff\n      and\n      dup2\n      mstore\n      0x20\n      add\n      swap1\n      dup2\n      mstore\n      0x20\n      add\n      0x00\n      keccak256\n        /* \"BEP20.sol\":5259:5350  _balances[sender] = _balances[sender].sub(amount, \"BEP20: transfer amount exceeds balance\") */\n      dup2\n      swap1\n      sstore\n      pop\n        /* \"BEP20.sol\":5379:5411  _balances[recipient].add(amount) */\n      tag_128\n        /* \"BEP20.sol\":5404:5410  amount */\n      dup2\n        /* \"BEP20.sol\":5379:5388  _balances */\n      0x01\n        /* \"BEP20.sol\":5379:5399  _balances[recipient] */\n      0x00\n        /* \"BEP20.sol\":5389:5398  recipient */\n      dup6\n        /* \"BEP20.sol\":5379:5399  _balances[recipient] */\n      0xffffffffffffffffffffffffffffffffffffffff\n      and\n      0xffffffffffffffffffffffffffffffffffffffff\n      and\n      dup2\n      mstore\n      0x20\n      add\n      swap1\n      dup2\n      mstore\n      0x20\n      add\n      0x00\n      keccak256\n      sload\n        /* \"BEP20.sol\":5379:5403  _balances[recipient].add */\n      tag_84\n      swap1\n        /* \"BEP20.sol\":5379:5411  _balances[recipient].add(amount) */\n      swap2\n      swap1\n      0xffffffff\n      and\n      jump\t// in\n    tag_128:\n        /* \"BEP20.sol\":5356:5365  _balances */\n      0x01\n        /* \"BEP20.sol\":5356:5376  _balances[recipient] */\n      0x00\n        /* \"BEP20.sol\":5366:5375  recipient */\n      dup5\n        /* \"BEP20.sol\":5356:5376  _balances[recipient] */\n      0xffffffffffffffffffffffffffffffffffffffff\n      and\n      0xffffffffffffffffffffffffffffffffffffffff\n      and\n      dup2\n      mstore\n      0x20\n      add\n      swap1\n      dup2\n      mstore\n      0x20\n      add\n      0x00\n      keccak256\n        /* \"BEP20.sol\":5356:5411  _balances[recipient] = _balances[recipient].add(amount) */\n      dup2\n      swap1\n      sstore\n      pop\n        /* \"BEP20.sol\":5439:5448  recipient */\n      dup2\n        /* \"BEP20.sol\":5422:5457  Transfer(sender, recipient, amount) */\n      0xffffffffffffffffffffffffffffffffffffffff\n      and\n        /* \"BEP20.sol\":5431:5437  sender */\n      dup4\n        /* \"BEP20.sol\":5422:5457  Transfer(sender, recipient, amount) */\n      0xffffffffffffffffffffffffffffffffffffffff\n      and\n      0xddf252ad1be2c89b69c2b068fc378daa952ba7f163c4a11628f55a4df523b3ef\n        /* \"BEP20.sol\":5450:5456  amount */\n      dup4\n        /* \"BEP20.sol\":5422:5457  Transfer(sender, recipient, amount) */\n      mload(0x40)\n      tag_129\n      swap2\n      swap1\n      tag_25\n      jump\t// in\n    tag_129:\n      mload(0x40)\n      dup1\n      swap2\n      sub\n      swap1\n      log3\n        /* \"BEP20.sol\":4996:5462  function _transfer(... */\n      pop\n      pop\n      pop\n      jump\t// out\n        /* \"SafeMath.sol\":1692:1881  function sub(... */\n    tag_78:\n        /* \"SafeMath.sol\":1794:1801  uint256 */\n      0x00\n        /* \"SafeMath.sol\":1822:1823  a */\n      dup4\n        /* \"SafeMath.sol\":1817:1818  b */\n      dup4\n        /* \"SafeMath.sol\":1817:1823  b <= a */\n      gt\n      iszero\n        /* \"SafeMath.sol\":1825:1837  errorMessage */\n      dup3\n        /* \"SafeMath.sol\":1809:1838  require(b <= a, errorMessage) */\n      swap1\n      tag_131\n      jumpi\n      mload(0x40)\n      0x08c379a000000000000000000000000000000000000000000000000000000000\n      dup2\n      mstore\n      0x04\n      add\n      tag_132\n      swap2\n      swap1\n      tag_133\n      jump\t// in\n    tag_132:\n      mload(0x40)\n      dup1\n      swap2\n      sub\n      swap1\n      revert\n    tag_131:\n      pop\n        /* \"SafeMath.sol\":1844:1853  uint256 c */\n      0x00\n        /* \"SafeMath.sol\":1860:1861  b */\n      dup4\n        /* \"SafeMath.sol\":1856:1857  a */\n      dup6\n        /* \"SafeMath.sol\":1856:1861  a - b */\n      tag_134\n      swap2\n      swap1\n      tag_135\n      jump\t// in\n    tag_134:\n        /* \"SafeMath.sol\":1844:1861  uint256 c = a - b */\n      swap1\n      pop\n        /* \"SafeMath.sol\":1875:1876  c */\n      dup1\n        /* \"SafeMath.sol\":1868:1876  return c */\n      swap2\n      pop\n      pop\n        /* \"SafeMath.sol\":1692:1881  function sub(... */\n      swap4\n      swap3\n      pop\n      pop\n      pop\n      jump\t// out\n        /* \"SafeMath.sol\":858:1020  function add(uint256 a, uint256 b) internal pure returns (uint256) {... */\n    tag_84:\n        /* \"SafeMath.sol\":916:923  uint256 */\n      0x00\n        /* \"SafeMath.sol\":931:940  uint256 c */\n      dup1\n        /* \"SafeMath.sol\":947:948  b */\n      dup3\n        /* \"SafeMath.sol\":943:944  a */\n      dup5\n        /* \"SafeMath.sol\":943:948  a + b */\n      tag_137\n      swap2\n      swap1\n      tag_138\n      jump\t// in\n    tag_137:\n        /* \"SafeMath.sol\":931:948  uint256 c = a + b */\n      swap1\n      pop\n        /* \"SafeMath.sol\":967:968  a */\n      dup4\n        /* \"SafeMath.sol\":962:963  c */\n      dup2\n        /* \"SafeMath.sol\":962:968  c >= a */\n      lt\n      iszero\n        /* \"SafeMath.sol\":954:1000  require(c >= a, \"SafeMath: addition overflow\") */\n      tag_139\n      jumpi\n      mload(0x40)\n      0x08c379a000000000000000000000000000000000000000000000000000000000\n      dup2\n      mstore\n      0x04\n      add\n      tag_140\n      swap1\n      tag_141\n      jump\t// in\n    tag_140:\n      mload(0x40)\n      dup1\n      swap2\n      sub\n      swap1\n      revert\n    tag_139:\n        /* \"SafeMath.sol\":1014:1015  c */\n      dup1\n        /* \"SafeMath.sol\":1007:1015  return c */\n      swap2\n      pop\n      pop\n        /* \"SafeMath.sol\":858:1020  function add(uint256 a, uint256 b) internal pure returns (uint256) {... */\n      swap3\n      swap2\n      pop\n      pop\n      jump\t// out\n        /* \"BEPOwnable.sol\":2090:2301  function _transferOwnership(address newOwner) internal {... */\n    tag_110:\n        /* \"BEPOwnable.sol\":2179:2180  0 */\n      0x00\n        /* \"BEPOwnable.sol\":2159:2181  newOwner != address(0) */\n      0xffffffffffffffffffffffffffffffffffffffff\n      and\n        /* \"BEPOwnable.sol\":2159:2167  newOwner */\n      dup2\n        /* \"BEPOwnable.sol\":2159:2181  newOwner != address(0) */\n      0xffffffffffffffffffffffffffffffffffffffff\n      and\n      eq\n      iszero\n        /* \"BEPOwnable.sol\":2151:2224  require(newOwner != address(0), \"Ownable: new owner is the zero address\") */\n      tag_143\n      jumpi\n      mload(0x40)\n      0x08c379a000000000000000000000000000000000000000000000000000000000\n      dup2\n      mstore\n      0x04\n      add\n      tag_144\n      swap1\n      tag_145\n      jump\t// in\n    tag_144:\n      mload(0x40)\n      dup1\n      swap2\n      sub\n      swap1\n      revert\n    tag_143:\n        /* \"BEPOwnable.sol\":2264:2272  newOwner */\n      dup1\n        /* \"BEPOwnable.sol\":2235:2273  OwnershipTransferred(_owner, newOwner) */\n      0xffffffffffffffffffffffffffffffffffffffff\n      and\n        /* \"BEPOwnable.sol\":2256:2262  _owner */\n      0x00\n      dup1\n      sload\n      swap1\n      0x0100\n      exp\n      swap1\n      div\n      0xffffffffffffffffffffffffffffffffffffffff\n      and\n        /* \"BEPOwnable.sol\":2235:2273  OwnershipTransferred(_owner, newOwner) */\n      0xffffffffffffffffffffffffffffffffffffffff\n      and\n      0x8be0079c531659141344cd1fd0a4f28419497f9722a3daafe3b4186f6b6457e0\n      mload(0x40)\n      mload(0x40)\n      dup1\n      swap2\n      sub\n      swap1\n      log3\n        /* \"BEPOwnable.sol\":2288:2296  newOwner */\n      dup1\n        /* \"BEPOwnable.sol\":2279:2285  _owner */\n      0x00\n      dup1\n        /* \"BEPOwnable.sol\":2279:2296  _owner = newOwner */\n      0x0100\n      exp\n      dup2\n      sload\n      dup2\n      0xffffffffffffffffffffffffffffffffffffffff\n      mul\n      not\n      and\n      swap1\n      dup4\n      0xffffffffffffffffffffffffffffffffffffffff\n      and\n      mul\n      or\n      swap1\n      sstore\n      pop\n        /* \"BEPOwnable.sol\":2090:2301  function _transferOwnership(address newOwner) internal {... */\n      pop\n      jump\t// out\n        /* \"#utility.yul\":7:146   */\n    tag_147:\n        /* \"#utility.yul\":53:58   */\n      0x00\n        /* \"#utility.yul\":91:97   */\n      dup2\n        /* \"#utility.yul\":78:98   */\n      calldataload\n        /* \"#utility.yul\":69:98   */\n      swap1\n      pop\n        /* \"#utility.yul\":107:140   */\n      tag_149\n        /* \"#utility.yul\":134:139   */\n      dup2\n        /* \"#utility.yul\":107:140   */\n      tag_150\n      jump\t// in\n    tag_149:\n        /* \"#utility.yul\":7:146   */\n      swap3\n      swap2\n      pop\n      pop\n      jump\t// out\n        /* \"#utility.yul\":152:291   */\n    tag_151:\n        /* \"#utility.yul\":198:203   */\n      0x00\n        /* \"#utility.yul\":236:242   */\n      dup2\n        /* \"#utility.yul\":223:243   */\n      calldataload\n        /* \"#utility.yul\":214:243   */\n      swap1\n      pop\n        /* \"#utility.yul\":252:285   */\n      tag_153\n        /* \"#utility.yul\":279:284   */\n      dup2\n        /* \"#utility.yul\":252:285   */\n      tag_154\n      jump\t// in\n    tag_153:\n        /* \"#utility.yul\":152:291   */\n      swap3\n      swap2\n      pop\n      pop\n      jump\t// out\n        /* \"#utility.yul\":297:626   */\n    tag_37:\n        /* \"#utility.yul\":356:362   */\n      0x00\n        /* \"#utility.yul\":405:407   */\n      0x20\n        /* \"#utility.yul\":393:402   */\n      dup3\n        /* \"#utility.yul\":384:391   */\n      dup5\n        /* \"#utility.yul\":380:403   */\n      sub\n        /* \"#utility.yul\":376:408   */\n      slt\n        /* \"#utility.yul\":373:492   */\n      iszero\n      tag_156\n      jumpi\n        /* \"#utility.yul\":411:490   */\n      tag_157\n      tag_158\n      jump\t// in\n    tag_157:\n        /* \"#utility.yul\":373:492   */\n    tag_156:\n        /* \"#utility.yul\":531:532   */\n      0x00\n        /* \"#utility.yul\":556:609   */\n      tag_159\n        /* \"#utility.yul\":601:608   */\n      dup5\n        /* \"#utility.yul\":592:598   */\n      dup3\n        /* \"#utility.yul\":581:590   */\n      dup6\n        /* \"#utility.yul\":577:599   */\n      add\n        /* \"#utility.yul\":556:609   */\n      tag_147\n      jump\t// in\n    tag_159:\n        /* \"#utility.yul\":546:609   */\n      swap2\n      pop\n        /* \"#utility.yul\":502:619   */\n      pop\n        /* \"#utility.yul\":297:626   */\n      swap3\n      swap2\n      pop\n      pop\n      jump\t// out\n        /* \"#utility.yul\":632:1106   */\n    tag_59:\n        /* \"#utility.yul\":700:706   */\n      0x00\n        /* \"#utility.yul\":708:714   */\n      dup1\n        /* \"#utility.yul\":757:759   */\n      0x40\n        /* \"#utility.yul\":745:754   */\n      dup4\n        /* \"#utility.yul\":736:743   */\n      dup6\n        /* \"#utility.yul\":732:755   */\n      sub\n        /* \"#utility.yul\":728:760   */\n      slt\n        /* \"#utility.yul\":725:844   */\n      iszero\n      tag_161\n      jumpi\n        /* \"#utility.yul\":763:842   */\n      tag_162\n      tag_158\n      jump\t// in\n    tag_162:\n        /* \"#utility.yul\":725:844   */\n    tag_161:\n        /* \"#utility.yul\":883:884   */\n      0x00\n        /* \"#utility.yul\":908:961   */\n      tag_163\n        /* \"#utility.yul\":953:960   */\n      dup6\n        /* \"#utility.yul\":944:950   */\n      dup3\n        /* \"#utility.yul\":933:942   */\n      dup7\n        /* \"#utility.yul\":929:951   */\n      add\n        /* \"#utility.yul\":908:961   */\n      tag_147\n      jump\t// in\n    tag_163:\n        /* \"#utility.yul\":898:961   */\n      swap3\n      pop\n        /* \"#utility.yul\":854:971   */\n      pop\n        /* \"#utility.yul\":1010:1012   */\n      0x20\n        /* \"#utility.yul\":1036:1089   */\n      tag_164\n        /* \"#utility.yul\":1081:1088   */\n      dup6\n        /* \"#utility.yul\":1072:1078   */\n      dup3\n        /* \"#utility.yul\":1061:1070   */\n      dup7\n        /* \"#utility.yul\":1057:1079   */\n      add\n        /* \"#utility.yul\":1036:1089   */\n      tag_147\n      jump\t// in\n    tag_164:\n        /* \"#utility.yul\":1026:1089   */\n      swap2\n      pop\n        /* \"#utility.yul\":981:1099   */\n      pop\n        /* \"#utility.yul\":632:1106   */\n      swap3\n      pop\n      swap3\n      swap1\n      pop\n      jump\t// out\n        /* \"#utility.yul\":1112:1731   */\n    tag_28:\n        /* \"#utility.yul\":1189:1195   */\n      0x00\n        /* \"#utility.yul\":1197:1203   */\n      dup1\n        /* \"#utility.yul\":1205:1211   */\n      0x00\n        /* \"#utility.yul\":1254:1256   */\n      0x60\n        /* \"#utility.yul\":1242:1251   */\n      dup5\n        /* \"#utility.yul\":1233:1240   */\n      dup7\n        /* \"#utility.yul\":1229:1252   */\n      sub\n        /* \"#utility.yul\":1225:1257   */\n      slt\n        /* \"#utility.yul\":1222:1341   */\n      iszero\n      tag_166\n      jumpi\n        /* \"#utility.yul\":1260:1339   */\n      tag_167\n      tag_158\n      jump\t// in\n    tag_167:\n        /* \"#utility.yul\":1222:1341   */\n    tag_166:\n        /* \"#utility.yul\":1380:1381   */\n      0x00\n        /* \"#utility.yul\":1405:1458   */\n      tag_168\n        /* \"#utility.yul\":1450:1457   */\n      dup7\n        /* \"#utility.yul\":1441:1447   */\n      dup3\n        /* \"#utility.yul\":1430:1439   */\n      dup8\n        /* \"#utility.yul\":1426:1448   */\n      add\n        /* \"#utility.yul\":1405:1458   */\n      tag_147\n      jump\t// in\n    tag_168:\n        /* \"#utility.yul\":1395:1458   */\n      swap4\n      pop\n        /* \"#utility.yul\":1351:1468   */\n      pop\n        /* \"#utility.yul\":1507:1509   */\n      0x20\n        /* \"#utility.yul\":1533:1586   */\n      tag_169\n        /* \"#utility.yul\":1578:1585   */\n      dup7\n        /* \"#utility.yul\":1569:1575   */\n      dup3\n        /* \"#utility.yul\":1558:1567   */\n      dup8\n        /* \"#utility.yul\":1554:1576   */\n      add\n        /* \"#utility.yul\":1533:1586   */\n      tag_147\n      jump\t// in\n    tag_169:\n        /* \"#utility.yul\":1523:1586   */\n      swap3\n      pop\n        /* \"#utility.yul\":1478:1596   */\n      pop\n        /* \"#utility.yul\":1635:1637   */\n      0x40\n        /* \"#utility.yul\":1661:1714   */\n      tag_170\n        /* \"#utility.yul\":1706:1713   */\n      dup7\n        /* \"#utility.yul\":1697:1703   */\n      dup3\n        /* \"#utility.yul\":1686:1695   */\n      dup8\n        /* \"#utility.yul\":1682:1704   */\n      add\n        /* \"#utility.yul\":1661:1714   */\n      tag_151\n      jump\t// in\n    tag_170:\n        /* \"#utility.yul\":1651:1714   */\n      swap2\n      pop\n        /* \"#utility.yul\":1606:1724   */\n      pop\n        /* \"#utility.yul\":1112:1731   */\n      swap3\n      pop\n      swap3\n      pop\n      swap3\n      jump\t// out\n        /* \"#utility.yul\":1737:2211   */\n    tag_18:\n        /* \"#utility.yul\":1805:1811   */\n      0x00\n        /* \"#utility.yul\":1813:1819   */\n      dup1\n        /* \"#utility.yul\":1862:1864   */\n      0x40\n        /* \"#utility.yul\":1850:1859   */\n      dup4\n        /* \"#utility.yul\":1841:1848   */\n      dup6\n        /* \"#utility.yul\":1837:1860   */\n      sub\n        /* \"#utility.yul\":1833:1865   */\n      slt\n        /* \"#utility.yul\":1830:1949   */\n      iszero\n      tag_172\n      jumpi\n        /* \"#utility.yul\":1868:1947   */\n      tag_173\n      tag_158\n      jump\t// in\n    tag_173:\n        /* \"#utility.yul\":1830:1949   */\n    tag_172:\n        /* \"#utility.yul\":1988:1989   */\n      0x00\n        /* \"#utility.yul\":2013:2066   */\n      tag_174\n        /* \"#utility.yul\":2058:2065   */\n      dup6\n        /* \"#utility.yul\":2049:2055   */\n      dup3\n        /* \"#utility.yul\":2038:2047   */\n      dup7\n        /* \"#utility.yul\":2034:2056   */\n      add\n        /* \"#utility.yul\":2013:2066   */\n      tag_147\n      jump\t// in\n    tag_174:\n        /* \"#utility.yul\":2003:2066   */\n      swap3\n      pop\n        /* \"#utility.yul\":1959:2076   */\n      pop\n        /* \"#utility.yul\":2115:2117   */\n      0x20\n        /* \"#utility.yul\":2141:2194   */\n      tag_175\n        /* \"#utility.yul\":2186:2193   */\n      dup6\n        /* \"#utility.yul\":2177:2183   */\n      dup3\n        /* \"#utility.yul\":2166:2175   */\n      dup7\n        /* \"#utility.yul\":2162:2184   */\n      add\n        /* \"#utility.yul\":2141:2194   */\n      tag_151\n      jump\t// in\n    tag_175:\n        /* \"#utility.yul\":2131:2194   */\n      swap2\n      pop\n        /* \"#utility.yul\":2086:2204   */\n      pop\n        /* \"#utility.yul\":1737:2211   */\n      swap3\n      pop\n      swap3\n      swap1\n      pop\n      jump\t// out\n        /* \"#utility.yul\":2217:2335   */\n    tag_176:\n        /* \"#utility.yul\":2304:2328   */\n      tag_178\n        /* \"#utility.yul\":2322:2327   */\n      dup2\n        /* \"#utility.yul\":2304:2328   */\n      tag_179\n      jump\t// in\n    tag_178:\n        /* \"#utility.yul\":2299:2302   */\n      dup3\n        /* \"#utility.yul\":2292:2329   */\n      mstore\n        /* \"#utility.yul\":2217:2335   */\n      pop\n      pop\n      jump\t// out\n        /* \"#utility.yul\":2341:2450   */\n    tag_180:\n        /* \"#utility.yul\":2422:2443   */\n      tag_182\n        /* \"#utility.yul\":2437:2442   */\n      dup2\n        /* \"#utility.yul\":2422:2443   */\n      tag_183\n      jump\t// in\n    tag_182:\n        /* \"#utility.yul\":2417:2420   */\n      dup3\n        /* \"#utility.yul\":2410:2444   */\n      mstore\n        /* \"#utility.yul\":2341:2450   */\n      pop\n      pop\n      jump\t// out\n        /* \"#utility.yul\":2456:2820   */\n    tag_184:\n        /* \"#utility.yul\":2544:2547   */\n      0x00\n        /* \"#utility.yul\":2572:2611   */\n      tag_186\n        /* \"#utility.yul\":2605:2610   */\n      dup3\n        /* \"#utility.yul\":2572:2611   */\n      tag_187\n      jump\t// in\n    tag_186:\n        /* \"#utility.yul\":2627:2698   */\n      tag_188\n        /* \"#utility.yul\":2691:2697   */\n      dup2\n        /* \"#utility.yul\":2686:2689   */\n      dup6\n        /* \"#utility.yul\":2627:2698   */\n      tag_189\n      jump\t// in\n    tag_188:\n        /* \"#utility.yul\":2620:2698   */\n      swap4\n      pop\n        /* \"#utility.yul\":2707:2759   */\n      tag_190\n        /* \"#utility.yul\":2752:2758   */\n      dup2\n        /* \"#utility.yul\":2747:2750   */\n      dup6\n        /* \"#utility.yul\":2740:2744   */\n      0x20\n        /* \"#utility.yul\":2733:2738   */\n      dup7\n        /* \"#utility.yul\":2729:2745   */\n      add\n        /* \"#utility.yul\":2707:2759   */\n      tag_191\n      jump\t// in\n    tag_190:\n        /* \"#utility.yul\":2784:2813   */\n      tag_192\n        /* \"#utility.yul\":2806:2812   */\n      dup2\n        /* \"#utility.yul\":2784:2813   */\n      tag_193\n      jump\t// in\n    tag_192:\n        /* \"#utility.yul\":2779:2782   */\n      dup5\n        /* \"#utility.yul\":2775:2814   */\n      add\n        /* \"#utility.yul\":2768:2814   */\n      swap2\n      pop\n        /* \"#utility.yul\":2548:2820   */\n      pop\n        /* \"#utility.yul\":2456:2820   */\n      swap3\n      swap2\n      pop\n      pop\n      jump\t// out\n        /* \"#utility.yul\":2826:3192   */\n    tag_194:\n        /* \"#utility.yul\":2968:2971   */\n      0x00\n        /* \"#utility.yul\":2989:3056   */\n      tag_196\n        /* \"#utility.yul\":3053:3055   */\n      0x25\n        /* \"#utility.yul\":3048:3051   */\n      dup4\n        /* \"#utility.yul\":2989:3056   */\n      tag_189\n      jump\t// in\n    tag_196:\n        /* \"#utility.yul\":2982:3056   */\n      swap2\n      pop\n        /* \"#utility.yul\":3065:3158   */\n      tag_197\n        /* \"#utility.yul\":3154:3157   */\n      dup3\n        /* \"#utility.yul\":3065:3158   */\n      tag_198\n      jump\t// in\n    tag_197:\n        /* \"#utility.yul\":3183:3185   */\n      0x40\n        /* \"#utility.yul\":3178:3181   */\n      dup3\n        /* \"#utility.yul\":3174:3186   */\n      add\n        /* \"#utility.yul\":3167:3186   */\n      swap1\n      pop\n        /* \"#utility.yul\":2826:3192   */\n      swap2\n      swap1\n      pop\n      jump\t// out\n        /* \"#utility.yul\":3198:3564   */\n    tag_199:\n        /* \"#utility.yul\":3340:3343   */\n      0x00\n        /* \"#utility.yul\":3361:3428   */\n      tag_201\n        /* \"#utility.yul\":3425:3427   */\n      0x24\n        /* \"#utility.yul\":3420:3423   */\n      dup4\n        /* \"#utility.yul\":3361:3428   */\n      tag_189\n      jump\t// in\n    tag_201:\n        /* \"#utility.yul\":3354:3428   */\n      swap2\n      pop\n        /* \"#utility.yul\":3437:3530   */\n      tag_202\n        /* \"#utility.yul\":3526:3529   */\n      dup3\n        /* \"#utility.yul\":3437:3530   */\n      tag_203\n      jump\t// in\n    tag_202:\n        /* \"#utility.yul\":3555:3557   */\n      0x40\n        /* \"#utility.yul\":3550:3553   */\n      dup3\n        /* \"#utility.yul\":3546:3558   */\n      add\n        /* \"#utility.yul\":3539:3558   */\n      swap1\n      pop\n        /* \"#utility.yul\":3198:3564   */\n      swap2\n      swap1\n      pop\n      jump\t// out\n        /* \"#utility.yul\":3570:3936   */\n    tag_204:\n        /* \"#utility.yul\":3712:3715   */\n      0x00\n        /* \"#utility.yul\":3733:3800   */\n      tag_206\n        /* \"#utility.yul\":3797:3799   */\n      0x26\n        /* \"#utility.yul\":3792:3795   */\n      dup4\n        /* \"#utility.yul\":3733:3800   */\n      tag_189\n      jump\t// in\n    tag_206:\n        /* \"#utility.yul\":3726:3800   */\n      swap2\n      pop\n        /* \"#utility.yul\":3809:3902   */\n      tag_207\n        /* \"#utility.yul\":3898:3901   */\n      dup3\n        /* \"#utility.yul\":3809:3902   */\n      tag_208\n      jump\t// in\n    tag_207:\n        /* \"#utility.yul\":3927:3929   */\n      0x40\n        /* \"#utility.yul\":3922:3925   */\n      dup3\n        /* \"#utility.yul\":3918:3930   */\n      add\n        /* \"#utility.yul\":3911:3930   */\n      swap1\n      pop\n        /* \"#utility.yul\":3570:3936   */\n      swap2\n      swap1\n      pop\n      jump\t// out\n        /* \"#utility.yul\":3942:4308   */\n    tag_209:\n        /* \"#utility.yul\":4084:4087   */\n      0x00\n        /* \"#utility.yul\":4105:4172   */\n      tag_211\n        /* \"#utility.yul\":4169:4171   */\n      0x1b\n        /* \"#utility.yul\":4164:4167   */\n      dup4\n        /* \"#utility.yul\":4105:4172   */\n      tag_189\n      jump\t// in\n    tag_211:\n        /* \"#utility.yul\":4098:4172   */\n      swap2\n      pop\n        /* \"#utility.yul\":4181:4274   */\n      tag_212\n        /* \"#utility.yul\":4270:4273   */\n      dup3\n        /* \"#utility.yul\":4181:4274   */\n      tag_213\n      jump\t// in\n    tag_212:\n        /* \"#utility.yul\":4299:4301   */\n      0x20\n        /* \"#utility.yul\":4294:4297   */\n      dup3\n        /* \"#utility.yul\":4290:4302   */\n      add\n        /* \"#utility.yul\":4283:4302   */\n      swap1\n      pop\n        /* \"#utility.yul\":3942:4308   */\n      swap2\n      swap1\n      pop\n      jump\t// out\n        /* \"#utility.yul\":4314:4680   */\n    tag_214:\n        /* \"#utility.yul\":4456:4459   */\n      0x00\n        /* \"#utility.yul\":4477:4544   */\n      tag_216\n        /* \"#utility.yul\":4541:4543   */\n      0x20\n        /* \"#utility.yul\":4536:4539   */\n      dup4\n        /* \"#utility.yul\":4477:4544   */\n      tag_189\n      jump\t// in\n    tag_216:\n        /* \"#utility.yul\":4470:4544   */\n      swap2\n      pop\n        /* \"#utility.yul\":4553:4646   */\n      tag_217\n        /* \"#utility.yul\":4642:4645   */\n      dup3\n        /* \"#utility.yul\":4553:4646   */\n      tag_218\n      jump\t// in\n    tag_217:\n        /* \"#utility.yul\":4671:4673   */\n      0x20\n        /* \"#utility.yul\":4666:4669   */\n      dup3\n        /* \"#utility.yul\":4662:4674   */\n      add\n        /* \"#utility.yul\":4655:4674   */\n      swap1\n      pop\n        /* \"#utility.yul\":4314:4680   */\n      swap2\n      swap1\n      pop\n      jump\t// out\n        /* \"#utility.yul\":4686:5052   */\n    tag_219:\n        /* \"#utility.yul\":4828:4831   */\n      0x00\n        /* \"#utility.yul\":4849:4916   */\n      tag_221\n        /* \"#utility.yul\":4913:4915   */\n      0x23\n        /* \"#utility.yul\":4908:4911   */\n      dup4\n        /* \"#utility.yul\":4849:4916   */\n      tag_189\n      jump\t// in\n    tag_221:\n        /* \"#utility.yul\":4842:4916   */\n      swap2\n      pop\n        /* \"#utility.yul\":4925:5018   */\n      tag_222\n        /* \"#utility.yul\":5014:5017   */\n      dup3\n        /* \"#utility.yul\":4925:5018   */\n      tag_223\n      jump\t// in\n    tag_222:\n        /* \"#utility.yul\":5043:5045   */\n      0x40\n        /* \"#utility.yul\":5038:5041   */\n      dup3\n        /* \"#utility.yul\":5034:5046   */\n      add\n        /* \"#utility.yul\":5027:5046   */\n      swap1\n      pop\n        /* \"#utility.yul\":4686:5052   */\n      swap2\n      swap1\n      pop\n      jump\t// out\n        /* \"#utility.yul\":5058:5424   */\n    tag_224:\n        /* \"#utility.yul\":5200:5203   */\n      0x00\n        /* \"#utility.yul\":5221:5288   */\n      tag_226\n        /* \"#utility.yul\":5285:5287   */\n      0x22\n        /* \"#utility.yul\":5280:5283   */\n      dup4\n        /* \"#utility.yul\":5221:5288   */\n      tag_189\n      jump\t// in\n    tag_226:\n        /* \"#utility.yul\":5214:5288   */\n      swap2\n      pop\n        /* \"#utility.yul\":5297:5390   */\n      tag_227\n        /* \"#utility.yul\":5386:5389   */\n      dup3\n        /* \"#utility.yul\":5297:5390   */\n      tag_228\n      jump\t// in\n    tag_227:\n        /* \"#utility.yul\":5415:5417   */\n      0x40\n        /* \"#utility.yul\":5410:5413   */\n      dup3\n        /* \"#utility.yul\":5406:5418   */\n      add\n        /* \"#utility.yul\":5399:5418   */\n      swap1\n      pop\n        /* \"#utility.yul\":5058:5424   */\n      swap2\n      swap1\n      pop\n      jump\t// out\n        /* \"#utility.yul\":5430:5548   */\n    tag_229:\n        /* \"#utility.yul\":5517:5541   */\n      tag_231\n        /* \"#utility.yul\":5535:5540   */\n      dup2\n        /* \"#utility.yul\":5517:5541   */\n      tag_232\n      jump\t// in\n    tag_231:\n        /* \"#utility.yul\":5512:5515   */\n      dup3\n        /* \"#utility.yul\":5505:5542   */\n      mstore\n        /* \"#utility.yul\":5430:5548   */\n      pop\n      pop\n      jump\t// out\n        /* \"#utility.yul\":5554:5776   */\n    tag_45:\n        /* \"#utility.yul\":5647:5651   */\n      0x00\n        /* \"#utility.yul\":5685:5687   */\n      0x20\n        /* \"#utility.yul\":5674:5683   */\n      dup3\n        /* \"#utility.yul\":5670:5688   */\n      add\n        /* \"#utility.yul\":5662:5688   */\n      swap1\n      pop\n        /* \"#utility.yul\":5698:5769   */\n      tag_234\n        /* \"#utility.yul\":5766:5767   */\n      0x00\n        /* \"#utility.yul\":5755:5764   */\n      dup4\n        /* \"#utility.yul\":5751:5768   */\n      add\n        /* \"#utility.yul\":5742:5748   */\n      dup5\n        /* \"#utility.yul\":5698:5769   */\n      tag_176\n      jump\t// in\n    tag_234:\n        /* \"#utility.yul\":5554:5776   */\n      swap3\n      swap2\n      pop\n      pop\n      jump\t// out\n        /* \"#utility.yul\":5782:5992   */\n    tag_21:\n        /* \"#utility.yul\":5869:5873   */\n      0x00\n        /* \"#utility.yul\":5907:5909   */\n      0x20\n        /* \"#utility.yul\":5896:5905   */\n      dup3\n        /* \"#utility.yul\":5892:5910   */\n      add\n        /* \"#utility.yul\":5884:5910   */\n      swap1\n      pop\n        /* \"#utility.yul\":5920:5985   */\n      tag_236\n        /* \"#utility.yul\":5982:5983   */\n      0x00\n        /* \"#utility.yul\":5971:5980   */\n      dup4\n        /* \"#utility.yul\":5967:5984   */\n      add\n        /* \"#utility.yul\":5958:5964   */\n      dup5\n        /* \"#utility.yul\":5920:5985   */\n      tag_180\n      jump\t// in\n    tag_236:\n        /* \"#utility.yul\":5782:5992   */\n      swap3\n      swap2\n      pop\n      pop\n      jump\t// out\n        /* \"#utility.yul\":5998:6311   */\n    tag_133:\n        /* \"#utility.yul\":6111:6115   */\n      0x00\n        /* \"#utility.yul\":6149:6151   */\n      0x20\n        /* \"#utility.yul\":6138:6147   */\n      dup3\n        /* \"#utility.yul\":6134:6152   */\n      add\n        /* \"#utility.yul\":6126:6152   */\n      swap1\n      pop\n        /* \"#utility.yul\":6198:6207   */\n      dup2\n        /* \"#utility.yul\":6192:6196   */\n      dup2\n        /* \"#utility.yul\":6188:6208   */\n      sub\n        /* \"#utility.yul\":6184:6185   */\n      0x00\n        /* \"#utility.yul\":6173:6182   */\n      dup4\n        /* \"#utility.yul\":6169:6186   */\n      add\n        /* \"#utility.yul\":6162:6209   */\n      mstore\n        /* \"#utility.yul\":6226:6304   */\n      tag_238\n        /* \"#utility.yul\":6299:6303   */\n      dup2\n        /* \"#utility.yul\":6290:6296   */\n      dup5\n        /* \"#utility.yul\":6226:6304   */\n      tag_184\n      jump\t// in\n    tag_238:\n        /* \"#utility.yul\":6218:6304   */\n      swap1\n      pop\n        /* \"#utility.yul\":5998:6311   */\n      swap3\n      swap2\n      pop\n      pop\n      jump\t// out\n        /* \"#utility.yul\":6317:6736   */\n    tag_123:\n        /* \"#utility.yul\":6483:6487   */\n      0x00\n        /* \"#utility.yul\":6521:6523   */\n      0x20\n        /* \"#utility.yul\":6510:6519   */\n      dup3\n        /* \"#utility.yul\":6506:6524   */\n      add\n        /* \"#utility.yul\":6498:6524   */\n      swap1\n      pop\n        /* \"#utility.yul\":6570:6579   */\n      dup2\n        /* \"#utility.yul\":6564:6568   */\n      dup2\n        /* \"#utility.yul\":6560:6580   */\n      sub\n        /* \"#utility.yul\":6556:6557   */\n      0x00\n        /* \"#utility.yul\":6545:6554   */\n      dup4\n        /* \"#utility.yul\":6541:6558   */\n      add\n        /* \"#utility.yul\":6534:6581   */\n      mstore\n        /* \"#utility.yul\":6598:6729   */\n      tag_240\n        /* \"#utility.yul\":6724:6728   */\n      dup2\n        /* \"#utility.yul\":6598:6729   */\n      tag_194\n      jump\t// in\n    tag_240:\n        /* \"#utility.yul\":6590:6729   */\n      swap1\n      pop\n        /* \"#utility.yul\":6317:6736   */\n      swap2\n      swap1\n      pop\n      jump\t// out\n        /* \"#utility.yul\":6742:7161   */\n    tag_115:\n        /* \"#utility.yul\":6908:6912   */\n      0x00\n        /* \"#utility.yul\":6946:6948   */\n      0x20\n        /* \"#utility.yul\":6935:6944   */\n      dup3\n        /* \"#utility.yul\":6931:6949   */\n      add\n        /* \"#utility.yul\":6923:6949   */\n      swap1\n      pop\n        /* \"#utility.yul\":6995:7004   */\n      dup2\n        /* \"#utility.yul\":6989:6993   */\n      dup2\n        /* \"#utility.yul\":6985:7005   */\n      sub\n        /* \"#utility.yul\":6981:6982   */\n      0x00\n        /* \"#utility.yul\":6970:6979   */\n      dup4\n        /* \"#utility.yul\":6966:6983   */\n      add\n        /* \"#utility.yul\":6959:7006   */\n      mstore\n        /* \"#utility.yul\":7023:7154   */\n      tag_242\n        /* \"#utility.yul\":7149:7153   */\n      dup2\n        /* \"#utility.yul\":7023:7154   */\n      tag_199\n      jump\t// in\n    tag_242:\n        /* \"#utility.yul\":7015:7154   */\n      swap1\n      pop\n        /* \"#utility.yul\":6742:7161   */\n      swap2\n      swap1\n      pop\n      jump\t// out\n        /* \"#utility.yul\":7167:7586   */\n    tag_145:\n        /* \"#utility.yul\":7333:7337   */\n      0x00\n        /* \"#utility.yul\":7371:7373   */\n      0x20\n        /* \"#utility.yul\":7360:7369   */\n      dup3\n        /* \"#utility.yul\":7356:7374   */\n      add\n        /* \"#utility.yul\":7348:7374   */\n      swap1\n      pop\n        /* \"#utility.yul\":7420:7429   */\n      dup2\n        /* \"#utility.yul\":7414:7418   */\n      dup2\n        /* \"#utility.yul\":7410:7430   */\n      sub\n        /* \"#utility.yul\":7406:7407   */\n      0x00\n        /* \"#utility.yul\":7395:7404   */\n      dup4\n        /* \"#utility.yul\":7391:7408   */\n      add\n        /* \"#utility.yul\":7384:7431   */\n      mstore\n        /* \"#utility.yul\":7448:7579   */\n      tag_244\n        /* \"#utility.yul\":7574:7578   */\n      dup2\n        /* \"#utility.yul\":7448:7579   */\n      tag_204\n      jump\t// in\n    tag_244:\n        /* \"#utility.yul\":7440:7579   */\n      swap1\n      pop\n        /* \"#utility.yul\":7167:7586   */\n      swap2\n      swap1\n      pop\n      jump\t// out\n        /* \"#utility.yul\":7592:8011   */\n    tag_141:\n        /* \"#utility.yul\":7758:7762   */\n      0x00\n        /* \"#utility.yul\":7796:7798   */\n      0x20\n        /* \"#utility.yul\":7785:7794   */\n      dup3\n        /* \"#utility.yul\":7781:7799   */\n      add\n        /* \"#utility.yul\":7773:7799   */\n      swap1\n      pop\n        /* \"#utility.yul\":7845:7854   */\n      dup2\n        /* \"#utility.yul\":7839:7843   */\n      dup2\n        /* \"#utility.yul\":7835:7855   */\n      sub\n        /* \"#utility.yul\":7831:7832   */\n      0x00\n        /* \"#utility.yul\":7820:7829   */\n      dup4\n        /* \"#utility.yul\":7816:7833   */\n      add\n        /* \"#utility.yul\":7809:7856   */\n      mstore\n        /* \"#utility.yul\":7873:8004   */\n      tag_246\n        /* \"#utility.yul\":7999:8003   */\n      dup2\n        /* \"#utility.yul\":7873:8004   */\n      tag_209\n      jump\t// in\n    tag_246:\n        /* \"#utility.yul\":7865:8004   */\n      swap1\n      pop\n        /* \"#utility.yul\":7592:8011   */\n      swap2\n      swap1\n      pop\n      jump\t// out\n        /* \"#utility.yul\":8017:8436   */\n    tag_90:\n        /* \"#utility.yul\":8183:8187   */\n      0x00\n        /* \"#utility.yul\":8221:8223   */\n      0x20\n        /* \"#utility.yul\":8210:8219   */\n      dup3\n        /* \"#utility.yul\":8206:8224   */\n      add\n        /* \"#utility.yul\":8198:8224   */\n      swap1\n      pop\n        /* \"#utility.yul\":8270:8279   */\n      dup2\n        /* \"#utility.yul\":8264:8268   */\n      dup2\n        /* \"#utility.yul\":8260:8280   */\n      sub\n        /* \"#utility.yul\":8256:8257   */\n      0x00\n        /* \"#utility.yul\":8245:8254   */\n      dup4\n        /* \"#utility.yul\":8241:8258   */\n      add\n        /* \"#utility.yul\":8234:8281   */\n      mstore\n        /* \"#utility.yul\":8298:8429   */\n      tag_248\n        /* \"#utility.yul\":8424:8428   */\n      dup2\n        /* \"#utility.yul\":8298:8429   */\n      tag_214\n      jump\t// in\n    tag_248:\n        /* \"#utility.yul\":8290:8429   */\n      swap1\n      pop\n        /* \"#utility.yul\":8017:8436   */\n      swap2\n      swap1\n      pop\n      jump\t// out\n        /* \"#utility.yul\":8442:8861   */\n    tag_126:\n        /* \"#utility.yul\":8608:8612   */\n      0x00\n        /* \"#utility.yul\":8646:8648   */\n      0x20\n        /* \"#utility.yul\":8635:8644   */\n      dup3\n        /* \"#utility.yul\":8631:8649   */\n      add\n        /* \"#utility.yul\":8623:8649   */\n      swap1\n      pop\n        /* \"#utility.yul\":8695:8704   */\n      dup2\n        /* \"#utility.yul\":8689:8693   */\n      dup2\n        /* \"#utility.yul\":8685:8705   */\n      sub\n        /* \"#utility.yul\":8681:8682   */\n      0x00\n        /* \"#utility.yul\":8670:8679   */\n      dup4\n        /* \"#utility.yul\":8666:8683   */\n      add\n        /* \"#utility.yul\":8659:8706   */\n      mstore\n        /* \"#utility.yul\":8723:8854   */\n      tag_250\n        /* \"#utility.yul\":8849:8853   */\n      dup2\n        /* \"#utility.yul\":8723:8854   */\n      tag_219\n      jump\t// in\n    tag_250:\n        /* \"#utility.yul\":8715:8854   */\n      swap1\n      pop\n        /* \"#utility.yul\":8442:8861   */\n      swap2\n      swap1\n      pop\n      jump\t// out\n        /* \"#utility.yul\":8867:9286   */\n    tag_118:\n        /* \"#utility.yul\":9033:9037   */\n      0x00\n        /* \"#utility.yul\":9071:9073   */\n      0x20\n        /* \"#utility.yul\":9060:9069   */\n      dup3\n        /* \"#utility.yul\":9056:9074   */\n      add\n        /* \"#utility.yul\":9048:9074   */\n      swap1\n      pop\n        /* \"#utility.yul\":9120:9129   */\n      dup2\n        /* \"#utility.yul\":9114:9118   */\n      dup2\n        /* \"#utility.yul\":9110:9130   */\n      sub\n        /* \"#utility.yul\":9106:9107   */\n      0x00\n        /* \"#utility.yul\":9095:9104   */\n      dup4\n        /* \"#utility.yul\":9091:9108   */\n      add\n        /* \"#utility.yul\":9084:9131   */\n      mstore\n        /* \"#utility.yul\":9148:9279   */\n      tag_252\n        /* \"#utility.yul\":9274:9278   */\n      dup2\n        /* \"#utility.yul\":9148:9279   */\n      tag_224\n      jump\t// in\n    tag_252:\n        /* \"#utility.yul\":9140:9279   */\n      swap1\n      pop\n        /* \"#utility.yul\":8867:9286   */\n      swap2\n      swap1\n      pop\n      jump\t// out\n        /* \"#utility.yul\":9292:9514   */\n    tag_25:\n        /* \"#utility.yul\":9385:9389   */\n      0x00\n        /* \"#utility.yul\":9423:9425   */\n      0x20\n        /* \"#utility.yul\":9412:9421   */\n      dup3\n        /* \"#utility.yul\":9408:9426   */\n      add\n        /* \"#utility.yul\":9400:9426   */\n      swap1\n      pop\n        /* \"#utility.yul\":9436:9507   */\n      tag_254\n        /* \"#utility.yul\":9504:9505   */\n      0x00\n        /* \"#utility.yul\":9493:9502   */\n      dup4\n        /* \"#utility.yul\":9489:9506   */\n      add\n        /* \"#utility.yul\":9480:9486   */\n      dup5\n        /* \"#utility.yul\":9436:9507   */\n      tag_229\n      jump\t// in\n    tag_254:\n        /* \"#utility.yul\":9292:9514   */\n      swap3\n      swap2\n      pop\n      pop\n      jump\t// out\n        /* \"#utility.yul\":9601:9700   */\n    tag_187:\n        /* \"#utility.yul\":9653:9659   */\n      0x00\n        /* \"#utility.yul\":9687:9692   */\n      dup2\n        /* \"#utility.yul\":9681:9693   */\n      mload\n        /* \"#utility.yul\":9671:9693   */\n      swap1\n      pop\n        /* \"#utility.yul\":9601:9700   */\n      swap2\n      swap1\n      pop\n      jump\t// out\n        /* \"#utility.yul\":9706:9875   */\n    tag_189:\n        /* \"#utility.yul\":9790:9801   */\n      0x00\n        /* \"#utility.yul\":9824:9830   */\n      dup3\n        /* \"#utility.yul\":9819:9822   */\n      dup3\n        /* \"#utility.yul\":9812:9831   */\n      mstore\n        /* \"#utility.yul\":9864:9868   */\n      0x20\n        /* \"#utility.yul\":9859:9862   */\n      dup3\n        /* \"#utility.yul\":9855:9869   */\n      add\n        /* \"#utility.yul\":9840:9869   */\n      swap1\n      pop\n        /* \"#utility.yul\":9706:9875   */\n      swap3\n      swap2\n      pop\n      pop\n      jump\t// out\n        /* \"#utility.yul\":9881:10186   */\n    tag_138:\n        /* \"#utility.yul\":9921:9924   */\n      0x00\n        /* \"#utility.yul\":9940:9960   */\n      tag_260\n        /* \"#utility.yul\":9958:9959   */\n      dup3\n        /* \"#utility.yul\":9940:9960   */\n      tag_232\n      jump\t// in\n    tag_260:\n        /* \"#utility.yul\":9935:9960   */\n      swap2\n      pop\n        /* \"#utility.yul\":9974:9994   */\n      tag_261\n        /* \"#utility.yul\":9992:9993   */\n      dup4\n        /* \"#utility.yul\":9974:9994   */\n      tag_232\n      jump\t// in\n    tag_261:\n        /* \"#utility.yul\":9969:9994   */\n      swap3\n      pop\n        /* \"#utility.yul\":10128:10129   */\n      dup3\n        /* \"#utility.yul\":10060:10126   */\n      0xffffffffffffffffffffffffffffffffffffffffffffffffffffffffffffffff\n        /* \"#utility.yul\":10056:10130   */\n      sub\n        /* \"#utility.yul\":10053:10054   */\n      dup3\n        /* \"#utility.yul\":10050:10131   */\n      gt\n        /* \"#utility.yul\":10047:10154   */\n      iszero\n      tag_262\n      jumpi\n        /* \"#utility.yul\":10134:10152   */\n      tag_263\n      tag_264\n      jump\t// in\n    tag_263:\n        /* \"#utility.yul\":10047:10154   */\n    tag_262:\n        /* \"#utility.yul\":10178:10179   */\n      dup3\n        /* \"#utility.yul\":10175:10176   */\n      dup3\n        /* \"#utility.yul\":10171:10180   */\n      add\n        /* \"#utility.yul\":10164:10180   */\n      swap1\n      pop\n        /* \"#utility.yul\":9881:10186   */\n      swap3\n      swap2\n      pop\n      pop\n      jump\t// out\n        /* \"#utility.yul\":10192:10383   */\n    tag_135:\n        /* \"#utility.yul\":10232:10236   */\n      0x00\n        /* \"#utility.yul\":10252:10272   */\n      tag_266\n        /* \"#utility.yul\":10270:10271   */\n      dup3\n        /* \"#utility.yul\":10252:10272   */\n      tag_232\n      jump\t// in\n    tag_266:\n        /* \"#utility.yul\":10247:10272   */\n      swap2\n      pop\n        /* \"#utility.yul\":10286:10306   */\n      tag_267\n        /* \"#utility.yul\":10304:10305   */\n      dup4\n        /* \"#utility.yul\":10286:10306   */\n      tag_232\n      jump\t// in\n    tag_267:\n        /* \"#utility.yul\":10281:10306   */\n      swap3\n      pop\n        /* \"#utility.yul\":10325:10326   */\n      dup3\n        /* \"#utility.yul\":10322:10323   */\n      dup3\n        /* \"#utility.yul\":10319:10327   */\n      lt\n        /* \"#utility.yul\":10316:10350   */\n      iszero\n      tag_268\n      jumpi\n        /* \"#utility.yul\":10330:10348   */\n      tag_269\n      tag_264\n      jump\t// in\n    tag_269:\n        /* \"#utility.yul\":10316:10350   */\n    tag_268:\n        /* \"#utility.yul\":10375:10376   */\n      dup3\n        /* \"#utility.yul\":10372:10373   */\n      dup3\n        /* \"#utility.yul\":10368:10377   */\n      sub\n        /* \"#utility.yul\":10360:10377   */\n      swap1\n      pop\n        /* \"#utility.yul\":10192:10383   */\n      swap3\n      swap2\n      pop\n      pop\n      jump\t// out\n        /* \"#utility.yul\":10389:10485   */\n    tag_179:\n        /* \"#utility.yul\":10426:10433   */\n      0x00\n        /* \"#utility.yul\":10455:10479   */\n      tag_271\n        /* \"#utility.yul\":10473:10478   */\n      dup3\n        /* \"#utility.yul\":10455:10479   */\n      tag_272\n      jump\t// in\n    tag_271:\n        /* \"#utility.yul\":10444:10479   */\n      swap1\n      pop\n        /* \"#utility.yul\":10389:10485   */\n      swap2\n      swap1\n      pop\n      jump\t// out\n        /* \"#utility.yul\":10491:10581   */\n    tag_183:\n        /* \"#utility.yul\":10525:10532   */\n      0x00\n        /* \"#utility.yul\":10568:10573   */\n      dup2\n        /* \"#utility.yul\":10561:10574   */\n      iszero\n        /* \"#utility.yul\":10554:10575   */\n      iszero\n        /* \"#utility.yul\":10543:10575   */\n      swap1\n      pop\n        /* \"#utility.yul\":10491:10581   */\n      swap2\n      swap1\n      pop\n      jump\t// out\n        /* \"#utility.yul\":10587:10713   */\n    tag_272:\n        /* \"#utility.yul\":10624:10631   */\n      0x00\n        /* \"#utility.yul\":10664:10706   */\n      0xffffffffffffffffffffffffffffffffffffffff\n        /* \"#utility.yul\":10657:10662   */\n      dup3\n        /* \"#utility.yul\":10653:10707   */\n      and\n        /* \"#utility.yul\":10642:10707   */\n      swap1\n      pop\n        /* \"#utility.yul\":10587:10713   */\n      swap2\n      swap1\n      pop\n      jump\t// out\n        /* \"#utility.yul\":10719:10796   */\n    tag_232:\n        /* \"#utility.yul\":10756:10763   */\n      0x00\n        /* \"#utility.yul\":10785:10790   */\n      dup2\n        /* \"#utility.yul\":10774:10790   */\n      swap1\n      pop\n        /* \"#utility.yul\":10719:10796   */\n      swap2\n      swap1\n      pop\n      jump\t// out\n        /* \"#utility.yul\":10802:11109   */\n    tag_191:\n        /* \"#utility.yul\":10870:10871   */\n      0x00\n        /* \"#utility.yul\":10880:10993   */\n    tag_277:\n        /* \"#utility.yul\":10894:10900   */\n      dup4\n        /* \"#utility.yul\":10891:10892   */\n      dup2\n        /* \"#utility.yul\":10888:10901   */\n      lt\n        /* \"#utility.yul\":10880:10993   */\n      iszero\n      tag_279\n      jumpi\n        /* \"#utility.yul\":10979:10980   */\n      dup1\n        /* \"#utility.yul\":10974:10977   */\n      dup3\n        /* \"#utility.yul\":10970:10981   */\n      add\n        /* \"#utility.yul\":10964:10982   */\n      mload\n        /* \"#utility.yul\":10960:10961   */\n      dup2\n        /* \"#utility.yul\":10955:10958   */\n      dup5\n        /* \"#utility.yul\":10951:10962   */\n      add\n        /* \"#utility.yul\":10944:10983   */\n      mstore\n        /* \"#utility.yul\":10916:10918   */\n      0x20\n        /* \"#utility.yul\":10913:10914   */\n      dup2\n        /* \"#utility.yul\":10909:10919   */\n      add\n        /* \"#utility.yul\":10904:10919   */\n      swap1\n      pop\n        /* \"#utility.yul\":10880:10993   */\n      jump(tag_277)\n    tag_279:\n        /* \"#utility.yul\":11011:11017   */\n      dup4\n        /* \"#utility.yul\":11008:11009   */\n      dup2\n        /* \"#utility.yul\":11005:11018   */\n      gt\n        /* \"#utility.yul\":11002:11103   */\n      iszero\n      tag_280\n      jumpi\n        /* \"#utility.yul\":11091:11092   */\n      0x00\n        /* \"#utility.yul\":11082:11088   */\n      dup5\n        /* \"#utility.yul\":11077:11080   */\n      dup5\n        /* \"#utility.yul\":11073:11089   */\n      add\n        /* \"#utility.yul\":11066:11093   */\n      mstore\n        /* \"#utility.yul\":11002:11103   */\n    tag_280:\n        /* \"#utility.yul\":10851:11109   */\n      pop\n        /* \"#utility.yul\":10802:11109   */\n      pop\n      pop\n      pop\n      jump\t// out\n        /* \"#utility.yul\":11115:11295   */\n    tag_264:\n        /* \"#utility.yul\":11163:11240   */\n      0x4e487b7100000000000000000000000000000000000000000000000000000000\n        /* \"#utility.yul\":11160:11161   */\n      0x00\n        /* \"#utility.yul\":11153:11241   */\n      mstore\n        /* \"#utility.yul\":11260:11264   */\n      0x11\n        /* \"#utility.yul\":11257:11258   */\n      0x04\n        /* \"#utility.yul\":11250:11265   */\n      mstore\n        /* \"#utility.yul\":11284:11288   */\n      0x24\n        /* \"#utility.yul\":11281:11282   */\n      0x00\n        /* \"#utility.yul\":11274:11289   */\n      revert\n        /* \"#utility.yul\":11424:11541   */\n    tag_158:\n        /* \"#utility.yul\":11533:11534   */\n      0x00\n        /* \"#utility.yul\":11530:11531   */\n      dup1\n        /* \"#utility.yul\":11523:11535   */\n      revert\n        /* \"#utility.yul\":11547:11649   */\n    tag_193:\n        /* \"#utility.yul\":11588:11594   */\n      0x00\n        /* \"#utility.yul\":11639:11641   */\n      0x1f\n        /* \"#utility.yul\":11635:11642   */\n      not\n        /* \"#utility.yul\":11630:11632   */\n      0x1f\n        /* \"#utility.yul\":11623:11628   */\n      dup4\n        /* \"#utility.yul\":11619:11633   */\n      add\n        /* \"#utility.yul\":11615:11643   */\n      and\n        /* \"#utility.yul\":11605:11643   */\n      swap1\n      pop\n        /* \"#utility.yul\":11547:11649   */\n      swap2\n      swap1\n      pop\n      jump\t// out\n        /* \"#utility.yul\":11655:11879   */\n    tag_198:\n        /* \"#utility.yul\":11795:11829   */\n      0x42455032303a207472616e736665722066726f6d20746865207a65726f206164\n        /* \"#utility.yul\":11791:11792   */\n      0x00\n        /* \"#utility.yul\":11783:11789   */\n      dup3\n        /* \"#utility.yul\":11779:11793   */\n      add\n        /* \"#utility.yul\":11772:11830   */\n      mstore\n        /* \"#utility.yul\":11864:11871   */\n      0x6472657373000000000000000000000000000000000000000000000000000000\n        /* \"#utility.yul\":11859:11861   */\n      0x20\n        /* \"#utility.yul\":11851:11857   */\n      dup3\n        /* \"#utility.yul\":11847:11862   */\n      add\n        /* \"#utility.yul\":11840:11872   */\n      mstore\n        /* \"#utility.yul\":11655:11879   */\n      pop\n      jump\t// out\n        /* \"#utility.yul\":11885:12108   */\n    tag_203:\n        /* \"#utility.yul\":12025:12059   */\n      0x42455032303a20617070726f76652066726f6d20746865207a65726f20616464\n        /* \"#utility.yul\":12021:12022   */\n      0x00\n        /* \"#utility.yul\":12013:12019   */\n      dup3\n        /* \"#utility.yul\":12009:12023   */\n      add\n        /* \"#utility.yul\":12002:12060   */\n      mstore\n        /* \"#utility.yul\":12094:12100   */\n      0x7265737300000000000000000000000000000000000000000000000000000000\n        /* \"#utility.yul\":12089:12091   */\n      0x20\n        /* \"#utility.yul\":12081:12087   */\n      dup3\n        /* \"#utility.yul\":12077:12092   */\n      add\n        /* \"#utility.yul\":12070:12101   */\n      mstore\n        /* \"#utility.yul\":11885:12108   */\n      pop\n      jump\t// out\n        /* \"#utility.yul\":12114:12339   */\n    tag_208:\n        /* \"#utility.yul\":12254:12288   */\n      0x4f776e61626c653a206e6577206f776e657220697320746865207a65726f2061\n        /* \"#utility.yul\":12250:12251   */\n      0x00\n        /* \"#utility.yul\":12242:12248   */\n      dup3\n        /* \"#utility.yul\":12238:12252   */\n      add\n        /* \"#utility.yul\":12231:12289   */\n      mstore\n        /* \"#utility.yul\":12323:12331   */\n      0x6464726573730000000000000000000000000000000000000000000000000000\n        /* \"#utility.yul\":12318:12320   */\n      0x20\n        /* \"#utility.yul\":12310:12316   */\n      dup3\n        /* \"#utility.yul\":12306:12321   */\n      add\n        /* \"#utility.yul\":12299:12332   */\n      mstore\n        /* \"#utility.yul\":12114:12339   */\n      pop\n      jump\t// out\n        /* \"#utility.yul\":12345:12522   */\n    tag_213:\n        /* \"#utility.yul\":12485:12514   */\n      0x536166654d6174683a206164646974696f6e206f766572666c6f770000000000\n        /* \"#utility.yul\":12481:12482   */\n      0x00\n        /* \"#utility.yul\":12473:12479   */\n      dup3\n        /* \"#utility.yul\":12469:12483   */\n      add\n        /* \"#utility.yul\":12462:12515   */\n      mstore\n        /* \"#utility.yul\":12345:12522   */\n      pop\n      jump\t// out\n        /* \"#utility.yul\":12528:12710   */\n    tag_218:\n        /* \"#utility.yul\":12668:12702   */\n      0x4f776e61626c653a2063616c6c6572206973206e6f7420746865206f776e6572\n        /* \"#utility.yul\":12664:12665   */\n      0x00\n        /* \"#utility.yul\":12656:12662   */\n      dup3\n        /* \"#utility.yul\":12652:12666   */\n      add\n        /* \"#utility.yul\":12645:12703   */\n      mstore\n        /* \"#utility.yul\":12528:12710   */\n      pop\n      jump\t// out\n        /* \"#utility.yul\":12716:12938   */\n    tag_223:\n        /* \"#utility.yul\":12856:12890   */\n      0x42455032303a207472616e7366657220746f20746865207a65726f2061646472\n        /* \"#utility.yul\":12852:12853   */\n      0x00\n        /* \"#utility.yul\":12844:12850   */\n      dup3\n        /* \"#utility.yul\":12840:12854   */\n      add\n        /* \"#utility.yul\":12833:12891   */\n      mstore\n        /* \"#utility.yul\":12925:12930   */\n      0x6573730000000000000000000000000000000000000000000000000000000000\n        /* \"#utility.yul\":12920:12922   */\n      0x20\n        /* \"#utility.yul\":12912:12918   */\n      dup3\n        /* \"#utility.yul\":12908:12923   */\n      add\n        /* \"#utility.yul\":12901:12931   */\n      mstore\n        /* \"#utility.yul\":12716:12938   */\n      pop\n      jump\t// out\n        /* \"#utility.yul\":12944:13165   */\n    tag_228:\n        /* \"#utility.yul\":13084:13118   */\n      0x42455032303a20617070726f766520746f20746865207a65726f206164647265\n        /* \"#utility.yul\":13080:13081   */\n      0x00\n        /* \"#utility.yul\":13072:13078   */\n      dup3\n        /* \"#utility.yul\":13068:13082   */\n      add\n        /* \"#utility.yul\":13061:13119   */\n      mstore\n        /* \"#utility.yul\":13153:13157   */\n      0x7373000000000000000000000000000000000000000000000000000000000000\n        /* \"#utility.yul\":13148:13150   */\n      0x20\n        /* \"#utility.yul\":13140:13146   */\n      dup3\n        /* \"#utility.yul\":13136:13151   */\n      add\n        /* \"#utility.yul\":13129:13158   */\n      mstore\n        /* \"#utility.yul\":12944:13165   */\n      pop\n      jump\t// out\n        /* \"#utility.yul\":13171:13293   */\n    tag_150:\n        /* \"#utility.yul\":13244:13268   */\n      tag_294\n        /* \"#utility.yul\":13262:13267   */\n      dup2\n        /* \"#utility.yul\":13244:13268   */\n      tag_179\n      jump\t// in\n    tag_294:\n        /* \"#utility.yul\":13237:13242   */\n      dup2\n        /* \"#utility.yul\":13234:13269   */\n      eq\n        /* \"#utility.yul\":13224:13287   */\n      tag_295\n      jumpi\n        /* \"#utility.yul\":13283:13284   */\n      0x00\n        /* \"#utility.yul\":13280:13281   */\n      dup1\n        /* \"#utility.yul\":13273:13285   */\n      revert\n        /* \"#utility.yul\":13224:13287   */\n    tag_295:\n        /* \"#utility.yul\":13171:13293   */\n      pop\n      jump\t// out\n        /* \"#utility.yul\":13299:13421   */\n    tag_154:\n        /* \"#utility.yul\":13372:13396   */\n      tag_297\n        /* \"#utility.yul\":13390:13395   */\n      dup2\n        /* \"#utility.yul\":13372:13396   */\n      tag_232\n      jump\t// in\n    tag_297:\n        /* \"#utility.yul\":13365:13370   */\n      dup2\n        /* \"#utility.yul\":13362:13397   */\n      eq\n        /* \"#utility.yul\":13352:13415   */\n      tag_298\n      jumpi\n        /* \"#utility.yul\":13411:13412   */\n      0x00\n        /* \"#utility.yul\":13408:13409   */\n      dup1\n        /* \"#utility.yul\":13401:13413   */\n      revert\n        /* \"#utility.yul\":13352:13415   */\n    tag_298:\n        /* \"#utility.yul\":13299:13421   */\n      pop\n      jump\t// out\n    stop\n    data_4f3506f4ba71c79c3cbd442a3afeb30e9b27af2d84e116a4385b34e267d2287e 42455032303a207472616e7366657220616d6f756e74206578636565647320616c6c6f77616e6365\n    data_a91efd7a65ef5b4ae4d6568d674798b78a5a89184dd296c100513251c22d3e73 42455032303a207472616e7366657220616d6f756e7420657863656564732062616c616e6365\n    data_b7060b3538dcd3ddc8a941c91636a8115a1aa46914747fd9809d543bbb46cd22 42455032303a2064656372656173656420616c6c6f77616e63652062656c6f77207a65726f\n\n    auxdata: 0xa2646970667358221220b737db32894834b15895a91ae29a5eb3d8bd424d86d524e4034bbc5df14ba14764736f6c63430008070033\n}\n",
				"bytecode": {
					"linkReferences": {},
					"object": "608060405234801561001057600080fd5b5060006100216100c460201b60201c565b9050806000806101000a81548173ffffffffffffffffffffffffffffffffffffffff021916908373ffffffffffffffffffffffffffffffffffffffff1602179055508073ffffffffffffffffffffffffffffffffffffffff16600073ffffffffffffffffffffffffffffffffffffffff167f8be0079c531659141344cd1fd0a4f28419497f9722a3daafe3b4186f6b6457e060405160405180910390a3506100cc565b600033905090565b611619806100db6000396000f3fe608060405234801561001057600080fd5b50600436106100b45760003560e01c80638da5cb5b116100715780638da5cb5b146101a15780638f32d59b146101bf578063a457c2d7146101dd578063a9059cbb1461020d578063dd62ed3e1461023d578063f2fde38b1461026d576100b4565b8063095ea7b3146100b957806318160ddd146100e957806323b872dd14610107578063395093511461013757806370a0823114610167578063715018a614610197575b600080fd5b6100d360048036038101906100ce9190610f11565b610289565b6040516100e091906110c7565b60405180910390f35b6100f16102a7565b6040516100fe91906111e4565b60405180910390f35b610121600480360381019061011c9190610ebe565b6102b1565b60405161012e91906110c7565b60405180910390f35b610151600480360381019061014c9190610f11565b61038a565b60405161015e91906110c7565b60405180910390f35b610181600480360381019061017c9190610e51565b61043d565b60405161018e91906111e4565b60405180910390f35b61019f610486565b005b6101a961058b565b6040516101b691906110ac565b60405180910390f35b6101c76105b4565b6040516101d491906110c7565b60405180910390f35b6101f760048036038101906101f29190610f11565b610612565b60405161020491906110c7565b60405180910390f35b61022760048036038101906102229190610f11565b6106df565b60405161023491906110c7565b60405180910390f35b61025760048036038101906102529190610e7e565b6106fd565b60405161026491906111e4565b60405180910390f35b61028760048036038101906102829190610e51565b610784565b005b600061029d6102966107d7565b84846107df565b6001905092915050565b6000600354905090565b60006102be8484846109aa565b61037f846102ca6107d7565b61037a8560405180606001604052806028815260200161157160289139600260008b73ffffffffffffffffffffffffffffffffffffffff1673ffffffffffffffffffffffffffffffffffffffff16815260200190815260200160002060006103306107d7565b73ffffffffffffffffffffffffffffffffffffffff1673ffffffffffffffffffffffffffffffffffffffff16815260200190815260200160002054610c389092919063ffffffff16565b6107df565b600190509392505050565b60006104336103976107d7565b8461042e85600260006103a86107d7565b73ffffffffffffffffffffffffffffffffffffffff1673ffffffffffffffffffffffffffffffffffffffff16815260200190815260200160002060008973ffffffffffffffffffffffffffffffffffffffff1673ffffffffffffffffffffffffffffffffffffffff16815260200190815260200160002054610c9c90919063ffffffff16565b6107df565b6001905092915050565b6000600160008373ffffffffffffffffffffffffffffffffffffffff1673ffffffffffffffffffffffffffffffffffffffff168152602001908152602001600020549050919050565b61048e6105b4565b6104cd576040517f08c379a00000000000000000000000000000000000000000000000000000000081526004016104c490611184565b60405180910390fd5b600073ffffffffffffffffffffffffffffffffffffffff1660008054906101000a900473ffffffffffffffffffffffffffffffffffffffff1673ffffffffffffffffffffffffffffffffffffffff167f8be0079c531659141344cd1fd0a4f28419497f9722a3daafe3b4186f6b6457e060405160405180910390a360008060006101000a81548173ffffffffffffffffffffffffffffffffffffffff021916908373ffffffffffffffffffffffffffffffffffffffff160217905550565b60008060009054906101000a900473ffffffffffffffffffffffffffffffffffffffff16905090565b60008060009054906101000a900473ffffffffffffffffffffffffffffffffffffffff1673ffffffffffffffffffffffffffffffffffffffff166105f66107d7565b73ffffffffffffffffffffffffffffffffffffffff1614905090565b60006106d561061f6107d7565b846106d0856040518060600160405280602581526020016115bf60259139600260006106496107d7565b73ffffffffffffffffffffffffffffffffffffffff1673ffffffffffffffffffffffffffffffffffffffff16815260200190815260200160002060008a73ffffffffffffffffffffffffffffffffffffffff1673ffffffffffffffffffffffffffffffffffffffff16815260200190815260200160002054610c389092919063ffffffff16565b6107df565b6001905092915050565b60006106f36106ec6107d7565b84846109aa565b6001905092915050565b6000600260008473ffffffffffffffffffffffffffffffffffffffff1673ffffffffffffffffffffffffffffffffffffffff16815260200190815260200160002060008373ffffffffffffffffffffffffffffffffffffffff1673ffffffffffffffffffffffffffffffffffffffff16815260200190815260200160002054905092915050565b61078c6105b4565b6107cb576040517f08c379a00000000000000000000000000000000000000000000000000000000081526004016107c290611184565b60405180910390fd5b6107d481610cfa565b50565b600033905090565b600073ffffffffffffffffffffffffffffffffffffffff168373ffffffffffffffffffffffffffffffffffffffff16141561084f576040517f08c379a000000000000000000000000000000000000000000000000000000000815260040161084690611124565b60405180910390fd5b600073ffffffffffffffffffffffffffffffffffffffff168273ffffffffffffffffffffffffffffffffffffffff1614156108bf576040517f08c379a00000000000000000000000000000000000000000000000000000000081526004016108b6906111c4565b60405180910390fd5b80600260008573ffffffffffffffffffffffffffffffffffffffff1673ffffffffffffffffffffffffffffffffffffffff16815260200190815260200160002060008473ffffffffffffffffffffffffffffffffffffffff1673ffffffffffffffffffffffffffffffffffffffff168152602001908152602001600020819055508173ffffffffffffffffffffffffffffffffffffffff168373ffffffffffffffffffffffffffffffffffffffff167f8c5be1e5ebec7d5bd14f71427d1e84f3dd0314c0f7b2291e5b200ac8c7c3b9258360405161099d91906111e4565b60405180910390a3505050565b600073ffffffffffffffffffffffffffffffffffffffff168373ffffffffffffffffffffffffffffffffffffffff161415610a1a576040517f08c379a0000000000000000000000000000000000000000000000000000000008152600401610a1190611104565b60405180910390fd5b600073ffffffffffffffffffffffffffffffffffffffff168273ffffffffffffffffffffffffffffffffffffffff161415610a8a576040517f08c379a0000000000000000000000000000000000000000000000000000000008152600401610a81906111a4565b60405180910390fd5b610af68160405180606001604052806026815260200161159960269139600160008773ffffffffffffffffffffffffffffffffffffffff1673ffffffffffffffffffffffffffffffffffffffff16815260200190815260200160002054610c389092919063ffffffff16565b600160008573ffffffffffffffffffffffffffffffffffffffff1673ffffffffffffffffffffffffffffffffffffffff16815260200190815260200160002081905550610b8b81600160008573ffffffffffffffffffffffffffffffffffffffff1673ffffffffffffffffffffffffffffffffffffffff16815260200190815260200160002054610c9c90919063ffffffff16565b600160008473ffffffffffffffffffffffffffffffffffffffff1673ffffffffffffffffffffffffffffffffffffffff168152602001908152602001600020819055508173ffffffffffffffffffffffffffffffffffffffff168373ffffffffffffffffffffffffffffffffffffffff167fddf252ad1be2c89b69c2b068fc378daa952ba7f163c4a11628f55a4df523b3ef83604051610c2b91906111e4565b60405180910390a3505050565b6000838311158290610c80576040517f08c379a0000000000000000000000000000000000000000000000000000000008152600401610c7791906110e2565b60405180910390fd5b5060008385610c8f9190611271565b9050809150509392505050565b6000808284610cab919061121b565b905083811015610cf0576040517f08c379a0000000000000000000000000000000000000000000000000000000008152600401610ce790611164565b60405180910390fd5b8091505092915050565b600073ffffffffffffffffffffffffffffffffffffffff168173ffffffffffffffffffffffffffffffffffffffff161415610d6a576040517f08c379a0000000000000000000000000000000000000000000000000000000008152600401610d6190611144565b60405180910390fd5b8073ffffffffffffffffffffffffffffffffffffffff1660008054906101000a900473ffffffffffffffffffffffffffffffffffffffff1673ffffffffffffffffffffffffffffffffffffffff167f8be0079c531659141344cd1fd0a4f28419497f9722a3daafe3b4186f6b6457e060405160405180910390a3806000806101000a81548173ffffffffffffffffffffffffffffffffffffffff021916908373ffffffffffffffffffffffffffffffffffffffff16021790555050565b600081359050610e3681611542565b92915050565b600081359050610e4b81611559565b92915050565b600060208284031215610e6757610e6661134f565b5b6000610e7584828501610e27565b91505092915050565b60008060408385031215610e9557610e9461134f565b5b6000610ea385828601610e27565b9250506020610eb485828601610e27565b9150509250929050565b600080600060608486031215610ed757610ed661134f565b5b6000610ee586828701610e27565b9350506020610ef686828701610e27565b9250506040610f0786828701610e3c565b9150509250925092565b60008060408385031215610f2857610f2761134f565b5b6000610f3685828601610e27565b9250506020610f4785828601610e3c565b9150509250929050565b610f5a816112a5565b82525050565b610f69816112b7565b82525050565b6000610f7a826111ff565b610f84818561120a565b9350610f948185602086016112ed565b610f9d81611354565b840191505092915050565b6000610fb560258361120a565b9150610fc082611365565b604082019050919050565b6000610fd860248361120a565b9150610fe3826113b4565b604082019050919050565b6000610ffb60268361120a565b915061100682611403565b604082019050919050565b600061101e601b8361120a565b915061102982611452565b602082019050919050565b600061104160208361120a565b915061104c8261147b565b602082019050919050565b600061106460238361120a565b915061106f826114a4565b604082019050919050565b600061108760228361120a565b9150611092826114f3565b604082019050919050565b6110a6816112e3565b82525050565b60006020820190506110c16000830184610f51565b92915050565b60006020820190506110dc6000830184610f60565b92915050565b600060208201905081810360008301526110fc8184610f6f565b905092915050565b6000602082019050818103600083015261111d81610fa8565b9050919050565b6000602082019050818103600083015261113d81610fcb565b9050919050565b6000602082019050818103600083015261115d81610fee565b9050919050565b6000602082019050818103600083015261117d81611011565b9050919050565b6000602082019050818103600083015261119d81611034565b9050919050565b600060208201905081810360008301526111bd81611057565b9050919050565b600060208201905081810360008301526111dd8161107a565b9050919050565b60006020820190506111f9600083018461109d565b92915050565b600081519050919050565b600082825260208201905092915050565b6000611226826112e3565b9150611231836112e3565b9250827fffffffffffffffffffffffffffffffffffffffffffffffffffffffffffffffff0382111561126657611265611320565b5b828201905092915050565b600061127c826112e3565b9150611287836112e3565b92508282101561129a57611299611320565b5b828203905092915050565b60006112b0826112c3565b9050919050565b60008115159050919050565b600073ffffffffffffffffffffffffffffffffffffffff82169050919050565b6000819050919050565b60005b8381101561130b5780820151818401526020810190506112f0565b8381111561131a576000848401525b50505050565b7f4e487b7100000000000000000000000000000000000000000000000000000000600052601160045260246000fd5b600080fd5b6000601f19601f8301169050919050565b7f42455032303a207472616e736665722066726f6d20746865207a65726f20616460008201527f6472657373000000000000000000000000000000000000000000000000000000602082015250565b7f42455032303a20617070726f76652066726f6d20746865207a65726f2061646460008201527f7265737300000000000000000000000000000000000000000000000000000000602082015250565b7f4f776e61626c653a206e6577206f776e657220697320746865207a65726f206160008201527f6464726573730000000000000000000000000000000000000000000000000000602082015250565b7f536166654d6174683a206164646974696f6e206f766572666c6f770000000000600082015250565b7f4f776e61626c653a2063616c6c6572206973206e6f7420746865206f776e6572600082015250565b7f42455032303a207472616e7366657220746f20746865207a65726f206164647260008201527f6573730000000000000000000000000000000000000000000000000000000000602082015250565b7f42455032303a20617070726f766520746f20746865207a65726f20616464726560008201527f7373000000000000000000000000000000000000000000000000000000000000602082015250565b61154b816112a5565b811461155657600080fd5b50565b611562816112e3565b811461156d57600080fd5b5056fe42455032303a207472616e7366657220616d6f756e74206578636565647320616c6c6f77616e636542455032303a207472616e7366657220616d6f756e7420657863656564732062616c616e636542455032303a2064656372656173656420616c6c6f77616e63652062656c6f77207a65726fa2646970667358221220b737db32894834b15895a91ae29a5eb3d8bd424d86d524e4034bbc5df14ba14764736f6c63430008070033",
					"opcodes": "PUSH1 0x80 PUSH1 0x40 MSTORE CALLVALUE DUP1 ISZERO PUSH2 0x10 JUMPI PUSH1 0x0 DUP1 REVERT JUMPDEST POP PUSH1 0x0 PUSH2 0x21 PUSH2 0xC4 PUSH1 0x20 SHL PUSH1 0x20 SHR JUMP JUMPDEST SWAP1 POP DUP1 PUSH1 0x0 DUP1 PUSH2 0x100 EXP DUP2 SLOAD DUP2 PUSH20 0xFFFFFFFFFFFFFFFFFFFFFFFFFFFFFFFFFFFFFFFF MUL NOT AND SWAP1 DUP4 PUSH20 0xFFFFFFFFFFFFFFFFFFFFFFFFFFFFFFFFFFFFFFFF AND MUL OR SWAP1 SSTORE POP DUP1 PUSH20 0xFFFFFFFFFFFFFFFFFFFFFFFFFFFFFFFFFFFFFFFF AND PUSH1 0x0 PUSH20 0xFFFFFFFFFFFFFFFFFFFFFFFFFFFFFFFFFFFFFFFF AND PUSH32 0x8BE0079C531659141344CD1FD0A4F28419497F9722A3DAAFE3B4186F6B6457E0 PUSH1 0x40 MLOAD PUSH1 0x40 MLOAD DUP1 SWAP2 SUB SWAP1 LOG3 POP PUSH2 0xCC JUMP JUMPDEST PUSH1 0x0 CALLER SWAP1 POP SWAP1 JUMP JUMPDEST PUSH2 0x1619 DUP1 PUSH2 0xDB PUSH1 0x0 CODECOPY PUSH1 0x0 RETURN INVALID PUSH1 0x80 PUSH1 0x40 MSTORE CALLVALUE DUP1 ISZERO PUSH2 0x10 JUMPI PUSH1 0x0 DUP1 REVERT JUMPDEST POP PUSH1 0x4 CALLDATASIZE LT PUSH2 0xB4 JUMPI PUSH1 0x0 CALLDATALOAD PUSH1 0xE0 SHR DUP1 PUSH4 0x8DA5CB5B GT PUSH2 0x71 JUMPI DUP1 PUSH4 0x8DA5CB5B EQ PUSH2 0x1A1 JUMPI DUP1 PUSH4 0x8F32D59B EQ PUSH2 0x1BF JUMPI DUP1 PUSH4 0xA457C2D7 EQ PUSH2 0x1DD JUMPI DUP1 PUSH4 0xA9059CBB EQ PUSH2 0x20D JUMPI DUP1 PUSH4 0xDD62ED3E EQ PUSH2 0x23D JUMPI DUP1 PUSH4 0xF2FDE38B EQ PUSH2 0x26D JUMPI PUSH2 0xB4 JUMP JUMPDEST DUP1 PUSH4 0x95EA7B3 EQ PUSH2 0xB9 JUMPI DUP1 PUSH4 0x18160DDD EQ PUSH2 0xE9 JUMPI DUP1 PUSH4 0x23B872DD EQ PUSH2 0x107 JUMPI DUP1 PUSH4 0x39509351 EQ PUSH2 0x137 JUMPI DUP1 PUSH4 0x70A08231 EQ PUSH2 0x167 JUMPI DUP1 PUSH4 0x715018A6 EQ PUSH2 0x197 JUMPI JUMPDEST PUSH1 0x0 DUP1 REVERT JUMPDEST PUSH2 0xD3 PUSH1 0x4 DUP1 CALLDATASIZE SUB DUP2 ADD SWAP1 PUSH2 0xCE SWAP2 SWAP1 PUSH2 0xF11 JUMP JUMPDEST PUSH2 0x289 JUMP JUMPDEST PUSH1 0x40 MLOAD PUSH2 0xE0 SWAP2 SWAP1 PUSH2 0x10C7 JUMP JUMPDEST PUSH1 0x40 MLOAD DUP1 SWAP2 SUB SWAP1 RETURN JUMPDEST PUSH2 0xF1 PUSH2 0x2A7 JUMP JUMPDEST PUSH1 0x40 MLOAD PUSH2 0xFE SWAP2 SWAP1 PUSH2 0x11E4 JUMP JUMPDEST PUSH1 0x40 MLOAD DUP1 SWAP2 SUB SWAP1 RETURN JUMPDEST PUSH2 0x121 PUSH1 0x4 DUP1 CALLDATASIZE SUB DUP2 ADD SWAP1 PUSH2 0x11C SWAP2 SWAP1 PUSH2 0xEBE JUMP JUMPDEST PUSH2 0x2B1 JUMP JUMPDEST PUSH1 0x40 MLOAD PUSH2 0x12E SWAP2 SWAP1 PUSH2 0x10C7 JUMP JUMPDEST PUSH1 0x40 MLOAD DUP1 SWAP2 SUB SWAP1 RETURN JUMPDEST PUSH2 0x151 PUSH1 0x4 DUP1 CALLDATASIZE SUB DUP2 ADD SWAP1 PUSH2 0x14C SWAP2 SWAP1 PUSH2 0xF11 JUMP JUMPDEST PUSH2 0x38A JUMP JUMPDEST PUSH1 0x40 MLOAD PUSH2 0x15E SWAP2 SWAP1 PUSH2 0x10C7 JUMP JUMPDEST PUSH1 0x40 MLOAD DUP1 SWAP2 SUB SWAP1 RETURN JUMPDEST PUSH2 0x181 PUSH1 0x4 DUP1 CALLDATASIZE SUB DUP2 ADD SWAP1 PUSH2 0x17C SWAP2 SWAP1 PUSH2 0xE51 JUMP JUMPDEST PUSH2 0x43D JUMP JUMPDEST PUSH1 0x40 MLOAD PUSH2 0x18E SWAP2 SWAP1 PUSH2 0x11E4 JUMP JUMPDEST PUSH1 0x40 MLOAD DUP1 SWAP2 SUB SWAP1 RETURN JUMPDEST PUSH2 0x19F PUSH2 0x486 JUMP JUMPDEST STOP JUMPDEST PUSH2 0x1A9 PUSH2 0x58B JUMP JUMPDEST PUSH1 0x40 MLOAD PUSH2 0x1B6 SWAP2 SWAP1 PUSH2 0x10AC JUMP JUMPDEST PUSH1 0x40 MLOAD DUP1 SWAP2 SUB SWAP1 RETURN JUMPDEST PUSH2 0x1C7 PUSH2 0x5B4 JUMP JUMPDEST PUSH1 0x40 MLOAD PUSH2 0x1D4 SWAP2 SWAP1 PUSH2 0x10C7 JUMP JUMPDEST PUSH1 0x40 MLOAD DUP1 SWAP2 SUB SWAP1 RETURN JUMPDEST PUSH2 0x1F7 PUSH1 0x4 DUP1 CALLDATASIZE SUB DUP2 ADD SWAP1 PUSH2 0x1F2 SWAP2 SWAP1 PUSH2 0xF11 JUMP JUMPDEST PUSH2 0x612 JUMP JUMPDEST PUSH1 0x40 MLOAD PUSH2 0x204 SWAP2 SWAP1 PUSH2 0x10C7 JUMP JUMPDEST PUSH1 0x40 MLOAD DUP1 SWAP2 SUB SWAP1 RETURN JUMPDEST PUSH2 0x227 PUSH1 0x4 DUP1 CALLDATASIZE SUB DUP2 ADD SWAP1 PUSH2 0x222 SWAP2 SWAP1 PUSH2 0xF11 JUMP JUMPDEST PUSH2 0x6DF JUMP JUMPDEST PUSH1 0x40 MLOAD PUSH2 0x234 SWAP2 SWAP1 PUSH2 0x10C7 JUMP JUMPDEST PUSH1 0x40 MLOAD DUP1 SWAP2 SUB SWAP1 RETURN JUMPDEST PUSH2 0x257 PUSH1 0x4 DUP1 CALLDATASIZE SUB DUP2 ADD SWAP1 PUSH2 0x252 SWAP2 SWAP1 PUSH2 0xE7E JUMP JUMPDEST PUSH2 0x6FD JUMP JUMPDEST PUSH1 0x40 MLOAD PUSH2 0x264 SWAP2 SWAP1 PUSH2 0x11E4 JUMP JUMPDEST PUSH1 0x40 MLOAD DUP1 SWAP2 SUB SWAP1 RETURN JUMPDEST PUSH2 0x287 PUSH1 0x4 DUP1 CALLDATASIZE SUB DUP2 ADD SWAP1 PUSH2 0x282 SWAP2 SWAP1 PUSH2 0xE51 JUMP JUMPDEST PUSH2 0x784 JUMP JUMPDEST STOP JUMPDEST PUSH1 0x0 PUSH2 0x29D PUSH2 0x296 PUSH2 0x7D7 JUMP JUMPDEST DUP5 DUP5 PUSH2 0x7DF JUMP JUMPDEST PUSH1 0x1 SWAP1 POP SWAP3 SWAP2 POP POP JUMP JUMPDEST PUSH1 0x0 PUSH1 0x3 SLOAD SWAP1 POP SWAP1 JUMP JUMPDEST PUSH1 0x0 PUSH2 0x2BE DUP5 DUP5 DUP5 PUSH2 0x9AA JUMP JUMPDEST PUSH2 0x37F DUP5 PUSH2 0x2CA PUSH2 0x7D7 JUMP JUMPDEST PUSH2 0x37A DUP6 PUSH1 0x40 MLOAD DUP1 PUSH1 0x60 ADD PUSH1 0x40 MSTORE DUP1 PUSH1 0x28 DUP2 MSTORE PUSH1 0x20 ADD PUSH2 0x1571 PUSH1 0x28 SWAP2 CODECOPY PUSH1 0x2 PUSH1 0x0 DUP12 PUSH20 0xFFFFFFFFFFFFFFFFFFFFFFFFFFFFFFFFFFFFFFFF AND PUSH20 0xFFFFFFFFFFFFFFFFFFFFFFFFFFFFFFFFFFFFFFFF AND DUP2 MSTORE PUSH1 0x20 ADD SWAP1 DUP2 MSTORE PUSH1 0x20 ADD PUSH1 0x0 KECCAK256 PUSH1 0x0 PUSH2 0x330 PUSH2 0x7D7 JUMP JUMPDEST PUSH20 0xFFFFFFFFFFFFFFFFFFFFFFFFFFFFFFFFFFFFFFFF AND PUSH20 0xFFFFFFFFFFFFFFFFFFFFFFFFFFFFFFFFFFFFFFFF AND DUP2 MSTORE PUSH1 0x20 ADD SWAP1 DUP2 MSTORE PUSH1 0x20 ADD PUSH1 0x0 KECCAK256 SLOAD PUSH2 0xC38 SWAP1 SWAP3 SWAP2 SWAP1 PUSH4 0xFFFFFFFF AND JUMP JUMPDEST PUSH2 0x7DF JUMP JUMPDEST PUSH1 0x1 SWAP1 POP SWAP4 SWAP3 POP POP POP JUMP JUMPDEST PUSH1 0x0 PUSH2 0x433 PUSH2 0x397 PUSH2 0x7D7 JUMP JUMPDEST DUP5 PUSH2 0x42E DUP6 PUSH1 0x2 PUSH1 0x0 PUSH2 0x3A8 PUSH2 0x7D7 JUMP JUMPDEST PUSH20 0xFFFFFFFFFFFFFFFFFFFFFFFFFFFFFFFFFFFFFFFF AND PUSH20 0xFFFFFFFFFFFFFFFFFFFFFFFFFFFFFFFFFFFFFFFF AND DUP2 MSTORE PUSH1 0x20 ADD SWAP1 DUP2 MSTORE PUSH1 0x20 ADD PUSH1 0x0 KECCAK256 PUSH1 0x0 DUP10 PUSH20 0xFFFFFFFFFFFFFFFFFFFFFFFFFFFFFFFFFFFFFFFF AND PUSH20 0xFFFFFFFFFFFFFFFFFFFFFFFFFFFFFFFFFFFFFFFF AND DUP2 MSTORE PUSH1 0x20 ADD SWAP1 DUP2 MSTORE PUSH1 0x20 ADD PUSH1 0x0 KECCAK256 SLOAD PUSH2 0xC9C SWAP1 SWAP2 SWAP1 PUSH4 0xFFFFFFFF AND JUMP JUMPDEST PUSH2 0x7DF JUMP JUMPDEST PUSH1 0x1 SWAP1 POP SWAP3 SWAP2 POP POP JUMP JUMPDEST PUSH1 0x0 PUSH1 0x1 PUSH1 0x0 DUP4 PUSH20 0xFFFFFFFFFFFFFFFFFFFFFFFFFFFFFFFFFFFFFFFF AND PUSH20 0xFFFFFFFFFFFFFFFFFFFFFFFFFFFFFFFFFFFFFFFF AND DUP2 MSTORE PUSH1 0x20 ADD SWAP1 DUP2 MSTORE PUSH1 0x20 ADD PUSH1 0x0 KECCAK256 SLOAD SWAP1 POP SWAP2 SWAP1 POP JUMP JUMPDEST PUSH2 0x48E PUSH2 0x5B4 JUMP JUMPDEST PUSH2 0x4CD JUMPI PUSH1 0x40 MLOAD PUSH32 0x8C379A000000000000000000000000000000000000000000000000000000000 DUP2 MSTORE PUSH1 0x4 ADD PUSH2 0x4C4 SWAP1 PUSH2 0x1184 JUMP JUMPDEST PUSH1 0x40 MLOAD DUP1 SWAP2 SUB SWAP1 REVERT JUMPDEST PUSH1 0x0 PUSH20 0xFFFFFFFFFFFFFFFFFFFFFFFFFFFFFFFFFFFFFFFF AND PUSH1 0x0 DUP1 SLOAD SWAP1 PUSH2 0x100 EXP SWAP1 DIV PUSH20 0xFFFFFFFFFFFFFFFFFFFFFFFFFFFFFFFFFFFFFFFF AND PUSH20 0xFFFFFFFFFFFFFFFFFFFFFFFFFFFFFFFFFFFFFFFF AND PUSH32 0x8BE0079C531659141344CD1FD0A4F28419497F9722A3DAAFE3B4186F6B6457E0 PUSH1 0x40 MLOAD PUSH1 0x40 MLOAD DUP1 SWAP2 SUB SWAP1 LOG3 PUSH1 0x0 DUP1 PUSH1 0x0 PUSH2 0x100 EXP DUP2 SLOAD DUP2 PUSH20 0xFFFFFFFFFFFFFFFFFFFFFFFFFFFFFFFFFFFFFFFF MUL NOT AND SWAP1 DUP4 PUSH20 0xFFFFFFFFFFFFFFFFFFFFFFFFFFFFFFFFFFFFFFFF AND MUL OR SWAP1 SSTORE POP JUMP JUMPDEST PUSH1 0x0 DUP1 PUSH1 0x0 SWAP1 SLOAD SWAP1 PUSH2 0x100 EXP SWAP1 DIV PUSH20 0xFFFFFFFFFFFFFFFFFFFFFFFFFFFFFFFFFFFFFFFF AND SWAP1 POP SWAP1 JUMP JUMPDEST PUSH1 0x0 DUP1 PUSH1 0x0 SWAP1 SLOAD SWAP1 PUSH2 0x100 EXP SWAP1 DIV PUSH20 0xFFFFFFFFFFFFFFFFFFFFFFFFFFFFFFFFFFFFFFFF AND PUSH20 0xFFFFFFFFFFFFFFFFFFFFFFFFFFFFFFFFFFFFFFFF AND PUSH2 0x5F6 PUSH2 0x7D7 JUMP JUMPDEST PUSH20 0xFFFFFFFFFFFFFFFFFFFFFFFFFFFFFFFFFFFFFFFF AND EQ SWAP1 POP SWAP1 JUMP JUMPDEST PUSH1 0x0 PUSH2 0x6D5 PUSH2 0x61F PUSH2 0x7D7 JUMP JUMPDEST DUP5 PUSH2 0x6D0 DUP6 PUSH1 0x40 MLOAD DUP1 PUSH1 0x60 ADD PUSH1 0x40 MSTORE DUP1 PUSH1 0x25 DUP2 MSTORE PUSH1 0x20 ADD PUSH2 0x15BF PUSH1 0x25 SWAP2 CODECOPY PUSH1 0x2 PUSH1 0x0 PUSH2 0x649 PUSH2 0x7D7 JUMP JUMPDEST PUSH20 0xFFFFFFFFFFFFFFFFFFFFFFFFFFFFFFFFFFFFFFFF AND PUSH20 0xFFFFFFFFFFFFFFFFFFFFFFFFFFFFFFFFFFFFFFFF AND DUP2 MSTORE PUSH1 0x20 ADD SWAP1 DUP2 MSTORE PUSH1 0x20 ADD PUSH1 0x0 KECCAK256 PUSH1 0x0 DUP11 PUSH20 0xFFFFFFFFFFFFFFFFFFFFFFFFFFFFFFFFFFFFFFFF AND PUSH20 0xFFFFFFFFFFFFFFFFFFFFFFFFFFFFFFFFFFFFFFFF AND DUP2 MSTORE PUSH1 0x20 ADD SWAP1 DUP2 MSTORE PUSH1 0x20 ADD PUSH1 0x0 KECCAK256 SLOAD PUSH2 0xC38 SWAP1 SWAP3 SWAP2 SWAP1 PUSH4 0xFFFFFFFF AND JUMP JUMPDEST PUSH2 0x7DF JUMP JUMPDEST PUSH1 0x1 SWAP1 POP SWAP3 SWAP2 POP POP JUMP JUMPDEST PUSH1 0x0 PUSH2 0x6F3 PUSH2 0x6EC PUSH2 0x7D7 JUMP JUMPDEST DUP5 DUP5 PUSH2 0x9AA JUMP JUMPDEST PUSH1 0x1 SWAP1 POP SWAP3 SWAP2 POP POP JUMP JUMPDEST PUSH1 0x0 PUSH1 0x2 PUSH1 0x0 DUP5 PUSH20 0xFFFFFFFFFFFFFFFFFFFFFFFFFFFFFFFFFFFFFFFF AND PUSH20 0xFFFFFFFFFFFFFFFFFFFFFFFFFFFFFFFFFFFFFFFF AND DUP2 MSTORE PUSH1 0x20 ADD SWAP1 DUP2 MSTORE PUSH1 0x20 ADD PUSH1 0x0 KECCAK256 PUSH1 0x0 DUP4 PUSH20 0xFFFFFFFFFFFFFFFFFFFFFFFFFFFFFFFFFFFFFFFF AND PUSH20 0xFFFFFFFFFFFFFFFFFFFFFFFFFFFFFFFFFFFFFFFF AND DUP2 MSTORE PUSH1 0x20 ADD SWAP1 DUP2 MSTORE PUSH1 0x20 ADD PUSH1 0x0 KECCAK256 SLOAD SWAP1 POP SWAP3 SWAP2 POP POP JUMP JUMPDEST PUSH2 0x78C PUSH2 0x5B4 JUMP JUMPDEST PUSH2 0x7CB JUMPI PUSH1 0x40 MLOAD PUSH32 0x8C379A000000000000000000000000000000000000000000000000000000000 DUP2 MSTORE PUSH1 0x4 ADD PUSH2 0x7C2 SWAP1 PUSH2 0x1184 JUMP JUMPDEST PUSH1 0x40 MLOAD DUP1 SWAP2 SUB SWAP1 REVERT JUMPDEST PUSH2 0x7D4 DUP2 PUSH2 0xCFA JUMP JUMPDEST POP JUMP JUMPDEST PUSH1 0x0 CALLER SWAP1 POP SWAP1 JUMP JUMPDEST PUSH1 0x0 PUSH20 0xFFFFFFFFFFFFFFFFFFFFFFFFFFFFFFFFFFFFFFFF AND DUP4 PUSH20 0xFFFFFFFFFFFFFFFFFFFFFFFFFFFFFFFFFFFFFFFF AND EQ ISZERO PUSH2 0x84F JUMPI PUSH1 0x40 MLOAD PUSH32 0x8C379A000000000000000000000000000000000000000000000000000000000 DUP2 MSTORE PUSH1 0x4 ADD PUSH2 0x846 SWAP1 PUSH2 0x1124 JUMP JUMPDEST PUSH1 0x40 MLOAD DUP1 SWAP2 SUB SWAP1 REVERT JUMPDEST PUSH1 0x0 PUSH20 0xFFFFFFFFFFFFFFFFFFFFFFFFFFFFFFFFFFFFFFFF AND DUP3 PUSH20 0xFFFFFFFFFFFFFFFFFFFFFFFFFFFFFFFFFFFFFFFF AND EQ ISZERO PUSH2 0x8BF JUMPI PUSH1 0x40 MLOAD PUSH32 0x8C379A000000000000000000000000000000000000000000000000000000000 DUP2 MSTORE PUSH1 0x4 ADD PUSH2 0x8B6 SWAP1 PUSH2 0x11C4 JUMP JUMPDEST PUSH1 0x40 MLOAD DUP1 SWAP2 SUB SWAP1 REVERT JUMPDEST DUP1 PUSH1 0x2 PUSH1 0x0 DUP6 PUSH20 0xFFFFFFFFFFFFFFFFFFFFFFFFFFFFFFFFFFFFFFFF AND PUSH20 0xFFFFFFFFFFFFFFFFFFFFFFFFFFFFFFFFFFFFFFFF AND DUP2 MSTORE PUSH1 0x20 ADD SWAP1 DUP2 MSTORE PUSH1 0x20 ADD PUSH1 0x0 KECCAK256 PUSH1 0x0 DUP5 PUSH20 0xFFFFFFFFFFFFFFFFFFFFFFFFFFFFFFFFFFFFFFFF AND PUSH20 0xFFFFFFFFFFFFFFFFFFFFFFFFFFFFFFFFFFFFFFFF AND DUP2 MSTORE PUSH1 0x20 ADD SWAP1 DUP2 MSTORE PUSH1 0x20 ADD PUSH1 0x0 KECCAK256 DUP2 SWAP1 SSTORE POP DUP2 PUSH20 0xFFFFFFFFFFFFFFFFFFFFFFFFFFFFFFFFFFFFFFFF AND DUP4 PUSH20 0xFFFFFFFFFFFFFFFFFFFFFFFFFFFFFFFFFFFFFFFF AND PUSH32 0x8C5BE1E5EBEC7D5BD14F71427D1E84F3DD0314C0F7B2291E5B200AC8C7C3B925 DUP4 PUSH1 0x40 MLOAD PUSH2 0x99D SWAP2 SWAP1 PUSH2 0x11E4 JUMP JUMPDEST PUSH1 0x40 MLOAD DUP1 SWAP2 SUB SWAP1 LOG3 POP POP POP JUMP JUMPDEST PUSH1 0x0 PUSH20 0xFFFFFFFFFFFFFFFFFFFFFFFFFFFFFFFFFFFFFFFF AND DUP4 PUSH20 0xFFFFFFFFFFFFFFFFFFFFFFFFFFFFFFFFFFFFFFFF AND EQ ISZERO PUSH2 0xA1A JUMPI PUSH1 0x40 MLOAD PUSH32 0x8C379A000000000000000000000000000000000000000000000000000000000 DUP2 MSTORE PUSH1 0x4 ADD PUSH2 0xA11 SWAP1 PUSH2 0x1104 JUMP JUMPDEST PUSH1 0x40 MLOAD DUP1 SWAP2 SUB SWAP1 REVERT JUMPDEST PUSH1 0x0 PUSH20 0xFFFFFFFFFFFFFFFFFFFFFFFFFFFFFFFFFFFFFFFF AND DUP3 PUSH20 0xFFFFFFFFFFFFFFFFFFFFFFFFFFFFFFFFFFFFFFFF AND EQ ISZERO PUSH2 0xA8A JUMPI PUSH1 0x40 MLOAD PUSH32 0x8C379A000000000000000000000000000000000000000000000000000000000 DUP2 MSTORE PUSH1 0x4 ADD PUSH2 0xA81 SWAP1 PUSH2 0x11A4 JUMP JUMPDEST PUSH1 0x40 MLOAD DUP1 SWAP2 SUB SWAP1 REVERT JUMPDEST PUSH2 0xAF6 DUP2 PUSH1 0x40 MLOAD DUP1 PUSH1 0x60 ADD PUSH1 0x40 MSTORE DUP1 PUSH1 0x26 DUP2 MSTORE PUSH1 0x20 ADD PUSH2 0x1599 PUSH1 0x26 SWAP2 CODECOPY PUSH1 0x1 PUSH1 0x0 DUP8 PUSH20 0xFFFFFFFFFFFFFFFFFFFFFFFFFFFFFFFFFFFFFFFF AND PUSH20 0xFFFFFFFFFFFFFFFFFFFFFFFFFFFFFFFFFFFFFFFF AND DUP2 MSTORE PUSH1 0x20 ADD SWAP1 DUP2 MSTORE PUSH1 0x20 ADD PUSH1 0x0 KECCAK256 SLOAD PUSH2 0xC38 SWAP1 SWAP3 SWAP2 SWAP1 PUSH4 0xFFFFFFFF AND JUMP JUMPDEST PUSH1 0x1 PUSH1 0x0 DUP6 PUSH20 0xFFFFFFFFFFFFFFFFFFFFFFFFFFFFFFFFFFFFFFFF AND PUSH20 0xFFFFFFFFFFFFFFFFFFFFFFFFFFFFFFFFFFFFFFFF AND DUP2 MSTORE PUSH1 0x20 ADD SWAP1 DUP2 MSTORE PUSH1 0x20 ADD PUSH1 0x0 KECCAK256 DUP2 SWAP1 SSTORE POP PUSH2 0xB8B DUP2 PUSH1 0x1 PUSH1 0x0 DUP6 PUSH20 0xFFFFFFFFFFFFFFFFFFFFFFFFFFFFFFFFFFFFFFFF AND PUSH20 0xFFFFFFFFFFFFFFFFFFFFFFFFFFFFFFFFFFFFFFFF AND DUP2 MSTORE PUSH1 0x20 ADD SWAP1 DUP2 MSTORE PUSH1 0x20 ADD PUSH1 0x0 KECCAK256 SLOAD PUSH2 0xC9C SWAP1 SWAP2 SWAP1 PUSH4 0xFFFFFFFF AND JUMP JUMPDEST PUSH1 0x1 PUSH1 0x0 DUP5 PUSH20 0xFFFFFFFFFFFFFFFFFFFFFFFFFFFFFFFFFFFFFFFF AND PUSH20 0xFFFFFFFFFFFFFFFFFFFFFFFFFFFFFFFFFFFFFFFF AND DUP2 MSTORE PUSH1 0x20 ADD SWAP1 DUP2 MSTORE PUSH1 0x20 ADD PUSH1 0x0 KECCAK256 DUP2 SWAP1 SSTORE POP DUP2 PUSH20 0xFFFFFFFFFFFFFFFFFFFFFFFFFFFFFFFFFFFFFFFF AND DUP4 PUSH20 0xFFFFFFFFFFFFFFFFFFFFFFFFFFFFFFFFFFFFFFFF AND PUSH32 0xDDF252AD1BE2C89B69C2B068FC378DAA952BA7F163C4A11628F55A4DF523B3EF DUP4 PUSH1 0x40 MLOAD PUSH2 0xC2B SWAP2 SWAP1 PUSH2 0x11E4 JUMP JUMPDEST PUSH1 0x40 MLOAD DUP1 SWAP2 SUB SWAP1 LOG3 POP POP POP JUMP JUMPDEST PUSH1 0x0 DUP4 DUP4 GT ISZERO DUP3 SWAP1 PUSH2 0xC80 JUMPI PUSH1 0x40 MLOAD PUSH32 0x8C379A000000000000000000000000000000000000000000000000000000000 DUP2 MSTORE PUSH1 0x4 ADD PUSH2 0xC77 SWAP2 SWAP1 PUSH2 0x10E2 JUMP JUMPDEST PUSH1 0x40 MLOAD DUP1 SWAP2 SUB SWAP1 REVERT JUMPDEST POP PUSH1 0x0 DUP4 DUP6 PUSH2 0xC8F SWAP2 SWAP1 PUSH2 0x1271 JUMP JUMPDEST SWAP1 POP DUP1 SWAP2 POP POP SWAP4 SWAP3 POP POP POP JUMP JUMPDEST PUSH1 0x0 DUP1 DUP3 DUP5 PUSH2 0xCAB SWAP2 SWAP1 PUSH2 0x121B JUMP JUMPDEST SWAP1 POP DUP4 DUP2 LT ISZERO PUSH2 0xCF0 JUMPI PUSH1 0x40 MLOAD PUSH32 0x8C379A000000000000000000000000000000000000000000000000000000000 DUP2 MSTORE PUSH1 0x4 ADD PUSH2 0xCE7 SWAP1 PUSH2 0x1164 JUMP JUMPDEST PUSH1 0x40 MLOAD DUP1 SWAP2 SUB SWAP1 REVERT JUMPDEST DUP1 SWAP2 POP POP SWAP3 SWAP2 POP POP JUMP JUMPDEST PUSH1 0x0 PUSH20 0xFFFFFFFFFFFFFFFFFFFFFFFFFFFFFFFFFFFFFFFF AND DUP2 PUSH20 0xFFFFFFFFFFFFFFFFFFFFFFFFFFFFFFFFFFFFFFFF AND EQ ISZERO PUSH2 0xD6A JUMPI PUSH1 0x40 MLOAD PUSH32 0x8C379A000000000000000000000000000000000000000000000000000000000 DUP2 MSTORE PUSH1 0x4 ADD PUSH2 0xD61 SWAP1 PUSH2 0x1144 JUMP JUMPDEST PUSH1 0x40 MLOAD DUP1 SWAP2 SUB SWAP1 REVERT JUMPDEST DUP1 PUSH20 0xFFFFFFFFFFFFFFFFFFFFFFFFFFFFFFFFFFFFFFFF AND PUSH1 0x0 DUP1 SLOAD SWAP1 PUSH2 0x100 EXP SWAP1 DIV PUSH20 0xFFFFFFFFFFFFFFFFFFFFFFFFFFFFFFFFFFFFFFFF AND PUSH20 0xFFFFFFFFFFFFFFFFFFFFFFFFFFFFFFFFFFFFFFFF AND PUSH32 0x8BE0079C531659141344CD1FD0A4F28419497F9722A3DAAFE3B4186F6B6457E0 PUSH1 0x40 MLOAD PUSH1 0x40 MLOAD DUP1 SWAP2 SUB SWAP1 LOG3 DUP1 PUSH1 0x0 DUP1 PUSH2 0x100 EXP DUP2 SLOAD DUP2 PUSH20 0xFFFFFFFFFFFFFFFFFFFFFFFFFFFFFFFFFFFFFFFF MUL NOT AND SWAP1 DUP4 PUSH20 0xFFFFFFFFFFFFFFFFFFFFFFFFFFFFFFFFFFFFFFFF AND MUL OR SWAP1 SSTORE POP POP JUMP JUMPDEST PUSH1 0x0 DUP2 CALLDATALOAD SWAP1 POP PUSH2 0xE36 DUP2 PUSH2 0x1542 JUMP JUMPDEST SWAP3 SWAP2 POP POP JUMP JUMPDEST PUSH1 0x0 DUP2 CALLDATALOAD SWAP1 POP PUSH2 0xE4B DUP2 PUSH2 0x1559 JUMP JUMPDEST SWAP3 SWAP2 POP POP JUMP JUMPDEST PUSH1 0x0 PUSH1 0x20 DUP3 DUP5 SUB SLT ISZERO PUSH2 0xE67 JUMPI PUSH2 0xE66 PUSH2 0x134F JUMP JUMPDEST JUMPDEST PUSH1 0x0 PUSH2 0xE75 DUP5 DUP3 DUP6 ADD PUSH2 0xE27 JUMP JUMPDEST SWAP2 POP POP SWAP3 SWAP2 POP POP JUMP JUMPDEST PUSH1 0x0 DUP1 PUSH1 0x40 DUP4 DUP6 SUB SLT ISZERO PUSH2 0xE95 JUMPI PUSH2 0xE94 PUSH2 0x134F JUMP JUMPDEST JUMPDEST PUSH1 0x0 PUSH2 0xEA3 DUP6 DUP3 DUP7 ADD PUSH2 0xE27 JUMP JUMPDEST SWAP3 POP POP PUSH1 0x20 PUSH2 0xEB4 DUP6 DUP3 DUP7 ADD PUSH2 0xE27 JUMP JUMPDEST SWAP2 POP POP SWAP3 POP SWAP3 SWAP1 POP JUMP JUMPDEST PUSH1 0x0 DUP1 PUSH1 0x0 PUSH1 0x60 DUP5 DUP7 SUB SLT ISZERO PUSH2 0xED7 JUMPI PUSH2 0xED6 PUSH2 0x134F JUMP JUMPDEST JUMPDEST PUSH1 0x0 PUSH2 0xEE5 DUP7 DUP3 DUP8 ADD PUSH2 0xE27 JUMP JUMPDEST SWAP4 POP POP PUSH1 0x20 PUSH2 0xEF6 DUP7 DUP3 DUP8 ADD PUSH2 0xE27 JUMP JUMPDEST SWAP3 POP POP PUSH1 0x40 PUSH2 0xF07 DUP7 DUP3 DUP8 ADD PUSH2 0xE3C JUMP JUMPDEST SWAP2 POP POP SWAP3 POP SWAP3 POP SWAP3 JUMP JUMPDEST PUSH1 0x0 DUP1 PUSH1 0x40 DUP4 DUP6 SUB SLT ISZERO PUSH2 0xF28 JUMPI PUSH2 0xF27 PUSH2 0x134F JUMP JUMPDEST JUMPDEST PUSH1 0x0 PUSH2 0xF36 DUP6 DUP3 DUP7 ADD PUSH2 0xE27 JUMP JUMPDEST SWAP3 POP POP PUSH1 0x20 PUSH2 0xF47 DUP6 DUP3 DUP7 ADD PUSH2 0xE3C JUMP JUMPDEST SWAP2 POP POP SWAP3 POP SWAP3 SWAP1 POP JUMP JUMPDEST PUSH2 0xF5A DUP2 PUSH2 0x12A5 JUMP JUMPDEST DUP3 MSTORE POP POP JUMP JUMPDEST PUSH2 0xF69 DUP2 PUSH2 0x12B7 JUMP JUMPDEST DUP3 MSTORE POP POP JUMP JUMPDEST PUSH1 0x0 PUSH2 0xF7A DUP3 PUSH2 0x11FF JUMP JUMPDEST PUSH2 0xF84 DUP2 DUP6 PUSH2 0x120A JUMP JUMPDEST SWAP4 POP PUSH2 0xF94 DUP2 DUP6 PUSH1 0x20 DUP7 ADD PUSH2 0x12ED JUMP JUMPDEST PUSH2 0xF9D DUP2 PUSH2 0x1354 JUMP JUMPDEST DUP5 ADD SWAP2 POP POP SWAP3 SWAP2 POP POP JUMP JUMPDEST PUSH1 0x0 PUSH2 0xFB5 PUSH1 0x25 DUP4 PUSH2 0x120A JUMP JUMPDEST SWAP2 POP PUSH2 0xFC0 DUP3 PUSH2 0x1365 JUMP JUMPDEST PUSH1 0x40 DUP3 ADD SWAP1 POP SWAP2 SWAP1 POP JUMP JUMPDEST PUSH1 0x0 PUSH2 0xFD8 PUSH1 0x24 DUP4 PUSH2 0x120A JUMP JUMPDEST SWAP2 POP PUSH2 0xFE3 DUP3 PUSH2 0x13B4 JUMP JUMPDEST PUSH1 0x40 DUP3 ADD SWAP1 POP SWAP2 SWAP1 POP JUMP JUMPDEST PUSH1 0x0 PUSH2 0xFFB PUSH1 0x26 DUP4 PUSH2 0x120A JUMP JUMPDEST SWAP2 POP PUSH2 0x1006 DUP3 PUSH2 0x1403 JUMP JUMPDEST PUSH1 0x40 DUP3 ADD SWAP1 POP SWAP2 SWAP1 POP JUMP JUMPDEST PUSH1 0x0 PUSH2 0x101E PUSH1 0x1B DUP4 PUSH2 0x120A JUMP JUMPDEST SWAP2 POP PUSH2 0x1029 DUP3 PUSH2 0x1452 JUMP JUMPDEST PUSH1 0x20 DUP3 ADD SWAP1 POP SWAP2 SWAP1 POP JUMP JUMPDEST PUSH1 0x0 PUSH2 0x1041 PUSH1 0x20 DUP4 PUSH2 0x120A JUMP JUMPDEST SWAP2 POP PUSH2 0x104C DUP3 PUSH2 0x147B JUMP JUMPDEST PUSH1 0x20 DUP3 ADD SWAP1 POP SWAP2 SWAP1 POP JUMP JUMPDEST PUSH1 0x0 PUSH2 0x1064 PUSH1 0x23 DUP4 PUSH2 0x120A JUMP JUMPDEST SWAP2 POP PUSH2 0x106F DUP3 PUSH2 0x14A4 JUMP JUMPDEST PUSH1 0x40 DUP3 ADD SWAP1 POP SWAP2 SWAP1 POP JUMP JUMPDEST PUSH1 0x0 PUSH2 0x1087 PUSH1 0x22 DUP4 PUSH2 0x120A JUMP JUMPDEST SWAP2 POP PUSH2 0x1092 DUP3 PUSH2 0x14F3 JUMP JUMPDEST PUSH1 0x40 DUP3 ADD SWAP1 POP SWAP2 SWAP1 POP JUMP JUMPDEST PUSH2 0x10A6 DUP2 PUSH2 0x12E3 JUMP JUMPDEST DUP3 MSTORE POP POP JUMP JUMPDEST PUSH1 0x0 PUSH1 0x20 DUP3 ADD SWAP1 POP PUSH2 0x10C1 PUSH1 0x0 DUP4 ADD DUP5 PUSH2 0xF51 JUMP JUMPDEST SWAP3 SWAP2 POP POP JUMP JUMPDEST PUSH1 0x0 PUSH1 0x20 DUP3 ADD SWAP1 POP PUSH2 0x10DC PUSH1 0x0 DUP4 ADD DUP5 PUSH2 0xF60 JUMP JUMPDEST SWAP3 SWAP2 POP POP JUMP JUMPDEST PUSH1 0x0 PUSH1 0x20 DUP3 ADD SWAP1 POP DUP2 DUP2 SUB PUSH1 0x0 DUP4 ADD MSTORE PUSH2 0x10FC DUP2 DUP5 PUSH2 0xF6F JUMP JUMPDEST SWAP1 POP SWAP3 SWAP2 POP POP JUMP JUMPDEST PUSH1 0x0 PUSH1 0x20 DUP3 ADD SWAP1 POP DUP2 DUP2 SUB PUSH1 0x0 DUP4 ADD MSTORE PUSH2 0x111D DUP2 PUSH2 0xFA8 JUMP JUMPDEST SWAP1 POP SWAP2 SWAP1 POP JUMP JUMPDEST PUSH1 0x0 PUSH1 0x20 DUP3 ADD SWAP1 POP DUP2 DUP2 SUB PUSH1 0x0 DUP4 ADD MSTORE PUSH2 0x113D DUP2 PUSH2 0xFCB JUMP JUMPDEST SWAP1 POP SWAP2 SWAP1 POP JUMP JUMPDEST PUSH1 0x0 PUSH1 0x20 DUP3 ADD SWAP1 POP DUP2 DUP2 SUB PUSH1 0x0 DUP4 ADD MSTORE PUSH2 0x115D DUP2 PUSH2 0xFEE JUMP JUMPDEST SWAP1 POP SWAP2 SWAP1 POP JUMP JUMPDEST PUSH1 0x0 PUSH1 0x20 DUP3 ADD SWAP1 POP DUP2 DUP2 SUB PUSH1 0x0 DUP4 ADD MSTORE PUSH2 0x117D DUP2 PUSH2 0x1011 JUMP JUMPDEST SWAP1 POP SWAP2 SWAP1 POP JUMP JUMPDEST PUSH1 0x0 PUSH1 0x20 DUP3 ADD SWAP1 POP DUP2 DUP2 SUB PUSH1 0x0 DUP4 ADD MSTORE PUSH2 0x119D DUP2 PUSH2 0x1034 JUMP JUMPDEST SWAP1 POP SWAP2 SWAP1 POP JUMP JUMPDEST PUSH1 0x0 PUSH1 0x20 DUP3 ADD SWAP1 POP DUP2 DUP2 SUB PUSH1 0x0 DUP4 ADD MSTORE PUSH2 0x11BD DUP2 PUSH2 0x1057 JUMP JUMPDEST SWAP1 POP SWAP2 SWAP1 POP JUMP JUMPDEST PUSH1 0x0 PUSH1 0x20 DUP3 ADD SWAP1 POP DUP2 DUP2 SUB PUSH1 0x0 DUP4 ADD MSTORE PUSH2 0x11DD DUP2 PUSH2 0x107A JUMP JUMPDEST SWAP1 POP SWAP2 SWAP1 POP JUMP JUMPDEST PUSH1 0x0 PUSH1 0x20 DUP3 ADD SWAP1 POP PUSH2 0x11F9 PUSH1 0x0 DUP4 ADD DUP5 PUSH2 0x109D JUMP JUMPDEST SWAP3 SWAP2 POP POP JUMP JUMPDEST PUSH1 0x0 DUP2 MLOAD SWAP1 POP SWAP2 SWAP1 POP JUMP JUMPDEST PUSH1 0x0 DUP3 DUP3 MSTORE PUSH1 0x20 DUP3 ADD SWAP1 POP SWAP3 SWAP2 POP POP JUMP JUMPDEST PUSH1 0x0 PUSH2 0x1226 DUP3 PUSH2 0x12E3 JUMP JUMPDEST SWAP2 POP PUSH2 0x1231 DUP4 PUSH2 0x12E3 JUMP JUMPDEST SWAP3 POP DUP3 PUSH32 0xFFFFFFFFFFFFFFFFFFFFFFFFFFFFFFFFFFFFFFFFFFFFFFFFFFFFFFFFFFFFFFFF SUB DUP3 GT ISZERO PUSH2 0x1266 JUMPI PUSH2 0x1265 PUSH2 0x1320 JUMP JUMPDEST JUMPDEST DUP3 DUP3 ADD SWAP1 POP SWAP3 SWAP2 POP POP JUMP JUMPDEST PUSH1 0x0 PUSH2 0x127C DUP3 PUSH2 0x12E3 JUMP JUMPDEST SWAP2 POP PUSH2 0x1287 DUP4 PUSH2 0x12E3 JUMP JUMPDEST SWAP3 POP DUP3 DUP3 LT ISZERO PUSH2 0x129A JUMPI PUSH2 0x1299 PUSH2 0x1320 JUMP JUMPDEST JUMPDEST DUP3 DUP3 SUB SWAP1 POP SWAP3 SWAP2 POP POP JUMP JUMPDEST PUSH1 0x0 PUSH2 0x12B0 DUP3 PUSH2 0x12C3 JUMP JUMPDEST SWAP1 POP SWAP2 SWAP1 POP JUMP JUMPDEST PUSH1 0x0 DUP2 ISZERO ISZERO SWAP1 POP SWAP2 SWAP1 POP JUMP JUMPDEST PUSH1 0x0 PUSH20 0xFFFFFFFFFFFFFFFFFFFFFFFFFFFFFFFFFFFFFFFF DUP3 AND SWAP1 POP SWAP2 SWAP1 POP JUMP JUMPDEST PUSH1 0x0 DUP2 SWAP1 POP SWAP2 SWAP1 POP JUMP JUMPDEST PUSH1 0x0 JUMPDEST DUP4 DUP2 LT ISZERO PUSH2 0x130B JUMPI DUP1 DUP3 ADD MLOAD DUP2 DUP5 ADD MSTORE PUSH1 0x20 DUP2 ADD SWAP1 POP PUSH2 0x12F0 JUMP JUMPDEST DUP4 DUP2 GT ISZERO PUSH2 0x131A JUMPI PUSH1 0x0 DUP5 DUP5 ADD MSTORE JUMPDEST POP POP POP POP JUMP JUMPDEST PUSH32 0x4E487B7100000000000000000000000000000000000000000000000000000000 PUSH1 0x0 MSTORE PUSH1 0x11 PUSH1 0x4 MSTORE PUSH1 0x24 PUSH1 0x0 REVERT JUMPDEST PUSH1 0x0 DUP1 REVERT JUMPDEST PUSH1 0x0 PUSH1 0x1F NOT PUSH1 0x1F DUP4 ADD AND SWAP1 POP SWAP2 SWAP1 POP JUMP JUMPDEST PUSH32 0x42455032303A207472616E736665722066726F6D20746865207A65726F206164 PUSH1 0x0 DUP3 ADD MSTORE PUSH32 0x6472657373000000000000000000000000000000000000000000000000000000 PUSH1 0x20 DUP3 ADD MSTORE POP JUMP JUMPDEST PUSH32 0x42455032303A20617070726F76652066726F6D20746865207A65726F20616464 PUSH1 0x0 DUP3 ADD MSTORE PUSH32 0x7265737300000000000000000000000000000000000000000000000000000000 PUSH1 0x20 DUP3 ADD MSTORE POP JUMP JUMPDEST PUSH32 0x4F776E61626C653A206E6577206F776E657220697320746865207A65726F2061 PUSH1 0x0 DUP3 ADD MSTORE PUSH32 0x6464726573730000000000000000000000000000000000000000000000000000 PUSH1 0x20 DUP3 ADD MSTORE POP JUMP JUMPDEST PUSH32 0x536166654D6174683A206164646974696F6E206F766572666C6F770000000000 PUSH1 0x0 DUP3 ADD MSTORE POP JUMP JUMPDEST PUSH32 0x4F776E61626C653A2063616C6C6572206973206E6F7420746865206F776E6572 PUSH1 0x0 DUP3 ADD MSTORE POP JUMP JUMPDEST PUSH32 0x42455032303A207472616E7366657220746F20746865207A65726F2061646472 PUSH1 0x0 DUP3 ADD MSTORE PUSH32 0x6573730000000000000000000000000000000000000000000000000000000000 PUSH1 0x20 DUP3 ADD MSTORE POP JUMP JUMPDEST PUSH32 0x42455032303A20617070726F766520746F20746865207A65726F206164647265 PUSH1 0x0 DUP3 ADD MSTORE PUSH32 0x7373000000000000000000000000000000000000000000000000000000000000 PUSH1 0x20 DUP3 ADD MSTORE POP JUMP JUMPDEST PUSH2 0x154B DUP2 PUSH2 0x12A5 JUMP JUMPDEST DUP2 EQ PUSH2 0x1556 JUMPI PUSH1 0x0 DUP1 REVERT JUMPDEST POP JUMP JUMPDEST PUSH2 0x1562 DUP2 PUSH2 0x12E3 JUMP JUMPDEST DUP2 EQ PUSH2 0x156D JUMPI PUSH1 0x0 DUP1 REVERT JUMPDEST POP JUMP INVALID TIMESTAMP GASLIMIT POP ORIGIN ADDRESS GASPRICE KECCAK256 PUSH21 0x72616E7366657220616D6F756E7420657863656564 PUSH20 0x20616C6C6F77616E636542455032303A20747261 PUSH15 0x7366657220616D6F756E7420657863 PUSH6 0x656473206261 PUSH13 0x616E636542455032303A206465 PUSH4 0x72656173 PUSH6 0x6420616C6C6F PUSH24 0x616E63652062656C6F77207A65726FA26469706673582212 KECCAK256 0xB7 CALLDATACOPY 0xDB ORIGIN DUP10 BASEFEE CALLVALUE 0xB1 PC SWAP6 0xA9 BYTE 0xE2 SWAP11 0x5E 0xB3 0xD8 0xBD TIMESTAMP 0x4D DUP7 0xD5 0x24 0xE4 SUB 0x4B 0xBC 0x5D CALL 0x4B LOG1 SELFBALANCE PUSH5 0x736F6C6343 STOP ADDMOD SMOD STOP CALLER "
				},
				"gasEstimates": {
					"creation": {
						"codeDepositCost": "1131400",
						"executionCost": "infinite",
						"totalCost": "infinite"
					},
					"external": {
						"allowance(address,address)": "infinite",
						"approve(address,uint256)": "infinite",
						"balanceOf(address)": "2930",
						"decreaseAllowance(address,uint256)": "infinite",
						"increaseAllowance(address,uint256)": "infinite",
						"isOwner()": "2553",
						"owner()": "2522",
						"renounceOwnership()": "30440",
						"totalSupply()": "2460",
						"transfer(address,uint256)": "infinite",
						"transferFrom(address,address,uint256)": "infinite",
						"transferOwnership(address)": "30817"
					},
					"internal": {
						"_approve(address,address,uint256)": "infinite",
						"_burn(address,uint256)": "infinite",
						"_burnFrom(address,uint256)": "infinite",
						"_mint(address,uint256)": "infinite",
						"_transfer(address,address,uint256)": "infinite"
					}
				},
				"methodIdentifiers": {
					"allowance(address,address)": "dd62ed3e",
					"approve(address,uint256)": "095ea7b3",
					"balanceOf(address)": "70a08231",
					"decreaseAllowance(address,uint256)": "a457c2d7",
					"increaseAllowance(address,uint256)": "39509351",
					"isOwner()": "8f32d59b",
					"owner()": "8da5cb5b",
					"renounceOwnership()": "715018a6",
					"totalSupply()": "18160ddd",
					"transfer(address,uint256)": "a9059cbb",
					"transferFrom(address,address,uint256)": "23b872dd",
					"transferOwnership(address)": "f2fde38b"
				}
			},
			"userdoc": {
				"kind": "user",
				"methods": {},
				"version": 1
			}
		}
	}
}