{
	"marketplace.sol": {
		"marketplace": {
			"abi": [
				{
					"inputs": [],
					"stateMutability": "payable",
					"type": "constructor"
				},
				{
					"anonymous": false,
					"inputs": [
						{
							"indexed": true,
							"internalType": "address",
							"name": "previousOwner",
							"type": "address"
						},
						{
							"indexed": true,
							"internalType": "address",
							"name": "newOwner",
							"type": "address"
						}
					],
					"name": "OwnershipTransferred",
					"type": "event"
				},
				{
					"anonymous": false,
					"inputs": [],
					"name": "Pause",
					"type": "event"
				},
				{
					"anonymous": false,
					"inputs": [],
					"name": "Unpause",
					"type": "event"
				},
				{
					"anonymous": false,
					"inputs": [
						{
							"indexed": false,
							"internalType": "address",
							"name": "_LiquidPool",
							"type": "address"
						}
					],
					"name": "changeLiquidPool",
					"type": "event"
				},
				{
					"anonymous": false,
					"inputs": [
						{
							"indexed": false,
							"internalType": "uint256",
							"name": "_MinBnB",
							"type": "uint256"
						}
					],
					"name": "changeMinBnB",
					"type": "event"
				},
				{
					"anonymous": false,
					"inputs": [
						{
							"indexed": false,
							"internalType": "address",
							"name": "_ShoseNFTContract",
							"type": "address"
						}
					],
					"name": "changeShoseNFTContract",
					"type": "event"
				},
				{
					"anonymous": false,
					"inputs": [
						{
							"indexed": false,
							"internalType": "address",
							"name": "_Treasury",
							"type": "address"
						}
					],
					"name": "changeTreasury",
					"type": "event"
				},
				{
					"anonymous": false,
					"inputs": [
						{
							"indexed": false,
							"internalType": "address",
							"name": "_VIMContract",
							"type": "address"
						}
					],
					"name": "changeVIMContract",
					"type": "event"
				},
				{
					"anonymous": false,
					"inputs": [
						{
							"indexed": false,
							"internalType": "uint256",
							"name": "tokenId",
							"type": "uint256"
						}
					],
					"name": "eventBuyVicShose",
					"type": "event"
				},
				{
					"anonymous": false,
					"inputs": [
						{
							"indexed": false,
							"internalType": "uint256",
							"name": "tokenId",
							"type": "uint256"
						}
					],
					"name": "eventCancelSellVicShose",
					"type": "event"
				},
				{
					"anonymous": false,
					"inputs": [
						{
							"indexed": false,
							"internalType": "uint256",
							"name": "tokenId",
							"type": "uint256"
						},
						{
							"indexed": false,
							"internalType": "uint256",
							"name": "price",
							"type": "uint256"
						}
					],
					"name": "eventSellVicShose",
					"type": "event"
				},
				{
					"anonymous": false,
					"inputs": [
						{
							"indexed": false,
							"internalType": "address",
							"name": "to",
							"type": "address"
						},
						{
							"indexed": false,
							"internalType": "uint256",
							"name": "tokenId",
							"type": "uint256"
						}
					],
					"name": "eventtransferVicShose",
					"type": "event"
				},
				{
					"inputs": [
						{
							"internalType": "uint256",
							"name": "tokenId",
							"type": "uint256"
						}
					],
					"name": "BuyVicShose",
					"outputs": [],
					"stateMutability": "nonpayable",
					"type": "function"
				},
				{
					"inputs": [
						{
							"internalType": "uint256",
							"name": "tokenId",
							"type": "uint256"
						}
					],
					"name": "CancelSellVicShose",
					"outputs": [],
					"stateMutability": "nonpayable",
					"type": "function"
				},
				{
					"inputs": [],
					"name": "LiquidPool",
					"outputs": [
						{
							"internalType": "address",
							"name": "",
							"type": "address"
						}
					],
					"stateMutability": "view",
					"type": "function"
				},
				{
					"inputs": [],
					"name": "MinBnB",
					"outputs": [
						{
							"internalType": "uint256",
							"name": "",
							"type": "uint256"
						}
					],
					"stateMutability": "view",
					"type": "function"
				},
				{
					"inputs": [],
					"name": "Pool2",
					"outputs": [
						{
							"internalType": "address",
							"name": "",
							"type": "address"
						}
					],
					"stateMutability": "view",
					"type": "function"
				},
				{
					"inputs": [
						{
							"internalType": "uint256",
							"name": "tokenId",
							"type": "uint256"
						},
						{
							"internalType": "uint256",
							"name": "price",
							"type": "uint256"
						}
					],
					"name": "SellVicShose",
					"outputs": [],
					"stateMutability": "nonpayable",
					"type": "function"
				},
				{
					"inputs": [],
					"name": "ShoseNFTContract",
					"outputs": [
						{
							"internalType": "address",
							"name": "",
							"type": "address"
						}
					],
					"stateMutability": "view",
					"type": "function"
				},
				{
					"inputs": [],
					"name": "Treasury",
					"outputs": [
						{
							"internalType": "address",
							"name": "",
							"type": "address"
						}
					],
					"stateMutability": "view",
					"type": "function"
				},
				{
					"inputs": [],
					"name": "VIMContract",
					"outputs": [
						{
							"internalType": "address",
							"name": "",
							"type": "address"
						}
					],
					"stateMutability": "view",
					"type": "function"
				},
				{
					"inputs": [],
					"name": "WBNBContract",
					"outputs": [
						{
							"internalType": "address",
							"name": "",
							"type": "address"
						}
					],
					"stateMutability": "view",
					"type": "function"
				},
				{
					"inputs": [
						{
							"internalType": "uint256",
							"name": "tokenId",
							"type": "uint256"
						}
					],
					"name": "checkShoseTranfer",
					"outputs": [
						{
							"internalType": "address",
							"name": "",
							"type": "address"
						}
					],
					"stateMutability": "view",
					"type": "function"
				},
				{
					"inputs": [],
					"name": "getBalanceBNB",
					"outputs": [
						{
							"internalType": "uint256",
							"name": "",
							"type": "uint256"
						}
					],
					"stateMutability": "view",
					"type": "function"
				},
				{
					"inputs": [
						{
							"internalType": "address",
							"name": "token",
							"type": "address"
						}
					],
					"name": "getBalanceToken",
					"outputs": [
						{
							"internalType": "uint256",
							"name": "",
							"type": "uint256"
						}
					],
					"stateMutability": "view",
					"type": "function"
				},
				{
					"inputs": [],
					"name": "getMINPrice",
					"outputs": [
						{
							"internalType": "uint256",
							"name": "",
							"type": "uint256"
						}
					],
					"stateMutability": "view",
					"type": "function"
				},
				{
					"inputs": [],
					"name": "getSellingShose",
					"outputs": [
						{
							"internalType": "uint256[]",
							"name": "_tokenID",
							"type": "uint256[]"
						},
						{
							"internalType": "address[]",
							"name": "_owner",
							"type": "address[]"
						},
						{
							"internalType": "uint256[]",
							"name": "_Price",
							"type": "uint256[]"
						}
					],
					"stateMutability": "view",
					"type": "function"
				},
				{
					"inputs": [],
					"name": "isOwner",
					"outputs": [
						{
							"internalType": "bool",
							"name": "",
							"type": "bool"
						}
					],
					"stateMutability": "view",
					"type": "function"
				},
				{
					"inputs": [],
					"name": "owner",
					"outputs": [
						{
							"internalType": "address",
							"name": "",
							"type": "address"
						}
					],
					"stateMutability": "view",
					"type": "function"
				},
				{
					"inputs": [],
					"name": "pause",
					"outputs": [
						{
							"internalType": "bool",
							"name": "",
							"type": "bool"
						}
					],
					"stateMutability": "nonpayable",
					"type": "function"
				},
				{
					"inputs": [],
					"name": "paused",
					"outputs": [
						{
							"internalType": "bool",
							"name": "",
							"type": "bool"
						}
					],
					"stateMutability": "view",
					"type": "function"
				},
				{
					"inputs": [],
					"name": "renounceOwnership",
					"outputs": [],
					"stateMutability": "nonpayable",
					"type": "function"
				},
				{
					"inputs": [
						{
							"internalType": "uint256",
							"name": "amount",
							"type": "uint256"
						}
					],
					"name": "sentT2Pool2BNB",
					"outputs": [],
					"stateMutability": "nonpayable",
					"type": "function"
				},
				{
					"inputs": [
						{
							"internalType": "address",
							"name": "tokenaddress",
							"type": "address"
						},
						{
							"internalType": "uint256",
							"name": "amount",
							"type": "uint256"
						}
					],
					"name": "sentT2Pool2Token",
					"outputs": [],
					"stateMutability": "nonpayable",
					"type": "function"
				},
				{
					"inputs": [
						{
							"internalType": "address",
							"name": "_LiquidPool",
							"type": "address"
						}
					],
					"name": "setLiquidPool",
					"outputs": [],
					"stateMutability": "nonpayable",
					"type": "function"
				},
				{
					"inputs": [
						{
							"internalType": "uint256",
							"name": "_MinBnB",
							"type": "uint256"
						}
					],
					"name": "setMinBNB",
					"outputs": [],
					"stateMutability": "nonpayable",
					"type": "function"
				},
				{
					"inputs": [
						{
							"internalType": "address",
							"name": "_Pool2",
							"type": "address"
						}
					],
					"name": "setPool2",
					"outputs": [],
					"stateMutability": "nonpayable",
					"type": "function"
				},
				{
					"inputs": [
						{
							"internalType": "address",
							"name": "_ShoseNFTContract",
							"type": "address"
						}
					],
					"name": "setShoseNFTContract",
					"outputs": [],
					"stateMutability": "nonpayable",
					"type": "function"
				},
				{
					"inputs": [
						{
							"internalType": "uint256",
							"name": "_Tax",
							"type": "uint256"
						}
					],
					"name": "setTax",
					"outputs": [],
					"stateMutability": "nonpayable",
					"type": "function"
				},
				{
					"inputs": [
						{
							"internalType": "address",
							"name": "_Treasury",
							"type": "address"
						}
					],
					"name": "setTreasury",
					"outputs": [],
					"stateMutability": "nonpayable",
					"type": "function"
				},
				{
					"inputs": [
						{
							"internalType": "address",
							"name": "_VIMContract",
							"type": "address"
						}
					],
					"name": "setVIMContract",
					"outputs": [],
					"stateMutability": "nonpayable",
					"type": "function"
				},
				{
					"inputs": [
						{
							"internalType": "address",
							"name": "newOwner",
							"type": "address"
						}
					],
					"name": "transferOwnership",
					"outputs": [],
					"stateMutability": "nonpayable",
					"type": "function"
				},
				{
					"inputs": [
						{
							"internalType": "address",
							"name": "to",
							"type": "address"
						},
						{
							"internalType": "uint256",
							"name": "tokenId",
							"type": "uint256"
						}
					],
					"name": "transferVicShose",
					"outputs": [],
					"stateMutability": "nonpayable",
					"type": "function"
				},
				{
					"inputs": [],
					"name": "unpause",
					"outputs": [
						{
							"internalType": "bool",
							"name": "",
							"type": "bool"
						}
					],
					"stateMutability": "nonpayable",
					"type": "function"
				},
				{
					"stateMutability": "payable",
					"type": "receive"
				}
			],
			"devdoc": {
				"kind": "dev",
				"methods": {
					"isOwner()": {
						"details": "Returns true if the caller is the current owner."
					},
					"owner()": {
						"details": "Returns the address of the current owner."
					},
					"pause()": {
						"details": "called by the owner to pause, triggers stopped state"
					},
					"renounceOwnership()": {
						"details": "Leaves the contract without owner. It will not be possible to call `onlyOwner` functions anymore. Can only be called by the current owner. NOTE: Renouncing ownership will leave the contract without an owner, thereby removing any functionality that is only available to the owner."
					},
					"transferOwnership(address)": {
						"details": "Transfers ownership of the contract to a new account (`newOwner`). Can only be called by the current owner."
					},
					"unpause()": {
						"details": "called by the owner to unpause, returns to normal state"
					}
				},
				"version": 1
			},
			"evm": {
				"assembly": "    /* \"marketplace.sol\":229:9289  contract marketplace is BEPPausable {... */\n  mstore(0x40, 0x80)\n    /* \"BEPPausable.sol\":293:298  false */\n  0x00\n    /* \"BEPPausable.sol\":272:298  bool public paused = false */\n  dup1\n  exp(0x0100, 0x14)\n  dup2\n  sload\n  dup2\n  0xff\n  mul\n  not\n  and\n  swap1\n  dup4\n  iszero\n  iszero\n  mul\n  or\n  swap1\n  sstore\n  pop\n    /* \"BEPOwnable.sol\":716:733  address msgSender */\n  0x00\n    /* \"BEPOwnable.sol\":736:748  _msgSender() */\n  tag_6\n    /* \"BEPOwnable.sol\":736:746  _msgSender */\n  shl(0x20, tag_7)\n    /* \"BEPOwnable.sol\":736:748  _msgSender() */\n  0x20\n  shr\n  jump\t// in\ntag_6:\n    /* \"BEPOwnable.sol\":716:748  address msgSender = _msgSender() */\n  swap1\n  pop\n    /* \"BEPOwnable.sol\":763:772  msgSender */\n  dup1\n    /* \"BEPOwnable.sol\":754:760  _owner */\n  0x00\n  dup1\n    /* \"BEPOwnable.sol\":754:772  _owner = msgSender */\n  0x0100\n  exp\n  dup2\n  sload\n  dup2\n  0xffffffffffffffffffffffffffffffffffffffff\n  mul\n  not\n  and\n  swap1\n  dup4\n  0xffffffffffffffffffffffffffffffffffffffff\n  and\n  mul\n  or\n  swap1\n  sstore\n  pop\n    /* \"BEPOwnable.sol\":816:825  msgSender */\n  dup1\n    /* \"BEPOwnable.sol\":783:826  OwnershipTransferred(address(0), msgSender) */\n  0xffffffffffffffffffffffffffffffffffffffff\n  and\n    /* \"BEPOwnable.sol\":812:813  0 */\n  0x00\n    /* \"BEPOwnable.sol\":783:826  OwnershipTransferred(address(0), msgSender) */\n  0xffffffffffffffffffffffffffffffffffffffff\n  and\n  0x8be0079c531659141344cd1fd0a4f28419497f9722a3daafe3b4186f6b6457e0\n  mload(0x40)\n  mload(0x40)\n  dup1\n  swap2\n  sub\n  swap1\n  log3\n    /* \"BEPOwnable.sol\":710:831  {... */\n  pop\n    /* \"marketplace.sol\":1218:1260  0xcb3745379275252F4beB5d1094bF1a8A09F368b7 */\n  0xcb3745379275252f4beb5d1094bf1a8a09f368b7\n    /* \"marketplace.sol\":1207:1215  Treasury */\n  0x01\n  0x00\n    /* \"marketplace.sol\":1207:1260  Treasury = 0xcb3745379275252F4beB5d1094bF1a8A09F368b7 */\n  0x0100\n  exp\n  dup2\n  sload\n  dup2\n  0xffffffffffffffffffffffffffffffffffffffff\n  mul\n  not\n  and\n  swap1\n  dup4\n  0xffffffffffffffffffffffffffffffffffffffff\n  and\n  mul\n  or\n  swap1\n  sstore\n  pop\n    /* \"marketplace.sol\":1283:1325  0xd295cF5D859B9Ed331cdF69c49A81Eff5e1Bee83 */\n  0xd295cf5d859b9ed331cdf69c49a81eff5e1bee83\n    /* \"marketplace.sol\":1270:1280  LiquidPool */\n  0x02\n  0x00\n    /* \"marketplace.sol\":1270:1325  LiquidPool = 0xd295cF5D859B9Ed331cdF69c49A81Eff5e1Bee83 */\n  0x0100\n  exp\n  dup2\n  sload\n  dup2\n  0xffffffffffffffffffffffffffffffffffffffff\n  mul\n  not\n  and\n  swap1\n  dup4\n  0xffffffffffffffffffffffffffffffffffffffff\n  and\n  mul\n  or\n  swap1\n  sstore\n  pop\n    /* \"marketplace.sol\":1354:1396  0xC184af52Ca4E1B1f085aA8236Ff8508F52dc6eA7 */\n  0xc184af52ca4e1b1f085aa8236ff8508f52dc6ea7\n    /* \"marketplace.sol\":1335:1351  ShoseNFTContract */\n  0x03\n  0x00\n    /* \"marketplace.sol\":1335:1396  ShoseNFTContract = 0xC184af52Ca4E1B1f085aA8236Ff8508F52dc6eA7 */\n  0x0100\n  exp\n  dup2\n  sload\n  dup2\n  0xffffffffffffffffffffffffffffffffffffffff\n  mul\n  not\n  and\n  swap1\n  dup4\n  0xffffffffffffffffffffffffffffffffffffffff\n  and\n  mul\n  or\n  swap1\n  sstore\n  pop\n    /* \"marketplace.sol\":1420:1462  0x5bcd91C734d665Fe426A5D7156f2aD7d37b76e30 */\n  0x5bcd91c734d665fe426a5d7156f2ad7d37b76e30\n    /* \"marketplace.sol\":1406:1417  VIMContract */\n  0x04\n  0x00\n    /* \"marketplace.sol\":1406:1462  VIMContract = 0x5bcd91C734d665Fe426A5D7156f2aD7d37b76e30 */\n  0x0100\n  exp\n  dup2\n  sload\n  dup2\n  0xffffffffffffffffffffffffffffffffffffffff\n  mul\n  not\n  and\n  swap1\n  dup4\n  0xffffffffffffffffffffffffffffffffffffffff\n  and\n  mul\n  or\n  swap1\n  sstore\n  pop\n    /* \"marketplace.sol\":1487:1529  0xbb4CdB9CBd36B01bD1cBaEBF2De08d9173bc095c */\n  0xbb4cdb9cbd36b01bd1cbaebf2de08d9173bc095c\n    /* \"marketplace.sol\":1472:1484  WBNBContract */\n  0x05\n  0x00\n    /* \"marketplace.sol\":1472:1529  WBNBContract = 0xbb4CdB9CBd36B01bD1cBaEBF2De08d9173bc095c */\n  0x0100\n  exp\n  dup2\n  sload\n  dup2\n  0xffffffffffffffffffffffffffffffffffffffff\n  mul\n  not\n  and\n  swap1\n  dup4\n  0xffffffffffffffffffffffffffffffffffffffff\n  and\n  mul\n  or\n  swap1\n  sstore\n  pop\n    /* \"marketplace.sol\":1547:1589  0xfA0E47A2d6a58b9fd7Ca1d4bFAADd11E8811824B */\n  0xfa0e47a2d6a58b9fd7ca1d4bfaadd11e8811824b\n    /* \"marketplace.sol\":1539:1544  Pool2 */\n  0x08\n  0x00\n    /* \"marketplace.sol\":1539:1589  Pool2 = 0xfA0E47A2d6a58b9fd7Ca1d4bFAADd11E8811824B */\n  0x0100\n  exp\n  dup2\n  sload\n  dup2\n  0xffffffffffffffffffffffffffffffffffffffff\n  mul\n  not\n  and\n  swap1\n  dup4\n  0xffffffffffffffffffffffffffffffffffffffff\n  and\n  mul\n  or\n  swap1\n  sstore\n  pop\n    /* \"marketplace.sol\":1608:1609  6 */\n  0x06\n    /* \"marketplace.sol\":1599:1605  MinBnB */\n  dup1\n    /* \"marketplace.sol\":1599:1609  MinBnB = 6 */\n  dup2\n  swap1\n  sstore\n  pop\n    /* \"marketplace.sol\":1625:1626  5 */\n  0x05\n    /* \"marketplace.sol\":1619:1622  tax */\n  0x07\n    /* \"marketplace.sol\":1619:1626  tax = 5 */\n  dup2\n  swap1\n  sstore\n  pop\n    /* \"marketplace.sol\":229:9289  contract marketplace is BEPPausable {... */\n  jump(tag_9)\n    /* \"BEPContext.sol\":760:859  function _msgSender() internal view returns (address payable) {... */\ntag_7:\n    /* \"BEPContext.sol\":805:820  address payable */\n  0x00\n    /* \"BEPContext.sol\":843:853  msg.sender */\n  caller\n    /* \"BEPContext.sol\":828:854  return payable(msg.sender) */\n  swap1\n  pop\n    /* \"BEPContext.sol\":760:859  function _msgSender() internal view returns (address payable) {... */\n  swap1\n  jump\t// out\n    /* \"marketplace.sol\":229:9289  contract marketplace is BEPPausable {... */\ntag_9:\n  dataSize(sub_0)\n  dup1\n  dataOffset(sub_0)\n  0x00\n  codecopy\n  0x00\n  return\nstop\n\nsub_0: assembly {\n        /* \"marketplace.sol\":229:9289  contract marketplace is BEPPausable {... */\n      mstore(0x40, 0x80)\n      jumpi(tag_1, lt(calldatasize, 0x04))\n      shr(0xe0, calldataload(0x00))\n      dup1\n      0x8cef6437\n      gt\n      tag_35\n      jumpi\n      dup1\n      0xbcfcba76\n      gt\n      tag_36\n      jumpi\n      dup1\n      0xde281e28\n      gt\n      tag_37\n      jumpi\n      dup1\n      0xde281e28\n      eq\n      tag_31\n      jumpi\n      dup1\n      0xea156f44\n      eq\n      tag_32\n      jumpi\n      dup1\n      0xf0f44260\n      eq\n      tag_33\n      jumpi\n      dup1\n      0xf2fde38b\n      eq\n      tag_34\n      jumpi\n      jump(tag_2)\n    tag_37:\n      dup1\n      0xbcfcba76\n      eq\n      tag_27\n      jumpi\n      dup1\n      0xcc24c800\n      eq\n      tag_28\n      jumpi\n      dup1\n      0xd1f19989\n      eq\n      tag_29\n      jumpi\n      dup1\n      0xd8882779\n      eq\n      tag_30\n      jumpi\n      jump(tag_2)\n    tag_36:\n      dup1\n      0xa888a93a\n      gt\n      tag_38\n      jumpi\n      dup1\n      0xa888a93a\n      eq\n      tag_23\n      jumpi\n      dup1\n      0xac4b3b0a\n      eq\n      tag_24\n      jumpi\n      dup1\n      0xb5620229\n      eq\n      tag_25\n      jumpi\n      dup1\n      0xbc127127\n      eq\n      tag_26\n      jumpi\n      jump(tag_2)\n    tag_38:\n      dup1\n      0x8cef6437\n      eq\n      tag_19\n      jumpi\n      dup1\n      0x8da5cb5b\n      eq\n      tag_20\n      jumpi\n      dup1\n      0x8f32d59b\n      eq\n      tag_21\n      jumpi\n      dup1\n      0x99bc1bfb\n      eq\n      tag_22\n      jumpi\n      jump(tag_2)\n    tag_35:\n      dup1\n      0x563df32f\n      gt\n      tag_39\n      jumpi\n      dup1\n      0x715018a6\n      gt\n      tag_40\n      jumpi\n      dup1\n      0x715018a6\n      eq\n      tag_15\n      jumpi\n      dup1\n      0x7880e606\n      eq\n      tag_16\n      jumpi\n      dup1\n      0x83d58215\n      eq\n      tag_17\n      jumpi\n      dup1\n      0x8456cb59\n      eq\n      tag_18\n      jumpi\n      jump(tag_2)\n    tag_40:\n      dup1\n      0x563df32f\n      eq\n      tag_11\n      jumpi\n      dup1\n      0x59464217\n      eq\n      tag_12\n      jumpi\n      dup1\n      0x5c975abb\n      eq\n      tag_13\n      jumpi\n      dup1\n      0x5c9e0d10\n      eq\n      tag_14\n      jumpi\n      jump(tag_2)\n    tag_39:\n      dup1\n      0x3f4ba83a\n      gt\n      tag_41\n      jumpi\n      dup1\n      0x3f4ba83a\n      eq\n      tag_7\n      jumpi\n      dup1\n      0x458a635a\n      eq\n      tag_8\n      jumpi\n      dup1\n      0x48eca45c\n      eq\n      tag_9\n      jumpi\n      dup1\n      0x4dd79f10\n      eq\n      tag_10\n      jumpi\n      jump(tag_2)\n    tag_41:\n      dup1\n      0x0ff32839\n      eq\n      tag_3\n      jumpi\n      dup1\n      0x1ecff38e\n      eq\n      tag_4\n      jumpi\n      dup1\n      0x2e5bb6ff\n      eq\n      tag_5\n      jumpi\n      dup1\n      0x36c3b4e2\n      eq\n      tag_6\n      jumpi\n      jump(tag_2)\n    tag_1:\n      jumpi(tag_2, calldatasize)\n      stop\n    tag_2:\n      0x00\n      dup1\n      revert\n        /* \"marketplace.sol\":401:428  address public WBNBContract */\n    tag_3:\n      callvalue\n      dup1\n      iszero\n      tag_44\n      jumpi\n      0x00\n      dup1\n      revert\n    tag_44:\n      pop\n      tag_45\n      tag_46\n      jump\t// in\n    tag_45:\n      mload(0x40)\n      tag_47\n      swap2\n      swap1\n      tag_48\n      jump\t// in\n    tag_47:\n      mload(0x40)\n      dup1\n      swap2\n      sub\n      swap1\n      return\n        /* \"marketplace.sol\":2213:2366  function setVIMContract(address _VIMContract) external onlyOwner {... */\n    tag_4:\n      callvalue\n      dup1\n      iszero\n      tag_49\n      jumpi\n      0x00\n      dup1\n      revert\n    tag_49:\n      pop\n      tag_50\n      0x04\n      dup1\n      calldatasize\n      sub\n      dup2\n      add\n      swap1\n      tag_51\n      swap2\n      swap1\n      tag_52\n      jump\t// in\n    tag_51:\n      tag_53\n      jump\t// in\n    tag_50:\n      stop\n        /* \"marketplace.sol\":2502:2604  function setTax(uint256 _Tax) external onlyOwner {... */\n    tag_5:\n      callvalue\n      dup1\n      iszero\n      tag_54\n      jumpi\n      0x00\n      dup1\n      revert\n    tag_54:\n      pop\n      tag_55\n      0x04\n      dup1\n      calldatasize\n      sub\n      dup2\n      add\n      swap1\n      tag_56\n      swap2\n      swap1\n      tag_57\n      jump\t// in\n    tag_56:\n      tag_58\n      jump\t// in\n    tag_55:\n      stop\n        /* \"marketplace.sol\":301:326  address public LiquidPool */\n    tag_6:\n      callvalue\n      dup1\n      iszero\n      tag_59\n      jumpi\n      0x00\n      dup1\n      revert\n    tag_59:\n      pop\n      tag_60\n      tag_61\n      jump\t// in\n    tag_60:\n      mload(0x40)\n      tag_62\n      swap2\n      swap1\n      tag_48\n      jump\t// in\n    tag_62:\n      mload(0x40)\n      dup1\n      swap2\n      sub\n      swap1\n      return\n        /* \"BEPPausable.sol\":870:994  function unpause() public onlyOwner whenPaused returns (bool) {... */\n    tag_7:\n      callvalue\n      dup1\n      iszero\n      tag_63\n      jumpi\n      0x00\n      dup1\n      revert\n    tag_63:\n      pop\n      tag_64\n      tag_65\n      jump\t// in\n    tag_64:\n      mload(0x40)\n      tag_66\n      swap2\n      swap1\n      tag_67\n      jump\t// in\n    tag_66:\n      mload(0x40)\n      dup1\n      swap2\n      sub\n      swap1\n      return\n        /* \"marketplace.sol\":2024:2207  function setShoseNFTContract(address _ShoseNFTContract) external onlyOwner {... */\n    tag_8:\n      callvalue\n      dup1\n      iszero\n      tag_68\n      jumpi\n      0x00\n      dup1\n      revert\n    tag_68:\n      pop\n      tag_69\n      0x04\n      dup1\n      calldatasize\n      sub\n      dup2\n      add\n      swap1\n      tag_70\n      swap2\n      swap1\n      tag_52\n      jump\t// in\n    tag_70:\n      tag_71\n      jump\t// in\n    tag_69:\n      stop\n        /* \"marketplace.sol\":8455:8595  function getBalanceToken(address token) public view virtual returns (uint256) {... */\n    tag_9:\n      callvalue\n      dup1\n      iszero\n      tag_72\n      jumpi\n      0x00\n      dup1\n      revert\n    tag_72:\n      pop\n      tag_73\n      0x04\n      dup1\n      calldatasize\n      sub\n      dup2\n      add\n      swap1\n      tag_74\n      swap2\n      swap1\n      tag_52\n      jump\t// in\n    tag_74:\n      tag_75\n      jump\t// in\n    tag_73:\n      mload(0x40)\n      tag_76\n      swap2\n      swap1\n      tag_77\n      jump\t// in\n    tag_76:\n      mload(0x40)\n      dup1\n      swap2\n      sub\n      swap1\n      return\n        /* \"marketplace.sol\":4191:4559  function CancelSellVicShose(uint256 tokenId) external whenNotPaused {... */\n    tag_10:\n      callvalue\n      dup1\n      iszero\n      tag_78\n      jumpi\n      0x00\n      dup1\n      revert\n    tag_78:\n      pop\n      tag_79\n      0x04\n      dup1\n      calldatasize\n      sub\n      dup2\n      add\n      swap1\n      tag_80\n      swap2\n      swap1\n      tag_57\n      jump\t// in\n    tag_80:\n      tag_81\n      jump\t// in\n    tag_79:\n      stop\n        /* \"marketplace.sol\":272:295  address public Treasury */\n    tag_11:\n      callvalue\n      dup1\n      iszero\n      tag_82\n      jumpi\n      0x00\n      dup1\n      revert\n    tag_82:\n      pop\n      tag_83\n      tag_84\n      jump\t// in\n    tag_83:\n      mload(0x40)\n      tag_85\n      swap2\n      swap1\n      tag_48\n      jump\t// in\n    tag_85:\n      mload(0x40)\n      dup1\n      swap2\n      sub\n      swap1\n      return\n        /* \"marketplace.sol\":3494:3621  function checkShoseTranfer(uint256 tokenId) public view virtual returns (address) {... */\n    tag_12:\n      callvalue\n      dup1\n      iszero\n      tag_86\n      jumpi\n      0x00\n      dup1\n      revert\n    tag_86:\n      pop\n      tag_87\n      0x04\n      dup1\n      calldatasize\n      sub\n      dup2\n      add\n      swap1\n      tag_88\n      swap2\n      swap1\n      tag_57\n      jump\t// in\n    tag_88:\n      tag_89\n      jump\t// in\n    tag_87:\n      mload(0x40)\n      tag_90\n      swap2\n      swap1\n      tag_48\n      jump\t// in\n    tag_90:\n      mload(0x40)\n      dup1\n      swap2\n      sub\n      swap1\n      return\n        /* \"BEPPausable.sol\":272:298  bool public paused = false */\n    tag_13:\n      callvalue\n      dup1\n      iszero\n      tag_91\n      jumpi\n      0x00\n      dup1\n      revert\n    tag_91:\n      pop\n      tag_92\n      tag_93\n      jump\t// in\n    tag_92:\n      mload(0x40)\n      tag_94\n      swap2\n      swap1\n      tag_67\n      jump\t// in\n    tag_94:\n      mload(0x40)\n      dup1\n      swap2\n      sub\n      swap1\n      return\n        /* \"marketplace.sol\":2958:3489  function transferVicShose(address to,uint256 tokenId) external whenNotPaused {... */\n    tag_14:\n      callvalue\n      dup1\n      iszero\n      tag_95\n      jumpi\n      0x00\n      dup1\n      revert\n    tag_95:\n      pop\n      tag_96\n      0x04\n      dup1\n      calldatasize\n      sub\n      dup2\n      add\n      swap1\n      tag_97\n      swap2\n      swap1\n      tag_98\n      jump\t// in\n    tag_97:\n      tag_99\n      jump\t// in\n    tag_96:\n      stop\n        /* \"BEPOwnable.sol\":1630:1757  function renounceOwnership() public onlyOwner {... */\n    tag_15:\n      callvalue\n      dup1\n      iszero\n      tag_100\n      jumpi\n      0x00\n      dup1\n      revert\n    tag_100:\n      pop\n      tag_101\n      tag_102\n      jump\t// in\n    tag_101:\n      stop\n        /* \"marketplace.sol\":4565:6544  function BuyVicShose(uint256 tokenId) external whenNotPaused {... */\n    tag_16:\n      callvalue\n      dup1\n      iszero\n      tag_103\n      jumpi\n      0x00\n      dup1\n      revert\n    tag_103:\n      pop\n      tag_104\n      0x04\n      dup1\n      calldatasize\n      sub\n      dup2\n      add\n      swap1\n      tag_105\n      swap2\n      swap1\n      tag_57\n      jump\t// in\n    tag_105:\n      tag_106\n      jump\t// in\n    tag_104:\n      stop\n        /* \"marketplace.sol\":3627:4185  function SellVicShose(uint256 tokenId,uint256 price) external whenNotPaused {... */\n    tag_17:\n      callvalue\n      dup1\n      iszero\n      tag_107\n      jumpi\n      0x00\n      dup1\n      revert\n    tag_107:\n      pop\n      tag_108\n      0x04\n      dup1\n      calldatasize\n      sub\n      dup2\n      add\n      swap1\n      tag_109\n      swap2\n      swap1\n      tag_110\n      jump\t// in\n    tag_109:\n      tag_111\n      jump\t// in\n    tag_108:\n      stop\n        /* \"BEPPausable.sol\":666:788  function pause() public onlyOwner whenNotPaused returns (bool) {... */\n    tag_18:\n      callvalue\n      dup1\n      iszero\n      tag_112\n      jumpi\n      0x00\n      dup1\n      revert\n    tag_112:\n      pop\n      tag_113\n      tag_114\n      jump\t// in\n    tag_113:\n      mload(0x40)\n      tag_115\n      swap2\n      swap1\n      tag_67\n      jump\t// in\n    tag_115:\n      mload(0x40)\n      dup1\n      swap2\n      sub\n      swap1\n      return\n        /* \"marketplace.sol\":8600:8895  function sentT2Pool2Token(address tokenaddress, uint256 amount) external onlyOwner {... */\n    tag_19:\n      callvalue\n      dup1\n      iszero\n      tag_116\n      jumpi\n      0x00\n      dup1\n      revert\n    tag_116:\n      pop\n      tag_117\n      0x04\n      dup1\n      calldatasize\n      sub\n      dup2\n      add\n      swap1\n      tag_118\n      swap2\n      swap1\n      tag_98\n      jump\t// in\n    tag_118:\n      tag_119\n      jump\t// in\n    tag_117:\n      stop\n        /* \"BEPOwnable.sol\":899:970  function owner() public view returns (address) {... */\n    tag_20:\n      callvalue\n      dup1\n      iszero\n      tag_120\n      jumpi\n      0x00\n      dup1\n      revert\n    tag_120:\n      pop\n      tag_121\n      tag_122\n      jump\t// in\n    tag_121:\n      mload(0x40)\n      tag_123\n      swap2\n      swap1\n      tag_48\n      jump\t// in\n    tag_123:\n      mload(0x40)\n      dup1\n      swap2\n      sub\n      swap1\n      return\n        /* \"BEPOwnable.sol\":1218:1304  function isOwner() public view returns (bool) {... */\n    tag_21:\n      callvalue\n      dup1\n      iszero\n      tag_124\n      jumpi\n      0x00\n      dup1\n      revert\n    tag_124:\n      pop\n      tag_125\n      tag_126\n      jump\t// in\n    tag_125:\n      mload(0x40)\n      tag_127\n      swap2\n      swap1\n      tag_67\n      jump\t// in\n    tag_127:\n      mload(0x40)\n      dup1\n      swap2\n      sub\n      swap1\n      return\n        /* \"marketplace.sol\":7683:8440  function getSellingShose() external view returns (uint256[] memory _tokenID,address[] memory _owner, uint256[] memory _Price) {... */\n    tag_22:\n      callvalue\n      dup1\n      iszero\n      tag_128\n      jumpi\n      0x00\n      dup1\n      revert\n    tag_128:\n      pop\n      tag_129\n      tag_130\n      jump\t// in\n    tag_129:\n      mload(0x40)\n      tag_131\n      swap4\n      swap3\n      swap2\n      swap1\n      tag_132\n      jump\t// in\n    tag_131:\n      mload(0x40)\n      dup1\n      swap2\n      sub\n      swap1\n      return\n        /* \"marketplace.sol\":1871:2018  function setLiquidPool(address _LiquidPool) external onlyOwner {... */\n    tag_23:\n      callvalue\n      dup1\n      iszero\n      tag_133\n      jumpi\n      0x00\n      dup1\n      revert\n    tag_133:\n      pop\n      tag_134\n      0x04\n      dup1\n      calldatasize\n      sub\n      dup2\n      add\n      swap1\n      tag_135\n      swap2\n      swap1\n      tag_52\n      jump\t// in\n    tag_135:\n      tag_136\n      jump\t// in\n    tag_134:\n      stop\n        /* \"marketplace.sol\":486:506  address public Pool2 */\n    tag_24:\n      callvalue\n      dup1\n      iszero\n      tag_137\n      jumpi\n      0x00\n      dup1\n      revert\n    tag_137:\n      pop\n      tag_138\n      tag_139\n      jump\t// in\n    tag_138:\n      mload(0x40)\n      tag_140\n      swap2\n      swap1\n      tag_48\n      jump\t// in\n    tag_140:\n      mload(0x40)\n      dup1\n      swap2\n      sub\n      swap1\n      return\n        /* \"marketplace.sol\":369:395  address public VIMContract */\n    tag_25:\n      callvalue\n      dup1\n      iszero\n      tag_141\n      jumpi\n      0x00\n      dup1\n      revert\n    tag_141:\n      pop\n      tag_142\n      tag_143\n      jump\t// in\n    tag_142:\n      mload(0x40)\n      tag_144\n      swap2\n      swap1\n      tag_48\n      jump\t// in\n    tag_144:\n      mload(0x40)\n      dup1\n      swap2\n      sub\n      swap1\n      return\n        /* \"marketplace.sol\":8901:9009  function getBalanceBNB() public view virtual returns (uint256) {... */\n    tag_26:\n      callvalue\n      dup1\n      iszero\n      tag_145\n      jumpi\n      0x00\n      dup1\n      revert\n    tag_145:\n      pop\n      tag_146\n      tag_147\n      jump\t// in\n    tag_146:\n      mload(0x40)\n      tag_148\n      swap2\n      swap1\n      tag_77\n      jump\t// in\n    tag_148:\n      mload(0x40)\n      dup1\n      swap2\n      sub\n      swap1\n      return\n        /* \"marketplace.sol\":434:455  uint256 public MinBnB */\n    tag_27:\n      callvalue\n      dup1\n      iszero\n      tag_149\n      jumpi\n      0x00\n      dup1\n      revert\n    tag_149:\n      pop\n      tag_150\n      tag_151\n      jump\t// in\n    tag_150:\n      mload(0x40)\n      tag_152\n      swap2\n      swap1\n      tag_77\n      jump\t// in\n    tag_152:\n      mload(0x40)\n      dup1\n      swap2\n      sub\n      swap1\n      return\n        /* \"marketplace.sol\":1638:1722  function setPool2(address _Pool2) external onlyOwner {... */\n    tag_28:\n      callvalue\n      dup1\n      iszero\n      tag_153\n      jumpi\n      0x00\n      dup1\n      revert\n    tag_153:\n      pop\n      tag_154\n      0x04\n      dup1\n      calldatasize\n      sub\n      dup2\n      add\n      swap1\n      tag_155\n      swap2\n      swap1\n      tag_52\n      jump\t// in\n    tag_155:\n      tag_156\n      jump\t// in\n    tag_154:\n      stop\n        /* \"marketplace.sol\":9014:9248  function sentT2Pool2BNB(uint256 amount) external onlyOwner {... */\n    tag_29:\n      callvalue\n      dup1\n      iszero\n      tag_157\n      jumpi\n      0x00\n      dup1\n      revert\n    tag_157:\n      pop\n      tag_158\n      0x04\n      dup1\n      calldatasize\n      sub\n      dup2\n      add\n      swap1\n      tag_159\n      swap2\n      swap1\n      tag_57\n      jump\t// in\n    tag_159:\n      tag_160\n      jump\t// in\n    tag_158:\n      stop\n        /* \"marketplace.sol\":332:363  address public ShoseNFTContract */\n    tag_30:\n      callvalue\n      dup1\n      iszero\n      tag_161\n      jumpi\n      0x00\n      dup1\n      revert\n    tag_161:\n      pop\n      tag_162\n      tag_163\n      jump\t// in\n    tag_162:\n      mload(0x40)\n      tag_164\n      swap2\n      swap1\n      tag_48\n      jump\t// in\n    tag_164:\n      mload(0x40)\n      dup1\n      swap2\n      sub\n      swap1\n      return\n        /* \"marketplace.sol\":2372:2496  function setMinBNB(uint256  _MinBnB) external onlyOwner {... */\n    tag_31:\n      callvalue\n      dup1\n      iszero\n      tag_165\n      jumpi\n      0x00\n      dup1\n      revert\n    tag_165:\n      pop\n      tag_166\n      0x04\n      dup1\n      calldatasize\n      sub\n      dup2\n      add\n      swap1\n      tag_167\n      swap2\n      swap1\n      tag_57\n      jump\t// in\n    tag_167:\n      tag_168\n      jump\t// in\n    tag_166:\n      stop\n        /* \"marketplace.sol\":2611:2952  function getMINPrice() public view virtual returns (uint256) {... */\n    tag_32:\n      callvalue\n      dup1\n      iszero\n      tag_169\n      jumpi\n      0x00\n      dup1\n      revert\n    tag_169:\n      pop\n      tag_170\n      tag_171\n      jump\t// in\n    tag_170:\n      mload(0x40)\n      tag_172\n      swap2\n      swap1\n      tag_77\n      jump\t// in\n    tag_172:\n      mload(0x40)\n      dup1\n      swap2\n      sub\n      swap1\n      return\n        /* \"marketplace.sol\":1729:1864  function setTreasury(address _Treasury) external onlyOwner {... */\n    tag_33:\n      callvalue\n      dup1\n      iszero\n      tag_173\n      jumpi\n      0x00\n      dup1\n      revert\n    tag_173:\n      pop\n      tag_174\n      0x04\n      dup1\n      calldatasize\n      sub\n      dup2\n      add\n      swap1\n      tag_175\n      swap2\n      swap1\n      tag_52\n      jump\t// in\n    tag_175:\n      tag_176\n      jump\t// in\n    tag_174:\n      stop\n        /* \"BEPOwnable.sol\":1896:1997  function transferOwnership(address newOwner) public onlyOwner {... */\n    tag_34:\n      callvalue\n      dup1\n      iszero\n      tag_177\n      jumpi\n      0x00\n      dup1\n      revert\n    tag_177:\n      pop\n      tag_178\n      0x04\n      dup1\n      calldatasize\n      sub\n      dup2\n      add\n      swap1\n      tag_179\n      swap2\n      swap1\n      tag_52\n      jump\t// in\n    tag_179:\n      tag_180\n      jump\t// in\n    tag_178:\n      stop\n        /* \"marketplace.sol\":401:428  address public WBNBContract */\n    tag_46:\n      0x05\n      0x00\n      swap1\n      sload\n      swap1\n      0x0100\n      exp\n      swap1\n      div\n      0xffffffffffffffffffffffffffffffffffffffff\n      and\n      dup2\n      jump\t// out\n        /* \"marketplace.sol\":2213:2366  function setVIMContract(address _VIMContract) external onlyOwner {... */\n    tag_53:\n        /* \"BEPOwnable.sol\":1085:1094  isOwner() */\n      tag_182\n        /* \"BEPOwnable.sol\":1085:1092  isOwner */\n      tag_126\n        /* \"BEPOwnable.sol\":1085:1094  isOwner() */\n      jump\t// in\n    tag_182:\n        /* \"BEPOwnable.sol\":1077:1131  require(isOwner(), \"Ownable: caller is not the owner\") */\n      tag_183\n      jumpi\n      mload(0x40)\n      0x08c379a000000000000000000000000000000000000000000000000000000000\n      dup2\n      mstore\n      0x04\n      add\n      tag_184\n      swap1\n      tag_185\n      jump\t// in\n    tag_184:\n      mload(0x40)\n      dup1\n      swap2\n      sub\n      swap1\n      revert\n    tag_183:\n        /* \"marketplace.sol\":2302:2314  _VIMContract */\n      dup1\n        /* \"marketplace.sol\":2288:2299  VIMContract */\n      0x04\n      0x00\n        /* \"marketplace.sol\":2288:2314  VIMContract = _VIMContract */\n      0x0100\n      exp\n      dup2\n      sload\n      dup2\n      0xffffffffffffffffffffffffffffffffffffffff\n      mul\n      not\n      and\n      swap1\n      dup4\n      0xffffffffffffffffffffffffffffffffffffffff\n      and\n      mul\n      or\n      swap1\n      sstore\n      pop\n        /* \"marketplace.sol\":2329:2359  changeVIMContract(VIMContract) */\n      0x136742181ff5fc7d13f647a125112ec36500105a024ce2dbbb7f28fa375eebfa\n        /* \"marketplace.sol\":2347:2358  VIMContract */\n      0x04\n      0x00\n      swap1\n      sload\n      swap1\n      0x0100\n      exp\n      swap1\n      div\n      0xffffffffffffffffffffffffffffffffffffffff\n      and\n        /* \"marketplace.sol\":2329:2359  changeVIMContract(VIMContract) */\n      mload(0x40)\n      tag_187\n      swap2\n      swap1\n      tag_48\n      jump\t// in\n    tag_187:\n      mload(0x40)\n      dup1\n      swap2\n      sub\n      swap1\n      log1\n        /* \"marketplace.sol\":2213:2366  function setVIMContract(address _VIMContract) external onlyOwner {... */\n      pop\n      jump\t// out\n        /* \"marketplace.sol\":2502:2604  function setTax(uint256 _Tax) external onlyOwner {... */\n    tag_58:\n        /* \"BEPOwnable.sol\":1085:1094  isOwner() */\n      tag_189\n        /* \"BEPOwnable.sol\":1085:1092  isOwner */\n      tag_126\n        /* \"BEPOwnable.sol\":1085:1094  isOwner() */\n      jump\t// in\n    tag_189:\n        /* \"BEPOwnable.sol\":1077:1131  require(isOwner(), \"Ownable: caller is not the owner\") */\n      tag_190\n      jumpi\n      mload(0x40)\n      0x08c379a000000000000000000000000000000000000000000000000000000000\n      dup2\n      mstore\n      0x04\n      add\n      tag_191\n      swap1\n      tag_185\n      jump\t// in\n    tag_191:\n      mload(0x40)\n      dup1\n      swap2\n      sub\n      swap1\n      revert\n    tag_190:\n        /* \"marketplace.sol\":2574:2576  50 */\n      0x32\n        /* \"marketplace.sol\":2569:2573  _Tax */\n      dup2\n        /* \"marketplace.sol\":2569:2576  _Tax<50 */\n      lt\n        /* \"marketplace.sol\":2561:2577  require(_Tax<50) */\n      tag_193\n      jumpi\n      0x00\n      dup1\n      revert\n    tag_193:\n        /* \"marketplace.sol\":2593:2597  _Tax */\n      dup1\n        /* \"marketplace.sol\":2587:2590  tax */\n      0x07\n        /* \"marketplace.sol\":2587:2597  tax = _Tax */\n      dup2\n      swap1\n      sstore\n      pop\n        /* \"marketplace.sol\":2502:2604  function setTax(uint256 _Tax) external onlyOwner {... */\n      pop\n      jump\t// out\n        /* \"marketplace.sol\":301:326  address public LiquidPool */\n    tag_61:\n      0x02\n      0x00\n      swap1\n      sload\n      swap1\n      0x0100\n      exp\n      swap1\n      div\n      0xffffffffffffffffffffffffffffffffffffffff\n      and\n      dup2\n      jump\t// out\n        /* \"BEPPausable.sol\":870:994  function unpause() public onlyOwner whenPaused returns (bool) {... */\n    tag_65:\n        /* \"BEPPausable.sol\":926:930  bool */\n      0x00\n        /* \"BEPOwnable.sol\":1085:1094  isOwner() */\n      tag_195\n        /* \"BEPOwnable.sol\":1085:1092  isOwner */\n      tag_126\n        /* \"BEPOwnable.sol\":1085:1094  isOwner() */\n      jump\t// in\n    tag_195:\n        /* \"BEPOwnable.sol\":1077:1131  require(isOwner(), \"Ownable: caller is not the owner\") */\n      tag_196\n      jumpi\n      mload(0x40)\n      0x08c379a000000000000000000000000000000000000000000000000000000000\n      dup2\n      mstore\n      0x04\n      add\n      tag_197\n      swap1\n      tag_185\n      jump\t// in\n    tag_197:\n      mload(0x40)\n      dup1\n      swap2\n      sub\n      swap1\n      revert\n    tag_196:\n        /* \"BEPPausable.sol\":568:574  paused */\n      0x00\n      0x14\n      swap1\n      sload\n      swap1\n      0x0100\n      exp\n      swap1\n      div\n      0xff\n      and\n        /* \"BEPPausable.sol\":560:575  require(paused) */\n      tag_199\n      jumpi\n      0x00\n      dup1\n      revert\n    tag_199:\n        /* \"BEPPausable.sol\":947:952  false */\n      0x00\n        /* \"BEPPausable.sol\":938:944  paused */\n      dup1\n      0x14\n        /* \"BEPPausable.sol\":938:952  paused = false */\n      0x0100\n      exp\n      dup2\n      sload\n      dup2\n      0xff\n      mul\n      not\n      and\n      swap1\n      dup4\n      iszero\n      iszero\n      mul\n      or\n      swap1\n      sstore\n      pop\n        /* \"BEPPausable.sol\":963:972  Unpause() */\n      0x7805862f689e2f13df9f062ff482ad3ad112aca9e0847911ed832e158c525b33\n      mload(0x40)\n      mload(0x40)\n      dup1\n      swap2\n      sub\n      swap1\n      log1\n        /* \"BEPPausable.sol\":985:989  true */\n      0x01\n        /* \"BEPPausable.sol\":978:989  return true */\n      swap1\n      pop\n        /* \"BEPPausable.sol\":870:994  function unpause() public onlyOwner whenPaused returns (bool) {... */\n      swap1\n      jump\t// out\n        /* \"marketplace.sol\":2024:2207  function setShoseNFTContract(address _ShoseNFTContract) external onlyOwner {... */\n    tag_71:\n        /* \"BEPOwnable.sol\":1085:1094  isOwner() */\n      tag_202\n        /* \"BEPOwnable.sol\":1085:1092  isOwner */\n      tag_126\n        /* \"BEPOwnable.sol\":1085:1094  isOwner() */\n      jump\t// in\n    tag_202:\n        /* \"BEPOwnable.sol\":1077:1131  require(isOwner(), \"Ownable: caller is not the owner\") */\n      tag_203\n      jumpi\n      mload(0x40)\n      0x08c379a000000000000000000000000000000000000000000000000000000000\n      dup2\n      mstore\n      0x04\n      add\n      tag_204\n      swap1\n      tag_185\n      jump\t// in\n    tag_204:\n      mload(0x40)\n      dup1\n      swap2\n      sub\n      swap1\n      revert\n    tag_203:\n        /* \"marketplace.sol\":2128:2145  _ShoseNFTContract */\n      dup1\n        /* \"marketplace.sol\":2109:2125  ShoseNFTContract */\n      0x03\n      0x00\n        /* \"marketplace.sol\":2109:2145  ShoseNFTContract = _ShoseNFTContract */\n      0x0100\n      exp\n      dup2\n      sload\n      dup2\n      0xffffffffffffffffffffffffffffffffffffffff\n      mul\n      not\n      and\n      swap1\n      dup4\n      0xffffffffffffffffffffffffffffffffffffffff\n      and\n      mul\n      or\n      swap1\n      sstore\n      pop\n        /* \"marketplace.sol\":2160:2200  changeShoseNFTContract(ShoseNFTContract) */\n      0xb01e01d90e1da4079495db07c84276ef34a0ea39cd9be9c3844874eb35616e44\n        /* \"marketplace.sol\":2183:2199  ShoseNFTContract */\n      0x03\n      0x00\n      swap1\n      sload\n      swap1\n      0x0100\n      exp\n      swap1\n      div\n      0xffffffffffffffffffffffffffffffffffffffff\n      and\n        /* \"marketplace.sol\":2160:2200  changeShoseNFTContract(ShoseNFTContract) */\n      mload(0x40)\n      tag_206\n      swap2\n      swap1\n      tag_48\n      jump\t// in\n    tag_206:\n      mload(0x40)\n      dup1\n      swap2\n      sub\n      swap1\n      log1\n        /* \"marketplace.sol\":2024:2207  function setShoseNFTContract(address _ShoseNFTContract) external onlyOwner {... */\n      pop\n      jump\t// out\n        /* \"marketplace.sol\":8455:8595  function getBalanceToken(address token) public view virtual returns (uint256) {... */\n    tag_75:\n        /* \"marketplace.sol\":8524:8531  uint256 */\n      0x00\n        /* \"marketplace.sol\":8557:8562  token */\n      dup2\n        /* \"marketplace.sol\":8550:8573  IBEP20(token).balanceOf */\n      0xffffffffffffffffffffffffffffffffffffffff\n      and\n      0x70a08231\n        /* \"marketplace.sol\":8582:8586  this */\n      address\n        /* \"marketplace.sol\":8550:8588  IBEP20(token).balanceOf(address(this)) */\n      mload(0x40)\n      dup3\n      0xffffffff\n      and\n      0xe0\n      shl\n      dup2\n      mstore\n      0x04\n      add\n      tag_208\n      swap2\n      swap1\n      tag_48\n      jump\t// in\n    tag_208:\n      0x20\n      mload(0x40)\n      dup1\n      dup4\n      sub\n      dup2\n      dup7\n      dup1\n      extcodesize\n      iszero\n      dup1\n      iszero\n      tag_209\n      jumpi\n      0x00\n      dup1\n      revert\n    tag_209:\n      pop\n      gas\n      staticcall\n      iszero\n      dup1\n      iszero\n      tag_211\n      jumpi\n      returndatasize\n      0x00\n      dup1\n      returndatacopy\n      revert(0x00, returndatasize)\n    tag_211:\n      pop\n      pop\n      pop\n      pop\n      mload(0x40)\n      returndatasize\n      not(0x1f)\n      0x1f\n      dup3\n      add\n      and\n      dup3\n      add\n      dup1\n      0x40\n      mstore\n      pop\n      dup2\n      add\n      swap1\n      tag_212\n      swap2\n      swap1\n      tag_213\n      jump\t// in\n    tag_212:\n        /* \"marketplace.sol\":8543:8588  return IBEP20(token).balanceOf(address(this)) */\n      swap1\n      pop\n        /* \"marketplace.sol\":8455:8595  function getBalanceToken(address token) public view virtual returns (uint256) {... */\n      swap2\n      swap1\n      pop\n      jump\t// out\n        /* \"marketplace.sol\":4191:4559  function CancelSellVicShose(uint256 tokenId) external whenNotPaused {... */\n    tag_81:\n        /* \"BEPPausable.sol\":424:430  paused */\n      0x00\n      0x14\n      swap1\n      sload\n      swap1\n      0x0100\n      exp\n      swap1\n      div\n      0xff\n      and\n        /* \"BEPPausable.sol\":423:430  !paused */\n      iszero\n        /* \"BEPPausable.sol\":415:431  require(!paused) */\n      tag_215\n      jumpi\n      0x00\n      dup1\n      revert\n    tag_215:\n        /* \"marketplace.sol\":4298:4299  0 */\n      0x00\n        /* \"marketplace.sol\":4277:4286  shoseSell */\n      0x0a\n        /* \"marketplace.sol\":4277:4295  shoseSell[tokenId] */\n      0x00\n        /* \"marketplace.sol\":4287:4294  tokenId */\n      dup4\n        /* \"marketplace.sol\":4277:4295  shoseSell[tokenId] */\n      dup2\n      mstore\n      0x20\n      add\n      swap1\n      dup2\n      mstore\n      0x20\n      add\n      0x00\n      keccak256\n      sload\n        /* \"marketplace.sol\":4277:4299  shoseSell[tokenId] > 0 */\n      gt\n        /* \"marketplace.sol\":4269:4323  require(shoseSell[tokenId] > 0,\"VicShose not in sell\") */\n      tag_217\n      jumpi\n      mload(0x40)\n      0x08c379a000000000000000000000000000000000000000000000000000000000\n      dup2\n      mstore\n      0x04\n      add\n      tag_218\n      swap1\n      tag_219\n      jump\t// in\n    tag_218:\n      mload(0x40)\n      dup1\n      swap2\n      sub\n      swap1\n      revert\n    tag_217:\n        /* \"marketplace.sol\":4333:4347  address seller */\n      0x00\n        /* \"marketplace.sol\":4350:4360  msg.sender */\n      caller\n        /* \"marketplace.sol\":4333:4360  address seller = msg.sender */\n      swap1\n      pop\n        /* \"marketplace.sol\":4434:4440  seller */\n      dup1\n        /* \"marketplace.sol\":4378:4440  IERC721Enumerable(ShoseNFTContract).ownerOf(tokenId) == seller */\n      0xffffffffffffffffffffffffffffffffffffffff\n      and\n        /* \"marketplace.sol\":4396:4412  ShoseNFTContract */\n      0x03\n      0x00\n      swap1\n      sload\n      swap1\n      0x0100\n      exp\n      swap1\n      div\n      0xffffffffffffffffffffffffffffffffffffffff\n      and\n        /* \"marketplace.sol\":4378:4421  IERC721Enumerable(ShoseNFTContract).ownerOf */\n      0xffffffffffffffffffffffffffffffffffffffff\n      and\n      0x6352211e\n        /* \"marketplace.sol\":4422:4429  tokenId */\n      dup5\n        /* \"marketplace.sol\":4378:4430  IERC721Enumerable(ShoseNFTContract).ownerOf(tokenId) */\n      mload(0x40)\n      dup3\n      0xffffffff\n      and\n      0xe0\n      shl\n      dup2\n      mstore\n      0x04\n      add\n      tag_220\n      swap2\n      swap1\n      tag_77\n      jump\t// in\n    tag_220:\n      0x20\n      mload(0x40)\n      dup1\n      dup4\n      sub\n      dup2\n      dup7\n      dup1\n      extcodesize\n      iszero\n      dup1\n      iszero\n      tag_221\n      jumpi\n      0x00\n      dup1\n      revert\n    tag_221:\n      pop\n      gas\n      staticcall\n      iszero\n      dup1\n      iszero\n      tag_223\n      jumpi\n      returndatasize\n      0x00\n      dup1\n      returndatacopy\n      revert(0x00, returndatasize)\n    tag_223:\n      pop\n      pop\n      pop\n      pop\n      mload(0x40)\n      returndatasize\n      not(0x1f)\n      0x1f\n      dup3\n      add\n      and\n      dup3\n      add\n      dup1\n      0x40\n      mstore\n      pop\n      dup2\n      add\n      swap1\n      tag_224\n      swap2\n      swap1\n      tag_225\n      jump\t// in\n    tag_224:\n        /* \"marketplace.sol\":4378:4440  IERC721Enumerable(ShoseNFTContract).ownerOf(tokenId) == seller */\n      0xffffffffffffffffffffffffffffffffffffffff\n      and\n      eq\n        /* \"marketplace.sol\":4370:4473  require(IERC721Enumerable(ShoseNFTContract).ownerOf(tokenId) == seller,\"seller need have this tokenid\") */\n      tag_226\n      jumpi\n      mload(0x40)\n      0x08c379a000000000000000000000000000000000000000000000000000000000\n      dup2\n      mstore\n      0x04\n      add\n      tag_227\n      swap1\n      tag_228\n      jump\t// in\n    tag_227:\n      mload(0x40)\n      dup1\n      swap2\n      sub\n      swap1\n      revert\n    tag_226:\n        /* \"marketplace.sol\":4483:4505  removeNFTSell(tokenId) */\n      tag_229\n        /* \"marketplace.sol\":4497:4504  tokenId */\n      dup3\n        /* \"marketplace.sol\":4483:4496  removeNFTSell */\n      tag_230\n        /* \"marketplace.sol\":4483:4505  removeNFTSell(tokenId) */\n      jump\t// in\n    tag_229:\n        /* \"marketplace.sol\":4520:4552  eventCancelSellVicShose(tokenId) */\n      0xd4ceea0833ac36cc33c805e4f164dedb6d75e092a34e14083bbb87976befdecf\n        /* \"marketplace.sol\":4544:4551  tokenId */\n      dup3\n        /* \"marketplace.sol\":4520:4552  eventCancelSellVicShose(tokenId) */\n      mload(0x40)\n      tag_231\n      swap2\n      swap1\n      tag_77\n      jump\t// in\n    tag_231:\n      mload(0x40)\n      dup1\n      swap2\n      sub\n      swap1\n      log1\n        /* \"marketplace.sol\":4259:4559  {... */\n      pop\n        /* \"marketplace.sol\":4191:4559  function CancelSellVicShose(uint256 tokenId) external whenNotPaused {... */\n      pop\n      jump\t// out\n        /* \"marketplace.sol\":272:295  address public Treasury */\n    tag_84:\n      0x01\n      0x00\n      swap1\n      sload\n      swap1\n      0x0100\n      exp\n      swap1\n      div\n      0xffffffffffffffffffffffffffffffffffffffff\n      and\n      dup2\n      jump\t// out\n        /* \"marketplace.sol\":3494:3621  function checkShoseTranfer(uint256 tokenId) public view virtual returns (address) {... */\n    tag_89:\n        /* \"marketplace.sol\":3567:3574  address */\n      0x00\n        /* \"marketplace.sol\":3593:3605  shoseTranfer */\n      0x09\n        /* \"marketplace.sol\":3593:3614  shoseTranfer[tokenId] */\n      0x00\n        /* \"marketplace.sol\":3606:3613  tokenId */\n      dup4\n        /* \"marketplace.sol\":3593:3614  shoseTranfer[tokenId] */\n      dup2\n      mstore\n      0x20\n      add\n      swap1\n      dup2\n      mstore\n      0x20\n      add\n      0x00\n      keccak256\n      0x00\n      swap1\n      sload\n      swap1\n      0x0100\n      exp\n      swap1\n      div\n      0xffffffffffffffffffffffffffffffffffffffff\n      and\n        /* \"marketplace.sol\":3586:3614  return shoseTranfer[tokenId] */\n      swap1\n      pop\n        /* \"marketplace.sol\":3494:3621  function checkShoseTranfer(uint256 tokenId) public view virtual returns (address) {... */\n      swap2\n      swap1\n      pop\n      jump\t// out\n        /* \"BEPPausable.sol\":272:298  bool public paused = false */\n    tag_93:\n      0x00\n      0x14\n      swap1\n      sload\n      swap1\n      0x0100\n      exp\n      swap1\n      div\n      0xff\n      and\n      dup2\n      jump\t// out\n        /* \"marketplace.sol\":2958:3489  function transferVicShose(address to,uint256 tokenId) external whenNotPaused {... */\n    tag_99:\n        /* \"BEPPausable.sol\":424:430  paused */\n      0x00\n      0x14\n      swap1\n      sload\n      swap1\n      0x0100\n      exp\n      swap1\n      div\n      0xff\n      and\n        /* \"BEPPausable.sol\":423:430  !paused */\n      iszero\n        /* \"BEPPausable.sol\":415:431  require(!paused) */\n      tag_234\n      jumpi\n      0x00\n      dup1\n      revert\n    tag_234:\n        /* \"marketplace.sol\":3045:3057  address from */\n      0x00\n        /* \"marketplace.sol\":3060:3070  msg.sender */\n      caller\n        /* \"marketplace.sol\":3045:3070  address from = msg.sender */\n      swap1\n      pop\n        /* \"marketplace.sol\":3106:3122  ShoseNFTContract */\n      0x03\n      0x00\n      swap1\n      sload\n      swap1\n      0x0100\n      exp\n      swap1\n      div\n      0xffffffffffffffffffffffffffffffffffffffff\n      and\n        /* \"marketplace.sol\":3088:3140  IERC721Enumerable(ShoseNFTContract).isApprovedForAll */\n      0xffffffffffffffffffffffffffffffffffffffff\n      and\n      0xe985e9c5\n        /* \"marketplace.sol\":3141:3145  from */\n      dup3\n        /* \"marketplace.sol\":3154:3158  this */\n      address\n        /* \"marketplace.sol\":3088:3160  IERC721Enumerable(ShoseNFTContract).isApprovedForAll(from,address(this)) */\n      mload(0x40)\n      dup4\n      0xffffffff\n      and\n      0xe0\n      shl\n      dup2\n      mstore\n      0x04\n      add\n      tag_236\n      swap3\n      swap2\n      swap1\n      tag_237\n      jump\t// in\n    tag_236:\n      0x20\n      mload(0x40)\n      dup1\n      dup4\n      sub\n      dup2\n      dup7\n      dup1\n      extcodesize\n      iszero\n      dup1\n      iszero\n      tag_238\n      jumpi\n      0x00\n      dup1\n      revert\n    tag_238:\n      pop\n      gas\n      staticcall\n      iszero\n      dup1\n      iszero\n      tag_240\n      jumpi\n      returndatasize\n      0x00\n      dup1\n      returndatacopy\n      revert(0x00, returndatasize)\n    tag_240:\n      pop\n      pop\n      pop\n      pop\n      mload(0x40)\n      returndatasize\n      not(0x1f)\n      0x1f\n      dup3\n      add\n      and\n      dup3\n      add\n      dup1\n      0x40\n      mstore\n      pop\n      dup2\n      add\n      swap1\n      tag_241\n      swap2\n      swap1\n      tag_242\n      jump\t// in\n    tag_241:\n        /* \"marketplace.sol\":3080:3204  require(IERC721Enumerable(ShoseNFTContract).isApprovedForAll(from,address(this)),\"You need Approve For All to this contact\") */\n      tag_243\n      jumpi\n      mload(0x40)\n      0x08c379a000000000000000000000000000000000000000000000000000000000\n      dup2\n      mstore\n      0x04\n      add\n      tag_244\n      swap1\n      tag_245\n      jump\t// in\n    tag_244:\n      mload(0x40)\n      dup1\n      swap2\n      sub\n      swap1\n      revert\n    tag_243:\n        /* \"marketplace.sol\":3236:3237  0 */\n      0x00\n        /* \"marketplace.sol\":3222:3238  to != address(0) */\n      0xffffffffffffffffffffffffffffffffffffffff\n      and\n        /* \"marketplace.sol\":3222:3224  to */\n      dup4\n        /* \"marketplace.sol\":3222:3238  to != address(0) */\n      0xffffffffffffffffffffffffffffffffffffffff\n      and\n      eq\n      iszero\n        /* \"marketplace.sol\":3214:3262  require(to != address(0),\"Address can not zero\") */\n      tag_246\n      jumpi\n      mload(0x40)\n      0x08c379a000000000000000000000000000000000000000000000000000000000\n      dup2\n      mstore\n      0x04\n      add\n      tag_247\n      swap1\n      tag_248\n      jump\t// in\n    tag_247:\n      mload(0x40)\n      dup1\n      swap2\n      sub\n      swap1\n      revert\n    tag_246:\n        /* \"marketplace.sol\":3286:3290  from */\n      dup1\n        /* \"marketplace.sol\":3280:3290  to != from */\n      0xffffffffffffffffffffffffffffffffffffffff\n      and\n        /* \"marketplace.sol\":3280:3282  to */\n      dup4\n        /* \"marketplace.sol\":3280:3290  to != from */\n      0xffffffffffffffffffffffffffffffffffffffff\n      and\n      eq\n      iszero\n        /* \"marketplace.sol\":3272:3318  require(to != from,\"From and To can not same\") */\n      tag_249\n      jumpi\n      mload(0x40)\n      0x08c379a000000000000000000000000000000000000000000000000000000000\n      dup2\n      mstore\n      0x04\n      add\n      tag_250\n      swap1\n      tag_251\n      jump\t// in\n    tag_250:\n      mload(0x40)\n      dup1\n      swap2\n      sub\n      swap1\n      revert\n    tag_249:\n        /* \"marketplace.sol\":3346:3362  ShoseNFTContract */\n      0x03\n      0x00\n      swap1\n      sload\n      swap1\n      0x0100\n      exp\n      swap1\n      div\n      0xffffffffffffffffffffffffffffffffffffffff\n      and\n        /* \"marketplace.sol\":3328:3380  IERC721Enumerable(ShoseNFTContract).safeTransferFrom */\n      0xffffffffffffffffffffffffffffffffffffffff\n      and\n      0x42842e0e\n        /* \"marketplace.sol\":3381:3385  from */\n      dup3\n        /* \"marketplace.sol\":3387:3389  to */\n      dup6\n        /* \"marketplace.sol\":3390:3397  tokenId */\n      dup6\n        /* \"marketplace.sol\":3328:3398  IERC721Enumerable(ShoseNFTContract).safeTransferFrom(from, to,tokenId) */\n      mload(0x40)\n      dup5\n      0xffffffff\n      and\n      0xe0\n      shl\n      dup2\n      mstore\n      0x04\n      add\n      tag_252\n      swap4\n      swap3\n      swap2\n      swap1\n      tag_253\n      jump\t// in\n    tag_252:\n      0x00\n      mload(0x40)\n      dup1\n      dup4\n      sub\n      dup2\n      0x00\n      dup8\n      dup1\n      extcodesize\n      iszero\n      dup1\n      iszero\n      tag_254\n      jumpi\n      0x00\n      dup1\n      revert\n    tag_254:\n      pop\n      gas\n      call\n      iszero\n      dup1\n      iszero\n      tag_256\n      jumpi\n      returndatasize\n      0x00\n      dup1\n      returndatacopy\n      revert(0x00, returndatasize)\n    tag_256:\n      pop\n      pop\n      pop\n      pop\n        /* \"marketplace.sol\":3432:3434  to */\n      dup3\n        /* \"marketplace.sol\":3408:3420  shoseTranfer */\n      0x09\n        /* \"marketplace.sol\":3408:3429  shoseTranfer[tokenId] */\n      0x00\n        /* \"marketplace.sol\":3421:3428  tokenId */\n      dup5\n        /* \"marketplace.sol\":3408:3429  shoseTranfer[tokenId] */\n      dup2\n      mstore\n      0x20\n      add\n      swap1\n      dup2\n      mstore\n      0x20\n      add\n      0x00\n      keccak256\n      0x00\n        /* \"marketplace.sol\":3408:3434  shoseTranfer[tokenId] = to */\n      0x0100\n      exp\n      dup2\n      sload\n      dup2\n      0xffffffffffffffffffffffffffffffffffffffff\n      mul\n      not\n      and\n      swap1\n      dup4\n      0xffffffffffffffffffffffffffffffffffffffff\n      and\n      mul\n      or\n      swap1\n      sstore\n      pop\n        /* \"marketplace.sol\":3449:3482  eventtransferVicShose(to,tokenId) */\n      0x2a422da7e70b3ca41064be14c50b74a43cbbef24634fa3b7e90d120b8ecc08b3\n        /* \"marketplace.sol\":3471:3473  to */\n      dup4\n        /* \"marketplace.sol\":3474:3481  tokenId */\n      dup4\n        /* \"marketplace.sol\":3449:3482  eventtransferVicShose(to,tokenId) */\n      mload(0x40)\n      tag_257\n      swap3\n      swap2\n      swap1\n      tag_258\n      jump\t// in\n    tag_257:\n      mload(0x40)\n      dup1\n      swap2\n      sub\n      swap1\n      log1\n        /* \"marketplace.sol\":3035:3489  {... */\n      pop\n        /* \"marketplace.sol\":2958:3489  function transferVicShose(address to,uint256 tokenId) external whenNotPaused {... */\n      pop\n      pop\n      jump\t// out\n        /* \"BEPOwnable.sol\":1630:1757  function renounceOwnership() public onlyOwner {... */\n    tag_102:\n        /* \"BEPOwnable.sol\":1085:1094  isOwner() */\n      tag_260\n        /* \"BEPOwnable.sol\":1085:1092  isOwner */\n      tag_126\n        /* \"BEPOwnable.sol\":1085:1094  isOwner() */\n      jump\t// in\n    tag_260:\n        /* \"BEPOwnable.sol\":1077:1131  require(isOwner(), \"Ownable: caller is not the owner\") */\n      tag_261\n      jumpi\n      mload(0x40)\n      0x08c379a000000000000000000000000000000000000000000000000000000000\n      dup2\n      mstore\n      0x04\n      add\n      tag_262\n      swap1\n      tag_185\n      jump\t// in\n    tag_262:\n      mload(0x40)\n      dup1\n      swap2\n      sub\n      swap1\n      revert\n    tag_261:\n        /* \"BEPOwnable.sol\":1724:1725  0 */\n      0x00\n        /* \"BEPOwnable.sol\":1687:1727  OwnershipTransferred(_owner, address(0)) */\n      0xffffffffffffffffffffffffffffffffffffffff\n      and\n        /* \"BEPOwnable.sol\":1708:1714  _owner */\n      0x00\n      dup1\n      sload\n      swap1\n      0x0100\n      exp\n      swap1\n      div\n      0xffffffffffffffffffffffffffffffffffffffff\n      and\n        /* \"BEPOwnable.sol\":1687:1727  OwnershipTransferred(_owner, address(0)) */\n      0xffffffffffffffffffffffffffffffffffffffff\n      and\n      0x8be0079c531659141344cd1fd0a4f28419497f9722a3daafe3b4186f6b6457e0\n      mload(0x40)\n      mload(0x40)\n      dup1\n      swap2\n      sub\n      swap1\n      log3\n        /* \"BEPOwnable.sol\":1750:1751  0 */\n      0x00\n        /* \"BEPOwnable.sol\":1733:1739  _owner */\n      dup1\n      0x00\n        /* \"BEPOwnable.sol\":1733:1752  _owner = address(0) */\n      0x0100\n      exp\n      dup2\n      sload\n      dup2\n      0xffffffffffffffffffffffffffffffffffffffff\n      mul\n      not\n      and\n      swap1\n      dup4\n      0xffffffffffffffffffffffffffffffffffffffff\n      and\n      mul\n      or\n      swap1\n      sstore\n      pop\n        /* \"BEPOwnable.sol\":1630:1757  function renounceOwnership() public onlyOwner {... */\n      jump\t// out\n        /* \"marketplace.sol\":4565:6544  function BuyVicShose(uint256 tokenId) external whenNotPaused {... */\n    tag_106:\n        /* \"BEPPausable.sol\":424:430  paused */\n      0x00\n      0x14\n      swap1\n      sload\n      swap1\n      0x0100\n      exp\n      swap1\n      div\n      0xff\n      and\n        /* \"BEPPausable.sol\":423:430  !paused */\n      iszero\n        /* \"BEPPausable.sol\":415:431  require(!paused) */\n      tag_265\n      jumpi\n      0x00\n      dup1\n      revert\n    tag_265:\n        /* \"marketplace.sol\":4636:4650  address seller */\n      0x00\n        /* \"marketplace.sol\":4653:4664  shoseSeller */\n      0x0b\n        /* \"marketplace.sol\":4653:4673  shoseSeller[tokenId] */\n      0x00\n        /* \"marketplace.sol\":4665:4672  tokenId */\n      dup4\n        /* \"marketplace.sol\":4653:4673  shoseSeller[tokenId] */\n      dup2\n      mstore\n      0x20\n      add\n      swap1\n      dup2\n      mstore\n      0x20\n      add\n      0x00\n      keccak256\n      0x00\n      swap1\n      sload\n      swap1\n      0x0100\n      exp\n      swap1\n      div\n      0xffffffffffffffffffffffffffffffffffffffff\n      and\n        /* \"marketplace.sol\":4636:4673  address seller = shoseSeller[tokenId] */\n      swap1\n      pop\n        /* \"marketplace.sol\":4712:4713  0 */\n      0x00\n        /* \"marketplace.sol\":4691:4700  shoseSell */\n      0x0a\n        /* \"marketplace.sol\":4691:4709  shoseSell[tokenId] */\n      0x00\n        /* \"marketplace.sol\":4701:4708  tokenId */\n      dup5\n        /* \"marketplace.sol\":4691:4709  shoseSell[tokenId] */\n      dup2\n      mstore\n      0x20\n      add\n      swap1\n      dup2\n      mstore\n      0x20\n      add\n      0x00\n      keccak256\n      sload\n        /* \"marketplace.sol\":4691:4713  shoseSell[tokenId] > 0 */\n      gt\n        /* \"marketplace.sol\":4683:4737  require(shoseSell[tokenId] > 0,\"VicShose not in sell\") */\n      tag_267\n      jumpi\n      mload(0x40)\n      0x08c379a000000000000000000000000000000000000000000000000000000000\n      dup2\n      mstore\n      0x04\n      add\n      tag_268\n      swap1\n      tag_219\n      jump\t// in\n    tag_268:\n      mload(0x40)\n      dup1\n      swap2\n      sub\n      swap1\n      revert\n    tag_267:\n        /* \"marketplace.sol\":4840:4846  seller */\n      dup1\n        /* \"marketplace.sol\":4784:4846  IERC721Enumerable(ShoseNFTContract).ownerOf(tokenId) == seller */\n      0xffffffffffffffffffffffffffffffffffffffff\n      and\n        /* \"marketplace.sol\":4802:4818  ShoseNFTContract */\n      0x03\n      0x00\n      swap1\n      sload\n      swap1\n      0x0100\n      exp\n      swap1\n      div\n      0xffffffffffffffffffffffffffffffffffffffff\n      and\n        /* \"marketplace.sol\":4784:4827  IERC721Enumerable(ShoseNFTContract).ownerOf */\n      0xffffffffffffffffffffffffffffffffffffffff\n      and\n      0x6352211e\n        /* \"marketplace.sol\":4828:4835  tokenId */\n      dup5\n        /* \"marketplace.sol\":4784:4836  IERC721Enumerable(ShoseNFTContract).ownerOf(tokenId) */\n      mload(0x40)\n      dup3\n      0xffffffff\n      and\n      0xe0\n      shl\n      dup2\n      mstore\n      0x04\n      add\n      tag_269\n      swap2\n      swap1\n      tag_77\n      jump\t// in\n    tag_269:\n      0x20\n      mload(0x40)\n      dup1\n      dup4\n      sub\n      dup2\n      dup7\n      dup1\n      extcodesize\n      iszero\n      dup1\n      iszero\n      tag_270\n      jumpi\n      0x00\n      dup1\n      revert\n    tag_270:\n      pop\n      gas\n      staticcall\n      iszero\n      dup1\n      iszero\n      tag_272\n      jumpi\n      returndatasize\n      0x00\n      dup1\n      returndatacopy\n      revert(0x00, returndatasize)\n    tag_272:\n      pop\n      pop\n      pop\n      pop\n      mload(0x40)\n      returndatasize\n      not(0x1f)\n      0x1f\n      dup3\n      add\n      and\n      dup3\n      add\n      dup1\n      0x40\n      mstore\n      pop\n      dup2\n      add\n      swap1\n      tag_273\n      swap2\n      swap1\n      tag_225\n      jump\t// in\n    tag_273:\n        /* \"marketplace.sol\":4784:4846  IERC721Enumerable(ShoseNFTContract).ownerOf(tokenId) == seller */\n      0xffffffffffffffffffffffffffffffffffffffff\n      and\n      eq\n        /* \"marketplace.sol\":4776:4879  require(IERC721Enumerable(ShoseNFTContract).ownerOf(tokenId) == seller,\"seller need have this tokenid\") */\n      tag_274\n      jumpi\n      mload(0x40)\n      0x08c379a000000000000000000000000000000000000000000000000000000000\n      dup2\n      mstore\n      0x04\n      add\n      tag_275\n      swap1\n      tag_228\n      jump\t// in\n    tag_275:\n      mload(0x40)\n      dup1\n      swap2\n      sub\n      swap1\n      revert\n    tag_274:\n        /* \"marketplace.sol\":4966:4982  ShoseNFTContract */\n      0x03\n      0x00\n      swap1\n      sload\n      swap1\n      0x0100\n      exp\n      swap1\n      div\n      0xffffffffffffffffffffffffffffffffffffffff\n      and\n        /* \"marketplace.sol\":4948:5000  IERC721Enumerable(ShoseNFTContract).isApprovedForAll */\n      0xffffffffffffffffffffffffffffffffffffffff\n      and\n      0xe985e9c5\n        /* \"marketplace.sol\":5001:5007  seller */\n      dup3\n        /* \"marketplace.sol\":5016:5020  this */\n      address\n        /* \"marketplace.sol\":4948:5022  IERC721Enumerable(ShoseNFTContract).isApprovedForAll(seller,address(this)) */\n      mload(0x40)\n      dup4\n      0xffffffff\n      and\n      0xe0\n      shl\n      dup2\n      mstore\n      0x04\n      add\n      tag_276\n      swap3\n      swap2\n      swap1\n      tag_237\n      jump\t// in\n    tag_276:\n      0x20\n      mload(0x40)\n      dup1\n      dup4\n      sub\n      dup2\n      dup7\n      dup1\n      extcodesize\n      iszero\n      dup1\n      iszero\n      tag_277\n      jumpi\n      0x00\n      dup1\n      revert\n    tag_277:\n      pop\n      gas\n      staticcall\n      iszero\n      dup1\n      iszero\n      tag_279\n      jumpi\n      returndatasize\n      0x00\n      dup1\n      returndatacopy\n      revert(0x00, returndatasize)\n    tag_279:\n      pop\n      pop\n      pop\n      pop\n      mload(0x40)\n      returndatasize\n      not(0x1f)\n      0x1f\n      dup3\n      add\n      and\n      dup3\n      add\n      dup1\n      0x40\n      mstore\n      pop\n      dup2\n      add\n      swap1\n      tag_280\n      swap2\n      swap1\n      tag_242\n      jump\t// in\n    tag_280:\n        /* \"marketplace.sol\":4940:5066  require(IERC721Enumerable(ShoseNFTContract).isApprovedForAll(seller,address(this)),\"You need Approve For All to this contact\") */\n      tag_281\n      jumpi\n      mload(0x40)\n      0x08c379a000000000000000000000000000000000000000000000000000000000\n      dup2\n      mstore\n      0x04\n      add\n      tag_282\n      swap1\n      tag_245\n      jump\t// in\n    tag_282:\n      mload(0x40)\n      dup1\n      swap2\n      sub\n      swap1\n      revert\n    tag_281:\n        /* \"marketplace.sol\":5076:5089  address buyer */\n      0x00\n        /* \"marketplace.sol\":5092:5102  msg.sender */\n      caller\n        /* \"marketplace.sol\":5076:5102  address buyer = msg.sender */\n      swap1\n      pop\n        /* \"marketplace.sol\":5112:5128  uint256 minprice */\n      0x00\n        /* \"marketplace.sol\":5131:5144  getMINPrice() */\n      tag_283\n        /* \"marketplace.sol\":5131:5142  getMINPrice */\n      tag_171\n        /* \"marketplace.sol\":5131:5144  getMINPrice() */\n      jump\t// in\n    tag_283:\n        /* \"marketplace.sol\":5112:5144  uint256 minprice = getMINPrice() */\n      swap1\n      pop\n        /* \"marketplace.sol\":5154:5170  uint256 buyPrice */\n      0x00\n        /* \"marketplace.sol\":5173:5181  minprice */\n      dup2\n        /* \"marketplace.sol\":5154:5181  uint256 buyPrice = minprice */\n      swap1\n      pop\n        /* \"marketplace.sol\":5191:5208  uint256 sellPrice */\n      0x00\n        /* \"marketplace.sol\":5211:5220  shoseSell */\n      0x0a\n        /* \"marketplace.sol\":5211:5229  shoseSell[tokenId] */\n      0x00\n        /* \"marketplace.sol\":5221:5228  tokenId */\n      dup8\n        /* \"marketplace.sol\":5211:5229  shoseSell[tokenId] */\n      dup2\n      mstore\n      0x20\n      add\n      swap1\n      dup2\n      mstore\n      0x20\n      add\n      0x00\n      keccak256\n      sload\n        /* \"marketplace.sol\":5191:5229  uint256 sellPrice = shoseSell[tokenId] */\n      swap1\n      pop\n        /* \"marketplace.sol\":5254:5262  minprice */\n      dup3\n        /* \"marketplace.sol\":5242:5251  sellPrice */\n      dup2\n        /* \"marketplace.sol\":5242:5262  sellPrice > minprice */\n      gt\n        /* \"marketplace.sol\":5239:5308  if(sellPrice > minprice){... */\n      iszero\n      tag_284\n      jumpi\n        /* \"marketplace.sol\":5288:5297  sellPrice */\n      dup1\n        /* \"marketplace.sol\":5277:5297  buyPrice = sellPrice */\n      swap2\n      pop\n        /* \"marketplace.sol\":5239:5308  if(sellPrice > minprice){... */\n    tag_284:\n        /* \"marketplace.sol\":5390:5396  10**18 */\n      0x0de0b6b3a7640000\n        /* \"marketplace.sol\":5379:5387  buyPrice */\n      dup3\n        /* \"marketplace.sol\":5379:5396  buyPrice * 10**18 */\n      tag_285\n      swap2\n      swap1\n      tag_286\n      jump\t// in\n    tag_285:\n        /* \"marketplace.sol\":5332:5343  VIMContract */\n      0x04\n      0x00\n      swap1\n      sload\n      swap1\n      0x0100\n      exp\n      swap1\n      div\n      0xffffffffffffffffffffffffffffffffffffffff\n      and\n        /* \"marketplace.sol\":5325:5354  IBEP20(VIMContract).allowance */\n      0xffffffffffffffffffffffffffffffffffffffff\n      and\n      0xdd62ed3e\n        /* \"marketplace.sol\":5355:5360  buyer */\n      dup7\n        /* \"marketplace.sol\":5369:5373  this */\n      address\n        /* \"marketplace.sol\":5325:5375  IBEP20(VIMContract).allowance(buyer,address(this)) */\n      mload(0x40)\n      dup4\n      0xffffffff\n      and\n      0xe0\n      shl\n      dup2\n      mstore\n      0x04\n      add\n      tag_287\n      swap3\n      swap2\n      swap1\n      tag_237\n      jump\t// in\n    tag_287:\n      0x20\n      mload(0x40)\n      dup1\n      dup4\n      sub\n      dup2\n      dup7\n      dup1\n      extcodesize\n      iszero\n      dup1\n      iszero\n      tag_288\n      jumpi\n      0x00\n      dup1\n      revert\n    tag_288:\n      pop\n      gas\n      staticcall\n      iszero\n      dup1\n      iszero\n      tag_290\n      jumpi\n      returndatasize\n      0x00\n      dup1\n      returndatacopy\n      revert(0x00, returndatasize)\n    tag_290:\n      pop\n      pop\n      pop\n      pop\n      mload(0x40)\n      returndatasize\n      not(0x1f)\n      0x1f\n      dup3\n      add\n      and\n      dup3\n      add\n      dup1\n      0x40\n      mstore\n      pop\n      dup2\n      add\n      swap1\n      tag_291\n      swap2\n      swap1\n      tag_213\n      jump\t// in\n    tag_291:\n        /* \"marketplace.sol\":5325:5396  IBEP20(VIMContract).allowance(buyer,address(this)) >= buyPrice * 10**18 */\n      lt\n      iszero\n        /* \"marketplace.sol\":5317:5471  require(IBEP20(VIMContract).allowance(buyer,address(this)) >= buyPrice * 10**18,\"The money allowed is not enough to buy shoes. You need approve more VIM\") */\n      tag_292\n      jumpi\n      mload(0x40)\n      0x08c379a000000000000000000000000000000000000000000000000000000000\n      dup2\n      mstore\n      0x04\n      add\n      tag_293\n      swap1\n      tag_294\n      jump\t// in\n    tag_293:\n      mload(0x40)\n      dup1\n      swap2\n      sub\n      swap1\n      revert\n    tag_292:\n        /* \"marketplace.sol\":5596:5607  VIMContract */\n      0x04\n      0x00\n      swap1\n      sload\n      swap1\n      0x0100\n      exp\n      swap1\n      div\n      0xffffffffffffffffffffffffffffffffffffffff\n      and\n        /* \"marketplace.sol\":5589:5621  IBEP20(VIMContract).transferFrom */\n      0xffffffffffffffffffffffffffffffffffffffff\n      and\n      0x23b872dd\n        /* \"marketplace.sol\":5622:5627  buyer */\n      dup6\n        /* \"marketplace.sol\":5636:5640  this */\n      address\n        /* \"marketplace.sol\":5653:5659  10**18 */\n      0x0de0b6b3a7640000\n        /* \"marketplace.sol\":5642:5650  buyPrice */\n      dup7\n        /* \"marketplace.sol\":5642:5659  buyPrice * 10**18 */\n      tag_295\n      swap2\n      swap1\n      tag_286\n      jump\t// in\n    tag_295:\n        /* \"marketplace.sol\":5589:5660  IBEP20(VIMContract).transferFrom(buyer,address(this),buyPrice * 10**18) */\n      mload(0x40)\n      dup5\n      0xffffffff\n      and\n      0xe0\n      shl\n      dup2\n      mstore\n      0x04\n      add\n      tag_296\n      swap4\n      swap3\n      swap2\n      swap1\n      tag_253\n      jump\t// in\n    tag_296:\n      0x20\n      mload(0x40)\n      dup1\n      dup4\n      sub\n      dup2\n      0x00\n      dup8\n      dup1\n      extcodesize\n      iszero\n      dup1\n      iszero\n      tag_297\n      jumpi\n      0x00\n      dup1\n      revert\n    tag_297:\n      pop\n      gas\n      call\n      iszero\n      dup1\n      iszero\n      tag_299\n      jumpi\n      returndatasize\n      0x00\n      dup1\n      returndatacopy\n      revert(0x00, returndatasize)\n    tag_299:\n      pop\n      pop\n      pop\n      pop\n      mload(0x40)\n      returndatasize\n      not(0x1f)\n      0x1f\n      dup3\n      add\n      and\n      dup3\n      add\n      dup1\n      0x40\n      mstore\n      pop\n      dup2\n      add\n      swap1\n      tag_300\n      swap2\n      swap1\n      tag_242\n      jump\t// in\n    tag_300:\n      pop\n        /* \"marketplace.sol\":5719:5735  ShoseNFTContract */\n      0x03\n      0x00\n      swap1\n      sload\n      swap1\n      0x0100\n      exp\n      swap1\n      div\n      0xffffffffffffffffffffffffffffffffffffffff\n      and\n        /* \"marketplace.sol\":5701:5753  IERC721Enumerable(ShoseNFTContract).safeTransferFrom */\n      0xffffffffffffffffffffffffffffffffffffffff\n      and\n      0x42842e0e\n        /* \"marketplace.sol\":5754:5760  seller */\n      dup7\n        /* \"marketplace.sol\":5761:5766  buyer */\n      dup7\n        /* \"marketplace.sol\":5768:5775  tokenId */\n      dup10\n        /* \"marketplace.sol\":5701:5776  IERC721Enumerable(ShoseNFTContract).safeTransferFrom(seller,buyer, tokenId) */\n      mload(0x40)\n      dup5\n      0xffffffff\n      and\n      0xe0\n      shl\n      dup2\n      mstore\n      0x04\n      add\n      tag_301\n      swap4\n      swap3\n      swap2\n      swap1\n      tag_253\n      jump\t// in\n    tag_301:\n      0x00\n      mload(0x40)\n      dup1\n      dup4\n      sub\n      dup2\n      0x00\n      dup8\n      dup1\n      extcodesize\n      iszero\n      dup1\n      iszero\n      tag_302\n      jumpi\n      0x00\n      dup1\n      revert\n    tag_302:\n      pop\n      gas\n      call\n      iszero\n      dup1\n      iszero\n      tag_304\n      jumpi\n      returndatasize\n      0x00\n      dup1\n      returndatacopy\n      revert(0x00, returndatasize)\n    tag_304:\n      pop\n      pop\n      pop\n      pop\n        /* \"marketplace.sol\":5871:5882  uint256 fee */\n      0x00\n        /* \"marketplace.sol\":5931:5934  100 */\n      0x64\n        /* \"marketplace.sol\":5926:5929  tax */\n      sload(0x07)\n        /* \"marketplace.sol\":5922:5925  100 */\n      0x64\n        /* \"marketplace.sol\":5922:5929  100-tax */\n      tag_305\n      swap2\n      swap1\n      tag_306\n      jump\t// in\n    tag_305:\n        /* \"marketplace.sol\":5912:5920  minprice */\n      dup6\n        /* \"marketplace.sol\":5912:5930  minprice*(100-tax) */\n      tag_307\n      swap2\n      swap1\n      tag_286\n      jump\t// in\n    tag_307:\n        /* \"marketplace.sol\":5912:5934  minprice*(100-tax)/100 */\n      tag_308\n      swap2\n      swap1\n      tag_309\n      jump\t// in\n    tag_308:\n        /* \"marketplace.sol\":5899:5908  sellPrice */\n      dup3\n        /* \"marketplace.sol\":5899:5934  sellPrice >= minprice*(100-tax)/100 */\n      lt\n        /* \"marketplace.sol\":5896:6037  if(sellPrice >= minprice*(100-tax)/100){... */\n      tag_310\n      jumpi\n        /* \"marketplace.sol\":5968:5971  100 */\n      0x64\n        /* \"marketplace.sol\":5964:5967  tax */\n      sload(0x07)\n        /* \"marketplace.sol\":5955:5963  buyPrice */\n      dup5\n        /* \"marketplace.sol\":5955:5967  buyPrice*tax */\n      tag_311\n      swap2\n      swap1\n      tag_286\n      jump\t// in\n    tag_311:\n        /* \"marketplace.sol\":5955:5971  buyPrice*tax/100 */\n      tag_312\n      swap2\n      swap1\n      tag_309\n      jump\t// in\n    tag_312:\n        /* \"marketplace.sol\":5949:5971  fee = buyPrice*tax/100 */\n      swap1\n      pop\n        /* \"marketplace.sol\":5896:6037  if(sellPrice >= minprice*(100-tax)/100){... */\n      jump(tag_313)\n    tag_310:\n        /* \"marketplace.sol\":6017:6026  sellPrice */\n      dup2\n        /* \"marketplace.sol\":6006:6014  minprice */\n      dup5\n        /* \"marketplace.sol\":6006:6026  minprice - sellPrice */\n      tag_314\n      swap2\n      swap1\n      tag_306\n      jump\t// in\n    tag_314:\n        /* \"marketplace.sol\":6000:6026  fee = minprice - sellPrice */\n      swap1\n      pop\n        /* \"marketplace.sol\":5896:6037  if(sellPrice >= minprice*(100-tax)/100){... */\n    tag_313:\n        /* \"marketplace.sol\":6053:6064  VIMContract */\n      0x04\n      0x00\n      swap1\n      sload\n      swap1\n      0x0100\n      exp\n      swap1\n      div\n      0xffffffffffffffffffffffffffffffffffffffff\n      and\n        /* \"marketplace.sol\":6046:6078  IBEP20(VIMContract).transferFrom */\n      0xffffffffffffffffffffffffffffffffffffffff\n      and\n      0x23b872dd\n        /* \"marketplace.sol\":6087:6091  this */\n      address\n        /* \"marketplace.sol\":6093:6099  seller */\n      dup9\n        /* \"marketplace.sol\":6118:6124  10**18 */\n      0x0de0b6b3a7640000\n        /* \"marketplace.sol\":6111:6114  fee */\n      dup6\n        /* \"marketplace.sol\":6102:6110  buyPrice */\n      dup9\n        /* \"marketplace.sol\":6102:6114  buyPrice-fee */\n      tag_315\n      swap2\n      swap1\n      tag_306\n      jump\t// in\n    tag_315:\n        /* \"marketplace.sol\":6101:6124  (buyPrice-fee) * 10**18 */\n      tag_316\n      swap2\n      swap1\n      tag_286\n      jump\t// in\n    tag_316:\n        /* \"marketplace.sol\":6046:6125  IBEP20(VIMContract).transferFrom(address(this),seller, (buyPrice-fee) * 10**18) */\n      mload(0x40)\n      dup5\n      0xffffffff\n      and\n      0xe0\n      shl\n      dup2\n      mstore\n      0x04\n      add\n      tag_317\n      swap4\n      swap3\n      swap2\n      swap1\n      tag_253\n      jump\t// in\n    tag_317:\n      0x20\n      mload(0x40)\n      dup1\n      dup4\n      sub\n      dup2\n      0x00\n      dup8\n      dup1\n      extcodesize\n      iszero\n      dup1\n      iszero\n      tag_318\n      jumpi\n      0x00\n      dup1\n      revert\n    tag_318:\n      pop\n      gas\n      call\n      iszero\n      dup1\n      iszero\n      tag_320\n      jumpi\n      returndatasize\n      0x00\n      dup1\n      returndatacopy\n      revert(0x00, returndatasize)\n    tag_320:\n      pop\n      pop\n      pop\n      pop\n      mload(0x40)\n      returndatasize\n      not(0x1f)\n      0x1f\n      dup3\n      add\n      and\n      dup3\n      add\n      dup1\n      0x40\n      mstore\n      pop\n      dup2\n      add\n      swap1\n      tag_321\n      swap2\n      swap1\n      tag_242\n      jump\t// in\n    tag_321:\n      pop\n        /* \"marketplace.sol\":6201:6212  VIMContract */\n      0x04\n      0x00\n      swap1\n      sload\n      swap1\n      0x0100\n      exp\n      swap1\n      div\n      0xffffffffffffffffffffffffffffffffffffffff\n      and\n        /* \"marketplace.sol\":6194:6226  IBEP20(VIMContract).transferFrom */\n      0xffffffffffffffffffffffffffffffffffffffff\n      and\n      0x23b872dd\n        /* \"marketplace.sol\":6235:6239  this */\n      address\n        /* \"marketplace.sol\":6241:6249  Treasury */\n      0x01\n      0x00\n      swap1\n      sload\n      swap1\n      0x0100\n      exp\n      swap1\n      div\n      0xffffffffffffffffffffffffffffffffffffffff\n      and\n        /* \"marketplace.sol\":6256:6262  10**18 */\n      0x0de0b6b3a7640000\n        /* \"marketplace.sol\":6250:6253  fee */\n      dup6\n        /* \"marketplace.sol\":6250:6262  fee * 10**18 */\n      tag_322\n      swap2\n      swap1\n      tag_286\n      jump\t// in\n    tag_322:\n        /* \"marketplace.sol\":6194:6263  IBEP20(VIMContract).transferFrom(address(this),Treasury,fee * 10**18) */\n      mload(0x40)\n      dup5\n      0xffffffff\n      and\n      0xe0\n      shl\n      dup2\n      mstore\n      0x04\n      add\n      tag_323\n      swap4\n      swap3\n      swap2\n      swap1\n      tag_253\n      jump\t// in\n    tag_323:\n      0x20\n      mload(0x40)\n      dup1\n      dup4\n      sub\n      dup2\n      0x00\n      dup8\n      dup1\n      extcodesize\n      iszero\n      dup1\n      iszero\n      tag_324\n      jumpi\n      0x00\n      dup1\n      revert\n    tag_324:\n      pop\n      gas\n      call\n      iszero\n      dup1\n      iszero\n      tag_326\n      jumpi\n      returndatasize\n      0x00\n      dup1\n      returndatacopy\n      revert(0x00, returndatasize)\n    tag_326:\n      pop\n      pop\n      pop\n      pop\n      mload(0x40)\n      returndatasize\n      not(0x1f)\n      0x1f\n      dup3\n      add\n      and\n      dup3\n      add\n      dup1\n      0x40\n      mstore\n      pop\n      dup2\n      add\n      swap1\n      tag_327\n      swap2\n      swap1\n      tag_242\n      jump\t// in\n    tag_327:\n      pop\n        /* \"marketplace.sol\":6349:6354  buyer */\n      dup5\n        /* \"marketplace.sol\":6325:6337  shoseTranfer */\n      0x09\n        /* \"marketplace.sol\":6325:6346  shoseTranfer[tokenId] */\n      0x00\n        /* \"marketplace.sol\":6338:6345  tokenId */\n      dup10\n        /* \"marketplace.sol\":6325:6346  shoseTranfer[tokenId] */\n      dup2\n      mstore\n      0x20\n      add\n      swap1\n      dup2\n      mstore\n      0x20\n      add\n      0x00\n      keccak256\n      0x00\n        /* \"marketplace.sol\":6325:6354  shoseTranfer[tokenId] = buyer */\n      0x0100\n      exp\n      dup2\n      sload\n      dup2\n      0xffffffffffffffffffffffffffffffffffffffff\n      mul\n      not\n      and\n      swap1\n      dup4\n      0xffffffffffffffffffffffffffffffffffffffff\n      and\n      mul\n      or\n      swap1\n      sstore\n      pop\n        /* \"marketplace.sol\":6441:6463  removeNFTSell(tokenId) */\n      tag_328\n        /* \"marketplace.sol\":6455:6462  tokenId */\n      dup8\n        /* \"marketplace.sol\":6441:6454  removeNFTSell */\n      tag_230\n        /* \"marketplace.sol\":6441:6463  removeNFTSell(tokenId) */\n      jump\t// in\n    tag_328:\n        /* \"marketplace.sol\":6500:6525  eventBuyVicShose(tokenId) */\n      0x2b66287559b2a137ea3e7a6ab376630ef6165451c4d691bd218b503aa276f89d\n        /* \"marketplace.sol\":6517:6524  tokenId */\n      dup8\n        /* \"marketplace.sol\":6500:6525  eventBuyVicShose(tokenId) */\n      mload(0x40)\n      tag_329\n      swap2\n      swap1\n      tag_77\n      jump\t// in\n    tag_329:\n      mload(0x40)\n      dup1\n      swap2\n      sub\n      swap1\n      log1\n        /* \"marketplace.sol\":4626:6544  {... */\n      pop\n      pop\n      pop\n      pop\n      pop\n      pop\n        /* \"marketplace.sol\":4565:6544  function BuyVicShose(uint256 tokenId) external whenNotPaused {... */\n      pop\n      jump\t// out\n        /* \"marketplace.sol\":3627:4185  function SellVicShose(uint256 tokenId,uint256 price) external whenNotPaused {... */\n    tag_111:\n        /* \"BEPPausable.sol\":424:430  paused */\n      0x00\n      0x14\n      swap1\n      sload\n      swap1\n      0x0100\n      exp\n      swap1\n      div\n      0xff\n      and\n        /* \"BEPPausable.sol\":423:430  !paused */\n      iszero\n        /* \"BEPPausable.sol\":415:431  require(!paused) */\n      tag_331\n      jumpi\n      0x00\n      dup1\n      revert\n    tag_331:\n        /* \"marketplace.sol\":3743:3744  0 */\n      0x00\n        /* \"marketplace.sol\":3721:3730  shoseSell */\n      0x0a\n        /* \"marketplace.sol\":3721:3739  shoseSell[tokenId] */\n      0x00\n        /* \"marketplace.sol\":3731:3738  tokenId */\n      dup5\n        /* \"marketplace.sol\":3721:3739  shoseSell[tokenId] */\n      dup2\n      mstore\n      0x20\n      add\n      swap1\n      dup2\n      mstore\n      0x20\n      add\n      0x00\n      keccak256\n      sload\n        /* \"marketplace.sol\":3721:3744  shoseSell[tokenId] == 0 */\n      eq\n        /* \"marketplace.sol\":3713:3761  require(shoseSell[tokenId] == 0,\"it is selling\") */\n      tag_333\n      jumpi\n      mload(0x40)\n      0x08c379a000000000000000000000000000000000000000000000000000000000\n      dup2\n      mstore\n      0x04\n      add\n      tag_334\n      swap1\n      tag_335\n      jump\t// in\n    tag_334:\n      mload(0x40)\n      dup1\n      swap2\n      sub\n      swap1\n      revert\n    tag_333:\n        /* \"marketplace.sol\":3771:3785  address seller */\n      0x00\n        /* \"marketplace.sol\":3788:3798  msg.sender */\n      caller\n        /* \"marketplace.sol\":3771:3798  address seller = msg.sender */\n      swap1\n      pop\n        /* \"marketplace.sol\":3872:3878  seller */\n      dup1\n        /* \"marketplace.sol\":3816:3878  IERC721Enumerable(ShoseNFTContract).ownerOf(tokenId) == seller */\n      0xffffffffffffffffffffffffffffffffffffffff\n      and\n        /* \"marketplace.sol\":3834:3850  ShoseNFTContract */\n      0x03\n      0x00\n      swap1\n      sload\n      swap1\n      0x0100\n      exp\n      swap1\n      div\n      0xffffffffffffffffffffffffffffffffffffffff\n      and\n        /* \"marketplace.sol\":3816:3859  IERC721Enumerable(ShoseNFTContract).ownerOf */\n      0xffffffffffffffffffffffffffffffffffffffff\n      and\n      0x6352211e\n        /* \"marketplace.sol\":3860:3867  tokenId */\n      dup6\n        /* \"marketplace.sol\":3816:3868  IERC721Enumerable(ShoseNFTContract).ownerOf(tokenId) */\n      mload(0x40)\n      dup3\n      0xffffffff\n      and\n      0xe0\n      shl\n      dup2\n      mstore\n      0x04\n      add\n      tag_336\n      swap2\n      swap1\n      tag_77\n      jump\t// in\n    tag_336:\n      0x20\n      mload(0x40)\n      dup1\n      dup4\n      sub\n      dup2\n      dup7\n      dup1\n      extcodesize\n      iszero\n      dup1\n      iszero\n      tag_337\n      jumpi\n      0x00\n      dup1\n      revert\n    tag_337:\n      pop\n      gas\n      staticcall\n      iszero\n      dup1\n      iszero\n      tag_339\n      jumpi\n      returndatasize\n      0x00\n      dup1\n      returndatacopy\n      revert(0x00, returndatasize)\n    tag_339:\n      pop\n      pop\n      pop\n      pop\n      mload(0x40)\n      returndatasize\n      not(0x1f)\n      0x1f\n      dup3\n      add\n      and\n      dup3\n      add\n      dup1\n      0x40\n      mstore\n      pop\n      dup2\n      add\n      swap1\n      tag_340\n      swap2\n      swap1\n      tag_225\n      jump\t// in\n    tag_340:\n        /* \"marketplace.sol\":3816:3878  IERC721Enumerable(ShoseNFTContract).ownerOf(tokenId) == seller */\n      0xffffffffffffffffffffffffffffffffffffffff\n      and\n      eq\n        /* \"marketplace.sol\":3808:3911  require(IERC721Enumerable(ShoseNFTContract).ownerOf(tokenId) == seller,\"seller need have this tokenid\") */\n      tag_341\n      jumpi\n      mload(0x40)\n      0x08c379a000000000000000000000000000000000000000000000000000000000\n      dup2\n      mstore\n      0x04\n      add\n      tag_342\n      swap1\n      tag_228\n      jump\t// in\n    tag_342:\n      mload(0x40)\n      dup1\n      swap2\n      sub\n      swap1\n      revert\n    tag_341:\n        /* \"marketplace.sol\":3947:3963  ShoseNFTContract */\n      0x03\n      0x00\n      swap1\n      sload\n      swap1\n      0x0100\n      exp\n      swap1\n      div\n      0xffffffffffffffffffffffffffffffffffffffff\n      and\n        /* \"marketplace.sol\":3929:3981  IERC721Enumerable(ShoseNFTContract).isApprovedForAll */\n      0xffffffffffffffffffffffffffffffffffffffff\n      and\n      0xe985e9c5\n        /* \"marketplace.sol\":3982:3988  seller */\n      dup3\n        /* \"marketplace.sol\":3997:4001  this */\n      address\n        /* \"marketplace.sol\":3929:4003  IERC721Enumerable(ShoseNFTContract).isApprovedForAll(seller,address(this)) */\n      mload(0x40)\n      dup4\n      0xffffffff\n      and\n      0xe0\n      shl\n      dup2\n      mstore\n      0x04\n      add\n      tag_343\n      swap3\n      swap2\n      swap1\n      tag_237\n      jump\t// in\n    tag_343:\n      0x20\n      mload(0x40)\n      dup1\n      dup4\n      sub\n      dup2\n      dup7\n      dup1\n      extcodesize\n      iszero\n      dup1\n      iszero\n      tag_344\n      jumpi\n      0x00\n      dup1\n      revert\n    tag_344:\n      pop\n      gas\n      staticcall\n      iszero\n      dup1\n      iszero\n      tag_346\n      jumpi\n      returndatasize\n      0x00\n      dup1\n      returndatacopy\n      revert(0x00, returndatasize)\n    tag_346:\n      pop\n      pop\n      pop\n      pop\n      mload(0x40)\n      returndatasize\n      not(0x1f)\n      0x1f\n      dup3\n      add\n      and\n      dup3\n      add\n      dup1\n      0x40\n      mstore\n      pop\n      dup2\n      add\n      swap1\n      tag_347\n      swap2\n      swap1\n      tag_242\n      jump\t// in\n    tag_347:\n        /* \"marketplace.sol\":3921:4047  require(IERC721Enumerable(ShoseNFTContract).isApprovedForAll(seller,address(this)),\"You need Approve For All to this contact\") */\n      tag_348\n      jumpi\n      mload(0x40)\n      0x08c379a000000000000000000000000000000000000000000000000000000000\n      dup2\n      mstore\n      0x04\n      add\n      tag_349\n      swap1\n      tag_245\n      jump\t// in\n    tag_349:\n      mload(0x40)\n      dup1\n      swap2\n      sub\n      swap1\n      revert\n    tag_348:\n        /* \"marketplace.sol\":4073:4074  0 */\n      0x00\n        /* \"marketplace.sol\":4065:4070  price */\n      dup3\n        /* \"marketplace.sol\":4065:4074  price > 0 */\n      gt\n        /* \"marketplace.sol\":4057:4088  require(price > 0, \"Price > 0\") */\n      tag_350\n      jumpi\n      mload(0x40)\n      0x08c379a000000000000000000000000000000000000000000000000000000000\n      dup2\n      mstore\n      0x04\n      add\n      tag_351\n      swap1\n      tag_352\n      jump\t// in\n    tag_351:\n      mload(0x40)\n      dup1\n      swap2\n      sub\n      swap1\n      revert\n    tag_350:\n        /* \"marketplace.sol\":4098:4131  addNFTSell(tokenId, price,seller) */\n      tag_353\n        /* \"marketplace.sol\":4109:4116  tokenId */\n      dup4\n        /* \"marketplace.sol\":4118:4123  price */\n      dup4\n        /* \"marketplace.sol\":4124:4130  seller */\n      dup4\n        /* \"marketplace.sol\":4098:4108  addNFTSell */\n      tag_354\n        /* \"marketplace.sol\":4098:4131  addNFTSell(tokenId, price,seller) */\n      jump\t// in\n    tag_353:\n        /* \"marketplace.sol\":4146:4178  eventSellVicShose(tokenId,price) */\n      0x55bb046a6e950af74fcdaaa97a1a82c49209d72a5fcda0925a019dfba29c8f72\n        /* \"marketplace.sol\":4164:4171  tokenId */\n      dup4\n        /* \"marketplace.sol\":4172:4177  price */\n      dup4\n        /* \"marketplace.sol\":4146:4178  eventSellVicShose(tokenId,price) */\n      mload(0x40)\n      tag_355\n      swap3\n      swap2\n      swap1\n      tag_356\n      jump\t// in\n    tag_355:\n      mload(0x40)\n      dup1\n      swap2\n      sub\n      swap1\n      log1\n        /* \"marketplace.sol\":3703:4185  {... */\n      pop\n        /* \"marketplace.sol\":3627:4185  function SellVicShose(uint256 tokenId,uint256 price) external whenNotPaused {... */\n      pop\n      pop\n      jump\t// out\n        /* \"BEPPausable.sol\":666:788  function pause() public onlyOwner whenNotPaused returns (bool) {... */\n    tag_114:\n        /* \"BEPPausable.sol\":723:727  bool */\n      0x00\n        /* \"BEPOwnable.sol\":1085:1094  isOwner() */\n      tag_358\n        /* \"BEPOwnable.sol\":1085:1092  isOwner */\n      tag_126\n        /* \"BEPOwnable.sol\":1085:1094  isOwner() */\n      jump\t// in\n    tag_358:\n        /* \"BEPOwnable.sol\":1077:1131  require(isOwner(), \"Ownable: caller is not the owner\") */\n      tag_359\n      jumpi\n      mload(0x40)\n      0x08c379a000000000000000000000000000000000000000000000000000000000\n      dup2\n      mstore\n      0x04\n      add\n      tag_360\n      swap1\n      tag_185\n      jump\t// in\n    tag_360:\n      mload(0x40)\n      dup1\n      swap2\n      sub\n      swap1\n      revert\n    tag_359:\n        /* \"BEPPausable.sol\":424:430  paused */\n      0x00\n      0x14\n      swap1\n      sload\n      swap1\n      0x0100\n      exp\n      swap1\n      div\n      0xff\n      and\n        /* \"BEPPausable.sol\":423:430  !paused */\n      iszero\n        /* \"BEPPausable.sol\":415:431  require(!paused) */\n      tag_362\n      jumpi\n      0x00\n      dup1\n      revert\n    tag_362:\n        /* \"BEPPausable.sol\":744:748  true */\n      0x01\n        /* \"BEPPausable.sol\":735:741  paused */\n      0x00\n      0x14\n        /* \"BEPPausable.sol\":735:748  paused = true */\n      0x0100\n      exp\n      dup2\n      sload\n      dup2\n      0xff\n      mul\n      not\n      and\n      swap1\n      dup4\n      iszero\n      iszero\n      mul\n      or\n      swap1\n      sstore\n      pop\n        /* \"BEPPausable.sol\":759:766  Pause() */\n      0x6985a02210a168e66602d3235cb6db0e70f92b3ba4d376a33c0f3d9434bff625\n      mload(0x40)\n      mload(0x40)\n      dup1\n      swap2\n      sub\n      swap1\n      log1\n        /* \"BEPPausable.sol\":779:783  true */\n      0x01\n        /* \"BEPPausable.sol\":772:783  return true */\n      swap1\n      pop\n        /* \"BEPPausable.sol\":666:788  function pause() public onlyOwner whenNotPaused returns (bool) {... */\n      swap1\n      jump\t// out\n        /* \"marketplace.sol\":8600:8895  function sentT2Pool2Token(address tokenaddress, uint256 amount) external onlyOwner {... */\n    tag_119:\n        /* \"BEPOwnable.sol\":1085:1094  isOwner() */\n      tag_365\n        /* \"BEPOwnable.sol\":1085:1092  isOwner */\n      tag_126\n        /* \"BEPOwnable.sol\":1085:1094  isOwner() */\n      jump\t// in\n    tag_365:\n        /* \"BEPOwnable.sol\":1077:1131  require(isOwner(), \"Ownable: caller is not the owner\") */\n      tag_366\n      jumpi\n      mload(0x40)\n      0x08c379a000000000000000000000000000000000000000000000000000000000\n      dup2\n      mstore\n      0x04\n      add\n      tag_367\n      swap1\n      tag_185\n      jump\t// in\n    tag_367:\n      mload(0x40)\n      dup1\n      swap2\n      sub\n      swap1\n      revert\n    tag_366:\n        /* \"marketplace.sol\":8693:8711  uint256 newBalance */\n      0x00\n        /* \"marketplace.sol\":8721:8733  tokenaddress */\n      dup3\n        /* \"marketplace.sol\":8714:8744  IBEP20(tokenaddress).balanceOf */\n      0xffffffffffffffffffffffffffffffffffffffff\n      and\n      0x70a08231\n        /* \"marketplace.sol\":8753:8757  this */\n      address\n        /* \"marketplace.sol\":8714:8759  IBEP20(tokenaddress).balanceOf(address(this)) */\n      mload(0x40)\n      dup3\n      0xffffffff\n      and\n      0xe0\n      shl\n      dup2\n      mstore\n      0x04\n      add\n      tag_369\n      swap2\n      swap1\n      tag_48\n      jump\t// in\n    tag_369:\n      0x20\n      mload(0x40)\n      dup1\n      dup4\n      sub\n      dup2\n      dup7\n      dup1\n      extcodesize\n      iszero\n      dup1\n      iszero\n      tag_370\n      jumpi\n      0x00\n      dup1\n      revert\n    tag_370:\n      pop\n      gas\n      staticcall\n      iszero\n      dup1\n      iszero\n      tag_372\n      jumpi\n      returndatasize\n      0x00\n      dup1\n      returndatacopy\n      revert(0x00, returndatasize)\n    tag_372:\n      pop\n      pop\n      pop\n      pop\n      mload(0x40)\n      returndatasize\n      not(0x1f)\n      0x1f\n      dup3\n      add\n      and\n      dup3\n      add\n      dup1\n      0x40\n      mstore\n      pop\n      dup2\n      add\n      swap1\n      tag_373\n      swap2\n      swap1\n      tag_213\n      jump\t// in\n    tag_373:\n        /* \"marketplace.sol\":8693:8759  uint256 newBalance = IBEP20(tokenaddress).balanceOf(address(this)) */\n      swap1\n      pop\n        /* \"marketplace.sol\":8784:8785  0 */\n      0x00\n        /* \"marketplace.sol\":8777:8783  amount */\n      dup3\n        /* \"marketplace.sol\":8777:8785  amount>0 */\n      gt\n        /* \"marketplace.sol\":8777:8807  amount>0 && amount<=newBalance */\n      dup1\n      iszero\n      tag_374\n      jumpi\n      pop\n        /* \"marketplace.sol\":8797:8807  newBalance */\n      dup1\n        /* \"marketplace.sol\":8789:8795  amount */\n      dup3\n        /* \"marketplace.sol\":8789:8807  amount<=newBalance */\n      gt\n      iszero\n        /* \"marketplace.sol\":8777:8807  amount>0 && amount<=newBalance */\n    tag_374:\n        /* \"marketplace.sol\":8769:8834  require(amount>0 && amount<=newBalance,\"Amount > 0 && < Balance\") */\n      tag_375\n      jumpi\n      mload(0x40)\n      0x08c379a000000000000000000000000000000000000000000000000000000000\n      dup2\n      mstore\n      0x04\n      add\n      tag_376\n      swap1\n      tag_377\n      jump\t// in\n    tag_376:\n      mload(0x40)\n      dup1\n      swap2\n      sub\n      swap1\n      revert\n    tag_375:\n        /* \"marketplace.sol\":8851:8863  tokenaddress */\n      dup3\n        /* \"marketplace.sol\":8844:8873  IBEP20(tokenaddress).transfer */\n      0xffffffffffffffffffffffffffffffffffffffff\n      and\n      0xa9059cbb\n        /* \"marketplace.sol\":8874:8879  Pool2 */\n      0x08\n      0x00\n      swap1\n      sload\n      swap1\n      0x0100\n      exp\n      swap1\n      div\n      0xffffffffffffffffffffffffffffffffffffffff\n      and\n        /* \"marketplace.sol\":8881:8887  amount */\n      dup5\n        /* \"marketplace.sol\":8844:8888  IBEP20(tokenaddress).transfer(Pool2, amount) */\n      mload(0x40)\n      dup4\n      0xffffffff\n      and\n      0xe0\n      shl\n      dup2\n      mstore\n      0x04\n      add\n      tag_378\n      swap3\n      swap2\n      swap1\n      tag_258\n      jump\t// in\n    tag_378:\n      0x20\n      mload(0x40)\n      dup1\n      dup4\n      sub\n      dup2\n      0x00\n      dup8\n      dup1\n      extcodesize\n      iszero\n      dup1\n      iszero\n      tag_379\n      jumpi\n      0x00\n      dup1\n      revert\n    tag_379:\n      pop\n      gas\n      call\n      iszero\n      dup1\n      iszero\n      tag_381\n      jumpi\n      returndatasize\n      0x00\n      dup1\n      returndatacopy\n      revert(0x00, returndatasize)\n    tag_381:\n      pop\n      pop\n      pop\n      pop\n      mload(0x40)\n      returndatasize\n      not(0x1f)\n      0x1f\n      dup3\n      add\n      and\n      dup3\n      add\n      dup1\n      0x40\n      mstore\n      pop\n      dup2\n      add\n      swap1\n      tag_382\n      swap2\n      swap1\n      tag_242\n      jump\t// in\n    tag_382:\n      pop\n        /* \"marketplace.sol\":8683:8895  {... */\n      pop\n        /* \"marketplace.sol\":8600:8895  function sentT2Pool2Token(address tokenaddress, uint256 amount) external onlyOwner {... */\n      pop\n      pop\n      jump\t// out\n        /* \"BEPOwnable.sol\":899:970  function owner() public view returns (address) {... */\n    tag_122:\n        /* \"BEPOwnable.sol\":937:944  address */\n      0x00\n        /* \"BEPOwnable.sol\":959:965  _owner */\n      dup1\n      0x00\n      swap1\n      sload\n      swap1\n      0x0100\n      exp\n      swap1\n      div\n      0xffffffffffffffffffffffffffffffffffffffff\n      and\n        /* \"BEPOwnable.sol\":952:965  return _owner */\n      swap1\n      pop\n        /* \"BEPOwnable.sol\":899:970  function owner() public view returns (address) {... */\n      swap1\n      jump\t// out\n        /* \"BEPOwnable.sol\":1218:1304  function isOwner() public view returns (bool) {... */\n    tag_126:\n        /* \"BEPOwnable.sol\":1258:1262  bool */\n      0x00\n        /* \"BEPOwnable.sol\":1293:1299  _owner */\n      dup1\n      0x00\n      swap1\n      sload\n      swap1\n      0x0100\n      exp\n      swap1\n      div\n      0xffffffffffffffffffffffffffffffffffffffff\n      and\n        /* \"BEPOwnable.sol\":1277:1299  _msgSender() == _owner */\n      0xffffffffffffffffffffffffffffffffffffffff\n      and\n        /* \"BEPOwnable.sol\":1277:1289  _msgSender() */\n      tag_385\n        /* \"BEPOwnable.sol\":1277:1287  _msgSender */\n      tag_386\n        /* \"BEPOwnable.sol\":1277:1289  _msgSender() */\n      jump\t// in\n    tag_385:\n        /* \"BEPOwnable.sol\":1277:1299  _msgSender() == _owner */\n      0xffffffffffffffffffffffffffffffffffffffff\n      and\n      eq\n        /* \"BEPOwnable.sol\":1270:1299  return _msgSender() == _owner */\n      swap1\n      pop\n        /* \"BEPOwnable.sol\":1218:1304  function isOwner() public view returns (bool) {... */\n      swap1\n      jump\t// out\n        /* \"marketplace.sol\":7683:8440  function getSellingShose() external view returns (uint256[] memory _tokenID,address[] memory _owner, uint256[] memory _Price) {... */\n    tag_130:\n        /* \"marketplace.sol\":7733:7758  uint256[] memory _tokenID */\n      0x60\n        /* \"marketplace.sol\":7759:7782  address[] memory _owner */\n      dup1\n        /* \"marketplace.sol\":7784:7807  uint256[] memory _Price */\n      0x60\n        /* \"marketplace.sol\":7819:7842  uint256 shoseShellCount */\n      0x00\n        /* \"marketplace.sol\":7845:7858  allTokensSell */\n      0x0c\n        /* \"marketplace.sol\":7845:7865  allTokensSell.length */\n      dup1\n      sload\n      swap1\n      pop\n        /* \"marketplace.sol\":7819:7865  uint256 shoseShellCount = allTokensSell.length */\n      swap1\n      pop\n        /* \"marketplace.sol\":7875:7897  uint256[] memory Price */\n      0x00\n        /* \"marketplace.sol\":7914:7929  shoseShellCount */\n      dup2\n        /* \"marketplace.sol\":7900:7930  new uint256[](shoseShellCount) */\n      0xffffffffffffffff\n      dup2\n      gt\n      iszero\n      tag_388\n      jumpi\n      tag_389\n      tag_390\n      jump\t// in\n    tag_389:\n    tag_388:\n      mload(0x40)\n      swap1\n      dup1\n      dup3\n      mstore\n      dup1\n      0x20\n      mul\n      0x20\n      add\n      dup3\n      add\n      0x40\n      mstore\n      dup1\n      iszero\n      tag_391\n      jumpi\n      dup2\n      0x20\n      add\n      0x20\n      dup3\n      mul\n      dup1\n      calldatasize\n      dup4\n      calldatacopy\n      dup1\n      dup3\n      add\n      swap2\n      pop\n      pop\n      swap1\n      pop\n    tag_391:\n      pop\n        /* \"marketplace.sol\":7875:7930  uint256[] memory Price = new uint256[](shoseShellCount) */\n      swap1\n      pop\n        /* \"marketplace.sol\":7940:7962  address[] memory owner */\n      0x00\n        /* \"marketplace.sol\":7979:7994  shoseShellCount */\n      dup3\n        /* \"marketplace.sol\":7965:7995  new address[](shoseShellCount) */\n      0xffffffffffffffff\n      dup2\n      gt\n      iszero\n      tag_392\n      jumpi\n      tag_393\n      tag_390\n      jump\t// in\n    tag_393:\n    tag_392:\n      mload(0x40)\n      swap1\n      dup1\n      dup3\n      mstore\n      dup1\n      0x20\n      mul\n      0x20\n      add\n      dup3\n      add\n      0x40\n      mstore\n      dup1\n      iszero\n      tag_394\n      jumpi\n      dup2\n      0x20\n      add\n      0x20\n      dup3\n      mul\n      dup1\n      calldatasize\n      dup4\n      calldatacopy\n      dup1\n      dup3\n      add\n      swap2\n      pop\n      pop\n      swap1\n      pop\n    tag_394:\n      pop\n        /* \"marketplace.sol\":7940:7995  address[] memory owner = new address[](shoseShellCount) */\n      swap1\n      pop\n        /* \"marketplace.sol\":8010:8019  uint256 i */\n      0x00\n        /* \"marketplace.sol\":8005:8390  for (uint256 i = 0; i < shoseShellCount; i++) {... */\n    tag_395:\n        /* \"marketplace.sol\":8029:8044  shoseShellCount */\n      dup4\n        /* \"marketplace.sol\":8025:8026  i */\n      dup2\n        /* \"marketplace.sol\":8025:8044  i < shoseShellCount */\n      lt\n        /* \"marketplace.sol\":8005:8390  for (uint256 i = 0; i < shoseShellCount; i++) {... */\n      iszero\n      tag_396\n      jumpi\n        /* \"marketplace.sol\":8133:8144  shoseSeller */\n      0x0b\n        /* \"marketplace.sol\":8133:8162  shoseSeller[allTokensSell[i]] */\n      0x00\n        /* \"marketplace.sol\":8145:8158  allTokensSell */\n      0x0c\n        /* \"marketplace.sol\":8159:8160  i */\n      dup4\n        /* \"marketplace.sol\":8145:8161  allTokensSell[i] */\n      dup2\n      sload\n      dup2\n      lt\n      tag_398\n      jumpi\n      tag_399\n      tag_400\n      jump\t// in\n    tag_399:\n    tag_398:\n      swap1\n      0x00\n      mstore\n      keccak256(0x00, 0x20)\n      add\n      sload\n        /* \"marketplace.sol\":8133:8162  shoseSeller[allTokensSell[i]] */\n      dup2\n      mstore\n      0x20\n      add\n      swap1\n      dup2\n      mstore\n      0x20\n      add\n      0x00\n      keccak256\n      0x00\n      swap1\n      sload\n      swap1\n      0x0100\n      exp\n      swap1\n      div\n      0xffffffffffffffffffffffffffffffffffffffff\n      and\n        /* \"marketplace.sol\":8068:8162  IERC721Enumerable(ShoseNFTContract).ownerOf(allTokensSell[i]) == shoseSeller[allTokensSell[i]] */\n      0xffffffffffffffffffffffffffffffffffffffff\n      and\n        /* \"marketplace.sol\":8086:8102  ShoseNFTContract */\n      0x03\n      0x00\n      swap1\n      sload\n      swap1\n      0x0100\n      exp\n      swap1\n      div\n      0xffffffffffffffffffffffffffffffffffffffff\n      and\n        /* \"marketplace.sol\":8068:8111  IERC721Enumerable(ShoseNFTContract).ownerOf */\n      0xffffffffffffffffffffffffffffffffffffffff\n      and\n      0x6352211e\n        /* \"marketplace.sol\":8112:8125  allTokensSell */\n      0x0c\n        /* \"marketplace.sol\":8126:8127  i */\n      dup5\n        /* \"marketplace.sol\":8112:8128  allTokensSell[i] */\n      dup2\n      sload\n      dup2\n      lt\n      tag_402\n      jumpi\n      tag_403\n      tag_400\n      jump\t// in\n    tag_403:\n    tag_402:\n      swap1\n      0x00\n      mstore\n      keccak256(0x00, 0x20)\n      add\n      sload\n        /* \"marketplace.sol\":8068:8129  IERC721Enumerable(ShoseNFTContract).ownerOf(allTokensSell[i]) */\n      mload(0x40)\n      dup3\n      0xffffffff\n      and\n      0xe0\n      shl\n      dup2\n      mstore\n      0x04\n      add\n      tag_405\n      swap2\n      swap1\n      tag_77\n      jump\t// in\n    tag_405:\n      0x20\n      mload(0x40)\n      dup1\n      dup4\n      sub\n      dup2\n      dup7\n      dup1\n      extcodesize\n      iszero\n      dup1\n      iszero\n      tag_406\n      jumpi\n      0x00\n      dup1\n      revert\n    tag_406:\n      pop\n      gas\n      staticcall\n      iszero\n      dup1\n      iszero\n      tag_408\n      jumpi\n      returndatasize\n      0x00\n      dup1\n      returndatacopy\n      revert(0x00, returndatasize)\n    tag_408:\n      pop\n      pop\n      pop\n      pop\n      mload(0x40)\n      returndatasize\n      not(0x1f)\n      0x1f\n      dup3\n      add\n      and\n      dup3\n      add\n      dup1\n      0x40\n      mstore\n      pop\n      dup2\n      add\n      swap1\n      tag_409\n      swap2\n      swap1\n      tag_225\n      jump\t// in\n    tag_409:\n        /* \"marketplace.sol\":8068:8162  IERC721Enumerable(ShoseNFTContract).ownerOf(allTokensSell[i]) == shoseSeller[allTokensSell[i]] */\n      0xffffffffffffffffffffffffffffffffffffffff\n      and\n      eq\n        /* \"marketplace.sol\":8065:8380  if(IERC721Enumerable(ShoseNFTContract).ownerOf(allTokensSell[i]) == shoseSeller[allTokensSell[i]]){... */\n      iszero\n      tag_410\n      jumpi\n        /* \"marketplace.sol\":8192:8201  shoseSell */\n      0x0a\n        /* \"marketplace.sol\":8192:8219  shoseSell[allTokensSell[i]] */\n      0x00\n        /* \"marketplace.sol\":8202:8215  allTokensSell */\n      0x0c\n        /* \"marketplace.sol\":8216:8217  i */\n      dup4\n        /* \"marketplace.sol\":8202:8218  allTokensSell[i] */\n      dup2\n      sload\n      dup2\n      lt\n      tag_411\n      jumpi\n      tag_412\n      tag_400\n      jump\t// in\n    tag_412:\n    tag_411:\n      swap1\n      0x00\n      mstore\n      keccak256(0x00, 0x20)\n      add\n      sload\n        /* \"marketplace.sol\":8192:8219  shoseSell[allTokensSell[i]] */\n      dup2\n      mstore\n      0x20\n      add\n      swap1\n      dup2\n      mstore\n      0x20\n      add\n      0x00\n      keccak256\n      sload\n        /* \"marketplace.sol\":8181:8186  Price */\n      dup4\n        /* \"marketplace.sol\":8187:8188  i */\n      dup3\n        /* \"marketplace.sol\":8181:8189  Price[i] */\n      dup2\n      mload\n      dup2\n      lt\n      tag_414\n      jumpi\n      tag_415\n      tag_400\n      jump\t// in\n    tag_415:\n    tag_414:\n      0x20\n      mul\n      0x20\n      add\n      add\n        /* \"marketplace.sol\":8181:8219  Price[i] = shoseSell[allTokensSell[i]] */\n      dup2\n      dup2\n      mstore\n      pop\n      pop\n        /* \"marketplace.sol\":8248:8259  shoseSeller */\n      0x0b\n        /* \"marketplace.sol\":8248:8277  shoseSeller[allTokensSell[i]] */\n      0x00\n        /* \"marketplace.sol\":8260:8273  allTokensSell */\n      0x0c\n        /* \"marketplace.sol\":8274:8275  i */\n      dup4\n        /* \"marketplace.sol\":8260:8276  allTokensSell[i] */\n      dup2\n      sload\n      dup2\n      lt\n      tag_416\n      jumpi\n      tag_417\n      tag_400\n      jump\t// in\n    tag_417:\n    tag_416:\n      swap1\n      0x00\n      mstore\n      keccak256(0x00, 0x20)\n      add\n      sload\n        /* \"marketplace.sol\":8248:8277  shoseSeller[allTokensSell[i]] */\n      dup2\n      mstore\n      0x20\n      add\n      swap1\n      dup2\n      mstore\n      0x20\n      add\n      0x00\n      keccak256\n      0x00\n      swap1\n      sload\n      swap1\n      0x0100\n      exp\n      swap1\n      div\n      0xffffffffffffffffffffffffffffffffffffffff\n      and\n        /* \"marketplace.sol\":8237:8242  owner */\n      dup3\n        /* \"marketplace.sol\":8243:8244  i */\n      dup3\n        /* \"marketplace.sol\":8237:8245  owner[i] */\n      dup2\n      mload\n      dup2\n      lt\n      tag_419\n      jumpi\n      tag_420\n      tag_400\n      jump\t// in\n    tag_420:\n    tag_419:\n      0x20\n      mul\n      0x20\n      add\n      add\n        /* \"marketplace.sol\":8237:8277  owner[i] = shoseSeller[allTokensSell[i]] */\n      swap1\n      0xffffffffffffffffffffffffffffffffffffffff\n      and\n      swap1\n      dup2\n      0xffffffffffffffffffffffffffffffffffffffff\n      and\n      dup2\n      mstore\n      pop\n      pop\n        /* \"marketplace.sol\":8065:8380  if(IERC721Enumerable(ShoseNFTContract).ownerOf(allTokensSell[i]) == shoseSeller[allTokensSell[i]]){... */\n      jump(tag_421)\n    tag_410:\n        /* \"marketplace.sol\":8325:8326  0 */\n      0x00\n        /* \"marketplace.sol\":8314:8319  Price */\n      dup4\n        /* \"marketplace.sol\":8320:8321  i */\n      dup3\n        /* \"marketplace.sol\":8314:8322  Price[i] */\n      dup2\n      mload\n      dup2\n      lt\n      tag_422\n      jumpi\n      tag_423\n      tag_400\n      jump\t// in\n    tag_423:\n    tag_422:\n      0x20\n      mul\n      0x20\n      add\n      add\n        /* \"marketplace.sol\":8314:8326  Price[i] = 0 */\n      dup2\n      dup2\n      mstore\n      pop\n      pop\n        /* \"marketplace.sol\":8363:8364  0 */\n      0x00\n        /* \"marketplace.sol\":8344:8349  owner */\n      dup3\n        /* \"marketplace.sol\":8350:8351  i */\n      dup3\n        /* \"marketplace.sol\":8344:8352  owner[i] */\n      dup2\n      mload\n      dup2\n      lt\n      tag_424\n      jumpi\n      tag_425\n      tag_400\n      jump\t// in\n    tag_425:\n    tag_424:\n      0x20\n      mul\n      0x20\n      add\n      add\n        /* \"marketplace.sol\":8344:8365  owner[i] = address(0) */\n      swap1\n      0xffffffffffffffffffffffffffffffffffffffff\n      and\n      swap1\n      dup2\n      0xffffffffffffffffffffffffffffffffffffffff\n      and\n      dup2\n      mstore\n      pop\n      pop\n        /* \"marketplace.sol\":8065:8380  if(IERC721Enumerable(ShoseNFTContract).ownerOf(allTokensSell[i]) == shoseSeller[allTokensSell[i]]){... */\n    tag_421:\n        /* \"marketplace.sol\":8046:8049  i++ */\n      dup1\n      dup1\n      tag_426\n      swap1\n      tag_427\n      jump\t// in\n    tag_426:\n      swap2\n      pop\n      pop\n        /* \"marketplace.sol\":8005:8390  for (uint256 i = 0; i < shoseShellCount; i++) {... */\n      jump(tag_395)\n    tag_396:\n      pop\n        /* \"marketplace.sol\":8407:8420  allTokensSell */\n      0x0c\n        /* \"marketplace.sol\":8421:8426  owner */\n      dup2\n        /* \"marketplace.sol\":8427:8432  Price */\n      dup4\n        /* \"marketplace.sol\":8399:8433  return (allTokensSell,owner,Price) */\n      dup3\n      dup1\n      sload\n      dup1\n      0x20\n      mul\n      0x20\n      add\n      mload(0x40)\n      swap1\n      dup2\n      add\n      0x40\n      mstore\n      dup1\n      swap3\n      swap2\n      swap1\n      dup2\n      dup2\n      mstore\n      0x20\n      add\n      dup3\n      dup1\n      sload\n      dup1\n      iszero\n      tag_428\n      jumpi\n      0x20\n      mul\n      dup3\n      add\n      swap2\n      swap1\n      0x00\n      mstore\n      keccak256(0x00, 0x20)\n      swap1\n    tag_429:\n      dup2\n      sload\n      dup2\n      mstore\n      0x20\n      add\n      swap1\n      0x01\n      add\n      swap1\n      dup1\n      dup4\n      gt\n      tag_429\n      jumpi\n    tag_428:\n      pop\n      pop\n      pop\n      pop\n      pop\n      swap3\n      pop\n      swap6\n      pop\n      swap6\n      pop\n      swap6\n      pop\n      pop\n      pop\n      pop\n        /* \"marketplace.sol\":7683:8440  function getSellingShose() external view returns (uint256[] memory _tokenID,address[] memory _owner, uint256[] memory _Price) {... */\n      swap1\n      swap2\n      swap3\n      jump\t// out\n        /* \"marketplace.sol\":1871:2018  function setLiquidPool(address _LiquidPool) external onlyOwner {... */\n    tag_136:\n        /* \"BEPOwnable.sol\":1085:1094  isOwner() */\n      tag_431\n        /* \"BEPOwnable.sol\":1085:1092  isOwner */\n      tag_126\n        /* \"BEPOwnable.sol\":1085:1094  isOwner() */\n      jump\t// in\n    tag_431:\n        /* \"BEPOwnable.sol\":1077:1131  require(isOwner(), \"Ownable: caller is not the owner\") */\n      tag_432\n      jumpi\n      mload(0x40)\n      0x08c379a000000000000000000000000000000000000000000000000000000000\n      dup2\n      mstore\n      0x04\n      add\n      tag_433\n      swap1\n      tag_185\n      jump\t// in\n    tag_433:\n      mload(0x40)\n      dup1\n      swap2\n      sub\n      swap1\n      revert\n    tag_432:\n        /* \"marketplace.sol\":1957:1968  _LiquidPool */\n      dup1\n        /* \"marketplace.sol\":1944:1954  LiquidPool */\n      0x02\n      0x00\n        /* \"marketplace.sol\":1944:1968  LiquidPool = _LiquidPool */\n      0x0100\n      exp\n      dup2\n      sload\n      dup2\n      0xffffffffffffffffffffffffffffffffffffffff\n      mul\n      not\n      and\n      swap1\n      dup4\n      0xffffffffffffffffffffffffffffffffffffffff\n      and\n      mul\n      or\n      swap1\n      sstore\n      pop\n        /* \"marketplace.sol\":1983:2011  changeLiquidPool(LiquidPool) */\n      0xacdd85d235b5b49226c2c4f2b72cb01fa1cc3ae64bb843a6def27788d05b1b60\n        /* \"marketplace.sol\":2000:2010  LiquidPool */\n      0x02\n      0x00\n      swap1\n      sload\n      swap1\n      0x0100\n      exp\n      swap1\n      div\n      0xffffffffffffffffffffffffffffffffffffffff\n      and\n        /* \"marketplace.sol\":1983:2011  changeLiquidPool(LiquidPool) */\n      mload(0x40)\n      tag_435\n      swap2\n      swap1\n      tag_48\n      jump\t// in\n    tag_435:\n      mload(0x40)\n      dup1\n      swap2\n      sub\n      swap1\n      log1\n        /* \"marketplace.sol\":1871:2018  function setLiquidPool(address _LiquidPool) external onlyOwner {... */\n      pop\n      jump\t// out\n        /* \"marketplace.sol\":486:506  address public Pool2 */\n    tag_139:\n      0x08\n      0x00\n      swap1\n      sload\n      swap1\n      0x0100\n      exp\n      swap1\n      div\n      0xffffffffffffffffffffffffffffffffffffffff\n      and\n      dup2\n      jump\t// out\n        /* \"marketplace.sol\":369:395  address public VIMContract */\n    tag_143:\n      0x04\n      0x00\n      swap1\n      sload\n      swap1\n      0x0100\n      exp\n      swap1\n      div\n      0xffffffffffffffffffffffffffffffffffffffff\n      and\n      dup2\n      jump\t// out\n        /* \"marketplace.sol\":8901:9009  function getBalanceBNB() public view virtual returns (uint256) {... */\n    tag_147:\n        /* \"marketplace.sol\":8955:8962  uint256 */\n      0x00\n        /* \"marketplace.sol\":8981:9002  address(this).balance */\n      selfbalance\n        /* \"marketplace.sol\":8974:9002  return address(this).balance */\n      swap1\n      pop\n        /* \"marketplace.sol\":8901:9009  function getBalanceBNB() public view virtual returns (uint256) {... */\n      swap1\n      jump\t// out\n        /* \"marketplace.sol\":434:455  uint256 public MinBnB */\n    tag_151:\n      sload(0x06)\n      dup2\n      jump\t// out\n        /* \"marketplace.sol\":1638:1722  function setPool2(address _Pool2) external onlyOwner {... */\n    tag_156:\n        /* \"BEPOwnable.sol\":1085:1094  isOwner() */\n      tag_438\n        /* \"BEPOwnable.sol\":1085:1092  isOwner */\n      tag_126\n        /* \"BEPOwnable.sol\":1085:1094  isOwner() */\n      jump\t// in\n    tag_438:\n        /* \"BEPOwnable.sol\":1077:1131  require(isOwner(), \"Ownable: caller is not the owner\") */\n      tag_439\n      jumpi\n      mload(0x40)\n      0x08c379a000000000000000000000000000000000000000000000000000000000\n      dup2\n      mstore\n      0x04\n      add\n      tag_440\n      swap1\n      tag_185\n      jump\t// in\n    tag_440:\n      mload(0x40)\n      dup1\n      swap2\n      sub\n      swap1\n      revert\n    tag_439:\n        /* \"marketplace.sol\":1709:1715  _Pool2 */\n      dup1\n        /* \"marketplace.sol\":1701:1706  Pool2 */\n      0x08\n      0x00\n        /* \"marketplace.sol\":1701:1715  Pool2 = _Pool2 */\n      0x0100\n      exp\n      dup2\n      sload\n      dup2\n      0xffffffffffffffffffffffffffffffffffffffff\n      mul\n      not\n      and\n      swap1\n      dup4\n      0xffffffffffffffffffffffffffffffffffffffff\n      and\n      mul\n      or\n      swap1\n      sstore\n      pop\n        /* \"marketplace.sol\":1638:1722  function setPool2(address _Pool2) external onlyOwner {... */\n      pop\n      jump\t// out\n        /* \"marketplace.sol\":9014:9248  function sentT2Pool2BNB(uint256 amount) external onlyOwner {... */\n    tag_160:\n        /* \"BEPOwnable.sol\":1085:1094  isOwner() */\n      tag_443\n        /* \"BEPOwnable.sol\":1085:1092  isOwner */\n      tag_126\n        /* \"BEPOwnable.sol\":1085:1094  isOwner() */\n      jump\t// in\n    tag_443:\n        /* \"BEPOwnable.sol\":1077:1131  require(isOwner(), \"Ownable: caller is not the owner\") */\n      tag_444\n      jumpi\n      mload(0x40)\n      0x08c379a000000000000000000000000000000000000000000000000000000000\n      dup2\n      mstore\n      0x04\n      add\n      tag_445\n      swap1\n      tag_185\n      jump\t// in\n    tag_445:\n      mload(0x40)\n      dup1\n      swap2\n      sub\n      swap1\n      revert\n    tag_444:\n        /* \"marketplace.sol\":9083:9101  uint256 newBalance */\n      0x00\n        /* \"marketplace.sol\":9104:9125  address(this).balance */\n      selfbalance\n        /* \"marketplace.sol\":9083:9125  uint256 newBalance = address(this).balance */\n      swap1\n      pop\n        /* \"marketplace.sol\":9150:9151  0 */\n      0x00\n        /* \"marketplace.sol\":9143:9149  amount */\n      dup3\n        /* \"marketplace.sol\":9143:9151  amount>0 */\n      gt\n        /* \"marketplace.sol\":9143:9173  amount>0 && amount<=newBalance */\n      dup1\n      iszero\n      tag_447\n      jumpi\n      pop\n        /* \"marketplace.sol\":9163:9173  newBalance */\n      dup1\n        /* \"marketplace.sol\":9155:9161  amount */\n      dup3\n        /* \"marketplace.sol\":9155:9173  amount<=newBalance */\n      gt\n      iszero\n        /* \"marketplace.sol\":9143:9173  amount>0 && amount<=newBalance */\n    tag_447:\n        /* \"marketplace.sol\":9135:9200  require(amount>0 && amount<=newBalance,\"Amount > 0 && < Balance\") */\n      tag_448\n      jumpi\n      mload(0x40)\n      0x08c379a000000000000000000000000000000000000000000000000000000000\n      dup2\n      mstore\n      0x04\n      add\n      tag_449\n      swap1\n      tag_377\n      jump\t// in\n    tag_449:\n      mload(0x40)\n      dup1\n      swap2\n      sub\n      swap1\n      revert\n    tag_448:\n        /* \"marketplace.sol\":9218:9223  Pool2 */\n      0x08\n      0x00\n      swap1\n      sload\n      swap1\n      0x0100\n      exp\n      swap1\n      div\n      0xffffffffffffffffffffffffffffffffffffffff\n      and\n        /* \"marketplace.sol\":9210:9233  payable(Pool2).transfer */\n      0xffffffffffffffffffffffffffffffffffffffff\n      and\n        /* \"marketplace.sol\":9210:9241  payable(Pool2).transfer(amount) */\n      0x08fc\n        /* \"marketplace.sol\":9234:9240  amount */\n      dup4\n        /* \"marketplace.sol\":9210:9241  payable(Pool2).transfer(amount) */\n      swap1\n      dup2\n      iszero\n      mul\n      swap1\n      mload(0x40)\n      0x00\n      mload(0x40)\n      dup1\n      dup4\n      sub\n      dup2\n      dup6\n      dup9\n      dup9\n      call\n      swap4\n      pop\n      pop\n      pop\n      pop\n      iszero\n      dup1\n      iszero\n      tag_451\n      jumpi\n      returndatasize\n      0x00\n      dup1\n      returndatacopy\n      revert(0x00, returndatasize)\n    tag_451:\n      pop\n        /* \"marketplace.sol\":9073:9248  {... */\n      pop\n        /* \"marketplace.sol\":9014:9248  function sentT2Pool2BNB(uint256 amount) external onlyOwner {... */\n      pop\n      jump\t// out\n        /* \"marketplace.sol\":332:363  address public ShoseNFTContract */\n    tag_163:\n      0x03\n      0x00\n      swap1\n      sload\n      swap1\n      0x0100\n      exp\n      swap1\n      div\n      0xffffffffffffffffffffffffffffffffffffffff\n      and\n      dup2\n      jump\t// out\n        /* \"marketplace.sol\":2372:2496  function setMinBNB(uint256  _MinBnB) external onlyOwner {... */\n    tag_168:\n        /* \"BEPOwnable.sol\":1085:1094  isOwner() */\n      tag_453\n        /* \"BEPOwnable.sol\":1085:1092  isOwner */\n      tag_126\n        /* \"BEPOwnable.sol\":1085:1094  isOwner() */\n      jump\t// in\n    tag_453:\n        /* \"BEPOwnable.sol\":1077:1131  require(isOwner(), \"Ownable: caller is not the owner\") */\n      tag_454\n      jumpi\n      mload(0x40)\n      0x08c379a000000000000000000000000000000000000000000000000000000000\n      dup2\n      mstore\n      0x04\n      add\n      tag_455\n      swap1\n      tag_185\n      jump\t// in\n    tag_455:\n      mload(0x40)\n      dup1\n      swap2\n      sub\n      swap1\n      revert\n    tag_454:\n        /* \"marketplace.sol\":2447:2454  _MinBnB */\n      dup1\n        /* \"marketplace.sol\":2438:2444  MinBnB */\n      0x06\n        /* \"marketplace.sol\":2438:2454  MinBnB = _MinBnB */\n      dup2\n      swap1\n      sstore\n      pop\n        /* \"marketplace.sol\":2469:2489  changeMinBnB(MinBnB) */\n      0x4d8e30ff458bebdd848488669e63d632954487ca1bc64c28f3c920f74a5f8594\n        /* \"marketplace.sol\":2482:2488  MinBnB */\n      sload(0x06)\n        /* \"marketplace.sol\":2469:2489  changeMinBnB(MinBnB) */\n      mload(0x40)\n      tag_457\n      swap2\n      swap1\n      tag_77\n      jump\t// in\n    tag_457:\n      mload(0x40)\n      dup1\n      swap2\n      sub\n      swap1\n      log1\n        /* \"marketplace.sol\":2372:2496  function setMinBNB(uint256  _MinBnB) external onlyOwner {... */\n      pop\n      jump\t// out\n        /* \"marketplace.sol\":2611:2952  function getMINPrice() public view virtual returns (uint256) {... */\n    tag_171:\n        /* \"marketplace.sol\":2663:2670  uint256 */\n      0x00\n        /* \"marketplace.sol\":2682:2701  uint256 wbnbbalance */\n      dup1\n        /* \"marketplace.sol\":2711:2723  WBNBContract */\n      0x05\n      0x00\n      swap1\n      sload\n      swap1\n      0x0100\n      exp\n      swap1\n      div\n      0xffffffffffffffffffffffffffffffffffffffff\n      and\n        /* \"marketplace.sol\":2704:2734  IBEP20(WBNBContract).balanceOf */\n      0xffffffffffffffffffffffffffffffffffffffff\n      and\n      0x70a08231\n        /* \"marketplace.sol\":2735:2745  LiquidPool */\n      0x02\n      0x00\n      swap1\n      sload\n      swap1\n      0x0100\n      exp\n      swap1\n      div\n      0xffffffffffffffffffffffffffffffffffffffff\n      and\n        /* \"marketplace.sol\":2704:2746  IBEP20(WBNBContract).balanceOf(LiquidPool) */\n      mload(0x40)\n      dup3\n      0xffffffff\n      and\n      0xe0\n      shl\n      dup2\n      mstore\n      0x04\n      add\n      tag_459\n      swap2\n      swap1\n      tag_48\n      jump\t// in\n    tag_459:\n      0x20\n      mload(0x40)\n      dup1\n      dup4\n      sub\n      dup2\n      dup7\n      dup1\n      extcodesize\n      iszero\n      dup1\n      iszero\n      tag_460\n      jumpi\n      0x00\n      dup1\n      revert\n    tag_460:\n      pop\n      gas\n      staticcall\n      iszero\n      dup1\n      iszero\n      tag_462\n      jumpi\n      returndatasize\n      0x00\n      dup1\n      returndatacopy\n      revert(0x00, returndatasize)\n    tag_462:\n      pop\n      pop\n      pop\n      pop\n      mload(0x40)\n      returndatasize\n      not(0x1f)\n      0x1f\n      dup3\n      add\n      and\n      dup3\n      add\n      dup1\n      0x40\n      mstore\n      pop\n      dup2\n      add\n      swap1\n      tag_463\n      swap2\n      swap1\n      tag_213\n      jump\t// in\n    tag_463:\n        /* \"marketplace.sol\":2682:2746  uint256 wbnbbalance = IBEP20(WBNBContract).balanceOf(LiquidPool) */\n      swap1\n      pop\n        /* \"marketplace.sol\":2756:2774  uint256 vimbalance */\n      0x00\n        /* \"marketplace.sol\":2784:2795  VIMContract */\n      0x04\n      0x00\n      swap1\n      sload\n      swap1\n      0x0100\n      exp\n      swap1\n      div\n      0xffffffffffffffffffffffffffffffffffffffff\n      and\n        /* \"marketplace.sol\":2777:2806  IBEP20(VIMContract).balanceOf */\n      0xffffffffffffffffffffffffffffffffffffffff\n      and\n      0x70a08231\n        /* \"marketplace.sol\":2807:2817  LiquidPool */\n      0x02\n      0x00\n      swap1\n      sload\n      swap1\n      0x0100\n      exp\n      swap1\n      div\n      0xffffffffffffffffffffffffffffffffffffffff\n      and\n        /* \"marketplace.sol\":2777:2818  IBEP20(VIMContract).balanceOf(LiquidPool) */\n      mload(0x40)\n      dup3\n      0xffffffff\n      and\n      0xe0\n      shl\n      dup2\n      mstore\n      0x04\n      add\n      tag_464\n      swap2\n      swap1\n      tag_48\n      jump\t// in\n    tag_464:\n      0x20\n      mload(0x40)\n      dup1\n      dup4\n      sub\n      dup2\n      dup7\n      dup1\n      extcodesize\n      iszero\n      dup1\n      iszero\n      tag_465\n      jumpi\n      0x00\n      dup1\n      revert\n    tag_465:\n      pop\n      gas\n      staticcall\n      iszero\n      dup1\n      iszero\n      tag_467\n      jumpi\n      returndatasize\n      0x00\n      dup1\n      returndatacopy\n      revert(0x00, returndatasize)\n    tag_467:\n      pop\n      pop\n      pop\n      pop\n      mload(0x40)\n      returndatasize\n      not(0x1f)\n      0x1f\n      dup3\n      add\n      and\n      dup3\n      add\n      dup1\n      0x40\n      mstore\n      pop\n      dup2\n      add\n      swap1\n      tag_468\n      swap2\n      swap1\n      tag_213\n      jump\t// in\n    tag_468:\n        /* \"marketplace.sol\":2756:2818  uint256 vimbalance = IBEP20(VIMContract).balanceOf(LiquidPool) */\n      swap1\n      pop\n        /* \"marketplace.sol\":2828:2844  uint256 bnbprice */\n      0x00\n        /* \"marketplace.sol\":2858:2869  wbnbbalance */\n      dup3\n        /* \"marketplace.sol\":2847:2857  vimbalance */\n      dup3\n        /* \"marketplace.sol\":2847:2869  vimbalance/wbnbbalance */\n      tag_469\n      swap2\n      swap1\n      tag_309\n      jump\t// in\n    tag_469:\n        /* \"marketplace.sol\":2828:2869  uint256 bnbprice = vimbalance/wbnbbalance */\n      swap1\n      pop\n        /* \"marketplace.sol\":2879:2895  uint256 minprice */\n      0x00\n        /* \"marketplace.sol\":2918:2920  10 */\n      0x0a\n        /* \"marketplace.sol\":2909:2915  MinBnB */\n      sload(0x06)\n        /* \"marketplace.sol\":2898:2906  bnbprice */\n      dup4\n        /* \"marketplace.sol\":2898:2915  bnbprice * MinBnB */\n      tag_470\n      swap2\n      swap1\n      tag_286\n      jump\t// in\n    tag_470:\n        /* \"marketplace.sol\":2898:2920  bnbprice * MinBnB / 10 */\n      tag_471\n      swap2\n      swap1\n      tag_309\n      jump\t// in\n    tag_471:\n        /* \"marketplace.sol\":2879:2920  uint256 minprice = bnbprice * MinBnB / 10 */\n      swap1\n      pop\n        /* \"marketplace.sol\":2937:2945  minprice */\n      dup1\n        /* \"marketplace.sol\":2930:2945  return minprice */\n      swap5\n      pop\n      pop\n      pop\n      pop\n      pop\n        /* \"marketplace.sol\":2611:2952  function getMINPrice() public view virtual returns (uint256) {... */\n      swap1\n      jump\t// out\n        /* \"marketplace.sol\":1729:1864  function setTreasury(address _Treasury) external onlyOwner {... */\n    tag_176:\n        /* \"BEPOwnable.sol\":1085:1094  isOwner() */\n      tag_473\n        /* \"BEPOwnable.sol\":1085:1092  isOwner */\n      tag_126\n        /* \"BEPOwnable.sol\":1085:1094  isOwner() */\n      jump\t// in\n    tag_473:\n        /* \"BEPOwnable.sol\":1077:1131  require(isOwner(), \"Ownable: caller is not the owner\") */\n      tag_474\n      jumpi\n      mload(0x40)\n      0x08c379a000000000000000000000000000000000000000000000000000000000\n      dup2\n      mstore\n      0x04\n      add\n      tag_475\n      swap1\n      tag_185\n      jump\t// in\n    tag_475:\n      mload(0x40)\n      dup1\n      swap2\n      sub\n      swap1\n      revert\n    tag_474:\n        /* \"marketplace.sol\":1809:1818  _Treasury */\n      dup1\n        /* \"marketplace.sol\":1798:1806  Treasury */\n      0x01\n      0x00\n        /* \"marketplace.sol\":1798:1818  Treasury = _Treasury */\n      0x0100\n      exp\n      dup2\n      sload\n      dup2\n      0xffffffffffffffffffffffffffffffffffffffff\n      mul\n      not\n      and\n      swap1\n      dup4\n      0xffffffffffffffffffffffffffffffffffffffff\n      and\n      mul\n      or\n      swap1\n      sstore\n      pop\n        /* \"marketplace.sol\":1833:1857  changeTreasury(Treasury) */\n      0xb14f2a39bb21fda32827bbdb4be629c94036e10a3f6055a6454f884ca1b33fa1\n        /* \"marketplace.sol\":1848:1856  Treasury */\n      0x01\n      0x00\n      swap1\n      sload\n      swap1\n      0x0100\n      exp\n      swap1\n      div\n      0xffffffffffffffffffffffffffffffffffffffff\n      and\n        /* \"marketplace.sol\":1833:1857  changeTreasury(Treasury) */\n      mload(0x40)\n      tag_477\n      swap2\n      swap1\n      tag_48\n      jump\t// in\n    tag_477:\n      mload(0x40)\n      dup1\n      swap2\n      sub\n      swap1\n      log1\n        /* \"marketplace.sol\":1729:1864  function setTreasury(address _Treasury) external onlyOwner {... */\n      pop\n      jump\t// out\n        /* \"BEPOwnable.sol\":1896:1997  function transferOwnership(address newOwner) public onlyOwner {... */\n    tag_180:\n        /* \"BEPOwnable.sol\":1085:1094  isOwner() */\n      tag_479\n        /* \"BEPOwnable.sol\":1085:1092  isOwner */\n      tag_126\n        /* \"BEPOwnable.sol\":1085:1094  isOwner() */\n      jump\t// in\n    tag_479:\n        /* \"BEPOwnable.sol\":1077:1131  require(isOwner(), \"Ownable: caller is not the owner\") */\n      tag_480\n      jumpi\n      mload(0x40)\n      0x08c379a000000000000000000000000000000000000000000000000000000000\n      dup2\n      mstore\n      0x04\n      add\n      tag_481\n      swap1\n      tag_185\n      jump\t// in\n    tag_481:\n      mload(0x40)\n      dup1\n      swap2\n      sub\n      swap1\n      revert\n    tag_480:\n        /* \"BEPOwnable.sol\":1964:1992  _transferOwnership(newOwner) */\n      tag_483\n        /* \"BEPOwnable.sol\":1983:1991  newOwner */\n      dup2\n        /* \"BEPOwnable.sol\":1964:1982  _transferOwnership */\n      tag_484\n        /* \"BEPOwnable.sol\":1964:1992  _transferOwnership(newOwner) */\n      jump\t// in\n    tag_483:\n        /* \"BEPOwnable.sol\":1896:1997  function transferOwnership(address newOwner) public onlyOwner {... */\n      pop\n      jump\t// out\n        /* \"marketplace.sol\":6550:6977  function removeNFTSell(uint256 tokenId) internal{... */\n    tag_230:\n        /* \"marketplace.sol\":6615:6624  shoseSell */\n      0x0a\n        /* \"marketplace.sol\":6615:6633  shoseSell[tokenId] */\n      0x00\n        /* \"marketplace.sol\":6625:6632  tokenId */\n      dup3\n        /* \"marketplace.sol\":6615:6633  shoseSell[tokenId] */\n      dup2\n      mstore\n      0x20\n      add\n      swap1\n      dup2\n      mstore\n      0x20\n      add\n      0x00\n      keccak256\n        /* \"marketplace.sol\":6608:6633  delete shoseSell[tokenId] */\n      0x00\n      swap1\n      sstore\n        /* \"marketplace.sol\":6647:6656  uint256 i */\n      0x00\n        /* \"marketplace.sol\":6643:6971  for(uint256 i = 0; i < allTokensSell.length; i++){... */\n    tag_486:\n        /* \"marketplace.sol\":6666:6679  allTokensSell */\n      0x0c\n        /* \"marketplace.sol\":6666:6686  allTokensSell.length */\n      dup1\n      sload\n      swap1\n      pop\n        /* \"marketplace.sol\":6662:6663  i */\n      dup2\n        /* \"marketplace.sol\":6662:6686  i < allTokensSell.length */\n      lt\n        /* \"marketplace.sol\":6643:6971  for(uint256 i = 0; i < allTokensSell.length; i++){... */\n      iszero\n      tag_487\n      jumpi\n        /* \"marketplace.sol\":6729:6736  tokenId */\n      dup2\n        /* \"marketplace.sol\":6709:6722  allTokensSell */\n      0x0c\n        /* \"marketplace.sol\":6723:6724  i */\n      dup3\n        /* \"marketplace.sol\":6709:6725  allTokensSell[i] */\n      dup2\n      sload\n      dup2\n      lt\n      tag_489\n      jumpi\n      tag_490\n      tag_400\n      jump\t// in\n    tag_490:\n    tag_489:\n      swap1\n      0x00\n      mstore\n      keccak256(0x00, 0x20)\n      add\n      sload\n        /* \"marketplace.sol\":6709:6736  allTokensSell[i] == tokenId */\n      eq\n        /* \"marketplace.sol\":6706:6961  if(allTokensSell[i] == tokenId){... */\n      iszero\n      tag_492\n      jumpi\n        /* \"marketplace.sol\":6759:6768  uint256 k */\n      0x00\n        /* \"marketplace.sol\":6771:6772  i */\n      dup2\n        /* \"marketplace.sol\":6759:6772  uint256 k = i */\n      swap1\n      pop\n        /* \"marketplace.sol\":6755:6886  for(uint256 k = i; k < allTokensSell.length - 1; k++){... */\n    tag_493:\n        /* \"marketplace.sol\":6801:6802  1 */\n      0x01\n        /* \"marketplace.sol\":6778:6791  allTokensSell */\n      0x0c\n        /* \"marketplace.sol\":6778:6798  allTokensSell.length */\n      dup1\n      sload\n      swap1\n      pop\n        /* \"marketplace.sol\":6778:6802  allTokensSell.length - 1 */\n      tag_496\n      swap2\n      swap1\n      tag_306\n      jump\t// in\n    tag_496:\n        /* \"marketplace.sol\":6774:6775  k */\n      dup2\n        /* \"marketplace.sol\":6774:6802  k < allTokensSell.length - 1 */\n      lt\n        /* \"marketplace.sol\":6755:6886  for(uint256 k = i; k < allTokensSell.length - 1; k++){... */\n      iszero\n      tag_494\n      jumpi\n        /* \"marketplace.sol\":6849:6862  allTokensSell */\n      0x0c\n        /* \"marketplace.sol\":6865:6866  1 */\n      0x01\n        /* \"marketplace.sol\":6863:6864  k */\n      dup3\n        /* \"marketplace.sol\":6863:6866  k+1 */\n      tag_497\n      swap2\n      swap1\n      tag_498\n      jump\t// in\n    tag_497:\n        /* \"marketplace.sol\":6849:6867  allTokensSell[k+1] */\n      dup2\n      sload\n      dup2\n      lt\n      tag_499\n      jumpi\n      tag_500\n      tag_400\n      jump\t// in\n    tag_500:\n    tag_499:\n      swap1\n      0x00\n      mstore\n      keccak256(0x00, 0x20)\n      add\n      sload\n        /* \"marketplace.sol\":6830:6843  allTokensSell */\n      0x0c\n        /* \"marketplace.sol\":6844:6845  k */\n      dup3\n        /* \"marketplace.sol\":6830:6846  allTokensSell[k] */\n      dup2\n      sload\n      dup2\n      lt\n      tag_502\n      jumpi\n      tag_503\n      tag_400\n      jump\t// in\n    tag_503:\n    tag_502:\n      swap1\n      0x00\n      mstore\n      keccak256(0x00, 0x20)\n      add\n        /* \"marketplace.sol\":6830:6867  allTokensSell[k] = allTokensSell[k+1] */\n      dup2\n      swap1\n      sstore\n      pop\n        /* \"marketplace.sol\":6804:6807  k++ */\n      dup1\n      dup1\n      tag_505\n      swap1\n      tag_427\n      jump\t// in\n    tag_505:\n      swap2\n      pop\n      pop\n        /* \"marketplace.sol\":6755:6886  for(uint256 k = i; k < allTokensSell.length - 1; k++){... */\n      jump(tag_493)\n    tag_494:\n      pop\n        /* \"marketplace.sol\":6903:6916  allTokensSell */\n      0x0c\n        /* \"marketplace.sol\":6903:6922  allTokensSell.pop() */\n      dup1\n      sload\n      dup1\n      tag_506\n      jumpi\n      tag_507\n      tag_508\n      jump\t// in\n    tag_507:\n    tag_506:\n      0x01\n      swap1\n      sub\n      dup2\n      dup2\n      swap1\n      0x00\n      mstore\n      keccak256(0x00, 0x20)\n      add\n      0x00\n      swap1\n      sstore\n      swap1\n      sstore\n        /* \"marketplace.sol\":6940:6947  return; */\n      pop\n      jump(tag_485)\n        /* \"marketplace.sol\":6706:6961  if(allTokensSell[i] == tokenId){... */\n    tag_492:\n        /* \"marketplace.sol\":6688:6691  i++ */\n      dup1\n      dup1\n      tag_510\n      swap1\n      tag_427\n      jump\t// in\n    tag_510:\n      swap2\n      pop\n      pop\n        /* \"marketplace.sol\":6643:6971  for(uint256 i = 0; i < allTokensSell.length; i++){... */\n      jump(tag_486)\n    tag_487:\n      pop\n        /* \"marketplace.sol\":6550:6977  function removeNFTSell(uint256 tokenId) internal{... */\n    tag_485:\n      pop\n      jump\t// out\n        /* \"marketplace.sol\":6983:7677  function addNFTSell(uint256 tokenId, uint256 price, address seller) internal{... */\n    tag_354:\n        /* \"marketplace.sol\":7090:7095  price */\n      dup2\n        /* \"marketplace.sol\":7069:7078  shoseSell */\n      0x0a\n        /* \"marketplace.sol\":7069:7087  shoseSell[tokenId] */\n      0x00\n        /* \"marketplace.sol\":7079:7086  tokenId */\n      dup6\n        /* \"marketplace.sol\":7069:7087  shoseSell[tokenId] */\n      dup2\n      mstore\n      0x20\n      add\n      swap1\n      dup2\n      mstore\n      0x20\n      add\n      0x00\n      keccak256\n        /* \"marketplace.sol\":7069:7095  shoseSell[tokenId] = price */\n      dup2\n      swap1\n      sstore\n      pop\n        /* \"marketplace.sol\":7128:7134  seller */\n      dup1\n        /* \"marketplace.sol\":7105:7116  shoseSeller */\n      0x0b\n        /* \"marketplace.sol\":7105:7125  shoseSeller[tokenId] */\n      0x00\n        /* \"marketplace.sol\":7117:7124  tokenId */\n      dup6\n        /* \"marketplace.sol\":7105:7125  shoseSeller[tokenId] */\n      dup2\n      mstore\n      0x20\n      add\n      swap1\n      dup2\n      mstore\n      0x20\n      add\n      0x00\n      keccak256\n      0x00\n        /* \"marketplace.sol\":7105:7134  shoseSeller[tokenId] = seller */\n      0x0100\n      exp\n      dup2\n      sload\n      dup2\n      0xffffffffffffffffffffffffffffffffffffffff\n      mul\n      not\n      and\n      swap1\n      dup4\n      0xffffffffffffffffffffffffffffffffffffffff\n      and\n      mul\n      or\n      swap1\n      sstore\n      pop\n        /* \"marketplace.sol\":7144:7157  allTokensSell */\n      0x0c\n        /* \"marketplace.sol\":7163:7170  tokenId */\n      dup4\n        /* \"marketplace.sol\":7144:7171  allTokensSell.push(tokenId) */\n      swap1\n      dup1\n      0x01\n      dup2\n      sload\n      add\n      dup1\n      dup3\n      sstore\n      dup1\n      swap2\n      pop\n      pop\n      0x01\n      swap1\n      sub\n      swap1\n      0x00\n      mstore\n      keccak256(0x00, 0x20)\n      add\n      0x00\n      swap1\n      swap2\n      swap1\n      swap2\n      swap1\n      swap2\n      pop\n      sstore\n        /* \"marketplace.sol\":7208:7209  2 */\n      0x02\n        /* \"marketplace.sol\":7184:7197  allTokensSell */\n      0x0c\n        /* \"marketplace.sol\":7184:7204  allTokensSell.length */\n      dup1\n      sload\n      swap1\n      pop\n        /* \"marketplace.sol\":7184:7209  allTokensSell.length >= 2 */\n      lt\n        /* \"marketplace.sol\":7181:7671  if(allTokensSell.length >= 2){... */\n      tag_513\n      jumpi\n        /* \"marketplace.sol\":7228:7237  uint256 i */\n      0x00\n        /* \"marketplace.sol\":7261:7262  2 */\n      0x02\n        /* \"marketplace.sol\":7240:7253  allTokensSell */\n      0x0c\n        /* \"marketplace.sol\":7240:7260  allTokensSell.length */\n      dup1\n      sload\n      swap1\n      pop\n        /* \"marketplace.sol\":7240:7262  allTokensSell.length-2 */\n      tag_517\n      swap2\n      swap1\n      tag_306\n      jump\t// in\n    tag_517:\n        /* \"marketplace.sol\":7228:7262  uint256 i = allTokensSell.length-2 */\n      swap1\n      pop\n        /* \"marketplace.sol\":7224:7661  for(uint256 i = allTokensSell.length-2; i >=0; i--){... */\n    tag_514:\n        /* \"marketplace.sol\":7268:7269  0 */\n      0x00\n        /* \"marketplace.sol\":7264:7265  i */\n      dup2\n        /* \"marketplace.sol\":7264:7269  i >=0 */\n      lt\n        /* \"marketplace.sol\":7224:7661  for(uint256 i = allTokensSell.length-2; i >=0; i--){... */\n      tag_515\n      jumpi\n        /* \"marketplace.sol\":7326:7331  price */\n      dup3\n        /* \"marketplace.sol\":7296:7305  shoseSell */\n      0x0a\n        /* \"marketplace.sol\":7296:7323  shoseSell[allTokensSell[i]] */\n      0x00\n        /* \"marketplace.sol\":7306:7319  allTokensSell */\n      0x0c\n        /* \"marketplace.sol\":7320:7321  i */\n      dup5\n        /* \"marketplace.sol\":7306:7322  allTokensSell[i] */\n      dup2\n      sload\n      dup2\n      lt\n      tag_518\n      jumpi\n      tag_519\n      tag_400\n      jump\t// in\n    tag_519:\n    tag_518:\n      swap1\n      0x00\n      mstore\n      keccak256(0x00, 0x20)\n      add\n      sload\n        /* \"marketplace.sol\":7296:7323  shoseSell[allTokensSell[i]] */\n      dup2\n      mstore\n      0x20\n      add\n      swap1\n      dup2\n      mstore\n      0x20\n      add\n      0x00\n      keccak256\n      sload\n        /* \"marketplace.sol\":7296:7331  shoseSell[allTokensSell[i]] > price */\n      gt\n        /* \"marketplace.sol\":7293:7647  if(shoseSell[allTokensSell[i]] > price){... */\n      iszero\n      tag_521\n      jumpi\n        /* \"marketplace.sol\":7375:7388  allTokensSell */\n      0x0c\n        /* \"marketplace.sol\":7389:7390  i */\n      dup2\n        /* \"marketplace.sol\":7375:7391  allTokensSell[i] */\n      dup2\n      sload\n      dup2\n      lt\n      tag_522\n      jumpi\n      tag_523\n      tag_400\n      jump\t// in\n    tag_523:\n    tag_522:\n      swap1\n      0x00\n      mstore\n      keccak256(0x00, 0x20)\n      add\n      sload\n        /* \"marketplace.sol\":7354:7367  allTokensSell */\n      0x0c\n        /* \"marketplace.sol\":7370:7371  1 */\n      0x01\n        /* \"marketplace.sol\":7368:7369  i */\n      dup4\n        /* \"marketplace.sol\":7368:7371  i+1 */\n      tag_525\n      swap2\n      swap1\n      tag_498\n      jump\t// in\n    tag_525:\n        /* \"marketplace.sol\":7354:7372  allTokensSell[i+1] */\n      dup2\n      sload\n      dup2\n      lt\n      tag_526\n      jumpi\n      tag_527\n      tag_400\n      jump\t// in\n    tag_527:\n    tag_526:\n      swap1\n      0x00\n      mstore\n      keccak256(0x00, 0x20)\n      add\n        /* \"marketplace.sol\":7354:7391  allTokensSell[i+1] = allTokensSell[i] */\n      dup2\n      swap1\n      sstore\n      pop\n        /* \"marketplace.sol\":7419:7420  0 */\n      0x00\n        /* \"marketplace.sol\":7416:7417  i */\n      dup2\n        /* \"marketplace.sol\":7416:7420  i==0 */\n      eq\n        /* \"marketplace.sol\":7413:7528  if(i==0){... */\n      iszero\n      tag_529\n      jumpi\n        /* \"marketplace.sol\":7466:7473  tokenId */\n      dup4\n        /* \"marketplace.sol\":7447:7460  allTokensSell */\n      0x0c\n        /* \"marketplace.sol\":7461:7462  0 */\n      0x00\n        /* \"marketplace.sol\":7447:7463  allTokensSell[0] */\n      dup2\n      sload\n      dup2\n      lt\n      tag_530\n      jumpi\n      tag_531\n      tag_400\n      jump\t// in\n    tag_531:\n    tag_530:\n      swap1\n      0x00\n      mstore\n      keccak256(0x00, 0x20)\n      add\n        /* \"marketplace.sol\":7447:7473  allTokensSell[0] = tokenId */\n      dup2\n      swap1\n      sstore\n      pop\n        /* \"marketplace.sol\":7499:7506  return; */\n      pop\n      jump(tag_511)\n        /* \"marketplace.sol\":7413:7528  if(i==0){... */\n    tag_529:\n        /* \"marketplace.sol\":7293:7647  if(shoseSell[allTokensSell[i]] > price){... */\n      jump(tag_533)\n    tag_521:\n        /* \"marketplace.sol\":7593:7600  tokenId */\n      dup4\n        /* \"marketplace.sol\":7572:7585  allTokensSell */\n      0x0c\n        /* \"marketplace.sol\":7588:7589  1 */\n      0x01\n        /* \"marketplace.sol\":7586:7587  i */\n      dup4\n        /* \"marketplace.sol\":7586:7589  i+1 */\n      tag_534\n      swap2\n      swap1\n      tag_498\n      jump\t// in\n    tag_534:\n        /* \"marketplace.sol\":7572:7590  allTokensSell[i+1] */\n      dup2\n      sload\n      dup2\n      lt\n      tag_535\n      jumpi\n      tag_536\n      tag_400\n      jump\t// in\n    tag_536:\n    tag_535:\n      swap1\n      0x00\n      mstore\n      keccak256(0x00, 0x20)\n      add\n        /* \"marketplace.sol\":7572:7600  allTokensSell[i+1] = tokenId */\n      dup2\n      swap1\n      sstore\n      pop\n        /* \"marketplace.sol\":7622:7629  return; */\n      pop\n      jump(tag_511)\n        /* \"marketplace.sol\":7293:7647  if(shoseSell[allTokensSell[i]] > price){... */\n    tag_533:\n        /* \"marketplace.sol\":7271:7274  i-- */\n      dup1\n      dup1\n      tag_538\n      swap1\n      tag_539\n      jump\t// in\n    tag_538:\n      swap2\n      pop\n      pop\n        /* \"marketplace.sol\":7224:7661  for(uint256 i = allTokensSell.length-2; i >=0; i--){... */\n      jump(tag_514)\n    tag_515:\n      pop\n        /* \"marketplace.sol\":7181:7671  if(allTokensSell.length >= 2){... */\n    tag_513:\n        /* \"marketplace.sol\":6983:7677  function addNFTSell(uint256 tokenId, uint256 price, address seller) internal{... */\n    tag_511:\n      pop\n      pop\n      pop\n      jump\t// out\n        /* \"BEPContext.sol\":760:859  function _msgSender() internal view returns (address payable) {... */\n    tag_386:\n        /* \"BEPContext.sol\":805:820  address payable */\n      0x00\n        /* \"BEPContext.sol\":843:853  msg.sender */\n      caller\n        /* \"BEPContext.sol\":828:854  return payable(msg.sender) */\n      swap1\n      pop\n        /* \"BEPContext.sol\":760:859  function _msgSender() internal view returns (address payable) {... */\n      swap1\n      jump\t// out\n        /* \"BEPOwnable.sol\":2090:2301  function _transferOwnership(address newOwner) internal {... */\n    tag_484:\n        /* \"BEPOwnable.sol\":2179:2180  0 */\n      0x00\n        /* \"BEPOwnable.sol\":2159:2181  newOwner != address(0) */\n      0xffffffffffffffffffffffffffffffffffffffff\n      and\n        /* \"BEPOwnable.sol\":2159:2167  newOwner */\n      dup2\n        /* \"BEPOwnable.sol\":2159:2181  newOwner != address(0) */\n      0xffffffffffffffffffffffffffffffffffffffff\n      and\n      eq\n      iszero\n        /* \"BEPOwnable.sol\":2151:2224  require(newOwner != address(0), \"Ownable: new owner is the zero address\") */\n      tag_542\n      jumpi\n      mload(0x40)\n      0x08c379a000000000000000000000000000000000000000000000000000000000\n      dup2\n      mstore\n      0x04\n      add\n      tag_543\n      swap1\n      tag_544\n      jump\t// in\n    tag_543:\n      mload(0x40)\n      dup1\n      swap2\n      sub\n      swap1\n      revert\n    tag_542:\n        /* \"BEPOwnable.sol\":2264:2272  newOwner */\n      dup1\n        /* \"BEPOwnable.sol\":2235:2273  OwnershipTransferred(_owner, newOwner) */\n      0xffffffffffffffffffffffffffffffffffffffff\n      and\n        /* \"BEPOwnable.sol\":2256:2262  _owner */\n      0x00\n      dup1\n      sload\n      swap1\n      0x0100\n      exp\n      swap1\n      div\n      0xffffffffffffffffffffffffffffffffffffffff\n      and\n        /* \"BEPOwnable.sol\":2235:2273  OwnershipTransferred(_owner, newOwner) */\n      0xffffffffffffffffffffffffffffffffffffffff\n      and\n      0x8be0079c531659141344cd1fd0a4f28419497f9722a3daafe3b4186f6b6457e0\n      mload(0x40)\n      mload(0x40)\n      dup1\n      swap2\n      sub\n      swap1\n      log3\n        /* \"BEPOwnable.sol\":2288:2296  newOwner */\n      dup1\n        /* \"BEPOwnable.sol\":2279:2285  _owner */\n      0x00\n      dup1\n        /* \"BEPOwnable.sol\":2279:2296  _owner = newOwner */\n      0x0100\n      exp\n      dup2\n      sload\n      dup2\n      0xffffffffffffffffffffffffffffffffffffffff\n      mul\n      not\n      and\n      swap1\n      dup4\n      0xffffffffffffffffffffffffffffffffffffffff\n      and\n      mul\n      or\n      swap1\n      sstore\n      pop\n        /* \"BEPOwnable.sol\":2090:2301  function _transferOwnership(address newOwner) internal {... */\n      pop\n      jump\t// out\n        /* \"#utility.yul\":7:146   */\n    tag_546:\n        /* \"#utility.yul\":53:58   */\n      0x00\n        /* \"#utility.yul\":91:97   */\n      dup2\n        /* \"#utility.yul\":78:98   */\n      calldataload\n        /* \"#utility.yul\":69:98   */\n      swap1\n      pop\n        /* \"#utility.yul\":107:140   */\n      tag_548\n        /* \"#utility.yul\":134:139   */\n      dup2\n        /* \"#utility.yul\":107:140   */\n      tag_549\n      jump\t// in\n    tag_548:\n        /* \"#utility.yul\":7:146   */\n      swap3\n      swap2\n      pop\n      pop\n      jump\t// out\n        /* \"#utility.yul\":152:295   */\n    tag_550:\n        /* \"#utility.yul\":209:214   */\n      0x00\n        /* \"#utility.yul\":240:246   */\n      dup2\n        /* \"#utility.yul\":234:247   */\n      mload\n        /* \"#utility.yul\":225:247   */\n      swap1\n      pop\n        /* \"#utility.yul\":256:289   */\n      tag_552\n        /* \"#utility.yul\":283:288   */\n      dup2\n        /* \"#utility.yul\":256:289   */\n      tag_549\n      jump\t// in\n    tag_552:\n        /* \"#utility.yul\":152:295   */\n      swap3\n      swap2\n      pop\n      pop\n      jump\t// out\n        /* \"#utility.yul\":301:438   */\n    tag_553:\n        /* \"#utility.yul\":355:360   */\n      0x00\n        /* \"#utility.yul\":386:392   */\n      dup2\n        /* \"#utility.yul\":380:393   */\n      mload\n        /* \"#utility.yul\":371:393   */\n      swap1\n      pop\n        /* \"#utility.yul\":402:432   */\n      tag_555\n        /* \"#utility.yul\":426:431   */\n      dup2\n        /* \"#utility.yul\":402:432   */\n      tag_556\n      jump\t// in\n    tag_555:\n        /* \"#utility.yul\":301:438   */\n      swap3\n      swap2\n      pop\n      pop\n      jump\t// out\n        /* \"#utility.yul\":444:583   */\n    tag_557:\n        /* \"#utility.yul\":490:495   */\n      0x00\n        /* \"#utility.yul\":528:534   */\n      dup2\n        /* \"#utility.yul\":515:535   */\n      calldataload\n        /* \"#utility.yul\":506:535   */\n      swap1\n      pop\n        /* \"#utility.yul\":544:577   */\n      tag_559\n        /* \"#utility.yul\":571:576   */\n      dup2\n        /* \"#utility.yul\":544:577   */\n      tag_560\n      jump\t// in\n    tag_559:\n        /* \"#utility.yul\":444:583   */\n      swap3\n      swap2\n      pop\n      pop\n      jump\t// out\n        /* \"#utility.yul\":589:732   */\n    tag_561:\n        /* \"#utility.yul\":646:651   */\n      0x00\n        /* \"#utility.yul\":677:683   */\n      dup2\n        /* \"#utility.yul\":671:684   */\n      mload\n        /* \"#utility.yul\":662:684   */\n      swap1\n      pop\n        /* \"#utility.yul\":693:726   */\n      tag_563\n        /* \"#utility.yul\":720:725   */\n      dup2\n        /* \"#utility.yul\":693:726   */\n      tag_560\n      jump\t// in\n    tag_563:\n        /* \"#utility.yul\":589:732   */\n      swap3\n      swap2\n      pop\n      pop\n      jump\t// out\n        /* \"#utility.yul\":738:1067   */\n    tag_52:\n        /* \"#utility.yul\":797:803   */\n      0x00\n        /* \"#utility.yul\":846:848   */\n      0x20\n        /* \"#utility.yul\":834:843   */\n      dup3\n        /* \"#utility.yul\":825:832   */\n      dup5\n        /* \"#utility.yul\":821:844   */\n      sub\n        /* \"#utility.yul\":817:849   */\n      slt\n        /* \"#utility.yul\":814:933   */\n      iszero\n      tag_565\n      jumpi\n        /* \"#utility.yul\":852:931   */\n      tag_566\n      tag_567\n      jump\t// in\n    tag_566:\n        /* \"#utility.yul\":814:933   */\n    tag_565:\n        /* \"#utility.yul\":972:973   */\n      0x00\n        /* \"#utility.yul\":997:1050   */\n      tag_568\n        /* \"#utility.yul\":1042:1049   */\n      dup5\n        /* \"#utility.yul\":1033:1039   */\n      dup3\n        /* \"#utility.yul\":1022:1031   */\n      dup6\n        /* \"#utility.yul\":1018:1040   */\n      add\n        /* \"#utility.yul\":997:1050   */\n      tag_546\n      jump\t// in\n    tag_568:\n        /* \"#utility.yul\":987:1050   */\n      swap2\n      pop\n        /* \"#utility.yul\":943:1060   */\n      pop\n        /* \"#utility.yul\":738:1067   */\n      swap3\n      swap2\n      pop\n      pop\n      jump\t// out\n        /* \"#utility.yul\":1073:1424   */\n    tag_225:\n        /* \"#utility.yul\":1143:1149   */\n      0x00\n        /* \"#utility.yul\":1192:1194   */\n      0x20\n        /* \"#utility.yul\":1180:1189   */\n      dup3\n        /* \"#utility.yul\":1171:1178   */\n      dup5\n        /* \"#utility.yul\":1167:1190   */\n      sub\n        /* \"#utility.yul\":1163:1195   */\n      slt\n        /* \"#utility.yul\":1160:1279   */\n      iszero\n      tag_570\n      jumpi\n        /* \"#utility.yul\":1198:1277   */\n      tag_571\n      tag_567\n      jump\t// in\n    tag_571:\n        /* \"#utility.yul\":1160:1279   */\n    tag_570:\n        /* \"#utility.yul\":1318:1319   */\n      0x00\n        /* \"#utility.yul\":1343:1407   */\n      tag_572\n        /* \"#utility.yul\":1399:1406   */\n      dup5\n        /* \"#utility.yul\":1390:1396   */\n      dup3\n        /* \"#utility.yul\":1379:1388   */\n      dup6\n        /* \"#utility.yul\":1375:1397   */\n      add\n        /* \"#utility.yul\":1343:1407   */\n      tag_550\n      jump\t// in\n    tag_572:\n        /* \"#utility.yul\":1333:1407   */\n      swap2\n      pop\n        /* \"#utility.yul\":1289:1417   */\n      pop\n        /* \"#utility.yul\":1073:1424   */\n      swap3\n      swap2\n      pop\n      pop\n      jump\t// out\n        /* \"#utility.yul\":1430:1904   */\n    tag_98:\n        /* \"#utility.yul\":1498:1504   */\n      0x00\n        /* \"#utility.yul\":1506:1512   */\n      dup1\n        /* \"#utility.yul\":1555:1557   */\n      0x40\n        /* \"#utility.yul\":1543:1552   */\n      dup4\n        /* \"#utility.yul\":1534:1541   */\n      dup6\n        /* \"#utility.yul\":1530:1553   */\n      sub\n        /* \"#utility.yul\":1526:1558   */\n      slt\n        /* \"#utility.yul\":1523:1642   */\n      iszero\n      tag_574\n      jumpi\n        /* \"#utility.yul\":1561:1640   */\n      tag_575\n      tag_567\n      jump\t// in\n    tag_575:\n        /* \"#utility.yul\":1523:1642   */\n    tag_574:\n        /* \"#utility.yul\":1681:1682   */\n      0x00\n        /* \"#utility.yul\":1706:1759   */\n      tag_576\n        /* \"#utility.yul\":1751:1758   */\n      dup6\n        /* \"#utility.yul\":1742:1748   */\n      dup3\n        /* \"#utility.yul\":1731:1740   */\n      dup7\n        /* \"#utility.yul\":1727:1749   */\n      add\n        /* \"#utility.yul\":1706:1759   */\n      tag_546\n      jump\t// in\n    tag_576:\n        /* \"#utility.yul\":1696:1759   */\n      swap3\n      pop\n        /* \"#utility.yul\":1652:1769   */\n      pop\n        /* \"#utility.yul\":1808:1810   */\n      0x20\n        /* \"#utility.yul\":1834:1887   */\n      tag_577\n        /* \"#utility.yul\":1879:1886   */\n      dup6\n        /* \"#utility.yul\":1870:1876   */\n      dup3\n        /* \"#utility.yul\":1859:1868   */\n      dup7\n        /* \"#utility.yul\":1855:1877   */\n      add\n        /* \"#utility.yul\":1834:1887   */\n      tag_557\n      jump\t// in\n    tag_577:\n        /* \"#utility.yul\":1824:1887   */\n      swap2\n      pop\n        /* \"#utility.yul\":1779:1897   */\n      pop\n        /* \"#utility.yul\":1430:1904   */\n      swap3\n      pop\n      swap3\n      swap1\n      pop\n      jump\t// out\n        /* \"#utility.yul\":1910:2255   */\n    tag_242:\n        /* \"#utility.yul\":1977:1983   */\n      0x00\n        /* \"#utility.yul\":2026:2028   */\n      0x20\n        /* \"#utility.yul\":2014:2023   */\n      dup3\n        /* \"#utility.yul\":2005:2012   */\n      dup5\n        /* \"#utility.yul\":2001:2024   */\n      sub\n        /* \"#utility.yul\":1997:2029   */\n      slt\n        /* \"#utility.yul\":1994:2113   */\n      iszero\n      tag_579\n      jumpi\n        /* \"#utility.yul\":2032:2111   */\n      tag_580\n      tag_567\n      jump\t// in\n    tag_580:\n        /* \"#utility.yul\":1994:2113   */\n    tag_579:\n        /* \"#utility.yul\":2152:2153   */\n      0x00\n        /* \"#utility.yul\":2177:2238   */\n      tag_581\n        /* \"#utility.yul\":2230:2237   */\n      dup5\n        /* \"#utility.yul\":2221:2227   */\n      dup3\n        /* \"#utility.yul\":2210:2219   */\n      dup6\n        /* \"#utility.yul\":2206:2228   */\n      add\n        /* \"#utility.yul\":2177:2238   */\n      tag_553\n      jump\t// in\n    tag_581:\n        /* \"#utility.yul\":2167:2238   */\n      swap2\n      pop\n        /* \"#utility.yul\":2123:2248   */\n      pop\n        /* \"#utility.yul\":1910:2255   */\n      swap3\n      swap2\n      pop\n      pop\n      jump\t// out\n        /* \"#utility.yul\":2261:2590   */\n    tag_57:\n        /* \"#utility.yul\":2320:2326   */\n      0x00\n        /* \"#utility.yul\":2369:2371   */\n      0x20\n        /* \"#utility.yul\":2357:2366   */\n      dup3\n        /* \"#utility.yul\":2348:2355   */\n      dup5\n        /* \"#utility.yul\":2344:2367   */\n      sub\n        /* \"#utility.yul\":2340:2372   */\n      slt\n        /* \"#utility.yul\":2337:2456   */\n      iszero\n      tag_583\n      jumpi\n        /* \"#utility.yul\":2375:2454   */\n      tag_584\n      tag_567\n      jump\t// in\n    tag_584:\n        /* \"#utility.yul\":2337:2456   */\n    tag_583:\n        /* \"#utility.yul\":2495:2496   */\n      0x00\n        /* \"#utility.yul\":2520:2573   */\n      tag_585\n        /* \"#utility.yul\":2565:2572   */\n      dup5\n        /* \"#utility.yul\":2556:2562   */\n      dup3\n        /* \"#utility.yul\":2545:2554   */\n      dup6\n        /* \"#utility.yul\":2541:2563   */\n      add\n        /* \"#utility.yul\":2520:2573   */\n      tag_557\n      jump\t// in\n    tag_585:\n        /* \"#utility.yul\":2510:2573   */\n      swap2\n      pop\n        /* \"#utility.yul\":2466:2583   */\n      pop\n        /* \"#utility.yul\":2261:2590   */\n      swap3\n      swap2\n      pop\n      pop\n      jump\t// out\n        /* \"#utility.yul\":2596:2947   */\n    tag_213:\n        /* \"#utility.yul\":2666:2672   */\n      0x00\n        /* \"#utility.yul\":2715:2717   */\n      0x20\n        /* \"#utility.yul\":2703:2712   */\n      dup3\n        /* \"#utility.yul\":2694:2701   */\n      dup5\n        /* \"#utility.yul\":2690:2713   */\n      sub\n        /* \"#utility.yul\":2686:2718   */\n      slt\n        /* \"#utility.yul\":2683:2802   */\n      iszero\n      tag_587\n      jumpi\n        /* \"#utility.yul\":2721:2800   */\n      tag_588\n      tag_567\n      jump\t// in\n    tag_588:\n        /* \"#utility.yul\":2683:2802   */\n    tag_587:\n        /* \"#utility.yul\":2841:2842   */\n      0x00\n        /* \"#utility.yul\":2866:2930   */\n      tag_589\n        /* \"#utility.yul\":2922:2929   */\n      dup5\n        /* \"#utility.yul\":2913:2919   */\n      dup3\n        /* \"#utility.yul\":2902:2911   */\n      dup6\n        /* \"#utility.yul\":2898:2920   */\n      add\n        /* \"#utility.yul\":2866:2930   */\n      tag_561\n      jump\t// in\n    tag_589:\n        /* \"#utility.yul\":2856:2930   */\n      swap2\n      pop\n        /* \"#utility.yul\":2812:2940   */\n      pop\n        /* \"#utility.yul\":2596:2947   */\n      swap3\n      swap2\n      pop\n      pop\n      jump\t// out\n        /* \"#utility.yul\":2953:3427   */\n    tag_110:\n        /* \"#utility.yul\":3021:3027   */\n      0x00\n        /* \"#utility.yul\":3029:3035   */\n      dup1\n        /* \"#utility.yul\":3078:3080   */\n      0x40\n        /* \"#utility.yul\":3066:3075   */\n      dup4\n        /* \"#utility.yul\":3057:3064   */\n      dup6\n        /* \"#utility.yul\":3053:3076   */\n      sub\n        /* \"#utility.yul\":3049:3081   */\n      slt\n        /* \"#utility.yul\":3046:3165   */\n      iszero\n      tag_591\n      jumpi\n        /* \"#utility.yul\":3084:3163   */\n      tag_592\n      tag_567\n      jump\t// in\n    tag_592:\n        /* \"#utility.yul\":3046:3165   */\n    tag_591:\n        /* \"#utility.yul\":3204:3205   */\n      0x00\n        /* \"#utility.yul\":3229:3282   */\n      tag_593\n        /* \"#utility.yul\":3274:3281   */\n      dup6\n        /* \"#utility.yul\":3265:3271   */\n      dup3\n        /* \"#utility.yul\":3254:3263   */\n      dup7\n        /* \"#utility.yul\":3250:3272   */\n      add\n        /* \"#utility.yul\":3229:3282   */\n      tag_557\n      jump\t// in\n    tag_593:\n        /* \"#utility.yul\":3219:3282   */\n      swap3\n      pop\n        /* \"#utility.yul\":3175:3292   */\n      pop\n        /* \"#utility.yul\":3331:3333   */\n      0x20\n        /* \"#utility.yul\":3357:3410   */\n      tag_594\n        /* \"#utility.yul\":3402:3409   */\n      dup6\n        /* \"#utility.yul\":3393:3399   */\n      dup3\n        /* \"#utility.yul\":3382:3391   */\n      dup7\n        /* \"#utility.yul\":3378:3400   */\n      add\n        /* \"#utility.yul\":3357:3410   */\n      tag_557\n      jump\t// in\n    tag_594:\n        /* \"#utility.yul\":3347:3410   */\n      swap2\n      pop\n        /* \"#utility.yul\":3302:3420   */\n      pop\n        /* \"#utility.yul\":2953:3427   */\n      swap3\n      pop\n      swap3\n      swap1\n      pop\n      jump\t// out\n        /* \"#utility.yul\":3433:3612   */\n    tag_595:\n        /* \"#utility.yul\":3502:3512   */\n      0x00\n        /* \"#utility.yul\":3523:3569   */\n      tag_597\n        /* \"#utility.yul\":3565:3568   */\n      dup4\n        /* \"#utility.yul\":3557:3563   */\n      dup4\n        /* \"#utility.yul\":3523:3569   */\n      tag_598\n      jump\t// in\n    tag_597:\n        /* \"#utility.yul\":3601:3605   */\n      0x20\n        /* \"#utility.yul\":3596:3599   */\n      dup4\n        /* \"#utility.yul\":3592:3606   */\n      add\n        /* \"#utility.yul\":3578:3606   */\n      swap1\n      pop\n        /* \"#utility.yul\":3433:3612   */\n      swap3\n      swap2\n      pop\n      pop\n      jump\t// out\n        /* \"#utility.yul\":3618:3797   */\n    tag_599:\n        /* \"#utility.yul\":3687:3697   */\n      0x00\n        /* \"#utility.yul\":3708:3754   */\n      tag_601\n        /* \"#utility.yul\":3750:3753   */\n      dup4\n        /* \"#utility.yul\":3742:3748   */\n      dup4\n        /* \"#utility.yul\":3708:3754   */\n      tag_602\n      jump\t// in\n    tag_601:\n        /* \"#utility.yul\":3786:3790   */\n      0x20\n        /* \"#utility.yul\":3781:3784   */\n      dup4\n        /* \"#utility.yul\":3777:3791   */\n      add\n        /* \"#utility.yul\":3763:3791   */\n      swap1\n      pop\n        /* \"#utility.yul\":3618:3797   */\n      swap3\n      swap2\n      pop\n      pop\n      jump\t// out\n        /* \"#utility.yul\":3803:3911   */\n    tag_598:\n        /* \"#utility.yul\":3880:3904   */\n      tag_604\n        /* \"#utility.yul\":3898:3903   */\n      dup2\n        /* \"#utility.yul\":3880:3904   */\n      tag_605\n      jump\t// in\n    tag_604:\n        /* \"#utility.yul\":3875:3878   */\n      dup3\n        /* \"#utility.yul\":3868:3905   */\n      mstore\n        /* \"#utility.yul\":3803:3911   */\n      pop\n      pop\n      jump\t// out\n        /* \"#utility.yul\":3917:4035   */\n    tag_606:\n        /* \"#utility.yul\":4004:4028   */\n      tag_608\n        /* \"#utility.yul\":4022:4027   */\n      dup2\n        /* \"#utility.yul\":4004:4028   */\n      tag_605\n      jump\t// in\n    tag_608:\n        /* \"#utility.yul\":3999:4002   */\n      dup3\n        /* \"#utility.yul\":3992:4029   */\n      mstore\n        /* \"#utility.yul\":3917:4035   */\n      pop\n      pop\n      jump\t// out\n        /* \"#utility.yul\":4071:4803   */\n    tag_609:\n        /* \"#utility.yul\":4190:4193   */\n      0x00\n        /* \"#utility.yul\":4219:4273   */\n      tag_611\n        /* \"#utility.yul\":4267:4272   */\n      dup3\n        /* \"#utility.yul\":4219:4273   */\n      tag_612\n      jump\t// in\n    tag_611:\n        /* \"#utility.yul\":4289:4375   */\n      tag_613\n        /* \"#utility.yul\":4368:4374   */\n      dup2\n        /* \"#utility.yul\":4363:4366   */\n      dup6\n        /* \"#utility.yul\":4289:4375   */\n      tag_614\n      jump\t// in\n    tag_613:\n        /* \"#utility.yul\":4282:4375   */\n      swap4\n      pop\n        /* \"#utility.yul\":4399:4455   */\n      tag_615\n        /* \"#utility.yul\":4449:4454   */\n      dup4\n        /* \"#utility.yul\":4399:4455   */\n      tag_616\n      jump\t// in\n    tag_615:\n        /* \"#utility.yul\":4478:4485   */\n      dup1\n        /* \"#utility.yul\":4509:4510   */\n      0x00\n        /* \"#utility.yul\":4494:4778   */\n    tag_617:\n        /* \"#utility.yul\":4519:4525   */\n      dup4\n        /* \"#utility.yul\":4516:4517   */\n      dup2\n        /* \"#utility.yul\":4513:4526   */\n      lt\n        /* \"#utility.yul\":4494:4778   */\n      iszero\n      tag_619\n      jumpi\n        /* \"#utility.yul\":4595:4601   */\n      dup2\n        /* \"#utility.yul\":4589:4602   */\n      mload\n        /* \"#utility.yul\":4622:4685   */\n      tag_620\n        /* \"#utility.yul\":4681:4684   */\n      dup9\n        /* \"#utility.yul\":4666:4679   */\n      dup3\n        /* \"#utility.yul\":4622:4685   */\n      tag_595\n      jump\t// in\n    tag_620:\n        /* \"#utility.yul\":4615:4685   */\n      swap8\n      pop\n        /* \"#utility.yul\":4708:4768   */\n      tag_621\n        /* \"#utility.yul\":4761:4767   */\n      dup4\n        /* \"#utility.yul\":4708:4768   */\n      tag_622\n      jump\t// in\n    tag_621:\n        /* \"#utility.yul\":4698:4768   */\n      swap3\n      pop\n        /* \"#utility.yul\":4554:4778   */\n      pop\n        /* \"#utility.yul\":4541:4542   */\n      0x01\n        /* \"#utility.yul\":4538:4539   */\n      dup2\n        /* \"#utility.yul\":4534:4543   */\n      add\n        /* \"#utility.yul\":4529:4543   */\n      swap1\n      pop\n        /* \"#utility.yul\":4494:4778   */\n      jump(tag_617)\n    tag_619:\n        /* \"#utility.yul\":4498:4512   */\n      pop\n        /* \"#utility.yul\":4794:4797   */\n      dup6\n        /* \"#utility.yul\":4787:4797   */\n      swap4\n      pop\n        /* \"#utility.yul\":4195:4803   */\n      pop\n      pop\n      pop\n        /* \"#utility.yul\":4071:4803   */\n      swap3\n      swap2\n      pop\n      pop\n      jump\t// out\n        /* \"#utility.yul\":4839:5571   */\n    tag_623:\n        /* \"#utility.yul\":4958:4961   */\n      0x00\n        /* \"#utility.yul\":4987:5041   */\n      tag_625\n        /* \"#utility.yul\":5035:5040   */\n      dup3\n        /* \"#utility.yul\":4987:5041   */\n      tag_626\n      jump\t// in\n    tag_625:\n        /* \"#utility.yul\":5057:5143   */\n      tag_627\n        /* \"#utility.yul\":5136:5142   */\n      dup2\n        /* \"#utility.yul\":5131:5134   */\n      dup6\n        /* \"#utility.yul\":5057:5143   */\n      tag_628\n      jump\t// in\n    tag_627:\n        /* \"#utility.yul\":5050:5143   */\n      swap4\n      pop\n        /* \"#utility.yul\":5167:5223   */\n      tag_629\n        /* \"#utility.yul\":5217:5222   */\n      dup4\n        /* \"#utility.yul\":5167:5223   */\n      tag_630\n      jump\t// in\n    tag_629:\n        /* \"#utility.yul\":5246:5253   */\n      dup1\n        /* \"#utility.yul\":5277:5278   */\n      0x00\n        /* \"#utility.yul\":5262:5546   */\n    tag_631:\n        /* \"#utility.yul\":5287:5293   */\n      dup4\n        /* \"#utility.yul\":5284:5285   */\n      dup2\n        /* \"#utility.yul\":5281:5294   */\n      lt\n        /* \"#utility.yul\":5262:5546   */\n      iszero\n      tag_633\n      jumpi\n        /* \"#utility.yul\":5363:5369   */\n      dup2\n        /* \"#utility.yul\":5357:5370   */\n      mload\n        /* \"#utility.yul\":5390:5453   */\n      tag_634\n        /* \"#utility.yul\":5449:5452   */\n      dup9\n        /* \"#utility.yul\":5434:5447   */\n      dup3\n        /* \"#utility.yul\":5390:5453   */\n      tag_599\n      jump\t// in\n    tag_634:\n        /* \"#utility.yul\":5383:5453   */\n      swap8\n      pop\n        /* \"#utility.yul\":5476:5536   */\n      tag_635\n        /* \"#utility.yul\":5529:5535   */\n      dup4\n        /* \"#utility.yul\":5476:5536   */\n      tag_636\n      jump\t// in\n    tag_635:\n        /* \"#utility.yul\":5466:5536   */\n      swap3\n      pop\n        /* \"#utility.yul\":5322:5546   */\n      pop\n        /* \"#utility.yul\":5309:5310   */\n      0x01\n        /* \"#utility.yul\":5306:5307   */\n      dup2\n        /* \"#utility.yul\":5302:5311   */\n      add\n        /* \"#utility.yul\":5297:5311   */\n      swap1\n      pop\n        /* \"#utility.yul\":5262:5546   */\n      jump(tag_631)\n    tag_633:\n        /* \"#utility.yul\":5266:5280   */\n      pop\n        /* \"#utility.yul\":5562:5565   */\n      dup6\n        /* \"#utility.yul\":5555:5565   */\n      swap4\n      pop\n        /* \"#utility.yul\":4963:5571   */\n      pop\n      pop\n      pop\n        /* \"#utility.yul\":4839:5571   */\n      swap3\n      swap2\n      pop\n      pop\n      jump\t// out\n        /* \"#utility.yul\":5577:5686   */\n    tag_637:\n        /* \"#utility.yul\":5658:5679   */\n      tag_639\n        /* \"#utility.yul\":5673:5678   */\n      dup2\n        /* \"#utility.yul\":5658:5679   */\n      tag_640\n      jump\t// in\n    tag_639:\n        /* \"#utility.yul\":5653:5656   */\n      dup3\n        /* \"#utility.yul\":5646:5680   */\n      mstore\n        /* \"#utility.yul\":5577:5686   */\n      pop\n      pop\n      jump\t// out\n        /* \"#utility.yul\":5692:6058   */\n    tag_641:\n        /* \"#utility.yul\":5834:5837   */\n      0x00\n        /* \"#utility.yul\":5855:5922   */\n      tag_643\n        /* \"#utility.yul\":5919:5921   */\n      0x1d\n        /* \"#utility.yul\":5914:5917   */\n      dup4\n        /* \"#utility.yul\":5855:5922   */\n      tag_644\n      jump\t// in\n    tag_643:\n        /* \"#utility.yul\":5848:5922   */\n      swap2\n      pop\n        /* \"#utility.yul\":5931:6024   */\n      tag_645\n        /* \"#utility.yul\":6020:6023   */\n      dup3\n        /* \"#utility.yul\":5931:6024   */\n      tag_646\n      jump\t// in\n    tag_645:\n        /* \"#utility.yul\":6049:6051   */\n      0x20\n        /* \"#utility.yul\":6044:6047   */\n      dup3\n        /* \"#utility.yul\":6040:6052   */\n      add\n        /* \"#utility.yul\":6033:6052   */\n      swap1\n      pop\n        /* \"#utility.yul\":5692:6058   */\n      swap2\n      swap1\n      pop\n      jump\t// out\n        /* \"#utility.yul\":6064:6430   */\n    tag_647:\n        /* \"#utility.yul\":6206:6209   */\n      0x00\n        /* \"#utility.yul\":6227:6294   */\n      tag_649\n        /* \"#utility.yul\":6291:6293   */\n      0x0d\n        /* \"#utility.yul\":6286:6289   */\n      dup4\n        /* \"#utility.yul\":6227:6294   */\n      tag_644\n      jump\t// in\n    tag_649:\n        /* \"#utility.yul\":6220:6294   */\n      swap2\n      pop\n        /* \"#utility.yul\":6303:6396   */\n      tag_650\n        /* \"#utility.yul\":6392:6395   */\n      dup3\n        /* \"#utility.yul\":6303:6396   */\n      tag_651\n      jump\t// in\n    tag_650:\n        /* \"#utility.yul\":6421:6423   */\n      0x20\n        /* \"#utility.yul\":6416:6419   */\n      dup3\n        /* \"#utility.yul\":6412:6424   */\n      add\n        /* \"#utility.yul\":6405:6424   */\n      swap1\n      pop\n        /* \"#utility.yul\":6064:6430   */\n      swap2\n      swap1\n      pop\n      jump\t// out\n        /* \"#utility.yul\":6436:6802   */\n    tag_652:\n        /* \"#utility.yul\":6578:6581   */\n      0x00\n        /* \"#utility.yul\":6599:6666   */\n      tag_654\n        /* \"#utility.yul\":6663:6665   */\n      0x26\n        /* \"#utility.yul\":6658:6661   */\n      dup4\n        /* \"#utility.yul\":6599:6666   */\n      tag_644\n      jump\t// in\n    tag_654:\n        /* \"#utility.yul\":6592:6666   */\n      swap2\n      pop\n        /* \"#utility.yul\":6675:6768   */\n      tag_655\n        /* \"#utility.yul\":6764:6767   */\n      dup3\n        /* \"#utility.yul\":6675:6768   */\n      tag_656\n      jump\t// in\n    tag_655:\n        /* \"#utility.yul\":6793:6795   */\n      0x40\n        /* \"#utility.yul\":6788:6791   */\n      dup3\n        /* \"#utility.yul\":6784:6796   */\n      add\n        /* \"#utility.yul\":6777:6796   */\n      swap1\n      pop\n        /* \"#utility.yul\":6436:6802   */\n      swap2\n      swap1\n      pop\n      jump\t// out\n        /* \"#utility.yul\":6808:7174   */\n    tag_657:\n        /* \"#utility.yul\":6950:6953   */\n      0x00\n        /* \"#utility.yul\":6971:7038   */\n      tag_659\n        /* \"#utility.yul\":7035:7037   */\n      0x17\n        /* \"#utility.yul\":7030:7033   */\n      dup4\n        /* \"#utility.yul\":6971:7038   */\n      tag_644\n      jump\t// in\n    tag_659:\n        /* \"#utility.yul\":6964:7038   */\n      swap2\n      pop\n        /* \"#utility.yul\":7047:7140   */\n      tag_660\n        /* \"#utility.yul\":7136:7139   */\n      dup3\n        /* \"#utility.yul\":7047:7140   */\n      tag_661\n      jump\t// in\n    tag_660:\n        /* \"#utility.yul\":7165:7167   */\n      0x20\n        /* \"#utility.yul\":7160:7163   */\n      dup3\n        /* \"#utility.yul\":7156:7168   */\n      add\n        /* \"#utility.yul\":7149:7168   */\n      swap1\n      pop\n        /* \"#utility.yul\":6808:7174   */\n      swap2\n      swap1\n      pop\n      jump\t// out\n        /* \"#utility.yul\":7180:7546   */\n    tag_662:\n        /* \"#utility.yul\":7322:7325   */\n      0x00\n        /* \"#utility.yul\":7343:7410   */\n      tag_664\n        /* \"#utility.yul\":7407:7409   */\n      0x18\n        /* \"#utility.yul\":7402:7405   */\n      dup4\n        /* \"#utility.yul\":7343:7410   */\n      tag_644\n      jump\t// in\n    tag_664:\n        /* \"#utility.yul\":7336:7410   */\n      swap2\n      pop\n        /* \"#utility.yul\":7419:7512   */\n      tag_665\n        /* \"#utility.yul\":7508:7511   */\n      dup3\n        /* \"#utility.yul\":7419:7512   */\n      tag_666\n      jump\t// in\n    tag_665:\n        /* \"#utility.yul\":7537:7539   */\n      0x20\n        /* \"#utility.yul\":7532:7535   */\n      dup3\n        /* \"#utility.yul\":7528:7540   */\n      add\n        /* \"#utility.yul\":7521:7540   */\n      swap1\n      pop\n        /* \"#utility.yul\":7180:7546   */\n      swap2\n      swap1\n      pop\n      jump\t// out\n        /* \"#utility.yul\":7552:7917   */\n    tag_667:\n        /* \"#utility.yul\":7694:7697   */\n      0x00\n        /* \"#utility.yul\":7715:7781   */\n      tag_669\n        /* \"#utility.yul\":7779:7780   */\n      0x09\n        /* \"#utility.yul\":7774:7777   */\n      dup4\n        /* \"#utility.yul\":7715:7781   */\n      tag_644\n      jump\t// in\n    tag_669:\n        /* \"#utility.yul\":7708:7781   */\n      swap2\n      pop\n        /* \"#utility.yul\":7790:7883   */\n      tag_670\n        /* \"#utility.yul\":7879:7882   */\n      dup3\n        /* \"#utility.yul\":7790:7883   */\n      tag_671\n      jump\t// in\n    tag_670:\n        /* \"#utility.yul\":7908:7910   */\n      0x20\n        /* \"#utility.yul\":7903:7906   */\n      dup3\n        /* \"#utility.yul\":7899:7911   */\n      add\n        /* \"#utility.yul\":7892:7911   */\n      swap1\n      pop\n        /* \"#utility.yul\":7552:7917   */\n      swap2\n      swap1\n      pop\n      jump\t// out\n        /* \"#utility.yul\":7923:8289   */\n    tag_672:\n        /* \"#utility.yul\":8065:8068   */\n      0x00\n        /* \"#utility.yul\":8086:8153   */\n      tag_674\n        /* \"#utility.yul\":8150:8152   */\n      0x28\n        /* \"#utility.yul\":8145:8148   */\n      dup4\n        /* \"#utility.yul\":8086:8153   */\n      tag_644\n      jump\t// in\n    tag_674:\n        /* \"#utility.yul\":8079:8153   */\n      swap2\n      pop\n        /* \"#utility.yul\":8162:8255   */\n      tag_675\n        /* \"#utility.yul\":8251:8254   */\n      dup3\n        /* \"#utility.yul\":8162:8255   */\n      tag_676\n      jump\t// in\n    tag_675:\n        /* \"#utility.yul\":8280:8282   */\n      0x40\n        /* \"#utility.yul\":8275:8278   */\n      dup3\n        /* \"#utility.yul\":8271:8283   */\n      add\n        /* \"#utility.yul\":8264:8283   */\n      swap1\n      pop\n        /* \"#utility.yul\":7923:8289   */\n      swap2\n      swap1\n      pop\n      jump\t// out\n        /* \"#utility.yul\":8295:8661   */\n    tag_677:\n        /* \"#utility.yul\":8437:8440   */\n      0x00\n        /* \"#utility.yul\":8458:8525   */\n      tag_679\n        /* \"#utility.yul\":8522:8524   */\n      0x14\n        /* \"#utility.yul\":8517:8520   */\n      dup4\n        /* \"#utility.yul\":8458:8525   */\n      tag_644\n      jump\t// in\n    tag_679:\n        /* \"#utility.yul\":8451:8525   */\n      swap2\n      pop\n        /* \"#utility.yul\":8534:8627   */\n      tag_680\n        /* \"#utility.yul\":8623:8626   */\n      dup3\n        /* \"#utility.yul\":8534:8627   */\n      tag_681\n      jump\t// in\n    tag_680:\n        /* \"#utility.yul\":8652:8654   */\n      0x20\n        /* \"#utility.yul\":8647:8650   */\n      dup3\n        /* \"#utility.yul\":8643:8655   */\n      add\n        /* \"#utility.yul\":8636:8655   */\n      swap1\n      pop\n        /* \"#utility.yul\":8295:8661   */\n      swap2\n      swap1\n      pop\n      jump\t// out\n        /* \"#utility.yul\":8667:9033   */\n    tag_682:\n        /* \"#utility.yul\":8809:8812   */\n      0x00\n        /* \"#utility.yul\":8830:8897   */\n      tag_684\n        /* \"#utility.yul\":8894:8896   */\n      0x20\n        /* \"#utility.yul\":8889:8892   */\n      dup4\n        /* \"#utility.yul\":8830:8897   */\n      tag_644\n      jump\t// in\n    tag_684:\n        /* \"#utility.yul\":8823:8897   */\n      swap2\n      pop\n        /* \"#utility.yul\":8906:8999   */\n      tag_685\n        /* \"#utility.yul\":8995:8998   */\n      dup3\n        /* \"#utility.yul\":8906:8999   */\n      tag_686\n      jump\t// in\n    tag_685:\n        /* \"#utility.yul\":9024:9026   */\n      0x20\n        /* \"#utility.yul\":9019:9022   */\n      dup3\n        /* \"#utility.yul\":9015:9027   */\n      add\n        /* \"#utility.yul\":9008:9027   */\n      swap1\n      pop\n        /* \"#utility.yul\":8667:9033   */\n      swap2\n      swap1\n      pop\n      jump\t// out\n        /* \"#utility.yul\":9039:9405   */\n    tag_687:\n        /* \"#utility.yul\":9181:9184   */\n      0x00\n        /* \"#utility.yul\":9202:9269   */\n      tag_689\n        /* \"#utility.yul\":9266:9268   */\n      0x14\n        /* \"#utility.yul\":9261:9264   */\n      dup4\n        /* \"#utility.yul\":9202:9269   */\n      tag_644\n      jump\t// in\n    tag_689:\n        /* \"#utility.yul\":9195:9269   */\n      swap2\n      pop\n        /* \"#utility.yul\":9278:9371   */\n      tag_690\n        /* \"#utility.yul\":9367:9370   */\n      dup3\n        /* \"#utility.yul\":9278:9371   */\n      tag_691\n      jump\t// in\n    tag_690:\n        /* \"#utility.yul\":9396:9398   */\n      0x20\n        /* \"#utility.yul\":9391:9394   */\n      dup3\n        /* \"#utility.yul\":9387:9399   */\n      add\n        /* \"#utility.yul\":9380:9399   */\n      swap1\n      pop\n        /* \"#utility.yul\":9039:9405   */\n      swap2\n      swap1\n      pop\n      jump\t// out\n        /* \"#utility.yul\":9411:9777   */\n    tag_692:\n        /* \"#utility.yul\":9553:9556   */\n      0x00\n        /* \"#utility.yul\":9574:9641   */\n      tag_694\n        /* \"#utility.yul\":9638:9640   */\n      0x47\n        /* \"#utility.yul\":9633:9636   */\n      dup4\n        /* \"#utility.yul\":9574:9641   */\n      tag_644\n      jump\t// in\n    tag_694:\n        /* \"#utility.yul\":9567:9641   */\n      swap2\n      pop\n        /* \"#utility.yul\":9650:9743   */\n      tag_695\n        /* \"#utility.yul\":9739:9742   */\n      dup3\n        /* \"#utility.yul\":9650:9743   */\n      tag_696\n      jump\t// in\n    tag_695:\n        /* \"#utility.yul\":9768:9770   */\n      0x60\n        /* \"#utility.yul\":9763:9766   */\n      dup3\n        /* \"#utility.yul\":9759:9771   */\n      add\n        /* \"#utility.yul\":9752:9771   */\n      swap1\n      pop\n        /* \"#utility.yul\":9411:9777   */\n      swap2\n      swap1\n      pop\n      jump\t// out\n        /* \"#utility.yul\":9783:9891   */\n    tag_602:\n        /* \"#utility.yul\":9860:9884   */\n      tag_698\n        /* \"#utility.yul\":9878:9883   */\n      dup2\n        /* \"#utility.yul\":9860:9884   */\n      tag_699\n      jump\t// in\n    tag_698:\n        /* \"#utility.yul\":9855:9858   */\n      dup3\n        /* \"#utility.yul\":9848:9885   */\n      mstore\n        /* \"#utility.yul\":9783:9891   */\n      pop\n      pop\n      jump\t// out\n        /* \"#utility.yul\":9897:10015   */\n    tag_700:\n        /* \"#utility.yul\":9984:10008   */\n      tag_702\n        /* \"#utility.yul\":10002:10007   */\n      dup2\n        /* \"#utility.yul\":9984:10008   */\n      tag_699\n      jump\t// in\n    tag_702:\n        /* \"#utility.yul\":9979:9982   */\n      dup3\n        /* \"#utility.yul\":9972:10009   */\n      mstore\n        /* \"#utility.yul\":9897:10015   */\n      pop\n      pop\n      jump\t// out\n        /* \"#utility.yul\":10021:10243   */\n    tag_48:\n        /* \"#utility.yul\":10114:10118   */\n      0x00\n        /* \"#utility.yul\":10152:10154   */\n      0x20\n        /* \"#utility.yul\":10141:10150   */\n      dup3\n        /* \"#utility.yul\":10137:10155   */\n      add\n        /* \"#utility.yul\":10129:10155   */\n      swap1\n      pop\n        /* \"#utility.yul\":10165:10236   */\n      tag_704\n        /* \"#utility.yul\":10233:10234   */\n      0x00\n        /* \"#utility.yul\":10222:10231   */\n      dup4\n        /* \"#utility.yul\":10218:10235   */\n      add\n        /* \"#utility.yul\":10209:10215   */\n      dup5\n        /* \"#utility.yul\":10165:10236   */\n      tag_606\n      jump\t// in\n    tag_704:\n        /* \"#utility.yul\":10021:10243   */\n      swap3\n      swap2\n      pop\n      pop\n      jump\t// out\n        /* \"#utility.yul\":10249:10581   */\n    tag_237:\n        /* \"#utility.yul\":10370:10374   */\n      0x00\n        /* \"#utility.yul\":10408:10410   */\n      0x40\n        /* \"#utility.yul\":10397:10406   */\n      dup3\n        /* \"#utility.yul\":10393:10411   */\n      add\n        /* \"#utility.yul\":10385:10411   */\n      swap1\n      pop\n        /* \"#utility.yul\":10421:10492   */\n      tag_706\n        /* \"#utility.yul\":10489:10490   */\n      0x00\n        /* \"#utility.yul\":10478:10487   */\n      dup4\n        /* \"#utility.yul\":10474:10491   */\n      add\n        /* \"#utility.yul\":10465:10471   */\n      dup6\n        /* \"#utility.yul\":10421:10492   */\n      tag_606\n      jump\t// in\n    tag_706:\n        /* \"#utility.yul\":10502:10574   */\n      tag_707\n        /* \"#utility.yul\":10570:10572   */\n      0x20\n        /* \"#utility.yul\":10559:10568   */\n      dup4\n        /* \"#utility.yul\":10555:10573   */\n      add\n        /* \"#utility.yul\":10546:10552   */\n      dup5\n        /* \"#utility.yul\":10502:10574   */\n      tag_606\n      jump\t// in\n    tag_707:\n        /* \"#utility.yul\":10249:10581   */\n      swap4\n      swap3\n      pop\n      pop\n      pop\n      jump\t// out\n        /* \"#utility.yul\":10587:11029   */\n    tag_253:\n        /* \"#utility.yul\":10736:10740   */\n      0x00\n        /* \"#utility.yul\":10774:10776   */\n      0x60\n        /* \"#utility.yul\":10763:10772   */\n      dup3\n        /* \"#utility.yul\":10759:10777   */\n      add\n        /* \"#utility.yul\":10751:10777   */\n      swap1\n      pop\n        /* \"#utility.yul\":10787:10858   */\n      tag_709\n        /* \"#utility.yul\":10855:10856   */\n      0x00\n        /* \"#utility.yul\":10844:10853   */\n      dup4\n        /* \"#utility.yul\":10840:10857   */\n      add\n        /* \"#utility.yul\":10831:10837   */\n      dup7\n        /* \"#utility.yul\":10787:10858   */\n      tag_606\n      jump\t// in\n    tag_709:\n        /* \"#utility.yul\":10868:10940   */\n      tag_710\n        /* \"#utility.yul\":10936:10938   */\n      0x20\n        /* \"#utility.yul\":10925:10934   */\n      dup4\n        /* \"#utility.yul\":10921:10939   */\n      add\n        /* \"#utility.yul\":10912:10918   */\n      dup6\n        /* \"#utility.yul\":10868:10940   */\n      tag_606\n      jump\t// in\n    tag_710:\n        /* \"#utility.yul\":10950:11022   */\n      tag_711\n        /* \"#utility.yul\":11018:11020   */\n      0x40\n        /* \"#utility.yul\":11007:11016   */\n      dup4\n        /* \"#utility.yul\":11003:11021   */\n      add\n        /* \"#utility.yul\":10994:11000   */\n      dup5\n        /* \"#utility.yul\":10950:11022   */\n      tag_700\n      jump\t// in\n    tag_711:\n        /* \"#utility.yul\":10587:11029   */\n      swap5\n      swap4\n      pop\n      pop\n      pop\n      pop\n      jump\t// out\n        /* \"#utility.yul\":11035:11367   */\n    tag_258:\n        /* \"#utility.yul\":11156:11160   */\n      0x00\n        /* \"#utility.yul\":11194:11196   */\n      0x40\n        /* \"#utility.yul\":11183:11192   */\n      dup3\n        /* \"#utility.yul\":11179:11197   */\n      add\n        /* \"#utility.yul\":11171:11197   */\n      swap1\n      pop\n        /* \"#utility.yul\":11207:11278   */\n      tag_713\n        /* \"#utility.yul\":11275:11276   */\n      0x00\n        /* \"#utility.yul\":11264:11273   */\n      dup4\n        /* \"#utility.yul\":11260:11277   */\n      add\n        /* \"#utility.yul\":11251:11257   */\n      dup6\n        /* \"#utility.yul\":11207:11278   */\n      tag_606\n      jump\t// in\n    tag_713:\n        /* \"#utility.yul\":11288:11360   */\n      tag_714\n        /* \"#utility.yul\":11356:11358   */\n      0x20\n        /* \"#utility.yul\":11345:11354   */\n      dup4\n        /* \"#utility.yul\":11341:11359   */\n      add\n        /* \"#utility.yul\":11332:11338   */\n      dup5\n        /* \"#utility.yul\":11288:11360   */\n      tag_700\n      jump\t// in\n    tag_714:\n        /* \"#utility.yul\":11035:11367   */\n      swap4\n      swap3\n      pop\n      pop\n      pop\n      jump\t// out\n        /* \"#utility.yul\":11373:12268   */\n    tag_132:\n        /* \"#utility.yul\":11672:11676   */\n      0x00\n        /* \"#utility.yul\":11710:11712   */\n      0x60\n        /* \"#utility.yul\":11699:11708   */\n      dup3\n        /* \"#utility.yul\":11695:11713   */\n      add\n        /* \"#utility.yul\":11687:11713   */\n      swap1\n      pop\n        /* \"#utility.yul\":11759:11768   */\n      dup2\n        /* \"#utility.yul\":11753:11757   */\n      dup2\n        /* \"#utility.yul\":11749:11769   */\n      sub\n        /* \"#utility.yul\":11745:11746   */\n      0x00\n        /* \"#utility.yul\":11734:11743   */\n      dup4\n        /* \"#utility.yul\":11730:11747   */\n      add\n        /* \"#utility.yul\":11723:11770   */\n      mstore\n        /* \"#utility.yul\":11787:11895   */\n      tag_716\n        /* \"#utility.yul\":11890:11894   */\n      dup2\n        /* \"#utility.yul\":11881:11887   */\n      dup7\n        /* \"#utility.yul\":11787:11895   */\n      tag_623\n      jump\t// in\n    tag_716:\n        /* \"#utility.yul\":11779:11895   */\n      swap1\n      pop\n        /* \"#utility.yul\":11942:11951   */\n      dup2\n        /* \"#utility.yul\":11936:11940   */\n      dup2\n        /* \"#utility.yul\":11932:11952   */\n      sub\n        /* \"#utility.yul\":11927:11929   */\n      0x20\n        /* \"#utility.yul\":11916:11925   */\n      dup4\n        /* \"#utility.yul\":11912:11930   */\n      add\n        /* \"#utility.yul\":11905:11953   */\n      mstore\n        /* \"#utility.yul\":11970:12078   */\n      tag_717\n        /* \"#utility.yul\":12073:12077   */\n      dup2\n        /* \"#utility.yul\":12064:12070   */\n      dup6\n        /* \"#utility.yul\":11970:12078   */\n      tag_609\n      jump\t// in\n    tag_717:\n        /* \"#utility.yul\":11962:12078   */\n      swap1\n      pop\n        /* \"#utility.yul\":12125:12134   */\n      dup2\n        /* \"#utility.yul\":12119:12123   */\n      dup2\n        /* \"#utility.yul\":12115:12135   */\n      sub\n        /* \"#utility.yul\":12110:12112   */\n      0x40\n        /* \"#utility.yul\":12099:12108   */\n      dup4\n        /* \"#utility.yul\":12095:12113   */\n      add\n        /* \"#utility.yul\":12088:12136   */\n      mstore\n        /* \"#utility.yul\":12153:12261   */\n      tag_718\n        /* \"#utility.yul\":12256:12260   */\n      dup2\n        /* \"#utility.yul\":12247:12253   */\n      dup5\n        /* \"#utility.yul\":12153:12261   */\n      tag_623\n      jump\t// in\n    tag_718:\n        /* \"#utility.yul\":12145:12261   */\n      swap1\n      pop\n        /* \"#utility.yul\":11373:12268   */\n      swap5\n      swap4\n      pop\n      pop\n      pop\n      pop\n      jump\t// out\n        /* \"#utility.yul\":12274:12484   */\n    tag_67:\n        /* \"#utility.yul\":12361:12365   */\n      0x00\n        /* \"#utility.yul\":12399:12401   */\n      0x20\n        /* \"#utility.yul\":12388:12397   */\n      dup3\n        /* \"#utility.yul\":12384:12402   */\n      add\n        /* \"#utility.yul\":12376:12402   */\n      swap1\n      pop\n        /* \"#utility.yul\":12412:12477   */\n      tag_720\n        /* \"#utility.yul\":12474:12475   */\n      0x00\n        /* \"#utility.yul\":12463:12472   */\n      dup4\n        /* \"#utility.yul\":12459:12476   */\n      add\n        /* \"#utility.yul\":12450:12456   */\n      dup5\n        /* \"#utility.yul\":12412:12477   */\n      tag_637\n      jump\t// in\n    tag_720:\n        /* \"#utility.yul\":12274:12484   */\n      swap3\n      swap2\n      pop\n      pop\n      jump\t// out\n        /* \"#utility.yul\":12490:12909   */\n    tag_228:\n        /* \"#utility.yul\":12656:12660   */\n      0x00\n        /* \"#utility.yul\":12694:12696   */\n      0x20\n        /* \"#utility.yul\":12683:12692   */\n      dup3\n        /* \"#utility.yul\":12679:12697   */\n      add\n        /* \"#utility.yul\":12671:12697   */\n      swap1\n      pop\n        /* \"#utility.yul\":12743:12752   */\n      dup2\n        /* \"#utility.yul\":12737:12741   */\n      dup2\n        /* \"#utility.yul\":12733:12753   */\n      sub\n        /* \"#utility.yul\":12729:12730   */\n      0x00\n        /* \"#utility.yul\":12718:12727   */\n      dup4\n        /* \"#utility.yul\":12714:12731   */\n      add\n        /* \"#utility.yul\":12707:12754   */\n      mstore\n        /* \"#utility.yul\":12771:12902   */\n      tag_722\n        /* \"#utility.yul\":12897:12901   */\n      dup2\n        /* \"#utility.yul\":12771:12902   */\n      tag_641\n      jump\t// in\n    tag_722:\n        /* \"#utility.yul\":12763:12902   */\n      swap1\n      pop\n        /* \"#utility.yul\":12490:12909   */\n      swap2\n      swap1\n      pop\n      jump\t// out\n        /* \"#utility.yul\":12915:13334   */\n    tag_335:\n        /* \"#utility.yul\":13081:13085   */\n      0x00\n        /* \"#utility.yul\":13119:13121   */\n      0x20\n        /* \"#utility.yul\":13108:13117   */\n      dup3\n        /* \"#utility.yul\":13104:13122   */\n      add\n        /* \"#utility.yul\":13096:13122   */\n      swap1\n      pop\n        /* \"#utility.yul\":13168:13177   */\n      dup2\n        /* \"#utility.yul\":13162:13166   */\n      dup2\n        /* \"#utility.yul\":13158:13178   */\n      sub\n        /* \"#utility.yul\":13154:13155   */\n      0x00\n        /* \"#utility.yul\":13143:13152   */\n      dup4\n        /* \"#utility.yul\":13139:13156   */\n      add\n        /* \"#utility.yul\":13132:13179   */\n      mstore\n        /* \"#utility.yul\":13196:13327   */\n      tag_724\n        /* \"#utility.yul\":13322:13326   */\n      dup2\n        /* \"#utility.yul\":13196:13327   */\n      tag_647\n      jump\t// in\n    tag_724:\n        /* \"#utility.yul\":13188:13327   */\n      swap1\n      pop\n        /* \"#utility.yul\":12915:13334   */\n      swap2\n      swap1\n      pop\n      jump\t// out\n        /* \"#utility.yul\":13340:13759   */\n    tag_544:\n        /* \"#utility.yul\":13506:13510   */\n      0x00\n        /* \"#utility.yul\":13544:13546   */\n      0x20\n        /* \"#utility.yul\":13533:13542   */\n      dup3\n        /* \"#utility.yul\":13529:13547   */\n      add\n        /* \"#utility.yul\":13521:13547   */\n      swap1\n      pop\n        /* \"#utility.yul\":13593:13602   */\n      dup2\n        /* \"#utility.yul\":13587:13591   */\n      dup2\n        /* \"#utility.yul\":13583:13603   */\n      sub\n        /* \"#utility.yul\":13579:13580   */\n      0x00\n        /* \"#utility.yul\":13568:13577   */\n      dup4\n        /* \"#utility.yul\":13564:13581   */\n      add\n        /* \"#utility.yul\":13557:13604   */\n      mstore\n        /* \"#utility.yul\":13621:13752   */\n      tag_726\n        /* \"#utility.yul\":13747:13751   */\n      dup2\n        /* \"#utility.yul\":13621:13752   */\n      tag_652\n      jump\t// in\n    tag_726:\n        /* \"#utility.yul\":13613:13752   */\n      swap1\n      pop\n        /* \"#utility.yul\":13340:13759   */\n      swap2\n      swap1\n      pop\n      jump\t// out\n        /* \"#utility.yul\":13765:14184   */\n    tag_377:\n        /* \"#utility.yul\":13931:13935   */\n      0x00\n        /* \"#utility.yul\":13969:13971   */\n      0x20\n        /* \"#utility.yul\":13958:13967   */\n      dup3\n        /* \"#utility.yul\":13954:13972   */\n      add\n        /* \"#utility.yul\":13946:13972   */\n      swap1\n      pop\n        /* \"#utility.yul\":14018:14027   */\n      dup2\n        /* \"#utility.yul\":14012:14016   */\n      dup2\n        /* \"#utility.yul\":14008:14028   */\n      sub\n        /* \"#utility.yul\":14004:14005   */\n      0x00\n        /* \"#utility.yul\":13993:14002   */\n      dup4\n        /* \"#utility.yul\":13989:14006   */\n      add\n        /* \"#utility.yul\":13982:14029   */\n      mstore\n        /* \"#utility.yul\":14046:14177   */\n      tag_728\n        /* \"#utility.yul\":14172:14176   */\n      dup2\n        /* \"#utility.yul\":14046:14177   */\n      tag_657\n      jump\t// in\n    tag_728:\n        /* \"#utility.yul\":14038:14177   */\n      swap1\n      pop\n        /* \"#utility.yul\":13765:14184   */\n      swap2\n      swap1\n      pop\n      jump\t// out\n        /* \"#utility.yul\":14190:14609   */\n    tag_251:\n        /* \"#utility.yul\":14356:14360   */\n      0x00\n        /* \"#utility.yul\":14394:14396   */\n      0x20\n        /* \"#utility.yul\":14383:14392   */\n      dup3\n        /* \"#utility.yul\":14379:14397   */\n      add\n        /* \"#utility.yul\":14371:14397   */\n      swap1\n      pop\n        /* \"#utility.yul\":14443:14452   */\n      dup2\n        /* \"#utility.yul\":14437:14441   */\n      dup2\n        /* \"#utility.yul\":14433:14453   */\n      sub\n        /* \"#utility.yul\":14429:14430   */\n      0x00\n        /* \"#utility.yul\":14418:14427   */\n      dup4\n        /* \"#utility.yul\":14414:14431   */\n      add\n        /* \"#utility.yul\":14407:14454   */\n      mstore\n        /* \"#utility.yul\":14471:14602   */\n      tag_730\n        /* \"#utility.yul\":14597:14601   */\n      dup2\n        /* \"#utility.yul\":14471:14602   */\n      tag_662\n      jump\t// in\n    tag_730:\n        /* \"#utility.yul\":14463:14602   */\n      swap1\n      pop\n        /* \"#utility.yul\":14190:14609   */\n      swap2\n      swap1\n      pop\n      jump\t// out\n        /* \"#utility.yul\":14615:15034   */\n    tag_352:\n        /* \"#utility.yul\":14781:14785   */\n      0x00\n        /* \"#utility.yul\":14819:14821   */\n      0x20\n        /* \"#utility.yul\":14808:14817   */\n      dup3\n        /* \"#utility.yul\":14804:14822   */\n      add\n        /* \"#utility.yul\":14796:14822   */\n      swap1\n      pop\n        /* \"#utility.yul\":14868:14877   */\n      dup2\n        /* \"#utility.yul\":14862:14866   */\n      dup2\n        /* \"#utility.yul\":14858:14878   */\n      sub\n        /* \"#utility.yul\":14854:14855   */\n      0x00\n        /* \"#utility.yul\":14843:14852   */\n      dup4\n        /* \"#utility.yul\":14839:14856   */\n      add\n        /* \"#utility.yul\":14832:14879   */\n      mstore\n        /* \"#utility.yul\":14896:15027   */\n      tag_732\n        /* \"#utility.yul\":15022:15026   */\n      dup2\n        /* \"#utility.yul\":14896:15027   */\n      tag_667\n      jump\t// in\n    tag_732:\n        /* \"#utility.yul\":14888:15027   */\n      swap1\n      pop\n        /* \"#utility.yul\":14615:15034   */\n      swap2\n      swap1\n      pop\n      jump\t// out\n        /* \"#utility.yul\":15040:15459   */\n    tag_245:\n        /* \"#utility.yul\":15206:15210   */\n      0x00\n        /* \"#utility.yul\":15244:15246   */\n      0x20\n        /* \"#utility.yul\":15233:15242   */\n      dup3\n        /* \"#utility.yul\":15229:15247   */\n      add\n        /* \"#utility.yul\":15221:15247   */\n      swap1\n      pop\n        /* \"#utility.yul\":15293:15302   */\n      dup2\n        /* \"#utility.yul\":15287:15291   */\n      dup2\n        /* \"#utility.yul\":15283:15303   */\n      sub\n        /* \"#utility.yul\":15279:15280   */\n      0x00\n        /* \"#utility.yul\":15268:15277   */\n      dup4\n        /* \"#utility.yul\":15264:15281   */\n      add\n        /* \"#utility.yul\":15257:15304   */\n      mstore\n        /* \"#utility.yul\":15321:15452   */\n      tag_734\n        /* \"#utility.yul\":15447:15451   */\n      dup2\n        /* \"#utility.yul\":15321:15452   */\n      tag_672\n      jump\t// in\n    tag_734:\n        /* \"#utility.yul\":15313:15452   */\n      swap1\n      pop\n        /* \"#utility.yul\":15040:15459   */\n      swap2\n      swap1\n      pop\n      jump\t// out\n        /* \"#utility.yul\":15465:15884   */\n    tag_248:\n        /* \"#utility.yul\":15631:15635   */\n      0x00\n        /* \"#utility.yul\":15669:15671   */\n      0x20\n        /* \"#utility.yul\":15658:15667   */\n      dup3\n        /* \"#utility.yul\":15654:15672   */\n      add\n        /* \"#utility.yul\":15646:15672   */\n      swap1\n      pop\n        /* \"#utility.yul\":15718:15727   */\n      dup2\n        /* \"#utility.yul\":15712:15716   */\n      dup2\n        /* \"#utility.yul\":15708:15728   */\n      sub\n        /* \"#utility.yul\":15704:15705   */\n      0x00\n        /* \"#utility.yul\":15693:15702   */\n      dup4\n        /* \"#utility.yul\":15689:15706   */\n      add\n        /* \"#utility.yul\":15682:15729   */\n      mstore\n        /* \"#utility.yul\":15746:15877   */\n      tag_736\n        /* \"#utility.yul\":15872:15876   */\n      dup2\n        /* \"#utility.yul\":15746:15877   */\n      tag_677\n      jump\t// in\n    tag_736:\n        /* \"#utility.yul\":15738:15877   */\n      swap1\n      pop\n        /* \"#utility.yul\":15465:15884   */\n      swap2\n      swap1\n      pop\n      jump\t// out\n        /* \"#utility.yul\":15890:16309   */\n    tag_185:\n        /* \"#utility.yul\":16056:16060   */\n      0x00\n        /* \"#utility.yul\":16094:16096   */\n      0x20\n        /* \"#utility.yul\":16083:16092   */\n      dup3\n        /* \"#utility.yul\":16079:16097   */\n      add\n        /* \"#utility.yul\":16071:16097   */\n      swap1\n      pop\n        /* \"#utility.yul\":16143:16152   */\n      dup2\n        /* \"#utility.yul\":16137:16141   */\n      dup2\n        /* \"#utility.yul\":16133:16153   */\n      sub\n        /* \"#utility.yul\":16129:16130   */\n      0x00\n        /* \"#utility.yul\":16118:16127   */\n      dup4\n        /* \"#utility.yul\":16114:16131   */\n      add\n        /* \"#utility.yul\":16107:16154   */\n      mstore\n        /* \"#utility.yul\":16171:16302   */\n      tag_738\n        /* \"#utility.yul\":16297:16301   */\n      dup2\n        /* \"#utility.yul\":16171:16302   */\n      tag_682\n      jump\t// in\n    tag_738:\n        /* \"#utility.yul\":16163:16302   */\n      swap1\n      pop\n        /* \"#utility.yul\":15890:16309   */\n      swap2\n      swap1\n      pop\n      jump\t// out\n        /* \"#utility.yul\":16315:16734   */\n    tag_219:\n        /* \"#utility.yul\":16481:16485   */\n      0x00\n        /* \"#utility.yul\":16519:16521   */\n      0x20\n        /* \"#utility.yul\":16508:16517   */\n      dup3\n        /* \"#utility.yul\":16504:16522   */\n      add\n        /* \"#utility.yul\":16496:16522   */\n      swap1\n      pop\n        /* \"#utility.yul\":16568:16577   */\n      dup2\n        /* \"#utility.yul\":16562:16566   */\n      dup2\n        /* \"#utility.yul\":16558:16578   */\n      sub\n        /* \"#utility.yul\":16554:16555   */\n      0x00\n        /* \"#utility.yul\":16543:16552   */\n      dup4\n        /* \"#utility.yul\":16539:16556   */\n      add\n        /* \"#utility.yul\":16532:16579   */\n      mstore\n        /* \"#utility.yul\":16596:16727   */\n      tag_740\n        /* \"#utility.yul\":16722:16726   */\n      dup2\n        /* \"#utility.yul\":16596:16727   */\n      tag_687\n      jump\t// in\n    tag_740:\n        /* \"#utility.yul\":16588:16727   */\n      swap1\n      pop\n        /* \"#utility.yul\":16315:16734   */\n      swap2\n      swap1\n      pop\n      jump\t// out\n        /* \"#utility.yul\":16740:17159   */\n    tag_294:\n        /* \"#utility.yul\":16906:16910   */\n      0x00\n        /* \"#utility.yul\":16944:16946   */\n      0x20\n        /* \"#utility.yul\":16933:16942   */\n      dup3\n        /* \"#utility.yul\":16929:16947   */\n      add\n        /* \"#utility.yul\":16921:16947   */\n      swap1\n      pop\n        /* \"#utility.yul\":16993:17002   */\n      dup2\n        /* \"#utility.yul\":16987:16991   */\n      dup2\n        /* \"#utility.yul\":16983:17003   */\n      sub\n        /* \"#utility.yul\":16979:16980   */\n      0x00\n        /* \"#utility.yul\":16968:16977   */\n      dup4\n        /* \"#utility.yul\":16964:16981   */\n      add\n        /* \"#utility.yul\":16957:17004   */\n      mstore\n        /* \"#utility.yul\":17021:17152   */\n      tag_742\n        /* \"#utility.yul\":17147:17151   */\n      dup2\n        /* \"#utility.yul\":17021:17152   */\n      tag_692\n      jump\t// in\n    tag_742:\n        /* \"#utility.yul\":17013:17152   */\n      swap1\n      pop\n        /* \"#utility.yul\":16740:17159   */\n      swap2\n      swap1\n      pop\n      jump\t// out\n        /* \"#utility.yul\":17165:17387   */\n    tag_77:\n        /* \"#utility.yul\":17258:17262   */\n      0x00\n        /* \"#utility.yul\":17296:17298   */\n      0x20\n        /* \"#utility.yul\":17285:17294   */\n      dup3\n        /* \"#utility.yul\":17281:17299   */\n      add\n        /* \"#utility.yul\":17273:17299   */\n      swap1\n      pop\n        /* \"#utility.yul\":17309:17380   */\n      tag_744\n        /* \"#utility.yul\":17377:17378   */\n      0x00\n        /* \"#utility.yul\":17366:17375   */\n      dup4\n        /* \"#utility.yul\":17362:17379   */\n      add\n        /* \"#utility.yul\":17353:17359   */\n      dup5\n        /* \"#utility.yul\":17309:17380   */\n      tag_700\n      jump\t// in\n    tag_744:\n        /* \"#utility.yul\":17165:17387   */\n      swap3\n      swap2\n      pop\n      pop\n      jump\t// out\n        /* \"#utility.yul\":17393:17725   */\n    tag_356:\n        /* \"#utility.yul\":17514:17518   */\n      0x00\n        /* \"#utility.yul\":17552:17554   */\n      0x40\n        /* \"#utility.yul\":17541:17550   */\n      dup3\n        /* \"#utility.yul\":17537:17555   */\n      add\n        /* \"#utility.yul\":17529:17555   */\n      swap1\n      pop\n        /* \"#utility.yul\":17565:17636   */\n      tag_746\n        /* \"#utility.yul\":17633:17634   */\n      0x00\n        /* \"#utility.yul\":17622:17631   */\n      dup4\n        /* \"#utility.yul\":17618:17635   */\n      add\n        /* \"#utility.yul\":17609:17615   */\n      dup6\n        /* \"#utility.yul\":17565:17636   */\n      tag_700\n      jump\t// in\n    tag_746:\n        /* \"#utility.yul\":17646:17718   */\n      tag_747\n        /* \"#utility.yul\":17714:17716   */\n      0x20\n        /* \"#utility.yul\":17703:17712   */\n      dup4\n        /* \"#utility.yul\":17699:17717   */\n      add\n        /* \"#utility.yul\":17690:17696   */\n      dup5\n        /* \"#utility.yul\":17646:17718   */\n      tag_700\n      jump\t// in\n    tag_747:\n        /* \"#utility.yul\":17393:17725   */\n      swap4\n      swap3\n      pop\n      pop\n      pop\n      jump\t// out\n        /* \"#utility.yul\":17812:17944   */\n    tag_616:\n        /* \"#utility.yul\":17879:17883   */\n      0x00\n        /* \"#utility.yul\":17902:17905   */\n      dup2\n        /* \"#utility.yul\":17894:17905   */\n      swap1\n      pop\n        /* \"#utility.yul\":17932:17936   */\n      0x20\n        /* \"#utility.yul\":17927:17930   */\n      dup3\n        /* \"#utility.yul\":17923:17937   */\n      add\n        /* \"#utility.yul\":17915:17937   */\n      swap1\n      pop\n        /* \"#utility.yul\":17812:17944   */\n      swap2\n      swap1\n      pop\n      jump\t// out\n        /* \"#utility.yul\":17950:18082   */\n    tag_630:\n        /* \"#utility.yul\":18017:18021   */\n      0x00\n        /* \"#utility.yul\":18040:18043   */\n      dup2\n        /* \"#utility.yul\":18032:18043   */\n      swap1\n      pop\n        /* \"#utility.yul\":18070:18074   */\n      0x20\n        /* \"#utility.yul\":18065:18068   */\n      dup3\n        /* \"#utility.yul\":18061:18075   */\n      add\n        /* \"#utility.yul\":18053:18075   */\n      swap1\n      pop\n        /* \"#utility.yul\":17950:18082   */\n      swap2\n      swap1\n      pop\n      jump\t// out\n        /* \"#utility.yul\":18088:18202   */\n    tag_612:\n        /* \"#utility.yul\":18155:18161   */\n      0x00\n        /* \"#utility.yul\":18189:18194   */\n      dup2\n        /* \"#utility.yul\":18183:18195   */\n      mload\n        /* \"#utility.yul\":18173:18195   */\n      swap1\n      pop\n        /* \"#utility.yul\":18088:18202   */\n      swap2\n      swap1\n      pop\n      jump\t// out\n        /* \"#utility.yul\":18208:18322   */\n    tag_626:\n        /* \"#utility.yul\":18275:18281   */\n      0x00\n        /* \"#utility.yul\":18309:18314   */\n      dup2\n        /* \"#utility.yul\":18303:18315   */\n      mload\n        /* \"#utility.yul\":18293:18315   */\n      swap1\n      pop\n        /* \"#utility.yul\":18208:18322   */\n      swap2\n      swap1\n      pop\n      jump\t// out\n        /* \"#utility.yul\":18328:18441   */\n    tag_622:\n        /* \"#utility.yul\":18398:18402   */\n      0x00\n        /* \"#utility.yul\":18430:18434   */\n      0x20\n        /* \"#utility.yul\":18425:18428   */\n      dup3\n        /* \"#utility.yul\":18421:18435   */\n      add\n        /* \"#utility.yul\":18413:18435   */\n      swap1\n      pop\n        /* \"#utility.yul\":18328:18441   */\n      swap2\n      swap1\n      pop\n      jump\t// out\n        /* \"#utility.yul\":18447:18560   */\n    tag_636:\n        /* \"#utility.yul\":18517:18521   */\n      0x00\n        /* \"#utility.yul\":18549:18553   */\n      0x20\n        /* \"#utility.yul\":18544:18547   */\n      dup3\n        /* \"#utility.yul\":18540:18554   */\n      add\n        /* \"#utility.yul\":18532:18554   */\n      swap1\n      pop\n        /* \"#utility.yul\":18447:18560   */\n      swap2\n      swap1\n      pop\n      jump\t// out\n        /* \"#utility.yul\":18566:18750   */\n    tag_614:\n        /* \"#utility.yul\":18665:18676   */\n      0x00\n        /* \"#utility.yul\":18699:18705   */\n      dup3\n        /* \"#utility.yul\":18694:18697   */\n      dup3\n        /* \"#utility.yul\":18687:18706   */\n      mstore\n        /* \"#utility.yul\":18739:18743   */\n      0x20\n        /* \"#utility.yul\":18734:18737   */\n      dup3\n        /* \"#utility.yul\":18730:18744   */\n      add\n        /* \"#utility.yul\":18715:18744   */\n      swap1\n      pop\n        /* \"#utility.yul\":18566:18750   */\n      swap3\n      swap2\n      pop\n      pop\n      jump\t// out\n        /* \"#utility.yul\":18756:18940   */\n    tag_628:\n        /* \"#utility.yul\":18855:18866   */\n      0x00\n        /* \"#utility.yul\":18889:18895   */\n      dup3\n        /* \"#utility.yul\":18884:18887   */\n      dup3\n        /* \"#utility.yul\":18877:18896   */\n      mstore\n        /* \"#utility.yul\":18929:18933   */\n      0x20\n        /* \"#utility.yul\":18924:18927   */\n      dup3\n        /* \"#utility.yul\":18920:18934   */\n      add\n        /* \"#utility.yul\":18905:18934   */\n      swap1\n      pop\n        /* \"#utility.yul\":18756:18940   */\n      swap3\n      swap2\n      pop\n      pop\n      jump\t// out\n        /* \"#utility.yul\":18946:19115   */\n    tag_644:\n        /* \"#utility.yul\":19030:19041   */\n      0x00\n        /* \"#utility.yul\":19064:19070   */\n      dup3\n        /* \"#utility.yul\":19059:19062   */\n      dup3\n        /* \"#utility.yul\":19052:19071   */\n      mstore\n        /* \"#utility.yul\":19104:19108   */\n      0x20\n        /* \"#utility.yul\":19099:19102   */\n      dup3\n        /* \"#utility.yul\":19095:19109   */\n      add\n        /* \"#utility.yul\":19080:19109   */\n      swap1\n      pop\n        /* \"#utility.yul\":18946:19115   */\n      swap3\n      swap2\n      pop\n      pop\n      jump\t// out\n        /* \"#utility.yul\":19121:19426   */\n    tag_498:\n        /* \"#utility.yul\":19161:19164   */\n      0x00\n        /* \"#utility.yul\":19180:19200   */\n      tag_760\n        /* \"#utility.yul\":19198:19199   */\n      dup3\n        /* \"#utility.yul\":19180:19200   */\n      tag_699\n      jump\t// in\n    tag_760:\n        /* \"#utility.yul\":19175:19200   */\n      swap2\n      pop\n        /* \"#utility.yul\":19214:19234   */\n      tag_761\n        /* \"#utility.yul\":19232:19233   */\n      dup4\n        /* \"#utility.yul\":19214:19234   */\n      tag_699\n      jump\t// in\n    tag_761:\n        /* \"#utility.yul\":19209:19234   */\n      swap3\n      pop\n        /* \"#utility.yul\":19368:19369   */\n      dup3\n        /* \"#utility.yul\":19300:19366   */\n      0xffffffffffffffffffffffffffffffffffffffffffffffffffffffffffffffff\n        /* \"#utility.yul\":19296:19370   */\n      sub\n        /* \"#utility.yul\":19293:19294   */\n      dup3\n        /* \"#utility.yul\":19290:19371   */\n      gt\n        /* \"#utility.yul\":19287:19394   */\n      iszero\n      tag_762\n      jumpi\n        /* \"#utility.yul\":19374:19392   */\n      tag_763\n      tag_764\n      jump\t// in\n    tag_763:\n        /* \"#utility.yul\":19287:19394   */\n    tag_762:\n        /* \"#utility.yul\":19418:19419   */\n      dup3\n        /* \"#utility.yul\":19415:19416   */\n      dup3\n        /* \"#utility.yul\":19411:19420   */\n      add\n        /* \"#utility.yul\":19404:19420   */\n      swap1\n      pop\n        /* \"#utility.yul\":19121:19426   */\n      swap3\n      swap2\n      pop\n      pop\n      jump\t// out\n        /* \"#utility.yul\":19432:19617   */\n    tag_309:\n        /* \"#utility.yul\":19472:19473   */\n      0x00\n        /* \"#utility.yul\":19489:19509   */\n      tag_766\n        /* \"#utility.yul\":19507:19508   */\n      dup3\n        /* \"#utility.yul\":19489:19509   */\n      tag_699\n      jump\t// in\n    tag_766:\n        /* \"#utility.yul\":19484:19509   */\n      swap2\n      pop\n        /* \"#utility.yul\":19523:19543   */\n      tag_767\n        /* \"#utility.yul\":19541:19542   */\n      dup4\n        /* \"#utility.yul\":19523:19543   */\n      tag_699\n      jump\t// in\n    tag_767:\n        /* \"#utility.yul\":19518:19543   */\n      swap3\n      pop\n        /* \"#utility.yul\":19562:19563   */\n      dup3\n        /* \"#utility.yul\":19552:19587   */\n      tag_768\n      jumpi\n        /* \"#utility.yul\":19567:19585   */\n      tag_769\n      tag_770\n      jump\t// in\n    tag_769:\n        /* \"#utility.yul\":19552:19587   */\n    tag_768:\n        /* \"#utility.yul\":19609:19610   */\n      dup3\n        /* \"#utility.yul\":19606:19607   */\n      dup3\n        /* \"#utility.yul\":19602:19611   */\n      div\n        /* \"#utility.yul\":19597:19611   */\n      swap1\n      pop\n        /* \"#utility.yul\":19432:19617   */\n      swap3\n      swap2\n      pop\n      pop\n      jump\t// out\n        /* \"#utility.yul\":19623:19971   */\n    tag_286:\n        /* \"#utility.yul\":19663:19670   */\n      0x00\n        /* \"#utility.yul\":19686:19706   */\n      tag_772\n        /* \"#utility.yul\":19704:19705   */\n      dup3\n        /* \"#utility.yul\":19686:19706   */\n      tag_699\n      jump\t// in\n    tag_772:\n        /* \"#utility.yul\":19681:19706   */\n      swap2\n      pop\n        /* \"#utility.yul\":19720:19740   */\n      tag_773\n        /* \"#utility.yul\":19738:19739   */\n      dup4\n        /* \"#utility.yul\":19720:19740   */\n      tag_699\n      jump\t// in\n    tag_773:\n        /* \"#utility.yul\":19715:19740   */\n      swap3\n      pop\n        /* \"#utility.yul\":19908:19909   */\n      dup2\n        /* \"#utility.yul\":19840:19906   */\n      0xffffffffffffffffffffffffffffffffffffffffffffffffffffffffffffffff\n        /* \"#utility.yul\":19836:19910   */\n      div\n        /* \"#utility.yul\":19833:19834   */\n      dup4\n        /* \"#utility.yul\":19830:19911   */\n      gt\n        /* \"#utility.yul\":19825:19826   */\n      dup3\n        /* \"#utility.yul\":19818:19827   */\n      iszero\n        /* \"#utility.yul\":19811:19828   */\n      iszero\n        /* \"#utility.yul\":19807:19912   */\n      and\n        /* \"#utility.yul\":19804:19935   */\n      iszero\n      tag_774\n      jumpi\n        /* \"#utility.yul\":19915:19933   */\n      tag_775\n      tag_764\n      jump\t// in\n    tag_775:\n        /* \"#utility.yul\":19804:19935   */\n    tag_774:\n        /* \"#utility.yul\":19963:19964   */\n      dup3\n        /* \"#utility.yul\":19960:19961   */\n      dup3\n        /* \"#utility.yul\":19956:19965   */\n      mul\n        /* \"#utility.yul\":19945:19965   */\n      swap1\n      pop\n        /* \"#utility.yul\":19623:19971   */\n      swap3\n      swap2\n      pop\n      pop\n      jump\t// out\n        /* \"#utility.yul\":19977:20168   */\n    tag_306:\n        /* \"#utility.yul\":20017:20021   */\n      0x00\n        /* \"#utility.yul\":20037:20057   */\n      tag_777\n        /* \"#utility.yul\":20055:20056   */\n      dup3\n        /* \"#utility.yul\":20037:20057   */\n      tag_699\n      jump\t// in\n    tag_777:\n        /* \"#utility.yul\":20032:20057   */\n      swap2\n      pop\n        /* \"#utility.yul\":20071:20091   */\n      tag_778\n        /* \"#utility.yul\":20089:20090   */\n      dup4\n        /* \"#utility.yul\":20071:20091   */\n      tag_699\n      jump\t// in\n    tag_778:\n        /* \"#utility.yul\":20066:20091   */\n      swap3\n      pop\n        /* \"#utility.yul\":20110:20111   */\n      dup3\n        /* \"#utility.yul\":20107:20108   */\n      dup3\n        /* \"#utility.yul\":20104:20112   */\n      lt\n        /* \"#utility.yul\":20101:20135   */\n      iszero\n      tag_779\n      jumpi\n        /* \"#utility.yul\":20115:20133   */\n      tag_780\n      tag_764\n      jump\t// in\n    tag_780:\n        /* \"#utility.yul\":20101:20135   */\n    tag_779:\n        /* \"#utility.yul\":20160:20161   */\n      dup3\n        /* \"#utility.yul\":20157:20158   */\n      dup3\n        /* \"#utility.yul\":20153:20162   */\n      sub\n        /* \"#utility.yul\":20145:20162   */\n      swap1\n      pop\n        /* \"#utility.yul\":19977:20168   */\n      swap3\n      swap2\n      pop\n      pop\n      jump\t// out\n        /* \"#utility.yul\":20174:20270   */\n    tag_605:\n        /* \"#utility.yul\":20211:20218   */\n      0x00\n        /* \"#utility.yul\":20240:20264   */\n      tag_782\n        /* \"#utility.yul\":20258:20263   */\n      dup3\n        /* \"#utility.yul\":20240:20264   */\n      tag_783\n      jump\t// in\n    tag_782:\n        /* \"#utility.yul\":20229:20264   */\n      swap1\n      pop\n        /* \"#utility.yul\":20174:20270   */\n      swap2\n      swap1\n      pop\n      jump\t// out\n        /* \"#utility.yul\":20276:20366   */\n    tag_640:\n        /* \"#utility.yul\":20310:20317   */\n      0x00\n        /* \"#utility.yul\":20353:20358   */\n      dup2\n        /* \"#utility.yul\":20346:20359   */\n      iszero\n        /* \"#utility.yul\":20339:20360   */\n      iszero\n        /* \"#utility.yul\":20328:20360   */\n      swap1\n      pop\n        /* \"#utility.yul\":20276:20366   */\n      swap2\n      swap1\n      pop\n      jump\t// out\n        /* \"#utility.yul\":20372:20498   */\n    tag_783:\n        /* \"#utility.yul\":20409:20416   */\n      0x00\n        /* \"#utility.yul\":20449:20491   */\n      0xffffffffffffffffffffffffffffffffffffffff\n        /* \"#utility.yul\":20442:20447   */\n      dup3\n        /* \"#utility.yul\":20438:20492   */\n      and\n        /* \"#utility.yul\":20427:20492   */\n      swap1\n      pop\n        /* \"#utility.yul\":20372:20498   */\n      swap2\n      swap1\n      pop\n      jump\t// out\n        /* \"#utility.yul\":20504:20581   */\n    tag_699:\n        /* \"#utility.yul\":20541:20548   */\n      0x00\n        /* \"#utility.yul\":20570:20575   */\n      dup2\n        /* \"#utility.yul\":20559:20575   */\n      swap1\n      pop\n        /* \"#utility.yul\":20504:20581   */\n      swap2\n      swap1\n      pop\n      jump\t// out\n        /* \"#utility.yul\":20587:20758   */\n    tag_539:\n        /* \"#utility.yul\":20626:20629   */\n      0x00\n        /* \"#utility.yul\":20649:20673   */\n      tag_788\n        /* \"#utility.yul\":20667:20672   */\n      dup3\n        /* \"#utility.yul\":20649:20673   */\n      tag_699\n      jump\t// in\n    tag_788:\n        /* \"#utility.yul\":20640:20673   */\n      swap2\n      pop\n        /* \"#utility.yul\":20695:20699   */\n      0x00\n        /* \"#utility.yul\":20688:20693   */\n      dup3\n        /* \"#utility.yul\":20685:20700   */\n      eq\n        /* \"#utility.yul\":20682:20723   */\n      iszero\n      tag_789\n      jumpi\n        /* \"#utility.yul\":20703:20721   */\n      tag_790\n      tag_764\n      jump\t// in\n    tag_790:\n        /* \"#utility.yul\":20682:20723   */\n    tag_789:\n        /* \"#utility.yul\":20750:20751   */\n      0x01\n        /* \"#utility.yul\":20743:20748   */\n      dup3\n        /* \"#utility.yul\":20739:20752   */\n      sub\n        /* \"#utility.yul\":20732:20752   */\n      swap1\n      pop\n        /* \"#utility.yul\":20587:20758   */\n      swap2\n      swap1\n      pop\n      jump\t// out\n        /* \"#utility.yul\":20764:20997   */\n    tag_427:\n        /* \"#utility.yul\":20803:20806   */\n      0x00\n        /* \"#utility.yul\":20826:20850   */\n      tag_792\n        /* \"#utility.yul\":20844:20849   */\n      dup3\n        /* \"#utility.yul\":20826:20850   */\n      tag_699\n      jump\t// in\n    tag_792:\n        /* \"#utility.yul\":20817:20850   */\n      swap2\n      pop\n        /* \"#utility.yul\":20872:20938   */\n      0xffffffffffffffffffffffffffffffffffffffffffffffffffffffffffffffff\n        /* \"#utility.yul\":20865:20870   */\n      dup3\n        /* \"#utility.yul\":20862:20939   */\n      eq\n        /* \"#utility.yul\":20859:20962   */\n      iszero\n      tag_793\n      jumpi\n        /* \"#utility.yul\":20942:20960   */\n      tag_794\n      tag_764\n      jump\t// in\n    tag_794:\n        /* \"#utility.yul\":20859:20962   */\n    tag_793:\n        /* \"#utility.yul\":20989:20990   */\n      0x01\n        /* \"#utility.yul\":20982:20987   */\n      dup3\n        /* \"#utility.yul\":20978:20991   */\n      add\n        /* \"#utility.yul\":20971:20991   */\n      swap1\n      pop\n        /* \"#utility.yul\":20764:20997   */\n      swap2\n      swap1\n      pop\n      jump\t// out\n        /* \"#utility.yul\":21003:21183   */\n    tag_764:\n        /* \"#utility.yul\":21051:21128   */\n      0x4e487b7100000000000000000000000000000000000000000000000000000000\n        /* \"#utility.yul\":21048:21049   */\n      0x00\n        /* \"#utility.yul\":21041:21129   */\n      mstore\n        /* \"#utility.yul\":21148:21152   */\n      0x11\n        /* \"#utility.yul\":21145:21146   */\n      0x04\n        /* \"#utility.yul\":21138:21153   */\n      mstore\n        /* \"#utility.yul\":21172:21176   */\n      0x24\n        /* \"#utility.yul\":21169:21170   */\n      0x00\n        /* \"#utility.yul\":21162:21177   */\n      revert\n        /* \"#utility.yul\":21189:21369   */\n    tag_770:\n        /* \"#utility.yul\":21237:21314   */\n      0x4e487b7100000000000000000000000000000000000000000000000000000000\n        /* \"#utility.yul\":21234:21235   */\n      0x00\n        /* \"#utility.yul\":21227:21315   */\n      mstore\n        /* \"#utility.yul\":21334:21338   */\n      0x12\n        /* \"#utility.yul\":21331:21332   */\n      0x04\n        /* \"#utility.yul\":21324:21339   */\n      mstore\n        /* \"#utility.yul\":21358:21362   */\n      0x24\n        /* \"#utility.yul\":21355:21356   */\n      0x00\n        /* \"#utility.yul\":21348:21363   */\n      revert\n        /* \"#utility.yul\":21375:21555   */\n    tag_508:\n        /* \"#utility.yul\":21423:21500   */\n      0x4e487b7100000000000000000000000000000000000000000000000000000000\n        /* \"#utility.yul\":21420:21421   */\n      0x00\n        /* \"#utility.yul\":21413:21501   */\n      mstore\n        /* \"#utility.yul\":21520:21524   */\n      0x31\n        /* \"#utility.yul\":21517:21518   */\n      0x04\n        /* \"#utility.yul\":21510:21525   */\n      mstore\n        /* \"#utility.yul\":21544:21548   */\n      0x24\n        /* \"#utility.yul\":21541:21542   */\n      0x00\n        /* \"#utility.yul\":21534:21549   */\n      revert\n        /* \"#utility.yul\":21561:21741   */\n    tag_400:\n        /* \"#utility.yul\":21609:21686   */\n      0x4e487b7100000000000000000000000000000000000000000000000000000000\n        /* \"#utility.yul\":21606:21607   */\n      0x00\n        /* \"#utility.yul\":21599:21687   */\n      mstore\n        /* \"#utility.yul\":21706:21710   */\n      0x32\n        /* \"#utility.yul\":21703:21704   */\n      0x04\n        /* \"#utility.yul\":21696:21711   */\n      mstore\n        /* \"#utility.yul\":21730:21734   */\n      0x24\n        /* \"#utility.yul\":21727:21728   */\n      0x00\n        /* \"#utility.yul\":21720:21735   */\n      revert\n        /* \"#utility.yul\":21747:21927   */\n    tag_390:\n        /* \"#utility.yul\":21795:21872   */\n      0x4e487b7100000000000000000000000000000000000000000000000000000000\n        /* \"#utility.yul\":21792:21793   */\n      0x00\n        /* \"#utility.yul\":21785:21873   */\n      mstore\n        /* \"#utility.yul\":21892:21896   */\n      0x41\n        /* \"#utility.yul\":21889:21890   */\n      0x04\n        /* \"#utility.yul\":21882:21897   */\n      mstore\n        /* \"#utility.yul\":21916:21920   */\n      0x24\n        /* \"#utility.yul\":21913:21914   */\n      0x00\n        /* \"#utility.yul\":21906:21921   */\n      revert\n        /* \"#utility.yul\":22056:22173   */\n    tag_567:\n        /* \"#utility.yul\":22165:22166   */\n      0x00\n        /* \"#utility.yul\":22162:22163   */\n      dup1\n        /* \"#utility.yul\":22155:22167   */\n      revert\n        /* \"#utility.yul\":22179:22358   */\n    tag_646:\n        /* \"#utility.yul\":22319:22350   */\n      0x73656c6c6572206e6565642068617665207468697320746f6b656e6964000000\n        /* \"#utility.yul\":22315:22316   */\n      0x00\n        /* \"#utility.yul\":22307:22313   */\n      dup3\n        /* \"#utility.yul\":22303:22317   */\n      add\n        /* \"#utility.yul\":22296:22351   */\n      mstore\n        /* \"#utility.yul\":22179:22358   */\n      pop\n      jump\t// out\n        /* \"#utility.yul\":22364:22527   */\n    tag_651:\n        /* \"#utility.yul\":22504:22519   */\n      0x69742069732073656c6c696e6700000000000000000000000000000000000000\n        /* \"#utility.yul\":22500:22501   */\n      0x00\n        /* \"#utility.yul\":22492:22498   */\n      dup3\n        /* \"#utility.yul\":22488:22502   */\n      add\n        /* \"#utility.yul\":22481:22520   */\n      mstore\n        /* \"#utility.yul\":22364:22527   */\n      pop\n      jump\t// out\n        /* \"#utility.yul\":22533:22758   */\n    tag_656:\n        /* \"#utility.yul\":22673:22707   */\n      0x4f776e61626c653a206e6577206f776e657220697320746865207a65726f2061\n        /* \"#utility.yul\":22669:22670   */\n      0x00\n        /* \"#utility.yul\":22661:22667   */\n      dup3\n        /* \"#utility.yul\":22657:22671   */\n      add\n        /* \"#utility.yul\":22650:22708   */\n      mstore\n        /* \"#utility.yul\":22742:22750   */\n      0x6464726573730000000000000000000000000000000000000000000000000000\n        /* \"#utility.yul\":22737:22739   */\n      0x20\n        /* \"#utility.yul\":22729:22735   */\n      dup3\n        /* \"#utility.yul\":22725:22740   */\n      add\n        /* \"#utility.yul\":22718:22751   */\n      mstore\n        /* \"#utility.yul\":22533:22758   */\n      pop\n      jump\t// out\n        /* \"#utility.yul\":22764:22937   */\n    tag_661:\n        /* \"#utility.yul\":22904:22929   */\n      0x416d6f756e74203e2030202626203c2042616c616e6365000000000000000000\n        /* \"#utility.yul\":22900:22901   */\n      0x00\n        /* \"#utility.yul\":22892:22898   */\n      dup3\n        /* \"#utility.yul\":22888:22902   */\n      add\n        /* \"#utility.yul\":22881:22930   */\n      mstore\n        /* \"#utility.yul\":22764:22937   */\n      pop\n      jump\t// out\n        /* \"#utility.yul\":22943:23117   */\n    tag_666:\n        /* \"#utility.yul\":23083:23109   */\n      0x46726f6d20616e6420546f2063616e206e6f742073616d650000000000000000\n        /* \"#utility.yul\":23079:23080   */\n      0x00\n        /* \"#utility.yul\":23071:23077   */\n      dup3\n        /* \"#utility.yul\":23067:23081   */\n      add\n        /* \"#utility.yul\":23060:23110   */\n      mstore\n        /* \"#utility.yul\":22943:23117   */\n      pop\n      jump\t// out\n        /* \"#utility.yul\":23123:23282   */\n    tag_671:\n        /* \"#utility.yul\":23263:23274   */\n      0x5072696365203e20300000000000000000000000000000000000000000000000\n        /* \"#utility.yul\":23259:23260   */\n      0x00\n        /* \"#utility.yul\":23251:23257   */\n      dup3\n        /* \"#utility.yul\":23247:23261   */\n      add\n        /* \"#utility.yul\":23240:23275   */\n      mstore\n        /* \"#utility.yul\":23123:23282   */\n      pop\n      jump\t// out\n        /* \"#utility.yul\":23288:23515   */\n    tag_676:\n        /* \"#utility.yul\":23428:23462   */\n      0x596f75206e65656420417070726f766520466f7220416c6c20746f2074686973\n        /* \"#utility.yul\":23424:23425   */\n      0x00\n        /* \"#utility.yul\":23416:23422   */\n      dup3\n        /* \"#utility.yul\":23412:23426   */\n      add\n        /* \"#utility.yul\":23405:23463   */\n      mstore\n        /* \"#utility.yul\":23497:23507   */\n      0x20636f6e74616374000000000000000000000000000000000000000000000000\n        /* \"#utility.yul\":23492:23494   */\n      0x20\n        /* \"#utility.yul\":23484:23490   */\n      dup3\n        /* \"#utility.yul\":23480:23495   */\n      add\n        /* \"#utility.yul\":23473:23508   */\n      mstore\n        /* \"#utility.yul\":23288:23515   */\n      pop\n      jump\t// out\n        /* \"#utility.yul\":23521:23691   */\n    tag_681:\n        /* \"#utility.yul\":23661:23683   */\n      0x416464726573732063616e206e6f74207a65726f000000000000000000000000\n        /* \"#utility.yul\":23657:23658   */\n      0x00\n        /* \"#utility.yul\":23649:23655   */\n      dup3\n        /* \"#utility.yul\":23645:23659   */\n      add\n        /* \"#utility.yul\":23638:23684   */\n      mstore\n        /* \"#utility.yul\":23521:23691   */\n      pop\n      jump\t// out\n        /* \"#utility.yul\":23697:23879   */\n    tag_686:\n        /* \"#utility.yul\":23837:23871   */\n      0x4f776e61626c653a2063616c6c6572206973206e6f7420746865206f776e6572\n        /* \"#utility.yul\":23833:23834   */\n      0x00\n        /* \"#utility.yul\":23825:23831   */\n      dup3\n        /* \"#utility.yul\":23821:23835   */\n      add\n        /* \"#utility.yul\":23814:23872   */\n      mstore\n        /* \"#utility.yul\":23697:23879   */\n      pop\n      jump\t// out\n        /* \"#utility.yul\":23885:24055   */\n    tag_691:\n        /* \"#utility.yul\":24025:24047   */\n      0x56696353686f7365206e6f7420696e2073656c6c000000000000000000000000\n        /* \"#utility.yul\":24021:24022   */\n      0x00\n        /* \"#utility.yul\":24013:24019   */\n      dup3\n        /* \"#utility.yul\":24009:24023   */\n      add\n        /* \"#utility.yul\":24002:24048   */\n      mstore\n        /* \"#utility.yul\":23885:24055   */\n      pop\n      jump\t// out\n        /* \"#utility.yul\":24061:24356   */\n    tag_696:\n        /* \"#utility.yul\":24201:24235   */\n      0x546865206d6f6e657920616c6c6f776564206973206e6f7420656e6f75676820\n        /* \"#utility.yul\":24197:24198   */\n      0x00\n        /* \"#utility.yul\":24189:24195   */\n      dup3\n        /* \"#utility.yul\":24185:24199   */\n      add\n        /* \"#utility.yul\":24178:24236   */\n      mstore\n        /* \"#utility.yul\":24270:24304   */\n      0x746f206275792073686f65732e20596f75206e65656420617070726f7665206d\n        /* \"#utility.yul\":24265:24267   */\n      0x20\n        /* \"#utility.yul\":24257:24263   */\n      dup3\n        /* \"#utility.yul\":24253:24268   */\n      add\n        /* \"#utility.yul\":24246:24305   */\n      mstore\n        /* \"#utility.yul\":24339:24348   */\n      0x6f72652056494d00000000000000000000000000000000000000000000000000\n        /* \"#utility.yul\":24334:24336   */\n      0x40\n        /* \"#utility.yul\":24326:24332   */\n      dup3\n        /* \"#utility.yul\":24322:24337   */\n      add\n        /* \"#utility.yul\":24315:24349   */\n      mstore\n        /* \"#utility.yul\":24061:24356   */\n      pop\n      jump\t// out\n        /* \"#utility.yul\":24362:24484   */\n    tag_549:\n        /* \"#utility.yul\":24435:24459   */\n      tag_815\n        /* \"#utility.yul\":24453:24458   */\n      dup2\n        /* \"#utility.yul\":24435:24459   */\n      tag_605\n      jump\t// in\n    tag_815:\n        /* \"#utility.yul\":24428:24433   */\n      dup2\n        /* \"#utility.yul\":24425:24460   */\n      eq\n        /* \"#utility.yul\":24415:24478   */\n      tag_816\n      jumpi\n        /* \"#utility.yul\":24474:24475   */\n      0x00\n        /* \"#utility.yul\":24471:24472   */\n      dup1\n        /* \"#utility.yul\":24464:24476   */\n      revert\n        /* \"#utility.yul\":24415:24478   */\n    tag_816:\n        /* \"#utility.yul\":24362:24484   */\n      pop\n      jump\t// out\n        /* \"#utility.yul\":24490:24606   */\n    tag_556:\n        /* \"#utility.yul\":24560:24581   */\n      tag_818\n        /* \"#utility.yul\":24575:24580   */\n      dup2\n        /* \"#utility.yul\":24560:24581   */\n      tag_640\n      jump\t// in\n    tag_818:\n        /* \"#utility.yul\":24553:24558   */\n      dup2\n        /* \"#utility.yul\":24550:24582   */\n      eq\n        /* \"#utility.yul\":24540:24600   */\n      tag_819\n      jumpi\n        /* \"#utility.yul\":24596:24597   */\n      0x00\n        /* \"#utility.yul\":24593:24594   */\n      dup1\n        /* \"#utility.yul\":24586:24598   */\n      revert\n        /* \"#utility.yul\":24540:24600   */\n    tag_819:\n        /* \"#utility.yul\":24490:24606   */\n      pop\n      jump\t// out\n        /* \"#utility.yul\":24612:24734   */\n    tag_560:\n        /* \"#utility.yul\":24685:24709   */\n      tag_821\n        /* \"#utility.yul\":24703:24708   */\n      dup2\n        /* \"#utility.yul\":24685:24709   */\n      tag_699\n      jump\t// in\n    tag_821:\n        /* \"#utility.yul\":24678:24683   */\n      dup2\n        /* \"#utility.yul\":24675:24710   */\n      eq\n        /* \"#utility.yul\":24665:24728   */\n      tag_822\n      jumpi\n        /* \"#utility.yul\":24724:24725   */\n      0x00\n        /* \"#utility.yul\":24721:24722   */\n      dup1\n        /* \"#utility.yul\":24714:24726   */\n      revert\n        /* \"#utility.yul\":24665:24728   */\n    tag_822:\n        /* \"#utility.yul\":24612:24734   */\n      pop\n      jump\t// out\n\n    auxdata: 0xa2646970667358221220fc8fc3ab1840e96b9dde4282ed256d5f018c3b39cf0f4de0f7516f4d8653a11664736f6c63430008070033\n}\n",
				"bytecode": {
					"linkReferences": {},
					"object": "608060405260008060146101000a81548160ff021916908315150217905550600061002e6102de60201b60201c565b9050806000806101000a81548173ffffffffffffffffffffffffffffffffffffffff021916908373ffffffffffffffffffffffffffffffffffffffff1602179055508073ffffffffffffffffffffffffffffffffffffffff16600073ffffffffffffffffffffffffffffffffffffffff167f8be0079c531659141344cd1fd0a4f28419497f9722a3daafe3b4186f6b6457e060405160405180910390a35073cb3745379275252f4beb5d1094bf1a8a09f368b7600160006101000a81548173ffffffffffffffffffffffffffffffffffffffff021916908373ffffffffffffffffffffffffffffffffffffffff16021790555073d295cf5d859b9ed331cdf69c49a81eff5e1bee83600260006101000a81548173ffffffffffffffffffffffffffffffffffffffff021916908373ffffffffffffffffffffffffffffffffffffffff16021790555073c184af52ca4e1b1f085aa8236ff8508f52dc6ea7600360006101000a81548173ffffffffffffffffffffffffffffffffffffffff021916908373ffffffffffffffffffffffffffffffffffffffff160217905550735bcd91c734d665fe426a5d7156f2ad7d37b76e30600460006101000a81548173ffffffffffffffffffffffffffffffffffffffff021916908373ffffffffffffffffffffffffffffffffffffffff16021790555073bb4cdb9cbd36b01bd1cbaebf2de08d9173bc095c600560006101000a81548173ffffffffffffffffffffffffffffffffffffffff021916908373ffffffffffffffffffffffffffffffffffffffff16021790555073fa0e47a2d6a58b9fd7ca1d4bfaadd11e8811824b600860006101000a81548173ffffffffffffffffffffffffffffffffffffffff021916908373ffffffffffffffffffffffffffffffffffffffff1602179055506006808190555060056007819055506102e6565b600033905090565b613b2780620002f66000396000f3fe6080604052600436106101e75760003560e01c80638cef643711610102578063bcfcba7611610095578063de281e2811610064578063de281e28146106a3578063ea156f44146106cc578063f0f44260146106f7578063f2fde38b14610720576101ee565b8063bcfcba76146105fb578063cc24c80014610626578063d1f199891461064f578063d888277914610678576101ee565b8063a888a93a116100d1578063a888a93a14610551578063ac4b3b0a1461057a578063b5620229146105a5578063bc127127146105d0576101ee565b80638cef6437146104a55780638da5cb5b146104ce5780638f32d59b146104f957806399bc1bfb14610524576101ee565b8063563df32f1161017a578063715018a611610149578063715018a6146104115780637880e6061461042857806383d58215146104515780638456cb591461047a576101ee565b8063563df32f1461035557806359464217146103805780635c975abb146103bd5780635c9e0d10146103e8576101ee565b80633f4ba83a116101b65780633f4ba83a1461029b578063458a635a146102c657806348eca45c146102ef5780634dd79f101461032c576101ee565b80630ff32839146101f35780631ecff38e1461021e5780632e5bb6ff1461024757806336c3b4e214610270576101ee565b366101ee57005b600080fd5b3480156101ff57600080fd5b50610208610749565b604051610215919061325f565b60405180910390f35b34801561022a57600080fd5b5061024560048036038101906102409190612e46565b61076f565b005b34801561025357600080fd5b5061026e60048036038101906102699190612f0d565b610853565b005b34801561027c57600080fd5b506102856108b1565b604051610292919061325f565b60405180910390f35b3480156102a757600080fd5b506102b06108d7565b6040516102bd919061334f565b60405180910390f35b3480156102d257600080fd5b506102ed60048036038101906102e89190612e46565b610986565b005b3480156102fb57600080fd5b5061031660048036038101906103119190612e46565b610a6a565b60405161032391906134ca565b60405180910390f35b34801561033857600080fd5b50610353600480360381019061034e9190612f0d565b610afc565b005b34801561036157600080fd5b5061036a610ccd565b604051610377919061325f565b60405180910390f35b34801561038c57600080fd5b506103a760048036038101906103a29190612f0d565b610cf3565b6040516103b4919061325f565b60405180910390f35b3480156103c957600080fd5b506103d2610d30565b6040516103df919061334f565b60405180910390f35b3480156103f457600080fd5b5061040f600480360381019061040a9190612ea0565b610d43565b005b34801561041d57600080fd5b5061042661104e565b005b34801561043457600080fd5b5061044f600480360381019061044a9190612f0d565b611153565b005b34801561045d57600080fd5b5061047860048036038101906104739190612f67565b611941565b005b34801561048657600080fd5b5061048f611c46565b60405161049c919061334f565b60405180910390f35b3480156104b157600080fd5b506104cc60048036038101906104c79190612ea0565b611cf7565b005b3480156104da57600080fd5b506104e3611ecf565b6040516104f0919061325f565b60405180910390f35b34801561050557600080fd5b5061050e611ef8565b60405161051b919061334f565b60405180910390f35b34801561053057600080fd5b50610539611f56565b60405161054893929190613303565b60405180910390f35b34801561055d57600080fd5b5061057860048036038101906105739190612e46565b612335565b005b34801561058657600080fd5b5061058f612419565b60405161059c919061325f565b60405180910390f35b3480156105b157600080fd5b506105ba61243f565b6040516105c7919061325f565b60405180910390f35b3480156105dc57600080fd5b506105e5612465565b6040516105f291906134ca565b60405180910390f35b34801561060757600080fd5b5061061061246d565b60405161061d91906134ca565b60405180910390f35b34801561063257600080fd5b5061064d60048036038101906106489190612e46565b612473565b005b34801561065b57600080fd5b5061067660048036038101906106719190612f0d565b6124fe565b005b34801561068457600080fd5b5061068d612606565b60405161069a919061325f565b60405180910390f35b3480156106af57600080fd5b506106ca60048036038101906106c59190612f0d565b61262c565b005b3480156106d857600080fd5b506106e16126b6565b6040516106ee91906134ca565b60405180910390f35b34801561070357600080fd5b5061071e60048036038101906107199190612e46565b612891565b005b34801561072c57600080fd5b5061074760048036038101906107429190612e46565b612975565b005b600560009054906101000a900473ffffffffffffffffffffffffffffffffffffffff1681565b610777611ef8565b6107b6576040517f08c379a00000000000000000000000000000000000000000000000000000000081526004016107ad9061346a565b60405180910390fd5b80600460006101000a81548173ffffffffffffffffffffffffffffffffffffffff021916908373ffffffffffffffffffffffffffffffffffffffff1602179055507f136742181ff5fc7d13f647a125112ec36500105a024ce2dbbb7f28fa375eebfa600460009054906101000a900473ffffffffffffffffffffffffffffffffffffffff16604051610848919061325f565b60405180910390a150565b61085b611ef8565b61089a576040517f08c379a00000000000000000000000000000000000000000000000000000000081526004016108919061346a565b60405180910390fd5b603281106108a757600080fd5b8060078190555050565b600260009054906101000a900473ffffffffffffffffffffffffffffffffffffffff1681565b60006108e1611ef8565b610920576040517f08c379a00000000000000000000000000000000000000000000000000000000081526004016109179061346a565b60405180910390fd5b600060149054906101000a900460ff1661093957600080fd5b60008060146101000a81548160ff0219169083151502179055507f7805862f689e2f13df9f062ff482ad3ad112aca9e0847911ed832e158c525b3360405160405180910390a16001905090565b61098e611ef8565b6109cd576040517f08c379a00000000000000000000000000000000000000000000000000000000081526004016109c49061346a565b60405180910390fd5b80600360006101000a81548173ffffffffffffffffffffffffffffffffffffffff021916908373ffffffffffffffffffffffffffffffffffffffff1602179055507fb01e01d90e1da4079495db07c84276ef34a0ea39cd9be9c3844874eb35616e44600360009054906101000a900473ffffffffffffffffffffffffffffffffffffffff16604051610a5f919061325f565b60405180910390a150565b60008173ffffffffffffffffffffffffffffffffffffffff166370a08231306040518263ffffffff1660e01b8152600401610aa5919061325f565b60206040518083038186803b158015610abd57600080fd5b505afa158015610ad1573d6000803e3d6000fd5b505050506040513d601f19601f82011682018060405250810190610af59190612f3a565b9050919050565b600060149054906101000a900460ff1615610b1657600080fd5b6000600a60008381526020019081526020016000205411610b6c576040517f08c379a0000000000000000000000000000000000000000000000000000000008152600401610b639061348a565b60405180910390fd5b60003390508073ffffffffffffffffffffffffffffffffffffffff16600360009054906101000a900473ffffffffffffffffffffffffffffffffffffffff1673ffffffffffffffffffffffffffffffffffffffff16636352211e846040518263ffffffff1660e01b8152600401610be391906134ca565b60206040518083038186803b158015610bfb57600080fd5b505afa158015610c0f573d6000803e3d6000fd5b505050506040513d601f19601f82011682018060405250810190610c339190612e73565b73ffffffffffffffffffffffffffffffffffffffff1614610c89576040517f08c379a0000000000000000000000000000000000000000000000000000000008152600401610c809061336a565b60405180910390fd5b610c92826129c8565b7fd4ceea0833ac36cc33c805e4f164dedb6d75e092a34e14083bbb87976befdecf82604051610cc191906134ca565b60405180910390a15050565b600160009054906101000a900473ffffffffffffffffffffffffffffffffffffffff1681565b60006009600083815260200190815260200160002060009054906101000a900473ffffffffffffffffffffffffffffffffffffffff169050919050565b600060149054906101000a900460ff1681565b600060149054906101000a900460ff1615610d5d57600080fd5b6000339050600360009054906101000a900473ffffffffffffffffffffffffffffffffffffffff1673ffffffffffffffffffffffffffffffffffffffff1663e985e9c582306040518363ffffffff1660e01b8152600401610dbf92919061327a565b60206040518083038186803b158015610dd757600080fd5b505afa158015610deb573d6000803e3d6000fd5b505050506040513d601f19601f82011682018060405250810190610e0f9190612ee0565b610e4e576040517f08c379a0000000000000000000000000000000000000000000000000000000008152600401610e459061342a565b60405180910390fd5b600073ffffffffffffffffffffffffffffffffffffffff168373ffffffffffffffffffffffffffffffffffffffff161415610ebe576040517f08c379a0000000000000000000000000000000000000000000000000000000008152600401610eb59061344a565b60405180910390fd5b8073ffffffffffffffffffffffffffffffffffffffff168373ffffffffffffffffffffffffffffffffffffffff161415610f2d576040517f08c379a0000000000000000000000000000000000000000000000000000000008152600401610f24906133ea565b60405180910390fd5b600360009054906101000a900473ffffffffffffffffffffffffffffffffffffffff1673ffffffffffffffffffffffffffffffffffffffff166342842e0e8285856040518463ffffffff1660e01b8152600401610f8c939291906132a3565b600060405180830381600087803b158015610fa657600080fd5b505af1158015610fba573d6000803e3d6000fd5b50505050826009600084815260200190815260200160002060006101000a81548173ffffffffffffffffffffffffffffffffffffffff021916908373ffffffffffffffffffffffffffffffffffffffff1602179055507f2a422da7e70b3ca41064be14c50b74a43cbbef24634fa3b7e90d120b8ecc08b383836040516110419291906132da565b60405180910390a1505050565b611056611ef8565b611095576040517f08c379a000000000000000000000000000000000000000000000000000000000815260040161108c9061346a565b60405180910390fd5b600073ffffffffffffffffffffffffffffffffffffffff1660008054906101000a900473ffffffffffffffffffffffffffffffffffffffff1673ffffffffffffffffffffffffffffffffffffffff167f8be0079c531659141344cd1fd0a4f28419497f9722a3daafe3b4186f6b6457e060405160405180910390a360008060006101000a81548173ffffffffffffffffffffffffffffffffffffffff021916908373ffffffffffffffffffffffffffffffffffffffff160217905550565b600060149054906101000a900460ff161561116d57600080fd5b6000600b600083815260200190815260200160002060009054906101000a900473ffffffffffffffffffffffffffffffffffffffff1690506000600a600084815260200190815260200160002054116111fb576040517f08c379a00000000000000000000000000000000000000000000000000000000081526004016111f29061348a565b60405180910390fd5b8073ffffffffffffffffffffffffffffffffffffffff16600360009054906101000a900473ffffffffffffffffffffffffffffffffffffffff1673ffffffffffffffffffffffffffffffffffffffff16636352211e846040518263ffffffff1660e01b815260040161126d91906134ca565b60206040518083038186803b15801561128557600080fd5b505afa158015611299573d6000803e3d6000fd5b505050506040513d601f19601f820116820180604052508101906112bd9190612e73565b73ffffffffffffffffffffffffffffffffffffffff1614611313576040517f08c379a000000000000000000000000000000000000000000000000000000000815260040161130a9061336a565b60405180910390fd5b600360009054906101000a900473ffffffffffffffffffffffffffffffffffffffff1673ffffffffffffffffffffffffffffffffffffffff1663e985e9c582306040518363ffffffff1660e01b815260040161137092919061327a565b60206040518083038186803b15801561138857600080fd5b505afa15801561139c573d6000803e3d6000fd5b505050506040513d601f19601f820116820180604052508101906113c09190612ee0565b6113ff576040517f08c379a00000000000000000000000000000000000000000000000000000000081526004016113f69061342a565b60405180910390fd5b6000339050600061140e6126b6565b905060008190506000600a600087815260200190815260200160002054905082811115611439578091505b670de0b6b3a76400008261144d9190613618565b600460009054906101000a900473ffffffffffffffffffffffffffffffffffffffff1673ffffffffffffffffffffffffffffffffffffffff1663dd62ed3e86306040518363ffffffff1660e01b81526004016114aa92919061327a565b60206040518083038186803b1580156114c257600080fd5b505afa1580156114d6573d6000803e3d6000fd5b505050506040513d601f19601f820116820180604052508101906114fa9190612f3a565b101561153b576040517f08c379a0000000000000000000000000000000000000000000000000000000008152600401611532906134aa565b60405180910390fd5b600460009054906101000a900473ffffffffffffffffffffffffffffffffffffffff1673ffffffffffffffffffffffffffffffffffffffff166323b872dd8530670de0b6b3a76400008661158f9190613618565b6040518463ffffffff1660e01b81526004016115ad939291906132a3565b602060405180830381600087803b1580156115c757600080fd5b505af11580156115db573d6000803e3d6000fd5b505050506040513d601f19601f820116820180604052508101906115ff9190612ee0565b50600360009054906101000a900473ffffffffffffffffffffffffffffffffffffffff1673ffffffffffffffffffffffffffffffffffffffff166342842e0e8686896040518463ffffffff1660e01b815260040161165f939291906132a3565b600060405180830381600087803b15801561167957600080fd5b505af115801561168d573d6000803e3d6000fd5b505050506000606460075460646116a49190613672565b856116af9190613618565b6116b991906135e7565b82106116e0576064600754846116cf9190613618565b6116d991906135e7565b90506116ef565b81846116ec9190613672565b90505b600460009054906101000a900473ffffffffffffffffffffffffffffffffffffffff1673ffffffffffffffffffffffffffffffffffffffff166323b872dd3088670de0b6b3a764000085886117449190613672565b61174e9190613618565b6040518463ffffffff1660e01b815260040161176c939291906132a3565b602060405180830381600087803b15801561178657600080fd5b505af115801561179a573d6000803e3d6000fd5b505050506040513d601f19601f820116820180604052508101906117be9190612ee0565b50600460009054906101000a900473ffffffffffffffffffffffffffffffffffffffff1673ffffffffffffffffffffffffffffffffffffffff166323b872dd30600160009054906101000a900473ffffffffffffffffffffffffffffffffffffffff16670de0b6b3a7640000856118359190613618565b6040518463ffffffff1660e01b8152600401611853939291906132a3565b602060405180830381600087803b15801561186d57600080fd5b505af1158015611881573d6000803e3d6000fd5b505050506040513d601f19601f820116820180604052508101906118a59190612ee0565b50846009600089815260200190815260200160002060006101000a81548173ffffffffffffffffffffffffffffffffffffffff021916908373ffffffffffffffffffffffffffffffffffffffff160217905550611901876129c8565b7f2b66287559b2a137ea3e7a6ab376630ef6165451c4d691bd218b503aa276f89d8760405161193091906134ca565b60405180910390a150505050505050565b600060149054906101000a900460ff161561195b57600080fd5b6000600a600084815260200190815260200160002054146119b1576040517f08c379a00000000000000000000000000000000000000000000000000000000081526004016119a89061338a565b60405180910390fd5b60003390508073ffffffffffffffffffffffffffffffffffffffff16600360009054906101000a900473ffffffffffffffffffffffffffffffffffffffff1673ffffffffffffffffffffffffffffffffffffffff16636352211e856040518263ffffffff1660e01b8152600401611a2891906134ca565b60206040518083038186803b158015611a4057600080fd5b505afa158015611a54573d6000803e3d6000fd5b505050506040513d601f19601f82011682018060405250810190611a789190612e73565b73ffffffffffffffffffffffffffffffffffffffff1614611ace576040517f08c379a0000000000000000000000000000000000000000000000000000000008152600401611ac59061336a565b60405180910390fd5b600360009054906101000a900473ffffffffffffffffffffffffffffffffffffffff1673ffffffffffffffffffffffffffffffffffffffff1663e985e9c582306040518363ffffffff1660e01b8152600401611b2b92919061327a565b60206040518083038186803b158015611b4357600080fd5b505afa158015611b57573d6000803e3d6000fd5b505050506040513d601f19601f82011682018060405250810190611b7b9190612ee0565b611bba576040517f08c379a0000000000000000000000000000000000000000000000000000000008152600401611bb19061342a565b60405180910390fd5b60008211611bfd576040517f08c379a0000000000000000000000000000000000000000000000000000000008152600401611bf49061340a565b60405180910390fd5b611c08838383612adb565b7f55bb046a6e950af74fcdaaa97a1a82c49209d72a5fcda0925a019dfba29c8f728383604051611c399291906134e5565b60405180910390a1505050565b6000611c50611ef8565b611c8f576040517f08c379a0000000000000000000000000000000000000000000000000000000008152600401611c869061346a565b60405180910390fd5b600060149054906101000a900460ff1615611ca957600080fd5b6001600060146101000a81548160ff0219169083151502179055507f6985a02210a168e66602d3235cb6db0e70f92b3ba4d376a33c0f3d9434bff62560405160405180910390a16001905090565b611cff611ef8565b611d3e576040517f08c379a0000000000000000000000000000000000000000000000000000000008152600401611d359061346a565b60405180910390fd5b60008273ffffffffffffffffffffffffffffffffffffffff166370a08231306040518263ffffffff1660e01b8152600401611d79919061325f565b60206040518083038186803b158015611d9157600080fd5b505afa158015611da5573d6000803e3d6000fd5b505050506040513d601f19601f82011682018060405250810190611dc99190612f3a565b9050600082118015611ddb5750808211155b611e1a576040517f08c379a0000000000000000000000000000000000000000000000000000000008152600401611e11906133ca565b60405180910390fd5b8273ffffffffffffffffffffffffffffffffffffffff1663a9059cbb600860009054906101000a900473ffffffffffffffffffffffffffffffffffffffff16846040518363ffffffff1660e01b8152600401611e779291906132da565b602060405180830381600087803b158015611e9157600080fd5b505af1158015611ea5573d6000803e3d6000fd5b505050506040513d601f19601f82011682018060405250810190611ec99190612ee0565b50505050565b60008060009054906101000a900473ffffffffffffffffffffffffffffffffffffffff16905090565b60008060009054906101000a900473ffffffffffffffffffffffffffffffffffffffff1673ffffffffffffffffffffffffffffffffffffffff16611f3a612ca8565b73ffffffffffffffffffffffffffffffffffffffff1614905090565b60608060606000600c80549050905060008167ffffffffffffffff811115611f8157611f8061381d565b5b604051908082528060200260200182016040528015611faf5781602001602082028036833780820191505090505b50905060008267ffffffffffffffff811115611fce57611fcd61381d565b5b604051908082528060200260200182016040528015611ffc5781602001602082028036833780820191505090505b50905060005b838110156122d057600b6000600c8381548110612022576120216137ee565b5b9060005260206000200154815260200190815260200160002060009054906101000a900473ffffffffffffffffffffffffffffffffffffffff1673ffffffffffffffffffffffffffffffffffffffff16600360009054906101000a900473ffffffffffffffffffffffffffffffffffffffff1673ffffffffffffffffffffffffffffffffffffffff16636352211e600c84815481106120c4576120c36137ee565b5b90600052602060002001546040518263ffffffff1660e01b81526004016120eb91906134ca565b60206040518083038186803b15801561210357600080fd5b505afa158015612117573d6000803e3d6000fd5b505050506040513d601f19601f8201168201806040525081019061213b9190612e73565b73ffffffffffffffffffffffffffffffffffffffff16141561224c57600a6000600c838154811061216f5761216e6137ee565b5b906000526020600020015481526020019081526020016000205483828151811061219c5761219b6137ee565b5b602002602001018181525050600b6000600c83815481106121c0576121bf6137ee565b5b9060005260206000200154815260200190815260200160002060009054906101000a900473ffffffffffffffffffffffffffffffffffffffff1682828151811061220d5761220c6137ee565b5b602002602001019073ffffffffffffffffffffffffffffffffffffffff16908173ffffffffffffffffffffffffffffffffffffffff16815250506122bd565b6000838281518110612261576122606137ee565b5b6020026020010181815250506000828281518110612282576122816137ee565b5b602002602001019073ffffffffffffffffffffffffffffffffffffffff16908173ffffffffffffffffffffffffffffffffffffffff16815250505b80806122c890613718565b915050612002565b50600c81838280548060200260200160405190810160405280929190818152602001828054801561232057602002820191906000526020600020905b81548152602001906001019080831161230c575b50505050509250955095509550505050909192565b61233d611ef8565b61237c576040517f08c379a00000000000000000000000000000000000000000000000000000000081526004016123739061346a565b60405180910390fd5b80600260006101000a81548173ffffffffffffffffffffffffffffffffffffffff021916908373ffffffffffffffffffffffffffffffffffffffff1602179055507facdd85d235b5b49226c2c4f2b72cb01fa1cc3ae64bb843a6def27788d05b1b60600260009054906101000a900473ffffffffffffffffffffffffffffffffffffffff1660405161240e919061325f565b60405180910390a150565b600860009054906101000a900473ffffffffffffffffffffffffffffffffffffffff1681565b600460009054906101000a900473ffffffffffffffffffffffffffffffffffffffff1681565b600047905090565b60065481565b61247b611ef8565b6124ba576040517f08c379a00000000000000000000000000000000000000000000000000000000081526004016124b19061346a565b60405180910390fd5b80600860006101000a81548173ffffffffffffffffffffffffffffffffffffffff021916908373ffffffffffffffffffffffffffffffffffffffff16021790555050565b612506611ef8565b612545576040517f08c379a000000000000000000000000000000000000000000000000000000000815260040161253c9061346a565b60405180910390fd5b600047905060008211801561255a5750808211155b612599576040517f08c379a0000000000000000000000000000000000000000000000000000000008152600401612590906133ca565b60405180910390fd5b600860009054906101000a900473ffffffffffffffffffffffffffffffffffffffff1673ffffffffffffffffffffffffffffffffffffffff166108fc839081150290604051600060405180830381858888f19350505050158015612601573d6000803e3d6000fd5b505050565b600360009054906101000a900473ffffffffffffffffffffffffffffffffffffffff1681565b612634611ef8565b612673576040517f08c379a000000000000000000000000000000000000000000000000000000000815260040161266a9061346a565b60405180910390fd5b806006819055507f4d8e30ff458bebdd848488669e63d632954487ca1bc64c28f3c920f74a5f85946006546040516126ab91906134ca565b60405180910390a150565b600080600560009054906101000a900473ffffffffffffffffffffffffffffffffffffffff1673ffffffffffffffffffffffffffffffffffffffff166370a08231600260009054906101000a900473ffffffffffffffffffffffffffffffffffffffff166040518263ffffffff1660e01b8152600401612736919061325f565b60206040518083038186803b15801561274e57600080fd5b505afa158015612762573d6000803e3d6000fd5b505050506040513d601f19601f820116820180604052508101906127869190612f3a565b90506000600460009054906101000a900473ffffffffffffffffffffffffffffffffffffffff1673ffffffffffffffffffffffffffffffffffffffff166370a08231600260009054906101000a900473ffffffffffffffffffffffffffffffffffffffff166040518263ffffffff1660e01b8152600401612807919061325f565b60206040518083038186803b15801561281f57600080fd5b505afa158015612833573d6000803e3d6000fd5b505050506040513d601f19601f820116820180604052508101906128579190612f3a565b90506000828261286791906135e7565b90506000600a6006548361287b9190613618565b61288591906135e7565b90508094505050505090565b612899611ef8565b6128d8576040517f08c379a00000000000000000000000000000000000000000000000000000000081526004016128cf9061346a565b60405180910390fd5b80600160006101000a81548173ffffffffffffffffffffffffffffffffffffffff021916908373ffffffffffffffffffffffffffffffffffffffff1602179055507fb14f2a39bb21fda32827bbdb4be629c94036e10a3f6055a6454f884ca1b33fa1600160009054906101000a900473ffffffffffffffffffffffffffffffffffffffff1660405161296a919061325f565b60405180910390a150565b61297d611ef8565b6129bc576040517f08c379a00000000000000000000000000000000000000000000000000000000081526004016129b39061346a565b60405180910390fd5b6129c581612cb0565b50565b600a60008281526020019081526020016000206000905560005b600c80549050811015612ad65781600c8281548110612a0457612a036137ee565b5b90600052602060002001541415612ac35760008190505b6001600c80549050612a2d9190613672565b811015612a9457600c600182612a439190613591565b81548110612a5457612a536137ee565b5b9060005260206000200154600c8281548110612a7357612a726137ee565b5b90600052602060002001819055508080612a8c90613718565b915050612a1b565b50600c805480612aa757612aa66137bf565b5b6001900381819060005260206000200160009055905550612ad8565b8080612ace90613718565b9150506129e2565b505b50565b81600a60008581526020019081526020016000208190555080600b600085815260200190815260200160002060006101000a81548173ffffffffffffffffffffffffffffffffffffffff021916908373ffffffffffffffffffffffffffffffffffffffff160217905550600c8390806001815401808255809150506001900390600052602060002001600090919091909150556002600c8054905010612ca25760006002600c80549050612b8f9190613672565b90505b60008110612ca05782600a6000600c8481548110612bb357612bb26137ee565b5b90600052602060002001548152602001908152602001600020541115612c5857600c8181548110612be757612be66137ee565b5b9060005260206000200154600c600183612c019190613591565b81548110612c1257612c116137ee565b5b90600052602060002001819055506000811415612c535783600c600081548110612c3f57612c3e6137ee565b5b906000526020600020018190555050612ca3565b612c8d565b83600c600183612c689190613591565b81548110612c7957612c786137ee565b5b906000526020600020018190555050612ca3565b8080612c98906136ee565b915050612b92565b505b5b505050565b600033905090565b600073ffffffffffffffffffffffffffffffffffffffff168173ffffffffffffffffffffffffffffffffffffffff161415612d20576040517f08c379a0000000000000000000000000000000000000000000000000000000008152600401612d17906133aa565b60405180910390fd5b8073ffffffffffffffffffffffffffffffffffffffff1660008054906101000a900473ffffffffffffffffffffffffffffffffffffffff1673ffffffffffffffffffffffffffffffffffffffff167f8be0079c531659141344cd1fd0a4f28419497f9722a3daafe3b4186f6b6457e060405160405180910390a3806000806101000a81548173ffffffffffffffffffffffffffffffffffffffff021916908373ffffffffffffffffffffffffffffffffffffffff16021790555050565b600081359050612dec81613aac565b92915050565b600081519050612e0181613aac565b92915050565b600081519050612e1681613ac3565b92915050565b600081359050612e2b81613ada565b92915050565b600081519050612e4081613ada565b92915050565b600060208284031215612e5c57612e5b61384c565b5b6000612e6a84828501612ddd565b91505092915050565b600060208284031215612e8957612e8861384c565b5b6000612e9784828501612df2565b91505092915050565b60008060408385031215612eb757612eb661384c565b5b6000612ec585828601612ddd565b9250506020612ed685828601612e1c565b9150509250929050565b600060208284031215612ef657612ef561384c565b5b6000612f0484828501612e07565b91505092915050565b600060208284031215612f2357612f2261384c565b5b6000612f3184828501612e1c565b91505092915050565b600060208284031215612f5057612f4f61384c565b5b6000612f5e84828501612e31565b91505092915050565b60008060408385031215612f7e57612f7d61384c565b5b6000612f8c85828601612e1c565b9250506020612f9d85828601612e1c565b9150509250929050565b6000612fb38383612fd7565b60208301905092915050565b6000612fcb8383613241565b60208301905092915050565b612fe0816136a6565b82525050565b612fef816136a6565b82525050565b60006130008261352e565b61300a818561355e565b93506130158361350e565b8060005b8381101561304657815161302d8882612fa7565b975061303883613544565b925050600181019050613019565b5085935050505092915050565b600061305e82613539565b613068818561356f565b93506130738361351e565b8060005b838110156130a457815161308b8882612fbf565b975061309683613551565b925050600181019050613077565b5085935050505092915050565b6130ba816136b8565b82525050565b60006130cd601d83613580565b91506130d882613851565b602082019050919050565b60006130f0600d83613580565b91506130fb8261387a565b602082019050919050565b6000613113602683613580565b915061311e826138a3565b604082019050919050565b6000613136601783613580565b9150613141826138f2565b602082019050919050565b6000613159601883613580565b91506131648261391b565b602082019050919050565b600061317c600983613580565b915061318782613944565b602082019050919050565b600061319f602883613580565b91506131aa8261396d565b604082019050919050565b60006131c2601483613580565b91506131cd826139bc565b602082019050919050565b60006131e5602083613580565b91506131f0826139e5565b602082019050919050565b6000613208601483613580565b915061321382613a0e565b602082019050919050565b600061322b604783613580565b915061323682613a37565b606082019050919050565b61324a816136e4565b82525050565b613259816136e4565b82525050565b60006020820190506132746000830184612fe6565b92915050565b600060408201905061328f6000830185612fe6565b61329c6020830184612fe6565b9392505050565b60006060820190506132b86000830186612fe6565b6132c56020830185612fe6565b6132d26040830184613250565b949350505050565b60006040820190506132ef6000830185612fe6565b6132fc6020830184613250565b9392505050565b6000606082019050818103600083015261331d8186613053565b905081810360208301526133318185612ff5565b905081810360408301526133458184613053565b9050949350505050565b600060208201905061336460008301846130b1565b92915050565b60006020820190508181036000830152613383816130c0565b9050919050565b600060208201905081810360008301526133a3816130e3565b9050919050565b600060208201905081810360008301526133c381613106565b9050919050565b600060208201905081810360008301526133e381613129565b9050919050565b600060208201905081810360008301526134038161314c565b9050919050565b600060208201905081810360008301526134238161316f565b9050919050565b6000602082019050818103600083015261344381613192565b9050919050565b60006020820190508181036000830152613463816131b5565b9050919050565b60006020820190508181036000830152613483816131d8565b9050919050565b600060208201905081810360008301526134a3816131fb565b9050919050565b600060208201905081810360008301526134c38161321e565b9050919050565b60006020820190506134df6000830184613250565b92915050565b60006040820190506134fa6000830185613250565b6135076020830184613250565b9392505050565b6000819050602082019050919050565b6000819050602082019050919050565b600081519050919050565b600081519050919050565b6000602082019050919050565b6000602082019050919050565b600082825260208201905092915050565b600082825260208201905092915050565b600082825260208201905092915050565b600061359c826136e4565b91506135a7836136e4565b9250827fffffffffffffffffffffffffffffffffffffffffffffffffffffffffffffffff038211156135dc576135db613761565b5b828201905092915050565b60006135f2826136e4565b91506135fd836136e4565b92508261360d5761360c613790565b5b828204905092915050565b6000613623826136e4565b915061362e836136e4565b9250817fffffffffffffffffffffffffffffffffffffffffffffffffffffffffffffffff048311821515161561366757613666613761565b5b828202905092915050565b600061367d826136e4565b9150613688836136e4565b92508282101561369b5761369a613761565b5b828203905092915050565b60006136b1826136c4565b9050919050565b60008115159050919050565b600073ffffffffffffffffffffffffffffffffffffffff82169050919050565b6000819050919050565b60006136f9826136e4565b9150600082141561370d5761370c613761565b5b600182039050919050565b6000613723826136e4565b91507fffffffffffffffffffffffffffffffffffffffffffffffffffffffffffffffff82141561375657613755613761565b5b600182019050919050565b7f4e487b7100000000000000000000000000000000000000000000000000000000600052601160045260246000fd5b7f4e487b7100000000000000000000000000000000000000000000000000000000600052601260045260246000fd5b7f4e487b7100000000000000000000000000000000000000000000000000000000600052603160045260246000fd5b7f4e487b7100000000000000000000000000000000000000000000000000000000600052603260045260246000fd5b7f4e487b7100000000000000000000000000000000000000000000000000000000600052604160045260246000fd5b600080fd5b7f73656c6c6572206e6565642068617665207468697320746f6b656e6964000000600082015250565b7f69742069732073656c6c696e6700000000000000000000000000000000000000600082015250565b7f4f776e61626c653a206e6577206f776e657220697320746865207a65726f206160008201527f6464726573730000000000000000000000000000000000000000000000000000602082015250565b7f416d6f756e74203e2030202626203c2042616c616e6365000000000000000000600082015250565b7f46726f6d20616e6420546f2063616e206e6f742073616d650000000000000000600082015250565b7f5072696365203e20300000000000000000000000000000000000000000000000600082015250565b7f596f75206e65656420417070726f766520466f7220416c6c20746f207468697360008201527f20636f6e74616374000000000000000000000000000000000000000000000000602082015250565b7f416464726573732063616e206e6f74207a65726f000000000000000000000000600082015250565b7f4f776e61626c653a2063616c6c6572206973206e6f7420746865206f776e6572600082015250565b7f56696353686f7365206e6f7420696e2073656c6c000000000000000000000000600082015250565b7f546865206d6f6e657920616c6c6f776564206973206e6f7420656e6f7567682060008201527f746f206275792073686f65732e20596f75206e65656420617070726f7665206d60208201527f6f72652056494d00000000000000000000000000000000000000000000000000604082015250565b613ab5816136a6565b8114613ac057600080fd5b50565b613acc816136b8565b8114613ad757600080fd5b50565b613ae3816136e4565b8114613aee57600080fd5b5056fea2646970667358221220fc8fc3ab1840e96b9dde4282ed256d5f018c3b39cf0f4de0f7516f4d8653a11664736f6c63430008070033",
					"opcodes": "PUSH1 0x80 PUSH1 0x40 MSTORE PUSH1 0x0 DUP1 PUSH1 0x14 PUSH2 0x100 EXP DUP2 SLOAD DUP2 PUSH1 0xFF MUL NOT AND SWAP1 DUP4 ISZERO ISZERO MUL OR SWAP1 SSTORE POP PUSH1 0x0 PUSH2 0x2E PUSH2 0x2DE PUSH1 0x20 SHL PUSH1 0x20 SHR JUMP JUMPDEST SWAP1 POP DUP1 PUSH1 0x0 DUP1 PUSH2 0x100 EXP DUP2 SLOAD DUP2 PUSH20 0xFFFFFFFFFFFFFFFFFFFFFFFFFFFFFFFFFFFFFFFF MUL NOT AND SWAP1 DUP4 PUSH20 0xFFFFFFFFFFFFFFFFFFFFFFFFFFFFFFFFFFFFFFFF AND MUL OR SWAP1 SSTORE POP DUP1 PUSH20 0xFFFFFFFFFFFFFFFFFFFFFFFFFFFFFFFFFFFFFFFF AND PUSH1 0x0 PUSH20 0xFFFFFFFFFFFFFFFFFFFFFFFFFFFFFFFFFFFFFFFF AND PUSH32 0x8BE0079C531659141344CD1FD0A4F28419497F9722A3DAAFE3B4186F6B6457E0 PUSH1 0x40 MLOAD PUSH1 0x40 MLOAD DUP1 SWAP2 SUB SWAP1 LOG3 POP PUSH20 0xCB3745379275252F4BEB5D1094BF1A8A09F368B7 PUSH1 0x1 PUSH1 0x0 PUSH2 0x100 EXP DUP2 SLOAD DUP2 PUSH20 0xFFFFFFFFFFFFFFFFFFFFFFFFFFFFFFFFFFFFFFFF MUL NOT AND SWAP1 DUP4 PUSH20 0xFFFFFFFFFFFFFFFFFFFFFFFFFFFFFFFFFFFFFFFF AND MUL OR SWAP1 SSTORE POP PUSH20 0xD295CF5D859B9ED331CDF69C49A81EFF5E1BEE83 PUSH1 0x2 PUSH1 0x0 PUSH2 0x100 EXP DUP2 SLOAD DUP2 PUSH20 0xFFFFFFFFFFFFFFFFFFFFFFFFFFFFFFFFFFFFFFFF MUL NOT AND SWAP1 DUP4 PUSH20 0xFFFFFFFFFFFFFFFFFFFFFFFFFFFFFFFFFFFFFFFF AND MUL OR SWAP1 SSTORE POP PUSH20 0xC184AF52CA4E1B1F085AA8236FF8508F52DC6EA7 PUSH1 0x3 PUSH1 0x0 PUSH2 0x100 EXP DUP2 SLOAD DUP2 PUSH20 0xFFFFFFFFFFFFFFFFFFFFFFFFFFFFFFFFFFFFFFFF MUL NOT AND SWAP1 DUP4 PUSH20 0xFFFFFFFFFFFFFFFFFFFFFFFFFFFFFFFFFFFFFFFF AND MUL OR SWAP1 SSTORE POP PUSH20 0x5BCD91C734D665FE426A5D7156F2AD7D37B76E30 PUSH1 0x4 PUSH1 0x0 PUSH2 0x100 EXP DUP2 SLOAD DUP2 PUSH20 0xFFFFFFFFFFFFFFFFFFFFFFFFFFFFFFFFFFFFFFFF MUL NOT AND SWAP1 DUP4 PUSH20 0xFFFFFFFFFFFFFFFFFFFFFFFFFFFFFFFFFFFFFFFF AND MUL OR SWAP1 SSTORE POP PUSH20 0xBB4CDB9CBD36B01BD1CBAEBF2DE08D9173BC095C PUSH1 0x5 PUSH1 0x0 PUSH2 0x100 EXP DUP2 SLOAD DUP2 PUSH20 0xFFFFFFFFFFFFFFFFFFFFFFFFFFFFFFFFFFFFFFFF MUL NOT AND SWAP1 DUP4 PUSH20 0xFFFFFFFFFFFFFFFFFFFFFFFFFFFFFFFFFFFFFFFF AND MUL OR SWAP1 SSTORE POP PUSH20 0xFA0E47A2D6A58B9FD7CA1D4BFAADD11E8811824B PUSH1 0x8 PUSH1 0x0 PUSH2 0x100 EXP DUP2 SLOAD DUP2 PUSH20 0xFFFFFFFFFFFFFFFFFFFFFFFFFFFFFFFFFFFFFFFF MUL NOT AND SWAP1 DUP4 PUSH20 0xFFFFFFFFFFFFFFFFFFFFFFFFFFFFFFFFFFFFFFFF AND MUL OR SWAP1 SSTORE POP PUSH1 0x6 DUP1 DUP2 SWAP1 SSTORE POP PUSH1 0x5 PUSH1 0x7 DUP2 SWAP1 SSTORE POP PUSH2 0x2E6 JUMP JUMPDEST PUSH1 0x0 CALLER SWAP1 POP SWAP1 JUMP JUMPDEST PUSH2 0x3B27 DUP1 PUSH3 0x2F6 PUSH1 0x0 CODECOPY PUSH1 0x0 RETURN INVALID PUSH1 0x80 PUSH1 0x40 MSTORE PUSH1 0x4 CALLDATASIZE LT PUSH2 0x1E7 JUMPI PUSH1 0x0 CALLDATALOAD PUSH1 0xE0 SHR DUP1 PUSH4 0x8CEF6437 GT PUSH2 0x102 JUMPI DUP1 PUSH4 0xBCFCBA76 GT PUSH2 0x95 JUMPI DUP1 PUSH4 0xDE281E28 GT PUSH2 0x64 JUMPI DUP1 PUSH4 0xDE281E28 EQ PUSH2 0x6A3 JUMPI DUP1 PUSH4 0xEA156F44 EQ PUSH2 0x6CC JUMPI DUP1 PUSH4 0xF0F44260 EQ PUSH2 0x6F7 JUMPI DUP1 PUSH4 0xF2FDE38B EQ PUSH2 0x720 JUMPI PUSH2 0x1EE JUMP JUMPDEST DUP1 PUSH4 0xBCFCBA76 EQ PUSH2 0x5FB JUMPI DUP1 PUSH4 0xCC24C800 EQ PUSH2 0x626 JUMPI DUP1 PUSH4 0xD1F19989 EQ PUSH2 0x64F JUMPI DUP1 PUSH4 0xD8882779 EQ PUSH2 0x678 JUMPI PUSH2 0x1EE JUMP JUMPDEST DUP1 PUSH4 0xA888A93A GT PUSH2 0xD1 JUMPI DUP1 PUSH4 0xA888A93A EQ PUSH2 0x551 JUMPI DUP1 PUSH4 0xAC4B3B0A EQ PUSH2 0x57A JUMPI DUP1 PUSH4 0xB5620229 EQ PUSH2 0x5A5 JUMPI DUP1 PUSH4 0xBC127127 EQ PUSH2 0x5D0 JUMPI PUSH2 0x1EE JUMP JUMPDEST DUP1 PUSH4 0x8CEF6437 EQ PUSH2 0x4A5 JUMPI DUP1 PUSH4 0x8DA5CB5B EQ PUSH2 0x4CE JUMPI DUP1 PUSH4 0x8F32D59B EQ PUSH2 0x4F9 JUMPI DUP1 PUSH4 0x99BC1BFB EQ PUSH2 0x524 JUMPI PUSH2 0x1EE JUMP JUMPDEST DUP1 PUSH4 0x563DF32F GT PUSH2 0x17A JUMPI DUP1 PUSH4 0x715018A6 GT PUSH2 0x149 JUMPI DUP1 PUSH4 0x715018A6 EQ PUSH2 0x411 JUMPI DUP1 PUSH4 0x7880E606 EQ PUSH2 0x428 JUMPI DUP1 PUSH4 0x83D58215 EQ PUSH2 0x451 JUMPI DUP1 PUSH4 0x8456CB59 EQ PUSH2 0x47A JUMPI PUSH2 0x1EE JUMP JUMPDEST DUP1 PUSH4 0x563DF32F EQ PUSH2 0x355 JUMPI DUP1 PUSH4 0x59464217 EQ PUSH2 0x380 JUMPI DUP1 PUSH4 0x5C975ABB EQ PUSH2 0x3BD JUMPI DUP1 PUSH4 0x5C9E0D10 EQ PUSH2 0x3E8 JUMPI PUSH2 0x1EE JUMP JUMPDEST DUP1 PUSH4 0x3F4BA83A GT PUSH2 0x1B6 JUMPI DUP1 PUSH4 0x3F4BA83A EQ PUSH2 0x29B JUMPI DUP1 PUSH4 0x458A635A EQ PUSH2 0x2C6 JUMPI DUP1 PUSH4 0x48ECA45C EQ PUSH2 0x2EF JUMPI DUP1 PUSH4 0x4DD79F10 EQ PUSH2 0x32C JUMPI PUSH2 0x1EE JUMP JUMPDEST DUP1 PUSH4 0xFF32839 EQ PUSH2 0x1F3 JUMPI DUP1 PUSH4 0x1ECFF38E EQ PUSH2 0x21E JUMPI DUP1 PUSH4 0x2E5BB6FF EQ PUSH2 0x247 JUMPI DUP1 PUSH4 0x36C3B4E2 EQ PUSH2 0x270 JUMPI PUSH2 0x1EE JUMP JUMPDEST CALLDATASIZE PUSH2 0x1EE JUMPI STOP JUMPDEST PUSH1 0x0 DUP1 REVERT JUMPDEST CALLVALUE DUP1 ISZERO PUSH2 0x1FF JUMPI PUSH1 0x0 DUP1 REVERT JUMPDEST POP PUSH2 0x208 PUSH2 0x749 JUMP JUMPDEST PUSH1 0x40 MLOAD PUSH2 0x215 SWAP2 SWAP1 PUSH2 0x325F JUMP JUMPDEST PUSH1 0x40 MLOAD DUP1 SWAP2 SUB SWAP1 RETURN JUMPDEST CALLVALUE DUP1 ISZERO PUSH2 0x22A JUMPI PUSH1 0x0 DUP1 REVERT JUMPDEST POP PUSH2 0x245 PUSH1 0x4 DUP1 CALLDATASIZE SUB DUP2 ADD SWAP1 PUSH2 0x240 SWAP2 SWAP1 PUSH2 0x2E46 JUMP JUMPDEST PUSH2 0x76F JUMP JUMPDEST STOP JUMPDEST CALLVALUE DUP1 ISZERO PUSH2 0x253 JUMPI PUSH1 0x0 DUP1 REVERT JUMPDEST POP PUSH2 0x26E PUSH1 0x4 DUP1 CALLDATASIZE SUB DUP2 ADD SWAP1 PUSH2 0x269 SWAP2 SWAP1 PUSH2 0x2F0D JUMP JUMPDEST PUSH2 0x853 JUMP JUMPDEST STOP JUMPDEST CALLVALUE DUP1 ISZERO PUSH2 0x27C JUMPI PUSH1 0x0 DUP1 REVERT JUMPDEST POP PUSH2 0x285 PUSH2 0x8B1 JUMP JUMPDEST PUSH1 0x40 MLOAD PUSH2 0x292 SWAP2 SWAP1 PUSH2 0x325F JUMP JUMPDEST PUSH1 0x40 MLOAD DUP1 SWAP2 SUB SWAP1 RETURN JUMPDEST CALLVALUE DUP1 ISZERO PUSH2 0x2A7 JUMPI PUSH1 0x0 DUP1 REVERT JUMPDEST POP PUSH2 0x2B0 PUSH2 0x8D7 JUMP JUMPDEST PUSH1 0x40 MLOAD PUSH2 0x2BD SWAP2 SWAP1 PUSH2 0x334F JUMP JUMPDEST PUSH1 0x40 MLOAD DUP1 SWAP2 SUB SWAP1 RETURN JUMPDEST CALLVALUE DUP1 ISZERO PUSH2 0x2D2 JUMPI PUSH1 0x0 DUP1 REVERT JUMPDEST POP PUSH2 0x2ED PUSH1 0x4 DUP1 CALLDATASIZE SUB DUP2 ADD SWAP1 PUSH2 0x2E8 SWAP2 SWAP1 PUSH2 0x2E46 JUMP JUMPDEST PUSH2 0x986 JUMP JUMPDEST STOP JUMPDEST CALLVALUE DUP1 ISZERO PUSH2 0x2FB JUMPI PUSH1 0x0 DUP1 REVERT JUMPDEST POP PUSH2 0x316 PUSH1 0x4 DUP1 CALLDATASIZE SUB DUP2 ADD SWAP1 PUSH2 0x311 SWAP2 SWAP1 PUSH2 0x2E46 JUMP JUMPDEST PUSH2 0xA6A JUMP JUMPDEST PUSH1 0x40 MLOAD PUSH2 0x323 SWAP2 SWAP1 PUSH2 0x34CA JUMP JUMPDEST PUSH1 0x40 MLOAD DUP1 SWAP2 SUB SWAP1 RETURN JUMPDEST CALLVALUE DUP1 ISZERO PUSH2 0x338 JUMPI PUSH1 0x0 DUP1 REVERT JUMPDEST POP PUSH2 0x353 PUSH1 0x4 DUP1 CALLDATASIZE SUB DUP2 ADD SWAP1 PUSH2 0x34E SWAP2 SWAP1 PUSH2 0x2F0D JUMP JUMPDEST PUSH2 0xAFC JUMP JUMPDEST STOP JUMPDEST CALLVALUE DUP1 ISZERO PUSH2 0x361 JUMPI PUSH1 0x0 DUP1 REVERT JUMPDEST POP PUSH2 0x36A PUSH2 0xCCD JUMP JUMPDEST PUSH1 0x40 MLOAD PUSH2 0x377 SWAP2 SWAP1 PUSH2 0x325F JUMP JUMPDEST PUSH1 0x40 MLOAD DUP1 SWAP2 SUB SWAP1 RETURN JUMPDEST CALLVALUE DUP1 ISZERO PUSH2 0x38C JUMPI PUSH1 0x0 DUP1 REVERT JUMPDEST POP PUSH2 0x3A7 PUSH1 0x4 DUP1 CALLDATASIZE SUB DUP2 ADD SWAP1 PUSH2 0x3A2 SWAP2 SWAP1 PUSH2 0x2F0D JUMP JUMPDEST PUSH2 0xCF3 JUMP JUMPDEST PUSH1 0x40 MLOAD PUSH2 0x3B4 SWAP2 SWAP1 PUSH2 0x325F JUMP JUMPDEST PUSH1 0x40 MLOAD DUP1 SWAP2 SUB SWAP1 RETURN JUMPDEST CALLVALUE DUP1 ISZERO PUSH2 0x3C9 JUMPI PUSH1 0x0 DUP1 REVERT JUMPDEST POP PUSH2 0x3D2 PUSH2 0xD30 JUMP JUMPDEST PUSH1 0x40 MLOAD PUSH2 0x3DF SWAP2 SWAP1 PUSH2 0x334F JUMP JUMPDEST PUSH1 0x40 MLOAD DUP1 SWAP2 SUB SWAP1 RETURN JUMPDEST CALLVALUE DUP1 ISZERO PUSH2 0x3F4 JUMPI PUSH1 0x0 DUP1 REVERT JUMPDEST POP PUSH2 0x40F PUSH1 0x4 DUP1 CALLDATASIZE SUB DUP2 ADD SWAP1 PUSH2 0x40A SWAP2 SWAP1 PUSH2 0x2EA0 JUMP JUMPDEST PUSH2 0xD43 JUMP JUMPDEST STOP JUMPDEST CALLVALUE DUP1 ISZERO PUSH2 0x41D JUMPI PUSH1 0x0 DUP1 REVERT JUMPDEST POP PUSH2 0x426 PUSH2 0x104E JUMP JUMPDEST STOP JUMPDEST CALLVALUE DUP1 ISZERO PUSH2 0x434 JUMPI PUSH1 0x0 DUP1 REVERT JUMPDEST POP PUSH2 0x44F PUSH1 0x4 DUP1 CALLDATASIZE SUB DUP2 ADD SWAP1 PUSH2 0x44A SWAP2 SWAP1 PUSH2 0x2F0D JUMP JUMPDEST PUSH2 0x1153 JUMP JUMPDEST STOP JUMPDEST CALLVALUE DUP1 ISZERO PUSH2 0x45D JUMPI PUSH1 0x0 DUP1 REVERT JUMPDEST POP PUSH2 0x478 PUSH1 0x4 DUP1 CALLDATASIZE SUB DUP2 ADD SWAP1 PUSH2 0x473 SWAP2 SWAP1 PUSH2 0x2F67 JUMP JUMPDEST PUSH2 0x1941 JUMP JUMPDEST STOP JUMPDEST CALLVALUE DUP1 ISZERO PUSH2 0x486 JUMPI PUSH1 0x0 DUP1 REVERT JUMPDEST POP PUSH2 0x48F PUSH2 0x1C46 JUMP JUMPDEST PUSH1 0x40 MLOAD PUSH2 0x49C SWAP2 SWAP1 PUSH2 0x334F JUMP JUMPDEST PUSH1 0x40 MLOAD DUP1 SWAP2 SUB SWAP1 RETURN JUMPDEST CALLVALUE DUP1 ISZERO PUSH2 0x4B1 JUMPI PUSH1 0x0 DUP1 REVERT JUMPDEST POP PUSH2 0x4CC PUSH1 0x4 DUP1 CALLDATASIZE SUB DUP2 ADD SWAP1 PUSH2 0x4C7 SWAP2 SWAP1 PUSH2 0x2EA0 JUMP JUMPDEST PUSH2 0x1CF7 JUMP JUMPDEST STOP JUMPDEST CALLVALUE DUP1 ISZERO PUSH2 0x4DA JUMPI PUSH1 0x0 DUP1 REVERT JUMPDEST POP PUSH2 0x4E3 PUSH2 0x1ECF JUMP JUMPDEST PUSH1 0x40 MLOAD PUSH2 0x4F0 SWAP2 SWAP1 PUSH2 0x325F JUMP JUMPDEST PUSH1 0x40 MLOAD DUP1 SWAP2 SUB SWAP1 RETURN JUMPDEST CALLVALUE DUP1 ISZERO PUSH2 0x505 JUMPI PUSH1 0x0 DUP1 REVERT JUMPDEST POP PUSH2 0x50E PUSH2 0x1EF8 JUMP JUMPDEST PUSH1 0x40 MLOAD PUSH2 0x51B SWAP2 SWAP1 PUSH2 0x334F JUMP JUMPDEST PUSH1 0x40 MLOAD DUP1 SWAP2 SUB SWAP1 RETURN JUMPDEST CALLVALUE DUP1 ISZERO PUSH2 0x530 JUMPI PUSH1 0x0 DUP1 REVERT JUMPDEST POP PUSH2 0x539 PUSH2 0x1F56 JUMP JUMPDEST PUSH1 0x40 MLOAD PUSH2 0x548 SWAP4 SWAP3 SWAP2 SWAP1 PUSH2 0x3303 JUMP JUMPDEST PUSH1 0x40 MLOAD DUP1 SWAP2 SUB SWAP1 RETURN JUMPDEST CALLVALUE DUP1 ISZERO PUSH2 0x55D JUMPI PUSH1 0x0 DUP1 REVERT JUMPDEST POP PUSH2 0x578 PUSH1 0x4 DUP1 CALLDATASIZE SUB DUP2 ADD SWAP1 PUSH2 0x573 SWAP2 SWAP1 PUSH2 0x2E46 JUMP JUMPDEST PUSH2 0x2335 JUMP JUMPDEST STOP JUMPDEST CALLVALUE DUP1 ISZERO PUSH2 0x586 JUMPI PUSH1 0x0 DUP1 REVERT JUMPDEST POP PUSH2 0x58F PUSH2 0x2419 JUMP JUMPDEST PUSH1 0x40 MLOAD PUSH2 0x59C SWAP2 SWAP1 PUSH2 0x325F JUMP JUMPDEST PUSH1 0x40 MLOAD DUP1 SWAP2 SUB SWAP1 RETURN JUMPDEST CALLVALUE DUP1 ISZERO PUSH2 0x5B1 JUMPI PUSH1 0x0 DUP1 REVERT JUMPDEST POP PUSH2 0x5BA PUSH2 0x243F JUMP JUMPDEST PUSH1 0x40 MLOAD PUSH2 0x5C7 SWAP2 SWAP1 PUSH2 0x325F JUMP JUMPDEST PUSH1 0x40 MLOAD DUP1 SWAP2 SUB SWAP1 RETURN JUMPDEST CALLVALUE DUP1 ISZERO PUSH2 0x5DC JUMPI PUSH1 0x0 DUP1 REVERT JUMPDEST POP PUSH2 0x5E5 PUSH2 0x2465 JUMP JUMPDEST PUSH1 0x40 MLOAD PUSH2 0x5F2 SWAP2 SWAP1 PUSH2 0x34CA JUMP JUMPDEST PUSH1 0x40 MLOAD DUP1 SWAP2 SUB SWAP1 RETURN JUMPDEST CALLVALUE DUP1 ISZERO PUSH2 0x607 JUMPI PUSH1 0x0 DUP1 REVERT JUMPDEST POP PUSH2 0x610 PUSH2 0x246D JUMP JUMPDEST PUSH1 0x40 MLOAD PUSH2 0x61D SWAP2 SWAP1 PUSH2 0x34CA JUMP JUMPDEST PUSH1 0x40 MLOAD DUP1 SWAP2 SUB SWAP1 RETURN JUMPDEST CALLVALUE DUP1 ISZERO PUSH2 0x632 JUMPI PUSH1 0x0 DUP1 REVERT JUMPDEST POP PUSH2 0x64D PUSH1 0x4 DUP1 CALLDATASIZE SUB DUP2 ADD SWAP1 PUSH2 0x648 SWAP2 SWAP1 PUSH2 0x2E46 JUMP JUMPDEST PUSH2 0x2473 JUMP JUMPDEST STOP JUMPDEST CALLVALUE DUP1 ISZERO PUSH2 0x65B JUMPI PUSH1 0x0 DUP1 REVERT JUMPDEST POP PUSH2 0x676 PUSH1 0x4 DUP1 CALLDATASIZE SUB DUP2 ADD SWAP1 PUSH2 0x671 SWAP2 SWAP1 PUSH2 0x2F0D JUMP JUMPDEST PUSH2 0x24FE JUMP JUMPDEST STOP JUMPDEST CALLVALUE DUP1 ISZERO PUSH2 0x684 JUMPI PUSH1 0x0 DUP1 REVERT JUMPDEST POP PUSH2 0x68D PUSH2 0x2606 JUMP JUMPDEST PUSH1 0x40 MLOAD PUSH2 0x69A SWAP2 SWAP1 PUSH2 0x325F JUMP JUMPDEST PUSH1 0x40 MLOAD DUP1 SWAP2 SUB SWAP1 RETURN JUMPDEST CALLVALUE DUP1 ISZERO PUSH2 0x6AF JUMPI PUSH1 0x0 DUP1 REVERT JUMPDEST POP PUSH2 0x6CA PUSH1 0x4 DUP1 CALLDATASIZE SUB DUP2 ADD SWAP1 PUSH2 0x6C5 SWAP2 SWAP1 PUSH2 0x2F0D JUMP JUMPDEST PUSH2 0x262C JUMP JUMPDEST STOP JUMPDEST CALLVALUE DUP1 ISZERO PUSH2 0x6D8 JUMPI PUSH1 0x0 DUP1 REVERT JUMPDEST POP PUSH2 0x6E1 PUSH2 0x26B6 JUMP JUMPDEST PUSH1 0x40 MLOAD PUSH2 0x6EE SWAP2 SWAP1 PUSH2 0x34CA JUMP JUMPDEST PUSH1 0x40 MLOAD DUP1 SWAP2 SUB SWAP1 RETURN JUMPDEST CALLVALUE DUP1 ISZERO PUSH2 0x703 JUMPI PUSH1 0x0 DUP1 REVERT JUMPDEST POP PUSH2 0x71E PUSH1 0x4 DUP1 CALLDATASIZE SUB DUP2 ADD SWAP1 PUSH2 0x719 SWAP2 SWAP1 PUSH2 0x2E46 JUMP JUMPDEST PUSH2 0x2891 JUMP JUMPDEST STOP JUMPDEST CALLVALUE DUP1 ISZERO PUSH2 0x72C JUMPI PUSH1 0x0 DUP1 REVERT JUMPDEST POP PUSH2 0x747 PUSH1 0x4 DUP1 CALLDATASIZE SUB DUP2 ADD SWAP1 PUSH2 0x742 SWAP2 SWAP1 PUSH2 0x2E46 JUMP JUMPDEST PUSH2 0x2975 JUMP JUMPDEST STOP JUMPDEST PUSH1 0x5 PUSH1 0x0 SWAP1 SLOAD SWAP1 PUSH2 0x100 EXP SWAP1 DIV PUSH20 0xFFFFFFFFFFFFFFFFFFFFFFFFFFFFFFFFFFFFFFFF AND DUP2 JUMP JUMPDEST PUSH2 0x777 PUSH2 0x1EF8 JUMP JUMPDEST PUSH2 0x7B6 JUMPI PUSH1 0x40 MLOAD PUSH32 0x8C379A000000000000000000000000000000000000000000000000000000000 DUP2 MSTORE PUSH1 0x4 ADD PUSH2 0x7AD SWAP1 PUSH2 0x346A JUMP JUMPDEST PUSH1 0x40 MLOAD DUP1 SWAP2 SUB SWAP1 REVERT JUMPDEST DUP1 PUSH1 0x4 PUSH1 0x0 PUSH2 0x100 EXP DUP2 SLOAD DUP2 PUSH20 0xFFFFFFFFFFFFFFFFFFFFFFFFFFFFFFFFFFFFFFFF MUL NOT AND SWAP1 DUP4 PUSH20 0xFFFFFFFFFFFFFFFFFFFFFFFFFFFFFFFFFFFFFFFF AND MUL OR SWAP1 SSTORE POP PUSH32 0x136742181FF5FC7D13F647A125112EC36500105A024CE2DBBB7F28FA375EEBFA PUSH1 0x4 PUSH1 0x0 SWAP1 SLOAD SWAP1 PUSH2 0x100 EXP SWAP1 DIV PUSH20 0xFFFFFFFFFFFFFFFFFFFFFFFFFFFFFFFFFFFFFFFF AND PUSH1 0x40 MLOAD PUSH2 0x848 SWAP2 SWAP1 PUSH2 0x325F JUMP JUMPDEST PUSH1 0x40 MLOAD DUP1 SWAP2 SUB SWAP1 LOG1 POP JUMP JUMPDEST PUSH2 0x85B PUSH2 0x1EF8 JUMP JUMPDEST PUSH2 0x89A JUMPI PUSH1 0x40 MLOAD PUSH32 0x8C379A000000000000000000000000000000000000000000000000000000000 DUP2 MSTORE PUSH1 0x4 ADD PUSH2 0x891 SWAP1 PUSH2 0x346A JUMP JUMPDEST PUSH1 0x40 MLOAD DUP1 SWAP2 SUB SWAP1 REVERT JUMPDEST PUSH1 0x32 DUP2 LT PUSH2 0x8A7 JUMPI PUSH1 0x0 DUP1 REVERT JUMPDEST DUP1 PUSH1 0x7 DUP2 SWAP1 SSTORE POP POP JUMP JUMPDEST PUSH1 0x2 PUSH1 0x0 SWAP1 SLOAD SWAP1 PUSH2 0x100 EXP SWAP1 DIV PUSH20 0xFFFFFFFFFFFFFFFFFFFFFFFFFFFFFFFFFFFFFFFF AND DUP2 JUMP JUMPDEST PUSH1 0x0 PUSH2 0x8E1 PUSH2 0x1EF8 JUMP JUMPDEST PUSH2 0x920 JUMPI PUSH1 0x40 MLOAD PUSH32 0x8C379A000000000000000000000000000000000000000000000000000000000 DUP2 MSTORE PUSH1 0x4 ADD PUSH2 0x917 SWAP1 PUSH2 0x346A JUMP JUMPDEST PUSH1 0x40 MLOAD DUP1 SWAP2 SUB SWAP1 REVERT JUMPDEST PUSH1 0x0 PUSH1 0x14 SWAP1 SLOAD SWAP1 PUSH2 0x100 EXP SWAP1 DIV PUSH1 0xFF AND PUSH2 0x939 JUMPI PUSH1 0x0 DUP1 REVERT JUMPDEST PUSH1 0x0 DUP1 PUSH1 0x14 PUSH2 0x100 EXP DUP2 SLOAD DUP2 PUSH1 0xFF MUL NOT AND SWAP1 DUP4 ISZERO ISZERO MUL OR SWAP1 SSTORE POP PUSH32 0x7805862F689E2F13DF9F062FF482AD3AD112ACA9E0847911ED832E158C525B33 PUSH1 0x40 MLOAD PUSH1 0x40 MLOAD DUP1 SWAP2 SUB SWAP1 LOG1 PUSH1 0x1 SWAP1 POP SWAP1 JUMP JUMPDEST PUSH2 0x98E PUSH2 0x1EF8 JUMP JUMPDEST PUSH2 0x9CD JUMPI PUSH1 0x40 MLOAD PUSH32 0x8C379A000000000000000000000000000000000000000000000000000000000 DUP2 MSTORE PUSH1 0x4 ADD PUSH2 0x9C4 SWAP1 PUSH2 0x346A JUMP JUMPDEST PUSH1 0x40 MLOAD DUP1 SWAP2 SUB SWAP1 REVERT JUMPDEST DUP1 PUSH1 0x3 PUSH1 0x0 PUSH2 0x100 EXP DUP2 SLOAD DUP2 PUSH20 0xFFFFFFFFFFFFFFFFFFFFFFFFFFFFFFFFFFFFFFFF MUL NOT AND SWAP1 DUP4 PUSH20 0xFFFFFFFFFFFFFFFFFFFFFFFFFFFFFFFFFFFFFFFF AND MUL OR SWAP1 SSTORE POP PUSH32 0xB01E01D90E1DA4079495DB07C84276EF34A0EA39CD9BE9C3844874EB35616E44 PUSH1 0x3 PUSH1 0x0 SWAP1 SLOAD SWAP1 PUSH2 0x100 EXP SWAP1 DIV PUSH20 0xFFFFFFFFFFFFFFFFFFFFFFFFFFFFFFFFFFFFFFFF AND PUSH1 0x40 MLOAD PUSH2 0xA5F SWAP2 SWAP1 PUSH2 0x325F JUMP JUMPDEST PUSH1 0x40 MLOAD DUP1 SWAP2 SUB SWAP1 LOG1 POP JUMP JUMPDEST PUSH1 0x0 DUP2 PUSH20 0xFFFFFFFFFFFFFFFFFFFFFFFFFFFFFFFFFFFFFFFF AND PUSH4 0x70A08231 ADDRESS PUSH1 0x40 MLOAD DUP3 PUSH4 0xFFFFFFFF AND PUSH1 0xE0 SHL DUP2 MSTORE PUSH1 0x4 ADD PUSH2 0xAA5 SWAP2 SWAP1 PUSH2 0x325F JUMP JUMPDEST PUSH1 0x20 PUSH1 0x40 MLOAD DUP1 DUP4 SUB DUP2 DUP7 DUP1 EXTCODESIZE ISZERO DUP1 ISZERO PUSH2 0xABD JUMPI PUSH1 0x0 DUP1 REVERT JUMPDEST POP GAS STATICCALL ISZERO DUP1 ISZERO PUSH2 0xAD1 JUMPI RETURNDATASIZE PUSH1 0x0 DUP1 RETURNDATACOPY RETURNDATASIZE PUSH1 0x0 REVERT JUMPDEST POP POP POP POP PUSH1 0x40 MLOAD RETURNDATASIZE PUSH1 0x1F NOT PUSH1 0x1F DUP3 ADD AND DUP3 ADD DUP1 PUSH1 0x40 MSTORE POP DUP2 ADD SWAP1 PUSH2 0xAF5 SWAP2 SWAP1 PUSH2 0x2F3A JUMP JUMPDEST SWAP1 POP SWAP2 SWAP1 POP JUMP JUMPDEST PUSH1 0x0 PUSH1 0x14 SWAP1 SLOAD SWAP1 PUSH2 0x100 EXP SWAP1 DIV PUSH1 0xFF AND ISZERO PUSH2 0xB16 JUMPI PUSH1 0x0 DUP1 REVERT JUMPDEST PUSH1 0x0 PUSH1 0xA PUSH1 0x0 DUP4 DUP2 MSTORE PUSH1 0x20 ADD SWAP1 DUP2 MSTORE PUSH1 0x20 ADD PUSH1 0x0 KECCAK256 SLOAD GT PUSH2 0xB6C JUMPI PUSH1 0x40 MLOAD PUSH32 0x8C379A000000000000000000000000000000000000000000000000000000000 DUP2 MSTORE PUSH1 0x4 ADD PUSH2 0xB63 SWAP1 PUSH2 0x348A JUMP JUMPDEST PUSH1 0x40 MLOAD DUP1 SWAP2 SUB SWAP1 REVERT JUMPDEST PUSH1 0x0 CALLER SWAP1 POP DUP1 PUSH20 0xFFFFFFFFFFFFFFFFFFFFFFFFFFFFFFFFFFFFFFFF AND PUSH1 0x3 PUSH1 0x0 SWAP1 SLOAD SWAP1 PUSH2 0x100 EXP SWAP1 DIV PUSH20 0xFFFFFFFFFFFFFFFFFFFFFFFFFFFFFFFFFFFFFFFF AND PUSH20 0xFFFFFFFFFFFFFFFFFFFFFFFFFFFFFFFFFFFFFFFF AND PUSH4 0x6352211E DUP5 PUSH1 0x40 MLOAD DUP3 PUSH4 0xFFFFFFFF AND PUSH1 0xE0 SHL DUP2 MSTORE PUSH1 0x4 ADD PUSH2 0xBE3 SWAP2 SWAP1 PUSH2 0x34CA JUMP JUMPDEST PUSH1 0x20 PUSH1 0x40 MLOAD DUP1 DUP4 SUB DUP2 DUP7 DUP1 EXTCODESIZE ISZERO DUP1 ISZERO PUSH2 0xBFB JUMPI PUSH1 0x0 DUP1 REVERT JUMPDEST POP GAS STATICCALL ISZERO DUP1 ISZERO PUSH2 0xC0F JUMPI RETURNDATASIZE PUSH1 0x0 DUP1 RETURNDATACOPY RETURNDATASIZE PUSH1 0x0 REVERT JUMPDEST POP POP POP POP PUSH1 0x40 MLOAD RETURNDATASIZE PUSH1 0x1F NOT PUSH1 0x1F DUP3 ADD AND DUP3 ADD DUP1 PUSH1 0x40 MSTORE POP DUP2 ADD SWAP1 PUSH2 0xC33 SWAP2 SWAP1 PUSH2 0x2E73 JUMP JUMPDEST PUSH20 0xFFFFFFFFFFFFFFFFFFFFFFFFFFFFFFFFFFFFFFFF AND EQ PUSH2 0xC89 JUMPI PUSH1 0x40 MLOAD PUSH32 0x8C379A000000000000000000000000000000000000000000000000000000000 DUP2 MSTORE PUSH1 0x4 ADD PUSH2 0xC80 SWAP1 PUSH2 0x336A JUMP JUMPDEST PUSH1 0x40 MLOAD DUP1 SWAP2 SUB SWAP1 REVERT JUMPDEST PUSH2 0xC92 DUP3 PUSH2 0x29C8 JUMP JUMPDEST PUSH32 0xD4CEEA0833AC36CC33C805E4F164DEDB6D75E092A34E14083BBB87976BEFDECF DUP3 PUSH1 0x40 MLOAD PUSH2 0xCC1 SWAP2 SWAP1 PUSH2 0x34CA JUMP JUMPDEST PUSH1 0x40 MLOAD DUP1 SWAP2 SUB SWAP1 LOG1 POP POP JUMP JUMPDEST PUSH1 0x1 PUSH1 0x0 SWAP1 SLOAD SWAP1 PUSH2 0x100 EXP SWAP1 DIV PUSH20 0xFFFFFFFFFFFFFFFFFFFFFFFFFFFFFFFFFFFFFFFF AND DUP2 JUMP JUMPDEST PUSH1 0x0 PUSH1 0x9 PUSH1 0x0 DUP4 DUP2 MSTORE PUSH1 0x20 ADD SWAP1 DUP2 MSTORE PUSH1 0x20 ADD PUSH1 0x0 KECCAK256 PUSH1 0x0 SWAP1 SLOAD SWAP1 PUSH2 0x100 EXP SWAP1 DIV PUSH20 0xFFFFFFFFFFFFFFFFFFFFFFFFFFFFFFFFFFFFFFFF AND SWAP1 POP SWAP2 SWAP1 POP JUMP JUMPDEST PUSH1 0x0 PUSH1 0x14 SWAP1 SLOAD SWAP1 PUSH2 0x100 EXP SWAP1 DIV PUSH1 0xFF AND DUP2 JUMP JUMPDEST PUSH1 0x0 PUSH1 0x14 SWAP1 SLOAD SWAP1 PUSH2 0x100 EXP SWAP1 DIV PUSH1 0xFF AND ISZERO PUSH2 0xD5D JUMPI PUSH1 0x0 DUP1 REVERT JUMPDEST PUSH1 0x0 CALLER SWAP1 POP PUSH1 0x3 PUSH1 0x0 SWAP1 SLOAD SWAP1 PUSH2 0x100 EXP SWAP1 DIV PUSH20 0xFFFFFFFFFFFFFFFFFFFFFFFFFFFFFFFFFFFFFFFF AND PUSH20 0xFFFFFFFFFFFFFFFFFFFFFFFFFFFFFFFFFFFFFFFF AND PUSH4 0xE985E9C5 DUP3 ADDRESS PUSH1 0x40 MLOAD DUP4 PUSH4 0xFFFFFFFF AND PUSH1 0xE0 SHL DUP2 MSTORE PUSH1 0x4 ADD PUSH2 0xDBF SWAP3 SWAP2 SWAP1 PUSH2 0x327A JUMP JUMPDEST PUSH1 0x20 PUSH1 0x40 MLOAD DUP1 DUP4 SUB DUP2 DUP7 DUP1 EXTCODESIZE ISZERO DUP1 ISZERO PUSH2 0xDD7 JUMPI PUSH1 0x0 DUP1 REVERT JUMPDEST POP GAS STATICCALL ISZERO DUP1 ISZERO PUSH2 0xDEB JUMPI RETURNDATASIZE PUSH1 0x0 DUP1 RETURNDATACOPY RETURNDATASIZE PUSH1 0x0 REVERT JUMPDEST POP POP POP POP PUSH1 0x40 MLOAD RETURNDATASIZE PUSH1 0x1F NOT PUSH1 0x1F DUP3 ADD AND DUP3 ADD DUP1 PUSH1 0x40 MSTORE POP DUP2 ADD SWAP1 PUSH2 0xE0F SWAP2 SWAP1 PUSH2 0x2EE0 JUMP JUMPDEST PUSH2 0xE4E JUMPI PUSH1 0x40 MLOAD PUSH32 0x8C379A000000000000000000000000000000000000000000000000000000000 DUP2 MSTORE PUSH1 0x4 ADD PUSH2 0xE45 SWAP1 PUSH2 0x342A JUMP JUMPDEST PUSH1 0x40 MLOAD DUP1 SWAP2 SUB SWAP1 REVERT JUMPDEST PUSH1 0x0 PUSH20 0xFFFFFFFFFFFFFFFFFFFFFFFFFFFFFFFFFFFFFFFF AND DUP4 PUSH20 0xFFFFFFFFFFFFFFFFFFFFFFFFFFFFFFFFFFFFFFFF AND EQ ISZERO PUSH2 0xEBE JUMPI PUSH1 0x40 MLOAD PUSH32 0x8C379A000000000000000000000000000000000000000000000000000000000 DUP2 MSTORE PUSH1 0x4 ADD PUSH2 0xEB5 SWAP1 PUSH2 0x344A JUMP JUMPDEST PUSH1 0x40 MLOAD DUP1 SWAP2 SUB SWAP1 REVERT JUMPDEST DUP1 PUSH20 0xFFFFFFFFFFFFFFFFFFFFFFFFFFFFFFFFFFFFFFFF AND DUP4 PUSH20 0xFFFFFFFFFFFFFFFFFFFFFFFFFFFFFFFFFFFFFFFF AND EQ ISZERO PUSH2 0xF2D JUMPI PUSH1 0x40 MLOAD PUSH32 0x8C379A000000000000000000000000000000000000000000000000000000000 DUP2 MSTORE PUSH1 0x4 ADD PUSH2 0xF24 SWAP1 PUSH2 0x33EA JUMP JUMPDEST PUSH1 0x40 MLOAD DUP1 SWAP2 SUB SWAP1 REVERT JUMPDEST PUSH1 0x3 PUSH1 0x0 SWAP1 SLOAD SWAP1 PUSH2 0x100 EXP SWAP1 DIV PUSH20 0xFFFFFFFFFFFFFFFFFFFFFFFFFFFFFFFFFFFFFFFF AND PUSH20 0xFFFFFFFFFFFFFFFFFFFFFFFFFFFFFFFFFFFFFFFF AND PUSH4 0x42842E0E DUP3 DUP6 DUP6 PUSH1 0x40 MLOAD DUP5 PUSH4 0xFFFFFFFF AND PUSH1 0xE0 SHL DUP2 MSTORE PUSH1 0x4 ADD PUSH2 0xF8C SWAP4 SWAP3 SWAP2 SWAP1 PUSH2 0x32A3 JUMP JUMPDEST PUSH1 0x0 PUSH1 0x40 MLOAD DUP1 DUP4 SUB DUP2 PUSH1 0x0 DUP8 DUP1 EXTCODESIZE ISZERO DUP1 ISZERO PUSH2 0xFA6 JUMPI PUSH1 0x0 DUP1 REVERT JUMPDEST POP GAS CALL ISZERO DUP1 ISZERO PUSH2 0xFBA JUMPI RETURNDATASIZE PUSH1 0x0 DUP1 RETURNDATACOPY RETURNDATASIZE PUSH1 0x0 REVERT JUMPDEST POP POP POP POP DUP3 PUSH1 0x9 PUSH1 0x0 DUP5 DUP2 MSTORE PUSH1 0x20 ADD SWAP1 DUP2 MSTORE PUSH1 0x20 ADD PUSH1 0x0 KECCAK256 PUSH1 0x0 PUSH2 0x100 EXP DUP2 SLOAD DUP2 PUSH20 0xFFFFFFFFFFFFFFFFFFFFFFFFFFFFFFFFFFFFFFFF MUL NOT AND SWAP1 DUP4 PUSH20 0xFFFFFFFFFFFFFFFFFFFFFFFFFFFFFFFFFFFFFFFF AND MUL OR SWAP1 SSTORE POP PUSH32 0x2A422DA7E70B3CA41064BE14C50B74A43CBBEF24634FA3B7E90D120B8ECC08B3 DUP4 DUP4 PUSH1 0x40 MLOAD PUSH2 0x1041 SWAP3 SWAP2 SWAP1 PUSH2 0x32DA JUMP JUMPDEST PUSH1 0x40 MLOAD DUP1 SWAP2 SUB SWAP1 LOG1 POP POP POP JUMP JUMPDEST PUSH2 0x1056 PUSH2 0x1EF8 JUMP JUMPDEST PUSH2 0x1095 JUMPI PUSH1 0x40 MLOAD PUSH32 0x8C379A000000000000000000000000000000000000000000000000000000000 DUP2 MSTORE PUSH1 0x4 ADD PUSH2 0x108C SWAP1 PUSH2 0x346A JUMP JUMPDEST PUSH1 0x40 MLOAD DUP1 SWAP2 SUB SWAP1 REVERT JUMPDEST PUSH1 0x0 PUSH20 0xFFFFFFFFFFFFFFFFFFFFFFFFFFFFFFFFFFFFFFFF AND PUSH1 0x0 DUP1 SLOAD SWAP1 PUSH2 0x100 EXP SWAP1 DIV PUSH20 0xFFFFFFFFFFFFFFFFFFFFFFFFFFFFFFFFFFFFFFFF AND PUSH20 0xFFFFFFFFFFFFFFFFFFFFFFFFFFFFFFFFFFFFFFFF AND PUSH32 0x8BE0079C531659141344CD1FD0A4F28419497F9722A3DAAFE3B4186F6B6457E0 PUSH1 0x40 MLOAD PUSH1 0x40 MLOAD DUP1 SWAP2 SUB SWAP1 LOG3 PUSH1 0x0 DUP1 PUSH1 0x0 PUSH2 0x100 EXP DUP2 SLOAD DUP2 PUSH20 0xFFFFFFFFFFFFFFFFFFFFFFFFFFFFFFFFFFFFFFFF MUL NOT AND SWAP1 DUP4 PUSH20 0xFFFFFFFFFFFFFFFFFFFFFFFFFFFFFFFFFFFFFFFF AND MUL OR SWAP1 SSTORE POP JUMP JUMPDEST PUSH1 0x0 PUSH1 0x14 SWAP1 SLOAD SWAP1 PUSH2 0x100 EXP SWAP1 DIV PUSH1 0xFF AND ISZERO PUSH2 0x116D JUMPI PUSH1 0x0 DUP1 REVERT JUMPDEST PUSH1 0x0 PUSH1 0xB PUSH1 0x0 DUP4 DUP2 MSTORE PUSH1 0x20 ADD SWAP1 DUP2 MSTORE PUSH1 0x20 ADD PUSH1 0x0 KECCAK256 PUSH1 0x0 SWAP1 SLOAD SWAP1 PUSH2 0x100 EXP SWAP1 DIV PUSH20 0xFFFFFFFFFFFFFFFFFFFFFFFFFFFFFFFFFFFFFFFF AND SWAP1 POP PUSH1 0x0 PUSH1 0xA PUSH1 0x0 DUP5 DUP2 MSTORE PUSH1 0x20 ADD SWAP1 DUP2 MSTORE PUSH1 0x20 ADD PUSH1 0x0 KECCAK256 SLOAD GT PUSH2 0x11FB JUMPI PUSH1 0x40 MLOAD PUSH32 0x8C379A000000000000000000000000000000000000000000000000000000000 DUP2 MSTORE PUSH1 0x4 ADD PUSH2 0x11F2 SWAP1 PUSH2 0x348A JUMP JUMPDEST PUSH1 0x40 MLOAD DUP1 SWAP2 SUB SWAP1 REVERT JUMPDEST DUP1 PUSH20 0xFFFFFFFFFFFFFFFFFFFFFFFFFFFFFFFFFFFFFFFF AND PUSH1 0x3 PUSH1 0x0 SWAP1 SLOAD SWAP1 PUSH2 0x100 EXP SWAP1 DIV PUSH20 0xFFFFFFFFFFFFFFFFFFFFFFFFFFFFFFFFFFFFFFFF AND PUSH20 0xFFFFFFFFFFFFFFFFFFFFFFFFFFFFFFFFFFFFFFFF AND PUSH4 0x6352211E DUP5 PUSH1 0x40 MLOAD DUP3 PUSH4 0xFFFFFFFF AND PUSH1 0xE0 SHL DUP2 MSTORE PUSH1 0x4 ADD PUSH2 0x126D SWAP2 SWAP1 PUSH2 0x34CA JUMP JUMPDEST PUSH1 0x20 PUSH1 0x40 MLOAD DUP1 DUP4 SUB DUP2 DUP7 DUP1 EXTCODESIZE ISZERO DUP1 ISZERO PUSH2 0x1285 JUMPI PUSH1 0x0 DUP1 REVERT JUMPDEST POP GAS STATICCALL ISZERO DUP1 ISZERO PUSH2 0x1299 JUMPI RETURNDATASIZE PUSH1 0x0 DUP1 RETURNDATACOPY RETURNDATASIZE PUSH1 0x0 REVERT JUMPDEST POP POP POP POP PUSH1 0x40 MLOAD RETURNDATASIZE PUSH1 0x1F NOT PUSH1 0x1F DUP3 ADD AND DUP3 ADD DUP1 PUSH1 0x40 MSTORE POP DUP2 ADD SWAP1 PUSH2 0x12BD SWAP2 SWAP1 PUSH2 0x2E73 JUMP JUMPDEST PUSH20 0xFFFFFFFFFFFFFFFFFFFFFFFFFFFFFFFFFFFFFFFF AND EQ PUSH2 0x1313 JUMPI PUSH1 0x40 MLOAD PUSH32 0x8C379A000000000000000000000000000000000000000000000000000000000 DUP2 MSTORE PUSH1 0x4 ADD PUSH2 0x130A SWAP1 PUSH2 0x336A JUMP JUMPDEST PUSH1 0x40 MLOAD DUP1 SWAP2 SUB SWAP1 REVERT JUMPDEST PUSH1 0x3 PUSH1 0x0 SWAP1 SLOAD SWAP1 PUSH2 0x100 EXP SWAP1 DIV PUSH20 0xFFFFFFFFFFFFFFFFFFFFFFFFFFFFFFFFFFFFFFFF AND PUSH20 0xFFFFFFFFFFFFFFFFFFFFFFFFFFFFFFFFFFFFFFFF AND PUSH4 0xE985E9C5 DUP3 ADDRESS PUSH1 0x40 MLOAD DUP4 PUSH4 0xFFFFFFFF AND PUSH1 0xE0 SHL DUP2 MSTORE PUSH1 0x4 ADD PUSH2 0x1370 SWAP3 SWAP2 SWAP1 PUSH2 0x327A JUMP JUMPDEST PUSH1 0x20 PUSH1 0x40 MLOAD DUP1 DUP4 SUB DUP2 DUP7 DUP1 EXTCODESIZE ISZERO DUP1 ISZERO PUSH2 0x1388 JUMPI PUSH1 0x0 DUP1 REVERT JUMPDEST POP GAS STATICCALL ISZERO DUP1 ISZERO PUSH2 0x139C JUMPI RETURNDATASIZE PUSH1 0x0 DUP1 RETURNDATACOPY RETURNDATASIZE PUSH1 0x0 REVERT JUMPDEST POP POP POP POP PUSH1 0x40 MLOAD RETURNDATASIZE PUSH1 0x1F NOT PUSH1 0x1F DUP3 ADD AND DUP3 ADD DUP1 PUSH1 0x40 MSTORE POP DUP2 ADD SWAP1 PUSH2 0x13C0 SWAP2 SWAP1 PUSH2 0x2EE0 JUMP JUMPDEST PUSH2 0x13FF JUMPI PUSH1 0x40 MLOAD PUSH32 0x8C379A000000000000000000000000000000000000000000000000000000000 DUP2 MSTORE PUSH1 0x4 ADD PUSH2 0x13F6 SWAP1 PUSH2 0x342A JUMP JUMPDEST PUSH1 0x40 MLOAD DUP1 SWAP2 SUB SWAP1 REVERT JUMPDEST PUSH1 0x0 CALLER SWAP1 POP PUSH1 0x0 PUSH2 0x140E PUSH2 0x26B6 JUMP JUMPDEST SWAP1 POP PUSH1 0x0 DUP2 SWAP1 POP PUSH1 0x0 PUSH1 0xA PUSH1 0x0 DUP8 DUP2 MSTORE PUSH1 0x20 ADD SWAP1 DUP2 MSTORE PUSH1 0x20 ADD PUSH1 0x0 KECCAK256 SLOAD SWAP1 POP DUP3 DUP2 GT ISZERO PUSH2 0x1439 JUMPI DUP1 SWAP2 POP JUMPDEST PUSH8 0xDE0B6B3A7640000 DUP3 PUSH2 0x144D SWAP2 SWAP1 PUSH2 0x3618 JUMP JUMPDEST PUSH1 0x4 PUSH1 0x0 SWAP1 SLOAD SWAP1 PUSH2 0x100 EXP SWAP1 DIV PUSH20 0xFFFFFFFFFFFFFFFFFFFFFFFFFFFFFFFFFFFFFFFF AND PUSH20 0xFFFFFFFFFFFFFFFFFFFFFFFFFFFFFFFFFFFFFFFF AND PUSH4 0xDD62ED3E DUP7 ADDRESS PUSH1 0x40 MLOAD DUP4 PUSH4 0xFFFFFFFF AND PUSH1 0xE0 SHL DUP2 MSTORE PUSH1 0x4 ADD PUSH2 0x14AA SWAP3 SWAP2 SWAP1 PUSH2 0x327A JUMP JUMPDEST PUSH1 0x20 PUSH1 0x40 MLOAD DUP1 DUP4 SUB DUP2 DUP7 DUP1 EXTCODESIZE ISZERO DUP1 ISZERO PUSH2 0x14C2 JUMPI PUSH1 0x0 DUP1 REVERT JUMPDEST POP GAS STATICCALL ISZERO DUP1 ISZERO PUSH2 0x14D6 JUMPI RETURNDATASIZE PUSH1 0x0 DUP1 RETURNDATACOPY RETURNDATASIZE PUSH1 0x0 REVERT JUMPDEST POP POP POP POP PUSH1 0x40 MLOAD RETURNDATASIZE PUSH1 0x1F NOT PUSH1 0x1F DUP3 ADD AND DUP3 ADD DUP1 PUSH1 0x40 MSTORE POP DUP2 ADD SWAP1 PUSH2 0x14FA SWAP2 SWAP1 PUSH2 0x2F3A JUMP JUMPDEST LT ISZERO PUSH2 0x153B JUMPI PUSH1 0x40 MLOAD PUSH32 0x8C379A000000000000000000000000000000000000000000000000000000000 DUP2 MSTORE PUSH1 0x4 ADD PUSH2 0x1532 SWAP1 PUSH2 0x34AA JUMP JUMPDEST PUSH1 0x40 MLOAD DUP1 SWAP2 SUB SWAP1 REVERT JUMPDEST PUSH1 0x4 PUSH1 0x0 SWAP1 SLOAD SWAP1 PUSH2 0x100 EXP SWAP1 DIV PUSH20 0xFFFFFFFFFFFFFFFFFFFFFFFFFFFFFFFFFFFFFFFF AND PUSH20 0xFFFFFFFFFFFFFFFFFFFFFFFFFFFFFFFFFFFFFFFF AND PUSH4 0x23B872DD DUP6 ADDRESS PUSH8 0xDE0B6B3A7640000 DUP7 PUSH2 0x158F SWAP2 SWAP1 PUSH2 0x3618 JUMP JUMPDEST PUSH1 0x40 MLOAD DUP5 PUSH4 0xFFFFFFFF AND PUSH1 0xE0 SHL DUP2 MSTORE PUSH1 0x4 ADD PUSH2 0x15AD SWAP4 SWAP3 SWAP2 SWAP1 PUSH2 0x32A3 JUMP JUMPDEST PUSH1 0x20 PUSH1 0x40 MLOAD DUP1 DUP4 SUB DUP2 PUSH1 0x0 DUP8 DUP1 EXTCODESIZE ISZERO DUP1 ISZERO PUSH2 0x15C7 JUMPI PUSH1 0x0 DUP1 REVERT JUMPDEST POP GAS CALL ISZERO DUP1 ISZERO PUSH2 0x15DB JUMPI RETURNDATASIZE PUSH1 0x0 DUP1 RETURNDATACOPY RETURNDATASIZE PUSH1 0x0 REVERT JUMPDEST POP POP POP POP PUSH1 0x40 MLOAD RETURNDATASIZE PUSH1 0x1F NOT PUSH1 0x1F DUP3 ADD AND DUP3 ADD DUP1 PUSH1 0x40 MSTORE POP DUP2 ADD SWAP1 PUSH2 0x15FF SWAP2 SWAP1 PUSH2 0x2EE0 JUMP JUMPDEST POP PUSH1 0x3 PUSH1 0x0 SWAP1 SLOAD SWAP1 PUSH2 0x100 EXP SWAP1 DIV PUSH20 0xFFFFFFFFFFFFFFFFFFFFFFFFFFFFFFFFFFFFFFFF AND PUSH20 0xFFFFFFFFFFFFFFFFFFFFFFFFFFFFFFFFFFFFFFFF AND PUSH4 0x42842E0E DUP7 DUP7 DUP10 PUSH1 0x40 MLOAD DUP5 PUSH4 0xFFFFFFFF AND PUSH1 0xE0 SHL DUP2 MSTORE PUSH1 0x4 ADD PUSH2 0x165F SWAP4 SWAP3 SWAP2 SWAP1 PUSH2 0x32A3 JUMP JUMPDEST PUSH1 0x0 PUSH1 0x40 MLOAD DUP1 DUP4 SUB DUP2 PUSH1 0x0 DUP8 DUP1 EXTCODESIZE ISZERO DUP1 ISZERO PUSH2 0x1679 JUMPI PUSH1 0x0 DUP1 REVERT JUMPDEST POP GAS CALL ISZERO DUP1 ISZERO PUSH2 0x168D JUMPI RETURNDATASIZE PUSH1 0x0 DUP1 RETURNDATACOPY RETURNDATASIZE PUSH1 0x0 REVERT JUMPDEST POP POP POP POP PUSH1 0x0 PUSH1 0x64 PUSH1 0x7 SLOAD PUSH1 0x64 PUSH2 0x16A4 SWAP2 SWAP1 PUSH2 0x3672 JUMP JUMPDEST DUP6 PUSH2 0x16AF SWAP2 SWAP1 PUSH2 0x3618 JUMP JUMPDEST PUSH2 0x16B9 SWAP2 SWAP1 PUSH2 0x35E7 JUMP JUMPDEST DUP3 LT PUSH2 0x16E0 JUMPI PUSH1 0x64 PUSH1 0x7 SLOAD DUP5 PUSH2 0x16CF SWAP2 SWAP1 PUSH2 0x3618 JUMP JUMPDEST PUSH2 0x16D9 SWAP2 SWAP1 PUSH2 0x35E7 JUMP JUMPDEST SWAP1 POP PUSH2 0x16EF JUMP JUMPDEST DUP2 DUP5 PUSH2 0x16EC SWAP2 SWAP1 PUSH2 0x3672 JUMP JUMPDEST SWAP1 POP JUMPDEST PUSH1 0x4 PUSH1 0x0 SWAP1 SLOAD SWAP1 PUSH2 0x100 EXP SWAP1 DIV PUSH20 0xFFFFFFFFFFFFFFFFFFFFFFFFFFFFFFFFFFFFFFFF AND PUSH20 0xFFFFFFFFFFFFFFFFFFFFFFFFFFFFFFFFFFFFFFFF AND PUSH4 0x23B872DD ADDRESS DUP9 PUSH8 0xDE0B6B3A7640000 DUP6 DUP9 PUSH2 0x1744 SWAP2 SWAP1 PUSH2 0x3672 JUMP JUMPDEST PUSH2 0x174E SWAP2 SWAP1 PUSH2 0x3618 JUMP JUMPDEST PUSH1 0x40 MLOAD DUP5 PUSH4 0xFFFFFFFF AND PUSH1 0xE0 SHL DUP2 MSTORE PUSH1 0x4 ADD PUSH2 0x176C SWAP4 SWAP3 SWAP2 SWAP1 PUSH2 0x32A3 JUMP JUMPDEST PUSH1 0x20 PUSH1 0x40 MLOAD DUP1 DUP4 SUB DUP2 PUSH1 0x0 DUP8 DUP1 EXTCODESIZE ISZERO DUP1 ISZERO PUSH2 0x1786 JUMPI PUSH1 0x0 DUP1 REVERT JUMPDEST POP GAS CALL ISZERO DUP1 ISZERO PUSH2 0x179A JUMPI RETURNDATASIZE PUSH1 0x0 DUP1 RETURNDATACOPY RETURNDATASIZE PUSH1 0x0 REVERT JUMPDEST POP POP POP POP PUSH1 0x40 MLOAD RETURNDATASIZE PUSH1 0x1F NOT PUSH1 0x1F DUP3 ADD AND DUP3 ADD DUP1 PUSH1 0x40 MSTORE POP DUP2 ADD SWAP1 PUSH2 0x17BE SWAP2 SWAP1 PUSH2 0x2EE0 JUMP JUMPDEST POP PUSH1 0x4 PUSH1 0x0 SWAP1 SLOAD SWAP1 PUSH2 0x100 EXP SWAP1 DIV PUSH20 0xFFFFFFFFFFFFFFFFFFFFFFFFFFFFFFFFFFFFFFFF AND PUSH20 0xFFFFFFFFFFFFFFFFFFFFFFFFFFFFFFFFFFFFFFFF AND PUSH4 0x23B872DD ADDRESS PUSH1 0x1 PUSH1 0x0 SWAP1 SLOAD SWAP1 PUSH2 0x100 EXP SWAP1 DIV PUSH20 0xFFFFFFFFFFFFFFFFFFFFFFFFFFFFFFFFFFFFFFFF AND PUSH8 0xDE0B6B3A7640000 DUP6 PUSH2 0x1835 SWAP2 SWAP1 PUSH2 0x3618 JUMP JUMPDEST PUSH1 0x40 MLOAD DUP5 PUSH4 0xFFFFFFFF AND PUSH1 0xE0 SHL DUP2 MSTORE PUSH1 0x4 ADD PUSH2 0x1853 SWAP4 SWAP3 SWAP2 SWAP1 PUSH2 0x32A3 JUMP JUMPDEST PUSH1 0x20 PUSH1 0x40 MLOAD DUP1 DUP4 SUB DUP2 PUSH1 0x0 DUP8 DUP1 EXTCODESIZE ISZERO DUP1 ISZERO PUSH2 0x186D JUMPI PUSH1 0x0 DUP1 REVERT JUMPDEST POP GAS CALL ISZERO DUP1 ISZERO PUSH2 0x1881 JUMPI RETURNDATASIZE PUSH1 0x0 DUP1 RETURNDATACOPY RETURNDATASIZE PUSH1 0x0 REVERT JUMPDEST POP POP POP POP PUSH1 0x40 MLOAD RETURNDATASIZE PUSH1 0x1F NOT PUSH1 0x1F DUP3 ADD AND DUP3 ADD DUP1 PUSH1 0x40 MSTORE POP DUP2 ADD SWAP1 PUSH2 0x18A5 SWAP2 SWAP1 PUSH2 0x2EE0 JUMP JUMPDEST POP DUP5 PUSH1 0x9 PUSH1 0x0 DUP10 DUP2 MSTORE PUSH1 0x20 ADD SWAP1 DUP2 MSTORE PUSH1 0x20 ADD PUSH1 0x0 KECCAK256 PUSH1 0x0 PUSH2 0x100 EXP DUP2 SLOAD DUP2 PUSH20 0xFFFFFFFFFFFFFFFFFFFFFFFFFFFFFFFFFFFFFFFF MUL NOT AND SWAP1 DUP4 PUSH20 0xFFFFFFFFFFFFFFFFFFFFFFFFFFFFFFFFFFFFFFFF AND MUL OR SWAP1 SSTORE POP PUSH2 0x1901 DUP8 PUSH2 0x29C8 JUMP JUMPDEST PUSH32 0x2B66287559B2A137EA3E7A6AB376630EF6165451C4D691BD218B503AA276F89D DUP8 PUSH1 0x40 MLOAD PUSH2 0x1930 SWAP2 SWAP1 PUSH2 0x34CA JUMP JUMPDEST PUSH1 0x40 MLOAD DUP1 SWAP2 SUB SWAP1 LOG1 POP POP POP POP POP POP POP JUMP JUMPDEST PUSH1 0x0 PUSH1 0x14 SWAP1 SLOAD SWAP1 PUSH2 0x100 EXP SWAP1 DIV PUSH1 0xFF AND ISZERO PUSH2 0x195B JUMPI PUSH1 0x0 DUP1 REVERT JUMPDEST PUSH1 0x0 PUSH1 0xA PUSH1 0x0 DUP5 DUP2 MSTORE PUSH1 0x20 ADD SWAP1 DUP2 MSTORE PUSH1 0x20 ADD PUSH1 0x0 KECCAK256 SLOAD EQ PUSH2 0x19B1 JUMPI PUSH1 0x40 MLOAD PUSH32 0x8C379A000000000000000000000000000000000000000000000000000000000 DUP2 MSTORE PUSH1 0x4 ADD PUSH2 0x19A8 SWAP1 PUSH2 0x338A JUMP JUMPDEST PUSH1 0x40 MLOAD DUP1 SWAP2 SUB SWAP1 REVERT JUMPDEST PUSH1 0x0 CALLER SWAP1 POP DUP1 PUSH20 0xFFFFFFFFFFFFFFFFFFFFFFFFFFFFFFFFFFFFFFFF AND PUSH1 0x3 PUSH1 0x0 SWAP1 SLOAD SWAP1 PUSH2 0x100 EXP SWAP1 DIV PUSH20 0xFFFFFFFFFFFFFFFFFFFFFFFFFFFFFFFFFFFFFFFF AND PUSH20 0xFFFFFFFFFFFFFFFFFFFFFFFFFFFFFFFFFFFFFFFF AND PUSH4 0x6352211E DUP6 PUSH1 0x40 MLOAD DUP3 PUSH4 0xFFFFFFFF AND PUSH1 0xE0 SHL DUP2 MSTORE PUSH1 0x4 ADD PUSH2 0x1A28 SWAP2 SWAP1 PUSH2 0x34CA JUMP JUMPDEST PUSH1 0x20 PUSH1 0x40 MLOAD DUP1 DUP4 SUB DUP2 DUP7 DUP1 EXTCODESIZE ISZERO DUP1 ISZERO PUSH2 0x1A40 JUMPI PUSH1 0x0 DUP1 REVERT JUMPDEST POP GAS STATICCALL ISZERO DUP1 ISZERO PUSH2 0x1A54 JUMPI RETURNDATASIZE PUSH1 0x0 DUP1 RETURNDATACOPY RETURNDATASIZE PUSH1 0x0 REVERT JUMPDEST POP POP POP POP PUSH1 0x40 MLOAD RETURNDATASIZE PUSH1 0x1F NOT PUSH1 0x1F DUP3 ADD AND DUP3 ADD DUP1 PUSH1 0x40 MSTORE POP DUP2 ADD SWAP1 PUSH2 0x1A78 SWAP2 SWAP1 PUSH2 0x2E73 JUMP JUMPDEST PUSH20 0xFFFFFFFFFFFFFFFFFFFFFFFFFFFFFFFFFFFFFFFF AND EQ PUSH2 0x1ACE JUMPI PUSH1 0x40 MLOAD PUSH32 0x8C379A000000000000000000000000000000000000000000000000000000000 DUP2 MSTORE PUSH1 0x4 ADD PUSH2 0x1AC5 SWAP1 PUSH2 0x336A JUMP JUMPDEST PUSH1 0x40 MLOAD DUP1 SWAP2 SUB SWAP1 REVERT JUMPDEST PUSH1 0x3 PUSH1 0x0 SWAP1 SLOAD SWAP1 PUSH2 0x100 EXP SWAP1 DIV PUSH20 0xFFFFFFFFFFFFFFFFFFFFFFFFFFFFFFFFFFFFFFFF AND PUSH20 0xFFFFFFFFFFFFFFFFFFFFFFFFFFFFFFFFFFFFFFFF AND PUSH4 0xE985E9C5 DUP3 ADDRESS PUSH1 0x40 MLOAD DUP4 PUSH4 0xFFFFFFFF AND PUSH1 0xE0 SHL DUP2 MSTORE PUSH1 0x4 ADD PUSH2 0x1B2B SWAP3 SWAP2 SWAP1 PUSH2 0x327A JUMP JUMPDEST PUSH1 0x20 PUSH1 0x40 MLOAD DUP1 DUP4 SUB DUP2 DUP7 DUP1 EXTCODESIZE ISZERO DUP1 ISZERO PUSH2 0x1B43 JUMPI PUSH1 0x0 DUP1 REVERT JUMPDEST POP GAS STATICCALL ISZERO DUP1 ISZERO PUSH2 0x1B57 JUMPI RETURNDATASIZE PUSH1 0x0 DUP1 RETURNDATACOPY RETURNDATASIZE PUSH1 0x0 REVERT JUMPDEST POP POP POP POP PUSH1 0x40 MLOAD RETURNDATASIZE PUSH1 0x1F NOT PUSH1 0x1F DUP3 ADD AND DUP3 ADD DUP1 PUSH1 0x40 MSTORE POP DUP2 ADD SWAP1 PUSH2 0x1B7B SWAP2 SWAP1 PUSH2 0x2EE0 JUMP JUMPDEST PUSH2 0x1BBA JUMPI PUSH1 0x40 MLOAD PUSH32 0x8C379A000000000000000000000000000000000000000000000000000000000 DUP2 MSTORE PUSH1 0x4 ADD PUSH2 0x1BB1 SWAP1 PUSH2 0x342A JUMP JUMPDEST PUSH1 0x40 MLOAD DUP1 SWAP2 SUB SWAP1 REVERT JUMPDEST PUSH1 0x0 DUP3 GT PUSH2 0x1BFD JUMPI PUSH1 0x40 MLOAD PUSH32 0x8C379A000000000000000000000000000000000000000000000000000000000 DUP2 MSTORE PUSH1 0x4 ADD PUSH2 0x1BF4 SWAP1 PUSH2 0x340A JUMP JUMPDEST PUSH1 0x40 MLOAD DUP1 SWAP2 SUB SWAP1 REVERT JUMPDEST PUSH2 0x1C08 DUP4 DUP4 DUP4 PUSH2 0x2ADB JUMP JUMPDEST PUSH32 0x55BB046A6E950AF74FCDAAA97A1A82C49209D72A5FCDA0925A019DFBA29C8F72 DUP4 DUP4 PUSH1 0x40 MLOAD PUSH2 0x1C39 SWAP3 SWAP2 SWAP1 PUSH2 0x34E5 JUMP JUMPDEST PUSH1 0x40 MLOAD DUP1 SWAP2 SUB SWAP1 LOG1 POP POP POP JUMP JUMPDEST PUSH1 0x0 PUSH2 0x1C50 PUSH2 0x1EF8 JUMP JUMPDEST PUSH2 0x1C8F JUMPI PUSH1 0x40 MLOAD PUSH32 0x8C379A000000000000000000000000000000000000000000000000000000000 DUP2 MSTORE PUSH1 0x4 ADD PUSH2 0x1C86 SWAP1 PUSH2 0x346A JUMP JUMPDEST PUSH1 0x40 MLOAD DUP1 SWAP2 SUB SWAP1 REVERT JUMPDEST PUSH1 0x0 PUSH1 0x14 SWAP1 SLOAD SWAP1 PUSH2 0x100 EXP SWAP1 DIV PUSH1 0xFF AND ISZERO PUSH2 0x1CA9 JUMPI PUSH1 0x0 DUP1 REVERT JUMPDEST PUSH1 0x1 PUSH1 0x0 PUSH1 0x14 PUSH2 0x100 EXP DUP2 SLOAD DUP2 PUSH1 0xFF MUL NOT AND SWAP1 DUP4 ISZERO ISZERO MUL OR SWAP1 SSTORE POP PUSH32 0x6985A02210A168E66602D3235CB6DB0E70F92B3BA4D376A33C0F3D9434BFF625 PUSH1 0x40 MLOAD PUSH1 0x40 MLOAD DUP1 SWAP2 SUB SWAP1 LOG1 PUSH1 0x1 SWAP1 POP SWAP1 JUMP JUMPDEST PUSH2 0x1CFF PUSH2 0x1EF8 JUMP JUMPDEST PUSH2 0x1D3E JUMPI PUSH1 0x40 MLOAD PUSH32 0x8C379A000000000000000000000000000000000000000000000000000000000 DUP2 MSTORE PUSH1 0x4 ADD PUSH2 0x1D35 SWAP1 PUSH2 0x346A JUMP JUMPDEST PUSH1 0x40 MLOAD DUP1 SWAP2 SUB SWAP1 REVERT JUMPDEST PUSH1 0x0 DUP3 PUSH20 0xFFFFFFFFFFFFFFFFFFFFFFFFFFFFFFFFFFFFFFFF AND PUSH4 0x70A08231 ADDRESS PUSH1 0x40 MLOAD DUP3 PUSH4 0xFFFFFFFF AND PUSH1 0xE0 SHL DUP2 MSTORE PUSH1 0x4 ADD PUSH2 0x1D79 SWAP2 SWAP1 PUSH2 0x325F JUMP JUMPDEST PUSH1 0x20 PUSH1 0x40 MLOAD DUP1 DUP4 SUB DUP2 DUP7 DUP1 EXTCODESIZE ISZERO DUP1 ISZERO PUSH2 0x1D91 JUMPI PUSH1 0x0 DUP1 REVERT JUMPDEST POP GAS STATICCALL ISZERO DUP1 ISZERO PUSH2 0x1DA5 JUMPI RETURNDATASIZE PUSH1 0x0 DUP1 RETURNDATACOPY RETURNDATASIZE PUSH1 0x0 REVERT JUMPDEST POP POP POP POP PUSH1 0x40 MLOAD RETURNDATASIZE PUSH1 0x1F NOT PUSH1 0x1F DUP3 ADD AND DUP3 ADD DUP1 PUSH1 0x40 MSTORE POP DUP2 ADD SWAP1 PUSH2 0x1DC9 SWAP2 SWAP1 PUSH2 0x2F3A JUMP JUMPDEST SWAP1 POP PUSH1 0x0 DUP3 GT DUP1 ISZERO PUSH2 0x1DDB JUMPI POP DUP1 DUP3 GT ISZERO JUMPDEST PUSH2 0x1E1A JUMPI PUSH1 0x40 MLOAD PUSH32 0x8C379A000000000000000000000000000000000000000000000000000000000 DUP2 MSTORE PUSH1 0x4 ADD PUSH2 0x1E11 SWAP1 PUSH2 0x33CA JUMP JUMPDEST PUSH1 0x40 MLOAD DUP1 SWAP2 SUB SWAP1 REVERT JUMPDEST DUP3 PUSH20 0xFFFFFFFFFFFFFFFFFFFFFFFFFFFFFFFFFFFFFFFF AND PUSH4 0xA9059CBB PUSH1 0x8 PUSH1 0x0 SWAP1 SLOAD SWAP1 PUSH2 0x100 EXP SWAP1 DIV PUSH20 0xFFFFFFFFFFFFFFFFFFFFFFFFFFFFFFFFFFFFFFFF AND DUP5 PUSH1 0x40 MLOAD DUP4 PUSH4 0xFFFFFFFF AND PUSH1 0xE0 SHL DUP2 MSTORE PUSH1 0x4 ADD PUSH2 0x1E77 SWAP3 SWAP2 SWAP1 PUSH2 0x32DA JUMP JUMPDEST PUSH1 0x20 PUSH1 0x40 MLOAD DUP1 DUP4 SUB DUP2 PUSH1 0x0 DUP8 DUP1 EXTCODESIZE ISZERO DUP1 ISZERO PUSH2 0x1E91 JUMPI PUSH1 0x0 DUP1 REVERT JUMPDEST POP GAS CALL ISZERO DUP1 ISZERO PUSH2 0x1EA5 JUMPI RETURNDATASIZE PUSH1 0x0 DUP1 RETURNDATACOPY RETURNDATASIZE PUSH1 0x0 REVERT JUMPDEST POP POP POP POP PUSH1 0x40 MLOAD RETURNDATASIZE PUSH1 0x1F NOT PUSH1 0x1F DUP3 ADD AND DUP3 ADD DUP1 PUSH1 0x40 MSTORE POP DUP2 ADD SWAP1 PUSH2 0x1EC9 SWAP2 SWAP1 PUSH2 0x2EE0 JUMP JUMPDEST POP POP POP POP JUMP JUMPDEST PUSH1 0x0 DUP1 PUSH1 0x0 SWAP1 SLOAD SWAP1 PUSH2 0x100 EXP SWAP1 DIV PUSH20 0xFFFFFFFFFFFFFFFFFFFFFFFFFFFFFFFFFFFFFFFF AND SWAP1 POP SWAP1 JUMP JUMPDEST PUSH1 0x0 DUP1 PUSH1 0x0 SWAP1 SLOAD SWAP1 PUSH2 0x100 EXP SWAP1 DIV PUSH20 0xFFFFFFFFFFFFFFFFFFFFFFFFFFFFFFFFFFFFFFFF AND PUSH20 0xFFFFFFFFFFFFFFFFFFFFFFFFFFFFFFFFFFFFFFFF AND PUSH2 0x1F3A PUSH2 0x2CA8 JUMP JUMPDEST PUSH20 0xFFFFFFFFFFFFFFFFFFFFFFFFFFFFFFFFFFFFFFFF AND EQ SWAP1 POP SWAP1 JUMP JUMPDEST PUSH1 0x60 DUP1 PUSH1 0x60 PUSH1 0x0 PUSH1 0xC DUP1 SLOAD SWAP1 POP SWAP1 POP PUSH1 0x0 DUP2 PUSH8 0xFFFFFFFFFFFFFFFF DUP2 GT ISZERO PUSH2 0x1F81 JUMPI PUSH2 0x1F80 PUSH2 0x381D JUMP JUMPDEST JUMPDEST PUSH1 0x40 MLOAD SWAP1 DUP1 DUP3 MSTORE DUP1 PUSH1 0x20 MUL PUSH1 0x20 ADD DUP3 ADD PUSH1 0x40 MSTORE DUP1 ISZERO PUSH2 0x1FAF JUMPI DUP2 PUSH1 0x20 ADD PUSH1 0x20 DUP3 MUL DUP1 CALLDATASIZE DUP4 CALLDATACOPY DUP1 DUP3 ADD SWAP2 POP POP SWAP1 POP JUMPDEST POP SWAP1 POP PUSH1 0x0 DUP3 PUSH8 0xFFFFFFFFFFFFFFFF DUP2 GT ISZERO PUSH2 0x1FCE JUMPI PUSH2 0x1FCD PUSH2 0x381D JUMP JUMPDEST JUMPDEST PUSH1 0x40 MLOAD SWAP1 DUP1 DUP3 MSTORE DUP1 PUSH1 0x20 MUL PUSH1 0x20 ADD DUP3 ADD PUSH1 0x40 MSTORE DUP1 ISZERO PUSH2 0x1FFC JUMPI DUP2 PUSH1 0x20 ADD PUSH1 0x20 DUP3 MUL DUP1 CALLDATASIZE DUP4 CALLDATACOPY DUP1 DUP3 ADD SWAP2 POP POP SWAP1 POP JUMPDEST POP SWAP1 POP PUSH1 0x0 JUMPDEST DUP4 DUP2 LT ISZERO PUSH2 0x22D0 JUMPI PUSH1 0xB PUSH1 0x0 PUSH1 0xC DUP4 DUP2 SLOAD DUP2 LT PUSH2 0x2022 JUMPI PUSH2 0x2021 PUSH2 0x37EE JUMP JUMPDEST JUMPDEST SWAP1 PUSH1 0x0 MSTORE PUSH1 0x20 PUSH1 0x0 KECCAK256 ADD SLOAD DUP2 MSTORE PUSH1 0x20 ADD SWAP1 DUP2 MSTORE PUSH1 0x20 ADD PUSH1 0x0 KECCAK256 PUSH1 0x0 SWAP1 SLOAD SWAP1 PUSH2 0x100 EXP SWAP1 DIV PUSH20 0xFFFFFFFFFFFFFFFFFFFFFFFFFFFFFFFFFFFFFFFF AND PUSH20 0xFFFFFFFFFFFFFFFFFFFFFFFFFFFFFFFFFFFFFFFF AND PUSH1 0x3 PUSH1 0x0 SWAP1 SLOAD SWAP1 PUSH2 0x100 EXP SWAP1 DIV PUSH20 0xFFFFFFFFFFFFFFFFFFFFFFFFFFFFFFFFFFFFFFFF AND PUSH20 0xFFFFFFFFFFFFFFFFFFFFFFFFFFFFFFFFFFFFFFFF AND PUSH4 0x6352211E PUSH1 0xC DUP5 DUP2 SLOAD DUP2 LT PUSH2 0x20C4 JUMPI PUSH2 0x20C3 PUSH2 0x37EE JUMP JUMPDEST JUMPDEST SWAP1 PUSH1 0x0 MSTORE PUSH1 0x20 PUSH1 0x0 KECCAK256 ADD SLOAD PUSH1 0x40 MLOAD DUP3 PUSH4 0xFFFFFFFF AND PUSH1 0xE0 SHL DUP2 MSTORE PUSH1 0x4 ADD PUSH2 0x20EB SWAP2 SWAP1 PUSH2 0x34CA JUMP JUMPDEST PUSH1 0x20 PUSH1 0x40 MLOAD DUP1 DUP4 SUB DUP2 DUP7 DUP1 EXTCODESIZE ISZERO DUP1 ISZERO PUSH2 0x2103 JUMPI PUSH1 0x0 DUP1 REVERT JUMPDEST POP GAS STATICCALL ISZERO DUP1 ISZERO PUSH2 0x2117 JUMPI RETURNDATASIZE PUSH1 0x0 DUP1 RETURNDATACOPY RETURNDATASIZE PUSH1 0x0 REVERT JUMPDEST POP POP POP POP PUSH1 0x40 MLOAD RETURNDATASIZE PUSH1 0x1F NOT PUSH1 0x1F DUP3 ADD AND DUP3 ADD DUP1 PUSH1 0x40 MSTORE POP DUP2 ADD SWAP1 PUSH2 0x213B SWAP2 SWAP1 PUSH2 0x2E73 JUMP JUMPDEST PUSH20 0xFFFFFFFFFFFFFFFFFFFFFFFFFFFFFFFFFFFFFFFF AND EQ ISZERO PUSH2 0x224C JUMPI PUSH1 0xA PUSH1 0x0 PUSH1 0xC DUP4 DUP2 SLOAD DUP2 LT PUSH2 0x216F JUMPI PUSH2 0x216E PUSH2 0x37EE JUMP JUMPDEST JUMPDEST SWAP1 PUSH1 0x0 MSTORE PUSH1 0x20 PUSH1 0x0 KECCAK256 ADD SLOAD DUP2 MSTORE PUSH1 0x20 ADD SWAP1 DUP2 MSTORE PUSH1 0x20 ADD PUSH1 0x0 KECCAK256 SLOAD DUP4 DUP3 DUP2 MLOAD DUP2 LT PUSH2 0x219C JUMPI PUSH2 0x219B PUSH2 0x37EE JUMP JUMPDEST JUMPDEST PUSH1 0x20 MUL PUSH1 0x20 ADD ADD DUP2 DUP2 MSTORE POP POP PUSH1 0xB PUSH1 0x0 PUSH1 0xC DUP4 DUP2 SLOAD DUP2 LT PUSH2 0x21C0 JUMPI PUSH2 0x21BF PUSH2 0x37EE JUMP JUMPDEST JUMPDEST SWAP1 PUSH1 0x0 MSTORE PUSH1 0x20 PUSH1 0x0 KECCAK256 ADD SLOAD DUP2 MSTORE PUSH1 0x20 ADD SWAP1 DUP2 MSTORE PUSH1 0x20 ADD PUSH1 0x0 KECCAK256 PUSH1 0x0 SWAP1 SLOAD SWAP1 PUSH2 0x100 EXP SWAP1 DIV PUSH20 0xFFFFFFFFFFFFFFFFFFFFFFFFFFFFFFFFFFFFFFFF AND DUP3 DUP3 DUP2 MLOAD DUP2 LT PUSH2 0x220D JUMPI PUSH2 0x220C PUSH2 0x37EE JUMP JUMPDEST JUMPDEST PUSH1 0x20 MUL PUSH1 0x20 ADD ADD SWAP1 PUSH20 0xFFFFFFFFFFFFFFFFFFFFFFFFFFFFFFFFFFFFFFFF AND SWAP1 DUP2 PUSH20 0xFFFFFFFFFFFFFFFFFFFFFFFFFFFFFFFFFFFFFFFF AND DUP2 MSTORE POP POP PUSH2 0x22BD JUMP JUMPDEST PUSH1 0x0 DUP4 DUP3 DUP2 MLOAD DUP2 LT PUSH2 0x2261 JUMPI PUSH2 0x2260 PUSH2 0x37EE JUMP JUMPDEST JUMPDEST PUSH1 0x20 MUL PUSH1 0x20 ADD ADD DUP2 DUP2 MSTORE POP POP PUSH1 0x0 DUP3 DUP3 DUP2 MLOAD DUP2 LT PUSH2 0x2282 JUMPI PUSH2 0x2281 PUSH2 0x37EE JUMP JUMPDEST JUMPDEST PUSH1 0x20 MUL PUSH1 0x20 ADD ADD SWAP1 PUSH20 0xFFFFFFFFFFFFFFFFFFFFFFFFFFFFFFFFFFFFFFFF AND SWAP1 DUP2 PUSH20 0xFFFFFFFFFFFFFFFFFFFFFFFFFFFFFFFFFFFFFFFF AND DUP2 MSTORE POP POP JUMPDEST DUP1 DUP1 PUSH2 0x22C8 SWAP1 PUSH2 0x3718 JUMP JUMPDEST SWAP2 POP POP PUSH2 0x2002 JUMP JUMPDEST POP PUSH1 0xC DUP2 DUP4 DUP3 DUP1 SLOAD DUP1 PUSH1 0x20 MUL PUSH1 0x20 ADD PUSH1 0x40 MLOAD SWAP1 DUP2 ADD PUSH1 0x40 MSTORE DUP1 SWAP3 SWAP2 SWAP1 DUP2 DUP2 MSTORE PUSH1 0x20 ADD DUP3 DUP1 SLOAD DUP1 ISZERO PUSH2 0x2320 JUMPI PUSH1 0x20 MUL DUP3 ADD SWAP2 SWAP1 PUSH1 0x0 MSTORE PUSH1 0x20 PUSH1 0x0 KECCAK256 SWAP1 JUMPDEST DUP2 SLOAD DUP2 MSTORE PUSH1 0x20 ADD SWAP1 PUSH1 0x1 ADD SWAP1 DUP1 DUP4 GT PUSH2 0x230C JUMPI JUMPDEST POP POP POP POP POP SWAP3 POP SWAP6 POP SWAP6 POP SWAP6 POP POP POP POP SWAP1 SWAP2 SWAP3 JUMP JUMPDEST PUSH2 0x233D PUSH2 0x1EF8 JUMP JUMPDEST PUSH2 0x237C JUMPI PUSH1 0x40 MLOAD PUSH32 0x8C379A000000000000000000000000000000000000000000000000000000000 DUP2 MSTORE PUSH1 0x4 ADD PUSH2 0x2373 SWAP1 PUSH2 0x346A JUMP JUMPDEST PUSH1 0x40 MLOAD DUP1 SWAP2 SUB SWAP1 REVERT JUMPDEST DUP1 PUSH1 0x2 PUSH1 0x0 PUSH2 0x100 EXP DUP2 SLOAD DUP2 PUSH20 0xFFFFFFFFFFFFFFFFFFFFFFFFFFFFFFFFFFFFFFFF MUL NOT AND SWAP1 DUP4 PUSH20 0xFFFFFFFFFFFFFFFFFFFFFFFFFFFFFFFFFFFFFFFF AND MUL OR SWAP1 SSTORE POP PUSH32 0xACDD85D235B5B49226C2C4F2B72CB01FA1CC3AE64BB843A6DEF27788D05B1B60 PUSH1 0x2 PUSH1 0x0 SWAP1 SLOAD SWAP1 PUSH2 0x100 EXP SWAP1 DIV PUSH20 0xFFFFFFFFFFFFFFFFFFFFFFFFFFFFFFFFFFFFFFFF AND PUSH1 0x40 MLOAD PUSH2 0x240E SWAP2 SWAP1 PUSH2 0x325F JUMP JUMPDEST PUSH1 0x40 MLOAD DUP1 SWAP2 SUB SWAP1 LOG1 POP JUMP JUMPDEST PUSH1 0x8 PUSH1 0x0 SWAP1 SLOAD SWAP1 PUSH2 0x100 EXP SWAP1 DIV PUSH20 0xFFFFFFFFFFFFFFFFFFFFFFFFFFFFFFFFFFFFFFFF AND DUP2 JUMP JUMPDEST PUSH1 0x4 PUSH1 0x0 SWAP1 SLOAD SWAP1 PUSH2 0x100 EXP SWAP1 DIV PUSH20 0xFFFFFFFFFFFFFFFFFFFFFFFFFFFFFFFFFFFFFFFF AND DUP2 JUMP JUMPDEST PUSH1 0x0 SELFBALANCE SWAP1 POP SWAP1 JUMP JUMPDEST PUSH1 0x6 SLOAD DUP2 JUMP JUMPDEST PUSH2 0x247B PUSH2 0x1EF8 JUMP JUMPDEST PUSH2 0x24BA JUMPI PUSH1 0x40 MLOAD PUSH32 0x8C379A000000000000000000000000000000000000000000000000000000000 DUP2 MSTORE PUSH1 0x4 ADD PUSH2 0x24B1 SWAP1 PUSH2 0x346A JUMP JUMPDEST PUSH1 0x40 MLOAD DUP1 SWAP2 SUB SWAP1 REVERT JUMPDEST DUP1 PUSH1 0x8 PUSH1 0x0 PUSH2 0x100 EXP DUP2 SLOAD DUP2 PUSH20 0xFFFFFFFFFFFFFFFFFFFFFFFFFFFFFFFFFFFFFFFF MUL NOT AND SWAP1 DUP4 PUSH20 0xFFFFFFFFFFFFFFFFFFFFFFFFFFFFFFFFFFFFFFFF AND MUL OR SWAP1 SSTORE POP POP JUMP JUMPDEST PUSH2 0x2506 PUSH2 0x1EF8 JUMP JUMPDEST PUSH2 0x2545 JUMPI PUSH1 0x40 MLOAD PUSH32 0x8C379A000000000000000000000000000000000000000000000000000000000 DUP2 MSTORE PUSH1 0x4 ADD PUSH2 0x253C SWAP1 PUSH2 0x346A JUMP JUMPDEST PUSH1 0x40 MLOAD DUP1 SWAP2 SUB SWAP1 REVERT JUMPDEST PUSH1 0x0 SELFBALANCE SWAP1 POP PUSH1 0x0 DUP3 GT DUP1 ISZERO PUSH2 0x255A JUMPI POP DUP1 DUP3 GT ISZERO JUMPDEST PUSH2 0x2599 JUMPI PUSH1 0x40 MLOAD PUSH32 0x8C379A000000000000000000000000000000000000000000000000000000000 DUP2 MSTORE PUSH1 0x4 ADD PUSH2 0x2590 SWAP1 PUSH2 0x33CA JUMP JUMPDEST PUSH1 0x40 MLOAD DUP1 SWAP2 SUB SWAP1 REVERT JUMPDEST PUSH1 0x8 PUSH1 0x0 SWAP1 SLOAD SWAP1 PUSH2 0x100 EXP SWAP1 DIV PUSH20 0xFFFFFFFFFFFFFFFFFFFFFFFFFFFFFFFFFFFFFFFF AND PUSH20 0xFFFFFFFFFFFFFFFFFFFFFFFFFFFFFFFFFFFFFFFF AND PUSH2 0x8FC DUP4 SWAP1 DUP2 ISZERO MUL SWAP1 PUSH1 0x40 MLOAD PUSH1 0x0 PUSH1 0x40 MLOAD DUP1 DUP4 SUB DUP2 DUP6 DUP9 DUP9 CALL SWAP4 POP POP POP POP ISZERO DUP1 ISZERO PUSH2 0x2601 JUMPI RETURNDATASIZE PUSH1 0x0 DUP1 RETURNDATACOPY RETURNDATASIZE PUSH1 0x0 REVERT JUMPDEST POP POP POP JUMP JUMPDEST PUSH1 0x3 PUSH1 0x0 SWAP1 SLOAD SWAP1 PUSH2 0x100 EXP SWAP1 DIV PUSH20 0xFFFFFFFFFFFFFFFFFFFFFFFFFFFFFFFFFFFFFFFF AND DUP2 JUMP JUMPDEST PUSH2 0x2634 PUSH2 0x1EF8 JUMP JUMPDEST PUSH2 0x2673 JUMPI PUSH1 0x40 MLOAD PUSH32 0x8C379A000000000000000000000000000000000000000000000000000000000 DUP2 MSTORE PUSH1 0x4 ADD PUSH2 0x266A SWAP1 PUSH2 0x346A JUMP JUMPDEST PUSH1 0x40 MLOAD DUP1 SWAP2 SUB SWAP1 REVERT JUMPDEST DUP1 PUSH1 0x6 DUP2 SWAP1 SSTORE POP PUSH32 0x4D8E30FF458BEBDD848488669E63D632954487CA1BC64C28F3C920F74A5F8594 PUSH1 0x6 SLOAD PUSH1 0x40 MLOAD PUSH2 0x26AB SWAP2 SWAP1 PUSH2 0x34CA JUMP JUMPDEST PUSH1 0x40 MLOAD DUP1 SWAP2 SUB SWAP1 LOG1 POP JUMP JUMPDEST PUSH1 0x0 DUP1 PUSH1 0x5 PUSH1 0x0 SWAP1 SLOAD SWAP1 PUSH2 0x100 EXP SWAP1 DIV PUSH20 0xFFFFFFFFFFFFFFFFFFFFFFFFFFFFFFFFFFFFFFFF AND PUSH20 0xFFFFFFFFFFFFFFFFFFFFFFFFFFFFFFFFFFFFFFFF AND PUSH4 0x70A08231 PUSH1 0x2 PUSH1 0x0 SWAP1 SLOAD SWAP1 PUSH2 0x100 EXP SWAP1 DIV PUSH20 0xFFFFFFFFFFFFFFFFFFFFFFFFFFFFFFFFFFFFFFFF AND PUSH1 0x40 MLOAD DUP3 PUSH4 0xFFFFFFFF AND PUSH1 0xE0 SHL DUP2 MSTORE PUSH1 0x4 ADD PUSH2 0x2736 SWAP2 SWAP1 PUSH2 0x325F JUMP JUMPDEST PUSH1 0x20 PUSH1 0x40 MLOAD DUP1 DUP4 SUB DUP2 DUP7 DUP1 EXTCODESIZE ISZERO DUP1 ISZERO PUSH2 0x274E JUMPI PUSH1 0x0 DUP1 REVERT JUMPDEST POP GAS STATICCALL ISZERO DUP1 ISZERO PUSH2 0x2762 JUMPI RETURNDATASIZE PUSH1 0x0 DUP1 RETURNDATACOPY RETURNDATASIZE PUSH1 0x0 REVERT JUMPDEST POP POP POP POP PUSH1 0x40 MLOAD RETURNDATASIZE PUSH1 0x1F NOT PUSH1 0x1F DUP3 ADD AND DUP3 ADD DUP1 PUSH1 0x40 MSTORE POP DUP2 ADD SWAP1 PUSH2 0x2786 SWAP2 SWAP1 PUSH2 0x2F3A JUMP JUMPDEST SWAP1 POP PUSH1 0x0 PUSH1 0x4 PUSH1 0x0 SWAP1 SLOAD SWAP1 PUSH2 0x100 EXP SWAP1 DIV PUSH20 0xFFFFFFFFFFFFFFFFFFFFFFFFFFFFFFFFFFFFFFFF AND PUSH20 0xFFFFFFFFFFFFFFFFFFFFFFFFFFFFFFFFFFFFFFFF AND PUSH4 0x70A08231 PUSH1 0x2 PUSH1 0x0 SWAP1 SLOAD SWAP1 PUSH2 0x100 EXP SWAP1 DIV PUSH20 0xFFFFFFFFFFFFFFFFFFFFFFFFFFFFFFFFFFFFFFFF AND PUSH1 0x40 MLOAD DUP3 PUSH4 0xFFFFFFFF AND PUSH1 0xE0 SHL DUP2 MSTORE PUSH1 0x4 ADD PUSH2 0x2807 SWAP2 SWAP1 PUSH2 0x325F JUMP JUMPDEST PUSH1 0x20 PUSH1 0x40 MLOAD DUP1 DUP4 SUB DUP2 DUP7 DUP1 EXTCODESIZE ISZERO DUP1 ISZERO PUSH2 0x281F JUMPI PUSH1 0x0 DUP1 REVERT JUMPDEST POP GAS STATICCALL ISZERO DUP1 ISZERO PUSH2 0x2833 JUMPI RETURNDATASIZE PUSH1 0x0 DUP1 RETURNDATACOPY RETURNDATASIZE PUSH1 0x0 REVERT JUMPDEST POP POP POP POP PUSH1 0x40 MLOAD RETURNDATASIZE PUSH1 0x1F NOT PUSH1 0x1F DUP3 ADD AND DUP3 ADD DUP1 PUSH1 0x40 MSTORE POP DUP2 ADD SWAP1 PUSH2 0x2857 SWAP2 SWAP1 PUSH2 0x2F3A JUMP JUMPDEST SWAP1 POP PUSH1 0x0 DUP3 DUP3 PUSH2 0x2867 SWAP2 SWAP1 PUSH2 0x35E7 JUMP JUMPDEST SWAP1 POP PUSH1 0x0 PUSH1 0xA PUSH1 0x6 SLOAD DUP4 PUSH2 0x287B SWAP2 SWAP1 PUSH2 0x3618 JUMP JUMPDEST PUSH2 0x2885 SWAP2 SWAP1 PUSH2 0x35E7 JUMP JUMPDEST SWAP1 POP DUP1 SWAP5 POP POP POP POP POP SWAP1 JUMP JUMPDEST PUSH2 0x2899 PUSH2 0x1EF8 JUMP JUMPDEST PUSH2 0x28D8 JUMPI PUSH1 0x40 MLOAD PUSH32 0x8C379A000000000000000000000000000000000000000000000000000000000 DUP2 MSTORE PUSH1 0x4 ADD PUSH2 0x28CF SWAP1 PUSH2 0x346A JUMP JUMPDEST PUSH1 0x40 MLOAD DUP1 SWAP2 SUB SWAP1 REVERT JUMPDEST DUP1 PUSH1 0x1 PUSH1 0x0 PUSH2 0x100 EXP DUP2 SLOAD DUP2 PUSH20 0xFFFFFFFFFFFFFFFFFFFFFFFFFFFFFFFFFFFFFFFF MUL NOT AND SWAP1 DUP4 PUSH20 0xFFFFFFFFFFFFFFFFFFFFFFFFFFFFFFFFFFFFFFFF AND MUL OR SWAP1 SSTORE POP PUSH32 0xB14F2A39BB21FDA32827BBDB4BE629C94036E10A3F6055A6454F884CA1B33FA1 PUSH1 0x1 PUSH1 0x0 SWAP1 SLOAD SWAP1 PUSH2 0x100 EXP SWAP1 DIV PUSH20 0xFFFFFFFFFFFFFFFFFFFFFFFFFFFFFFFFFFFFFFFF AND PUSH1 0x40 MLOAD PUSH2 0x296A SWAP2 SWAP1 PUSH2 0x325F JUMP JUMPDEST PUSH1 0x40 MLOAD DUP1 SWAP2 SUB SWAP1 LOG1 POP JUMP JUMPDEST PUSH2 0x297D PUSH2 0x1EF8 JUMP JUMPDEST PUSH2 0x29BC JUMPI PUSH1 0x40 MLOAD PUSH32 0x8C379A000000000000000000000000000000000000000000000000000000000 DUP2 MSTORE PUSH1 0x4 ADD PUSH2 0x29B3 SWAP1 PUSH2 0x346A JUMP JUMPDEST PUSH1 0x40 MLOAD DUP1 SWAP2 SUB SWAP1 REVERT JUMPDEST PUSH2 0x29C5 DUP2 PUSH2 0x2CB0 JUMP JUMPDEST POP JUMP JUMPDEST PUSH1 0xA PUSH1 0x0 DUP3 DUP2 MSTORE PUSH1 0x20 ADD SWAP1 DUP2 MSTORE PUSH1 0x20 ADD PUSH1 0x0 KECCAK256 PUSH1 0x0 SWAP1 SSTORE PUSH1 0x0 JUMPDEST PUSH1 0xC DUP1 SLOAD SWAP1 POP DUP2 LT ISZERO PUSH2 0x2AD6 JUMPI DUP2 PUSH1 0xC DUP3 DUP2 SLOAD DUP2 LT PUSH2 0x2A04 JUMPI PUSH2 0x2A03 PUSH2 0x37EE JUMP JUMPDEST JUMPDEST SWAP1 PUSH1 0x0 MSTORE PUSH1 0x20 PUSH1 0x0 KECCAK256 ADD SLOAD EQ ISZERO PUSH2 0x2AC3 JUMPI PUSH1 0x0 DUP2 SWAP1 POP JUMPDEST PUSH1 0x1 PUSH1 0xC DUP1 SLOAD SWAP1 POP PUSH2 0x2A2D SWAP2 SWAP1 PUSH2 0x3672 JUMP JUMPDEST DUP2 LT ISZERO PUSH2 0x2A94 JUMPI PUSH1 0xC PUSH1 0x1 DUP3 PUSH2 0x2A43 SWAP2 SWAP1 PUSH2 0x3591 JUMP JUMPDEST DUP2 SLOAD DUP2 LT PUSH2 0x2A54 JUMPI PUSH2 0x2A53 PUSH2 0x37EE JUMP JUMPDEST JUMPDEST SWAP1 PUSH1 0x0 MSTORE PUSH1 0x20 PUSH1 0x0 KECCAK256 ADD SLOAD PUSH1 0xC DUP3 DUP2 SLOAD DUP2 LT PUSH2 0x2A73 JUMPI PUSH2 0x2A72 PUSH2 0x37EE JUMP JUMPDEST JUMPDEST SWAP1 PUSH1 0x0 MSTORE PUSH1 0x20 PUSH1 0x0 KECCAK256 ADD DUP2 SWAP1 SSTORE POP DUP1 DUP1 PUSH2 0x2A8C SWAP1 PUSH2 0x3718 JUMP JUMPDEST SWAP2 POP POP PUSH2 0x2A1B JUMP JUMPDEST POP PUSH1 0xC DUP1 SLOAD DUP1 PUSH2 0x2AA7 JUMPI PUSH2 0x2AA6 PUSH2 0x37BF JUMP JUMPDEST JUMPDEST PUSH1 0x1 SWAP1 SUB DUP2 DUP2 SWAP1 PUSH1 0x0 MSTORE PUSH1 0x20 PUSH1 0x0 KECCAK256 ADD PUSH1 0x0 SWAP1 SSTORE SWAP1 SSTORE POP PUSH2 0x2AD8 JUMP JUMPDEST DUP1 DUP1 PUSH2 0x2ACE SWAP1 PUSH2 0x3718 JUMP JUMPDEST SWAP2 POP POP PUSH2 0x29E2 JUMP JUMPDEST POP JUMPDEST POP JUMP JUMPDEST DUP2 PUSH1 0xA PUSH1 0x0 DUP6 DUP2 MSTORE PUSH1 0x20 ADD SWAP1 DUP2 MSTORE PUSH1 0x20 ADD PUSH1 0x0 KECCAK256 DUP2 SWAP1 SSTORE POP DUP1 PUSH1 0xB PUSH1 0x0 DUP6 DUP2 MSTORE PUSH1 0x20 ADD SWAP1 DUP2 MSTORE PUSH1 0x20 ADD PUSH1 0x0 KECCAK256 PUSH1 0x0 PUSH2 0x100 EXP DUP2 SLOAD DUP2 PUSH20 0xFFFFFFFFFFFFFFFFFFFFFFFFFFFFFFFFFFFFFFFF MUL NOT AND SWAP1 DUP4 PUSH20 0xFFFFFFFFFFFFFFFFFFFFFFFFFFFFFFFFFFFFFFFF AND MUL OR SWAP1 SSTORE POP PUSH1 0xC DUP4 SWAP1 DUP1 PUSH1 0x1 DUP2 SLOAD ADD DUP1 DUP3 SSTORE DUP1 SWAP2 POP POP PUSH1 0x1 SWAP1 SUB SWAP1 PUSH1 0x0 MSTORE PUSH1 0x20 PUSH1 0x0 KECCAK256 ADD PUSH1 0x0 SWAP1 SWAP2 SWAP1 SWAP2 SWAP1 SWAP2 POP SSTORE PUSH1 0x2 PUSH1 0xC DUP1 SLOAD SWAP1 POP LT PUSH2 0x2CA2 JUMPI PUSH1 0x0 PUSH1 0x2 PUSH1 0xC DUP1 SLOAD SWAP1 POP PUSH2 0x2B8F SWAP2 SWAP1 PUSH2 0x3672 JUMP JUMPDEST SWAP1 POP JUMPDEST PUSH1 0x0 DUP2 LT PUSH2 0x2CA0 JUMPI DUP3 PUSH1 0xA PUSH1 0x0 PUSH1 0xC DUP5 DUP2 SLOAD DUP2 LT PUSH2 0x2BB3 JUMPI PUSH2 0x2BB2 PUSH2 0x37EE JUMP JUMPDEST JUMPDEST SWAP1 PUSH1 0x0 MSTORE PUSH1 0x20 PUSH1 0x0 KECCAK256 ADD SLOAD DUP2 MSTORE PUSH1 0x20 ADD SWAP1 DUP2 MSTORE PUSH1 0x20 ADD PUSH1 0x0 KECCAK256 SLOAD GT ISZERO PUSH2 0x2C58 JUMPI PUSH1 0xC DUP2 DUP2 SLOAD DUP2 LT PUSH2 0x2BE7 JUMPI PUSH2 0x2BE6 PUSH2 0x37EE JUMP JUMPDEST JUMPDEST SWAP1 PUSH1 0x0 MSTORE PUSH1 0x20 PUSH1 0x0 KECCAK256 ADD SLOAD PUSH1 0xC PUSH1 0x1 DUP4 PUSH2 0x2C01 SWAP2 SWAP1 PUSH2 0x3591 JUMP JUMPDEST DUP2 SLOAD DUP2 LT PUSH2 0x2C12 JUMPI PUSH2 0x2C11 PUSH2 0x37EE JUMP JUMPDEST JUMPDEST SWAP1 PUSH1 0x0 MSTORE PUSH1 0x20 PUSH1 0x0 KECCAK256 ADD DUP2 SWAP1 SSTORE POP PUSH1 0x0 DUP2 EQ ISZERO PUSH2 0x2C53 JUMPI DUP4 PUSH1 0xC PUSH1 0x0 DUP2 SLOAD DUP2 LT PUSH2 0x2C3F JUMPI PUSH2 0x2C3E PUSH2 0x37EE JUMP JUMPDEST JUMPDEST SWAP1 PUSH1 0x0 MSTORE PUSH1 0x20 PUSH1 0x0 KECCAK256 ADD DUP2 SWAP1 SSTORE POP POP PUSH2 0x2CA3 JUMP JUMPDEST PUSH2 0x2C8D JUMP JUMPDEST DUP4 PUSH1 0xC PUSH1 0x1 DUP4 PUSH2 0x2C68 SWAP2 SWAP1 PUSH2 0x3591 JUMP JUMPDEST DUP2 SLOAD DUP2 LT PUSH2 0x2C79 JUMPI PUSH2 0x2C78 PUSH2 0x37EE JUMP JUMPDEST JUMPDEST SWAP1 PUSH1 0x0 MSTORE PUSH1 0x20 PUSH1 0x0 KECCAK256 ADD DUP2 SWAP1 SSTORE POP POP PUSH2 0x2CA3 JUMP JUMPDEST DUP1 DUP1 PUSH2 0x2C98 SWAP1 PUSH2 0x36EE JUMP JUMPDEST SWAP2 POP POP PUSH2 0x2B92 JUMP JUMPDEST POP JUMPDEST JUMPDEST POP POP POP JUMP JUMPDEST PUSH1 0x0 CALLER SWAP1 POP SWAP1 JUMP JUMPDEST PUSH1 0x0 PUSH20 0xFFFFFFFFFFFFFFFFFFFFFFFFFFFFFFFFFFFFFFFF AND DUP2 PUSH20 0xFFFFFFFFFFFFFFFFFFFFFFFFFFFFFFFFFFFFFFFF AND EQ ISZERO PUSH2 0x2D20 JUMPI PUSH1 0x40 MLOAD PUSH32 0x8C379A000000000000000000000000000000000000000000000000000000000 DUP2 MSTORE PUSH1 0x4 ADD PUSH2 0x2D17 SWAP1 PUSH2 0x33AA JUMP JUMPDEST PUSH1 0x40 MLOAD DUP1 SWAP2 SUB SWAP1 REVERT JUMPDEST DUP1 PUSH20 0xFFFFFFFFFFFFFFFFFFFFFFFFFFFFFFFFFFFFFFFF AND PUSH1 0x0 DUP1 SLOAD SWAP1 PUSH2 0x100 EXP SWAP1 DIV PUSH20 0xFFFFFFFFFFFFFFFFFFFFFFFFFFFFFFFFFFFFFFFF AND PUSH20 0xFFFFFFFFFFFFFFFFFFFFFFFFFFFFFFFFFFFFFFFF AND PUSH32 0x8BE0079C531659141344CD1FD0A4F28419497F9722A3DAAFE3B4186F6B6457E0 PUSH1 0x40 MLOAD PUSH1 0x40 MLOAD DUP1 SWAP2 SUB SWAP1 LOG3 DUP1 PUSH1 0x0 DUP1 PUSH2 0x100 EXP DUP2 SLOAD DUP2 PUSH20 0xFFFFFFFFFFFFFFFFFFFFFFFFFFFFFFFFFFFFFFFF MUL NOT AND SWAP1 DUP4 PUSH20 0xFFFFFFFFFFFFFFFFFFFFFFFFFFFFFFFFFFFFFFFF AND MUL OR SWAP1 SSTORE POP POP JUMP JUMPDEST PUSH1 0x0 DUP2 CALLDATALOAD SWAP1 POP PUSH2 0x2DEC DUP2 PUSH2 0x3AAC JUMP JUMPDEST SWAP3 SWAP2 POP POP JUMP JUMPDEST PUSH1 0x0 DUP2 MLOAD SWAP1 POP PUSH2 0x2E01 DUP2 PUSH2 0x3AAC JUMP JUMPDEST SWAP3 SWAP2 POP POP JUMP JUMPDEST PUSH1 0x0 DUP2 MLOAD SWAP1 POP PUSH2 0x2E16 DUP2 PUSH2 0x3AC3 JUMP JUMPDEST SWAP3 SWAP2 POP POP JUMP JUMPDEST PUSH1 0x0 DUP2 CALLDATALOAD SWAP1 POP PUSH2 0x2E2B DUP2 PUSH2 0x3ADA JUMP JUMPDEST SWAP3 SWAP2 POP POP JUMP JUMPDEST PUSH1 0x0 DUP2 MLOAD SWAP1 POP PUSH2 0x2E40 DUP2 PUSH2 0x3ADA JUMP JUMPDEST SWAP3 SWAP2 POP POP JUMP JUMPDEST PUSH1 0x0 PUSH1 0x20 DUP3 DUP5 SUB SLT ISZERO PUSH2 0x2E5C JUMPI PUSH2 0x2E5B PUSH2 0x384C JUMP JUMPDEST JUMPDEST PUSH1 0x0 PUSH2 0x2E6A DUP5 DUP3 DUP6 ADD PUSH2 0x2DDD JUMP JUMPDEST SWAP2 POP POP SWAP3 SWAP2 POP POP JUMP JUMPDEST PUSH1 0x0 PUSH1 0x20 DUP3 DUP5 SUB SLT ISZERO PUSH2 0x2E89 JUMPI PUSH2 0x2E88 PUSH2 0x384C JUMP JUMPDEST JUMPDEST PUSH1 0x0 PUSH2 0x2E97 DUP5 DUP3 DUP6 ADD PUSH2 0x2DF2 JUMP JUMPDEST SWAP2 POP POP SWAP3 SWAP2 POP POP JUMP JUMPDEST PUSH1 0x0 DUP1 PUSH1 0x40 DUP4 DUP6 SUB SLT ISZERO PUSH2 0x2EB7 JUMPI PUSH2 0x2EB6 PUSH2 0x384C JUMP JUMPDEST JUMPDEST PUSH1 0x0 PUSH2 0x2EC5 DUP6 DUP3 DUP7 ADD PUSH2 0x2DDD JUMP JUMPDEST SWAP3 POP POP PUSH1 0x20 PUSH2 0x2ED6 DUP6 DUP3 DUP7 ADD PUSH2 0x2E1C JUMP JUMPDEST SWAP2 POP POP SWAP3 POP SWAP3 SWAP1 POP JUMP JUMPDEST PUSH1 0x0 PUSH1 0x20 DUP3 DUP5 SUB SLT ISZERO PUSH2 0x2EF6 JUMPI PUSH2 0x2EF5 PUSH2 0x384C JUMP JUMPDEST JUMPDEST PUSH1 0x0 PUSH2 0x2F04 DUP5 DUP3 DUP6 ADD PUSH2 0x2E07 JUMP JUMPDEST SWAP2 POP POP SWAP3 SWAP2 POP POP JUMP JUMPDEST PUSH1 0x0 PUSH1 0x20 DUP3 DUP5 SUB SLT ISZERO PUSH2 0x2F23 JUMPI PUSH2 0x2F22 PUSH2 0x384C JUMP JUMPDEST JUMPDEST PUSH1 0x0 PUSH2 0x2F31 DUP5 DUP3 DUP6 ADD PUSH2 0x2E1C JUMP JUMPDEST SWAP2 POP POP SWAP3 SWAP2 POP POP JUMP JUMPDEST PUSH1 0x0 PUSH1 0x20 DUP3 DUP5 SUB SLT ISZERO PUSH2 0x2F50 JUMPI PUSH2 0x2F4F PUSH2 0x384C JUMP JUMPDEST JUMPDEST PUSH1 0x0 PUSH2 0x2F5E DUP5 DUP3 DUP6 ADD PUSH2 0x2E31 JUMP JUMPDEST SWAP2 POP POP SWAP3 SWAP2 POP POP JUMP JUMPDEST PUSH1 0x0 DUP1 PUSH1 0x40 DUP4 DUP6 SUB SLT ISZERO PUSH2 0x2F7E JUMPI PUSH2 0x2F7D PUSH2 0x384C JUMP JUMPDEST JUMPDEST PUSH1 0x0 PUSH2 0x2F8C DUP6 DUP3 DUP7 ADD PUSH2 0x2E1C JUMP JUMPDEST SWAP3 POP POP PUSH1 0x20 PUSH2 0x2F9D DUP6 DUP3 DUP7 ADD PUSH2 0x2E1C JUMP JUMPDEST SWAP2 POP POP SWAP3 POP SWAP3 SWAP1 POP JUMP JUMPDEST PUSH1 0x0 PUSH2 0x2FB3 DUP4 DUP4 PUSH2 0x2FD7 JUMP JUMPDEST PUSH1 0x20 DUP4 ADD SWAP1 POP SWAP3 SWAP2 POP POP JUMP JUMPDEST PUSH1 0x0 PUSH2 0x2FCB DUP4 DUP4 PUSH2 0x3241 JUMP JUMPDEST PUSH1 0x20 DUP4 ADD SWAP1 POP SWAP3 SWAP2 POP POP JUMP JUMPDEST PUSH2 0x2FE0 DUP2 PUSH2 0x36A6 JUMP JUMPDEST DUP3 MSTORE POP POP JUMP JUMPDEST PUSH2 0x2FEF DUP2 PUSH2 0x36A6 JUMP JUMPDEST DUP3 MSTORE POP POP JUMP JUMPDEST PUSH1 0x0 PUSH2 0x3000 DUP3 PUSH2 0x352E JUMP JUMPDEST PUSH2 0x300A DUP2 DUP6 PUSH2 0x355E JUMP JUMPDEST SWAP4 POP PUSH2 0x3015 DUP4 PUSH2 0x350E JUMP JUMPDEST DUP1 PUSH1 0x0 JUMPDEST DUP4 DUP2 LT ISZERO PUSH2 0x3046 JUMPI DUP2 MLOAD PUSH2 0x302D DUP9 DUP3 PUSH2 0x2FA7 JUMP JUMPDEST SWAP8 POP PUSH2 0x3038 DUP4 PUSH2 0x3544 JUMP JUMPDEST SWAP3 POP POP PUSH1 0x1 DUP2 ADD SWAP1 POP PUSH2 0x3019 JUMP JUMPDEST POP DUP6 SWAP4 POP POP POP POP SWAP3 SWAP2 POP POP JUMP JUMPDEST PUSH1 0x0 PUSH2 0x305E DUP3 PUSH2 0x3539 JUMP JUMPDEST PUSH2 0x3068 DUP2 DUP6 PUSH2 0x356F JUMP JUMPDEST SWAP4 POP PUSH2 0x3073 DUP4 PUSH2 0x351E JUMP JUMPDEST DUP1 PUSH1 0x0 JUMPDEST DUP4 DUP2 LT ISZERO PUSH2 0x30A4 JUMPI DUP2 MLOAD PUSH2 0x308B DUP9 DUP3 PUSH2 0x2FBF JUMP JUMPDEST SWAP8 POP PUSH2 0x3096 DUP4 PUSH2 0x3551 JUMP JUMPDEST SWAP3 POP POP PUSH1 0x1 DUP2 ADD SWAP1 POP PUSH2 0x3077 JUMP JUMPDEST POP DUP6 SWAP4 POP POP POP POP SWAP3 SWAP2 POP POP JUMP JUMPDEST PUSH2 0x30BA DUP2 PUSH2 0x36B8 JUMP JUMPDEST DUP3 MSTORE POP POP JUMP JUMPDEST PUSH1 0x0 PUSH2 0x30CD PUSH1 0x1D DUP4 PUSH2 0x3580 JUMP JUMPDEST SWAP2 POP PUSH2 0x30D8 DUP3 PUSH2 0x3851 JUMP JUMPDEST PUSH1 0x20 DUP3 ADD SWAP1 POP SWAP2 SWAP1 POP JUMP JUMPDEST PUSH1 0x0 PUSH2 0x30F0 PUSH1 0xD DUP4 PUSH2 0x3580 JUMP JUMPDEST SWAP2 POP PUSH2 0x30FB DUP3 PUSH2 0x387A JUMP JUMPDEST PUSH1 0x20 DUP3 ADD SWAP1 POP SWAP2 SWAP1 POP JUMP JUMPDEST PUSH1 0x0 PUSH2 0x3113 PUSH1 0x26 DUP4 PUSH2 0x3580 JUMP JUMPDEST SWAP2 POP PUSH2 0x311E DUP3 PUSH2 0x38A3 JUMP JUMPDEST PUSH1 0x40 DUP3 ADD SWAP1 POP SWAP2 SWAP1 POP JUMP JUMPDEST PUSH1 0x0 PUSH2 0x3136 PUSH1 0x17 DUP4 PUSH2 0x3580 JUMP JUMPDEST SWAP2 POP PUSH2 0x3141 DUP3 PUSH2 0x38F2 JUMP JUMPDEST PUSH1 0x20 DUP3 ADD SWAP1 POP SWAP2 SWAP1 POP JUMP JUMPDEST PUSH1 0x0 PUSH2 0x3159 PUSH1 0x18 DUP4 PUSH2 0x3580 JUMP JUMPDEST SWAP2 POP PUSH2 0x3164 DUP3 PUSH2 0x391B JUMP JUMPDEST PUSH1 0x20 DUP3 ADD SWAP1 POP SWAP2 SWAP1 POP JUMP JUMPDEST PUSH1 0x0 PUSH2 0x317C PUSH1 0x9 DUP4 PUSH2 0x3580 JUMP JUMPDEST SWAP2 POP PUSH2 0x3187 DUP3 PUSH2 0x3944 JUMP JUMPDEST PUSH1 0x20 DUP3 ADD SWAP1 POP SWAP2 SWAP1 POP JUMP JUMPDEST PUSH1 0x0 PUSH2 0x319F PUSH1 0x28 DUP4 PUSH2 0x3580 JUMP JUMPDEST SWAP2 POP PUSH2 0x31AA DUP3 PUSH2 0x396D JUMP JUMPDEST PUSH1 0x40 DUP3 ADD SWAP1 POP SWAP2 SWAP1 POP JUMP JUMPDEST PUSH1 0x0 PUSH2 0x31C2 PUSH1 0x14 DUP4 PUSH2 0x3580 JUMP JUMPDEST SWAP2 POP PUSH2 0x31CD DUP3 PUSH2 0x39BC JUMP JUMPDEST PUSH1 0x20 DUP3 ADD SWAP1 POP SWAP2 SWAP1 POP JUMP JUMPDEST PUSH1 0x0 PUSH2 0x31E5 PUSH1 0x20 DUP4 PUSH2 0x3580 JUMP JUMPDEST SWAP2 POP PUSH2 0x31F0 DUP3 PUSH2 0x39E5 JUMP JUMPDEST PUSH1 0x20 DUP3 ADD SWAP1 POP SWAP2 SWAP1 POP JUMP JUMPDEST PUSH1 0x0 PUSH2 0x3208 PUSH1 0x14 DUP4 PUSH2 0x3580 JUMP JUMPDEST SWAP2 POP PUSH2 0x3213 DUP3 PUSH2 0x3A0E JUMP JUMPDEST PUSH1 0x20 DUP3 ADD SWAP1 POP SWAP2 SWAP1 POP JUMP JUMPDEST PUSH1 0x0 PUSH2 0x322B PUSH1 0x47 DUP4 PUSH2 0x3580 JUMP JUMPDEST SWAP2 POP PUSH2 0x3236 DUP3 PUSH2 0x3A37 JUMP JUMPDEST PUSH1 0x60 DUP3 ADD SWAP1 POP SWAP2 SWAP1 POP JUMP JUMPDEST PUSH2 0x324A DUP2 PUSH2 0x36E4 JUMP JUMPDEST DUP3 MSTORE POP POP JUMP JUMPDEST PUSH2 0x3259 DUP2 PUSH2 0x36E4 JUMP JUMPDEST DUP3 MSTORE POP POP JUMP JUMPDEST PUSH1 0x0 PUSH1 0x20 DUP3 ADD SWAP1 POP PUSH2 0x3274 PUSH1 0x0 DUP4 ADD DUP5 PUSH2 0x2FE6 JUMP JUMPDEST SWAP3 SWAP2 POP POP JUMP JUMPDEST PUSH1 0x0 PUSH1 0x40 DUP3 ADD SWAP1 POP PUSH2 0x328F PUSH1 0x0 DUP4 ADD DUP6 PUSH2 0x2FE6 JUMP JUMPDEST PUSH2 0x329C PUSH1 0x20 DUP4 ADD DUP5 PUSH2 0x2FE6 JUMP JUMPDEST SWAP4 SWAP3 POP POP POP JUMP JUMPDEST PUSH1 0x0 PUSH1 0x60 DUP3 ADD SWAP1 POP PUSH2 0x32B8 PUSH1 0x0 DUP4 ADD DUP7 PUSH2 0x2FE6 JUMP JUMPDEST PUSH2 0x32C5 PUSH1 0x20 DUP4 ADD DUP6 PUSH2 0x2FE6 JUMP JUMPDEST PUSH2 0x32D2 PUSH1 0x40 DUP4 ADD DUP5 PUSH2 0x3250 JUMP JUMPDEST SWAP5 SWAP4 POP POP POP POP JUMP JUMPDEST PUSH1 0x0 PUSH1 0x40 DUP3 ADD SWAP1 POP PUSH2 0x32EF PUSH1 0x0 DUP4 ADD DUP6 PUSH2 0x2FE6 JUMP JUMPDEST PUSH2 0x32FC PUSH1 0x20 DUP4 ADD DUP5 PUSH2 0x3250 JUMP JUMPDEST SWAP4 SWAP3 POP POP POP JUMP JUMPDEST PUSH1 0x0 PUSH1 0x60 DUP3 ADD SWAP1 POP DUP2 DUP2 SUB PUSH1 0x0 DUP4 ADD MSTORE PUSH2 0x331D DUP2 DUP7 PUSH2 0x3053 JUMP JUMPDEST SWAP1 POP DUP2 DUP2 SUB PUSH1 0x20 DUP4 ADD MSTORE PUSH2 0x3331 DUP2 DUP6 PUSH2 0x2FF5 JUMP JUMPDEST SWAP1 POP DUP2 DUP2 SUB PUSH1 0x40 DUP4 ADD MSTORE PUSH2 0x3345 DUP2 DUP5 PUSH2 0x3053 JUMP JUMPDEST SWAP1 POP SWAP5 SWAP4 POP POP POP POP JUMP JUMPDEST PUSH1 0x0 PUSH1 0x20 DUP3 ADD SWAP1 POP PUSH2 0x3364 PUSH1 0x0 DUP4 ADD DUP5 PUSH2 0x30B1 JUMP JUMPDEST SWAP3 SWAP2 POP POP JUMP JUMPDEST PUSH1 0x0 PUSH1 0x20 DUP3 ADD SWAP1 POP DUP2 DUP2 SUB PUSH1 0x0 DUP4 ADD MSTORE PUSH2 0x3383 DUP2 PUSH2 0x30C0 JUMP JUMPDEST SWAP1 POP SWAP2 SWAP1 POP JUMP JUMPDEST PUSH1 0x0 PUSH1 0x20 DUP3 ADD SWAP1 POP DUP2 DUP2 SUB PUSH1 0x0 DUP4 ADD MSTORE PUSH2 0x33A3 DUP2 PUSH2 0x30E3 JUMP JUMPDEST SWAP1 POP SWAP2 SWAP1 POP JUMP JUMPDEST PUSH1 0x0 PUSH1 0x20 DUP3 ADD SWAP1 POP DUP2 DUP2 SUB PUSH1 0x0 DUP4 ADD MSTORE PUSH2 0x33C3 DUP2 PUSH2 0x3106 JUMP JUMPDEST SWAP1 POP SWAP2 SWAP1 POP JUMP JUMPDEST PUSH1 0x0 PUSH1 0x20 DUP3 ADD SWAP1 POP DUP2 DUP2 SUB PUSH1 0x0 DUP4 ADD MSTORE PUSH2 0x33E3 DUP2 PUSH2 0x3129 JUMP JUMPDEST SWAP1 POP SWAP2 SWAP1 POP JUMP JUMPDEST PUSH1 0x0 PUSH1 0x20 DUP3 ADD SWAP1 POP DUP2 DUP2 SUB PUSH1 0x0 DUP4 ADD MSTORE PUSH2 0x3403 DUP2 PUSH2 0x314C JUMP JUMPDEST SWAP1 POP SWAP2 SWAP1 POP JUMP JUMPDEST PUSH1 0x0 PUSH1 0x20 DUP3 ADD SWAP1 POP DUP2 DUP2 SUB PUSH1 0x0 DUP4 ADD MSTORE PUSH2 0x3423 DUP2 PUSH2 0x316F JUMP JUMPDEST SWAP1 POP SWAP2 SWAP1 POP JUMP JUMPDEST PUSH1 0x0 PUSH1 0x20 DUP3 ADD SWAP1 POP DUP2 DUP2 SUB PUSH1 0x0 DUP4 ADD MSTORE PUSH2 0x3443 DUP2 PUSH2 0x3192 JUMP JUMPDEST SWAP1 POP SWAP2 SWAP1 POP JUMP JUMPDEST PUSH1 0x0 PUSH1 0x20 DUP3 ADD SWAP1 POP DUP2 DUP2 SUB PUSH1 0x0 DUP4 ADD MSTORE PUSH2 0x3463 DUP2 PUSH2 0x31B5 JUMP JUMPDEST SWAP1 POP SWAP2 SWAP1 POP JUMP JUMPDEST PUSH1 0x0 PUSH1 0x20 DUP3 ADD SWAP1 POP DUP2 DUP2 SUB PUSH1 0x0 DUP4 ADD MSTORE PUSH2 0x3483 DUP2 PUSH2 0x31D8 JUMP JUMPDEST SWAP1 POP SWAP2 SWAP1 POP JUMP JUMPDEST PUSH1 0x0 PUSH1 0x20 DUP3 ADD SWAP1 POP DUP2 DUP2 SUB PUSH1 0x0 DUP4 ADD MSTORE PUSH2 0x34A3 DUP2 PUSH2 0x31FB JUMP JUMPDEST SWAP1 POP SWAP2 SWAP1 POP JUMP JUMPDEST PUSH1 0x0 PUSH1 0x20 DUP3 ADD SWAP1 POP DUP2 DUP2 SUB PUSH1 0x0 DUP4 ADD MSTORE PUSH2 0x34C3 DUP2 PUSH2 0x321E JUMP JUMPDEST SWAP1 POP SWAP2 SWAP1 POP JUMP JUMPDEST PUSH1 0x0 PUSH1 0x20 DUP3 ADD SWAP1 POP PUSH2 0x34DF PUSH1 0x0 DUP4 ADD DUP5 PUSH2 0x3250 JUMP JUMPDEST SWAP3 SWAP2 POP POP JUMP JUMPDEST PUSH1 0x0 PUSH1 0x40 DUP3 ADD SWAP1 POP PUSH2 0x34FA PUSH1 0x0 DUP4 ADD DUP6 PUSH2 0x3250 JUMP JUMPDEST PUSH2 0x3507 PUSH1 0x20 DUP4 ADD DUP5 PUSH2 0x3250 JUMP JUMPDEST SWAP4 SWAP3 POP POP POP JUMP JUMPDEST PUSH1 0x0 DUP2 SWAP1 POP PUSH1 0x20 DUP3 ADD SWAP1 POP SWAP2 SWAP1 POP JUMP JUMPDEST PUSH1 0x0 DUP2 SWAP1 POP PUSH1 0x20 DUP3 ADD SWAP1 POP SWAP2 SWAP1 POP JUMP JUMPDEST PUSH1 0x0 DUP2 MLOAD SWAP1 POP SWAP2 SWAP1 POP JUMP JUMPDEST PUSH1 0x0 DUP2 MLOAD SWAP1 POP SWAP2 SWAP1 POP JUMP JUMPDEST PUSH1 0x0 PUSH1 0x20 DUP3 ADD SWAP1 POP SWAP2 SWAP1 POP JUMP JUMPDEST PUSH1 0x0 PUSH1 0x20 DUP3 ADD SWAP1 POP SWAP2 SWAP1 POP JUMP JUMPDEST PUSH1 0x0 DUP3 DUP3 MSTORE PUSH1 0x20 DUP3 ADD SWAP1 POP SWAP3 SWAP2 POP POP JUMP JUMPDEST PUSH1 0x0 DUP3 DUP3 MSTORE PUSH1 0x20 DUP3 ADD SWAP1 POP SWAP3 SWAP2 POP POP JUMP JUMPDEST PUSH1 0x0 DUP3 DUP3 MSTORE PUSH1 0x20 DUP3 ADD SWAP1 POP SWAP3 SWAP2 POP POP JUMP JUMPDEST PUSH1 0x0 PUSH2 0x359C DUP3 PUSH2 0x36E4 JUMP JUMPDEST SWAP2 POP PUSH2 0x35A7 DUP4 PUSH2 0x36E4 JUMP JUMPDEST SWAP3 POP DUP3 PUSH32 0xFFFFFFFFFFFFFFFFFFFFFFFFFFFFFFFFFFFFFFFFFFFFFFFFFFFFFFFFFFFFFFFF SUB DUP3 GT ISZERO PUSH2 0x35DC JUMPI PUSH2 0x35DB PUSH2 0x3761 JUMP JUMPDEST JUMPDEST DUP3 DUP3 ADD SWAP1 POP SWAP3 SWAP2 POP POP JUMP JUMPDEST PUSH1 0x0 PUSH2 0x35F2 DUP3 PUSH2 0x36E4 JUMP JUMPDEST SWAP2 POP PUSH2 0x35FD DUP4 PUSH2 0x36E4 JUMP JUMPDEST SWAP3 POP DUP3 PUSH2 0x360D JUMPI PUSH2 0x360C PUSH2 0x3790 JUMP JUMPDEST JUMPDEST DUP3 DUP3 DIV SWAP1 POP SWAP3 SWAP2 POP POP JUMP JUMPDEST PUSH1 0x0 PUSH2 0x3623 DUP3 PUSH2 0x36E4 JUMP JUMPDEST SWAP2 POP PUSH2 0x362E DUP4 PUSH2 0x36E4 JUMP JUMPDEST SWAP3 POP DUP2 PUSH32 0xFFFFFFFFFFFFFFFFFFFFFFFFFFFFFFFFFFFFFFFFFFFFFFFFFFFFFFFFFFFFFFFF DIV DUP4 GT DUP3 ISZERO ISZERO AND ISZERO PUSH2 0x3667 JUMPI PUSH2 0x3666 PUSH2 0x3761 JUMP JUMPDEST JUMPDEST DUP3 DUP3 MUL SWAP1 POP SWAP3 SWAP2 POP POP JUMP JUMPDEST PUSH1 0x0 PUSH2 0x367D DUP3 PUSH2 0x36E4 JUMP JUMPDEST SWAP2 POP PUSH2 0x3688 DUP4 PUSH2 0x36E4 JUMP JUMPDEST SWAP3 POP DUP3 DUP3 LT ISZERO PUSH2 0x369B JUMPI PUSH2 0x369A PUSH2 0x3761 JUMP JUMPDEST JUMPDEST DUP3 DUP3 SUB SWAP1 POP SWAP3 SWAP2 POP POP JUMP JUMPDEST PUSH1 0x0 PUSH2 0x36B1 DUP3 PUSH2 0x36C4 JUMP JUMPDEST SWAP1 POP SWAP2 SWAP1 POP JUMP JUMPDEST PUSH1 0x0 DUP2 ISZERO ISZERO SWAP1 POP SWAP2 SWAP1 POP JUMP JUMPDEST PUSH1 0x0 PUSH20 0xFFFFFFFFFFFFFFFFFFFFFFFFFFFFFFFFFFFFFFFF DUP3 AND SWAP1 POP SWAP2 SWAP1 POP JUMP JUMPDEST PUSH1 0x0 DUP2 SWAP1 POP SWAP2 SWAP1 POP JUMP JUMPDEST PUSH1 0x0 PUSH2 0x36F9 DUP3 PUSH2 0x36E4 JUMP JUMPDEST SWAP2 POP PUSH1 0x0 DUP3 EQ ISZERO PUSH2 0x370D JUMPI PUSH2 0x370C PUSH2 0x3761 JUMP JUMPDEST JUMPDEST PUSH1 0x1 DUP3 SUB SWAP1 POP SWAP2 SWAP1 POP JUMP JUMPDEST PUSH1 0x0 PUSH2 0x3723 DUP3 PUSH2 0x36E4 JUMP JUMPDEST SWAP2 POP PUSH32 0xFFFFFFFFFFFFFFFFFFFFFFFFFFFFFFFFFFFFFFFFFFFFFFFFFFFFFFFFFFFFFFFF DUP3 EQ ISZERO PUSH2 0x3756 JUMPI PUSH2 0x3755 PUSH2 0x3761 JUMP JUMPDEST JUMPDEST PUSH1 0x1 DUP3 ADD SWAP1 POP SWAP2 SWAP1 POP JUMP JUMPDEST PUSH32 0x4E487B7100000000000000000000000000000000000000000000000000000000 PUSH1 0x0 MSTORE PUSH1 0x11 PUSH1 0x4 MSTORE PUSH1 0x24 PUSH1 0x0 REVERT JUMPDEST PUSH32 0x4E487B7100000000000000000000000000000000000000000000000000000000 PUSH1 0x0 MSTORE PUSH1 0x12 PUSH1 0x4 MSTORE PUSH1 0x24 PUSH1 0x0 REVERT JUMPDEST PUSH32 0x4E487B7100000000000000000000000000000000000000000000000000000000 PUSH1 0x0 MSTORE PUSH1 0x31 PUSH1 0x4 MSTORE PUSH1 0x24 PUSH1 0x0 REVERT JUMPDEST PUSH32 0x4E487B7100000000000000000000000000000000000000000000000000000000 PUSH1 0x0 MSTORE PUSH1 0x32 PUSH1 0x4 MSTORE PUSH1 0x24 PUSH1 0x0 REVERT JUMPDEST PUSH32 0x4E487B7100000000000000000000000000000000000000000000000000000000 PUSH1 0x0 MSTORE PUSH1 0x41 PUSH1 0x4 MSTORE PUSH1 0x24 PUSH1 0x0 REVERT JUMPDEST PUSH1 0x0 DUP1 REVERT JUMPDEST PUSH32 0x73656C6C6572206E6565642068617665207468697320746F6B656E6964000000 PUSH1 0x0 DUP3 ADD MSTORE POP JUMP JUMPDEST PUSH32 0x69742069732073656C6C696E6700000000000000000000000000000000000000 PUSH1 0x0 DUP3 ADD MSTORE POP JUMP JUMPDEST PUSH32 0x4F776E61626C653A206E6577206F776E657220697320746865207A65726F2061 PUSH1 0x0 DUP3 ADD MSTORE PUSH32 0x6464726573730000000000000000000000000000000000000000000000000000 PUSH1 0x20 DUP3 ADD MSTORE POP JUMP JUMPDEST PUSH32 0x416D6F756E74203E2030202626203C2042616C616E6365000000000000000000 PUSH1 0x0 DUP3 ADD MSTORE POP JUMP JUMPDEST PUSH32 0x46726F6D20616E6420546F2063616E206E6F742073616D650000000000000000 PUSH1 0x0 DUP3 ADD MSTORE POP JUMP JUMPDEST PUSH32 0x5072696365203E20300000000000000000000000000000000000000000000000 PUSH1 0x0 DUP3 ADD MSTORE POP JUMP JUMPDEST PUSH32 0x596F75206E65656420417070726F766520466F7220416C6C20746F2074686973 PUSH1 0x0 DUP3 ADD MSTORE PUSH32 0x20636F6E74616374000000000000000000000000000000000000000000000000 PUSH1 0x20 DUP3 ADD MSTORE POP JUMP JUMPDEST PUSH32 0x416464726573732063616E206E6F74207A65726F000000000000000000000000 PUSH1 0x0 DUP3 ADD MSTORE POP JUMP JUMPDEST PUSH32 0x4F776E61626C653A2063616C6C6572206973206E6F7420746865206F776E6572 PUSH1 0x0 DUP3 ADD MSTORE POP JUMP JUMPDEST PUSH32 0x56696353686F7365206E6F7420696E2073656C6C000000000000000000000000 PUSH1 0x0 DUP3 ADD MSTORE POP JUMP JUMPDEST PUSH32 0x546865206D6F6E657920616C6C6F776564206973206E6F7420656E6F75676820 PUSH1 0x0 DUP3 ADD MSTORE PUSH32 0x746F206275792073686F65732E20596F75206E65656420617070726F7665206D PUSH1 0x20 DUP3 ADD MSTORE PUSH32 0x6F72652056494D00000000000000000000000000000000000000000000000000 PUSH1 0x40 DUP3 ADD MSTORE POP JUMP JUMPDEST PUSH2 0x3AB5 DUP2 PUSH2 0x36A6 JUMP JUMPDEST DUP2 EQ PUSH2 0x3AC0 JUMPI PUSH1 0x0 DUP1 REVERT JUMPDEST POP JUMP JUMPDEST PUSH2 0x3ACC DUP2 PUSH2 0x36B8 JUMP JUMPDEST DUP2 EQ PUSH2 0x3AD7 JUMPI PUSH1 0x0 DUP1 REVERT JUMPDEST POP JUMP JUMPDEST PUSH2 0x3AE3 DUP2 PUSH2 0x36E4 JUMP JUMPDEST DUP2 EQ PUSH2 0x3AEE JUMPI PUSH1 0x0 DUP1 REVERT JUMPDEST POP JUMP INVALID LOG2 PUSH5 0x6970667358 0x22 SLT KECCAK256 0xFC DUP16 0xC3 0xAB XOR BLOCKHASH 0xE9 PUSH12 0x9DDE4282ED256D5F018C3B39 0xCF 0xF 0x4D 0xE0 0xF7 MLOAD PUSH16 0x4D8653A11664736F6C63430008070033 "
				},
				"gasEstimates": {
					"creation": {
						"codeDepositCost": "3028600",
						"executionCost": "infinite",
						"totalCost": "infinite"
					},
					"external": {
						"BuyVicShose(uint256)": "infinite",
						"CancelSellVicShose(uint256)": "infinite",
						"LiquidPool()": "2627",
						"MinBnB()": "2474",
						"Pool2()": "2581",
						"SellVicShose(uint256,uint256)": "infinite",
						"ShoseNFTContract()": "2625",
						"Treasury()": "2560",
						"VIMContract()": "2603",
						"WBNBContract()": "2561",
						"checkShoseTranfer(uint256)": "2933",
						"getBalanceBNB()": "450",
						"getBalanceToken(address)": "infinite",
						"getMINPrice()": "infinite",
						"getSellingShose()": "infinite",
						"isOwner()": "2621",
						"owner()": "2590",
						"pause()": "29994",
						"paused()": "2611",
						"renounceOwnership()": "30374",
						"sentT2Pool2BNB(uint256)": "infinite",
						"sentT2Pool2Token(address,uint256)": "infinite",
						"setLiquidPool(address)": "infinite",
						"setMinBNB(uint256)": "infinite",
						"setPool2(address)": "27029",
						"setShoseNFTContract(address)": "infinite",
						"setTax(uint256)": "24874",
						"setTreasury(address)": "infinite",
						"setVIMContract(address)": "infinite",
						"transferOwnership(address)": "30817",
						"transferVicShose(address,uint256)": "infinite",
						"unpause()": "29926"
					},
					"internal": {
						"addNFTSell(uint256,uint256,address)": "infinite",
						"removeNFTSell(uint256)": "infinite"
					}
				},
				"methodIdentifiers": {
					"BuyVicShose(uint256)": "7880e606",
					"CancelSellVicShose(uint256)": "4dd79f10",
					"LiquidPool()": "36c3b4e2",
					"MinBnB()": "bcfcba76",
					"Pool2()": "ac4b3b0a",
					"SellVicShose(uint256,uint256)": "83d58215",
					"ShoseNFTContract()": "d8882779",
					"Treasury()": "563df32f",
					"VIMContract()": "b5620229",
					"WBNBContract()": "0ff32839",
					"checkShoseTranfer(uint256)": "59464217",
					"getBalanceBNB()": "bc127127",
					"getBalanceToken(address)": "48eca45c",
					"getMINPrice()": "ea156f44",
					"getSellingShose()": "99bc1bfb",
					"isOwner()": "8f32d59b",
					"owner()": "8da5cb5b",
					"pause()": "8456cb59",
					"paused()": "5c975abb",
					"renounceOwnership()": "715018a6",
					"sentT2Pool2BNB(uint256)": "d1f19989",
					"sentT2Pool2Token(address,uint256)": "8cef6437",
					"setLiquidPool(address)": "a888a93a",
					"setMinBNB(uint256)": "de281e28",
					"setPool2(address)": "cc24c800",
					"setShoseNFTContract(address)": "458a635a",
					"setTax(uint256)": "2e5bb6ff",
					"setTreasury(address)": "f0f44260",
					"setVIMContract(address)": "1ecff38e",
					"transferOwnership(address)": "f2fde38b",
					"transferVicShose(address,uint256)": "5c9e0d10",
					"unpause()": "3f4ba83a"
				}
			},
			"storageLayout": {
				"storage": [
					{
						"astId": 332,
						"contract": "marketplace.sol:marketplace",
						"label": "_owner",
						"offset": 0,
						"slot": "0",
						"type": "t_address"
					},
					{
						"astId": 467,
						"contract": "marketplace.sol:marketplace",
						"label": "paused",
						"offset": 20,
						"slot": "0",
						"type": "t_bool"
					},
					{
						"astId": 773,
						"contract": "marketplace.sol:marketplace",
						"label": "Treasury",
						"offset": 0,
						"slot": "1",
						"type": "t_address"
					},
					{
						"astId": 775,
						"contract": "marketplace.sol:marketplace",
						"label": "LiquidPool",
						"offset": 0,
						"slot": "2",
						"type": "t_address"
					},
					{
						"astId": 777,
						"contract": "marketplace.sol:marketplace",
						"label": "ShoseNFTContract",
						"offset": 0,
						"slot": "3",
						"type": "t_address"
					},
					{
						"astId": 779,
						"contract": "marketplace.sol:marketplace",
						"label": "VIMContract",
						"offset": 0,
						"slot": "4",
						"type": "t_address"
					},
					{
						"astId": 781,
						"contract": "marketplace.sol:marketplace",
						"label": "WBNBContract",
						"offset": 0,
						"slot": "5",
						"type": "t_address"
					},
					{
						"astId": 783,
						"contract": "marketplace.sol:marketplace",
						"label": "MinBnB",
						"offset": 0,
						"slot": "6",
						"type": "t_uint256"
					},
					{
						"astId": 785,
						"contract": "marketplace.sol:marketplace",
						"label": "tax",
						"offset": 0,
						"slot": "7",
						"type": "t_uint256"
					},
					{
						"astId": 787,
						"contract": "marketplace.sol:marketplace",
						"label": "Pool2",
						"offset": 0,
						"slot": "8",
						"type": "t_address"
					},
					{
						"astId": 791,
						"contract": "marketplace.sol:marketplace",
						"label": "shoseTranfer",
						"offset": 0,
						"slot": "9",
						"type": "t_mapping(t_uint256,t_address)"
					},
					{
						"astId": 795,
						"contract": "marketplace.sol:marketplace",
						"label": "shoseSell",
						"offset": 0,
						"slot": "10",
						"type": "t_mapping(t_uint256,t_uint256)"
					},
					{
						"astId": 799,
						"contract": "marketplace.sol:marketplace",
						"label": "shoseSeller",
						"offset": 0,
						"slot": "11",
						"type": "t_mapping(t_uint256,t_address)"
					},
					{
						"astId": 802,
						"contract": "marketplace.sol:marketplace",
						"label": "allTokensSell",
						"offset": 0,
						"slot": "12",
						"type": "t_array(t_uint256)dyn_storage"
					}
				],
				"types": {
					"t_address": {
						"encoding": "inplace",
						"label": "address",
						"numberOfBytes": "20"
					},
					"t_array(t_uint256)dyn_storage": {
						"base": "t_uint256",
						"encoding": "dynamic_array",
						"label": "uint256[]",
						"numberOfBytes": "32"
					},
					"t_bool": {
						"encoding": "inplace",
						"label": "bool",
						"numberOfBytes": "1"
					},
					"t_mapping(t_uint256,t_address)": {
						"encoding": "mapping",
						"key": "t_uint256",
						"label": "mapping(uint256 => address)",
						"numberOfBytes": "32",
						"value": "t_address"
					},
					"t_mapping(t_uint256,t_uint256)": {
						"encoding": "mapping",
						"key": "t_uint256",
						"label": "mapping(uint256 => uint256)",
						"numberOfBytes": "32",
						"value": "t_uint256"
					},
					"t_uint256": {
						"encoding": "inplace",
						"label": "uint256",
						"numberOfBytes": "32"
					}
				}
			},
			"userdoc": {
				"kind": "user",
				"methods": {},
				"version": 1
			}
		}
	}
}