{
	"Treasury.sol": {
		"Treasury": {
			"abi": [
				{
					"inputs": [],
					"stateMutability": "payable",
					"type": "constructor"
				},
				{
					"anonymous": false,
					"inputs": [
						{
							"indexed": true,
							"internalType": "address",
							"name": "previousOwner",
							"type": "address"
						},
						{
							"indexed": true,
							"internalType": "address",
							"name": "newOwner",
							"type": "address"
						}
					],
					"name": "OwnershipTransferred",
					"type": "event"
				},
				{
					"inputs": [],
					"name": "Pool2",
					"outputs": [
						{
							"internalType": "address",
							"name": "",
							"type": "address"
						}
					],
					"stateMutability": "view",
					"type": "function"
				},
				{
					"inputs": [],
					"name": "getBalanceBNB",
					"outputs": [
						{
							"internalType": "uint256",
							"name": "",
							"type": "uint256"
						}
					],
					"stateMutability": "view",
					"type": "function"
				},
				{
					"inputs": [
						{
							"internalType": "address",
							"name": "token",
							"type": "address"
						}
					],
					"name": "getBalanceToken",
					"outputs": [
						{
							"internalType": "uint256",
							"name": "",
							"type": "uint256"
						}
					],
					"stateMutability": "view",
					"type": "function"
				},
				{
					"inputs": [],
					"name": "isOwner",
					"outputs": [
						{
							"internalType": "bool",
							"name": "",
							"type": "bool"
						}
					],
					"stateMutability": "view",
					"type": "function"
				},
				{
					"inputs": [],
					"name": "owner",
					"outputs": [
						{
							"internalType": "address",
							"name": "",
							"type": "address"
						}
					],
					"stateMutability": "view",
					"type": "function"
				},
				{
					"inputs": [],
					"name": "renounceOwnership",
					"outputs": [],
					"stateMutability": "nonpayable",
					"type": "function"
				},
				{
					"inputs": [],
					"name": "sentT2Pool2BNB",
					"outputs": [],
					"stateMutability": "nonpayable",
					"type": "function"
				},
				{
					"inputs": [
						{
							"internalType": "address",
							"name": "tokenaddress",
							"type": "address"
						}
					],
					"name": "sentT2Pool2Token",
					"outputs": [],
					"stateMutability": "nonpayable",
					"type": "function"
				},
				{
					"inputs": [
						{
							"internalType": "address",
							"name": "_Pool2",
							"type": "address"
						}
					],
					"name": "setPool2",
					"outputs": [],
					"stateMutability": "nonpayable",
					"type": "function"
				},
				{
					"inputs": [
						{
							"internalType": "address",
							"name": "newOwner",
							"type": "address"
						}
					],
					"name": "transferOwnership",
					"outputs": [],
					"stateMutability": "nonpayable",
					"type": "function"
				},
				{
					"stateMutability": "payable",
					"type": "receive"
				}
			],
			"devdoc": {
				"kind": "dev",
				"methods": {
					"constructor": {
						"details": "Set the beneficiary, start timestamp and vesting duration of the vesting wallet."
					},
					"getBalanceToken(address)": {
						"details": "get balance."
					},
					"isOwner()": {
						"details": "Returns true if the caller is the current owner."
					},
					"owner()": {
						"details": "Returns the address of the current owner."
					},
					"renounceOwnership()": {
						"details": "Leaves the contract without owner. It will not be possible to call `onlyOwner` functions anymore. Can only be called by the current owner. NOTE: Renouncing ownership will leave the contract without an owner, thereby removing any functionality that is only available to the owner."
					},
					"setPool2(address)": {
						"details": "The contract should be able to receive Eth."
					},
					"transferOwnership(address)": {
						"details": "Transfers ownership of the contract to a new account (`newOwner`). Can only be called by the current owner."
					}
				},
				"version": 1
			},
			"evm": {
				"assembly": "    /* \"Treasury.sol\":194:1417  contract Treasury is BEPOwnable {... */\n  mstore(0x40, 0x80)\n    /* \"BEPOwnable.sol\":716:733  address msgSender */\n  0x00\n    /* \"BEPOwnable.sol\":736:748  _msgSender() */\n  tag_6\n    /* \"BEPOwnable.sol\":736:746  _msgSender */\n  shl(0x20, tag_7)\n    /* \"BEPOwnable.sol\":736:748  _msgSender() */\n  0x20\n  shr\n  jump\t// in\ntag_6:\n    /* \"BEPOwnable.sol\":716:748  address msgSender = _msgSender() */\n  swap1\n  pop\n    /* \"BEPOwnable.sol\":763:772  msgSender */\n  dup1\n    /* \"BEPOwnable.sol\":754:760  _owner */\n  0x00\n  dup1\n    /* \"BEPOwnable.sol\":754:772  _owner = msgSender */\n  0x0100\n  exp\n  dup2\n  sload\n  dup2\n  0xffffffffffffffffffffffffffffffffffffffff\n  mul\n  not\n  and\n  swap1\n  dup4\n  0xffffffffffffffffffffffffffffffffffffffff\n  and\n  mul\n  or\n  swap1\n  sstore\n  pop\n    /* \"BEPOwnable.sol\":816:825  msgSender */\n  dup1\n    /* \"BEPOwnable.sol\":783:826  OwnershipTransferred(address(0), msgSender) */\n  0xffffffffffffffffffffffffffffffffffffffff\n  and\n    /* \"BEPOwnable.sol\":812:813  0 */\n  0x00\n    /* \"BEPOwnable.sol\":783:826  OwnershipTransferred(address(0), msgSender) */\n  0xffffffffffffffffffffffffffffffffffffffff\n  and\n  0x8be0079c531659141344cd1fd0a4f28419497f9722a3daafe3b4186f6b6457e0\n  mload(0x40)\n  mload(0x40)\n  dup1\n  swap2\n  sub\n  swap1\n  log3\n    /* \"BEPOwnable.sol\":710:831  {... */\n  pop\n    /* \"Treasury.sol\":410:452  0xfA0E47A2d6a58b9fd7Ca1d4bFAADd11E8811824B */\n  0xfa0e47a2d6a58b9fd7ca1d4bfaadd11e8811824b\n    /* \"Treasury.sol\":402:407  Pool2 */\n  0x01\n  0x00\n    /* \"Treasury.sol\":402:452  Pool2 = 0xfA0E47A2d6a58b9fd7Ca1d4bFAADd11E8811824B */\n  0x0100\n  exp\n  dup2\n  sload\n  dup2\n  0xffffffffffffffffffffffffffffffffffffffff\n  mul\n  not\n  and\n  swap1\n  dup4\n  0xffffffffffffffffffffffffffffffffffffffff\n  and\n  mul\n  or\n  swap1\n  sstore\n  pop\n    /* \"Treasury.sol\":194:1417  contract Treasury is BEPOwnable {... */\n  jump(tag_9)\n    /* \"BEPContext.sol\":760:859  function _msgSender() internal view returns (address payable) {... */\ntag_7:\n    /* \"BEPContext.sol\":805:820  address payable */\n  0x00\n    /* \"BEPContext.sol\":843:853  msg.sender */\n  caller\n    /* \"BEPContext.sol\":828:854  return payable(msg.sender) */\n  swap1\n  pop\n    /* \"BEPContext.sol\":760:859  function _msgSender() internal view returns (address payable) {... */\n  swap1\n  jump\t// out\n    /* \"Treasury.sol\":194:1417  contract Treasury is BEPOwnable {... */\ntag_9:\n  dataSize(sub_0)\n  dup1\n  dataOffset(sub_0)\n  0x00\n  codecopy\n  0x00\n  return\nstop\n\nsub_0: assembly {\n        /* \"Treasury.sol\":194:1417  contract Treasury is BEPOwnable {... */\n      mstore(0x40, 0x80)\n      jumpi(tag_1, lt(calldatasize, 0x04))\n      shr(0xe0, calldataload(0x00))\n      dup1\n      0x9694ce75\n      gt\n      tag_13\n      jumpi\n      dup1\n      0x9694ce75\n      eq\n      tag_8\n      jumpi\n      dup1\n      0xac4b3b0a\n      eq\n      tag_9\n      jumpi\n      dup1\n      0xbc127127\n      eq\n      tag_10\n      jumpi\n      dup1\n      0xcc24c800\n      eq\n      tag_11\n      jumpi\n      dup1\n      0xf2fde38b\n      eq\n      tag_12\n      jumpi\n      jump(tag_2)\n    tag_13:\n      dup1\n      0xf29d5f\n      eq\n      tag_3\n      jumpi\n      dup1\n      0x48eca45c\n      eq\n      tag_4\n      jumpi\n      dup1\n      0x715018a6\n      eq\n      tag_5\n      jumpi\n      dup1\n      0x8da5cb5b\n      eq\n      tag_6\n      jumpi\n      dup1\n      0x8f32d59b\n      eq\n      tag_7\n      jumpi\n      jump(tag_2)\n    tag_1:\n      jumpi(tag_2, calldatasize)\n      stop\n    tag_2:\n      0x00\n      dup1\n      revert\n        /* \"Treasury.sol\":824:1072  function sentT2Pool2Token(address tokenaddress) external onlyOwner {... */\n    tag_3:\n      callvalue\n      dup1\n      iszero\n      tag_16\n      jumpi\n      0x00\n      dup1\n      revert\n    tag_16:\n      pop\n      tag_17\n      0x04\n      dup1\n      calldatasize\n      sub\n      dup2\n      add\n      swap1\n      tag_18\n      swap2\n      swap1\n      tag_19\n      jump\t// in\n    tag_18:\n      tag_20\n      jump\t// in\n    tag_17:\n      stop\n        /* \"Treasury.sol\":679:819  function getBalanceToken(address token) public view virtual returns (uint256) {... */\n    tag_4:\n      callvalue\n      dup1\n      iszero\n      tag_21\n      jumpi\n      0x00\n      dup1\n      revert\n    tag_21:\n      pop\n      tag_22\n      0x04\n      dup1\n      calldatasize\n      sub\n      dup2\n      add\n      swap1\n      tag_23\n      swap2\n      swap1\n      tag_19\n      jump\t// in\n    tag_23:\n      tag_24\n      jump\t// in\n    tag_22:\n      mload(0x40)\n      tag_25\n      swap2\n      swap1\n      tag_26\n      jump\t// in\n    tag_25:\n      mload(0x40)\n      dup1\n      swap2\n      sub\n      swap1\n      return\n        /* \"BEPOwnable.sol\":1630:1757  function renounceOwnership() public onlyOwner {... */\n    tag_5:\n      callvalue\n      dup1\n      iszero\n      tag_27\n      jumpi\n      0x00\n      dup1\n      revert\n    tag_27:\n      pop\n      tag_28\n      tag_29\n      jump\t// in\n    tag_28:\n      stop\n        /* \"BEPOwnable.sol\":899:970  function owner() public view returns (address) {... */\n    tag_6:\n      callvalue\n      dup1\n      iszero\n      tag_30\n      jumpi\n      0x00\n      dup1\n      revert\n    tag_30:\n      pop\n      tag_31\n      tag_32\n      jump\t// in\n    tag_31:\n      mload(0x40)\n      tag_33\n      swap2\n      swap1\n      tag_34\n      jump\t// in\n    tag_33:\n      mload(0x40)\n      dup1\n      swap2\n      sub\n      swap1\n      return\n        /* \"BEPOwnable.sol\":1218:1304  function isOwner() public view returns (bool) {... */\n    tag_7:\n      callvalue\n      dup1\n      iszero\n      tag_35\n      jumpi\n      0x00\n      dup1\n      revert\n    tag_35:\n      pop\n      tag_36\n      tag_37\n      jump\t// in\n    tag_36:\n      mload(0x40)\n      tag_38\n      swap2\n      swap1\n      tag_39\n      jump\t// in\n    tag_38:\n      mload(0x40)\n      dup1\n      swap2\n      sub\n      swap1\n      return\n        /* \"Treasury.sol\":1191:1380  function sentT2Pool2BNB() external onlyOwner {... */\n    tag_8:\n      callvalue\n      dup1\n      iszero\n      tag_40\n      jumpi\n      0x00\n      dup1\n      revert\n    tag_40:\n      pop\n      tag_41\n      tag_42\n      jump\t// in\n    tag_41:\n      stop\n        /* \"Treasury.sol\":233:253  address public Pool2 */\n    tag_9:\n      callvalue\n      dup1\n      iszero\n      tag_43\n      jumpi\n      0x00\n      dup1\n      revert\n    tag_43:\n      pop\n      tag_44\n      tag_45\n      jump\t// in\n    tag_44:\n      mload(0x40)\n      tag_46\n      swap2\n      swap1\n      tag_34\n      jump\t// in\n    tag_46:\n      mload(0x40)\n      dup1\n      swap2\n      sub\n      swap1\n      return\n        /* \"Treasury.sol\":1078:1186  function getBalanceBNB() public view virtual returns (uint256) {... */\n    tag_10:\n      callvalue\n      dup1\n      iszero\n      tag_47\n      jumpi\n      0x00\n      dup1\n      revert\n    tag_47:\n      pop\n      tag_48\n      tag_49\n      jump\t// in\n    tag_48:\n      mload(0x40)\n      tag_50\n      swap2\n      swap1\n      tag_26\n      jump\t// in\n    tag_50:\n      mload(0x40)\n      dup1\n      swap2\n      sub\n      swap1\n      return\n        /* \"Treasury.sol\":547:631  function setPool2(address _Pool2) external onlyOwner {... */\n    tag_11:\n      callvalue\n      dup1\n      iszero\n      tag_51\n      jumpi\n      0x00\n      dup1\n      revert\n    tag_51:\n      pop\n      tag_52\n      0x04\n      dup1\n      calldatasize\n      sub\n      dup2\n      add\n      swap1\n      tag_53\n      swap2\n      swap1\n      tag_19\n      jump\t// in\n    tag_53:\n      tag_54\n      jump\t// in\n    tag_52:\n      stop\n        /* \"BEPOwnable.sol\":1896:1997  function transferOwnership(address newOwner) public onlyOwner {... */\n    tag_12:\n      callvalue\n      dup1\n      iszero\n      tag_55\n      jumpi\n      0x00\n      dup1\n      revert\n    tag_55:\n      pop\n      tag_56\n      0x04\n      dup1\n      calldatasize\n      sub\n      dup2\n      add\n      swap1\n      tag_57\n      swap2\n      swap1\n      tag_19\n      jump\t// in\n    tag_57:\n      tag_58\n      jump\t// in\n    tag_56:\n      stop\n        /* \"Treasury.sol\":824:1072  function sentT2Pool2Token(address tokenaddress) external onlyOwner {... */\n    tag_20:\n        /* \"BEPOwnable.sol\":1085:1094  isOwner() */\n      tag_60\n        /* \"BEPOwnable.sol\":1085:1092  isOwner */\n      tag_37\n        /* \"BEPOwnable.sol\":1085:1094  isOwner() */\n      jump\t// in\n    tag_60:\n        /* \"BEPOwnable.sol\":1077:1131  require(isOwner(), \"Ownable: caller is not the owner\") */\n      tag_61\n      jumpi\n      mload(0x40)\n      0x08c379a000000000000000000000000000000000000000000000000000000000\n      dup2\n      mstore\n      0x04\n      add\n      tag_62\n      swap1\n      tag_63\n      jump\t// in\n    tag_62:\n      mload(0x40)\n      dup1\n      swap2\n      sub\n      swap1\n      revert\n    tag_61:\n        /* \"Treasury.sol\":901:919  uint256 newBalance */\n      0x00\n        /* \"Treasury.sol\":929:941  tokenaddress */\n      dup2\n        /* \"Treasury.sol\":922:952  IBEP20(tokenaddress).balanceOf */\n      0xffffffffffffffffffffffffffffffffffffffff\n      and\n      0x70a08231\n        /* \"Treasury.sol\":961:965  this */\n      address\n        /* \"Treasury.sol\":922:967  IBEP20(tokenaddress).balanceOf(address(this)) */\n      mload(0x40)\n      dup3\n      0xffffffff\n      and\n      0xe0\n      shl\n      dup2\n      mstore\n      0x04\n      add\n      tag_65\n      swap2\n      swap1\n      tag_34\n      jump\t// in\n    tag_65:\n      0x20\n      mload(0x40)\n      dup1\n      dup4\n      sub\n      dup2\n      dup7\n      dup1\n      extcodesize\n      iszero\n      dup1\n      iszero\n      tag_66\n      jumpi\n      0x00\n      dup1\n      revert\n    tag_66:\n      pop\n      gas\n      staticcall\n      iszero\n      dup1\n      iszero\n      tag_68\n      jumpi\n      returndatasize\n      0x00\n      dup1\n      returndatacopy\n      revert(0x00, returndatasize)\n    tag_68:\n      pop\n      pop\n      pop\n      pop\n      mload(0x40)\n      returndatasize\n      not(0x1f)\n      0x1f\n      dup3\n      add\n      and\n      dup3\n      add\n      dup1\n      0x40\n      mstore\n      pop\n      dup2\n      add\n      swap1\n      tag_69\n      swap2\n      swap1\n      tag_70\n      jump\t// in\n    tag_69:\n        /* \"Treasury.sol\":901:967  uint256 newBalance = IBEP20(tokenaddress).balanceOf(address(this)) */\n      swap1\n      pop\n        /* \"Treasury.sol\":991:992  0 */\n      0x00\n        /* \"Treasury.sol\":980:990  newBalance */\n      dup2\n        /* \"Treasury.sol\":980:992  newBalance>0 */\n      gt\n        /* \"Treasury.sol\":977:1066  if(newBalance>0){... */\n      iszero\n      tag_71\n      jumpi\n        /* \"Treasury.sol\":1014:1026  tokenaddress */\n      dup2\n        /* \"Treasury.sol\":1007:1036  IBEP20(tokenaddress).transfer */\n      0xffffffffffffffffffffffffffffffffffffffff\n      and\n      0xa9059cbb\n        /* \"Treasury.sol\":1037:1042  Pool2 */\n      0x01\n      0x00\n      swap1\n      sload\n      swap1\n      0x0100\n      exp\n      swap1\n      div\n      0xffffffffffffffffffffffffffffffffffffffff\n      and\n        /* \"Treasury.sol\":1044:1054  newBalance */\n      dup4\n        /* \"Treasury.sol\":1007:1055  IBEP20(tokenaddress).transfer(Pool2, newBalance) */\n      mload(0x40)\n      dup4\n      0xffffffff\n      and\n      0xe0\n      shl\n      dup2\n      mstore\n      0x04\n      add\n      tag_72\n      swap3\n      swap2\n      swap1\n      tag_73\n      jump\t// in\n    tag_72:\n      0x20\n      mload(0x40)\n      dup1\n      dup4\n      sub\n      dup2\n      0x00\n      dup8\n      dup1\n      extcodesize\n      iszero\n      dup1\n      iszero\n      tag_74\n      jumpi\n      0x00\n      dup1\n      revert\n    tag_74:\n      pop\n      gas\n      call\n      iszero\n      dup1\n      iszero\n      tag_76\n      jumpi\n      returndatasize\n      0x00\n      dup1\n      returndatacopy\n      revert(0x00, returndatasize)\n    tag_76:\n      pop\n      pop\n      pop\n      pop\n      mload(0x40)\n      returndatasize\n      not(0x1f)\n      0x1f\n      dup3\n      add\n      and\n      dup3\n      add\n      dup1\n      0x40\n      mstore\n      pop\n      dup2\n      add\n      swap1\n      tag_77\n      swap2\n      swap1\n      tag_78\n      jump\t// in\n    tag_77:\n      pop\n        /* \"Treasury.sol\":977:1066  if(newBalance>0){... */\n    tag_71:\n        /* \"Treasury.sol\":891:1072  {... */\n      pop\n        /* \"Treasury.sol\":824:1072  function sentT2Pool2Token(address tokenaddress) external onlyOwner {... */\n      pop\n      jump\t// out\n        /* \"Treasury.sol\":679:819  function getBalanceToken(address token) public view virtual returns (uint256) {... */\n    tag_24:\n        /* \"Treasury.sol\":748:755  uint256 */\n      0x00\n        /* \"Treasury.sol\":781:786  token */\n      dup2\n        /* \"Treasury.sol\":774:797  IBEP20(token).balanceOf */\n      0xffffffffffffffffffffffffffffffffffffffff\n      and\n      0x70a08231\n        /* \"Treasury.sol\":806:810  this */\n      address\n        /* \"Treasury.sol\":774:812  IBEP20(token).balanceOf(address(this)) */\n      mload(0x40)\n      dup3\n      0xffffffff\n      and\n      0xe0\n      shl\n      dup2\n      mstore\n      0x04\n      add\n      tag_80\n      swap2\n      swap1\n      tag_34\n      jump\t// in\n    tag_80:\n      0x20\n      mload(0x40)\n      dup1\n      dup4\n      sub\n      dup2\n      dup7\n      dup1\n      extcodesize\n      iszero\n      dup1\n      iszero\n      tag_81\n      jumpi\n      0x00\n      dup1\n      revert\n    tag_81:\n      pop\n      gas\n      staticcall\n      iszero\n      dup1\n      iszero\n      tag_83\n      jumpi\n      returndatasize\n      0x00\n      dup1\n      returndatacopy\n      revert(0x00, returndatasize)\n    tag_83:\n      pop\n      pop\n      pop\n      pop\n      mload(0x40)\n      returndatasize\n      not(0x1f)\n      0x1f\n      dup3\n      add\n      and\n      dup3\n      add\n      dup1\n      0x40\n      mstore\n      pop\n      dup2\n      add\n      swap1\n      tag_84\n      swap2\n      swap1\n      tag_70\n      jump\t// in\n    tag_84:\n        /* \"Treasury.sol\":767:812  return IBEP20(token).balanceOf(address(this)) */\n      swap1\n      pop\n        /* \"Treasury.sol\":679:819  function getBalanceToken(address token) public view virtual returns (uint256) {... */\n      swap2\n      swap1\n      pop\n      jump\t// out\n        /* \"BEPOwnable.sol\":1630:1757  function renounceOwnership() public onlyOwner {... */\n    tag_29:\n        /* \"BEPOwnable.sol\":1085:1094  isOwner() */\n      tag_86\n        /* \"BEPOwnable.sol\":1085:1092  isOwner */\n      tag_37\n        /* \"BEPOwnable.sol\":1085:1094  isOwner() */\n      jump\t// in\n    tag_86:\n        /* \"BEPOwnable.sol\":1077:1131  require(isOwner(), \"Ownable: caller is not the owner\") */\n      tag_87\n      jumpi\n      mload(0x40)\n      0x08c379a000000000000000000000000000000000000000000000000000000000\n      dup2\n      mstore\n      0x04\n      add\n      tag_88\n      swap1\n      tag_63\n      jump\t// in\n    tag_88:\n      mload(0x40)\n      dup1\n      swap2\n      sub\n      swap1\n      revert\n    tag_87:\n        /* \"BEPOwnable.sol\":1724:1725  0 */\n      0x00\n        /* \"BEPOwnable.sol\":1687:1727  OwnershipTransferred(_owner, address(0)) */\n      0xffffffffffffffffffffffffffffffffffffffff\n      and\n        /* \"BEPOwnable.sol\":1708:1714  _owner */\n      0x00\n      dup1\n      sload\n      swap1\n      0x0100\n      exp\n      swap1\n      div\n      0xffffffffffffffffffffffffffffffffffffffff\n      and\n        /* \"BEPOwnable.sol\":1687:1727  OwnershipTransferred(_owner, address(0)) */\n      0xffffffffffffffffffffffffffffffffffffffff\n      and\n      0x8be0079c531659141344cd1fd0a4f28419497f9722a3daafe3b4186f6b6457e0\n      mload(0x40)\n      mload(0x40)\n      dup1\n      swap2\n      sub\n      swap1\n      log3\n        /* \"BEPOwnable.sol\":1750:1751  0 */\n      0x00\n        /* \"BEPOwnable.sol\":1733:1739  _owner */\n      dup1\n      0x00\n        /* \"BEPOwnable.sol\":1733:1752  _owner = address(0) */\n      0x0100\n      exp\n      dup2\n      sload\n      dup2\n      0xffffffffffffffffffffffffffffffffffffffff\n      mul\n      not\n      and\n      swap1\n      dup4\n      0xffffffffffffffffffffffffffffffffffffffff\n      and\n      mul\n      or\n      swap1\n      sstore\n      pop\n        /* \"BEPOwnable.sol\":1630:1757  function renounceOwnership() public onlyOwner {... */\n      jump\t// out\n        /* \"BEPOwnable.sol\":899:970  function owner() public view returns (address) {... */\n    tag_32:\n        /* \"BEPOwnable.sol\":937:944  address */\n      0x00\n        /* \"BEPOwnable.sol\":959:965  _owner */\n      dup1\n      0x00\n      swap1\n      sload\n      swap1\n      0x0100\n      exp\n      swap1\n      div\n      0xffffffffffffffffffffffffffffffffffffffff\n      and\n        /* \"BEPOwnable.sol\":952:965  return _owner */\n      swap1\n      pop\n        /* \"BEPOwnable.sol\":899:970  function owner() public view returns (address) {... */\n      swap1\n      jump\t// out\n        /* \"BEPOwnable.sol\":1218:1304  function isOwner() public view returns (bool) {... */\n    tag_37:\n        /* \"BEPOwnable.sol\":1258:1262  bool */\n      0x00\n        /* \"BEPOwnable.sol\":1293:1299  _owner */\n      dup1\n      0x00\n      swap1\n      sload\n      swap1\n      0x0100\n      exp\n      swap1\n      div\n      0xffffffffffffffffffffffffffffffffffffffff\n      and\n        /* \"BEPOwnable.sol\":1277:1299  _msgSender() == _owner */\n      0xffffffffffffffffffffffffffffffffffffffff\n      and\n        /* \"BEPOwnable.sol\":1277:1289  _msgSender() */\n      tag_92\n        /* \"BEPOwnable.sol\":1277:1287  _msgSender */\n      tag_93\n        /* \"BEPOwnable.sol\":1277:1289  _msgSender() */\n      jump\t// in\n    tag_92:\n        /* \"BEPOwnable.sol\":1277:1299  _msgSender() == _owner */\n      0xffffffffffffffffffffffffffffffffffffffff\n      and\n      eq\n        /* \"BEPOwnable.sol\":1270:1299  return _msgSender() == _owner */\n      swap1\n      pop\n        /* \"BEPOwnable.sol\":1218:1304  function isOwner() public view returns (bool) {... */\n      swap1\n      jump\t// out\n        /* \"Treasury.sol\":1191:1380  function sentT2Pool2BNB() external onlyOwner {... */\n    tag_42:\n        /* \"BEPOwnable.sol\":1085:1094  isOwner() */\n      tag_95\n        /* \"BEPOwnable.sol\":1085:1092  isOwner */\n      tag_37\n        /* \"BEPOwnable.sol\":1085:1094  isOwner() */\n      jump\t// in\n    tag_95:\n        /* \"BEPOwnable.sol\":1077:1131  require(isOwner(), \"Ownable: caller is not the owner\") */\n      tag_96\n      jumpi\n      mload(0x40)\n      0x08c379a000000000000000000000000000000000000000000000000000000000\n      dup2\n      mstore\n      0x04\n      add\n      tag_97\n      swap1\n      tag_63\n      jump\t// in\n    tag_97:\n      mload(0x40)\n      dup1\n      swap2\n      sub\n      swap1\n      revert\n    tag_96:\n        /* \"Treasury.sol\":1246:1264  uint256 newBalance */\n      0x00\n        /* \"Treasury.sol\":1267:1288  address(this).balance */\n      selfbalance\n        /* \"Treasury.sol\":1246:1288  uint256 newBalance = address(this).balance */\n      swap1\n      pop\n        /* \"Treasury.sol\":1312:1313  0 */\n      0x00\n        /* \"Treasury.sol\":1301:1311  newBalance */\n      dup2\n        /* \"Treasury.sol\":1301:1313  newBalance>0 */\n      gt\n        /* \"Treasury.sol\":1298:1374  if(newBalance>0){... */\n      iszero\n      tag_99\n      jumpi\n        /* \"Treasury.sol\":1336:1341  Pool2 */\n      0x01\n      0x00\n      swap1\n      sload\n      swap1\n      0x0100\n      exp\n      swap1\n      div\n      0xffffffffffffffffffffffffffffffffffffffff\n      and\n        /* \"Treasury.sol\":1328:1351  payable(Pool2).transfer */\n      0xffffffffffffffffffffffffffffffffffffffff\n      and\n        /* \"Treasury.sol\":1328:1363  payable(Pool2).transfer(newBalance) */\n      0x08fc\n        /* \"Treasury.sol\":1352:1362  newBalance */\n      dup3\n        /* \"Treasury.sol\":1328:1363  payable(Pool2).transfer(newBalance) */\n      swap1\n      dup2\n      iszero\n      mul\n      swap1\n      mload(0x40)\n      0x00\n      mload(0x40)\n      dup1\n      dup4\n      sub\n      dup2\n      dup6\n      dup9\n      dup9\n      call\n      swap4\n      pop\n      pop\n      pop\n      pop\n      iszero\n      dup1\n      iszero\n      tag_101\n      jumpi\n      returndatasize\n      0x00\n      dup1\n      returndatacopy\n      revert(0x00, returndatasize)\n    tag_101:\n      pop\n        /* \"Treasury.sol\":1298:1374  if(newBalance>0){... */\n    tag_99:\n        /* \"Treasury.sol\":1236:1380  {... */\n      pop\n        /* \"Treasury.sol\":1191:1380  function sentT2Pool2BNB() external onlyOwner {... */\n      jump\t// out\n        /* \"Treasury.sol\":233:253  address public Pool2 */\n    tag_45:\n      0x01\n      0x00\n      swap1\n      sload\n      swap1\n      0x0100\n      exp\n      swap1\n      div\n      0xffffffffffffffffffffffffffffffffffffffff\n      and\n      dup2\n      jump\t// out\n        /* \"Treasury.sol\":1078:1186  function getBalanceBNB() public view virtual returns (uint256) {... */\n    tag_49:\n        /* \"Treasury.sol\":1132:1139  uint256 */\n      0x00\n        /* \"Treasury.sol\":1158:1179  address(this).balance */\n      selfbalance\n        /* \"Treasury.sol\":1151:1179  return address(this).balance */\n      swap1\n      pop\n        /* \"Treasury.sol\":1078:1186  function getBalanceBNB() public view virtual returns (uint256) {... */\n      swap1\n      jump\t// out\n        /* \"Treasury.sol\":547:631  function setPool2(address _Pool2) external onlyOwner {... */\n    tag_54:\n        /* \"BEPOwnable.sol\":1085:1094  isOwner() */\n      tag_104\n        /* \"BEPOwnable.sol\":1085:1092  isOwner */\n      tag_37\n        /* \"BEPOwnable.sol\":1085:1094  isOwner() */\n      jump\t// in\n    tag_104:\n        /* \"BEPOwnable.sol\":1077:1131  require(isOwner(), \"Ownable: caller is not the owner\") */\n      tag_105\n      jumpi\n      mload(0x40)\n      0x08c379a000000000000000000000000000000000000000000000000000000000\n      dup2\n      mstore\n      0x04\n      add\n      tag_106\n      swap1\n      tag_63\n      jump\t// in\n    tag_106:\n      mload(0x40)\n      dup1\n      swap2\n      sub\n      swap1\n      revert\n    tag_105:\n        /* \"Treasury.sol\":618:624  _Pool2 */\n      dup1\n        /* \"Treasury.sol\":610:615  Pool2 */\n      0x01\n      0x00\n        /* \"Treasury.sol\":610:624  Pool2 = _Pool2 */\n      0x0100\n      exp\n      dup2\n      sload\n      dup2\n      0xffffffffffffffffffffffffffffffffffffffff\n      mul\n      not\n      and\n      swap1\n      dup4\n      0xffffffffffffffffffffffffffffffffffffffff\n      and\n      mul\n      or\n      swap1\n      sstore\n      pop\n        /* \"Treasury.sol\":547:631  function setPool2(address _Pool2) external onlyOwner {... */\n      pop\n      jump\t// out\n        /* \"BEPOwnable.sol\":1896:1997  function transferOwnership(address newOwner) public onlyOwner {... */\n    tag_58:\n        /* \"BEPOwnable.sol\":1085:1094  isOwner() */\n      tag_109\n        /* \"BEPOwnable.sol\":1085:1092  isOwner */\n      tag_37\n        /* \"BEPOwnable.sol\":1085:1094  isOwner() */\n      jump\t// in\n    tag_109:\n        /* \"BEPOwnable.sol\":1077:1131  require(isOwner(), \"Ownable: caller is not the owner\") */\n      tag_110\n      jumpi\n      mload(0x40)\n      0x08c379a000000000000000000000000000000000000000000000000000000000\n      dup2\n      mstore\n      0x04\n      add\n      tag_111\n      swap1\n      tag_63\n      jump\t// in\n    tag_111:\n      mload(0x40)\n      dup1\n      swap2\n      sub\n      swap1\n      revert\n    tag_110:\n        /* \"BEPOwnable.sol\":1964:1992  _transferOwnership(newOwner) */\n      tag_113\n        /* \"BEPOwnable.sol\":1983:1991  newOwner */\n      dup2\n        /* \"BEPOwnable.sol\":1964:1982  _transferOwnership */\n      tag_114\n        /* \"BEPOwnable.sol\":1964:1992  _transferOwnership(newOwner) */\n      jump\t// in\n    tag_113:\n        /* \"BEPOwnable.sol\":1896:1997  function transferOwnership(address newOwner) public onlyOwner {... */\n      pop\n      jump\t// out\n        /* \"BEPContext.sol\":760:859  function _msgSender() internal view returns (address payable) {... */\n    tag_93:\n        /* \"BEPContext.sol\":805:820  address payable */\n      0x00\n        /* \"BEPContext.sol\":843:853  msg.sender */\n      caller\n        /* \"BEPContext.sol\":828:854  return payable(msg.sender) */\n      swap1\n      pop\n        /* \"BEPContext.sol\":760:859  function _msgSender() internal view returns (address payable) {... */\n      swap1\n      jump\t// out\n        /* \"BEPOwnable.sol\":2090:2301  function _transferOwnership(address newOwner) internal {... */\n    tag_114:\n        /* \"BEPOwnable.sol\":2179:2180  0 */\n      0x00\n        /* \"BEPOwnable.sol\":2159:2181  newOwner != address(0) */\n      0xffffffffffffffffffffffffffffffffffffffff\n      and\n        /* \"BEPOwnable.sol\":2159:2167  newOwner */\n      dup2\n        /* \"BEPOwnable.sol\":2159:2181  newOwner != address(0) */\n      0xffffffffffffffffffffffffffffffffffffffff\n      and\n      eq\n      iszero\n        /* \"BEPOwnable.sol\":2151:2224  require(newOwner != address(0), \"Ownable: new owner is the zero address\") */\n      tag_117\n      jumpi\n      mload(0x40)\n      0x08c379a000000000000000000000000000000000000000000000000000000000\n      dup2\n      mstore\n      0x04\n      add\n      tag_118\n      swap1\n      tag_119\n      jump\t// in\n    tag_118:\n      mload(0x40)\n      dup1\n      swap2\n      sub\n      swap1\n      revert\n    tag_117:\n        /* \"BEPOwnable.sol\":2264:2272  newOwner */\n      dup1\n        /* \"BEPOwnable.sol\":2235:2273  OwnershipTransferred(_owner, newOwner) */\n      0xffffffffffffffffffffffffffffffffffffffff\n      and\n        /* \"BEPOwnable.sol\":2256:2262  _owner */\n      0x00\n      dup1\n      sload\n      swap1\n      0x0100\n      exp\n      swap1\n      div\n      0xffffffffffffffffffffffffffffffffffffffff\n      and\n        /* \"BEPOwnable.sol\":2235:2273  OwnershipTransferred(_owner, newOwner) */\n      0xffffffffffffffffffffffffffffffffffffffff\n      and\n      0x8be0079c531659141344cd1fd0a4f28419497f9722a3daafe3b4186f6b6457e0\n      mload(0x40)\n      mload(0x40)\n      dup1\n      swap2\n      sub\n      swap1\n      log3\n        /* \"BEPOwnable.sol\":2288:2296  newOwner */\n      dup1\n        /* \"BEPOwnable.sol\":2279:2285  _owner */\n      0x00\n      dup1\n        /* \"BEPOwnable.sol\":2279:2296  _owner = newOwner */\n      0x0100\n      exp\n      dup2\n      sload\n      dup2\n      0xffffffffffffffffffffffffffffffffffffffff\n      mul\n      not\n      and\n      swap1\n      dup4\n      0xffffffffffffffffffffffffffffffffffffffff\n      and\n      mul\n      or\n      swap1\n      sstore\n      pop\n        /* \"BEPOwnable.sol\":2090:2301  function _transferOwnership(address newOwner) internal {... */\n      pop\n      jump\t// out\n        /* \"#utility.yul\":7:146   */\n    tag_121:\n        /* \"#utility.yul\":53:58   */\n      0x00\n        /* \"#utility.yul\":91:97   */\n      dup2\n        /* \"#utility.yul\":78:98   */\n      calldataload\n        /* \"#utility.yul\":69:98   */\n      swap1\n      pop\n        /* \"#utility.yul\":107:140   */\n      tag_123\n        /* \"#utility.yul\":134:139   */\n      dup2\n        /* \"#utility.yul\":107:140   */\n      tag_124\n      jump\t// in\n    tag_123:\n        /* \"#utility.yul\":7:146   */\n      swap3\n      swap2\n      pop\n      pop\n      jump\t// out\n        /* \"#utility.yul\":152:289   */\n    tag_125:\n        /* \"#utility.yul\":206:211   */\n      0x00\n        /* \"#utility.yul\":237:243   */\n      dup2\n        /* \"#utility.yul\":231:244   */\n      mload\n        /* \"#utility.yul\":222:244   */\n      swap1\n      pop\n        /* \"#utility.yul\":253:283   */\n      tag_127\n        /* \"#utility.yul\":277:282   */\n      dup2\n        /* \"#utility.yul\":253:283   */\n      tag_128\n      jump\t// in\n    tag_127:\n        /* \"#utility.yul\":152:289   */\n      swap3\n      swap2\n      pop\n      pop\n      jump\t// out\n        /* \"#utility.yul\":295:438   */\n    tag_129:\n        /* \"#utility.yul\":352:357   */\n      0x00\n        /* \"#utility.yul\":383:389   */\n      dup2\n        /* \"#utility.yul\":377:390   */\n      mload\n        /* \"#utility.yul\":368:390   */\n      swap1\n      pop\n        /* \"#utility.yul\":399:432   */\n      tag_131\n        /* \"#utility.yul\":426:431   */\n      dup2\n        /* \"#utility.yul\":399:432   */\n      tag_132\n      jump\t// in\n    tag_131:\n        /* \"#utility.yul\":295:438   */\n      swap3\n      swap2\n      pop\n      pop\n      jump\t// out\n        /* \"#utility.yul\":444:773   */\n    tag_19:\n        /* \"#utility.yul\":503:509   */\n      0x00\n        /* \"#utility.yul\":552:554   */\n      0x20\n        /* \"#utility.yul\":540:549   */\n      dup3\n        /* \"#utility.yul\":531:538   */\n      dup5\n        /* \"#utility.yul\":527:550   */\n      sub\n        /* \"#utility.yul\":523:555   */\n      slt\n        /* \"#utility.yul\":520:639   */\n      iszero\n      tag_134\n      jumpi\n        /* \"#utility.yul\":558:637   */\n      tag_135\n      tag_136\n      jump\t// in\n    tag_135:\n        /* \"#utility.yul\":520:639   */\n    tag_134:\n        /* \"#utility.yul\":678:679   */\n      0x00\n        /* \"#utility.yul\":703:756   */\n      tag_137\n        /* \"#utility.yul\":748:755   */\n      dup5\n        /* \"#utility.yul\":739:745   */\n      dup3\n        /* \"#utility.yul\":728:737   */\n      dup6\n        /* \"#utility.yul\":724:746   */\n      add\n        /* \"#utility.yul\":703:756   */\n      tag_121\n      jump\t// in\n    tag_137:\n        /* \"#utility.yul\":693:756   */\n      swap2\n      pop\n        /* \"#utility.yul\":649:766   */\n      pop\n        /* \"#utility.yul\":444:773   */\n      swap3\n      swap2\n      pop\n      pop\n      jump\t// out\n        /* \"#utility.yul\":779:1124   */\n    tag_78:\n        /* \"#utility.yul\":846:852   */\n      0x00\n        /* \"#utility.yul\":895:897   */\n      0x20\n        /* \"#utility.yul\":883:892   */\n      dup3\n        /* \"#utility.yul\":874:881   */\n      dup5\n        /* \"#utility.yul\":870:893   */\n      sub\n        /* \"#utility.yul\":866:898   */\n      slt\n        /* \"#utility.yul\":863:982   */\n      iszero\n      tag_139\n      jumpi\n        /* \"#utility.yul\":901:980   */\n      tag_140\n      tag_136\n      jump\t// in\n    tag_140:\n        /* \"#utility.yul\":863:982   */\n    tag_139:\n        /* \"#utility.yul\":1021:1022   */\n      0x00\n        /* \"#utility.yul\":1046:1107   */\n      tag_141\n        /* \"#utility.yul\":1099:1106   */\n      dup5\n        /* \"#utility.yul\":1090:1096   */\n      dup3\n        /* \"#utility.yul\":1079:1088   */\n      dup6\n        /* \"#utility.yul\":1075:1097   */\n      add\n        /* \"#utility.yul\":1046:1107   */\n      tag_125\n      jump\t// in\n    tag_141:\n        /* \"#utility.yul\":1036:1107   */\n      swap2\n      pop\n        /* \"#utility.yul\":992:1117   */\n      pop\n        /* \"#utility.yul\":779:1124   */\n      swap3\n      swap2\n      pop\n      pop\n      jump\t// out\n        /* \"#utility.yul\":1130:1481   */\n    tag_70:\n        /* \"#utility.yul\":1200:1206   */\n      0x00\n        /* \"#utility.yul\":1249:1251   */\n      0x20\n        /* \"#utility.yul\":1237:1246   */\n      dup3\n        /* \"#utility.yul\":1228:1235   */\n      dup5\n        /* \"#utility.yul\":1224:1247   */\n      sub\n        /* \"#utility.yul\":1220:1252   */\n      slt\n        /* \"#utility.yul\":1217:1336   */\n      iszero\n      tag_143\n      jumpi\n        /* \"#utility.yul\":1255:1334   */\n      tag_144\n      tag_136\n      jump\t// in\n    tag_144:\n        /* \"#utility.yul\":1217:1336   */\n    tag_143:\n        /* \"#utility.yul\":1375:1376   */\n      0x00\n        /* \"#utility.yul\":1400:1464   */\n      tag_145\n        /* \"#utility.yul\":1456:1463   */\n      dup5\n        /* \"#utility.yul\":1447:1453   */\n      dup3\n        /* \"#utility.yul\":1436:1445   */\n      dup6\n        /* \"#utility.yul\":1432:1454   */\n      add\n        /* \"#utility.yul\":1400:1464   */\n      tag_129\n      jump\t// in\n    tag_145:\n        /* \"#utility.yul\":1390:1464   */\n      swap2\n      pop\n        /* \"#utility.yul\":1346:1474   */\n      pop\n        /* \"#utility.yul\":1130:1481   */\n      swap3\n      swap2\n      pop\n      pop\n      jump\t// out\n        /* \"#utility.yul\":1487:1605   */\n    tag_146:\n        /* \"#utility.yul\":1574:1598   */\n      tag_148\n        /* \"#utility.yul\":1592:1597   */\n      dup2\n        /* \"#utility.yul\":1574:1598   */\n      tag_149\n      jump\t// in\n    tag_148:\n        /* \"#utility.yul\":1569:1572   */\n      dup3\n        /* \"#utility.yul\":1562:1599   */\n      mstore\n        /* \"#utility.yul\":1487:1605   */\n      pop\n      pop\n      jump\t// out\n        /* \"#utility.yul\":1611:1720   */\n    tag_150:\n        /* \"#utility.yul\":1692:1713   */\n      tag_152\n        /* \"#utility.yul\":1707:1712   */\n      dup2\n        /* \"#utility.yul\":1692:1713   */\n      tag_153\n      jump\t// in\n    tag_152:\n        /* \"#utility.yul\":1687:1690   */\n      dup3\n        /* \"#utility.yul\":1680:1714   */\n      mstore\n        /* \"#utility.yul\":1611:1720   */\n      pop\n      pop\n      jump\t// out\n        /* \"#utility.yul\":1726:2092   */\n    tag_154:\n        /* \"#utility.yul\":1868:1871   */\n      0x00\n        /* \"#utility.yul\":1889:1956   */\n      tag_156\n        /* \"#utility.yul\":1953:1955   */\n      0x26\n        /* \"#utility.yul\":1948:1951   */\n      dup4\n        /* \"#utility.yul\":1889:1956   */\n      tag_157\n      jump\t// in\n    tag_156:\n        /* \"#utility.yul\":1882:1956   */\n      swap2\n      pop\n        /* \"#utility.yul\":1965:2058   */\n      tag_158\n        /* \"#utility.yul\":2054:2057   */\n      dup3\n        /* \"#utility.yul\":1965:2058   */\n      tag_159\n      jump\t// in\n    tag_158:\n        /* \"#utility.yul\":2083:2085   */\n      0x40\n        /* \"#utility.yul\":2078:2081   */\n      dup3\n        /* \"#utility.yul\":2074:2086   */\n      add\n        /* \"#utility.yul\":2067:2086   */\n      swap1\n      pop\n        /* \"#utility.yul\":1726:2092   */\n      swap2\n      swap1\n      pop\n      jump\t// out\n        /* \"#utility.yul\":2098:2464   */\n    tag_160:\n        /* \"#utility.yul\":2240:2243   */\n      0x00\n        /* \"#utility.yul\":2261:2328   */\n      tag_162\n        /* \"#utility.yul\":2325:2327   */\n      0x20\n        /* \"#utility.yul\":2320:2323   */\n      dup4\n        /* \"#utility.yul\":2261:2328   */\n      tag_157\n      jump\t// in\n    tag_162:\n        /* \"#utility.yul\":2254:2328   */\n      swap2\n      pop\n        /* \"#utility.yul\":2337:2430   */\n      tag_163\n        /* \"#utility.yul\":2426:2429   */\n      dup3\n        /* \"#utility.yul\":2337:2430   */\n      tag_164\n      jump\t// in\n    tag_163:\n        /* \"#utility.yul\":2455:2457   */\n      0x20\n        /* \"#utility.yul\":2450:2453   */\n      dup3\n        /* \"#utility.yul\":2446:2458   */\n      add\n        /* \"#utility.yul\":2439:2458   */\n      swap1\n      pop\n        /* \"#utility.yul\":2098:2464   */\n      swap2\n      swap1\n      pop\n      jump\t// out\n        /* \"#utility.yul\":2470:2588   */\n    tag_165:\n        /* \"#utility.yul\":2557:2581   */\n      tag_167\n        /* \"#utility.yul\":2575:2580   */\n      dup2\n        /* \"#utility.yul\":2557:2581   */\n      tag_168\n      jump\t// in\n    tag_167:\n        /* \"#utility.yul\":2552:2555   */\n      dup3\n        /* \"#utility.yul\":2545:2582   */\n      mstore\n        /* \"#utility.yul\":2470:2588   */\n      pop\n      pop\n      jump\t// out\n        /* \"#utility.yul\":2594:2816   */\n    tag_34:\n        /* \"#utility.yul\":2687:2691   */\n      0x00\n        /* \"#utility.yul\":2725:2727   */\n      0x20\n        /* \"#utility.yul\":2714:2723   */\n      dup3\n        /* \"#utility.yul\":2710:2728   */\n      add\n        /* \"#utility.yul\":2702:2728   */\n      swap1\n      pop\n        /* \"#utility.yul\":2738:2809   */\n      tag_170\n        /* \"#utility.yul\":2806:2807   */\n      0x00\n        /* \"#utility.yul\":2795:2804   */\n      dup4\n        /* \"#utility.yul\":2791:2808   */\n      add\n        /* \"#utility.yul\":2782:2788   */\n      dup5\n        /* \"#utility.yul\":2738:2809   */\n      tag_146\n      jump\t// in\n    tag_170:\n        /* \"#utility.yul\":2594:2816   */\n      swap3\n      swap2\n      pop\n      pop\n      jump\t// out\n        /* \"#utility.yul\":2822:3154   */\n    tag_73:\n        /* \"#utility.yul\":2943:2947   */\n      0x00\n        /* \"#utility.yul\":2981:2983   */\n      0x40\n        /* \"#utility.yul\":2970:2979   */\n      dup3\n        /* \"#utility.yul\":2966:2984   */\n      add\n        /* \"#utility.yul\":2958:2984   */\n      swap1\n      pop\n        /* \"#utility.yul\":2994:3065   */\n      tag_172\n        /* \"#utility.yul\":3062:3063   */\n      0x00\n        /* \"#utility.yul\":3051:3060   */\n      dup4\n        /* \"#utility.yul\":3047:3064   */\n      add\n        /* \"#utility.yul\":3038:3044   */\n      dup6\n        /* \"#utility.yul\":2994:3065   */\n      tag_146\n      jump\t// in\n    tag_172:\n        /* \"#utility.yul\":3075:3147   */\n      tag_173\n        /* \"#utility.yul\":3143:3145   */\n      0x20\n        /* \"#utility.yul\":3132:3141   */\n      dup4\n        /* \"#utility.yul\":3128:3146   */\n      add\n        /* \"#utility.yul\":3119:3125   */\n      dup5\n        /* \"#utility.yul\":3075:3147   */\n      tag_165\n      jump\t// in\n    tag_173:\n        /* \"#utility.yul\":2822:3154   */\n      swap4\n      swap3\n      pop\n      pop\n      pop\n      jump\t// out\n        /* \"#utility.yul\":3160:3370   */\n    tag_39:\n        /* \"#utility.yul\":3247:3251   */\n      0x00\n        /* \"#utility.yul\":3285:3287   */\n      0x20\n        /* \"#utility.yul\":3274:3283   */\n      dup3\n        /* \"#utility.yul\":3270:3288   */\n      add\n        /* \"#utility.yul\":3262:3288   */\n      swap1\n      pop\n        /* \"#utility.yul\":3298:3363   */\n      tag_175\n        /* \"#utility.yul\":3360:3361   */\n      0x00\n        /* \"#utility.yul\":3349:3358   */\n      dup4\n        /* \"#utility.yul\":3345:3362   */\n      add\n        /* \"#utility.yul\":3336:3342   */\n      dup5\n        /* \"#utility.yul\":3298:3363   */\n      tag_150\n      jump\t// in\n    tag_175:\n        /* \"#utility.yul\":3160:3370   */\n      swap3\n      swap2\n      pop\n      pop\n      jump\t// out\n        /* \"#utility.yul\":3376:3795   */\n    tag_119:\n        /* \"#utility.yul\":3542:3546   */\n      0x00\n        /* \"#utility.yul\":3580:3582   */\n      0x20\n        /* \"#utility.yul\":3569:3578   */\n      dup3\n        /* \"#utility.yul\":3565:3583   */\n      add\n        /* \"#utility.yul\":3557:3583   */\n      swap1\n      pop\n        /* \"#utility.yul\":3629:3638   */\n      dup2\n        /* \"#utility.yul\":3623:3627   */\n      dup2\n        /* \"#utility.yul\":3619:3639   */\n      sub\n        /* \"#utility.yul\":3615:3616   */\n      0x00\n        /* \"#utility.yul\":3604:3613   */\n      dup4\n        /* \"#utility.yul\":3600:3617   */\n      add\n        /* \"#utility.yul\":3593:3640   */\n      mstore\n        /* \"#utility.yul\":3657:3788   */\n      tag_177\n        /* \"#utility.yul\":3783:3787   */\n      dup2\n        /* \"#utility.yul\":3657:3788   */\n      tag_154\n      jump\t// in\n    tag_177:\n        /* \"#utility.yul\":3649:3788   */\n      swap1\n      pop\n        /* \"#utility.yul\":3376:3795   */\n      swap2\n      swap1\n      pop\n      jump\t// out\n        /* \"#utility.yul\":3801:4220   */\n    tag_63:\n        /* \"#utility.yul\":3967:3971   */\n      0x00\n        /* \"#utility.yul\":4005:4007   */\n      0x20\n        /* \"#utility.yul\":3994:4003   */\n      dup3\n        /* \"#utility.yul\":3990:4008   */\n      add\n        /* \"#utility.yul\":3982:4008   */\n      swap1\n      pop\n        /* \"#utility.yul\":4054:4063   */\n      dup2\n        /* \"#utility.yul\":4048:4052   */\n      dup2\n        /* \"#utility.yul\":4044:4064   */\n      sub\n        /* \"#utility.yul\":4040:4041   */\n      0x00\n        /* \"#utility.yul\":4029:4038   */\n      dup4\n        /* \"#utility.yul\":4025:4042   */\n      add\n        /* \"#utility.yul\":4018:4065   */\n      mstore\n        /* \"#utility.yul\":4082:4213   */\n      tag_179\n        /* \"#utility.yul\":4208:4212   */\n      dup2\n        /* \"#utility.yul\":4082:4213   */\n      tag_160\n      jump\t// in\n    tag_179:\n        /* \"#utility.yul\":4074:4213   */\n      swap1\n      pop\n        /* \"#utility.yul\":3801:4220   */\n      swap2\n      swap1\n      pop\n      jump\t// out\n        /* \"#utility.yul\":4226:4448   */\n    tag_26:\n        /* \"#utility.yul\":4319:4323   */\n      0x00\n        /* \"#utility.yul\":4357:4359   */\n      0x20\n        /* \"#utility.yul\":4346:4355   */\n      dup3\n        /* \"#utility.yul\":4342:4360   */\n      add\n        /* \"#utility.yul\":4334:4360   */\n      swap1\n      pop\n        /* \"#utility.yul\":4370:4441   */\n      tag_181\n        /* \"#utility.yul\":4438:4439   */\n      0x00\n        /* \"#utility.yul\":4427:4436   */\n      dup4\n        /* \"#utility.yul\":4423:4440   */\n      add\n        /* \"#utility.yul\":4414:4420   */\n      dup5\n        /* \"#utility.yul\":4370:4441   */\n      tag_165\n      jump\t// in\n    tag_181:\n        /* \"#utility.yul\":4226:4448   */\n      swap3\n      swap2\n      pop\n      pop\n      jump\t// out\n        /* \"#utility.yul\":4535:4704   */\n    tag_157:\n        /* \"#utility.yul\":4619:4630   */\n      0x00\n        /* \"#utility.yul\":4653:4659   */\n      dup3\n        /* \"#utility.yul\":4648:4651   */\n      dup3\n        /* \"#utility.yul\":4641:4660   */\n      mstore\n        /* \"#utility.yul\":4693:4697   */\n      0x20\n        /* \"#utility.yul\":4688:4691   */\n      dup3\n        /* \"#utility.yul\":4684:4698   */\n      add\n        /* \"#utility.yul\":4669:4698   */\n      swap1\n      pop\n        /* \"#utility.yul\":4535:4704   */\n      swap3\n      swap2\n      pop\n      pop\n      jump\t// out\n        /* \"#utility.yul\":4710:4806   */\n    tag_149:\n        /* \"#utility.yul\":4747:4754   */\n      0x00\n        /* \"#utility.yul\":4776:4800   */\n      tag_186\n        /* \"#utility.yul\":4794:4799   */\n      dup3\n        /* \"#utility.yul\":4776:4800   */\n      tag_187\n      jump\t// in\n    tag_186:\n        /* \"#utility.yul\":4765:4800   */\n      swap1\n      pop\n        /* \"#utility.yul\":4710:4806   */\n      swap2\n      swap1\n      pop\n      jump\t// out\n        /* \"#utility.yul\":4812:4902   */\n    tag_153:\n        /* \"#utility.yul\":4846:4853   */\n      0x00\n        /* \"#utility.yul\":4889:4894   */\n      dup2\n        /* \"#utility.yul\":4882:4895   */\n      iszero\n        /* \"#utility.yul\":4875:4896   */\n      iszero\n        /* \"#utility.yul\":4864:4896   */\n      swap1\n      pop\n        /* \"#utility.yul\":4812:4902   */\n      swap2\n      swap1\n      pop\n      jump\t// out\n        /* \"#utility.yul\":4908:5034   */\n    tag_187:\n        /* \"#utility.yul\":4945:4952   */\n      0x00\n        /* \"#utility.yul\":4985:5027   */\n      0xffffffffffffffffffffffffffffffffffffffff\n        /* \"#utility.yul\":4978:4983   */\n      dup3\n        /* \"#utility.yul\":4974:5028   */\n      and\n        /* \"#utility.yul\":4963:5028   */\n      swap1\n      pop\n        /* \"#utility.yul\":4908:5034   */\n      swap2\n      swap1\n      pop\n      jump\t// out\n        /* \"#utility.yul\":5040:5117   */\n    tag_168:\n        /* \"#utility.yul\":5077:5084   */\n      0x00\n        /* \"#utility.yul\":5106:5111   */\n      dup2\n        /* \"#utility.yul\":5095:5111   */\n      swap1\n      pop\n        /* \"#utility.yul\":5040:5117   */\n      swap2\n      swap1\n      pop\n      jump\t// out\n        /* \"#utility.yul\":5246:5363   */\n    tag_136:\n        /* \"#utility.yul\":5355:5356   */\n      0x00\n        /* \"#utility.yul\":5352:5353   */\n      dup1\n        /* \"#utility.yul\":5345:5357   */\n      revert\n        /* \"#utility.yul\":5369:5594   */\n    tag_159:\n        /* \"#utility.yul\":5509:5543   */\n      0x4f776e61626c653a206e6577206f776e657220697320746865207a65726f2061\n        /* \"#utility.yul\":5505:5506   */\n      0x00\n        /* \"#utility.yul\":5497:5503   */\n      dup3\n        /* \"#utility.yul\":5493:5507   */\n      add\n        /* \"#utility.yul\":5486:5544   */\n      mstore\n        /* \"#utility.yul\":5578:5586   */\n      0x6464726573730000000000000000000000000000000000000000000000000000\n        /* \"#utility.yul\":5573:5575   */\n      0x20\n        /* \"#utility.yul\":5565:5571   */\n      dup3\n        /* \"#utility.yul\":5561:5576   */\n      add\n        /* \"#utility.yul\":5554:5587   */\n      mstore\n        /* \"#utility.yul\":5369:5594   */\n      pop\n      jump\t// out\n        /* \"#utility.yul\":5600:5782   */\n    tag_164:\n        /* \"#utility.yul\":5740:5774   */\n      0x4f776e61626c653a2063616c6c6572206973206e6f7420746865206f776e6572\n        /* \"#utility.yul\":5736:5737   */\n      0x00\n        /* \"#utility.yul\":5728:5734   */\n      dup3\n        /* \"#utility.yul\":5724:5738   */\n      add\n        /* \"#utility.yul\":5717:5775   */\n      mstore\n        /* \"#utility.yul\":5600:5782   */\n      pop\n      jump\t// out\n        /* \"#utility.yul\":5788:5910   */\n    tag_124:\n        /* \"#utility.yul\":5861:5885   */\n      tag_197\n        /* \"#utility.yul\":5879:5884   */\n      dup2\n        /* \"#utility.yul\":5861:5885   */\n      tag_149\n      jump\t// in\n    tag_197:\n        /* \"#utility.yul\":5854:5859   */\n      dup2\n        /* \"#utility.yul\":5851:5886   */\n      eq\n        /* \"#utility.yul\":5841:5904   */\n      tag_198\n      jumpi\n        /* \"#utility.yul\":5900:5901   */\n      0x00\n        /* \"#utility.yul\":5897:5898   */\n      dup1\n        /* \"#utility.yul\":5890:5902   */\n      revert\n        /* \"#utility.yul\":5841:5904   */\n    tag_198:\n        /* \"#utility.yul\":5788:5910   */\n      pop\n      jump\t// out\n        /* \"#utility.yul\":5916:6032   */\n    tag_128:\n        /* \"#utility.yul\":5986:6007   */\n      tag_200\n        /* \"#utility.yul\":6001:6006   */\n      dup2\n        /* \"#utility.yul\":5986:6007   */\n      tag_153\n      jump\t// in\n    tag_200:\n        /* \"#utility.yul\":5979:5984   */\n      dup2\n        /* \"#utility.yul\":5976:6008   */\n      eq\n        /* \"#utility.yul\":5966:6026   */\n      tag_201\n      jumpi\n        /* \"#utility.yul\":6022:6023   */\n      0x00\n        /* \"#utility.yul\":6019:6020   */\n      dup1\n        /* \"#utility.yul\":6012:6024   */\n      revert\n        /* \"#utility.yul\":5966:6026   */\n    tag_201:\n        /* \"#utility.yul\":5916:6032   */\n      pop\n      jump\t// out\n        /* \"#utility.yul\":6038:6160   */\n    tag_132:\n        /* \"#utility.yul\":6111:6135   */\n      tag_203\n        /* \"#utility.yul\":6129:6134   */\n      dup2\n        /* \"#utility.yul\":6111:6135   */\n      tag_168\n      jump\t// in\n    tag_203:\n        /* \"#utility.yul\":6104:6109   */\n      dup2\n        /* \"#utility.yul\":6101:6136   */\n      eq\n        /* \"#utility.yul\":6091:6154   */\n      tag_204\n      jumpi\n        /* \"#utility.yul\":6150:6151   */\n      0x00\n        /* \"#utility.yul\":6147:6148   */\n      dup1\n        /* \"#utility.yul\":6140:6152   */\n      revert\n        /* \"#utility.yul\":6091:6154   */\n    tag_204:\n        /* \"#utility.yul\":6038:6160   */\n      pop\n      jump\t// out\n\n    auxdata: 0xa26469706673582212208386d20e8cad2585999ec0094daaebe833b7a1ffea72718eb923405844bcfc9b64736f6c63430008070033\n}\n",
				"bytecode": {
					"linkReferences": {},
					"object": "6080604052600061001461010c60201b60201c565b9050806000806101000a81548173ffffffffffffffffffffffffffffffffffffffff021916908373ffffffffffffffffffffffffffffffffffffffff1602179055508073ffffffffffffffffffffffffffffffffffffffff16600073ffffffffffffffffffffffffffffffffffffffff167f8be0079c531659141344cd1fd0a4f28419497f9722a3daafe3b4186f6b6457e060405160405180910390a35073fa0e47a2d6a58b9fd7ca1d4bfaadd11e8811824b600160006101000a81548173ffffffffffffffffffffffffffffffffffffffff021916908373ffffffffffffffffffffffffffffffffffffffff160217905550610114565b600033905090565b610c29806101236000396000f3fe6080604052600436106100945760003560e01c80639694ce75116100595780639694ce7514610173578063ac4b3b0a1461018a578063bc127127146101b5578063cc24c800146101e0578063f2fde38b146102095761009b565b8062f29d5f146100a057806348eca45c146100c9578063715018a6146101065780638da5cb5b1461011d5780638f32d59b146101485761009b565b3661009b57005b600080fd5b3480156100ac57600080fd5b506100c760048036038101906100c29190610924565b610232565b005b3480156100d557600080fd5b506100f060048036038101906100eb9190610924565b6103c4565b6040516100fd9190610abd565b60405180910390f35b34801561011257600080fd5b5061011b610456565b005b34801561012957600080fd5b5061013261055b565b60405161013f9190610a1e565b60405180910390f35b34801561015457600080fd5b5061015d610584565b60405161016a9190610a62565b60405180910390f35b34801561017f57600080fd5b506101886105e2565b005b34801561019657600080fd5b5061019f6106a4565b6040516101ac9190610a1e565b60405180910390f35b3480156101c157600080fd5b506101ca6106ca565b6040516101d79190610abd565b60405180910390f35b3480156101ec57600080fd5b5061020760048036038101906102029190610924565b6106d2565b005b34801561021557600080fd5b50610230600480360381019061022b9190610924565b61075d565b005b61023a610584565b610279576040517f08c379a000000000000000000000000000000000000000000000000000000000815260040161027090610a9d565b60405180910390fd5b60008173ffffffffffffffffffffffffffffffffffffffff166370a08231306040518263ffffffff1660e01b81526004016102b49190610a1e565b60206040518083038186803b1580156102cc57600080fd5b505afa1580156102e0573d6000803e3d6000fd5b505050506040513d601f19601f82011682018060405250810190610304919061097e565b905060008111156103c0578173ffffffffffffffffffffffffffffffffffffffff1663a9059cbb600160009054906101000a900473ffffffffffffffffffffffffffffffffffffffff16836040518363ffffffff1660e01b815260040161036c929190610a39565b602060405180830381600087803b15801561038657600080fd5b505af115801561039a573d6000803e3d6000fd5b505050506040513d601f19601f820116820180604052508101906103be9190610951565b505b5050565b60008173ffffffffffffffffffffffffffffffffffffffff166370a08231306040518263ffffffff1660e01b81526004016103ff9190610a1e565b60206040518083038186803b15801561041757600080fd5b505afa15801561042b573d6000803e3d6000fd5b505050506040513d601f19601f8201168201806040525081019061044f919061097e565b9050919050565b61045e610584565b61049d576040517f08c379a000000000000000000000000000000000000000000000000000000000815260040161049490610a9d565b60405180910390fd5b600073ffffffffffffffffffffffffffffffffffffffff1660008054906101000a900473ffffffffffffffffffffffffffffffffffffffff1673ffffffffffffffffffffffffffffffffffffffff167f8be0079c531659141344cd1fd0a4f28419497f9722a3daafe3b4186f6b6457e060405160405180910390a360008060006101000a81548173ffffffffffffffffffffffffffffffffffffffff021916908373ffffffffffffffffffffffffffffffffffffffff160217905550565b60008060009054906101000a900473ffffffffffffffffffffffffffffffffffffffff16905090565b60008060009054906101000a900473ffffffffffffffffffffffffffffffffffffffff1673ffffffffffffffffffffffffffffffffffffffff166105c66107b0565b73ffffffffffffffffffffffffffffffffffffffff1614905090565b6105ea610584565b610629576040517f08c379a000000000000000000000000000000000000000000000000000000000815260040161062090610a9d565b60405180910390fd5b600047905060008111156106a157600160009054906101000a900473ffffffffffffffffffffffffffffffffffffffff1673ffffffffffffffffffffffffffffffffffffffff166108fc829081150290604051600060405180830381858888f1935050505015801561069f573d6000803e3d6000fd5b505b50565b600160009054906101000a900473ffffffffffffffffffffffffffffffffffffffff1681565b600047905090565b6106da610584565b610719576040517f08c379a000000000000000000000000000000000000000000000000000000000815260040161071090610a9d565b60405180910390fd5b80600160006101000a81548173ffffffffffffffffffffffffffffffffffffffff021916908373ffffffffffffffffffffffffffffffffffffffff16021790555050565b610765610584565b6107a4576040517f08c379a000000000000000000000000000000000000000000000000000000000815260040161079b90610a9d565b60405180910390fd5b6107ad816107b8565b50565b600033905090565b600073ffffffffffffffffffffffffffffffffffffffff168173ffffffffffffffffffffffffffffffffffffffff161415610828576040517f08c379a000000000000000000000000000000000000000000000000000000000815260040161081f90610a7d565b60405180910390fd5b8073ffffffffffffffffffffffffffffffffffffffff1660008054906101000a900473ffffffffffffffffffffffffffffffffffffffff1673ffffffffffffffffffffffffffffffffffffffff167f8be0079c531659141344cd1fd0a4f28419497f9722a3daafe3b4186f6b6457e060405160405180910390a3806000806101000a81548173ffffffffffffffffffffffffffffffffffffffff021916908373ffffffffffffffffffffffffffffffffffffffff16021790555050565b6000813590506108f481610bae565b92915050565b60008151905061090981610bc5565b92915050565b60008151905061091e81610bdc565b92915050565b60006020828403121561093a57610939610b31565b5b6000610948848285016108e5565b91505092915050565b60006020828403121561096757610966610b31565b5b6000610975848285016108fa565b91505092915050565b60006020828403121561099457610993610b31565b5b60006109a28482850161090f565b91505092915050565b6109b481610ae9565b82525050565b6109c381610afb565b82525050565b60006109d6602683610ad8565b91506109e182610b36565b604082019050919050565b60006109f9602083610ad8565b9150610a0482610b85565b602082019050919050565b610a1881610b27565b82525050565b6000602082019050610a3360008301846109ab565b92915050565b6000604082019050610a4e60008301856109ab565b610a5b6020830184610a0f565b9392505050565b6000602082019050610a7760008301846109ba565b92915050565b60006020820190508181036000830152610a96816109c9565b9050919050565b60006020820190508181036000830152610ab6816109ec565b9050919050565b6000602082019050610ad26000830184610a0f565b92915050565b600082825260208201905092915050565b6000610af482610b07565b9050919050565b60008115159050919050565b600073ffffffffffffffffffffffffffffffffffffffff82169050919050565b6000819050919050565b600080fd5b7f4f776e61626c653a206e6577206f776e657220697320746865207a65726f206160008201527f6464726573730000000000000000000000000000000000000000000000000000602082015250565b7f4f776e61626c653a2063616c6c6572206973206e6f7420746865206f776e6572600082015250565b610bb781610ae9565b8114610bc257600080fd5b50565b610bce81610afb565b8114610bd957600080fd5b50565b610be581610b27565b8114610bf057600080fd5b5056fea26469706673582212208386d20e8cad2585999ec0094daaebe833b7a1ffea72718eb923405844bcfc9b64736f6c63430008070033",
					"opcodes": "PUSH1 0x80 PUSH1 0x40 MSTORE PUSH1 0x0 PUSH2 0x14 PUSH2 0x10C PUSH1 0x20 SHL PUSH1 0x20 SHR JUMP JUMPDEST SWAP1 POP DUP1 PUSH1 0x0 DUP1 PUSH2 0x100 EXP DUP2 SLOAD DUP2 PUSH20 0xFFFFFFFFFFFFFFFFFFFFFFFFFFFFFFFFFFFFFFFF MUL NOT AND SWAP1 DUP4 PUSH20 0xFFFFFFFFFFFFFFFFFFFFFFFFFFFFFFFFFFFFFFFF AND MUL OR SWAP1 SSTORE POP DUP1 PUSH20 0xFFFFFFFFFFFFFFFFFFFFFFFFFFFFFFFFFFFFFFFF AND PUSH1 0x0 PUSH20 0xFFFFFFFFFFFFFFFFFFFFFFFFFFFFFFFFFFFFFFFF AND PUSH32 0x8BE0079C531659141344CD1FD0A4F28419497F9722A3DAAFE3B4186F6B6457E0 PUSH1 0x40 MLOAD PUSH1 0x40 MLOAD DUP1 SWAP2 SUB SWAP1 LOG3 POP PUSH20 0xFA0E47A2D6A58B9FD7CA1D4BFAADD11E8811824B PUSH1 0x1 PUSH1 0x0 PUSH2 0x100 EXP DUP2 SLOAD DUP2 PUSH20 0xFFFFFFFFFFFFFFFFFFFFFFFFFFFFFFFFFFFFFFFF MUL NOT AND SWAP1 DUP4 PUSH20 0xFFFFFFFFFFFFFFFFFFFFFFFFFFFFFFFFFFFFFFFF AND MUL OR SWAP1 SSTORE POP PUSH2 0x114 JUMP JUMPDEST PUSH1 0x0 CALLER SWAP1 POP SWAP1 JUMP JUMPDEST PUSH2 0xC29 DUP1 PUSH2 0x123 PUSH1 0x0 CODECOPY PUSH1 0x0 RETURN INVALID PUSH1 0x80 PUSH1 0x40 MSTORE PUSH1 0x4 CALLDATASIZE LT PUSH2 0x94 JUMPI PUSH1 0x0 CALLDATALOAD PUSH1 0xE0 SHR DUP1 PUSH4 0x9694CE75 GT PUSH2 0x59 JUMPI DUP1 PUSH4 0x9694CE75 EQ PUSH2 0x173 JUMPI DUP1 PUSH4 0xAC4B3B0A EQ PUSH2 0x18A JUMPI DUP1 PUSH4 0xBC127127 EQ PUSH2 0x1B5 JUMPI DUP1 PUSH4 0xCC24C800 EQ PUSH2 0x1E0 JUMPI DUP1 PUSH4 0xF2FDE38B EQ PUSH2 0x209 JUMPI PUSH2 0x9B JUMP JUMPDEST DUP1 PUSH3 0xF29D5F EQ PUSH2 0xA0 JUMPI DUP1 PUSH4 0x48ECA45C EQ PUSH2 0xC9 JUMPI DUP1 PUSH4 0x715018A6 EQ PUSH2 0x106 JUMPI DUP1 PUSH4 0x8DA5CB5B EQ PUSH2 0x11D JUMPI DUP1 PUSH4 0x8F32D59B EQ PUSH2 0x148 JUMPI PUSH2 0x9B JUMP JUMPDEST CALLDATASIZE PUSH2 0x9B JUMPI STOP JUMPDEST PUSH1 0x0 DUP1 REVERT JUMPDEST CALLVALUE DUP1 ISZERO PUSH2 0xAC JUMPI PUSH1 0x0 DUP1 REVERT JUMPDEST POP PUSH2 0xC7 PUSH1 0x4 DUP1 CALLDATASIZE SUB DUP2 ADD SWAP1 PUSH2 0xC2 SWAP2 SWAP1 PUSH2 0x924 JUMP JUMPDEST PUSH2 0x232 JUMP JUMPDEST STOP JUMPDEST CALLVALUE DUP1 ISZERO PUSH2 0xD5 JUMPI PUSH1 0x0 DUP1 REVERT JUMPDEST POP PUSH2 0xF0 PUSH1 0x4 DUP1 CALLDATASIZE SUB DUP2 ADD SWAP1 PUSH2 0xEB SWAP2 SWAP1 PUSH2 0x924 JUMP JUMPDEST PUSH2 0x3C4 JUMP JUMPDEST PUSH1 0x40 MLOAD PUSH2 0xFD SWAP2 SWAP1 PUSH2 0xABD JUMP JUMPDEST PUSH1 0x40 MLOAD DUP1 SWAP2 SUB SWAP1 RETURN JUMPDEST CALLVALUE DUP1 ISZERO PUSH2 0x112 JUMPI PUSH1 0x0 DUP1 REVERT JUMPDEST POP PUSH2 0x11B PUSH2 0x456 JUMP JUMPDEST STOP JUMPDEST CALLVALUE DUP1 ISZERO PUSH2 0x129 JUMPI PUSH1 0x0 DUP1 REVERT JUMPDEST POP PUSH2 0x132 PUSH2 0x55B JUMP JUMPDEST PUSH1 0x40 MLOAD PUSH2 0x13F SWAP2 SWAP1 PUSH2 0xA1E JUMP JUMPDEST PUSH1 0x40 MLOAD DUP1 SWAP2 SUB SWAP1 RETURN JUMPDEST CALLVALUE DUP1 ISZERO PUSH2 0x154 JUMPI PUSH1 0x0 DUP1 REVERT JUMPDEST POP PUSH2 0x15D PUSH2 0x584 JUMP JUMPDEST PUSH1 0x40 MLOAD PUSH2 0x16A SWAP2 SWAP1 PUSH2 0xA62 JUMP JUMPDEST PUSH1 0x40 MLOAD DUP1 SWAP2 SUB SWAP1 RETURN JUMPDEST CALLVALUE DUP1 ISZERO PUSH2 0x17F JUMPI PUSH1 0x0 DUP1 REVERT JUMPDEST POP PUSH2 0x188 PUSH2 0x5E2 JUMP JUMPDEST STOP JUMPDEST CALLVALUE DUP1 ISZERO PUSH2 0x196 JUMPI PUSH1 0x0 DUP1 REVERT JUMPDEST POP PUSH2 0x19F PUSH2 0x6A4 JUMP JUMPDEST PUSH1 0x40 MLOAD PUSH2 0x1AC SWAP2 SWAP1 PUSH2 0xA1E JUMP JUMPDEST PUSH1 0x40 MLOAD DUP1 SWAP2 SUB SWAP1 RETURN JUMPDEST CALLVALUE DUP1 ISZERO PUSH2 0x1C1 JUMPI PUSH1 0x0 DUP1 REVERT JUMPDEST POP PUSH2 0x1CA PUSH2 0x6CA JUMP JUMPDEST PUSH1 0x40 MLOAD PUSH2 0x1D7 SWAP2 SWAP1 PUSH2 0xABD JUMP JUMPDEST PUSH1 0x40 MLOAD DUP1 SWAP2 SUB SWAP1 RETURN JUMPDEST CALLVALUE DUP1 ISZERO PUSH2 0x1EC JUMPI PUSH1 0x0 DUP1 REVERT JUMPDEST POP PUSH2 0x207 PUSH1 0x4 DUP1 CALLDATASIZE SUB DUP2 ADD SWAP1 PUSH2 0x202 SWAP2 SWAP1 PUSH2 0x924 JUMP JUMPDEST PUSH2 0x6D2 JUMP JUMPDEST STOP JUMPDEST CALLVALUE DUP1 ISZERO PUSH2 0x215 JUMPI PUSH1 0x0 DUP1 REVERT JUMPDEST POP PUSH2 0x230 PUSH1 0x4 DUP1 CALLDATASIZE SUB DUP2 ADD SWAP1 PUSH2 0x22B SWAP2 SWAP1 PUSH2 0x924 JUMP JUMPDEST PUSH2 0x75D JUMP JUMPDEST STOP JUMPDEST PUSH2 0x23A PUSH2 0x584 JUMP JUMPDEST PUSH2 0x279 JUMPI PUSH1 0x40 MLOAD PUSH32 0x8C379A000000000000000000000000000000000000000000000000000000000 DUP2 MSTORE PUSH1 0x4 ADD PUSH2 0x270 SWAP1 PUSH2 0xA9D JUMP JUMPDEST PUSH1 0x40 MLOAD DUP1 SWAP2 SUB SWAP1 REVERT JUMPDEST PUSH1 0x0 DUP2 PUSH20 0xFFFFFFFFFFFFFFFFFFFFFFFFFFFFFFFFFFFFFFFF AND PUSH4 0x70A08231 ADDRESS PUSH1 0x40 MLOAD DUP3 PUSH4 0xFFFFFFFF AND PUSH1 0xE0 SHL DUP2 MSTORE PUSH1 0x4 ADD PUSH2 0x2B4 SWAP2 SWAP1 PUSH2 0xA1E JUMP JUMPDEST PUSH1 0x20 PUSH1 0x40 MLOAD DUP1 DUP4 SUB DUP2 DUP7 DUP1 EXTCODESIZE ISZERO DUP1 ISZERO PUSH2 0x2CC JUMPI PUSH1 0x0 DUP1 REVERT JUMPDEST POP GAS STATICCALL ISZERO DUP1 ISZERO PUSH2 0x2E0 JUMPI RETURNDATASIZE PUSH1 0x0 DUP1 RETURNDATACOPY RETURNDATASIZE PUSH1 0x0 REVERT JUMPDEST POP POP POP POP PUSH1 0x40 MLOAD RETURNDATASIZE PUSH1 0x1F NOT PUSH1 0x1F DUP3 ADD AND DUP3 ADD DUP1 PUSH1 0x40 MSTORE POP DUP2 ADD SWAP1 PUSH2 0x304 SWAP2 SWAP1 PUSH2 0x97E JUMP JUMPDEST SWAP1 POP PUSH1 0x0 DUP2 GT ISZERO PUSH2 0x3C0 JUMPI DUP2 PUSH20 0xFFFFFFFFFFFFFFFFFFFFFFFFFFFFFFFFFFFFFFFF AND PUSH4 0xA9059CBB PUSH1 0x1 PUSH1 0x0 SWAP1 SLOAD SWAP1 PUSH2 0x100 EXP SWAP1 DIV PUSH20 0xFFFFFFFFFFFFFFFFFFFFFFFFFFFFFFFFFFFFFFFF AND DUP4 PUSH1 0x40 MLOAD DUP4 PUSH4 0xFFFFFFFF AND PUSH1 0xE0 SHL DUP2 MSTORE PUSH1 0x4 ADD PUSH2 0x36C SWAP3 SWAP2 SWAP1 PUSH2 0xA39 JUMP JUMPDEST PUSH1 0x20 PUSH1 0x40 MLOAD DUP1 DUP4 SUB DUP2 PUSH1 0x0 DUP8 DUP1 EXTCODESIZE ISZERO DUP1 ISZERO PUSH2 0x386 JUMPI PUSH1 0x0 DUP1 REVERT JUMPDEST POP GAS CALL ISZERO DUP1 ISZERO PUSH2 0x39A JUMPI RETURNDATASIZE PUSH1 0x0 DUP1 RETURNDATACOPY RETURNDATASIZE PUSH1 0x0 REVERT JUMPDEST POP POP POP POP PUSH1 0x40 MLOAD RETURNDATASIZE PUSH1 0x1F NOT PUSH1 0x1F DUP3 ADD AND DUP3 ADD DUP1 PUSH1 0x40 MSTORE POP DUP2 ADD SWAP1 PUSH2 0x3BE SWAP2 SWAP1 PUSH2 0x951 JUMP JUMPDEST POP JUMPDEST POP POP JUMP JUMPDEST PUSH1 0x0 DUP2 PUSH20 0xFFFFFFFFFFFFFFFFFFFFFFFFFFFFFFFFFFFFFFFF AND PUSH4 0x70A08231 ADDRESS PUSH1 0x40 MLOAD DUP3 PUSH4 0xFFFFFFFF AND PUSH1 0xE0 SHL DUP2 MSTORE PUSH1 0x4 ADD PUSH2 0x3FF SWAP2 SWAP1 PUSH2 0xA1E JUMP JUMPDEST PUSH1 0x20 PUSH1 0x40 MLOAD DUP1 DUP4 SUB DUP2 DUP7 DUP1 EXTCODESIZE ISZERO DUP1 ISZERO PUSH2 0x417 JUMPI PUSH1 0x0 DUP1 REVERT JUMPDEST POP GAS STATICCALL ISZERO DUP1 ISZERO PUSH2 0x42B JUMPI RETURNDATASIZE PUSH1 0x0 DUP1 RETURNDATACOPY RETURNDATASIZE PUSH1 0x0 REVERT JUMPDEST POP POP POP POP PUSH1 0x40 MLOAD RETURNDATASIZE PUSH1 0x1F NOT PUSH1 0x1F DUP3 ADD AND DUP3 ADD DUP1 PUSH1 0x40 MSTORE POP DUP2 ADD SWAP1 PUSH2 0x44F SWAP2 SWAP1 PUSH2 0x97E JUMP JUMPDEST SWAP1 POP SWAP2 SWAP1 POP JUMP JUMPDEST PUSH2 0x45E PUSH2 0x584 JUMP JUMPDEST PUSH2 0x49D JUMPI PUSH1 0x40 MLOAD PUSH32 0x8C379A000000000000000000000000000000000000000000000000000000000 DUP2 MSTORE PUSH1 0x4 ADD PUSH2 0x494 SWAP1 PUSH2 0xA9D JUMP JUMPDEST PUSH1 0x40 MLOAD DUP1 SWAP2 SUB SWAP1 REVERT JUMPDEST PUSH1 0x0 PUSH20 0xFFFFFFFFFFFFFFFFFFFFFFFFFFFFFFFFFFFFFFFF AND PUSH1 0x0 DUP1 SLOAD SWAP1 PUSH2 0x100 EXP SWAP1 DIV PUSH20 0xFFFFFFFFFFFFFFFFFFFFFFFFFFFFFFFFFFFFFFFF AND PUSH20 0xFFFFFFFFFFFFFFFFFFFFFFFFFFFFFFFFFFFFFFFF AND PUSH32 0x8BE0079C531659141344CD1FD0A4F28419497F9722A3DAAFE3B4186F6B6457E0 PUSH1 0x40 MLOAD PUSH1 0x40 MLOAD DUP1 SWAP2 SUB SWAP1 LOG3 PUSH1 0x0 DUP1 PUSH1 0x0 PUSH2 0x100 EXP DUP2 SLOAD DUP2 PUSH20 0xFFFFFFFFFFFFFFFFFFFFFFFFFFFFFFFFFFFFFFFF MUL NOT AND SWAP1 DUP4 PUSH20 0xFFFFFFFFFFFFFFFFFFFFFFFFFFFFFFFFFFFFFFFF AND MUL OR SWAP1 SSTORE POP JUMP JUMPDEST PUSH1 0x0 DUP1 PUSH1 0x0 SWAP1 SLOAD SWAP1 PUSH2 0x100 EXP SWAP1 DIV PUSH20 0xFFFFFFFFFFFFFFFFFFFFFFFFFFFFFFFFFFFFFFFF AND SWAP1 POP SWAP1 JUMP JUMPDEST PUSH1 0x0 DUP1 PUSH1 0x0 SWAP1 SLOAD SWAP1 PUSH2 0x100 EXP SWAP1 DIV PUSH20 0xFFFFFFFFFFFFFFFFFFFFFFFFFFFFFFFFFFFFFFFF AND PUSH20 0xFFFFFFFFFFFFFFFFFFFFFFFFFFFFFFFFFFFFFFFF AND PUSH2 0x5C6 PUSH2 0x7B0 JUMP JUMPDEST PUSH20 0xFFFFFFFFFFFFFFFFFFFFFFFFFFFFFFFFFFFFFFFF AND EQ SWAP1 POP SWAP1 JUMP JUMPDEST PUSH2 0x5EA PUSH2 0x584 JUMP JUMPDEST PUSH2 0x629 JUMPI PUSH1 0x40 MLOAD PUSH32 0x8C379A000000000000000000000000000000000000000000000000000000000 DUP2 MSTORE PUSH1 0x4 ADD PUSH2 0x620 SWAP1 PUSH2 0xA9D JUMP JUMPDEST PUSH1 0x40 MLOAD DUP1 SWAP2 SUB SWAP1 REVERT JUMPDEST PUSH1 0x0 SELFBALANCE SWAP1 POP PUSH1 0x0 DUP2 GT ISZERO PUSH2 0x6A1 JUMPI PUSH1 0x1 PUSH1 0x0 SWAP1 SLOAD SWAP1 PUSH2 0x100 EXP SWAP1 DIV PUSH20 0xFFFFFFFFFFFFFFFFFFFFFFFFFFFFFFFFFFFFFFFF AND PUSH20 0xFFFFFFFFFFFFFFFFFFFFFFFFFFFFFFFFFFFFFFFF AND PUSH2 0x8FC DUP3 SWAP1 DUP2 ISZERO MUL SWAP1 PUSH1 0x40 MLOAD PUSH1 0x0 PUSH1 0x40 MLOAD DUP1 DUP4 SUB DUP2 DUP6 DUP9 DUP9 CALL SWAP4 POP POP POP POP ISZERO DUP1 ISZERO PUSH2 0x69F JUMPI RETURNDATASIZE PUSH1 0x0 DUP1 RETURNDATACOPY RETURNDATASIZE PUSH1 0x0 REVERT JUMPDEST POP JUMPDEST POP JUMP JUMPDEST PUSH1 0x1 PUSH1 0x0 SWAP1 SLOAD SWAP1 PUSH2 0x100 EXP SWAP1 DIV PUSH20 0xFFFFFFFFFFFFFFFFFFFFFFFFFFFFFFFFFFFFFFFF AND DUP2 JUMP JUMPDEST PUSH1 0x0 SELFBALANCE SWAP1 POP SWAP1 JUMP JUMPDEST PUSH2 0x6DA PUSH2 0x584 JUMP JUMPDEST PUSH2 0x719 JUMPI PUSH1 0x40 MLOAD PUSH32 0x8C379A000000000000000000000000000000000000000000000000000000000 DUP2 MSTORE PUSH1 0x4 ADD PUSH2 0x710 SWAP1 PUSH2 0xA9D JUMP JUMPDEST PUSH1 0x40 MLOAD DUP1 SWAP2 SUB SWAP1 REVERT JUMPDEST DUP1 PUSH1 0x1 PUSH1 0x0 PUSH2 0x100 EXP DUP2 SLOAD DUP2 PUSH20 0xFFFFFFFFFFFFFFFFFFFFFFFFFFFFFFFFFFFFFFFF MUL NOT AND SWAP1 DUP4 PUSH20 0xFFFFFFFFFFFFFFFFFFFFFFFFFFFFFFFFFFFFFFFF AND MUL OR SWAP1 SSTORE POP POP JUMP JUMPDEST PUSH2 0x765 PUSH2 0x584 JUMP JUMPDEST PUSH2 0x7A4 JUMPI PUSH1 0x40 MLOAD PUSH32 0x8C379A000000000000000000000000000000000000000000000000000000000 DUP2 MSTORE PUSH1 0x4 ADD PUSH2 0x79B SWAP1 PUSH2 0xA9D JUMP JUMPDEST PUSH1 0x40 MLOAD DUP1 SWAP2 SUB SWAP1 REVERT JUMPDEST PUSH2 0x7AD DUP2 PUSH2 0x7B8 JUMP JUMPDEST POP JUMP JUMPDEST PUSH1 0x0 CALLER SWAP1 POP SWAP1 JUMP JUMPDEST PUSH1 0x0 PUSH20 0xFFFFFFFFFFFFFFFFFFFFFFFFFFFFFFFFFFFFFFFF AND DUP2 PUSH20 0xFFFFFFFFFFFFFFFFFFFFFFFFFFFFFFFFFFFFFFFF AND EQ ISZERO PUSH2 0x828 JUMPI PUSH1 0x40 MLOAD PUSH32 0x8C379A000000000000000000000000000000000000000000000000000000000 DUP2 MSTORE PUSH1 0x4 ADD PUSH2 0x81F SWAP1 PUSH2 0xA7D JUMP JUMPDEST PUSH1 0x40 MLOAD DUP1 SWAP2 SUB SWAP1 REVERT JUMPDEST DUP1 PUSH20 0xFFFFFFFFFFFFFFFFFFFFFFFFFFFFFFFFFFFFFFFF AND PUSH1 0x0 DUP1 SLOAD SWAP1 PUSH2 0x100 EXP SWAP1 DIV PUSH20 0xFFFFFFFFFFFFFFFFFFFFFFFFFFFFFFFFFFFFFFFF AND PUSH20 0xFFFFFFFFFFFFFFFFFFFFFFFFFFFFFFFFFFFFFFFF AND PUSH32 0x8BE0079C531659141344CD1FD0A4F28419497F9722A3DAAFE3B4186F6B6457E0 PUSH1 0x40 MLOAD PUSH1 0x40 MLOAD DUP1 SWAP2 SUB SWAP1 LOG3 DUP1 PUSH1 0x0 DUP1 PUSH2 0x100 EXP DUP2 SLOAD DUP2 PUSH20 0xFFFFFFFFFFFFFFFFFFFFFFFFFFFFFFFFFFFFFFFF MUL NOT AND SWAP1 DUP4 PUSH20 0xFFFFFFFFFFFFFFFFFFFFFFFFFFFFFFFFFFFFFFFF AND MUL OR SWAP1 SSTORE POP POP JUMP JUMPDEST PUSH1 0x0 DUP2 CALLDATALOAD SWAP1 POP PUSH2 0x8F4 DUP2 PUSH2 0xBAE JUMP JUMPDEST SWAP3 SWAP2 POP POP JUMP JUMPDEST PUSH1 0x0 DUP2 MLOAD SWAP1 POP PUSH2 0x909 DUP2 PUSH2 0xBC5 JUMP JUMPDEST SWAP3 SWAP2 POP POP JUMP JUMPDEST PUSH1 0x0 DUP2 MLOAD SWAP1 POP PUSH2 0x91E DUP2 PUSH2 0xBDC JUMP JUMPDEST SWAP3 SWAP2 POP POP JUMP JUMPDEST PUSH1 0x0 PUSH1 0x20 DUP3 DUP5 SUB SLT ISZERO PUSH2 0x93A JUMPI PUSH2 0x939 PUSH2 0xB31 JUMP JUMPDEST JUMPDEST PUSH1 0x0 PUSH2 0x948 DUP5 DUP3 DUP6 ADD PUSH2 0x8E5 JUMP JUMPDEST SWAP2 POP POP SWAP3 SWAP2 POP POP JUMP JUMPDEST PUSH1 0x0 PUSH1 0x20 DUP3 DUP5 SUB SLT ISZERO PUSH2 0x967 JUMPI PUSH2 0x966 PUSH2 0xB31 JUMP JUMPDEST JUMPDEST PUSH1 0x0 PUSH2 0x975 DUP5 DUP3 DUP6 ADD PUSH2 0x8FA JUMP JUMPDEST SWAP2 POP POP SWAP3 SWAP2 POP POP JUMP JUMPDEST PUSH1 0x0 PUSH1 0x20 DUP3 DUP5 SUB SLT ISZERO PUSH2 0x994 JUMPI PUSH2 0x993 PUSH2 0xB31 JUMP JUMPDEST JUMPDEST PUSH1 0x0 PUSH2 0x9A2 DUP5 DUP3 DUP6 ADD PUSH2 0x90F JUMP JUMPDEST SWAP2 POP POP SWAP3 SWAP2 POP POP JUMP JUMPDEST PUSH2 0x9B4 DUP2 PUSH2 0xAE9 JUMP JUMPDEST DUP3 MSTORE POP POP JUMP JUMPDEST PUSH2 0x9C3 DUP2 PUSH2 0xAFB JUMP JUMPDEST DUP3 MSTORE POP POP JUMP JUMPDEST PUSH1 0x0 PUSH2 0x9D6 PUSH1 0x26 DUP4 PUSH2 0xAD8 JUMP JUMPDEST SWAP2 POP PUSH2 0x9E1 DUP3 PUSH2 0xB36 JUMP JUMPDEST PUSH1 0x40 DUP3 ADD SWAP1 POP SWAP2 SWAP1 POP JUMP JUMPDEST PUSH1 0x0 PUSH2 0x9F9 PUSH1 0x20 DUP4 PUSH2 0xAD8 JUMP JUMPDEST SWAP2 POP PUSH2 0xA04 DUP3 PUSH2 0xB85 JUMP JUMPDEST PUSH1 0x20 DUP3 ADD SWAP1 POP SWAP2 SWAP1 POP JUMP JUMPDEST PUSH2 0xA18 DUP2 PUSH2 0xB27 JUMP JUMPDEST DUP3 MSTORE POP POP JUMP JUMPDEST PUSH1 0x0 PUSH1 0x20 DUP3 ADD SWAP1 POP PUSH2 0xA33 PUSH1 0x0 DUP4 ADD DUP5 PUSH2 0x9AB JUMP JUMPDEST SWAP3 SWAP2 POP POP JUMP JUMPDEST PUSH1 0x0 PUSH1 0x40 DUP3 ADD SWAP1 POP PUSH2 0xA4E PUSH1 0x0 DUP4 ADD DUP6 PUSH2 0x9AB JUMP JUMPDEST PUSH2 0xA5B PUSH1 0x20 DUP4 ADD DUP5 PUSH2 0xA0F JUMP JUMPDEST SWAP4 SWAP3 POP POP POP JUMP JUMPDEST PUSH1 0x0 PUSH1 0x20 DUP3 ADD SWAP1 POP PUSH2 0xA77 PUSH1 0x0 DUP4 ADD DUP5 PUSH2 0x9BA JUMP JUMPDEST SWAP3 SWAP2 POP POP JUMP JUMPDEST PUSH1 0x0 PUSH1 0x20 DUP3 ADD SWAP1 POP DUP2 DUP2 SUB PUSH1 0x0 DUP4 ADD MSTORE PUSH2 0xA96 DUP2 PUSH2 0x9C9 JUMP JUMPDEST SWAP1 POP SWAP2 SWAP1 POP JUMP JUMPDEST PUSH1 0x0 PUSH1 0x20 DUP3 ADD SWAP1 POP DUP2 DUP2 SUB PUSH1 0x0 DUP4 ADD MSTORE PUSH2 0xAB6 DUP2 PUSH2 0x9EC JUMP JUMPDEST SWAP1 POP SWAP2 SWAP1 POP JUMP JUMPDEST PUSH1 0x0 PUSH1 0x20 DUP3 ADD SWAP1 POP PUSH2 0xAD2 PUSH1 0x0 DUP4 ADD DUP5 PUSH2 0xA0F JUMP JUMPDEST SWAP3 SWAP2 POP POP JUMP JUMPDEST PUSH1 0x0 DUP3 DUP3 MSTORE PUSH1 0x20 DUP3 ADD SWAP1 POP SWAP3 SWAP2 POP POP JUMP JUMPDEST PUSH1 0x0 PUSH2 0xAF4 DUP3 PUSH2 0xB07 JUMP JUMPDEST SWAP1 POP SWAP2 SWAP1 POP JUMP JUMPDEST PUSH1 0x0 DUP2 ISZERO ISZERO SWAP1 POP SWAP2 SWAP1 POP JUMP JUMPDEST PUSH1 0x0 PUSH20 0xFFFFFFFFFFFFFFFFFFFFFFFFFFFFFFFFFFFFFFFF DUP3 AND SWAP1 POP SWAP2 SWAP1 POP JUMP JUMPDEST PUSH1 0x0 DUP2 SWAP1 POP SWAP2 SWAP1 POP JUMP JUMPDEST PUSH1 0x0 DUP1 REVERT JUMPDEST PUSH32 0x4F776E61626C653A206E6577206F776E657220697320746865207A65726F2061 PUSH1 0x0 DUP3 ADD MSTORE PUSH32 0x6464726573730000000000000000000000000000000000000000000000000000 PUSH1 0x20 DUP3 ADD MSTORE POP JUMP JUMPDEST PUSH32 0x4F776E61626C653A2063616C6C6572206973206E6F7420746865206F776E6572 PUSH1 0x0 DUP3 ADD MSTORE POP JUMP JUMPDEST PUSH2 0xBB7 DUP2 PUSH2 0xAE9 JUMP JUMPDEST DUP2 EQ PUSH2 0xBC2 JUMPI PUSH1 0x0 DUP1 REVERT JUMPDEST POP JUMP JUMPDEST PUSH2 0xBCE DUP2 PUSH2 0xAFB JUMP JUMPDEST DUP2 EQ PUSH2 0xBD9 JUMPI PUSH1 0x0 DUP1 REVERT JUMPDEST POP JUMP JUMPDEST PUSH2 0xBE5 DUP2 PUSH2 0xB27 JUMP JUMPDEST DUP2 EQ PUSH2 0xBF0 JUMPI PUSH1 0x0 DUP1 REVERT JUMPDEST POP JUMP INVALID LOG2 PUSH5 0x6970667358 0x22 SLT KECCAK256 DUP4 DUP7 0xD2 0xE DUP13 0xAD 0x25 DUP6 SWAP10 SWAP15 0xC0 MULMOD 0x4D 0xAA 0xEB 0xE8 CALLER 0xB7 LOG1 SELFDESTRUCT 0xEA PUSH19 0x718EB923405844BCFC9B64736F6C6343000807 STOP CALLER "
				},
				"gasEstimates": {
					"creation": {
						"codeDepositCost": "622600",
						"executionCost": "infinite",
						"totalCost": "infinite"
					},
					"external": {
						"Pool2()": "2536",
						"getBalanceBNB()": "383",
						"getBalanceToken(address)": "infinite",
						"isOwner()": "2620",
						"owner()": "2589",
						"renounceOwnership()": "30374",
						"sentT2Pool2BNB()": "infinite",
						"sentT2Pool2Token(address)": "infinite",
						"setPool2(address)": "27028",
						"transferOwnership(address)": "30795"
					}
				},
				"methodIdentifiers": {
					"Pool2()": "ac4b3b0a",
					"getBalanceBNB()": "bc127127",
					"getBalanceToken(address)": "48eca45c",
					"isOwner()": "8f32d59b",
					"owner()": "8da5cb5b",
					"renounceOwnership()": "715018a6",
					"sentT2Pool2BNB()": "9694ce75",
					"sentT2Pool2Token(address)": "00f29d5f",
					"setPool2(address)": "cc24c800",
					"transferOwnership(address)": "f2fde38b"
				}
			},
			"storageLayout": {
				"storage": [
					{
						"astId": 332,
						"contract": "Treasury.sol:Treasury",
						"label": "_owner",
						"offset": 0,
						"slot": "0",
						"type": "t_address"
					},
					{
						"astId": 540,
						"contract": "Treasury.sol:Treasury",
						"label": "Pool2",
						"offset": 0,
						"slot": "1",
						"type": "t_address"
					}
				],
				"types": {
					"t_address": {
						"encoding": "inplace",
						"label": "address",
						"numberOfBytes": "20"
					}
				}
			},
			"userdoc": {
				"kind": "user",
				"methods": {},
				"version": 1
			}
		}
	}
}