{
	"VIMToken.sol": {
		"VIMToken": {
			"abi": [
				{
					"inputs": [
						{
							"internalType": "string",
							"name": "name",
							"type": "string"
						},
						{
							"internalType": "string",
							"name": "symbol",
							"type": "string"
						}
					],
					"stateMutability": "nonpayable",
					"type": "constructor"
				},
				{
					"anonymous": false,
					"inputs": [
						{
							"indexed": true,
							"internalType": "address",
							"name": "owner",
							"type": "address"
						},
						{
							"indexed": true,
							"internalType": "address",
							"name": "spender",
							"type": "address"
						},
						{
							"indexed": false,
							"internalType": "uint256",
							"name": "value",
							"type": "uint256"
						}
					],
					"name": "Approval",
					"type": "event"
				},
				{
					"anonymous": false,
					"inputs": [
						{
							"indexed": true,
							"internalType": "address",
							"name": "previousOwner",
							"type": "address"
						},
						{
							"indexed": true,
							"internalType": "address",
							"name": "newOwner",
							"type": "address"
						}
					],
					"name": "OwnershipTransferred",
					"type": "event"
				},
				{
					"anonymous": false,
					"inputs": [],
					"name": "Pause",
					"type": "event"
				},
				{
					"anonymous": false,
					"inputs": [
						{
							"indexed": true,
							"internalType": "address",
							"name": "from",
							"type": "address"
						},
						{
							"indexed": true,
							"internalType": "address",
							"name": "to",
							"type": "address"
						},
						{
							"indexed": false,
							"internalType": "uint256",
							"name": "value",
							"type": "uint256"
						}
					],
					"name": "Transfer",
					"type": "event"
				},
				{
					"anonymous": false,
					"inputs": [],
					"name": "Unpause",
					"type": "event"
				},
				{
					"anonymous": false,
					"inputs": [
						{
							"indexed": false,
							"internalType": "address",
							"name": "_wallet",
							"type": "address"
						},
						{
							"indexed": false,
							"internalType": "bool",
							"name": "status",
							"type": "bool"
						}
					],
					"name": "changeBlacklist",
					"type": "event"
				},
				{
					"anonymous": false,
					"inputs": [
						{
							"indexed": false,
							"internalType": "uint8",
							"name": "tradeCooldown",
							"type": "uint8"
						}
					],
					"name": "changeCooldown",
					"type": "event"
				},
				{
					"anonymous": false,
					"inputs": [
						{
							"indexed": false,
							"internalType": "address",
							"name": "lpAddress",
							"type": "address"
						},
						{
							"indexed": false,
							"internalType": "bool",
							"name": "status",
							"type": "bool"
						}
					],
					"name": "changeLiquidityPoolStatus",
					"type": "event"
				},
				{
					"anonymous": false,
					"inputs": [
						{
							"indexed": false,
							"internalType": "address",
							"name": "marketingPool",
							"type": "address"
						}
					],
					"name": "changeMarketingPool",
					"type": "event"
				},
				{
					"anonymous": false,
					"inputs": [
						{
							"indexed": false,
							"internalType": "uint8",
							"name": "_sellTax",
							"type": "uint8"
						},
						{
							"indexed": false,
							"internalType": "uint8",
							"name": "_buyTax",
							"type": "uint8"
						},
						{
							"indexed": false,
							"internalType": "uint8",
							"name": "_transferTax",
							"type": "uint8"
						}
					],
					"name": "changeTax",
					"type": "event"
				},
				{
					"anonymous": false,
					"inputs": [
						{
							"indexed": false,
							"internalType": "address",
							"name": "_address",
							"type": "address"
						},
						{
							"indexed": false,
							"internalType": "bool",
							"name": "status",
							"type": "bool"
						}
					],
					"name": "changeWhitelistTax",
					"type": "event"
				},
				{
					"inputs": [
						{
							"internalType": "address",
							"name": "owner",
							"type": "address"
						},
						{
							"internalType": "address",
							"name": "spender",
							"type": "address"
						}
					],
					"name": "allowance",
					"outputs": [
						{
							"internalType": "uint256",
							"name": "",
							"type": "uint256"
						}
					],
					"stateMutability": "view",
					"type": "function"
				},
				{
					"inputs": [
						{
							"internalType": "address",
							"name": "spender",
							"type": "address"
						},
						{
							"internalType": "uint256",
							"name": "amount",
							"type": "uint256"
						}
					],
					"name": "approve",
					"outputs": [
						{
							"internalType": "bool",
							"name": "",
							"type": "bool"
						}
					],
					"stateMutability": "nonpayable",
					"type": "function"
				},
				{
					"inputs": [
						{
							"internalType": "address",
							"name": "account",
							"type": "address"
						}
					],
					"name": "balanceOf",
					"outputs": [
						{
							"internalType": "uint256",
							"name": "",
							"type": "uint256"
						}
					],
					"stateMutability": "view",
					"type": "function"
				},
				{
					"inputs": [],
					"name": "decimals",
					"outputs": [
						{
							"internalType": "uint8",
							"name": "",
							"type": "uint8"
						}
					],
					"stateMutability": "view",
					"type": "function"
				},
				{
					"inputs": [
						{
							"internalType": "address",
							"name": "spender",
							"type": "address"
						},
						{
							"internalType": "uint256",
							"name": "subtractedValue",
							"type": "uint256"
						}
					],
					"name": "decreaseAllowance",
					"outputs": [
						{
							"internalType": "bool",
							"name": "",
							"type": "bool"
						}
					],
					"stateMutability": "nonpayable",
					"type": "function"
				},
				{
					"inputs": [],
					"name": "depositWallet",
					"outputs": [
						{
							"internalType": "address",
							"name": "",
							"type": "address"
						}
					],
					"stateMutability": "view",
					"type": "function"
				},
				{
					"inputs": [],
					"name": "getTaxes",
					"outputs": [
						{
							"internalType": "uint8",
							"name": "_sellTax",
							"type": "uint8"
						},
						{
							"internalType": "uint8",
							"name": "_buyTax",
							"type": "uint8"
						},
						{
							"internalType": "uint8",
							"name": "_transferTax",
							"type": "uint8"
						}
					],
					"stateMutability": "pure",
					"type": "function"
				},
				{
					"inputs": [
						{
							"internalType": "address",
							"name": "spender",
							"type": "address"
						},
						{
							"internalType": "uint256",
							"name": "addedValue",
							"type": "uint256"
						}
					],
					"name": "increaseAllowance",
					"outputs": [
						{
							"internalType": "bool",
							"name": "",
							"type": "bool"
						}
					],
					"stateMutability": "nonpayable",
					"type": "function"
				},
				{
					"inputs": [],
					"name": "isOwner",
					"outputs": [
						{
							"internalType": "bool",
							"name": "",
							"type": "bool"
						}
					],
					"stateMutability": "view",
					"type": "function"
				},
				{
					"inputs": [],
					"name": "name",
					"outputs": [
						{
							"internalType": "string",
							"name": "",
							"type": "string"
						}
					],
					"stateMutability": "view",
					"type": "function"
				},
				{
					"inputs": [],
					"name": "owner",
					"outputs": [
						{
							"internalType": "address",
							"name": "",
							"type": "address"
						}
					],
					"stateMutability": "view",
					"type": "function"
				},
				{
					"inputs": [],
					"name": "pause",
					"outputs": [
						{
							"internalType": "bool",
							"name": "",
							"type": "bool"
						}
					],
					"stateMutability": "nonpayable",
					"type": "function"
				},
				{
					"inputs": [],
					"name": "paused",
					"outputs": [
						{
							"internalType": "bool",
							"name": "",
							"type": "bool"
						}
					],
					"stateMutability": "view",
					"type": "function"
				},
				{
					"inputs": [],
					"name": "renounceOwnership",
					"outputs": [],
					"stateMutability": "nonpayable",
					"type": "function"
				},
				{
					"inputs": [],
					"name": "rewardWallet",
					"outputs": [
						{
							"internalType": "address",
							"name": "",
							"type": "address"
						}
					],
					"stateMutability": "view",
					"type": "function"
				},
				{
					"inputs": [
						{
							"internalType": "address",
							"name": "_wallet",
							"type": "address"
						},
						{
							"internalType": "bool",
							"name": "_status",
							"type": "bool"
						}
					],
					"name": "setBlacklist",
					"outputs": [],
					"stateMutability": "nonpayable",
					"type": "function"
				},
				{
					"inputs": [
						{
							"internalType": "uint8",
							"name": "_tradeCooldown",
							"type": "uint8"
						}
					],
					"name": "setCooldownForTrades",
					"outputs": [],
					"stateMutability": "nonpayable",
					"type": "function"
				},
				{
					"inputs": [
						{
							"internalType": "address",
							"name": "_lpAddress",
							"type": "address"
						},
						{
							"internalType": "bool",
							"name": "_status",
							"type": "bool"
						}
					],
					"name": "setLiquidityPoolStatus",
					"outputs": [],
					"stateMutability": "nonpayable",
					"type": "function"
				},
				{
					"inputs": [
						{
							"internalType": "address",
							"name": "_marketingPool",
							"type": "address"
						}
					],
					"name": "setMarketingPool",
					"outputs": [],
					"stateMutability": "nonpayable",
					"type": "function"
				},
				{
					"inputs": [
						{
							"internalType": "uint8",
							"name": "_sellTax",
							"type": "uint8"
						},
						{
							"internalType": "uint8",
							"name": "_buyTax",
							"type": "uint8"
						},
						{
							"internalType": "uint8",
							"name": "_transferTax",
							"type": "uint8"
						}
					],
					"name": "setTaxes",
					"outputs": [],
					"stateMutability": "nonpayable",
					"type": "function"
				},
				{
					"inputs": [
						{
							"internalType": "address",
							"name": "_address",
							"type": "address"
						},
						{
							"internalType": "bool",
							"name": "_status",
							"type": "bool"
						}
					],
					"name": "setWhitelist",
					"outputs": [],
					"stateMutability": "nonpayable",
					"type": "function"
				},
				{
					"inputs": [],
					"name": "symbol",
					"outputs": [
						{
							"internalType": "string",
							"name": "",
							"type": "string"
						}
					],
					"stateMutability": "view",
					"type": "function"
				},
				{
					"inputs": [],
					"name": "totalSupply",
					"outputs": [
						{
							"internalType": "uint256",
							"name": "",
							"type": "uint256"
						}
					],
					"stateMutability": "view",
					"type": "function"
				},
				{
					"inputs": [
						{
							"internalType": "address",
							"name": "recipient",
							"type": "address"
						},
						{
							"internalType": "uint256",
							"name": "amount",
							"type": "uint256"
						}
					],
					"name": "transfer",
					"outputs": [
						{
							"internalType": "bool",
							"name": "",
							"type": "bool"
						}
					],
					"stateMutability": "nonpayable",
					"type": "function"
				},
				{
					"inputs": [
						{
							"internalType": "address",
							"name": "sender",
							"type": "address"
						},
						{
							"internalType": "address",
							"name": "recipient",
							"type": "address"
						},
						{
							"internalType": "uint256",
							"name": "amount",
							"type": "uint256"
						}
					],
					"name": "transferFrom",
					"outputs": [
						{
							"internalType": "bool",
							"name": "",
							"type": "bool"
						}
					],
					"stateMutability": "nonpayable",
					"type": "function"
				},
				{
					"inputs": [
						{
							"internalType": "address",
							"name": "newOwner",
							"type": "address"
						}
					],
					"name": "transferOwnership",
					"outputs": [],
					"stateMutability": "nonpayable",
					"type": "function"
				},
				{
					"inputs": [],
					"name": "unpause",
					"outputs": [
						{
							"internalType": "bool",
							"name": "",
							"type": "bool"
						}
					],
					"stateMutability": "nonpayable",
					"type": "function"
				},
				{
					"inputs": [
						{
							"internalType": "address",
							"name": "newDepositWallet",
							"type": "address"
						}
					],
					"name": "updateDepositWallet",
					"outputs": [],
					"stateMutability": "nonpayable",
					"type": "function"
				},
				{
					"inputs": [
						{
							"internalType": "address",
							"name": "newWallet",
							"type": "address"
						}
					],
					"name": "updateRewardWallet",
					"outputs": [],
					"stateMutability": "nonpayable",
					"type": "function"
				},
				{
					"inputs": [
						{
							"internalType": "uint256",
							"name": "newLimitation",
							"type": "uint256"
						}
					],
					"name": "updateRewardWalletLimit",
					"outputs": [],
					"stateMutability": "nonpayable",
					"type": "function"
				}
			],
			"devdoc": {
				"kind": "dev",
				"methods": {
					"allowance(address,address)": {
						"details": "See {IBEP20-allowance}."
					},
					"approve(address,uint256)": {
						"details": "See {IBEP20-approve}. Requirements: - `spender` cannot be the zero address."
					},
					"balanceOf(address)": {
						"details": "See {IBEP20-balanceOf}."
					},
					"decimals()": {
						"details": "Returns the number of decimals used to get its user representation. For example, if `decimals` equals `2`, a balance of `505` tokens should be displayed to a user as `5,05` (`505 / 10 ** 2`). Tokens usually opt for a value of 18, imitating the relationship between Ether and Wei. NOTE: This information is only used for _display_ purposes: it in no way affects any of the arithmetic of the contract, including {IBEP20-balanceOf} and {IBEP20-transfer}."
					},
					"decreaseAllowance(address,uint256)": {
						"details": "Atomically decreases the allowance granted to `spender` by the caller. This is an alternative to {approve} that can be used as a mitigation for problems described in {IBEP20-approve}. Emits an {Approval} event indicating the updated allowance. Requirements: - `spender` cannot be the zero address. - `spender` must have allowance for the caller of at least `subtractedValue`."
					},
					"increaseAllowance(address,uint256)": {
						"details": "Atomically increases the allowance granted to `spender` by the caller. This is an alternative to {approve} that can be used as a mitigation for problems described in {IBEP20-approve}. Emits an {Approval} event indicating the updated allowance. Requirements: - `spender` cannot be the zero address."
					},
					"isOwner()": {
						"details": "Returns true if the caller is the current owner."
					},
					"name()": {
						"details": "Returns the name of the token."
					},
					"owner()": {
						"details": "Returns the address of the current owner."
					},
					"pause()": {
						"details": "called by the owner to pause, triggers stopped state"
					},
					"renounceOwnership()": {
						"details": "Leaves the contract without owner. It will not be possible to call `onlyOwner` functions anymore. Can only be called by the current owner. NOTE: Renouncing ownership will leave the contract without an owner, thereby removing any functionality that is only available to the owner."
					},
					"symbol()": {
						"details": "Returns the symbol of the token, usually a shorter version of the name."
					},
					"totalSupply()": {
						"details": "See {IBEP20-totalSupply}."
					},
					"transfer(address,uint256)": {
						"details": "See {IBEP20-transfer}. Requirements: - `recipient` cannot be the zero address. - the caller must have a balance of at least `amount`."
					},
					"transferFrom(address,address,uint256)": {
						"details": "See {IBEP20-transferFrom}. Emits an {Approval} event indicating the updated allowance. This is not required by the EIP. See the note at the beginning of {BEP20}; Requirements: - `sender` and `recipient` cannot be the zero address. - `sender` must have a balance of at least `amount`. - the caller must have allowance for `sender`'s tokens of at least `amount`."
					},
					"transferOwnership(address)": {
						"details": "Transfers ownership of the contract to a new account (`newOwner`). Can only be called by the current owner."
					},
					"unpause()": {
						"details": "called by the owner to unpause, returns to normal state"
					}
				},
				"version": 1
			},
			"evm": {
				"assembly": "    /* \"VIMToken.sol\":114:4073  contract VIMToken is BEP20Detailed, BEP20 {... */\n  mstore(0x40, 0x80)\n    /* \"BEPPausable.sol\":293:298  false */\n  0x00\n    /* \"BEPPausable.sol\":272:298  bool public paused = false */\n  0x02\n  exp(0x0100, 0x15)\n  dup2\n  sload\n  dup2\n  0xff\n  mul\n  not\n  and\n  swap1\n  dup4\n  iszero\n  iszero\n  mul\n  or\n  swap1\n  sstore\n  pop\n    /* \"VIMToken.sol\":511:515  1000 */\n  0x03e8\n    /* \"VIMToken.sol\":471:515  uint256 private limitTxForRewardWallet =1000 */\n  0x0b\n  sstore\n    /* \"VIMToken.sol\":1001:1272  constructor(string memory name, string memory symbol) BEP20Detailed(\"VicMove\", \"VIM\", 18) {... */\n  callvalue\n  dup1\n  iszero\n  tag_1\n  jumpi\n  0x00\n  dup1\n  revert\ntag_1:\n  pop\n  mload(0x40)\n  sub(codesize, bytecodeSize)\n  dup1\n  bytecodeSize\n  dup4\n  codecopy\n  dup2\n  dup2\n  add\n  0x40\n  mstore\n  dup2\n  add\n  swap1\n  tag_2\n  swap2\n  swap1\n  tag_3\n  jump\t// in\ntag_2:\n    /* \"BEP20Detailed.sol\":404:567  constructor(... */\n  mload(0x40)\n  dup1\n  0x40\n  add\n  0x40\n  mstore\n  dup1\n  0x07\n  dup2\n  mstore\n  0x20\n  add\n  0x5669634d6f766500000000000000000000000000000000000000000000000000\n  dup2\n  mstore\n  pop\n  mload(0x40)\n  dup1\n  0x40\n  add\n  0x40\n  mstore\n  dup1\n  0x03\n  dup2\n  mstore\n  0x20\n  add\n  0x56494d0000000000000000000000000000000000000000000000000000000000\n  dup2\n  mstore\n  pop\n    /* \"VIMToken.sol\":1087:1089  18 */\n  0x12\n    /* \"BEP20Detailed.sol\":507:512  name_ */\n  dup3\n    /* \"BEP20Detailed.sol\":499:504  _name */\n  0x00\n    /* \"BEP20Detailed.sol\":499:512  _name = name_ */\n  swap1\n  dup1\n  mload\n  swap1\n  0x20\n  add\n  swap1\n  tag_9\n  swap3\n  swap2\n  swap1\n  tag_10\n  jump\t// in\ntag_9:\n  pop\n    /* \"BEP20Detailed.sol\":528:535  symbol_ */\n  dup2\n    /* \"BEP20Detailed.sol\":518:525  _symbol */\n  0x01\n    /* \"BEP20Detailed.sol\":518:535  _symbol = symbol_ */\n  swap1\n  dup1\n  mload\n  swap1\n  0x20\n  add\n  swap1\n  tag_11\n  swap3\n  swap2\n  swap1\n  tag_10\n  jump\t// in\ntag_11:\n  pop\n    /* \"BEP20Detailed.sol\":553:562  decimals_ */\n  dup1\n    /* \"BEP20Detailed.sol\":541:550  _decimals */\n  0x02\n  0x00\n    /* \"BEP20Detailed.sol\":541:562  _decimals = decimals_ */\n  0x0100\n  exp\n  dup2\n  sload\n  dup2\n  0xff\n  mul\n  not\n  and\n  swap1\n  dup4\n  0xff\n  and\n  mul\n  or\n  swap1\n  sstore\n  pop\n    /* \"BEP20Detailed.sol\":404:567  constructor(... */\n  pop\n  pop\n  pop\n    /* \"BEPOwnable.sol\":716:733  address msgSender */\n  0x00\n    /* \"BEPOwnable.sol\":736:748  _msgSender() */\n  tag_14\n    /* \"BEPOwnable.sol\":736:746  _msgSender */\n  shl(0x20, tag_15)\n    /* \"BEPOwnable.sol\":736:748  _msgSender() */\n  0x20\n  shr\n  jump\t// in\ntag_14:\n    /* \"BEPOwnable.sol\":716:748  address msgSender = _msgSender() */\n  swap1\n  pop\n    /* \"BEPOwnable.sol\":763:772  msgSender */\n  dup1\n    /* \"BEPOwnable.sol\":754:760  _owner */\n  0x02\n  0x01\n    /* \"BEPOwnable.sol\":754:772  _owner = msgSender */\n  0x0100\n  exp\n  dup2\n  sload\n  dup2\n  0xffffffffffffffffffffffffffffffffffffffff\n  mul\n  not\n  and\n  swap1\n  dup4\n  0xffffffffffffffffffffffffffffffffffffffff\n  and\n  mul\n  or\n  swap1\n  sstore\n  pop\n    /* \"BEPOwnable.sol\":816:825  msgSender */\n  dup1\n    /* \"BEPOwnable.sol\":783:826  OwnershipTransferred(address(0), msgSender) */\n  0xffffffffffffffffffffffffffffffffffffffff\n  and\n    /* \"BEPOwnable.sol\":812:813  0 */\n  0x00\n    /* \"BEPOwnable.sol\":783:826  OwnershipTransferred(address(0), msgSender) */\n  0xffffffffffffffffffffffffffffffffffffffff\n  and\n  0x8be0079c531659141344cd1fd0a4f28419497f9722a3daafe3b4186f6b6457e0\n  mload(0x40)\n  mload(0x40)\n  dup1\n  swap2\n  sub\n  swap1\n  log3\n    /* \"BEPOwnable.sol\":710:831  {... */\n  pop\n    /* \"VIMToken.sol\":1097:1116  uint256 totalTokens */\n  0x00\n    /* \"VIMToken.sol\":1142:1152  decimals() */\n  tag_17\n    /* \"VIMToken.sol\":1142:1150  decimals */\n  shl(0x20, tag_18)\n    /* \"VIMToken.sol\":1142:1152  decimals() */\n  0x20\n  shr\n  jump\t// in\ntag_17:\n    /* \"VIMToken.sol\":1134:1153  uint256(decimals()) */\n  0xff\n  and\n    /* \"VIMToken.sol\":1130:1132  10 */\n  0x0a\n    /* \"VIMToken.sol\":1130:1153  10**uint256(decimals()) */\n  tag_19\n  swap2\n  swap1\n  tag_20\n  jump\t// in\ntag_19:\n    /* \"VIMToken.sol\":1119:1127  20000000 */\n  0x01312d00\n    /* \"VIMToken.sol\":1119:1153  20000000 * 10**uint256(decimals()) */\n  tag_21\n  swap2\n  swap1\n  tag_22\n  jump\t// in\ntag_21:\n    /* \"VIMToken.sol\":1097:1153  uint256 totalTokens = 20000000 * 10**uint256(decimals()) */\n  swap1\n  pop\n    /* \"VIMToken.sol\":1159:1189  _mint(msg.sender, totalTokens) */\n  tag_23\n    /* \"VIMToken.sol\":1165:1175  msg.sender */\n  caller\n    /* \"VIMToken.sol\":1177:1188  totalTokens */\n  dup3\n    /* \"VIMToken.sol\":1159:1164  _mint */\n  shl(0x20, tag_24)\n    /* \"VIMToken.sol\":1159:1189  _mint(msg.sender, totalTokens) */\n  0x20\n  shr\n  jump\t// in\ntag_23:\n    /* \"VIMToken.sol\":1205:1206  0 */\n  0x00\n    /* \"VIMToken.sol\":1195:1202  sellTax */\n  0x0a\n  0x01\n    /* \"VIMToken.sol\":1195:1206  sellTax = 0 */\n  0x0100\n  exp\n  dup2\n  sload\n  dup2\n  0xff\n  mul\n  not\n  and\n  swap1\n  dup4\n  0xff\n  and\n  mul\n  or\n  swap1\n  sstore\n  pop\n    /* \"VIMToken.sol\":1221:1222  0 */\n  0x00\n    /* \"VIMToken.sol\":1212:1218  buyTax */\n  0x0a\n  0x00\n    /* \"VIMToken.sol\":1212:1222  buyTax = 0 */\n  0x0100\n  exp\n  dup2\n  sload\n  dup2\n  0xff\n  mul\n  not\n  and\n  swap1\n  dup4\n  0xff\n  and\n  mul\n  or\n  swap1\n  sstore\n  pop\n    /* \"VIMToken.sol\":1242:1243  0 */\n  0x00\n    /* \"VIMToken.sol\":1228:1239  transferTax */\n  0x0a\n  0x03\n    /* \"VIMToken.sol\":1228:1243  transferTax = 0 */\n  0x0100\n  exp\n  dup2\n  sload\n  dup2\n  0xff\n  mul\n  not\n  and\n  swap1\n  dup4\n  0xff\n  and\n  mul\n  or\n  swap1\n  sstore\n  pop\n    /* \"VIMToken.sol\":1265:1267  15 */\n  0x0f\n    /* \"VIMToken.sol\":1249:1262  tradeCooldown */\n  0x0a\n  0x02\n    /* \"VIMToken.sol\":1249:1267  tradeCooldown = 15 */\n  0x0100\n  exp\n  dup2\n  sload\n  dup2\n  0xff\n  mul\n  not\n  and\n  swap1\n  dup4\n  0xff\n  and\n  mul\n  or\n  swap1\n  sstore\n  pop\n    /* \"VIMToken.sol\":1091:1272  {... */\n  pop\n    /* \"VIMToken.sol\":1001:1272  constructor(string memory name, string memory symbol) BEP20Detailed(\"VicMove\", \"VIM\", 18) {... */\n  pop\n  pop\n    /* \"VIMToken.sol\":114:4073  contract VIMToken is BEP20Detailed, BEP20 {... */\n  jump(tag_25)\n    /* \"BEPContext.sol\":760:859  function _msgSender() internal view returns (address payable) {... */\ntag_15:\n    /* \"BEPContext.sol\":805:820  address payable */\n  0x00\n    /* \"BEPContext.sol\":843:853  msg.sender */\n  caller\n    /* \"BEPContext.sol\":828:854  return payable(msg.sender) */\n  swap1\n  pop\n    /* \"BEPContext.sol\":760:859  function _msgSender() internal view returns (address payable) {... */\n  swap1\n  jump\t// out\n    /* \"BEP20Detailed.sol\":1404:1479  function decimals() public view returns (uint8) {... */\ntag_18:\n    /* \"BEP20Detailed.sol\":1445:1450  uint8 */\n  0x00\n    /* \"BEP20Detailed.sol\":1465:1474  _decimals */\n  0x02\n  0x00\n  swap1\n  sload\n  swap1\n  0x0100\n  exp\n  swap1\n  div\n  0xff\n  and\n    /* \"BEP20Detailed.sol\":1458:1474  return _decimals */\n  swap1\n  pop\n    /* \"BEP20Detailed.sol\":1404:1479  function decimals() public view returns (uint8) {... */\n  swap1\n  jump\t// out\n    /* \"BEP20.sol\":5784:6068  function _mint(address account, uint256 amount) internal {... */\ntag_24:\n    /* \"BEP20.sol\":5874:5875  0 */\n  0x00\n    /* \"BEP20.sol\":5855:5876  account != address(0) */\n  0xffffffffffffffffffffffffffffffffffffffff\n  and\n    /* \"BEP20.sol\":5855:5862  account */\n  dup3\n    /* \"BEP20.sol\":5855:5876  account != address(0) */\n  0xffffffffffffffffffffffffffffffffffffffff\n  and\n  eq\n  iszero\n    /* \"BEP20.sol\":5847:5912  require(account != address(0), \"BEP20: mint to the zero address\") */\n  tag_29\n  jumpi\n  mload(0x40)\n  0x08c379a000000000000000000000000000000000000000000000000000000000\n  dup2\n  mstore\n  0x04\n  add\n  tag_30\n  swap1\n  tag_31\n  jump\t// in\ntag_30:\n  mload(0x40)\n  dup1\n  swap2\n  sub\n  swap1\n  revert\ntag_29:\n    /* \"BEP20.sol\":5934:5958  _totalSupply.add(amount) */\n  tag_32\n    /* \"BEP20.sol\":5951:5957  amount */\n  dup2\n    /* \"BEP20.sol\":5934:5946  _totalSupply */\n  sload(0x05)\n    /* \"BEP20.sol\":5934:5950  _totalSupply.add */\n  or(tag_0_150, shl(0x20, tag_33))\n  swap1\n    /* \"BEP20.sol\":5934:5958  _totalSupply.add(amount) */\n  swap2\n  swap1\n  0x20\n  shr\n  jump\t// in\ntag_32:\n    /* \"BEP20.sol\":5919:5931  _totalSupply */\n  0x05\n    /* \"BEP20.sol\":5919:5958  _totalSupply = _totalSupply.add(amount) */\n  dup2\n  swap1\n  sstore\n  pop\n    /* \"BEP20.sol\":5985:6015  _balances[account].add(amount) */\n  tag_34\n    /* \"BEP20.sol\":6008:6014  amount */\n  dup2\n    /* \"BEP20.sol\":5985:5994  _balances */\n  0x03\n    /* \"BEP20.sol\":5985:6003  _balances[account] */\n  0x00\n    /* \"BEP20.sol\":5995:6002  account */\n  dup6\n    /* \"BEP20.sol\":5985:6003  _balances[account] */\n  0xffffffffffffffffffffffffffffffffffffffff\n  and\n  0xffffffffffffffffffffffffffffffffffffffff\n  and\n  dup2\n  mstore\n  0x20\n  add\n  swap1\n  dup2\n  mstore\n  0x20\n  add\n  0x00\n  keccak256\n  sload\n    /* \"BEP20.sol\":5985:6007  _balances[account].add */\n  or(tag_0_150, shl(0x20, tag_33))\n  swap1\n    /* \"BEP20.sol\":5985:6015  _balances[account].add(amount) */\n  swap2\n  swap1\n  0x20\n  shr\n  jump\t// in\ntag_34:\n    /* \"BEP20.sol\":5964:5973  _balances */\n  0x03\n    /* \"BEP20.sol\":5964:5982  _balances[account] */\n  0x00\n    /* \"BEP20.sol\":5974:5981  account */\n  dup5\n    /* \"BEP20.sol\":5964:5982  _balances[account] */\n  0xffffffffffffffffffffffffffffffffffffffff\n  and\n  0xffffffffffffffffffffffffffffffffffffffff\n  and\n  dup2\n  mstore\n  0x20\n  add\n  swap1\n  dup2\n  mstore\n  0x20\n  add\n  0x00\n  keccak256\n    /* \"BEP20.sol\":5964:6015  _balances[account] = _balances[account].add(amount) */\n  dup2\n  swap1\n  sstore\n  pop\n    /* \"BEP20.sol\":6047:6054  account */\n  dup2\n    /* \"BEP20.sol\":6026:6063  Transfer(address(0), account, amount) */\n  0xffffffffffffffffffffffffffffffffffffffff\n  and\n    /* \"BEP20.sol\":6043:6044  0 */\n  0x00\n    /* \"BEP20.sol\":6026:6063  Transfer(address(0), account, amount) */\n  0xffffffffffffffffffffffffffffffffffffffff\n  and\n  0xddf252ad1be2c89b69c2b068fc378daa952ba7f163c4a11628f55a4df523b3ef\n    /* \"BEP20.sol\":6056:6062  amount */\n  dup4\n    /* \"BEP20.sol\":6026:6063  Transfer(address(0), account, amount) */\n  mload(0x40)\n  tag_35\n  swap2\n  swap1\n  tag_36\n  jump\t// in\ntag_35:\n  mload(0x40)\n  dup1\n  swap2\n  sub\n  swap1\n  log3\n    /* \"BEP20.sol\":5784:6068  function _mint(address account, uint256 amount) internal {... */\n  pop\n  pop\n  jump\t// out\n    /* \"SafeMath.sol\":858:1020  function add(uint256 a, uint256 b) internal pure returns (uint256) {... */\ntag_33:\n    /* \"SafeMath.sol\":916:923  uint256 */\n  0x00\n    /* \"SafeMath.sol\":931:940  uint256 c */\n  dup1\n    /* \"SafeMath.sol\":947:948  b */\n  dup3\n    /* \"SafeMath.sol\":943:944  a */\n  dup5\n    /* \"SafeMath.sol\":943:948  a + b */\n  tag_38\n  swap2\n  swap1\n  tag_39\n  jump\t// in\ntag_38:\n    /* \"SafeMath.sol\":931:948  uint256 c = a + b */\n  swap1\n  pop\n    /* \"SafeMath.sol\":967:968  a */\n  dup4\n    /* \"SafeMath.sol\":962:963  c */\n  dup2\n    /* \"SafeMath.sol\":962:968  c >= a */\n  lt\n  iszero\n    /* \"SafeMath.sol\":954:1000  require(c >= a, \"SafeMath: addition overflow\") */\n  tag_40\n  jumpi\n  mload(0x40)\n  0x08c379a000000000000000000000000000000000000000000000000000000000\n  dup2\n  mstore\n  0x04\n  add\n  tag_41\n  swap1\n  tag_42\n  jump\t// in\ntag_41:\n  mload(0x40)\n  dup1\n  swap2\n  sub\n  swap1\n  revert\ntag_40:\n    /* \"SafeMath.sol\":1014:1015  c */\n  dup1\n    /* \"SafeMath.sol\":1007:1015  return c */\n  swap2\n  pop\n  pop\n    /* \"SafeMath.sol\":858:1020  function add(uint256 a, uint256 b) internal pure returns (uint256) {... */\n  swap3\n  swap2\n  pop\n  pop\n  jump\t// out\n    /* \"VIMToken.sol\":114:4073  contract VIMToken is BEP20Detailed, BEP20 {... */\ntag_10:\n  dup3\n  dup1\n  sload\n  tag_43\n  swap1\n  tag_44\n  jump\t// in\ntag_43:\n  swap1\n  0x00\n  mstore\n  keccak256(0x00, 0x20)\n  swap1\n  0x1f\n  add\n  0x20\n  swap1\n  div\n  dup2\n  add\n  swap3\n  dup3\n  tag_46\n  jumpi\n  0x00\n  dup6\n  sstore\n  jump(tag_45)\ntag_46:\n  dup3\n  0x1f\n  lt\n  tag_47\n  jumpi\n  dup1\n  mload\n  not(0xff)\n  and\n  dup4\n  dup1\n  add\n  or\n  dup6\n  sstore\n  jump(tag_45)\ntag_47:\n  dup3\n  dup1\n  add\n  0x01\n  add\n  dup6\n  sstore\n  dup3\n  iszero\n  tag_45\n  jumpi\n  swap2\n  dup3\n  add\ntag_48:\n  dup3\n  dup2\n  gt\n  iszero\n  tag_49\n  jumpi\n  dup3\n  mload\n  dup3\n  sstore\n  swap2\n  0x20\n  add\n  swap2\n  swap1\n  0x01\n  add\n  swap1\n  jump(tag_48)\ntag_49:\ntag_45:\n  pop\n  swap1\n  pop\n  tag_50\n  swap2\n  swap1\n  tag_51\n  jump\t// in\ntag_50:\n  pop\n  swap1\n  jump\t// out\ntag_51:\ntag_52:\n  dup1\n  dup3\n  gt\n  iszero\n  tag_53\n  jumpi\n  0x00\n  dup2\n  0x00\n  swap1\n  sstore\n  pop\n  0x01\n  add\n  jump(tag_52)\ntag_53:\n  pop\n  swap1\n  jump\t// out\n    /* \"#utility.yul\":7:428   */\ntag_55:\n    /* \"#utility.yul\":96:101   */\n  0x00\n    /* \"#utility.yul\":121:187   */\n  tag_57\n    /* \"#utility.yul\":137:186   */\n  tag_58\n    /* \"#utility.yul\":179:185   */\n  dup5\n    /* \"#utility.yul\":137:186   */\n  tag_59\n  jump\t// in\ntag_58:\n    /* \"#utility.yul\":121:187   */\n  tag_60\n  jump\t// in\ntag_57:\n    /* \"#utility.yul\":112:187   */\n  swap1\n  pop\n    /* \"#utility.yul\":210:216   */\n  dup3\n    /* \"#utility.yul\":203:208   */\n  dup2\n    /* \"#utility.yul\":196:217   */\n  mstore\n    /* \"#utility.yul\":248:252   */\n  0x20\n    /* \"#utility.yul\":241:246   */\n  dup2\n    /* \"#utility.yul\":237:253   */\n  add\n    /* \"#utility.yul\":286:289   */\n  dup5\n    /* \"#utility.yul\":277:283   */\n  dup5\n    /* \"#utility.yul\":272:275   */\n  dup5\n    /* \"#utility.yul\":268:284   */\n  add\n    /* \"#utility.yul\":265:290   */\n  gt\n    /* \"#utility.yul\":262:374   */\n  iszero\n  tag_61\n  jumpi\n    /* \"#utility.yul\":293:372   */\n  tag_62\n  tag_63\n  jump\t// in\ntag_62:\n    /* \"#utility.yul\":262:374   */\ntag_61:\n    /* \"#utility.yul\":383:422   */\n  tag_64\n    /* \"#utility.yul\":415:421   */\n  dup5\n    /* \"#utility.yul\":410:413   */\n  dup3\n    /* \"#utility.yul\":405:408   */\n  dup6\n    /* \"#utility.yul\":383:422   */\n  tag_65\n  jump\t// in\ntag_64:\n    /* \"#utility.yul\":102:428   */\n  pop\n    /* \"#utility.yul\":7:428   */\n  swap4\n  swap3\n  pop\n  pop\n  pop\n  jump\t// out\n    /* \"#utility.yul\":448:803   */\ntag_66:\n    /* \"#utility.yul\":515:520   */\n  0x00\n    /* \"#utility.yul\":564:567   */\n  dup3\n    /* \"#utility.yul\":557:561   */\n  0x1f\n    /* \"#utility.yul\":549:555   */\n  dup4\n    /* \"#utility.yul\":545:562   */\n  add\n    /* \"#utility.yul\":541:568   */\n  slt\n    /* \"#utility.yul\":531:653   */\n  tag_68\n  jumpi\n    /* \"#utility.yul\":572:651   */\n  tag_69\n  tag_70\n  jump\t// in\ntag_69:\n    /* \"#utility.yul\":531:653   */\ntag_68:\n    /* \"#utility.yul\":682:688   */\n  dup2\n    /* \"#utility.yul\":676:689   */\n  mload\n    /* \"#utility.yul\":707:797   */\n  tag_71\n    /* \"#utility.yul\":793:796   */\n  dup5\n    /* \"#utility.yul\":785:791   */\n  dup3\n    /* \"#utility.yul\":778:782   */\n  0x20\n    /* \"#utility.yul\":770:776   */\n  dup7\n    /* \"#utility.yul\":766:783   */\n  add\n    /* \"#utility.yul\":707:797   */\n  tag_55\n  jump\t// in\ntag_71:\n    /* \"#utility.yul\":698:797   */\n  swap2\n  pop\n    /* \"#utility.yul\":521:803   */\n  pop\n    /* \"#utility.yul\":448:803   */\n  swap3\n  swap2\n  pop\n  pop\n  jump\t// out\n    /* \"#utility.yul\":809:1662   */\ntag_3:\n    /* \"#utility.yul\":908:914   */\n  0x00\n    /* \"#utility.yul\":916:922   */\n  dup1\n    /* \"#utility.yul\":965:967   */\n  0x40\n    /* \"#utility.yul\":953:962   */\n  dup4\n    /* \"#utility.yul\":944:951   */\n  dup6\n    /* \"#utility.yul\":940:963   */\n  sub\n    /* \"#utility.yul\":936:968   */\n  slt\n    /* \"#utility.yul\":933:1052   */\n  iszero\n  tag_73\n  jumpi\n    /* \"#utility.yul\":971:1050   */\n  tag_74\n  tag_75\n  jump\t// in\ntag_74:\n    /* \"#utility.yul\":933:1052   */\ntag_73:\n    /* \"#utility.yul\":1112:1113   */\n  0x00\n    /* \"#utility.yul\":1101:1110   */\n  dup4\n    /* \"#utility.yul\":1097:1114   */\n  add\n    /* \"#utility.yul\":1091:1115   */\n  mload\n    /* \"#utility.yul\":1142:1160   */\n  0xffffffffffffffff\n    /* \"#utility.yul\":1134:1140   */\n  dup2\n    /* \"#utility.yul\":1131:1161   */\n  gt\n    /* \"#utility.yul\":1128:1245   */\n  iszero\n  tag_76\n  jumpi\n    /* \"#utility.yul\":1164:1243   */\n  tag_77\n  tag_78\n  jump\t// in\ntag_77:\n    /* \"#utility.yul\":1128:1245   */\ntag_76:\n    /* \"#utility.yul\":1269:1343   */\n  tag_79\n    /* \"#utility.yul\":1335:1342   */\n  dup6\n    /* \"#utility.yul\":1326:1332   */\n  dup3\n    /* \"#utility.yul\":1315:1324   */\n  dup7\n    /* \"#utility.yul\":1311:1333   */\n  add\n    /* \"#utility.yul\":1269:1343   */\n  tag_66\n  jump\t// in\ntag_79:\n    /* \"#utility.yul\":1259:1343   */\n  swap3\n  pop\n    /* \"#utility.yul\":1062:1353   */\n  pop\n    /* \"#utility.yul\":1413:1415   */\n  0x20\n    /* \"#utility.yul\":1402:1411   */\n  dup4\n    /* \"#utility.yul\":1398:1416   */\n  add\n    /* \"#utility.yul\":1392:1417   */\n  mload\n    /* \"#utility.yul\":1444:1462   */\n  0xffffffffffffffff\n    /* \"#utility.yul\":1436:1442   */\n  dup2\n    /* \"#utility.yul\":1433:1463   */\n  gt\n    /* \"#utility.yul\":1430:1547   */\n  iszero\n  tag_80\n  jumpi\n    /* \"#utility.yul\":1466:1545   */\n  tag_81\n  tag_78\n  jump\t// in\ntag_81:\n    /* \"#utility.yul\":1430:1547   */\ntag_80:\n    /* \"#utility.yul\":1571:1645   */\n  tag_82\n    /* \"#utility.yul\":1637:1644   */\n  dup6\n    /* \"#utility.yul\":1628:1634   */\n  dup3\n    /* \"#utility.yul\":1617:1626   */\n  dup7\n    /* \"#utility.yul\":1613:1635   */\n  add\n    /* \"#utility.yul\":1571:1645   */\n  tag_66\n  jump\t// in\ntag_82:\n    /* \"#utility.yul\":1561:1645   */\n  swap2\n  pop\n    /* \"#utility.yul\":1363:1655   */\n  pop\n    /* \"#utility.yul\":809:1662   */\n  swap3\n  pop\n  swap3\n  swap1\n  pop\n  jump\t// out\n    /* \"#utility.yul\":1668:2034   */\ntag_83:\n    /* \"#utility.yul\":1810:1813   */\n  0x00\n    /* \"#utility.yul\":1831:1898   */\n  tag_85\n    /* \"#utility.yul\":1895:1897   */\n  0x1b\n    /* \"#utility.yul\":1890:1893   */\n  dup4\n    /* \"#utility.yul\":1831:1898   */\n  tag_86\n  jump\t// in\ntag_85:\n    /* \"#utility.yul\":1824:1898   */\n  swap2\n  pop\n    /* \"#utility.yul\":1907:2000   */\n  tag_87\n    /* \"#utility.yul\":1996:1999   */\n  dup3\n    /* \"#utility.yul\":1907:2000   */\n  tag_88\n  jump\t// in\ntag_87:\n    /* \"#utility.yul\":2025:2027   */\n  0x20\n    /* \"#utility.yul\":2020:2023   */\n  dup3\n    /* \"#utility.yul\":2016:2028   */\n  add\n    /* \"#utility.yul\":2009:2028   */\n  swap1\n  pop\n    /* \"#utility.yul\":1668:2034   */\n  swap2\n  swap1\n  pop\n  jump\t// out\n    /* \"#utility.yul\":2040:2406   */\ntag_89:\n    /* \"#utility.yul\":2182:2185   */\n  0x00\n    /* \"#utility.yul\":2203:2270   */\n  tag_91\n    /* \"#utility.yul\":2267:2269   */\n  0x1f\n    /* \"#utility.yul\":2262:2265   */\n  dup4\n    /* \"#utility.yul\":2203:2270   */\n  tag_86\n  jump\t// in\ntag_91:\n    /* \"#utility.yul\":2196:2270   */\n  swap2\n  pop\n    /* \"#utility.yul\":2279:2372   */\n  tag_92\n    /* \"#utility.yul\":2368:2371   */\n  dup3\n    /* \"#utility.yul\":2279:2372   */\n  tag_93\n  jump\t// in\ntag_92:\n    /* \"#utility.yul\":2397:2399   */\n  0x20\n    /* \"#utility.yul\":2392:2395   */\n  dup3\n    /* \"#utility.yul\":2388:2400   */\n  add\n    /* \"#utility.yul\":2381:2400   */\n  swap1\n  pop\n    /* \"#utility.yul\":2040:2406   */\n  swap2\n  swap1\n  pop\n  jump\t// out\n    /* \"#utility.yul\":2412:2530   */\ntag_94:\n    /* \"#utility.yul\":2499:2523   */\n  tag_96\n    /* \"#utility.yul\":2517:2522   */\n  dup2\n    /* \"#utility.yul\":2499:2523   */\n  tag_97\n  jump\t// in\ntag_96:\n    /* \"#utility.yul\":2494:2497   */\n  dup3\n    /* \"#utility.yul\":2487:2524   */\n  mstore\n    /* \"#utility.yul\":2412:2530   */\n  pop\n  pop\n  jump\t// out\n    /* \"#utility.yul\":2536:2955   */\ntag_42:\n    /* \"#utility.yul\":2702:2706   */\n  0x00\n    /* \"#utility.yul\":2740:2742   */\n  0x20\n    /* \"#utility.yul\":2729:2738   */\n  dup3\n    /* \"#utility.yul\":2725:2743   */\n  add\n    /* \"#utility.yul\":2717:2743   */\n  swap1\n  pop\n    /* \"#utility.yul\":2789:2798   */\n  dup2\n    /* \"#utility.yul\":2783:2787   */\n  dup2\n    /* \"#utility.yul\":2779:2799   */\n  sub\n    /* \"#utility.yul\":2775:2776   */\n  0x00\n    /* \"#utility.yul\":2764:2773   */\n  dup4\n    /* \"#utility.yul\":2760:2777   */\n  add\n    /* \"#utility.yul\":2753:2800   */\n  mstore\n    /* \"#utility.yul\":2817:2948   */\n  tag_99\n    /* \"#utility.yul\":2943:2947   */\n  dup2\n    /* \"#utility.yul\":2817:2948   */\n  tag_83\n  jump\t// in\ntag_99:\n    /* \"#utility.yul\":2809:2948   */\n  swap1\n  pop\n    /* \"#utility.yul\":2536:2955   */\n  swap2\n  swap1\n  pop\n  jump\t// out\n    /* \"#utility.yul\":2961:3380   */\ntag_31:\n    /* \"#utility.yul\":3127:3131   */\n  0x00\n    /* \"#utility.yul\":3165:3167   */\n  0x20\n    /* \"#utility.yul\":3154:3163   */\n  dup3\n    /* \"#utility.yul\":3150:3168   */\n  add\n    /* \"#utility.yul\":3142:3168   */\n  swap1\n  pop\n    /* \"#utility.yul\":3214:3223   */\n  dup2\n    /* \"#utility.yul\":3208:3212   */\n  dup2\n    /* \"#utility.yul\":3204:3224   */\n  sub\n    /* \"#utility.yul\":3200:3201   */\n  0x00\n    /* \"#utility.yul\":3189:3198   */\n  dup4\n    /* \"#utility.yul\":3185:3202   */\n  add\n    /* \"#utility.yul\":3178:3225   */\n  mstore\n    /* \"#utility.yul\":3242:3373   */\n  tag_101\n    /* \"#utility.yul\":3368:3372   */\n  dup2\n    /* \"#utility.yul\":3242:3373   */\n  tag_89\n  jump\t// in\ntag_101:\n    /* \"#utility.yul\":3234:3373   */\n  swap1\n  pop\n    /* \"#utility.yul\":2961:3380   */\n  swap2\n  swap1\n  pop\n  jump\t// out\n    /* \"#utility.yul\":3386:3608   */\ntag_36:\n    /* \"#utility.yul\":3479:3483   */\n  0x00\n    /* \"#utility.yul\":3517:3519   */\n  0x20\n    /* \"#utility.yul\":3506:3515   */\n  dup3\n    /* \"#utility.yul\":3502:3520   */\n  add\n    /* \"#utility.yul\":3494:3520   */\n  swap1\n  pop\n    /* \"#utility.yul\":3530:3601   */\n  tag_103\n    /* \"#utility.yul\":3598:3599   */\n  0x00\n    /* \"#utility.yul\":3587:3596   */\n  dup4\n    /* \"#utility.yul\":3583:3600   */\n  add\n    /* \"#utility.yul\":3574:3580   */\n  dup5\n    /* \"#utility.yul\":3530:3601   */\n  tag_94\n  jump\t// in\ntag_103:\n    /* \"#utility.yul\":3386:3608   */\n  swap3\n  swap2\n  pop\n  pop\n  jump\t// out\n    /* \"#utility.yul\":3614:3743   */\ntag_60:\n    /* \"#utility.yul\":3648:3654   */\n  0x00\n    /* \"#utility.yul\":3675:3695   */\n  tag_105\n  tag_106\n  jump\t// in\ntag_105:\n    /* \"#utility.yul\":3665:3695   */\n  swap1\n  pop\n    /* \"#utility.yul\":3704:3737   */\n  tag_107\n    /* \"#utility.yul\":3732:3736   */\n  dup3\n    /* \"#utility.yul\":3724:3730   */\n  dup3\n    /* \"#utility.yul\":3704:3737   */\n  tag_108\n  jump\t// in\ntag_107:\n    /* \"#utility.yul\":3614:3743   */\n  swap2\n  swap1\n  pop\n  jump\t// out\n    /* \"#utility.yul\":3749:3824   */\ntag_106:\n    /* \"#utility.yul\":3782:3788   */\n  0x00\n    /* \"#utility.yul\":3815:3817   */\n  0x40\n    /* \"#utility.yul\":3809:3818   */\n  mload\n    /* \"#utility.yul\":3799:3818   */\n  swap1\n  pop\n    /* \"#utility.yul\":3749:3824   */\n  swap1\n  jump\t// out\n    /* \"#utility.yul\":3830:4138   */\ntag_59:\n    /* \"#utility.yul\":3892:3896   */\n  0x00\n    /* \"#utility.yul\":3982:4000   */\n  0xffffffffffffffff\n    /* \"#utility.yul\":3974:3980   */\n  dup3\n    /* \"#utility.yul\":3971:4001   */\n  gt\n    /* \"#utility.yul\":3968:4024   */\n  iszero\n  tag_111\n  jumpi\n    /* \"#utility.yul\":4004:4022   */\n  tag_112\n  tag_113\n  jump\t// in\ntag_112:\n    /* \"#utility.yul\":3968:4024   */\ntag_111:\n    /* \"#utility.yul\":4042:4071   */\n  tag_114\n    /* \"#utility.yul\":4064:4070   */\n  dup3\n    /* \"#utility.yul\":4042:4071   */\n  tag_115\n  jump\t// in\ntag_114:\n    /* \"#utility.yul\":4034:4071   */\n  swap1\n  pop\n    /* \"#utility.yul\":4126:4130   */\n  0x20\n    /* \"#utility.yul\":4120:4124   */\n  dup2\n    /* \"#utility.yul\":4116:4131   */\n  add\n    /* \"#utility.yul\":4108:4131   */\n  swap1\n  pop\n    /* \"#utility.yul\":3830:4138   */\n  swap2\n  swap1\n  pop\n  jump\t// out\n    /* \"#utility.yul\":4144:4313   */\ntag_86:\n    /* \"#utility.yul\":4228:4239   */\n  0x00\n    /* \"#utility.yul\":4262:4268   */\n  dup3\n    /* \"#utility.yul\":4257:4260   */\n  dup3\n    /* \"#utility.yul\":4250:4269   */\n  mstore\n    /* \"#utility.yul\":4302:4306   */\n  0x20\n    /* \"#utility.yul\":4297:4300   */\n  dup3\n    /* \"#utility.yul\":4293:4307   */\n  add\n    /* \"#utility.yul\":4278:4307   */\n  swap1\n  pop\n    /* \"#utility.yul\":4144:4313   */\n  swap3\n  swap2\n  pop\n  pop\n  jump\t// out\n    /* \"#utility.yul\":4319:4624   */\ntag_39:\n    /* \"#utility.yul\":4359:4362   */\n  0x00\n    /* \"#utility.yul\":4378:4398   */\n  tag_118\n    /* \"#utility.yul\":4396:4397   */\n  dup3\n    /* \"#utility.yul\":4378:4398   */\n  tag_97\n  jump\t// in\ntag_118:\n    /* \"#utility.yul\":4373:4398   */\n  swap2\n  pop\n    /* \"#utility.yul\":4412:4432   */\n  tag_119\n    /* \"#utility.yul\":4430:4431   */\n  dup4\n    /* \"#utility.yul\":4412:4432   */\n  tag_97\n  jump\t// in\ntag_119:\n    /* \"#utility.yul\":4407:4432   */\n  swap3\n  pop\n    /* \"#utility.yul\":4566:4567   */\n  dup3\n    /* \"#utility.yul\":4498:4564   */\n  0xffffffffffffffffffffffffffffffffffffffffffffffffffffffffffffffff\n    /* \"#utility.yul\":4494:4568   */\n  sub\n    /* \"#utility.yul\":4491:4492   */\n  dup3\n    /* \"#utility.yul\":4488:4569   */\n  gt\n    /* \"#utility.yul\":4485:4592   */\n  iszero\n  tag_120\n  jumpi\n    /* \"#utility.yul\":4572:4590   */\n  tag_121\n  tag_122\n  jump\t// in\ntag_121:\n    /* \"#utility.yul\":4485:4592   */\ntag_120:\n    /* \"#utility.yul\":4616:4617   */\n  dup3\n    /* \"#utility.yul\":4613:4614   */\n  dup3\n    /* \"#utility.yul\":4609:4618   */\n  add\n    /* \"#utility.yul\":4602:4618   */\n  swap1\n  pop\n    /* \"#utility.yul\":4319:4624   */\n  swap3\n  swap2\n  pop\n  pop\n  jump\t// out\n    /* \"#utility.yul\":4630:5478   */\ntag_123:\n    /* \"#utility.yul\":4691:4696   */\n  0x00\n    /* \"#utility.yul\":4698:4702   */\n  dup1\n    /* \"#utility.yul\":4722:4728   */\n  dup3\n    /* \"#utility.yul\":4713:4728   */\n  swap2\n  pop\n    /* \"#utility.yul\":4746:4751   */\n  dup4\n    /* \"#utility.yul\":4737:4751   */\n  swap1\n  pop\n    /* \"#utility.yul\":4760:5472   */\ntag_125:\n    /* \"#utility.yul\":4781:4782   */\n  0x01\n    /* \"#utility.yul\":4771:4779   */\n  dup6\n    /* \"#utility.yul\":4768:4783   */\n  gt\n    /* \"#utility.yul\":4760:5472   */\n  iszero\n  tag_127\n  jumpi\n    /* \"#utility.yul\":4876:4880   */\n  dup1\n    /* \"#utility.yul\":4871:4874   */\n  dup7\n    /* \"#utility.yul\":4867:4881   */\n  div\n    /* \"#utility.yul\":4861:4865   */\n  dup2\n    /* \"#utility.yul\":4858:4882   */\n  gt\n    /* \"#utility.yul\":4855:4905   */\n  iszero\n  tag_128\n  jumpi\n    /* \"#utility.yul\":4885:4903   */\n  tag_129\n  tag_122\n  jump\t// in\ntag_129:\n    /* \"#utility.yul\":4855:4905   */\ntag_128:\n    /* \"#utility.yul\":4935:4936   */\n  0x01\n    /* \"#utility.yul\":4925:4933   */\n  dup6\n    /* \"#utility.yul\":4921:4937   */\n  and\n    /* \"#utility.yul\":4918:5369   */\n  iszero\n  tag_130\n  jumpi\n    /* \"#utility.yul\":5350:5354   */\n  dup1\n    /* \"#utility.yul\":5343:5348   */\n  dup3\n    /* \"#utility.yul\":5339:5355   */\n  mul\n    /* \"#utility.yul\":5330:5355   */\n  swap2\n  pop\n    /* \"#utility.yul\":4918:5369   */\ntag_130:\n    /* \"#utility.yul\":5400:5404   */\n  dup1\n    /* \"#utility.yul\":5394:5398   */\n  dup2\n    /* \"#utility.yul\":5390:5405   */\n  mul\n    /* \"#utility.yul\":5382:5405   */\n  swap1\n  pop\n    /* \"#utility.yul\":5430:5462   */\n  tag_131\n    /* \"#utility.yul\":5453:5461   */\n  dup6\n    /* \"#utility.yul\":5430:5462   */\n  tag_132\n  jump\t// in\ntag_131:\n    /* \"#utility.yul\":5418:5462   */\n  swap5\n  pop\n    /* \"#utility.yul\":4760:5472   */\n  jump(tag_125)\ntag_127:\n    /* \"#utility.yul\":4630:5478   */\n  swap5\n  pop\n  swap5\n  swap3\n  pop\n  pop\n  pop\n  jump\t// out\n    /* \"#utility.yul\":5484:5769   */\ntag_20:\n    /* \"#utility.yul\":5544:5549   */\n  0x00\n    /* \"#utility.yul\":5568:5591   */\n  tag_134\n    /* \"#utility.yul\":5586:5590   */\n  dup3\n    /* \"#utility.yul\":5568:5591   */\n  tag_97\n  jump\t// in\ntag_134:\n    /* \"#utility.yul\":5560:5591   */\n  swap2\n  pop\n    /* \"#utility.yul\":5612:5639   */\n  tag_135\n    /* \"#utility.yul\":5630:5638   */\n  dup4\n    /* \"#utility.yul\":5612:5639   */\n  tag_97\n  jump\t// in\ntag_135:\n    /* \"#utility.yul\":5600:5639   */\n  swap3\n  pop\n    /* \"#utility.yul\":5658:5762   */\n  tag_136\n    /* \"#utility.yul\":5695:5761   */\n  0xffffffffffffffffffffffffffffffffffffffffffffffffffffffffffffffff\n    /* \"#utility.yul\":5685:5693   */\n  dup5\n    /* \"#utility.yul\":5679:5683   */\n  dup5\n    /* \"#utility.yul\":5658:5762   */\n  tag_137\n  jump\t// in\ntag_136:\n    /* \"#utility.yul\":5649:5762   */\n  swap1\n  pop\n    /* \"#utility.yul\":5484:5769   */\n  swap3\n  swap2\n  pop\n  pop\n  jump\t// out\n    /* \"#utility.yul\":5775:6848   */\ntag_137:\n    /* \"#utility.yul\":5829:5834   */\n  0x00\n    /* \"#utility.yul\":6020:6028   */\n  dup3\n    /* \"#utility.yul\":6010:6050   */\n  tag_139\n  jumpi\n    /* \"#utility.yul\":6041:6042   */\n  0x01\n    /* \"#utility.yul\":6032:6042   */\n  swap1\n  pop\n    /* \"#utility.yul\":6043:6048   */\n  jump(tag_138)\n    /* \"#utility.yul\":6010:6050   */\ntag_139:\n    /* \"#utility.yul\":6069:6073   */\n  dup2\n    /* \"#utility.yul\":6059:6095   */\n  tag_140\n  jumpi\n    /* \"#utility.yul\":6086:6087   */\n  0x00\n    /* \"#utility.yul\":6077:6087   */\n  swap1\n  pop\n    /* \"#utility.yul\":6088:6093   */\n  jump(tag_138)\n    /* \"#utility.yul\":6059:6095   */\ntag_140:\n    /* \"#utility.yul\":6155:6159   */\n  dup2\n    /* \"#utility.yul\":6203:6204   */\n  0x01\n    /* \"#utility.yul\":6198:6225   */\n  dup2\n  eq\n  tag_142\n  jumpi\n    /* \"#utility.yul\":6239:6240   */\n  0x02\n    /* \"#utility.yul\":6234:6425   */\n  dup2\n  eq\n  tag_143\n  jumpi\n    /* \"#utility.yul\":6148:6425   */\n  jump(tag_141)\n    /* \"#utility.yul\":6198:6225   */\ntag_142:\n    /* \"#utility.yul\":6216:6217   */\n  0x01\n    /* \"#utility.yul\":6207:6217   */\n  swap2\n  pop\n    /* \"#utility.yul\":6218:6223   */\n  pop\n  jump(tag_138)\n    /* \"#utility.yul\":6234:6425   */\ntag_143:\n    /* \"#utility.yul\":6279:6282   */\n  0xff\n    /* \"#utility.yul\":6269:6277   */\n  dup5\n    /* \"#utility.yul\":6266:6283   */\n  gt\n    /* \"#utility.yul\":6263:6306   */\n  iszero\n  tag_144\n  jumpi\n    /* \"#utility.yul\":6286:6304   */\n  tag_145\n  tag_122\n  jump\t// in\ntag_145:\n    /* \"#utility.yul\":6263:6306   */\ntag_144:\n    /* \"#utility.yul\":6335:6343   */\n  dup4\n    /* \"#utility.yul\":6332:6333   */\n  0x02\n    /* \"#utility.yul\":6328:6344   */\n  exp\n    /* \"#utility.yul\":6319:6344   */\n  swap2\n  pop\n    /* \"#utility.yul\":6370:6373   */\n  dup5\n    /* \"#utility.yul\":6363:6368   */\n  dup3\n    /* \"#utility.yul\":6360:6374   */\n  gt\n    /* \"#utility.yul\":6357:6397   */\n  iszero\n  tag_146\n  jumpi\n    /* \"#utility.yul\":6377:6395   */\n  tag_147\n  tag_122\n  jump\t// in\ntag_147:\n    /* \"#utility.yul\":6357:6397   */\ntag_146:\n    /* \"#utility.yul\":6410:6415   */\n  pop\n  jump(tag_138)\n    /* \"#utility.yul\":6148:6425   */\ntag_141:\n  pop\n    /* \"#utility.yul\":6534:6536   */\n  0x20\n    /* \"#utility.yul\":6524:6532   */\n  dup4\n    /* \"#utility.yul\":6521:6537   */\n  lt\n    /* \"#utility.yul\":6515:6518   */\n  0x0133\n    /* \"#utility.yul\":6509:6513   */\n  dup4\n    /* \"#utility.yul\":6506:6519   */\n  lt\n    /* \"#utility.yul\":6502:6538   */\n  and\n    /* \"#utility.yul\":6484:6486   */\n  0x4e\n    /* \"#utility.yul\":6474:6482   */\n  dup5\n    /* \"#utility.yul\":6471:6487   */\n  lt\n    /* \"#utility.yul\":6466:6468   */\n  0x0b\n    /* \"#utility.yul\":6460:6464   */\n  dup5\n    /* \"#utility.yul\":6457:6469   */\n  lt\n    /* \"#utility.yul\":6453:6488   */\n  and\n    /* \"#utility.yul\":6437:6548   */\n  or\n    /* \"#utility.yul\":6434:6680   */\n  iszero\n  tag_148\n  jumpi\n    /* \"#utility.yul\":6590:6598   */\n  dup3\n    /* \"#utility.yul\":6584:6588   */\n  dup3\n    /* \"#utility.yul\":6580:6599   */\n  exp\n    /* \"#utility.yul\":6571:6599   */\n  swap1\n  pop\n    /* \"#utility.yul\":6625:6628   */\n  dup4\n    /* \"#utility.yul\":6618:6623   */\n  dup2\n    /* \"#utility.yul\":6615:6629   */\n  gt\n    /* \"#utility.yul\":6612:6652   */\n  iszero\n  tag_149\n  jumpi\n    /* \"#utility.yul\":6632:6650   */\n  tag_150\n  tag_122\n  jump\t// in\ntag_150:\n    /* \"#utility.yul\":6612:6652   */\ntag_149:\n    /* \"#utility.yul\":6665:6670   */\n  jump(tag_138)\n    /* \"#utility.yul\":6434:6680   */\ntag_148:\n    /* \"#utility.yul\":6705:6747   */\n  tag_151\n    /* \"#utility.yul\":6743:6746   */\n  dup5\n    /* \"#utility.yul\":6733:6741   */\n  dup5\n    /* \"#utility.yul\":6727:6731   */\n  dup5\n    /* \"#utility.yul\":6724:6725   */\n  0x01\n    /* \"#utility.yul\":6705:6747   */\n  tag_123\n  jump\t// in\ntag_151:\n    /* \"#utility.yul\":6690:6747   */\n  swap3\n  pop\n  swap1\n  pop\n    /* \"#utility.yul\":6779:6783   */\n  dup2\n    /* \"#utility.yul\":6774:6777   */\n  dup5\n    /* \"#utility.yul\":6770:6784   */\n  div\n    /* \"#utility.yul\":6763:6768   */\n  dup2\n    /* \"#utility.yul\":6760:6785   */\n  gt\n    /* \"#utility.yul\":6757:6808   */\n  iszero\n  tag_152\n  jumpi\n    /* \"#utility.yul\":6788:6806   */\n  tag_153\n  tag_122\n  jump\t// in\ntag_153:\n    /* \"#utility.yul\":6757:6808   */\ntag_152:\n    /* \"#utility.yul\":6837:6841   */\n  dup2\n    /* \"#utility.yul\":6830:6835   */\n  dup2\n    /* \"#utility.yul\":6826:6842   */\n  mul\n    /* \"#utility.yul\":6817:6842   */\n  swap1\n  pop\n    /* \"#utility.yul\":5775:6848   */\ntag_138:\n  swap4\n  swap3\n  pop\n  pop\n  pop\n  jump\t// out\n    /* \"#utility.yul\":6854:7202   */\ntag_22:\n    /* \"#utility.yul\":6894:6901   */\n  0x00\n    /* \"#utility.yul\":6917:6937   */\n  tag_155\n    /* \"#utility.yul\":6935:6936   */\n  dup3\n    /* \"#utility.yul\":6917:6937   */\n  tag_97\n  jump\t// in\ntag_155:\n    /* \"#utility.yul\":6912:6937   */\n  swap2\n  pop\n    /* \"#utility.yul\":6951:6971   */\n  tag_156\n    /* \"#utility.yul\":6969:6970   */\n  dup4\n    /* \"#utility.yul\":6951:6971   */\n  tag_97\n  jump\t// in\ntag_156:\n    /* \"#utility.yul\":6946:6971   */\n  swap3\n  pop\n    /* \"#utility.yul\":7139:7140   */\n  dup2\n    /* \"#utility.yul\":7071:7137   */\n  0xffffffffffffffffffffffffffffffffffffffffffffffffffffffffffffffff\n    /* \"#utility.yul\":7067:7141   */\n  div\n    /* \"#utility.yul\":7064:7065   */\n  dup4\n    /* \"#utility.yul\":7061:7142   */\n  gt\n    /* \"#utility.yul\":7056:7057   */\n  dup3\n    /* \"#utility.yul\":7049:7058   */\n  iszero\n    /* \"#utility.yul\":7042:7059   */\n  iszero\n    /* \"#utility.yul\":7038:7143   */\n  and\n    /* \"#utility.yul\":7035:7166   */\n  iszero\n  tag_157\n  jumpi\n    /* \"#utility.yul\":7146:7164   */\n  tag_158\n  tag_122\n  jump\t// in\ntag_158:\n    /* \"#utility.yul\":7035:7166   */\ntag_157:\n    /* \"#utility.yul\":7194:7195   */\n  dup3\n    /* \"#utility.yul\":7191:7192   */\n  dup3\n    /* \"#utility.yul\":7187:7196   */\n  mul\n    /* \"#utility.yul\":7176:7196   */\n  swap1\n  pop\n    /* \"#utility.yul\":6854:7202   */\n  swap3\n  swap2\n  pop\n  pop\n  jump\t// out\n    /* \"#utility.yul\":7208:7285   */\ntag_97:\n    /* \"#utility.yul\":7245:7252   */\n  0x00\n    /* \"#utility.yul\":7274:7279   */\n  dup2\n    /* \"#utility.yul\":7263:7279   */\n  swap1\n  pop\n    /* \"#utility.yul\":7208:7285   */\n  swap2\n  swap1\n  pop\n  jump\t// out\n    /* \"#utility.yul\":7291:7598   */\ntag_65:\n    /* \"#utility.yul\":7359:7360   */\n  0x00\n    /* \"#utility.yul\":7369:7482   */\ntag_161:\n    /* \"#utility.yul\":7383:7389   */\n  dup4\n    /* \"#utility.yul\":7380:7381   */\n  dup2\n    /* \"#utility.yul\":7377:7390   */\n  lt\n    /* \"#utility.yul\":7369:7482   */\n  iszero\n  tag_163\n  jumpi\n    /* \"#utility.yul\":7468:7469   */\n  dup1\n    /* \"#utility.yul\":7463:7466   */\n  dup3\n    /* \"#utility.yul\":7459:7470   */\n  add\n    /* \"#utility.yul\":7453:7471   */\n  mload\n    /* \"#utility.yul\":7449:7450   */\n  dup2\n    /* \"#utility.yul\":7444:7447   */\n  dup5\n    /* \"#utility.yul\":7440:7451   */\n  add\n    /* \"#utility.yul\":7433:7472   */\n  mstore\n    /* \"#utility.yul\":7405:7407   */\n  0x20\n    /* \"#utility.yul\":7402:7403   */\n  dup2\n    /* \"#utility.yul\":7398:7408   */\n  add\n    /* \"#utility.yul\":7393:7408   */\n  swap1\n  pop\n    /* \"#utility.yul\":7369:7482   */\n  jump(tag_161)\ntag_163:\n    /* \"#utility.yul\":7500:7506   */\n  dup4\n    /* \"#utility.yul\":7497:7498   */\n  dup2\n    /* \"#utility.yul\":7494:7507   */\n  gt\n    /* \"#utility.yul\":7491:7592   */\n  iszero\n  tag_164\n  jumpi\n    /* \"#utility.yul\":7580:7581   */\n  0x00\n    /* \"#utility.yul\":7571:7577   */\n  dup5\n    /* \"#utility.yul\":7566:7569   */\n  dup5\n    /* \"#utility.yul\":7562:7578   */\n  add\n    /* \"#utility.yul\":7555:7582   */\n  mstore\n    /* \"#utility.yul\":7491:7592   */\ntag_164:\n    /* \"#utility.yul\":7340:7598   */\n  pop\n    /* \"#utility.yul\":7291:7598   */\n  pop\n  pop\n  pop\n  jump\t// out\n    /* \"#utility.yul\":7604:7924   */\ntag_44:\n    /* \"#utility.yul\":7648:7654   */\n  0x00\n    /* \"#utility.yul\":7685:7686   */\n  0x02\n    /* \"#utility.yul\":7679:7683   */\n  dup3\n    /* \"#utility.yul\":7675:7687   */\n  div\n    /* \"#utility.yul\":7665:7687   */\n  swap1\n  pop\n    /* \"#utility.yul\":7732:7733   */\n  0x01\n    /* \"#utility.yul\":7726:7730   */\n  dup3\n    /* \"#utility.yul\":7722:7734   */\n  and\n    /* \"#utility.yul\":7753:7771   */\n  dup1\n    /* \"#utility.yul\":7743:7824   */\n  tag_166\n  jumpi\n    /* \"#utility.yul\":7809:7813   */\n  0x7f\n    /* \"#utility.yul\":7801:7807   */\n  dup3\n    /* \"#utility.yul\":7797:7814   */\n  and\n    /* \"#utility.yul\":7787:7814   */\n  swap2\n  pop\n    /* \"#utility.yul\":7743:7824   */\ntag_166:\n    /* \"#utility.yul\":7871:7873   */\n  0x20\n    /* \"#utility.yul\":7863:7869   */\n  dup3\n    /* \"#utility.yul\":7860:7874   */\n  lt\n    /* \"#utility.yul\":7840:7858   */\n  dup2\n    /* \"#utility.yul\":7837:7875   */\n  eq\n    /* \"#utility.yul\":7834:7918   */\n  iszero\n  tag_167\n  jumpi\n    /* \"#utility.yul\":7890:7908   */\n  tag_168\n  tag_169\n  jump\t// in\ntag_168:\n    /* \"#utility.yul\":7834:7918   */\ntag_167:\n    /* \"#utility.yul\":7655:7924   */\n  pop\n    /* \"#utility.yul\":7604:7924   */\n  swap2\n  swap1\n  pop\n  jump\t// out\n    /* \"#utility.yul\":7930:8211   */\ntag_108:\n    /* \"#utility.yul\":8013:8040   */\n  tag_171\n    /* \"#utility.yul\":8035:8039   */\n  dup3\n    /* \"#utility.yul\":8013:8040   */\n  tag_115\n  jump\t// in\ntag_171:\n    /* \"#utility.yul\":8005:8011   */\n  dup2\n    /* \"#utility.yul\":8001:8041   */\n  add\n    /* \"#utility.yul\":8143:8149   */\n  dup2\n    /* \"#utility.yul\":8131:8141   */\n  dup2\n    /* \"#utility.yul\":8128:8150   */\n  lt\n    /* \"#utility.yul\":8107:8125   */\n  0xffffffffffffffff\n    /* \"#utility.yul\":8095:8105   */\n  dup3\n    /* \"#utility.yul\":8092:8126   */\n  gt\n    /* \"#utility.yul\":8089:8151   */\n  or\n    /* \"#utility.yul\":8086:8174   */\n  iszero\n  tag_172\n  jumpi\n    /* \"#utility.yul\":8154:8172   */\n  tag_173\n  tag_113\n  jump\t// in\ntag_173:\n    /* \"#utility.yul\":8086:8174   */\ntag_172:\n    /* \"#utility.yul\":8194:8204   */\n  dup1\n    /* \"#utility.yul\":8190:8192   */\n  0x40\n    /* \"#utility.yul\":8183:8205   */\n  mstore\n    /* \"#utility.yul\":7973:8211   */\n  pop\n    /* \"#utility.yul\":7930:8211   */\n  pop\n  pop\n  jump\t// out\n    /* \"#utility.yul\":8217:8397   */\ntag_122:\n    /* \"#utility.yul\":8265:8342   */\n  0x4e487b7100000000000000000000000000000000000000000000000000000000\n    /* \"#utility.yul\":8262:8263   */\n  0x00\n    /* \"#utility.yul\":8255:8343   */\n  mstore\n    /* \"#utility.yul\":8362:8366   */\n  0x11\n    /* \"#utility.yul\":8359:8360   */\n  0x04\n    /* \"#utility.yul\":8352:8367   */\n  mstore\n    /* \"#utility.yul\":8386:8390   */\n  0x24\n    /* \"#utility.yul\":8383:8384   */\n  0x00\n    /* \"#utility.yul\":8376:8391   */\n  revert\n    /* \"#utility.yul\":8403:8583   */\ntag_169:\n    /* \"#utility.yul\":8451:8528   */\n  0x4e487b7100000000000000000000000000000000000000000000000000000000\n    /* \"#utility.yul\":8448:8449   */\n  0x00\n    /* \"#utility.yul\":8441:8529   */\n  mstore\n    /* \"#utility.yul\":8548:8552   */\n  0x22\n    /* \"#utility.yul\":8545:8546   */\n  0x04\n    /* \"#utility.yul\":8538:8553   */\n  mstore\n    /* \"#utility.yul\":8572:8576   */\n  0x24\n    /* \"#utility.yul\":8569:8570   */\n  0x00\n    /* \"#utility.yul\":8562:8577   */\n  revert\n    /* \"#utility.yul\":8589:8769   */\ntag_113:\n    /* \"#utility.yul\":8637:8714   */\n  0x4e487b7100000000000000000000000000000000000000000000000000000000\n    /* \"#utility.yul\":8634:8635   */\n  0x00\n    /* \"#utility.yul\":8627:8715   */\n  mstore\n    /* \"#utility.yul\":8734:8738   */\n  0x41\n    /* \"#utility.yul\":8731:8732   */\n  0x04\n    /* \"#utility.yul\":8724:8739   */\n  mstore\n    /* \"#utility.yul\":8758:8762   */\n  0x24\n    /* \"#utility.yul\":8755:8756   */\n  0x00\n    /* \"#utility.yul\":8748:8763   */\n  revert\n    /* \"#utility.yul\":8775:8892   */\ntag_70:\n    /* \"#utility.yul\":8884:8885   */\n  0x00\n    /* \"#utility.yul\":8881:8882   */\n  dup1\n    /* \"#utility.yul\":8874:8886   */\n  revert\n    /* \"#utility.yul\":8898:9015   */\ntag_63:\n    /* \"#utility.yul\":9007:9008   */\n  0x00\n    /* \"#utility.yul\":9004:9005   */\n  dup1\n    /* \"#utility.yul\":8997:9009   */\n  revert\n    /* \"#utility.yul\":9021:9138   */\ntag_78:\n    /* \"#utility.yul\":9130:9131   */\n  0x00\n    /* \"#utility.yul\":9127:9128   */\n  dup1\n    /* \"#utility.yul\":9120:9132   */\n  revert\n    /* \"#utility.yul\":9144:9261   */\ntag_75:\n    /* \"#utility.yul\":9253:9254   */\n  0x00\n    /* \"#utility.yul\":9250:9251   */\n  dup1\n    /* \"#utility.yul\":9243:9255   */\n  revert\n    /* \"#utility.yul\":9267:9369   */\ntag_115:\n    /* \"#utility.yul\":9308:9314   */\n  0x00\n    /* \"#utility.yul\":9359:9361   */\n  0x1f\n    /* \"#utility.yul\":9355:9362   */\n  not\n    /* \"#utility.yul\":9350:9352   */\n  0x1f\n    /* \"#utility.yul\":9343:9348   */\n  dup4\n    /* \"#utility.yul\":9339:9353   */\n  add\n    /* \"#utility.yul\":9335:9363   */\n  and\n    /* \"#utility.yul\":9325:9363   */\n  swap1\n  pop\n    /* \"#utility.yul\":9267:9369   */\n  swap2\n  swap1\n  pop\n  jump\t// out\n    /* \"#utility.yul\":9375:9477   */\ntag_132:\n    /* \"#utility.yul\":9417:9425   */\n  0x00\n    /* \"#utility.yul\":9464:9469   */\n  dup2\n    /* \"#utility.yul\":9461:9462   */\n  0x01\n    /* \"#utility.yul\":9457:9470   */\n  shr\n    /* \"#utility.yul\":9436:9470   */\n  swap1\n  pop\n    /* \"#utility.yul\":9375:9477   */\n  swap2\n  swap1\n  pop\n  jump\t// out\n    /* \"#utility.yul\":9483:9660   */\ntag_88:\n    /* \"#utility.yul\":9623:9652   */\n  0x536166654d6174683a206164646974696f6e206f766572666c6f770000000000\n    /* \"#utility.yul\":9619:9620   */\n  0x00\n    /* \"#utility.yul\":9611:9617   */\n  dup3\n    /* \"#utility.yul\":9607:9621   */\n  add\n    /* \"#utility.yul\":9600:9653   */\n  mstore\n    /* \"#utility.yul\":9483:9660   */\n  pop\n  jump\t// out\n    /* \"#utility.yul\":9666:9847   */\ntag_93:\n    /* \"#utility.yul\":9806:9839   */\n  0x42455032303a206d696e7420746f20746865207a65726f206164647265737300\n    /* \"#utility.yul\":9802:9803   */\n  0x00\n    /* \"#utility.yul\":9794:9800   */\n  dup3\n    /* \"#utility.yul\":9790:9804   */\n  add\n    /* \"#utility.yul\":9783:9840   */\n  mstore\n    /* \"#utility.yul\":9666:9847   */\n  pop\n  jump\t// out\n    /* \"VIMToken.sol\":114:4073  contract VIMToken is BEP20Detailed, BEP20 {... */\ntag_25:\n  dataSize(sub_0)\n  dup1\n  dataOffset(sub_0)\n  0x00\n  codecopy\n  0x00\n  return\nstop\n\nsub_0: assembly {\n        /* \"VIMToken.sol\":114:4073  contract VIMToken is BEP20Detailed, BEP20 {... */\n      mstore(0x40, 0x80)\n      callvalue\n      dup1\n      iszero\n      tag_1\n      jumpi\n      0x00\n      dup1\n      revert\n    tag_1:\n      pop\n      jumpi(tag_2, lt(calldatasize, 0x04))\n      shr(0xe0, calldataload(0x00))\n      dup1\n      0x70a08231\n      gt\n      tag_33\n      jumpi\n      dup1\n      0xa86517bf\n      gt\n      tag_34\n      jumpi\n      dup1\n      0xcc600f91\n      gt\n      tag_35\n      jumpi\n      dup1\n      0xcc600f91\n      eq\n      tag_29\n      jumpi\n      dup1\n      0xdd62ed3e\n      eq\n      tag_30\n      jumpi\n      dup1\n      0xf2fde38b\n      eq\n      tag_31\n      jumpi\n      dup1\n      0xfb75b2c7\n      eq\n      tag_32\n      jumpi\n      jump(tag_2)\n    tag_35:\n      dup1\n      0xa86517bf\n      eq\n      tag_25\n      jumpi\n      dup1\n      0xa9059cbb\n      eq\n      tag_26\n      jumpi\n      dup1\n      0xb5ddeb6e\n      eq\n      tag_27\n      jumpi\n      dup1\n      0xc89c58fb\n      eq\n      tag_28\n      jumpi\n      jump(tag_2)\n    tag_34:\n      dup1\n      0x8da5cb5b\n      gt\n      tag_36\n      jumpi\n      dup1\n      0x8da5cb5b\n      eq\n      tag_21\n      jumpi\n      dup1\n      0x8f32d59b\n      eq\n      tag_22\n      jumpi\n      dup1\n      0x95d89b41\n      eq\n      tag_23\n      jumpi\n      dup1\n      0xa457c2d7\n      eq\n      tag_24\n      jumpi\n      jump(tag_2)\n    tag_36:\n      dup1\n      0x70a08231\n      eq\n      tag_18\n      jumpi\n      dup1\n      0x715018a6\n      eq\n      tag_19\n      jumpi\n      dup1\n      0x8456cb59\n      eq\n      tag_20\n      jumpi\n      jump(tag_2)\n    tag_33:\n      dup1\n      0x23b872dd\n      gt\n      tag_37\n      jumpi\n      dup1\n      0x39509351\n      gt\n      tag_38\n      jumpi\n      dup1\n      0x39509351\n      eq\n      tag_14\n      jumpi\n      dup1\n      0x3f4ba83a\n      eq\n      tag_15\n      jumpi\n      dup1\n      0x53d6fd59\n      eq\n      tag_16\n      jumpi\n      dup1\n      0x5c975abb\n      eq\n      tag_17\n      jumpi\n      jump(tag_2)\n    tag_38:\n      dup1\n      0x23b872dd\n      eq\n      tag_10\n      jumpi\n      dup1\n      0x2553dff5\n      eq\n      tag_11\n      jumpi\n      dup1\n      0x2973ef2d\n      eq\n      tag_12\n      jumpi\n      dup1\n      0x313ce567\n      eq\n      tag_13\n      jumpi\n      jump(tag_2)\n    tag_37:\n      dup1\n      0x0d2cf31f\n      gt\n      tag_39\n      jumpi\n      dup1\n      0x0d2cf31f\n      eq\n      tag_6\n      jumpi\n      dup1\n      0x153b0d1e\n      eq\n      tag_7\n      jumpi\n      dup1\n      0x1574567b\n      eq\n      tag_8\n      jumpi\n      dup1\n      0x18160ddd\n      eq\n      tag_9\n      jumpi\n      jump(tag_2)\n    tag_39:\n      dup1\n      0x06fdde03\n      eq\n      tag_3\n      jumpi\n      dup1\n      0x095ea7b3\n      eq\n      tag_4\n      jumpi\n      dup1\n      0x09904c00\n      eq\n      tag_5\n      jumpi\n    tag_2:\n      0x00\n      dup1\n      revert\n        /* \"BEP20Detailed.sol\":624:699  function name() public view returns (string memory) {... */\n    tag_3:\n      tag_40\n      tag_41\n      jump\t// in\n    tag_40:\n      mload(0x40)\n      tag_42\n      swap2\n      swap1\n      tag_43\n      jump\t// in\n    tag_42:\n      mload(0x40)\n      dup1\n      swap2\n      sub\n      swap1\n      return\n        /* \"BEP20.sol\":2350:2512  function approve(address spender, uint256 amount) public override whenNotPaused returns (bool) {... */\n    tag_4:\n      tag_44\n      0x04\n      dup1\n      calldatasize\n      sub\n      dup2\n      add\n      swap1\n      tag_45\n      swap2\n      swap1\n      tag_46\n      jump\t// in\n    tag_45:\n      tag_47\n      jump\t// in\n    tag_44:\n      mload(0x40)\n      tag_48\n      swap2\n      swap1\n      tag_49\n      jump\t// in\n    tag_48:\n      mload(0x40)\n      dup1\n      swap2\n      sub\n      swap1\n      return\n        /* \"VIMToken.sol\":615:643  address public depositWallet */\n    tag_5:\n      tag_50\n      tag_51\n      jump\t// in\n    tag_50:\n      mload(0x40)\n      tag_52\n      swap2\n      swap1\n      tag_53\n      jump\t// in\n    tag_52:\n      mload(0x40)\n      dup1\n      swap2\n      sub\n      swap1\n      return\n        /* \"VIMToken.sol\":1955:2264  function setTaxes(uint8 _sellTax, uint8 _buyTax, uint8 _transferTax) external onlyOwner {... */\n    tag_6:\n      tag_54\n      0x04\n      dup1\n      calldatasize\n      sub\n      dup2\n      add\n      swap1\n      tag_55\n      swap2\n      swap1\n      tag_56\n      jump\t// in\n    tag_55:\n      tag_57\n      jump\t// in\n    tag_54:\n      stop\n        /* \"VIMToken.sol\":1282:1438  function setBlacklist(address _wallet, bool _status) external onlyOwner {... */\n    tag_7:\n      tag_58\n      0x04\n      dup1\n      calldatasize\n      sub\n      dup2\n      add\n      swap1\n      tag_59\n      swap2\n      swap1\n      tag_60\n      jump\t// in\n    tag_59:\n      tag_61\n      jump\t// in\n    tag_58:\n      stop\n        /* \"VIMToken.sol\":1444:1597  function setCooldownForTrades(uint8 _tradeCooldown) external onlyOwner {... */\n    tag_8:\n      tag_62\n      0x04\n      dup1\n      calldatasize\n      sub\n      dup2\n      add\n      swap1\n      tag_63\n      swap2\n      swap1\n      tag_64\n      jump\t// in\n    tag_63:\n      tag_65\n      jump\t// in\n    tag_62:\n      stop\n        /* \"BEP20.sol\":1429:1521  function totalSupply() public view override returns (uint256) {... */\n    tag_9:\n      tag_66\n      tag_67\n      jump\t// in\n    tag_66:\n      mload(0x40)\n      tag_68\n      swap2\n      swap1\n      tag_69\n      jump\t// in\n    tag_68:\n      mload(0x40)\n      dup1\n      swap2\n      sub\n      swap1\n      return\n        /* \"BEP20.sol\":2944:3301  function transferFrom(... */\n    tag_10:\n      tag_70\n      0x04\n      dup1\n      calldatasize\n      sub\n      dup2\n      add\n      swap1\n      tag_71\n      swap2\n      swap1\n      tag_72\n      jump\t// in\n    tag_71:\n      tag_73\n      jump\t// in\n    tag_70:\n      mload(0x40)\n      tag_74\n      swap2\n      swap1\n      tag_49\n      jump\t// in\n    tag_74:\n      mload(0x40)\n      dup1\n      swap2\n      sub\n      swap1\n      return\n        /* \"VIMToken.sol\":2587:2704  function updateDepositWallet(address newDepositWallet) external onlyOwner {... */\n    tag_11:\n      tag_75\n      0x04\n      dup1\n      calldatasize\n      sub\n      dup2\n      add\n      swap1\n      tag_76\n      swap2\n      swap1\n      tag_77\n      jump\t// in\n    tag_76:\n      tag_78\n      jump\t// in\n    tag_75:\n      stop\n        /* \"VIMToken.sol\":2268:2413  function getTaxes() external pure returns (uint8 _sellTax, uint8 _buyTax, uint8 _transferTax) {... */\n    tag_12:\n      tag_79\n      tag_80\n      jump\t// in\n    tag_79:\n      mload(0x40)\n      tag_81\n      swap4\n      swap3\n      swap2\n      swap1\n      tag_82\n      jump\t// in\n    tag_81:\n      mload(0x40)\n      dup1\n      swap2\n      sub\n      swap1\n      return\n        /* \"BEP20Detailed.sol\":1404:1479  function decimals() public view returns (uint8) {... */\n    tag_13:\n      tag_83\n      tag_84\n      jump\t// in\n    tag_83:\n      mload(0x40)\n      tag_85\n      swap2\n      swap1\n      tag_86\n      jump\t// in\n    tag_85:\n      mload(0x40)\n      dup1\n      swap2\n      sub\n      swap1\n      return\n        /* \"BEP20.sol\":3670:3881  function increaseAllowance(address spender, uint256 addedValue) public whenNotPaused returns (bool) {... */\n    tag_14:\n      tag_87\n      0x04\n      dup1\n      calldatasize\n      sub\n      dup2\n      add\n      swap1\n      tag_88\n      swap2\n      swap1\n      tag_46\n      jump\t// in\n    tag_88:\n      tag_89\n      jump\t// in\n    tag_87:\n      mload(0x40)\n      tag_90\n      swap2\n      swap1\n      tag_49\n      jump\t// in\n    tag_90:\n      mload(0x40)\n      dup1\n      swap2\n      sub\n      swap1\n      return\n        /* \"BEPPausable.sol\":870:994  function unpause() public onlyOwner whenPaused returns (bool) {... */\n    tag_15:\n      tag_91\n      tag_92\n      jump\t// in\n    tag_91:\n      mload(0x40)\n      tag_93\n      swap2\n      swap1\n      tag_49\n      jump\t// in\n    tag_93:\n      mload(0x40)\n      dup1\n      swap2\n      sub\n      swap1\n      return\n        /* \"VIMToken.sol\":2419:2583  function setWhitelist(address _address, bool _status) external onlyOwner {... */\n    tag_16:\n      tag_94\n      0x04\n      dup1\n      calldatasize\n      sub\n      dup2\n      add\n      swap1\n      tag_95\n      swap2\n      swap1\n      tag_60\n      jump\t// in\n    tag_95:\n      tag_96\n      jump\t// in\n    tag_94:\n      stop\n        /* \"BEPPausable.sol\":272:298  bool public paused = false */\n    tag_17:\n      tag_97\n      tag_98\n      jump\t// in\n    tag_97:\n      mload(0x40)\n      tag_99\n      swap2\n      swap1\n      tag_49\n      jump\t// in\n    tag_99:\n      mload(0x40)\n      dup1\n      swap2\n      sub\n      swap1\n      return\n        /* \"BEP20.sol\":1571:1682  function balanceOf(address account) public view override returns (uint256) {... */\n    tag_18:\n      tag_100\n      0x04\n      dup1\n      calldatasize\n      sub\n      dup2\n      add\n      swap1\n      tag_101\n      swap2\n      swap1\n      tag_77\n      jump\t// in\n    tag_101:\n      tag_102\n      jump\t// in\n    tag_100:\n      mload(0x40)\n      tag_103\n      swap2\n      swap1\n      tag_69\n      jump\t// in\n    tag_103:\n      mload(0x40)\n      dup1\n      swap2\n      sub\n      swap1\n      return\n        /* \"BEPOwnable.sol\":1630:1757  function renounceOwnership() public onlyOwner {... */\n    tag_19:\n      tag_104\n      tag_105\n      jump\t// in\n    tag_104:\n      stop\n        /* \"BEPPausable.sol\":666:788  function pause() public onlyOwner whenNotPaused returns (bool) {... */\n    tag_20:\n      tag_106\n      tag_107\n      jump\t// in\n    tag_106:\n      mload(0x40)\n      tag_108\n      swap2\n      swap1\n      tag_49\n      jump\t// in\n    tag_108:\n      mload(0x40)\n      dup1\n      swap2\n      sub\n      swap1\n      return\n        /* \"BEPOwnable.sol\":899:970  function owner() public view returns (address) {... */\n    tag_21:\n      tag_109\n      tag_110\n      jump\t// in\n    tag_109:\n      mload(0x40)\n      tag_111\n      swap2\n      swap1\n      tag_53\n      jump\t// in\n    tag_111:\n      mload(0x40)\n      dup1\n      swap2\n      sub\n      swap1\n      return\n        /* \"BEPOwnable.sol\":1218:1304  function isOwner() public view returns (bool) {... */\n    tag_22:\n      tag_112\n      tag_113\n      jump\t// in\n    tag_112:\n      mload(0x40)\n      tag_114\n      swap2\n      swap1\n      tag_49\n      jump\t// in\n    tag_114:\n      mload(0x40)\n      dup1\n      swap2\n      sub\n      swap1\n      return\n        /* \"BEP20Detailed.sol\":802:881  function symbol() public view returns (string memory) {... */\n    tag_23:\n      tag_115\n      tag_116\n      jump\t// in\n    tag_115:\n      mload(0x40)\n      tag_117\n      swap2\n      swap1\n      tag_43\n      jump\t// in\n    tag_117:\n      mload(0x40)\n      dup1\n      swap2\n      sub\n      swap1\n      return\n        /* \"BEP20.sol\":4338:4624  function decreaseAllowance(address spender, uint256 subtractedValue) public whenNotPaused returns (bool) {... */\n    tag_24:\n      tag_118\n      0x04\n      dup1\n      calldatasize\n      sub\n      dup2\n      add\n      swap1\n      tag_119\n      swap2\n      swap1\n      tag_46\n      jump\t// in\n    tag_119:\n      tag_120\n      jump\t// in\n    tag_118:\n      mload(0x40)\n      tag_121\n      swap2\n      swap1\n      tag_49\n      jump\t// in\n    tag_121:\n      mload(0x40)\n      dup1\n      swap2\n      sub\n      swap1\n      return\n        /* \"VIMToken.sol\":1793:1949  function setMarketingPool(address _marketingPool) external onlyOwner {... */\n    tag_25:\n      tag_122\n      0x04\n      dup1\n      calldatasize\n      sub\n      dup2\n      add\n      swap1\n      tag_123\n      swap2\n      swap1\n      tag_77\n      jump\t// in\n    tag_123:\n      tag_124\n      jump\t// in\n    tag_122:\n      stop\n        /* \"BEP20.sol\":1867:2043  function transfer(address recipient, uint256 amount) public virtual override whenNotPaused returns (bool) {... */\n    tag_26:\n      tag_125\n      0x04\n      dup1\n      calldatasize\n      sub\n      dup2\n      add\n      swap1\n      tag_126\n      swap2\n      swap1\n      tag_46\n      jump\t// in\n    tag_126:\n      tag_127\n      jump\t// in\n    tag_125:\n      mload(0x40)\n      tag_128\n      swap2\n      swap1\n      tag_49\n      jump\t// in\n    tag_128:\n      mload(0x40)\n      dup1\n      swap2\n      sub\n      swap1\n      return\n        /* \"VIMToken.sol\":2819:2943  function updateRewardWalletLimit(uint256 newLimitation) external onlyOwner {... */\n    tag_27:\n      tag_129\n      0x04\n      dup1\n      calldatasize\n      sub\n      dup2\n      add\n      swap1\n      tag_130\n      swap2\n      swap1\n      tag_131\n      jump\t// in\n    tag_130:\n      tag_132\n      jump\t// in\n    tag_129:\n      stop\n        /* \"VIMToken.sol\":1601:1789  function setLiquidityPoolStatus(address _lpAddress, bool _status) external onlyOwner {... */\n    tag_28:\n      tag_133\n      0x04\n      dup1\n      calldatasize\n      sub\n      dup2\n      add\n      swap1\n      tag_134\n      swap2\n      swap1\n      tag_60\n      jump\t// in\n    tag_134:\n      tag_135\n      jump\t// in\n    tag_133:\n      stop\n        /* \"VIMToken.sol\":2709:2810  function updateRewardWallet(address newWallet) external onlyOwner {... */\n    tag_29:\n      tag_136\n      0x04\n      dup1\n      calldatasize\n      sub\n      dup2\n      add\n      swap1\n      tag_137\n      swap2\n      swap1\n      tag_77\n      jump\t// in\n    tag_137:\n      tag_138\n      jump\t// in\n    tag_136:\n      stop\n        /* \"BEP20.sol\":2093:2228  function allowance(address owner, address spender) public view override returns (uint256) {... */\n    tag_30:\n      tag_139\n      0x04\n      dup1\n      calldatasize\n      sub\n      dup2\n      add\n      swap1\n      tag_140\n      swap2\n      swap1\n      tag_141\n      jump\t// in\n    tag_140:\n      tag_142\n      jump\t// in\n    tag_139:\n      mload(0x40)\n      tag_143\n      swap2\n      swap1\n      tag_69\n      jump\t// in\n    tag_143:\n      mload(0x40)\n      dup1\n      swap2\n      sub\n      swap1\n      return\n        /* \"BEPOwnable.sol\":1896:1997  function transferOwnership(address newOwner) public onlyOwner {... */\n    tag_31:\n      tag_144\n      0x04\n      dup1\n      calldatasize\n      sub\n      dup2\n      add\n      swap1\n      tag_145\n      swap2\n      swap1\n      tag_77\n      jump\t// in\n    tag_145:\n      tag_146\n      jump\t// in\n    tag_144:\n      stop\n        /* \"VIMToken.sol\":584:611  address public rewardWallet */\n    tag_32:\n      tag_147\n      tag_148\n      jump\t// in\n    tag_147:\n      mload(0x40)\n      tag_149\n      swap2\n      swap1\n      tag_53\n      jump\t// in\n    tag_149:\n      mload(0x40)\n      dup1\n      swap2\n      sub\n      swap1\n      return\n        /* \"BEP20Detailed.sol\":624:699  function name() public view returns (string memory) {... */\n    tag_41:\n        /* \"BEP20Detailed.sol\":661:674  string memory */\n      0x60\n        /* \"BEP20Detailed.sol\":689:694  _name */\n      0x00\n        /* \"BEP20Detailed.sol\":682:694  return _name */\n      dup1\n      sload\n      tag_152\n      swap1\n      tag_153\n      jump\t// in\n    tag_152:\n      dup1\n      0x1f\n      add\n      0x20\n      dup1\n      swap2\n      div\n      mul\n      0x20\n      add\n      mload(0x40)\n      swap1\n      dup2\n      add\n      0x40\n      mstore\n      dup1\n      swap3\n      swap2\n      swap1\n      dup2\n      dup2\n      mstore\n      0x20\n      add\n      dup3\n      dup1\n      sload\n      tag_154\n      swap1\n      tag_153\n      jump\t// in\n    tag_154:\n      dup1\n      iszero\n      tag_155\n      jumpi\n      dup1\n      0x1f\n      lt\n      tag_156\n      jumpi\n      0x0100\n      dup1\n      dup4\n      sload\n      div\n      mul\n      dup4\n      mstore\n      swap2\n      0x20\n      add\n      swap2\n      jump(tag_155)\n    tag_156:\n      dup3\n      add\n      swap2\n      swap1\n      0x00\n      mstore\n      keccak256(0x00, 0x20)\n      swap1\n    tag_157:\n      dup2\n      sload\n      dup2\n      mstore\n      swap1\n      0x01\n      add\n      swap1\n      0x20\n      add\n      dup1\n      dup4\n      gt\n      tag_157\n      jumpi\n      dup3\n      swap1\n      sub\n      0x1f\n      and\n      dup3\n      add\n      swap2\n    tag_155:\n      pop\n      pop\n      pop\n      pop\n      pop\n      swap1\n      pop\n        /* \"BEP20Detailed.sol\":624:699  function name() public view returns (string memory) {... */\n      swap1\n      jump\t// out\n        /* \"BEP20.sol\":2350:2512  function approve(address spender, uint256 amount) public override whenNotPaused returns (bool) {... */\n    tag_47:\n        /* \"BEP20.sol\":2439:2443  bool */\n      0x00\n        /* \"BEPPausable.sol\":424:430  paused */\n      0x02\n      0x15\n      swap1\n      sload\n      swap1\n      0x0100\n      exp\n      swap1\n      div\n      0xff\n      and\n        /* \"BEPPausable.sol\":423:430  !paused */\n      iszero\n        /* \"BEPPausable.sol\":415:431  require(!paused) */\n      tag_159\n      jumpi\n      0x00\n      dup1\n      revert\n    tag_159:\n        /* \"BEP20.sol\":2451:2490  _approve(_msgSender(), spender, amount) */\n      tag_161\n        /* \"BEP20.sol\":2460:2472  _msgSender() */\n      tag_162\n        /* \"BEP20.sol\":2460:2470  _msgSender */\n      tag_163\n        /* \"BEP20.sol\":2460:2472  _msgSender() */\n      jump\t// in\n    tag_162:\n        /* \"BEP20.sol\":2474:2481  spender */\n      dup5\n        /* \"BEP20.sol\":2483:2489  amount */\n      dup5\n        /* \"BEP20.sol\":2451:2459  _approve */\n      tag_164\n        /* \"BEP20.sol\":2451:2490  _approve(_msgSender(), spender, amount) */\n      jump\t// in\n    tag_161:\n        /* \"BEP20.sol\":2503:2507  true */\n      0x01\n        /* \"BEP20.sol\":2496:2507  return true */\n      swap1\n      pop\n        /* \"BEP20.sol\":2350:2512  function approve(address spender, uint256 amount) public override whenNotPaused returns (bool) {... */\n      swap3\n      swap2\n      pop\n      pop\n      jump\t// out\n        /* \"VIMToken.sol\":615:643  address public depositWallet */\n    tag_51:\n      0x0f\n      0x00\n      swap1\n      sload\n      swap1\n      0x0100\n      exp\n      swap1\n      div\n      0xffffffffffffffffffffffffffffffffffffffff\n      and\n      dup2\n      jump\t// out\n        /* \"VIMToken.sol\":1955:2264  function setTaxes(uint8 _sellTax, uint8 _buyTax, uint8 _transferTax) external onlyOwner {... */\n    tag_57:\n        /* \"BEPOwnable.sol\":1085:1094  isOwner() */\n      tag_166\n        /* \"BEPOwnable.sol\":1085:1092  isOwner */\n      tag_113\n        /* \"BEPOwnable.sol\":1085:1094  isOwner() */\n      jump\t// in\n    tag_166:\n        /* \"BEPOwnable.sol\":1077:1131  require(isOwner(), \"Ownable: caller is not the owner\") */\n      tag_167\n      jumpi\n      mload(0x40)\n      0x08c379a000000000000000000000000000000000000000000000000000000000\n      dup2\n      mstore\n      0x04\n      add\n      tag_168\n      swap1\n      tag_169\n      jump\t// in\n    tag_168:\n      mload(0x40)\n      dup1\n      swap2\n      sub\n      swap1\n      revert\n    tag_167:\n        /* \"VIMToken.sol\":2068:2070  20 */\n      0x14\n        /* \"VIMToken.sol\":2057:2065  _sellTax */\n      dup4\n        /* \"VIMToken.sol\":2057:2070  _sellTax < 20 */\n      0xff\n      and\n      lt\n        /* \"VIMToken.sol\":2049:2071  require(_sellTax < 20) */\n      tag_171\n      jumpi\n      0x00\n      dup1\n      revert\n    tag_171:\n        /* \"VIMToken.sol\":2095:2097  10 */\n      0x0a\n        /* \"VIMToken.sol\":2085:2092  _buyTax */\n      dup3\n        /* \"VIMToken.sol\":2085:2097  _buyTax < 10 */\n      0xff\n      and\n      lt\n        /* \"VIMToken.sol\":2077:2098  require(_buyTax < 10) */\n      tag_172\n      jumpi\n      0x00\n      dup1\n      revert\n    tag_172:\n        /* \"VIMToken.sol\":2127:2129  10 */\n      0x0a\n        /* \"VIMToken.sol\":2112:2124  _transferTax */\n      dup2\n        /* \"VIMToken.sol\":2112:2129  _transferTax < 10 */\n      0xff\n      and\n      lt\n        /* \"VIMToken.sol\":2104:2130  require(_transferTax < 10) */\n      tag_173\n      jumpi\n      0x00\n      dup1\n      revert\n    tag_173:\n        /* \"VIMToken.sol\":2146:2154  _sellTax */\n      dup3\n        /* \"VIMToken.sol\":2136:2143  sellTax */\n      0x0a\n      0x01\n        /* \"VIMToken.sol\":2136:2154  sellTax = _sellTax */\n      0x0100\n      exp\n      dup2\n      sload\n      dup2\n      0xff\n      mul\n      not\n      and\n      swap1\n      dup4\n      0xff\n      and\n      mul\n      or\n      swap1\n      sstore\n      pop\n        /* \"VIMToken.sol\":2169:2176  _buyTax */\n      dup2\n        /* \"VIMToken.sol\":2160:2166  buyTax */\n      0x0a\n      0x00\n        /* \"VIMToken.sol\":2160:2176  buyTax = _buyTax */\n      0x0100\n      exp\n      dup2\n      sload\n      dup2\n      0xff\n      mul\n      not\n      and\n      swap1\n      dup4\n      0xff\n      and\n      mul\n      or\n      swap1\n      sstore\n      pop\n        /* \"VIMToken.sol\":2196:2208  _transferTax */\n      dup1\n        /* \"VIMToken.sol\":2182:2193  transferTax */\n      0x0a\n      0x03\n        /* \"VIMToken.sol\":2182:2208  transferTax = _transferTax */\n      0x0100\n      exp\n      dup2\n      sload\n      dup2\n      0xff\n      mul\n      not\n      and\n      swap1\n      dup4\n      0xff\n      and\n      mul\n      or\n      swap1\n      sstore\n      pop\n        /* \"VIMToken.sol\":2219:2259  changeTax(_sellTax,_buyTax,_transferTax) */\n      0x8f649eeecb19301c91f9b511096fe7cbc4b2b67bc75bfef33ba3f2745efc386a\n        /* \"VIMToken.sol\":2229:2237  _sellTax */\n      dup4\n        /* \"VIMToken.sol\":2238:2245  _buyTax */\n      dup4\n        /* \"VIMToken.sol\":2246:2258  _transferTax */\n      dup4\n        /* \"VIMToken.sol\":2219:2259  changeTax(_sellTax,_buyTax,_transferTax) */\n      mload(0x40)\n      tag_174\n      swap4\n      swap3\n      swap2\n      swap1\n      tag_82\n      jump\t// in\n    tag_174:\n      mload(0x40)\n      dup1\n      swap2\n      sub\n      swap1\n      log1\n        /* \"VIMToken.sol\":1955:2264  function setTaxes(uint8 _sellTax, uint8 _buyTax, uint8 _transferTax) external onlyOwner {... */\n      pop\n      pop\n      pop\n      jump\t// out\n        /* \"VIMToken.sol\":1282:1438  function setBlacklist(address _wallet, bool _status) external onlyOwner {... */\n    tag_61:\n        /* \"BEPOwnable.sol\":1085:1094  isOwner() */\n      tag_176\n        /* \"BEPOwnable.sol\":1085:1092  isOwner */\n      tag_113\n        /* \"BEPOwnable.sol\":1085:1094  isOwner() */\n      jump\t// in\n    tag_176:\n        /* \"BEPOwnable.sol\":1077:1131  require(isOwner(), \"Ownable: caller is not the owner\") */\n      tag_177\n      jumpi\n      mload(0x40)\n      0x08c379a000000000000000000000000000000000000000000000000000000000\n      dup2\n      mstore\n      0x04\n      add\n      tag_178\n      swap1\n      tag_169\n      jump\t// in\n    tag_178:\n      mload(0x40)\n      dup1\n      swap2\n      sub\n      swap1\n      revert\n    tag_177:\n        /* \"VIMToken.sol\":1382:1389  _status */\n      dup1\n        /* \"VIMToken.sol\":1360:1371  isBlacklist */\n      0x06\n        /* \"VIMToken.sol\":1360:1380  isBlacklist[_wallet] */\n      0x00\n        /* \"VIMToken.sol\":1372:1379  _wallet */\n      dup5\n        /* \"VIMToken.sol\":1360:1380  isBlacklist[_wallet] */\n      0xffffffffffffffffffffffffffffffffffffffff\n      and\n      0xffffffffffffffffffffffffffffffffffffffff\n      and\n      dup2\n      mstore\n      0x20\n      add\n      swap1\n      dup2\n      mstore\n      0x20\n      add\n      0x00\n      keccak256\n      0x00\n        /* \"VIMToken.sol\":1360:1389  isBlacklist[_wallet]= _status */\n      0x0100\n      exp\n      dup2\n      sload\n      dup2\n      0xff\n      mul\n      not\n      and\n      swap1\n      dup4\n      iszero\n      iszero\n      mul\n      or\n      swap1\n      sstore\n      pop\n        /* \"VIMToken.sol\":1400:1433  changeBlacklist(_wallet, _status) */\n      0xf791a94c7f3569546a71acf39c0189bd87bd7b7e3ea76ce41fd41d837cc4bbca\n        /* \"VIMToken.sol\":1416:1423  _wallet */\n      dup3\n        /* \"VIMToken.sol\":1425:1432  _status */\n      dup3\n        /* \"VIMToken.sol\":1400:1433  changeBlacklist(_wallet, _status) */\n      mload(0x40)\n      tag_180\n      swap3\n      swap2\n      swap1\n      tag_181\n      jump\t// in\n    tag_180:\n      mload(0x40)\n      dup1\n      swap2\n      sub\n      swap1\n      log1\n        /* \"VIMToken.sol\":1282:1438  function setBlacklist(address _wallet, bool _status) external onlyOwner {... */\n      pop\n      pop\n      jump\t// out\n        /* \"VIMToken.sol\":1444:1597  function setCooldownForTrades(uint8 _tradeCooldown) external onlyOwner {... */\n    tag_65:\n        /* \"BEPOwnable.sol\":1085:1094  isOwner() */\n      tag_183\n        /* \"BEPOwnable.sol\":1085:1092  isOwner */\n      tag_113\n        /* \"BEPOwnable.sol\":1085:1094  isOwner() */\n      jump\t// in\n    tag_183:\n        /* \"BEPOwnable.sol\":1077:1131  require(isOwner(), \"Ownable: caller is not the owner\") */\n      tag_184\n      jumpi\n      mload(0x40)\n      0x08c379a000000000000000000000000000000000000000000000000000000000\n      dup2\n      mstore\n      0x04\n      add\n      tag_185\n      swap1\n      tag_169\n      jump\t// in\n    tag_185:\n      mload(0x40)\n      dup1\n      swap2\n      sub\n      swap1\n      revert\n    tag_184:\n        /* \"VIMToken.sol\":1537:1551  _tradeCooldown */\n      dup1\n        /* \"VIMToken.sol\":1521:1534  tradeCooldown */\n      0x0a\n      0x02\n        /* \"VIMToken.sol\":1521:1551  tradeCooldown = _tradeCooldown */\n      0x0100\n      exp\n      dup2\n      sload\n      dup2\n      0xff\n      mul\n      not\n      and\n      swap1\n      dup4\n      0xff\n      and\n      mul\n      or\n      swap1\n      sstore\n      pop\n        /* \"VIMToken.sol\":1562:1592  changeCooldown(_tradeCooldown) */\n      0x3dc38872c1e356f05cec7694232d10514dc69ddbdcb883f9687c4d4f7e371e01\n        /* \"VIMToken.sol\":1577:1591  _tradeCooldown */\n      dup2\n        /* \"VIMToken.sol\":1562:1592  changeCooldown(_tradeCooldown) */\n      mload(0x40)\n      tag_187\n      swap2\n      swap1\n      tag_86\n      jump\t// in\n    tag_187:\n      mload(0x40)\n      dup1\n      swap2\n      sub\n      swap1\n      log1\n        /* \"VIMToken.sol\":1444:1597  function setCooldownForTrades(uint8 _tradeCooldown) external onlyOwner {... */\n      pop\n      jump\t// out\n        /* \"BEP20.sol\":1429:1521  function totalSupply() public view override returns (uint256) {... */\n    tag_67:\n        /* \"BEP20.sol\":1482:1489  uint256 */\n      0x00\n        /* \"BEP20.sol\":1504:1516  _totalSupply */\n      sload(0x05)\n        /* \"BEP20.sol\":1497:1516  return _totalSupply */\n      swap1\n      pop\n        /* \"BEP20.sol\":1429:1521  function totalSupply() public view override returns (uint256) {... */\n      swap1\n      jump\t// out\n        /* \"BEP20.sol\":2944:3301  function transferFrom(... */\n    tag_73:\n        /* \"BEP20.sol\":3080:3084  bool */\n      0x00\n        /* \"BEPPausable.sol\":424:430  paused */\n      0x02\n      0x15\n      swap1\n      sload\n      swap1\n      0x0100\n      exp\n      swap1\n      div\n      0xff\n      and\n        /* \"BEPPausable.sol\":423:430  !paused */\n      iszero\n        /* \"BEPPausable.sol\":415:431  require(!paused) */\n      tag_190\n      jumpi\n      0x00\n      dup1\n      revert\n    tag_190:\n        /* \"BEP20.sol\":3092:3128  _transfer(sender, recipient, amount) */\n      tag_192\n        /* \"BEP20.sol\":3102:3108  sender */\n      dup5\n        /* \"BEP20.sol\":3110:3119  recipient */\n      dup5\n        /* \"BEP20.sol\":3121:3127  amount */\n      dup5\n        /* \"BEP20.sol\":3092:3101  _transfer */\n      tag_193\n        /* \"BEP20.sol\":3092:3128  _transfer(sender, recipient, amount) */\n      jump\t// in\n    tag_192:\n        /* \"BEP20.sol\":3134:3279  _approve(... */\n      tag_194\n        /* \"BEP20.sol\":3150:3156  sender */\n      dup5\n        /* \"BEP20.sol\":3164:3176  _msgSender() */\n      tag_195\n        /* \"BEP20.sol\":3164:3174  _msgSender */\n      tag_163\n        /* \"BEP20.sol\":3164:3176  _msgSender() */\n      jump\t// in\n    tag_195:\n        /* \"BEP20.sol\":3184:3273  _allowances[sender][_msgSender()].sub(amount, \"BEP20: transfer amount exceeds allowance\") */\n      tag_196\n        /* \"BEP20.sol\":3222:3228  amount */\n      dup6\n        /* \"BEP20.sol\":3184:3273  _allowances[sender][_msgSender()].sub(amount, \"BEP20: transfer amount exceeds allowance\") */\n      mload(0x40)\n      dup1\n      0x60\n      add\n      0x40\n      mstore\n      dup1\n      0x28\n      dup2\n      mstore\n      0x20\n      add\n      data_4f3506f4ba71c79c3cbd442a3afeb30e9b27af2d84e116a4385b34e267d2287e\n      0x28\n      swap2\n      codecopy\n        /* \"BEP20.sol\":3184:3195  _allowances */\n      0x04\n        /* \"BEP20.sol\":3184:3203  _allowances[sender] */\n      0x00\n        /* \"BEP20.sol\":3196:3202  sender */\n      dup12\n        /* \"BEP20.sol\":3184:3203  _allowances[sender] */\n      0xffffffffffffffffffffffffffffffffffffffff\n      and\n      0xffffffffffffffffffffffffffffffffffffffff\n      and\n      dup2\n      mstore\n      0x20\n      add\n      swap1\n      dup2\n      mstore\n      0x20\n      add\n      0x00\n      keccak256\n        /* \"BEP20.sol\":3184:3217  _allowances[sender][_msgSender()] */\n      0x00\n        /* \"BEP20.sol\":3204:3216  _msgSender() */\n      tag_197\n        /* \"BEP20.sol\":3204:3214  _msgSender */\n      tag_163\n        /* \"BEP20.sol\":3204:3216  _msgSender() */\n      jump\t// in\n    tag_197:\n        /* \"BEP20.sol\":3184:3217  _allowances[sender][_msgSender()] */\n      0xffffffffffffffffffffffffffffffffffffffff\n      and\n      0xffffffffffffffffffffffffffffffffffffffff\n      and\n      dup2\n      mstore\n      0x20\n      add\n      swap1\n      dup2\n      mstore\n      0x20\n      add\n      0x00\n      keccak256\n      sload\n        /* \"BEP20.sol\":3184:3221  _allowances[sender][_msgSender()].sub */\n      tag_198\n      swap1\n        /* \"BEP20.sol\":3184:3273  _allowances[sender][_msgSender()].sub(amount, \"BEP20: transfer amount exceeds allowance\") */\n      swap3\n      swap2\n      swap1\n      0xffffffff\n      and\n      jump\t// in\n    tag_196:\n        /* \"BEP20.sol\":3134:3142  _approve */\n      tag_164\n        /* \"BEP20.sol\":3134:3279  _approve(... */\n      jump\t// in\n    tag_194:\n        /* \"BEP20.sol\":3292:3296  true */\n      0x01\n        /* \"BEP20.sol\":3285:3296  return true */\n      swap1\n      pop\n        /* \"BEP20.sol\":2944:3301  function transferFrom(... */\n      swap4\n      swap3\n      pop\n      pop\n      pop\n      jump\t// out\n        /* \"VIMToken.sol\":2587:2704  function updateDepositWallet(address newDepositWallet) external onlyOwner {... */\n    tag_78:\n        /* \"BEPOwnable.sol\":1085:1094  isOwner() */\n      tag_200\n        /* \"BEPOwnable.sol\":1085:1092  isOwner */\n      tag_113\n        /* \"BEPOwnable.sol\":1085:1094  isOwner() */\n      jump\t// in\n    tag_200:\n        /* \"BEPOwnable.sol\":1077:1131  require(isOwner(), \"Ownable: caller is not the owner\") */\n      tag_201\n      jumpi\n      mload(0x40)\n      0x08c379a000000000000000000000000000000000000000000000000000000000\n      dup2\n      mstore\n      0x04\n      add\n      tag_202\n      swap1\n      tag_169\n      jump\t// in\n    tag_202:\n      mload(0x40)\n      dup1\n      swap2\n      sub\n      swap1\n      revert\n    tag_201:\n        /* \"VIMToken.sol\":2683:2699  newDepositWallet */\n      dup1\n        /* \"VIMToken.sol\":2667:2680  depositWallet */\n      0x0f\n      0x00\n        /* \"VIMToken.sol\":2667:2699  depositWallet = newDepositWallet */\n      0x0100\n      exp\n      dup2\n      sload\n      dup2\n      0xffffffffffffffffffffffffffffffffffffffff\n      mul\n      not\n      and\n      swap1\n      dup4\n      0xffffffffffffffffffffffffffffffffffffffff\n      and\n      mul\n      or\n      swap1\n      sstore\n      pop\n        /* \"VIMToken.sol\":2587:2704  function updateDepositWallet(address newDepositWallet) external onlyOwner {... */\n      pop\n      jump\t// out\n        /* \"VIMToken.sol\":2268:2413  function getTaxes() external pure returns (uint8 _sellTax, uint8 _buyTax, uint8 _transferTax) {... */\n    tag_80:\n        /* \"VIMToken.sol\":2311:2325  uint8 _sellTax */\n      0x00\n        /* \"VIMToken.sol\":2327:2340  uint8 _buyTax */\n      dup1\n        /* \"VIMToken.sol\":2342:2360  uint8 _transferTax */\n      0x00\n        /* \"VIMToken.sol\":2268:2413  function getTaxes() external pure returns (uint8 _sellTax, uint8 _buyTax, uint8 _transferTax) {... */\n      swap1\n      swap2\n      swap3\n      jump\t// out\n        /* \"BEP20Detailed.sol\":1404:1479  function decimals() public view returns (uint8) {... */\n    tag_84:\n        /* \"BEP20Detailed.sol\":1445:1450  uint8 */\n      0x00\n        /* \"BEP20Detailed.sol\":1465:1474  _decimals */\n      0x02\n      0x00\n      swap1\n      sload\n      swap1\n      0x0100\n      exp\n      swap1\n      div\n      0xff\n      and\n        /* \"BEP20Detailed.sol\":1458:1474  return _decimals */\n      swap1\n      pop\n        /* \"BEP20Detailed.sol\":1404:1479  function decimals() public view returns (uint8) {... */\n      swap1\n      jump\t// out\n        /* \"BEP20.sol\":3670:3881  function increaseAllowance(address spender, uint256 addedValue) public whenNotPaused returns (bool) {... */\n    tag_89:\n        /* \"BEP20.sol\":3764:3768  bool */\n      0x00\n        /* \"BEPPausable.sol\":424:430  paused */\n      0x02\n      0x15\n      swap1\n      sload\n      swap1\n      0x0100\n      exp\n      swap1\n      div\n      0xff\n      and\n        /* \"BEPPausable.sol\":423:430  !paused */\n      iszero\n        /* \"BEPPausable.sol\":415:431  require(!paused) */\n      tag_207\n      jumpi\n      0x00\n      dup1\n      revert\n    tag_207:\n        /* \"BEP20.sol\":3776:3859  _approve(_msgSender(), spender, _allowances[_msgSender()][spender].add(addedValue)) */\n      tag_209\n        /* \"BEP20.sol\":3785:3797  _msgSender() */\n      tag_210\n        /* \"BEP20.sol\":3785:3795  _msgSender */\n      tag_163\n        /* \"BEP20.sol\":3785:3797  _msgSender() */\n      jump\t// in\n    tag_210:\n        /* \"BEP20.sol\":3799:3806  spender */\n      dup5\n        /* \"BEP20.sol\":3808:3858  _allowances[_msgSender()][spender].add(addedValue) */\n      tag_211\n        /* \"BEP20.sol\":3847:3857  addedValue */\n      dup6\n        /* \"BEP20.sol\":3808:3819  _allowances */\n      0x04\n        /* \"BEP20.sol\":3808:3833  _allowances[_msgSender()] */\n      0x00\n        /* \"BEP20.sol\":3820:3832  _msgSender() */\n      tag_212\n        /* \"BEP20.sol\":3820:3830  _msgSender */\n      tag_163\n        /* \"BEP20.sol\":3820:3832  _msgSender() */\n      jump\t// in\n    tag_212:\n        /* \"BEP20.sol\":3808:3833  _allowances[_msgSender()] */\n      0xffffffffffffffffffffffffffffffffffffffff\n      and\n      0xffffffffffffffffffffffffffffffffffffffff\n      and\n      dup2\n      mstore\n      0x20\n      add\n      swap1\n      dup2\n      mstore\n      0x20\n      add\n      0x00\n      keccak256\n        /* \"BEP20.sol\":3808:3842  _allowances[_msgSender()][spender] */\n      0x00\n        /* \"BEP20.sol\":3834:3841  spender */\n      dup10\n        /* \"BEP20.sol\":3808:3842  _allowances[_msgSender()][spender] */\n      0xffffffffffffffffffffffffffffffffffffffff\n      and\n      0xffffffffffffffffffffffffffffffffffffffff\n      and\n      dup2\n      mstore\n      0x20\n      add\n      swap1\n      dup2\n      mstore\n      0x20\n      add\n      0x00\n      keccak256\n      sload\n        /* \"BEP20.sol\":3808:3846  _allowances[_msgSender()][spender].add */\n      tag_150\n      swap1\n        /* \"BEP20.sol\":3808:3858  _allowances[_msgSender()][spender].add(addedValue) */\n      swap2\n      swap1\n      0xffffffff\n      and\n      jump\t// in\n    tag_211:\n        /* \"BEP20.sol\":3776:3784  _approve */\n      tag_164\n        /* \"BEP20.sol\":3776:3859  _approve(_msgSender(), spender, _allowances[_msgSender()][spender].add(addedValue)) */\n      jump\t// in\n    tag_209:\n        /* \"BEP20.sol\":3872:3876  true */\n      0x01\n        /* \"BEP20.sol\":3865:3876  return true */\n      swap1\n      pop\n        /* \"BEP20.sol\":3670:3881  function increaseAllowance(address spender, uint256 addedValue) public whenNotPaused returns (bool) {... */\n      swap3\n      swap2\n      pop\n      pop\n      jump\t// out\n        /* \"BEPPausable.sol\":870:994  function unpause() public onlyOwner whenPaused returns (bool) {... */\n    tag_92:\n        /* \"BEPPausable.sol\":926:930  bool */\n      0x00\n        /* \"BEPOwnable.sol\":1085:1094  isOwner() */\n      tag_214\n        /* \"BEPOwnable.sol\":1085:1092  isOwner */\n      tag_113\n        /* \"BEPOwnable.sol\":1085:1094  isOwner() */\n      jump\t// in\n    tag_214:\n        /* \"BEPOwnable.sol\":1077:1131  require(isOwner(), \"Ownable: caller is not the owner\") */\n      tag_215\n      jumpi\n      mload(0x40)\n      0x08c379a000000000000000000000000000000000000000000000000000000000\n      dup2\n      mstore\n      0x04\n      add\n      tag_216\n      swap1\n      tag_169\n      jump\t// in\n    tag_216:\n      mload(0x40)\n      dup1\n      swap2\n      sub\n      swap1\n      revert\n    tag_215:\n        /* \"BEPPausable.sol\":568:574  paused */\n      0x02\n      0x15\n      swap1\n      sload\n      swap1\n      0x0100\n      exp\n      swap1\n      div\n      0xff\n      and\n        /* \"BEPPausable.sol\":560:575  require(paused) */\n      tag_218\n      jumpi\n      0x00\n      dup1\n      revert\n    tag_218:\n        /* \"BEPPausable.sol\":947:952  false */\n      0x00\n        /* \"BEPPausable.sol\":938:944  paused */\n      0x02\n      0x15\n        /* \"BEPPausable.sol\":938:952  paused = false */\n      0x0100\n      exp\n      dup2\n      sload\n      dup2\n      0xff\n      mul\n      not\n      and\n      swap1\n      dup4\n      iszero\n      iszero\n      mul\n      or\n      swap1\n      sstore\n      pop\n        /* \"BEPPausable.sol\":963:972  Unpause() */\n      0x7805862f689e2f13df9f062ff482ad3ad112aca9e0847911ed832e158c525b33\n      mload(0x40)\n      mload(0x40)\n      dup1\n      swap2\n      sub\n      swap1\n      log1\n        /* \"BEPPausable.sol\":985:989  true */\n      0x01\n        /* \"BEPPausable.sol\":978:989  return true */\n      swap1\n      pop\n        /* \"BEPPausable.sol\":870:994  function unpause() public onlyOwner whenPaused returns (bool) {... */\n      swap1\n      jump\t// out\n        /* \"VIMToken.sol\":2419:2583  function setWhitelist(address _address, bool _status) external onlyOwner {... */\n    tag_96:\n        /* \"BEPOwnable.sol\":1085:1094  isOwner() */\n      tag_221\n        /* \"BEPOwnable.sol\":1085:1092  isOwner */\n      tag_113\n        /* \"BEPOwnable.sol\":1085:1094  isOwner() */\n      jump\t// in\n    tag_221:\n        /* \"BEPOwnable.sol\":1077:1131  require(isOwner(), \"Ownable: caller is not the owner\") */\n      tag_222\n      jumpi\n      mload(0x40)\n      0x08c379a000000000000000000000000000000000000000000000000000000000\n      dup2\n      mstore\n      0x04\n      add\n      tag_223\n      swap1\n      tag_169\n      jump\t// in\n    tag_223:\n      mload(0x40)\n      dup1\n      swap2\n      sub\n      swap1\n      revert\n    tag_222:\n        /* \"VIMToken.sol\":2523:2530  _status */\n      dup1\n        /* \"VIMToken.sol\":2498:2510  whitelistTax */\n      0x08\n        /* \"VIMToken.sol\":2498:2520  whitelistTax[_address] */\n      0x00\n        /* \"VIMToken.sol\":2511:2519  _address */\n      dup5\n        /* \"VIMToken.sol\":2498:2520  whitelistTax[_address] */\n      0xffffffffffffffffffffffffffffffffffffffff\n      and\n      0xffffffffffffffffffffffffffffffffffffffff\n      and\n      dup2\n      mstore\n      0x20\n      add\n      swap1\n      dup2\n      mstore\n      0x20\n      add\n      0x00\n      keccak256\n      0x00\n        /* \"VIMToken.sol\":2498:2530  whitelistTax[_address] = _status */\n      0x0100\n      exp\n      dup2\n      sload\n      dup2\n      0xff\n      mul\n      not\n      and\n      swap1\n      dup4\n      iszero\n      iszero\n      mul\n      or\n      swap1\n      sstore\n      pop\n        /* \"VIMToken.sol\":2541:2578  changeWhitelistTax(_address, _status) */\n      0xe41efe2ec3272dff61fc1d94fe807a61b44e66814abe5f463e98a100b9bb852c\n        /* \"VIMToken.sol\":2560:2568  _address */\n      dup3\n        /* \"VIMToken.sol\":2570:2577  _status */\n      dup3\n        /* \"VIMToken.sol\":2541:2578  changeWhitelistTax(_address, _status) */\n      mload(0x40)\n      tag_225\n      swap3\n      swap2\n      swap1\n      tag_181\n      jump\t// in\n    tag_225:\n      mload(0x40)\n      dup1\n      swap2\n      sub\n      swap1\n      log1\n        /* \"VIMToken.sol\":2419:2583  function setWhitelist(address _address, bool _status) external onlyOwner {... */\n      pop\n      pop\n      jump\t// out\n        /* \"BEPPausable.sol\":272:298  bool public paused = false */\n    tag_98:\n      0x02\n      0x15\n      swap1\n      sload\n      swap1\n      0x0100\n      exp\n      swap1\n      div\n      0xff\n      and\n      dup2\n      jump\t// out\n        /* \"BEP20.sol\":1571:1682  function balanceOf(address account) public view override returns (uint256) {... */\n    tag_102:\n        /* \"BEP20.sol\":1637:1644  uint256 */\n      0x00\n        /* \"BEP20.sol\":1659:1668  _balances */\n      0x03\n        /* \"BEP20.sol\":1659:1677  _balances[account] */\n      0x00\n        /* \"BEP20.sol\":1669:1676  account */\n      dup4\n        /* \"BEP20.sol\":1659:1677  _balances[account] */\n      0xffffffffffffffffffffffffffffffffffffffff\n      and\n      0xffffffffffffffffffffffffffffffffffffffff\n      and\n      dup2\n      mstore\n      0x20\n      add\n      swap1\n      dup2\n      mstore\n      0x20\n      add\n      0x00\n      keccak256\n      sload\n        /* \"BEP20.sol\":1652:1677  return _balances[account] */\n      swap1\n      pop\n        /* \"BEP20.sol\":1571:1682  function balanceOf(address account) public view override returns (uint256) {... */\n      swap2\n      swap1\n      pop\n      jump\t// out\n        /* \"BEPOwnable.sol\":1630:1757  function renounceOwnership() public onlyOwner {... */\n    tag_105:\n        /* \"BEPOwnable.sol\":1085:1094  isOwner() */\n      tag_228\n        /* \"BEPOwnable.sol\":1085:1092  isOwner */\n      tag_113\n        /* \"BEPOwnable.sol\":1085:1094  isOwner() */\n      jump\t// in\n    tag_228:\n        /* \"BEPOwnable.sol\":1077:1131  require(isOwner(), \"Ownable: caller is not the owner\") */\n      tag_229\n      jumpi\n      mload(0x40)\n      0x08c379a000000000000000000000000000000000000000000000000000000000\n      dup2\n      mstore\n      0x04\n      add\n      tag_230\n      swap1\n      tag_169\n      jump\t// in\n    tag_230:\n      mload(0x40)\n      dup1\n      swap2\n      sub\n      swap1\n      revert\n    tag_229:\n        /* \"BEPOwnable.sol\":1724:1725  0 */\n      0x00\n        /* \"BEPOwnable.sol\":1687:1727  OwnershipTransferred(_owner, address(0)) */\n      0xffffffffffffffffffffffffffffffffffffffff\n      and\n        /* \"BEPOwnable.sol\":1708:1714  _owner */\n      0x02\n      0x01\n      swap1\n      sload\n      swap1\n      0x0100\n      exp\n      swap1\n      div\n      0xffffffffffffffffffffffffffffffffffffffff\n      and\n        /* \"BEPOwnable.sol\":1687:1727  OwnershipTransferred(_owner, address(0)) */\n      0xffffffffffffffffffffffffffffffffffffffff\n      and\n      0x8be0079c531659141344cd1fd0a4f28419497f9722a3daafe3b4186f6b6457e0\n      mload(0x40)\n      mload(0x40)\n      dup1\n      swap2\n      sub\n      swap1\n      log3\n        /* \"BEPOwnable.sol\":1750:1751  0 */\n      0x00\n        /* \"BEPOwnable.sol\":1733:1739  _owner */\n      0x02\n      0x01\n        /* \"BEPOwnable.sol\":1733:1752  _owner = address(0) */\n      0x0100\n      exp\n      dup2\n      sload\n      dup2\n      0xffffffffffffffffffffffffffffffffffffffff\n      mul\n      not\n      and\n      swap1\n      dup4\n      0xffffffffffffffffffffffffffffffffffffffff\n      and\n      mul\n      or\n      swap1\n      sstore\n      pop\n        /* \"BEPOwnable.sol\":1630:1757  function renounceOwnership() public onlyOwner {... */\n      jump\t// out\n        /* \"BEPPausable.sol\":666:788  function pause() public onlyOwner whenNotPaused returns (bool) {... */\n    tag_107:\n        /* \"BEPPausable.sol\":723:727  bool */\n      0x00\n        /* \"BEPOwnable.sol\":1085:1094  isOwner() */\n      tag_233\n        /* \"BEPOwnable.sol\":1085:1092  isOwner */\n      tag_113\n        /* \"BEPOwnable.sol\":1085:1094  isOwner() */\n      jump\t// in\n    tag_233:\n        /* \"BEPOwnable.sol\":1077:1131  require(isOwner(), \"Ownable: caller is not the owner\") */\n      tag_234\n      jumpi\n      mload(0x40)\n      0x08c379a000000000000000000000000000000000000000000000000000000000\n      dup2\n      mstore\n      0x04\n      add\n      tag_235\n      swap1\n      tag_169\n      jump\t// in\n    tag_235:\n      mload(0x40)\n      dup1\n      swap2\n      sub\n      swap1\n      revert\n    tag_234:\n        /* \"BEPPausable.sol\":424:430  paused */\n      0x02\n      0x15\n      swap1\n      sload\n      swap1\n      0x0100\n      exp\n      swap1\n      div\n      0xff\n      and\n        /* \"BEPPausable.sol\":423:430  !paused */\n      iszero\n        /* \"BEPPausable.sol\":415:431  require(!paused) */\n      tag_237\n      jumpi\n      0x00\n      dup1\n      revert\n    tag_237:\n        /* \"BEPPausable.sol\":744:748  true */\n      0x01\n        /* \"BEPPausable.sol\":735:741  paused */\n      0x02\n      0x15\n        /* \"BEPPausable.sol\":735:748  paused = true */\n      0x0100\n      exp\n      dup2\n      sload\n      dup2\n      0xff\n      mul\n      not\n      and\n      swap1\n      dup4\n      iszero\n      iszero\n      mul\n      or\n      swap1\n      sstore\n      pop\n        /* \"BEPPausable.sol\":759:766  Pause() */\n      0x6985a02210a168e66602d3235cb6db0e70f92b3ba4d376a33c0f3d9434bff625\n      mload(0x40)\n      mload(0x40)\n      dup1\n      swap2\n      sub\n      swap1\n      log1\n        /* \"BEPPausable.sol\":779:783  true */\n      0x01\n        /* \"BEPPausable.sol\":772:783  return true */\n      swap1\n      pop\n        /* \"BEPPausable.sol\":666:788  function pause() public onlyOwner whenNotPaused returns (bool) {... */\n      swap1\n      jump\t// out\n        /* \"BEPOwnable.sol\":899:970  function owner() public view returns (address) {... */\n    tag_110:\n        /* \"BEPOwnable.sol\":937:944  address */\n      0x00\n        /* \"BEPOwnable.sol\":959:965  _owner */\n      0x02\n      0x01\n      swap1\n      sload\n      swap1\n      0x0100\n      exp\n      swap1\n      div\n      0xffffffffffffffffffffffffffffffffffffffff\n      and\n        /* \"BEPOwnable.sol\":952:965  return _owner */\n      swap1\n      pop\n        /* \"BEPOwnable.sol\":899:970  function owner() public view returns (address) {... */\n      swap1\n      jump\t// out\n        /* \"BEPOwnable.sol\":1218:1304  function isOwner() public view returns (bool) {... */\n    tag_113:\n        /* \"BEPOwnable.sol\":1258:1262  bool */\n      0x00\n        /* \"BEPOwnable.sol\":1293:1299  _owner */\n      0x02\n      0x01\n      swap1\n      sload\n      swap1\n      0x0100\n      exp\n      swap1\n      div\n      0xffffffffffffffffffffffffffffffffffffffff\n      and\n        /* \"BEPOwnable.sol\":1277:1299  _msgSender() == _owner */\n      0xffffffffffffffffffffffffffffffffffffffff\n      and\n        /* \"BEPOwnable.sol\":1277:1289  _msgSender() */\n      tag_241\n        /* \"BEPOwnable.sol\":1277:1287  _msgSender */\n      tag_163\n        /* \"BEPOwnable.sol\":1277:1289  _msgSender() */\n      jump\t// in\n    tag_241:\n        /* \"BEPOwnable.sol\":1277:1299  _msgSender() == _owner */\n      0xffffffffffffffffffffffffffffffffffffffff\n      and\n      eq\n        /* \"BEPOwnable.sol\":1270:1299  return _msgSender() == _owner */\n      swap1\n      pop\n        /* \"BEPOwnable.sol\":1218:1304  function isOwner() public view returns (bool) {... */\n      swap1\n      jump\t// out\n        /* \"BEP20Detailed.sol\":802:881  function symbol() public view returns (string memory) {... */\n    tag_116:\n        /* \"BEP20Detailed.sol\":841:854  string memory */\n      0x60\n        /* \"BEP20Detailed.sol\":869:876  _symbol */\n      0x01\n        /* \"BEP20Detailed.sol\":862:876  return _symbol */\n      dup1\n      sload\n      tag_243\n      swap1\n      tag_153\n      jump\t// in\n    tag_243:\n      dup1\n      0x1f\n      add\n      0x20\n      dup1\n      swap2\n      div\n      mul\n      0x20\n      add\n      mload(0x40)\n      swap1\n      dup2\n      add\n      0x40\n      mstore\n      dup1\n      swap3\n      swap2\n      swap1\n      dup2\n      dup2\n      mstore\n      0x20\n      add\n      dup3\n      dup1\n      sload\n      tag_244\n      swap1\n      tag_153\n      jump\t// in\n    tag_244:\n      dup1\n      iszero\n      tag_245\n      jumpi\n      dup1\n      0x1f\n      lt\n      tag_246\n      jumpi\n      0x0100\n      dup1\n      dup4\n      sload\n      div\n      mul\n      dup4\n      mstore\n      swap2\n      0x20\n      add\n      swap2\n      jump(tag_245)\n    tag_246:\n      dup3\n      add\n      swap2\n      swap1\n      0x00\n      mstore\n      keccak256(0x00, 0x20)\n      swap1\n    tag_247:\n      dup2\n      sload\n      dup2\n      mstore\n      swap1\n      0x01\n      add\n      swap1\n      0x20\n      add\n      dup1\n      dup4\n      gt\n      tag_247\n      jumpi\n      dup3\n      swap1\n      sub\n      0x1f\n      and\n      dup3\n      add\n      swap2\n    tag_245:\n      pop\n      pop\n      pop\n      pop\n      pop\n      swap1\n      pop\n        /* \"BEP20Detailed.sol\":802:881  function symbol() public view returns (string memory) {... */\n      swap1\n      jump\t// out\n        /* \"BEP20.sol\":4338:4624  function decreaseAllowance(address spender, uint256 subtractedValue) public whenNotPaused returns (bool) {... */\n    tag_120:\n        /* \"BEP20.sol\":4437:4441  bool */\n      0x00\n        /* \"BEPPausable.sol\":424:430  paused */\n      0x02\n      0x15\n      swap1\n      sload\n      swap1\n      0x0100\n      exp\n      swap1\n      div\n      0xff\n      and\n        /* \"BEPPausable.sol\":423:430  !paused */\n      iszero\n        /* \"BEPPausable.sol\":415:431  require(!paused) */\n      tag_249\n      jumpi\n      0x00\n      dup1\n      revert\n    tag_249:\n        /* \"BEP20.sol\":4449:4602  _approve(... */\n      tag_251\n        /* \"BEP20.sol\":4465:4477  _msgSender() */\n      tag_252\n        /* \"BEP20.sol\":4465:4475  _msgSender */\n      tag_163\n        /* \"BEP20.sol\":4465:4477  _msgSender() */\n      jump\t// in\n    tag_252:\n        /* \"BEP20.sol\":4485:4492  spender */\n      dup5\n        /* \"BEP20.sol\":4500:4596  _allowances[_msgSender()][spender].sub(subtractedValue, \"BEP20: decreased allowance below zero\") */\n      tag_253\n        /* \"BEP20.sol\":4539:4554  subtractedValue */\n      dup6\n        /* \"BEP20.sol\":4500:4596  _allowances[_msgSender()][spender].sub(subtractedValue, \"BEP20: decreased allowance below zero\") */\n      mload(0x40)\n      dup1\n      0x60\n      add\n      0x40\n      mstore\n      dup1\n      0x25\n      dup2\n      mstore\n      0x20\n      add\n      data_b7060b3538dcd3ddc8a941c91636a8115a1aa46914747fd9809d543bbb46cd22\n      0x25\n      swap2\n      codecopy\n        /* \"BEP20.sol\":4500:4511  _allowances */\n      0x04\n        /* \"BEP20.sol\":4500:4525  _allowances[_msgSender()] */\n      0x00\n        /* \"BEP20.sol\":4512:4524  _msgSender() */\n      tag_254\n        /* \"BEP20.sol\":4512:4522  _msgSender */\n      tag_163\n        /* \"BEP20.sol\":4512:4524  _msgSender() */\n      jump\t// in\n    tag_254:\n        /* \"BEP20.sol\":4500:4525  _allowances[_msgSender()] */\n      0xffffffffffffffffffffffffffffffffffffffff\n      and\n      0xffffffffffffffffffffffffffffffffffffffff\n      and\n      dup2\n      mstore\n      0x20\n      add\n      swap1\n      dup2\n      mstore\n      0x20\n      add\n      0x00\n      keccak256\n        /* \"BEP20.sol\":4500:4534  _allowances[_msgSender()][spender] */\n      0x00\n        /* \"BEP20.sol\":4526:4533  spender */\n      dup11\n        /* \"BEP20.sol\":4500:4534  _allowances[_msgSender()][spender] */\n      0xffffffffffffffffffffffffffffffffffffffff\n      and\n      0xffffffffffffffffffffffffffffffffffffffff\n      and\n      dup2\n      mstore\n      0x20\n      add\n      swap1\n      dup2\n      mstore\n      0x20\n      add\n      0x00\n      keccak256\n      sload\n        /* \"BEP20.sol\":4500:4538  _allowances[_msgSender()][spender].sub */\n      tag_198\n      swap1\n        /* \"BEP20.sol\":4500:4596  _allowances[_msgSender()][spender].sub(subtractedValue, \"BEP20: decreased allowance below zero\") */\n      swap3\n      swap2\n      swap1\n      0xffffffff\n      and\n      jump\t// in\n    tag_253:\n        /* \"BEP20.sol\":4449:4457  _approve */\n      tag_164\n        /* \"BEP20.sol\":4449:4602  _approve(... */\n      jump\t// in\n    tag_251:\n        /* \"BEP20.sol\":4615:4619  true */\n      0x01\n        /* \"BEP20.sol\":4608:4619  return true */\n      swap1\n      pop\n        /* \"BEP20.sol\":4338:4624  function decreaseAllowance(address spender, uint256 subtractedValue) public whenNotPaused returns (bool) {... */\n      swap3\n      swap2\n      pop\n      pop\n      jump\t// out\n        /* \"VIMToken.sol\":1793:1949  function setMarketingPool(address _marketingPool) external onlyOwner {... */\n    tag_124:\n        /* \"BEPOwnable.sol\":1085:1094  isOwner() */\n      tag_256\n        /* \"BEPOwnable.sol\":1085:1092  isOwner */\n      tag_113\n        /* \"BEPOwnable.sol\":1085:1094  isOwner() */\n      jump\t// in\n    tag_256:\n        /* \"BEPOwnable.sol\":1077:1131  require(isOwner(), \"Ownable: caller is not the owner\") */\n      tag_257\n      jumpi\n      mload(0x40)\n      0x08c379a000000000000000000000000000000000000000000000000000000000\n      dup2\n      mstore\n      0x04\n      add\n      tag_258\n      swap1\n      tag_169\n      jump\t// in\n    tag_258:\n      mload(0x40)\n      dup1\n      swap2\n      sub\n      swap1\n      revert\n    tag_257:\n        /* \"VIMToken.sol\":1884:1898  _marketingPool */\n      dup1\n        /* \"VIMToken.sol\":1868:1881  marketingPool */\n      0x0d\n      0x00\n        /* \"VIMToken.sol\":1868:1898  marketingPool = _marketingPool */\n      0x0100\n      exp\n      dup2\n      sload\n      dup2\n      0xffffffffffffffffffffffffffffffffffffffff\n      mul\n      not\n      and\n      swap1\n      dup4\n      0xffffffffffffffffffffffffffffffffffffffff\n      and\n      mul\n      or\n      swap1\n      sstore\n      pop\n        /* \"VIMToken.sol\":1909:1944  changeMarketingPool(_marketingPool) */\n      0xf15d5716db5d5d79f695e387fc3e7c89982c0df6f4b81a006e38cfdc850a712e\n        /* \"VIMToken.sol\":1929:1943  _marketingPool */\n      dup2\n        /* \"VIMToken.sol\":1909:1944  changeMarketingPool(_marketingPool) */\n      mload(0x40)\n      tag_260\n      swap2\n      swap1\n      tag_53\n      jump\t// in\n    tag_260:\n      mload(0x40)\n      dup1\n      swap2\n      sub\n      swap1\n      log1\n        /* \"VIMToken.sol\":1793:1949  function setMarketingPool(address _marketingPool) external onlyOwner {... */\n      pop\n      jump\t// out\n        /* \"BEP20.sol\":1867:2043  function transfer(address recipient, uint256 amount) public virtual override whenNotPaused returns (bool) {... */\n    tag_127:\n        /* \"BEP20.sol\":1967:1971  bool */\n      0x00\n        /* \"BEPPausable.sol\":424:430  paused */\n      0x02\n      0x15\n      swap1\n      sload\n      swap1\n      0x0100\n      exp\n      swap1\n      div\n      0xff\n      and\n        /* \"BEPPausable.sol\":423:430  !paused */\n      iszero\n        /* \"BEPPausable.sol\":415:431  require(!paused) */\n      tag_262\n      jumpi\n      0x00\n      dup1\n      revert\n    tag_262:\n        /* \"BEP20.sol\":1979:2021  _transfer(_msgSender(), recipient, amount) */\n      tag_264\n        /* \"BEP20.sol\":1989:2001  _msgSender() */\n      tag_265\n        /* \"BEP20.sol\":1989:1999  _msgSender */\n      tag_163\n        /* \"BEP20.sol\":1989:2001  _msgSender() */\n      jump\t// in\n    tag_265:\n        /* \"BEP20.sol\":2003:2012  recipient */\n      dup5\n        /* \"BEP20.sol\":2014:2020  amount */\n      dup5\n        /* \"BEP20.sol\":1979:1988  _transfer */\n      tag_193\n        /* \"BEP20.sol\":1979:2021  _transfer(_msgSender(), recipient, amount) */\n      jump\t// in\n    tag_264:\n        /* \"BEP20.sol\":2034:2038  true */\n      0x01\n        /* \"BEP20.sol\":2027:2038  return true */\n      swap1\n      pop\n        /* \"BEP20.sol\":1867:2043  function transfer(address recipient, uint256 amount) public virtual override whenNotPaused returns (bool) {... */\n      swap3\n      swap2\n      pop\n      pop\n      jump\t// out\n        /* \"VIMToken.sol\":2819:2943  function updateRewardWalletLimit(uint256 newLimitation) external onlyOwner {... */\n    tag_132:\n        /* \"BEPOwnable.sol\":1085:1094  isOwner() */\n      tag_267\n        /* \"BEPOwnable.sol\":1085:1092  isOwner */\n      tag_113\n        /* \"BEPOwnable.sol\":1085:1094  isOwner() */\n      jump\t// in\n    tag_267:\n        /* \"BEPOwnable.sol\":1077:1131  require(isOwner(), \"Ownable: caller is not the owner\") */\n      tag_268\n      jumpi\n      mload(0x40)\n      0x08c379a000000000000000000000000000000000000000000000000000000000\n      dup2\n      mstore\n      0x04\n      add\n      tag_269\n      swap1\n      tag_169\n      jump\t// in\n    tag_269:\n      mload(0x40)\n      dup1\n      swap2\n      sub\n      swap1\n      revert\n    tag_268:\n        /* \"VIMToken.sol\":2925:2938  newLimitation */\n      dup1\n        /* \"VIMToken.sol\":2900:2922  limitTxForRewardWallet */\n      0x0b\n        /* \"VIMToken.sol\":2900:2938  limitTxForRewardWallet = newLimitation */\n      dup2\n      swap1\n      sstore\n      pop\n        /* \"VIMToken.sol\":2819:2943  function updateRewardWalletLimit(uint256 newLimitation) external onlyOwner {... */\n      pop\n      jump\t// out\n        /* \"VIMToken.sol\":1601:1789  function setLiquidityPoolStatus(address _lpAddress, bool _status) external onlyOwner {... */\n    tag_135:\n        /* \"BEPOwnable.sol\":1085:1094  isOwner() */\n      tag_272\n        /* \"BEPOwnable.sol\":1085:1092  isOwner */\n      tag_113\n        /* \"BEPOwnable.sol\":1085:1094  isOwner() */\n      jump\t// in\n    tag_272:\n        /* \"BEPOwnable.sol\":1077:1131  require(isOwner(), \"Ownable: caller is not the owner\") */\n      tag_273\n      jumpi\n      mload(0x40)\n      0x08c379a000000000000000000000000000000000000000000000000000000000\n      dup2\n      mstore\n      0x04\n      add\n      tag_274\n      swap1\n      tag_169\n      jump\t// in\n    tag_274:\n      mload(0x40)\n      dup1\n      swap2\n      sub\n      swap1\n      revert\n    tag_273:\n        /* \"VIMToken.sol\":1720:1727  _status */\n      dup1\n        /* \"VIMToken.sol\":1692:1705  liquidityPool */\n      0x07\n        /* \"VIMToken.sol\":1692:1717  liquidityPool[_lpAddress] */\n      0x00\n        /* \"VIMToken.sol\":1706:1716  _lpAddress */\n      dup5\n        /* \"VIMToken.sol\":1692:1717  liquidityPool[_lpAddress] */\n      0xffffffffffffffffffffffffffffffffffffffff\n      and\n      0xffffffffffffffffffffffffffffffffffffffff\n      and\n      dup2\n      mstore\n      0x20\n      add\n      swap1\n      dup2\n      mstore\n      0x20\n      add\n      0x00\n      keccak256\n      0x00\n        /* \"VIMToken.sol\":1692:1727  liquidityPool[_lpAddress] = _status */\n      0x0100\n      exp\n      dup2\n      sload\n      dup2\n      0xff\n      mul\n      not\n      and\n      swap1\n      dup4\n      iszero\n      iszero\n      mul\n      or\n      swap1\n      sstore\n      pop\n        /* \"VIMToken.sol\":1738:1784  changeLiquidityPoolStatus(_lpAddress, _status) */\n      0x50d3135c1831a86bdc04740f17c94415767240d338df5795b37fb5b8272f80d7\n        /* \"VIMToken.sol\":1764:1774  _lpAddress */\n      dup3\n        /* \"VIMToken.sol\":1776:1783  _status */\n      dup3\n        /* \"VIMToken.sol\":1738:1784  changeLiquidityPoolStatus(_lpAddress, _status) */\n      mload(0x40)\n      tag_276\n      swap3\n      swap2\n      swap1\n      tag_181\n      jump\t// in\n    tag_276:\n      mload(0x40)\n      dup1\n      swap2\n      sub\n      swap1\n      log1\n        /* \"VIMToken.sol\":1601:1789  function setLiquidityPoolStatus(address _lpAddress, bool _status) external onlyOwner {... */\n      pop\n      pop\n      jump\t// out\n        /* \"VIMToken.sol\":2709:2810  function updateRewardWallet(address newWallet) external onlyOwner {... */\n    tag_138:\n        /* \"BEPOwnable.sol\":1085:1094  isOwner() */\n      tag_278\n        /* \"BEPOwnable.sol\":1085:1092  isOwner */\n      tag_113\n        /* \"BEPOwnable.sol\":1085:1094  isOwner() */\n      jump\t// in\n    tag_278:\n        /* \"BEPOwnable.sol\":1077:1131  require(isOwner(), \"Ownable: caller is not the owner\") */\n      tag_279\n      jumpi\n      mload(0x40)\n      0x08c379a000000000000000000000000000000000000000000000000000000000\n      dup2\n      mstore\n      0x04\n      add\n      tag_280\n      swap1\n      tag_169\n      jump\t// in\n    tag_280:\n      mload(0x40)\n      dup1\n      swap2\n      sub\n      swap1\n      revert\n    tag_279:\n        /* \"VIMToken.sol\":2796:2805  newWallet */\n      dup1\n        /* \"VIMToken.sol\":2781:2793  rewardWallet */\n      0x0e\n      0x00\n        /* \"VIMToken.sol\":2781:2805  rewardWallet = newWallet */\n      0x0100\n      exp\n      dup2\n      sload\n      dup2\n      0xffffffffffffffffffffffffffffffffffffffff\n      mul\n      not\n      and\n      swap1\n      dup4\n      0xffffffffffffffffffffffffffffffffffffffff\n      and\n      mul\n      or\n      swap1\n      sstore\n      pop\n        /* \"VIMToken.sol\":2709:2810  function updateRewardWallet(address newWallet) external onlyOwner {... */\n      pop\n      jump\t// out\n        /* \"BEP20.sol\":2093:2228  function allowance(address owner, address spender) public view override returns (uint256) {... */\n    tag_142:\n        /* \"BEP20.sol\":2174:2181  uint256 */\n      0x00\n        /* \"BEP20.sol\":2196:2207  _allowances */\n      0x04\n        /* \"BEP20.sol\":2196:2214  _allowances[owner] */\n      0x00\n        /* \"BEP20.sol\":2208:2213  owner */\n      dup5\n        /* \"BEP20.sol\":2196:2214  _allowances[owner] */\n      0xffffffffffffffffffffffffffffffffffffffff\n      and\n      0xffffffffffffffffffffffffffffffffffffffff\n      and\n      dup2\n      mstore\n      0x20\n      add\n      swap1\n      dup2\n      mstore\n      0x20\n      add\n      0x00\n      keccak256\n        /* \"BEP20.sol\":2196:2223  _allowances[owner][spender] */\n      0x00\n        /* \"BEP20.sol\":2215:2222  spender */\n      dup4\n        /* \"BEP20.sol\":2196:2223  _allowances[owner][spender] */\n      0xffffffffffffffffffffffffffffffffffffffff\n      and\n      0xffffffffffffffffffffffffffffffffffffffff\n      and\n      dup2\n      mstore\n      0x20\n      add\n      swap1\n      dup2\n      mstore\n      0x20\n      add\n      0x00\n      keccak256\n      sload\n        /* \"BEP20.sol\":2189:2223  return _allowances[owner][spender] */\n      swap1\n      pop\n        /* \"BEP20.sol\":2093:2228  function allowance(address owner, address spender) public view override returns (uint256) {... */\n      swap3\n      swap2\n      pop\n      pop\n      jump\t// out\n        /* \"BEPOwnable.sol\":1896:1997  function transferOwnership(address newOwner) public onlyOwner {... */\n    tag_146:\n        /* \"BEPOwnable.sol\":1085:1094  isOwner() */\n      tag_284\n        /* \"BEPOwnable.sol\":1085:1092  isOwner */\n      tag_113\n        /* \"BEPOwnable.sol\":1085:1094  isOwner() */\n      jump\t// in\n    tag_284:\n        /* \"BEPOwnable.sol\":1077:1131  require(isOwner(), \"Ownable: caller is not the owner\") */\n      tag_285\n      jumpi\n      mload(0x40)\n      0x08c379a000000000000000000000000000000000000000000000000000000000\n      dup2\n      mstore\n      0x04\n      add\n      tag_286\n      swap1\n      tag_169\n      jump\t// in\n    tag_286:\n      mload(0x40)\n      dup1\n      swap2\n      sub\n      swap1\n      revert\n    tag_285:\n        /* \"BEPOwnable.sol\":1964:1992  _transferOwnership(newOwner) */\n      tag_288\n        /* \"BEPOwnable.sol\":1983:1991  newOwner */\n      dup2\n        /* \"BEPOwnable.sol\":1964:1982  _transferOwnership */\n      tag_289\n        /* \"BEPOwnable.sol\":1964:1992  _transferOwnership(newOwner) */\n      jump\t// in\n    tag_288:\n        /* \"BEPOwnable.sol\":1896:1997  function transferOwnership(address newOwner) public onlyOwner {... */\n      pop\n      jump\t// out\n        /* \"VIMToken.sol\":584:611  address public rewardWallet */\n    tag_148:\n      0x0e\n      0x00\n      swap1\n      sload\n      swap1\n      0x0100\n      exp\n      swap1\n      div\n      0xffffffffffffffffffffffffffffffffffffffff\n      and\n      dup2\n      jump\t// out\n        /* \"SafeMath.sol\":858:1020  function add(uint256 a, uint256 b) internal pure returns (uint256) {... */\n    tag_150:\n        /* \"SafeMath.sol\":916:923  uint256 */\n      0x00\n        /* \"SafeMath.sol\":931:940  uint256 c */\n      dup1\n        /* \"SafeMath.sol\":947:948  b */\n      dup3\n        /* \"SafeMath.sol\":943:944  a */\n      dup5\n        /* \"SafeMath.sol\":943:948  a + b */\n      tag_291\n      swap2\n      swap1\n      tag_292\n      jump\t// in\n    tag_291:\n        /* \"SafeMath.sol\":931:948  uint256 c = a + b */\n      swap1\n      pop\n        /* \"SafeMath.sol\":967:968  a */\n      dup4\n        /* \"SafeMath.sol\":962:963  c */\n      dup2\n        /* \"SafeMath.sol\":962:968  c >= a */\n      lt\n      iszero\n        /* \"SafeMath.sol\":954:1000  require(c >= a, \"SafeMath: addition overflow\") */\n      tag_293\n      jumpi\n      mload(0x40)\n      0x08c379a000000000000000000000000000000000000000000000000000000000\n      dup2\n      mstore\n      0x04\n      add\n      tag_294\n      swap1\n      tag_295\n      jump\t// in\n    tag_294:\n      mload(0x40)\n      dup1\n      swap2\n      sub\n      swap1\n      revert\n    tag_293:\n        /* \"SafeMath.sol\":1014:1015  c */\n      dup1\n        /* \"SafeMath.sol\":1007:1015  return c */\n      swap2\n      pop\n      pop\n        /* \"SafeMath.sol\":858:1020  function add(uint256 a, uint256 b) internal pure returns (uint256) {... */\n      swap3\n      swap2\n      pop\n      pop\n      jump\t// out\n        /* \"BEPContext.sol\":760:859  function _msgSender() internal view returns (address payable) {... */\n    tag_163:\n        /* \"BEPContext.sol\":805:820  address payable */\n      0x00\n        /* \"BEPContext.sol\":843:853  msg.sender */\n      caller\n        /* \"BEPContext.sol\":828:854  return payable(msg.sender) */\n      swap1\n      pop\n        /* \"BEPContext.sol\":760:859  function _msgSender() internal view returns (address payable) {... */\n      swap1\n      jump\t// out\n        /* \"BEP20.sol\":7084:7414  function _approve(... */\n    tag_164:\n        /* \"BEP20.sol\":7206:7207  0 */\n      0x00\n        /* \"BEP20.sol\":7189:7208  owner != address(0) */\n      0xffffffffffffffffffffffffffffffffffffffff\n      and\n        /* \"BEP20.sol\":7189:7194  owner */\n      dup4\n        /* \"BEP20.sol\":7189:7208  owner != address(0) */\n      0xffffffffffffffffffffffffffffffffffffffff\n      and\n      eq\n      iszero\n        /* \"BEP20.sol\":7181:7249  require(owner != address(0), \"BEP20: approve from the zero address\") */\n      tag_298\n      jumpi\n      mload(0x40)\n      0x08c379a000000000000000000000000000000000000000000000000000000000\n      dup2\n      mstore\n      0x04\n      add\n      tag_299\n      swap1\n      tag_300\n      jump\t// in\n    tag_299:\n      mload(0x40)\n      dup1\n      swap2\n      sub\n      swap1\n      revert\n    tag_298:\n        /* \"BEP20.sol\":7282:7283  0 */\n      0x00\n        /* \"BEP20.sol\":7263:7284  spender != address(0) */\n      0xffffffffffffffffffffffffffffffffffffffff\n      and\n        /* \"BEP20.sol\":7263:7270  spender */\n      dup3\n        /* \"BEP20.sol\":7263:7284  spender != address(0) */\n      0xffffffffffffffffffffffffffffffffffffffff\n      and\n      eq\n      iszero\n        /* \"BEP20.sol\":7255:7323  require(spender != address(0), \"BEP20: approve to the zero address\") */\n      tag_301\n      jumpi\n      mload(0x40)\n      0x08c379a000000000000000000000000000000000000000000000000000000000\n      dup2\n      mstore\n      0x04\n      add\n      tag_302\n      swap1\n      tag_303\n      jump\t// in\n    tag_302:\n      mload(0x40)\n      dup1\n      swap2\n      sub\n      swap1\n      revert\n    tag_301:\n        /* \"BEP20.sol\":7360:7366  amount */\n      dup1\n        /* \"BEP20.sol\":7330:7341  _allowances */\n      0x04\n        /* \"BEP20.sol\":7330:7348  _allowances[owner] */\n      0x00\n        /* \"BEP20.sol\":7342:7347  owner */\n      dup6\n        /* \"BEP20.sol\":7330:7348  _allowances[owner] */\n      0xffffffffffffffffffffffffffffffffffffffff\n      and\n      0xffffffffffffffffffffffffffffffffffffffff\n      and\n      dup2\n      mstore\n      0x20\n      add\n      swap1\n      dup2\n      mstore\n      0x20\n      add\n      0x00\n      keccak256\n        /* \"BEP20.sol\":7330:7357  _allowances[owner][spender] */\n      0x00\n        /* \"BEP20.sol\":7349:7356  spender */\n      dup5\n        /* \"BEP20.sol\":7330:7357  _allowances[owner][spender] */\n      0xffffffffffffffffffffffffffffffffffffffff\n      and\n      0xffffffffffffffffffffffffffffffffffffffff\n      and\n      dup2\n      mstore\n      0x20\n      add\n      swap1\n      dup2\n      mstore\n      0x20\n      add\n      0x00\n      keccak256\n        /* \"BEP20.sol\":7330:7366  _allowances[owner][spender] = amount */\n      dup2\n      swap1\n      sstore\n      pop\n        /* \"BEP20.sol\":7393:7400  spender */\n      dup2\n        /* \"BEP20.sol\":7377:7409  Approval(owner, spender, amount) */\n      0xffffffffffffffffffffffffffffffffffffffff\n      and\n        /* \"BEP20.sol\":7386:7391  owner */\n      dup4\n        /* \"BEP20.sol\":7377:7409  Approval(owner, spender, amount) */\n      0xffffffffffffffffffffffffffffffffffffffff\n      and\n      0x8c5be1e5ebec7d5bd14f71427d1e84f3dd0314c0f7b2291e5b200ac8c7c3b925\n        /* \"BEP20.sol\":7402:7408  amount */\n      dup4\n        /* \"BEP20.sol\":7377:7409  Approval(owner, spender, amount) */\n      mload(0x40)\n      tag_304\n      swap2\n      swap1\n      tag_69\n      jump\t// in\n    tag_304:\n      mload(0x40)\n      dup1\n      swap2\n      sub\n      swap1\n      log3\n        /* \"BEP20.sol\":7084:7414  function _approve(... */\n      pop\n      pop\n      pop\n      jump\t// out\n        /* \"VIMToken.sol\":2949:4067  function _transfer(address sender, address receiver, uint256 amount) internal virtual override {... */\n    tag_193:\n        /* \"VIMToken.sol\":3078:3082  this */\n      address\n        /* \"VIMToken.sol\":3058:3083  receiver != address(this) */\n      0xffffffffffffffffffffffffffffffffffffffff\n      and\n        /* \"VIMToken.sol\":3058:3066  receiver */\n      dup3\n        /* \"VIMToken.sol\":3058:3083  receiver != address(this) */\n      0xffffffffffffffffffffffffffffffffffffffff\n      and\n      eq\n      iszero\n        /* \"VIMToken.sol\":3085:3128  string(\"No transfers to contract allowed.\") */\n      mload(0x40)\n      dup1\n      0x60\n      add\n      0x40\n      mstore\n      dup1\n      0x21\n      dup2\n      mstore\n      0x20\n      add\n      data_573d1ed4a921ea442c5f19a96dadd552e53378497b3e3c5c4f92b5237f17148e\n      0x21\n      swap2\n      codecopy\n        /* \"VIMToken.sol\":3050:3129  require(receiver != address(this), string(\"No transfers to contract allowed.\")) */\n      swap1\n      tag_306\n      jumpi\n      mload(0x40)\n      0x08c379a000000000000000000000000000000000000000000000000000000000\n      dup2\n      mstore\n      0x04\n      add\n      tag_307\n      swap2\n      swap1\n      tag_43\n      jump\t// in\n    tag_307:\n      mload(0x40)\n      dup1\n      swap2\n      sub\n      swap1\n      revert\n    tag_306:\n      pop\n        /* \"VIMToken.sol\":3146:3158  rewardWallet */\n      0x0e\n      0x00\n      swap1\n      sload\n      swap1\n      0x0100\n      exp\n      swap1\n      div\n      0xffffffffffffffffffffffffffffffffffffffff\n      and\n        /* \"VIMToken.sol\":3138:3158  sender==rewardWallet */\n      0xffffffffffffffffffffffffffffffffffffffff\n      and\n        /* \"VIMToken.sol\":3138:3144  sender */\n      dup4\n        /* \"VIMToken.sol\":3138:3158  sender==rewardWallet */\n      0xffffffffffffffffffffffffffffffffffffffff\n      and\n      eq\n        /* \"VIMToken.sol\":3135:3211  if(sender==rewardWallet){... */\n      iszero\n      tag_308\n      jumpi\n        /* \"VIMToken.sol\":3181:3203  limitTxForRewardWallet */\n      sload(0x0b)\n        /* \"VIMToken.sol\":3173:3179  amount */\n      dup2\n        /* \"VIMToken.sol\":3173:3203  amount<=limitTxForRewardWallet */\n      gt\n      iszero\n        /* \"VIMToken.sol\":3165:3204  require(amount<=limitTxForRewardWallet) */\n      tag_309\n      jumpi\n      0x00\n      dup1\n      revert\n    tag_309:\n        /* \"VIMToken.sol\":3135:3211  if(sender==rewardWallet){... */\n    tag_308:\n        /* \"VIMToken.sol\":3230:3241  isBlacklist */\n      0x06\n        /* \"VIMToken.sol\":3230:3249  isBlacklist[sender] */\n      0x00\n        /* \"VIMToken.sol\":3242:3248  sender */\n      dup5\n        /* \"VIMToken.sol\":3230:3249  isBlacklist[sender] */\n      0xffffffffffffffffffffffffffffffffffffffff\n      and\n      0xffffffffffffffffffffffffffffffffffffffff\n      and\n      dup2\n      mstore\n      0x20\n      add\n      swap1\n      dup2\n      mstore\n      0x20\n      add\n      0x00\n      keccak256\n      0x00\n      swap1\n      sload\n      swap1\n      0x0100\n      exp\n      swap1\n      div\n      0xff\n      and\n        /* \"VIMToken.sol\":3229:3249  !isBlacklist[sender] */\n      iszero\n        /* \"VIMToken.sol\":3221:3269  require(!isBlacklist[sender],\"User blacklisted\") */\n      tag_310\n      jumpi\n      mload(0x40)\n      0x08c379a000000000000000000000000000000000000000000000000000000000\n      dup2\n      mstore\n      0x04\n      add\n      tag_311\n      swap1\n      tag_312\n      jump\t// in\n    tag_311:\n      mload(0x40)\n      dup1\n      swap2\n      sub\n      swap1\n      revert\n    tag_310:\n        /* \"VIMToken.sol\":3303:3307  true */\n      0x01\n        /* \"VIMToken.sol\":3278:3307  liquidityPool[sender] == true */\n      iszero\n      iszero\n        /* \"VIMToken.sol\":3278:3291  liquidityPool */\n      0x07\n        /* \"VIMToken.sol\":3278:3299  liquidityPool[sender] */\n      0x00\n        /* \"VIMToken.sol\":3292:3298  sender */\n      dup6\n        /* \"VIMToken.sol\":3278:3299  liquidityPool[sender] */\n      0xffffffffffffffffffffffffffffffffffffffff\n      and\n      0xffffffffffffffffffffffffffffffffffffffff\n      and\n      dup2\n      mstore\n      0x20\n      add\n      swap1\n      dup2\n      mstore\n      0x20\n      add\n      0x00\n      keccak256\n      0x00\n      swap1\n      sload\n      swap1\n      0x0100\n      exp\n      swap1\n      div\n      0xff\n      and\n        /* \"VIMToken.sol\":3278:3307  liquidityPool[sender] == true */\n      iszero\n      iszero\n      eq\n        /* \"VIMToken.sol\":3275:3908  if(liquidityPool[sender] == true) {... */\n      iszero\n      tag_313\n      jumpi\n        /* \"VIMToken.sol\":3388:3391  100 */\n      0x64\n        /* \"VIMToken.sol\":3378:3384  buyTax */\n      0x0a\n      0x00\n      swap1\n      sload\n      swap1\n      0x0100\n      exp\n      swap1\n      div\n      0xff\n      and\n        /* \"VIMToken.sol\":3369:3384  amount * buyTax */\n      0xff\n      and\n        /* \"VIMToken.sol\":3369:3375  amount */\n      dup3\n        /* \"VIMToken.sol\":3369:3384  amount * buyTax */\n      tag_314\n      swap2\n      swap1\n      tag_315\n      jump\t// in\n    tag_314:\n        /* \"VIMToken.sol\":3368:3391  (amount * buyTax) / 100 */\n      tag_316\n      swap2\n      swap1\n      tag_317\n      jump\t// in\n    tag_316:\n        /* \"VIMToken.sol\":3356:3365  taxAmount */\n      0x0c\n        /* \"VIMToken.sol\":3356:3391  taxAmount = (amount * buyTax) / 100 */\n      dup2\n      swap1\n      sstore\n      pop\n        /* \"VIMToken.sol\":3275:3908  if(liquidityPool[sender] == true) {... */\n      jump(tag_318)\n    tag_313:\n        /* \"VIMToken.sol\":3434:3438  true */\n      0x01\n        /* \"VIMToken.sol\":3407:3438  liquidityPool[receiver] == true */\n      iszero\n      iszero\n        /* \"VIMToken.sol\":3407:3420  liquidityPool */\n      0x07\n        /* \"VIMToken.sol\":3407:3430  liquidityPool[receiver] */\n      0x00\n        /* \"VIMToken.sol\":3421:3429  receiver */\n      dup5\n        /* \"VIMToken.sol\":3407:3430  liquidityPool[receiver] */\n      0xffffffffffffffffffffffffffffffffffffffff\n      and\n      0xffffffffffffffffffffffffffffffffffffffff\n      and\n      dup2\n      mstore\n      0x20\n      add\n      swap1\n      dup2\n      mstore\n      0x20\n      add\n      0x00\n      keccak256\n      0x00\n      swap1\n      sload\n      swap1\n      0x0100\n      exp\n      swap1\n      div\n      0xff\n      and\n        /* \"VIMToken.sol\":3407:3438  liquidityPool[receiver] == true */\n      iszero\n      iszero\n      eq\n        /* \"VIMToken.sol\":3404:3908  if(liquidityPool[receiver] == true) {      ... */\n      iszero\n      tag_319\n      jumpi\n        /* \"VIMToken.sol\":3527:3530  100 */\n      0x64\n        /* \"VIMToken.sol\":3516:3523  sellTax */\n      0x0a\n      0x01\n      swap1\n      sload\n      swap1\n      0x0100\n      exp\n      swap1\n      div\n      0xff\n      and\n        /* \"VIMToken.sol\":3507:3523  amount * sellTax */\n      0xff\n      and\n        /* \"VIMToken.sol\":3507:3513  amount */\n      dup3\n        /* \"VIMToken.sol\":3507:3523  amount * sellTax */\n      tag_320\n      swap2\n      swap1\n      tag_315\n      jump\t// in\n    tag_320:\n        /* \"VIMToken.sol\":3506:3530  (amount * sellTax) / 100 */\n      tag_321\n      swap2\n      swap1\n      tag_317\n      jump\t// in\n    tag_321:\n        /* \"VIMToken.sol\":3494:3503  taxAmount */\n      0x0c\n        /* \"VIMToken.sol\":3494:3530  taxAmount = (amount * sellTax) / 100 */\n      dup2\n      swap1\n      sstore\n      pop\n        /* \"VIMToken.sol\":3586:3599  tradeCooldown */\n      0x0a\n      0x02\n      swap1\n      sload\n      swap1\n      0x0100\n      exp\n      swap1\n      div\n      0xff\n      and\n        /* \"VIMToken.sol\":3568:3599  block.timestamp - tradeCooldown */\n      0xff\n      and\n        /* \"VIMToken.sol\":3568:3583  block.timestamp */\n      timestamp\n        /* \"VIMToken.sol\":3568:3599  block.timestamp - tradeCooldown */\n      tag_322\n      swap2\n      swap1\n      tag_323\n      jump\t// in\n    tag_322:\n        /* \"VIMToken.sol\":3547:3556  lastTrade */\n      0x09\n        /* \"VIMToken.sol\":3547:3564  lastTrade[sender] */\n      0x00\n        /* \"VIMToken.sol\":3557:3563  sender */\n      dup6\n        /* \"VIMToken.sol\":3547:3564  lastTrade[sender] */\n      0xffffffffffffffffffffffffffffffffffffffff\n      and\n      0xffffffffffffffffffffffffffffffffffffffff\n      and\n      dup2\n      mstore\n      0x20\n      add\n      swap1\n      dup2\n      mstore\n      0x20\n      add\n      0x00\n      keccak256\n      sload\n        /* \"VIMToken.sol\":3547:3600  lastTrade[sender] < (block.timestamp - tradeCooldown) */\n      lt\n        /* \"VIMToken.sol\":3602:3654  string(\"No consecutive sells allowed. Please wait.\") */\n      mload(0x40)\n      dup1\n      0x60\n      add\n      0x40\n      mstore\n      dup1\n      0x2a\n      dup2\n      mstore\n      0x20\n      add\n      data_7efdc62e202e71ba96d2ad4e93c3fc5c67ef5ce0b8f02ccfd2d78dc68ce32fc4\n      0x2a\n      swap2\n      codecopy\n        /* \"VIMToken.sol\":3539:3655  require(lastTrade[sender] < (block.timestamp - tradeCooldown), string(\"No consecutive sells allowed. Please wait.\")) */\n      swap1\n      tag_324\n      jumpi\n      mload(0x40)\n      0x08c379a000000000000000000000000000000000000000000000000000000000\n      dup2\n      mstore\n      0x04\n      add\n      tag_325\n      swap2\n      swap1\n      tag_43\n      jump\t// in\n    tag_325:\n      mload(0x40)\n      dup1\n      swap2\n      sub\n      swap1\n      revert\n    tag_324:\n      pop\n        /* \"VIMToken.sol\":3683:3698  block.timestamp */\n      timestamp\n        /* \"VIMToken.sol\":3663:3672  lastTrade */\n      0x09\n        /* \"VIMToken.sol\":3663:3680  lastTrade[sender] */\n      0x00\n        /* \"VIMToken.sol\":3673:3679  sender */\n      dup6\n        /* \"VIMToken.sol\":3663:3680  lastTrade[sender] */\n      0xffffffffffffffffffffffffffffffffffffffff\n      and\n      0xffffffffffffffffffffffffffffffffffffffff\n      and\n      dup2\n      mstore\n      0x20\n      add\n      swap1\n      dup2\n      mstore\n      0x20\n      add\n      0x00\n      keccak256\n        /* \"VIMToken.sol\":3663:3698  lastTrade[sender] = block.timestamp */\n      dup2\n      swap1\n      sstore\n      pop\n        /* \"VIMToken.sol\":3404:3908  if(liquidityPool[receiver] == true) {      ... */\n      jump(tag_326)\n    tag_319:\n        /* \"VIMToken.sol\":3715:3727  whitelistTax */\n      0x08\n        /* \"VIMToken.sol\":3715:3735  whitelistTax[sender] */\n      0x00\n        /* \"VIMToken.sol\":3728:3734  sender */\n      dup5\n        /* \"VIMToken.sol\":3715:3735  whitelistTax[sender] */\n      0xffffffffffffffffffffffffffffffffffffffff\n      and\n      0xffffffffffffffffffffffffffffffffffffffff\n      and\n      dup2\n      mstore\n      0x20\n      add\n      swap1\n      dup2\n      mstore\n      0x20\n      add\n      0x00\n      keccak256\n      0x00\n      swap1\n      sload\n      swap1\n      0x0100\n      exp\n      swap1\n      div\n      0xff\n      and\n        /* \"VIMToken.sol\":3715:3761  whitelistTax[sender] || whitelistTax[receiver] */\n      dup1\n      tag_327\n      jumpi\n      pop\n        /* \"VIMToken.sol\":3739:3751  whitelistTax */\n      0x08\n        /* \"VIMToken.sol\":3739:3761  whitelistTax[receiver] */\n      0x00\n        /* \"VIMToken.sol\":3752:3760  receiver */\n      dup4\n        /* \"VIMToken.sol\":3739:3761  whitelistTax[receiver] */\n      0xffffffffffffffffffffffffffffffffffffffff\n      and\n      0xffffffffffffffffffffffffffffffffffffffff\n      and\n      dup2\n      mstore\n      0x20\n      add\n      swap1\n      dup2\n      mstore\n      0x20\n      add\n      0x00\n      keccak256\n      0x00\n      swap1\n      sload\n      swap1\n      0x0100\n      exp\n      swap1\n      div\n      0xff\n      and\n        /* \"VIMToken.sol\":3715:3761  whitelistTax[sender] || whitelistTax[receiver] */\n    tag_327:\n        /* \"VIMToken.sol\":3715:3788  whitelistTax[sender] || whitelistTax[receiver] || sender == marketingPool */\n      dup1\n      tag_328\n      jumpi\n      pop\n        /* \"VIMToken.sol\":3775:3788  marketingPool */\n      0x0d\n      0x00\n      swap1\n      sload\n      swap1\n      0x0100\n      exp\n      swap1\n      div\n      0xffffffffffffffffffffffffffffffffffffffff\n      and\n        /* \"VIMToken.sol\":3765:3788  sender == marketingPool */\n      0xffffffffffffffffffffffffffffffffffffffff\n      and\n        /* \"VIMToken.sol\":3765:3771  sender */\n      dup4\n        /* \"VIMToken.sol\":3765:3788  sender == marketingPool */\n      0xffffffffffffffffffffffffffffffffffffffff\n      and\n      eq\n        /* \"VIMToken.sol\":3715:3788  whitelistTax[sender] || whitelistTax[receiver] || sender == marketingPool */\n    tag_328:\n        /* \"VIMToken.sol\":3715:3817  whitelistTax[sender] || whitelistTax[receiver] || sender == marketingPool || receiver == marketingPool */\n      dup1\n      tag_329\n      jumpi\n      pop\n        /* \"VIMToken.sol\":3804:3817  marketingPool */\n      0x0d\n      0x00\n      swap1\n      sload\n      swap1\n      0x0100\n      exp\n      swap1\n      div\n      0xffffffffffffffffffffffffffffffffffffffff\n      and\n        /* \"VIMToken.sol\":3792:3817  receiver == marketingPool */\n      0xffffffffffffffffffffffffffffffffffffffff\n      and\n        /* \"VIMToken.sol\":3792:3800  receiver */\n      dup3\n        /* \"VIMToken.sol\":3792:3817  receiver == marketingPool */\n      0xffffffffffffffffffffffffffffffffffffffff\n      and\n      eq\n        /* \"VIMToken.sol\":3715:3817  whitelistTax[sender] || whitelistTax[receiver] || sender == marketingPool || receiver == marketingPool */\n    tag_329:\n        /* \"VIMToken.sol\":3712:3908  if(whitelistTax[sender] || whitelistTax[receiver] || sender == marketingPool || receiver == marketingPool) {... */\n      iszero\n      tag_330\n      jumpi\n        /* \"VIMToken.sol\":3839:3840  0 */\n      0x00\n        /* \"VIMToken.sol\":3827:3836  taxAmount */\n      0x0c\n        /* \"VIMToken.sol\":3827:3840  taxAmount = 0 */\n      dup2\n      swap1\n      sstore\n      pop\n        /* \"VIMToken.sol\":3712:3908  if(whitelistTax[sender] || whitelistTax[receiver] || sender == marketingPool || receiver == marketingPool) {... */\n      jump(tag_331)\n    tag_330:\n        /* \"VIMToken.sol\":3898:3901  100 */\n      0x64\n        /* \"VIMToken.sol\":3883:3894  transferTax */\n      0x0a\n      0x03\n      swap1\n      sload\n      swap1\n      0x0100\n      exp\n      swap1\n      div\n      0xff\n      and\n        /* \"VIMToken.sol\":3874:3894  amount * transferTax */\n      0xff\n      and\n        /* \"VIMToken.sol\":3874:3880  amount */\n      dup3\n        /* \"VIMToken.sol\":3874:3894  amount * transferTax */\n      tag_332\n      swap2\n      swap1\n      tag_315\n      jump\t// in\n    tag_332:\n        /* \"VIMToken.sol\":3873:3901  (amount * transferTax) / 100 */\n      tag_333\n      swap2\n      swap1\n      tag_317\n      jump\t// in\n    tag_333:\n        /* \"VIMToken.sol\":3861:3870  taxAmount */\n      0x0c\n        /* \"VIMToken.sol\":3861:3901  taxAmount = (amount * transferTax) / 100 */\n      dup2\n      swap1\n      sstore\n      pop\n        /* \"VIMToken.sol\":3712:3908  if(whitelistTax[sender] || whitelistTax[receiver] || sender == marketingPool || receiver == marketingPool) {... */\n    tag_331:\n        /* \"VIMToken.sol\":3404:3908  if(liquidityPool[receiver] == true) {      ... */\n    tag_326:\n        /* \"VIMToken.sol\":3275:3908  if(liquidityPool[sender] == true) {... */\n    tag_318:\n        /* \"VIMToken.sol\":3933:3934  0 */\n      0x00\n        /* \"VIMToken.sol\":3921:3930  taxAmount */\n      sload(0x0c)\n        /* \"VIMToken.sol\":3921:3934  taxAmount > 0 */\n      gt\n        /* \"VIMToken.sol\":3918:4000  if(taxAmount > 0) {... */\n      iszero\n      tag_334\n      jumpi\n        /* \"VIMToken.sol\":3944:3993  super._transfer(sender, marketingPool, taxAmount) */\n      tag_335\n        /* \"VIMToken.sol\":3960:3966  sender */\n      dup4\n        /* \"VIMToken.sol\":3968:3981  marketingPool */\n      0x0d\n      0x00\n      swap1\n      sload\n      swap1\n      0x0100\n      exp\n      swap1\n      div\n      0xffffffffffffffffffffffffffffffffffffffff\n      and\n        /* \"VIMToken.sol\":3983:3992  taxAmount */\n      sload(0x0c)\n        /* \"VIMToken.sol\":3944:3959  super._transfer */\n      tag_336\n        /* \"VIMToken.sol\":3944:3993  super._transfer(sender, marketingPool, taxAmount) */\n      jump\t// in\n    tag_335:\n        /* \"VIMToken.sol\":3918:4000  if(taxAmount > 0) {... */\n    tag_334:\n        /* \"VIMToken.sol\":4009:4062  super._transfer(sender, receiver, amount - taxAmount) */\n      tag_337\n        /* \"VIMToken.sol\":4025:4031  sender */\n      dup4\n        /* \"VIMToken.sol\":4033:4041  receiver */\n      dup4\n        /* \"VIMToken.sol\":4052:4061  taxAmount */\n      sload(0x0c)\n        /* \"VIMToken.sol\":4043:4049  amount */\n      dup5\n        /* \"VIMToken.sol\":4043:4061  amount - taxAmount */\n      tag_338\n      swap2\n      swap1\n      tag_323\n      jump\t// in\n    tag_338:\n        /* \"VIMToken.sol\":4009:4024  super._transfer */\n      tag_336\n        /* \"VIMToken.sol\":4009:4062  super._transfer(sender, receiver, amount - taxAmount) */\n      jump\t// in\n    tag_337:\n        /* \"VIMToken.sol\":2949:4067  function _transfer(address sender, address receiver, uint256 amount) internal virtual override {... */\n      pop\n      pop\n      pop\n      jump\t// out\n        /* \"SafeMath.sol\":1692:1881  function sub(... */\n    tag_198:\n        /* \"SafeMath.sol\":1794:1801  uint256 */\n      0x00\n        /* \"SafeMath.sol\":1822:1823  a */\n      dup4\n        /* \"SafeMath.sol\":1817:1818  b */\n      dup4\n        /* \"SafeMath.sol\":1817:1823  b <= a */\n      gt\n      iszero\n        /* \"SafeMath.sol\":1825:1837  errorMessage */\n      dup3\n        /* \"SafeMath.sol\":1809:1838  require(b <= a, errorMessage) */\n      swap1\n      tag_340\n      jumpi\n      mload(0x40)\n      0x08c379a000000000000000000000000000000000000000000000000000000000\n      dup2\n      mstore\n      0x04\n      add\n      tag_341\n      swap2\n      swap1\n      tag_43\n      jump\t// in\n    tag_341:\n      mload(0x40)\n      dup1\n      swap2\n      sub\n      swap1\n      revert\n    tag_340:\n      pop\n        /* \"SafeMath.sol\":1844:1853  uint256 c */\n      0x00\n        /* \"SafeMath.sol\":1860:1861  b */\n      dup4\n        /* \"SafeMath.sol\":1856:1857  a */\n      dup6\n        /* \"SafeMath.sol\":1856:1861  a - b */\n      tag_342\n      swap2\n      swap1\n      tag_323\n      jump\t// in\n    tag_342:\n        /* \"SafeMath.sol\":1844:1861  uint256 c = a - b */\n      swap1\n      pop\n        /* \"SafeMath.sol\":1875:1876  c */\n      dup1\n        /* \"SafeMath.sol\":1868:1876  return c */\n      swap2\n      pop\n      pop\n        /* \"SafeMath.sol\":1692:1881  function sub(... */\n      swap4\n      swap3\n      pop\n      pop\n      pop\n      jump\t// out\n        /* \"BEPOwnable.sol\":2090:2301  function _transferOwnership(address newOwner) internal {... */\n    tag_289:\n        /* \"BEPOwnable.sol\":2179:2180  0 */\n      0x00\n        /* \"BEPOwnable.sol\":2159:2181  newOwner != address(0) */\n      0xffffffffffffffffffffffffffffffffffffffff\n      and\n        /* \"BEPOwnable.sol\":2159:2167  newOwner */\n      dup2\n        /* \"BEPOwnable.sol\":2159:2181  newOwner != address(0) */\n      0xffffffffffffffffffffffffffffffffffffffff\n      and\n      eq\n      iszero\n        /* \"BEPOwnable.sol\":2151:2224  require(newOwner != address(0), \"Ownable: new owner is the zero address\") */\n      tag_344\n      jumpi\n      mload(0x40)\n      0x08c379a000000000000000000000000000000000000000000000000000000000\n      dup2\n      mstore\n      0x04\n      add\n      tag_345\n      swap1\n      tag_346\n      jump\t// in\n    tag_345:\n      mload(0x40)\n      dup1\n      swap2\n      sub\n      swap1\n      revert\n    tag_344:\n        /* \"BEPOwnable.sol\":2264:2272  newOwner */\n      dup1\n        /* \"BEPOwnable.sol\":2235:2273  OwnershipTransferred(_owner, newOwner) */\n      0xffffffffffffffffffffffffffffffffffffffff\n      and\n        /* \"BEPOwnable.sol\":2256:2262  _owner */\n      0x02\n      0x01\n      swap1\n      sload\n      swap1\n      0x0100\n      exp\n      swap1\n      div\n      0xffffffffffffffffffffffffffffffffffffffff\n      and\n        /* \"BEPOwnable.sol\":2235:2273  OwnershipTransferred(_owner, newOwner) */\n      0xffffffffffffffffffffffffffffffffffffffff\n      and\n      0x8be0079c531659141344cd1fd0a4f28419497f9722a3daafe3b4186f6b6457e0\n      mload(0x40)\n      mload(0x40)\n      dup1\n      swap2\n      sub\n      swap1\n      log3\n        /* \"BEPOwnable.sol\":2288:2296  newOwner */\n      dup1\n        /* \"BEPOwnable.sol\":2279:2285  _owner */\n      0x02\n      0x01\n        /* \"BEPOwnable.sol\":2279:2296  _owner = newOwner */\n      0x0100\n      exp\n      dup2\n      sload\n      dup2\n      0xffffffffffffffffffffffffffffffffffffffff\n      mul\n      not\n      and\n      swap1\n      dup4\n      0xffffffffffffffffffffffffffffffffffffffff\n      and\n      mul\n      or\n      swap1\n      sstore\n      pop\n        /* \"BEPOwnable.sol\":2090:2301  function _transferOwnership(address newOwner) internal {... */\n      pop\n      jump\t// out\n        /* \"BEP20.sol\":5068:5534  function _transfer(... */\n    tag_336:\n        /* \"BEP20.sol\":5203:5204  0 */\n      0x00\n        /* \"BEP20.sol\":5185:5205  sender != address(0) */\n      0xffffffffffffffffffffffffffffffffffffffff\n      and\n        /* \"BEP20.sol\":5185:5191  sender */\n      dup4\n        /* \"BEP20.sol\":5185:5205  sender != address(0) */\n      0xffffffffffffffffffffffffffffffffffffffff\n      and\n      eq\n      iszero\n        /* \"BEP20.sol\":5177:5247  require(sender != address(0), \"BEP20: transfer from the zero address\") */\n      tag_348\n      jumpi\n      mload(0x40)\n      0x08c379a000000000000000000000000000000000000000000000000000000000\n      dup2\n      mstore\n      0x04\n      add\n      tag_349\n      swap1\n      tag_350\n      jump\t// in\n    tag_349:\n      mload(0x40)\n      dup1\n      swap2\n      sub\n      swap1\n      revert\n    tag_348:\n        /* \"BEP20.sol\":5282:5283  0 */\n      0x00\n        /* \"BEP20.sol\":5261:5284  recipient != address(0) */\n      0xffffffffffffffffffffffffffffffffffffffff\n      and\n        /* \"BEP20.sol\":5261:5270  recipient */\n      dup3\n        /* \"BEP20.sol\":5261:5284  recipient != address(0) */\n      0xffffffffffffffffffffffffffffffffffffffff\n      and\n      eq\n      iszero\n        /* \"BEP20.sol\":5253:5324  require(recipient != address(0), \"BEP20: transfer to the zero address\") */\n      tag_351\n      jumpi\n      mload(0x40)\n      0x08c379a000000000000000000000000000000000000000000000000000000000\n      dup2\n      mstore\n      0x04\n      add\n      tag_352\n      swap1\n      tag_353\n      jump\t// in\n    tag_352:\n      mload(0x40)\n      dup1\n      swap2\n      sub\n      swap1\n      revert\n    tag_351:\n        /* \"BEP20.sol\":5351:5422  _balances[sender].sub(amount, \"BEP20: transfer amount exceeds balance\") */\n      tag_354\n        /* \"BEP20.sol\":5373:5379  amount */\n      dup2\n        /* \"BEP20.sol\":5351:5422  _balances[sender].sub(amount, \"BEP20: transfer amount exceeds balance\") */\n      mload(0x40)\n      dup1\n      0x60\n      add\n      0x40\n      mstore\n      dup1\n      0x26\n      dup2\n      mstore\n      0x20\n      add\n      data_a91efd7a65ef5b4ae4d6568d674798b78a5a89184dd296c100513251c22d3e73\n      0x26\n      swap2\n      codecopy\n        /* \"BEP20.sol\":5351:5360  _balances */\n      0x03\n        /* \"BEP20.sol\":5351:5368  _balances[sender] */\n      0x00\n        /* \"BEP20.sol\":5361:5367  sender */\n      dup8\n        /* \"BEP20.sol\":5351:5368  _balances[sender] */\n      0xffffffffffffffffffffffffffffffffffffffff\n      and\n      0xffffffffffffffffffffffffffffffffffffffff\n      and\n      dup2\n      mstore\n      0x20\n      add\n      swap1\n      dup2\n      mstore\n      0x20\n      add\n      0x00\n      keccak256\n      sload\n        /* \"BEP20.sol\":5351:5372  _balances[sender].sub */\n      tag_198\n      swap1\n        /* \"BEP20.sol\":5351:5422  _balances[sender].sub(amount, \"BEP20: transfer amount exceeds balance\") */\n      swap3\n      swap2\n      swap1\n      0xffffffff\n      and\n      jump\t// in\n    tag_354:\n        /* \"BEP20.sol\":5331:5340  _balances */\n      0x03\n        /* \"BEP20.sol\":5331:5348  _balances[sender] */\n      0x00\n        /* \"BEP20.sol\":5341:5347  sender */\n      dup6\n        /* \"BEP20.sol\":5331:5348  _balances[sender] */\n      0xffffffffffffffffffffffffffffffffffffffff\n      and\n      0xffffffffffffffffffffffffffffffffffffffff\n      and\n      dup2\n      mstore\n      0x20\n      add\n      swap1\n      dup2\n      mstore\n      0x20\n      add\n      0x00\n      keccak256\n        /* \"BEP20.sol\":5331:5422  _balances[sender] = _balances[sender].sub(amount, \"BEP20: transfer amount exceeds balance\") */\n      dup2\n      swap1\n      sstore\n      pop\n        /* \"BEP20.sol\":5451:5483  _balances[recipient].add(amount) */\n      tag_355\n        /* \"BEP20.sol\":5476:5482  amount */\n      dup2\n        /* \"BEP20.sol\":5451:5460  _balances */\n      0x03\n        /* \"BEP20.sol\":5451:5471  _balances[recipient] */\n      0x00\n        /* \"BEP20.sol\":5461:5470  recipient */\n      dup6\n        /* \"BEP20.sol\":5451:5471  _balances[recipient] */\n      0xffffffffffffffffffffffffffffffffffffffff\n      and\n      0xffffffffffffffffffffffffffffffffffffffff\n      and\n      dup2\n      mstore\n      0x20\n      add\n      swap1\n      dup2\n      mstore\n      0x20\n      add\n      0x00\n      keccak256\n      sload\n        /* \"BEP20.sol\":5451:5475  _balances[recipient].add */\n      tag_150\n      swap1\n        /* \"BEP20.sol\":5451:5483  _balances[recipient].add(amount) */\n      swap2\n      swap1\n      0xffffffff\n      and\n      jump\t// in\n    tag_355:\n        /* \"BEP20.sol\":5428:5437  _balances */\n      0x03\n        /* \"BEP20.sol\":5428:5448  _balances[recipient] */\n      0x00\n        /* \"BEP20.sol\":5438:5447  recipient */\n      dup5\n        /* \"BEP20.sol\":5428:5448  _balances[recipient] */\n      0xffffffffffffffffffffffffffffffffffffffff\n      and\n      0xffffffffffffffffffffffffffffffffffffffff\n      and\n      dup2\n      mstore\n      0x20\n      add\n      swap1\n      dup2\n      mstore\n      0x20\n      add\n      0x00\n      keccak256\n        /* \"BEP20.sol\":5428:5483  _balances[recipient] = _balances[recipient].add(amount) */\n      dup2\n      swap1\n      sstore\n      pop\n        /* \"BEP20.sol\":5511:5520  recipient */\n      dup2\n        /* \"BEP20.sol\":5494:5529  Transfer(sender, recipient, amount) */\n      0xffffffffffffffffffffffffffffffffffffffff\n      and\n        /* \"BEP20.sol\":5503:5509  sender */\n      dup4\n        /* \"BEP20.sol\":5494:5529  Transfer(sender, recipient, amount) */\n      0xffffffffffffffffffffffffffffffffffffffff\n      and\n      0xddf252ad1be2c89b69c2b068fc378daa952ba7f163c4a11628f55a4df523b3ef\n        /* \"BEP20.sol\":5522:5528  amount */\n      dup4\n        /* \"BEP20.sol\":5494:5529  Transfer(sender, recipient, amount) */\n      mload(0x40)\n      tag_356\n      swap2\n      swap1\n      tag_69\n      jump\t// in\n    tag_356:\n      mload(0x40)\n      dup1\n      swap2\n      sub\n      swap1\n      log3\n        /* \"BEP20.sol\":5068:5534  function _transfer(... */\n      pop\n      pop\n      pop\n      jump\t// out\n        /* \"#utility.yul\":7:146   */\n    tag_358:\n        /* \"#utility.yul\":53:58   */\n      0x00\n        /* \"#utility.yul\":91:97   */\n      dup2\n        /* \"#utility.yul\":78:98   */\n      calldataload\n        /* \"#utility.yul\":69:98   */\n      swap1\n      pop\n        /* \"#utility.yul\":107:140   */\n      tag_360\n        /* \"#utility.yul\":134:139   */\n      dup2\n        /* \"#utility.yul\":107:140   */\n      tag_361\n      jump\t// in\n    tag_360:\n        /* \"#utility.yul\":7:146   */\n      swap3\n      swap2\n      pop\n      pop\n      jump\t// out\n        /* \"#utility.yul\":152:285   */\n    tag_362:\n        /* \"#utility.yul\":195:200   */\n      0x00\n        /* \"#utility.yul\":233:239   */\n      dup2\n        /* \"#utility.yul\":220:240   */\n      calldataload\n        /* \"#utility.yul\":211:240   */\n      swap1\n      pop\n        /* \"#utility.yul\":249:279   */\n      tag_364\n        /* \"#utility.yul\":273:278   */\n      dup2\n        /* \"#utility.yul\":249:279   */\n      tag_365\n      jump\t// in\n    tag_364:\n        /* \"#utility.yul\":152:285   */\n      swap3\n      swap2\n      pop\n      pop\n      jump\t// out\n        /* \"#utility.yul\":291:430   */\n    tag_366:\n        /* \"#utility.yul\":337:342   */\n      0x00\n        /* \"#utility.yul\":375:381   */\n      dup2\n        /* \"#utility.yul\":362:382   */\n      calldataload\n        /* \"#utility.yul\":353:382   */\n      swap1\n      pop\n        /* \"#utility.yul\":391:424   */\n      tag_368\n        /* \"#utility.yul\":418:423   */\n      dup2\n        /* \"#utility.yul\":391:424   */\n      tag_369\n      jump\t// in\n    tag_368:\n        /* \"#utility.yul\":291:430   */\n      swap3\n      swap2\n      pop\n      pop\n      jump\t// out\n        /* \"#utility.yul\":436:571   */\n    tag_370:\n        /* \"#utility.yul\":480:485   */\n      0x00\n        /* \"#utility.yul\":518:524   */\n      dup2\n        /* \"#utility.yul\":505:525   */\n      calldataload\n        /* \"#utility.yul\":496:525   */\n      swap1\n      pop\n        /* \"#utility.yul\":534:565   */\n      tag_372\n        /* \"#utility.yul\":559:564   */\n      dup2\n        /* \"#utility.yul\":534:565   */\n      tag_373\n      jump\t// in\n    tag_372:\n        /* \"#utility.yul\":436:571   */\n      swap3\n      swap2\n      pop\n      pop\n      jump\t// out\n        /* \"#utility.yul\":577:906   */\n    tag_77:\n        /* \"#utility.yul\":636:642   */\n      0x00\n        /* \"#utility.yul\":685:687   */\n      0x20\n        /* \"#utility.yul\":673:682   */\n      dup3\n        /* \"#utility.yul\":664:671   */\n      dup5\n        /* \"#utility.yul\":660:683   */\n      sub\n        /* \"#utility.yul\":656:688   */\n      slt\n        /* \"#utility.yul\":653:772   */\n      iszero\n      tag_375\n      jumpi\n        /* \"#utility.yul\":691:770   */\n      tag_376\n      tag_377\n      jump\t// in\n    tag_376:\n        /* \"#utility.yul\":653:772   */\n    tag_375:\n        /* \"#utility.yul\":811:812   */\n      0x00\n        /* \"#utility.yul\":836:889   */\n      tag_378\n        /* \"#utility.yul\":881:888   */\n      dup5\n        /* \"#utility.yul\":872:878   */\n      dup3\n        /* \"#utility.yul\":861:870   */\n      dup6\n        /* \"#utility.yul\":857:879   */\n      add\n        /* \"#utility.yul\":836:889   */\n      tag_358\n      jump\t// in\n    tag_378:\n        /* \"#utility.yul\":826:889   */\n      swap2\n      pop\n        /* \"#utility.yul\":782:899   */\n      pop\n        /* \"#utility.yul\":577:906   */\n      swap3\n      swap2\n      pop\n      pop\n      jump\t// out\n        /* \"#utility.yul\":912:1386   */\n    tag_141:\n        /* \"#utility.yul\":980:986   */\n      0x00\n        /* \"#utility.yul\":988:994   */\n      dup1\n        /* \"#utility.yul\":1037:1039   */\n      0x40\n        /* \"#utility.yul\":1025:1034   */\n      dup4\n        /* \"#utility.yul\":1016:1023   */\n      dup6\n        /* \"#utility.yul\":1012:1035   */\n      sub\n        /* \"#utility.yul\":1008:1040   */\n      slt\n        /* \"#utility.yul\":1005:1124   */\n      iszero\n      tag_380\n      jumpi\n        /* \"#utility.yul\":1043:1122   */\n      tag_381\n      tag_377\n      jump\t// in\n    tag_381:\n        /* \"#utility.yul\":1005:1124   */\n    tag_380:\n        /* \"#utility.yul\":1163:1164   */\n      0x00\n        /* \"#utility.yul\":1188:1241   */\n      tag_382\n        /* \"#utility.yul\":1233:1240   */\n      dup6\n        /* \"#utility.yul\":1224:1230   */\n      dup3\n        /* \"#utility.yul\":1213:1222   */\n      dup7\n        /* \"#utility.yul\":1209:1231   */\n      add\n        /* \"#utility.yul\":1188:1241   */\n      tag_358\n      jump\t// in\n    tag_382:\n        /* \"#utility.yul\":1178:1241   */\n      swap3\n      pop\n        /* \"#utility.yul\":1134:1251   */\n      pop\n        /* \"#utility.yul\":1290:1292   */\n      0x20\n        /* \"#utility.yul\":1316:1369   */\n      tag_383\n        /* \"#utility.yul\":1361:1368   */\n      dup6\n        /* \"#utility.yul\":1352:1358   */\n      dup3\n        /* \"#utility.yul\":1341:1350   */\n      dup7\n        /* \"#utility.yul\":1337:1359   */\n      add\n        /* \"#utility.yul\":1316:1369   */\n      tag_358\n      jump\t// in\n    tag_383:\n        /* \"#utility.yul\":1306:1369   */\n      swap2\n      pop\n        /* \"#utility.yul\":1261:1379   */\n      pop\n        /* \"#utility.yul\":912:1386   */\n      swap3\n      pop\n      swap3\n      swap1\n      pop\n      jump\t// out\n        /* \"#utility.yul\":1392:2011   */\n    tag_72:\n        /* \"#utility.yul\":1469:1475   */\n      0x00\n        /* \"#utility.yul\":1477:1483   */\n      dup1\n        /* \"#utility.yul\":1485:1491   */\n      0x00\n        /* \"#utility.yul\":1534:1536   */\n      0x60\n        /* \"#utility.yul\":1522:1531   */\n      dup5\n        /* \"#utility.yul\":1513:1520   */\n      dup7\n        /* \"#utility.yul\":1509:1532   */\n      sub\n        /* \"#utility.yul\":1505:1537   */\n      slt\n        /* \"#utility.yul\":1502:1621   */\n      iszero\n      tag_385\n      jumpi\n        /* \"#utility.yul\":1540:1619   */\n      tag_386\n      tag_377\n      jump\t// in\n    tag_386:\n        /* \"#utility.yul\":1502:1621   */\n    tag_385:\n        /* \"#utility.yul\":1660:1661   */\n      0x00\n        /* \"#utility.yul\":1685:1738   */\n      tag_387\n        /* \"#utility.yul\":1730:1737   */\n      dup7\n        /* \"#utility.yul\":1721:1727   */\n      dup3\n        /* \"#utility.yul\":1710:1719   */\n      dup8\n        /* \"#utility.yul\":1706:1728   */\n      add\n        /* \"#utility.yul\":1685:1738   */\n      tag_358\n      jump\t// in\n    tag_387:\n        /* \"#utility.yul\":1675:1738   */\n      swap4\n      pop\n        /* \"#utility.yul\":1631:1748   */\n      pop\n        /* \"#utility.yul\":1787:1789   */\n      0x20\n        /* \"#utility.yul\":1813:1866   */\n      tag_388\n        /* \"#utility.yul\":1858:1865   */\n      dup7\n        /* \"#utility.yul\":1849:1855   */\n      dup3\n        /* \"#utility.yul\":1838:1847   */\n      dup8\n        /* \"#utility.yul\":1834:1856   */\n      add\n        /* \"#utility.yul\":1813:1866   */\n      tag_358\n      jump\t// in\n    tag_388:\n        /* \"#utility.yul\":1803:1866   */\n      swap3\n      pop\n        /* \"#utility.yul\":1758:1876   */\n      pop\n        /* \"#utility.yul\":1915:1917   */\n      0x40\n        /* \"#utility.yul\":1941:1994   */\n      tag_389\n        /* \"#utility.yul\":1986:1993   */\n      dup7\n        /* \"#utility.yul\":1977:1983   */\n      dup3\n        /* \"#utility.yul\":1966:1975   */\n      dup8\n        /* \"#utility.yul\":1962:1984   */\n      add\n        /* \"#utility.yul\":1941:1994   */\n      tag_366\n      jump\t// in\n    tag_389:\n        /* \"#utility.yul\":1931:1994   */\n      swap2\n      pop\n        /* \"#utility.yul\":1886:2004   */\n      pop\n        /* \"#utility.yul\":1392:2011   */\n      swap3\n      pop\n      swap3\n      pop\n      swap3\n      jump\t// out\n        /* \"#utility.yul\":2017:2485   */\n    tag_60:\n        /* \"#utility.yul\":2082:2088   */\n      0x00\n        /* \"#utility.yul\":2090:2096   */\n      dup1\n        /* \"#utility.yul\":2139:2141   */\n      0x40\n        /* \"#utility.yul\":2127:2136   */\n      dup4\n        /* \"#utility.yul\":2118:2125   */\n      dup6\n        /* \"#utility.yul\":2114:2137   */\n      sub\n        /* \"#utility.yul\":2110:2142   */\n      slt\n        /* \"#utility.yul\":2107:2226   */\n      iszero\n      tag_391\n      jumpi\n        /* \"#utility.yul\":2145:2224   */\n      tag_392\n      tag_377\n      jump\t// in\n    tag_392:\n        /* \"#utility.yul\":2107:2226   */\n    tag_391:\n        /* \"#utility.yul\":2265:2266   */\n      0x00\n        /* \"#utility.yul\":2290:2343   */\n      tag_393\n        /* \"#utility.yul\":2335:2342   */\n      dup6\n        /* \"#utility.yul\":2326:2332   */\n      dup3\n        /* \"#utility.yul\":2315:2324   */\n      dup7\n        /* \"#utility.yul\":2311:2333   */\n      add\n        /* \"#utility.yul\":2290:2343   */\n      tag_358\n      jump\t// in\n    tag_393:\n        /* \"#utility.yul\":2280:2343   */\n      swap3\n      pop\n        /* \"#utility.yul\":2236:2353   */\n      pop\n        /* \"#utility.yul\":2392:2394   */\n      0x20\n        /* \"#utility.yul\":2418:2468   */\n      tag_394\n        /* \"#utility.yul\":2460:2467   */\n      dup6\n        /* \"#utility.yul\":2451:2457   */\n      dup3\n        /* \"#utility.yul\":2440:2449   */\n      dup7\n        /* \"#utility.yul\":2436:2458   */\n      add\n        /* \"#utility.yul\":2418:2468   */\n      tag_362\n      jump\t// in\n    tag_394:\n        /* \"#utility.yul\":2408:2468   */\n      swap2\n      pop\n        /* \"#utility.yul\":2363:2478   */\n      pop\n        /* \"#utility.yul\":2017:2485   */\n      swap3\n      pop\n      swap3\n      swap1\n      pop\n      jump\t// out\n        /* \"#utility.yul\":2491:2965   */\n    tag_46:\n        /* \"#utility.yul\":2559:2565   */\n      0x00\n        /* \"#utility.yul\":2567:2573   */\n      dup1\n        /* \"#utility.yul\":2616:2618   */\n      0x40\n        /* \"#utility.yul\":2604:2613   */\n      dup4\n        /* \"#utility.yul\":2595:2602   */\n      dup6\n        /* \"#utility.yul\":2591:2614   */\n      sub\n        /* \"#utility.yul\":2587:2619   */\n      slt\n        /* \"#utility.yul\":2584:2703   */\n      iszero\n      tag_396\n      jumpi\n        /* \"#utility.yul\":2622:2701   */\n      tag_397\n      tag_377\n      jump\t// in\n    tag_397:\n        /* \"#utility.yul\":2584:2703   */\n    tag_396:\n        /* \"#utility.yul\":2742:2743   */\n      0x00\n        /* \"#utility.yul\":2767:2820   */\n      tag_398\n        /* \"#utility.yul\":2812:2819   */\n      dup6\n        /* \"#utility.yul\":2803:2809   */\n      dup3\n        /* \"#utility.yul\":2792:2801   */\n      dup7\n        /* \"#utility.yul\":2788:2810   */\n      add\n        /* \"#utility.yul\":2767:2820   */\n      tag_358\n      jump\t// in\n    tag_398:\n        /* \"#utility.yul\":2757:2820   */\n      swap3\n      pop\n        /* \"#utility.yul\":2713:2830   */\n      pop\n        /* \"#utility.yul\":2869:2871   */\n      0x20\n        /* \"#utility.yul\":2895:2948   */\n      tag_399\n        /* \"#utility.yul\":2940:2947   */\n      dup6\n        /* \"#utility.yul\":2931:2937   */\n      dup3\n        /* \"#utility.yul\":2920:2929   */\n      dup7\n        /* \"#utility.yul\":2916:2938   */\n      add\n        /* \"#utility.yul\":2895:2948   */\n      tag_366\n      jump\t// in\n    tag_399:\n        /* \"#utility.yul\":2885:2948   */\n      swap2\n      pop\n        /* \"#utility.yul\":2840:2958   */\n      pop\n        /* \"#utility.yul\":2491:2965   */\n      swap3\n      pop\n      swap3\n      swap1\n      pop\n      jump\t// out\n        /* \"#utility.yul\":2971:3300   */\n    tag_131:\n        /* \"#utility.yul\":3030:3036   */\n      0x00\n        /* \"#utility.yul\":3079:3081   */\n      0x20\n        /* \"#utility.yul\":3067:3076   */\n      dup3\n        /* \"#utility.yul\":3058:3065   */\n      dup5\n        /* \"#utility.yul\":3054:3077   */\n      sub\n        /* \"#utility.yul\":3050:3082   */\n      slt\n        /* \"#utility.yul\":3047:3166   */\n      iszero\n      tag_401\n      jumpi\n        /* \"#utility.yul\":3085:3164   */\n      tag_402\n      tag_377\n      jump\t// in\n    tag_402:\n        /* \"#utility.yul\":3047:3166   */\n    tag_401:\n        /* \"#utility.yul\":3205:3206   */\n      0x00\n        /* \"#utility.yul\":3230:3283   */\n      tag_403\n        /* \"#utility.yul\":3275:3282   */\n      dup5\n        /* \"#utility.yul\":3266:3272   */\n      dup3\n        /* \"#utility.yul\":3255:3264   */\n      dup6\n        /* \"#utility.yul\":3251:3273   */\n      add\n        /* \"#utility.yul\":3230:3283   */\n      tag_366\n      jump\t// in\n    tag_403:\n        /* \"#utility.yul\":3220:3283   */\n      swap2\n      pop\n        /* \"#utility.yul\":3176:3293   */\n      pop\n        /* \"#utility.yul\":2971:3300   */\n      swap3\n      swap2\n      pop\n      pop\n      jump\t// out\n        /* \"#utility.yul\":3306:3631   */\n    tag_64:\n        /* \"#utility.yul\":3363:3369   */\n      0x00\n        /* \"#utility.yul\":3412:3414   */\n      0x20\n        /* \"#utility.yul\":3400:3409   */\n      dup3\n        /* \"#utility.yul\":3391:3398   */\n      dup5\n        /* \"#utility.yul\":3387:3410   */\n      sub\n        /* \"#utility.yul\":3383:3415   */\n      slt\n        /* \"#utility.yul\":3380:3499   */\n      iszero\n      tag_405\n      jumpi\n        /* \"#utility.yul\":3418:3497   */\n      tag_406\n      tag_377\n      jump\t// in\n    tag_406:\n        /* \"#utility.yul\":3380:3499   */\n    tag_405:\n        /* \"#utility.yul\":3538:3539   */\n      0x00\n        /* \"#utility.yul\":3563:3614   */\n      tag_407\n        /* \"#utility.yul\":3606:3613   */\n      dup5\n        /* \"#utility.yul\":3597:3603   */\n      dup3\n        /* \"#utility.yul\":3586:3595   */\n      dup6\n        /* \"#utility.yul\":3582:3604   */\n      add\n        /* \"#utility.yul\":3563:3614   */\n      tag_370\n      jump\t// in\n    tag_407:\n        /* \"#utility.yul\":3553:3614   */\n      swap2\n      pop\n        /* \"#utility.yul\":3509:3624   */\n      pop\n        /* \"#utility.yul\":3306:3631   */\n      swap3\n      swap2\n      pop\n      pop\n      jump\t// out\n        /* \"#utility.yul\":3637:4244   */\n    tag_56:\n        /* \"#utility.yul\":3708:3714   */\n      0x00\n        /* \"#utility.yul\":3716:3722   */\n      dup1\n        /* \"#utility.yul\":3724:3730   */\n      0x00\n        /* \"#utility.yul\":3773:3775   */\n      0x60\n        /* \"#utility.yul\":3761:3770   */\n      dup5\n        /* \"#utility.yul\":3752:3759   */\n      dup7\n        /* \"#utility.yul\":3748:3771   */\n      sub\n        /* \"#utility.yul\":3744:3776   */\n      slt\n        /* \"#utility.yul\":3741:3860   */\n      iszero\n      tag_409\n      jumpi\n        /* \"#utility.yul\":3779:3858   */\n      tag_410\n      tag_377\n      jump\t// in\n    tag_410:\n        /* \"#utility.yul\":3741:3860   */\n    tag_409:\n        /* \"#utility.yul\":3899:3900   */\n      0x00\n        /* \"#utility.yul\":3924:3975   */\n      tag_411\n        /* \"#utility.yul\":3967:3974   */\n      dup7\n        /* \"#utility.yul\":3958:3964   */\n      dup3\n        /* \"#utility.yul\":3947:3956   */\n      dup8\n        /* \"#utility.yul\":3943:3965   */\n      add\n        /* \"#utility.yul\":3924:3975   */\n      tag_370\n      jump\t// in\n    tag_411:\n        /* \"#utility.yul\":3914:3975   */\n      swap4\n      pop\n        /* \"#utility.yul\":3870:3985   */\n      pop\n        /* \"#utility.yul\":4024:4026   */\n      0x20\n        /* \"#utility.yul\":4050:4101   */\n      tag_412\n        /* \"#utility.yul\":4093:4100   */\n      dup7\n        /* \"#utility.yul\":4084:4090   */\n      dup3\n        /* \"#utility.yul\":4073:4082   */\n      dup8\n        /* \"#utility.yul\":4069:4091   */\n      add\n        /* \"#utility.yul\":4050:4101   */\n      tag_370\n      jump\t// in\n    tag_412:\n        /* \"#utility.yul\":4040:4101   */\n      swap3\n      pop\n        /* \"#utility.yul\":3995:4111   */\n      pop\n        /* \"#utility.yul\":4150:4152   */\n      0x40\n        /* \"#utility.yul\":4176:4227   */\n      tag_413\n        /* \"#utility.yul\":4219:4226   */\n      dup7\n        /* \"#utility.yul\":4210:4216   */\n      dup3\n        /* \"#utility.yul\":4199:4208   */\n      dup8\n        /* \"#utility.yul\":4195:4217   */\n      add\n        /* \"#utility.yul\":4176:4227   */\n      tag_370\n      jump\t// in\n    tag_413:\n        /* \"#utility.yul\":4166:4227   */\n      swap2\n      pop\n        /* \"#utility.yul\":4121:4237   */\n      pop\n        /* \"#utility.yul\":3637:4244   */\n      swap3\n      pop\n      swap3\n      pop\n      swap3\n      jump\t// out\n        /* \"#utility.yul\":4250:4368   */\n    tag_414:\n        /* \"#utility.yul\":4337:4361   */\n      tag_416\n        /* \"#utility.yul\":4355:4360   */\n      dup2\n        /* \"#utility.yul\":4337:4361   */\n      tag_417\n      jump\t// in\n    tag_416:\n        /* \"#utility.yul\":4332:4335   */\n      dup3\n        /* \"#utility.yul\":4325:4362   */\n      mstore\n        /* \"#utility.yul\":4250:4368   */\n      pop\n      pop\n      jump\t// out\n        /* \"#utility.yul\":4374:4483   */\n    tag_418:\n        /* \"#utility.yul\":4455:4476   */\n      tag_420\n        /* \"#utility.yul\":4470:4475   */\n      dup2\n        /* \"#utility.yul\":4455:4476   */\n      tag_421\n      jump\t// in\n    tag_420:\n        /* \"#utility.yul\":4450:4453   */\n      dup3\n        /* \"#utility.yul\":4443:4477   */\n      mstore\n        /* \"#utility.yul\":4374:4483   */\n      pop\n      pop\n      jump\t// out\n        /* \"#utility.yul\":4489:4853   */\n    tag_422:\n        /* \"#utility.yul\":4577:4580   */\n      0x00\n        /* \"#utility.yul\":4605:4644   */\n      tag_424\n        /* \"#utility.yul\":4638:4643   */\n      dup3\n        /* \"#utility.yul\":4605:4644   */\n      tag_425\n      jump\t// in\n    tag_424:\n        /* \"#utility.yul\":4660:4731   */\n      tag_426\n        /* \"#utility.yul\":4724:4730   */\n      dup2\n        /* \"#utility.yul\":4719:4722   */\n      dup6\n        /* \"#utility.yul\":4660:4731   */\n      tag_427\n      jump\t// in\n    tag_426:\n        /* \"#utility.yul\":4653:4731   */\n      swap4\n      pop\n        /* \"#utility.yul\":4740:4792   */\n      tag_428\n        /* \"#utility.yul\":4785:4791   */\n      dup2\n        /* \"#utility.yul\":4780:4783   */\n      dup6\n        /* \"#utility.yul\":4773:4777   */\n      0x20\n        /* \"#utility.yul\":4766:4771   */\n      dup7\n        /* \"#utility.yul\":4762:4778   */\n      add\n        /* \"#utility.yul\":4740:4792   */\n      tag_429\n      jump\t// in\n    tag_428:\n        /* \"#utility.yul\":4817:4846   */\n      tag_430\n        /* \"#utility.yul\":4839:4845   */\n      dup2\n        /* \"#utility.yul\":4817:4846   */\n      tag_431\n      jump\t// in\n    tag_430:\n        /* \"#utility.yul\":4812:4815   */\n      dup5\n        /* \"#utility.yul\":4808:4847   */\n      add\n        /* \"#utility.yul\":4801:4847   */\n      swap2\n      pop\n        /* \"#utility.yul\":4581:4853   */\n      pop\n        /* \"#utility.yul\":4489:4853   */\n      swap3\n      swap2\n      pop\n      pop\n      jump\t// out\n        /* \"#utility.yul\":4859:5225   */\n    tag_432:\n        /* \"#utility.yul\":5001:5004   */\n      0x00\n        /* \"#utility.yul\":5022:5089   */\n      tag_434\n        /* \"#utility.yul\":5086:5088   */\n      0x25\n        /* \"#utility.yul\":5081:5084   */\n      dup4\n        /* \"#utility.yul\":5022:5089   */\n      tag_427\n      jump\t// in\n    tag_434:\n        /* \"#utility.yul\":5015:5089   */\n      swap2\n      pop\n        /* \"#utility.yul\":5098:5191   */\n      tag_435\n        /* \"#utility.yul\":5187:5190   */\n      dup3\n        /* \"#utility.yul\":5098:5191   */\n      tag_436\n      jump\t// in\n    tag_435:\n        /* \"#utility.yul\":5216:5218   */\n      0x40\n        /* \"#utility.yul\":5211:5214   */\n      dup3\n        /* \"#utility.yul\":5207:5219   */\n      add\n        /* \"#utility.yul\":5200:5219   */\n      swap1\n      pop\n        /* \"#utility.yul\":4859:5225   */\n      swap2\n      swap1\n      pop\n      jump\t// out\n        /* \"#utility.yul\":5231:5597   */\n    tag_437:\n        /* \"#utility.yul\":5373:5376   */\n      0x00\n        /* \"#utility.yul\":5394:5461   */\n      tag_439\n        /* \"#utility.yul\":5458:5460   */\n      0x24\n        /* \"#utility.yul\":5453:5456   */\n      dup4\n        /* \"#utility.yul\":5394:5461   */\n      tag_427\n      jump\t// in\n    tag_439:\n        /* \"#utility.yul\":5387:5461   */\n      swap2\n      pop\n        /* \"#utility.yul\":5470:5563   */\n      tag_440\n        /* \"#utility.yul\":5559:5562   */\n      dup3\n        /* \"#utility.yul\":5470:5563   */\n      tag_441\n      jump\t// in\n    tag_440:\n        /* \"#utility.yul\":5588:5590   */\n      0x40\n        /* \"#utility.yul\":5583:5586   */\n      dup3\n        /* \"#utility.yul\":5579:5591   */\n      add\n        /* \"#utility.yul\":5572:5591   */\n      swap1\n      pop\n        /* \"#utility.yul\":5231:5597   */\n      swap2\n      swap1\n      pop\n      jump\t// out\n        /* \"#utility.yul\":5603:5969   */\n    tag_442:\n        /* \"#utility.yul\":5745:5748   */\n      0x00\n        /* \"#utility.yul\":5766:5833   */\n      tag_444\n        /* \"#utility.yul\":5830:5832   */\n      0x26\n        /* \"#utility.yul\":5825:5828   */\n      dup4\n        /* \"#utility.yul\":5766:5833   */\n      tag_427\n      jump\t// in\n    tag_444:\n        /* \"#utility.yul\":5759:5833   */\n      swap2\n      pop\n        /* \"#utility.yul\":5842:5935   */\n      tag_445\n        /* \"#utility.yul\":5931:5934   */\n      dup3\n        /* \"#utility.yul\":5842:5935   */\n      tag_446\n      jump\t// in\n    tag_445:\n        /* \"#utility.yul\":5960:5962   */\n      0x40\n        /* \"#utility.yul\":5955:5958   */\n      dup3\n        /* \"#utility.yul\":5951:5963   */\n      add\n        /* \"#utility.yul\":5944:5963   */\n      swap1\n      pop\n        /* \"#utility.yul\":5603:5969   */\n      swap2\n      swap1\n      pop\n      jump\t// out\n        /* \"#utility.yul\":5975:6341   */\n    tag_447:\n        /* \"#utility.yul\":6117:6120   */\n      0x00\n        /* \"#utility.yul\":6138:6205   */\n      tag_449\n        /* \"#utility.yul\":6202:6204   */\n      0x1b\n        /* \"#utility.yul\":6197:6200   */\n      dup4\n        /* \"#utility.yul\":6138:6205   */\n      tag_427\n      jump\t// in\n    tag_449:\n        /* \"#utility.yul\":6131:6205   */\n      swap2\n      pop\n        /* \"#utility.yul\":6214:6307   */\n      tag_450\n        /* \"#utility.yul\":6303:6306   */\n      dup3\n        /* \"#utility.yul\":6214:6307   */\n      tag_451\n      jump\t// in\n    tag_450:\n        /* \"#utility.yul\":6332:6334   */\n      0x20\n        /* \"#utility.yul\":6327:6330   */\n      dup3\n        /* \"#utility.yul\":6323:6335   */\n      add\n        /* \"#utility.yul\":6316:6335   */\n      swap1\n      pop\n        /* \"#utility.yul\":5975:6341   */\n      swap2\n      swap1\n      pop\n      jump\t// out\n        /* \"#utility.yul\":6347:6713   */\n    tag_452:\n        /* \"#utility.yul\":6489:6492   */\n      0x00\n        /* \"#utility.yul\":6510:6577   */\n      tag_454\n        /* \"#utility.yul\":6574:6576   */\n      0x10\n        /* \"#utility.yul\":6569:6572   */\n      dup4\n        /* \"#utility.yul\":6510:6577   */\n      tag_427\n      jump\t// in\n    tag_454:\n        /* \"#utility.yul\":6503:6577   */\n      swap2\n      pop\n        /* \"#utility.yul\":6586:6679   */\n      tag_455\n        /* \"#utility.yul\":6675:6678   */\n      dup3\n        /* \"#utility.yul\":6586:6679   */\n      tag_456\n      jump\t// in\n    tag_455:\n        /* \"#utility.yul\":6704:6706   */\n      0x20\n        /* \"#utility.yul\":6699:6702   */\n      dup3\n        /* \"#utility.yul\":6695:6707   */\n      add\n        /* \"#utility.yul\":6688:6707   */\n      swap1\n      pop\n        /* \"#utility.yul\":6347:6713   */\n      swap2\n      swap1\n      pop\n      jump\t// out\n        /* \"#utility.yul\":6719:7085   */\n    tag_457:\n        /* \"#utility.yul\":6861:6864   */\n      0x00\n        /* \"#utility.yul\":6882:6949   */\n      tag_459\n        /* \"#utility.yul\":6946:6948   */\n      0x20\n        /* \"#utility.yul\":6941:6944   */\n      dup4\n        /* \"#utility.yul\":6882:6949   */\n      tag_427\n      jump\t// in\n    tag_459:\n        /* \"#utility.yul\":6875:6949   */\n      swap2\n      pop\n        /* \"#utility.yul\":6958:7051   */\n      tag_460\n        /* \"#utility.yul\":7047:7050   */\n      dup3\n        /* \"#utility.yul\":6958:7051   */\n      tag_461\n      jump\t// in\n    tag_460:\n        /* \"#utility.yul\":7076:7078   */\n      0x20\n        /* \"#utility.yul\":7071:7074   */\n      dup3\n        /* \"#utility.yul\":7067:7079   */\n      add\n        /* \"#utility.yul\":7060:7079   */\n      swap1\n      pop\n        /* \"#utility.yul\":6719:7085   */\n      swap2\n      swap1\n      pop\n      jump\t// out\n        /* \"#utility.yul\":7091:7457   */\n    tag_462:\n        /* \"#utility.yul\":7233:7236   */\n      0x00\n        /* \"#utility.yul\":7254:7321   */\n      tag_464\n        /* \"#utility.yul\":7318:7320   */\n      0x23\n        /* \"#utility.yul\":7313:7316   */\n      dup4\n        /* \"#utility.yul\":7254:7321   */\n      tag_427\n      jump\t// in\n    tag_464:\n        /* \"#utility.yul\":7247:7321   */\n      swap2\n      pop\n        /* \"#utility.yul\":7330:7423   */\n      tag_465\n        /* \"#utility.yul\":7419:7422   */\n      dup3\n        /* \"#utility.yul\":7330:7423   */\n      tag_466\n      jump\t// in\n    tag_465:\n        /* \"#utility.yul\":7448:7450   */\n      0x40\n        /* \"#utility.yul\":7443:7446   */\n      dup3\n        /* \"#utility.yul\":7439:7451   */\n      add\n        /* \"#utility.yul\":7432:7451   */\n      swap1\n      pop\n        /* \"#utility.yul\":7091:7457   */\n      swap2\n      swap1\n      pop\n      jump\t// out\n        /* \"#utility.yul\":7463:7829   */\n    tag_467:\n        /* \"#utility.yul\":7605:7608   */\n      0x00\n        /* \"#utility.yul\":7626:7693   */\n      tag_469\n        /* \"#utility.yul\":7690:7692   */\n      0x22\n        /* \"#utility.yul\":7685:7688   */\n      dup4\n        /* \"#utility.yul\":7626:7693   */\n      tag_427\n      jump\t// in\n    tag_469:\n        /* \"#utility.yul\":7619:7693   */\n      swap2\n      pop\n        /* \"#utility.yul\":7702:7795   */\n      tag_470\n        /* \"#utility.yul\":7791:7794   */\n      dup3\n        /* \"#utility.yul\":7702:7795   */\n      tag_471\n      jump\t// in\n    tag_470:\n        /* \"#utility.yul\":7820:7822   */\n      0x40\n        /* \"#utility.yul\":7815:7818   */\n      dup3\n        /* \"#utility.yul\":7811:7823   */\n      add\n        /* \"#utility.yul\":7804:7823   */\n      swap1\n      pop\n        /* \"#utility.yul\":7463:7829   */\n      swap2\n      swap1\n      pop\n      jump\t// out\n        /* \"#utility.yul\":7835:7953   */\n    tag_472:\n        /* \"#utility.yul\":7922:7946   */\n      tag_474\n        /* \"#utility.yul\":7940:7945   */\n      dup2\n        /* \"#utility.yul\":7922:7946   */\n      tag_475\n      jump\t// in\n    tag_474:\n        /* \"#utility.yul\":7917:7920   */\n      dup3\n        /* \"#utility.yul\":7910:7947   */\n      mstore\n        /* \"#utility.yul\":7835:7953   */\n      pop\n      pop\n      jump\t// out\n        /* \"#utility.yul\":7959:8071   */\n    tag_476:\n        /* \"#utility.yul\":8042:8064   */\n      tag_478\n        /* \"#utility.yul\":8058:8063   */\n      dup2\n        /* \"#utility.yul\":8042:8064   */\n      tag_479\n      jump\t// in\n    tag_478:\n        /* \"#utility.yul\":8037:8040   */\n      dup3\n        /* \"#utility.yul\":8030:8065   */\n      mstore\n        /* \"#utility.yul\":7959:8071   */\n      pop\n      pop\n      jump\t// out\n        /* \"#utility.yul\":8077:8299   */\n    tag_53:\n        /* \"#utility.yul\":8170:8174   */\n      0x00\n        /* \"#utility.yul\":8208:8210   */\n      0x20\n        /* \"#utility.yul\":8197:8206   */\n      dup3\n        /* \"#utility.yul\":8193:8211   */\n      add\n        /* \"#utility.yul\":8185:8211   */\n      swap1\n      pop\n        /* \"#utility.yul\":8221:8292   */\n      tag_481\n        /* \"#utility.yul\":8289:8290   */\n      0x00\n        /* \"#utility.yul\":8278:8287   */\n      dup4\n        /* \"#utility.yul\":8274:8291   */\n      add\n        /* \"#utility.yul\":8265:8271   */\n      dup5\n        /* \"#utility.yul\":8221:8292   */\n      tag_414\n      jump\t// in\n    tag_481:\n        /* \"#utility.yul\":8077:8299   */\n      swap3\n      swap2\n      pop\n      pop\n      jump\t// out\n        /* \"#utility.yul\":8305:8625   */\n    tag_181:\n        /* \"#utility.yul\":8420:8424   */\n      0x00\n        /* \"#utility.yul\":8458:8460   */\n      0x40\n        /* \"#utility.yul\":8447:8456   */\n      dup3\n        /* \"#utility.yul\":8443:8461   */\n      add\n        /* \"#utility.yul\":8435:8461   */\n      swap1\n      pop\n        /* \"#utility.yul\":8471:8542   */\n      tag_483\n        /* \"#utility.yul\":8539:8540   */\n      0x00\n        /* \"#utility.yul\":8528:8537   */\n      dup4\n        /* \"#utility.yul\":8524:8541   */\n      add\n        /* \"#utility.yul\":8515:8521   */\n      dup6\n        /* \"#utility.yul\":8471:8542   */\n      tag_414\n      jump\t// in\n    tag_483:\n        /* \"#utility.yul\":8552:8618   */\n      tag_484\n        /* \"#utility.yul\":8614:8616   */\n      0x20\n        /* \"#utility.yul\":8603:8612   */\n      dup4\n        /* \"#utility.yul\":8599:8617   */\n      add\n        /* \"#utility.yul\":8590:8596   */\n      dup5\n        /* \"#utility.yul\":8552:8618   */\n      tag_418\n      jump\t// in\n    tag_484:\n        /* \"#utility.yul\":8305:8625   */\n      swap4\n      swap3\n      pop\n      pop\n      pop\n      jump\t// out\n        /* \"#utility.yul\":8631:8841   */\n    tag_49:\n        /* \"#utility.yul\":8718:8722   */\n      0x00\n        /* \"#utility.yul\":8756:8758   */\n      0x20\n        /* \"#utility.yul\":8745:8754   */\n      dup3\n        /* \"#utility.yul\":8741:8759   */\n      add\n        /* \"#utility.yul\":8733:8759   */\n      swap1\n      pop\n        /* \"#utility.yul\":8769:8834   */\n      tag_486\n        /* \"#utility.yul\":8831:8832   */\n      0x00\n        /* \"#utility.yul\":8820:8829   */\n      dup4\n        /* \"#utility.yul\":8816:8833   */\n      add\n        /* \"#utility.yul\":8807:8813   */\n      dup5\n        /* \"#utility.yul\":8769:8834   */\n      tag_418\n      jump\t// in\n    tag_486:\n        /* \"#utility.yul\":8631:8841   */\n      swap3\n      swap2\n      pop\n      pop\n      jump\t// out\n        /* \"#utility.yul\":8847:9160   */\n    tag_43:\n        /* \"#utility.yul\":8960:8964   */\n      0x00\n        /* \"#utility.yul\":8998:9000   */\n      0x20\n        /* \"#utility.yul\":8987:8996   */\n      dup3\n        /* \"#utility.yul\":8983:9001   */\n      add\n        /* \"#utility.yul\":8975:9001   */\n      swap1\n      pop\n        /* \"#utility.yul\":9047:9056   */\n      dup2\n        /* \"#utility.yul\":9041:9045   */\n      dup2\n        /* \"#utility.yul\":9037:9057   */\n      sub\n        /* \"#utility.yul\":9033:9034   */\n      0x00\n        /* \"#utility.yul\":9022:9031   */\n      dup4\n        /* \"#utility.yul\":9018:9035   */\n      add\n        /* \"#utility.yul\":9011:9058   */\n      mstore\n        /* \"#utility.yul\":9075:9153   */\n      tag_488\n        /* \"#utility.yul\":9148:9152   */\n      dup2\n        /* \"#utility.yul\":9139:9145   */\n      dup5\n        /* \"#utility.yul\":9075:9153   */\n      tag_422\n      jump\t// in\n    tag_488:\n        /* \"#utility.yul\":9067:9153   */\n      swap1\n      pop\n        /* \"#utility.yul\":8847:9160   */\n      swap3\n      swap2\n      pop\n      pop\n      jump\t// out\n        /* \"#utility.yul\":9166:9585   */\n    tag_350:\n        /* \"#utility.yul\":9332:9336   */\n      0x00\n        /* \"#utility.yul\":9370:9372   */\n      0x20\n        /* \"#utility.yul\":9359:9368   */\n      dup3\n        /* \"#utility.yul\":9355:9373   */\n      add\n        /* \"#utility.yul\":9347:9373   */\n      swap1\n      pop\n        /* \"#utility.yul\":9419:9428   */\n      dup2\n        /* \"#utility.yul\":9413:9417   */\n      dup2\n        /* \"#utility.yul\":9409:9429   */\n      sub\n        /* \"#utility.yul\":9405:9406   */\n      0x00\n        /* \"#utility.yul\":9394:9403   */\n      dup4\n        /* \"#utility.yul\":9390:9407   */\n      add\n        /* \"#utility.yul\":9383:9430   */\n      mstore\n        /* \"#utility.yul\":9447:9578   */\n      tag_490\n        /* \"#utility.yul\":9573:9577   */\n      dup2\n        /* \"#utility.yul\":9447:9578   */\n      tag_432\n      jump\t// in\n    tag_490:\n        /* \"#utility.yul\":9439:9578   */\n      swap1\n      pop\n        /* \"#utility.yul\":9166:9585   */\n      swap2\n      swap1\n      pop\n      jump\t// out\n        /* \"#utility.yul\":9591:10010   */\n    tag_300:\n        /* \"#utility.yul\":9757:9761   */\n      0x00\n        /* \"#utility.yul\":9795:9797   */\n      0x20\n        /* \"#utility.yul\":9784:9793   */\n      dup3\n        /* \"#utility.yul\":9780:9798   */\n      add\n        /* \"#utility.yul\":9772:9798   */\n      swap1\n      pop\n        /* \"#utility.yul\":9844:9853   */\n      dup2\n        /* \"#utility.yul\":9838:9842   */\n      dup2\n        /* \"#utility.yul\":9834:9854   */\n      sub\n        /* \"#utility.yul\":9830:9831   */\n      0x00\n        /* \"#utility.yul\":9819:9828   */\n      dup4\n        /* \"#utility.yul\":9815:9832   */\n      add\n        /* \"#utility.yul\":9808:9855   */\n      mstore\n        /* \"#utility.yul\":9872:10003   */\n      tag_492\n        /* \"#utility.yul\":9998:10002   */\n      dup2\n        /* \"#utility.yul\":9872:10003   */\n      tag_437\n      jump\t// in\n    tag_492:\n        /* \"#utility.yul\":9864:10003   */\n      swap1\n      pop\n        /* \"#utility.yul\":9591:10010   */\n      swap2\n      swap1\n      pop\n      jump\t// out\n        /* \"#utility.yul\":10016:10435   */\n    tag_346:\n        /* \"#utility.yul\":10182:10186   */\n      0x00\n        /* \"#utility.yul\":10220:10222   */\n      0x20\n        /* \"#utility.yul\":10209:10218   */\n      dup3\n        /* \"#utility.yul\":10205:10223   */\n      add\n        /* \"#utility.yul\":10197:10223   */\n      swap1\n      pop\n        /* \"#utility.yul\":10269:10278   */\n      dup2\n        /* \"#utility.yul\":10263:10267   */\n      dup2\n        /* \"#utility.yul\":10259:10279   */\n      sub\n        /* \"#utility.yul\":10255:10256   */\n      0x00\n        /* \"#utility.yul\":10244:10253   */\n      dup4\n        /* \"#utility.yul\":10240:10257   */\n      add\n        /* \"#utility.yul\":10233:10280   */\n      mstore\n        /* \"#utility.yul\":10297:10428   */\n      tag_494\n        /* \"#utility.yul\":10423:10427   */\n      dup2\n        /* \"#utility.yul\":10297:10428   */\n      tag_442\n      jump\t// in\n    tag_494:\n        /* \"#utility.yul\":10289:10428   */\n      swap1\n      pop\n        /* \"#utility.yul\":10016:10435   */\n      swap2\n      swap1\n      pop\n      jump\t// out\n        /* \"#utility.yul\":10441:10860   */\n    tag_295:\n        /* \"#utility.yul\":10607:10611   */\n      0x00\n        /* \"#utility.yul\":10645:10647   */\n      0x20\n        /* \"#utility.yul\":10634:10643   */\n      dup3\n        /* \"#utility.yul\":10630:10648   */\n      add\n        /* \"#utility.yul\":10622:10648   */\n      swap1\n      pop\n        /* \"#utility.yul\":10694:10703   */\n      dup2\n        /* \"#utility.yul\":10688:10692   */\n      dup2\n        /* \"#utility.yul\":10684:10704   */\n      sub\n        /* \"#utility.yul\":10680:10681   */\n      0x00\n        /* \"#utility.yul\":10669:10678   */\n      dup4\n        /* \"#utility.yul\":10665:10682   */\n      add\n        /* \"#utility.yul\":10658:10705   */\n      mstore\n        /* \"#utility.yul\":10722:10853   */\n      tag_496\n        /* \"#utility.yul\":10848:10852   */\n      dup2\n        /* \"#utility.yul\":10722:10853   */\n      tag_447\n      jump\t// in\n    tag_496:\n        /* \"#utility.yul\":10714:10853   */\n      swap1\n      pop\n        /* \"#utility.yul\":10441:10860   */\n      swap2\n      swap1\n      pop\n      jump\t// out\n        /* \"#utility.yul\":10866:11285   */\n    tag_312:\n        /* \"#utility.yul\":11032:11036   */\n      0x00\n        /* \"#utility.yul\":11070:11072   */\n      0x20\n        /* \"#utility.yul\":11059:11068   */\n      dup3\n        /* \"#utility.yul\":11055:11073   */\n      add\n        /* \"#utility.yul\":11047:11073   */\n      swap1\n      pop\n        /* \"#utility.yul\":11119:11128   */\n      dup2\n        /* \"#utility.yul\":11113:11117   */\n      dup2\n        /* \"#utility.yul\":11109:11129   */\n      sub\n        /* \"#utility.yul\":11105:11106   */\n      0x00\n        /* \"#utility.yul\":11094:11103   */\n      dup4\n        /* \"#utility.yul\":11090:11107   */\n      add\n        /* \"#utility.yul\":11083:11130   */\n      mstore\n        /* \"#utility.yul\":11147:11278   */\n      tag_498\n        /* \"#utility.yul\":11273:11277   */\n      dup2\n        /* \"#utility.yul\":11147:11278   */\n      tag_452\n      jump\t// in\n    tag_498:\n        /* \"#utility.yul\":11139:11278   */\n      swap1\n      pop\n        /* \"#utility.yul\":10866:11285   */\n      swap2\n      swap1\n      pop\n      jump\t// out\n        /* \"#utility.yul\":11291:11710   */\n    tag_169:\n        /* \"#utility.yul\":11457:11461   */\n      0x00\n        /* \"#utility.yul\":11495:11497   */\n      0x20\n        /* \"#utility.yul\":11484:11493   */\n      dup3\n        /* \"#utility.yul\":11480:11498   */\n      add\n        /* \"#utility.yul\":11472:11498   */\n      swap1\n      pop\n        /* \"#utility.yul\":11544:11553   */\n      dup2\n        /* \"#utility.yul\":11538:11542   */\n      dup2\n        /* \"#utility.yul\":11534:11554   */\n      sub\n        /* \"#utility.yul\":11530:11531   */\n      0x00\n        /* \"#utility.yul\":11519:11528   */\n      dup4\n        /* \"#utility.yul\":11515:11532   */\n      add\n        /* \"#utility.yul\":11508:11555   */\n      mstore\n        /* \"#utility.yul\":11572:11703   */\n      tag_500\n        /* \"#utility.yul\":11698:11702   */\n      dup2\n        /* \"#utility.yul\":11572:11703   */\n      tag_457\n      jump\t// in\n    tag_500:\n        /* \"#utility.yul\":11564:11703   */\n      swap1\n      pop\n        /* \"#utility.yul\":11291:11710   */\n      swap2\n      swap1\n      pop\n      jump\t// out\n        /* \"#utility.yul\":11716:12135   */\n    tag_353:\n        /* \"#utility.yul\":11882:11886   */\n      0x00\n        /* \"#utility.yul\":11920:11922   */\n      0x20\n        /* \"#utility.yul\":11909:11918   */\n      dup3\n        /* \"#utility.yul\":11905:11923   */\n      add\n        /* \"#utility.yul\":11897:11923   */\n      swap1\n      pop\n        /* \"#utility.yul\":11969:11978   */\n      dup2\n        /* \"#utility.yul\":11963:11967   */\n      dup2\n        /* \"#utility.yul\":11959:11979   */\n      sub\n        /* \"#utility.yul\":11955:11956   */\n      0x00\n        /* \"#utility.yul\":11944:11953   */\n      dup4\n        /* \"#utility.yul\":11940:11957   */\n      add\n        /* \"#utility.yul\":11933:11980   */\n      mstore\n        /* \"#utility.yul\":11997:12128   */\n      tag_502\n        /* \"#utility.yul\":12123:12127   */\n      dup2\n        /* \"#utility.yul\":11997:12128   */\n      tag_462\n      jump\t// in\n    tag_502:\n        /* \"#utility.yul\":11989:12128   */\n      swap1\n      pop\n        /* \"#utility.yul\":11716:12135   */\n      swap2\n      swap1\n      pop\n      jump\t// out\n        /* \"#utility.yul\":12141:12560   */\n    tag_303:\n        /* \"#utility.yul\":12307:12311   */\n      0x00\n        /* \"#utility.yul\":12345:12347   */\n      0x20\n        /* \"#utility.yul\":12334:12343   */\n      dup3\n        /* \"#utility.yul\":12330:12348   */\n      add\n        /* \"#utility.yul\":12322:12348   */\n      swap1\n      pop\n        /* \"#utility.yul\":12394:12403   */\n      dup2\n        /* \"#utility.yul\":12388:12392   */\n      dup2\n        /* \"#utility.yul\":12384:12404   */\n      sub\n        /* \"#utility.yul\":12380:12381   */\n      0x00\n        /* \"#utility.yul\":12369:12378   */\n      dup4\n        /* \"#utility.yul\":12365:12382   */\n      add\n        /* \"#utility.yul\":12358:12405   */\n      mstore\n        /* \"#utility.yul\":12422:12553   */\n      tag_504\n        /* \"#utility.yul\":12548:12552   */\n      dup2\n        /* \"#utility.yul\":12422:12553   */\n      tag_467\n      jump\t// in\n    tag_504:\n        /* \"#utility.yul\":12414:12553   */\n      swap1\n      pop\n        /* \"#utility.yul\":12141:12560   */\n      swap2\n      swap1\n      pop\n      jump\t// out\n        /* \"#utility.yul\":12566:12788   */\n    tag_69:\n        /* \"#utility.yul\":12659:12663   */\n      0x00\n        /* \"#utility.yul\":12697:12699   */\n      0x20\n        /* \"#utility.yul\":12686:12695   */\n      dup3\n        /* \"#utility.yul\":12682:12700   */\n      add\n        /* \"#utility.yul\":12674:12700   */\n      swap1\n      pop\n        /* \"#utility.yul\":12710:12781   */\n      tag_506\n        /* \"#utility.yul\":12778:12779   */\n      0x00\n        /* \"#utility.yul\":12767:12776   */\n      dup4\n        /* \"#utility.yul\":12763:12780   */\n      add\n        /* \"#utility.yul\":12754:12760   */\n      dup5\n        /* \"#utility.yul\":12710:12781   */\n      tag_472\n      jump\t// in\n    tag_506:\n        /* \"#utility.yul\":12566:12788   */\n      swap3\n      swap2\n      pop\n      pop\n      jump\t// out\n        /* \"#utility.yul\":12794:13008   */\n    tag_86:\n        /* \"#utility.yul\":12883:12887   */\n      0x00\n        /* \"#utility.yul\":12921:12923   */\n      0x20\n        /* \"#utility.yul\":12910:12919   */\n      dup3\n        /* \"#utility.yul\":12906:12924   */\n      add\n        /* \"#utility.yul\":12898:12924   */\n      swap1\n      pop\n        /* \"#utility.yul\":12934:13001   */\n      tag_508\n        /* \"#utility.yul\":12998:12999   */\n      0x00\n        /* \"#utility.yul\":12987:12996   */\n      dup4\n        /* \"#utility.yul\":12983:13000   */\n      add\n        /* \"#utility.yul\":12974:12980   */\n      dup5\n        /* \"#utility.yul\":12934:13001   */\n      tag_476\n      jump\t// in\n    tag_508:\n        /* \"#utility.yul\":12794:13008   */\n      swap3\n      swap2\n      pop\n      pop\n      jump\t// out\n        /* \"#utility.yul\":13014:13432   */\n    tag_82:\n        /* \"#utility.yul\":13151:13155   */\n      0x00\n        /* \"#utility.yul\":13189:13191   */\n      0x60\n        /* \"#utility.yul\":13178:13187   */\n      dup3\n        /* \"#utility.yul\":13174:13192   */\n      add\n        /* \"#utility.yul\":13166:13192   */\n      swap1\n      pop\n        /* \"#utility.yul\":13202:13269   */\n      tag_510\n        /* \"#utility.yul\":13266:13267   */\n      0x00\n        /* \"#utility.yul\":13255:13264   */\n      dup4\n        /* \"#utility.yul\":13251:13268   */\n      add\n        /* \"#utility.yul\":13242:13248   */\n      dup7\n        /* \"#utility.yul\":13202:13269   */\n      tag_476\n      jump\t// in\n    tag_510:\n        /* \"#utility.yul\":13279:13347   */\n      tag_511\n        /* \"#utility.yul\":13343:13345   */\n      0x20\n        /* \"#utility.yul\":13332:13341   */\n      dup4\n        /* \"#utility.yul\":13328:13346   */\n      add\n        /* \"#utility.yul\":13319:13325   */\n      dup6\n        /* \"#utility.yul\":13279:13347   */\n      tag_476\n      jump\t// in\n    tag_511:\n        /* \"#utility.yul\":13357:13425   */\n      tag_512\n        /* \"#utility.yul\":13421:13423   */\n      0x40\n        /* \"#utility.yul\":13410:13419   */\n      dup4\n        /* \"#utility.yul\":13406:13424   */\n      add\n        /* \"#utility.yul\":13397:13403   */\n      dup5\n        /* \"#utility.yul\":13357:13425   */\n      tag_476\n      jump\t// in\n    tag_512:\n        /* \"#utility.yul\":13014:13432   */\n      swap5\n      swap4\n      pop\n      pop\n      pop\n      pop\n      jump\t// out\n        /* \"#utility.yul\":13519:13618   */\n    tag_425:\n        /* \"#utility.yul\":13571:13577   */\n      0x00\n        /* \"#utility.yul\":13605:13610   */\n      dup2\n        /* \"#utility.yul\":13599:13611   */\n      mload\n        /* \"#utility.yul\":13589:13611   */\n      swap1\n      pop\n        /* \"#utility.yul\":13519:13618   */\n      swap2\n      swap1\n      pop\n      jump\t// out\n        /* \"#utility.yul\":13624:13793   */\n    tag_427:\n        /* \"#utility.yul\":13708:13719   */\n      0x00\n        /* \"#utility.yul\":13742:13748   */\n      dup3\n        /* \"#utility.yul\":13737:13740   */\n      dup3\n        /* \"#utility.yul\":13730:13749   */\n      mstore\n        /* \"#utility.yul\":13782:13786   */\n      0x20\n        /* \"#utility.yul\":13777:13780   */\n      dup3\n        /* \"#utility.yul\":13773:13787   */\n      add\n        /* \"#utility.yul\":13758:13787   */\n      swap1\n      pop\n        /* \"#utility.yul\":13624:13793   */\n      swap3\n      swap2\n      pop\n      pop\n      jump\t// out\n        /* \"#utility.yul\":13799:14104   */\n    tag_292:\n        /* \"#utility.yul\":13839:13842   */\n      0x00\n        /* \"#utility.yul\":13858:13878   */\n      tag_518\n        /* \"#utility.yul\":13876:13877   */\n      dup3\n        /* \"#utility.yul\":13858:13878   */\n      tag_475\n      jump\t// in\n    tag_518:\n        /* \"#utility.yul\":13853:13878   */\n      swap2\n      pop\n        /* \"#utility.yul\":13892:13912   */\n      tag_519\n        /* \"#utility.yul\":13910:13911   */\n      dup4\n        /* \"#utility.yul\":13892:13912   */\n      tag_475\n      jump\t// in\n    tag_519:\n        /* \"#utility.yul\":13887:13912   */\n      swap3\n      pop\n        /* \"#utility.yul\":14046:14047   */\n      dup3\n        /* \"#utility.yul\":13978:14044   */\n      0xffffffffffffffffffffffffffffffffffffffffffffffffffffffffffffffff\n        /* \"#utility.yul\":13974:14048   */\n      sub\n        /* \"#utility.yul\":13971:13972   */\n      dup3\n        /* \"#utility.yul\":13968:14049   */\n      gt\n        /* \"#utility.yul\":13965:14072   */\n      iszero\n      tag_520\n      jumpi\n        /* \"#utility.yul\":14052:14070   */\n      tag_521\n      tag_522\n      jump\t// in\n    tag_521:\n        /* \"#utility.yul\":13965:14072   */\n    tag_520:\n        /* \"#utility.yul\":14096:14097   */\n      dup3\n        /* \"#utility.yul\":14093:14094   */\n      dup3\n        /* \"#utility.yul\":14089:14098   */\n      add\n        /* \"#utility.yul\":14082:14098   */\n      swap1\n      pop\n        /* \"#utility.yul\":13799:14104   */\n      swap3\n      swap2\n      pop\n      pop\n      jump\t// out\n        /* \"#utility.yul\":14110:14295   */\n    tag_317:\n        /* \"#utility.yul\":14150:14151   */\n      0x00\n        /* \"#utility.yul\":14167:14187   */\n      tag_524\n        /* \"#utility.yul\":14185:14186   */\n      dup3\n        /* \"#utility.yul\":14167:14187   */\n      tag_475\n      jump\t// in\n    tag_524:\n        /* \"#utility.yul\":14162:14187   */\n      swap2\n      pop\n        /* \"#utility.yul\":14201:14221   */\n      tag_525\n        /* \"#utility.yul\":14219:14220   */\n      dup4\n        /* \"#utility.yul\":14201:14221   */\n      tag_475\n      jump\t// in\n    tag_525:\n        /* \"#utility.yul\":14196:14221   */\n      swap3\n      pop\n        /* \"#utility.yul\":14240:14241   */\n      dup3\n        /* \"#utility.yul\":14230:14265   */\n      tag_526\n      jumpi\n        /* \"#utility.yul\":14245:14263   */\n      tag_527\n      tag_528\n      jump\t// in\n    tag_527:\n        /* \"#utility.yul\":14230:14265   */\n    tag_526:\n        /* \"#utility.yul\":14287:14288   */\n      dup3\n        /* \"#utility.yul\":14284:14285   */\n      dup3\n        /* \"#utility.yul\":14280:14289   */\n      div\n        /* \"#utility.yul\":14275:14289   */\n      swap1\n      pop\n        /* \"#utility.yul\":14110:14295   */\n      swap3\n      swap2\n      pop\n      pop\n      jump\t// out\n        /* \"#utility.yul\":14301:14649   */\n    tag_315:\n        /* \"#utility.yul\":14341:14348   */\n      0x00\n        /* \"#utility.yul\":14364:14384   */\n      tag_530\n        /* \"#utility.yul\":14382:14383   */\n      dup3\n        /* \"#utility.yul\":14364:14384   */\n      tag_475\n      jump\t// in\n    tag_530:\n        /* \"#utility.yul\":14359:14384   */\n      swap2\n      pop\n        /* \"#utility.yul\":14398:14418   */\n      tag_531\n        /* \"#utility.yul\":14416:14417   */\n      dup4\n        /* \"#utility.yul\":14398:14418   */\n      tag_475\n      jump\t// in\n    tag_531:\n        /* \"#utility.yul\":14393:14418   */\n      swap3\n      pop\n        /* \"#utility.yul\":14586:14587   */\n      dup2\n        /* \"#utility.yul\":14518:14584   */\n      0xffffffffffffffffffffffffffffffffffffffffffffffffffffffffffffffff\n        /* \"#utility.yul\":14514:14588   */\n      div\n        /* \"#utility.yul\":14511:14512   */\n      dup4\n        /* \"#utility.yul\":14508:14589   */\n      gt\n        /* \"#utility.yul\":14503:14504   */\n      dup3\n        /* \"#utility.yul\":14496:14505   */\n      iszero\n        /* \"#utility.yul\":14489:14506   */\n      iszero\n        /* \"#utility.yul\":14485:14590   */\n      and\n        /* \"#utility.yul\":14482:14613   */\n      iszero\n      tag_532\n      jumpi\n        /* \"#utility.yul\":14593:14611   */\n      tag_533\n      tag_522\n      jump\t// in\n    tag_533:\n        /* \"#utility.yul\":14482:14613   */\n    tag_532:\n        /* \"#utility.yul\":14641:14642   */\n      dup3\n        /* \"#utility.yul\":14638:14639   */\n      dup3\n        /* \"#utility.yul\":14634:14643   */\n      mul\n        /* \"#utility.yul\":14623:14643   */\n      swap1\n      pop\n        /* \"#utility.yul\":14301:14649   */\n      swap3\n      swap2\n      pop\n      pop\n      jump\t// out\n        /* \"#utility.yul\":14655:14846   */\n    tag_323:\n        /* \"#utility.yul\":14695:14699   */\n      0x00\n        /* \"#utility.yul\":14715:14735   */\n      tag_535\n        /* \"#utility.yul\":14733:14734   */\n      dup3\n        /* \"#utility.yul\":14715:14735   */\n      tag_475\n      jump\t// in\n    tag_535:\n        /* \"#utility.yul\":14710:14735   */\n      swap2\n      pop\n        /* \"#utility.yul\":14749:14769   */\n      tag_536\n        /* \"#utility.yul\":14767:14768   */\n      dup4\n        /* \"#utility.yul\":14749:14769   */\n      tag_475\n      jump\t// in\n    tag_536:\n        /* \"#utility.yul\":14744:14769   */\n      swap3\n      pop\n        /* \"#utility.yul\":14788:14789   */\n      dup3\n        /* \"#utility.yul\":14785:14786   */\n      dup3\n        /* \"#utility.yul\":14782:14790   */\n      lt\n        /* \"#utility.yul\":14779:14813   */\n      iszero\n      tag_537\n      jumpi\n        /* \"#utility.yul\":14793:14811   */\n      tag_538\n      tag_522\n      jump\t// in\n    tag_538:\n        /* \"#utility.yul\":14779:14813   */\n    tag_537:\n        /* \"#utility.yul\":14838:14839   */\n      dup3\n        /* \"#utility.yul\":14835:14836   */\n      dup3\n        /* \"#utility.yul\":14831:14840   */\n      sub\n        /* \"#utility.yul\":14823:14840   */\n      swap1\n      pop\n        /* \"#utility.yul\":14655:14846   */\n      swap3\n      swap2\n      pop\n      pop\n      jump\t// out\n        /* \"#utility.yul\":14852:14948   */\n    tag_417:\n        /* \"#utility.yul\":14889:14896   */\n      0x00\n        /* \"#utility.yul\":14918:14942   */\n      tag_540\n        /* \"#utility.yul\":14936:14941   */\n      dup3\n        /* \"#utility.yul\":14918:14942   */\n      tag_541\n      jump\t// in\n    tag_540:\n        /* \"#utility.yul\":14907:14942   */\n      swap1\n      pop\n        /* \"#utility.yul\":14852:14948   */\n      swap2\n      swap1\n      pop\n      jump\t// out\n        /* \"#utility.yul\":14954:15044   */\n    tag_421:\n        /* \"#utility.yul\":14988:14995   */\n      0x00\n        /* \"#utility.yul\":15031:15036   */\n      dup2\n        /* \"#utility.yul\":15024:15037   */\n      iszero\n        /* \"#utility.yul\":15017:15038   */\n      iszero\n        /* \"#utility.yul\":15006:15038   */\n      swap1\n      pop\n        /* \"#utility.yul\":14954:15044   */\n      swap2\n      swap1\n      pop\n      jump\t// out\n        /* \"#utility.yul\":15050:15176   */\n    tag_541:\n        /* \"#utility.yul\":15087:15094   */\n      0x00\n        /* \"#utility.yul\":15127:15169   */\n      0xffffffffffffffffffffffffffffffffffffffff\n        /* \"#utility.yul\":15120:15125   */\n      dup3\n        /* \"#utility.yul\":15116:15170   */\n      and\n        /* \"#utility.yul\":15105:15170   */\n      swap1\n      pop\n        /* \"#utility.yul\":15050:15176   */\n      swap2\n      swap1\n      pop\n      jump\t// out\n        /* \"#utility.yul\":15182:15259   */\n    tag_475:\n        /* \"#utility.yul\":15219:15226   */\n      0x00\n        /* \"#utility.yul\":15248:15253   */\n      dup2\n        /* \"#utility.yul\":15237:15253   */\n      swap1\n      pop\n        /* \"#utility.yul\":15182:15259   */\n      swap2\n      swap1\n      pop\n      jump\t// out\n        /* \"#utility.yul\":15265:15351   */\n    tag_479:\n        /* \"#utility.yul\":15300:15307   */\n      0x00\n        /* \"#utility.yul\":15340:15344   */\n      0xff\n        /* \"#utility.yul\":15333:15338   */\n      dup3\n        /* \"#utility.yul\":15329:15345   */\n      and\n        /* \"#utility.yul\":15318:15345   */\n      swap1\n      pop\n        /* \"#utility.yul\":15265:15351   */\n      swap2\n      swap1\n      pop\n      jump\t// out\n        /* \"#utility.yul\":15357:15664   */\n    tag_429:\n        /* \"#utility.yul\":15425:15426   */\n      0x00\n        /* \"#utility.yul\":15435:15548   */\n    tag_547:\n        /* \"#utility.yul\":15449:15455   */\n      dup4\n        /* \"#utility.yul\":15446:15447   */\n      dup2\n        /* \"#utility.yul\":15443:15456   */\n      lt\n        /* \"#utility.yul\":15435:15548   */\n      iszero\n      tag_549\n      jumpi\n        /* \"#utility.yul\":15534:15535   */\n      dup1\n        /* \"#utility.yul\":15529:15532   */\n      dup3\n        /* \"#utility.yul\":15525:15536   */\n      add\n        /* \"#utility.yul\":15519:15537   */\n      mload\n        /* \"#utility.yul\":15515:15516   */\n      dup2\n        /* \"#utility.yul\":15510:15513   */\n      dup5\n        /* \"#utility.yul\":15506:15517   */\n      add\n        /* \"#utility.yul\":15499:15538   */\n      mstore\n        /* \"#utility.yul\":15471:15473   */\n      0x20\n        /* \"#utility.yul\":15468:15469   */\n      dup2\n        /* \"#utility.yul\":15464:15474   */\n      add\n        /* \"#utility.yul\":15459:15474   */\n      swap1\n      pop\n        /* \"#utility.yul\":15435:15548   */\n      jump(tag_547)\n    tag_549:\n        /* \"#utility.yul\":15566:15572   */\n      dup4\n        /* \"#utility.yul\":15563:15564   */\n      dup2\n        /* \"#utility.yul\":15560:15573   */\n      gt\n        /* \"#utility.yul\":15557:15658   */\n      iszero\n      tag_550\n      jumpi\n        /* \"#utility.yul\":15646:15647   */\n      0x00\n        /* \"#utility.yul\":15637:15643   */\n      dup5\n        /* \"#utility.yul\":15632:15635   */\n      dup5\n        /* \"#utility.yul\":15628:15644   */\n      add\n        /* \"#utility.yul\":15621:15648   */\n      mstore\n        /* \"#utility.yul\":15557:15658   */\n    tag_550:\n        /* \"#utility.yul\":15406:15664   */\n      pop\n        /* \"#utility.yul\":15357:15664   */\n      pop\n      pop\n      pop\n      jump\t// out\n        /* \"#utility.yul\":15670:15990   */\n    tag_153:\n        /* \"#utility.yul\":15714:15720   */\n      0x00\n        /* \"#utility.yul\":15751:15752   */\n      0x02\n        /* \"#utility.yul\":15745:15749   */\n      dup3\n        /* \"#utility.yul\":15741:15753   */\n      div\n        /* \"#utility.yul\":15731:15753   */\n      swap1\n      pop\n        /* \"#utility.yul\":15798:15799   */\n      0x01\n        /* \"#utility.yul\":15792:15796   */\n      dup3\n        /* \"#utility.yul\":15788:15800   */\n      and\n        /* \"#utility.yul\":15819:15837   */\n      dup1\n        /* \"#utility.yul\":15809:15890   */\n      tag_552\n      jumpi\n        /* \"#utility.yul\":15875:15879   */\n      0x7f\n        /* \"#utility.yul\":15867:15873   */\n      dup3\n        /* \"#utility.yul\":15863:15880   */\n      and\n        /* \"#utility.yul\":15853:15880   */\n      swap2\n      pop\n        /* \"#utility.yul\":15809:15890   */\n    tag_552:\n        /* \"#utility.yul\":15937:15939   */\n      0x20\n        /* \"#utility.yul\":15929:15935   */\n      dup3\n        /* \"#utility.yul\":15926:15940   */\n      lt\n        /* \"#utility.yul\":15906:15924   */\n      dup2\n        /* \"#utility.yul\":15903:15941   */\n      eq\n        /* \"#utility.yul\":15900:15984   */\n      iszero\n      tag_553\n      jumpi\n        /* \"#utility.yul\":15956:15974   */\n      tag_554\n      tag_555\n      jump\t// in\n    tag_554:\n        /* \"#utility.yul\":15900:15984   */\n    tag_553:\n        /* \"#utility.yul\":15721:15990   */\n      pop\n        /* \"#utility.yul\":15670:15990   */\n      swap2\n      swap1\n      pop\n      jump\t// out\n        /* \"#utility.yul\":15996:16176   */\n    tag_522:\n        /* \"#utility.yul\":16044:16121   */\n      0x4e487b7100000000000000000000000000000000000000000000000000000000\n        /* \"#utility.yul\":16041:16042   */\n      0x00\n        /* \"#utility.yul\":16034:16122   */\n      mstore\n        /* \"#utility.yul\":16141:16145   */\n      0x11\n        /* \"#utility.yul\":16138:16139   */\n      0x04\n        /* \"#utility.yul\":16131:16146   */\n      mstore\n        /* \"#utility.yul\":16165:16169   */\n      0x24\n        /* \"#utility.yul\":16162:16163   */\n      0x00\n        /* \"#utility.yul\":16155:16170   */\n      revert\n        /* \"#utility.yul\":16182:16362   */\n    tag_528:\n        /* \"#utility.yul\":16230:16307   */\n      0x4e487b7100000000000000000000000000000000000000000000000000000000\n        /* \"#utility.yul\":16227:16228   */\n      0x00\n        /* \"#utility.yul\":16220:16308   */\n      mstore\n        /* \"#utility.yul\":16327:16331   */\n      0x12\n        /* \"#utility.yul\":16324:16325   */\n      0x04\n        /* \"#utility.yul\":16317:16332   */\n      mstore\n        /* \"#utility.yul\":16351:16355   */\n      0x24\n        /* \"#utility.yul\":16348:16349   */\n      0x00\n        /* \"#utility.yul\":16341:16356   */\n      revert\n        /* \"#utility.yul\":16368:16548   */\n    tag_555:\n        /* \"#utility.yul\":16416:16493   */\n      0x4e487b7100000000000000000000000000000000000000000000000000000000\n        /* \"#utility.yul\":16413:16414   */\n      0x00\n        /* \"#utility.yul\":16406:16494   */\n      mstore\n        /* \"#utility.yul\":16513:16517   */\n      0x22\n        /* \"#utility.yul\":16510:16511   */\n      0x04\n        /* \"#utility.yul\":16503:16518   */\n      mstore\n        /* \"#utility.yul\":16537:16541   */\n      0x24\n        /* \"#utility.yul\":16534:16535   */\n      0x00\n        /* \"#utility.yul\":16527:16542   */\n      revert\n        /* \"#utility.yul\":16677:16794   */\n    tag_377:\n        /* \"#utility.yul\":16786:16787   */\n      0x00\n        /* \"#utility.yul\":16783:16784   */\n      dup1\n        /* \"#utility.yul\":16776:16788   */\n      revert\n        /* \"#utility.yul\":16800:16902   */\n    tag_431:\n        /* \"#utility.yul\":16841:16847   */\n      0x00\n        /* \"#utility.yul\":16892:16894   */\n      0x1f\n        /* \"#utility.yul\":16888:16895   */\n      not\n        /* \"#utility.yul\":16883:16885   */\n      0x1f\n        /* \"#utility.yul\":16876:16881   */\n      dup4\n        /* \"#utility.yul\":16872:16886   */\n      add\n        /* \"#utility.yul\":16868:16896   */\n      and\n        /* \"#utility.yul\":16858:16896   */\n      swap1\n      pop\n        /* \"#utility.yul\":16800:16902   */\n      swap2\n      swap1\n      pop\n      jump\t// out\n        /* \"#utility.yul\":16908:17132   */\n    tag_436:\n        /* \"#utility.yul\":17048:17082   */\n      0x42455032303a207472616e736665722066726f6d20746865207a65726f206164\n        /* \"#utility.yul\":17044:17045   */\n      0x00\n        /* \"#utility.yul\":17036:17042   */\n      dup3\n        /* \"#utility.yul\":17032:17046   */\n      add\n        /* \"#utility.yul\":17025:17083   */\n      mstore\n        /* \"#utility.yul\":17117:17124   */\n      0x6472657373000000000000000000000000000000000000000000000000000000\n        /* \"#utility.yul\":17112:17114   */\n      0x20\n        /* \"#utility.yul\":17104:17110   */\n      dup3\n        /* \"#utility.yul\":17100:17115   */\n      add\n        /* \"#utility.yul\":17093:17125   */\n      mstore\n        /* \"#utility.yul\":16908:17132   */\n      pop\n      jump\t// out\n        /* \"#utility.yul\":17138:17361   */\n    tag_441:\n        /* \"#utility.yul\":17278:17312   */\n      0x42455032303a20617070726f76652066726f6d20746865207a65726f20616464\n        /* \"#utility.yul\":17274:17275   */\n      0x00\n        /* \"#utility.yul\":17266:17272   */\n      dup3\n        /* \"#utility.yul\":17262:17276   */\n      add\n        /* \"#utility.yul\":17255:17313   */\n      mstore\n        /* \"#utility.yul\":17347:17353   */\n      0x7265737300000000000000000000000000000000000000000000000000000000\n        /* \"#utility.yul\":17342:17344   */\n      0x20\n        /* \"#utility.yul\":17334:17340   */\n      dup3\n        /* \"#utility.yul\":17330:17345   */\n      add\n        /* \"#utility.yul\":17323:17354   */\n      mstore\n        /* \"#utility.yul\":17138:17361   */\n      pop\n      jump\t// out\n        /* \"#utility.yul\":17367:17592   */\n    tag_446:\n        /* \"#utility.yul\":17507:17541   */\n      0x4f776e61626c653a206e6577206f776e657220697320746865207a65726f2061\n        /* \"#utility.yul\":17503:17504   */\n      0x00\n        /* \"#utility.yul\":17495:17501   */\n      dup3\n        /* \"#utility.yul\":17491:17505   */\n      add\n        /* \"#utility.yul\":17484:17542   */\n      mstore\n        /* \"#utility.yul\":17576:17584   */\n      0x6464726573730000000000000000000000000000000000000000000000000000\n        /* \"#utility.yul\":17571:17573   */\n      0x20\n        /* \"#utility.yul\":17563:17569   */\n      dup3\n        /* \"#utility.yul\":17559:17574   */\n      add\n        /* \"#utility.yul\":17552:17585   */\n      mstore\n        /* \"#utility.yul\":17367:17592   */\n      pop\n      jump\t// out\n        /* \"#utility.yul\":17598:17775   */\n    tag_451:\n        /* \"#utility.yul\":17738:17767   */\n      0x536166654d6174683a206164646974696f6e206f766572666c6f770000000000\n        /* \"#utility.yul\":17734:17735   */\n      0x00\n        /* \"#utility.yul\":17726:17732   */\n      dup3\n        /* \"#utility.yul\":17722:17736   */\n      add\n        /* \"#utility.yul\":17715:17768   */\n      mstore\n        /* \"#utility.yul\":17598:17775   */\n      pop\n      jump\t// out\n        /* \"#utility.yul\":17781:17947   */\n    tag_456:\n        /* \"#utility.yul\":17921:17939   */\n      0x5573657220626c61636b6c697374656400000000000000000000000000000000\n        /* \"#utility.yul\":17917:17918   */\n      0x00\n        /* \"#utility.yul\":17909:17915   */\n      dup3\n        /* \"#utility.yul\":17905:17919   */\n      add\n        /* \"#utility.yul\":17898:17940   */\n      mstore\n        /* \"#utility.yul\":17781:17947   */\n      pop\n      jump\t// out\n        /* \"#utility.yul\":17953:18135   */\n    tag_461:\n        /* \"#utility.yul\":18093:18127   */\n      0x4f776e61626c653a2063616c6c6572206973206e6f7420746865206f776e6572\n        /* \"#utility.yul\":18089:18090   */\n      0x00\n        /* \"#utility.yul\":18081:18087   */\n      dup3\n        /* \"#utility.yul\":18077:18091   */\n      add\n        /* \"#utility.yul\":18070:18128   */\n      mstore\n        /* \"#utility.yul\":17953:18135   */\n      pop\n      jump\t// out\n        /* \"#utility.yul\":18141:18363   */\n    tag_466:\n        /* \"#utility.yul\":18281:18315   */\n      0x42455032303a207472616e7366657220746f20746865207a65726f2061646472\n        /* \"#utility.yul\":18277:18278   */\n      0x00\n        /* \"#utility.yul\":18269:18275   */\n      dup3\n        /* \"#utility.yul\":18265:18279   */\n      add\n        /* \"#utility.yul\":18258:18316   */\n      mstore\n        /* \"#utility.yul\":18350:18355   */\n      0x6573730000000000000000000000000000000000000000000000000000000000\n        /* \"#utility.yul\":18345:18347   */\n      0x20\n        /* \"#utility.yul\":18337:18343   */\n      dup3\n        /* \"#utility.yul\":18333:18348   */\n      add\n        /* \"#utility.yul\":18326:18356   */\n      mstore\n        /* \"#utility.yul\":18141:18363   */\n      pop\n      jump\t// out\n        /* \"#utility.yul\":18369:18590   */\n    tag_471:\n        /* \"#utility.yul\":18509:18543   */\n      0x42455032303a20617070726f766520746f20746865207a65726f206164647265\n        /* \"#utility.yul\":18505:18506   */\n      0x00\n        /* \"#utility.yul\":18497:18503   */\n      dup3\n        /* \"#utility.yul\":18493:18507   */\n      add\n        /* \"#utility.yul\":18486:18544   */\n      mstore\n        /* \"#utility.yul\":18578:18582   */\n      0x7373000000000000000000000000000000000000000000000000000000000000\n        /* \"#utility.yul\":18573:18575   */\n      0x20\n        /* \"#utility.yul\":18565:18571   */\n      dup3\n        /* \"#utility.yul\":18561:18576   */\n      add\n        /* \"#utility.yul\":18554:18583   */\n      mstore\n        /* \"#utility.yul\":18369:18590   */\n      pop\n      jump\t// out\n        /* \"#utility.yul\":18596:18718   */\n    tag_361:\n        /* \"#utility.yul\":18669:18693   */\n      tag_572\n        /* \"#utility.yul\":18687:18692   */\n      dup2\n        /* \"#utility.yul\":18669:18693   */\n      tag_417\n      jump\t// in\n    tag_572:\n        /* \"#utility.yul\":18662:18667   */\n      dup2\n        /* \"#utility.yul\":18659:18694   */\n      eq\n        /* \"#utility.yul\":18649:18712   */\n      tag_573\n      jumpi\n        /* \"#utility.yul\":18708:18709   */\n      0x00\n        /* \"#utility.yul\":18705:18706   */\n      dup1\n        /* \"#utility.yul\":18698:18710   */\n      revert\n        /* \"#utility.yul\":18649:18712   */\n    tag_573:\n        /* \"#utility.yul\":18596:18718   */\n      pop\n      jump\t// out\n        /* \"#utility.yul\":18724:18840   */\n    tag_365:\n        /* \"#utility.yul\":18794:18815   */\n      tag_575\n        /* \"#utility.yul\":18809:18814   */\n      dup2\n        /* \"#utility.yul\":18794:18815   */\n      tag_421\n      jump\t// in\n    tag_575:\n        /* \"#utility.yul\":18787:18792   */\n      dup2\n        /* \"#utility.yul\":18784:18816   */\n      eq\n        /* \"#utility.yul\":18774:18834   */\n      tag_576\n      jumpi\n        /* \"#utility.yul\":18830:18831   */\n      0x00\n        /* \"#utility.yul\":18827:18828   */\n      dup1\n        /* \"#utility.yul\":18820:18832   */\n      revert\n        /* \"#utility.yul\":18774:18834   */\n    tag_576:\n        /* \"#utility.yul\":18724:18840   */\n      pop\n      jump\t// out\n        /* \"#utility.yul\":18846:18968   */\n    tag_369:\n        /* \"#utility.yul\":18919:18943   */\n      tag_578\n        /* \"#utility.yul\":18937:18942   */\n      dup2\n        /* \"#utility.yul\":18919:18943   */\n      tag_475\n      jump\t// in\n    tag_578:\n        /* \"#utility.yul\":18912:18917   */\n      dup2\n        /* \"#utility.yul\":18909:18944   */\n      eq\n        /* \"#utility.yul\":18899:18962   */\n      tag_579\n      jumpi\n        /* \"#utility.yul\":18958:18959   */\n      0x00\n        /* \"#utility.yul\":18955:18956   */\n      dup1\n        /* \"#utility.yul\":18948:18960   */\n      revert\n        /* \"#utility.yul\":18899:18962   */\n    tag_579:\n        /* \"#utility.yul\":18846:18968   */\n      pop\n      jump\t// out\n        /* \"#utility.yul\":18974:19092   */\n    tag_373:\n        /* \"#utility.yul\":19045:19067   */\n      tag_581\n        /* \"#utility.yul\":19061:19066   */\n      dup2\n        /* \"#utility.yul\":19045:19067   */\n      tag_479\n      jump\t// in\n    tag_581:\n        /* \"#utility.yul\":19038:19043   */\n      dup2\n        /* \"#utility.yul\":19035:19068   */\n      eq\n        /* \"#utility.yul\":19025:19086   */\n      tag_582\n      jumpi\n        /* \"#utility.yul\":19082:19083   */\n      0x00\n        /* \"#utility.yul\":19079:19080   */\n      dup1\n        /* \"#utility.yul\":19072:19084   */\n      revert\n        /* \"#utility.yul\":19025:19086   */\n    tag_582:\n        /* \"#utility.yul\":18974:19092   */\n      pop\n      jump\t// out\n    stop\n    data_4f3506f4ba71c79c3cbd442a3afeb30e9b27af2d84e116a4385b34e267d2287e 42455032303a207472616e7366657220616d6f756e74206578636565647320616c6c6f77616e6365\n    data_573d1ed4a921ea442c5f19a96dadd552e53378497b3e3c5c4f92b5237f17148e 4e6f207472616e736665727320746f20636f6e747261637420616c6c6f7765642e\n    data_7efdc62e202e71ba96d2ad4e93c3fc5c67ef5ce0b8f02ccfd2d78dc68ce32fc4 4e6f20636f6e73656375746976652073656c6c7320616c6c6f7765642e20506c6561736520776169742e\n    data_a91efd7a65ef5b4ae4d6568d674798b78a5a89184dd296c100513251c22d3e73 42455032303a207472616e7366657220616d6f756e7420657863656564732062616c616e6365\n    data_b7060b3538dcd3ddc8a941c91636a8115a1aa46914747fd9809d543bbb46cd22 42455032303a2064656372656173656420616c6c6f77616e63652062656c6f77207a65726f\n\n    auxdata: 0xa2646970667358221220f4618a8d36d51bf5ce492d143e82cb6b0da7ed7340e277f48babd8e5891eecca64736f6c63430008070033\n}\n",
				"bytecode": {
					"linkReferences": {},
					"object": "60806040526000600260156101000a81548160ff0219169083151502179055506103e8600b553480156200003257600080fd5b5060405162003819380380620038198339818101604052810190620000589190620005d5565b6040518060400160405280600781526020017f5669634d6f7665000000000000000000000000000000000000000000000000008152506040518060400160405280600381526020017f56494d000000000000000000000000000000000000000000000000000000000081525060128260009080519060200190620000de929190620004a7565b508160019080519060200190620000f7929190620004a7565b5080600260006101000a81548160ff021916908360ff1602179055505050506000620001286200028860201b60201c565b905080600260016101000a81548173ffffffffffffffffffffffffffffffffffffffff021916908373ffffffffffffffffffffffffffffffffffffffff1602179055508073ffffffffffffffffffffffffffffffffffffffff16600073ffffffffffffffffffffffffffffffffffffffff167f8be0079c531659141344cd1fd0a4f28419497f9722a3daafe3b4186f6b6457e060405160405180910390a3506000620001d96200029060201b60201c565b60ff16600a620001ea919062000842565b6301312d00620001fb91906200097f565b90506200020f3382620002a760201b60201c565b6000600a60016101000a81548160ff021916908360ff1602179055506000600a60006101000a81548160ff021916908360ff1602179055506000600a60036101000a81548160ff021916908360ff160217905550600f600a60026101000a81548160ff021916908360ff16021790555050505062000b9d565b600033905090565b6000600260009054906101000a900460ff16905090565b600073ffffffffffffffffffffffffffffffffffffffff168273ffffffffffffffffffffffffffffffffffffffff1614156200031a576040517f08c379a00000000000000000000000000000000000000000000000000000000081526004016200031190620006db565b60405180910390fd5b62000336816005546200044460201b620014f31790919060201c565b6005819055506200039581600360008573ffffffffffffffffffffffffffffffffffffffff1673ffffffffffffffffffffffffffffffffffffffff168152602001908152602001600020546200044460201b620014f31790919060201c565b600360008473ffffffffffffffffffffffffffffffffffffffff1673ffffffffffffffffffffffffffffffffffffffff168152602001908152602001600020819055508173ffffffffffffffffffffffffffffffffffffffff16600073ffffffffffffffffffffffffffffffffffffffff167fddf252ad1be2c89b69c2b068fc378daa952ba7f163c4a11628f55a4df523b3ef83604051620004389190620006fd565b60405180910390a35050565b60008082846200045591906200078a565b9050838110156200049d576040517f08c379a00000000000000000000000000000000000000000000000000000000081526004016200049490620006b9565b60405180910390fd5b8091505092915050565b828054620004b59062000a20565b90600052602060002090601f016020900481019282620004d9576000855562000525565b82601f10620004f457805160ff191683800117855562000525565b8280016001018555821562000525579182015b828111156200052457825182559160200191906001019062000507565b5b50905062000534919062000538565b5090565b5b808211156200055357600081600090555060010162000539565b5090565b60006200056e620005688462000743565b6200071a565b9050828152602081018484840111156200058d576200058c62000b1e565b5b6200059a848285620009ea565b509392505050565b600082601f830112620005ba57620005b962000b19565b5b8151620005cc84826020860162000557565b91505092915050565b60008060408385031215620005ef57620005ee62000b28565b5b600083015167ffffffffffffffff81111562000610576200060f62000b23565b5b6200061e85828601620005a2565b925050602083015167ffffffffffffffff81111562000642576200064162000b23565b5b6200065085828601620005a2565b9150509250929050565b600062000669601b8362000779565b9150620006768262000b4b565b602082019050919050565b600062000690601f8362000779565b91506200069d8262000b74565b602082019050919050565b620006b381620009e0565b82525050565b60006020820190508181036000830152620006d4816200065a565b9050919050565b60006020820190508181036000830152620006f68162000681565b9050919050565b6000602082019050620007146000830184620006a8565b92915050565b60006200072662000739565b905062000734828262000a56565b919050565b6000604051905090565b600067ffffffffffffffff82111562000761576200076062000aea565b5b6200076c8262000b2d565b9050602081019050919050565b600082825260208201905092915050565b60006200079782620009e0565b9150620007a483620009e0565b9250827fffffffffffffffffffffffffffffffffffffffffffffffffffffffffffffffff03821115620007dc57620007db62000a8c565b5b828201905092915050565b6000808291508390505b6001851115620008395780860481111562000811576200081062000a8c565b5b6001851615620008215780820291505b8081029050620008318562000b3e565b9450620007f1565b94509492505050565b60006200084f82620009e0565b91506200085c83620009e0565b92506200088b7fffffffffffffffffffffffffffffffffffffffffffffffffffffffffffffffff848462000893565b905092915050565b600082620008a5576001905062000978565b81620008b5576000905062000978565b8160018114620008ce5760028114620008d9576200090f565b600191505062000978565b60ff841115620008ee57620008ed62000a8c565b5b8360020a91508482111562000908576200090762000a8c565b5b5062000978565b5060208310610133831016604e8410600b8410161715620009495782820a90508381111562000943576200094262000a8c565b5b62000978565b620009588484846001620007e7565b9250905081840481111562000972576200097162000a8c565b5b81810290505b9392505050565b60006200098c82620009e0565b91506200099983620009e0565b9250817fffffffffffffffffffffffffffffffffffffffffffffffffffffffffffffffff0483118215151615620009d557620009d462000a8c565b5b828202905092915050565b6000819050919050565b60005b8381101562000a0a578082015181840152602081019050620009ed565b8381111562000a1a576000848401525b50505050565b6000600282049050600182168062000a3957607f821691505b6020821081141562000a505762000a4f62000abb565b5b50919050565b62000a618262000b2d565b810181811067ffffffffffffffff8211171562000a835762000a8262000aea565b5b80604052505050565b7f4e487b7100000000000000000000000000000000000000000000000000000000600052601160045260246000fd5b7f4e487b7100000000000000000000000000000000000000000000000000000000600052602260045260246000fd5b7f4e487b7100000000000000000000000000000000000000000000000000000000600052604160045260246000fd5b600080fd5b600080fd5b600080fd5b600080fd5b6000601f19601f8301169050919050565b60008160011c9050919050565b7f536166654d6174683a206164646974696f6e206f766572666c6f770000000000600082015250565b7f42455032303a206d696e7420746f20746865207a65726f206164647265737300600082015250565b612c6c8062000bad6000396000f3fe608060405234801561001057600080fd5b50600436106101da5760003560e01c806370a0823111610104578063a86517bf116100a2578063cc600f9111610071578063cc600f9114610535578063dd62ed3e14610551578063f2fde38b14610581578063fb75b2c71461059d576101da565b8063a86517bf146104b1578063a9059cbb146104cd578063b5ddeb6e146104fd578063c89c58fb14610519576101da565b80638da5cb5b116100de5780638da5cb5b146104275780638f32d59b1461044557806395d89b4114610463578063a457c2d714610481576101da565b806370a08231146103cf578063715018a6146103ff5780638456cb5914610409576101da565b806323b872dd1161017c578063395093511161014b57806339509351146103475780633f4ba83a1461037757806353d6fd59146103955780635c975abb146103b1576101da565b806323b872dd146102bd5780632553dff5146102ed5780632973ef2d14610309578063313ce56714610329576101da565b80630d2cf31f116101b85780630d2cf31f1461024b578063153b0d1e146102675780631574567b1461028357806318160ddd1461029f576101da565b806306fdde03146101df578063095ea7b3146101fd57806309904c001461022d575b600080fd5b6101e76105bb565b6040516101f491906124f9565b60405180910390f35b61021760048036038101906102129190612220565b61064d565b60405161022491906124de565b60405180910390f35b610235610685565b604051610242919061249a565b60405180910390f35b610265600480360381019061026091906122ba565b6106ab565b005b610281600480360381019061027c91906121e0565b6107b3565b005b61029d6004803603810190610298919061228d565b61088e565b005b6102a761092a565b6040516102b4919061261b565b60405180910390f35b6102d760048036038101906102d2919061218d565b610934565b6040516102e491906124de565b60405180910390f35b61030760048036038101906103029190612120565b610a27565b005b610311610ab2565b60405161032093929190612651565b60405180910390f35b610331610abc565b60405161033e9190612636565b60405180910390f35b610361600480360381019061035c9190612220565b610ad3565b60405161036e91906124de565b60405180910390f35b61037f610ba0565b60405161038c91906124de565b60405180910390f35b6103af60048036038101906103aa91906121e0565b610c50565b005b6103b9610d2b565b6040516103c691906124de565b60405180910390f35b6103e960048036038101906103e49190612120565b610d3e565b6040516103f6919061261b565b60405180910390f35b610407610d87565b005b610411610e8f565b60405161041e91906124de565b60405180910390f35b61042f610f40565b60405161043c919061249a565b60405180910390f35b61044d610f6a565b60405161045a91906124de565b60405180910390f35b61046b610fc9565b60405161047891906124f9565b60405180910390f35b61049b60048036038101906104969190612220565b61105b565b6040516104a891906124de565b60405180910390f35b6104cb60048036038101906104c69190612120565b611142565b005b6104e760048036038101906104e29190612220565b611204565b6040516104f491906124de565b60405180910390f35b61051760048036038101906105129190612260565b61123c565b005b610533600480360381019061052e91906121e0565b61128d565b005b61054f600480360381019061054a9190612120565b611368565b005b61056b6004803603810190610566919061214d565b6113f3565b604051610578919061261b565b60405180910390f35b61059b60048036038101906105969190612120565b61147a565b005b6105a56114cd565b6040516105b2919061249a565b60405180910390f35b6060600080546105ca90612841565b80601f01602080910402602001604051908101604052809291908181526020018280546105f690612841565b80156106435780601f1061061857610100808354040283529160200191610643565b820191906000526020600020905b81548152906001019060200180831161062657829003601f168201915b5050505050905090565b6000600260159054906101000a900460ff161561066957600080fd5b61067b610674611551565b8484611559565b6001905092915050565b600f60009054906101000a900473ffffffffffffffffffffffffffffffffffffffff1681565b6106b3610f6a565b6106f2576040517f08c379a00000000000000000000000000000000000000000000000000000000081526004016106e9906125bb565b60405180910390fd5b60148360ff161061070257600080fd5b600a8260ff161061071257600080fd5b600a8160ff161061072257600080fd5b82600a60016101000a81548160ff021916908360ff16021790555081600a60006101000a81548160ff021916908360ff16021790555080600a60036101000a81548160ff021916908360ff1602179055507f8f649eeecb19301c91f9b511096fe7cbc4b2b67bc75bfef33ba3f2745efc386a8383836040516107a693929190612651565b60405180910390a1505050565b6107bb610f6a565b6107fa576040517f08c379a00000000000000000000000000000000000000000000000000000000081526004016107f1906125bb565b60405180910390fd5b80600660008473ffffffffffffffffffffffffffffffffffffffff1673ffffffffffffffffffffffffffffffffffffffff16815260200190815260200160002060006101000a81548160ff0219169083151502179055507ff791a94c7f3569546a71acf39c0189bd87bd7b7e3ea76ce41fd41d837cc4bbca82826040516108829291906124b5565b60405180910390a15050565b610896610f6a565b6108d5576040517f08c379a00000000000000000000000000000000000000000000000000000000081526004016108cc906125bb565b60405180910390fd5b80600a60026101000a81548160ff021916908360ff1602179055507f3dc38872c1e356f05cec7694232d10514dc69ddbdcb883f9687c4d4f7e371e018160405161091f9190612636565b60405180910390a150565b6000600554905090565b6000600260159054906101000a900460ff161561095057600080fd5b61095b848484611724565b610a1c84610967611551565b610a1785604051806060016040528060288152602001612b7960289139600460008b73ffffffffffffffffffffffffffffffffffffffff1673ffffffffffffffffffffffffffffffffffffffff16815260200190815260200160002060006109cd611551565b73ffffffffffffffffffffffffffffffffffffffff1673ffffffffffffffffffffffffffffffffffffffff16815260200190815260200160002054611caa9092919063ffffffff16565b611559565b600190509392505050565b610a2f610f6a565b610a6e576040517f08c379a0000000000000000000000000000000000000000000000000000000008152600401610a65906125bb565b60405180910390fd5b80600f60006101000a81548173ffffffffffffffffffffffffffffffffffffffff021916908373ffffffffffffffffffffffffffffffffffffffff16021790555050565b6000806000909192565b6000600260009054906101000a900460ff16905090565b6000600260159054906101000a900460ff1615610aef57600080fd5b610b96610afa611551565b84610b918560046000610b0b611551565b73ffffffffffffffffffffffffffffffffffffffff1673ffffffffffffffffffffffffffffffffffffffff16815260200190815260200160002060008973ffffffffffffffffffffffffffffffffffffffff1673ffffffffffffffffffffffffffffffffffffffff168152602001908152602001600020546114f390919063ffffffff16565b611559565b6001905092915050565b6000610baa610f6a565b610be9576040517f08c379a0000000000000000000000000000000000000000000000000000000008152600401610be0906125bb565b60405180910390fd5b600260159054906101000a900460ff16610c0257600080fd5b6000600260156101000a81548160ff0219169083151502179055507f7805862f689e2f13df9f062ff482ad3ad112aca9e0847911ed832e158c525b3360405160405180910390a16001905090565b610c58610f6a565b610c97576040517f08c379a0000000000000000000000000000000000000000000000000000000008152600401610c8e906125bb565b60405180910390fd5b80600860008473ffffffffffffffffffffffffffffffffffffffff1673ffffffffffffffffffffffffffffffffffffffff16815260200190815260200160002060006101000a81548160ff0219169083151502179055507fe41efe2ec3272dff61fc1d94fe807a61b44e66814abe5f463e98a100b9bb852c8282604051610d1f9291906124b5565b60405180910390a15050565b600260159054906101000a900460ff1681565b6000600360008373ffffffffffffffffffffffffffffffffffffffff1673ffffffffffffffffffffffffffffffffffffffff168152602001908152602001600020549050919050565b610d8f610f6a565b610dce576040517f08c379a0000000000000000000000000000000000000000000000000000000008152600401610dc5906125bb565b60405180910390fd5b600073ffffffffffffffffffffffffffffffffffffffff16600260019054906101000a900473ffffffffffffffffffffffffffffffffffffffff1673ffffffffffffffffffffffffffffffffffffffff167f8be0079c531659141344cd1fd0a4f28419497f9722a3daafe3b4186f6b6457e060405160405180910390a36000600260016101000a81548173ffffffffffffffffffffffffffffffffffffffff021916908373ffffffffffffffffffffffffffffffffffffffff160217905550565b6000610e99610f6a565b610ed8576040517f08c379a0000000000000000000000000000000000000000000000000000000008152600401610ecf906125bb565b60405180910390fd5b600260159054906101000a900460ff1615610ef257600080fd5b6001600260156101000a81548160ff0219169083151502179055507f6985a02210a168e66602d3235cb6db0e70f92b3ba4d376a33c0f3d9434bff62560405160405180910390a16001905090565b6000600260019054906101000a900473ffffffffffffffffffffffffffffffffffffffff16905090565b6000600260019054906101000a900473ffffffffffffffffffffffffffffffffffffffff1673ffffffffffffffffffffffffffffffffffffffff16610fad611551565b73ffffffffffffffffffffffffffffffffffffffff1614905090565b606060018054610fd890612841565b80601f016020809104026020016040519081016040528092919081815260200182805461100490612841565b80156110515780601f1061102657610100808354040283529160200191611051565b820191906000526020600020905b81548152906001019060200180831161103457829003601f168201915b5050505050905090565b6000600260159054906101000a900460ff161561107757600080fd5b611138611082611551565b8461113385604051806060016040528060258152602001612c1260259139600460006110ac611551565b73ffffffffffffffffffffffffffffffffffffffff1673ffffffffffffffffffffffffffffffffffffffff16815260200190815260200160002060008a73ffffffffffffffffffffffffffffffffffffffff1673ffffffffffffffffffffffffffffffffffffffff16815260200190815260200160002054611caa9092919063ffffffff16565b611559565b6001905092915050565b61114a610f6a565b611189576040517f08c379a0000000000000000000000000000000000000000000000000000000008152600401611180906125bb565b60405180910390fd5b80600d60006101000a81548173ffffffffffffffffffffffffffffffffffffffff021916908373ffffffffffffffffffffffffffffffffffffffff1602179055507ff15d5716db5d5d79f695e387fc3e7c89982c0df6f4b81a006e38cfdc850a712e816040516111f9919061249a565b60405180910390a150565b6000600260159054906101000a900460ff161561122057600080fd5b61123261122b611551565b8484611724565b6001905092915050565b611244610f6a565b611283576040517f08c379a000000000000000000000000000000000000000000000000000000000815260040161127a906125bb565b60405180910390fd5b80600b8190555050565b611295610f6a565b6112d4576040517f08c379a00000000000000000000000000000000000000000000000000000000081526004016112cb906125bb565b60405180910390fd5b80600760008473ffffffffffffffffffffffffffffffffffffffff1673ffffffffffffffffffffffffffffffffffffffff16815260200190815260200160002060006101000a81548160ff0219169083151502179055507f50d3135c1831a86bdc04740f17c94415767240d338df5795b37fb5b8272f80d7828260405161135c9291906124b5565b60405180910390a15050565b611370610f6a565b6113af576040517f08c379a00000000000000000000000000000000000000000000000000000000081526004016113a6906125bb565b60405180910390fd5b80600e60006101000a81548173ffffffffffffffffffffffffffffffffffffffff021916908373ffffffffffffffffffffffffffffffffffffffff16021790555050565b6000600460008473ffffffffffffffffffffffffffffffffffffffff1673ffffffffffffffffffffffffffffffffffffffff16815260200190815260200160002060008373ffffffffffffffffffffffffffffffffffffffff1673ffffffffffffffffffffffffffffffffffffffff16815260200190815260200160002054905092915050565b611482610f6a565b6114c1576040517f08c379a00000000000000000000000000000000000000000000000000000000081526004016114b8906125bb565b60405180910390fd5b6114ca81611d0e565b50565b600e60009054906101000a900473ffffffffffffffffffffffffffffffffffffffff1681565b600080828461150291906126a4565b905083811015611547576040517f08c379a000000000000000000000000000000000000000000000000000000000815260040161153e9061257b565b60405180910390fd5b8091505092915050565b600033905090565b600073ffffffffffffffffffffffffffffffffffffffff168373ffffffffffffffffffffffffffffffffffffffff1614156115c9576040517f08c379a00000000000000000000000000000000000000000000000000000000081526004016115c09061253b565b60405180910390fd5b600073ffffffffffffffffffffffffffffffffffffffff168273ffffffffffffffffffffffffffffffffffffffff161415611639576040517f08c379a0000000000000000000000000000000000000000000000000000000008152600401611630906125fb565b60405180910390fd5b80600460008573ffffffffffffffffffffffffffffffffffffffff1673ffffffffffffffffffffffffffffffffffffffff16815260200190815260200160002060008473ffffffffffffffffffffffffffffffffffffffff1673ffffffffffffffffffffffffffffffffffffffff168152602001908152602001600020819055508173ffffffffffffffffffffffffffffffffffffffff168373ffffffffffffffffffffffffffffffffffffffff167f8c5be1e5ebec7d5bd14f71427d1e84f3dd0314c0f7b2291e5b200ac8c7c3b92583604051611717919061261b565b60405180910390a3505050565b3073ffffffffffffffffffffffffffffffffffffffff168273ffffffffffffffffffffffffffffffffffffffff161415604051806060016040528060218152602001612ba160219139906117ae576040517f08c379a00000000000000000000000000000000000000000000000000000000081526004016117a591906124f9565b60405180910390fd5b50600e60009054906101000a900473ffffffffffffffffffffffffffffffffffffffff1673ffffffffffffffffffffffffffffffffffffffff168373ffffffffffffffffffffffffffffffffffffffff16141561181557600b5481111561181457600080fd5b5b600660008473ffffffffffffffffffffffffffffffffffffffff1673ffffffffffffffffffffffffffffffffffffffff16815260200190815260200160002060009054906101000a900460ff16156118a2576040517f08c379a00000000000000000000000000000000000000000000000000000000081526004016118999061259b565b60405180910390fd5b60011515600760008573ffffffffffffffffffffffffffffffffffffffff1673ffffffffffffffffffffffffffffffffffffffff16815260200190815260200160002060009054906101000a900460ff1615151415611930576064600a60009054906101000a900460ff1660ff168261191b919061272b565b61192591906126fa565b600c81905550611c52565b60011515600760008473ffffffffffffffffffffffffffffffffffffffff1673ffffffffffffffffffffffffffffffffffffffff16815260200190815260200160002060009054906101000a900460ff1615151415611abc576064600a60019054906101000a900460ff1660ff16826119a9919061272b565b6119b391906126fa565b600c81905550600a60029054906101000a900460ff1660ff16426119d79190612785565b600960008573ffffffffffffffffffffffffffffffffffffffff1673ffffffffffffffffffffffffffffffffffffffff16815260200190815260200160002054106040518060600160405280602a8152602001612bc2602a913990611a72576040517f08c379a0000000000000000000000000000000000000000000000000000000008152600401611a6991906124f9565b60405180910390fd5b5042600960008573ffffffffffffffffffffffffffffffffffffffff1673ffffffffffffffffffffffffffffffffffffffff16815260200190815260200160002081905550611c51565b600860008473ffffffffffffffffffffffffffffffffffffffff1673ffffffffffffffffffffffffffffffffffffffff16815260200190815260200160002060009054906101000a900460ff1680611b5d5750600860008373ffffffffffffffffffffffffffffffffffffffff1673ffffffffffffffffffffffffffffffffffffffff16815260200190815260200160002060009054906101000a900460ff165b80611bb55750600d60009054906101000a900473ffffffffffffffffffffffffffffffffffffffff1673ffffffffffffffffffffffffffffffffffffffff168373ffffffffffffffffffffffffffffffffffffffff16145b80611c0d5750600d60009054906101000a900473ffffffffffffffffffffffffffffffffffffffff1673ffffffffffffffffffffffffffffffffffffffff168273ffffffffffffffffffffffffffffffffffffffff16145b15611c1f576000600c81905550611c50565b6064600a60039054906101000a900460ff1660ff1682611c3f919061272b565b611c4991906126fa565b600c819055505b5b5b6000600c541115611c8d57611c8c83600d60009054906101000a900473ffffffffffffffffffffffffffffffffffffffff16600c54611e3e565b5b611ca58383600c5484611ca09190612785565b611e3e565b505050565b6000838311158290611cf2576040517f08c379a0000000000000000000000000000000000000000000000000000000008152600401611ce991906124f9565b60405180910390fd5b5060008385611d019190612785565b9050809150509392505050565b600073ffffffffffffffffffffffffffffffffffffffff168173ffffffffffffffffffffffffffffffffffffffff161415611d7e576040517f08c379a0000000000000000000000000000000000000000000000000000000008152600401611d759061255b565b60405180910390fd5b8073ffffffffffffffffffffffffffffffffffffffff16600260019054906101000a900473ffffffffffffffffffffffffffffffffffffffff1673ffffffffffffffffffffffffffffffffffffffff167f8be0079c531659141344cd1fd0a4f28419497f9722a3daafe3b4186f6b6457e060405160405180910390a380600260016101000a81548173ffffffffffffffffffffffffffffffffffffffff021916908373ffffffffffffffffffffffffffffffffffffffff16021790555050565b600073ffffffffffffffffffffffffffffffffffffffff168373ffffffffffffffffffffffffffffffffffffffff161415611eae576040517f08c379a0000000000000000000000000000000000000000000000000000000008152600401611ea59061251b565b60405180910390fd5b600073ffffffffffffffffffffffffffffffffffffffff168273ffffffffffffffffffffffffffffffffffffffff161415611f1e576040517f08c379a0000000000000000000000000000000000000000000000000000000008152600401611f15906125db565b60405180910390fd5b611f8a81604051806060016040528060268152602001612bec60269139600360008773ffffffffffffffffffffffffffffffffffffffff1673ffffffffffffffffffffffffffffffffffffffff16815260200190815260200160002054611caa9092919063ffffffff16565b600360008573ffffffffffffffffffffffffffffffffffffffff1673ffffffffffffffffffffffffffffffffffffffff1681526020019081526020016000208190555061201f81600360008573ffffffffffffffffffffffffffffffffffffffff1673ffffffffffffffffffffffffffffffffffffffff168152602001908152602001600020546114f390919063ffffffff16565b600360008473ffffffffffffffffffffffffffffffffffffffff1673ffffffffffffffffffffffffffffffffffffffff168152602001908152602001600020819055508173ffffffffffffffffffffffffffffffffffffffff168373ffffffffffffffffffffffffffffffffffffffff167fddf252ad1be2c89b69c2b068fc378daa952ba7f163c4a11628f55a4df523b3ef836040516120bf919061261b565b60405180910390a3505050565b6000813590506120db81612b1c565b92915050565b6000813590506120f081612b33565b92915050565b60008135905061210581612b4a565b92915050565b60008135905061211a81612b61565b92915050565b60006020828403121561213657612135612900565b5b6000612144848285016120cc565b91505092915050565b6000806040838503121561216457612163612900565b5b6000612172858286016120cc565b9250506020612183858286016120cc565b9150509250929050565b6000806000606084860312156121a6576121a5612900565b5b60006121b4868287016120cc565b93505060206121c5868287016120cc565b92505060406121d6868287016120f6565b9150509250925092565b600080604083850312156121f7576121f6612900565b5b6000612205858286016120cc565b9250506020612216858286016120e1565b9150509250929050565b6000806040838503121561223757612236612900565b5b6000612245858286016120cc565b9250506020612256858286016120f6565b9150509250929050565b60006020828403121561227657612275612900565b5b6000612284848285016120f6565b91505092915050565b6000602082840312156122a3576122a2612900565b5b60006122b18482850161210b565b91505092915050565b6000806000606084860312156122d3576122d2612900565b5b60006122e18682870161210b565b93505060206122f28682870161210b565b92505060406123038682870161210b565b9150509250925092565b612316816127b9565b82525050565b612325816127cb565b82525050565b600061233682612688565b6123408185612693565b935061235081856020860161280e565b61235981612905565b840191505092915050565b6000612371602583612693565b915061237c82612916565b604082019050919050565b6000612394602483612693565b915061239f82612965565b604082019050919050565b60006123b7602683612693565b91506123c2826129b4565b604082019050919050565b60006123da601b83612693565b91506123e582612a03565b602082019050919050565b60006123fd601083612693565b915061240882612a2c565b602082019050919050565b6000612420602083612693565b915061242b82612a55565b602082019050919050565b6000612443602383612693565b915061244e82612a7e565b604082019050919050565b6000612466602283612693565b915061247182612acd565b604082019050919050565b612485816127f7565b82525050565b61249481612801565b82525050565b60006020820190506124af600083018461230d565b92915050565b60006040820190506124ca600083018561230d565b6124d7602083018461231c565b9392505050565b60006020820190506124f3600083018461231c565b92915050565b60006020820190508181036000830152612513818461232b565b905092915050565b6000602082019050818103600083015261253481612364565b9050919050565b6000602082019050818103600083015261255481612387565b9050919050565b60006020820190508181036000830152612574816123aa565b9050919050565b60006020820190508181036000830152612594816123cd565b9050919050565b600060208201905081810360008301526125b4816123f0565b9050919050565b600060208201905081810360008301526125d481612413565b9050919050565b600060208201905081810360008301526125f481612436565b9050919050565b6000602082019050818103600083015261261481612459565b9050919050565b6000602082019050612630600083018461247c565b92915050565b600060208201905061264b600083018461248b565b92915050565b6000606082019050612666600083018661248b565b612673602083018561248b565b612680604083018461248b565b949350505050565b600081519050919050565b600082825260208201905092915050565b60006126af826127f7565b91506126ba836127f7565b9250827fffffffffffffffffffffffffffffffffffffffffffffffffffffffffffffffff038211156126ef576126ee612873565b5b828201905092915050565b6000612705826127f7565b9150612710836127f7565b9250826127205761271f6128a2565b5b828204905092915050565b6000612736826127f7565b9150612741836127f7565b9250817fffffffffffffffffffffffffffffffffffffffffffffffffffffffffffffffff048311821515161561277a57612779612873565b5b828202905092915050565b6000612790826127f7565b915061279b836127f7565b9250828210156127ae576127ad612873565b5b828203905092915050565b60006127c4826127d7565b9050919050565b60008115159050919050565b600073ffffffffffffffffffffffffffffffffffffffff82169050919050565b6000819050919050565b600060ff82169050919050565b60005b8381101561282c578082015181840152602081019050612811565b8381111561283b576000848401525b50505050565b6000600282049050600182168061285957607f821691505b6020821081141561286d5761286c6128d1565b5b50919050565b7f4e487b7100000000000000000000000000000000000000000000000000000000600052601160045260246000fd5b7f4e487b7100000000000000000000000000000000000000000000000000000000600052601260045260246000fd5b7f4e487b7100000000000000000000000000000000000000000000000000000000600052602260045260246000fd5b600080fd5b6000601f19601f8301169050919050565b7f42455032303a207472616e736665722066726f6d20746865207a65726f20616460008201527f6472657373000000000000000000000000000000000000000000000000000000602082015250565b7f42455032303a20617070726f76652066726f6d20746865207a65726f2061646460008201527f7265737300000000000000000000000000000000000000000000000000000000602082015250565b7f4f776e61626c653a206e6577206f776e657220697320746865207a65726f206160008201527f6464726573730000000000000000000000000000000000000000000000000000602082015250565b7f536166654d6174683a206164646974696f6e206f766572666c6f770000000000600082015250565b7f5573657220626c61636b6c697374656400000000000000000000000000000000600082015250565b7f4f776e61626c653a2063616c6c6572206973206e6f7420746865206f776e6572600082015250565b7f42455032303a207472616e7366657220746f20746865207a65726f206164647260008201527f6573730000000000000000000000000000000000000000000000000000000000602082015250565b7f42455032303a20617070726f766520746f20746865207a65726f20616464726560008201527f7373000000000000000000000000000000000000000000000000000000000000602082015250565b612b25816127b9565b8114612b3057600080fd5b50565b612b3c816127cb565b8114612b4757600080fd5b50565b612b53816127f7565b8114612b5e57600080fd5b50565b612b6a81612801565b8114612b7557600080fd5b5056fe42455032303a207472616e7366657220616d6f756e74206578636565647320616c6c6f77616e63654e6f207472616e736665727320746f20636f6e747261637420616c6c6f7765642e4e6f20636f6e73656375746976652073656c6c7320616c6c6f7765642e20506c6561736520776169742e42455032303a207472616e7366657220616d6f756e7420657863656564732062616c616e636542455032303a2064656372656173656420616c6c6f77616e63652062656c6f77207a65726fa2646970667358221220f4618a8d36d51bf5ce492d143e82cb6b0da7ed7340e277f48babd8e5891eecca64736f6c63430008070033",
					"opcodes": "PUSH1 0x80 PUSH1 0x40 MSTORE PUSH1 0x0 PUSH1 0x2 PUSH1 0x15 PUSH2 0x100 EXP DUP2 SLOAD DUP2 PUSH1 0xFF MUL NOT AND SWAP1 DUP4 ISZERO ISZERO MUL OR SWAP1 SSTORE POP PUSH2 0x3E8 PUSH1 0xB SSTORE CALLVALUE DUP1 ISZERO PUSH3 0x32 JUMPI PUSH1 0x0 DUP1 REVERT JUMPDEST POP PUSH1 0x40 MLOAD PUSH3 0x3819 CODESIZE SUB DUP1 PUSH3 0x3819 DUP4 CODECOPY DUP2 DUP2 ADD PUSH1 0x40 MSTORE DUP2 ADD SWAP1 PUSH3 0x58 SWAP2 SWAP1 PUSH3 0x5D5 JUMP JUMPDEST PUSH1 0x40 MLOAD DUP1 PUSH1 0x40 ADD PUSH1 0x40 MSTORE DUP1 PUSH1 0x7 DUP2 MSTORE PUSH1 0x20 ADD PUSH32 0x5669634D6F766500000000000000000000000000000000000000000000000000 DUP2 MSTORE POP PUSH1 0x40 MLOAD DUP1 PUSH1 0x40 ADD PUSH1 0x40 MSTORE DUP1 PUSH1 0x3 DUP2 MSTORE PUSH1 0x20 ADD PUSH32 0x56494D0000000000000000000000000000000000000000000000000000000000 DUP2 MSTORE POP PUSH1 0x12 DUP3 PUSH1 0x0 SWAP1 DUP1 MLOAD SWAP1 PUSH1 0x20 ADD SWAP1 PUSH3 0xDE SWAP3 SWAP2 SWAP1 PUSH3 0x4A7 JUMP JUMPDEST POP DUP2 PUSH1 0x1 SWAP1 DUP1 MLOAD SWAP1 PUSH1 0x20 ADD SWAP1 PUSH3 0xF7 SWAP3 SWAP2 SWAP1 PUSH3 0x4A7 JUMP JUMPDEST POP DUP1 PUSH1 0x2 PUSH1 0x0 PUSH2 0x100 EXP DUP2 SLOAD DUP2 PUSH1 0xFF MUL NOT AND SWAP1 DUP4 PUSH1 0xFF AND MUL OR SWAP1 SSTORE POP POP POP POP PUSH1 0x0 PUSH3 0x128 PUSH3 0x288 PUSH1 0x20 SHL PUSH1 0x20 SHR JUMP JUMPDEST SWAP1 POP DUP1 PUSH1 0x2 PUSH1 0x1 PUSH2 0x100 EXP DUP2 SLOAD DUP2 PUSH20 0xFFFFFFFFFFFFFFFFFFFFFFFFFFFFFFFFFFFFFFFF MUL NOT AND SWAP1 DUP4 PUSH20 0xFFFFFFFFFFFFFFFFFFFFFFFFFFFFFFFFFFFFFFFF AND MUL OR SWAP1 SSTORE POP DUP1 PUSH20 0xFFFFFFFFFFFFFFFFFFFFFFFFFFFFFFFFFFFFFFFF AND PUSH1 0x0 PUSH20 0xFFFFFFFFFFFFFFFFFFFFFFFFFFFFFFFFFFFFFFFF AND PUSH32 0x8BE0079C531659141344CD1FD0A4F28419497F9722A3DAAFE3B4186F6B6457E0 PUSH1 0x40 MLOAD PUSH1 0x40 MLOAD DUP1 SWAP2 SUB SWAP1 LOG3 POP PUSH1 0x0 PUSH3 0x1D9 PUSH3 0x290 PUSH1 0x20 SHL PUSH1 0x20 SHR JUMP JUMPDEST PUSH1 0xFF AND PUSH1 0xA PUSH3 0x1EA SWAP2 SWAP1 PUSH3 0x842 JUMP JUMPDEST PUSH4 0x1312D00 PUSH3 0x1FB SWAP2 SWAP1 PUSH3 0x97F JUMP JUMPDEST SWAP1 POP PUSH3 0x20F CALLER DUP3 PUSH3 0x2A7 PUSH1 0x20 SHL PUSH1 0x20 SHR JUMP JUMPDEST PUSH1 0x0 PUSH1 0xA PUSH1 0x1 PUSH2 0x100 EXP DUP2 SLOAD DUP2 PUSH1 0xFF MUL NOT AND SWAP1 DUP4 PUSH1 0xFF AND MUL OR SWAP1 SSTORE POP PUSH1 0x0 PUSH1 0xA PUSH1 0x0 PUSH2 0x100 EXP DUP2 SLOAD DUP2 PUSH1 0xFF MUL NOT AND SWAP1 DUP4 PUSH1 0xFF AND MUL OR SWAP1 SSTORE POP PUSH1 0x0 PUSH1 0xA PUSH1 0x3 PUSH2 0x100 EXP DUP2 SLOAD DUP2 PUSH1 0xFF MUL NOT AND SWAP1 DUP4 PUSH1 0xFF AND MUL OR SWAP1 SSTORE POP PUSH1 0xF PUSH1 0xA PUSH1 0x2 PUSH2 0x100 EXP DUP2 SLOAD DUP2 PUSH1 0xFF MUL NOT AND SWAP1 DUP4 PUSH1 0xFF AND MUL OR SWAP1 SSTORE POP POP POP POP PUSH3 0xB9D JUMP JUMPDEST PUSH1 0x0 CALLER SWAP1 POP SWAP1 JUMP JUMPDEST PUSH1 0x0 PUSH1 0x2 PUSH1 0x0 SWAP1 SLOAD SWAP1 PUSH2 0x100 EXP SWAP1 DIV PUSH1 0xFF AND SWAP1 POP SWAP1 JUMP JUMPDEST PUSH1 0x0 PUSH20 0xFFFFFFFFFFFFFFFFFFFFFFFFFFFFFFFFFFFFFFFF AND DUP3 PUSH20 0xFFFFFFFFFFFFFFFFFFFFFFFFFFFFFFFFFFFFFFFF AND EQ ISZERO PUSH3 0x31A JUMPI PUSH1 0x40 MLOAD PUSH32 0x8C379A000000000000000000000000000000000000000000000000000000000 DUP2 MSTORE PUSH1 0x4 ADD PUSH3 0x311 SWAP1 PUSH3 0x6DB JUMP JUMPDEST PUSH1 0x40 MLOAD DUP1 SWAP2 SUB SWAP1 REVERT JUMPDEST PUSH3 0x336 DUP2 PUSH1 0x5 SLOAD PUSH3 0x444 PUSH1 0x20 SHL PUSH3 0x14F3 OR SWAP1 SWAP2 SWAP1 PUSH1 0x20 SHR JUMP JUMPDEST PUSH1 0x5 DUP2 SWAP1 SSTORE POP PUSH3 0x395 DUP2 PUSH1 0x3 PUSH1 0x0 DUP6 PUSH20 0xFFFFFFFFFFFFFFFFFFFFFFFFFFFFFFFFFFFFFFFF AND PUSH20 0xFFFFFFFFFFFFFFFFFFFFFFFFFFFFFFFFFFFFFFFF AND DUP2 MSTORE PUSH1 0x20 ADD SWAP1 DUP2 MSTORE PUSH1 0x20 ADD PUSH1 0x0 KECCAK256 SLOAD PUSH3 0x444 PUSH1 0x20 SHL PUSH3 0x14F3 OR SWAP1 SWAP2 SWAP1 PUSH1 0x20 SHR JUMP JUMPDEST PUSH1 0x3 PUSH1 0x0 DUP5 PUSH20 0xFFFFFFFFFFFFFFFFFFFFFFFFFFFFFFFFFFFFFFFF AND PUSH20 0xFFFFFFFFFFFFFFFFFFFFFFFFFFFFFFFFFFFFFFFF AND DUP2 MSTORE PUSH1 0x20 ADD SWAP1 DUP2 MSTORE PUSH1 0x20 ADD PUSH1 0x0 KECCAK256 DUP2 SWAP1 SSTORE POP DUP2 PUSH20 0xFFFFFFFFFFFFFFFFFFFFFFFFFFFFFFFFFFFFFFFF AND PUSH1 0x0 PUSH20 0xFFFFFFFFFFFFFFFFFFFFFFFFFFFFFFFFFFFFFFFF AND PUSH32 0xDDF252AD1BE2C89B69C2B068FC378DAA952BA7F163C4A11628F55A4DF523B3EF DUP4 PUSH1 0x40 MLOAD PUSH3 0x438 SWAP2 SWAP1 PUSH3 0x6FD JUMP JUMPDEST PUSH1 0x40 MLOAD DUP1 SWAP2 SUB SWAP1 LOG3 POP POP JUMP JUMPDEST PUSH1 0x0 DUP1 DUP3 DUP5 PUSH3 0x455 SWAP2 SWAP1 PUSH3 0x78A JUMP JUMPDEST SWAP1 POP DUP4 DUP2 LT ISZERO PUSH3 0x49D JUMPI PUSH1 0x40 MLOAD PUSH32 0x8C379A000000000000000000000000000000000000000000000000000000000 DUP2 MSTORE PUSH1 0x4 ADD PUSH3 0x494 SWAP1 PUSH3 0x6B9 JUMP JUMPDEST PUSH1 0x40 MLOAD DUP1 SWAP2 SUB SWAP1 REVERT JUMPDEST DUP1 SWAP2 POP POP SWAP3 SWAP2 POP POP JUMP JUMPDEST DUP3 DUP1 SLOAD PUSH3 0x4B5 SWAP1 PUSH3 0xA20 JUMP JUMPDEST SWAP1 PUSH1 0x0 MSTORE PUSH1 0x20 PUSH1 0x0 KECCAK256 SWAP1 PUSH1 0x1F ADD PUSH1 0x20 SWAP1 DIV DUP2 ADD SWAP3 DUP3 PUSH3 0x4D9 JUMPI PUSH1 0x0 DUP6 SSTORE PUSH3 0x525 JUMP JUMPDEST DUP3 PUSH1 0x1F LT PUSH3 0x4F4 JUMPI DUP1 MLOAD PUSH1 0xFF NOT AND DUP4 DUP1 ADD OR DUP6 SSTORE PUSH3 0x525 JUMP JUMPDEST DUP3 DUP1 ADD PUSH1 0x1 ADD DUP6 SSTORE DUP3 ISZERO PUSH3 0x525 JUMPI SWAP2 DUP3 ADD JUMPDEST DUP3 DUP2 GT ISZERO PUSH3 0x524 JUMPI DUP3 MLOAD DUP3 SSTORE SWAP2 PUSH1 0x20 ADD SWAP2 SWAP1 PUSH1 0x1 ADD SWAP1 PUSH3 0x507 JUMP JUMPDEST JUMPDEST POP SWAP1 POP PUSH3 0x534 SWAP2 SWAP1 PUSH3 0x538 JUMP JUMPDEST POP SWAP1 JUMP JUMPDEST JUMPDEST DUP1 DUP3 GT ISZERO PUSH3 0x553 JUMPI PUSH1 0x0 DUP2 PUSH1 0x0 SWAP1 SSTORE POP PUSH1 0x1 ADD PUSH3 0x539 JUMP JUMPDEST POP SWAP1 JUMP JUMPDEST PUSH1 0x0 PUSH3 0x56E PUSH3 0x568 DUP5 PUSH3 0x743 JUMP JUMPDEST PUSH3 0x71A JUMP JUMPDEST SWAP1 POP DUP3 DUP2 MSTORE PUSH1 0x20 DUP2 ADD DUP5 DUP5 DUP5 ADD GT ISZERO PUSH3 0x58D JUMPI PUSH3 0x58C PUSH3 0xB1E JUMP JUMPDEST JUMPDEST PUSH3 0x59A DUP5 DUP3 DUP6 PUSH3 0x9EA JUMP JUMPDEST POP SWAP4 SWAP3 POP POP POP JUMP JUMPDEST PUSH1 0x0 DUP3 PUSH1 0x1F DUP4 ADD SLT PUSH3 0x5BA JUMPI PUSH3 0x5B9 PUSH3 0xB19 JUMP JUMPDEST JUMPDEST DUP2 MLOAD PUSH3 0x5CC DUP5 DUP3 PUSH1 0x20 DUP7 ADD PUSH3 0x557 JUMP JUMPDEST SWAP2 POP POP SWAP3 SWAP2 POP POP JUMP JUMPDEST PUSH1 0x0 DUP1 PUSH1 0x40 DUP4 DUP6 SUB SLT ISZERO PUSH3 0x5EF JUMPI PUSH3 0x5EE PUSH3 0xB28 JUMP JUMPDEST JUMPDEST PUSH1 0x0 DUP4 ADD MLOAD PUSH8 0xFFFFFFFFFFFFFFFF DUP2 GT ISZERO PUSH3 0x610 JUMPI PUSH3 0x60F PUSH3 0xB23 JUMP JUMPDEST JUMPDEST PUSH3 0x61E DUP6 DUP3 DUP7 ADD PUSH3 0x5A2 JUMP JUMPDEST SWAP3 POP POP PUSH1 0x20 DUP4 ADD MLOAD PUSH8 0xFFFFFFFFFFFFFFFF DUP2 GT ISZERO PUSH3 0x642 JUMPI PUSH3 0x641 PUSH3 0xB23 JUMP JUMPDEST JUMPDEST PUSH3 0x650 DUP6 DUP3 DUP7 ADD PUSH3 0x5A2 JUMP JUMPDEST SWAP2 POP POP SWAP3 POP SWAP3 SWAP1 POP JUMP JUMPDEST PUSH1 0x0 PUSH3 0x669 PUSH1 0x1B DUP4 PUSH3 0x779 JUMP JUMPDEST SWAP2 POP PUSH3 0x676 DUP3 PUSH3 0xB4B JUMP JUMPDEST PUSH1 0x20 DUP3 ADD SWAP1 POP SWAP2 SWAP1 POP JUMP JUMPDEST PUSH1 0x0 PUSH3 0x690 PUSH1 0x1F DUP4 PUSH3 0x779 JUMP JUMPDEST SWAP2 POP PUSH3 0x69D DUP3 PUSH3 0xB74 JUMP JUMPDEST PUSH1 0x20 DUP3 ADD SWAP1 POP SWAP2 SWAP1 POP JUMP JUMPDEST PUSH3 0x6B3 DUP2 PUSH3 0x9E0 JUMP JUMPDEST DUP3 MSTORE POP POP JUMP JUMPDEST PUSH1 0x0 PUSH1 0x20 DUP3 ADD SWAP1 POP DUP2 DUP2 SUB PUSH1 0x0 DUP4 ADD MSTORE PUSH3 0x6D4 DUP2 PUSH3 0x65A JUMP JUMPDEST SWAP1 POP SWAP2 SWAP1 POP JUMP JUMPDEST PUSH1 0x0 PUSH1 0x20 DUP3 ADD SWAP1 POP DUP2 DUP2 SUB PUSH1 0x0 DUP4 ADD MSTORE PUSH3 0x6F6 DUP2 PUSH3 0x681 JUMP JUMPDEST SWAP1 POP SWAP2 SWAP1 POP JUMP JUMPDEST PUSH1 0x0 PUSH1 0x20 DUP3 ADD SWAP1 POP PUSH3 0x714 PUSH1 0x0 DUP4 ADD DUP5 PUSH3 0x6A8 JUMP JUMPDEST SWAP3 SWAP2 POP POP JUMP JUMPDEST PUSH1 0x0 PUSH3 0x726 PUSH3 0x739 JUMP JUMPDEST SWAP1 POP PUSH3 0x734 DUP3 DUP3 PUSH3 0xA56 JUMP JUMPDEST SWAP2 SWAP1 POP JUMP JUMPDEST PUSH1 0x0 PUSH1 0x40 MLOAD SWAP1 POP SWAP1 JUMP JUMPDEST PUSH1 0x0 PUSH8 0xFFFFFFFFFFFFFFFF DUP3 GT ISZERO PUSH3 0x761 JUMPI PUSH3 0x760 PUSH3 0xAEA JUMP JUMPDEST JUMPDEST PUSH3 0x76C DUP3 PUSH3 0xB2D JUMP JUMPDEST SWAP1 POP PUSH1 0x20 DUP2 ADD SWAP1 POP SWAP2 SWAP1 POP JUMP JUMPDEST PUSH1 0x0 DUP3 DUP3 MSTORE PUSH1 0x20 DUP3 ADD SWAP1 POP SWAP3 SWAP2 POP POP JUMP JUMPDEST PUSH1 0x0 PUSH3 0x797 DUP3 PUSH3 0x9E0 JUMP JUMPDEST SWAP2 POP PUSH3 0x7A4 DUP4 PUSH3 0x9E0 JUMP JUMPDEST SWAP3 POP DUP3 PUSH32 0xFFFFFFFFFFFFFFFFFFFFFFFFFFFFFFFFFFFFFFFFFFFFFFFFFFFFFFFFFFFFFFFF SUB DUP3 GT ISZERO PUSH3 0x7DC JUMPI PUSH3 0x7DB PUSH3 0xA8C JUMP JUMPDEST JUMPDEST DUP3 DUP3 ADD SWAP1 POP SWAP3 SWAP2 POP POP JUMP JUMPDEST PUSH1 0x0 DUP1 DUP3 SWAP2 POP DUP4 SWAP1 POP JUMPDEST PUSH1 0x1 DUP6 GT ISZERO PUSH3 0x839 JUMPI DUP1 DUP7 DIV DUP2 GT ISZERO PUSH3 0x811 JUMPI PUSH3 0x810 PUSH3 0xA8C JUMP JUMPDEST JUMPDEST PUSH1 0x1 DUP6 AND ISZERO PUSH3 0x821 JUMPI DUP1 DUP3 MUL SWAP2 POP JUMPDEST DUP1 DUP2 MUL SWAP1 POP PUSH3 0x831 DUP6 PUSH3 0xB3E JUMP JUMPDEST SWAP5 POP PUSH3 0x7F1 JUMP JUMPDEST SWAP5 POP SWAP5 SWAP3 POP POP POP JUMP JUMPDEST PUSH1 0x0 PUSH3 0x84F DUP3 PUSH3 0x9E0 JUMP JUMPDEST SWAP2 POP PUSH3 0x85C DUP4 PUSH3 0x9E0 JUMP JUMPDEST SWAP3 POP PUSH3 0x88B PUSH32 0xFFFFFFFFFFFFFFFFFFFFFFFFFFFFFFFFFFFFFFFFFFFFFFFFFFFFFFFFFFFFFFFF DUP5 DUP5 PUSH3 0x893 JUMP JUMPDEST SWAP1 POP SWAP3 SWAP2 POP POP JUMP JUMPDEST PUSH1 0x0 DUP3 PUSH3 0x8A5 JUMPI PUSH1 0x1 SWAP1 POP PUSH3 0x978 JUMP JUMPDEST DUP2 PUSH3 0x8B5 JUMPI PUSH1 0x0 SWAP1 POP PUSH3 0x978 JUMP JUMPDEST DUP2 PUSH1 0x1 DUP2 EQ PUSH3 0x8CE JUMPI PUSH1 0x2 DUP2 EQ PUSH3 0x8D9 JUMPI PUSH3 0x90F JUMP JUMPDEST PUSH1 0x1 SWAP2 POP POP PUSH3 0x978 JUMP JUMPDEST PUSH1 0xFF DUP5 GT ISZERO PUSH3 0x8EE JUMPI PUSH3 0x8ED PUSH3 0xA8C JUMP JUMPDEST JUMPDEST DUP4 PUSH1 0x2 EXP SWAP2 POP DUP5 DUP3 GT ISZERO PUSH3 0x908 JUMPI PUSH3 0x907 PUSH3 0xA8C JUMP JUMPDEST JUMPDEST POP PUSH3 0x978 JUMP JUMPDEST POP PUSH1 0x20 DUP4 LT PUSH2 0x133 DUP4 LT AND PUSH1 0x4E DUP5 LT PUSH1 0xB DUP5 LT AND OR ISZERO PUSH3 0x949 JUMPI DUP3 DUP3 EXP SWAP1 POP DUP4 DUP2 GT ISZERO PUSH3 0x943 JUMPI PUSH3 0x942 PUSH3 0xA8C JUMP JUMPDEST JUMPDEST PUSH3 0x978 JUMP JUMPDEST PUSH3 0x958 DUP5 DUP5 DUP5 PUSH1 0x1 PUSH3 0x7E7 JUMP JUMPDEST SWAP3 POP SWAP1 POP DUP2 DUP5 DIV DUP2 GT ISZERO PUSH3 0x972 JUMPI PUSH3 0x971 PUSH3 0xA8C JUMP JUMPDEST JUMPDEST DUP2 DUP2 MUL SWAP1 POP JUMPDEST SWAP4 SWAP3 POP POP POP JUMP JUMPDEST PUSH1 0x0 PUSH3 0x98C DUP3 PUSH3 0x9E0 JUMP JUMPDEST SWAP2 POP PUSH3 0x999 DUP4 PUSH3 0x9E0 JUMP JUMPDEST SWAP3 POP DUP2 PUSH32 0xFFFFFFFFFFFFFFFFFFFFFFFFFFFFFFFFFFFFFFFFFFFFFFFFFFFFFFFFFFFFFFFF DIV DUP4 GT DUP3 ISZERO ISZERO AND ISZERO PUSH3 0x9D5 JUMPI PUSH3 0x9D4 PUSH3 0xA8C JUMP JUMPDEST JUMPDEST DUP3 DUP3 MUL SWAP1 POP SWAP3 SWAP2 POP POP JUMP JUMPDEST PUSH1 0x0 DUP2 SWAP1 POP SWAP2 SWAP1 POP JUMP JUMPDEST PUSH1 0x0 JUMPDEST DUP4 DUP2 LT ISZERO PUSH3 0xA0A JUMPI DUP1 DUP3 ADD MLOAD DUP2 DUP5 ADD MSTORE PUSH1 0x20 DUP2 ADD SWAP1 POP PUSH3 0x9ED JUMP JUMPDEST DUP4 DUP2 GT ISZERO PUSH3 0xA1A JUMPI PUSH1 0x0 DUP5 DUP5 ADD MSTORE JUMPDEST POP POP POP POP JUMP JUMPDEST PUSH1 0x0 PUSH1 0x2 DUP3 DIV SWAP1 POP PUSH1 0x1 DUP3 AND DUP1 PUSH3 0xA39 JUMPI PUSH1 0x7F DUP3 AND SWAP2 POP JUMPDEST PUSH1 0x20 DUP3 LT DUP2 EQ ISZERO PUSH3 0xA50 JUMPI PUSH3 0xA4F PUSH3 0xABB JUMP JUMPDEST JUMPDEST POP SWAP2 SWAP1 POP JUMP JUMPDEST PUSH3 0xA61 DUP3 PUSH3 0xB2D JUMP JUMPDEST DUP2 ADD DUP2 DUP2 LT PUSH8 0xFFFFFFFFFFFFFFFF DUP3 GT OR ISZERO PUSH3 0xA83 JUMPI PUSH3 0xA82 PUSH3 0xAEA JUMP JUMPDEST JUMPDEST DUP1 PUSH1 0x40 MSTORE POP POP POP JUMP JUMPDEST PUSH32 0x4E487B7100000000000000000000000000000000000000000000000000000000 PUSH1 0x0 MSTORE PUSH1 0x11 PUSH1 0x4 MSTORE PUSH1 0x24 PUSH1 0x0 REVERT JUMPDEST PUSH32 0x4E487B7100000000000000000000000000000000000000000000000000000000 PUSH1 0x0 MSTORE PUSH1 0x22 PUSH1 0x4 MSTORE PUSH1 0x24 PUSH1 0x0 REVERT JUMPDEST PUSH32 0x4E487B7100000000000000000000000000000000000000000000000000000000 PUSH1 0x0 MSTORE PUSH1 0x41 PUSH1 0x4 MSTORE PUSH1 0x24 PUSH1 0x0 REVERT JUMPDEST PUSH1 0x0 DUP1 REVERT JUMPDEST PUSH1 0x0 DUP1 REVERT JUMPDEST PUSH1 0x0 DUP1 REVERT JUMPDEST PUSH1 0x0 DUP1 REVERT JUMPDEST PUSH1 0x0 PUSH1 0x1F NOT PUSH1 0x1F DUP4 ADD AND SWAP1 POP SWAP2 SWAP1 POP JUMP JUMPDEST PUSH1 0x0 DUP2 PUSH1 0x1 SHR SWAP1 POP SWAP2 SWAP1 POP JUMP JUMPDEST PUSH32 0x536166654D6174683A206164646974696F6E206F766572666C6F770000000000 PUSH1 0x0 DUP3 ADD MSTORE POP JUMP JUMPDEST PUSH32 0x42455032303A206D696E7420746F20746865207A65726F206164647265737300 PUSH1 0x0 DUP3 ADD MSTORE POP JUMP JUMPDEST PUSH2 0x2C6C DUP1 PUSH3 0xBAD PUSH1 0x0 CODECOPY PUSH1 0x0 RETURN INVALID PUSH1 0x80 PUSH1 0x40 MSTORE CALLVALUE DUP1 ISZERO PUSH2 0x10 JUMPI PUSH1 0x0 DUP1 REVERT JUMPDEST POP PUSH1 0x4 CALLDATASIZE LT PUSH2 0x1DA JUMPI PUSH1 0x0 CALLDATALOAD PUSH1 0xE0 SHR DUP1 PUSH4 0x70A08231 GT PUSH2 0x104 JUMPI DUP1 PUSH4 0xA86517BF GT PUSH2 0xA2 JUMPI DUP1 PUSH4 0xCC600F91 GT PUSH2 0x71 JUMPI DUP1 PUSH4 0xCC600F91 EQ PUSH2 0x535 JUMPI DUP1 PUSH4 0xDD62ED3E EQ PUSH2 0x551 JUMPI DUP1 PUSH4 0xF2FDE38B EQ PUSH2 0x581 JUMPI DUP1 PUSH4 0xFB75B2C7 EQ PUSH2 0x59D JUMPI PUSH2 0x1DA JUMP JUMPDEST DUP1 PUSH4 0xA86517BF EQ PUSH2 0x4B1 JUMPI DUP1 PUSH4 0xA9059CBB EQ PUSH2 0x4CD JUMPI DUP1 PUSH4 0xB5DDEB6E EQ PUSH2 0x4FD JUMPI DUP1 PUSH4 0xC89C58FB EQ PUSH2 0x519 JUMPI PUSH2 0x1DA JUMP JUMPDEST DUP1 PUSH4 0x8DA5CB5B GT PUSH2 0xDE JUMPI DUP1 PUSH4 0x8DA5CB5B EQ PUSH2 0x427 JUMPI DUP1 PUSH4 0x8F32D59B EQ PUSH2 0x445 JUMPI DUP1 PUSH4 0x95D89B41 EQ PUSH2 0x463 JUMPI DUP1 PUSH4 0xA457C2D7 EQ PUSH2 0x481 JUMPI PUSH2 0x1DA JUMP JUMPDEST DUP1 PUSH4 0x70A08231 EQ PUSH2 0x3CF JUMPI DUP1 PUSH4 0x715018A6 EQ PUSH2 0x3FF JUMPI DUP1 PUSH4 0x8456CB59 EQ PUSH2 0x409 JUMPI PUSH2 0x1DA JUMP JUMPDEST DUP1 PUSH4 0x23B872DD GT PUSH2 0x17C JUMPI DUP1 PUSH4 0x39509351 GT PUSH2 0x14B JUMPI DUP1 PUSH4 0x39509351 EQ PUSH2 0x347 JUMPI DUP1 PUSH4 0x3F4BA83A EQ PUSH2 0x377 JUMPI DUP1 PUSH4 0x53D6FD59 EQ PUSH2 0x395 JUMPI DUP1 PUSH4 0x5C975ABB EQ PUSH2 0x3B1 JUMPI PUSH2 0x1DA JUMP JUMPDEST DUP1 PUSH4 0x23B872DD EQ PUSH2 0x2BD JUMPI DUP1 PUSH4 0x2553DFF5 EQ PUSH2 0x2ED JUMPI DUP1 PUSH4 0x2973EF2D EQ PUSH2 0x309 JUMPI DUP1 PUSH4 0x313CE567 EQ PUSH2 0x329 JUMPI PUSH2 0x1DA JUMP JUMPDEST DUP1 PUSH4 0xD2CF31F GT PUSH2 0x1B8 JUMPI DUP1 PUSH4 0xD2CF31F EQ PUSH2 0x24B JUMPI DUP1 PUSH4 0x153B0D1E EQ PUSH2 0x267 JUMPI DUP1 PUSH4 0x1574567B EQ PUSH2 0x283 JUMPI DUP1 PUSH4 0x18160DDD EQ PUSH2 0x29F JUMPI PUSH2 0x1DA JUMP JUMPDEST DUP1 PUSH4 0x6FDDE03 EQ PUSH2 0x1DF JUMPI DUP1 PUSH4 0x95EA7B3 EQ PUSH2 0x1FD JUMPI DUP1 PUSH4 0x9904C00 EQ PUSH2 0x22D JUMPI JUMPDEST PUSH1 0x0 DUP1 REVERT JUMPDEST PUSH2 0x1E7 PUSH2 0x5BB JUMP JUMPDEST PUSH1 0x40 MLOAD PUSH2 0x1F4 SWAP2 SWAP1 PUSH2 0x24F9 JUMP JUMPDEST PUSH1 0x40 MLOAD DUP1 SWAP2 SUB SWAP1 RETURN JUMPDEST PUSH2 0x217 PUSH1 0x4 DUP1 CALLDATASIZE SUB DUP2 ADD SWAP1 PUSH2 0x212 SWAP2 SWAP1 PUSH2 0x2220 JUMP JUMPDEST PUSH2 0x64D JUMP JUMPDEST PUSH1 0x40 MLOAD PUSH2 0x224 SWAP2 SWAP1 PUSH2 0x24DE JUMP JUMPDEST PUSH1 0x40 MLOAD DUP1 SWAP2 SUB SWAP1 RETURN JUMPDEST PUSH2 0x235 PUSH2 0x685 JUMP JUMPDEST PUSH1 0x40 MLOAD PUSH2 0x242 SWAP2 SWAP1 PUSH2 0x249A JUMP JUMPDEST PUSH1 0x40 MLOAD DUP1 SWAP2 SUB SWAP1 RETURN JUMPDEST PUSH2 0x265 PUSH1 0x4 DUP1 CALLDATASIZE SUB DUP2 ADD SWAP1 PUSH2 0x260 SWAP2 SWAP1 PUSH2 0x22BA JUMP JUMPDEST PUSH2 0x6AB JUMP JUMPDEST STOP JUMPDEST PUSH2 0x281 PUSH1 0x4 DUP1 CALLDATASIZE SUB DUP2 ADD SWAP1 PUSH2 0x27C SWAP2 SWAP1 PUSH2 0x21E0 JUMP JUMPDEST PUSH2 0x7B3 JUMP JUMPDEST STOP JUMPDEST PUSH2 0x29D PUSH1 0x4 DUP1 CALLDATASIZE SUB DUP2 ADD SWAP1 PUSH2 0x298 SWAP2 SWAP1 PUSH2 0x228D JUMP JUMPDEST PUSH2 0x88E JUMP JUMPDEST STOP JUMPDEST PUSH2 0x2A7 PUSH2 0x92A JUMP JUMPDEST PUSH1 0x40 MLOAD PUSH2 0x2B4 SWAP2 SWAP1 PUSH2 0x261B JUMP JUMPDEST PUSH1 0x40 MLOAD DUP1 SWAP2 SUB SWAP1 RETURN JUMPDEST PUSH2 0x2D7 PUSH1 0x4 DUP1 CALLDATASIZE SUB DUP2 ADD SWAP1 PUSH2 0x2D2 SWAP2 SWAP1 PUSH2 0x218D JUMP JUMPDEST PUSH2 0x934 JUMP JUMPDEST PUSH1 0x40 MLOAD PUSH2 0x2E4 SWAP2 SWAP1 PUSH2 0x24DE JUMP JUMPDEST PUSH1 0x40 MLOAD DUP1 SWAP2 SUB SWAP1 RETURN JUMPDEST PUSH2 0x307 PUSH1 0x4 DUP1 CALLDATASIZE SUB DUP2 ADD SWAP1 PUSH2 0x302 SWAP2 SWAP1 PUSH2 0x2120 JUMP JUMPDEST PUSH2 0xA27 JUMP JUMPDEST STOP JUMPDEST PUSH2 0x311 PUSH2 0xAB2 JUMP JUMPDEST PUSH1 0x40 MLOAD PUSH2 0x320 SWAP4 SWAP3 SWAP2 SWAP1 PUSH2 0x2651 JUMP JUMPDEST PUSH1 0x40 MLOAD DUP1 SWAP2 SUB SWAP1 RETURN JUMPDEST PUSH2 0x331 PUSH2 0xABC JUMP JUMPDEST PUSH1 0x40 MLOAD PUSH2 0x33E SWAP2 SWAP1 PUSH2 0x2636 JUMP JUMPDEST PUSH1 0x40 MLOAD DUP1 SWAP2 SUB SWAP1 RETURN JUMPDEST PUSH2 0x361 PUSH1 0x4 DUP1 CALLDATASIZE SUB DUP2 ADD SWAP1 PUSH2 0x35C SWAP2 SWAP1 PUSH2 0x2220 JUMP JUMPDEST PUSH2 0xAD3 JUMP JUMPDEST PUSH1 0x40 MLOAD PUSH2 0x36E SWAP2 SWAP1 PUSH2 0x24DE JUMP JUMPDEST PUSH1 0x40 MLOAD DUP1 SWAP2 SUB SWAP1 RETURN JUMPDEST PUSH2 0x37F PUSH2 0xBA0 JUMP JUMPDEST PUSH1 0x40 MLOAD PUSH2 0x38C SWAP2 SWAP1 PUSH2 0x24DE JUMP JUMPDEST PUSH1 0x40 MLOAD DUP1 SWAP2 SUB SWAP1 RETURN JUMPDEST PUSH2 0x3AF PUSH1 0x4 DUP1 CALLDATASIZE SUB DUP2 ADD SWAP1 PUSH2 0x3AA SWAP2 SWAP1 PUSH2 0x21E0 JUMP JUMPDEST PUSH2 0xC50 JUMP JUMPDEST STOP JUMPDEST PUSH2 0x3B9 PUSH2 0xD2B JUMP JUMPDEST PUSH1 0x40 MLOAD PUSH2 0x3C6 SWAP2 SWAP1 PUSH2 0x24DE JUMP JUMPDEST PUSH1 0x40 MLOAD DUP1 SWAP2 SUB SWAP1 RETURN JUMPDEST PUSH2 0x3E9 PUSH1 0x4 DUP1 CALLDATASIZE SUB DUP2 ADD SWAP1 PUSH2 0x3E4 SWAP2 SWAP1 PUSH2 0x2120 JUMP JUMPDEST PUSH2 0xD3E JUMP JUMPDEST PUSH1 0x40 MLOAD PUSH2 0x3F6 SWAP2 SWAP1 PUSH2 0x261B JUMP JUMPDEST PUSH1 0x40 MLOAD DUP1 SWAP2 SUB SWAP1 RETURN JUMPDEST PUSH2 0x407 PUSH2 0xD87 JUMP JUMPDEST STOP JUMPDEST PUSH2 0x411 PUSH2 0xE8F JUMP JUMPDEST PUSH1 0x40 MLOAD PUSH2 0x41E SWAP2 SWAP1 PUSH2 0x24DE JUMP JUMPDEST PUSH1 0x40 MLOAD DUP1 SWAP2 SUB SWAP1 RETURN JUMPDEST PUSH2 0x42F PUSH2 0xF40 JUMP JUMPDEST PUSH1 0x40 MLOAD PUSH2 0x43C SWAP2 SWAP1 PUSH2 0x249A JUMP JUMPDEST PUSH1 0x40 MLOAD DUP1 SWAP2 SUB SWAP1 RETURN JUMPDEST PUSH2 0x44D PUSH2 0xF6A JUMP JUMPDEST PUSH1 0x40 MLOAD PUSH2 0x45A SWAP2 SWAP1 PUSH2 0x24DE JUMP JUMPDEST PUSH1 0x40 MLOAD DUP1 SWAP2 SUB SWAP1 RETURN JUMPDEST PUSH2 0x46B PUSH2 0xFC9 JUMP JUMPDEST PUSH1 0x40 MLOAD PUSH2 0x478 SWAP2 SWAP1 PUSH2 0x24F9 JUMP JUMPDEST PUSH1 0x40 MLOAD DUP1 SWAP2 SUB SWAP1 RETURN JUMPDEST PUSH2 0x49B PUSH1 0x4 DUP1 CALLDATASIZE SUB DUP2 ADD SWAP1 PUSH2 0x496 SWAP2 SWAP1 PUSH2 0x2220 JUMP JUMPDEST PUSH2 0x105B JUMP JUMPDEST PUSH1 0x40 MLOAD PUSH2 0x4A8 SWAP2 SWAP1 PUSH2 0x24DE JUMP JUMPDEST PUSH1 0x40 MLOAD DUP1 SWAP2 SUB SWAP1 RETURN JUMPDEST PUSH2 0x4CB PUSH1 0x4 DUP1 CALLDATASIZE SUB DUP2 ADD SWAP1 PUSH2 0x4C6 SWAP2 SWAP1 PUSH2 0x2120 JUMP JUMPDEST PUSH2 0x1142 JUMP JUMPDEST STOP JUMPDEST PUSH2 0x4E7 PUSH1 0x4 DUP1 CALLDATASIZE SUB DUP2 ADD SWAP1 PUSH2 0x4E2 SWAP2 SWAP1 PUSH2 0x2220 JUMP JUMPDEST PUSH2 0x1204 JUMP JUMPDEST PUSH1 0x40 MLOAD PUSH2 0x4F4 SWAP2 SWAP1 PUSH2 0x24DE JUMP JUMPDEST PUSH1 0x40 MLOAD DUP1 SWAP2 SUB SWAP1 RETURN JUMPDEST PUSH2 0x517 PUSH1 0x4 DUP1 CALLDATASIZE SUB DUP2 ADD SWAP1 PUSH2 0x512 SWAP2 SWAP1 PUSH2 0x2260 JUMP JUMPDEST PUSH2 0x123C JUMP JUMPDEST STOP JUMPDEST PUSH2 0x533 PUSH1 0x4 DUP1 CALLDATASIZE SUB DUP2 ADD SWAP1 PUSH2 0x52E SWAP2 SWAP1 PUSH2 0x21E0 JUMP JUMPDEST PUSH2 0x128D JUMP JUMPDEST STOP JUMPDEST PUSH2 0x54F PUSH1 0x4 DUP1 CALLDATASIZE SUB DUP2 ADD SWAP1 PUSH2 0x54A SWAP2 SWAP1 PUSH2 0x2120 JUMP JUMPDEST PUSH2 0x1368 JUMP JUMPDEST STOP JUMPDEST PUSH2 0x56B PUSH1 0x4 DUP1 CALLDATASIZE SUB DUP2 ADD SWAP1 PUSH2 0x566 SWAP2 SWAP1 PUSH2 0x214D JUMP JUMPDEST PUSH2 0x13F3 JUMP JUMPDEST PUSH1 0x40 MLOAD PUSH2 0x578 SWAP2 SWAP1 PUSH2 0x261B JUMP JUMPDEST PUSH1 0x40 MLOAD DUP1 SWAP2 SUB SWAP1 RETURN JUMPDEST PUSH2 0x59B PUSH1 0x4 DUP1 CALLDATASIZE SUB DUP2 ADD SWAP1 PUSH2 0x596 SWAP2 SWAP1 PUSH2 0x2120 JUMP JUMPDEST PUSH2 0x147A JUMP JUMPDEST STOP JUMPDEST PUSH2 0x5A5 PUSH2 0x14CD JUMP JUMPDEST PUSH1 0x40 MLOAD PUSH2 0x5B2 SWAP2 SWAP1 PUSH2 0x249A JUMP JUMPDEST PUSH1 0x40 MLOAD DUP1 SWAP2 SUB SWAP1 RETURN JUMPDEST PUSH1 0x60 PUSH1 0x0 DUP1 SLOAD PUSH2 0x5CA SWAP1 PUSH2 0x2841 JUMP JUMPDEST DUP1 PUSH1 0x1F ADD PUSH1 0x20 DUP1 SWAP2 DIV MUL PUSH1 0x20 ADD PUSH1 0x40 MLOAD SWAP1 DUP2 ADD PUSH1 0x40 MSTORE DUP1 SWAP3 SWAP2 SWAP1 DUP2 DUP2 MSTORE PUSH1 0x20 ADD DUP3 DUP1 SLOAD PUSH2 0x5F6 SWAP1 PUSH2 0x2841 JUMP JUMPDEST DUP1 ISZERO PUSH2 0x643 JUMPI DUP1 PUSH1 0x1F LT PUSH2 0x618 JUMPI PUSH2 0x100 DUP1 DUP4 SLOAD DIV MUL DUP4 MSTORE SWAP2 PUSH1 0x20 ADD SWAP2 PUSH2 0x643 JUMP JUMPDEST DUP3 ADD SWAP2 SWAP1 PUSH1 0x0 MSTORE PUSH1 0x20 PUSH1 0x0 KECCAK256 SWAP1 JUMPDEST DUP2 SLOAD DUP2 MSTORE SWAP1 PUSH1 0x1 ADD SWAP1 PUSH1 0x20 ADD DUP1 DUP4 GT PUSH2 0x626 JUMPI DUP3 SWAP1 SUB PUSH1 0x1F AND DUP3 ADD SWAP2 JUMPDEST POP POP POP POP POP SWAP1 POP SWAP1 JUMP JUMPDEST PUSH1 0x0 PUSH1 0x2 PUSH1 0x15 SWAP1 SLOAD SWAP1 PUSH2 0x100 EXP SWAP1 DIV PUSH1 0xFF AND ISZERO PUSH2 0x669 JUMPI PUSH1 0x0 DUP1 REVERT JUMPDEST PUSH2 0x67B PUSH2 0x674 PUSH2 0x1551 JUMP JUMPDEST DUP5 DUP5 PUSH2 0x1559 JUMP JUMPDEST PUSH1 0x1 SWAP1 POP SWAP3 SWAP2 POP POP JUMP JUMPDEST PUSH1 0xF PUSH1 0x0 SWAP1 SLOAD SWAP1 PUSH2 0x100 EXP SWAP1 DIV PUSH20 0xFFFFFFFFFFFFFFFFFFFFFFFFFFFFFFFFFFFFFFFF AND DUP2 JUMP JUMPDEST PUSH2 0x6B3 PUSH2 0xF6A JUMP JUMPDEST PUSH2 0x6F2 JUMPI PUSH1 0x40 MLOAD PUSH32 0x8C379A000000000000000000000000000000000000000000000000000000000 DUP2 MSTORE PUSH1 0x4 ADD PUSH2 0x6E9 SWAP1 PUSH2 0x25BB JUMP JUMPDEST PUSH1 0x40 MLOAD DUP1 SWAP2 SUB SWAP1 REVERT JUMPDEST PUSH1 0x14 DUP4 PUSH1 0xFF AND LT PUSH2 0x702 JUMPI PUSH1 0x0 DUP1 REVERT JUMPDEST PUSH1 0xA DUP3 PUSH1 0xFF AND LT PUSH2 0x712 JUMPI PUSH1 0x0 DUP1 REVERT JUMPDEST PUSH1 0xA DUP2 PUSH1 0xFF AND LT PUSH2 0x722 JUMPI PUSH1 0x0 DUP1 REVERT JUMPDEST DUP3 PUSH1 0xA PUSH1 0x1 PUSH2 0x100 EXP DUP2 SLOAD DUP2 PUSH1 0xFF MUL NOT AND SWAP1 DUP4 PUSH1 0xFF AND MUL OR SWAP1 SSTORE POP DUP2 PUSH1 0xA PUSH1 0x0 PUSH2 0x100 EXP DUP2 SLOAD DUP2 PUSH1 0xFF MUL NOT AND SWAP1 DUP4 PUSH1 0xFF AND MUL OR SWAP1 SSTORE POP DUP1 PUSH1 0xA PUSH1 0x3 PUSH2 0x100 EXP DUP2 SLOAD DUP2 PUSH1 0xFF MUL NOT AND SWAP1 DUP4 PUSH1 0xFF AND MUL OR SWAP1 SSTORE POP PUSH32 0x8F649EEECB19301C91F9B511096FE7CBC4B2B67BC75BFEF33BA3F2745EFC386A DUP4 DUP4 DUP4 PUSH1 0x40 MLOAD PUSH2 0x7A6 SWAP4 SWAP3 SWAP2 SWAP1 PUSH2 0x2651 JUMP JUMPDEST PUSH1 0x40 MLOAD DUP1 SWAP2 SUB SWAP1 LOG1 POP POP POP JUMP JUMPDEST PUSH2 0x7BB PUSH2 0xF6A JUMP JUMPDEST PUSH2 0x7FA JUMPI PUSH1 0x40 MLOAD PUSH32 0x8C379A000000000000000000000000000000000000000000000000000000000 DUP2 MSTORE PUSH1 0x4 ADD PUSH2 0x7F1 SWAP1 PUSH2 0x25BB JUMP JUMPDEST PUSH1 0x40 MLOAD DUP1 SWAP2 SUB SWAP1 REVERT JUMPDEST DUP1 PUSH1 0x6 PUSH1 0x0 DUP5 PUSH20 0xFFFFFFFFFFFFFFFFFFFFFFFFFFFFFFFFFFFFFFFF AND PUSH20 0xFFFFFFFFFFFFFFFFFFFFFFFFFFFFFFFFFFFFFFFF AND DUP2 MSTORE PUSH1 0x20 ADD SWAP1 DUP2 MSTORE PUSH1 0x20 ADD PUSH1 0x0 KECCAK256 PUSH1 0x0 PUSH2 0x100 EXP DUP2 SLOAD DUP2 PUSH1 0xFF MUL NOT AND SWAP1 DUP4 ISZERO ISZERO MUL OR SWAP1 SSTORE POP PUSH32 0xF791A94C7F3569546A71ACF39C0189BD87BD7B7E3EA76CE41FD41D837CC4BBCA DUP3 DUP3 PUSH1 0x40 MLOAD PUSH2 0x882 SWAP3 SWAP2 SWAP1 PUSH2 0x24B5 JUMP JUMPDEST PUSH1 0x40 MLOAD DUP1 SWAP2 SUB SWAP1 LOG1 POP POP JUMP JUMPDEST PUSH2 0x896 PUSH2 0xF6A JUMP JUMPDEST PUSH2 0x8D5 JUMPI PUSH1 0x40 MLOAD PUSH32 0x8C379A000000000000000000000000000000000000000000000000000000000 DUP2 MSTORE PUSH1 0x4 ADD PUSH2 0x8CC SWAP1 PUSH2 0x25BB JUMP JUMPDEST PUSH1 0x40 MLOAD DUP1 SWAP2 SUB SWAP1 REVERT JUMPDEST DUP1 PUSH1 0xA PUSH1 0x2 PUSH2 0x100 EXP DUP2 SLOAD DUP2 PUSH1 0xFF MUL NOT AND SWAP1 DUP4 PUSH1 0xFF AND MUL OR SWAP1 SSTORE POP PUSH32 0x3DC38872C1E356F05CEC7694232D10514DC69DDBDCB883F9687C4D4F7E371E01 DUP2 PUSH1 0x40 MLOAD PUSH2 0x91F SWAP2 SWAP1 PUSH2 0x2636 JUMP JUMPDEST PUSH1 0x40 MLOAD DUP1 SWAP2 SUB SWAP1 LOG1 POP JUMP JUMPDEST PUSH1 0x0 PUSH1 0x5 SLOAD SWAP1 POP SWAP1 JUMP JUMPDEST PUSH1 0x0 PUSH1 0x2 PUSH1 0x15 SWAP1 SLOAD SWAP1 PUSH2 0x100 EXP SWAP1 DIV PUSH1 0xFF AND ISZERO PUSH2 0x950 JUMPI PUSH1 0x0 DUP1 REVERT JUMPDEST PUSH2 0x95B DUP5 DUP5 DUP5 PUSH2 0x1724 JUMP JUMPDEST PUSH2 0xA1C DUP5 PUSH2 0x967 PUSH2 0x1551 JUMP JUMPDEST PUSH2 0xA17 DUP6 PUSH1 0x40 MLOAD DUP1 PUSH1 0x60 ADD PUSH1 0x40 MSTORE DUP1 PUSH1 0x28 DUP2 MSTORE PUSH1 0x20 ADD PUSH2 0x2B79 PUSH1 0x28 SWAP2 CODECOPY PUSH1 0x4 PUSH1 0x0 DUP12 PUSH20 0xFFFFFFFFFFFFFFFFFFFFFFFFFFFFFFFFFFFFFFFF AND PUSH20 0xFFFFFFFFFFFFFFFFFFFFFFFFFFFFFFFFFFFFFFFF AND DUP2 MSTORE PUSH1 0x20 ADD SWAP1 DUP2 MSTORE PUSH1 0x20 ADD PUSH1 0x0 KECCAK256 PUSH1 0x0 PUSH2 0x9CD PUSH2 0x1551 JUMP JUMPDEST PUSH20 0xFFFFFFFFFFFFFFFFFFFFFFFFFFFFFFFFFFFFFFFF AND PUSH20 0xFFFFFFFFFFFFFFFFFFFFFFFFFFFFFFFFFFFFFFFF AND DUP2 MSTORE PUSH1 0x20 ADD SWAP1 DUP2 MSTORE PUSH1 0x20 ADD PUSH1 0x0 KECCAK256 SLOAD PUSH2 0x1CAA SWAP1 SWAP3 SWAP2 SWAP1 PUSH4 0xFFFFFFFF AND JUMP JUMPDEST PUSH2 0x1559 JUMP JUMPDEST PUSH1 0x1 SWAP1 POP SWAP4 SWAP3 POP POP POP JUMP JUMPDEST PUSH2 0xA2F PUSH2 0xF6A JUMP JUMPDEST PUSH2 0xA6E JUMPI PUSH1 0x40 MLOAD PUSH32 0x8C379A000000000000000000000000000000000000000000000000000000000 DUP2 MSTORE PUSH1 0x4 ADD PUSH2 0xA65 SWAP1 PUSH2 0x25BB JUMP JUMPDEST PUSH1 0x40 MLOAD DUP1 SWAP2 SUB SWAP1 REVERT JUMPDEST DUP1 PUSH1 0xF PUSH1 0x0 PUSH2 0x100 EXP DUP2 SLOAD DUP2 PUSH20 0xFFFFFFFFFFFFFFFFFFFFFFFFFFFFFFFFFFFFFFFF MUL NOT AND SWAP1 DUP4 PUSH20 0xFFFFFFFFFFFFFFFFFFFFFFFFFFFFFFFFFFFFFFFF AND MUL OR SWAP1 SSTORE POP POP JUMP JUMPDEST PUSH1 0x0 DUP1 PUSH1 0x0 SWAP1 SWAP2 SWAP3 JUMP JUMPDEST PUSH1 0x0 PUSH1 0x2 PUSH1 0x0 SWAP1 SLOAD SWAP1 PUSH2 0x100 EXP SWAP1 DIV PUSH1 0xFF AND SWAP1 POP SWAP1 JUMP JUMPDEST PUSH1 0x0 PUSH1 0x2 PUSH1 0x15 SWAP1 SLOAD SWAP1 PUSH2 0x100 EXP SWAP1 DIV PUSH1 0xFF AND ISZERO PUSH2 0xAEF JUMPI PUSH1 0x0 DUP1 REVERT JUMPDEST PUSH2 0xB96 PUSH2 0xAFA PUSH2 0x1551 JUMP JUMPDEST DUP5 PUSH2 0xB91 DUP6 PUSH1 0x4 PUSH1 0x0 PUSH2 0xB0B PUSH2 0x1551 JUMP JUMPDEST PUSH20 0xFFFFFFFFFFFFFFFFFFFFFFFFFFFFFFFFFFFFFFFF AND PUSH20 0xFFFFFFFFFFFFFFFFFFFFFFFFFFFFFFFFFFFFFFFF AND DUP2 MSTORE PUSH1 0x20 ADD SWAP1 DUP2 MSTORE PUSH1 0x20 ADD PUSH1 0x0 KECCAK256 PUSH1 0x0 DUP10 PUSH20 0xFFFFFFFFFFFFFFFFFFFFFFFFFFFFFFFFFFFFFFFF AND PUSH20 0xFFFFFFFFFFFFFFFFFFFFFFFFFFFFFFFFFFFFFFFF AND DUP2 MSTORE PUSH1 0x20 ADD SWAP1 DUP2 MSTORE PUSH1 0x20 ADD PUSH1 0x0 KECCAK256 SLOAD PUSH2 0x14F3 SWAP1 SWAP2 SWAP1 PUSH4 0xFFFFFFFF AND JUMP JUMPDEST PUSH2 0x1559 JUMP JUMPDEST PUSH1 0x1 SWAP1 POP SWAP3 SWAP2 POP POP JUMP JUMPDEST PUSH1 0x0 PUSH2 0xBAA PUSH2 0xF6A JUMP JUMPDEST PUSH2 0xBE9 JUMPI PUSH1 0x40 MLOAD PUSH32 0x8C379A000000000000000000000000000000000000000000000000000000000 DUP2 MSTORE PUSH1 0x4 ADD PUSH2 0xBE0 SWAP1 PUSH2 0x25BB JUMP JUMPDEST PUSH1 0x40 MLOAD DUP1 SWAP2 SUB SWAP1 REVERT JUMPDEST PUSH1 0x2 PUSH1 0x15 SWAP1 SLOAD SWAP1 PUSH2 0x100 EXP SWAP1 DIV PUSH1 0xFF AND PUSH2 0xC02 JUMPI PUSH1 0x0 DUP1 REVERT JUMPDEST PUSH1 0x0 PUSH1 0x2 PUSH1 0x15 PUSH2 0x100 EXP DUP2 SLOAD DUP2 PUSH1 0xFF MUL NOT AND SWAP1 DUP4 ISZERO ISZERO MUL OR SWAP1 SSTORE POP PUSH32 0x7805862F689E2F13DF9F062FF482AD3AD112ACA9E0847911ED832E158C525B33 PUSH1 0x40 MLOAD PUSH1 0x40 MLOAD DUP1 SWAP2 SUB SWAP1 LOG1 PUSH1 0x1 SWAP1 POP SWAP1 JUMP JUMPDEST PUSH2 0xC58 PUSH2 0xF6A JUMP JUMPDEST PUSH2 0xC97 JUMPI PUSH1 0x40 MLOAD PUSH32 0x8C379A000000000000000000000000000000000000000000000000000000000 DUP2 MSTORE PUSH1 0x4 ADD PUSH2 0xC8E SWAP1 PUSH2 0x25BB JUMP JUMPDEST PUSH1 0x40 MLOAD DUP1 SWAP2 SUB SWAP1 REVERT JUMPDEST DUP1 PUSH1 0x8 PUSH1 0x0 DUP5 PUSH20 0xFFFFFFFFFFFFFFFFFFFFFFFFFFFFFFFFFFFFFFFF AND PUSH20 0xFFFFFFFFFFFFFFFFFFFFFFFFFFFFFFFFFFFFFFFF AND DUP2 MSTORE PUSH1 0x20 ADD SWAP1 DUP2 MSTORE PUSH1 0x20 ADD PUSH1 0x0 KECCAK256 PUSH1 0x0 PUSH2 0x100 EXP DUP2 SLOAD DUP2 PUSH1 0xFF MUL NOT AND SWAP1 DUP4 ISZERO ISZERO MUL OR SWAP1 SSTORE POP PUSH32 0xE41EFE2EC3272DFF61FC1D94FE807A61B44E66814ABE5F463E98A100B9BB852C DUP3 DUP3 PUSH1 0x40 MLOAD PUSH2 0xD1F SWAP3 SWAP2 SWAP1 PUSH2 0x24B5 JUMP JUMPDEST PUSH1 0x40 MLOAD DUP1 SWAP2 SUB SWAP1 LOG1 POP POP JUMP JUMPDEST PUSH1 0x2 PUSH1 0x15 SWAP1 SLOAD SWAP1 PUSH2 0x100 EXP SWAP1 DIV PUSH1 0xFF AND DUP2 JUMP JUMPDEST PUSH1 0x0 PUSH1 0x3 PUSH1 0x0 DUP4 PUSH20 0xFFFFFFFFFFFFFFFFFFFFFFFFFFFFFFFFFFFFFFFF AND PUSH20 0xFFFFFFFFFFFFFFFFFFFFFFFFFFFFFFFFFFFFFFFF AND DUP2 MSTORE PUSH1 0x20 ADD SWAP1 DUP2 MSTORE PUSH1 0x20 ADD PUSH1 0x0 KECCAK256 SLOAD SWAP1 POP SWAP2 SWAP1 POP JUMP JUMPDEST PUSH2 0xD8F PUSH2 0xF6A JUMP JUMPDEST PUSH2 0xDCE JUMPI PUSH1 0x40 MLOAD PUSH32 0x8C379A000000000000000000000000000000000000000000000000000000000 DUP2 MSTORE PUSH1 0x4 ADD PUSH2 0xDC5 SWAP1 PUSH2 0x25BB JUMP JUMPDEST PUSH1 0x40 MLOAD DUP1 SWAP2 SUB SWAP1 REVERT JUMPDEST PUSH1 0x0 PUSH20 0xFFFFFFFFFFFFFFFFFFFFFFFFFFFFFFFFFFFFFFFF AND PUSH1 0x2 PUSH1 0x1 SWAP1 SLOAD SWAP1 PUSH2 0x100 EXP SWAP1 DIV PUSH20 0xFFFFFFFFFFFFFFFFFFFFFFFFFFFFFFFFFFFFFFFF AND PUSH20 0xFFFFFFFFFFFFFFFFFFFFFFFFFFFFFFFFFFFFFFFF AND PUSH32 0x8BE0079C531659141344CD1FD0A4F28419497F9722A3DAAFE3B4186F6B6457E0 PUSH1 0x40 MLOAD PUSH1 0x40 MLOAD DUP1 SWAP2 SUB SWAP1 LOG3 PUSH1 0x0 PUSH1 0x2 PUSH1 0x1 PUSH2 0x100 EXP DUP2 SLOAD DUP2 PUSH20 0xFFFFFFFFFFFFFFFFFFFFFFFFFFFFFFFFFFFFFFFF MUL NOT AND SWAP1 DUP4 PUSH20 0xFFFFFFFFFFFFFFFFFFFFFFFFFFFFFFFFFFFFFFFF AND MUL OR SWAP1 SSTORE POP JUMP JUMPDEST PUSH1 0x0 PUSH2 0xE99 PUSH2 0xF6A JUMP JUMPDEST PUSH2 0xED8 JUMPI PUSH1 0x40 MLOAD PUSH32 0x8C379A000000000000000000000000000000000000000000000000000000000 DUP2 MSTORE PUSH1 0x4 ADD PUSH2 0xECF SWAP1 PUSH2 0x25BB JUMP JUMPDEST PUSH1 0x40 MLOAD DUP1 SWAP2 SUB SWAP1 REVERT JUMPDEST PUSH1 0x2 PUSH1 0x15 SWAP1 SLOAD SWAP1 PUSH2 0x100 EXP SWAP1 DIV PUSH1 0xFF AND ISZERO PUSH2 0xEF2 JUMPI PUSH1 0x0 DUP1 REVERT JUMPDEST PUSH1 0x1 PUSH1 0x2 PUSH1 0x15 PUSH2 0x100 EXP DUP2 SLOAD DUP2 PUSH1 0xFF MUL NOT AND SWAP1 DUP4 ISZERO ISZERO MUL OR SWAP1 SSTORE POP PUSH32 0x6985A02210A168E66602D3235CB6DB0E70F92B3BA4D376A33C0F3D9434BFF625 PUSH1 0x40 MLOAD PUSH1 0x40 MLOAD DUP1 SWAP2 SUB SWAP1 LOG1 PUSH1 0x1 SWAP1 POP SWAP1 JUMP JUMPDEST PUSH1 0x0 PUSH1 0x2 PUSH1 0x1 SWAP1 SLOAD SWAP1 PUSH2 0x100 EXP SWAP1 DIV PUSH20 0xFFFFFFFFFFFFFFFFFFFFFFFFFFFFFFFFFFFFFFFF AND SWAP1 POP SWAP1 JUMP JUMPDEST PUSH1 0x0 PUSH1 0x2 PUSH1 0x1 SWAP1 SLOAD SWAP1 PUSH2 0x100 EXP SWAP1 DIV PUSH20 0xFFFFFFFFFFFFFFFFFFFFFFFFFFFFFFFFFFFFFFFF AND PUSH20 0xFFFFFFFFFFFFFFFFFFFFFFFFFFFFFFFFFFFFFFFF AND PUSH2 0xFAD PUSH2 0x1551 JUMP JUMPDEST PUSH20 0xFFFFFFFFFFFFFFFFFFFFFFFFFFFFFFFFFFFFFFFF AND EQ SWAP1 POP SWAP1 JUMP JUMPDEST PUSH1 0x60 PUSH1 0x1 DUP1 SLOAD PUSH2 0xFD8 SWAP1 PUSH2 0x2841 JUMP JUMPDEST DUP1 PUSH1 0x1F ADD PUSH1 0x20 DUP1 SWAP2 DIV MUL PUSH1 0x20 ADD PUSH1 0x40 MLOAD SWAP1 DUP2 ADD PUSH1 0x40 MSTORE DUP1 SWAP3 SWAP2 SWAP1 DUP2 DUP2 MSTORE PUSH1 0x20 ADD DUP3 DUP1 SLOAD PUSH2 0x1004 SWAP1 PUSH2 0x2841 JUMP JUMPDEST DUP1 ISZERO PUSH2 0x1051 JUMPI DUP1 PUSH1 0x1F LT PUSH2 0x1026 JUMPI PUSH2 0x100 DUP1 DUP4 SLOAD DIV MUL DUP4 MSTORE SWAP2 PUSH1 0x20 ADD SWAP2 PUSH2 0x1051 JUMP JUMPDEST DUP3 ADD SWAP2 SWAP1 PUSH1 0x0 MSTORE PUSH1 0x20 PUSH1 0x0 KECCAK256 SWAP1 JUMPDEST DUP2 SLOAD DUP2 MSTORE SWAP1 PUSH1 0x1 ADD SWAP1 PUSH1 0x20 ADD DUP1 DUP4 GT PUSH2 0x1034 JUMPI DUP3 SWAP1 SUB PUSH1 0x1F AND DUP3 ADD SWAP2 JUMPDEST POP POP POP POP POP SWAP1 POP SWAP1 JUMP JUMPDEST PUSH1 0x0 PUSH1 0x2 PUSH1 0x15 SWAP1 SLOAD SWAP1 PUSH2 0x100 EXP SWAP1 DIV PUSH1 0xFF AND ISZERO PUSH2 0x1077 JUMPI PUSH1 0x0 DUP1 REVERT JUMPDEST PUSH2 0x1138 PUSH2 0x1082 PUSH2 0x1551 JUMP JUMPDEST DUP5 PUSH2 0x1133 DUP6 PUSH1 0x40 MLOAD DUP1 PUSH1 0x60 ADD PUSH1 0x40 MSTORE DUP1 PUSH1 0x25 DUP2 MSTORE PUSH1 0x20 ADD PUSH2 0x2C12 PUSH1 0x25 SWAP2 CODECOPY PUSH1 0x4 PUSH1 0x0 PUSH2 0x10AC PUSH2 0x1551 JUMP JUMPDEST PUSH20 0xFFFFFFFFFFFFFFFFFFFFFFFFFFFFFFFFFFFFFFFF AND PUSH20 0xFFFFFFFFFFFFFFFFFFFFFFFFFFFFFFFFFFFFFFFF AND DUP2 MSTORE PUSH1 0x20 ADD SWAP1 DUP2 MSTORE PUSH1 0x20 ADD PUSH1 0x0 KECCAK256 PUSH1 0x0 DUP11 PUSH20 0xFFFFFFFFFFFFFFFFFFFFFFFFFFFFFFFFFFFFFFFF AND PUSH20 0xFFFFFFFFFFFFFFFFFFFFFFFFFFFFFFFFFFFFFFFF AND DUP2 MSTORE PUSH1 0x20 ADD SWAP1 DUP2 MSTORE PUSH1 0x20 ADD PUSH1 0x0 KECCAK256 SLOAD PUSH2 0x1CAA SWAP1 SWAP3 SWAP2 SWAP1 PUSH4 0xFFFFFFFF AND JUMP JUMPDEST PUSH2 0x1559 JUMP JUMPDEST PUSH1 0x1 SWAP1 POP SWAP3 SWAP2 POP POP JUMP JUMPDEST PUSH2 0x114A PUSH2 0xF6A JUMP JUMPDEST PUSH2 0x1189 JUMPI PUSH1 0x40 MLOAD PUSH32 0x8C379A000000000000000000000000000000000000000000000000000000000 DUP2 MSTORE PUSH1 0x4 ADD PUSH2 0x1180 SWAP1 PUSH2 0x25BB JUMP JUMPDEST PUSH1 0x40 MLOAD DUP1 SWAP2 SUB SWAP1 REVERT JUMPDEST DUP1 PUSH1 0xD PUSH1 0x0 PUSH2 0x100 EXP DUP2 SLOAD DUP2 PUSH20 0xFFFFFFFFFFFFFFFFFFFFFFFFFFFFFFFFFFFFFFFF MUL NOT AND SWAP1 DUP4 PUSH20 0xFFFFFFFFFFFFFFFFFFFFFFFFFFFFFFFFFFFFFFFF AND MUL OR SWAP1 SSTORE POP PUSH32 0xF15D5716DB5D5D79F695E387FC3E7C89982C0DF6F4B81A006E38CFDC850A712E DUP2 PUSH1 0x40 MLOAD PUSH2 0x11F9 SWAP2 SWAP1 PUSH2 0x249A JUMP JUMPDEST PUSH1 0x40 MLOAD DUP1 SWAP2 SUB SWAP1 LOG1 POP JUMP JUMPDEST PUSH1 0x0 PUSH1 0x2 PUSH1 0x15 SWAP1 SLOAD SWAP1 PUSH2 0x100 EXP SWAP1 DIV PUSH1 0xFF AND ISZERO PUSH2 0x1220 JUMPI PUSH1 0x0 DUP1 REVERT JUMPDEST PUSH2 0x1232 PUSH2 0x122B PUSH2 0x1551 JUMP JUMPDEST DUP5 DUP5 PUSH2 0x1724 JUMP JUMPDEST PUSH1 0x1 SWAP1 POP SWAP3 SWAP2 POP POP JUMP JUMPDEST PUSH2 0x1244 PUSH2 0xF6A JUMP JUMPDEST PUSH2 0x1283 JUMPI PUSH1 0x40 MLOAD PUSH32 0x8C379A000000000000000000000000000000000000000000000000000000000 DUP2 MSTORE PUSH1 0x4 ADD PUSH2 0x127A SWAP1 PUSH2 0x25BB JUMP JUMPDEST PUSH1 0x40 MLOAD DUP1 SWAP2 SUB SWAP1 REVERT JUMPDEST DUP1 PUSH1 0xB DUP2 SWAP1 SSTORE POP POP JUMP JUMPDEST PUSH2 0x1295 PUSH2 0xF6A JUMP JUMPDEST PUSH2 0x12D4 JUMPI PUSH1 0x40 MLOAD PUSH32 0x8C379A000000000000000000000000000000000000000000000000000000000 DUP2 MSTORE PUSH1 0x4 ADD PUSH2 0x12CB SWAP1 PUSH2 0x25BB JUMP JUMPDEST PUSH1 0x40 MLOAD DUP1 SWAP2 SUB SWAP1 REVERT JUMPDEST DUP1 PUSH1 0x7 PUSH1 0x0 DUP5 PUSH20 0xFFFFFFFFFFFFFFFFFFFFFFFFFFFFFFFFFFFFFFFF AND PUSH20 0xFFFFFFFFFFFFFFFFFFFFFFFFFFFFFFFFFFFFFFFF AND DUP2 MSTORE PUSH1 0x20 ADD SWAP1 DUP2 MSTORE PUSH1 0x20 ADD PUSH1 0x0 KECCAK256 PUSH1 0x0 PUSH2 0x100 EXP DUP2 SLOAD DUP2 PUSH1 0xFF MUL NOT AND SWAP1 DUP4 ISZERO ISZERO MUL OR SWAP1 SSTORE POP PUSH32 0x50D3135C1831A86BDC04740F17C94415767240D338DF5795B37FB5B8272F80D7 DUP3 DUP3 PUSH1 0x40 MLOAD PUSH2 0x135C SWAP3 SWAP2 SWAP1 PUSH2 0x24B5 JUMP JUMPDEST PUSH1 0x40 MLOAD DUP1 SWAP2 SUB SWAP1 LOG1 POP POP JUMP JUMPDEST PUSH2 0x1370 PUSH2 0xF6A JUMP JUMPDEST PUSH2 0x13AF JUMPI PUSH1 0x40 MLOAD PUSH32 0x8C379A000000000000000000000000000000000000000000000000000000000 DUP2 MSTORE PUSH1 0x4 ADD PUSH2 0x13A6 SWAP1 PUSH2 0x25BB JUMP JUMPDEST PUSH1 0x40 MLOAD DUP1 SWAP2 SUB SWAP1 REVERT JUMPDEST DUP1 PUSH1 0xE PUSH1 0x0 PUSH2 0x100 EXP DUP2 SLOAD DUP2 PUSH20 0xFFFFFFFFFFFFFFFFFFFFFFFFFFFFFFFFFFFFFFFF MUL NOT AND SWAP1 DUP4 PUSH20 0xFFFFFFFFFFFFFFFFFFFFFFFFFFFFFFFFFFFFFFFF AND MUL OR SWAP1 SSTORE POP POP JUMP JUMPDEST PUSH1 0x0 PUSH1 0x4 PUSH1 0x0 DUP5 PUSH20 0xFFFFFFFFFFFFFFFFFFFFFFFFFFFFFFFFFFFFFFFF AND PUSH20 0xFFFFFFFFFFFFFFFFFFFFFFFFFFFFFFFFFFFFFFFF AND DUP2 MSTORE PUSH1 0x20 ADD SWAP1 DUP2 MSTORE PUSH1 0x20 ADD PUSH1 0x0 KECCAK256 PUSH1 0x0 DUP4 PUSH20 0xFFFFFFFFFFFFFFFFFFFFFFFFFFFFFFFFFFFFFFFF AND PUSH20 0xFFFFFFFFFFFFFFFFFFFFFFFFFFFFFFFFFFFFFFFF AND DUP2 MSTORE PUSH1 0x20 ADD SWAP1 DUP2 MSTORE PUSH1 0x20 ADD PUSH1 0x0 KECCAK256 SLOAD SWAP1 POP SWAP3 SWAP2 POP POP JUMP JUMPDEST PUSH2 0x1482 PUSH2 0xF6A JUMP JUMPDEST PUSH2 0x14C1 JUMPI PUSH1 0x40 MLOAD PUSH32 0x8C379A000000000000000000000000000000000000000000000000000000000 DUP2 MSTORE PUSH1 0x4 ADD PUSH2 0x14B8 SWAP1 PUSH2 0x25BB JUMP JUMPDEST PUSH1 0x40 MLOAD DUP1 SWAP2 SUB SWAP1 REVERT JUMPDEST PUSH2 0x14CA DUP2 PUSH2 0x1D0E JUMP JUMPDEST POP JUMP JUMPDEST PUSH1 0xE PUSH1 0x0 SWAP1 SLOAD SWAP1 PUSH2 0x100 EXP SWAP1 DIV PUSH20 0xFFFFFFFFFFFFFFFFFFFFFFFFFFFFFFFFFFFFFFFF AND DUP2 JUMP JUMPDEST PUSH1 0x0 DUP1 DUP3 DUP5 PUSH2 0x1502 SWAP2 SWAP1 PUSH2 0x26A4 JUMP JUMPDEST SWAP1 POP DUP4 DUP2 LT ISZERO PUSH2 0x1547 JUMPI PUSH1 0x40 MLOAD PUSH32 0x8C379A000000000000000000000000000000000000000000000000000000000 DUP2 MSTORE PUSH1 0x4 ADD PUSH2 0x153E SWAP1 PUSH2 0x257B JUMP JUMPDEST PUSH1 0x40 MLOAD DUP1 SWAP2 SUB SWAP1 REVERT JUMPDEST DUP1 SWAP2 POP POP SWAP3 SWAP2 POP POP JUMP JUMPDEST PUSH1 0x0 CALLER SWAP1 POP SWAP1 JUMP JUMPDEST PUSH1 0x0 PUSH20 0xFFFFFFFFFFFFFFFFFFFFFFFFFFFFFFFFFFFFFFFF AND DUP4 PUSH20 0xFFFFFFFFFFFFFFFFFFFFFFFFFFFFFFFFFFFFFFFF AND EQ ISZERO PUSH2 0x15C9 JUMPI PUSH1 0x40 MLOAD PUSH32 0x8C379A000000000000000000000000000000000000000000000000000000000 DUP2 MSTORE PUSH1 0x4 ADD PUSH2 0x15C0 SWAP1 PUSH2 0x253B JUMP JUMPDEST PUSH1 0x40 MLOAD DUP1 SWAP2 SUB SWAP1 REVERT JUMPDEST PUSH1 0x0 PUSH20 0xFFFFFFFFFFFFFFFFFFFFFFFFFFFFFFFFFFFFFFFF AND DUP3 PUSH20 0xFFFFFFFFFFFFFFFFFFFFFFFFFFFFFFFFFFFFFFFF AND EQ ISZERO PUSH2 0x1639 JUMPI PUSH1 0x40 MLOAD PUSH32 0x8C379A000000000000000000000000000000000000000000000000000000000 DUP2 MSTORE PUSH1 0x4 ADD PUSH2 0x1630 SWAP1 PUSH2 0x25FB JUMP JUMPDEST PUSH1 0x40 MLOAD DUP1 SWAP2 SUB SWAP1 REVERT JUMPDEST DUP1 PUSH1 0x4 PUSH1 0x0 DUP6 PUSH20 0xFFFFFFFFFFFFFFFFFFFFFFFFFFFFFFFFFFFFFFFF AND PUSH20 0xFFFFFFFFFFFFFFFFFFFFFFFFFFFFFFFFFFFFFFFF AND DUP2 MSTORE PUSH1 0x20 ADD SWAP1 DUP2 MSTORE PUSH1 0x20 ADD PUSH1 0x0 KECCAK256 PUSH1 0x0 DUP5 PUSH20 0xFFFFFFFFFFFFFFFFFFFFFFFFFFFFFFFFFFFFFFFF AND PUSH20 0xFFFFFFFFFFFFFFFFFFFFFFFFFFFFFFFFFFFFFFFF AND DUP2 MSTORE PUSH1 0x20 ADD SWAP1 DUP2 MSTORE PUSH1 0x20 ADD PUSH1 0x0 KECCAK256 DUP2 SWAP1 SSTORE POP DUP2 PUSH20 0xFFFFFFFFFFFFFFFFFFFFFFFFFFFFFFFFFFFFFFFF AND DUP4 PUSH20 0xFFFFFFFFFFFFFFFFFFFFFFFFFFFFFFFFFFFFFFFF AND PUSH32 0x8C5BE1E5EBEC7D5BD14F71427D1E84F3DD0314C0F7B2291E5B200AC8C7C3B925 DUP4 PUSH1 0x40 MLOAD PUSH2 0x1717 SWAP2 SWAP1 PUSH2 0x261B JUMP JUMPDEST PUSH1 0x40 MLOAD DUP1 SWAP2 SUB SWAP1 LOG3 POP POP POP JUMP JUMPDEST ADDRESS PUSH20 0xFFFFFFFFFFFFFFFFFFFFFFFFFFFFFFFFFFFFFFFF AND DUP3 PUSH20 0xFFFFFFFFFFFFFFFFFFFFFFFFFFFFFFFFFFFFFFFF AND EQ ISZERO PUSH1 0x40 MLOAD DUP1 PUSH1 0x60 ADD PUSH1 0x40 MSTORE DUP1 PUSH1 0x21 DUP2 MSTORE PUSH1 0x20 ADD PUSH2 0x2BA1 PUSH1 0x21 SWAP2 CODECOPY SWAP1 PUSH2 0x17AE JUMPI PUSH1 0x40 MLOAD PUSH32 0x8C379A000000000000000000000000000000000000000000000000000000000 DUP2 MSTORE PUSH1 0x4 ADD PUSH2 0x17A5 SWAP2 SWAP1 PUSH2 0x24F9 JUMP JUMPDEST PUSH1 0x40 MLOAD DUP1 SWAP2 SUB SWAP1 REVERT JUMPDEST POP PUSH1 0xE PUSH1 0x0 SWAP1 SLOAD SWAP1 PUSH2 0x100 EXP SWAP1 DIV PUSH20 0xFFFFFFFFFFFFFFFFFFFFFFFFFFFFFFFFFFFFFFFF AND PUSH20 0xFFFFFFFFFFFFFFFFFFFFFFFFFFFFFFFFFFFFFFFF AND DUP4 PUSH20 0xFFFFFFFFFFFFFFFFFFFFFFFFFFFFFFFFFFFFFFFF AND EQ ISZERO PUSH2 0x1815 JUMPI PUSH1 0xB SLOAD DUP2 GT ISZERO PUSH2 0x1814 JUMPI PUSH1 0x0 DUP1 REVERT JUMPDEST JUMPDEST PUSH1 0x6 PUSH1 0x0 DUP5 PUSH20 0xFFFFFFFFFFFFFFFFFFFFFFFFFFFFFFFFFFFFFFFF AND PUSH20 0xFFFFFFFFFFFFFFFFFFFFFFFFFFFFFFFFFFFFFFFF AND DUP2 MSTORE PUSH1 0x20 ADD SWAP1 DUP2 MSTORE PUSH1 0x20 ADD PUSH1 0x0 KECCAK256 PUSH1 0x0 SWAP1 SLOAD SWAP1 PUSH2 0x100 EXP SWAP1 DIV PUSH1 0xFF AND ISZERO PUSH2 0x18A2 JUMPI PUSH1 0x40 MLOAD PUSH32 0x8C379A000000000000000000000000000000000000000000000000000000000 DUP2 MSTORE PUSH1 0x4 ADD PUSH2 0x1899 SWAP1 PUSH2 0x259B JUMP JUMPDEST PUSH1 0x40 MLOAD DUP1 SWAP2 SUB SWAP1 REVERT JUMPDEST PUSH1 0x1 ISZERO ISZERO PUSH1 0x7 PUSH1 0x0 DUP6 PUSH20 0xFFFFFFFFFFFFFFFFFFFFFFFFFFFFFFFFFFFFFFFF AND PUSH20 0xFFFFFFFFFFFFFFFFFFFFFFFFFFFFFFFFFFFFFFFF AND DUP2 MSTORE PUSH1 0x20 ADD SWAP1 DUP2 MSTORE PUSH1 0x20 ADD PUSH1 0x0 KECCAK256 PUSH1 0x0 SWAP1 SLOAD SWAP1 PUSH2 0x100 EXP SWAP1 DIV PUSH1 0xFF AND ISZERO ISZERO EQ ISZERO PUSH2 0x1930 JUMPI PUSH1 0x64 PUSH1 0xA PUSH1 0x0 SWAP1 SLOAD SWAP1 PUSH2 0x100 EXP SWAP1 DIV PUSH1 0xFF AND PUSH1 0xFF AND DUP3 PUSH2 0x191B SWAP2 SWAP1 PUSH2 0x272B JUMP JUMPDEST PUSH2 0x1925 SWAP2 SWAP1 PUSH2 0x26FA JUMP JUMPDEST PUSH1 0xC DUP2 SWAP1 SSTORE POP PUSH2 0x1C52 JUMP JUMPDEST PUSH1 0x1 ISZERO ISZERO PUSH1 0x7 PUSH1 0x0 DUP5 PUSH20 0xFFFFFFFFFFFFFFFFFFFFFFFFFFFFFFFFFFFFFFFF AND PUSH20 0xFFFFFFFFFFFFFFFFFFFFFFFFFFFFFFFFFFFFFFFF AND DUP2 MSTORE PUSH1 0x20 ADD SWAP1 DUP2 MSTORE PUSH1 0x20 ADD PUSH1 0x0 KECCAK256 PUSH1 0x0 SWAP1 SLOAD SWAP1 PUSH2 0x100 EXP SWAP1 DIV PUSH1 0xFF AND ISZERO ISZERO EQ ISZERO PUSH2 0x1ABC JUMPI PUSH1 0x64 PUSH1 0xA PUSH1 0x1 SWAP1 SLOAD SWAP1 PUSH2 0x100 EXP SWAP1 DIV PUSH1 0xFF AND PUSH1 0xFF AND DUP3 PUSH2 0x19A9 SWAP2 SWAP1 PUSH2 0x272B JUMP JUMPDEST PUSH2 0x19B3 SWAP2 SWAP1 PUSH2 0x26FA JUMP JUMPDEST PUSH1 0xC DUP2 SWAP1 SSTORE POP PUSH1 0xA PUSH1 0x2 SWAP1 SLOAD SWAP1 PUSH2 0x100 EXP SWAP1 DIV PUSH1 0xFF AND PUSH1 0xFF AND TIMESTAMP PUSH2 0x19D7 SWAP2 SWAP1 PUSH2 0x2785 JUMP JUMPDEST PUSH1 0x9 PUSH1 0x0 DUP6 PUSH20 0xFFFFFFFFFFFFFFFFFFFFFFFFFFFFFFFFFFFFFFFF AND PUSH20 0xFFFFFFFFFFFFFFFFFFFFFFFFFFFFFFFFFFFFFFFF AND DUP2 MSTORE PUSH1 0x20 ADD SWAP1 DUP2 MSTORE PUSH1 0x20 ADD PUSH1 0x0 KECCAK256 SLOAD LT PUSH1 0x40 MLOAD DUP1 PUSH1 0x60 ADD PUSH1 0x40 MSTORE DUP1 PUSH1 0x2A DUP2 MSTORE PUSH1 0x20 ADD PUSH2 0x2BC2 PUSH1 0x2A SWAP2 CODECOPY SWAP1 PUSH2 0x1A72 JUMPI PUSH1 0x40 MLOAD PUSH32 0x8C379A000000000000000000000000000000000000000000000000000000000 DUP2 MSTORE PUSH1 0x4 ADD PUSH2 0x1A69 SWAP2 SWAP1 PUSH2 0x24F9 JUMP JUMPDEST PUSH1 0x40 MLOAD DUP1 SWAP2 SUB SWAP1 REVERT JUMPDEST POP TIMESTAMP PUSH1 0x9 PUSH1 0x0 DUP6 PUSH20 0xFFFFFFFFFFFFFFFFFFFFFFFFFFFFFFFFFFFFFFFF AND PUSH20 0xFFFFFFFFFFFFFFFFFFFFFFFFFFFFFFFFFFFFFFFF AND DUP2 MSTORE PUSH1 0x20 ADD SWAP1 DUP2 MSTORE PUSH1 0x20 ADD PUSH1 0x0 KECCAK256 DUP2 SWAP1 SSTORE POP PUSH2 0x1C51 JUMP JUMPDEST PUSH1 0x8 PUSH1 0x0 DUP5 PUSH20 0xFFFFFFFFFFFFFFFFFFFFFFFFFFFFFFFFFFFFFFFF AND PUSH20 0xFFFFFFFFFFFFFFFFFFFFFFFFFFFFFFFFFFFFFFFF AND DUP2 MSTORE PUSH1 0x20 ADD SWAP1 DUP2 MSTORE PUSH1 0x20 ADD PUSH1 0x0 KECCAK256 PUSH1 0x0 SWAP1 SLOAD SWAP1 PUSH2 0x100 EXP SWAP1 DIV PUSH1 0xFF AND DUP1 PUSH2 0x1B5D JUMPI POP PUSH1 0x8 PUSH1 0x0 DUP4 PUSH20 0xFFFFFFFFFFFFFFFFFFFFFFFFFFFFFFFFFFFFFFFF AND PUSH20 0xFFFFFFFFFFFFFFFFFFFFFFFFFFFFFFFFFFFFFFFF AND DUP2 MSTORE PUSH1 0x20 ADD SWAP1 DUP2 MSTORE PUSH1 0x20 ADD PUSH1 0x0 KECCAK256 PUSH1 0x0 SWAP1 SLOAD SWAP1 PUSH2 0x100 EXP SWAP1 DIV PUSH1 0xFF AND JUMPDEST DUP1 PUSH2 0x1BB5 JUMPI POP PUSH1 0xD PUSH1 0x0 SWAP1 SLOAD SWAP1 PUSH2 0x100 EXP SWAP1 DIV PUSH20 0xFFFFFFFFFFFFFFFFFFFFFFFFFFFFFFFFFFFFFFFF AND PUSH20 0xFFFFFFFFFFFFFFFFFFFFFFFFFFFFFFFFFFFFFFFF AND DUP4 PUSH20 0xFFFFFFFFFFFFFFFFFFFFFFFFFFFFFFFFFFFFFFFF AND EQ JUMPDEST DUP1 PUSH2 0x1C0D JUMPI POP PUSH1 0xD PUSH1 0x0 SWAP1 SLOAD SWAP1 PUSH2 0x100 EXP SWAP1 DIV PUSH20 0xFFFFFFFFFFFFFFFFFFFFFFFFFFFFFFFFFFFFFFFF AND PUSH20 0xFFFFFFFFFFFFFFFFFFFFFFFFFFFFFFFFFFFFFFFF AND DUP3 PUSH20 0xFFFFFFFFFFFFFFFFFFFFFFFFFFFFFFFFFFFFFFFF AND EQ JUMPDEST ISZERO PUSH2 0x1C1F JUMPI PUSH1 0x0 PUSH1 0xC DUP2 SWAP1 SSTORE POP PUSH2 0x1C50 JUMP JUMPDEST PUSH1 0x64 PUSH1 0xA PUSH1 0x3 SWAP1 SLOAD SWAP1 PUSH2 0x100 EXP SWAP1 DIV PUSH1 0xFF AND PUSH1 0xFF AND DUP3 PUSH2 0x1C3F SWAP2 SWAP1 PUSH2 0x272B JUMP JUMPDEST PUSH2 0x1C49 SWAP2 SWAP1 PUSH2 0x26FA JUMP JUMPDEST PUSH1 0xC DUP2 SWAP1 SSTORE POP JUMPDEST JUMPDEST JUMPDEST PUSH1 0x0 PUSH1 0xC SLOAD GT ISZERO PUSH2 0x1C8D JUMPI PUSH2 0x1C8C DUP4 PUSH1 0xD PUSH1 0x0 SWAP1 SLOAD SWAP1 PUSH2 0x100 EXP SWAP1 DIV PUSH20 0xFFFFFFFFFFFFFFFFFFFFFFFFFFFFFFFFFFFFFFFF AND PUSH1 0xC SLOAD PUSH2 0x1E3E JUMP JUMPDEST JUMPDEST PUSH2 0x1CA5 DUP4 DUP4 PUSH1 0xC SLOAD DUP5 PUSH2 0x1CA0 SWAP2 SWAP1 PUSH2 0x2785 JUMP JUMPDEST PUSH2 0x1E3E JUMP JUMPDEST POP POP POP JUMP JUMPDEST PUSH1 0x0 DUP4 DUP4 GT ISZERO DUP3 SWAP1 PUSH2 0x1CF2 JUMPI PUSH1 0x40 MLOAD PUSH32 0x8C379A000000000000000000000000000000000000000000000000000000000 DUP2 MSTORE PUSH1 0x4 ADD PUSH2 0x1CE9 SWAP2 SWAP1 PUSH2 0x24F9 JUMP JUMPDEST PUSH1 0x40 MLOAD DUP1 SWAP2 SUB SWAP1 REVERT JUMPDEST POP PUSH1 0x0 DUP4 DUP6 PUSH2 0x1D01 SWAP2 SWAP1 PUSH2 0x2785 JUMP JUMPDEST SWAP1 POP DUP1 SWAP2 POP POP SWAP4 SWAP3 POP POP POP JUMP JUMPDEST PUSH1 0x0 PUSH20 0xFFFFFFFFFFFFFFFFFFFFFFFFFFFFFFFFFFFFFFFF AND DUP2 PUSH20 0xFFFFFFFFFFFFFFFFFFFFFFFFFFFFFFFFFFFFFFFF AND EQ ISZERO PUSH2 0x1D7E JUMPI PUSH1 0x40 MLOAD PUSH32 0x8C379A000000000000000000000000000000000000000000000000000000000 DUP2 MSTORE PUSH1 0x4 ADD PUSH2 0x1D75 SWAP1 PUSH2 0x255B JUMP JUMPDEST PUSH1 0x40 MLOAD DUP1 SWAP2 SUB SWAP1 REVERT JUMPDEST DUP1 PUSH20 0xFFFFFFFFFFFFFFFFFFFFFFFFFFFFFFFFFFFFFFFF AND PUSH1 0x2 PUSH1 0x1 SWAP1 SLOAD SWAP1 PUSH2 0x100 EXP SWAP1 DIV PUSH20 0xFFFFFFFFFFFFFFFFFFFFFFFFFFFFFFFFFFFFFFFF AND PUSH20 0xFFFFFFFFFFFFFFFFFFFFFFFFFFFFFFFFFFFFFFFF AND PUSH32 0x8BE0079C531659141344CD1FD0A4F28419497F9722A3DAAFE3B4186F6B6457E0 PUSH1 0x40 MLOAD PUSH1 0x40 MLOAD DUP1 SWAP2 SUB SWAP1 LOG3 DUP1 PUSH1 0x2 PUSH1 0x1 PUSH2 0x100 EXP DUP2 SLOAD DUP2 PUSH20 0xFFFFFFFFFFFFFFFFFFFFFFFFFFFFFFFFFFFFFFFF MUL NOT AND SWAP1 DUP4 PUSH20 0xFFFFFFFFFFFFFFFFFFFFFFFFFFFFFFFFFFFFFFFF AND MUL OR SWAP1 SSTORE POP POP JUMP JUMPDEST PUSH1 0x0 PUSH20 0xFFFFFFFFFFFFFFFFFFFFFFFFFFFFFFFFFFFFFFFF AND DUP4 PUSH20 0xFFFFFFFFFFFFFFFFFFFFFFFFFFFFFFFFFFFFFFFF AND EQ ISZERO PUSH2 0x1EAE JUMPI PUSH1 0x40 MLOAD PUSH32 0x8C379A000000000000000000000000000000000000000000000000000000000 DUP2 MSTORE PUSH1 0x4 ADD PUSH2 0x1EA5 SWAP1 PUSH2 0x251B JUMP JUMPDEST PUSH1 0x40 MLOAD DUP1 SWAP2 SUB SWAP1 REVERT JUMPDEST PUSH1 0x0 PUSH20 0xFFFFFFFFFFFFFFFFFFFFFFFFFFFFFFFFFFFFFFFF AND DUP3 PUSH20 0xFFFFFFFFFFFFFFFFFFFFFFFFFFFFFFFFFFFFFFFF AND EQ ISZERO PUSH2 0x1F1E JUMPI PUSH1 0x40 MLOAD PUSH32 0x8C379A000000000000000000000000000000000000000000000000000000000 DUP2 MSTORE PUSH1 0x4 ADD PUSH2 0x1F15 SWAP1 PUSH2 0x25DB JUMP JUMPDEST PUSH1 0x40 MLOAD DUP1 SWAP2 SUB SWAP1 REVERT JUMPDEST PUSH2 0x1F8A DUP2 PUSH1 0x40 MLOAD DUP1 PUSH1 0x60 ADD PUSH1 0x40 MSTORE DUP1 PUSH1 0x26 DUP2 MSTORE PUSH1 0x20 ADD PUSH2 0x2BEC PUSH1 0x26 SWAP2 CODECOPY PUSH1 0x3 PUSH1 0x0 DUP8 PUSH20 0xFFFFFFFFFFFFFFFFFFFFFFFFFFFFFFFFFFFFFFFF AND PUSH20 0xFFFFFFFFFFFFFFFFFFFFFFFFFFFFFFFFFFFFFFFF AND DUP2 MSTORE PUSH1 0x20 ADD SWAP1 DUP2 MSTORE PUSH1 0x20 ADD PUSH1 0x0 KECCAK256 SLOAD PUSH2 0x1CAA SWAP1 SWAP3 SWAP2 SWAP1 PUSH4 0xFFFFFFFF AND JUMP JUMPDEST PUSH1 0x3 PUSH1 0x0 DUP6 PUSH20 0xFFFFFFFFFFFFFFFFFFFFFFFFFFFFFFFFFFFFFFFF AND PUSH20 0xFFFFFFFFFFFFFFFFFFFFFFFFFFFFFFFFFFFFFFFF AND DUP2 MSTORE PUSH1 0x20 ADD SWAP1 DUP2 MSTORE PUSH1 0x20 ADD PUSH1 0x0 KECCAK256 DUP2 SWAP1 SSTORE POP PUSH2 0x201F DUP2 PUSH1 0x3 PUSH1 0x0 DUP6 PUSH20 0xFFFFFFFFFFFFFFFFFFFFFFFFFFFFFFFFFFFFFFFF AND PUSH20 0xFFFFFFFFFFFFFFFFFFFFFFFFFFFFFFFFFFFFFFFF AND DUP2 MSTORE PUSH1 0x20 ADD SWAP1 DUP2 MSTORE PUSH1 0x20 ADD PUSH1 0x0 KECCAK256 SLOAD PUSH2 0x14F3 SWAP1 SWAP2 SWAP1 PUSH4 0xFFFFFFFF AND JUMP JUMPDEST PUSH1 0x3 PUSH1 0x0 DUP5 PUSH20 0xFFFFFFFFFFFFFFFFFFFFFFFFFFFFFFFFFFFFFFFF AND PUSH20 0xFFFFFFFFFFFFFFFFFFFFFFFFFFFFFFFFFFFFFFFF AND DUP2 MSTORE PUSH1 0x20 ADD SWAP1 DUP2 MSTORE PUSH1 0x20 ADD PUSH1 0x0 KECCAK256 DUP2 SWAP1 SSTORE POP DUP2 PUSH20 0xFFFFFFFFFFFFFFFFFFFFFFFFFFFFFFFFFFFFFFFF AND DUP4 PUSH20 0xFFFFFFFFFFFFFFFFFFFFFFFFFFFFFFFFFFFFFFFF AND PUSH32 0xDDF252AD1BE2C89B69C2B068FC378DAA952BA7F163C4A11628F55A4DF523B3EF DUP4 PUSH1 0x40 MLOAD PUSH2 0x20BF SWAP2 SWAP1 PUSH2 0x261B JUMP JUMPDEST PUSH1 0x40 MLOAD DUP1 SWAP2 SUB SWAP1 LOG3 POP POP POP JUMP JUMPDEST PUSH1 0x0 DUP2 CALLDATALOAD SWAP1 POP PUSH2 0x20DB DUP2 PUSH2 0x2B1C JUMP JUMPDEST SWAP3 SWAP2 POP POP JUMP JUMPDEST PUSH1 0x0 DUP2 CALLDATALOAD SWAP1 POP PUSH2 0x20F0 DUP2 PUSH2 0x2B33 JUMP JUMPDEST SWAP3 SWAP2 POP POP JUMP JUMPDEST PUSH1 0x0 DUP2 CALLDATALOAD SWAP1 POP PUSH2 0x2105 DUP2 PUSH2 0x2B4A JUMP JUMPDEST SWAP3 SWAP2 POP POP JUMP JUMPDEST PUSH1 0x0 DUP2 CALLDATALOAD SWAP1 POP PUSH2 0x211A DUP2 PUSH2 0x2B61 JUMP JUMPDEST SWAP3 SWAP2 POP POP JUMP JUMPDEST PUSH1 0x0 PUSH1 0x20 DUP3 DUP5 SUB SLT ISZERO PUSH2 0x2136 JUMPI PUSH2 0x2135 PUSH2 0x2900 JUMP JUMPDEST JUMPDEST PUSH1 0x0 PUSH2 0x2144 DUP5 DUP3 DUP6 ADD PUSH2 0x20CC JUMP JUMPDEST SWAP2 POP POP SWAP3 SWAP2 POP POP JUMP JUMPDEST PUSH1 0x0 DUP1 PUSH1 0x40 DUP4 DUP6 SUB SLT ISZERO PUSH2 0x2164 JUMPI PUSH2 0x2163 PUSH2 0x2900 JUMP JUMPDEST JUMPDEST PUSH1 0x0 PUSH2 0x2172 DUP6 DUP3 DUP7 ADD PUSH2 0x20CC JUMP JUMPDEST SWAP3 POP POP PUSH1 0x20 PUSH2 0x2183 DUP6 DUP3 DUP7 ADD PUSH2 0x20CC JUMP JUMPDEST SWAP2 POP POP SWAP3 POP SWAP3 SWAP1 POP JUMP JUMPDEST PUSH1 0x0 DUP1 PUSH1 0x0 PUSH1 0x60 DUP5 DUP7 SUB SLT ISZERO PUSH2 0x21A6 JUMPI PUSH2 0x21A5 PUSH2 0x2900 JUMP JUMPDEST JUMPDEST PUSH1 0x0 PUSH2 0x21B4 DUP7 DUP3 DUP8 ADD PUSH2 0x20CC JUMP JUMPDEST SWAP4 POP POP PUSH1 0x20 PUSH2 0x21C5 DUP7 DUP3 DUP8 ADD PUSH2 0x20CC JUMP JUMPDEST SWAP3 POP POP PUSH1 0x40 PUSH2 0x21D6 DUP7 DUP3 DUP8 ADD PUSH2 0x20F6 JUMP JUMPDEST SWAP2 POP POP SWAP3 POP SWAP3 POP SWAP3 JUMP JUMPDEST PUSH1 0x0 DUP1 PUSH1 0x40 DUP4 DUP6 SUB SLT ISZERO PUSH2 0x21F7 JUMPI PUSH2 0x21F6 PUSH2 0x2900 JUMP JUMPDEST JUMPDEST PUSH1 0x0 PUSH2 0x2205 DUP6 DUP3 DUP7 ADD PUSH2 0x20CC JUMP JUMPDEST SWAP3 POP POP PUSH1 0x20 PUSH2 0x2216 DUP6 DUP3 DUP7 ADD PUSH2 0x20E1 JUMP JUMPDEST SWAP2 POP POP SWAP3 POP SWAP3 SWAP1 POP JUMP JUMPDEST PUSH1 0x0 DUP1 PUSH1 0x40 DUP4 DUP6 SUB SLT ISZERO PUSH2 0x2237 JUMPI PUSH2 0x2236 PUSH2 0x2900 JUMP JUMPDEST JUMPDEST PUSH1 0x0 PUSH2 0x2245 DUP6 DUP3 DUP7 ADD PUSH2 0x20CC JUMP JUMPDEST SWAP3 POP POP PUSH1 0x20 PUSH2 0x2256 DUP6 DUP3 DUP7 ADD PUSH2 0x20F6 JUMP JUMPDEST SWAP2 POP POP SWAP3 POP SWAP3 SWAP1 POP JUMP JUMPDEST PUSH1 0x0 PUSH1 0x20 DUP3 DUP5 SUB SLT ISZERO PUSH2 0x2276 JUMPI PUSH2 0x2275 PUSH2 0x2900 JUMP JUMPDEST JUMPDEST PUSH1 0x0 PUSH2 0x2284 DUP5 DUP3 DUP6 ADD PUSH2 0x20F6 JUMP JUMPDEST SWAP2 POP POP SWAP3 SWAP2 POP POP JUMP JUMPDEST PUSH1 0x0 PUSH1 0x20 DUP3 DUP5 SUB SLT ISZERO PUSH2 0x22A3 JUMPI PUSH2 0x22A2 PUSH2 0x2900 JUMP JUMPDEST JUMPDEST PUSH1 0x0 PUSH2 0x22B1 DUP5 DUP3 DUP6 ADD PUSH2 0x210B JUMP JUMPDEST SWAP2 POP POP SWAP3 SWAP2 POP POP JUMP JUMPDEST PUSH1 0x0 DUP1 PUSH1 0x0 PUSH1 0x60 DUP5 DUP7 SUB SLT ISZERO PUSH2 0x22D3 JUMPI PUSH2 0x22D2 PUSH2 0x2900 JUMP JUMPDEST JUMPDEST PUSH1 0x0 PUSH2 0x22E1 DUP7 DUP3 DUP8 ADD PUSH2 0x210B JUMP JUMPDEST SWAP4 POP POP PUSH1 0x20 PUSH2 0x22F2 DUP7 DUP3 DUP8 ADD PUSH2 0x210B JUMP JUMPDEST SWAP3 POP POP PUSH1 0x40 PUSH2 0x2303 DUP7 DUP3 DUP8 ADD PUSH2 0x210B JUMP JUMPDEST SWAP2 POP POP SWAP3 POP SWAP3 POP SWAP3 JUMP JUMPDEST PUSH2 0x2316 DUP2 PUSH2 0x27B9 JUMP JUMPDEST DUP3 MSTORE POP POP JUMP JUMPDEST PUSH2 0x2325 DUP2 PUSH2 0x27CB JUMP JUMPDEST DUP3 MSTORE POP POP JUMP JUMPDEST PUSH1 0x0 PUSH2 0x2336 DUP3 PUSH2 0x2688 JUMP JUMPDEST PUSH2 0x2340 DUP2 DUP6 PUSH2 0x2693 JUMP JUMPDEST SWAP4 POP PUSH2 0x2350 DUP2 DUP6 PUSH1 0x20 DUP7 ADD PUSH2 0x280E JUMP JUMPDEST PUSH2 0x2359 DUP2 PUSH2 0x2905 JUMP JUMPDEST DUP5 ADD SWAP2 POP POP SWAP3 SWAP2 POP POP JUMP JUMPDEST PUSH1 0x0 PUSH2 0x2371 PUSH1 0x25 DUP4 PUSH2 0x2693 JUMP JUMPDEST SWAP2 POP PUSH2 0x237C DUP3 PUSH2 0x2916 JUMP JUMPDEST PUSH1 0x40 DUP3 ADD SWAP1 POP SWAP2 SWAP1 POP JUMP JUMPDEST PUSH1 0x0 PUSH2 0x2394 PUSH1 0x24 DUP4 PUSH2 0x2693 JUMP JUMPDEST SWAP2 POP PUSH2 0x239F DUP3 PUSH2 0x2965 JUMP JUMPDEST PUSH1 0x40 DUP3 ADD SWAP1 POP SWAP2 SWAP1 POP JUMP JUMPDEST PUSH1 0x0 PUSH2 0x23B7 PUSH1 0x26 DUP4 PUSH2 0x2693 JUMP JUMPDEST SWAP2 POP PUSH2 0x23C2 DUP3 PUSH2 0x29B4 JUMP JUMPDEST PUSH1 0x40 DUP3 ADD SWAP1 POP SWAP2 SWAP1 POP JUMP JUMPDEST PUSH1 0x0 PUSH2 0x23DA PUSH1 0x1B DUP4 PUSH2 0x2693 JUMP JUMPDEST SWAP2 POP PUSH2 0x23E5 DUP3 PUSH2 0x2A03 JUMP JUMPDEST PUSH1 0x20 DUP3 ADD SWAP1 POP SWAP2 SWAP1 POP JUMP JUMPDEST PUSH1 0x0 PUSH2 0x23FD PUSH1 0x10 DUP4 PUSH2 0x2693 JUMP JUMPDEST SWAP2 POP PUSH2 0x2408 DUP3 PUSH2 0x2A2C JUMP JUMPDEST PUSH1 0x20 DUP3 ADD SWAP1 POP SWAP2 SWAP1 POP JUMP JUMPDEST PUSH1 0x0 PUSH2 0x2420 PUSH1 0x20 DUP4 PUSH2 0x2693 JUMP JUMPDEST SWAP2 POP PUSH2 0x242B DUP3 PUSH2 0x2A55 JUMP JUMPDEST PUSH1 0x20 DUP3 ADD SWAP1 POP SWAP2 SWAP1 POP JUMP JUMPDEST PUSH1 0x0 PUSH2 0x2443 PUSH1 0x23 DUP4 PUSH2 0x2693 JUMP JUMPDEST SWAP2 POP PUSH2 0x244E DUP3 PUSH2 0x2A7E JUMP JUMPDEST PUSH1 0x40 DUP3 ADD SWAP1 POP SWAP2 SWAP1 POP JUMP JUMPDEST PUSH1 0x0 PUSH2 0x2466 PUSH1 0x22 DUP4 PUSH2 0x2693 JUMP JUMPDEST SWAP2 POP PUSH2 0x2471 DUP3 PUSH2 0x2ACD JUMP JUMPDEST PUSH1 0x40 DUP3 ADD SWAP1 POP SWAP2 SWAP1 POP JUMP JUMPDEST PUSH2 0x2485 DUP2 PUSH2 0x27F7 JUMP JUMPDEST DUP3 MSTORE POP POP JUMP JUMPDEST PUSH2 0x2494 DUP2 PUSH2 0x2801 JUMP JUMPDEST DUP3 MSTORE POP POP JUMP JUMPDEST PUSH1 0x0 PUSH1 0x20 DUP3 ADD SWAP1 POP PUSH2 0x24AF PUSH1 0x0 DUP4 ADD DUP5 PUSH2 0x230D JUMP JUMPDEST SWAP3 SWAP2 POP POP JUMP JUMPDEST PUSH1 0x0 PUSH1 0x40 DUP3 ADD SWAP1 POP PUSH2 0x24CA PUSH1 0x0 DUP4 ADD DUP6 PUSH2 0x230D JUMP JUMPDEST PUSH2 0x24D7 PUSH1 0x20 DUP4 ADD DUP5 PUSH2 0x231C JUMP JUMPDEST SWAP4 SWAP3 POP POP POP JUMP JUMPDEST PUSH1 0x0 PUSH1 0x20 DUP3 ADD SWAP1 POP PUSH2 0x24F3 PUSH1 0x0 DUP4 ADD DUP5 PUSH2 0x231C JUMP JUMPDEST SWAP3 SWAP2 POP POP JUMP JUMPDEST PUSH1 0x0 PUSH1 0x20 DUP3 ADD SWAP1 POP DUP2 DUP2 SUB PUSH1 0x0 DUP4 ADD MSTORE PUSH2 0x2513 DUP2 DUP5 PUSH2 0x232B JUMP JUMPDEST SWAP1 POP SWAP3 SWAP2 POP POP JUMP JUMPDEST PUSH1 0x0 PUSH1 0x20 DUP3 ADD SWAP1 POP DUP2 DUP2 SUB PUSH1 0x0 DUP4 ADD MSTORE PUSH2 0x2534 DUP2 PUSH2 0x2364 JUMP JUMPDEST SWAP1 POP SWAP2 SWAP1 POP JUMP JUMPDEST PUSH1 0x0 PUSH1 0x20 DUP3 ADD SWAP1 POP DUP2 DUP2 SUB PUSH1 0x0 DUP4 ADD MSTORE PUSH2 0x2554 DUP2 PUSH2 0x2387 JUMP JUMPDEST SWAP1 POP SWAP2 SWAP1 POP JUMP JUMPDEST PUSH1 0x0 PUSH1 0x20 DUP3 ADD SWAP1 POP DUP2 DUP2 SUB PUSH1 0x0 DUP4 ADD MSTORE PUSH2 0x2574 DUP2 PUSH2 0x23AA JUMP JUMPDEST SWAP1 POP SWAP2 SWAP1 POP JUMP JUMPDEST PUSH1 0x0 PUSH1 0x20 DUP3 ADD SWAP1 POP DUP2 DUP2 SUB PUSH1 0x0 DUP4 ADD MSTORE PUSH2 0x2594 DUP2 PUSH2 0x23CD JUMP JUMPDEST SWAP1 POP SWAP2 SWAP1 POP JUMP JUMPDEST PUSH1 0x0 PUSH1 0x20 DUP3 ADD SWAP1 POP DUP2 DUP2 SUB PUSH1 0x0 DUP4 ADD MSTORE PUSH2 0x25B4 DUP2 PUSH2 0x23F0 JUMP JUMPDEST SWAP1 POP SWAP2 SWAP1 POP JUMP JUMPDEST PUSH1 0x0 PUSH1 0x20 DUP3 ADD SWAP1 POP DUP2 DUP2 SUB PUSH1 0x0 DUP4 ADD MSTORE PUSH2 0x25D4 DUP2 PUSH2 0x2413 JUMP JUMPDEST SWAP1 POP SWAP2 SWAP1 POP JUMP JUMPDEST PUSH1 0x0 PUSH1 0x20 DUP3 ADD SWAP1 POP DUP2 DUP2 SUB PUSH1 0x0 DUP4 ADD MSTORE PUSH2 0x25F4 DUP2 PUSH2 0x2436 JUMP JUMPDEST SWAP1 POP SWAP2 SWAP1 POP JUMP JUMPDEST PUSH1 0x0 PUSH1 0x20 DUP3 ADD SWAP1 POP DUP2 DUP2 SUB PUSH1 0x0 DUP4 ADD MSTORE PUSH2 0x2614 DUP2 PUSH2 0x2459 JUMP JUMPDEST SWAP1 POP SWAP2 SWAP1 POP JUMP JUMPDEST PUSH1 0x0 PUSH1 0x20 DUP3 ADD SWAP1 POP PUSH2 0x2630 PUSH1 0x0 DUP4 ADD DUP5 PUSH2 0x247C JUMP JUMPDEST SWAP3 SWAP2 POP POP JUMP JUMPDEST PUSH1 0x0 PUSH1 0x20 DUP3 ADD SWAP1 POP PUSH2 0x264B PUSH1 0x0 DUP4 ADD DUP5 PUSH2 0x248B JUMP JUMPDEST SWAP3 SWAP2 POP POP JUMP JUMPDEST PUSH1 0x0 PUSH1 0x60 DUP3 ADD SWAP1 POP PUSH2 0x2666 PUSH1 0x0 DUP4 ADD DUP7 PUSH2 0x248B JUMP JUMPDEST PUSH2 0x2673 PUSH1 0x20 DUP4 ADD DUP6 PUSH2 0x248B JUMP JUMPDEST PUSH2 0x2680 PUSH1 0x40 DUP4 ADD DUP5 PUSH2 0x248B JUMP JUMPDEST SWAP5 SWAP4 POP POP POP POP JUMP JUMPDEST PUSH1 0x0 DUP2 MLOAD SWAP1 POP SWAP2 SWAP1 POP JUMP JUMPDEST PUSH1 0x0 DUP3 DUP3 MSTORE PUSH1 0x20 DUP3 ADD SWAP1 POP SWAP3 SWAP2 POP POP JUMP JUMPDEST PUSH1 0x0 PUSH2 0x26AF DUP3 PUSH2 0x27F7 JUMP JUMPDEST SWAP2 POP PUSH2 0x26BA DUP4 PUSH2 0x27F7 JUMP JUMPDEST SWAP3 POP DUP3 PUSH32 0xFFFFFFFFFFFFFFFFFFFFFFFFFFFFFFFFFFFFFFFFFFFFFFFFFFFFFFFFFFFFFFFF SUB DUP3 GT ISZERO PUSH2 0x26EF JUMPI PUSH2 0x26EE PUSH2 0x2873 JUMP JUMPDEST JUMPDEST DUP3 DUP3 ADD SWAP1 POP SWAP3 SWAP2 POP POP JUMP JUMPDEST PUSH1 0x0 PUSH2 0x2705 DUP3 PUSH2 0x27F7 JUMP JUMPDEST SWAP2 POP PUSH2 0x2710 DUP4 PUSH2 0x27F7 JUMP JUMPDEST SWAP3 POP DUP3 PUSH2 0x2720 JUMPI PUSH2 0x271F PUSH2 0x28A2 JUMP JUMPDEST JUMPDEST DUP3 DUP3 DIV SWAP1 POP SWAP3 SWAP2 POP POP JUMP JUMPDEST PUSH1 0x0 PUSH2 0x2736 DUP3 PUSH2 0x27F7 JUMP JUMPDEST SWAP2 POP PUSH2 0x2741 DUP4 PUSH2 0x27F7 JUMP JUMPDEST SWAP3 POP DUP2 PUSH32 0xFFFFFFFFFFFFFFFFFFFFFFFFFFFFFFFFFFFFFFFFFFFFFFFFFFFFFFFFFFFFFFFF DIV DUP4 GT DUP3 ISZERO ISZERO AND ISZERO PUSH2 0x277A JUMPI PUSH2 0x2779 PUSH2 0x2873 JUMP JUMPDEST JUMPDEST DUP3 DUP3 MUL SWAP1 POP SWAP3 SWAP2 POP POP JUMP JUMPDEST PUSH1 0x0 PUSH2 0x2790 DUP3 PUSH2 0x27F7 JUMP JUMPDEST SWAP2 POP PUSH2 0x279B DUP4 PUSH2 0x27F7 JUMP JUMPDEST SWAP3 POP DUP3 DUP3 LT ISZERO PUSH2 0x27AE JUMPI PUSH2 0x27AD PUSH2 0x2873 JUMP JUMPDEST JUMPDEST DUP3 DUP3 SUB SWAP1 POP SWAP3 SWAP2 POP POP JUMP JUMPDEST PUSH1 0x0 PUSH2 0x27C4 DUP3 PUSH2 0x27D7 JUMP JUMPDEST SWAP1 POP SWAP2 SWAP1 POP JUMP JUMPDEST PUSH1 0x0 DUP2 ISZERO ISZERO SWAP1 POP SWAP2 SWAP1 POP JUMP JUMPDEST PUSH1 0x0 PUSH20 0xFFFFFFFFFFFFFFFFFFFFFFFFFFFFFFFFFFFFFFFF DUP3 AND SWAP1 POP SWAP2 SWAP1 POP JUMP JUMPDEST PUSH1 0x0 DUP2 SWAP1 POP SWAP2 SWAP1 POP JUMP JUMPDEST PUSH1 0x0 PUSH1 0xFF DUP3 AND SWAP1 POP SWAP2 SWAP1 POP JUMP JUMPDEST PUSH1 0x0 JUMPDEST DUP4 DUP2 LT ISZERO PUSH2 0x282C JUMPI DUP1 DUP3 ADD MLOAD DUP2 DUP5 ADD MSTORE PUSH1 0x20 DUP2 ADD SWAP1 POP PUSH2 0x2811 JUMP JUMPDEST DUP4 DUP2 GT ISZERO PUSH2 0x283B JUMPI PUSH1 0x0 DUP5 DUP5 ADD MSTORE JUMPDEST POP POP POP POP JUMP JUMPDEST PUSH1 0x0 PUSH1 0x2 DUP3 DIV SWAP1 POP PUSH1 0x1 DUP3 AND DUP1 PUSH2 0x2859 JUMPI PUSH1 0x7F DUP3 AND SWAP2 POP JUMPDEST PUSH1 0x20 DUP3 LT DUP2 EQ ISZERO PUSH2 0x286D JUMPI PUSH2 0x286C PUSH2 0x28D1 JUMP JUMPDEST JUMPDEST POP SWAP2 SWAP1 POP JUMP JUMPDEST PUSH32 0x4E487B7100000000000000000000000000000000000000000000000000000000 PUSH1 0x0 MSTORE PUSH1 0x11 PUSH1 0x4 MSTORE PUSH1 0x24 PUSH1 0x0 REVERT JUMPDEST PUSH32 0x4E487B7100000000000000000000000000000000000000000000000000000000 PUSH1 0x0 MSTORE PUSH1 0x12 PUSH1 0x4 MSTORE PUSH1 0x24 PUSH1 0x0 REVERT JUMPDEST PUSH32 0x4E487B7100000000000000000000000000000000000000000000000000000000 PUSH1 0x0 MSTORE PUSH1 0x22 PUSH1 0x4 MSTORE PUSH1 0x24 PUSH1 0x0 REVERT JUMPDEST PUSH1 0x0 DUP1 REVERT JUMPDEST PUSH1 0x0 PUSH1 0x1F NOT PUSH1 0x1F DUP4 ADD AND SWAP1 POP SWAP2 SWAP1 POP JUMP JUMPDEST PUSH32 0x42455032303A207472616E736665722066726F6D20746865207A65726F206164 PUSH1 0x0 DUP3 ADD MSTORE PUSH32 0x6472657373000000000000000000000000000000000000000000000000000000 PUSH1 0x20 DUP3 ADD MSTORE POP JUMP JUMPDEST PUSH32 0x42455032303A20617070726F76652066726F6D20746865207A65726F20616464 PUSH1 0x0 DUP3 ADD MSTORE PUSH32 0x7265737300000000000000000000000000000000000000000000000000000000 PUSH1 0x20 DUP3 ADD MSTORE POP JUMP JUMPDEST PUSH32 0x4F776E61626C653A206E6577206F776E657220697320746865207A65726F2061 PUSH1 0x0 DUP3 ADD MSTORE PUSH32 0x6464726573730000000000000000000000000000000000000000000000000000 PUSH1 0x20 DUP3 ADD MSTORE POP JUMP JUMPDEST PUSH32 0x536166654D6174683A206164646974696F6E206F766572666C6F770000000000 PUSH1 0x0 DUP3 ADD MSTORE POP JUMP JUMPDEST PUSH32 0x5573657220626C61636B6C697374656400000000000000000000000000000000 PUSH1 0x0 DUP3 ADD MSTORE POP JUMP JUMPDEST PUSH32 0x4F776E61626C653A2063616C6C6572206973206E6F7420746865206F776E6572 PUSH1 0x0 DUP3 ADD MSTORE POP JUMP JUMPDEST PUSH32 0x42455032303A207472616E7366657220746F20746865207A65726F2061646472 PUSH1 0x0 DUP3 ADD MSTORE PUSH32 0x6573730000000000000000000000000000000000000000000000000000000000 PUSH1 0x20 DUP3 ADD MSTORE POP JUMP JUMPDEST PUSH32 0x42455032303A20617070726F766520746F20746865207A65726F206164647265 PUSH1 0x0 DUP3 ADD MSTORE PUSH32 0x7373000000000000000000000000000000000000000000000000000000000000 PUSH1 0x20 DUP3 ADD MSTORE POP JUMP JUMPDEST PUSH2 0x2B25 DUP2 PUSH2 0x27B9 JUMP JUMPDEST DUP2 EQ PUSH2 0x2B30 JUMPI PUSH1 0x0 DUP1 REVERT JUMPDEST POP JUMP JUMPDEST PUSH2 0x2B3C DUP2 PUSH2 0x27CB JUMP JUMPDEST DUP2 EQ PUSH2 0x2B47 JUMPI PUSH1 0x0 DUP1 REVERT JUMPDEST POP JUMP JUMPDEST PUSH2 0x2B53 DUP2 PUSH2 0x27F7 JUMP JUMPDEST DUP2 EQ PUSH2 0x2B5E JUMPI PUSH1 0x0 DUP1 REVERT JUMPDEST POP JUMP JUMPDEST PUSH2 0x2B6A DUP2 PUSH2 0x2801 JUMP JUMPDEST DUP2 EQ PUSH2 0x2B75 JUMPI PUSH1 0x0 DUP1 REVERT JUMPDEST POP JUMP INVALID TIMESTAMP GASLIMIT POP ORIGIN ADDRESS GASPRICE KECCAK256 PUSH21 0x72616E7366657220616D6F756E7420657863656564 PUSH20 0x20616C6C6F77616E63654E6F207472616E736665 PUSH19 0x7320746F20636F6E747261637420616C6C6F77 PUSH6 0x642E4E6F2063 PUSH16 0x6E73656375746976652073656C6C7320 PUSH2 0x6C6C PUSH16 0x7765642E20506C656173652077616974 0x2E TIMESTAMP GASLIMIT POP ORIGIN ADDRESS GASPRICE KECCAK256 PUSH21 0x72616E7366657220616D6F756E7420657863656564 PUSH20 0x2062616C616E636542455032303A206465637265 PUSH2 0x7365 PUSH5 0x20616C6C6F PUSH24 0x616E63652062656C6F77207A65726FA26469706673582212 KECCAK256 DELEGATECALL PUSH2 0x8A8D CALLDATASIZE 0xD5 SHL CREATE2 0xCE 0x49 0x2D EQ RETURNDATACOPY DUP3 0xCB PUSH12 0xDA7ED7340E277F48BABD8E5 DUP10 0x1E 0xEC 0xCA PUSH5 0x736F6C6343 STOP ADDMOD SMOD STOP CALLER "
				},
				"gasEstimates": {
					"creation": {
						"codeDepositCost": "2274400",
						"executionCost": "infinite",
						"totalCost": "infinite"
					},
					"external": {
						"allowance(address,address)": "infinite",
						"approve(address,uint256)": "infinite",
						"balanceOf(address)": "2887",
						"decimals()": "2591",
						"decreaseAllowance(address,uint256)": "infinite",
						"depositWallet()": "2605",
						"getTaxes()": "infinite",
						"increaseAllowance(address,uint256)": "infinite",
						"isOwner()": "2648",
						"name()": "infinite",
						"owner()": "2617",
						"pause()": "30023",
						"paused()": "2632",
						"renounceOwnership()": "30550",
						"rewardWallet()": "2624",
						"setBlacklist(address,bool)": "infinite",
						"setCooldownForTrades(uint8)": "infinite",
						"setLiquidityPoolStatus(address,bool)": "infinite",
						"setMarketingPool(address)": "infinite",
						"setTaxes(uint8,uint8,uint8)": "infinite",
						"setWhitelist(address,bool)": "infinite",
						"symbol()": "infinite",
						"totalSupply()": "2549",
						"transfer(address,uint256)": "infinite",
						"transferFrom(address,address,uint256)": "infinite",
						"transferOwnership(address)": "30948",
						"unpause()": "29997",
						"updateDepositWallet(address)": "27080",
						"updateRewardWallet(address)": "27056",
						"updateRewardWalletLimit(uint256)": "24899"
					},
					"internal": {
						"_transfer(address,address,uint256)": "infinite"
					}
				},
				"methodIdentifiers": {
					"allowance(address,address)": "dd62ed3e",
					"approve(address,uint256)": "095ea7b3",
					"balanceOf(address)": "70a08231",
					"decimals()": "313ce567",
					"decreaseAllowance(address,uint256)": "a457c2d7",
					"depositWallet()": "09904c00",
					"getTaxes()": "2973ef2d",
					"increaseAllowance(address,uint256)": "39509351",
					"isOwner()": "8f32d59b",
					"name()": "06fdde03",
					"owner()": "8da5cb5b",
					"pause()": "8456cb59",
					"paused()": "5c975abb",
					"renounceOwnership()": "715018a6",
					"rewardWallet()": "fb75b2c7",
					"setBlacklist(address,bool)": "153b0d1e",
					"setCooldownForTrades(uint8)": "1574567b",
					"setLiquidityPoolStatus(address,bool)": "c89c58fb",
					"setMarketingPool(address)": "a86517bf",
					"setTaxes(uint8,uint8,uint8)": "0d2cf31f",
					"setWhitelist(address,bool)": "53d6fd59",
					"symbol()": "95d89b41",
					"totalSupply()": "18160ddd",
					"transfer(address,uint256)": "a9059cbb",
					"transferFrom(address,address,uint256)": "23b872dd",
					"transferOwnership(address)": "f2fde38b",
					"unpause()": "3f4ba83a",
					"updateDepositWallet(address)": "2553dff5",
					"updateRewardWallet(address)": "cc600f91",
					"updateRewardWalletLimit(uint256)": "b5ddeb6e"
				}
			},
			"userdoc": {
				"kind": "user",
				"methods": {},
				"version": 1
			}
		}
	}
}