{
	"ERC721.sol": {
		"ERC721": {
			"abi": [
				{
					"inputs": [
						{
							"internalType": "string",
							"name": "name_",
							"type": "string"
						},
						{
							"internalType": "string",
							"name": "symbol_",
							"type": "string"
						}
					],
					"stateMutability": "nonpayable",
					"type": "constructor"
				},
				{
					"anonymous": false,
					"inputs": [
						{
							"indexed": true,
							"internalType": "address",
							"name": "owner",
							"type": "address"
						},
						{
							"indexed": true,
							"internalType": "address",
							"name": "approved",
							"type": "address"
						},
						{
							"indexed": true,
							"internalType": "uint256",
							"name": "tokenId",
							"type": "uint256"
						}
					],
					"name": "Approval",
					"type": "event"
				},
				{
					"anonymous": false,
					"inputs": [
						{
							"indexed": true,
							"internalType": "address",
							"name": "owner",
							"type": "address"
						},
						{
							"indexed": true,
							"internalType": "address",
							"name": "operator",
							"type": "address"
						},
						{
							"indexed": false,
							"internalType": "bool",
							"name": "approved",
							"type": "bool"
						}
					],
					"name": "ApprovalForAll",
					"type": "event"
				},
				{
					"anonymous": false,
					"inputs": [
						{
							"indexed": true,
							"internalType": "address",
							"name": "previousOwner",
							"type": "address"
						},
						{
							"indexed": true,
							"internalType": "address",
							"name": "newOwner",
							"type": "address"
						}
					],
					"name": "OwnershipTransferred",
					"type": "event"
				},
				{
					"anonymous": false,
					"inputs": [
						{
							"indexed": true,
							"internalType": "address",
							"name": "from",
							"type": "address"
						},
						{
							"indexed": true,
							"internalType": "address",
							"name": "to",
							"type": "address"
						},
						{
							"indexed": true,
							"internalType": "uint256",
							"name": "tokenId",
							"type": "uint256"
						}
					],
					"name": "Transfer",
					"type": "event"
				},
				{
					"inputs": [
						{
							"internalType": "address",
							"name": "to",
							"type": "address"
						},
						{
							"internalType": "uint256",
							"name": "tokenId",
							"type": "uint256"
						}
					],
					"name": "approve",
					"outputs": [],
					"stateMutability": "nonpayable",
					"type": "function"
				},
				{
					"inputs": [
						{
							"internalType": "address",
							"name": "owner",
							"type": "address"
						}
					],
					"name": "balanceOf",
					"outputs": [
						{
							"internalType": "uint256",
							"name": "",
							"type": "uint256"
						}
					],
					"stateMutability": "view",
					"type": "function"
				},
				{
					"inputs": [],
					"name": "decimals",
					"outputs": [
						{
							"internalType": "uint8",
							"name": "",
							"type": "uint8"
						}
					],
					"stateMutability": "view",
					"type": "function"
				},
				{
					"inputs": [
						{
							"internalType": "uint256",
							"name": "tokenId",
							"type": "uint256"
						}
					],
					"name": "getApproved",
					"outputs": [
						{
							"internalType": "address",
							"name": "",
							"type": "address"
						}
					],
					"stateMutability": "view",
					"type": "function"
				},
				{
					"inputs": [
						{
							"internalType": "address",
							"name": "owner",
							"type": "address"
						},
						{
							"internalType": "address",
							"name": "operator",
							"type": "address"
						}
					],
					"name": "isApprovedForAll",
					"outputs": [
						{
							"internalType": "bool",
							"name": "",
							"type": "bool"
						}
					],
					"stateMutability": "view",
					"type": "function"
				},
				{
					"inputs": [],
					"name": "isOwner",
					"outputs": [
						{
							"internalType": "bool",
							"name": "",
							"type": "bool"
						}
					],
					"stateMutability": "view",
					"type": "function"
				},
				{
					"inputs": [],
					"name": "name",
					"outputs": [
						{
							"internalType": "string",
							"name": "",
							"type": "string"
						}
					],
					"stateMutability": "view",
					"type": "function"
				},
				{
					"inputs": [],
					"name": "owner",
					"outputs": [
						{
							"internalType": "address",
							"name": "",
							"type": "address"
						}
					],
					"stateMutability": "view",
					"type": "function"
				},
				{
					"inputs": [
						{
							"internalType": "uint256",
							"name": "tokenId",
							"type": "uint256"
						}
					],
					"name": "ownerOf",
					"outputs": [
						{
							"internalType": "address",
							"name": "",
							"type": "address"
						}
					],
					"stateMutability": "view",
					"type": "function"
				},
				{
					"inputs": [],
					"name": "renounceOwnership",
					"outputs": [],
					"stateMutability": "nonpayable",
					"type": "function"
				},
				{
					"inputs": [
						{
							"internalType": "address",
							"name": "from",
							"type": "address"
						},
						{
							"internalType": "address",
							"name": "to",
							"type": "address"
						},
						{
							"internalType": "uint256",
							"name": "tokenId",
							"type": "uint256"
						}
					],
					"name": "safeTransferFrom",
					"outputs": [],
					"stateMutability": "nonpayable",
					"type": "function"
				},
				{
					"inputs": [
						{
							"internalType": "address",
							"name": "from",
							"type": "address"
						},
						{
							"internalType": "address",
							"name": "to",
							"type": "address"
						},
						{
							"internalType": "uint256",
							"name": "tokenId",
							"type": "uint256"
						},
						{
							"internalType": "bytes",
							"name": "_data",
							"type": "bytes"
						}
					],
					"name": "safeTransferFrom",
					"outputs": [],
					"stateMutability": "nonpayable",
					"type": "function"
				},
				{
					"inputs": [
						{
							"internalType": "address",
							"name": "operator",
							"type": "address"
						},
						{
							"internalType": "bool",
							"name": "approved",
							"type": "bool"
						}
					],
					"name": "setApprovalForAll",
					"outputs": [],
					"stateMutability": "nonpayable",
					"type": "function"
				},
				{
					"inputs": [
						{
							"internalType": "bytes4",
							"name": "interfaceId",
							"type": "bytes4"
						}
					],
					"name": "supportsInterface",
					"outputs": [
						{
							"internalType": "bool",
							"name": "",
							"type": "bool"
						}
					],
					"stateMutability": "view",
					"type": "function"
				},
				{
					"inputs": [],
					"name": "symbol",
					"outputs": [
						{
							"internalType": "string",
							"name": "",
							"type": "string"
						}
					],
					"stateMutability": "view",
					"type": "function"
				},
				{
					"inputs": [
						{
							"internalType": "uint256",
							"name": "tokenId",
							"type": "uint256"
						}
					],
					"name": "tokenURI",
					"outputs": [
						{
							"internalType": "string",
							"name": "",
							"type": "string"
						}
					],
					"stateMutability": "view",
					"type": "function"
				},
				{
					"inputs": [
						{
							"internalType": "address",
							"name": "from",
							"type": "address"
						},
						{
							"internalType": "address",
							"name": "to",
							"type": "address"
						},
						{
							"internalType": "uint256",
							"name": "tokenId",
							"type": "uint256"
						}
					],
					"name": "transferFrom",
					"outputs": [],
					"stateMutability": "nonpayable",
					"type": "function"
				},
				{
					"inputs": [
						{
							"internalType": "address",
							"name": "newOwner",
							"type": "address"
						}
					],
					"name": "transferOwnership",
					"outputs": [],
					"stateMutability": "nonpayable",
					"type": "function"
				}
			],
			"devdoc": {
				"details": "Implementation of https://eips.ethereum.org/EIPS/eip-721[ERC721] Non-Fungible Token Standard, including the Metadata extension, but not including the Enumerable extension, which is available separately as {ERC721Enumerable}.",
				"kind": "dev",
				"methods": {
					"approve(address,uint256)": {
						"details": "See {IERC721-approve}."
					},
					"balanceOf(address)": {
						"details": "See {IERC721-balanceOf}."
					},
					"constructor": {
						"details": "Initializes the contract by setting a `name` and a `symbol` to the token collection."
					},
					"decimals()": {
						"details": "Returns the number of decimals used to get its user representation. For example, if `decimals` equals `2`, a balance of `505` tokens should be displayed to a user as `5,05` (`505 / 10 ** 2`). Tokens usually opt for a value of 18, imitating the relationship between Ether and Wei. NOTE: This information is only used for _display_ purposes: it in no way affects any of the arithmetic of the contract, including {IBEP20-balanceOf} and {IBEP20-transfer}."
					},
					"getApproved(uint256)": {
						"details": "See {IERC721-getApproved}."
					},
					"isApprovedForAll(address,address)": {
						"details": "See {IERC721-isApprovedForAll}."
					},
					"isOwner()": {
						"details": "Returns true if the caller is the current owner."
					},
					"name()": {
						"details": "See {IERC721Metadata-name}."
					},
					"owner()": {
						"details": "Returns the address of the current owner."
					},
					"ownerOf(uint256)": {
						"details": "See {IERC721-ownerOf}."
					},
					"renounceOwnership()": {
						"details": "Leaves the contract without owner. It will not be possible to call `onlyOwner` functions anymore. Can only be called by the current owner. NOTE: Renouncing ownership will leave the contract without an owner, thereby removing any functionality that is only available to the owner."
					},
					"safeTransferFrom(address,address,uint256)": {
						"details": "See {IERC721-safeTransferFrom}."
					},
					"safeTransferFrom(address,address,uint256,bytes)": {
						"details": "See {IERC721-safeTransferFrom}."
					},
					"setApprovalForAll(address,bool)": {
						"details": "See {IERC721-setApprovalForAll}."
					},
					"supportsInterface(bytes4)": {
						"details": "See {IERC165-supportsInterface}."
					},
					"symbol()": {
						"details": "See {IERC721Metadata-symbol}."
					},
					"tokenURI(uint256)": {
						"details": "See {IERC721Metadata-tokenURI}."
					},
					"transferFrom(address,address,uint256)": {
						"details": "See {IERC721-transferFrom}."
					},
					"transferOwnership(address)": {
						"details": "Transfers ownership of the contract to a new account (`newOwner`). Can only be called by the current owner."
					}
				},
				"version": 1
			},
			"evm": {
				"assembly": "    /* \"ERC721.sol\":577:14884  contract ERC721 is BEPContext, ERC165, IERC721, IERC721Metadata, BEPOwnable {... */\n  mstore(0x40, 0x80)\n    /* \"ERC721.sol\":1354:1467  constructor(string memory name_, string memory symbol_) {... */\n  callvalue\n  dup1\n  iszero\n  tag_1\n  jumpi\n  0x00\n  dup1\n  revert\ntag_1:\n  pop\n  mload(0x40)\n  sub(codesize, bytecodeSize)\n  dup1\n  bytecodeSize\n  dup4\n  codecopy\n  dup2\n  dup2\n  add\n  0x40\n  mstore\n  dup2\n  add\n  swap1\n  tag_2\n  swap2\n  swap1\n  tag_3\n  jump\t// in\ntag_2:\n    /* \"BEPOwnable.sol\":716:733  address msgSender */\n  0x00\n    /* \"BEPOwnable.sol\":736:748  _msgSender() */\n  tag_9\n    /* \"BEPOwnable.sol\":736:746  _msgSender */\n  shl(0x20, tag_10)\n    /* \"BEPOwnable.sol\":736:748  _msgSender() */\n  0x20\n  shr\n  jump\t// in\ntag_9:\n    /* \"BEPOwnable.sol\":716:748  address msgSender = _msgSender() */\n  swap1\n  pop\n    /* \"BEPOwnable.sol\":763:772  msgSender */\n  dup1\n    /* \"BEPOwnable.sol\":754:760  _owner */\n  0x00\n  dup1\n    /* \"BEPOwnable.sol\":754:772  _owner = msgSender */\n  0x0100\n  exp\n  dup2\n  sload\n  dup2\n  0xffffffffffffffffffffffffffffffffffffffff\n  mul\n  not\n  and\n  swap1\n  dup4\n  0xffffffffffffffffffffffffffffffffffffffff\n  and\n  mul\n  or\n  swap1\n  sstore\n  pop\n    /* \"BEPOwnable.sol\":816:825  msgSender */\n  dup1\n    /* \"BEPOwnable.sol\":783:826  OwnershipTransferred(address(0), msgSender) */\n  0xffffffffffffffffffffffffffffffffffffffff\n  and\n    /* \"BEPOwnable.sol\":812:813  0 */\n  0x00\n    /* \"BEPOwnable.sol\":783:826  OwnershipTransferred(address(0), msgSender) */\n  0xffffffffffffffffffffffffffffffffffffffff\n  and\n  0x8be0079c531659141344cd1fd0a4f28419497f9722a3daafe3b4186f6b6457e0\n  mload(0x40)\n  mload(0x40)\n  dup1\n  swap2\n  sub\n  swap1\n  log3\n    /* \"BEPOwnable.sol\":710:831  {... */\n  pop\n    /* \"ERC721.sol\":1428:1433  name_ */\n  dup2\n    /* \"ERC721.sol\":1420:1425  _name */\n  0x01\n    /* \"ERC721.sol\":1420:1433  _name = name_ */\n  swap1\n  dup1\n  mload\n  swap1\n  0x20\n  add\n  swap1\n  tag_12\n  swap3\n  swap2\n  swap1\n  tag_13\n  jump\t// in\ntag_12:\n  pop\n    /* \"ERC721.sol\":1453:1460  symbol_ */\n  dup1\n    /* \"ERC721.sol\":1443:1450  _symbol */\n  0x02\n    /* \"ERC721.sol\":1443:1460  _symbol = symbol_ */\n  swap1\n  dup1\n  mload\n  swap1\n  0x20\n  add\n  swap1\n  tag_14\n  swap3\n  swap2\n  swap1\n  tag_13\n  jump\t// in\ntag_14:\n  pop\n    /* \"ERC721.sol\":1354:1467  constructor(string memory name_, string memory symbol_) {... */\n  pop\n  pop\n    /* \"ERC721.sol\":577:14884  contract ERC721 is BEPContext, ERC165, IERC721, IERC721Metadata, BEPOwnable {... */\n  jump(tag_15)\n    /* \"BEPContext.sol\":760:859  function _msgSender() internal view returns (address payable) {... */\ntag_10:\n    /* \"BEPContext.sol\":805:820  address payable */\n  0x00\n    /* \"BEPContext.sol\":843:853  msg.sender */\n  caller\n    /* \"BEPContext.sol\":828:854  return payable(msg.sender) */\n  swap1\n  pop\n    /* \"BEPContext.sol\":760:859  function _msgSender() internal view returns (address payable) {... */\n  swap1\n  jump\t// out\n    /* \"ERC721.sol\":577:14884  contract ERC721 is BEPContext, ERC165, IERC721, IERC721Metadata, BEPOwnable {... */\ntag_13:\n  dup3\n  dup1\n  sload\n  tag_17\n  swap1\n  tag_18\n  jump\t// in\ntag_17:\n  swap1\n  0x00\n  mstore\n  keccak256(0x00, 0x20)\n  swap1\n  0x1f\n  add\n  0x20\n  swap1\n  div\n  dup2\n  add\n  swap3\n  dup3\n  tag_20\n  jumpi\n  0x00\n  dup6\n  sstore\n  jump(tag_19)\ntag_20:\n  dup3\n  0x1f\n  lt\n  tag_21\n  jumpi\n  dup1\n  mload\n  not(0xff)\n  and\n  dup4\n  dup1\n  add\n  or\n  dup6\n  sstore\n  jump(tag_19)\ntag_21:\n  dup3\n  dup1\n  add\n  0x01\n  add\n  dup6\n  sstore\n  dup3\n  iszero\n  tag_19\n  jumpi\n  swap2\n  dup3\n  add\ntag_22:\n  dup3\n  dup2\n  gt\n  iszero\n  tag_23\n  jumpi\n  dup3\n  mload\n  dup3\n  sstore\n  swap2\n  0x20\n  add\n  swap2\n  swap1\n  0x01\n  add\n  swap1\n  jump(tag_22)\ntag_23:\ntag_19:\n  pop\n  swap1\n  pop\n  tag_24\n  swap2\n  swap1\n  tag_25\n  jump\t// in\ntag_24:\n  pop\n  swap1\n  jump\t// out\ntag_25:\ntag_26:\n  dup1\n  dup3\n  gt\n  iszero\n  tag_27\n  jumpi\n  0x00\n  dup2\n  0x00\n  swap1\n  sstore\n  pop\n  0x01\n  add\n  jump(tag_26)\ntag_27:\n  pop\n  swap1\n  jump\t// out\n    /* \"#utility.yul\":7:428   */\ntag_29:\n    /* \"#utility.yul\":96:101   */\n  0x00\n    /* \"#utility.yul\":121:187   */\n  tag_31\n    /* \"#utility.yul\":137:186   */\n  tag_32\n    /* \"#utility.yul\":179:185   */\n  dup5\n    /* \"#utility.yul\":137:186   */\n  tag_33\n  jump\t// in\ntag_32:\n    /* \"#utility.yul\":121:187   */\n  tag_34\n  jump\t// in\ntag_31:\n    /* \"#utility.yul\":112:187   */\n  swap1\n  pop\n    /* \"#utility.yul\":210:216   */\n  dup3\n    /* \"#utility.yul\":203:208   */\n  dup2\n    /* \"#utility.yul\":196:217   */\n  mstore\n    /* \"#utility.yul\":248:252   */\n  0x20\n    /* \"#utility.yul\":241:246   */\n  dup2\n    /* \"#utility.yul\":237:253   */\n  add\n    /* \"#utility.yul\":286:289   */\n  dup5\n    /* \"#utility.yul\":277:283   */\n  dup5\n    /* \"#utility.yul\":272:275   */\n  dup5\n    /* \"#utility.yul\":268:284   */\n  add\n    /* \"#utility.yul\":265:290   */\n  gt\n    /* \"#utility.yul\":262:374   */\n  iszero\n  tag_35\n  jumpi\n    /* \"#utility.yul\":293:372   */\n  tag_36\n  tag_37\n  jump\t// in\ntag_36:\n    /* \"#utility.yul\":262:374   */\ntag_35:\n    /* \"#utility.yul\":383:422   */\n  tag_38\n    /* \"#utility.yul\":415:421   */\n  dup5\n    /* \"#utility.yul\":410:413   */\n  dup3\n    /* \"#utility.yul\":405:408   */\n  dup6\n    /* \"#utility.yul\":383:422   */\n  tag_39\n  jump\t// in\ntag_38:\n    /* \"#utility.yul\":102:428   */\n  pop\n    /* \"#utility.yul\":7:428   */\n  swap4\n  swap3\n  pop\n  pop\n  pop\n  jump\t// out\n    /* \"#utility.yul\":448:803   */\ntag_40:\n    /* \"#utility.yul\":515:520   */\n  0x00\n    /* \"#utility.yul\":564:567   */\n  dup3\n    /* \"#utility.yul\":557:561   */\n  0x1f\n    /* \"#utility.yul\":549:555   */\n  dup4\n    /* \"#utility.yul\":545:562   */\n  add\n    /* \"#utility.yul\":541:568   */\n  slt\n    /* \"#utility.yul\":531:653   */\n  tag_42\n  jumpi\n    /* \"#utility.yul\":572:651   */\n  tag_43\n  tag_44\n  jump\t// in\ntag_43:\n    /* \"#utility.yul\":531:653   */\ntag_42:\n    /* \"#utility.yul\":682:688   */\n  dup2\n    /* \"#utility.yul\":676:689   */\n  mload\n    /* \"#utility.yul\":707:797   */\n  tag_45\n    /* \"#utility.yul\":793:796   */\n  dup5\n    /* \"#utility.yul\":785:791   */\n  dup3\n    /* \"#utility.yul\":778:782   */\n  0x20\n    /* \"#utility.yul\":770:776   */\n  dup7\n    /* \"#utility.yul\":766:783   */\n  add\n    /* \"#utility.yul\":707:797   */\n  tag_29\n  jump\t// in\ntag_45:\n    /* \"#utility.yul\":698:797   */\n  swap2\n  pop\n    /* \"#utility.yul\":521:803   */\n  pop\n    /* \"#utility.yul\":448:803   */\n  swap3\n  swap2\n  pop\n  pop\n  jump\t// out\n    /* \"#utility.yul\":809:1662   */\ntag_3:\n    /* \"#utility.yul\":908:914   */\n  0x00\n    /* \"#utility.yul\":916:922   */\n  dup1\n    /* \"#utility.yul\":965:967   */\n  0x40\n    /* \"#utility.yul\":953:962   */\n  dup4\n    /* \"#utility.yul\":944:951   */\n  dup6\n    /* \"#utility.yul\":940:963   */\n  sub\n    /* \"#utility.yul\":936:968   */\n  slt\n    /* \"#utility.yul\":933:1052   */\n  iszero\n  tag_47\n  jumpi\n    /* \"#utility.yul\":971:1050   */\n  tag_48\n  tag_49\n  jump\t// in\ntag_48:\n    /* \"#utility.yul\":933:1052   */\ntag_47:\n    /* \"#utility.yul\":1112:1113   */\n  0x00\n    /* \"#utility.yul\":1101:1110   */\n  dup4\n    /* \"#utility.yul\":1097:1114   */\n  add\n    /* \"#utility.yul\":1091:1115   */\n  mload\n    /* \"#utility.yul\":1142:1160   */\n  0xffffffffffffffff\n    /* \"#utility.yul\":1134:1140   */\n  dup2\n    /* \"#utility.yul\":1131:1161   */\n  gt\n    /* \"#utility.yul\":1128:1245   */\n  iszero\n  tag_50\n  jumpi\n    /* \"#utility.yul\":1164:1243   */\n  tag_51\n  tag_52\n  jump\t// in\ntag_51:\n    /* \"#utility.yul\":1128:1245   */\ntag_50:\n    /* \"#utility.yul\":1269:1343   */\n  tag_53\n    /* \"#utility.yul\":1335:1342   */\n  dup6\n    /* \"#utility.yul\":1326:1332   */\n  dup3\n    /* \"#utility.yul\":1315:1324   */\n  dup7\n    /* \"#utility.yul\":1311:1333   */\n  add\n    /* \"#utility.yul\":1269:1343   */\n  tag_40\n  jump\t// in\ntag_53:\n    /* \"#utility.yul\":1259:1343   */\n  swap3\n  pop\n    /* \"#utility.yul\":1062:1353   */\n  pop\n    /* \"#utility.yul\":1413:1415   */\n  0x20\n    /* \"#utility.yul\":1402:1411   */\n  dup4\n    /* \"#utility.yul\":1398:1416   */\n  add\n    /* \"#utility.yul\":1392:1417   */\n  mload\n    /* \"#utility.yul\":1444:1462   */\n  0xffffffffffffffff\n    /* \"#utility.yul\":1436:1442   */\n  dup2\n    /* \"#utility.yul\":1433:1463   */\n  gt\n    /* \"#utility.yul\":1430:1547   */\n  iszero\n  tag_54\n  jumpi\n    /* \"#utility.yul\":1466:1545   */\n  tag_55\n  tag_52\n  jump\t// in\ntag_55:\n    /* \"#utility.yul\":1430:1547   */\ntag_54:\n    /* \"#utility.yul\":1571:1645   */\n  tag_56\n    /* \"#utility.yul\":1637:1644   */\n  dup6\n    /* \"#utility.yul\":1628:1634   */\n  dup3\n    /* \"#utility.yul\":1617:1626   */\n  dup7\n    /* \"#utility.yul\":1613:1635   */\n  add\n    /* \"#utility.yul\":1571:1645   */\n  tag_40\n  jump\t// in\ntag_56:\n    /* \"#utility.yul\":1561:1645   */\n  swap2\n  pop\n    /* \"#utility.yul\":1363:1655   */\n  pop\n    /* \"#utility.yul\":809:1662   */\n  swap3\n  pop\n  swap3\n  swap1\n  pop\n  jump\t// out\n    /* \"#utility.yul\":1668:1797   */\ntag_34:\n    /* \"#utility.yul\":1702:1708   */\n  0x00\n    /* \"#utility.yul\":1729:1749   */\n  tag_58\n  tag_59\n  jump\t// in\ntag_58:\n    /* \"#utility.yul\":1719:1749   */\n  swap1\n  pop\n    /* \"#utility.yul\":1758:1791   */\n  tag_60\n    /* \"#utility.yul\":1786:1790   */\n  dup3\n    /* \"#utility.yul\":1778:1784   */\n  dup3\n    /* \"#utility.yul\":1758:1791   */\n  tag_61\n  jump\t// in\ntag_60:\n    /* \"#utility.yul\":1668:1797   */\n  swap2\n  swap1\n  pop\n  jump\t// out\n    /* \"#utility.yul\":1803:1878   */\ntag_59:\n    /* \"#utility.yul\":1836:1842   */\n  0x00\n    /* \"#utility.yul\":1869:1871   */\n  0x40\n    /* \"#utility.yul\":1863:1872   */\n  mload\n    /* \"#utility.yul\":1853:1872   */\n  swap1\n  pop\n    /* \"#utility.yul\":1803:1878   */\n  swap1\n  jump\t// out\n    /* \"#utility.yul\":1884:2192   */\ntag_33:\n    /* \"#utility.yul\":1946:1950   */\n  0x00\n    /* \"#utility.yul\":2036:2054   */\n  0xffffffffffffffff\n    /* \"#utility.yul\":2028:2034   */\n  dup3\n    /* \"#utility.yul\":2025:2055   */\n  gt\n    /* \"#utility.yul\":2022:2078   */\n  iszero\n  tag_64\n  jumpi\n    /* \"#utility.yul\":2058:2076   */\n  tag_65\n  tag_66\n  jump\t// in\ntag_65:\n    /* \"#utility.yul\":2022:2078   */\ntag_64:\n    /* \"#utility.yul\":2096:2125   */\n  tag_67\n    /* \"#utility.yul\":2118:2124   */\n  dup3\n    /* \"#utility.yul\":2096:2125   */\n  tag_68\n  jump\t// in\ntag_67:\n    /* \"#utility.yul\":2088:2125   */\n  swap1\n  pop\n    /* \"#utility.yul\":2180:2184   */\n  0x20\n    /* \"#utility.yul\":2174:2178   */\n  dup2\n    /* \"#utility.yul\":2170:2185   */\n  add\n    /* \"#utility.yul\":2162:2185   */\n  swap1\n  pop\n    /* \"#utility.yul\":1884:2192   */\n  swap2\n  swap1\n  pop\n  jump\t// out\n    /* \"#utility.yul\":2198:2505   */\ntag_39:\n    /* \"#utility.yul\":2266:2267   */\n  0x00\n    /* \"#utility.yul\":2276:2389   */\ntag_70:\n    /* \"#utility.yul\":2290:2296   */\n  dup4\n    /* \"#utility.yul\":2287:2288   */\n  dup2\n    /* \"#utility.yul\":2284:2297   */\n  lt\n    /* \"#utility.yul\":2276:2389   */\n  iszero\n  tag_72\n  jumpi\n    /* \"#utility.yul\":2375:2376   */\n  dup1\n    /* \"#utility.yul\":2370:2373   */\n  dup3\n    /* \"#utility.yul\":2366:2377   */\n  add\n    /* \"#utility.yul\":2360:2378   */\n  mload\n    /* \"#utility.yul\":2356:2357   */\n  dup2\n    /* \"#utility.yul\":2351:2354   */\n  dup5\n    /* \"#utility.yul\":2347:2358   */\n  add\n    /* \"#utility.yul\":2340:2379   */\n  mstore\n    /* \"#utility.yul\":2312:2314   */\n  0x20\n    /* \"#utility.yul\":2309:2310   */\n  dup2\n    /* \"#utility.yul\":2305:2315   */\n  add\n    /* \"#utility.yul\":2300:2315   */\n  swap1\n  pop\n    /* \"#utility.yul\":2276:2389   */\n  jump(tag_70)\ntag_72:\n    /* \"#utility.yul\":2407:2413   */\n  dup4\n    /* \"#utility.yul\":2404:2405   */\n  dup2\n    /* \"#utility.yul\":2401:2414   */\n  gt\n    /* \"#utility.yul\":2398:2499   */\n  iszero\n  tag_73\n  jumpi\n    /* \"#utility.yul\":2487:2488   */\n  0x00\n    /* \"#utility.yul\":2478:2484   */\n  dup5\n    /* \"#utility.yul\":2473:2476   */\n  dup5\n    /* \"#utility.yul\":2469:2485   */\n  add\n    /* \"#utility.yul\":2462:2489   */\n  mstore\n    /* \"#utility.yul\":2398:2499   */\ntag_73:\n    /* \"#utility.yul\":2247:2505   */\n  pop\n    /* \"#utility.yul\":2198:2505   */\n  pop\n  pop\n  pop\n  jump\t// out\n    /* \"#utility.yul\":2511:2831   */\ntag_18:\n    /* \"#utility.yul\":2555:2561   */\n  0x00\n    /* \"#utility.yul\":2592:2593   */\n  0x02\n    /* \"#utility.yul\":2586:2590   */\n  dup3\n    /* \"#utility.yul\":2582:2594   */\n  div\n    /* \"#utility.yul\":2572:2594   */\n  swap1\n  pop\n    /* \"#utility.yul\":2639:2640   */\n  0x01\n    /* \"#utility.yul\":2633:2637   */\n  dup3\n    /* \"#utility.yul\":2629:2641   */\n  and\n    /* \"#utility.yul\":2660:2678   */\n  dup1\n    /* \"#utility.yul\":2650:2731   */\n  tag_75\n  jumpi\n    /* \"#utility.yul\":2716:2720   */\n  0x7f\n    /* \"#utility.yul\":2708:2714   */\n  dup3\n    /* \"#utility.yul\":2704:2721   */\n  and\n    /* \"#utility.yul\":2694:2721   */\n  swap2\n  pop\n    /* \"#utility.yul\":2650:2731   */\ntag_75:\n    /* \"#utility.yul\":2778:2780   */\n  0x20\n    /* \"#utility.yul\":2770:2776   */\n  dup3\n    /* \"#utility.yul\":2767:2781   */\n  lt\n    /* \"#utility.yul\":2747:2765   */\n  dup2\n    /* \"#utility.yul\":2744:2782   */\n  eq\n    /* \"#utility.yul\":2741:2825   */\n  iszero\n  tag_76\n  jumpi\n    /* \"#utility.yul\":2797:2815   */\n  tag_77\n  tag_78\n  jump\t// in\ntag_77:\n    /* \"#utility.yul\":2741:2825   */\ntag_76:\n    /* \"#utility.yul\":2562:2831   */\n  pop\n    /* \"#utility.yul\":2511:2831   */\n  swap2\n  swap1\n  pop\n  jump\t// out\n    /* \"#utility.yul\":2837:3118   */\ntag_61:\n    /* \"#utility.yul\":2920:2947   */\n  tag_80\n    /* \"#utility.yul\":2942:2946   */\n  dup3\n    /* \"#utility.yul\":2920:2947   */\n  tag_68\n  jump\t// in\ntag_80:\n    /* \"#utility.yul\":2912:2918   */\n  dup2\n    /* \"#utility.yul\":2908:2948   */\n  add\n    /* \"#utility.yul\":3050:3056   */\n  dup2\n    /* \"#utility.yul\":3038:3048   */\n  dup2\n    /* \"#utility.yul\":3035:3057   */\n  lt\n    /* \"#utility.yul\":3014:3032   */\n  0xffffffffffffffff\n    /* \"#utility.yul\":3002:3012   */\n  dup3\n    /* \"#utility.yul\":2999:3033   */\n  gt\n    /* \"#utility.yul\":2996:3058   */\n  or\n    /* \"#utility.yul\":2993:3081   */\n  iszero\n  tag_81\n  jumpi\n    /* \"#utility.yul\":3061:3079   */\n  tag_82\n  tag_66\n  jump\t// in\ntag_82:\n    /* \"#utility.yul\":2993:3081   */\ntag_81:\n    /* \"#utility.yul\":3101:3111   */\n  dup1\n    /* \"#utility.yul\":3097:3099   */\n  0x40\n    /* \"#utility.yul\":3090:3112   */\n  mstore\n    /* \"#utility.yul\":2880:3118   */\n  pop\n    /* \"#utility.yul\":2837:3118   */\n  pop\n  pop\n  jump\t// out\n    /* \"#utility.yul\":3124:3304   */\ntag_78:\n    /* \"#utility.yul\":3172:3249   */\n  0x4e487b7100000000000000000000000000000000000000000000000000000000\n    /* \"#utility.yul\":3169:3170   */\n  0x00\n    /* \"#utility.yul\":3162:3250   */\n  mstore\n    /* \"#utility.yul\":3269:3273   */\n  0x22\n    /* \"#utility.yul\":3266:3267   */\n  0x04\n    /* \"#utility.yul\":3259:3274   */\n  mstore\n    /* \"#utility.yul\":3293:3297   */\n  0x24\n    /* \"#utility.yul\":3290:3291   */\n  0x00\n    /* \"#utility.yul\":3283:3298   */\n  revert\n    /* \"#utility.yul\":3310:3490   */\ntag_66:\n    /* \"#utility.yul\":3358:3435   */\n  0x4e487b7100000000000000000000000000000000000000000000000000000000\n    /* \"#utility.yul\":3355:3356   */\n  0x00\n    /* \"#utility.yul\":3348:3436   */\n  mstore\n    /* \"#utility.yul\":3455:3459   */\n  0x41\n    /* \"#utility.yul\":3452:3453   */\n  0x04\n    /* \"#utility.yul\":3445:3460   */\n  mstore\n    /* \"#utility.yul\":3479:3483   */\n  0x24\n    /* \"#utility.yul\":3476:3477   */\n  0x00\n    /* \"#utility.yul\":3469:3484   */\n  revert\n    /* \"#utility.yul\":3496:3613   */\ntag_44:\n    /* \"#utility.yul\":3605:3606   */\n  0x00\n    /* \"#utility.yul\":3602:3603   */\n  dup1\n    /* \"#utility.yul\":3595:3607   */\n  revert\n    /* \"#utility.yul\":3619:3736   */\ntag_37:\n    /* \"#utility.yul\":3728:3729   */\n  0x00\n    /* \"#utility.yul\":3725:3726   */\n  dup1\n    /* \"#utility.yul\":3718:3730   */\n  revert\n    /* \"#utility.yul\":3742:3859   */\ntag_52:\n    /* \"#utility.yul\":3851:3852   */\n  0x00\n    /* \"#utility.yul\":3848:3849   */\n  dup1\n    /* \"#utility.yul\":3841:3853   */\n  revert\n    /* \"#utility.yul\":3865:3982   */\ntag_49:\n    /* \"#utility.yul\":3974:3975   */\n  0x00\n    /* \"#utility.yul\":3971:3972   */\n  dup1\n    /* \"#utility.yul\":3964:3976   */\n  revert\n    /* \"#utility.yul\":3988:4090   */\ntag_68:\n    /* \"#utility.yul\":4029:4035   */\n  0x00\n    /* \"#utility.yul\":4080:4082   */\n  0x1f\n    /* \"#utility.yul\":4076:4083   */\n  not\n    /* \"#utility.yul\":4071:4073   */\n  0x1f\n    /* \"#utility.yul\":4064:4069   */\n  dup4\n    /* \"#utility.yul\":4060:4074   */\n  add\n    /* \"#utility.yul\":4056:4084   */\n  and\n    /* \"#utility.yul\":4046:4084   */\n  swap1\n  pop\n    /* \"#utility.yul\":3988:4090   */\n  swap2\n  swap1\n  pop\n  jump\t// out\n    /* \"ERC721.sol\":577:14884  contract ERC721 is BEPContext, ERC165, IERC721, IERC721Metadata, BEPOwnable {... */\ntag_15:\n  dataSize(sub_0)\n  dup1\n  dataOffset(sub_0)\n  0x00\n  codecopy\n  0x00\n  return\nstop\n\nsub_0: assembly {\n        /* \"ERC721.sol\":577:14884  contract ERC721 is BEPContext, ERC165, IERC721, IERC721Metadata, BEPOwnable {... */\n      mstore(0x40, 0x80)\n      callvalue\n      dup1\n      iszero\n      tag_1\n      jumpi\n      0x00\n      dup1\n      revert\n    tag_1:\n      pop\n      jumpi(tag_2, lt(calldatasize, 0x04))\n      shr(0xe0, calldataload(0x00))\n      dup1\n      0x715018a6\n      gt\n      tag_21\n      jumpi\n      dup1\n      0xa22cb465\n      gt\n      tag_22\n      jumpi\n      dup1\n      0xa22cb465\n      eq\n      tag_16\n      jumpi\n      dup1\n      0xb88d4fde\n      eq\n      tag_17\n      jumpi\n      dup1\n      0xc87b56dd\n      eq\n      tag_18\n      jumpi\n      dup1\n      0xe985e9c5\n      eq\n      tag_19\n      jumpi\n      dup1\n      0xf2fde38b\n      eq\n      tag_20\n      jumpi\n      jump(tag_2)\n    tag_22:\n      dup1\n      0x715018a6\n      eq\n      tag_12\n      jumpi\n      dup1\n      0x8da5cb5b\n      eq\n      tag_13\n      jumpi\n      dup1\n      0x8f32d59b\n      eq\n      tag_14\n      jumpi\n      dup1\n      0x95d89b41\n      eq\n      tag_15\n      jumpi\n      jump(tag_2)\n    tag_21:\n      dup1\n      0x23b872dd\n      gt\n      tag_23\n      jumpi\n      dup1\n      0x23b872dd\n      eq\n      tag_7\n      jumpi\n      dup1\n      0x313ce567\n      eq\n      tag_8\n      jumpi\n      dup1\n      0x42842e0e\n      eq\n      tag_9\n      jumpi\n      dup1\n      0x6352211e\n      eq\n      tag_10\n      jumpi\n      dup1\n      0x70a08231\n      eq\n      tag_11\n      jumpi\n      jump(tag_2)\n    tag_23:\n      dup1\n      0x01ffc9a7\n      eq\n      tag_3\n      jumpi\n      dup1\n      0x06fdde03\n      eq\n      tag_4\n      jumpi\n      dup1\n      0x081812fc\n      eq\n      tag_5\n      jumpi\n      dup1\n      0x095ea7b3\n      eq\n      tag_6\n      jumpi\n    tag_2:\n      0x00\n      dup1\n      revert\n        /* \"ERC721.sol\":1534:1834  function supportsInterface(bytes4 interfaceId) public view virtual override(ERC165, IERC165) returns (bool) {... */\n    tag_3:\n      tag_24\n      0x04\n      dup1\n      calldatasize\n      sub\n      dup2\n      add\n      swap1\n      tag_25\n      swap2\n      swap1\n      tag_26\n      jump\t// in\n    tag_25:\n      tag_27\n      jump\t// in\n    tag_24:\n      mload(0x40)\n      tag_28\n      swap2\n      swap1\n      tag_29\n      jump\t// in\n    tag_28:\n      mload(0x40)\n      dup1\n      swap2\n      sub\n      swap1\n      return\n        /* \"ERC721.sol\":2452:2550  function name() public view virtual override returns (string memory) {... */\n    tag_4:\n      tag_30\n      tag_31\n      jump\t// in\n    tag_30:\n      mload(0x40)\n      tag_32\n      swap2\n      swap1\n      tag_33\n      jump\t// in\n    tag_32:\n      mload(0x40)\n      dup1\n      swap2\n      sub\n      swap1\n      return\n        /* \"ERC721.sol\":4590:4808  function getApproved(uint256 tokenId) public  view virtual override returns (address) {... */\n    tag_5:\n      tag_34\n      0x04\n      dup1\n      calldatasize\n      sub\n      dup2\n      add\n      swap1\n      tag_35\n      swap2\n      swap1\n      tag_36\n      jump\t// in\n    tag_35:\n      tag_37\n      jump\t// in\n    tag_34:\n      mload(0x40)\n      tag_38\n      swap2\n      swap1\n      tag_39\n      jump\t// in\n    tag_38:\n      mload(0x40)\n      dup1\n      swap2\n      sub\n      swap1\n      return\n        /* \"ERC721.sol\":4127:4529  function approve(address to, uint256 tokenId) public  virtual override {... */\n    tag_6:\n      tag_40\n      0x04\n      dup1\n      calldatasize\n      sub\n      dup2\n      add\n      swap1\n      tag_41\n      swap2\n      swap1\n      tag_42\n      jump\t// in\n    tag_41:\n      tag_43\n      jump\t// in\n    tag_40:\n      stop\n        /* \"ERC721.sol\":5320:5651  function transferFrom(... */\n    tag_7:\n      tag_44\n      0x04\n      dup1\n      calldatasize\n      sub\n      dup2\n      add\n      swap1\n      tag_45\n      swap2\n      swap1\n      tag_46\n      jump\t// in\n    tag_45:\n      tag_47\n      jump\t// in\n    tag_44:\n      stop\n        /* \"ERC721.sol\":3254:3342  function decimals() public view virtual returns (uint8) {... */\n    tag_8:\n      tag_48\n      tag_49\n      jump\t// in\n    tag_48:\n      mload(0x40)\n      tag_50\n      swap2\n      swap1\n      tag_51\n      jump\t// in\n    tag_50:\n      mload(0x40)\n      dup1\n      swap2\n      sub\n      swap1\n      return\n        /* \"ERC721.sol\":5717:5897  function safeTransferFrom(... */\n    tag_9:\n      tag_52\n      0x04\n      dup1\n      calldatasize\n      sub\n      dup2\n      add\n      swap1\n      tag_53\n      swap2\n      swap1\n      tag_46\n      jump\t// in\n    tag_53:\n      tag_54\n      jump\t// in\n    tag_52:\n      stop\n        /* \"ERC721.sol\":2155:2390  function ownerOf(uint256 tokenId) public view virtual override returns (address) {... */\n    tag_10:\n      tag_55\n      0x04\n      dup1\n      calldatasize\n      sub\n      dup2\n      add\n      swap1\n      tag_56\n      swap2\n      swap1\n      tag_36\n      jump\t// in\n    tag_56:\n      tag_57\n      jump\t// in\n    tag_55:\n      mload(0x40)\n      tag_58\n      swap2\n      swap1\n      tag_39\n      jump\t// in\n    tag_58:\n      mload(0x40)\n      dup1\n      swap2\n      sub\n      swap1\n      return\n        /* \"ERC721.sol\":1893:2098  function balanceOf(address owner) public view virtual override returns (uint256) {... */\n    tag_11:\n      tag_59\n      0x04\n      dup1\n      calldatasize\n      sub\n      dup2\n      add\n      swap1\n      tag_60\n      swap2\n      swap1\n      tag_61\n      jump\t// in\n    tag_60:\n      tag_62\n      jump\t// in\n    tag_59:\n      mload(0x40)\n      tag_63\n      swap2\n      swap1\n      tag_64\n      jump\t// in\n    tag_63:\n      mload(0x40)\n      dup1\n      swap2\n      sub\n      swap1\n      return\n        /* \"BEPOwnable.sol\":1630:1757  function renounceOwnership() public onlyOwner {... */\n    tag_12:\n      tag_65\n      tag_66\n      jump\t// in\n    tag_65:\n      stop\n        /* \"BEPOwnable.sol\":899:970  function owner() public view returns (address) {... */\n    tag_13:\n      tag_67\n      tag_68\n      jump\t// in\n    tag_67:\n      mload(0x40)\n      tag_69\n      swap2\n      swap1\n      tag_39\n      jump\t// in\n    tag_69:\n      mload(0x40)\n      dup1\n      swap2\n      sub\n      swap1\n      return\n        /* \"BEPOwnable.sol\":1218:1304  function isOwner() public view returns (bool) {... */\n    tag_14:\n      tag_70\n      tag_71\n      jump\t// in\n    tag_70:\n      mload(0x40)\n      tag_72\n      swap2\n      swap1\n      tag_29\n      jump\t// in\n    tag_72:\n      mload(0x40)\n      dup1\n      swap2\n      sub\n      swap1\n      return\n        /* \"ERC721.sol\":2614:2716  function symbol() public view virtual override returns (string memory) {... */\n    tag_15:\n      tag_73\n      tag_74\n      jump\t// in\n    tag_73:\n      mload(0x40)\n      tag_75\n      swap2\n      swap1\n      tag_33\n      jump\t// in\n    tag_75:\n      mload(0x40)\n      dup1\n      swap2\n      sub\n      swap1\n      return\n        /* \"ERC721.sol\":4875:5029  function setApprovalForAll(address operator, bool approved) public  virtual override {... */\n    tag_16:\n      tag_76\n      0x04\n      dup1\n      calldatasize\n      sub\n      dup2\n      add\n      swap1\n      tag_77\n      swap2\n      swap1\n      tag_78\n      jump\t// in\n    tag_77:\n      tag_79\n      jump\t// in\n    tag_76:\n      stop\n        /* \"ERC721.sol\":5963:6284  function safeTransferFrom(... */\n    tag_17:\n      tag_80\n      0x04\n      dup1\n      calldatasize\n      sub\n      dup2\n      add\n      swap1\n      tag_81\n      swap2\n      swap1\n      tag_82\n      jump\t// in\n    tag_81:\n      tag_83\n      jump\t// in\n    tag_80:\n      stop\n        /* \"ERC721.sol\":3408:3737  function tokenURI(uint256 tokenId) public view virtual override returns (string memory) {... */\n    tag_18:\n      tag_84\n      0x04\n      dup1\n      calldatasize\n      sub\n      dup2\n      add\n      swap1\n      tag_85\n      swap2\n      swap1\n      tag_36\n      jump\t// in\n    tag_85:\n      tag_86\n      jump\t// in\n    tag_84:\n      mload(0x40)\n      tag_87\n      swap2\n      swap1\n      tag_33\n      jump\t// in\n    tag_87:\n      mload(0x40)\n      dup1\n      swap2\n      sub\n      swap1\n      return\n        /* \"ERC721.sol\":5095:5258  function isApprovedForAll(address owner, address operator) public  view virtual override returns (bool) {... */\n    tag_19:\n      tag_88\n      0x04\n      dup1\n      calldatasize\n      sub\n      dup2\n      add\n      swap1\n      tag_89\n      swap2\n      swap1\n      tag_90\n      jump\t// in\n    tag_89:\n      tag_91\n      jump\t// in\n    tag_88:\n      mload(0x40)\n      tag_92\n      swap2\n      swap1\n      tag_29\n      jump\t// in\n    tag_92:\n      mload(0x40)\n      dup1\n      swap2\n      sub\n      swap1\n      return\n        /* \"BEPOwnable.sol\":1896:1997  function transferOwnership(address newOwner) public onlyOwner {... */\n    tag_20:\n      tag_93\n      0x04\n      dup1\n      calldatasize\n      sub\n      dup2\n      add\n      swap1\n      tag_94\n      swap2\n      swap1\n      tag_61\n      jump\t// in\n    tag_94:\n      tag_95\n      jump\t// in\n    tag_93:\n      stop\n        /* \"ERC721.sol\":1534:1834  function supportsInterface(bytes4 interfaceId) public view virtual override(ERC165, IERC165) returns (bool) {... */\n    tag_27:\n        /* \"ERC721.sol\":1636:1640  bool */\n      0x00\n        /* \"ERC721.sol\":1686:1711  type(IERC721).interfaceId */\n      0x80ac58cd00000000000000000000000000000000000000000000000000000000\n        /* \"ERC721.sol\":1671:1711  interfaceId == type(IERC721).interfaceId */\n      not(0xffffffffffffffffffffffffffffffffffffffffffffffffffffffff)\n      and\n        /* \"ERC721.sol\":1671:1682  interfaceId */\n      dup3\n        /* \"ERC721.sol\":1671:1711  interfaceId == type(IERC721).interfaceId */\n      not(0xffffffffffffffffffffffffffffffffffffffffffffffffffffffff)\n      and\n      eq\n        /* \"ERC721.sol\":1671:1775  interfaceId == type(IERC721).interfaceId ||... */\n      dup1\n      tag_97\n      jumpi\n      pop\n        /* \"ERC721.sol\":1742:1775  type(IERC721Metadata).interfaceId */\n      0x5b5e139f00000000000000000000000000000000000000000000000000000000\n        /* \"ERC721.sol\":1727:1775  interfaceId == type(IERC721Metadata).interfaceId */\n      not(0xffffffffffffffffffffffffffffffffffffffffffffffffffffffff)\n      and\n        /* \"ERC721.sol\":1727:1738  interfaceId */\n      dup3\n        /* \"ERC721.sol\":1727:1775  interfaceId == type(IERC721Metadata).interfaceId */\n      not(0xffffffffffffffffffffffffffffffffffffffffffffffffffffffff)\n      and\n      eq\n        /* \"ERC721.sol\":1671:1775  interfaceId == type(IERC721).interfaceId ||... */\n    tag_97:\n        /* \"ERC721.sol\":1671:1827  interfaceId == type(IERC721).interfaceId ||... */\n      dup1\n      tag_98\n      jumpi\n      pop\n        /* \"ERC721.sol\":1791:1827  super.supportsInterface(interfaceId) */\n      tag_99\n        /* \"ERC721.sol\":1815:1826  interfaceId */\n      dup3\n        /* \"ERC721.sol\":1791:1814  super.supportsInterface */\n      tag_100\n        /* \"ERC721.sol\":1791:1827  super.supportsInterface(interfaceId) */\n      jump\t// in\n    tag_99:\n        /* \"ERC721.sol\":1671:1827  interfaceId == type(IERC721).interfaceId ||... */\n    tag_98:\n        /* \"ERC721.sol\":1652:1827  return... */\n      swap1\n      pop\n        /* \"ERC721.sol\":1534:1834  function supportsInterface(bytes4 interfaceId) public view virtual override(ERC165, IERC165) returns (bool) {... */\n      swap2\n      swap1\n      pop\n      jump\t// out\n        /* \"ERC721.sol\":2452:2550  function name() public view virtual override returns (string memory) {... */\n    tag_31:\n        /* \"ERC721.sol\":2506:2519  string memory */\n      0x60\n        /* \"ERC721.sol\":2538:2543  _name */\n      0x01\n        /* \"ERC721.sol\":2531:2543  return _name */\n      dup1\n      sload\n      tag_102\n      swap1\n      tag_103\n      jump\t// in\n    tag_102:\n      dup1\n      0x1f\n      add\n      0x20\n      dup1\n      swap2\n      div\n      mul\n      0x20\n      add\n      mload(0x40)\n      swap1\n      dup2\n      add\n      0x40\n      mstore\n      dup1\n      swap3\n      swap2\n      swap1\n      dup2\n      dup2\n      mstore\n      0x20\n      add\n      dup3\n      dup1\n      sload\n      tag_104\n      swap1\n      tag_103\n      jump\t// in\n    tag_104:\n      dup1\n      iszero\n      tag_105\n      jumpi\n      dup1\n      0x1f\n      lt\n      tag_106\n      jumpi\n      0x0100\n      dup1\n      dup4\n      sload\n      div\n      mul\n      dup4\n      mstore\n      swap2\n      0x20\n      add\n      swap2\n      jump(tag_105)\n    tag_106:\n      dup3\n      add\n      swap2\n      swap1\n      0x00\n      mstore\n      keccak256(0x00, 0x20)\n      swap1\n    tag_107:\n      dup2\n      sload\n      dup2\n      mstore\n      swap1\n      0x01\n      add\n      swap1\n      0x20\n      add\n      dup1\n      dup4\n      gt\n      tag_107\n      jumpi\n      dup3\n      swap1\n      sub\n      0x1f\n      and\n      dup3\n      add\n      swap2\n    tag_105:\n      pop\n      pop\n      pop\n      pop\n      pop\n      swap1\n      pop\n        /* \"ERC721.sol\":2452:2550  function name() public view virtual override returns (string memory) {... */\n      swap1\n      jump\t// out\n        /* \"ERC721.sol\":4590:4808  function getApproved(uint256 tokenId) public  view virtual override returns (address) {... */\n    tag_37:\n        /* \"ERC721.sol\":4667:4674  address */\n      0x00\n        /* \"ERC721.sol\":4694:4710  _exists(tokenId) */\n      tag_109\n        /* \"ERC721.sol\":4702:4709  tokenId */\n      dup3\n        /* \"ERC721.sol\":4694:4701  _exists */\n      tag_110\n        /* \"ERC721.sol\":4694:4710  _exists(tokenId) */\n      jump\t// in\n    tag_109:\n        /* \"ERC721.sol\":4686:4759  require(_exists(tokenId), \"ERC721: approved query for nonexistent token\") */\n      tag_111\n      jumpi\n      mload(0x40)\n      0x08c379a000000000000000000000000000000000000000000000000000000000\n      dup2\n      mstore\n      0x04\n      add\n      tag_112\n      swap1\n      tag_113\n      jump\t// in\n    tag_112:\n      mload(0x40)\n      dup1\n      swap2\n      sub\n      swap1\n      revert\n    tag_111:\n        /* \"ERC721.sol\":4777:4792  _tokenApprovals */\n      0x05\n        /* \"ERC721.sol\":4777:4801  _tokenApprovals[tokenId] */\n      0x00\n        /* \"ERC721.sol\":4793:4800  tokenId */\n      dup4\n        /* \"ERC721.sol\":4777:4801  _tokenApprovals[tokenId] */\n      dup2\n      mstore\n      0x20\n      add\n      swap1\n      dup2\n      mstore\n      0x20\n      add\n      0x00\n      keccak256\n      0x00\n      swap1\n      sload\n      swap1\n      0x0100\n      exp\n      swap1\n      div\n      0xffffffffffffffffffffffffffffffffffffffff\n      and\n        /* \"ERC721.sol\":4770:4801  return _tokenApprovals[tokenId] */\n      swap1\n      pop\n        /* \"ERC721.sol\":4590:4808  function getApproved(uint256 tokenId) public  view virtual override returns (address) {... */\n      swap2\n      swap1\n      pop\n      jump\t// out\n        /* \"ERC721.sol\":4127:4529  function approve(address to, uint256 tokenId) public  virtual override {... */\n    tag_43:\n        /* \"ERC721.sol\":4208:4221  address owner */\n      0x00\n        /* \"ERC721.sol\":4224:4247  ERC721.ownerOf(tokenId) */\n      tag_115\n        /* \"ERC721.sol\":4239:4246  tokenId */\n      dup3\n        /* \"ERC721.sol\":4224:4238  ERC721.ownerOf */\n      tag_57\n        /* \"ERC721.sol\":4224:4247  ERC721.ownerOf(tokenId) */\n      jump\t// in\n    tag_115:\n        /* \"ERC721.sol\":4208:4247  address owner = ERC721.ownerOf(tokenId) */\n      swap1\n      pop\n        /* \"ERC721.sol\":4271:4276  owner */\n      dup1\n        /* \"ERC721.sol\":4265:4276  to != owner */\n      0xffffffffffffffffffffffffffffffffffffffff\n      and\n        /* \"ERC721.sol\":4265:4267  to */\n      dup4\n        /* \"ERC721.sol\":4265:4276  to != owner */\n      0xffffffffffffffffffffffffffffffffffffffff\n      and\n      eq\n      iszero\n        /* \"ERC721.sol\":4257:4314  require(to != owner, \"ERC721: approval to current owner\") */\n      tag_116\n      jumpi\n      mload(0x40)\n      0x08c379a000000000000000000000000000000000000000000000000000000000\n      dup2\n      mstore\n      0x04\n      add\n      tag_117\n      swap1\n      tag_118\n      jump\t// in\n    tag_117:\n      mload(0x40)\n      dup1\n      swap2\n      sub\n      swap1\n      revert\n    tag_116:\n        /* \"ERC721.sol\":4362:4367  owner */\n      dup1\n        /* \"ERC721.sol\":4346:4367  _msgSender() == owner */\n      0xffffffffffffffffffffffffffffffffffffffff\n      and\n        /* \"ERC721.sol\":4346:4358  _msgSender() */\n      tag_119\n        /* \"ERC721.sol\":4346:4356  _msgSender */\n      tag_120\n        /* \"ERC721.sol\":4346:4358  _msgSender() */\n      jump\t// in\n    tag_119:\n        /* \"ERC721.sol\":4346:4367  _msgSender() == owner */\n      0xffffffffffffffffffffffffffffffffffffffff\n      and\n      eq\n        /* \"ERC721.sol\":4346:4408  _msgSender() == owner || isApprovedForAll(owner, _msgSender()) */\n      dup1\n      tag_121\n      jumpi\n      pop\n        /* \"ERC721.sol\":4371:4408  isApprovedForAll(owner, _msgSender()) */\n      tag_122\n        /* \"ERC721.sol\":4388:4393  owner */\n      dup2\n        /* \"ERC721.sol\":4395:4407  _msgSender() */\n      tag_123\n        /* \"ERC721.sol\":4395:4405  _msgSender */\n      tag_120\n        /* \"ERC721.sol\":4395:4407  _msgSender() */\n      jump\t// in\n    tag_123:\n        /* \"ERC721.sol\":4371:4387  isApprovedForAll */\n      tag_91\n        /* \"ERC721.sol\":4371:4408  isApprovedForAll(owner, _msgSender()) */\n      jump\t// in\n    tag_122:\n        /* \"ERC721.sol\":4346:4408  _msgSender() == owner || isApprovedForAll(owner, _msgSender()) */\n    tag_121:\n        /* \"ERC721.sol\":4325:4490  require(... */\n      tag_124\n      jumpi\n      mload(0x40)\n      0x08c379a000000000000000000000000000000000000000000000000000000000\n      dup2\n      mstore\n      0x04\n      add\n      tag_125\n      swap1\n      tag_126\n      jump\t// in\n    tag_125:\n      mload(0x40)\n      dup1\n      swap2\n      sub\n      swap1\n      revert\n    tag_124:\n        /* \"ERC721.sol\":4501:4522  _approve(to, tokenId) */\n      tag_127\n        /* \"ERC721.sol\":4510:4512  to */\n      dup4\n        /* \"ERC721.sol\":4514:4521  tokenId */\n      dup4\n        /* \"ERC721.sol\":4501:4509  _approve */\n      tag_128\n        /* \"ERC721.sol\":4501:4522  _approve(to, tokenId) */\n      jump\t// in\n    tag_127:\n        /* \"ERC721.sol\":4198:4529  {... */\n      pop\n        /* \"ERC721.sol\":4127:4529  function approve(address to, uint256 tokenId) public  virtual override {... */\n      pop\n      pop\n      jump\t// out\n        /* \"ERC721.sol\":5320:5651  function transferFrom(... */\n    tag_47:\n        /* \"ERC721.sol\":5510:5551  _isApprovedOrOwner(_msgSender(), tokenId) */\n      tag_130\n        /* \"ERC721.sol\":5529:5541  _msgSender() */\n      tag_131\n        /* \"ERC721.sol\":5529:5539  _msgSender */\n      tag_120\n        /* \"ERC721.sol\":5529:5541  _msgSender() */\n      jump\t// in\n    tag_131:\n        /* \"ERC721.sol\":5543:5550  tokenId */\n      dup3\n        /* \"ERC721.sol\":5510:5528  _isApprovedOrOwner */\n      tag_132\n        /* \"ERC721.sol\":5510:5551  _isApprovedOrOwner(_msgSender(), tokenId) */\n      jump\t// in\n    tag_130:\n        /* \"ERC721.sol\":5502:5605  require(_isApprovedOrOwner(_msgSender(), tokenId), \"ERC721: transfer caller is not owner nor approved\") */\n      tag_133\n      jumpi\n      mload(0x40)\n      0x08c379a000000000000000000000000000000000000000000000000000000000\n      dup2\n      mstore\n      0x04\n      add\n      tag_134\n      swap1\n      tag_135\n      jump\t// in\n    tag_134:\n      mload(0x40)\n      dup1\n      swap2\n      sub\n      swap1\n      revert\n    tag_133:\n        /* \"ERC721.sol\":5616:5644  _transfer(from, to, tokenId) */\n      tag_136\n        /* \"ERC721.sol\":5626:5630  from */\n      dup4\n        /* \"ERC721.sol\":5632:5634  to */\n      dup4\n        /* \"ERC721.sol\":5636:5643  tokenId */\n      dup4\n        /* \"ERC721.sol\":5616:5625  _transfer */\n      tag_137\n        /* \"ERC721.sol\":5616:5644  _transfer(from, to, tokenId) */\n      jump\t// in\n    tag_136:\n        /* \"ERC721.sol\":5320:5651  function transferFrom(... */\n      pop\n      pop\n      pop\n      jump\t// out\n        /* \"ERC721.sol\":3254:3342  function decimals() public view virtual returns (uint8) {... */\n    tag_49:\n        /* \"ERC721.sol\":3303:3308  uint8 */\n      0x00\n        /* \"ERC721.sol\":3254:3342  function decimals() public view virtual returns (uint8) {... */\n      swap1\n      jump\t// out\n        /* \"ERC721.sol\":5717:5897  function safeTransferFrom(... */\n    tag_54:\n        /* \"ERC721.sol\":5851:5890  safeTransferFrom(from, to, tokenId, \"\") */\n      tag_140\n        /* \"ERC721.sol\":5868:5872  from */\n      dup4\n        /* \"ERC721.sol\":5874:5876  to */\n      dup4\n        /* \"ERC721.sol\":5878:5885  tokenId */\n      dup4\n        /* \"ERC721.sol\":5851:5890  safeTransferFrom(from, to, tokenId, \"\") */\n      mload(0x40)\n      dup1\n      0x20\n      add\n      0x40\n      mstore\n      dup1\n      0x00\n      dup2\n      mstore\n      pop\n        /* \"ERC721.sol\":5851:5867  safeTransferFrom */\n      tag_83\n        /* \"ERC721.sol\":5851:5890  safeTransferFrom(from, to, tokenId, \"\") */\n      jump\t// in\n    tag_140:\n        /* \"ERC721.sol\":5717:5897  function safeTransferFrom(... */\n      pop\n      pop\n      pop\n      jump\t// out\n        /* \"ERC721.sol\":2155:2390  function ownerOf(uint256 tokenId) public view virtual override returns (address) {... */\n    tag_57:\n        /* \"ERC721.sol\":2227:2234  address */\n      0x00\n        /* \"ERC721.sol\":2246:2259  address owner */\n      dup1\n        /* \"ERC721.sol\":2262:2269  _owners */\n      0x03\n        /* \"ERC721.sol\":2262:2278  _owners[tokenId] */\n      0x00\n        /* \"ERC721.sol\":2270:2277  tokenId */\n      dup5\n        /* \"ERC721.sol\":2262:2278  _owners[tokenId] */\n      dup2\n      mstore\n      0x20\n      add\n      swap1\n      dup2\n      mstore\n      0x20\n      add\n      0x00\n      keccak256\n      0x00\n      swap1\n      sload\n      swap1\n      0x0100\n      exp\n      swap1\n      div\n      0xffffffffffffffffffffffffffffffffffffffff\n      and\n        /* \"ERC721.sol\":2246:2278  address owner = _owners[tokenId] */\n      swap1\n      pop\n        /* \"ERC721.sol\":2313:2314  0 */\n      0x00\n        /* \"ERC721.sol\":2296:2315  owner != address(0) */\n      0xffffffffffffffffffffffffffffffffffffffff\n      and\n        /* \"ERC721.sol\":2296:2301  owner */\n      dup2\n        /* \"ERC721.sol\":2296:2315  owner != address(0) */\n      0xffffffffffffffffffffffffffffffffffffffff\n      and\n      eq\n      iszero\n        /* \"ERC721.sol\":2288:2361  require(owner != address(0), \"ERC721: owner query for nonexistent token\") */\n      tag_142\n      jumpi\n      mload(0x40)\n      0x08c379a000000000000000000000000000000000000000000000000000000000\n      dup2\n      mstore\n      0x04\n      add\n      tag_143\n      swap1\n      tag_144\n      jump\t// in\n    tag_143:\n      mload(0x40)\n      dup1\n      swap2\n      sub\n      swap1\n      revert\n    tag_142:\n        /* \"ERC721.sol\":2378:2383  owner */\n      dup1\n        /* \"ERC721.sol\":2371:2383  return owner */\n      swap2\n      pop\n      pop\n        /* \"ERC721.sol\":2155:2390  function ownerOf(uint256 tokenId) public view virtual override returns (address) {... */\n      swap2\n      swap1\n      pop\n      jump\t// out\n        /* \"ERC721.sol\":1893:2098  function balanceOf(address owner) public view virtual override returns (uint256) {... */\n    tag_62:\n        /* \"ERC721.sol\":1965:1972  uint256 */\n      0x00\n        /* \"ERC721.sol\":2009:2010  0 */\n      dup1\n        /* \"ERC721.sol\":1992:2011  owner != address(0) */\n      0xffffffffffffffffffffffffffffffffffffffff\n      and\n        /* \"ERC721.sol\":1992:1997  owner */\n      dup3\n        /* \"ERC721.sol\":1992:2011  owner != address(0) */\n      0xffffffffffffffffffffffffffffffffffffffff\n      and\n      eq\n      iszero\n        /* \"ERC721.sol\":1984:2058  require(owner != address(0), \"ERC721: balance query for the zero address\") */\n      tag_146\n      jumpi\n      mload(0x40)\n      0x08c379a000000000000000000000000000000000000000000000000000000000\n      dup2\n      mstore\n      0x04\n      add\n      tag_147\n      swap1\n      tag_148\n      jump\t// in\n    tag_147:\n      mload(0x40)\n      dup1\n      swap2\n      sub\n      swap1\n      revert\n    tag_146:\n        /* \"ERC721.sol\":2075:2084  _balances */\n      0x04\n        /* \"ERC721.sol\":2075:2091  _balances[owner] */\n      0x00\n        /* \"ERC721.sol\":2085:2090  owner */\n      dup4\n        /* \"ERC721.sol\":2075:2091  _balances[owner] */\n      0xffffffffffffffffffffffffffffffffffffffff\n      and\n      0xffffffffffffffffffffffffffffffffffffffff\n      and\n      dup2\n      mstore\n      0x20\n      add\n      swap1\n      dup2\n      mstore\n      0x20\n      add\n      0x00\n      keccak256\n      sload\n        /* \"ERC721.sol\":2068:2091  return _balances[owner] */\n      swap1\n      pop\n        /* \"ERC721.sol\":1893:2098  function balanceOf(address owner) public view virtual override returns (uint256) {... */\n      swap2\n      swap1\n      pop\n      jump\t// out\n        /* \"BEPOwnable.sol\":1630:1757  function renounceOwnership() public onlyOwner {... */\n    tag_66:\n        /* \"BEPOwnable.sol\":1085:1094  isOwner() */\n      tag_150\n        /* \"BEPOwnable.sol\":1085:1092  isOwner */\n      tag_71\n        /* \"BEPOwnable.sol\":1085:1094  isOwner() */\n      jump\t// in\n    tag_150:\n        /* \"BEPOwnable.sol\":1077:1131  require(isOwner(), \"Ownable: caller is not the owner\") */\n      tag_151\n      jumpi\n      mload(0x40)\n      0x08c379a000000000000000000000000000000000000000000000000000000000\n      dup2\n      mstore\n      0x04\n      add\n      tag_152\n      swap1\n      tag_153\n      jump\t// in\n    tag_152:\n      mload(0x40)\n      dup1\n      swap2\n      sub\n      swap1\n      revert\n    tag_151:\n        /* \"BEPOwnable.sol\":1724:1725  0 */\n      0x00\n        /* \"BEPOwnable.sol\":1687:1727  OwnershipTransferred(_owner, address(0)) */\n      0xffffffffffffffffffffffffffffffffffffffff\n      and\n        /* \"BEPOwnable.sol\":1708:1714  _owner */\n      0x00\n      dup1\n      sload\n      swap1\n      0x0100\n      exp\n      swap1\n      div\n      0xffffffffffffffffffffffffffffffffffffffff\n      and\n        /* \"BEPOwnable.sol\":1687:1727  OwnershipTransferred(_owner, address(0)) */\n      0xffffffffffffffffffffffffffffffffffffffff\n      and\n      0x8be0079c531659141344cd1fd0a4f28419497f9722a3daafe3b4186f6b6457e0\n      mload(0x40)\n      mload(0x40)\n      dup1\n      swap2\n      sub\n      swap1\n      log3\n        /* \"BEPOwnable.sol\":1750:1751  0 */\n      0x00\n        /* \"BEPOwnable.sol\":1733:1739  _owner */\n      dup1\n      0x00\n        /* \"BEPOwnable.sol\":1733:1752  _owner = address(0) */\n      0x0100\n      exp\n      dup2\n      sload\n      dup2\n      0xffffffffffffffffffffffffffffffffffffffff\n      mul\n      not\n      and\n      swap1\n      dup4\n      0xffffffffffffffffffffffffffffffffffffffff\n      and\n      mul\n      or\n      swap1\n      sstore\n      pop\n        /* \"BEPOwnable.sol\":1630:1757  function renounceOwnership() public onlyOwner {... */\n      jump\t// out\n        /* \"BEPOwnable.sol\":899:970  function owner() public view returns (address) {... */\n    tag_68:\n        /* \"BEPOwnable.sol\":937:944  address */\n      0x00\n        /* \"BEPOwnable.sol\":959:965  _owner */\n      dup1\n      0x00\n      swap1\n      sload\n      swap1\n      0x0100\n      exp\n      swap1\n      div\n      0xffffffffffffffffffffffffffffffffffffffff\n      and\n        /* \"BEPOwnable.sol\":952:965  return _owner */\n      swap1\n      pop\n        /* \"BEPOwnable.sol\":899:970  function owner() public view returns (address) {... */\n      swap1\n      jump\t// out\n        /* \"BEPOwnable.sol\":1218:1304  function isOwner() public view returns (bool) {... */\n    tag_71:\n        /* \"BEPOwnable.sol\":1258:1262  bool */\n      0x00\n        /* \"BEPOwnable.sol\":1293:1299  _owner */\n      dup1\n      0x00\n      swap1\n      sload\n      swap1\n      0x0100\n      exp\n      swap1\n      div\n      0xffffffffffffffffffffffffffffffffffffffff\n      and\n        /* \"BEPOwnable.sol\":1277:1299  _msgSender() == _owner */\n      0xffffffffffffffffffffffffffffffffffffffff\n      and\n        /* \"BEPOwnable.sol\":1277:1289  _msgSender() */\n      tag_157\n        /* \"BEPOwnable.sol\":1277:1287  _msgSender */\n      tag_120\n        /* \"BEPOwnable.sol\":1277:1289  _msgSender() */\n      jump\t// in\n    tag_157:\n        /* \"BEPOwnable.sol\":1277:1299  _msgSender() == _owner */\n      0xffffffffffffffffffffffffffffffffffffffff\n      and\n      eq\n        /* \"BEPOwnable.sol\":1270:1299  return _msgSender() == _owner */\n      swap1\n      pop\n        /* \"BEPOwnable.sol\":1218:1304  function isOwner() public view returns (bool) {... */\n      swap1\n      jump\t// out\n        /* \"ERC721.sol\":2614:2716  function symbol() public view virtual override returns (string memory) {... */\n    tag_74:\n        /* \"ERC721.sol\":2670:2683  string memory */\n      0x60\n        /* \"ERC721.sol\":2702:2709  _symbol */\n      0x02\n        /* \"ERC721.sol\":2695:2709  return _symbol */\n      dup1\n      sload\n      tag_159\n      swap1\n      tag_103\n      jump\t// in\n    tag_159:\n      dup1\n      0x1f\n      add\n      0x20\n      dup1\n      swap2\n      div\n      mul\n      0x20\n      add\n      mload(0x40)\n      swap1\n      dup2\n      add\n      0x40\n      mstore\n      dup1\n      swap3\n      swap2\n      swap1\n      dup2\n      dup2\n      mstore\n      0x20\n      add\n      dup3\n      dup1\n      sload\n      tag_160\n      swap1\n      tag_103\n      jump\t// in\n    tag_160:\n      dup1\n      iszero\n      tag_161\n      jumpi\n      dup1\n      0x1f\n      lt\n      tag_162\n      jumpi\n      0x0100\n      dup1\n      dup4\n      sload\n      div\n      mul\n      dup4\n      mstore\n      swap2\n      0x20\n      add\n      swap2\n      jump(tag_161)\n    tag_162:\n      dup3\n      add\n      swap2\n      swap1\n      0x00\n      mstore\n      keccak256(0x00, 0x20)\n      swap1\n    tag_163:\n      dup2\n      sload\n      dup2\n      mstore\n      swap1\n      0x01\n      add\n      swap1\n      0x20\n      add\n      dup1\n      dup4\n      gt\n      tag_163\n      jumpi\n      dup3\n      swap1\n      sub\n      0x1f\n      and\n      dup3\n      add\n      swap2\n    tag_161:\n      pop\n      pop\n      pop\n      pop\n      pop\n      swap1\n      pop\n        /* \"ERC721.sol\":2614:2716  function symbol() public view virtual override returns (string memory) {... */\n      swap1\n      jump\t// out\n        /* \"ERC721.sol\":4875:5029  function setApprovalForAll(address operator, bool approved) public  virtual override {... */\n    tag_79:\n        /* \"ERC721.sol\":4970:5022  _setApprovalForAll(_msgSender(), operator, approved) */\n      tag_165\n        /* \"ERC721.sol\":4989:5001  _msgSender() */\n      tag_166\n        /* \"ERC721.sol\":4989:4999  _msgSender */\n      tag_120\n        /* \"ERC721.sol\":4989:5001  _msgSender() */\n      jump\t// in\n    tag_166:\n        /* \"ERC721.sol\":5003:5011  operator */\n      dup4\n        /* \"ERC721.sol\":5013:5021  approved */\n      dup4\n        /* \"ERC721.sol\":4970:4988  _setApprovalForAll */\n      tag_167\n        /* \"ERC721.sol\":4970:5022  _setApprovalForAll(_msgSender(), operator, approved) */\n      jump\t// in\n    tag_165:\n        /* \"ERC721.sol\":4875:5029  function setApprovalForAll(address operator, bool approved) public  virtual override {... */\n      pop\n      pop\n      jump\t// out\n        /* \"ERC721.sol\":5963:6284  function safeTransferFrom(... */\n    tag_83:\n        /* \"ERC721.sol\":6133:6174  _isApprovedOrOwner(_msgSender(), tokenId) */\n      tag_169\n        /* \"ERC721.sol\":6152:6164  _msgSender() */\n      tag_170\n        /* \"ERC721.sol\":6152:6162  _msgSender */\n      tag_120\n        /* \"ERC721.sol\":6152:6164  _msgSender() */\n      jump\t// in\n    tag_170:\n        /* \"ERC721.sol\":6166:6173  tokenId */\n      dup4\n        /* \"ERC721.sol\":6133:6151  _isApprovedOrOwner */\n      tag_132\n        /* \"ERC721.sol\":6133:6174  _isApprovedOrOwner(_msgSender(), tokenId) */\n      jump\t// in\n    tag_169:\n        /* \"ERC721.sol\":6125:6228  require(_isApprovedOrOwner(_msgSender(), tokenId), \"ERC721: transfer caller is not owner nor approved\") */\n      tag_171\n      jumpi\n      mload(0x40)\n      0x08c379a000000000000000000000000000000000000000000000000000000000\n      dup2\n      mstore\n      0x04\n      add\n      tag_172\n      swap1\n      tag_135\n      jump\t// in\n    tag_172:\n      mload(0x40)\n      dup1\n      swap2\n      sub\n      swap1\n      revert\n    tag_171:\n        /* \"ERC721.sol\":6238:6277  _safeTransfer(from, to, tokenId, _data) */\n      tag_173\n        /* \"ERC721.sol\":6252:6256  from */\n      dup5\n        /* \"ERC721.sol\":6258:6260  to */\n      dup5\n        /* \"ERC721.sol\":6262:6269  tokenId */\n      dup5\n        /* \"ERC721.sol\":6271:6276  _data */\n      dup5\n        /* \"ERC721.sol\":6238:6251  _safeTransfer */\n      tag_174\n        /* \"ERC721.sol\":6238:6277  _safeTransfer(from, to, tokenId, _data) */\n      jump\t// in\n    tag_173:\n        /* \"ERC721.sol\":5963:6284  function safeTransferFrom(... */\n      pop\n      pop\n      pop\n      pop\n      jump\t// out\n        /* \"ERC721.sol\":3408:3737  function tokenURI(uint256 tokenId) public view virtual override returns (string memory) {... */\n    tag_86:\n        /* \"ERC721.sol\":3481:3494  string memory */\n      0x60\n        /* \"ERC721.sol\":3514:3530  _exists(tokenId) */\n      tag_176\n        /* \"ERC721.sol\":3522:3529  tokenId */\n      dup3\n        /* \"ERC721.sol\":3514:3521  _exists */\n      tag_110\n        /* \"ERC721.sol\":3514:3530  _exists(tokenId) */\n      jump\t// in\n    tag_176:\n        /* \"ERC721.sol\":3506:3582  require(_exists(tokenId), \"ERC721Metadata: URI query for nonexistent token\") */\n      tag_177\n      jumpi\n      mload(0x40)\n      0x08c379a000000000000000000000000000000000000000000000000000000000\n      dup2\n      mstore\n      0x04\n      add\n      tag_178\n      swap1\n      tag_179\n      jump\t// in\n    tag_178:\n      mload(0x40)\n      dup1\n      swap2\n      sub\n      swap1\n      revert\n    tag_177:\n        /* \"ERC721.sol\":3593:3614  string memory baseURI */\n      0x00\n        /* \"ERC721.sol\":3617:3627  _baseURI() */\n      tag_180\n        /* \"ERC721.sol\":3617:3625  _baseURI */\n      tag_181\n        /* \"ERC721.sol\":3617:3627  _baseURI() */\n      jump\t// in\n    tag_180:\n        /* \"ERC721.sol\":3593:3627  string memory baseURI = _baseURI() */\n      swap1\n      pop\n        /* \"ERC721.sol\":3668:3669  0 */\n      0x00\n        /* \"ERC721.sol\":3650:3657  baseURI */\n      dup2\n        /* \"ERC721.sol\":3644:3665  bytes(baseURI).length */\n      mload\n        /* \"ERC721.sol\":3644:3669  bytes(baseURI).length > 0 */\n      gt\n        /* \"ERC721.sol\":3644:3730  bytes(baseURI).length > 0 ? string(abi.encodePacked(baseURI, tokenId.toString())) : \"\" */\n      tag_182\n      jumpi\n      mload(0x40)\n      dup1\n      0x20\n      add\n      0x40\n      mstore\n      dup1\n      0x00\n      dup2\n      mstore\n      pop\n      jump(tag_183)\n    tag_182:\n        /* \"ERC721.sol\":3696:3703  baseURI */\n      dup1\n        /* \"ERC721.sol\":3705:3723  tokenId.toString() */\n      tag_184\n        /* \"ERC721.sol\":3705:3712  tokenId */\n      dup5\n        /* \"ERC721.sol\":3705:3721  tokenId.toString */\n      tag_185\n        /* \"ERC721.sol\":3705:3723  tokenId.toString() */\n      jump\t// in\n    tag_184:\n        /* \"ERC721.sol\":3679:3724  abi.encodePacked(baseURI, tokenId.toString()) */\n      add(0x20, mload(0x40))\n      tag_186\n      swap3\n      swap2\n      swap1\n      tag_187\n      jump\t// in\n    tag_186:\n      mload(0x40)\n      0x20\n      dup2\n      dup4\n      sub\n      sub\n      dup2\n      mstore\n      swap1\n      0x40\n      mstore\n        /* \"ERC721.sol\":3644:3730  bytes(baseURI).length > 0 ? string(abi.encodePacked(baseURI, tokenId.toString())) : \"\" */\n    tag_183:\n        /* \"ERC721.sol\":3637:3730  return bytes(baseURI).length > 0 ? string(abi.encodePacked(baseURI, tokenId.toString())) : \"\" */\n      swap2\n      pop\n      pop\n        /* \"ERC721.sol\":3408:3737  function tokenURI(uint256 tokenId) public view virtual override returns (string memory) {... */\n      swap2\n      swap1\n      pop\n      jump\t// out\n        /* \"ERC721.sol\":5095:5258  function isApprovedForAll(address owner, address operator) public  view virtual override returns (bool) {... */\n    tag_91:\n        /* \"ERC721.sol\":5193:5197  bool */\n      0x00\n        /* \"ERC721.sol\":5216:5234  _operatorApprovals */\n      0x06\n        /* \"ERC721.sol\":5216:5241  _operatorApprovals[owner] */\n      0x00\n        /* \"ERC721.sol\":5235:5240  owner */\n      dup5\n        /* \"ERC721.sol\":5216:5241  _operatorApprovals[owner] */\n      0xffffffffffffffffffffffffffffffffffffffff\n      and\n      0xffffffffffffffffffffffffffffffffffffffff\n      and\n      dup2\n      mstore\n      0x20\n      add\n      swap1\n      dup2\n      mstore\n      0x20\n      add\n      0x00\n      keccak256\n        /* \"ERC721.sol\":5216:5251  _operatorApprovals[owner][operator] */\n      0x00\n        /* \"ERC721.sol\":5242:5250  operator */\n      dup4\n        /* \"ERC721.sol\":5216:5251  _operatorApprovals[owner][operator] */\n      0xffffffffffffffffffffffffffffffffffffffff\n      and\n      0xffffffffffffffffffffffffffffffffffffffff\n      and\n      dup2\n      mstore\n      0x20\n      add\n      swap1\n      dup2\n      mstore\n      0x20\n      add\n      0x00\n      keccak256\n      0x00\n      swap1\n      sload\n      swap1\n      0x0100\n      exp\n      swap1\n      div\n      0xff\n      and\n        /* \"ERC721.sol\":5209:5251  return _operatorApprovals[owner][operator] */\n      swap1\n      pop\n        /* \"ERC721.sol\":5095:5258  function isApprovedForAll(address owner, address operator) public  view virtual override returns (bool) {... */\n      swap3\n      swap2\n      pop\n      pop\n      jump\t// out\n        /* \"BEPOwnable.sol\":1896:1997  function transferOwnership(address newOwner) public onlyOwner {... */\n    tag_95:\n        /* \"BEPOwnable.sol\":1085:1094  isOwner() */\n      tag_190\n        /* \"BEPOwnable.sol\":1085:1092  isOwner */\n      tag_71\n        /* \"BEPOwnable.sol\":1085:1094  isOwner() */\n      jump\t// in\n    tag_190:\n        /* \"BEPOwnable.sol\":1077:1131  require(isOwner(), \"Ownable: caller is not the owner\") */\n      tag_191\n      jumpi\n      mload(0x40)\n      0x08c379a000000000000000000000000000000000000000000000000000000000\n      dup2\n      mstore\n      0x04\n      add\n      tag_192\n      swap1\n      tag_153\n      jump\t// in\n    tag_192:\n      mload(0x40)\n      dup1\n      swap2\n      sub\n      swap1\n      revert\n    tag_191:\n        /* \"BEPOwnable.sol\":1964:1992  _transferOwnership(newOwner) */\n      tag_194\n        /* \"BEPOwnable.sol\":1983:1991  newOwner */\n      dup2\n        /* \"BEPOwnable.sol\":1964:1982  _transferOwnership */\n      tag_195\n        /* \"BEPOwnable.sol\":1964:1992  _transferOwnership(newOwner) */\n      jump\t// in\n    tag_194:\n        /* \"BEPOwnable.sol\":1896:1997  function transferOwnership(address newOwner) public onlyOwner {... */\n      pop\n      jump\t// out\n        /* \"ERC165.sol\":829:984  function supportsInterface(bytes4 interfaceId) public view virtual override returns (bool) {... */\n    tag_100:\n        /* \"ERC165.sol\":914:918  bool */\n      0x00\n        /* \"ERC165.sol\":952:977  type(IERC165).interfaceId */\n      0x01ffc9a700000000000000000000000000000000000000000000000000000000\n        /* \"ERC165.sol\":937:977  interfaceId == type(IERC165).interfaceId */\n      not(0xffffffffffffffffffffffffffffffffffffffffffffffffffffffff)\n      and\n        /* \"ERC165.sol\":937:948  interfaceId */\n      dup3\n        /* \"ERC165.sol\":937:977  interfaceId == type(IERC165).interfaceId */\n      not(0xffffffffffffffffffffffffffffffffffffffffffffffffffffffff)\n      and\n      eq\n        /* \"ERC165.sol\":930:977  return interfaceId == type(IERC165).interfaceId */\n      swap1\n      pop\n        /* \"ERC165.sol\":829:984  function supportsInterface(bytes4 interfaceId) public view virtual override returns (bool) {... */\n      swap2\n      swap1\n      pop\n      jump\t// out\n        /* \"ERC721.sol\":7756:7881  function _exists(uint256 tokenId) internal view virtual returns (bool) {... */\n    tag_110:\n        /* \"ERC721.sol\":7821:7825  bool */\n      0x00\n        /* \"ERC721.sol\":7872:7873  0 */\n      dup1\n        /* \"ERC721.sol\":7844:7874  _owners[tokenId] != address(0) */\n      0xffffffffffffffffffffffffffffffffffffffff\n      and\n        /* \"ERC721.sol\":7844:7851  _owners */\n      0x03\n        /* \"ERC721.sol\":7844:7860  _owners[tokenId] */\n      0x00\n        /* \"ERC721.sol\":7852:7859  tokenId */\n      dup5\n        /* \"ERC721.sol\":7844:7860  _owners[tokenId] */\n      dup2\n      mstore\n      0x20\n      add\n      swap1\n      dup2\n      mstore\n      0x20\n      add\n      0x00\n      keccak256\n      0x00\n      swap1\n      sload\n      swap1\n      0x0100\n      exp\n      swap1\n      div\n      0xffffffffffffffffffffffffffffffffffffffff\n      and\n        /* \"ERC721.sol\":7844:7874  _owners[tokenId] != address(0) */\n      0xffffffffffffffffffffffffffffffffffffffff\n      and\n      eq\n      iszero\n        /* \"ERC721.sol\":7837:7874  return _owners[tokenId] != address(0) */\n      swap1\n      pop\n        /* \"ERC721.sol\":7756:7881  function _exists(uint256 tokenId) internal view virtual returns (bool) {... */\n      swap2\n      swap1\n      pop\n      jump\t// out\n        /* \"BEPContext.sol\":760:859  function _msgSender() internal view returns (address payable) {... */\n    tag_120:\n        /* \"BEPContext.sol\":805:820  address payable */\n      0x00\n        /* \"BEPContext.sol\":843:853  msg.sender */\n      caller\n        /* \"BEPContext.sol\":828:854  return payable(msg.sender) */\n      swap1\n      pop\n        /* \"BEPContext.sol\":760:859  function _msgSender() internal view returns (address payable) {... */\n      swap1\n      jump\t// out\n        /* \"ERC721.sol\":11766:11937  function _approve(address to, uint256 tokenId) internal virtual {... */\n    tag_128:\n        /* \"ERC721.sol\":11867:11869  to */\n      dup2\n        /* \"ERC721.sol\":11840:11855  _tokenApprovals */\n      0x05\n        /* \"ERC721.sol\":11840:11864  _tokenApprovals[tokenId] */\n      0x00\n        /* \"ERC721.sol\":11856:11863  tokenId */\n      dup4\n        /* \"ERC721.sol\":11840:11864  _tokenApprovals[tokenId] */\n      dup2\n      mstore\n      0x20\n      add\n      swap1\n      dup2\n      mstore\n      0x20\n      add\n      0x00\n      keccak256\n      0x00\n        /* \"ERC721.sol\":11840:11869  _tokenApprovals[tokenId] = to */\n      0x0100\n      exp\n      dup2\n      sload\n      dup2\n      0xffffffffffffffffffffffffffffffffffffffff\n      mul\n      not\n      and\n      swap1\n      dup4\n      0xffffffffffffffffffffffffffffffffffffffff\n      and\n      mul\n      or\n      swap1\n      sstore\n      pop\n        /* \"ERC721.sol\":11922:11929  tokenId */\n      dup1\n        /* \"ERC721.sol\":11918:11920  to */\n      dup3\n        /* \"ERC721.sol\":11884:11930  Approval(ERC721.ownerOf(tokenId), to, tokenId) */\n      0xffffffffffffffffffffffffffffffffffffffff\n      and\n        /* \"ERC721.sol\":11893:11916  ERC721.ownerOf(tokenId) */\n      tag_200\n        /* \"ERC721.sol\":11908:11915  tokenId */\n      dup4\n        /* \"ERC721.sol\":11893:11907  ERC721.ownerOf */\n      tag_57\n        /* \"ERC721.sol\":11893:11916  ERC721.ownerOf(tokenId) */\n      jump\t// in\n    tag_200:\n        /* \"ERC721.sol\":11884:11930  Approval(ERC721.ownerOf(tokenId), to, tokenId) */\n      0xffffffffffffffffffffffffffffffffffffffff\n      and\n      0x8c5be1e5ebec7d5bd14f71427d1e84f3dd0314c0f7b2291e5b200ac8c7c3b925\n      mload(0x40)\n      mload(0x40)\n      dup1\n      swap2\n      sub\n      swap1\n      log4\n        /* \"ERC721.sol\":11766:11937  function _approve(address to, uint256 tokenId) internal virtual {... */\n      pop\n      pop\n      jump\t// out\n        /* \"ERC721.sol\":8039:8383  function _isApprovedOrOwner(address spender, uint256 tokenId) internal view virtual returns (bool) {... */\n    tag_132:\n        /* \"ERC721.sol\":8132:8136  bool */\n      0x00\n        /* \"ERC721.sol\":8156:8172  _exists(tokenId) */\n      tag_202\n        /* \"ERC721.sol\":8164:8171  tokenId */\n      dup3\n        /* \"ERC721.sol\":8156:8163  _exists */\n      tag_110\n        /* \"ERC721.sol\":8156:8172  _exists(tokenId) */\n      jump\t// in\n    tag_202:\n        /* \"ERC721.sol\":8148:8221  require(_exists(tokenId), \"ERC721: operator query for nonexistent token\") */\n      tag_203\n      jumpi\n      mload(0x40)\n      0x08c379a000000000000000000000000000000000000000000000000000000000\n      dup2\n      mstore\n      0x04\n      add\n      tag_204\n      swap1\n      tag_205\n      jump\t// in\n    tag_204:\n      mload(0x40)\n      dup1\n      swap2\n      sub\n      swap1\n      revert\n    tag_203:\n        /* \"ERC721.sol\":8231:8244  address owner */\n      0x00\n        /* \"ERC721.sol\":8247:8270  ERC721.ownerOf(tokenId) */\n      tag_206\n        /* \"ERC721.sol\":8262:8269  tokenId */\n      dup4\n        /* \"ERC721.sol\":8247:8261  ERC721.ownerOf */\n      tag_57\n        /* \"ERC721.sol\":8247:8270  ERC721.ownerOf(tokenId) */\n      jump\t// in\n    tag_206:\n        /* \"ERC721.sol\":8231:8270  address owner = ERC721.ownerOf(tokenId) */\n      swap1\n      pop\n        /* \"ERC721.sol\":8299:8304  owner */\n      dup1\n        /* \"ERC721.sol\":8288:8304  spender == owner */\n      0xffffffffffffffffffffffffffffffffffffffff\n      and\n        /* \"ERC721.sol\":8288:8295  spender */\n      dup5\n        /* \"ERC721.sol\":8288:8304  spender == owner */\n      0xffffffffffffffffffffffffffffffffffffffff\n      and\n      eq\n        /* \"ERC721.sol\":8288:8339  spender == owner || getApproved(tokenId) == spender */\n      dup1\n      tag_207\n      jumpi\n      pop\n        /* \"ERC721.sol\":8332:8339  spender */\n      dup4\n        /* \"ERC721.sol\":8308:8339  getApproved(tokenId) == spender */\n      0xffffffffffffffffffffffffffffffffffffffff\n      and\n        /* \"ERC721.sol\":8308:8328  getApproved(tokenId) */\n      tag_208\n        /* \"ERC721.sol\":8320:8327  tokenId */\n      dup5\n        /* \"ERC721.sol\":8308:8319  getApproved */\n      tag_37\n        /* \"ERC721.sol\":8308:8328  getApproved(tokenId) */\n      jump\t// in\n    tag_208:\n        /* \"ERC721.sol\":8308:8339  getApproved(tokenId) == spender */\n      0xffffffffffffffffffffffffffffffffffffffff\n      and\n      eq\n        /* \"ERC721.sol\":8288:8339  spender == owner || getApproved(tokenId) == spender */\n    tag_207:\n        /* \"ERC721.sol\":8288:8375  spender == owner || getApproved(tokenId) == spender || isApprovedForAll(owner, spender) */\n      dup1\n      tag_209\n      jumpi\n      pop\n        /* \"ERC721.sol\":8343:8375  isApprovedForAll(owner, spender) */\n      tag_210\n        /* \"ERC721.sol\":8360:8365  owner */\n      dup2\n        /* \"ERC721.sol\":8367:8374  spender */\n      dup6\n        /* \"ERC721.sol\":8343:8359  isApprovedForAll */\n      tag_91\n        /* \"ERC721.sol\":8343:8375  isApprovedForAll(owner, spender) */\n      jump\t// in\n    tag_210:\n        /* \"ERC721.sol\":8288:8375  spender == owner || getApproved(tokenId) == spender || isApprovedForAll(owner, spender) */\n    tag_209:\n        /* \"ERC721.sol\":8280:8376  return (spender == owner || getApproved(tokenId) == spender || isApprovedForAll(owner, spender)) */\n      swap2\n      pop\n      pop\n        /* \"ERC721.sol\":8039:8383  function _isApprovedOrOwner(address spender, uint256 tokenId) internal view virtual returns (bool) {... */\n      swap3\n      swap2\n      pop\n      pop\n      jump\t// out\n        /* \"ERC721.sol\":11050:11655  function _transfer(... */\n    tag_137:\n        /* \"ERC721.sol\":11204:11208  from */\n      dup3\n        /* \"ERC721.sol\":11177:11208  ERC721.ownerOf(tokenId) == from */\n      0xffffffffffffffffffffffffffffffffffffffff\n      and\n        /* \"ERC721.sol\":11177:11200  ERC721.ownerOf(tokenId) */\n      tag_212\n        /* \"ERC721.sol\":11192:11199  tokenId */\n      dup3\n        /* \"ERC721.sol\":11177:11191  ERC721.ownerOf */\n      tag_57\n        /* \"ERC721.sol\":11177:11200  ERC721.ownerOf(tokenId) */\n      jump\t// in\n    tag_212:\n        /* \"ERC721.sol\":11177:11208  ERC721.ownerOf(tokenId) == from */\n      0xffffffffffffffffffffffffffffffffffffffff\n      and\n      eq\n        /* \"ERC721.sol\":11169:11250  require(ERC721.ownerOf(tokenId) == from, \"ERC721: transfer from incorrect owner\") */\n      tag_213\n      jumpi\n      mload(0x40)\n      0x08c379a000000000000000000000000000000000000000000000000000000000\n      dup2\n      mstore\n      0x04\n      add\n      tag_214\n      swap1\n      tag_215\n      jump\t// in\n    tag_214:\n      mload(0x40)\n      dup1\n      swap2\n      sub\n      swap1\n      revert\n    tag_213:\n        /* \"ERC721.sol\":11282:11283  0 */\n      0x00\n        /* \"ERC721.sol\":11268:11284  to != address(0) */\n      0xffffffffffffffffffffffffffffffffffffffff\n      and\n        /* \"ERC721.sol\":11268:11270  to */\n      dup3\n        /* \"ERC721.sol\":11268:11284  to != address(0) */\n      0xffffffffffffffffffffffffffffffffffffffff\n      and\n      eq\n      iszero\n        /* \"ERC721.sol\":11260:11325  require(to != address(0), \"ERC721: transfer to the zero address\") */\n      tag_216\n      jumpi\n      mload(0x40)\n      0x08c379a000000000000000000000000000000000000000000000000000000000\n      dup2\n      mstore\n      0x04\n      add\n      tag_217\n      swap1\n      tag_218\n      jump\t// in\n    tag_217:\n      mload(0x40)\n      dup1\n      swap2\n      sub\n      swap1\n      revert\n    tag_216:\n        /* \"ERC721.sol\":11336:11375  _beforeTokenTransfer(from, to, tokenId) */\n      tag_219\n        /* \"ERC721.sol\":11357:11361  from */\n      dup4\n        /* \"ERC721.sol\":11363:11365  to */\n      dup4\n        /* \"ERC721.sol\":11367:11374  tokenId */\n      dup4\n        /* \"ERC721.sol\":11336:11356  _beforeTokenTransfer */\n      tag_220\n        /* \"ERC721.sol\":11336:11375  _beforeTokenTransfer(from, to, tokenId) */\n      jump\t// in\n    tag_219:\n        /* \"ERC721.sol\":11437:11466  _approve(address(0), tokenId) */\n      tag_221\n        /* \"ERC721.sol\":11454:11455  0 */\n      0x00\n        /* \"ERC721.sol\":11458:11465  tokenId */\n      dup3\n        /* \"ERC721.sol\":11437:11445  _approve */\n      tag_128\n        /* \"ERC721.sol\":11437:11466  _approve(address(0), tokenId) */\n      jump\t// in\n    tag_221:\n        /* \"ERC721.sol\":11496:11497  1 */\n      0x01\n        /* \"ERC721.sol\":11477:11486  _balances */\n      0x04\n        /* \"ERC721.sol\":11477:11492  _balances[from] */\n      0x00\n        /* \"ERC721.sol\":11487:11491  from */\n      dup6\n        /* \"ERC721.sol\":11477:11492  _balances[from] */\n      0xffffffffffffffffffffffffffffffffffffffff\n      and\n      0xffffffffffffffffffffffffffffffffffffffff\n      and\n      dup2\n      mstore\n      0x20\n      add\n      swap1\n      dup2\n      mstore\n      0x20\n      add\n      0x00\n      keccak256\n      0x00\n        /* \"ERC721.sol\":11477:11497  _balances[from] -= 1 */\n      dup3\n      dup3\n      sload\n      tag_222\n      swap2\n      swap1\n      tag_223\n      jump\t// in\n    tag_222:\n      swap3\n      pop\n      pop\n      dup2\n      swap1\n      sstore\n      pop\n        /* \"ERC721.sol\":11524:11525  1 */\n      0x01\n        /* \"ERC721.sol\":11507:11516  _balances */\n      0x04\n        /* \"ERC721.sol\":11507:11520  _balances[to] */\n      0x00\n        /* \"ERC721.sol\":11517:11519  to */\n      dup5\n        /* \"ERC721.sol\":11507:11520  _balances[to] */\n      0xffffffffffffffffffffffffffffffffffffffff\n      and\n      0xffffffffffffffffffffffffffffffffffffffff\n      and\n      dup2\n      mstore\n      0x20\n      add\n      swap1\n      dup2\n      mstore\n      0x20\n      add\n      0x00\n      keccak256\n      0x00\n        /* \"ERC721.sol\":11507:11525  _balances[to] += 1 */\n      dup3\n      dup3\n      sload\n      tag_224\n      swap2\n      swap1\n      tag_225\n      jump\t// in\n    tag_224:\n      swap3\n      pop\n      pop\n      dup2\n      swap1\n      sstore\n      pop\n        /* \"ERC721.sol\":11554:11556  to */\n      dup2\n        /* \"ERC721.sol\":11535:11542  _owners */\n      0x03\n        /* \"ERC721.sol\":11535:11551  _owners[tokenId] */\n      0x00\n        /* \"ERC721.sol\":11543:11550  tokenId */\n      dup4\n        /* \"ERC721.sol\":11535:11551  _owners[tokenId] */\n      dup2\n      mstore\n      0x20\n      add\n      swap1\n      dup2\n      mstore\n      0x20\n      add\n      0x00\n      keccak256\n      0x00\n        /* \"ERC721.sol\":11535:11556  _owners[tokenId] = to */\n      0x0100\n      exp\n      dup2\n      sload\n      dup2\n      0xffffffffffffffffffffffffffffffffffffffff\n      mul\n      not\n      and\n      swap1\n      dup4\n      0xffffffffffffffffffffffffffffffffffffffff\n      and\n      mul\n      or\n      swap1\n      sstore\n      pop\n        /* \"ERC721.sol\":11591:11598  tokenId */\n      dup1\n        /* \"ERC721.sol\":11587:11589  to */\n      dup3\n        /* \"ERC721.sol\":11572:11599  Transfer(from, to, tokenId) */\n      0xffffffffffffffffffffffffffffffffffffffff\n      and\n        /* \"ERC721.sol\":11581:11585  from */\n      dup5\n        /* \"ERC721.sol\":11572:11599  Transfer(from, to, tokenId) */\n      0xffffffffffffffffffffffffffffffffffffffff\n      and\n      0xddf252ad1be2c89b69c2b068fc378daa952ba7f163c4a11628f55a4df523b3ef\n      mload(0x40)\n      mload(0x40)\n      dup1\n      swap2\n      sub\n      swap1\n      log4\n        /* \"ERC721.sol\":11610:11648  _afterTokenTransfer(from, to, tokenId) */\n      tag_226\n        /* \"ERC721.sol\":11630:11634  from */\n      dup4\n        /* \"ERC721.sol\":11636:11638  to */\n      dup4\n        /* \"ERC721.sol\":11640:11647  tokenId */\n      dup4\n        /* \"ERC721.sol\":11610:11629  _afterTokenTransfer */\n      tag_227\n        /* \"ERC721.sol\":11610:11648  _afterTokenTransfer(from, to, tokenId) */\n      jump\t// in\n    tag_226:\n        /* \"ERC721.sol\":11050:11655  function _transfer(... */\n      pop\n      pop\n      pop\n      jump\t// out\n        /* \"ERC721.sol\":12072:12379  function _setApprovalForAll(... */\n    tag_167:\n        /* \"ERC721.sol\":12222:12230  operator */\n      dup2\n        /* \"ERC721.sol\":12213:12230  owner != operator */\n      0xffffffffffffffffffffffffffffffffffffffff\n      and\n        /* \"ERC721.sol\":12213:12218  owner */\n      dup4\n        /* \"ERC721.sol\":12213:12230  owner != operator */\n      0xffffffffffffffffffffffffffffffffffffffff\n      and\n      eq\n      iszero\n        /* \"ERC721.sol\":12205:12260  require(owner != operator, \"ERC721: approve to caller\") */\n      tag_229\n      jumpi\n      mload(0x40)\n      0x08c379a000000000000000000000000000000000000000000000000000000000\n      dup2\n      mstore\n      0x04\n      add\n      tag_230\n      swap1\n      tag_231\n      jump\t// in\n    tag_230:\n      mload(0x40)\n      dup1\n      swap2\n      sub\n      swap1\n      revert\n    tag_229:\n        /* \"ERC721.sol\":12308:12316  approved */\n      dup1\n        /* \"ERC721.sol\":12270:12288  _operatorApprovals */\n      0x06\n        /* \"ERC721.sol\":12270:12295  _operatorApprovals[owner] */\n      0x00\n        /* \"ERC721.sol\":12289:12294  owner */\n      dup6\n        /* \"ERC721.sol\":12270:12295  _operatorApprovals[owner] */\n      0xffffffffffffffffffffffffffffffffffffffff\n      and\n      0xffffffffffffffffffffffffffffffffffffffff\n      and\n      dup2\n      mstore\n      0x20\n      add\n      swap1\n      dup2\n      mstore\n      0x20\n      add\n      0x00\n      keccak256\n        /* \"ERC721.sol\":12270:12305  _operatorApprovals[owner][operator] */\n      0x00\n        /* \"ERC721.sol\":12296:12304  operator */\n      dup5\n        /* \"ERC721.sol\":12270:12305  _operatorApprovals[owner][operator] */\n      0xffffffffffffffffffffffffffffffffffffffff\n      and\n      0xffffffffffffffffffffffffffffffffffffffff\n      and\n      dup2\n      mstore\n      0x20\n      add\n      swap1\n      dup2\n      mstore\n      0x20\n      add\n      0x00\n      keccak256\n      0x00\n        /* \"ERC721.sol\":12270:12316  _operatorApprovals[owner][operator] = approved */\n      0x0100\n      exp\n      dup2\n      sload\n      dup2\n      0xff\n      mul\n      not\n      and\n      swap1\n      dup4\n      iszero\n      iszero\n      mul\n      or\n      swap1\n      sstore\n      pop\n        /* \"ERC721.sol\":12353:12361  operator */\n      dup2\n        /* \"ERC721.sol\":12331:12372  ApprovalForAll(owner, operator, approved) */\n      0xffffffffffffffffffffffffffffffffffffffff\n      and\n        /* \"ERC721.sol\":12346:12351  owner */\n      dup4\n        /* \"ERC721.sol\":12331:12372  ApprovalForAll(owner, operator, approved) */\n      0xffffffffffffffffffffffffffffffffffffffff\n      and\n      0x17307eab39ab6107e8899845ad3d59bd9653f200f220920489ca2b5937696c31\n        /* \"ERC721.sol\":12363:12371  approved */\n      dup4\n        /* \"ERC721.sol\":12331:12372  ApprovalForAll(owner, operator, approved) */\n      mload(0x40)\n      tag_232\n      swap2\n      swap1\n      tag_29\n      jump\t// in\n    tag_232:\n      mload(0x40)\n      dup1\n      swap2\n      sub\n      swap1\n      log3\n        /* \"ERC721.sol\":12072:12379  function _setApprovalForAll(... */\n      pop\n      pop\n      pop\n      jump\t// out\n        /* \"ERC721.sol\":7146:7453  function _safeTransfer(... */\n    tag_174:\n        /* \"ERC721.sol\":7297:7325  _transfer(from, to, tokenId) */\n      tag_234\n        /* \"ERC721.sol\":7307:7311  from */\n      dup5\n        /* \"ERC721.sol\":7313:7315  to */\n      dup5\n        /* \"ERC721.sol\":7317:7324  tokenId */\n      dup5\n        /* \"ERC721.sol\":7297:7306  _transfer */\n      tag_137\n        /* \"ERC721.sol\":7297:7325  _transfer(from, to, tokenId) */\n      jump\t// in\n    tag_234:\n        /* \"ERC721.sol\":7343:7391  _checkOnERC721Received(from, to, tokenId, _data) */\n      tag_235\n        /* \"ERC721.sol\":7366:7370  from */\n      dup5\n        /* \"ERC721.sol\":7372:7374  to */\n      dup5\n        /* \"ERC721.sol\":7376:7383  tokenId */\n      dup5\n        /* \"ERC721.sol\":7385:7390  _data */\n      dup5\n        /* \"ERC721.sol\":7343:7365  _checkOnERC721Received */\n      tag_236\n        /* \"ERC721.sol\":7343:7391  _checkOnERC721Received(from, to, tokenId, _data) */\n      jump\t// in\n    tag_235:\n        /* \"ERC721.sol\":7335:7446  require(_checkOnERC721Received(from, to, tokenId, _data), \"ERC721: transfer to non ERC721Receiver implementer\") */\n      tag_237\n      jumpi\n      mload(0x40)\n      0x08c379a000000000000000000000000000000000000000000000000000000000\n      dup2\n      mstore\n      0x04\n      add\n      tag_238\n      swap1\n      tag_239\n      jump\t// in\n    tag_238:\n      mload(0x40)\n      dup1\n      swap2\n      sub\n      swap1\n      revert\n    tag_237:\n        /* \"ERC721.sol\":7146:7453  function _safeTransfer(... */\n      pop\n      pop\n      pop\n      pop\n      jump\t// out\n        /* \"ERC721.sol\":3978:4070  function _baseURI() internal view virtual returns (string memory) {... */\n    tag_181:\n        /* \"ERC721.sol\":4029:4042  string memory */\n      0x60\n        /* \"ERC721.sol\":4054:4063  return \"\" */\n      mload(0x40)\n      dup1\n      0x20\n      add\n      0x40\n      mstore\n      dup1\n      0x00\n      dup2\n      mstore\n      pop\n      swap1\n      pop\n        /* \"ERC721.sol\":3978:4070  function _baseURI() internal view virtual returns (string memory) {... */\n      swap1\n      jump\t// out\n        /* \"Strings.sol\":328:1031  function toString(uint256 value) internal pure returns (string memory) {... */\n    tag_185:\n        /* \"Strings.sol\":384:397  string memory */\n      0x60\n        /* \"Strings.sol\":610:611  0 */\n      0x00\n        /* \"Strings.sol\":601:606  value */\n      dup3\n        /* \"Strings.sol\":601:611  value == 0 */\n      eq\n        /* \"Strings.sol\":597:648  if (value == 0) {... */\n      iszero\n      tag_242\n      jumpi\n        /* \"Strings.sol\":627:637  return \"0\" */\n      mload(0x40)\n      dup1\n      0x40\n      add\n      0x40\n      mstore\n      dup1\n      0x01\n      dup2\n      mstore\n      0x20\n      add\n      0x3000000000000000000000000000000000000000000000000000000000000000\n      dup2\n      mstore\n      pop\n      swap1\n      pop\n      jump(tag_241)\n        /* \"Strings.sol\":597:648  if (value == 0) {... */\n    tag_242:\n        /* \"Strings.sol\":657:669  uint256 temp */\n      0x00\n        /* \"Strings.sol\":672:677  value */\n      dup3\n        /* \"Strings.sol\":657:677  uint256 temp = value */\n      swap1\n      pop\n        /* \"Strings.sol\":687:701  uint256 digits */\n      0x00\n        /* \"Strings.sol\":711:786  while (temp != 0) {... */\n    tag_243:\n        /* \"Strings.sol\":726:727  0 */\n      0x00\n        /* \"Strings.sol\":718:722  temp */\n      dup3\n        /* \"Strings.sol\":718:727  temp != 0 */\n      eq\n        /* \"Strings.sol\":711:786  while (temp != 0) {... */\n      tag_244\n      jumpi\n        /* \"Strings.sol\":743:751  digits++ */\n      dup1\n      dup1\n      tag_245\n      swap1\n      tag_246\n      jump\t// in\n    tag_245:\n      swap2\n      pop\n      pop\n        /* \"Strings.sol\":773:775  10 */\n      0x0a\n        /* \"Strings.sol\":765:775  temp /= 10 */\n      dup3\n      tag_247\n      swap2\n      swap1\n      tag_248\n      jump\t// in\n    tag_247:\n      swap2\n      pop\n        /* \"Strings.sol\":711:786  while (temp != 0) {... */\n      jump(tag_243)\n    tag_244:\n        /* \"Strings.sol\":795:814  bytes memory buffer */\n      0x00\n        /* \"Strings.sol\":827:833  digits */\n      dup2\n        /* \"Strings.sol\":817:834  new bytes(digits) */\n      0xffffffffffffffff\n      dup2\n      gt\n      iszero\n      tag_249\n      jumpi\n      tag_250\n      tag_251\n      jump\t// in\n    tag_250:\n    tag_249:\n      mload(0x40)\n      swap1\n      dup1\n      dup3\n      mstore\n      dup1\n      0x1f\n      add\n      not(0x1f)\n      and\n      0x20\n      add\n      dup3\n      add\n      0x40\n      mstore\n      dup1\n      iszero\n      tag_252\n      jumpi\n      dup2\n      0x20\n      add\n      0x01\n      dup3\n      mul\n      dup1\n      calldatasize\n      dup4\n      calldatacopy\n      dup1\n      dup3\n      add\n      swap2\n      pop\n      pop\n      swap1\n      pop\n    tag_252:\n      pop\n        /* \"Strings.sol\":795:834  bytes memory buffer = new bytes(digits) */\n      swap1\n      pop\n        /* \"Strings.sol\":844:994  while (value != 0) {... */\n    tag_253:\n        /* \"Strings.sol\":860:861  0 */\n      0x00\n        /* \"Strings.sol\":851:856  value */\n      dup6\n        /* \"Strings.sol\":851:861  value != 0 */\n      eq\n        /* \"Strings.sol\":844:994  while (value != 0) {... */\n      tag_254\n      jumpi\n        /* \"Strings.sol\":887:888  1 */\n      0x01\n        /* \"Strings.sol\":877:888  digits -= 1 */\n      dup3\n      tag_255\n      swap2\n      swap1\n      tag_223\n      jump\t// in\n    tag_255:\n      swap2\n      pop\n        /* \"Strings.sol\":953:955  10 */\n      0x0a\n        /* \"Strings.sol\":945:950  value */\n      dup6\n        /* \"Strings.sol\":945:955  value % 10 */\n      tag_256\n      swap2\n      swap1\n      tag_257\n      jump\t// in\n    tag_256:\n        /* \"Strings.sol\":932:934  48 */\n      0x30\n        /* \"Strings.sol\":932:956  48 + uint256(value % 10) */\n      tag_258\n      swap2\n      swap1\n      tag_225\n      jump\t// in\n    tag_258:\n        /* \"Strings.sol\":919:958  bytes1(uint8(48 + uint256(value % 10))) */\n      0xf8\n      shl\n        /* \"Strings.sol\":902:908  buffer */\n      dup2\n        /* \"Strings.sol\":909:915  digits */\n      dup4\n        /* \"Strings.sol\":902:916  buffer[digits] */\n      dup2\n      mload\n      dup2\n      lt\n      tag_259\n      jumpi\n      tag_260\n      tag_261\n      jump\t// in\n    tag_260:\n    tag_259:\n      0x20\n      add\n      add\n        /* \"Strings.sol\":902:958  buffer[digits] = bytes1(uint8(48 + uint256(value % 10))) */\n      swap1\n      not(0xffffffffffffffffffffffffffffffffffffffffffffffffffffffffffffff)\n      and\n      swap1\n      dup2\n      0x00\n      byte\n      swap1\n      mstore8\n      pop\n        /* \"Strings.sol\":981:983  10 */\n      0x0a\n        /* \"Strings.sol\":972:983  value /= 10 */\n      dup6\n      tag_262\n      swap2\n      swap1\n      tag_248\n      jump\t// in\n    tag_262:\n      swap5\n      pop\n        /* \"Strings.sol\":844:994  while (value != 0) {... */\n      jump(tag_253)\n    tag_254:\n        /* \"Strings.sol\":1017:1023  buffer */\n      dup1\n        /* \"Strings.sol\":1003:1024  return string(buffer) */\n      swap4\n      pop\n      pop\n      pop\n      pop\n        /* \"Strings.sol\":328:1031  function toString(uint256 value) internal pure returns (string memory) {... */\n    tag_241:\n      swap2\n      swap1\n      pop\n      jump\t// out\n        /* \"BEPOwnable.sol\":2090:2301  function _transferOwnership(address newOwner) internal {... */\n    tag_195:\n        /* \"BEPOwnable.sol\":2179:2180  0 */\n      0x00\n        /* \"BEPOwnable.sol\":2159:2181  newOwner != address(0) */\n      0xffffffffffffffffffffffffffffffffffffffff\n      and\n        /* \"BEPOwnable.sol\":2159:2167  newOwner */\n      dup2\n        /* \"BEPOwnable.sol\":2159:2181  newOwner != address(0) */\n      0xffffffffffffffffffffffffffffffffffffffff\n      and\n      eq\n      iszero\n        /* \"BEPOwnable.sol\":2151:2224  require(newOwner != address(0), \"Ownable: new owner is the zero address\") */\n      tag_264\n      jumpi\n      mload(0x40)\n      0x08c379a000000000000000000000000000000000000000000000000000000000\n      dup2\n      mstore\n      0x04\n      add\n      tag_265\n      swap1\n      tag_266\n      jump\t// in\n    tag_265:\n      mload(0x40)\n      dup1\n      swap2\n      sub\n      swap1\n      revert\n    tag_264:\n        /* \"BEPOwnable.sol\":2264:2272  newOwner */\n      dup1\n        /* \"BEPOwnable.sol\":2235:2273  OwnershipTransferred(_owner, newOwner) */\n      0xffffffffffffffffffffffffffffffffffffffff\n      and\n        /* \"BEPOwnable.sol\":2256:2262  _owner */\n      0x00\n      dup1\n      sload\n      swap1\n      0x0100\n      exp\n      swap1\n      div\n      0xffffffffffffffffffffffffffffffffffffffff\n      and\n        /* \"BEPOwnable.sol\":2235:2273  OwnershipTransferred(_owner, newOwner) */\n      0xffffffffffffffffffffffffffffffffffffffff\n      and\n      0x8be0079c531659141344cd1fd0a4f28419497f9722a3daafe3b4186f6b6457e0\n      mload(0x40)\n      mload(0x40)\n      dup1\n      swap2\n      sub\n      swap1\n      log3\n        /* \"BEPOwnable.sol\":2288:2296  newOwner */\n      dup1\n        /* \"BEPOwnable.sol\":2279:2285  _owner */\n      0x00\n      dup1\n        /* \"BEPOwnable.sol\":2279:2296  _owner = newOwner */\n      0x0100\n      exp\n      dup2\n      sload\n      dup2\n      0xffffffffffffffffffffffffffffffffffffffff\n      mul\n      not\n      and\n      swap1\n      dup4\n      0xffffffffffffffffffffffffffffffffffffffff\n      and\n      mul\n      or\n      swap1\n      sstore\n      pop\n        /* \"BEPOwnable.sol\":2090:2301  function _transferOwnership(address newOwner) internal {... */\n      pop\n      jump\t// out\n        /* \"ERC721.sol\":14266:14388  function _beforeTokenTransfer(... */\n    tag_220:\n      pop\n      pop\n      pop\n      jump\t// out\n        /* \"ERC721.sol\":14760:14881  function _afterTokenTransfer(... */\n    tag_227:\n      pop\n      pop\n      pop\n      jump\t// out\n        /* \"ERC721.sol\":12932:13710  function _checkOnERC721Received(... */\n    tag_236:\n        /* \"ERC721.sol\":13082:13086  bool */\n      0x00\n        /* \"ERC721.sol\":13102:13117  to.isContract() */\n      tag_270\n        /* \"ERC721.sol\":13102:13104  to */\n      dup5\n        /* \"ERC721.sol\":13102:13115  to.isContract */\n      0xffffffffffffffffffffffffffffffffffffffff\n      and\n      tag_271\n        /* \"ERC721.sol\":13102:13117  to.isContract() */\n      jump\t// in\n    tag_270:\n        /* \"ERC721.sol\":13098:13704  if (to.isContract()) {... */\n      iszero\n      tag_272\n      jumpi\n        /* \"ERC721.sol\":13153:13155  to */\n      dup4\n        /* \"ERC721.sol\":13137:13173  IERC721Receiver(to).onERC721Received */\n      0xffffffffffffffffffffffffffffffffffffffff\n      and\n      0x150b7a02\n        /* \"ERC721.sol\":13174:13186  _msgSender() */\n      tag_273\n        /* \"ERC721.sol\":13174:13184  _msgSender */\n      tag_120\n        /* \"ERC721.sol\":13174:13186  _msgSender() */\n      jump\t// in\n    tag_273:\n        /* \"ERC721.sol\":13188:13192  from */\n      dup8\n        /* \"ERC721.sol\":13194:13201  tokenId */\n      dup7\n        /* \"ERC721.sol\":13203:13208  _data */\n      dup7\n        /* \"ERC721.sol\":13137:13209  IERC721Receiver(to).onERC721Received(_msgSender(), from, tokenId, _data) */\n      mload(0x40)\n      dup6\n      0xffffffff\n      and\n      0xe0\n      shl\n      dup2\n      mstore\n      0x04\n      add\n      tag_274\n      swap5\n      swap4\n      swap3\n      swap2\n      swap1\n      tag_275\n      jump\t// in\n    tag_274:\n      0x20\n      mload(0x40)\n      dup1\n      dup4\n      sub\n      dup2\n      0x00\n      dup8\n      dup1\n      extcodesize\n      iszero\n      dup1\n      iszero\n      tag_276\n      jumpi\n      0x00\n      dup1\n      revert\n    tag_276:\n      pop\n      gas\n      call\n      swap3\n      pop\n      pop\n      pop\n      dup1\n      iszero\n      tag_277\n      jumpi\n      pop\n      mload(0x40)\n      returndatasize\n      not(0x1f)\n      0x1f\n      dup3\n      add\n      and\n      dup3\n      add\n      dup1\n      0x40\n      mstore\n      pop\n      dup2\n      add\n      swap1\n      tag_278\n      swap2\n      swap1\n      tag_279\n      jump\t// in\n    tag_278:\n      0x01\n    tag_277:\n        /* \"ERC721.sol\":13133:13652  try IERC721Receiver(to).onERC721Received(_msgSender(), from, tokenId, _data) returns (bytes4 retval) {... */\n      tag_280\n      jumpi\n      returndatasize\n      dup1\n      0x00\n      dup2\n      eq\n      tag_285\n      jumpi\n      mload(0x40)\n      swap2\n      pop\n      and(add(returndatasize, 0x3f), not(0x1f))\n      dup3\n      add\n      0x40\n      mstore\n      returndatasize\n      dup3\n      mstore\n      returndatasize\n      0x00\n      0x20\n      dup5\n      add\n      returndatacopy\n      jump(tag_284)\n    tag_285:\n      0x60\n      swap2\n      pop\n    tag_284:\n      pop\n        /* \"ERC721.sol\":13393:13394  0 */\n      0x00\n        /* \"ERC721.sol\":13376:13382  reason */\n      dup2\n        /* \"ERC721.sol\":13376:13389  reason.length */\n      mload\n        /* \"ERC721.sol\":13376:13394  reason.length == 0 */\n      eq\n        /* \"ERC721.sol\":13372:13638  if (reason.length == 0) {... */\n      iszero\n      tag_286\n      jumpi\n        /* \"ERC721.sol\":13418:13478  revert(\"ERC721: transfer to non ERC721Receiver implementer\") */\n      mload(0x40)\n      0x08c379a000000000000000000000000000000000000000000000000000000000\n      dup2\n      mstore\n      0x04\n      add\n      tag_287\n      swap1\n      tag_239\n      jump\t// in\n    tag_287:\n      mload(0x40)\n      dup1\n      swap2\n      sub\n      swap1\n      revert\n        /* \"ERC721.sol\":13372:13638  if (reason.length == 0) {... */\n    tag_286:\n        /* \"ERC721.sol\":13590:13596  reason */\n      dup1\n        /* \"ERC721.sol\":13584:13597  mload(reason) */\n      mload\n        /* \"ERC721.sol\":13575:13581  reason */\n      dup2\n        /* \"ERC721.sol\":13571:13573  32 */\n      0x20\n        /* \"ERC721.sol\":13567:13582  add(32, reason) */\n      add\n        /* \"ERC721.sol\":13560:13598  revert(add(32, reason), mload(reason)) */\n      revert\n        /* \"ERC721.sol\":13133:13652  try IERC721Receiver(to).onERC721Received(_msgSender(), from, tokenId, _data) returns (bytes4 retval) {... */\n    tag_280:\n        /* \"ERC721.sol\":13269:13310  IERC721Receiver.onERC721Received.selector */\n      shl(0xe0, 0x150b7a02)\n        /* \"ERC721.sol\":13259:13310  retval == IERC721Receiver.onERC721Received.selector */\n      not(0xffffffffffffffffffffffffffffffffffffffffffffffffffffffff)\n      and\n        /* \"ERC721.sol\":13259:13265  retval */\n      dup2\n        /* \"ERC721.sol\":13259:13310  retval == IERC721Receiver.onERC721Received.selector */\n      not(0xffffffffffffffffffffffffffffffffffffffffffffffffffffffff)\n      and\n      eq\n        /* \"ERC721.sol\":13252:13310  return retval == IERC721Receiver.onERC721Received.selector */\n      swap2\n      pop\n      pop\n      jump(tag_269)\n        /* \"ERC721.sol\":13098:13704  if (to.isContract()) {... */\n    tag_272:\n        /* \"ERC721.sol\":13689:13693  true */\n      0x01\n        /* \"ERC721.sol\":13682:13693  return true */\n      swap1\n      pop\n        /* \"ERC721.sol\":12932:13710  function _checkOnERC721Received(... */\n    tag_269:\n      swap5\n      swap4\n      pop\n      pop\n      pop\n      pop\n      jump\t// out\n        /* \"Address.sol\":1160:1480  function isContract(address account) internal view returns (bool) {... */\n    tag_271:\n        /* \"Address.sol\":1220:1224  bool */\n      0x00\n        /* \"Address.sol\":1472:1473  0 */\n      dup1\n        /* \"Address.sol\":1450:1457  account */\n      dup3\n        /* \"Address.sol\":1450:1469  account.code.length */\n      0xffffffffffffffffffffffffffffffffffffffff\n      and\n      extcodesize\n        /* \"Address.sol\":1450:1473  account.code.length > 0 */\n      gt\n        /* \"Address.sol\":1443:1473  return account.code.length > 0 */\n      swap1\n      pop\n        /* \"Address.sol\":1160:1480  function isContract(address account) internal view returns (bool) {... */\n      swap2\n      swap1\n      pop\n      jump\t// out\n        /* \"#utility.yul\":7:417   */\n    tag_293:\n        /* \"#utility.yul\":84:89   */\n      0x00\n        /* \"#utility.yul\":109:174   */\n      tag_295\n        /* \"#utility.yul\":125:173   */\n      tag_296\n        /* \"#utility.yul\":166:172   */\n      dup5\n        /* \"#utility.yul\":125:173   */\n      tag_297\n      jump\t// in\n    tag_296:\n        /* \"#utility.yul\":109:174   */\n      tag_298\n      jump\t// in\n    tag_295:\n        /* \"#utility.yul\":100:174   */\n      swap1\n      pop\n        /* \"#utility.yul\":197:203   */\n      dup3\n        /* \"#utility.yul\":190:195   */\n      dup2\n        /* \"#utility.yul\":183:204   */\n      mstore\n        /* \"#utility.yul\":235:239   */\n      0x20\n        /* \"#utility.yul\":228:233   */\n      dup2\n        /* \"#utility.yul\":224:240   */\n      add\n        /* \"#utility.yul\":273:276   */\n      dup5\n        /* \"#utility.yul\":264:270   */\n      dup5\n        /* \"#utility.yul\":259:262   */\n      dup5\n        /* \"#utility.yul\":255:271   */\n      add\n        /* \"#utility.yul\":252:277   */\n      gt\n        /* \"#utility.yul\":249:361   */\n      iszero\n      tag_299\n      jumpi\n        /* \"#utility.yul\":280:359   */\n      tag_300\n      tag_301\n      jump\t// in\n    tag_300:\n        /* \"#utility.yul\":249:361   */\n    tag_299:\n        /* \"#utility.yul\":370:411   */\n      tag_302\n        /* \"#utility.yul\":404:410   */\n      dup5\n        /* \"#utility.yul\":399:402   */\n      dup3\n        /* \"#utility.yul\":394:397   */\n      dup6\n        /* \"#utility.yul\":370:411   */\n      tag_303\n      jump\t// in\n    tag_302:\n        /* \"#utility.yul\":90:417   */\n      pop\n        /* \"#utility.yul\":7:417   */\n      swap4\n      swap3\n      pop\n      pop\n      pop\n      jump\t// out\n        /* \"#utility.yul\":423:562   */\n    tag_304:\n        /* \"#utility.yul\":469:474   */\n      0x00\n        /* \"#utility.yul\":507:513   */\n      dup2\n        /* \"#utility.yul\":494:514   */\n      calldataload\n        /* \"#utility.yul\":485:514   */\n      swap1\n      pop\n        /* \"#utility.yul\":523:556   */\n      tag_306\n        /* \"#utility.yul\":550:555   */\n      dup2\n        /* \"#utility.yul\":523:556   */\n      tag_307\n      jump\t// in\n    tag_306:\n        /* \"#utility.yul\":423:562   */\n      swap3\n      swap2\n      pop\n      pop\n      jump\t// out\n        /* \"#utility.yul\":568:701   */\n    tag_308:\n        /* \"#utility.yul\":611:616   */\n      0x00\n        /* \"#utility.yul\":649:655   */\n      dup2\n        /* \"#utility.yul\":636:656   */\n      calldataload\n        /* \"#utility.yul\":627:656   */\n      swap1\n      pop\n        /* \"#utility.yul\":665:695   */\n      tag_310\n        /* \"#utility.yul\":689:694   */\n      dup2\n        /* \"#utility.yul\":665:695   */\n      tag_311\n      jump\t// in\n    tag_310:\n        /* \"#utility.yul\":568:701   */\n      swap3\n      swap2\n      pop\n      pop\n      jump\t// out\n        /* \"#utility.yul\":707:844   */\n    tag_312:\n        /* \"#utility.yul\":752:757   */\n      0x00\n        /* \"#utility.yul\":790:796   */\n      dup2\n        /* \"#utility.yul\":777:797   */\n      calldataload\n        /* \"#utility.yul\":768:797   */\n      swap1\n      pop\n        /* \"#utility.yul\":806:838   */\n      tag_314\n        /* \"#utility.yul\":832:837   */\n      dup2\n        /* \"#utility.yul\":806:838   */\n      tag_315\n      jump\t// in\n    tag_314:\n        /* \"#utility.yul\":707:844   */\n      swap3\n      swap2\n      pop\n      pop\n      jump\t// out\n        /* \"#utility.yul\":850:991   */\n    tag_316:\n        /* \"#utility.yul\":906:911   */\n      0x00\n        /* \"#utility.yul\":937:943   */\n      dup2\n        /* \"#utility.yul\":931:944   */\n      mload\n        /* \"#utility.yul\":922:944   */\n      swap1\n      pop\n        /* \"#utility.yul\":953:985   */\n      tag_318\n        /* \"#utility.yul\":979:984   */\n      dup2\n        /* \"#utility.yul\":953:985   */\n      tag_315\n      jump\t// in\n    tag_318:\n        /* \"#utility.yul\":850:991   */\n      swap3\n      swap2\n      pop\n      pop\n      jump\t// out\n        /* \"#utility.yul\":1010:1348   */\n    tag_319:\n        /* \"#utility.yul\":1065:1070   */\n      0x00\n        /* \"#utility.yul\":1114:1117   */\n      dup3\n        /* \"#utility.yul\":1107:1111   */\n      0x1f\n        /* \"#utility.yul\":1099:1105   */\n      dup4\n        /* \"#utility.yul\":1095:1112   */\n      add\n        /* \"#utility.yul\":1091:1118   */\n      slt\n        /* \"#utility.yul\":1081:1203   */\n      tag_321\n      jumpi\n        /* \"#utility.yul\":1122:1201   */\n      tag_322\n      tag_323\n      jump\t// in\n    tag_322:\n        /* \"#utility.yul\":1081:1203   */\n    tag_321:\n        /* \"#utility.yul\":1239:1245   */\n      dup2\n        /* \"#utility.yul\":1226:1246   */\n      calldataload\n        /* \"#utility.yul\":1264:1342   */\n      tag_324\n        /* \"#utility.yul\":1338:1341   */\n      dup5\n        /* \"#utility.yul\":1330:1336   */\n      dup3\n        /* \"#utility.yul\":1323:1327   */\n      0x20\n        /* \"#utility.yul\":1315:1321   */\n      dup7\n        /* \"#utility.yul\":1311:1328   */\n      add\n        /* \"#utility.yul\":1264:1342   */\n      tag_293\n      jump\t// in\n    tag_324:\n        /* \"#utility.yul\":1255:1342   */\n      swap2\n      pop\n        /* \"#utility.yul\":1071:1348   */\n      pop\n        /* \"#utility.yul\":1010:1348   */\n      swap3\n      swap2\n      pop\n      pop\n      jump\t// out\n        /* \"#utility.yul\":1354:1493   */\n    tag_325:\n        /* \"#utility.yul\":1400:1405   */\n      0x00\n        /* \"#utility.yul\":1438:1444   */\n      dup2\n        /* \"#utility.yul\":1425:1445   */\n      calldataload\n        /* \"#utility.yul\":1416:1445   */\n      swap1\n      pop\n        /* \"#utility.yul\":1454:1487   */\n      tag_327\n        /* \"#utility.yul\":1481:1486   */\n      dup2\n        /* \"#utility.yul\":1454:1487   */\n      tag_328\n      jump\t// in\n    tag_327:\n        /* \"#utility.yul\":1354:1493   */\n      swap3\n      swap2\n      pop\n      pop\n      jump\t// out\n        /* \"#utility.yul\":1499:1828   */\n    tag_61:\n        /* \"#utility.yul\":1558:1564   */\n      0x00\n        /* \"#utility.yul\":1607:1609   */\n      0x20\n        /* \"#utility.yul\":1595:1604   */\n      dup3\n        /* \"#utility.yul\":1586:1593   */\n      dup5\n        /* \"#utility.yul\":1582:1605   */\n      sub\n        /* \"#utility.yul\":1578:1610   */\n      slt\n        /* \"#utility.yul\":1575:1694   */\n      iszero\n      tag_330\n      jumpi\n        /* \"#utility.yul\":1613:1692   */\n      tag_331\n      tag_332\n      jump\t// in\n    tag_331:\n        /* \"#utility.yul\":1575:1694   */\n    tag_330:\n        /* \"#utility.yul\":1733:1734   */\n      0x00\n        /* \"#utility.yul\":1758:1811   */\n      tag_333\n        /* \"#utility.yul\":1803:1810   */\n      dup5\n        /* \"#utility.yul\":1794:1800   */\n      dup3\n        /* \"#utility.yul\":1783:1792   */\n      dup6\n        /* \"#utility.yul\":1779:1801   */\n      add\n        /* \"#utility.yul\":1758:1811   */\n      tag_304\n      jump\t// in\n    tag_333:\n        /* \"#utility.yul\":1748:1811   */\n      swap2\n      pop\n        /* \"#utility.yul\":1704:1821   */\n      pop\n        /* \"#utility.yul\":1499:1828   */\n      swap3\n      swap2\n      pop\n      pop\n      jump\t// out\n        /* \"#utility.yul\":1834:2308   */\n    tag_90:\n        /* \"#utility.yul\":1902:1908   */\n      0x00\n        /* \"#utility.yul\":1910:1916   */\n      dup1\n        /* \"#utility.yul\":1959:1961   */\n      0x40\n        /* \"#utility.yul\":1947:1956   */\n      dup4\n        /* \"#utility.yul\":1938:1945   */\n      dup6\n        /* \"#utility.yul\":1934:1957   */\n      sub\n        /* \"#utility.yul\":1930:1962   */\n      slt\n        /* \"#utility.yul\":1927:2046   */\n      iszero\n      tag_335\n      jumpi\n        /* \"#utility.yul\":1965:2044   */\n      tag_336\n      tag_332\n      jump\t// in\n    tag_336:\n        /* \"#utility.yul\":1927:2046   */\n    tag_335:\n        /* \"#utility.yul\":2085:2086   */\n      0x00\n        /* \"#utility.yul\":2110:2163   */\n      tag_337\n        /* \"#utility.yul\":2155:2162   */\n      dup6\n        /* \"#utility.yul\":2146:2152   */\n      dup3\n        /* \"#utility.yul\":2135:2144   */\n      dup7\n        /* \"#utility.yul\":2131:2153   */\n      add\n        /* \"#utility.yul\":2110:2163   */\n      tag_304\n      jump\t// in\n    tag_337:\n        /* \"#utility.yul\":2100:2163   */\n      swap3\n      pop\n        /* \"#utility.yul\":2056:2173   */\n      pop\n        /* \"#utility.yul\":2212:2214   */\n      0x20\n        /* \"#utility.yul\":2238:2291   */\n      tag_338\n        /* \"#utility.yul\":2283:2290   */\n      dup6\n        /* \"#utility.yul\":2274:2280   */\n      dup3\n        /* \"#utility.yul\":2263:2272   */\n      dup7\n        /* \"#utility.yul\":2259:2281   */\n      add\n        /* \"#utility.yul\":2238:2291   */\n      tag_304\n      jump\t// in\n    tag_338:\n        /* \"#utility.yul\":2228:2291   */\n      swap2\n      pop\n        /* \"#utility.yul\":2183:2301   */\n      pop\n        /* \"#utility.yul\":1834:2308   */\n      swap3\n      pop\n      swap3\n      swap1\n      pop\n      jump\t// out\n        /* \"#utility.yul\":2314:2933   */\n    tag_46:\n        /* \"#utility.yul\":2391:2397   */\n      0x00\n        /* \"#utility.yul\":2399:2405   */\n      dup1\n        /* \"#utility.yul\":2407:2413   */\n      0x00\n        /* \"#utility.yul\":2456:2458   */\n      0x60\n        /* \"#utility.yul\":2444:2453   */\n      dup5\n        /* \"#utility.yul\":2435:2442   */\n      dup7\n        /* \"#utility.yul\":2431:2454   */\n      sub\n        /* \"#utility.yul\":2427:2459   */\n      slt\n        /* \"#utility.yul\":2424:2543   */\n      iszero\n      tag_340\n      jumpi\n        /* \"#utility.yul\":2462:2541   */\n      tag_341\n      tag_332\n      jump\t// in\n    tag_341:\n        /* \"#utility.yul\":2424:2543   */\n    tag_340:\n        /* \"#utility.yul\":2582:2583   */\n      0x00\n        /* \"#utility.yul\":2607:2660   */\n      tag_342\n        /* \"#utility.yul\":2652:2659   */\n      dup7\n        /* \"#utility.yul\":2643:2649   */\n      dup3\n        /* \"#utility.yul\":2632:2641   */\n      dup8\n        /* \"#utility.yul\":2628:2650   */\n      add\n        /* \"#utility.yul\":2607:2660   */\n      tag_304\n      jump\t// in\n    tag_342:\n        /* \"#utility.yul\":2597:2660   */\n      swap4\n      pop\n        /* \"#utility.yul\":2553:2670   */\n      pop\n        /* \"#utility.yul\":2709:2711   */\n      0x20\n        /* \"#utility.yul\":2735:2788   */\n      tag_343\n        /* \"#utility.yul\":2780:2787   */\n      dup7\n        /* \"#utility.yul\":2771:2777   */\n      dup3\n        /* \"#utility.yul\":2760:2769   */\n      dup8\n        /* \"#utility.yul\":2756:2778   */\n      add\n        /* \"#utility.yul\":2735:2788   */\n      tag_304\n      jump\t// in\n    tag_343:\n        /* \"#utility.yul\":2725:2788   */\n      swap3\n      pop\n        /* \"#utility.yul\":2680:2798   */\n      pop\n        /* \"#utility.yul\":2837:2839   */\n      0x40\n        /* \"#utility.yul\":2863:2916   */\n      tag_344\n        /* \"#utility.yul\":2908:2915   */\n      dup7\n        /* \"#utility.yul\":2899:2905   */\n      dup3\n        /* \"#utility.yul\":2888:2897   */\n      dup8\n        /* \"#utility.yul\":2884:2906   */\n      add\n        /* \"#utility.yul\":2863:2916   */\n      tag_325\n      jump\t// in\n    tag_344:\n        /* \"#utility.yul\":2853:2916   */\n      swap2\n      pop\n        /* \"#utility.yul\":2808:2926   */\n      pop\n        /* \"#utility.yul\":2314:2933   */\n      swap3\n      pop\n      swap3\n      pop\n      swap3\n      jump\t// out\n        /* \"#utility.yul\":2939:3882   */\n    tag_82:\n        /* \"#utility.yul\":3034:3040   */\n      0x00\n        /* \"#utility.yul\":3042:3048   */\n      dup1\n        /* \"#utility.yul\":3050:3056   */\n      0x00\n        /* \"#utility.yul\":3058:3064   */\n      dup1\n        /* \"#utility.yul\":3107:3110   */\n      0x80\n        /* \"#utility.yul\":3095:3104   */\n      dup6\n        /* \"#utility.yul\":3086:3093   */\n      dup8\n        /* \"#utility.yul\":3082:3105   */\n      sub\n        /* \"#utility.yul\":3078:3111   */\n      slt\n        /* \"#utility.yul\":3075:3195   */\n      iszero\n      tag_346\n      jumpi\n        /* \"#utility.yul\":3114:3193   */\n      tag_347\n      tag_332\n      jump\t// in\n    tag_347:\n        /* \"#utility.yul\":3075:3195   */\n    tag_346:\n        /* \"#utility.yul\":3234:3235   */\n      0x00\n        /* \"#utility.yul\":3259:3312   */\n      tag_348\n        /* \"#utility.yul\":3304:3311   */\n      dup8\n        /* \"#utility.yul\":3295:3301   */\n      dup3\n        /* \"#utility.yul\":3284:3293   */\n      dup9\n        /* \"#utility.yul\":3280:3302   */\n      add\n        /* \"#utility.yul\":3259:3312   */\n      tag_304\n      jump\t// in\n    tag_348:\n        /* \"#utility.yul\":3249:3312   */\n      swap5\n      pop\n        /* \"#utility.yul\":3205:3322   */\n      pop\n        /* \"#utility.yul\":3361:3363   */\n      0x20\n        /* \"#utility.yul\":3387:3440   */\n      tag_349\n        /* \"#utility.yul\":3432:3439   */\n      dup8\n        /* \"#utility.yul\":3423:3429   */\n      dup3\n        /* \"#utility.yul\":3412:3421   */\n      dup9\n        /* \"#utility.yul\":3408:3430   */\n      add\n        /* \"#utility.yul\":3387:3440   */\n      tag_304\n      jump\t// in\n    tag_349:\n        /* \"#utility.yul\":3377:3440   */\n      swap4\n      pop\n        /* \"#utility.yul\":3332:3450   */\n      pop\n        /* \"#utility.yul\":3489:3491   */\n      0x40\n        /* \"#utility.yul\":3515:3568   */\n      tag_350\n        /* \"#utility.yul\":3560:3567   */\n      dup8\n        /* \"#utility.yul\":3551:3557   */\n      dup3\n        /* \"#utility.yul\":3540:3549   */\n      dup9\n        /* \"#utility.yul\":3536:3558   */\n      add\n        /* \"#utility.yul\":3515:3568   */\n      tag_325\n      jump\t// in\n    tag_350:\n        /* \"#utility.yul\":3505:3568   */\n      swap3\n      pop\n        /* \"#utility.yul\":3460:3578   */\n      pop\n        /* \"#utility.yul\":3645:3647   */\n      0x60\n        /* \"#utility.yul\":3634:3643   */\n      dup6\n        /* \"#utility.yul\":3630:3648   */\n      add\n        /* \"#utility.yul\":3617:3649   */\n      calldataload\n        /* \"#utility.yul\":3676:3694   */\n      0xffffffffffffffff\n        /* \"#utility.yul\":3668:3674   */\n      dup2\n        /* \"#utility.yul\":3665:3695   */\n      gt\n        /* \"#utility.yul\":3662:3779   */\n      iszero\n      tag_351\n      jumpi\n        /* \"#utility.yul\":3698:3777   */\n      tag_352\n      tag_353\n      jump\t// in\n    tag_352:\n        /* \"#utility.yul\":3662:3779   */\n    tag_351:\n        /* \"#utility.yul\":3803:3865   */\n      tag_354\n        /* \"#utility.yul\":3857:3864   */\n      dup8\n        /* \"#utility.yul\":3848:3854   */\n      dup3\n        /* \"#utility.yul\":3837:3846   */\n      dup9\n        /* \"#utility.yul\":3833:3855   */\n      add\n        /* \"#utility.yul\":3803:3865   */\n      tag_319\n      jump\t// in\n    tag_354:\n        /* \"#utility.yul\":3793:3865   */\n      swap2\n      pop\n        /* \"#utility.yul\":3588:3875   */\n      pop\n        /* \"#utility.yul\":2939:3882   */\n      swap3\n      swap6\n      swap2\n      swap5\n      pop\n      swap3\n      pop\n      jump\t// out\n        /* \"#utility.yul\":3888:4356   */\n    tag_78:\n        /* \"#utility.yul\":3953:3959   */\n      0x00\n        /* \"#utility.yul\":3961:3967   */\n      dup1\n        /* \"#utility.yul\":4010:4012   */\n      0x40\n        /* \"#utility.yul\":3998:4007   */\n      dup4\n        /* \"#utility.yul\":3989:3996   */\n      dup6\n        /* \"#utility.yul\":3985:4008   */\n      sub\n        /* \"#utility.yul\":3981:4013   */\n      slt\n        /* \"#utility.yul\":3978:4097   */\n      iszero\n      tag_356\n      jumpi\n        /* \"#utility.yul\":4016:4095   */\n      tag_357\n      tag_332\n      jump\t// in\n    tag_357:\n        /* \"#utility.yul\":3978:4097   */\n    tag_356:\n        /* \"#utility.yul\":4136:4137   */\n      0x00\n        /* \"#utility.yul\":4161:4214   */\n      tag_358\n        /* \"#utility.yul\":4206:4213   */\n      dup6\n        /* \"#utility.yul\":4197:4203   */\n      dup3\n        /* \"#utility.yul\":4186:4195   */\n      dup7\n        /* \"#utility.yul\":4182:4204   */\n      add\n        /* \"#utility.yul\":4161:4214   */\n      tag_304\n      jump\t// in\n    tag_358:\n        /* \"#utility.yul\":4151:4214   */\n      swap3\n      pop\n        /* \"#utility.yul\":4107:4224   */\n      pop\n        /* \"#utility.yul\":4263:4265   */\n      0x20\n        /* \"#utility.yul\":4289:4339   */\n      tag_359\n        /* \"#utility.yul\":4331:4338   */\n      dup6\n        /* \"#utility.yul\":4322:4328   */\n      dup3\n        /* \"#utility.yul\":4311:4320   */\n      dup7\n        /* \"#utility.yul\":4307:4329   */\n      add\n        /* \"#utility.yul\":4289:4339   */\n      tag_308\n      jump\t// in\n    tag_359:\n        /* \"#utility.yul\":4279:4339   */\n      swap2\n      pop\n        /* \"#utility.yul\":4234:4349   */\n      pop\n        /* \"#utility.yul\":3888:4356   */\n      swap3\n      pop\n      swap3\n      swap1\n      pop\n      jump\t// out\n        /* \"#utility.yul\":4362:4836   */\n    tag_42:\n        /* \"#utility.yul\":4430:4436   */\n      0x00\n        /* \"#utility.yul\":4438:4444   */\n      dup1\n        /* \"#utility.yul\":4487:4489   */\n      0x40\n        /* \"#utility.yul\":4475:4484   */\n      dup4\n        /* \"#utility.yul\":4466:4473   */\n      dup6\n        /* \"#utility.yul\":4462:4485   */\n      sub\n        /* \"#utility.yul\":4458:4490   */\n      slt\n        /* \"#utility.yul\":4455:4574   */\n      iszero\n      tag_361\n      jumpi\n        /* \"#utility.yul\":4493:4572   */\n      tag_362\n      tag_332\n      jump\t// in\n    tag_362:\n        /* \"#utility.yul\":4455:4574   */\n    tag_361:\n        /* \"#utility.yul\":4613:4614   */\n      0x00\n        /* \"#utility.yul\":4638:4691   */\n      tag_363\n        /* \"#utility.yul\":4683:4690   */\n      dup6\n        /* \"#utility.yul\":4674:4680   */\n      dup3\n        /* \"#utility.yul\":4663:4672   */\n      dup7\n        /* \"#utility.yul\":4659:4681   */\n      add\n        /* \"#utility.yul\":4638:4691   */\n      tag_304\n      jump\t// in\n    tag_363:\n        /* \"#utility.yul\":4628:4691   */\n      swap3\n      pop\n        /* \"#utility.yul\":4584:4701   */\n      pop\n        /* \"#utility.yul\":4740:4742   */\n      0x20\n        /* \"#utility.yul\":4766:4819   */\n      tag_364\n        /* \"#utility.yul\":4811:4818   */\n      dup6\n        /* \"#utility.yul\":4802:4808   */\n      dup3\n        /* \"#utility.yul\":4791:4800   */\n      dup7\n        /* \"#utility.yul\":4787:4809   */\n      add\n        /* \"#utility.yul\":4766:4819   */\n      tag_325\n      jump\t// in\n    tag_364:\n        /* \"#utility.yul\":4756:4819   */\n      swap2\n      pop\n        /* \"#utility.yul\":4711:4829   */\n      pop\n        /* \"#utility.yul\":4362:4836   */\n      swap3\n      pop\n      swap3\n      swap1\n      pop\n      jump\t// out\n        /* \"#utility.yul\":4842:5169   */\n    tag_26:\n        /* \"#utility.yul\":4900:4906   */\n      0x00\n        /* \"#utility.yul\":4949:4951   */\n      0x20\n        /* \"#utility.yul\":4937:4946   */\n      dup3\n        /* \"#utility.yul\":4928:4935   */\n      dup5\n        /* \"#utility.yul\":4924:4947   */\n      sub\n        /* \"#utility.yul\":4920:4952   */\n      slt\n        /* \"#utility.yul\":4917:5036   */\n      iszero\n      tag_366\n      jumpi\n        /* \"#utility.yul\":4955:5034   */\n      tag_367\n      tag_332\n      jump\t// in\n    tag_367:\n        /* \"#utility.yul\":4917:5036   */\n    tag_366:\n        /* \"#utility.yul\":5075:5076   */\n      0x00\n        /* \"#utility.yul\":5100:5152   */\n      tag_368\n        /* \"#utility.yul\":5144:5151   */\n      dup5\n        /* \"#utility.yul\":5135:5141   */\n      dup3\n        /* \"#utility.yul\":5124:5133   */\n      dup6\n        /* \"#utility.yul\":5120:5142   */\n      add\n        /* \"#utility.yul\":5100:5152   */\n      tag_312\n      jump\t// in\n    tag_368:\n        /* \"#utility.yul\":5090:5152   */\n      swap2\n      pop\n        /* \"#utility.yul\":5046:5162   */\n      pop\n        /* \"#utility.yul\":4842:5169   */\n      swap3\n      swap2\n      pop\n      pop\n      jump\t// out\n        /* \"#utility.yul\":5175:5524   */\n    tag_279:\n        /* \"#utility.yul\":5244:5250   */\n      0x00\n        /* \"#utility.yul\":5293:5295   */\n      0x20\n        /* \"#utility.yul\":5281:5290   */\n      dup3\n        /* \"#utility.yul\":5272:5279   */\n      dup5\n        /* \"#utility.yul\":5268:5291   */\n      sub\n        /* \"#utility.yul\":5264:5296   */\n      slt\n        /* \"#utility.yul\":5261:5380   */\n      iszero\n      tag_370\n      jumpi\n        /* \"#utility.yul\":5299:5378   */\n      tag_371\n      tag_332\n      jump\t// in\n    tag_371:\n        /* \"#utility.yul\":5261:5380   */\n    tag_370:\n        /* \"#utility.yul\":5419:5420   */\n      0x00\n        /* \"#utility.yul\":5444:5507   */\n      tag_372\n        /* \"#utility.yul\":5499:5506   */\n      dup5\n        /* \"#utility.yul\":5490:5496   */\n      dup3\n        /* \"#utility.yul\":5479:5488   */\n      dup6\n        /* \"#utility.yul\":5475:5497   */\n      add\n        /* \"#utility.yul\":5444:5507   */\n      tag_316\n      jump\t// in\n    tag_372:\n        /* \"#utility.yul\":5434:5507   */\n      swap2\n      pop\n        /* \"#utility.yul\":5390:5517   */\n      pop\n        /* \"#utility.yul\":5175:5524   */\n      swap3\n      swap2\n      pop\n      pop\n      jump\t// out\n        /* \"#utility.yul\":5530:5859   */\n    tag_36:\n        /* \"#utility.yul\":5589:5595   */\n      0x00\n        /* \"#utility.yul\":5638:5640   */\n      0x20\n        /* \"#utility.yul\":5626:5635   */\n      dup3\n        /* \"#utility.yul\":5617:5624   */\n      dup5\n        /* \"#utility.yul\":5613:5636   */\n      sub\n        /* \"#utility.yul\":5609:5641   */\n      slt\n        /* \"#utility.yul\":5606:5725   */\n      iszero\n      tag_374\n      jumpi\n        /* \"#utility.yul\":5644:5723   */\n      tag_375\n      tag_332\n      jump\t// in\n    tag_375:\n        /* \"#utility.yul\":5606:5725   */\n    tag_374:\n        /* \"#utility.yul\":5764:5765   */\n      0x00\n        /* \"#utility.yul\":5789:5842   */\n      tag_376\n        /* \"#utility.yul\":5834:5841   */\n      dup5\n        /* \"#utility.yul\":5825:5831   */\n      dup3\n        /* \"#utility.yul\":5814:5823   */\n      dup6\n        /* \"#utility.yul\":5810:5832   */\n      add\n        /* \"#utility.yul\":5789:5842   */\n      tag_325\n      jump\t// in\n    tag_376:\n        /* \"#utility.yul\":5779:5842   */\n      swap2\n      pop\n        /* \"#utility.yul\":5735:5852   */\n      pop\n        /* \"#utility.yul\":5530:5859   */\n      swap3\n      swap2\n      pop\n      pop\n      jump\t// out\n        /* \"#utility.yul\":5865:6012   */\n    tag_377:\n        /* \"#utility.yul\":5960:6005   */\n      tag_379\n        /* \"#utility.yul\":5999:6004   */\n      dup2\n        /* \"#utility.yul\":5960:6005   */\n      tag_380\n      jump\t// in\n    tag_379:\n        /* \"#utility.yul\":5955:5958   */\n      dup3\n        /* \"#utility.yul\":5948:6006   */\n      mstore\n        /* \"#utility.yul\":5865:6012   */\n      pop\n      pop\n      jump\t// out\n        /* \"#utility.yul\":6018:6136   */\n    tag_381:\n        /* \"#utility.yul\":6105:6129   */\n      tag_383\n        /* \"#utility.yul\":6123:6128   */\n      dup2\n        /* \"#utility.yul\":6105:6129   */\n      tag_384\n      jump\t// in\n    tag_383:\n        /* \"#utility.yul\":6100:6103   */\n      dup3\n        /* \"#utility.yul\":6093:6130   */\n      mstore\n        /* \"#utility.yul\":6018:6136   */\n      pop\n      pop\n      jump\t// out\n        /* \"#utility.yul\":6142:6251   */\n    tag_385:\n        /* \"#utility.yul\":6223:6244   */\n      tag_387\n        /* \"#utility.yul\":6238:6243   */\n      dup2\n        /* \"#utility.yul\":6223:6244   */\n      tag_388\n      jump\t// in\n    tag_387:\n        /* \"#utility.yul\":6218:6221   */\n      dup3\n        /* \"#utility.yul\":6211:6245   */\n      mstore\n        /* \"#utility.yul\":6142:6251   */\n      pop\n      pop\n      jump\t// out\n        /* \"#utility.yul\":6257:6617   */\n    tag_389:\n        /* \"#utility.yul\":6343:6346   */\n      0x00\n        /* \"#utility.yul\":6371:6409   */\n      tag_391\n        /* \"#utility.yul\":6403:6408   */\n      dup3\n        /* \"#utility.yul\":6371:6409   */\n      tag_392\n      jump\t// in\n    tag_391:\n        /* \"#utility.yul\":6425:6495   */\n      tag_393\n        /* \"#utility.yul\":6488:6494   */\n      dup2\n        /* \"#utility.yul\":6483:6486   */\n      dup6\n        /* \"#utility.yul\":6425:6495   */\n      tag_394\n      jump\t// in\n    tag_393:\n        /* \"#utility.yul\":6418:6495   */\n      swap4\n      pop\n        /* \"#utility.yul\":6504:6556   */\n      tag_395\n        /* \"#utility.yul\":6549:6555   */\n      dup2\n        /* \"#utility.yul\":6544:6547   */\n      dup6\n        /* \"#utility.yul\":6537:6541   */\n      0x20\n        /* \"#utility.yul\":6530:6535   */\n      dup7\n        /* \"#utility.yul\":6526:6542   */\n      add\n        /* \"#utility.yul\":6504:6556   */\n      tag_396\n      jump\t// in\n    tag_395:\n        /* \"#utility.yul\":6581:6610   */\n      tag_397\n        /* \"#utility.yul\":6603:6609   */\n      dup2\n        /* \"#utility.yul\":6581:6610   */\n      tag_398\n      jump\t// in\n    tag_397:\n        /* \"#utility.yul\":6576:6579   */\n      dup5\n        /* \"#utility.yul\":6572:6611   */\n      add\n        /* \"#utility.yul\":6565:6611   */\n      swap2\n      pop\n        /* \"#utility.yul\":6347:6617   */\n      pop\n        /* \"#utility.yul\":6257:6617   */\n      swap3\n      swap2\n      pop\n      pop\n      jump\t// out\n        /* \"#utility.yul\":6623:6987   */\n    tag_399:\n        /* \"#utility.yul\":6711:6714   */\n      0x00\n        /* \"#utility.yul\":6739:6778   */\n      tag_401\n        /* \"#utility.yul\":6772:6777   */\n      dup3\n        /* \"#utility.yul\":6739:6778   */\n      tag_402\n      jump\t// in\n    tag_401:\n        /* \"#utility.yul\":6794:6865   */\n      tag_403\n        /* \"#utility.yul\":6858:6864   */\n      dup2\n        /* \"#utility.yul\":6853:6856   */\n      dup6\n        /* \"#utility.yul\":6794:6865   */\n      tag_404\n      jump\t// in\n    tag_403:\n        /* \"#utility.yul\":6787:6865   */\n      swap4\n      pop\n        /* \"#utility.yul\":6874:6926   */\n      tag_405\n        /* \"#utility.yul\":6919:6925   */\n      dup2\n        /* \"#utility.yul\":6914:6917   */\n      dup6\n        /* \"#utility.yul\":6907:6911   */\n      0x20\n        /* \"#utility.yul\":6900:6905   */\n      dup7\n        /* \"#utility.yul\":6896:6912   */\n      add\n        /* \"#utility.yul\":6874:6926   */\n      tag_396\n      jump\t// in\n    tag_405:\n        /* \"#utility.yul\":6951:6980   */\n      tag_406\n        /* \"#utility.yul\":6973:6979   */\n      dup2\n        /* \"#utility.yul\":6951:6980   */\n      tag_398\n      jump\t// in\n    tag_406:\n        /* \"#utility.yul\":6946:6949   */\n      dup5\n        /* \"#utility.yul\":6942:6981   */\n      add\n        /* \"#utility.yul\":6935:6981   */\n      swap2\n      pop\n        /* \"#utility.yul\":6715:6987   */\n      pop\n        /* \"#utility.yul\":6623:6987   */\n      swap3\n      swap2\n      pop\n      pop\n      jump\t// out\n        /* \"#utility.yul\":6993:7370   */\n    tag_407:\n        /* \"#utility.yul\":7099:7102   */\n      0x00\n        /* \"#utility.yul\":7127:7166   */\n      tag_409\n        /* \"#utility.yul\":7160:7165   */\n      dup3\n        /* \"#utility.yul\":7127:7166   */\n      tag_402\n      jump\t// in\n    tag_409:\n        /* \"#utility.yul\":7182:7271   */\n      tag_410\n        /* \"#utility.yul\":7264:7270   */\n      dup2\n        /* \"#utility.yul\":7259:7262   */\n      dup6\n        /* \"#utility.yul\":7182:7271   */\n      tag_411\n      jump\t// in\n    tag_410:\n        /* \"#utility.yul\":7175:7271   */\n      swap4\n      pop\n        /* \"#utility.yul\":7280:7332   */\n      tag_412\n        /* \"#utility.yul\":7325:7331   */\n      dup2\n        /* \"#utility.yul\":7320:7323   */\n      dup6\n        /* \"#utility.yul\":7313:7317   */\n      0x20\n        /* \"#utility.yul\":7306:7311   */\n      dup7\n        /* \"#utility.yul\":7302:7318   */\n      add\n        /* \"#utility.yul\":7280:7332   */\n      tag_396\n      jump\t// in\n    tag_412:\n        /* \"#utility.yul\":7357:7363   */\n      dup1\n        /* \"#utility.yul\":7352:7355   */\n      dup5\n        /* \"#utility.yul\":7348:7364   */\n      add\n        /* \"#utility.yul\":7341:7364   */\n      swap2\n      pop\n        /* \"#utility.yul\":7103:7370   */\n      pop\n        /* \"#utility.yul\":6993:7370   */\n      swap3\n      swap2\n      pop\n      pop\n      jump\t// out\n        /* \"#utility.yul\":7376:7742   */\n    tag_413:\n        /* \"#utility.yul\":7518:7521   */\n      0x00\n        /* \"#utility.yul\":7539:7606   */\n      tag_415\n        /* \"#utility.yul\":7603:7605   */\n      0x32\n        /* \"#utility.yul\":7598:7601   */\n      dup4\n        /* \"#utility.yul\":7539:7606   */\n      tag_404\n      jump\t// in\n    tag_415:\n        /* \"#utility.yul\":7532:7606   */\n      swap2\n      pop\n        /* \"#utility.yul\":7615:7708   */\n      tag_416\n        /* \"#utility.yul\":7704:7707   */\n      dup3\n        /* \"#utility.yul\":7615:7708   */\n      tag_417\n      jump\t// in\n    tag_416:\n        /* \"#utility.yul\":7733:7735   */\n      0x40\n        /* \"#utility.yul\":7728:7731   */\n      dup3\n        /* \"#utility.yul\":7724:7736   */\n      add\n        /* \"#utility.yul\":7717:7736   */\n      swap1\n      pop\n        /* \"#utility.yul\":7376:7742   */\n      swap2\n      swap1\n      pop\n      jump\t// out\n        /* \"#utility.yul\":7748:8114   */\n    tag_418:\n        /* \"#utility.yul\":7890:7893   */\n      0x00\n        /* \"#utility.yul\":7911:7978   */\n      tag_420\n        /* \"#utility.yul\":7975:7977   */\n      0x26\n        /* \"#utility.yul\":7970:7973   */\n      dup4\n        /* \"#utility.yul\":7911:7978   */\n      tag_404\n      jump\t// in\n    tag_420:\n        /* \"#utility.yul\":7904:7978   */\n      swap2\n      pop\n        /* \"#utility.yul\":7987:8080   */\n      tag_421\n        /* \"#utility.yul\":8076:8079   */\n      dup3\n        /* \"#utility.yul\":7987:8080   */\n      tag_422\n      jump\t// in\n    tag_421:\n        /* \"#utility.yul\":8105:8107   */\n      0x40\n        /* \"#utility.yul\":8100:8103   */\n      dup3\n        /* \"#utility.yul\":8096:8108   */\n      add\n        /* \"#utility.yul\":8089:8108   */\n      swap1\n      pop\n        /* \"#utility.yul\":7748:8114   */\n      swap2\n      swap1\n      pop\n      jump\t// out\n        /* \"#utility.yul\":8120:8486   */\n    tag_423:\n        /* \"#utility.yul\":8262:8265   */\n      0x00\n        /* \"#utility.yul\":8283:8350   */\n      tag_425\n        /* \"#utility.yul\":8347:8349   */\n      0x25\n        /* \"#utility.yul\":8342:8345   */\n      dup4\n        /* \"#utility.yul\":8283:8350   */\n      tag_404\n      jump\t// in\n    tag_425:\n        /* \"#utility.yul\":8276:8350   */\n      swap2\n      pop\n        /* \"#utility.yul\":8359:8452   */\n      tag_426\n        /* \"#utility.yul\":8448:8451   */\n      dup3\n        /* \"#utility.yul\":8359:8452   */\n      tag_427\n      jump\t// in\n    tag_426:\n        /* \"#utility.yul\":8477:8479   */\n      0x40\n        /* \"#utility.yul\":8472:8475   */\n      dup3\n        /* \"#utility.yul\":8468:8480   */\n      add\n        /* \"#utility.yul\":8461:8480   */\n      swap1\n      pop\n        /* \"#utility.yul\":8120:8486   */\n      swap2\n      swap1\n      pop\n      jump\t// out\n        /* \"#utility.yul\":8492:8858   */\n    tag_428:\n        /* \"#utility.yul\":8634:8637   */\n      0x00\n        /* \"#utility.yul\":8655:8722   */\n      tag_430\n        /* \"#utility.yul\":8719:8721   */\n      0x24\n        /* \"#utility.yul\":8714:8717   */\n      dup4\n        /* \"#utility.yul\":8655:8722   */\n      tag_404\n      jump\t// in\n    tag_430:\n        /* \"#utility.yul\":8648:8722   */\n      swap2\n      pop\n        /* \"#utility.yul\":8731:8824   */\n      tag_431\n        /* \"#utility.yul\":8820:8823   */\n      dup3\n        /* \"#utility.yul\":8731:8824   */\n      tag_432\n      jump\t// in\n    tag_431:\n        /* \"#utility.yul\":8849:8851   */\n      0x40\n        /* \"#utility.yul\":8844:8847   */\n      dup3\n        /* \"#utility.yul\":8840:8852   */\n      add\n        /* \"#utility.yul\":8833:8852   */\n      swap1\n      pop\n        /* \"#utility.yul\":8492:8858   */\n      swap2\n      swap1\n      pop\n      jump\t// out\n        /* \"#utility.yul\":8864:9230   */\n    tag_433:\n        /* \"#utility.yul\":9006:9009   */\n      0x00\n        /* \"#utility.yul\":9027:9094   */\n      tag_435\n        /* \"#utility.yul\":9091:9093   */\n      0x19\n        /* \"#utility.yul\":9086:9089   */\n      dup4\n        /* \"#utility.yul\":9027:9094   */\n      tag_404\n      jump\t// in\n    tag_435:\n        /* \"#utility.yul\":9020:9094   */\n      swap2\n      pop\n        /* \"#utility.yul\":9103:9196   */\n      tag_436\n        /* \"#utility.yul\":9192:9195   */\n      dup3\n        /* \"#utility.yul\":9103:9196   */\n      tag_437\n      jump\t// in\n    tag_436:\n        /* \"#utility.yul\":9221:9223   */\n      0x20\n        /* \"#utility.yul\":9216:9219   */\n      dup3\n        /* \"#utility.yul\":9212:9224   */\n      add\n        /* \"#utility.yul\":9205:9224   */\n      swap1\n      pop\n        /* \"#utility.yul\":8864:9230   */\n      swap2\n      swap1\n      pop\n      jump\t// out\n        /* \"#utility.yul\":9236:9602   */\n    tag_438:\n        /* \"#utility.yul\":9378:9381   */\n      0x00\n        /* \"#utility.yul\":9399:9466   */\n      tag_440\n        /* \"#utility.yul\":9463:9465   */\n      0x2c\n        /* \"#utility.yul\":9458:9461   */\n      dup4\n        /* \"#utility.yul\":9399:9466   */\n      tag_404\n      jump\t// in\n    tag_440:\n        /* \"#utility.yul\":9392:9466   */\n      swap2\n      pop\n        /* \"#utility.yul\":9475:9568   */\n      tag_441\n        /* \"#utility.yul\":9564:9567   */\n      dup3\n        /* \"#utility.yul\":9475:9568   */\n      tag_442\n      jump\t// in\n    tag_441:\n        /* \"#utility.yul\":9593:9595   */\n      0x40\n        /* \"#utility.yul\":9588:9591   */\n      dup3\n        /* \"#utility.yul\":9584:9596   */\n      add\n        /* \"#utility.yul\":9577:9596   */\n      swap1\n      pop\n        /* \"#utility.yul\":9236:9602   */\n      swap2\n      swap1\n      pop\n      jump\t// out\n        /* \"#utility.yul\":9608:9974   */\n    tag_443:\n        /* \"#utility.yul\":9750:9753   */\n      0x00\n        /* \"#utility.yul\":9771:9838   */\n      tag_445\n        /* \"#utility.yul\":9835:9837   */\n      0x38\n        /* \"#utility.yul\":9830:9833   */\n      dup4\n        /* \"#utility.yul\":9771:9838   */\n      tag_404\n      jump\t// in\n    tag_445:\n        /* \"#utility.yul\":9764:9838   */\n      swap2\n      pop\n        /* \"#utility.yul\":9847:9940   */\n      tag_446\n        /* \"#utility.yul\":9936:9939   */\n      dup3\n        /* \"#utility.yul\":9847:9940   */\n      tag_447\n      jump\t// in\n    tag_446:\n        /* \"#utility.yul\":9965:9967   */\n      0x40\n        /* \"#utility.yul\":9960:9963   */\n      dup3\n        /* \"#utility.yul\":9956:9968   */\n      add\n        /* \"#utility.yul\":9949:9968   */\n      swap1\n      pop\n        /* \"#utility.yul\":9608:9974   */\n      swap2\n      swap1\n      pop\n      jump\t// out\n        /* \"#utility.yul\":9980:10346   */\n    tag_448:\n        /* \"#utility.yul\":10122:10125   */\n      0x00\n        /* \"#utility.yul\":10143:10210   */\n      tag_450\n        /* \"#utility.yul\":10207:10209   */\n      0x2a\n        /* \"#utility.yul\":10202:10205   */\n      dup4\n        /* \"#utility.yul\":10143:10210   */\n      tag_404\n      jump\t// in\n    tag_450:\n        /* \"#utility.yul\":10136:10210   */\n      swap2\n      pop\n        /* \"#utility.yul\":10219:10312   */\n      tag_451\n        /* \"#utility.yul\":10308:10311   */\n      dup3\n        /* \"#utility.yul\":10219:10312   */\n      tag_452\n      jump\t// in\n    tag_451:\n        /* \"#utility.yul\":10337:10339   */\n      0x40\n        /* \"#utility.yul\":10332:10335   */\n      dup3\n        /* \"#utility.yul\":10328:10340   */\n      add\n        /* \"#utility.yul\":10321:10340   */\n      swap1\n      pop\n        /* \"#utility.yul\":9980:10346   */\n      swap2\n      swap1\n      pop\n      jump\t// out\n        /* \"#utility.yul\":10352:10718   */\n    tag_453:\n        /* \"#utility.yul\":10494:10497   */\n      0x00\n        /* \"#utility.yul\":10515:10582   */\n      tag_455\n        /* \"#utility.yul\":10579:10581   */\n      0x29\n        /* \"#utility.yul\":10574:10577   */\n      dup4\n        /* \"#utility.yul\":10515:10582   */\n      tag_404\n      jump\t// in\n    tag_455:\n        /* \"#utility.yul\":10508:10582   */\n      swap2\n      pop\n        /* \"#utility.yul\":10591:10684   */\n      tag_456\n        /* \"#utility.yul\":10680:10683   */\n      dup3\n        /* \"#utility.yul\":10591:10684   */\n      tag_457\n      jump\t// in\n    tag_456:\n        /* \"#utility.yul\":10709:10711   */\n      0x40\n        /* \"#utility.yul\":10704:10707   */\n      dup3\n        /* \"#utility.yul\":10700:10712   */\n      add\n        /* \"#utility.yul\":10693:10712   */\n      swap1\n      pop\n        /* \"#utility.yul\":10352:10718   */\n      swap2\n      swap1\n      pop\n      jump\t// out\n        /* \"#utility.yul\":10724:11090   */\n    tag_458:\n        /* \"#utility.yul\":10866:10869   */\n      0x00\n        /* \"#utility.yul\":10887:10954   */\n      tag_460\n        /* \"#utility.yul\":10951:10953   */\n      0x2c\n        /* \"#utility.yul\":10946:10949   */\n      dup4\n        /* \"#utility.yul\":10887:10954   */\n      tag_404\n      jump\t// in\n    tag_460:\n        /* \"#utility.yul\":10880:10954   */\n      swap2\n      pop\n        /* \"#utility.yul\":10963:11056   */\n      tag_461\n        /* \"#utility.yul\":11052:11055   */\n      dup3\n        /* \"#utility.yul\":10963:11056   */\n      tag_462\n      jump\t// in\n    tag_461:\n        /* \"#utility.yul\":11081:11083   */\n      0x40\n        /* \"#utility.yul\":11076:11079   */\n      dup3\n        /* \"#utility.yul\":11072:11084   */\n      add\n        /* \"#utility.yul\":11065:11084   */\n      swap1\n      pop\n        /* \"#utility.yul\":10724:11090   */\n      swap2\n      swap1\n      pop\n      jump\t// out\n        /* \"#utility.yul\":11096:11462   */\n    tag_463:\n        /* \"#utility.yul\":11238:11241   */\n      0x00\n        /* \"#utility.yul\":11259:11326   */\n      tag_465\n        /* \"#utility.yul\":11323:11325   */\n      0x20\n        /* \"#utility.yul\":11318:11321   */\n      dup4\n        /* \"#utility.yul\":11259:11326   */\n      tag_404\n      jump\t// in\n    tag_465:\n        /* \"#utility.yul\":11252:11326   */\n      swap2\n      pop\n        /* \"#utility.yul\":11335:11428   */\n      tag_466\n        /* \"#utility.yul\":11424:11427   */\n      dup3\n        /* \"#utility.yul\":11335:11428   */\n      tag_467\n      jump\t// in\n    tag_466:\n        /* \"#utility.yul\":11453:11455   */\n      0x20\n        /* \"#utility.yul\":11448:11451   */\n      dup3\n        /* \"#utility.yul\":11444:11456   */\n      add\n        /* \"#utility.yul\":11437:11456   */\n      swap1\n      pop\n        /* \"#utility.yul\":11096:11462   */\n      swap2\n      swap1\n      pop\n      jump\t// out\n        /* \"#utility.yul\":11468:11834   */\n    tag_468:\n        /* \"#utility.yul\":11610:11613   */\n      0x00\n        /* \"#utility.yul\":11631:11698   */\n      tag_470\n        /* \"#utility.yul\":11695:11697   */\n      0x2f\n        /* \"#utility.yul\":11690:11693   */\n      dup4\n        /* \"#utility.yul\":11631:11698   */\n      tag_404\n      jump\t// in\n    tag_470:\n        /* \"#utility.yul\":11624:11698   */\n      swap2\n      pop\n        /* \"#utility.yul\":11707:11800   */\n      tag_471\n        /* \"#utility.yul\":11796:11799   */\n      dup3\n        /* \"#utility.yul\":11707:11800   */\n      tag_472\n      jump\t// in\n    tag_471:\n        /* \"#utility.yul\":11825:11827   */\n      0x40\n        /* \"#utility.yul\":11820:11823   */\n      dup3\n        /* \"#utility.yul\":11816:11828   */\n      add\n        /* \"#utility.yul\":11809:11828   */\n      swap1\n      pop\n        /* \"#utility.yul\":11468:11834   */\n      swap2\n      swap1\n      pop\n      jump\t// out\n        /* \"#utility.yul\":11840:12206   */\n    tag_473:\n        /* \"#utility.yul\":11982:11985   */\n      0x00\n        /* \"#utility.yul\":12003:12070   */\n      tag_475\n        /* \"#utility.yul\":12067:12069   */\n      0x21\n        /* \"#utility.yul\":12062:12065   */\n      dup4\n        /* \"#utility.yul\":12003:12070   */\n      tag_404\n      jump\t// in\n    tag_475:\n        /* \"#utility.yul\":11996:12070   */\n      swap2\n      pop\n        /* \"#utility.yul\":12079:12172   */\n      tag_476\n        /* \"#utility.yul\":12168:12171   */\n      dup3\n        /* \"#utility.yul\":12079:12172   */\n      tag_477\n      jump\t// in\n    tag_476:\n        /* \"#utility.yul\":12197:12199   */\n      0x40\n        /* \"#utility.yul\":12192:12195   */\n      dup3\n        /* \"#utility.yul\":12188:12200   */\n      add\n        /* \"#utility.yul\":12181:12200   */\n      swap1\n      pop\n        /* \"#utility.yul\":11840:12206   */\n      swap2\n      swap1\n      pop\n      jump\t// out\n        /* \"#utility.yul\":12212:12578   */\n    tag_478:\n        /* \"#utility.yul\":12354:12357   */\n      0x00\n        /* \"#utility.yul\":12375:12442   */\n      tag_480\n        /* \"#utility.yul\":12439:12441   */\n      0x31\n        /* \"#utility.yul\":12434:12437   */\n      dup4\n        /* \"#utility.yul\":12375:12442   */\n      tag_404\n      jump\t// in\n    tag_480:\n        /* \"#utility.yul\":12368:12442   */\n      swap2\n      pop\n        /* \"#utility.yul\":12451:12544   */\n      tag_481\n        /* \"#utility.yul\":12540:12543   */\n      dup3\n        /* \"#utility.yul\":12451:12544   */\n      tag_482\n      jump\t// in\n    tag_481:\n        /* \"#utility.yul\":12569:12571   */\n      0x40\n        /* \"#utility.yul\":12564:12567   */\n      dup3\n        /* \"#utility.yul\":12560:12572   */\n      add\n        /* \"#utility.yul\":12553:12572   */\n      swap1\n      pop\n        /* \"#utility.yul\":12212:12578   */\n      swap2\n      swap1\n      pop\n      jump\t// out\n        /* \"#utility.yul\":12584:12702   */\n    tag_483:\n        /* \"#utility.yul\":12671:12695   */\n      tag_485\n        /* \"#utility.yul\":12689:12694   */\n      dup2\n        /* \"#utility.yul\":12671:12695   */\n      tag_486\n      jump\t// in\n    tag_485:\n        /* \"#utility.yul\":12666:12669   */\n      dup3\n        /* \"#utility.yul\":12659:12696   */\n      mstore\n        /* \"#utility.yul\":12584:12702   */\n      pop\n      pop\n      jump\t// out\n        /* \"#utility.yul\":12708:12820   */\n    tag_487:\n        /* \"#utility.yul\":12791:12813   */\n      tag_489\n        /* \"#utility.yul\":12807:12812   */\n      dup2\n        /* \"#utility.yul\":12791:12813   */\n      tag_490\n      jump\t// in\n    tag_489:\n        /* \"#utility.yul\":12786:12789   */\n      dup3\n        /* \"#utility.yul\":12779:12814   */\n      mstore\n        /* \"#utility.yul\":12708:12820   */\n      pop\n      pop\n      jump\t// out\n        /* \"#utility.yul\":12826:13261   */\n    tag_187:\n        /* \"#utility.yul\":13006:13009   */\n      0x00\n        /* \"#utility.yul\":13028:13123   */\n      tag_492\n        /* \"#utility.yul\":13119:13122   */\n      dup3\n        /* \"#utility.yul\":13110:13116   */\n      dup6\n        /* \"#utility.yul\":13028:13123   */\n      tag_407\n      jump\t// in\n    tag_492:\n        /* \"#utility.yul\":13021:13123   */\n      swap2\n      pop\n        /* \"#utility.yul\":13140:13235   */\n      tag_493\n        /* \"#utility.yul\":13231:13234   */\n      dup3\n        /* \"#utility.yul\":13222:13228   */\n      dup5\n        /* \"#utility.yul\":13140:13235   */\n      tag_407\n      jump\t// in\n    tag_493:\n        /* \"#utility.yul\":13133:13235   */\n      swap2\n      pop\n        /* \"#utility.yul\":13252:13255   */\n      dup2\n        /* \"#utility.yul\":13245:13255   */\n      swap1\n      pop\n        /* \"#utility.yul\":12826:13261   */\n      swap4\n      swap3\n      pop\n      pop\n      pop\n      jump\t// out\n        /* \"#utility.yul\":13267:13489   */\n    tag_39:\n        /* \"#utility.yul\":13360:13364   */\n      0x00\n        /* \"#utility.yul\":13398:13400   */\n      0x20\n        /* \"#utility.yul\":13387:13396   */\n      dup3\n        /* \"#utility.yul\":13383:13401   */\n      add\n        /* \"#utility.yul\":13375:13401   */\n      swap1\n      pop\n        /* \"#utility.yul\":13411:13482   */\n      tag_495\n        /* \"#utility.yul\":13479:13480   */\n      0x00\n        /* \"#utility.yul\":13468:13477   */\n      dup4\n        /* \"#utility.yul\":13464:13481   */\n      add\n        /* \"#utility.yul\":13455:13461   */\n      dup5\n        /* \"#utility.yul\":13411:13482   */\n      tag_381\n      jump\t// in\n    tag_495:\n        /* \"#utility.yul\":13267:13489   */\n      swap3\n      swap2\n      pop\n      pop\n      jump\t// out\n        /* \"#utility.yul\":13495:14151   */\n    tag_275:\n        /* \"#utility.yul\":13698:13702   */\n      0x00\n        /* \"#utility.yul\":13736:13739   */\n      0x80\n        /* \"#utility.yul\":13725:13734   */\n      dup3\n        /* \"#utility.yul\":13721:13740   */\n      add\n        /* \"#utility.yul\":13713:13740   */\n      swap1\n      pop\n        /* \"#utility.yul\":13750:13829   */\n      tag_497\n        /* \"#utility.yul\":13826:13827   */\n      0x00\n        /* \"#utility.yul\":13815:13824   */\n      dup4\n        /* \"#utility.yul\":13811:13828   */\n      add\n        /* \"#utility.yul\":13802:13808   */\n      dup8\n        /* \"#utility.yul\":13750:13829   */\n      tag_377\n      jump\t// in\n    tag_497:\n        /* \"#utility.yul\":13839:13911   */\n      tag_498\n        /* \"#utility.yul\":13907:13909   */\n      0x20\n        /* \"#utility.yul\":13896:13905   */\n      dup4\n        /* \"#utility.yul\":13892:13910   */\n      add\n        /* \"#utility.yul\":13883:13889   */\n      dup7\n        /* \"#utility.yul\":13839:13911   */\n      tag_381\n      jump\t// in\n    tag_498:\n        /* \"#utility.yul\":13921:13993   */\n      tag_499\n        /* \"#utility.yul\":13989:13991   */\n      0x40\n        /* \"#utility.yul\":13978:13987   */\n      dup4\n        /* \"#utility.yul\":13974:13992   */\n      add\n        /* \"#utility.yul\":13965:13971   */\n      dup6\n        /* \"#utility.yul\":13921:13993   */\n      tag_483\n      jump\t// in\n    tag_499:\n        /* \"#utility.yul\":14040:14049   */\n      dup2\n        /* \"#utility.yul\":14034:14038   */\n      dup2\n        /* \"#utility.yul\":14030:14050   */\n      sub\n        /* \"#utility.yul\":14025:14027   */\n      0x60\n        /* \"#utility.yul\":14014:14023   */\n      dup4\n        /* \"#utility.yul\":14010:14028   */\n      add\n        /* \"#utility.yul\":14003:14051   */\n      mstore\n        /* \"#utility.yul\":14068:14144   */\n      tag_500\n        /* \"#utility.yul\":14139:14143   */\n      dup2\n        /* \"#utility.yul\":14130:14136   */\n      dup5\n        /* \"#utility.yul\":14068:14144   */\n      tag_389\n      jump\t// in\n    tag_500:\n        /* \"#utility.yul\":14060:14144   */\n      swap1\n      pop\n        /* \"#utility.yul\":13495:14151   */\n      swap6\n      swap5\n      pop\n      pop\n      pop\n      pop\n      pop\n      jump\t// out\n        /* \"#utility.yul\":14157:14367   */\n    tag_29:\n        /* \"#utility.yul\":14244:14248   */\n      0x00\n        /* \"#utility.yul\":14282:14284   */\n      0x20\n        /* \"#utility.yul\":14271:14280   */\n      dup3\n        /* \"#utility.yul\":14267:14285   */\n      add\n        /* \"#utility.yul\":14259:14285   */\n      swap1\n      pop\n        /* \"#utility.yul\":14295:14360   */\n      tag_502\n        /* \"#utility.yul\":14357:14358   */\n      0x00\n        /* \"#utility.yul\":14346:14355   */\n      dup4\n        /* \"#utility.yul\":14342:14359   */\n      add\n        /* \"#utility.yul\":14333:14339   */\n      dup5\n        /* \"#utility.yul\":14295:14360   */\n      tag_385\n      jump\t// in\n    tag_502:\n        /* \"#utility.yul\":14157:14367   */\n      swap3\n      swap2\n      pop\n      pop\n      jump\t// out\n        /* \"#utility.yul\":14373:14686   */\n    tag_33:\n        /* \"#utility.yul\":14486:14490   */\n      0x00\n        /* \"#utility.yul\":14524:14526   */\n      0x20\n        /* \"#utility.yul\":14513:14522   */\n      dup3\n        /* \"#utility.yul\":14509:14527   */\n      add\n        /* \"#utility.yul\":14501:14527   */\n      swap1\n      pop\n        /* \"#utility.yul\":14573:14582   */\n      dup2\n        /* \"#utility.yul\":14567:14571   */\n      dup2\n        /* \"#utility.yul\":14563:14583   */\n      sub\n        /* \"#utility.yul\":14559:14560   */\n      0x00\n        /* \"#utility.yul\":14548:14557   */\n      dup4\n        /* \"#utility.yul\":14544:14561   */\n      add\n        /* \"#utility.yul\":14537:14584   */\n      mstore\n        /* \"#utility.yul\":14601:14679   */\n      tag_504\n        /* \"#utility.yul\":14674:14678   */\n      dup2\n        /* \"#utility.yul\":14665:14671   */\n      dup5\n        /* \"#utility.yul\":14601:14679   */\n      tag_399\n      jump\t// in\n    tag_504:\n        /* \"#utility.yul\":14593:14679   */\n      swap1\n      pop\n        /* \"#utility.yul\":14373:14686   */\n      swap3\n      swap2\n      pop\n      pop\n      jump\t// out\n        /* \"#utility.yul\":14692:15111   */\n    tag_239:\n        /* \"#utility.yul\":14858:14862   */\n      0x00\n        /* \"#utility.yul\":14896:14898   */\n      0x20\n        /* \"#utility.yul\":14885:14894   */\n      dup3\n        /* \"#utility.yul\":14881:14899   */\n      add\n        /* \"#utility.yul\":14873:14899   */\n      swap1\n      pop\n        /* \"#utility.yul\":14945:14954   */\n      dup2\n        /* \"#utility.yul\":14939:14943   */\n      dup2\n        /* \"#utility.yul\":14935:14955   */\n      sub\n        /* \"#utility.yul\":14931:14932   */\n      0x00\n        /* \"#utility.yul\":14920:14929   */\n      dup4\n        /* \"#utility.yul\":14916:14933   */\n      add\n        /* \"#utility.yul\":14909:14956   */\n      mstore\n        /* \"#utility.yul\":14973:15104   */\n      tag_506\n        /* \"#utility.yul\":15099:15103   */\n      dup2\n        /* \"#utility.yul\":14973:15104   */\n      tag_413\n      jump\t// in\n    tag_506:\n        /* \"#utility.yul\":14965:15104   */\n      swap1\n      pop\n        /* \"#utility.yul\":14692:15111   */\n      swap2\n      swap1\n      pop\n      jump\t// out\n        /* \"#utility.yul\":15117:15536   */\n    tag_266:\n        /* \"#utility.yul\":15283:15287   */\n      0x00\n        /* \"#utility.yul\":15321:15323   */\n      0x20\n        /* \"#utility.yul\":15310:15319   */\n      dup3\n        /* \"#utility.yul\":15306:15324   */\n      add\n        /* \"#utility.yul\":15298:15324   */\n      swap1\n      pop\n        /* \"#utility.yul\":15370:15379   */\n      dup2\n        /* \"#utility.yul\":15364:15368   */\n      dup2\n        /* \"#utility.yul\":15360:15380   */\n      sub\n        /* \"#utility.yul\":15356:15357   */\n      0x00\n        /* \"#utility.yul\":15345:15354   */\n      dup4\n        /* \"#utility.yul\":15341:15358   */\n      add\n        /* \"#utility.yul\":15334:15381   */\n      mstore\n        /* \"#utility.yul\":15398:15529   */\n      tag_508\n        /* \"#utility.yul\":15524:15528   */\n      dup2\n        /* \"#utility.yul\":15398:15529   */\n      tag_418\n      jump\t// in\n    tag_508:\n        /* \"#utility.yul\":15390:15529   */\n      swap1\n      pop\n        /* \"#utility.yul\":15117:15536   */\n      swap2\n      swap1\n      pop\n      jump\t// out\n        /* \"#utility.yul\":15542:15961   */\n    tag_215:\n        /* \"#utility.yul\":15708:15712   */\n      0x00\n        /* \"#utility.yul\":15746:15748   */\n      0x20\n        /* \"#utility.yul\":15735:15744   */\n      dup3\n        /* \"#utility.yul\":15731:15749   */\n      add\n        /* \"#utility.yul\":15723:15749   */\n      swap1\n      pop\n        /* \"#utility.yul\":15795:15804   */\n      dup2\n        /* \"#utility.yul\":15789:15793   */\n      dup2\n        /* \"#utility.yul\":15785:15805   */\n      sub\n        /* \"#utility.yul\":15781:15782   */\n      0x00\n        /* \"#utility.yul\":15770:15779   */\n      dup4\n        /* \"#utility.yul\":15766:15783   */\n      add\n        /* \"#utility.yul\":15759:15806   */\n      mstore\n        /* \"#utility.yul\":15823:15954   */\n      tag_510\n        /* \"#utility.yul\":15949:15953   */\n      dup2\n        /* \"#utility.yul\":15823:15954   */\n      tag_423\n      jump\t// in\n    tag_510:\n        /* \"#utility.yul\":15815:15954   */\n      swap1\n      pop\n        /* \"#utility.yul\":15542:15961   */\n      swap2\n      swap1\n      pop\n      jump\t// out\n        /* \"#utility.yul\":15967:16386   */\n    tag_218:\n        /* \"#utility.yul\":16133:16137   */\n      0x00\n        /* \"#utility.yul\":16171:16173   */\n      0x20\n        /* \"#utility.yul\":16160:16169   */\n      dup3\n        /* \"#utility.yul\":16156:16174   */\n      add\n        /* \"#utility.yul\":16148:16174   */\n      swap1\n      pop\n        /* \"#utility.yul\":16220:16229   */\n      dup2\n        /* \"#utility.yul\":16214:16218   */\n      dup2\n        /* \"#utility.yul\":16210:16230   */\n      sub\n        /* \"#utility.yul\":16206:16207   */\n      0x00\n        /* \"#utility.yul\":16195:16204   */\n      dup4\n        /* \"#utility.yul\":16191:16208   */\n      add\n        /* \"#utility.yul\":16184:16231   */\n      mstore\n        /* \"#utility.yul\":16248:16379   */\n      tag_512\n        /* \"#utility.yul\":16374:16378   */\n      dup2\n        /* \"#utility.yul\":16248:16379   */\n      tag_428\n      jump\t// in\n    tag_512:\n        /* \"#utility.yul\":16240:16379   */\n      swap1\n      pop\n        /* \"#utility.yul\":15967:16386   */\n      swap2\n      swap1\n      pop\n      jump\t// out\n        /* \"#utility.yul\":16392:16811   */\n    tag_231:\n        /* \"#utility.yul\":16558:16562   */\n      0x00\n        /* \"#utility.yul\":16596:16598   */\n      0x20\n        /* \"#utility.yul\":16585:16594   */\n      dup3\n        /* \"#utility.yul\":16581:16599   */\n      add\n        /* \"#utility.yul\":16573:16599   */\n      swap1\n      pop\n        /* \"#utility.yul\":16645:16654   */\n      dup2\n        /* \"#utility.yul\":16639:16643   */\n      dup2\n        /* \"#utility.yul\":16635:16655   */\n      sub\n        /* \"#utility.yul\":16631:16632   */\n      0x00\n        /* \"#utility.yul\":16620:16629   */\n      dup4\n        /* \"#utility.yul\":16616:16633   */\n      add\n        /* \"#utility.yul\":16609:16656   */\n      mstore\n        /* \"#utility.yul\":16673:16804   */\n      tag_514\n        /* \"#utility.yul\":16799:16803   */\n      dup2\n        /* \"#utility.yul\":16673:16804   */\n      tag_433\n      jump\t// in\n    tag_514:\n        /* \"#utility.yul\":16665:16804   */\n      swap1\n      pop\n        /* \"#utility.yul\":16392:16811   */\n      swap2\n      swap1\n      pop\n      jump\t// out\n        /* \"#utility.yul\":16817:17236   */\n    tag_205:\n        /* \"#utility.yul\":16983:16987   */\n      0x00\n        /* \"#utility.yul\":17021:17023   */\n      0x20\n        /* \"#utility.yul\":17010:17019   */\n      dup3\n        /* \"#utility.yul\":17006:17024   */\n      add\n        /* \"#utility.yul\":16998:17024   */\n      swap1\n      pop\n        /* \"#utility.yul\":17070:17079   */\n      dup2\n        /* \"#utility.yul\":17064:17068   */\n      dup2\n        /* \"#utility.yul\":17060:17080   */\n      sub\n        /* \"#utility.yul\":17056:17057   */\n      0x00\n        /* \"#utility.yul\":17045:17054   */\n      dup4\n        /* \"#utility.yul\":17041:17058   */\n      add\n        /* \"#utility.yul\":17034:17081   */\n      mstore\n        /* \"#utility.yul\":17098:17229   */\n      tag_516\n        /* \"#utility.yul\":17224:17228   */\n      dup2\n        /* \"#utility.yul\":17098:17229   */\n      tag_438\n      jump\t// in\n    tag_516:\n        /* \"#utility.yul\":17090:17229   */\n      swap1\n      pop\n        /* \"#utility.yul\":16817:17236   */\n      swap2\n      swap1\n      pop\n      jump\t// out\n        /* \"#utility.yul\":17242:17661   */\n    tag_126:\n        /* \"#utility.yul\":17408:17412   */\n      0x00\n        /* \"#utility.yul\":17446:17448   */\n      0x20\n        /* \"#utility.yul\":17435:17444   */\n      dup3\n        /* \"#utility.yul\":17431:17449   */\n      add\n        /* \"#utility.yul\":17423:17449   */\n      swap1\n      pop\n        /* \"#utility.yul\":17495:17504   */\n      dup2\n        /* \"#utility.yul\":17489:17493   */\n      dup2\n        /* \"#utility.yul\":17485:17505   */\n      sub\n        /* \"#utility.yul\":17481:17482   */\n      0x00\n        /* \"#utility.yul\":17470:17479   */\n      dup4\n        /* \"#utility.yul\":17466:17483   */\n      add\n        /* \"#utility.yul\":17459:17506   */\n      mstore\n        /* \"#utility.yul\":17523:17654   */\n      tag_518\n        /* \"#utility.yul\":17649:17653   */\n      dup2\n        /* \"#utility.yul\":17523:17654   */\n      tag_443\n      jump\t// in\n    tag_518:\n        /* \"#utility.yul\":17515:17654   */\n      swap1\n      pop\n        /* \"#utility.yul\":17242:17661   */\n      swap2\n      swap1\n      pop\n      jump\t// out\n        /* \"#utility.yul\":17667:18086   */\n    tag_148:\n        /* \"#utility.yul\":17833:17837   */\n      0x00\n        /* \"#utility.yul\":17871:17873   */\n      0x20\n        /* \"#utility.yul\":17860:17869   */\n      dup3\n        /* \"#utility.yul\":17856:17874   */\n      add\n        /* \"#utility.yul\":17848:17874   */\n      swap1\n      pop\n        /* \"#utility.yul\":17920:17929   */\n      dup2\n        /* \"#utility.yul\":17914:17918   */\n      dup2\n        /* \"#utility.yul\":17910:17930   */\n      sub\n        /* \"#utility.yul\":17906:17907   */\n      0x00\n        /* \"#utility.yul\":17895:17904   */\n      dup4\n        /* \"#utility.yul\":17891:17908   */\n      add\n        /* \"#utility.yul\":17884:17931   */\n      mstore\n        /* \"#utility.yul\":17948:18079   */\n      tag_520\n        /* \"#utility.yul\":18074:18078   */\n      dup2\n        /* \"#utility.yul\":17948:18079   */\n      tag_448\n      jump\t// in\n    tag_520:\n        /* \"#utility.yul\":17940:18079   */\n      swap1\n      pop\n        /* \"#utility.yul\":17667:18086   */\n      swap2\n      swap1\n      pop\n      jump\t// out\n        /* \"#utility.yul\":18092:18511   */\n    tag_144:\n        /* \"#utility.yul\":18258:18262   */\n      0x00\n        /* \"#utility.yul\":18296:18298   */\n      0x20\n        /* \"#utility.yul\":18285:18294   */\n      dup3\n        /* \"#utility.yul\":18281:18299   */\n      add\n        /* \"#utility.yul\":18273:18299   */\n      swap1\n      pop\n        /* \"#utility.yul\":18345:18354   */\n      dup2\n        /* \"#utility.yul\":18339:18343   */\n      dup2\n        /* \"#utility.yul\":18335:18355   */\n      sub\n        /* \"#utility.yul\":18331:18332   */\n      0x00\n        /* \"#utility.yul\":18320:18329   */\n      dup4\n        /* \"#utility.yul\":18316:18333   */\n      add\n        /* \"#utility.yul\":18309:18356   */\n      mstore\n        /* \"#utility.yul\":18373:18504   */\n      tag_522\n        /* \"#utility.yul\":18499:18503   */\n      dup2\n        /* \"#utility.yul\":18373:18504   */\n      tag_453\n      jump\t// in\n    tag_522:\n        /* \"#utility.yul\":18365:18504   */\n      swap1\n      pop\n        /* \"#utility.yul\":18092:18511   */\n      swap2\n      swap1\n      pop\n      jump\t// out\n        /* \"#utility.yul\":18517:18936   */\n    tag_113:\n        /* \"#utility.yul\":18683:18687   */\n      0x00\n        /* \"#utility.yul\":18721:18723   */\n      0x20\n        /* \"#utility.yul\":18710:18719   */\n      dup3\n        /* \"#utility.yul\":18706:18724   */\n      add\n        /* \"#utility.yul\":18698:18724   */\n      swap1\n      pop\n        /* \"#utility.yul\":18770:18779   */\n      dup2\n        /* \"#utility.yul\":18764:18768   */\n      dup2\n        /* \"#utility.yul\":18760:18780   */\n      sub\n        /* \"#utility.yul\":18756:18757   */\n      0x00\n        /* \"#utility.yul\":18745:18754   */\n      dup4\n        /* \"#utility.yul\":18741:18758   */\n      add\n        /* \"#utility.yul\":18734:18781   */\n      mstore\n        /* \"#utility.yul\":18798:18929   */\n      tag_524\n        /* \"#utility.yul\":18924:18928   */\n      dup2\n        /* \"#utility.yul\":18798:18929   */\n      tag_458\n      jump\t// in\n    tag_524:\n        /* \"#utility.yul\":18790:18929   */\n      swap1\n      pop\n        /* \"#utility.yul\":18517:18936   */\n      swap2\n      swap1\n      pop\n      jump\t// out\n        /* \"#utility.yul\":18942:19361   */\n    tag_153:\n        /* \"#utility.yul\":19108:19112   */\n      0x00\n        /* \"#utility.yul\":19146:19148   */\n      0x20\n        /* \"#utility.yul\":19135:19144   */\n      dup3\n        /* \"#utility.yul\":19131:19149   */\n      add\n        /* \"#utility.yul\":19123:19149   */\n      swap1\n      pop\n        /* \"#utility.yul\":19195:19204   */\n      dup2\n        /* \"#utility.yul\":19189:19193   */\n      dup2\n        /* \"#utility.yul\":19185:19205   */\n      sub\n        /* \"#utility.yul\":19181:19182   */\n      0x00\n        /* \"#utility.yul\":19170:19179   */\n      dup4\n        /* \"#utility.yul\":19166:19183   */\n      add\n        /* \"#utility.yul\":19159:19206   */\n      mstore\n        /* \"#utility.yul\":19223:19354   */\n      tag_526\n        /* \"#utility.yul\":19349:19353   */\n      dup2\n        /* \"#utility.yul\":19223:19354   */\n      tag_463\n      jump\t// in\n    tag_526:\n        /* \"#utility.yul\":19215:19354   */\n      swap1\n      pop\n        /* \"#utility.yul\":18942:19361   */\n      swap2\n      swap1\n      pop\n      jump\t// out\n        /* \"#utility.yul\":19367:19786   */\n    tag_179:\n        /* \"#utility.yul\":19533:19537   */\n      0x00\n        /* \"#utility.yul\":19571:19573   */\n      0x20\n        /* \"#utility.yul\":19560:19569   */\n      dup3\n        /* \"#utility.yul\":19556:19574   */\n      add\n        /* \"#utility.yul\":19548:19574   */\n      swap1\n      pop\n        /* \"#utility.yul\":19620:19629   */\n      dup2\n        /* \"#utility.yul\":19614:19618   */\n      dup2\n        /* \"#utility.yul\":19610:19630   */\n      sub\n        /* \"#utility.yul\":19606:19607   */\n      0x00\n        /* \"#utility.yul\":19595:19604   */\n      dup4\n        /* \"#utility.yul\":19591:19608   */\n      add\n        /* \"#utility.yul\":19584:19631   */\n      mstore\n        /* \"#utility.yul\":19648:19779   */\n      tag_528\n        /* \"#utility.yul\":19774:19778   */\n      dup2\n        /* \"#utility.yul\":19648:19779   */\n      tag_468\n      jump\t// in\n    tag_528:\n        /* \"#utility.yul\":19640:19779   */\n      swap1\n      pop\n        /* \"#utility.yul\":19367:19786   */\n      swap2\n      swap1\n      pop\n      jump\t// out\n        /* \"#utility.yul\":19792:20211   */\n    tag_118:\n        /* \"#utility.yul\":19958:19962   */\n      0x00\n        /* \"#utility.yul\":19996:19998   */\n      0x20\n        /* \"#utility.yul\":19985:19994   */\n      dup3\n        /* \"#utility.yul\":19981:19999   */\n      add\n        /* \"#utility.yul\":19973:19999   */\n      swap1\n      pop\n        /* \"#utility.yul\":20045:20054   */\n      dup2\n        /* \"#utility.yul\":20039:20043   */\n      dup2\n        /* \"#utility.yul\":20035:20055   */\n      sub\n        /* \"#utility.yul\":20031:20032   */\n      0x00\n        /* \"#utility.yul\":20020:20029   */\n      dup4\n        /* \"#utility.yul\":20016:20033   */\n      add\n        /* \"#utility.yul\":20009:20056   */\n      mstore\n        /* \"#utility.yul\":20073:20204   */\n      tag_530\n        /* \"#utility.yul\":20199:20203   */\n      dup2\n        /* \"#utility.yul\":20073:20204   */\n      tag_473\n      jump\t// in\n    tag_530:\n        /* \"#utility.yul\":20065:20204   */\n      swap1\n      pop\n        /* \"#utility.yul\":19792:20211   */\n      swap2\n      swap1\n      pop\n      jump\t// out\n        /* \"#utility.yul\":20217:20636   */\n    tag_135:\n        /* \"#utility.yul\":20383:20387   */\n      0x00\n        /* \"#utility.yul\":20421:20423   */\n      0x20\n        /* \"#utility.yul\":20410:20419   */\n      dup3\n        /* \"#utility.yul\":20406:20424   */\n      add\n        /* \"#utility.yul\":20398:20424   */\n      swap1\n      pop\n        /* \"#utility.yul\":20470:20479   */\n      dup2\n        /* \"#utility.yul\":20464:20468   */\n      dup2\n        /* \"#utility.yul\":20460:20480   */\n      sub\n        /* \"#utility.yul\":20456:20457   */\n      0x00\n        /* \"#utility.yul\":20445:20454   */\n      dup4\n        /* \"#utility.yul\":20441:20458   */\n      add\n        /* \"#utility.yul\":20434:20481   */\n      mstore\n        /* \"#utility.yul\":20498:20629   */\n      tag_532\n        /* \"#utility.yul\":20624:20628   */\n      dup2\n        /* \"#utility.yul\":20498:20629   */\n      tag_478\n      jump\t// in\n    tag_532:\n        /* \"#utility.yul\":20490:20629   */\n      swap1\n      pop\n        /* \"#utility.yul\":20217:20636   */\n      swap2\n      swap1\n      pop\n      jump\t// out\n        /* \"#utility.yul\":20642:20864   */\n    tag_64:\n        /* \"#utility.yul\":20735:20739   */\n      0x00\n        /* \"#utility.yul\":20773:20775   */\n      0x20\n        /* \"#utility.yul\":20762:20771   */\n      dup3\n        /* \"#utility.yul\":20758:20776   */\n      add\n        /* \"#utility.yul\":20750:20776   */\n      swap1\n      pop\n        /* \"#utility.yul\":20786:20857   */\n      tag_534\n        /* \"#utility.yul\":20854:20855   */\n      0x00\n        /* \"#utility.yul\":20843:20852   */\n      dup4\n        /* \"#utility.yul\":20839:20856   */\n      add\n        /* \"#utility.yul\":20830:20836   */\n      dup5\n        /* \"#utility.yul\":20786:20857   */\n      tag_483\n      jump\t// in\n    tag_534:\n        /* \"#utility.yul\":20642:20864   */\n      swap3\n      swap2\n      pop\n      pop\n      jump\t// out\n        /* \"#utility.yul\":20870:21084   */\n    tag_51:\n        /* \"#utility.yul\":20959:20963   */\n      0x00\n        /* \"#utility.yul\":20997:20999   */\n      0x20\n        /* \"#utility.yul\":20986:20995   */\n      dup3\n        /* \"#utility.yul\":20982:21000   */\n      add\n        /* \"#utility.yul\":20974:21000   */\n      swap1\n      pop\n        /* \"#utility.yul\":21010:21077   */\n      tag_536\n        /* \"#utility.yul\":21074:21075   */\n      0x00\n        /* \"#utility.yul\":21063:21072   */\n      dup4\n        /* \"#utility.yul\":21059:21076   */\n      add\n        /* \"#utility.yul\":21050:21056   */\n      dup5\n        /* \"#utility.yul\":21010:21077   */\n      tag_487\n      jump\t// in\n    tag_536:\n        /* \"#utility.yul\":20870:21084   */\n      swap3\n      swap2\n      pop\n      pop\n      jump\t// out\n        /* \"#utility.yul\":21090:21219   */\n    tag_298:\n        /* \"#utility.yul\":21124:21130   */\n      0x00\n        /* \"#utility.yul\":21151:21171   */\n      tag_538\n      tag_539\n      jump\t// in\n    tag_538:\n        /* \"#utility.yul\":21141:21171   */\n      swap1\n      pop\n        /* \"#utility.yul\":21180:21213   */\n      tag_540\n        /* \"#utility.yul\":21208:21212   */\n      dup3\n        /* \"#utility.yul\":21200:21206   */\n      dup3\n        /* \"#utility.yul\":21180:21213   */\n      tag_541\n      jump\t// in\n    tag_540:\n        /* \"#utility.yul\":21090:21219   */\n      swap2\n      swap1\n      pop\n      jump\t// out\n        /* \"#utility.yul\":21225:21300   */\n    tag_539:\n        /* \"#utility.yul\":21258:21264   */\n      0x00\n        /* \"#utility.yul\":21291:21293   */\n      0x40\n        /* \"#utility.yul\":21285:21294   */\n      mload\n        /* \"#utility.yul\":21275:21294   */\n      swap1\n      pop\n        /* \"#utility.yul\":21225:21300   */\n      swap1\n      jump\t// out\n        /* \"#utility.yul\":21306:21613   */\n    tag_297:\n        /* \"#utility.yul\":21367:21371   */\n      0x00\n        /* \"#utility.yul\":21457:21475   */\n      0xffffffffffffffff\n        /* \"#utility.yul\":21449:21455   */\n      dup3\n        /* \"#utility.yul\":21446:21476   */\n      gt\n        /* \"#utility.yul\":21443:21499   */\n      iszero\n      tag_544\n      jumpi\n        /* \"#utility.yul\":21479:21497   */\n      tag_545\n      tag_251\n      jump\t// in\n    tag_545:\n        /* \"#utility.yul\":21443:21499   */\n    tag_544:\n        /* \"#utility.yul\":21517:21546   */\n      tag_546\n        /* \"#utility.yul\":21539:21545   */\n      dup3\n        /* \"#utility.yul\":21517:21546   */\n      tag_398\n      jump\t// in\n    tag_546:\n        /* \"#utility.yul\":21509:21546   */\n      swap1\n      pop\n        /* \"#utility.yul\":21601:21605   */\n      0x20\n        /* \"#utility.yul\":21595:21599   */\n      dup2\n        /* \"#utility.yul\":21591:21606   */\n      add\n        /* \"#utility.yul\":21583:21606   */\n      swap1\n      pop\n        /* \"#utility.yul\":21306:21613   */\n      swap2\n      swap1\n      pop\n      jump\t// out\n        /* \"#utility.yul\":21619:21717   */\n    tag_392:\n        /* \"#utility.yul\":21670:21676   */\n      0x00\n        /* \"#utility.yul\":21704:21709   */\n      dup2\n        /* \"#utility.yul\":21698:21710   */\n      mload\n        /* \"#utility.yul\":21688:21710   */\n      swap1\n      pop\n        /* \"#utility.yul\":21619:21717   */\n      swap2\n      swap1\n      pop\n      jump\t// out\n        /* \"#utility.yul\":21723:21822   */\n    tag_402:\n        /* \"#utility.yul\":21775:21781   */\n      0x00\n        /* \"#utility.yul\":21809:21814   */\n      dup2\n        /* \"#utility.yul\":21803:21815   */\n      mload\n        /* \"#utility.yul\":21793:21815   */\n      swap1\n      pop\n        /* \"#utility.yul\":21723:21822   */\n      swap2\n      swap1\n      pop\n      jump\t// out\n        /* \"#utility.yul\":21828:21996   */\n    tag_394:\n        /* \"#utility.yul\":21911:21922   */\n      0x00\n        /* \"#utility.yul\":21945:21951   */\n      dup3\n        /* \"#utility.yul\":21940:21943   */\n      dup3\n        /* \"#utility.yul\":21933:21952   */\n      mstore\n        /* \"#utility.yul\":21985:21989   */\n      0x20\n        /* \"#utility.yul\":21980:21983   */\n      dup3\n        /* \"#utility.yul\":21976:21990   */\n      add\n        /* \"#utility.yul\":21961:21990   */\n      swap1\n      pop\n        /* \"#utility.yul\":21828:21996   */\n      swap3\n      swap2\n      pop\n      pop\n      jump\t// out\n        /* \"#utility.yul\":22002:22171   */\n    tag_404:\n        /* \"#utility.yul\":22086:22097   */\n      0x00\n        /* \"#utility.yul\":22120:22126   */\n      dup3\n        /* \"#utility.yul\":22115:22118   */\n      dup3\n        /* \"#utility.yul\":22108:22127   */\n      mstore\n        /* \"#utility.yul\":22160:22164   */\n      0x20\n        /* \"#utility.yul\":22155:22158   */\n      dup3\n        /* \"#utility.yul\":22151:22165   */\n      add\n        /* \"#utility.yul\":22136:22165   */\n      swap1\n      pop\n        /* \"#utility.yul\":22002:22171   */\n      swap3\n      swap2\n      pop\n      pop\n      jump\t// out\n        /* \"#utility.yul\":22177:22325   */\n    tag_411:\n        /* \"#utility.yul\":22279:22290   */\n      0x00\n        /* \"#utility.yul\":22316:22319   */\n      dup2\n        /* \"#utility.yul\":22301:22319   */\n      swap1\n      pop\n        /* \"#utility.yul\":22177:22325   */\n      swap3\n      swap2\n      pop\n      pop\n      jump\t// out\n        /* \"#utility.yul\":22331:22636   */\n    tag_225:\n        /* \"#utility.yul\":22371:22374   */\n      0x00\n        /* \"#utility.yul\":22390:22410   */\n      tag_553\n        /* \"#utility.yul\":22408:22409   */\n      dup3\n        /* \"#utility.yul\":22390:22410   */\n      tag_486\n      jump\t// in\n    tag_553:\n        /* \"#utility.yul\":22385:22410   */\n      swap2\n      pop\n        /* \"#utility.yul\":22424:22444   */\n      tag_554\n        /* \"#utility.yul\":22442:22443   */\n      dup4\n        /* \"#utility.yul\":22424:22444   */\n      tag_486\n      jump\t// in\n    tag_554:\n        /* \"#utility.yul\":22419:22444   */\n      swap3\n      pop\n        /* \"#utility.yul\":22578:22579   */\n      dup3\n        /* \"#utility.yul\":22510:22576   */\n      0xffffffffffffffffffffffffffffffffffffffffffffffffffffffffffffffff\n        /* \"#utility.yul\":22506:22580   */\n      sub\n        /* \"#utility.yul\":22503:22504   */\n      dup3\n        /* \"#utility.yul\":22500:22581   */\n      gt\n        /* \"#utility.yul\":22497:22604   */\n      iszero\n      tag_555\n      jumpi\n        /* \"#utility.yul\":22584:22602   */\n      tag_556\n      tag_557\n      jump\t// in\n    tag_556:\n        /* \"#utility.yul\":22497:22604   */\n    tag_555:\n        /* \"#utility.yul\":22628:22629   */\n      dup3\n        /* \"#utility.yul\":22625:22626   */\n      dup3\n        /* \"#utility.yul\":22621:22630   */\n      add\n        /* \"#utility.yul\":22614:22630   */\n      swap1\n      pop\n        /* \"#utility.yul\":22331:22636   */\n      swap3\n      swap2\n      pop\n      pop\n      jump\t// out\n        /* \"#utility.yul\":22642:22827   */\n    tag_248:\n        /* \"#utility.yul\":22682:22683   */\n      0x00\n        /* \"#utility.yul\":22699:22719   */\n      tag_559\n        /* \"#utility.yul\":22717:22718   */\n      dup3\n        /* \"#utility.yul\":22699:22719   */\n      tag_486\n      jump\t// in\n    tag_559:\n        /* \"#utility.yul\":22694:22719   */\n      swap2\n      pop\n        /* \"#utility.yul\":22733:22753   */\n      tag_560\n        /* \"#utility.yul\":22751:22752   */\n      dup4\n        /* \"#utility.yul\":22733:22753   */\n      tag_486\n      jump\t// in\n    tag_560:\n        /* \"#utility.yul\":22728:22753   */\n      swap3\n      pop\n        /* \"#utility.yul\":22772:22773   */\n      dup3\n        /* \"#utility.yul\":22762:22797   */\n      tag_561\n      jumpi\n        /* \"#utility.yul\":22777:22795   */\n      tag_562\n      tag_563\n      jump\t// in\n    tag_562:\n        /* \"#utility.yul\":22762:22797   */\n    tag_561:\n        /* \"#utility.yul\":22819:22820   */\n      dup3\n        /* \"#utility.yul\":22816:22817   */\n      dup3\n        /* \"#utility.yul\":22812:22821   */\n      div\n        /* \"#utility.yul\":22807:22821   */\n      swap1\n      pop\n        /* \"#utility.yul\":22642:22827   */\n      swap3\n      swap2\n      pop\n      pop\n      jump\t// out\n        /* \"#utility.yul\":22833:23024   */\n    tag_223:\n        /* \"#utility.yul\":22873:22877   */\n      0x00\n        /* \"#utility.yul\":22893:22913   */\n      tag_565\n        /* \"#utility.yul\":22911:22912   */\n      dup3\n        /* \"#utility.yul\":22893:22913   */\n      tag_486\n      jump\t// in\n    tag_565:\n        /* \"#utility.yul\":22888:22913   */\n      swap2\n      pop\n        /* \"#utility.yul\":22927:22947   */\n      tag_566\n        /* \"#utility.yul\":22945:22946   */\n      dup4\n        /* \"#utility.yul\":22927:22947   */\n      tag_486\n      jump\t// in\n    tag_566:\n        /* \"#utility.yul\":22922:22947   */\n      swap3\n      pop\n        /* \"#utility.yul\":22966:22967   */\n      dup3\n        /* \"#utility.yul\":22963:22964   */\n      dup3\n        /* \"#utility.yul\":22960:22968   */\n      lt\n        /* \"#utility.yul\":22957:22991   */\n      iszero\n      tag_567\n      jumpi\n        /* \"#utility.yul\":22971:22989   */\n      tag_568\n      tag_557\n      jump\t// in\n    tag_568:\n        /* \"#utility.yul\":22957:22991   */\n    tag_567:\n        /* \"#utility.yul\":23016:23017   */\n      dup3\n        /* \"#utility.yul\":23013:23014   */\n      dup3\n        /* \"#utility.yul\":23009:23018   */\n      sub\n        /* \"#utility.yul\":23001:23018   */\n      swap1\n      pop\n        /* \"#utility.yul\":22833:23024   */\n      swap3\n      swap2\n      pop\n      pop\n      jump\t// out\n        /* \"#utility.yul\":23030:23126   */\n    tag_384:\n        /* \"#utility.yul\":23067:23074   */\n      0x00\n        /* \"#utility.yul\":23096:23120   */\n      tag_570\n        /* \"#utility.yul\":23114:23119   */\n      dup3\n        /* \"#utility.yul\":23096:23120   */\n      tag_571\n      jump\t// in\n    tag_570:\n        /* \"#utility.yul\":23085:23120   */\n      swap1\n      pop\n        /* \"#utility.yul\":23030:23126   */\n      swap2\n      swap1\n      pop\n      jump\t// out\n        /* \"#utility.yul\":23132:23222   */\n    tag_388:\n        /* \"#utility.yul\":23166:23173   */\n      0x00\n        /* \"#utility.yul\":23209:23214   */\n      dup2\n        /* \"#utility.yul\":23202:23215   */\n      iszero\n        /* \"#utility.yul\":23195:23216   */\n      iszero\n        /* \"#utility.yul\":23184:23216   */\n      swap1\n      pop\n        /* \"#utility.yul\":23132:23222   */\n      swap2\n      swap1\n      pop\n      jump\t// out\n        /* \"#utility.yul\":23228:23377   */\n    tag_573:\n        /* \"#utility.yul\":23264:23271   */\n      0x00\n        /* \"#utility.yul\":23304:23370   */\n      0xffffffff00000000000000000000000000000000000000000000000000000000\n        /* \"#utility.yul\":23297:23302   */\n      dup3\n        /* \"#utility.yul\":23293:23371   */\n      and\n        /* \"#utility.yul\":23282:23371   */\n      swap1\n      pop\n        /* \"#utility.yul\":23228:23377   */\n      swap2\n      swap1\n      pop\n      jump\t// out\n        /* \"#utility.yul\":23383:23509   */\n    tag_571:\n        /* \"#utility.yul\":23420:23427   */\n      0x00\n        /* \"#utility.yul\":23460:23502   */\n      0xffffffffffffffffffffffffffffffffffffffff\n        /* \"#utility.yul\":23453:23458   */\n      dup3\n        /* \"#utility.yul\":23449:23503   */\n      and\n        /* \"#utility.yul\":23438:23503   */\n      swap1\n      pop\n        /* \"#utility.yul\":23383:23509   */\n      swap2\n      swap1\n      pop\n      jump\t// out\n        /* \"#utility.yul\":23515:23592   */\n    tag_486:\n        /* \"#utility.yul\":23552:23559   */\n      0x00\n        /* \"#utility.yul\":23581:23586   */\n      dup2\n        /* \"#utility.yul\":23570:23586   */\n      swap1\n      pop\n        /* \"#utility.yul\":23515:23592   */\n      swap2\n      swap1\n      pop\n      jump\t// out\n        /* \"#utility.yul\":23598:23684   */\n    tag_490:\n        /* \"#utility.yul\":23633:23640   */\n      0x00\n        /* \"#utility.yul\":23673:23677   */\n      0xff\n        /* \"#utility.yul\":23666:23671   */\n      dup3\n        /* \"#utility.yul\":23662:23678   */\n      and\n        /* \"#utility.yul\":23651:23678   */\n      swap1\n      pop\n        /* \"#utility.yul\":23598:23684   */\n      swap2\n      swap1\n      pop\n      jump\t// out\n        /* \"#utility.yul\":23690:23824   */\n    tag_380:\n        /* \"#utility.yul\":23748:23757   */\n      0x00\n        /* \"#utility.yul\":23781:23818   */\n      tag_579\n        /* \"#utility.yul\":23812:23817   */\n      dup3\n        /* \"#utility.yul\":23781:23818   */\n      tag_580\n      jump\t// in\n    tag_579:\n        /* \"#utility.yul\":23768:23818   */\n      swap1\n      pop\n        /* \"#utility.yul\":23690:23824   */\n      swap2\n      swap1\n      pop\n      jump\t// out\n        /* \"#utility.yul\":23830:23956   */\n    tag_580:\n        /* \"#utility.yul\":23880:23889   */\n      0x00\n        /* \"#utility.yul\":23913:23950   */\n      tag_582\n        /* \"#utility.yul\":23944:23949   */\n      dup3\n        /* \"#utility.yul\":23913:23950   */\n      tag_583\n      jump\t// in\n    tag_582:\n        /* \"#utility.yul\":23900:23950   */\n      swap1\n      pop\n        /* \"#utility.yul\":23830:23956   */\n      swap2\n      swap1\n      pop\n      jump\t// out\n        /* \"#utility.yul\":23962:24075   */\n    tag_583:\n        /* \"#utility.yul\":24012:24021   */\n      0x00\n        /* \"#utility.yul\":24045:24069   */\n      tag_585\n        /* \"#utility.yul\":24063:24068   */\n      dup3\n        /* \"#utility.yul\":24045:24069   */\n      tag_571\n      jump\t// in\n    tag_585:\n        /* \"#utility.yul\":24032:24069   */\n      swap1\n      pop\n        /* \"#utility.yul\":23962:24075   */\n      swap2\n      swap1\n      pop\n      jump\t// out\n        /* \"#utility.yul\":24081:24235   */\n    tag_303:\n        /* \"#utility.yul\":24165:24171   */\n      dup3\n        /* \"#utility.yul\":24160:24163   */\n      dup2\n        /* \"#utility.yul\":24155:24158   */\n      dup4\n        /* \"#utility.yul\":24142:24172   */\n      calldatacopy\n        /* \"#utility.yul\":24227:24228   */\n      0x00\n        /* \"#utility.yul\":24218:24224   */\n      dup4\n        /* \"#utility.yul\":24213:24216   */\n      dup4\n        /* \"#utility.yul\":24209:24225   */\n      add\n        /* \"#utility.yul\":24202:24229   */\n      mstore\n        /* \"#utility.yul\":24081:24235   */\n      pop\n      pop\n      pop\n      jump\t// out\n        /* \"#utility.yul\":24241:24548   */\n    tag_396:\n        /* \"#utility.yul\":24309:24310   */\n      0x00\n        /* \"#utility.yul\":24319:24432   */\n    tag_588:\n        /* \"#utility.yul\":24333:24339   */\n      dup4\n        /* \"#utility.yul\":24330:24331   */\n      dup2\n        /* \"#utility.yul\":24327:24340   */\n      lt\n        /* \"#utility.yul\":24319:24432   */\n      iszero\n      tag_590\n      jumpi\n        /* \"#utility.yul\":24418:24419   */\n      dup1\n        /* \"#utility.yul\":24413:24416   */\n      dup3\n        /* \"#utility.yul\":24409:24420   */\n      add\n        /* \"#utility.yul\":24403:24421   */\n      mload\n        /* \"#utility.yul\":24399:24400   */\n      dup2\n        /* \"#utility.yul\":24394:24397   */\n      dup5\n        /* \"#utility.yul\":24390:24401   */\n      add\n        /* \"#utility.yul\":24383:24422   */\n      mstore\n        /* \"#utility.yul\":24355:24357   */\n      0x20\n        /* \"#utility.yul\":24352:24353   */\n      dup2\n        /* \"#utility.yul\":24348:24358   */\n      add\n        /* \"#utility.yul\":24343:24358   */\n      swap1\n      pop\n        /* \"#utility.yul\":24319:24432   */\n      jump(tag_588)\n    tag_590:\n        /* \"#utility.yul\":24450:24456   */\n      dup4\n        /* \"#utility.yul\":24447:24448   */\n      dup2\n        /* \"#utility.yul\":24444:24457   */\n      gt\n        /* \"#utility.yul\":24441:24542   */\n      iszero\n      tag_591\n      jumpi\n        /* \"#utility.yul\":24530:24531   */\n      0x00\n        /* \"#utility.yul\":24521:24527   */\n      dup5\n        /* \"#utility.yul\":24516:24519   */\n      dup5\n        /* \"#utility.yul\":24512:24528   */\n      add\n        /* \"#utility.yul\":24505:24532   */\n      mstore\n        /* \"#utility.yul\":24441:24542   */\n    tag_591:\n        /* \"#utility.yul\":24290:24548   */\n      pop\n        /* \"#utility.yul\":24241:24548   */\n      pop\n      pop\n      pop\n      jump\t// out\n        /* \"#utility.yul\":24554:24874   */\n    tag_103:\n        /* \"#utility.yul\":24598:24604   */\n      0x00\n        /* \"#utility.yul\":24635:24636   */\n      0x02\n        /* \"#utility.yul\":24629:24633   */\n      dup3\n        /* \"#utility.yul\":24625:24637   */\n      div\n        /* \"#utility.yul\":24615:24637   */\n      swap1\n      pop\n        /* \"#utility.yul\":24682:24683   */\n      0x01\n        /* \"#utility.yul\":24676:24680   */\n      dup3\n        /* \"#utility.yul\":24672:24684   */\n      and\n        /* \"#utility.yul\":24703:24721   */\n      dup1\n        /* \"#utility.yul\":24693:24774   */\n      tag_593\n      jumpi\n        /* \"#utility.yul\":24759:24763   */\n      0x7f\n        /* \"#utility.yul\":24751:24757   */\n      dup3\n        /* \"#utility.yul\":24747:24764   */\n      and\n        /* \"#utility.yul\":24737:24764   */\n      swap2\n      pop\n        /* \"#utility.yul\":24693:24774   */\n    tag_593:\n        /* \"#utility.yul\":24821:24823   */\n      0x20\n        /* \"#utility.yul\":24813:24819   */\n      dup3\n        /* \"#utility.yul\":24810:24824   */\n      lt\n        /* \"#utility.yul\":24790:24808   */\n      dup2\n        /* \"#utility.yul\":24787:24825   */\n      eq\n        /* \"#utility.yul\":24784:24868   */\n      iszero\n      tag_594\n      jumpi\n        /* \"#utility.yul\":24840:24858   */\n      tag_595\n      tag_596\n      jump\t// in\n    tag_595:\n        /* \"#utility.yul\":24784:24868   */\n    tag_594:\n        /* \"#utility.yul\":24605:24874   */\n      pop\n        /* \"#utility.yul\":24554:24874   */\n      swap2\n      swap1\n      pop\n      jump\t// out\n        /* \"#utility.yul\":24880:25161   */\n    tag_541:\n        /* \"#utility.yul\":24963:24990   */\n      tag_598\n        /* \"#utility.yul\":24985:24989   */\n      dup3\n        /* \"#utility.yul\":24963:24990   */\n      tag_398\n      jump\t// in\n    tag_598:\n        /* \"#utility.yul\":24955:24961   */\n      dup2\n        /* \"#utility.yul\":24951:24991   */\n      add\n        /* \"#utility.yul\":25093:25099   */\n      dup2\n        /* \"#utility.yul\":25081:25091   */\n      dup2\n        /* \"#utility.yul\":25078:25100   */\n      lt\n        /* \"#utility.yul\":25057:25075   */\n      0xffffffffffffffff\n        /* \"#utility.yul\":25045:25055   */\n      dup3\n        /* \"#utility.yul\":25042:25076   */\n      gt\n        /* \"#utility.yul\":25039:25101   */\n      or\n        /* \"#utility.yul\":25036:25124   */\n      iszero\n      tag_599\n      jumpi\n        /* \"#utility.yul\":25104:25122   */\n      tag_600\n      tag_251\n      jump\t// in\n    tag_600:\n        /* \"#utility.yul\":25036:25124   */\n    tag_599:\n        /* \"#utility.yul\":25144:25154   */\n      dup1\n        /* \"#utility.yul\":25140:25142   */\n      0x40\n        /* \"#utility.yul\":25133:25155   */\n      mstore\n        /* \"#utility.yul\":24923:25161   */\n      pop\n        /* \"#utility.yul\":24880:25161   */\n      pop\n      pop\n      jump\t// out\n        /* \"#utility.yul\":25167:25400   */\n    tag_246:\n        /* \"#utility.yul\":25206:25209   */\n      0x00\n        /* \"#utility.yul\":25229:25253   */\n      tag_602\n        /* \"#utility.yul\":25247:25252   */\n      dup3\n        /* \"#utility.yul\":25229:25253   */\n      tag_486\n      jump\t// in\n    tag_602:\n        /* \"#utility.yul\":25220:25253   */\n      swap2\n      pop\n        /* \"#utility.yul\":25275:25341   */\n      0xffffffffffffffffffffffffffffffffffffffffffffffffffffffffffffffff\n        /* \"#utility.yul\":25268:25273   */\n      dup3\n        /* \"#utility.yul\":25265:25342   */\n      eq\n        /* \"#utility.yul\":25262:25365   */\n      iszero\n      tag_603\n      jumpi\n        /* \"#utility.yul\":25345:25363   */\n      tag_604\n      tag_557\n      jump\t// in\n    tag_604:\n        /* \"#utility.yul\":25262:25365   */\n    tag_603:\n        /* \"#utility.yul\":25392:25393   */\n      0x01\n        /* \"#utility.yul\":25385:25390   */\n      dup3\n        /* \"#utility.yul\":25381:25394   */\n      add\n        /* \"#utility.yul\":25374:25394   */\n      swap1\n      pop\n        /* \"#utility.yul\":25167:25400   */\n      swap2\n      swap1\n      pop\n      jump\t// out\n        /* \"#utility.yul\":25406:25582   */\n    tag_257:\n        /* \"#utility.yul\":25438:25439   */\n      0x00\n        /* \"#utility.yul\":25455:25475   */\n      tag_606\n        /* \"#utility.yul\":25473:25474   */\n      dup3\n        /* \"#utility.yul\":25455:25475   */\n      tag_486\n      jump\t// in\n    tag_606:\n        /* \"#utility.yul\":25450:25475   */\n      swap2\n      pop\n        /* \"#utility.yul\":25489:25509   */\n      tag_607\n        /* \"#utility.yul\":25507:25508   */\n      dup4\n        /* \"#utility.yul\":25489:25509   */\n      tag_486\n      jump\t// in\n    tag_607:\n        /* \"#utility.yul\":25484:25509   */\n      swap3\n      pop\n        /* \"#utility.yul\":25528:25529   */\n      dup3\n        /* \"#utility.yul\":25518:25553   */\n      tag_608\n      jumpi\n        /* \"#utility.yul\":25533:25551   */\n      tag_609\n      tag_563\n      jump\t// in\n    tag_609:\n        /* \"#utility.yul\":25518:25553   */\n    tag_608:\n        /* \"#utility.yul\":25574:25575   */\n      dup3\n        /* \"#utility.yul\":25571:25572   */\n      dup3\n        /* \"#utility.yul\":25567:25576   */\n      mod\n        /* \"#utility.yul\":25562:25576   */\n      swap1\n      pop\n        /* \"#utility.yul\":25406:25582   */\n      swap3\n      swap2\n      pop\n      pop\n      jump\t// out\n        /* \"#utility.yul\":25588:25768   */\n    tag_557:\n        /* \"#utility.yul\":25636:25713   */\n      0x4e487b7100000000000000000000000000000000000000000000000000000000\n        /* \"#utility.yul\":25633:25634   */\n      0x00\n        /* \"#utility.yul\":25626:25714   */\n      mstore\n        /* \"#utility.yul\":25733:25737   */\n      0x11\n        /* \"#utility.yul\":25730:25731   */\n      0x04\n        /* \"#utility.yul\":25723:25738   */\n      mstore\n        /* \"#utility.yul\":25757:25761   */\n      0x24\n        /* \"#utility.yul\":25754:25755   */\n      0x00\n        /* \"#utility.yul\":25747:25762   */\n      revert\n        /* \"#utility.yul\":25774:25954   */\n    tag_563:\n        /* \"#utility.yul\":25822:25899   */\n      0x4e487b7100000000000000000000000000000000000000000000000000000000\n        /* \"#utility.yul\":25819:25820   */\n      0x00\n        /* \"#utility.yul\":25812:25900   */\n      mstore\n        /* \"#utility.yul\":25919:25923   */\n      0x12\n        /* \"#utility.yul\":25916:25917   */\n      0x04\n        /* \"#utility.yul\":25909:25924   */\n      mstore\n        /* \"#utility.yul\":25943:25947   */\n      0x24\n        /* \"#utility.yul\":25940:25941   */\n      0x00\n        /* \"#utility.yul\":25933:25948   */\n      revert\n        /* \"#utility.yul\":25960:26140   */\n    tag_596:\n        /* \"#utility.yul\":26008:26085   */\n      0x4e487b7100000000000000000000000000000000000000000000000000000000\n        /* \"#utility.yul\":26005:26006   */\n      0x00\n        /* \"#utility.yul\":25998:26086   */\n      mstore\n        /* \"#utility.yul\":26105:26109   */\n      0x22\n        /* \"#utility.yul\":26102:26103   */\n      0x04\n        /* \"#utility.yul\":26095:26110   */\n      mstore\n        /* \"#utility.yul\":26129:26133   */\n      0x24\n        /* \"#utility.yul\":26126:26127   */\n      0x00\n        /* \"#utility.yul\":26119:26134   */\n      revert\n        /* \"#utility.yul\":26146:26326   */\n    tag_261:\n        /* \"#utility.yul\":26194:26271   */\n      0x4e487b7100000000000000000000000000000000000000000000000000000000\n        /* \"#utility.yul\":26191:26192   */\n      0x00\n        /* \"#utility.yul\":26184:26272   */\n      mstore\n        /* \"#utility.yul\":26291:26295   */\n      0x32\n        /* \"#utility.yul\":26288:26289   */\n      0x04\n        /* \"#utility.yul\":26281:26296   */\n      mstore\n        /* \"#utility.yul\":26315:26319   */\n      0x24\n        /* \"#utility.yul\":26312:26313   */\n      0x00\n        /* \"#utility.yul\":26305:26320   */\n      revert\n        /* \"#utility.yul\":26332:26512   */\n    tag_251:\n        /* \"#utility.yul\":26380:26457   */\n      0x4e487b7100000000000000000000000000000000000000000000000000000000\n        /* \"#utility.yul\":26377:26378   */\n      0x00\n        /* \"#utility.yul\":26370:26458   */\n      mstore\n        /* \"#utility.yul\":26477:26481   */\n      0x41\n        /* \"#utility.yul\":26474:26475   */\n      0x04\n        /* \"#utility.yul\":26467:26482   */\n      mstore\n        /* \"#utility.yul\":26501:26505   */\n      0x24\n        /* \"#utility.yul\":26498:26499   */\n      0x00\n        /* \"#utility.yul\":26491:26506   */\n      revert\n        /* \"#utility.yul\":26518:26635   */\n    tag_323:\n        /* \"#utility.yul\":26627:26628   */\n      0x00\n        /* \"#utility.yul\":26624:26625   */\n      dup1\n        /* \"#utility.yul\":26617:26629   */\n      revert\n        /* \"#utility.yul\":26641:26758   */\n    tag_301:\n        /* \"#utility.yul\":26750:26751   */\n      0x00\n        /* \"#utility.yul\":26747:26748   */\n      dup1\n        /* \"#utility.yul\":26740:26752   */\n      revert\n        /* \"#utility.yul\":26764:26881   */\n    tag_353:\n        /* \"#utility.yul\":26873:26874   */\n      0x00\n        /* \"#utility.yul\":26870:26871   */\n      dup1\n        /* \"#utility.yul\":26863:26875   */\n      revert\n        /* \"#utility.yul\":26887:27004   */\n    tag_332:\n        /* \"#utility.yul\":26996:26997   */\n      0x00\n        /* \"#utility.yul\":26993:26994   */\n      dup1\n        /* \"#utility.yul\":26986:26998   */\n      revert\n        /* \"#utility.yul\":27010:27112   */\n    tag_398:\n        /* \"#utility.yul\":27051:27057   */\n      0x00\n        /* \"#utility.yul\":27102:27104   */\n      0x1f\n        /* \"#utility.yul\":27098:27105   */\n      not\n        /* \"#utility.yul\":27093:27095   */\n      0x1f\n        /* \"#utility.yul\":27086:27091   */\n      dup4\n        /* \"#utility.yul\":27082:27096   */\n      add\n        /* \"#utility.yul\":27078:27106   */\n      and\n        /* \"#utility.yul\":27068:27106   */\n      swap1\n      pop\n        /* \"#utility.yul\":27010:27112   */\n      swap2\n      swap1\n      pop\n      jump\t// out\n        /* \"#utility.yul\":27118:27355   */\n    tag_417:\n        /* \"#utility.yul\":27258:27292   */\n      0x4552433732313a207472616e7366657220746f206e6f6e204552433732315265\n        /* \"#utility.yul\":27254:27255   */\n      0x00\n        /* \"#utility.yul\":27246:27252   */\n      dup3\n        /* \"#utility.yul\":27242:27256   */\n      add\n        /* \"#utility.yul\":27235:27293   */\n      mstore\n        /* \"#utility.yul\":27327:27347   */\n      0x63656976657220696d706c656d656e7465720000000000000000000000000000\n        /* \"#utility.yul\":27322:27324   */\n      0x20\n        /* \"#utility.yul\":27314:27320   */\n      dup3\n        /* \"#utility.yul\":27310:27325   */\n      add\n        /* \"#utility.yul\":27303:27348   */\n      mstore\n        /* \"#utility.yul\":27118:27355   */\n      pop\n      jump\t// out\n        /* \"#utility.yul\":27361:27586   */\n    tag_422:\n        /* \"#utility.yul\":27501:27535   */\n      0x4f776e61626c653a206e6577206f776e657220697320746865207a65726f2061\n        /* \"#utility.yul\":27497:27498   */\n      0x00\n        /* \"#utility.yul\":27489:27495   */\n      dup3\n        /* \"#utility.yul\":27485:27499   */\n      add\n        /* \"#utility.yul\":27478:27536   */\n      mstore\n        /* \"#utility.yul\":27570:27578   */\n      0x6464726573730000000000000000000000000000000000000000000000000000\n        /* \"#utility.yul\":27565:27567   */\n      0x20\n        /* \"#utility.yul\":27557:27563   */\n      dup3\n        /* \"#utility.yul\":27553:27568   */\n      add\n        /* \"#utility.yul\":27546:27579   */\n      mstore\n        /* \"#utility.yul\":27361:27586   */\n      pop\n      jump\t// out\n        /* \"#utility.yul\":27592:27816   */\n    tag_427:\n        /* \"#utility.yul\":27732:27766   */\n      0x4552433732313a207472616e736665722066726f6d20696e636f727265637420\n        /* \"#utility.yul\":27728:27729   */\n      0x00\n        /* \"#utility.yul\":27720:27726   */\n      dup3\n        /* \"#utility.yul\":27716:27730   */\n      add\n        /* \"#utility.yul\":27709:27767   */\n      mstore\n        /* \"#utility.yul\":27801:27808   */\n      0x6f776e6572000000000000000000000000000000000000000000000000000000\n        /* \"#utility.yul\":27796:27798   */\n      0x20\n        /* \"#utility.yul\":27788:27794   */\n      dup3\n        /* \"#utility.yul\":27784:27799   */\n      add\n        /* \"#utility.yul\":27777:27809   */\n      mstore\n        /* \"#utility.yul\":27592:27816   */\n      pop\n      jump\t// out\n        /* \"#utility.yul\":27822:28045   */\n    tag_432:\n        /* \"#utility.yul\":27962:27996   */\n      0x4552433732313a207472616e7366657220746f20746865207a65726f20616464\n        /* \"#utility.yul\":27958:27959   */\n      0x00\n        /* \"#utility.yul\":27950:27956   */\n      dup3\n        /* \"#utility.yul\":27946:27960   */\n      add\n        /* \"#utility.yul\":27939:27997   */\n      mstore\n        /* \"#utility.yul\":28031:28037   */\n      0x7265737300000000000000000000000000000000000000000000000000000000\n        /* \"#utility.yul\":28026:28028   */\n      0x20\n        /* \"#utility.yul\":28018:28024   */\n      dup3\n        /* \"#utility.yul\":28014:28029   */\n      add\n        /* \"#utility.yul\":28007:28038   */\n      mstore\n        /* \"#utility.yul\":27822:28045   */\n      pop\n      jump\t// out\n        /* \"#utility.yul\":28051:28226   */\n    tag_437:\n        /* \"#utility.yul\":28191:28218   */\n      0x4552433732313a20617070726f766520746f2063616c6c657200000000000000\n        /* \"#utility.yul\":28187:28188   */\n      0x00\n        /* \"#utility.yul\":28179:28185   */\n      dup3\n        /* \"#utility.yul\":28175:28189   */\n      add\n        /* \"#utility.yul\":28168:28219   */\n      mstore\n        /* \"#utility.yul\":28051:28226   */\n      pop\n      jump\t// out\n        /* \"#utility.yul\":28232:28463   */\n    tag_442:\n        /* \"#utility.yul\":28372:28406   */\n      0x4552433732313a206f70657261746f7220717565727920666f72206e6f6e6578\n        /* \"#utility.yul\":28368:28369   */\n      0x00\n        /* \"#utility.yul\":28360:28366   */\n      dup3\n        /* \"#utility.yul\":28356:28370   */\n      add\n        /* \"#utility.yul\":28349:28407   */\n      mstore\n        /* \"#utility.yul\":28441:28455   */\n      0x697374656e7420746f6b656e0000000000000000000000000000000000000000\n        /* \"#utility.yul\":28436:28438   */\n      0x20\n        /* \"#utility.yul\":28428:28434   */\n      dup3\n        /* \"#utility.yul\":28424:28439   */\n      add\n        /* \"#utility.yul\":28417:28456   */\n      mstore\n        /* \"#utility.yul\":28232:28463   */\n      pop\n      jump\t// out\n        /* \"#utility.yul\":28469:28712   */\n    tag_447:\n        /* \"#utility.yul\":28609:28643   */\n      0x4552433732313a20617070726f76652063616c6c6572206973206e6f74206f77\n        /* \"#utility.yul\":28605:28606   */\n      0x00\n        /* \"#utility.yul\":28597:28603   */\n      dup3\n        /* \"#utility.yul\":28593:28607   */\n      add\n        /* \"#utility.yul\":28586:28644   */\n      mstore\n        /* \"#utility.yul\":28678:28704   */\n      0x6e6572206e6f7220617070726f76656420666f7220616c6c0000000000000000\n        /* \"#utility.yul\":28673:28675   */\n      0x20\n        /* \"#utility.yul\":28665:28671   */\n      dup3\n        /* \"#utility.yul\":28661:28676   */\n      add\n        /* \"#utility.yul\":28654:28705   */\n      mstore\n        /* \"#utility.yul\":28469:28712   */\n      pop\n      jump\t// out\n        /* \"#utility.yul\":28718:28947   */\n    tag_452:\n        /* \"#utility.yul\":28858:28892   */\n      0x4552433732313a2062616c616e636520717565727920666f7220746865207a65\n        /* \"#utility.yul\":28854:28855   */\n      0x00\n        /* \"#utility.yul\":28846:28852   */\n      dup3\n        /* \"#utility.yul\":28842:28856   */\n      add\n        /* \"#utility.yul\":28835:28893   */\n      mstore\n        /* \"#utility.yul\":28927:28939   */\n      0x726f206164647265737300000000000000000000000000000000000000000000\n        /* \"#utility.yul\":28922:28924   */\n      0x20\n        /* \"#utility.yul\":28914:28920   */\n      dup3\n        /* \"#utility.yul\":28910:28925   */\n      add\n        /* \"#utility.yul\":28903:28940   */\n      mstore\n        /* \"#utility.yul\":28718:28947   */\n      pop\n      jump\t// out\n        /* \"#utility.yul\":28953:29181   */\n    tag_457:\n        /* \"#utility.yul\":29093:29127   */\n      0x4552433732313a206f776e657220717565727920666f72206e6f6e6578697374\n        /* \"#utility.yul\":29089:29090   */\n      0x00\n        /* \"#utility.yul\":29081:29087   */\n      dup3\n        /* \"#utility.yul\":29077:29091   */\n      add\n        /* \"#utility.yul\":29070:29128   */\n      mstore\n        /* \"#utility.yul\":29162:29173   */\n      0x656e7420746f6b656e0000000000000000000000000000000000000000000000\n        /* \"#utility.yul\":29157:29159   */\n      0x20\n        /* \"#utility.yul\":29149:29155   */\n      dup3\n        /* \"#utility.yul\":29145:29160   */\n      add\n        /* \"#utility.yul\":29138:29174   */\n      mstore\n        /* \"#utility.yul\":28953:29181   */\n      pop\n      jump\t// out\n        /* \"#utility.yul\":29187:29418   */\n    tag_462:\n        /* \"#utility.yul\":29327:29361   */\n      0x4552433732313a20617070726f76656420717565727920666f72206e6f6e6578\n        /* \"#utility.yul\":29323:29324   */\n      0x00\n        /* \"#utility.yul\":29315:29321   */\n      dup3\n        /* \"#utility.yul\":29311:29325   */\n      add\n        /* \"#utility.yul\":29304:29362   */\n      mstore\n        /* \"#utility.yul\":29396:29410   */\n      0x697374656e7420746f6b656e0000000000000000000000000000000000000000\n        /* \"#utility.yul\":29391:29393   */\n      0x20\n        /* \"#utility.yul\":29383:29389   */\n      dup3\n        /* \"#utility.yul\":29379:29394   */\n      add\n        /* \"#utility.yul\":29372:29411   */\n      mstore\n        /* \"#utility.yul\":29187:29418   */\n      pop\n      jump\t// out\n        /* \"#utility.yul\":29424:29606   */\n    tag_467:\n        /* \"#utility.yul\":29564:29598   */\n      0x4f776e61626c653a2063616c6c6572206973206e6f7420746865206f776e6572\n        /* \"#utility.yul\":29560:29561   */\n      0x00\n        /* \"#utility.yul\":29552:29558   */\n      dup3\n        /* \"#utility.yul\":29548:29562   */\n      add\n        /* \"#utility.yul\":29541:29599   */\n      mstore\n        /* \"#utility.yul\":29424:29606   */\n      pop\n      jump\t// out\n        /* \"#utility.yul\":29612:29846   */\n    tag_472:\n        /* \"#utility.yul\":29752:29786   */\n      0x4552433732314d657461646174613a2055524920717565727920666f72206e6f\n        /* \"#utility.yul\":29748:29749   */\n      0x00\n        /* \"#utility.yul\":29740:29746   */\n      dup3\n        /* \"#utility.yul\":29736:29750   */\n      add\n        /* \"#utility.yul\":29729:29787   */\n      mstore\n        /* \"#utility.yul\":29821:29838   */\n      0x6e6578697374656e7420746f6b656e0000000000000000000000000000000000\n        /* \"#utility.yul\":29816:29818   */\n      0x20\n        /* \"#utility.yul\":29808:29814   */\n      dup3\n        /* \"#utility.yul\":29804:29819   */\n      add\n        /* \"#utility.yul\":29797:29839   */\n      mstore\n        /* \"#utility.yul\":29612:29846   */\n      pop\n      jump\t// out\n        /* \"#utility.yul\":29852:30072   */\n    tag_477:\n        /* \"#utility.yul\":29992:30026   */\n      0x4552433732313a20617070726f76616c20746f2063757272656e74206f776e65\n        /* \"#utility.yul\":29988:29989   */\n      0x00\n        /* \"#utility.yul\":29980:29986   */\n      dup3\n        /* \"#utility.yul\":29976:29990   */\n      add\n        /* \"#utility.yul\":29969:30027   */\n      mstore\n        /* \"#utility.yul\":30061:30064   */\n      0x7200000000000000000000000000000000000000000000000000000000000000\n        /* \"#utility.yul\":30056:30058   */\n      0x20\n        /* \"#utility.yul\":30048:30054   */\n      dup3\n        /* \"#utility.yul\":30044:30059   */\n      add\n        /* \"#utility.yul\":30037:30065   */\n      mstore\n        /* \"#utility.yul\":29852:30072   */\n      pop\n      jump\t// out\n        /* \"#utility.yul\":30078:30314   */\n    tag_482:\n        /* \"#utility.yul\":30218:30252   */\n      0x4552433732313a207472616e736665722063616c6c6572206973206e6f74206f\n        /* \"#utility.yul\":30214:30215   */\n      0x00\n        /* \"#utility.yul\":30206:30212   */\n      dup3\n        /* \"#utility.yul\":30202:30216   */\n      add\n        /* \"#utility.yul\":30195:30253   */\n      mstore\n        /* \"#utility.yul\":30287:30306   */\n      0x776e6572206e6f7220617070726f766564000000000000000000000000000000\n        /* \"#utility.yul\":30282:30284   */\n      0x20\n        /* \"#utility.yul\":30274:30280   */\n      dup3\n        /* \"#utility.yul\":30270:30285   */\n      add\n        /* \"#utility.yul\":30263:30307   */\n      mstore\n        /* \"#utility.yul\":30078:30314   */\n      pop\n      jump\t// out\n        /* \"#utility.yul\":30320:30442   */\n    tag_307:\n        /* \"#utility.yul\":30393:30417   */\n      tag_635\n        /* \"#utility.yul\":30411:30416   */\n      dup2\n        /* \"#utility.yul\":30393:30417   */\n      tag_384\n      jump\t// in\n    tag_635:\n        /* \"#utility.yul\":30386:30391   */\n      dup2\n        /* \"#utility.yul\":30383:30418   */\n      eq\n        /* \"#utility.yul\":30373:30436   */\n      tag_636\n      jumpi\n        /* \"#utility.yul\":30432:30433   */\n      0x00\n        /* \"#utility.yul\":30429:30430   */\n      dup1\n        /* \"#utility.yul\":30422:30434   */\n      revert\n        /* \"#utility.yul\":30373:30436   */\n    tag_636:\n        /* \"#utility.yul\":30320:30442   */\n      pop\n      jump\t// out\n        /* \"#utility.yul\":30448:30564   */\n    tag_311:\n        /* \"#utility.yul\":30518:30539   */\n      tag_638\n        /* \"#utility.yul\":30533:30538   */\n      dup2\n        /* \"#utility.yul\":30518:30539   */\n      tag_388\n      jump\t// in\n    tag_638:\n        /* \"#utility.yul\":30511:30516   */\n      dup2\n        /* \"#utility.yul\":30508:30540   */\n      eq\n        /* \"#utility.yul\":30498:30558   */\n      tag_639\n      jumpi\n        /* \"#utility.yul\":30554:30555   */\n      0x00\n        /* \"#utility.yul\":30551:30552   */\n      dup1\n        /* \"#utility.yul\":30544:30556   */\n      revert\n        /* \"#utility.yul\":30498:30558   */\n    tag_639:\n        /* \"#utility.yul\":30448:30564   */\n      pop\n      jump\t// out\n        /* \"#utility.yul\":30570:30690   */\n    tag_315:\n        /* \"#utility.yul\":30642:30665   */\n      tag_641\n        /* \"#utility.yul\":30659:30664   */\n      dup2\n        /* \"#utility.yul\":30642:30665   */\n      tag_573\n      jump\t// in\n    tag_641:\n        /* \"#utility.yul\":30635:30640   */\n      dup2\n        /* \"#utility.yul\":30632:30666   */\n      eq\n        /* \"#utility.yul\":30622:30684   */\n      tag_642\n      jumpi\n        /* \"#utility.yul\":30680:30681   */\n      0x00\n        /* \"#utility.yul\":30677:30678   */\n      dup1\n        /* \"#utility.yul\":30670:30682   */\n      revert\n        /* \"#utility.yul\":30622:30684   */\n    tag_642:\n        /* \"#utility.yul\":30570:30690   */\n      pop\n      jump\t// out\n        /* \"#utility.yul\":30696:30818   */\n    tag_328:\n        /* \"#utility.yul\":30769:30793   */\n      tag_644\n        /* \"#utility.yul\":30787:30792   */\n      dup2\n        /* \"#utility.yul\":30769:30793   */\n      tag_486\n      jump\t// in\n    tag_644:\n        /* \"#utility.yul\":30762:30767   */\n      dup2\n        /* \"#utility.yul\":30759:30794   */\n      eq\n        /* \"#utility.yul\":30749:30812   */\n      tag_645\n      jumpi\n        /* \"#utility.yul\":30808:30809   */\n      0x00\n        /* \"#utility.yul\":30805:30806   */\n      dup1\n        /* \"#utility.yul\":30798:30810   */\n      revert\n        /* \"#utility.yul\":30749:30812   */\n    tag_645:\n        /* \"#utility.yul\":30696:30818   */\n      pop\n      jump\t// out\n\n    auxdata: 0xa26469706673582212200a672f050e76c4a822bc0f8ae3069c03510c76a6e1326df3c3a471248e3cb70d64736f6c63430008070033\n}\n",
				"bytecode": {
					"linkReferences": {},
					"object": "60806040523480156200001157600080fd5b5060405162002db038038062002db0833981810160405281019062000037919062000257565b6000620000496200012160201b60201c565b9050806000806101000a81548173ffffffffffffffffffffffffffffffffffffffff021916908373ffffffffffffffffffffffffffffffffffffffff1602179055508073ffffffffffffffffffffffffffffffffffffffff16600073ffffffffffffffffffffffffffffffffffffffff167f8be0079c531659141344cd1fd0a4f28419497f9722a3daafe3b4186f6b6457e060405160405180910390a3508160019080519060200190620000ff92919062000129565b5080600290805190602001906200011892919062000129565b50505062000460565b600033905090565b828054620001379062000371565b90600052602060002090601f0160209004810192826200015b5760008555620001a7565b82601f106200017657805160ff1916838001178555620001a7565b82800160010185558215620001a7579182015b82811115620001a657825182559160200191906001019062000189565b5b509050620001b69190620001ba565b5090565b5b80821115620001d5576000816000905550600101620001bb565b5090565b6000620001f0620001ea8462000305565b620002dc565b9050828152602081018484840111156200020f576200020e62000440565b5b6200021c8482856200033b565b509392505050565b600082601f8301126200023c576200023b6200043b565b5b81516200024e848260208601620001d9565b91505092915050565b600080604083850312156200027157620002706200044a565b5b600083015167ffffffffffffffff81111562000292576200029162000445565b5b620002a08582860162000224565b925050602083015167ffffffffffffffff811115620002c457620002c362000445565b5b620002d28582860162000224565b9150509250929050565b6000620002e8620002fb565b9050620002f68282620003a7565b919050565b6000604051905090565b600067ffffffffffffffff8211156200032357620003226200040c565b5b6200032e826200044f565b9050602081019050919050565b60005b838110156200035b5780820151818401526020810190506200033e565b838111156200036b576000848401525b50505050565b600060028204905060018216806200038a57607f821691505b60208210811415620003a157620003a0620003dd565b5b50919050565b620003b2826200044f565b810181811067ffffffffffffffff82111715620003d457620003d36200040c565b5b80604052505050565b7f4e487b7100000000000000000000000000000000000000000000000000000000600052602260045260246000fd5b7f4e487b7100000000000000000000000000000000000000000000000000000000600052604160045260246000fd5b600080fd5b600080fd5b600080fd5b600080fd5b6000601f19601f8301169050919050565b61294080620004706000396000f3fe608060405234801561001057600080fd5b50600436106101165760003560e01c8063715018a6116100a2578063a22cb46511610071578063a22cb465146102cf578063b88d4fde146102eb578063c87b56dd14610307578063e985e9c514610337578063f2fde38b1461036757610116565b8063715018a61461026b5780638da5cb5b146102755780638f32d59b1461029357806395d89b41146102b157610116565b806323b872dd116100e957806323b872dd146101b5578063313ce567146101d157806342842e0e146101ef5780636352211e1461020b57806370a082311461023b57610116565b806301ffc9a71461011b57806306fdde031461014b578063081812fc14610169578063095ea7b314610199575b600080fd5b61013560048036038101906101309190611a51565b610383565b6040516101429190611e3b565b60405180910390f35b610153610465565b6040516101609190611e56565b60405180910390f35b610183600480360381019061017e9190611aab565b6104f7565b6040516101909190611dd4565b60405180910390f35b6101b360048036038101906101ae9190611a11565b61057c565b005b6101cf60048036038101906101ca91906118fb565b610694565b005b6101d96106f4565b6040516101e69190612053565b60405180910390f35b610209600480360381019061020491906118fb565b6106f9565b005b61022560048036038101906102209190611aab565b610719565b6040516102329190611dd4565b60405180910390f35b6102556004803603810190610250919061188e565b6107cb565b6040516102629190612038565b60405180910390f35b610273610883565b005b61027d610988565b60405161028a9190611dd4565b60405180910390f35b61029b6109b1565b6040516102a89190611e3b565b60405180910390f35b6102b9610a0f565b6040516102c69190611e56565b60405180910390f35b6102e960048036038101906102e491906119d1565b610aa1565b005b6103056004803603810190610300919061194e565b610ab7565b005b610321600480360381019061031c9190611aab565b610b19565b60405161032e9190611e56565b60405180910390f35b610351600480360381019061034c91906118bb565b610bc0565b60405161035e9190611e3b565b60405180910390f35b610381600480360381019061037c919061188e565b610c54565b005b60007f80ac58cd000000000000000000000000000000000000000000000000000000007bffffffffffffffffffffffffffffffffffffffffffffffffffffffff1916827bffffffffffffffffffffffffffffffffffffffffffffffffffffffff1916148061044e57507f5b5e139f000000000000000000000000000000000000000000000000000000007bffffffffffffffffffffffffffffffffffffffffffffffffffffffff1916827bffffffffffffffffffffffffffffffffffffffffffffffffffffffff1916145b8061045e575061045d82610ca7565b5b9050919050565b606060018054610474906122bb565b80601f01602080910402602001604051908101604052809291908181526020018280546104a0906122bb565b80156104ed5780601f106104c2576101008083540402835291602001916104ed565b820191906000526020600020905b8154815290600101906020018083116104d057829003601f168201915b5050505050905090565b600061050282610d11565b610541576040517f08c379a000000000000000000000000000000000000000000000000000000000815260040161053890611f98565b60405180910390fd5b6005600083815260200190815260200160002060009054906101000a900473ffffffffffffffffffffffffffffffffffffffff169050919050565b600061058782610719565b90508073ffffffffffffffffffffffffffffffffffffffff168373ffffffffffffffffffffffffffffffffffffffff1614156105f8576040517f08c379a00000000000000000000000000000000000000000000000000000000081526004016105ef90611ff8565b60405180910390fd5b8073ffffffffffffffffffffffffffffffffffffffff16610617610d7d565b73ffffffffffffffffffffffffffffffffffffffff161480610646575061064581610640610d7d565b610bc0565b5b610685576040517f08c379a000000000000000000000000000000000000000000000000000000000815260040161067c90611f38565b60405180910390fd5b61068f8383610d85565b505050565b6106a561069f610d7d565b82610e3e565b6106e4576040517f08c379a00000000000000000000000000000000000000000000000000000000081526004016106db90612018565b60405180910390fd5b6106ef838383610f1c565b505050565b600090565b61071483838360405180602001604052806000815250610ab7565b505050565b6000806003600084815260200190815260200160002060009054906101000a900473ffffffffffffffffffffffffffffffffffffffff169050600073ffffffffffffffffffffffffffffffffffffffff168173ffffffffffffffffffffffffffffffffffffffff1614156107c2576040517f08c379a00000000000000000000000000000000000000000000000000000000081526004016107b990611f78565b60405180910390fd5b80915050919050565b60008073ffffffffffffffffffffffffffffffffffffffff168273ffffffffffffffffffffffffffffffffffffffff16141561083c576040517f08c379a000000000000000000000000000000000000000000000000000000000815260040161083390611f58565b60405180910390fd5b600460008373ffffffffffffffffffffffffffffffffffffffff1673ffffffffffffffffffffffffffffffffffffffff168152602001908152602001600020549050919050565b61088b6109b1565b6108ca576040517f08c379a00000000000000000000000000000000000000000000000000000000081526004016108c190611fb8565b60405180910390fd5b600073ffffffffffffffffffffffffffffffffffffffff1660008054906101000a900473ffffffffffffffffffffffffffffffffffffffff1673ffffffffffffffffffffffffffffffffffffffff167f8be0079c531659141344cd1fd0a4f28419497f9722a3daafe3b4186f6b6457e060405160405180910390a360008060006101000a81548173ffffffffffffffffffffffffffffffffffffffff021916908373ffffffffffffffffffffffffffffffffffffffff160217905550565b60008060009054906101000a900473ffffffffffffffffffffffffffffffffffffffff16905090565b60008060009054906101000a900473ffffffffffffffffffffffffffffffffffffffff1673ffffffffffffffffffffffffffffffffffffffff166109f3610d7d565b73ffffffffffffffffffffffffffffffffffffffff1614905090565b606060028054610a1e906122bb565b80601f0160208091040260200160405190810160405280929190818152602001828054610a4a906122bb565b8015610a975780601f10610a6c57610100808354040283529160200191610a97565b820191906000526020600020905b815481529060010190602001808311610a7a57829003601f168201915b5050505050905090565b610ab3610aac610d7d565b8383611183565b5050565b610ac8610ac2610d7d565b83610e3e565b610b07576040517f08c379a0000000000000000000000000000000000000000000000000000000008152600401610afe90612018565b60405180910390fd5b610b13848484846112f0565b50505050565b6060610b2482610d11565b610b63576040517f08c379a0000000000000000000000000000000000000000000000000000000008152600401610b5a90611fd8565b60405180910390fd5b6000610b6d61134c565b90506000815111610b8d5760405180602001604052806000815250610bb8565b80610b9784611363565b604051602001610ba8929190611db0565b6040516020818303038152906040525b915050919050565b6000600660008473ffffffffffffffffffffffffffffffffffffffff1673ffffffffffffffffffffffffffffffffffffffff16815260200190815260200160002060008373ffffffffffffffffffffffffffffffffffffffff1673ffffffffffffffffffffffffffffffffffffffff16815260200190815260200160002060009054906101000a900460ff16905092915050565b610c5c6109b1565b610c9b576040517f08c379a0000000000000000000000000000000000000000000000000000000008152600401610c9290611fb8565b60405180910390fd5b610ca4816114c4565b50565b60007f01ffc9a7000000000000000000000000000000000000000000000000000000007bffffffffffffffffffffffffffffffffffffffffffffffffffffffff1916827bffffffffffffffffffffffffffffffffffffffffffffffffffffffff1916149050919050565b60008073ffffffffffffffffffffffffffffffffffffffff166003600084815260200190815260200160002060009054906101000a900473ffffffffffffffffffffffffffffffffffffffff1673ffffffffffffffffffffffffffffffffffffffff1614159050919050565b600033905090565b816005600083815260200190815260200160002060006101000a81548173ffffffffffffffffffffffffffffffffffffffff021916908373ffffffffffffffffffffffffffffffffffffffff160217905550808273ffffffffffffffffffffffffffffffffffffffff16610df883610719565b73ffffffffffffffffffffffffffffffffffffffff167f8c5be1e5ebec7d5bd14f71427d1e84f3dd0314c0f7b2291e5b200ac8c7c3b92560405160405180910390a45050565b6000610e4982610d11565b610e88576040517f08c379a0000000000000000000000000000000000000000000000000000000008152600401610e7f90611f18565b60405180910390fd5b6000610e9383610719565b90508073ffffffffffffffffffffffffffffffffffffffff168473ffffffffffffffffffffffffffffffffffffffff161480610f0257508373ffffffffffffffffffffffffffffffffffffffff16610eea846104f7565b73ffffffffffffffffffffffffffffffffffffffff16145b80610f135750610f128185610bc0565b5b91505092915050565b8273ffffffffffffffffffffffffffffffffffffffff16610f3c82610719565b73ffffffffffffffffffffffffffffffffffffffff1614610f92576040517f08c379a0000000000000000000000000000000000000000000000000000000008152600401610f8990611eb8565b60405180910390fd5b600073ffffffffffffffffffffffffffffffffffffffff168273ffffffffffffffffffffffffffffffffffffffff161415611002576040517f08c379a0000000000000000000000000000000000000000000000000000000008152600401610ff990611ed8565b60405180910390fd5b61100d8383836115f1565b611018600082610d85565b6001600460008573ffffffffffffffffffffffffffffffffffffffff1673ffffffffffffffffffffffffffffffffffffffff1681526020019081526020016000206000828254611068919061218e565b925050819055506001600460008473ffffffffffffffffffffffffffffffffffffffff1673ffffffffffffffffffffffffffffffffffffffff16815260200190815260200160002060008282546110bf9190612107565b92505081905550816003600083815260200190815260200160002060006101000a81548173ffffffffffffffffffffffffffffffffffffffff021916908373ffffffffffffffffffffffffffffffffffffffff160217905550808273ffffffffffffffffffffffffffffffffffffffff168473ffffffffffffffffffffffffffffffffffffffff167fddf252ad1be2c89b69c2b068fc378daa952ba7f163c4a11628f55a4df523b3ef60405160405180910390a461117e8383836115f6565b505050565b8173ffffffffffffffffffffffffffffffffffffffff168373ffffffffffffffffffffffffffffffffffffffff1614156111f2576040517f08c379a00000000000000000000000000000000000000000000000000000000081526004016111e990611ef8565b60405180910390fd5b80600660008573ffffffffffffffffffffffffffffffffffffffff1673ffffffffffffffffffffffffffffffffffffffff16815260200190815260200160002060008473ffffffffffffffffffffffffffffffffffffffff1673ffffffffffffffffffffffffffffffffffffffff16815260200190815260200160002060006101000a81548160ff0219169083151502179055508173ffffffffffffffffffffffffffffffffffffffff168373ffffffffffffffffffffffffffffffffffffffff167f17307eab39ab6107e8899845ad3d59bd9653f200f220920489ca2b5937696c31836040516112e39190611e3b565b60405180910390a3505050565b6112fb848484610f1c565b611307848484846115fb565b611346576040517f08c379a000000000000000000000000000000000000000000000000000000000815260040161133d90611e78565b60405180910390fd5b50505050565b606060405180602001604052806000815250905090565b606060008214156113ab576040518060400160405280600181526020017f300000000000000000000000000000000000000000000000000000000000000081525090506114bf565b600082905060005b600082146113dd5780806113c69061231e565b915050600a826113d6919061215d565b91506113b3565b60008167ffffffffffffffff8111156113f9576113f8612454565b5b6040519080825280601f01601f19166020018201604052801561142b5781602001600182028036833780820191505090505b5090505b600085146114b857600182611444919061218e565b9150600a856114539190612367565b603061145f9190612107565b60f81b81838151811061147557611474612425565b5b60200101907effffffffffffffffffffffffffffffffffffffffffffffffffffffffffffff1916908160001a905350600a856114b1919061215d565b945061142f565b8093505050505b919050565b600073ffffffffffffffffffffffffffffffffffffffff168173ffffffffffffffffffffffffffffffffffffffff161415611534576040517f08c379a000000000000000000000000000000000000000000000000000000000815260040161152b90611e98565b60405180910390fd5b8073ffffffffffffffffffffffffffffffffffffffff1660008054906101000a900473ffffffffffffffffffffffffffffffffffffffff1673ffffffffffffffffffffffffffffffffffffffff167f8be0079c531659141344cd1fd0a4f28419497f9722a3daafe3b4186f6b6457e060405160405180910390a3806000806101000a81548173ffffffffffffffffffffffffffffffffffffffff021916908373ffffffffffffffffffffffffffffffffffffffff16021790555050565b505050565b505050565b600061161c8473ffffffffffffffffffffffffffffffffffffffff16611792565b15611785578373ffffffffffffffffffffffffffffffffffffffff1663150b7a02611645610d7d565b8786866040518563ffffffff1660e01b81526004016116679493929190611def565b602060405180830381600087803b15801561168157600080fd5b505af19250505080156116b257506040513d601f19601f820116820180604052508101906116af9190611a7e565b60015b611735573d80600081146116e2576040519150601f19603f3d011682016040523d82523d6000602084013e6116e7565b606091505b5060008151141561172d576040517f08c379a000000000000000000000000000000000000000000000000000000000815260040161172490611e78565b60405180910390fd5b805181602001fd5b63150b7a0260e01b7bffffffffffffffffffffffffffffffffffffffffffffffffffffffff1916817bffffffffffffffffffffffffffffffffffffffffffffffffffffffff19161491505061178a565b600190505b949350505050565b6000808273ffffffffffffffffffffffffffffffffffffffff163b119050919050565b60006117c86117c384612093565b61206e565b9050828152602081018484840111156117e4576117e3612488565b5b6117ef848285612279565b509392505050565b600081359050611806816128ae565b92915050565b60008135905061181b816128c5565b92915050565b600081359050611830816128dc565b92915050565b600081519050611845816128dc565b92915050565b600082601f8301126118605761185f612483565b5b81356118708482602086016117b5565b91505092915050565b600081359050611888816128f3565b92915050565b6000602082840312156118a4576118a3612492565b5b60006118b2848285016117f7565b91505092915050565b600080604083850312156118d2576118d1612492565b5b60006118e0858286016117f7565b92505060206118f1858286016117f7565b9150509250929050565b60008060006060848603121561191457611913612492565b5b6000611922868287016117f7565b9350506020611933868287016117f7565b925050604061194486828701611879565b9150509250925092565b6000806000806080858703121561196857611967612492565b5b6000611976878288016117f7565b9450506020611987878288016117f7565b935050604061199887828801611879565b925050606085013567ffffffffffffffff8111156119b9576119b861248d565b5b6119c58782880161184b565b91505092959194509250565b600080604083850312156119e8576119e7612492565b5b60006119f6858286016117f7565b9250506020611a078582860161180c565b9150509250929050565b60008060408385031215611a2857611a27612492565b5b6000611a36858286016117f7565b9250506020611a4785828601611879565b9150509250929050565b600060208284031215611a6757611a66612492565b5b6000611a7584828501611821565b91505092915050565b600060208284031215611a9457611a93612492565b5b6000611aa284828501611836565b91505092915050565b600060208284031215611ac157611ac0612492565b5b6000611acf84828501611879565b91505092915050565b611ae181612243565b82525050565b611af0816121c2565b82525050565b611aff816121d4565b82525050565b6000611b10826120c4565b611b1a81856120da565b9350611b2a818560208601612288565b611b3381612497565b840191505092915050565b6000611b49826120cf565b611b5381856120eb565b9350611b63818560208601612288565b611b6c81612497565b840191505092915050565b6000611b82826120cf565b611b8c81856120fc565b9350611b9c818560208601612288565b80840191505092915050565b6000611bb56032836120eb565b9150611bc0826124a8565b604082019050919050565b6000611bd86026836120eb565b9150611be3826124f7565b604082019050919050565b6000611bfb6025836120eb565b9150611c0682612546565b604082019050919050565b6000611c1e6024836120eb565b9150611c2982612595565b604082019050919050565b6000611c416019836120eb565b9150611c4c826125e4565b602082019050919050565b6000611c64602c836120eb565b9150611c6f8261260d565b604082019050919050565b6000611c876038836120eb565b9150611c928261265c565b604082019050919050565b6000611caa602a836120eb565b9150611cb5826126ab565b604082019050919050565b6000611ccd6029836120eb565b9150611cd8826126fa565b604082019050919050565b6000611cf0602c836120eb565b9150611cfb82612749565b604082019050919050565b6000611d136020836120eb565b9150611d1e82612798565b602082019050919050565b6000611d36602f836120eb565b9150611d41826127c1565b604082019050919050565b6000611d596021836120eb565b9150611d6482612810565b604082019050919050565b6000611d7c6031836120eb565b9150611d878261285f565b604082019050919050565b611d9b8161222c565b82525050565b611daa81612236565b82525050565b6000611dbc8285611b77565b9150611dc88284611b77565b91508190509392505050565b6000602082019050611de96000830184611ae7565b92915050565b6000608082019050611e046000830187611ad8565b611e116020830186611ae7565b611e1e6040830185611d92565b8181036060830152611e308184611b05565b905095945050505050565b6000602082019050611e506000830184611af6565b92915050565b60006020820190508181036000830152611e708184611b3e565b905092915050565b60006020820190508181036000830152611e9181611ba8565b9050919050565b60006020820190508181036000830152611eb181611bcb565b9050919050565b60006020820190508181036000830152611ed181611bee565b9050919050565b60006020820190508181036000830152611ef181611c11565b9050919050565b60006020820190508181036000830152611f1181611c34565b9050919050565b60006020820190508181036000830152611f3181611c57565b9050919050565b60006020820190508181036000830152611f5181611c7a565b9050919050565b60006020820190508181036000830152611f7181611c9d565b9050919050565b60006020820190508181036000830152611f9181611cc0565b9050919050565b60006020820190508181036000830152611fb181611ce3565b9050919050565b60006020820190508181036000830152611fd181611d06565b9050919050565b60006020820190508181036000830152611ff181611d29565b9050919050565b6000602082019050818103600083015261201181611d4c565b9050919050565b6000602082019050818103600083015261203181611d6f565b9050919050565b600060208201905061204d6000830184611d92565b92915050565b60006020820190506120686000830184611da1565b92915050565b6000612078612089565b905061208482826122ed565b919050565b6000604051905090565b600067ffffffffffffffff8211156120ae576120ad612454565b5b6120b782612497565b9050602081019050919050565b600081519050919050565b600081519050919050565b600082825260208201905092915050565b600082825260208201905092915050565b600081905092915050565b60006121128261222c565b915061211d8361222c565b9250827fffffffffffffffffffffffffffffffffffffffffffffffffffffffffffffffff0382111561215257612151612398565b5b828201905092915050565b60006121688261222c565b91506121738361222c565b925082612183576121826123c7565b5b828204905092915050565b60006121998261222c565b91506121a48361222c565b9250828210156121b7576121b6612398565b5b828203905092915050565b60006121cd8261220c565b9050919050565b60008115159050919050565b60007fffffffff0000000000000000000000000000000000000000000000000000000082169050919050565b600073ffffffffffffffffffffffffffffffffffffffff82169050919050565b6000819050919050565b600060ff82169050919050565b600061224e82612255565b9050919050565b600061226082612267565b9050919050565b60006122728261220c565b9050919050565b82818337600083830152505050565b60005b838110156122a657808201518184015260208101905061228b565b838111156122b5576000848401525b50505050565b600060028204905060018216806122d357607f821691505b602082108114156122e7576122e66123f6565b5b50919050565b6122f682612497565b810181811067ffffffffffffffff8211171561231557612314612454565b5b80604052505050565b60006123298261222c565b91507fffffffffffffffffffffffffffffffffffffffffffffffffffffffffffffffff82141561235c5761235b612398565b5b600182019050919050565b60006123728261222c565b915061237d8361222c565b92508261238d5761238c6123c7565b5b828206905092915050565b7f4e487b7100000000000000000000000000000000000000000000000000000000600052601160045260246000fd5b7f4e487b7100000000000000000000000000000000000000000000000000000000600052601260045260246000fd5b7f4e487b7100000000000000000000000000000000000000000000000000000000600052602260045260246000fd5b7f4e487b7100000000000000000000000000000000000000000000000000000000600052603260045260246000fd5b7f4e487b7100000000000000000000000000000000000000000000000000000000600052604160045260246000fd5b600080fd5b600080fd5b600080fd5b600080fd5b6000601f19601f8301169050919050565b7f4552433732313a207472616e7366657220746f206e6f6e20455243373231526560008201527f63656976657220696d706c656d656e7465720000000000000000000000000000602082015250565b7f4f776e61626c653a206e6577206f776e657220697320746865207a65726f206160008201527f6464726573730000000000000000000000000000000000000000000000000000602082015250565b7f4552433732313a207472616e736665722066726f6d20696e636f72726563742060008201527f6f776e6572000000000000000000000000000000000000000000000000000000602082015250565b7f4552433732313a207472616e7366657220746f20746865207a65726f2061646460008201527f7265737300000000000000000000000000000000000000000000000000000000602082015250565b7f4552433732313a20617070726f766520746f2063616c6c657200000000000000600082015250565b7f4552433732313a206f70657261746f7220717565727920666f72206e6f6e657860008201527f697374656e7420746f6b656e0000000000000000000000000000000000000000602082015250565b7f4552433732313a20617070726f76652063616c6c6572206973206e6f74206f7760008201527f6e6572206e6f7220617070726f76656420666f7220616c6c0000000000000000602082015250565b7f4552433732313a2062616c616e636520717565727920666f7220746865207a6560008201527f726f206164647265737300000000000000000000000000000000000000000000602082015250565b7f4552433732313a206f776e657220717565727920666f72206e6f6e657869737460008201527f656e7420746f6b656e0000000000000000000000000000000000000000000000602082015250565b7f4552433732313a20617070726f76656420717565727920666f72206e6f6e657860008201527f697374656e7420746f6b656e0000000000000000000000000000000000000000602082015250565b7f4f776e61626c653a2063616c6c6572206973206e6f7420746865206f776e6572600082015250565b7f4552433732314d657461646174613a2055524920717565727920666f72206e6f60008201527f6e6578697374656e7420746f6b656e0000000000000000000000000000000000602082015250565b7f4552433732313a20617070726f76616c20746f2063757272656e74206f776e6560008201527f7200000000000000000000000000000000000000000000000000000000000000602082015250565b7f4552433732313a207472616e736665722063616c6c6572206973206e6f74206f60008201527f776e6572206e6f7220617070726f766564000000000000000000000000000000602082015250565b6128b7816121c2565b81146128c257600080fd5b50565b6128ce816121d4565b81146128d957600080fd5b50565b6128e5816121e0565b81146128f057600080fd5b50565b6128fc8161222c565b811461290757600080fd5b5056fea26469706673582212200a672f050e76c4a822bc0f8ae3069c03510c76a6e1326df3c3a471248e3cb70d64736f6c63430008070033",
					"opcodes": "PUSH1 0x80 PUSH1 0x40 MSTORE CALLVALUE DUP1 ISZERO PUSH3 0x11 JUMPI PUSH1 0x0 DUP1 REVERT JUMPDEST POP PUSH1 0x40 MLOAD PUSH3 0x2DB0 CODESIZE SUB DUP1 PUSH3 0x2DB0 DUP4 CODECOPY DUP2 DUP2 ADD PUSH1 0x40 MSTORE DUP2 ADD SWAP1 PUSH3 0x37 SWAP2 SWAP1 PUSH3 0x257 JUMP JUMPDEST PUSH1 0x0 PUSH3 0x49 PUSH3 0x121 PUSH1 0x20 SHL PUSH1 0x20 SHR JUMP JUMPDEST SWAP1 POP DUP1 PUSH1 0x0 DUP1 PUSH2 0x100 EXP DUP2 SLOAD DUP2 PUSH20 0xFFFFFFFFFFFFFFFFFFFFFFFFFFFFFFFFFFFFFFFF MUL NOT AND SWAP1 DUP4 PUSH20 0xFFFFFFFFFFFFFFFFFFFFFFFFFFFFFFFFFFFFFFFF AND MUL OR SWAP1 SSTORE POP DUP1 PUSH20 0xFFFFFFFFFFFFFFFFFFFFFFFFFFFFFFFFFFFFFFFF AND PUSH1 0x0 PUSH20 0xFFFFFFFFFFFFFFFFFFFFFFFFFFFFFFFFFFFFFFFF AND PUSH32 0x8BE0079C531659141344CD1FD0A4F28419497F9722A3DAAFE3B4186F6B6457E0 PUSH1 0x40 MLOAD PUSH1 0x40 MLOAD DUP1 SWAP2 SUB SWAP1 LOG3 POP DUP2 PUSH1 0x1 SWAP1 DUP1 MLOAD SWAP1 PUSH1 0x20 ADD SWAP1 PUSH3 0xFF SWAP3 SWAP2 SWAP1 PUSH3 0x129 JUMP JUMPDEST POP DUP1 PUSH1 0x2 SWAP1 DUP1 MLOAD SWAP1 PUSH1 0x20 ADD SWAP1 PUSH3 0x118 SWAP3 SWAP2 SWAP1 PUSH3 0x129 JUMP JUMPDEST POP POP POP PUSH3 0x460 JUMP JUMPDEST PUSH1 0x0 CALLER SWAP1 POP SWAP1 JUMP JUMPDEST DUP3 DUP1 SLOAD PUSH3 0x137 SWAP1 PUSH3 0x371 JUMP JUMPDEST SWAP1 PUSH1 0x0 MSTORE PUSH1 0x20 PUSH1 0x0 KECCAK256 SWAP1 PUSH1 0x1F ADD PUSH1 0x20 SWAP1 DIV DUP2 ADD SWAP3 DUP3 PUSH3 0x15B JUMPI PUSH1 0x0 DUP6 SSTORE PUSH3 0x1A7 JUMP JUMPDEST DUP3 PUSH1 0x1F LT PUSH3 0x176 JUMPI DUP1 MLOAD PUSH1 0xFF NOT AND DUP4 DUP1 ADD OR DUP6 SSTORE PUSH3 0x1A7 JUMP JUMPDEST DUP3 DUP1 ADD PUSH1 0x1 ADD DUP6 SSTORE DUP3 ISZERO PUSH3 0x1A7 JUMPI SWAP2 DUP3 ADD JUMPDEST DUP3 DUP2 GT ISZERO PUSH3 0x1A6 JUMPI DUP3 MLOAD DUP3 SSTORE SWAP2 PUSH1 0x20 ADD SWAP2 SWAP1 PUSH1 0x1 ADD SWAP1 PUSH3 0x189 JUMP JUMPDEST JUMPDEST POP SWAP1 POP PUSH3 0x1B6 SWAP2 SWAP1 PUSH3 0x1BA JUMP JUMPDEST POP SWAP1 JUMP JUMPDEST JUMPDEST DUP1 DUP3 GT ISZERO PUSH3 0x1D5 JUMPI PUSH1 0x0 DUP2 PUSH1 0x0 SWAP1 SSTORE POP PUSH1 0x1 ADD PUSH3 0x1BB JUMP JUMPDEST POP SWAP1 JUMP JUMPDEST PUSH1 0x0 PUSH3 0x1F0 PUSH3 0x1EA DUP5 PUSH3 0x305 JUMP JUMPDEST PUSH3 0x2DC JUMP JUMPDEST SWAP1 POP DUP3 DUP2 MSTORE PUSH1 0x20 DUP2 ADD DUP5 DUP5 DUP5 ADD GT ISZERO PUSH3 0x20F JUMPI PUSH3 0x20E PUSH3 0x440 JUMP JUMPDEST JUMPDEST PUSH3 0x21C DUP5 DUP3 DUP6 PUSH3 0x33B JUMP JUMPDEST POP SWAP4 SWAP3 POP POP POP JUMP JUMPDEST PUSH1 0x0 DUP3 PUSH1 0x1F DUP4 ADD SLT PUSH3 0x23C JUMPI PUSH3 0x23B PUSH3 0x43B JUMP JUMPDEST JUMPDEST DUP2 MLOAD PUSH3 0x24E DUP5 DUP3 PUSH1 0x20 DUP7 ADD PUSH3 0x1D9 JUMP JUMPDEST SWAP2 POP POP SWAP3 SWAP2 POP POP JUMP JUMPDEST PUSH1 0x0 DUP1 PUSH1 0x40 DUP4 DUP6 SUB SLT ISZERO PUSH3 0x271 JUMPI PUSH3 0x270 PUSH3 0x44A JUMP JUMPDEST JUMPDEST PUSH1 0x0 DUP4 ADD MLOAD PUSH8 0xFFFFFFFFFFFFFFFF DUP2 GT ISZERO PUSH3 0x292 JUMPI PUSH3 0x291 PUSH3 0x445 JUMP JUMPDEST JUMPDEST PUSH3 0x2A0 DUP6 DUP3 DUP7 ADD PUSH3 0x224 JUMP JUMPDEST SWAP3 POP POP PUSH1 0x20 DUP4 ADD MLOAD PUSH8 0xFFFFFFFFFFFFFFFF DUP2 GT ISZERO PUSH3 0x2C4 JUMPI PUSH3 0x2C3 PUSH3 0x445 JUMP JUMPDEST JUMPDEST PUSH3 0x2D2 DUP6 DUP3 DUP7 ADD PUSH3 0x224 JUMP JUMPDEST SWAP2 POP POP SWAP3 POP SWAP3 SWAP1 POP JUMP JUMPDEST PUSH1 0x0 PUSH3 0x2E8 PUSH3 0x2FB JUMP JUMPDEST SWAP1 POP PUSH3 0x2F6 DUP3 DUP3 PUSH3 0x3A7 JUMP JUMPDEST SWAP2 SWAP1 POP JUMP JUMPDEST PUSH1 0x0 PUSH1 0x40 MLOAD SWAP1 POP SWAP1 JUMP JUMPDEST PUSH1 0x0 PUSH8 0xFFFFFFFFFFFFFFFF DUP3 GT ISZERO PUSH3 0x323 JUMPI PUSH3 0x322 PUSH3 0x40C JUMP JUMPDEST JUMPDEST PUSH3 0x32E DUP3 PUSH3 0x44F JUMP JUMPDEST SWAP1 POP PUSH1 0x20 DUP2 ADD SWAP1 POP SWAP2 SWAP1 POP JUMP JUMPDEST PUSH1 0x0 JUMPDEST DUP4 DUP2 LT ISZERO PUSH3 0x35B JUMPI DUP1 DUP3 ADD MLOAD DUP2 DUP5 ADD MSTORE PUSH1 0x20 DUP2 ADD SWAP1 POP PUSH3 0x33E JUMP JUMPDEST DUP4 DUP2 GT ISZERO PUSH3 0x36B JUMPI PUSH1 0x0 DUP5 DUP5 ADD MSTORE JUMPDEST POP POP POP POP JUMP JUMPDEST PUSH1 0x0 PUSH1 0x2 DUP3 DIV SWAP1 POP PUSH1 0x1 DUP3 AND DUP1 PUSH3 0x38A JUMPI PUSH1 0x7F DUP3 AND SWAP2 POP JUMPDEST PUSH1 0x20 DUP3 LT DUP2 EQ ISZERO PUSH3 0x3A1 JUMPI PUSH3 0x3A0 PUSH3 0x3DD JUMP JUMPDEST JUMPDEST POP SWAP2 SWAP1 POP JUMP JUMPDEST PUSH3 0x3B2 DUP3 PUSH3 0x44F JUMP JUMPDEST DUP2 ADD DUP2 DUP2 LT PUSH8 0xFFFFFFFFFFFFFFFF DUP3 GT OR ISZERO PUSH3 0x3D4 JUMPI PUSH3 0x3D3 PUSH3 0x40C JUMP JUMPDEST JUMPDEST DUP1 PUSH1 0x40 MSTORE POP POP POP JUMP JUMPDEST PUSH32 0x4E487B7100000000000000000000000000000000000000000000000000000000 PUSH1 0x0 MSTORE PUSH1 0x22 PUSH1 0x4 MSTORE PUSH1 0x24 PUSH1 0x0 REVERT JUMPDEST PUSH32 0x4E487B7100000000000000000000000000000000000000000000000000000000 PUSH1 0x0 MSTORE PUSH1 0x41 PUSH1 0x4 MSTORE PUSH1 0x24 PUSH1 0x0 REVERT JUMPDEST PUSH1 0x0 DUP1 REVERT JUMPDEST PUSH1 0x0 DUP1 REVERT JUMPDEST PUSH1 0x0 DUP1 REVERT JUMPDEST PUSH1 0x0 DUP1 REVERT JUMPDEST PUSH1 0x0 PUSH1 0x1F NOT PUSH1 0x1F DUP4 ADD AND SWAP1 POP SWAP2 SWAP1 POP JUMP JUMPDEST PUSH2 0x2940 DUP1 PUSH3 0x470 PUSH1 0x0 CODECOPY PUSH1 0x0 RETURN INVALID PUSH1 0x80 PUSH1 0x40 MSTORE CALLVALUE DUP1 ISZERO PUSH2 0x10 JUMPI PUSH1 0x0 DUP1 REVERT JUMPDEST POP PUSH1 0x4 CALLDATASIZE LT PUSH2 0x116 JUMPI PUSH1 0x0 CALLDATALOAD PUSH1 0xE0 SHR DUP1 PUSH4 0x715018A6 GT PUSH2 0xA2 JUMPI DUP1 PUSH4 0xA22CB465 GT PUSH2 0x71 JUMPI DUP1 PUSH4 0xA22CB465 EQ PUSH2 0x2CF JUMPI DUP1 PUSH4 0xB88D4FDE EQ PUSH2 0x2EB JUMPI DUP1 PUSH4 0xC87B56DD EQ PUSH2 0x307 JUMPI DUP1 PUSH4 0xE985E9C5 EQ PUSH2 0x337 JUMPI DUP1 PUSH4 0xF2FDE38B EQ PUSH2 0x367 JUMPI PUSH2 0x116 JUMP JUMPDEST DUP1 PUSH4 0x715018A6 EQ PUSH2 0x26B JUMPI DUP1 PUSH4 0x8DA5CB5B EQ PUSH2 0x275 JUMPI DUP1 PUSH4 0x8F32D59B EQ PUSH2 0x293 JUMPI DUP1 PUSH4 0x95D89B41 EQ PUSH2 0x2B1 JUMPI PUSH2 0x116 JUMP JUMPDEST DUP1 PUSH4 0x23B872DD GT PUSH2 0xE9 JUMPI DUP1 PUSH4 0x23B872DD EQ PUSH2 0x1B5 JUMPI DUP1 PUSH4 0x313CE567 EQ PUSH2 0x1D1 JUMPI DUP1 PUSH4 0x42842E0E EQ PUSH2 0x1EF JUMPI DUP1 PUSH4 0x6352211E EQ PUSH2 0x20B JUMPI DUP1 PUSH4 0x70A08231 EQ PUSH2 0x23B JUMPI PUSH2 0x116 JUMP JUMPDEST DUP1 PUSH4 0x1FFC9A7 EQ PUSH2 0x11B JUMPI DUP1 PUSH4 0x6FDDE03 EQ PUSH2 0x14B JUMPI DUP1 PUSH4 0x81812FC EQ PUSH2 0x169 JUMPI DUP1 PUSH4 0x95EA7B3 EQ PUSH2 0x199 JUMPI JUMPDEST PUSH1 0x0 DUP1 REVERT JUMPDEST PUSH2 0x135 PUSH1 0x4 DUP1 CALLDATASIZE SUB DUP2 ADD SWAP1 PUSH2 0x130 SWAP2 SWAP1 PUSH2 0x1A51 JUMP JUMPDEST PUSH2 0x383 JUMP JUMPDEST PUSH1 0x40 MLOAD PUSH2 0x142 SWAP2 SWAP1 PUSH2 0x1E3B JUMP JUMPDEST PUSH1 0x40 MLOAD DUP1 SWAP2 SUB SWAP1 RETURN JUMPDEST PUSH2 0x153 PUSH2 0x465 JUMP JUMPDEST PUSH1 0x40 MLOAD PUSH2 0x160 SWAP2 SWAP1 PUSH2 0x1E56 JUMP JUMPDEST PUSH1 0x40 MLOAD DUP1 SWAP2 SUB SWAP1 RETURN JUMPDEST PUSH2 0x183 PUSH1 0x4 DUP1 CALLDATASIZE SUB DUP2 ADD SWAP1 PUSH2 0x17E SWAP2 SWAP1 PUSH2 0x1AAB JUMP JUMPDEST PUSH2 0x4F7 JUMP JUMPDEST PUSH1 0x40 MLOAD PUSH2 0x190 SWAP2 SWAP1 PUSH2 0x1DD4 JUMP JUMPDEST PUSH1 0x40 MLOAD DUP1 SWAP2 SUB SWAP1 RETURN JUMPDEST PUSH2 0x1B3 PUSH1 0x4 DUP1 CALLDATASIZE SUB DUP2 ADD SWAP1 PUSH2 0x1AE SWAP2 SWAP1 PUSH2 0x1A11 JUMP JUMPDEST PUSH2 0x57C JUMP JUMPDEST STOP JUMPDEST PUSH2 0x1CF PUSH1 0x4 DUP1 CALLDATASIZE SUB DUP2 ADD SWAP1 PUSH2 0x1CA SWAP2 SWAP1 PUSH2 0x18FB JUMP JUMPDEST PUSH2 0x694 JUMP JUMPDEST STOP JUMPDEST PUSH2 0x1D9 PUSH2 0x6F4 JUMP JUMPDEST PUSH1 0x40 MLOAD PUSH2 0x1E6 SWAP2 SWAP1 PUSH2 0x2053 JUMP JUMPDEST PUSH1 0x40 MLOAD DUP1 SWAP2 SUB SWAP1 RETURN JUMPDEST PUSH2 0x209 PUSH1 0x4 DUP1 CALLDATASIZE SUB DUP2 ADD SWAP1 PUSH2 0x204 SWAP2 SWAP1 PUSH2 0x18FB JUMP JUMPDEST PUSH2 0x6F9 JUMP JUMPDEST STOP JUMPDEST PUSH2 0x225 PUSH1 0x4 DUP1 CALLDATASIZE SUB DUP2 ADD SWAP1 PUSH2 0x220 SWAP2 SWAP1 PUSH2 0x1AAB JUMP JUMPDEST PUSH2 0x719 JUMP JUMPDEST PUSH1 0x40 MLOAD PUSH2 0x232 SWAP2 SWAP1 PUSH2 0x1DD4 JUMP JUMPDEST PUSH1 0x40 MLOAD DUP1 SWAP2 SUB SWAP1 RETURN JUMPDEST PUSH2 0x255 PUSH1 0x4 DUP1 CALLDATASIZE SUB DUP2 ADD SWAP1 PUSH2 0x250 SWAP2 SWAP1 PUSH2 0x188E JUMP JUMPDEST PUSH2 0x7CB JUMP JUMPDEST PUSH1 0x40 MLOAD PUSH2 0x262 SWAP2 SWAP1 PUSH2 0x2038 JUMP JUMPDEST PUSH1 0x40 MLOAD DUP1 SWAP2 SUB SWAP1 RETURN JUMPDEST PUSH2 0x273 PUSH2 0x883 JUMP JUMPDEST STOP JUMPDEST PUSH2 0x27D PUSH2 0x988 JUMP JUMPDEST PUSH1 0x40 MLOAD PUSH2 0x28A SWAP2 SWAP1 PUSH2 0x1DD4 JUMP JUMPDEST PUSH1 0x40 MLOAD DUP1 SWAP2 SUB SWAP1 RETURN JUMPDEST PUSH2 0x29B PUSH2 0x9B1 JUMP JUMPDEST PUSH1 0x40 MLOAD PUSH2 0x2A8 SWAP2 SWAP1 PUSH2 0x1E3B JUMP JUMPDEST PUSH1 0x40 MLOAD DUP1 SWAP2 SUB SWAP1 RETURN JUMPDEST PUSH2 0x2B9 PUSH2 0xA0F JUMP JUMPDEST PUSH1 0x40 MLOAD PUSH2 0x2C6 SWAP2 SWAP1 PUSH2 0x1E56 JUMP JUMPDEST PUSH1 0x40 MLOAD DUP1 SWAP2 SUB SWAP1 RETURN JUMPDEST PUSH2 0x2E9 PUSH1 0x4 DUP1 CALLDATASIZE SUB DUP2 ADD SWAP1 PUSH2 0x2E4 SWAP2 SWAP1 PUSH2 0x19D1 JUMP JUMPDEST PUSH2 0xAA1 JUMP JUMPDEST STOP JUMPDEST PUSH2 0x305 PUSH1 0x4 DUP1 CALLDATASIZE SUB DUP2 ADD SWAP1 PUSH2 0x300 SWAP2 SWAP1 PUSH2 0x194E JUMP JUMPDEST PUSH2 0xAB7 JUMP JUMPDEST STOP JUMPDEST PUSH2 0x321 PUSH1 0x4 DUP1 CALLDATASIZE SUB DUP2 ADD SWAP1 PUSH2 0x31C SWAP2 SWAP1 PUSH2 0x1AAB JUMP JUMPDEST PUSH2 0xB19 JUMP JUMPDEST PUSH1 0x40 MLOAD PUSH2 0x32E SWAP2 SWAP1 PUSH2 0x1E56 JUMP JUMPDEST PUSH1 0x40 MLOAD DUP1 SWAP2 SUB SWAP1 RETURN JUMPDEST PUSH2 0x351 PUSH1 0x4 DUP1 CALLDATASIZE SUB DUP2 ADD SWAP1 PUSH2 0x34C SWAP2 SWAP1 PUSH2 0x18BB JUMP JUMPDEST PUSH2 0xBC0 JUMP JUMPDEST PUSH1 0x40 MLOAD PUSH2 0x35E SWAP2 SWAP1 PUSH2 0x1E3B JUMP JUMPDEST PUSH1 0x40 MLOAD DUP1 SWAP2 SUB SWAP1 RETURN JUMPDEST PUSH2 0x381 PUSH1 0x4 DUP1 CALLDATASIZE SUB DUP2 ADD SWAP1 PUSH2 0x37C SWAP2 SWAP1 PUSH2 0x188E JUMP JUMPDEST PUSH2 0xC54 JUMP JUMPDEST STOP JUMPDEST PUSH1 0x0 PUSH32 0x80AC58CD00000000000000000000000000000000000000000000000000000000 PUSH28 0xFFFFFFFFFFFFFFFFFFFFFFFFFFFFFFFFFFFFFFFFFFFFFFFFFFFFFFFF NOT AND DUP3 PUSH28 0xFFFFFFFFFFFFFFFFFFFFFFFFFFFFFFFFFFFFFFFFFFFFFFFFFFFFFFFF NOT AND EQ DUP1 PUSH2 0x44E JUMPI POP PUSH32 0x5B5E139F00000000000000000000000000000000000000000000000000000000 PUSH28 0xFFFFFFFFFFFFFFFFFFFFFFFFFFFFFFFFFFFFFFFFFFFFFFFFFFFFFFFF NOT AND DUP3 PUSH28 0xFFFFFFFFFFFFFFFFFFFFFFFFFFFFFFFFFFFFFFFFFFFFFFFFFFFFFFFF NOT AND EQ JUMPDEST DUP1 PUSH2 0x45E JUMPI POP PUSH2 0x45D DUP3 PUSH2 0xCA7 JUMP JUMPDEST JUMPDEST SWAP1 POP SWAP2 SWAP1 POP JUMP JUMPDEST PUSH1 0x60 PUSH1 0x1 DUP1 SLOAD PUSH2 0x474 SWAP1 PUSH2 0x22BB JUMP JUMPDEST DUP1 PUSH1 0x1F ADD PUSH1 0x20 DUP1 SWAP2 DIV MUL PUSH1 0x20 ADD PUSH1 0x40 MLOAD SWAP1 DUP2 ADD PUSH1 0x40 MSTORE DUP1 SWAP3 SWAP2 SWAP1 DUP2 DUP2 MSTORE PUSH1 0x20 ADD DUP3 DUP1 SLOAD PUSH2 0x4A0 SWAP1 PUSH2 0x22BB JUMP JUMPDEST DUP1 ISZERO PUSH2 0x4ED JUMPI DUP1 PUSH1 0x1F LT PUSH2 0x4C2 JUMPI PUSH2 0x100 DUP1 DUP4 SLOAD DIV MUL DUP4 MSTORE SWAP2 PUSH1 0x20 ADD SWAP2 PUSH2 0x4ED JUMP JUMPDEST DUP3 ADD SWAP2 SWAP1 PUSH1 0x0 MSTORE PUSH1 0x20 PUSH1 0x0 KECCAK256 SWAP1 JUMPDEST DUP2 SLOAD DUP2 MSTORE SWAP1 PUSH1 0x1 ADD SWAP1 PUSH1 0x20 ADD DUP1 DUP4 GT PUSH2 0x4D0 JUMPI DUP3 SWAP1 SUB PUSH1 0x1F AND DUP3 ADD SWAP2 JUMPDEST POP POP POP POP POP SWAP1 POP SWAP1 JUMP JUMPDEST PUSH1 0x0 PUSH2 0x502 DUP3 PUSH2 0xD11 JUMP JUMPDEST PUSH2 0x541 JUMPI PUSH1 0x40 MLOAD PUSH32 0x8C379A000000000000000000000000000000000000000000000000000000000 DUP2 MSTORE PUSH1 0x4 ADD PUSH2 0x538 SWAP1 PUSH2 0x1F98 JUMP JUMPDEST PUSH1 0x40 MLOAD DUP1 SWAP2 SUB SWAP1 REVERT JUMPDEST PUSH1 0x5 PUSH1 0x0 DUP4 DUP2 MSTORE PUSH1 0x20 ADD SWAP1 DUP2 MSTORE PUSH1 0x20 ADD PUSH1 0x0 KECCAK256 PUSH1 0x0 SWAP1 SLOAD SWAP1 PUSH2 0x100 EXP SWAP1 DIV PUSH20 0xFFFFFFFFFFFFFFFFFFFFFFFFFFFFFFFFFFFFFFFF AND SWAP1 POP SWAP2 SWAP1 POP JUMP JUMPDEST PUSH1 0x0 PUSH2 0x587 DUP3 PUSH2 0x719 JUMP JUMPDEST SWAP1 POP DUP1 PUSH20 0xFFFFFFFFFFFFFFFFFFFFFFFFFFFFFFFFFFFFFFFF AND DUP4 PUSH20 0xFFFFFFFFFFFFFFFFFFFFFFFFFFFFFFFFFFFFFFFF AND EQ ISZERO PUSH2 0x5F8 JUMPI PUSH1 0x40 MLOAD PUSH32 0x8C379A000000000000000000000000000000000000000000000000000000000 DUP2 MSTORE PUSH1 0x4 ADD PUSH2 0x5EF SWAP1 PUSH2 0x1FF8 JUMP JUMPDEST PUSH1 0x40 MLOAD DUP1 SWAP2 SUB SWAP1 REVERT JUMPDEST DUP1 PUSH20 0xFFFFFFFFFFFFFFFFFFFFFFFFFFFFFFFFFFFFFFFF AND PUSH2 0x617 PUSH2 0xD7D JUMP JUMPDEST PUSH20 0xFFFFFFFFFFFFFFFFFFFFFFFFFFFFFFFFFFFFFFFF AND EQ DUP1 PUSH2 0x646 JUMPI POP PUSH2 0x645 DUP2 PUSH2 0x640 PUSH2 0xD7D JUMP JUMPDEST PUSH2 0xBC0 JUMP JUMPDEST JUMPDEST PUSH2 0x685 JUMPI PUSH1 0x40 MLOAD PUSH32 0x8C379A000000000000000000000000000000000000000000000000000000000 DUP2 MSTORE PUSH1 0x4 ADD PUSH2 0x67C SWAP1 PUSH2 0x1F38 JUMP JUMPDEST PUSH1 0x40 MLOAD DUP1 SWAP2 SUB SWAP1 REVERT JUMPDEST PUSH2 0x68F DUP4 DUP4 PUSH2 0xD85 JUMP JUMPDEST POP POP POP JUMP JUMPDEST PUSH2 0x6A5 PUSH2 0x69F PUSH2 0xD7D JUMP JUMPDEST DUP3 PUSH2 0xE3E JUMP JUMPDEST PUSH2 0x6E4 JUMPI PUSH1 0x40 MLOAD PUSH32 0x8C379A000000000000000000000000000000000000000000000000000000000 DUP2 MSTORE PUSH1 0x4 ADD PUSH2 0x6DB SWAP1 PUSH2 0x2018 JUMP JUMPDEST PUSH1 0x40 MLOAD DUP1 SWAP2 SUB SWAP1 REVERT JUMPDEST PUSH2 0x6EF DUP4 DUP4 DUP4 PUSH2 0xF1C JUMP JUMPDEST POP POP POP JUMP JUMPDEST PUSH1 0x0 SWAP1 JUMP JUMPDEST PUSH2 0x714 DUP4 DUP4 DUP4 PUSH1 0x40 MLOAD DUP1 PUSH1 0x20 ADD PUSH1 0x40 MSTORE DUP1 PUSH1 0x0 DUP2 MSTORE POP PUSH2 0xAB7 JUMP JUMPDEST POP POP POP JUMP JUMPDEST PUSH1 0x0 DUP1 PUSH1 0x3 PUSH1 0x0 DUP5 DUP2 MSTORE PUSH1 0x20 ADD SWAP1 DUP2 MSTORE PUSH1 0x20 ADD PUSH1 0x0 KECCAK256 PUSH1 0x0 SWAP1 SLOAD SWAP1 PUSH2 0x100 EXP SWAP1 DIV PUSH20 0xFFFFFFFFFFFFFFFFFFFFFFFFFFFFFFFFFFFFFFFF AND SWAP1 POP PUSH1 0x0 PUSH20 0xFFFFFFFFFFFFFFFFFFFFFFFFFFFFFFFFFFFFFFFF AND DUP2 PUSH20 0xFFFFFFFFFFFFFFFFFFFFFFFFFFFFFFFFFFFFFFFF AND EQ ISZERO PUSH2 0x7C2 JUMPI PUSH1 0x40 MLOAD PUSH32 0x8C379A000000000000000000000000000000000000000000000000000000000 DUP2 MSTORE PUSH1 0x4 ADD PUSH2 0x7B9 SWAP1 PUSH2 0x1F78 JUMP JUMPDEST PUSH1 0x40 MLOAD DUP1 SWAP2 SUB SWAP1 REVERT JUMPDEST DUP1 SWAP2 POP POP SWAP2 SWAP1 POP JUMP JUMPDEST PUSH1 0x0 DUP1 PUSH20 0xFFFFFFFFFFFFFFFFFFFFFFFFFFFFFFFFFFFFFFFF AND DUP3 PUSH20 0xFFFFFFFFFFFFFFFFFFFFFFFFFFFFFFFFFFFFFFFF AND EQ ISZERO PUSH2 0x83C JUMPI PUSH1 0x40 MLOAD PUSH32 0x8C379A000000000000000000000000000000000000000000000000000000000 DUP2 MSTORE PUSH1 0x4 ADD PUSH2 0x833 SWAP1 PUSH2 0x1F58 JUMP JUMPDEST PUSH1 0x40 MLOAD DUP1 SWAP2 SUB SWAP1 REVERT JUMPDEST PUSH1 0x4 PUSH1 0x0 DUP4 PUSH20 0xFFFFFFFFFFFFFFFFFFFFFFFFFFFFFFFFFFFFFFFF AND PUSH20 0xFFFFFFFFFFFFFFFFFFFFFFFFFFFFFFFFFFFFFFFF AND DUP2 MSTORE PUSH1 0x20 ADD SWAP1 DUP2 MSTORE PUSH1 0x20 ADD PUSH1 0x0 KECCAK256 SLOAD SWAP1 POP SWAP2 SWAP1 POP JUMP JUMPDEST PUSH2 0x88B PUSH2 0x9B1 JUMP JUMPDEST PUSH2 0x8CA JUMPI PUSH1 0x40 MLOAD PUSH32 0x8C379A000000000000000000000000000000000000000000000000000000000 DUP2 MSTORE PUSH1 0x4 ADD PUSH2 0x8C1 SWAP1 PUSH2 0x1FB8 JUMP JUMPDEST PUSH1 0x40 MLOAD DUP1 SWAP2 SUB SWAP1 REVERT JUMPDEST PUSH1 0x0 PUSH20 0xFFFFFFFFFFFFFFFFFFFFFFFFFFFFFFFFFFFFFFFF AND PUSH1 0x0 DUP1 SLOAD SWAP1 PUSH2 0x100 EXP SWAP1 DIV PUSH20 0xFFFFFFFFFFFFFFFFFFFFFFFFFFFFFFFFFFFFFFFF AND PUSH20 0xFFFFFFFFFFFFFFFFFFFFFFFFFFFFFFFFFFFFFFFF AND PUSH32 0x8BE0079C531659141344CD1FD0A4F28419497F9722A3DAAFE3B4186F6B6457E0 PUSH1 0x40 MLOAD PUSH1 0x40 MLOAD DUP1 SWAP2 SUB SWAP1 LOG3 PUSH1 0x0 DUP1 PUSH1 0x0 PUSH2 0x100 EXP DUP2 SLOAD DUP2 PUSH20 0xFFFFFFFFFFFFFFFFFFFFFFFFFFFFFFFFFFFFFFFF MUL NOT AND SWAP1 DUP4 PUSH20 0xFFFFFFFFFFFFFFFFFFFFFFFFFFFFFFFFFFFFFFFF AND MUL OR SWAP1 SSTORE POP JUMP JUMPDEST PUSH1 0x0 DUP1 PUSH1 0x0 SWAP1 SLOAD SWAP1 PUSH2 0x100 EXP SWAP1 DIV PUSH20 0xFFFFFFFFFFFFFFFFFFFFFFFFFFFFFFFFFFFFFFFF AND SWAP1 POP SWAP1 JUMP JUMPDEST PUSH1 0x0 DUP1 PUSH1 0x0 SWAP1 SLOAD SWAP1 PUSH2 0x100 EXP SWAP1 DIV PUSH20 0xFFFFFFFFFFFFFFFFFFFFFFFFFFFFFFFFFFFFFFFF AND PUSH20 0xFFFFFFFFFFFFFFFFFFFFFFFFFFFFFFFFFFFFFFFF AND PUSH2 0x9F3 PUSH2 0xD7D JUMP JUMPDEST PUSH20 0xFFFFFFFFFFFFFFFFFFFFFFFFFFFFFFFFFFFFFFFF AND EQ SWAP1 POP SWAP1 JUMP JUMPDEST PUSH1 0x60 PUSH1 0x2 DUP1 SLOAD PUSH2 0xA1E SWAP1 PUSH2 0x22BB JUMP JUMPDEST DUP1 PUSH1 0x1F ADD PUSH1 0x20 DUP1 SWAP2 DIV MUL PUSH1 0x20 ADD PUSH1 0x40 MLOAD SWAP1 DUP2 ADD PUSH1 0x40 MSTORE DUP1 SWAP3 SWAP2 SWAP1 DUP2 DUP2 MSTORE PUSH1 0x20 ADD DUP3 DUP1 SLOAD PUSH2 0xA4A SWAP1 PUSH2 0x22BB JUMP JUMPDEST DUP1 ISZERO PUSH2 0xA97 JUMPI DUP1 PUSH1 0x1F LT PUSH2 0xA6C JUMPI PUSH2 0x100 DUP1 DUP4 SLOAD DIV MUL DUP4 MSTORE SWAP2 PUSH1 0x20 ADD SWAP2 PUSH2 0xA97 JUMP JUMPDEST DUP3 ADD SWAP2 SWAP1 PUSH1 0x0 MSTORE PUSH1 0x20 PUSH1 0x0 KECCAK256 SWAP1 JUMPDEST DUP2 SLOAD DUP2 MSTORE SWAP1 PUSH1 0x1 ADD SWAP1 PUSH1 0x20 ADD DUP1 DUP4 GT PUSH2 0xA7A JUMPI DUP3 SWAP1 SUB PUSH1 0x1F AND DUP3 ADD SWAP2 JUMPDEST POP POP POP POP POP SWAP1 POP SWAP1 JUMP JUMPDEST PUSH2 0xAB3 PUSH2 0xAAC PUSH2 0xD7D JUMP JUMPDEST DUP4 DUP4 PUSH2 0x1183 JUMP JUMPDEST POP POP JUMP JUMPDEST PUSH2 0xAC8 PUSH2 0xAC2 PUSH2 0xD7D JUMP JUMPDEST DUP4 PUSH2 0xE3E JUMP JUMPDEST PUSH2 0xB07 JUMPI PUSH1 0x40 MLOAD PUSH32 0x8C379A000000000000000000000000000000000000000000000000000000000 DUP2 MSTORE PUSH1 0x4 ADD PUSH2 0xAFE SWAP1 PUSH2 0x2018 JUMP JUMPDEST PUSH1 0x40 MLOAD DUP1 SWAP2 SUB SWAP1 REVERT JUMPDEST PUSH2 0xB13 DUP5 DUP5 DUP5 DUP5 PUSH2 0x12F0 JUMP JUMPDEST POP POP POP POP JUMP JUMPDEST PUSH1 0x60 PUSH2 0xB24 DUP3 PUSH2 0xD11 JUMP JUMPDEST PUSH2 0xB63 JUMPI PUSH1 0x40 MLOAD PUSH32 0x8C379A000000000000000000000000000000000000000000000000000000000 DUP2 MSTORE PUSH1 0x4 ADD PUSH2 0xB5A SWAP1 PUSH2 0x1FD8 JUMP JUMPDEST PUSH1 0x40 MLOAD DUP1 SWAP2 SUB SWAP1 REVERT JUMPDEST PUSH1 0x0 PUSH2 0xB6D PUSH2 0x134C JUMP JUMPDEST SWAP1 POP PUSH1 0x0 DUP2 MLOAD GT PUSH2 0xB8D JUMPI PUSH1 0x40 MLOAD DUP1 PUSH1 0x20 ADD PUSH1 0x40 MSTORE DUP1 PUSH1 0x0 DUP2 MSTORE POP PUSH2 0xBB8 JUMP JUMPDEST DUP1 PUSH2 0xB97 DUP5 PUSH2 0x1363 JUMP JUMPDEST PUSH1 0x40 MLOAD PUSH1 0x20 ADD PUSH2 0xBA8 SWAP3 SWAP2 SWAP1 PUSH2 0x1DB0 JUMP JUMPDEST PUSH1 0x40 MLOAD PUSH1 0x20 DUP2 DUP4 SUB SUB DUP2 MSTORE SWAP1 PUSH1 0x40 MSTORE JUMPDEST SWAP2 POP POP SWAP2 SWAP1 POP JUMP JUMPDEST PUSH1 0x0 PUSH1 0x6 PUSH1 0x0 DUP5 PUSH20 0xFFFFFFFFFFFFFFFFFFFFFFFFFFFFFFFFFFFFFFFF AND PUSH20 0xFFFFFFFFFFFFFFFFFFFFFFFFFFFFFFFFFFFFFFFF AND DUP2 MSTORE PUSH1 0x20 ADD SWAP1 DUP2 MSTORE PUSH1 0x20 ADD PUSH1 0x0 KECCAK256 PUSH1 0x0 DUP4 PUSH20 0xFFFFFFFFFFFFFFFFFFFFFFFFFFFFFFFFFFFFFFFF AND PUSH20 0xFFFFFFFFFFFFFFFFFFFFFFFFFFFFFFFFFFFFFFFF AND DUP2 MSTORE PUSH1 0x20 ADD SWAP1 DUP2 MSTORE PUSH1 0x20 ADD PUSH1 0x0 KECCAK256 PUSH1 0x0 SWAP1 SLOAD SWAP1 PUSH2 0x100 EXP SWAP1 DIV PUSH1 0xFF AND SWAP1 POP SWAP3 SWAP2 POP POP JUMP JUMPDEST PUSH2 0xC5C PUSH2 0x9B1 JUMP JUMPDEST PUSH2 0xC9B JUMPI PUSH1 0x40 MLOAD PUSH32 0x8C379A000000000000000000000000000000000000000000000000000000000 DUP2 MSTORE PUSH1 0x4 ADD PUSH2 0xC92 SWAP1 PUSH2 0x1FB8 JUMP JUMPDEST PUSH1 0x40 MLOAD DUP1 SWAP2 SUB SWAP1 REVERT JUMPDEST PUSH2 0xCA4 DUP2 PUSH2 0x14C4 JUMP JUMPDEST POP JUMP JUMPDEST PUSH1 0x0 PUSH32 0x1FFC9A700000000000000000000000000000000000000000000000000000000 PUSH28 0xFFFFFFFFFFFFFFFFFFFFFFFFFFFFFFFFFFFFFFFFFFFFFFFFFFFFFFFF NOT AND DUP3 PUSH28 0xFFFFFFFFFFFFFFFFFFFFFFFFFFFFFFFFFFFFFFFFFFFFFFFFFFFFFFFF NOT AND EQ SWAP1 POP SWAP2 SWAP1 POP JUMP JUMPDEST PUSH1 0x0 DUP1 PUSH20 0xFFFFFFFFFFFFFFFFFFFFFFFFFFFFFFFFFFFFFFFF AND PUSH1 0x3 PUSH1 0x0 DUP5 DUP2 MSTORE PUSH1 0x20 ADD SWAP1 DUP2 MSTORE PUSH1 0x20 ADD PUSH1 0x0 KECCAK256 PUSH1 0x0 SWAP1 SLOAD SWAP1 PUSH2 0x100 EXP SWAP1 DIV PUSH20 0xFFFFFFFFFFFFFFFFFFFFFFFFFFFFFFFFFFFFFFFF AND PUSH20 0xFFFFFFFFFFFFFFFFFFFFFFFFFFFFFFFFFFFFFFFF AND EQ ISZERO SWAP1 POP SWAP2 SWAP1 POP JUMP JUMPDEST PUSH1 0x0 CALLER SWAP1 POP SWAP1 JUMP JUMPDEST DUP2 PUSH1 0x5 PUSH1 0x0 DUP4 DUP2 MSTORE PUSH1 0x20 ADD SWAP1 DUP2 MSTORE PUSH1 0x20 ADD PUSH1 0x0 KECCAK256 PUSH1 0x0 PUSH2 0x100 EXP DUP2 SLOAD DUP2 PUSH20 0xFFFFFFFFFFFFFFFFFFFFFFFFFFFFFFFFFFFFFFFF MUL NOT AND SWAP1 DUP4 PUSH20 0xFFFFFFFFFFFFFFFFFFFFFFFFFFFFFFFFFFFFFFFF AND MUL OR SWAP1 SSTORE POP DUP1 DUP3 PUSH20 0xFFFFFFFFFFFFFFFFFFFFFFFFFFFFFFFFFFFFFFFF AND PUSH2 0xDF8 DUP4 PUSH2 0x719 JUMP JUMPDEST PUSH20 0xFFFFFFFFFFFFFFFFFFFFFFFFFFFFFFFFFFFFFFFF AND PUSH32 0x8C5BE1E5EBEC7D5BD14F71427D1E84F3DD0314C0F7B2291E5B200AC8C7C3B925 PUSH1 0x40 MLOAD PUSH1 0x40 MLOAD DUP1 SWAP2 SUB SWAP1 LOG4 POP POP JUMP JUMPDEST PUSH1 0x0 PUSH2 0xE49 DUP3 PUSH2 0xD11 JUMP JUMPDEST PUSH2 0xE88 JUMPI PUSH1 0x40 MLOAD PUSH32 0x8C379A000000000000000000000000000000000000000000000000000000000 DUP2 MSTORE PUSH1 0x4 ADD PUSH2 0xE7F SWAP1 PUSH2 0x1F18 JUMP JUMPDEST PUSH1 0x40 MLOAD DUP1 SWAP2 SUB SWAP1 REVERT JUMPDEST PUSH1 0x0 PUSH2 0xE93 DUP4 PUSH2 0x719 JUMP JUMPDEST SWAP1 POP DUP1 PUSH20 0xFFFFFFFFFFFFFFFFFFFFFFFFFFFFFFFFFFFFFFFF AND DUP5 PUSH20 0xFFFFFFFFFFFFFFFFFFFFFFFFFFFFFFFFFFFFFFFF AND EQ DUP1 PUSH2 0xF02 JUMPI POP DUP4 PUSH20 0xFFFFFFFFFFFFFFFFFFFFFFFFFFFFFFFFFFFFFFFF AND PUSH2 0xEEA DUP5 PUSH2 0x4F7 JUMP JUMPDEST PUSH20 0xFFFFFFFFFFFFFFFFFFFFFFFFFFFFFFFFFFFFFFFF AND EQ JUMPDEST DUP1 PUSH2 0xF13 JUMPI POP PUSH2 0xF12 DUP2 DUP6 PUSH2 0xBC0 JUMP JUMPDEST JUMPDEST SWAP2 POP POP SWAP3 SWAP2 POP POP JUMP JUMPDEST DUP3 PUSH20 0xFFFFFFFFFFFFFFFFFFFFFFFFFFFFFFFFFFFFFFFF AND PUSH2 0xF3C DUP3 PUSH2 0x719 JUMP JUMPDEST PUSH20 0xFFFFFFFFFFFFFFFFFFFFFFFFFFFFFFFFFFFFFFFF AND EQ PUSH2 0xF92 JUMPI PUSH1 0x40 MLOAD PUSH32 0x8C379A000000000000000000000000000000000000000000000000000000000 DUP2 MSTORE PUSH1 0x4 ADD PUSH2 0xF89 SWAP1 PUSH2 0x1EB8 JUMP JUMPDEST PUSH1 0x40 MLOAD DUP1 SWAP2 SUB SWAP1 REVERT JUMPDEST PUSH1 0x0 PUSH20 0xFFFFFFFFFFFFFFFFFFFFFFFFFFFFFFFFFFFFFFFF AND DUP3 PUSH20 0xFFFFFFFFFFFFFFFFFFFFFFFFFFFFFFFFFFFFFFFF AND EQ ISZERO PUSH2 0x1002 JUMPI PUSH1 0x40 MLOAD PUSH32 0x8C379A000000000000000000000000000000000000000000000000000000000 DUP2 MSTORE PUSH1 0x4 ADD PUSH2 0xFF9 SWAP1 PUSH2 0x1ED8 JUMP JUMPDEST PUSH1 0x40 MLOAD DUP1 SWAP2 SUB SWAP1 REVERT JUMPDEST PUSH2 0x100D DUP4 DUP4 DUP4 PUSH2 0x15F1 JUMP JUMPDEST PUSH2 0x1018 PUSH1 0x0 DUP3 PUSH2 0xD85 JUMP JUMPDEST PUSH1 0x1 PUSH1 0x4 PUSH1 0x0 DUP6 PUSH20 0xFFFFFFFFFFFFFFFFFFFFFFFFFFFFFFFFFFFFFFFF AND PUSH20 0xFFFFFFFFFFFFFFFFFFFFFFFFFFFFFFFFFFFFFFFF AND DUP2 MSTORE PUSH1 0x20 ADD SWAP1 DUP2 MSTORE PUSH1 0x20 ADD PUSH1 0x0 KECCAK256 PUSH1 0x0 DUP3 DUP3 SLOAD PUSH2 0x1068 SWAP2 SWAP1 PUSH2 0x218E JUMP JUMPDEST SWAP3 POP POP DUP2 SWAP1 SSTORE POP PUSH1 0x1 PUSH1 0x4 PUSH1 0x0 DUP5 PUSH20 0xFFFFFFFFFFFFFFFFFFFFFFFFFFFFFFFFFFFFFFFF AND PUSH20 0xFFFFFFFFFFFFFFFFFFFFFFFFFFFFFFFFFFFFFFFF AND DUP2 MSTORE PUSH1 0x20 ADD SWAP1 DUP2 MSTORE PUSH1 0x20 ADD PUSH1 0x0 KECCAK256 PUSH1 0x0 DUP3 DUP3 SLOAD PUSH2 0x10BF SWAP2 SWAP1 PUSH2 0x2107 JUMP JUMPDEST SWAP3 POP POP DUP2 SWAP1 SSTORE POP DUP2 PUSH1 0x3 PUSH1 0x0 DUP4 DUP2 MSTORE PUSH1 0x20 ADD SWAP1 DUP2 MSTORE PUSH1 0x20 ADD PUSH1 0x0 KECCAK256 PUSH1 0x0 PUSH2 0x100 EXP DUP2 SLOAD DUP2 PUSH20 0xFFFFFFFFFFFFFFFFFFFFFFFFFFFFFFFFFFFFFFFF MUL NOT AND SWAP1 DUP4 PUSH20 0xFFFFFFFFFFFFFFFFFFFFFFFFFFFFFFFFFFFFFFFF AND MUL OR SWAP1 SSTORE POP DUP1 DUP3 PUSH20 0xFFFFFFFFFFFFFFFFFFFFFFFFFFFFFFFFFFFFFFFF AND DUP5 PUSH20 0xFFFFFFFFFFFFFFFFFFFFFFFFFFFFFFFFFFFFFFFF AND PUSH32 0xDDF252AD1BE2C89B69C2B068FC378DAA952BA7F163C4A11628F55A4DF523B3EF PUSH1 0x40 MLOAD PUSH1 0x40 MLOAD DUP1 SWAP2 SUB SWAP1 LOG4 PUSH2 0x117E DUP4 DUP4 DUP4 PUSH2 0x15F6 JUMP JUMPDEST POP POP POP JUMP JUMPDEST DUP2 PUSH20 0xFFFFFFFFFFFFFFFFFFFFFFFFFFFFFFFFFFFFFFFF AND DUP4 PUSH20 0xFFFFFFFFFFFFFFFFFFFFFFFFFFFFFFFFFFFFFFFF AND EQ ISZERO PUSH2 0x11F2 JUMPI PUSH1 0x40 MLOAD PUSH32 0x8C379A000000000000000000000000000000000000000000000000000000000 DUP2 MSTORE PUSH1 0x4 ADD PUSH2 0x11E9 SWAP1 PUSH2 0x1EF8 JUMP JUMPDEST PUSH1 0x40 MLOAD DUP1 SWAP2 SUB SWAP1 REVERT JUMPDEST DUP1 PUSH1 0x6 PUSH1 0x0 DUP6 PUSH20 0xFFFFFFFFFFFFFFFFFFFFFFFFFFFFFFFFFFFFFFFF AND PUSH20 0xFFFFFFFFFFFFFFFFFFFFFFFFFFFFFFFFFFFFFFFF AND DUP2 MSTORE PUSH1 0x20 ADD SWAP1 DUP2 MSTORE PUSH1 0x20 ADD PUSH1 0x0 KECCAK256 PUSH1 0x0 DUP5 PUSH20 0xFFFFFFFFFFFFFFFFFFFFFFFFFFFFFFFFFFFFFFFF AND PUSH20 0xFFFFFFFFFFFFFFFFFFFFFFFFFFFFFFFFFFFFFFFF AND DUP2 MSTORE PUSH1 0x20 ADD SWAP1 DUP2 MSTORE PUSH1 0x20 ADD PUSH1 0x0 KECCAK256 PUSH1 0x0 PUSH2 0x100 EXP DUP2 SLOAD DUP2 PUSH1 0xFF MUL NOT AND SWAP1 DUP4 ISZERO ISZERO MUL OR SWAP1 SSTORE POP DUP2 PUSH20 0xFFFFFFFFFFFFFFFFFFFFFFFFFFFFFFFFFFFFFFFF AND DUP4 PUSH20 0xFFFFFFFFFFFFFFFFFFFFFFFFFFFFFFFFFFFFFFFF AND PUSH32 0x17307EAB39AB6107E8899845AD3D59BD9653F200F220920489CA2B5937696C31 DUP4 PUSH1 0x40 MLOAD PUSH2 0x12E3 SWAP2 SWAP1 PUSH2 0x1E3B JUMP JUMPDEST PUSH1 0x40 MLOAD DUP1 SWAP2 SUB SWAP1 LOG3 POP POP POP JUMP JUMPDEST PUSH2 0x12FB DUP5 DUP5 DUP5 PUSH2 0xF1C JUMP JUMPDEST PUSH2 0x1307 DUP5 DUP5 DUP5 DUP5 PUSH2 0x15FB JUMP JUMPDEST PUSH2 0x1346 JUMPI PUSH1 0x40 MLOAD PUSH32 0x8C379A000000000000000000000000000000000000000000000000000000000 DUP2 MSTORE PUSH1 0x4 ADD PUSH2 0x133D SWAP1 PUSH2 0x1E78 JUMP JUMPDEST PUSH1 0x40 MLOAD DUP1 SWAP2 SUB SWAP1 REVERT JUMPDEST POP POP POP POP JUMP JUMPDEST PUSH1 0x60 PUSH1 0x40 MLOAD DUP1 PUSH1 0x20 ADD PUSH1 0x40 MSTORE DUP1 PUSH1 0x0 DUP2 MSTORE POP SWAP1 POP SWAP1 JUMP JUMPDEST PUSH1 0x60 PUSH1 0x0 DUP3 EQ ISZERO PUSH2 0x13AB JUMPI PUSH1 0x40 MLOAD DUP1 PUSH1 0x40 ADD PUSH1 0x40 MSTORE DUP1 PUSH1 0x1 DUP2 MSTORE PUSH1 0x20 ADD PUSH32 0x3000000000000000000000000000000000000000000000000000000000000000 DUP2 MSTORE POP SWAP1 POP PUSH2 0x14BF JUMP JUMPDEST PUSH1 0x0 DUP3 SWAP1 POP PUSH1 0x0 JUMPDEST PUSH1 0x0 DUP3 EQ PUSH2 0x13DD JUMPI DUP1 DUP1 PUSH2 0x13C6 SWAP1 PUSH2 0x231E JUMP JUMPDEST SWAP2 POP POP PUSH1 0xA DUP3 PUSH2 0x13D6 SWAP2 SWAP1 PUSH2 0x215D JUMP JUMPDEST SWAP2 POP PUSH2 0x13B3 JUMP JUMPDEST PUSH1 0x0 DUP2 PUSH8 0xFFFFFFFFFFFFFFFF DUP2 GT ISZERO PUSH2 0x13F9 JUMPI PUSH2 0x13F8 PUSH2 0x2454 JUMP JUMPDEST JUMPDEST PUSH1 0x40 MLOAD SWAP1 DUP1 DUP3 MSTORE DUP1 PUSH1 0x1F ADD PUSH1 0x1F NOT AND PUSH1 0x20 ADD DUP3 ADD PUSH1 0x40 MSTORE DUP1 ISZERO PUSH2 0x142B JUMPI DUP2 PUSH1 0x20 ADD PUSH1 0x1 DUP3 MUL DUP1 CALLDATASIZE DUP4 CALLDATACOPY DUP1 DUP3 ADD SWAP2 POP POP SWAP1 POP JUMPDEST POP SWAP1 POP JUMPDEST PUSH1 0x0 DUP6 EQ PUSH2 0x14B8 JUMPI PUSH1 0x1 DUP3 PUSH2 0x1444 SWAP2 SWAP1 PUSH2 0x218E JUMP JUMPDEST SWAP2 POP PUSH1 0xA DUP6 PUSH2 0x1453 SWAP2 SWAP1 PUSH2 0x2367 JUMP JUMPDEST PUSH1 0x30 PUSH2 0x145F SWAP2 SWAP1 PUSH2 0x2107 JUMP JUMPDEST PUSH1 0xF8 SHL DUP2 DUP4 DUP2 MLOAD DUP2 LT PUSH2 0x1475 JUMPI PUSH2 0x1474 PUSH2 0x2425 JUMP JUMPDEST JUMPDEST PUSH1 0x20 ADD ADD SWAP1 PUSH31 0xFFFFFFFFFFFFFFFFFFFFFFFFFFFFFFFFFFFFFFFFFFFFFFFFFFFFFFFFFFFFFF NOT AND SWAP1 DUP2 PUSH1 0x0 BYTE SWAP1 MSTORE8 POP PUSH1 0xA DUP6 PUSH2 0x14B1 SWAP2 SWAP1 PUSH2 0x215D JUMP JUMPDEST SWAP5 POP PUSH2 0x142F JUMP JUMPDEST DUP1 SWAP4 POP POP POP POP JUMPDEST SWAP2 SWAP1 POP JUMP JUMPDEST PUSH1 0x0 PUSH20 0xFFFFFFFFFFFFFFFFFFFFFFFFFFFFFFFFFFFFFFFF AND DUP2 PUSH20 0xFFFFFFFFFFFFFFFFFFFFFFFFFFFFFFFFFFFFFFFF AND EQ ISZERO PUSH2 0x1534 JUMPI PUSH1 0x40 MLOAD PUSH32 0x8C379A000000000000000000000000000000000000000000000000000000000 DUP2 MSTORE PUSH1 0x4 ADD PUSH2 0x152B SWAP1 PUSH2 0x1E98 JUMP JUMPDEST PUSH1 0x40 MLOAD DUP1 SWAP2 SUB SWAP1 REVERT JUMPDEST DUP1 PUSH20 0xFFFFFFFFFFFFFFFFFFFFFFFFFFFFFFFFFFFFFFFF AND PUSH1 0x0 DUP1 SLOAD SWAP1 PUSH2 0x100 EXP SWAP1 DIV PUSH20 0xFFFFFFFFFFFFFFFFFFFFFFFFFFFFFFFFFFFFFFFF AND PUSH20 0xFFFFFFFFFFFFFFFFFFFFFFFFFFFFFFFFFFFFFFFF AND PUSH32 0x8BE0079C531659141344CD1FD0A4F28419497F9722A3DAAFE3B4186F6B6457E0 PUSH1 0x40 MLOAD PUSH1 0x40 MLOAD DUP1 SWAP2 SUB SWAP1 LOG3 DUP1 PUSH1 0x0 DUP1 PUSH2 0x100 EXP DUP2 SLOAD DUP2 PUSH20 0xFFFFFFFFFFFFFFFFFFFFFFFFFFFFFFFFFFFFFFFF MUL NOT AND SWAP1 DUP4 PUSH20 0xFFFFFFFFFFFFFFFFFFFFFFFFFFFFFFFFFFFFFFFF AND MUL OR SWAP1 SSTORE POP POP JUMP JUMPDEST POP POP POP JUMP JUMPDEST POP POP POP JUMP JUMPDEST PUSH1 0x0 PUSH2 0x161C DUP5 PUSH20 0xFFFFFFFFFFFFFFFFFFFFFFFFFFFFFFFFFFFFFFFF AND PUSH2 0x1792 JUMP JUMPDEST ISZERO PUSH2 0x1785 JUMPI DUP4 PUSH20 0xFFFFFFFFFFFFFFFFFFFFFFFFFFFFFFFFFFFFFFFF AND PUSH4 0x150B7A02 PUSH2 0x1645 PUSH2 0xD7D JUMP JUMPDEST DUP8 DUP7 DUP7 PUSH1 0x40 MLOAD DUP6 PUSH4 0xFFFFFFFF AND PUSH1 0xE0 SHL DUP2 MSTORE PUSH1 0x4 ADD PUSH2 0x1667 SWAP5 SWAP4 SWAP3 SWAP2 SWAP1 PUSH2 0x1DEF JUMP JUMPDEST PUSH1 0x20 PUSH1 0x40 MLOAD DUP1 DUP4 SUB DUP2 PUSH1 0x0 DUP8 DUP1 EXTCODESIZE ISZERO DUP1 ISZERO PUSH2 0x1681 JUMPI PUSH1 0x0 DUP1 REVERT JUMPDEST POP GAS CALL SWAP3 POP POP POP DUP1 ISZERO PUSH2 0x16B2 JUMPI POP PUSH1 0x40 MLOAD RETURNDATASIZE PUSH1 0x1F NOT PUSH1 0x1F DUP3 ADD AND DUP3 ADD DUP1 PUSH1 0x40 MSTORE POP DUP2 ADD SWAP1 PUSH2 0x16AF SWAP2 SWAP1 PUSH2 0x1A7E JUMP JUMPDEST PUSH1 0x1 JUMPDEST PUSH2 0x1735 JUMPI RETURNDATASIZE DUP1 PUSH1 0x0 DUP2 EQ PUSH2 0x16E2 JUMPI PUSH1 0x40 MLOAD SWAP2 POP PUSH1 0x1F NOT PUSH1 0x3F RETURNDATASIZE ADD AND DUP3 ADD PUSH1 0x40 MSTORE RETURNDATASIZE DUP3 MSTORE RETURNDATASIZE PUSH1 0x0 PUSH1 0x20 DUP5 ADD RETURNDATACOPY PUSH2 0x16E7 JUMP JUMPDEST PUSH1 0x60 SWAP2 POP JUMPDEST POP PUSH1 0x0 DUP2 MLOAD EQ ISZERO PUSH2 0x172D JUMPI PUSH1 0x40 MLOAD PUSH32 0x8C379A000000000000000000000000000000000000000000000000000000000 DUP2 MSTORE PUSH1 0x4 ADD PUSH2 0x1724 SWAP1 PUSH2 0x1E78 JUMP JUMPDEST PUSH1 0x40 MLOAD DUP1 SWAP2 SUB SWAP1 REVERT JUMPDEST DUP1 MLOAD DUP2 PUSH1 0x20 ADD REVERT JUMPDEST PUSH4 0x150B7A02 PUSH1 0xE0 SHL PUSH28 0xFFFFFFFFFFFFFFFFFFFFFFFFFFFFFFFFFFFFFFFFFFFFFFFFFFFFFFFF NOT AND DUP2 PUSH28 0xFFFFFFFFFFFFFFFFFFFFFFFFFFFFFFFFFFFFFFFFFFFFFFFFFFFFFFFF NOT AND EQ SWAP2 POP POP PUSH2 0x178A JUMP JUMPDEST PUSH1 0x1 SWAP1 POP JUMPDEST SWAP5 SWAP4 POP POP POP POP JUMP JUMPDEST PUSH1 0x0 DUP1 DUP3 PUSH20 0xFFFFFFFFFFFFFFFFFFFFFFFFFFFFFFFFFFFFFFFF AND EXTCODESIZE GT SWAP1 POP SWAP2 SWAP1 POP JUMP JUMPDEST PUSH1 0x0 PUSH2 0x17C8 PUSH2 0x17C3 DUP5 PUSH2 0x2093 JUMP JUMPDEST PUSH2 0x206E JUMP JUMPDEST SWAP1 POP DUP3 DUP2 MSTORE PUSH1 0x20 DUP2 ADD DUP5 DUP5 DUP5 ADD GT ISZERO PUSH2 0x17E4 JUMPI PUSH2 0x17E3 PUSH2 0x2488 JUMP JUMPDEST JUMPDEST PUSH2 0x17EF DUP5 DUP3 DUP6 PUSH2 0x2279 JUMP JUMPDEST POP SWAP4 SWAP3 POP POP POP JUMP JUMPDEST PUSH1 0x0 DUP2 CALLDATALOAD SWAP1 POP PUSH2 0x1806 DUP2 PUSH2 0x28AE JUMP JUMPDEST SWAP3 SWAP2 POP POP JUMP JUMPDEST PUSH1 0x0 DUP2 CALLDATALOAD SWAP1 POP PUSH2 0x181B DUP2 PUSH2 0x28C5 JUMP JUMPDEST SWAP3 SWAP2 POP POP JUMP JUMPDEST PUSH1 0x0 DUP2 CALLDATALOAD SWAP1 POP PUSH2 0x1830 DUP2 PUSH2 0x28DC JUMP JUMPDEST SWAP3 SWAP2 POP POP JUMP JUMPDEST PUSH1 0x0 DUP2 MLOAD SWAP1 POP PUSH2 0x1845 DUP2 PUSH2 0x28DC JUMP JUMPDEST SWAP3 SWAP2 POP POP JUMP JUMPDEST PUSH1 0x0 DUP3 PUSH1 0x1F DUP4 ADD SLT PUSH2 0x1860 JUMPI PUSH2 0x185F PUSH2 0x2483 JUMP JUMPDEST JUMPDEST DUP2 CALLDATALOAD PUSH2 0x1870 DUP5 DUP3 PUSH1 0x20 DUP7 ADD PUSH2 0x17B5 JUMP JUMPDEST SWAP2 POP POP SWAP3 SWAP2 POP POP JUMP JUMPDEST PUSH1 0x0 DUP2 CALLDATALOAD SWAP1 POP PUSH2 0x1888 DUP2 PUSH2 0x28F3 JUMP JUMPDEST SWAP3 SWAP2 POP POP JUMP JUMPDEST PUSH1 0x0 PUSH1 0x20 DUP3 DUP5 SUB SLT ISZERO PUSH2 0x18A4 JUMPI PUSH2 0x18A3 PUSH2 0x2492 JUMP JUMPDEST JUMPDEST PUSH1 0x0 PUSH2 0x18B2 DUP5 DUP3 DUP6 ADD PUSH2 0x17F7 JUMP JUMPDEST SWAP2 POP POP SWAP3 SWAP2 POP POP JUMP JUMPDEST PUSH1 0x0 DUP1 PUSH1 0x40 DUP4 DUP6 SUB SLT ISZERO PUSH2 0x18D2 JUMPI PUSH2 0x18D1 PUSH2 0x2492 JUMP JUMPDEST JUMPDEST PUSH1 0x0 PUSH2 0x18E0 DUP6 DUP3 DUP7 ADD PUSH2 0x17F7 JUMP JUMPDEST SWAP3 POP POP PUSH1 0x20 PUSH2 0x18F1 DUP6 DUP3 DUP7 ADD PUSH2 0x17F7 JUMP JUMPDEST SWAP2 POP POP SWAP3 POP SWAP3 SWAP1 POP JUMP JUMPDEST PUSH1 0x0 DUP1 PUSH1 0x0 PUSH1 0x60 DUP5 DUP7 SUB SLT ISZERO PUSH2 0x1914 JUMPI PUSH2 0x1913 PUSH2 0x2492 JUMP JUMPDEST JUMPDEST PUSH1 0x0 PUSH2 0x1922 DUP7 DUP3 DUP8 ADD PUSH2 0x17F7 JUMP JUMPDEST SWAP4 POP POP PUSH1 0x20 PUSH2 0x1933 DUP7 DUP3 DUP8 ADD PUSH2 0x17F7 JUMP JUMPDEST SWAP3 POP POP PUSH1 0x40 PUSH2 0x1944 DUP7 DUP3 DUP8 ADD PUSH2 0x1879 JUMP JUMPDEST SWAP2 POP POP SWAP3 POP SWAP3 POP SWAP3 JUMP JUMPDEST PUSH1 0x0 DUP1 PUSH1 0x0 DUP1 PUSH1 0x80 DUP6 DUP8 SUB SLT ISZERO PUSH2 0x1968 JUMPI PUSH2 0x1967 PUSH2 0x2492 JUMP JUMPDEST JUMPDEST PUSH1 0x0 PUSH2 0x1976 DUP8 DUP3 DUP9 ADD PUSH2 0x17F7 JUMP JUMPDEST SWAP5 POP POP PUSH1 0x20 PUSH2 0x1987 DUP8 DUP3 DUP9 ADD PUSH2 0x17F7 JUMP JUMPDEST SWAP4 POP POP PUSH1 0x40 PUSH2 0x1998 DUP8 DUP3 DUP9 ADD PUSH2 0x1879 JUMP JUMPDEST SWAP3 POP POP PUSH1 0x60 DUP6 ADD CALLDATALOAD PUSH8 0xFFFFFFFFFFFFFFFF DUP2 GT ISZERO PUSH2 0x19B9 JUMPI PUSH2 0x19B8 PUSH2 0x248D JUMP JUMPDEST JUMPDEST PUSH2 0x19C5 DUP8 DUP3 DUP9 ADD PUSH2 0x184B JUMP JUMPDEST SWAP2 POP POP SWAP3 SWAP6 SWAP2 SWAP5 POP SWAP3 POP JUMP JUMPDEST PUSH1 0x0 DUP1 PUSH1 0x40 DUP4 DUP6 SUB SLT ISZERO PUSH2 0x19E8 JUMPI PUSH2 0x19E7 PUSH2 0x2492 JUMP JUMPDEST JUMPDEST PUSH1 0x0 PUSH2 0x19F6 DUP6 DUP3 DUP7 ADD PUSH2 0x17F7 JUMP JUMPDEST SWAP3 POP POP PUSH1 0x20 PUSH2 0x1A07 DUP6 DUP3 DUP7 ADD PUSH2 0x180C JUMP JUMPDEST SWAP2 POP POP SWAP3 POP SWAP3 SWAP1 POP JUMP JUMPDEST PUSH1 0x0 DUP1 PUSH1 0x40 DUP4 DUP6 SUB SLT ISZERO PUSH2 0x1A28 JUMPI PUSH2 0x1A27 PUSH2 0x2492 JUMP JUMPDEST JUMPDEST PUSH1 0x0 PUSH2 0x1A36 DUP6 DUP3 DUP7 ADD PUSH2 0x17F7 JUMP JUMPDEST SWAP3 POP POP PUSH1 0x20 PUSH2 0x1A47 DUP6 DUP3 DUP7 ADD PUSH2 0x1879 JUMP JUMPDEST SWAP2 POP POP SWAP3 POP SWAP3 SWAP1 POP JUMP JUMPDEST PUSH1 0x0 PUSH1 0x20 DUP3 DUP5 SUB SLT ISZERO PUSH2 0x1A67 JUMPI PUSH2 0x1A66 PUSH2 0x2492 JUMP JUMPDEST JUMPDEST PUSH1 0x0 PUSH2 0x1A75 DUP5 DUP3 DUP6 ADD PUSH2 0x1821 JUMP JUMPDEST SWAP2 POP POP SWAP3 SWAP2 POP POP JUMP JUMPDEST PUSH1 0x0 PUSH1 0x20 DUP3 DUP5 SUB SLT ISZERO PUSH2 0x1A94 JUMPI PUSH2 0x1A93 PUSH2 0x2492 JUMP JUMPDEST JUMPDEST PUSH1 0x0 PUSH2 0x1AA2 DUP5 DUP3 DUP6 ADD PUSH2 0x1836 JUMP JUMPDEST SWAP2 POP POP SWAP3 SWAP2 POP POP JUMP JUMPDEST PUSH1 0x0 PUSH1 0x20 DUP3 DUP5 SUB SLT ISZERO PUSH2 0x1AC1 JUMPI PUSH2 0x1AC0 PUSH2 0x2492 JUMP JUMPDEST JUMPDEST PUSH1 0x0 PUSH2 0x1ACF DUP5 DUP3 DUP6 ADD PUSH2 0x1879 JUMP JUMPDEST SWAP2 POP POP SWAP3 SWAP2 POP POP JUMP JUMPDEST PUSH2 0x1AE1 DUP2 PUSH2 0x2243 JUMP JUMPDEST DUP3 MSTORE POP POP JUMP JUMPDEST PUSH2 0x1AF0 DUP2 PUSH2 0x21C2 JUMP JUMPDEST DUP3 MSTORE POP POP JUMP JUMPDEST PUSH2 0x1AFF DUP2 PUSH2 0x21D4 JUMP JUMPDEST DUP3 MSTORE POP POP JUMP JUMPDEST PUSH1 0x0 PUSH2 0x1B10 DUP3 PUSH2 0x20C4 JUMP JUMPDEST PUSH2 0x1B1A DUP2 DUP6 PUSH2 0x20DA JUMP JUMPDEST SWAP4 POP PUSH2 0x1B2A DUP2 DUP6 PUSH1 0x20 DUP7 ADD PUSH2 0x2288 JUMP JUMPDEST PUSH2 0x1B33 DUP2 PUSH2 0x2497 JUMP JUMPDEST DUP5 ADD SWAP2 POP POP SWAP3 SWAP2 POP POP JUMP JUMPDEST PUSH1 0x0 PUSH2 0x1B49 DUP3 PUSH2 0x20CF JUMP JUMPDEST PUSH2 0x1B53 DUP2 DUP6 PUSH2 0x20EB JUMP JUMPDEST SWAP4 POP PUSH2 0x1B63 DUP2 DUP6 PUSH1 0x20 DUP7 ADD PUSH2 0x2288 JUMP JUMPDEST PUSH2 0x1B6C DUP2 PUSH2 0x2497 JUMP JUMPDEST DUP5 ADD SWAP2 POP POP SWAP3 SWAP2 POP POP JUMP JUMPDEST PUSH1 0x0 PUSH2 0x1B82 DUP3 PUSH2 0x20CF JUMP JUMPDEST PUSH2 0x1B8C DUP2 DUP6 PUSH2 0x20FC JUMP JUMPDEST SWAP4 POP PUSH2 0x1B9C DUP2 DUP6 PUSH1 0x20 DUP7 ADD PUSH2 0x2288 JUMP JUMPDEST DUP1 DUP5 ADD SWAP2 POP POP SWAP3 SWAP2 POP POP JUMP JUMPDEST PUSH1 0x0 PUSH2 0x1BB5 PUSH1 0x32 DUP4 PUSH2 0x20EB JUMP JUMPDEST SWAP2 POP PUSH2 0x1BC0 DUP3 PUSH2 0x24A8 JUMP JUMPDEST PUSH1 0x40 DUP3 ADD SWAP1 POP SWAP2 SWAP1 POP JUMP JUMPDEST PUSH1 0x0 PUSH2 0x1BD8 PUSH1 0x26 DUP4 PUSH2 0x20EB JUMP JUMPDEST SWAP2 POP PUSH2 0x1BE3 DUP3 PUSH2 0x24F7 JUMP JUMPDEST PUSH1 0x40 DUP3 ADD SWAP1 POP SWAP2 SWAP1 POP JUMP JUMPDEST PUSH1 0x0 PUSH2 0x1BFB PUSH1 0x25 DUP4 PUSH2 0x20EB JUMP JUMPDEST SWAP2 POP PUSH2 0x1C06 DUP3 PUSH2 0x2546 JUMP JUMPDEST PUSH1 0x40 DUP3 ADD SWAP1 POP SWAP2 SWAP1 POP JUMP JUMPDEST PUSH1 0x0 PUSH2 0x1C1E PUSH1 0x24 DUP4 PUSH2 0x20EB JUMP JUMPDEST SWAP2 POP PUSH2 0x1C29 DUP3 PUSH2 0x2595 JUMP JUMPDEST PUSH1 0x40 DUP3 ADD SWAP1 POP SWAP2 SWAP1 POP JUMP JUMPDEST PUSH1 0x0 PUSH2 0x1C41 PUSH1 0x19 DUP4 PUSH2 0x20EB JUMP JUMPDEST SWAP2 POP PUSH2 0x1C4C DUP3 PUSH2 0x25E4 JUMP JUMPDEST PUSH1 0x20 DUP3 ADD SWAP1 POP SWAP2 SWAP1 POP JUMP JUMPDEST PUSH1 0x0 PUSH2 0x1C64 PUSH1 0x2C DUP4 PUSH2 0x20EB JUMP JUMPDEST SWAP2 POP PUSH2 0x1C6F DUP3 PUSH2 0x260D JUMP JUMPDEST PUSH1 0x40 DUP3 ADD SWAP1 POP SWAP2 SWAP1 POP JUMP JUMPDEST PUSH1 0x0 PUSH2 0x1C87 PUSH1 0x38 DUP4 PUSH2 0x20EB JUMP JUMPDEST SWAP2 POP PUSH2 0x1C92 DUP3 PUSH2 0x265C JUMP JUMPDEST PUSH1 0x40 DUP3 ADD SWAP1 POP SWAP2 SWAP1 POP JUMP JUMPDEST PUSH1 0x0 PUSH2 0x1CAA PUSH1 0x2A DUP4 PUSH2 0x20EB JUMP JUMPDEST SWAP2 POP PUSH2 0x1CB5 DUP3 PUSH2 0x26AB JUMP JUMPDEST PUSH1 0x40 DUP3 ADD SWAP1 POP SWAP2 SWAP1 POP JUMP JUMPDEST PUSH1 0x0 PUSH2 0x1CCD PUSH1 0x29 DUP4 PUSH2 0x20EB JUMP JUMPDEST SWAP2 POP PUSH2 0x1CD8 DUP3 PUSH2 0x26FA JUMP JUMPDEST PUSH1 0x40 DUP3 ADD SWAP1 POP SWAP2 SWAP1 POP JUMP JUMPDEST PUSH1 0x0 PUSH2 0x1CF0 PUSH1 0x2C DUP4 PUSH2 0x20EB JUMP JUMPDEST SWAP2 POP PUSH2 0x1CFB DUP3 PUSH2 0x2749 JUMP JUMPDEST PUSH1 0x40 DUP3 ADD SWAP1 POP SWAP2 SWAP1 POP JUMP JUMPDEST PUSH1 0x0 PUSH2 0x1D13 PUSH1 0x20 DUP4 PUSH2 0x20EB JUMP JUMPDEST SWAP2 POP PUSH2 0x1D1E DUP3 PUSH2 0x2798 JUMP JUMPDEST PUSH1 0x20 DUP3 ADD SWAP1 POP SWAP2 SWAP1 POP JUMP JUMPDEST PUSH1 0x0 PUSH2 0x1D36 PUSH1 0x2F DUP4 PUSH2 0x20EB JUMP JUMPDEST SWAP2 POP PUSH2 0x1D41 DUP3 PUSH2 0x27C1 JUMP JUMPDEST PUSH1 0x40 DUP3 ADD SWAP1 POP SWAP2 SWAP1 POP JUMP JUMPDEST PUSH1 0x0 PUSH2 0x1D59 PUSH1 0x21 DUP4 PUSH2 0x20EB JUMP JUMPDEST SWAP2 POP PUSH2 0x1D64 DUP3 PUSH2 0x2810 JUMP JUMPDEST PUSH1 0x40 DUP3 ADD SWAP1 POP SWAP2 SWAP1 POP JUMP JUMPDEST PUSH1 0x0 PUSH2 0x1D7C PUSH1 0x31 DUP4 PUSH2 0x20EB JUMP JUMPDEST SWAP2 POP PUSH2 0x1D87 DUP3 PUSH2 0x285F JUMP JUMPDEST PUSH1 0x40 DUP3 ADD SWAP1 POP SWAP2 SWAP1 POP JUMP JUMPDEST PUSH2 0x1D9B DUP2 PUSH2 0x222C JUMP JUMPDEST DUP3 MSTORE POP POP JUMP JUMPDEST PUSH2 0x1DAA DUP2 PUSH2 0x2236 JUMP JUMPDEST DUP3 MSTORE POP POP JUMP JUMPDEST PUSH1 0x0 PUSH2 0x1DBC DUP3 DUP6 PUSH2 0x1B77 JUMP JUMPDEST SWAP2 POP PUSH2 0x1DC8 DUP3 DUP5 PUSH2 0x1B77 JUMP JUMPDEST SWAP2 POP DUP2 SWAP1 POP SWAP4 SWAP3 POP POP POP JUMP JUMPDEST PUSH1 0x0 PUSH1 0x20 DUP3 ADD SWAP1 POP PUSH2 0x1DE9 PUSH1 0x0 DUP4 ADD DUP5 PUSH2 0x1AE7 JUMP JUMPDEST SWAP3 SWAP2 POP POP JUMP JUMPDEST PUSH1 0x0 PUSH1 0x80 DUP3 ADD SWAP1 POP PUSH2 0x1E04 PUSH1 0x0 DUP4 ADD DUP8 PUSH2 0x1AD8 JUMP JUMPDEST PUSH2 0x1E11 PUSH1 0x20 DUP4 ADD DUP7 PUSH2 0x1AE7 JUMP JUMPDEST PUSH2 0x1E1E PUSH1 0x40 DUP4 ADD DUP6 PUSH2 0x1D92 JUMP JUMPDEST DUP2 DUP2 SUB PUSH1 0x60 DUP4 ADD MSTORE PUSH2 0x1E30 DUP2 DUP5 PUSH2 0x1B05 JUMP JUMPDEST SWAP1 POP SWAP6 SWAP5 POP POP POP POP POP JUMP JUMPDEST PUSH1 0x0 PUSH1 0x20 DUP3 ADD SWAP1 POP PUSH2 0x1E50 PUSH1 0x0 DUP4 ADD DUP5 PUSH2 0x1AF6 JUMP JUMPDEST SWAP3 SWAP2 POP POP JUMP JUMPDEST PUSH1 0x0 PUSH1 0x20 DUP3 ADD SWAP1 POP DUP2 DUP2 SUB PUSH1 0x0 DUP4 ADD MSTORE PUSH2 0x1E70 DUP2 DUP5 PUSH2 0x1B3E JUMP JUMPDEST SWAP1 POP SWAP3 SWAP2 POP POP JUMP JUMPDEST PUSH1 0x0 PUSH1 0x20 DUP3 ADD SWAP1 POP DUP2 DUP2 SUB PUSH1 0x0 DUP4 ADD MSTORE PUSH2 0x1E91 DUP2 PUSH2 0x1BA8 JUMP JUMPDEST SWAP1 POP SWAP2 SWAP1 POP JUMP JUMPDEST PUSH1 0x0 PUSH1 0x20 DUP3 ADD SWAP1 POP DUP2 DUP2 SUB PUSH1 0x0 DUP4 ADD MSTORE PUSH2 0x1EB1 DUP2 PUSH2 0x1BCB JUMP JUMPDEST SWAP1 POP SWAP2 SWAP1 POP JUMP JUMPDEST PUSH1 0x0 PUSH1 0x20 DUP3 ADD SWAP1 POP DUP2 DUP2 SUB PUSH1 0x0 DUP4 ADD MSTORE PUSH2 0x1ED1 DUP2 PUSH2 0x1BEE JUMP JUMPDEST SWAP1 POP SWAP2 SWAP1 POP JUMP JUMPDEST PUSH1 0x0 PUSH1 0x20 DUP3 ADD SWAP1 POP DUP2 DUP2 SUB PUSH1 0x0 DUP4 ADD MSTORE PUSH2 0x1EF1 DUP2 PUSH2 0x1C11 JUMP JUMPDEST SWAP1 POP SWAP2 SWAP1 POP JUMP JUMPDEST PUSH1 0x0 PUSH1 0x20 DUP3 ADD SWAP1 POP DUP2 DUP2 SUB PUSH1 0x0 DUP4 ADD MSTORE PUSH2 0x1F11 DUP2 PUSH2 0x1C34 JUMP JUMPDEST SWAP1 POP SWAP2 SWAP1 POP JUMP JUMPDEST PUSH1 0x0 PUSH1 0x20 DUP3 ADD SWAP1 POP DUP2 DUP2 SUB PUSH1 0x0 DUP4 ADD MSTORE PUSH2 0x1F31 DUP2 PUSH2 0x1C57 JUMP JUMPDEST SWAP1 POP SWAP2 SWAP1 POP JUMP JUMPDEST PUSH1 0x0 PUSH1 0x20 DUP3 ADD SWAP1 POP DUP2 DUP2 SUB PUSH1 0x0 DUP4 ADD MSTORE PUSH2 0x1F51 DUP2 PUSH2 0x1C7A JUMP JUMPDEST SWAP1 POP SWAP2 SWAP1 POP JUMP JUMPDEST PUSH1 0x0 PUSH1 0x20 DUP3 ADD SWAP1 POP DUP2 DUP2 SUB PUSH1 0x0 DUP4 ADD MSTORE PUSH2 0x1F71 DUP2 PUSH2 0x1C9D JUMP JUMPDEST SWAP1 POP SWAP2 SWAP1 POP JUMP JUMPDEST PUSH1 0x0 PUSH1 0x20 DUP3 ADD SWAP1 POP DUP2 DUP2 SUB PUSH1 0x0 DUP4 ADD MSTORE PUSH2 0x1F91 DUP2 PUSH2 0x1CC0 JUMP JUMPDEST SWAP1 POP SWAP2 SWAP1 POP JUMP JUMPDEST PUSH1 0x0 PUSH1 0x20 DUP3 ADD SWAP1 POP DUP2 DUP2 SUB PUSH1 0x0 DUP4 ADD MSTORE PUSH2 0x1FB1 DUP2 PUSH2 0x1CE3 JUMP JUMPDEST SWAP1 POP SWAP2 SWAP1 POP JUMP JUMPDEST PUSH1 0x0 PUSH1 0x20 DUP3 ADD SWAP1 POP DUP2 DUP2 SUB PUSH1 0x0 DUP4 ADD MSTORE PUSH2 0x1FD1 DUP2 PUSH2 0x1D06 JUMP JUMPDEST SWAP1 POP SWAP2 SWAP1 POP JUMP JUMPDEST PUSH1 0x0 PUSH1 0x20 DUP3 ADD SWAP1 POP DUP2 DUP2 SUB PUSH1 0x0 DUP4 ADD MSTORE PUSH2 0x1FF1 DUP2 PUSH2 0x1D29 JUMP JUMPDEST SWAP1 POP SWAP2 SWAP1 POP JUMP JUMPDEST PUSH1 0x0 PUSH1 0x20 DUP3 ADD SWAP1 POP DUP2 DUP2 SUB PUSH1 0x0 DUP4 ADD MSTORE PUSH2 0x2011 DUP2 PUSH2 0x1D4C JUMP JUMPDEST SWAP1 POP SWAP2 SWAP1 POP JUMP JUMPDEST PUSH1 0x0 PUSH1 0x20 DUP3 ADD SWAP1 POP DUP2 DUP2 SUB PUSH1 0x0 DUP4 ADD MSTORE PUSH2 0x2031 DUP2 PUSH2 0x1D6F JUMP JUMPDEST SWAP1 POP SWAP2 SWAP1 POP JUMP JUMPDEST PUSH1 0x0 PUSH1 0x20 DUP3 ADD SWAP1 POP PUSH2 0x204D PUSH1 0x0 DUP4 ADD DUP5 PUSH2 0x1D92 JUMP JUMPDEST SWAP3 SWAP2 POP POP JUMP JUMPDEST PUSH1 0x0 PUSH1 0x20 DUP3 ADD SWAP1 POP PUSH2 0x2068 PUSH1 0x0 DUP4 ADD DUP5 PUSH2 0x1DA1 JUMP JUMPDEST SWAP3 SWAP2 POP POP JUMP JUMPDEST PUSH1 0x0 PUSH2 0x2078 PUSH2 0x2089 JUMP JUMPDEST SWAP1 POP PUSH2 0x2084 DUP3 DUP3 PUSH2 0x22ED JUMP JUMPDEST SWAP2 SWAP1 POP JUMP JUMPDEST PUSH1 0x0 PUSH1 0x40 MLOAD SWAP1 POP SWAP1 JUMP JUMPDEST PUSH1 0x0 PUSH8 0xFFFFFFFFFFFFFFFF DUP3 GT ISZERO PUSH2 0x20AE JUMPI PUSH2 0x20AD PUSH2 0x2454 JUMP JUMPDEST JUMPDEST PUSH2 0x20B7 DUP3 PUSH2 0x2497 JUMP JUMPDEST SWAP1 POP PUSH1 0x20 DUP2 ADD SWAP1 POP SWAP2 SWAP1 POP JUMP JUMPDEST PUSH1 0x0 DUP2 MLOAD SWAP1 POP SWAP2 SWAP1 POP JUMP JUMPDEST PUSH1 0x0 DUP2 MLOAD SWAP1 POP SWAP2 SWAP1 POP JUMP JUMPDEST PUSH1 0x0 DUP3 DUP3 MSTORE PUSH1 0x20 DUP3 ADD SWAP1 POP SWAP3 SWAP2 POP POP JUMP JUMPDEST PUSH1 0x0 DUP3 DUP3 MSTORE PUSH1 0x20 DUP3 ADD SWAP1 POP SWAP3 SWAP2 POP POP JUMP JUMPDEST PUSH1 0x0 DUP2 SWAP1 POP SWAP3 SWAP2 POP POP JUMP JUMPDEST PUSH1 0x0 PUSH2 0x2112 DUP3 PUSH2 0x222C JUMP JUMPDEST SWAP2 POP PUSH2 0x211D DUP4 PUSH2 0x222C JUMP JUMPDEST SWAP3 POP DUP3 PUSH32 0xFFFFFFFFFFFFFFFFFFFFFFFFFFFFFFFFFFFFFFFFFFFFFFFFFFFFFFFFFFFFFFFF SUB DUP3 GT ISZERO PUSH2 0x2152 JUMPI PUSH2 0x2151 PUSH2 0x2398 JUMP JUMPDEST JUMPDEST DUP3 DUP3 ADD SWAP1 POP SWAP3 SWAP2 POP POP JUMP JUMPDEST PUSH1 0x0 PUSH2 0x2168 DUP3 PUSH2 0x222C JUMP JUMPDEST SWAP2 POP PUSH2 0x2173 DUP4 PUSH2 0x222C JUMP JUMPDEST SWAP3 POP DUP3 PUSH2 0x2183 JUMPI PUSH2 0x2182 PUSH2 0x23C7 JUMP JUMPDEST JUMPDEST DUP3 DUP3 DIV SWAP1 POP SWAP3 SWAP2 POP POP JUMP JUMPDEST PUSH1 0x0 PUSH2 0x2199 DUP3 PUSH2 0x222C JUMP JUMPDEST SWAP2 POP PUSH2 0x21A4 DUP4 PUSH2 0x222C JUMP JUMPDEST SWAP3 POP DUP3 DUP3 LT ISZERO PUSH2 0x21B7 JUMPI PUSH2 0x21B6 PUSH2 0x2398 JUMP JUMPDEST JUMPDEST DUP3 DUP3 SUB SWAP1 POP SWAP3 SWAP2 POP POP JUMP JUMPDEST PUSH1 0x0 PUSH2 0x21CD DUP3 PUSH2 0x220C JUMP JUMPDEST SWAP1 POP SWAP2 SWAP1 POP JUMP JUMPDEST PUSH1 0x0 DUP2 ISZERO ISZERO SWAP1 POP SWAP2 SWAP1 POP JUMP JUMPDEST PUSH1 0x0 PUSH32 0xFFFFFFFF00000000000000000000000000000000000000000000000000000000 DUP3 AND SWAP1 POP SWAP2 SWAP1 POP JUMP JUMPDEST PUSH1 0x0 PUSH20 0xFFFFFFFFFFFFFFFFFFFFFFFFFFFFFFFFFFFFFFFF DUP3 AND SWAP1 POP SWAP2 SWAP1 POP JUMP JUMPDEST PUSH1 0x0 DUP2 SWAP1 POP SWAP2 SWAP1 POP JUMP JUMPDEST PUSH1 0x0 PUSH1 0xFF DUP3 AND SWAP1 POP SWAP2 SWAP1 POP JUMP JUMPDEST PUSH1 0x0 PUSH2 0x224E DUP3 PUSH2 0x2255 JUMP JUMPDEST SWAP1 POP SWAP2 SWAP1 POP JUMP JUMPDEST PUSH1 0x0 PUSH2 0x2260 DUP3 PUSH2 0x2267 JUMP JUMPDEST SWAP1 POP SWAP2 SWAP1 POP JUMP JUMPDEST PUSH1 0x0 PUSH2 0x2272 DUP3 PUSH2 0x220C JUMP JUMPDEST SWAP1 POP SWAP2 SWAP1 POP JUMP JUMPDEST DUP3 DUP2 DUP4 CALLDATACOPY PUSH1 0x0 DUP4 DUP4 ADD MSTORE POP POP POP JUMP JUMPDEST PUSH1 0x0 JUMPDEST DUP4 DUP2 LT ISZERO PUSH2 0x22A6 JUMPI DUP1 DUP3 ADD MLOAD DUP2 DUP5 ADD MSTORE PUSH1 0x20 DUP2 ADD SWAP1 POP PUSH2 0x228B JUMP JUMPDEST DUP4 DUP2 GT ISZERO PUSH2 0x22B5 JUMPI PUSH1 0x0 DUP5 DUP5 ADD MSTORE JUMPDEST POP POP POP POP JUMP JUMPDEST PUSH1 0x0 PUSH1 0x2 DUP3 DIV SWAP1 POP PUSH1 0x1 DUP3 AND DUP1 PUSH2 0x22D3 JUMPI PUSH1 0x7F DUP3 AND SWAP2 POP JUMPDEST PUSH1 0x20 DUP3 LT DUP2 EQ ISZERO PUSH2 0x22E7 JUMPI PUSH2 0x22E6 PUSH2 0x23F6 JUMP JUMPDEST JUMPDEST POP SWAP2 SWAP1 POP JUMP JUMPDEST PUSH2 0x22F6 DUP3 PUSH2 0x2497 JUMP JUMPDEST DUP2 ADD DUP2 DUP2 LT PUSH8 0xFFFFFFFFFFFFFFFF DUP3 GT OR ISZERO PUSH2 0x2315 JUMPI PUSH2 0x2314 PUSH2 0x2454 JUMP JUMPDEST JUMPDEST DUP1 PUSH1 0x40 MSTORE POP POP POP JUMP JUMPDEST PUSH1 0x0 PUSH2 0x2329 DUP3 PUSH2 0x222C JUMP JUMPDEST SWAP2 POP PUSH32 0xFFFFFFFFFFFFFFFFFFFFFFFFFFFFFFFFFFFFFFFFFFFFFFFFFFFFFFFFFFFFFFFF DUP3 EQ ISZERO PUSH2 0x235C JUMPI PUSH2 0x235B PUSH2 0x2398 JUMP JUMPDEST JUMPDEST PUSH1 0x1 DUP3 ADD SWAP1 POP SWAP2 SWAP1 POP JUMP JUMPDEST PUSH1 0x0 PUSH2 0x2372 DUP3 PUSH2 0x222C JUMP JUMPDEST SWAP2 POP PUSH2 0x237D DUP4 PUSH2 0x222C JUMP JUMPDEST SWAP3 POP DUP3 PUSH2 0x238D JUMPI PUSH2 0x238C PUSH2 0x23C7 JUMP JUMPDEST JUMPDEST DUP3 DUP3 MOD SWAP1 POP SWAP3 SWAP2 POP POP JUMP JUMPDEST PUSH32 0x4E487B7100000000000000000000000000000000000000000000000000000000 PUSH1 0x0 MSTORE PUSH1 0x11 PUSH1 0x4 MSTORE PUSH1 0x24 PUSH1 0x0 REVERT JUMPDEST PUSH32 0x4E487B7100000000000000000000000000000000000000000000000000000000 PUSH1 0x0 MSTORE PUSH1 0x12 PUSH1 0x4 MSTORE PUSH1 0x24 PUSH1 0x0 REVERT JUMPDEST PUSH32 0x4E487B7100000000000000000000000000000000000000000000000000000000 PUSH1 0x0 MSTORE PUSH1 0x22 PUSH1 0x4 MSTORE PUSH1 0x24 PUSH1 0x0 REVERT JUMPDEST PUSH32 0x4E487B7100000000000000000000000000000000000000000000000000000000 PUSH1 0x0 MSTORE PUSH1 0x32 PUSH1 0x4 MSTORE PUSH1 0x24 PUSH1 0x0 REVERT JUMPDEST PUSH32 0x4E487B7100000000000000000000000000000000000000000000000000000000 PUSH1 0x0 MSTORE PUSH1 0x41 PUSH1 0x4 MSTORE PUSH1 0x24 PUSH1 0x0 REVERT JUMPDEST PUSH1 0x0 DUP1 REVERT JUMPDEST PUSH1 0x0 DUP1 REVERT JUMPDEST PUSH1 0x0 DUP1 REVERT JUMPDEST PUSH1 0x0 DUP1 REVERT JUMPDEST PUSH1 0x0 PUSH1 0x1F NOT PUSH1 0x1F DUP4 ADD AND SWAP1 POP SWAP2 SWAP1 POP JUMP JUMPDEST PUSH32 0x4552433732313A207472616E7366657220746F206E6F6E204552433732315265 PUSH1 0x0 DUP3 ADD MSTORE PUSH32 0x63656976657220696D706C656D656E7465720000000000000000000000000000 PUSH1 0x20 DUP3 ADD MSTORE POP JUMP JUMPDEST PUSH32 0x4F776E61626C653A206E6577206F776E657220697320746865207A65726F2061 PUSH1 0x0 DUP3 ADD MSTORE PUSH32 0x6464726573730000000000000000000000000000000000000000000000000000 PUSH1 0x20 DUP3 ADD MSTORE POP JUMP JUMPDEST PUSH32 0x4552433732313A207472616E736665722066726F6D20696E636F727265637420 PUSH1 0x0 DUP3 ADD MSTORE PUSH32 0x6F776E6572000000000000000000000000000000000000000000000000000000 PUSH1 0x20 DUP3 ADD MSTORE POP JUMP JUMPDEST PUSH32 0x4552433732313A207472616E7366657220746F20746865207A65726F20616464 PUSH1 0x0 DUP3 ADD MSTORE PUSH32 0x7265737300000000000000000000000000000000000000000000000000000000 PUSH1 0x20 DUP3 ADD MSTORE POP JUMP JUMPDEST PUSH32 0x4552433732313A20617070726F766520746F2063616C6C657200000000000000 PUSH1 0x0 DUP3 ADD MSTORE POP JUMP JUMPDEST PUSH32 0x4552433732313A206F70657261746F7220717565727920666F72206E6F6E6578 PUSH1 0x0 DUP3 ADD MSTORE PUSH32 0x697374656E7420746F6B656E0000000000000000000000000000000000000000 PUSH1 0x20 DUP3 ADD MSTORE POP JUMP JUMPDEST PUSH32 0x4552433732313A20617070726F76652063616C6C6572206973206E6F74206F77 PUSH1 0x0 DUP3 ADD MSTORE PUSH32 0x6E6572206E6F7220617070726F76656420666F7220616C6C0000000000000000 PUSH1 0x20 DUP3 ADD MSTORE POP JUMP JUMPDEST PUSH32 0x4552433732313A2062616C616E636520717565727920666F7220746865207A65 PUSH1 0x0 DUP3 ADD MSTORE PUSH32 0x726F206164647265737300000000000000000000000000000000000000000000 PUSH1 0x20 DUP3 ADD MSTORE POP JUMP JUMPDEST PUSH32 0x4552433732313A206F776E657220717565727920666F72206E6F6E6578697374 PUSH1 0x0 DUP3 ADD MSTORE PUSH32 0x656E7420746F6B656E0000000000000000000000000000000000000000000000 PUSH1 0x20 DUP3 ADD MSTORE POP JUMP JUMPDEST PUSH32 0x4552433732313A20617070726F76656420717565727920666F72206E6F6E6578 PUSH1 0x0 DUP3 ADD MSTORE PUSH32 0x697374656E7420746F6B656E0000000000000000000000000000000000000000 PUSH1 0x20 DUP3 ADD MSTORE POP JUMP JUMPDEST PUSH32 0x4F776E61626C653A2063616C6C6572206973206E6F7420746865206F776E6572 PUSH1 0x0 DUP3 ADD MSTORE POP JUMP JUMPDEST PUSH32 0x4552433732314D657461646174613A2055524920717565727920666F72206E6F PUSH1 0x0 DUP3 ADD MSTORE PUSH32 0x6E6578697374656E7420746F6B656E0000000000000000000000000000000000 PUSH1 0x20 DUP3 ADD MSTORE POP JUMP JUMPDEST PUSH32 0x4552433732313A20617070726F76616C20746F2063757272656E74206F776E65 PUSH1 0x0 DUP3 ADD MSTORE PUSH32 0x7200000000000000000000000000000000000000000000000000000000000000 PUSH1 0x20 DUP3 ADD MSTORE POP JUMP JUMPDEST PUSH32 0x4552433732313A207472616E736665722063616C6C6572206973206E6F74206F PUSH1 0x0 DUP3 ADD MSTORE PUSH32 0x776E6572206E6F7220617070726F766564000000000000000000000000000000 PUSH1 0x20 DUP3 ADD MSTORE POP JUMP JUMPDEST PUSH2 0x28B7 DUP2 PUSH2 0x21C2 JUMP JUMPDEST DUP2 EQ PUSH2 0x28C2 JUMPI PUSH1 0x0 DUP1 REVERT JUMPDEST POP JUMP JUMPDEST PUSH2 0x28CE DUP2 PUSH2 0x21D4 JUMP JUMPDEST DUP2 EQ PUSH2 0x28D9 JUMPI PUSH1 0x0 DUP1 REVERT JUMPDEST POP JUMP JUMPDEST PUSH2 0x28E5 DUP2 PUSH2 0x21E0 JUMP JUMPDEST DUP2 EQ PUSH2 0x28F0 JUMPI PUSH1 0x0 DUP1 REVERT JUMPDEST POP JUMP JUMPDEST PUSH2 0x28FC DUP2 PUSH2 0x222C JUMP JUMPDEST DUP2 EQ PUSH2 0x2907 JUMPI PUSH1 0x0 DUP1 REVERT JUMPDEST POP JUMP INVALID LOG2 PUSH5 0x6970667358 0x22 SLT KECCAK256 EXP PUSH8 0x2F050E76C4A822BC 0xF DUP11 0xE3 MOD SWAP13 SUB MLOAD 0xC PUSH23 0xA6E1326DF3C3A471248E3CB70D64736F6C634300080700 CALLER "
				},
				"gasEstimates": {
					"creation": {
						"codeDepositCost": "2112000",
						"executionCost": "infinite",
						"totalCost": "infinite"
					},
					"external": {
						"approve(address,uint256)": "infinite",
						"balanceOf(address)": "2990",
						"decimals()": "380",
						"getApproved(uint256)": "5228",
						"isApprovedForAll(address,address)": "infinite",
						"isOwner()": "2598",
						"name()": "infinite",
						"owner()": "2567",
						"ownerOf(uint256)": "3066",
						"renounceOwnership()": "30352",
						"safeTransferFrom(address,address,uint256)": "infinite",
						"safeTransferFrom(address,address,uint256,bytes)": "infinite",
						"setApprovalForAll(address,bool)": "infinite",
						"supportsInterface(bytes4)": "797",
						"symbol()": "infinite",
						"tokenURI(uint256)": "3395",
						"transferFrom(address,address,uint256)": "infinite",
						"transferOwnership(address)": "30817"
					},
					"internal": {
						"_afterTokenTransfer(address,address,uint256)": "15",
						"_approve(address,uint256)": "infinite",
						"_baseURI()": "infinite",
						"_beforeTokenTransfer(address,address,uint256)": "15",
						"_burn(uint256)": "infinite",
						"_checkOnERC721Received(address,address,uint256,bytes memory)": "infinite",
						"_exists(uint256)": "2269",
						"_isApprovedOrOwner(address,uint256)": "infinite",
						"_mint(address,uint256)": "infinite",
						"_safeMint(address,uint256)": "infinite",
						"_safeMint(address,uint256,bytes memory)": "infinite",
						"_safeTransfer(address,address,uint256,bytes memory)": "infinite",
						"_setApprovalForAll(address,address,bool)": "infinite",
						"_transfer(address,address,uint256)": "infinite"
					}
				},
				"methodIdentifiers": {
					"approve(address,uint256)": "095ea7b3",
					"balanceOf(address)": "70a08231",
					"decimals()": "313ce567",
					"getApproved(uint256)": "081812fc",
					"isApprovedForAll(address,address)": "e985e9c5",
					"isOwner()": "8f32d59b",
					"name()": "06fdde03",
					"owner()": "8da5cb5b",
					"ownerOf(uint256)": "6352211e",
					"renounceOwnership()": "715018a6",
					"safeTransferFrom(address,address,uint256)": "42842e0e",
					"safeTransferFrom(address,address,uint256,bytes)": "b88d4fde",
					"setApprovalForAll(address,bool)": "a22cb465",
					"supportsInterface(bytes4)": "01ffc9a7",
					"symbol()": "95d89b41",
					"tokenURI(uint256)": "c87b56dd",
					"transferFrom(address,address,uint256)": "23b872dd",
					"transferOwnership(address)": "f2fde38b"
				}
			},
			"userdoc": {
				"kind": "user",
				"methods": {},
				"version": 1
			}
		}
	}
}