{
	"VIMToken.sol": {
		"VIMToken": {
			"abi": [
				{
					"inputs": [],
					"stateMutability": "nonpayable",
					"type": "constructor"
				},
				{
					"anonymous": false,
					"inputs": [
						{
							"indexed": true,
							"internalType": "address",
							"name": "owner",
							"type": "address"
						},
						{
							"indexed": true,
							"internalType": "address",
							"name": "spender",
							"type": "address"
						},
						{
							"indexed": false,
							"internalType": "uint256",
							"name": "value",
							"type": "uint256"
						}
					],
					"name": "Approval",
					"type": "event"
				},
				{
					"anonymous": false,
					"inputs": [
						{
							"indexed": true,
							"internalType": "address",
							"name": "previousOwner",
							"type": "address"
						},
						{
							"indexed": true,
							"internalType": "address",
							"name": "newOwner",
							"type": "address"
						}
					],
					"name": "OwnershipTransferred",
					"type": "event"
				},
				{
					"anonymous": false,
					"inputs": [],
					"name": "Pause",
					"type": "event"
				},
				{
					"anonymous": false,
					"inputs": [
						{
							"indexed": true,
							"internalType": "address",
							"name": "from",
							"type": "address"
						},
						{
							"indexed": true,
							"internalType": "address",
							"name": "to",
							"type": "address"
						},
						{
							"indexed": false,
							"internalType": "uint256",
							"name": "value",
							"type": "uint256"
						}
					],
					"name": "Transfer",
					"type": "event"
				},
				{
					"anonymous": false,
					"inputs": [],
					"name": "Unpause",
					"type": "event"
				},
				{
					"inputs": [
						{
							"internalType": "address",
							"name": "owner",
							"type": "address"
						},
						{
							"internalType": "address",
							"name": "spender",
							"type": "address"
						}
					],
					"name": "allowance",
					"outputs": [
						{
							"internalType": "uint256",
							"name": "",
							"type": "uint256"
						}
					],
					"stateMutability": "view",
					"type": "function"
				},
				{
					"inputs": [
						{
							"internalType": "address",
							"name": "spender",
							"type": "address"
						},
						{
							"internalType": "uint256",
							"name": "amount",
							"type": "uint256"
						}
					],
					"name": "approve",
					"outputs": [
						{
							"internalType": "bool",
							"name": "",
							"type": "bool"
						}
					],
					"stateMutability": "nonpayable",
					"type": "function"
				},
				{
					"inputs": [
						{
							"internalType": "address",
							"name": "account",
							"type": "address"
						}
					],
					"name": "balanceOf",
					"outputs": [
						{
							"internalType": "uint256",
							"name": "",
							"type": "uint256"
						}
					],
					"stateMutability": "view",
					"type": "function"
				},
				{
					"inputs": [
						{
							"internalType": "uint256",
							"name": "amount",
							"type": "uint256"
						}
					],
					"name": "burn",
					"outputs": [],
					"stateMutability": "nonpayable",
					"type": "function"
				},
				{
					"inputs": [],
					"name": "decimals",
					"outputs": [
						{
							"internalType": "uint8",
							"name": "",
							"type": "uint8"
						}
					],
					"stateMutability": "view",
					"type": "function"
				},
				{
					"inputs": [
						{
							"internalType": "address",
							"name": "spender",
							"type": "address"
						},
						{
							"internalType": "uint256",
							"name": "subtractedValue",
							"type": "uint256"
						}
					],
					"name": "decreaseAllowance",
					"outputs": [
						{
							"internalType": "bool",
							"name": "",
							"type": "bool"
						}
					],
					"stateMutability": "nonpayable",
					"type": "function"
				},
				{
					"inputs": [
						{
							"internalType": "address",
							"name": "spender",
							"type": "address"
						},
						{
							"internalType": "uint256",
							"name": "addedValue",
							"type": "uint256"
						}
					],
					"name": "increaseAllowance",
					"outputs": [
						{
							"internalType": "bool",
							"name": "",
							"type": "bool"
						}
					],
					"stateMutability": "nonpayable",
					"type": "function"
				},
				{
					"inputs": [],
					"name": "isOwner",
					"outputs": [
						{
							"internalType": "bool",
							"name": "",
							"type": "bool"
						}
					],
					"stateMutability": "view",
					"type": "function"
				},
				{
					"inputs": [],
					"name": "name",
					"outputs": [
						{
							"internalType": "string",
							"name": "",
							"type": "string"
						}
					],
					"stateMutability": "view",
					"type": "function"
				},
				{
					"inputs": [],
					"name": "owner",
					"outputs": [
						{
							"internalType": "address",
							"name": "",
							"type": "address"
						}
					],
					"stateMutability": "view",
					"type": "function"
				},
				{
					"inputs": [],
					"name": "pause",
					"outputs": [
						{
							"internalType": "bool",
							"name": "",
							"type": "bool"
						}
					],
					"stateMutability": "nonpayable",
					"type": "function"
				},
				{
					"inputs": [],
					"name": "paused",
					"outputs": [
						{
							"internalType": "bool",
							"name": "",
							"type": "bool"
						}
					],
					"stateMutability": "view",
					"type": "function"
				},
				{
					"inputs": [],
					"name": "renounceOwnership",
					"outputs": [],
					"stateMutability": "nonpayable",
					"type": "function"
				},
				{
					"inputs": [],
					"name": "symbol",
					"outputs": [
						{
							"internalType": "string",
							"name": "",
							"type": "string"
						}
					],
					"stateMutability": "view",
					"type": "function"
				},
				{
					"inputs": [],
					"name": "totalSupply",
					"outputs": [
						{
							"internalType": "uint256",
							"name": "",
							"type": "uint256"
						}
					],
					"stateMutability": "view",
					"type": "function"
				},
				{
					"inputs": [
						{
							"internalType": "address",
							"name": "recipient",
							"type": "address"
						},
						{
							"internalType": "uint256",
							"name": "amount",
							"type": "uint256"
						}
					],
					"name": "transfer",
					"outputs": [
						{
							"internalType": "bool",
							"name": "",
							"type": "bool"
						}
					],
					"stateMutability": "nonpayable",
					"type": "function"
				},
				{
					"inputs": [
						{
							"internalType": "address",
							"name": "sender",
							"type": "address"
						},
						{
							"internalType": "address",
							"name": "recipient",
							"type": "address"
						},
						{
							"internalType": "uint256",
							"name": "amount",
							"type": "uint256"
						}
					],
					"name": "transferFrom",
					"outputs": [
						{
							"internalType": "bool",
							"name": "",
							"type": "bool"
						}
					],
					"stateMutability": "nonpayable",
					"type": "function"
				},
				{
					"inputs": [
						{
							"internalType": "address",
							"name": "newOwner",
							"type": "address"
						}
					],
					"name": "transferOwnership",
					"outputs": [],
					"stateMutability": "nonpayable",
					"type": "function"
				},
				{
					"inputs": [],
					"name": "unpause",
					"outputs": [
						{
							"internalType": "bool",
							"name": "",
							"type": "bool"
						}
					],
					"stateMutability": "nonpayable",
					"type": "function"
				}
			],
			"devdoc": {
				"kind": "dev",
				"methods": {
					"allowance(address,address)": {
						"details": "See {IBEP20-allowance}."
					},
					"approve(address,uint256)": {
						"details": "See {IBEP20-approve}. Requirements: - `spender` cannot be the zero address."
					},
					"balanceOf(address)": {
						"details": "See {IBEP20-balanceOf}."
					},
					"decimals()": {
						"details": "Returns the number of decimals used to get its user representation. For example, if `decimals` equals `2`, a balance of `505` tokens should be displayed to a user as `5,05` (`505 / 10 ** 2`). Tokens usually opt for a value of 18, imitating the relationship between Ether and Wei. NOTE: This information is only used for _display_ purposes: it in no way affects any of the arithmetic of the contract, including {IBEP20-balanceOf} and {IBEP20-transfer}."
					},
					"decreaseAllowance(address,uint256)": {
						"details": "Atomically decreases the allowance granted to `spender` by the caller. This is an alternative to {approve} that can be used as a mitigation for problems described in {IBEP20-approve}. Emits an {Approval} event indicating the updated allowance. Requirements: - `spender` cannot be the zero address. - `spender` must have allowance for the caller of at least `subtractedValue`."
					},
					"increaseAllowance(address,uint256)": {
						"details": "Atomically increases the allowance granted to `spender` by the caller. This is an alternative to {approve} that can be used as a mitigation for problems described in {IBEP20-approve}. Emits an {Approval} event indicating the updated allowance. Requirements: - `spender` cannot be the zero address."
					},
					"isOwner()": {
						"details": "Returns true if the caller is the current owner."
					},
					"name()": {
						"details": "Returns the name of the token."
					},
					"owner()": {
						"details": "Returns the address of the current owner."
					},
					"pause()": {
						"details": "called by the owner to pause, triggers stopped state"
					},
					"renounceOwnership()": {
						"details": "Leaves the contract without owner. It will not be possible to call `onlyOwner` functions anymore. Can only be called by the current owner. NOTE: Renouncing ownership will leave the contract without an owner, thereby removing any functionality that is only available to the owner."
					},
					"symbol()": {
						"details": "Returns the symbol of the token, usually a shorter version of the name."
					},
					"totalSupply()": {
						"details": "See {IBEP20-totalSupply}."
					},
					"transfer(address,uint256)": {
						"details": "See {IBEP20-transfer}. Requirements: - `recipient` cannot be the zero address. - the caller must have a balance of at least `amount`."
					},
					"transferFrom(address,address,uint256)": {
						"details": "See {IBEP20-transferFrom}. Emits an {Approval} event indicating the updated allowance. This is not required by the EIP. See the note at the beginning of {BEP20}; Requirements: - `sender` and `recipient` cannot be the zero address. - `sender` must have a balance of at least `amount`. - the caller must have allowance for `sender`'s tokens of at least `amount`."
					},
					"transferOwnership(address)": {
						"details": "Transfers ownership of the contract to a new account (`newOwner`). Can only be called by the current owner."
					},
					"unpause()": {
						"details": "called by the owner to unpause, returns to normal state"
					}
				},
				"version": 1
			},
			"evm": {
				"assembly": "    /* \"VIMToken.sol\":114:394  contract VIMToken is BEP20Detailed, BEP20 {... */\n  mstore(0x40, 0x80)\n    /* \"BEPPausable.sol\":293:298  false */\n  0x00\n    /* \"BEPPausable.sol\":272:298  bool public paused = false */\n  0x02\n  exp(0x0100, 0x15)\n  dup2\n  sload\n  dup2\n  0xff\n  mul\n  not\n  and\n  swap1\n  dup4\n  iszero\n  iszero\n  mul\n  or\n  swap1\n  sstore\n  pop\n    /* \"VIMToken.sol\":160:313  constructor() BEP20Detailed(\"VicMove\", \"VIM\", 18) {... */\n  callvalue\n  dup1\n  iszero\n  tag_1\n  jumpi\n  0x00\n  dup1\n  revert\ntag_1:\n  pop\n    /* \"BEP20Detailed.sol\":404:567  constructor(... */\n  mload(0x40)\n  dup1\n  0x40\n  add\n  0x40\n  mstore\n  dup1\n  0x07\n  dup2\n  mstore\n  0x20\n  add\n  0x5669634d6f766500000000000000000000000000000000000000000000000000\n  dup2\n  mstore\n  pop\n  mload(0x40)\n  dup1\n  0x40\n  add\n  0x40\n  mstore\n  dup1\n  0x03\n  dup2\n  mstore\n  0x20\n  add\n  0x56494d0000000000000000000000000000000000000000000000000000000000\n  dup2\n  mstore\n  pop\n    /* \"VIMToken.sol\":206:208  18 */\n  0x12\n    /* \"BEP20Detailed.sol\":507:512  name_ */\n  dup3\n    /* \"BEP20Detailed.sol\":499:504  _name */\n  0x00\n    /* \"BEP20Detailed.sol\":499:512  _name = name_ */\n  swap1\n  dup1\n  mload\n  swap1\n  0x20\n  add\n  swap1\n  tag_7\n  swap3\n  swap2\n  swap1\n  tag_8\n  jump\t// in\ntag_7:\n  pop\n    /* \"BEP20Detailed.sol\":528:535  symbol_ */\n  dup2\n    /* \"BEP20Detailed.sol\":518:525  _symbol */\n  0x01\n    /* \"BEP20Detailed.sol\":518:535  _symbol = symbol_ */\n  swap1\n  dup1\n  mload\n  swap1\n  0x20\n  add\n  swap1\n  tag_9\n  swap3\n  swap2\n  swap1\n  tag_8\n  jump\t// in\ntag_9:\n  pop\n    /* \"BEP20Detailed.sol\":553:562  decimals_ */\n  dup1\n    /* \"BEP20Detailed.sol\":541:550  _decimals */\n  0x02\n  0x00\n    /* \"BEP20Detailed.sol\":541:562  _decimals = decimals_ */\n  0x0100\n  exp\n  dup2\n  sload\n  dup2\n  0xff\n  mul\n  not\n  and\n  swap1\n  dup4\n  0xff\n  and\n  mul\n  or\n  swap1\n  sstore\n  pop\n    /* \"BEP20Detailed.sol\":404:567  constructor(... */\n  pop\n  pop\n  pop\n    /* \"BEPOwnable.sol\":716:733  address msgSender */\n  0x00\n    /* \"BEPOwnable.sol\":736:748  _msgSender() */\n  tag_12\n    /* \"BEPOwnable.sol\":736:746  _msgSender */\n  shl(0x20, tag_13)\n    /* \"BEPOwnable.sol\":736:748  _msgSender() */\n  0x20\n  shr\n  jump\t// in\ntag_12:\n    /* \"BEPOwnable.sol\":716:748  address msgSender = _msgSender() */\n  swap1\n  pop\n    /* \"BEPOwnable.sol\":763:772  msgSender */\n  dup1\n    /* \"BEPOwnable.sol\":754:760  _owner */\n  0x02\n  0x01\n    /* \"BEPOwnable.sol\":754:772  _owner = msgSender */\n  0x0100\n  exp\n  dup2\n  sload\n  dup2\n  0xffffffffffffffffffffffffffffffffffffffff\n  mul\n  not\n  and\n  swap1\n  dup4\n  0xffffffffffffffffffffffffffffffffffffffff\n  and\n  mul\n  or\n  swap1\n  sstore\n  pop\n    /* \"BEPOwnable.sol\":816:825  msgSender */\n  dup1\n    /* \"BEPOwnable.sol\":783:826  OwnershipTransferred(address(0), msgSender) */\n  0xffffffffffffffffffffffffffffffffffffffff\n  and\n    /* \"BEPOwnable.sol\":812:813  0 */\n  0x00\n    /* \"BEPOwnable.sol\":783:826  OwnershipTransferred(address(0), msgSender) */\n  0xffffffffffffffffffffffffffffffffffffffff\n  and\n  0x8be0079c531659141344cd1fd0a4f28419497f9722a3daafe3b4186f6b6457e0\n  mload(0x40)\n  mload(0x40)\n  dup1\n  swap2\n  sub\n  swap1\n  log3\n    /* \"BEPOwnable.sol\":710:831  {... */\n  pop\n    /* \"VIMToken.sol\":216:235  uint256 totalTokens */\n  0x00\n    /* \"VIMToken.sol\":261:271  decimals() */\n  tag_15\n    /* \"VIMToken.sol\":261:269  decimals */\n  shl(0x20, tag_16)\n    /* \"VIMToken.sol\":261:271  decimals() */\n  0x20\n  shr\n  jump\t// in\ntag_15:\n    /* \"VIMToken.sol\":253:272  uint256(decimals()) */\n  0xff\n  and\n    /* \"VIMToken.sol\":249:251  10 */\n  0x0a\n    /* \"VIMToken.sol\":249:272  10**uint256(decimals()) */\n  tag_17\n  swap2\n  swap1\n  tag_18\n  jump\t// in\ntag_17:\n    /* \"VIMToken.sol\":238:246  20000000 */\n  0x01312d00\n    /* \"VIMToken.sol\":238:272  20000000 * 10**uint256(decimals()) */\n  tag_19\n  swap2\n  swap1\n  tag_20\n  jump\t// in\ntag_19:\n    /* \"VIMToken.sol\":216:272  uint256 totalTokens = 20000000 * 10**uint256(decimals()) */\n  swap1\n  pop\n    /* \"VIMToken.sol\":278:308  _mint(msg.sender, totalTokens) */\n  tag_21\n    /* \"VIMToken.sol\":284:294  msg.sender */\n  caller\n    /* \"VIMToken.sol\":296:307  totalTokens */\n  dup3\n    /* \"VIMToken.sol\":278:283  _mint */\n  shl(0x20, tag_22)\n    /* \"VIMToken.sol\":278:308  _mint(msg.sender, totalTokens) */\n  0x20\n  shr\n  jump\t// in\ntag_21:\n    /* \"VIMToken.sol\":210:313  {... */\n  pop\n    /* \"VIMToken.sol\":114:394  contract VIMToken is BEP20Detailed, BEP20 {... */\n  jump(tag_23)\n    /* \"BEPContext.sol\":760:859  function _msgSender() internal view returns (address payable) {... */\ntag_13:\n    /* \"BEPContext.sol\":805:820  address payable */\n  0x00\n    /* \"BEPContext.sol\":843:853  msg.sender */\n  caller\n    /* \"BEPContext.sol\":828:854  return payable(msg.sender) */\n  swap1\n  pop\n    /* \"BEPContext.sol\":760:859  function _msgSender() internal view returns (address payable) {... */\n  swap1\n  jump\t// out\n    /* \"BEP20Detailed.sol\":1404:1479  function decimals() public view returns (uint8) {... */\ntag_16:\n    /* \"BEP20Detailed.sol\":1445:1450  uint8 */\n  0x00\n    /* \"BEP20Detailed.sol\":1465:1474  _decimals */\n  0x02\n  0x00\n  swap1\n  sload\n  swap1\n  0x0100\n  exp\n  swap1\n  div\n  0xff\n  and\n    /* \"BEP20Detailed.sol\":1458:1474  return _decimals */\n  swap1\n  pop\n    /* \"BEP20Detailed.sol\":1404:1479  function decimals() public view returns (uint8) {... */\n  swap1\n  jump\t// out\n    /* \"BEP20.sol\":5776:6060  function _mint(address account, uint256 amount) internal {... */\ntag_22:\n    /* \"BEP20.sol\":5866:5867  0 */\n  0x00\n    /* \"BEP20.sol\":5847:5868  account != address(0) */\n  0xffffffffffffffffffffffffffffffffffffffff\n  and\n    /* \"BEP20.sol\":5847:5854  account */\n  dup3\n    /* \"BEP20.sol\":5847:5868  account != address(0) */\n  0xffffffffffffffffffffffffffffffffffffffff\n  and\n  eq\n  iszero\n    /* \"BEP20.sol\":5839:5904  require(account != address(0), \"BEP20: mint to the zero address\") */\n  tag_27\n  jumpi\n  mload(0x40)\n  0x08c379a000000000000000000000000000000000000000000000000000000000\n  dup2\n  mstore\n  0x04\n  add\n  tag_28\n  swap1\n  tag_29\n  jump\t// in\ntag_28:\n  mload(0x40)\n  dup1\n  swap2\n  sub\n  swap1\n  revert\ntag_27:\n    /* \"BEP20.sol\":5926:5950  _totalSupply.add(amount) */\n  tag_30\n    /* \"BEP20.sol\":5943:5949  amount */\n  dup2\n    /* \"BEP20.sol\":5926:5938  _totalSupply */\n  sload(0x05)\n    /* \"BEP20.sol\":5926:5942  _totalSupply.add */\n  or(tag_0_98, shl(0x20, tag_31))\n  swap1\n    /* \"BEP20.sol\":5926:5950  _totalSupply.add(amount) */\n  swap2\n  swap1\n  0x20\n  shr\n  jump\t// in\ntag_30:\n    /* \"BEP20.sol\":5911:5923  _totalSupply */\n  0x05\n    /* \"BEP20.sol\":5911:5950  _totalSupply = _totalSupply.add(amount) */\n  dup2\n  swap1\n  sstore\n  pop\n    /* \"BEP20.sol\":5977:6007  _balances[account].add(amount) */\n  tag_32\n    /* \"BEP20.sol\":6000:6006  amount */\n  dup2\n    /* \"BEP20.sol\":5977:5986  _balances */\n  0x03\n    /* \"BEP20.sol\":5977:5995  _balances[account] */\n  0x00\n    /* \"BEP20.sol\":5987:5994  account */\n  dup6\n    /* \"BEP20.sol\":5977:5995  _balances[account] */\n  0xffffffffffffffffffffffffffffffffffffffff\n  and\n  0xffffffffffffffffffffffffffffffffffffffff\n  and\n  dup2\n  mstore\n  0x20\n  add\n  swap1\n  dup2\n  mstore\n  0x20\n  add\n  0x00\n  keccak256\n  sload\n    /* \"BEP20.sol\":5977:5999  _balances[account].add */\n  or(tag_0_98, shl(0x20, tag_31))\n  swap1\n    /* \"BEP20.sol\":5977:6007  _balances[account].add(amount) */\n  swap2\n  swap1\n  0x20\n  shr\n  jump\t// in\ntag_32:\n    /* \"BEP20.sol\":5956:5965  _balances */\n  0x03\n    /* \"BEP20.sol\":5956:5974  _balances[account] */\n  0x00\n    /* \"BEP20.sol\":5966:5973  account */\n  dup5\n    /* \"BEP20.sol\":5956:5974  _balances[account] */\n  0xffffffffffffffffffffffffffffffffffffffff\n  and\n  0xffffffffffffffffffffffffffffffffffffffff\n  and\n  dup2\n  mstore\n  0x20\n  add\n  swap1\n  dup2\n  mstore\n  0x20\n  add\n  0x00\n  keccak256\n    /* \"BEP20.sol\":5956:6007  _balances[account] = _balances[account].add(amount) */\n  dup2\n  swap1\n  sstore\n  pop\n    /* \"BEP20.sol\":6039:6046  account */\n  dup2\n    /* \"BEP20.sol\":6018:6055  Transfer(address(0), account, amount) */\n  0xffffffffffffffffffffffffffffffffffffffff\n  and\n    /* \"BEP20.sol\":6035:6036  0 */\n  0x00\n    /* \"BEP20.sol\":6018:6055  Transfer(address(0), account, amount) */\n  0xffffffffffffffffffffffffffffffffffffffff\n  and\n  0xddf252ad1be2c89b69c2b068fc378daa952ba7f163c4a11628f55a4df523b3ef\n    /* \"BEP20.sol\":6048:6054  amount */\n  dup4\n    /* \"BEP20.sol\":6018:6055  Transfer(address(0), account, amount) */\n  mload(0x40)\n  tag_33\n  swap2\n  swap1\n  tag_34\n  jump\t// in\ntag_33:\n  mload(0x40)\n  dup1\n  swap2\n  sub\n  swap1\n  log3\n    /* \"BEP20.sol\":5776:6060  function _mint(address account, uint256 amount) internal {... */\n  pop\n  pop\n  jump\t// out\n    /* \"SafeMath.sol\":858:1020  function add(uint256 a, uint256 b) internal pure returns (uint256) {... */\ntag_31:\n    /* \"SafeMath.sol\":916:923  uint256 */\n  0x00\n    /* \"SafeMath.sol\":931:940  uint256 c */\n  dup1\n    /* \"SafeMath.sol\":947:948  b */\n  dup3\n    /* \"SafeMath.sol\":943:944  a */\n  dup5\n    /* \"SafeMath.sol\":943:948  a + b */\n  tag_36\n  swap2\n  swap1\n  tag_37\n  jump\t// in\ntag_36:\n    /* \"SafeMath.sol\":931:948  uint256 c = a + b */\n  swap1\n  pop\n    /* \"SafeMath.sol\":967:968  a */\n  dup4\n    /* \"SafeMath.sol\":962:963  c */\n  dup2\n    /* \"SafeMath.sol\":962:968  c >= a */\n  lt\n  iszero\n    /* \"SafeMath.sol\":954:1000  require(c >= a, \"SafeMath: addition overflow\") */\n  tag_38\n  jumpi\n  mload(0x40)\n  0x08c379a000000000000000000000000000000000000000000000000000000000\n  dup2\n  mstore\n  0x04\n  add\n  tag_39\n  swap1\n  tag_40\n  jump\t// in\ntag_39:\n  mload(0x40)\n  dup1\n  swap2\n  sub\n  swap1\n  revert\ntag_38:\n    /* \"SafeMath.sol\":1014:1015  c */\n  dup1\n    /* \"SafeMath.sol\":1007:1015  return c */\n  swap2\n  pop\n  pop\n    /* \"SafeMath.sol\":858:1020  function add(uint256 a, uint256 b) internal pure returns (uint256) {... */\n  swap3\n  swap2\n  pop\n  pop\n  jump\t// out\n    /* \"VIMToken.sol\":114:394  contract VIMToken is BEP20Detailed, BEP20 {... */\ntag_8:\n  dup3\n  dup1\n  sload\n  tag_41\n  swap1\n  tag_42\n  jump\t// in\ntag_41:\n  swap1\n  0x00\n  mstore\n  keccak256(0x00, 0x20)\n  swap1\n  0x1f\n  add\n  0x20\n  swap1\n  div\n  dup2\n  add\n  swap3\n  dup3\n  tag_44\n  jumpi\n  0x00\n  dup6\n  sstore\n  jump(tag_43)\ntag_44:\n  dup3\n  0x1f\n  lt\n  tag_45\n  jumpi\n  dup1\n  mload\n  not(0xff)\n  and\n  dup4\n  dup1\n  add\n  or\n  dup6\n  sstore\n  jump(tag_43)\ntag_45:\n  dup3\n  dup1\n  add\n  0x01\n  add\n  dup6\n  sstore\n  dup3\n  iszero\n  tag_43\n  jumpi\n  swap2\n  dup3\n  add\ntag_46:\n  dup3\n  dup2\n  gt\n  iszero\n  tag_47\n  jumpi\n  dup3\n  mload\n  dup3\n  sstore\n  swap2\n  0x20\n  add\n  swap2\n  swap1\n  0x01\n  add\n  swap1\n  jump(tag_46)\ntag_47:\ntag_43:\n  pop\n  swap1\n  pop\n  tag_48\n  swap2\n  swap1\n  tag_49\n  jump\t// in\ntag_48:\n  pop\n  swap1\n  jump\t// out\ntag_49:\ntag_50:\n  dup1\n  dup3\n  gt\n  iszero\n  tag_51\n  jumpi\n  0x00\n  dup2\n  0x00\n  swap1\n  sstore\n  pop\n  0x01\n  add\n  jump(tag_50)\ntag_51:\n  pop\n  swap1\n  jump\t// out\n    /* \"#utility.yul\":7:373   */\ntag_53:\n    /* \"#utility.yul\":149:152   */\n  0x00\n    /* \"#utility.yul\":170:237   */\n  tag_55\n    /* \"#utility.yul\":234:236   */\n  0x1b\n    /* \"#utility.yul\":229:232   */\n  dup4\n    /* \"#utility.yul\":170:237   */\n  tag_56\n  jump\t// in\ntag_55:\n    /* \"#utility.yul\":163:237   */\n  swap2\n  pop\n    /* \"#utility.yul\":246:339   */\n  tag_57\n    /* \"#utility.yul\":335:338   */\n  dup3\n    /* \"#utility.yul\":246:339   */\n  tag_58\n  jump\t// in\ntag_57:\n    /* \"#utility.yul\":364:366   */\n  0x20\n    /* \"#utility.yul\":359:362   */\n  dup3\n    /* \"#utility.yul\":355:367   */\n  add\n    /* \"#utility.yul\":348:367   */\n  swap1\n  pop\n    /* \"#utility.yul\":7:373   */\n  swap2\n  swap1\n  pop\n  jump\t// out\n    /* \"#utility.yul\":379:745   */\ntag_59:\n    /* \"#utility.yul\":521:524   */\n  0x00\n    /* \"#utility.yul\":542:609   */\n  tag_61\n    /* \"#utility.yul\":606:608   */\n  0x1f\n    /* \"#utility.yul\":601:604   */\n  dup4\n    /* \"#utility.yul\":542:609   */\n  tag_56\n  jump\t// in\ntag_61:\n    /* \"#utility.yul\":535:609   */\n  swap2\n  pop\n    /* \"#utility.yul\":618:711   */\n  tag_62\n    /* \"#utility.yul\":707:710   */\n  dup3\n    /* \"#utility.yul\":618:711   */\n  tag_63\n  jump\t// in\ntag_62:\n    /* \"#utility.yul\":736:738   */\n  0x20\n    /* \"#utility.yul\":731:734   */\n  dup3\n    /* \"#utility.yul\":727:739   */\n  add\n    /* \"#utility.yul\":720:739   */\n  swap1\n  pop\n    /* \"#utility.yul\":379:745   */\n  swap2\n  swap1\n  pop\n  jump\t// out\n    /* \"#utility.yul\":751:869   */\ntag_64:\n    /* \"#utility.yul\":838:862   */\n  tag_66\n    /* \"#utility.yul\":856:861   */\n  dup2\n    /* \"#utility.yul\":838:862   */\n  tag_67\n  jump\t// in\ntag_66:\n    /* \"#utility.yul\":833:836   */\n  dup3\n    /* \"#utility.yul\":826:863   */\n  mstore\n    /* \"#utility.yul\":751:869   */\n  pop\n  pop\n  jump\t// out\n    /* \"#utility.yul\":875:1294   */\ntag_40:\n    /* \"#utility.yul\":1041:1045   */\n  0x00\n    /* \"#utility.yul\":1079:1081   */\n  0x20\n    /* \"#utility.yul\":1068:1077   */\n  dup3\n    /* \"#utility.yul\":1064:1082   */\n  add\n    /* \"#utility.yul\":1056:1082   */\n  swap1\n  pop\n    /* \"#utility.yul\":1128:1137   */\n  dup2\n    /* \"#utility.yul\":1122:1126   */\n  dup2\n    /* \"#utility.yul\":1118:1138   */\n  sub\n    /* \"#utility.yul\":1114:1115   */\n  0x00\n    /* \"#utility.yul\":1103:1112   */\n  dup4\n    /* \"#utility.yul\":1099:1116   */\n  add\n    /* \"#utility.yul\":1092:1139   */\n  mstore\n    /* \"#utility.yul\":1156:1287   */\n  tag_69\n    /* \"#utility.yul\":1282:1286   */\n  dup2\n    /* \"#utility.yul\":1156:1287   */\n  tag_53\n  jump\t// in\ntag_69:\n    /* \"#utility.yul\":1148:1287   */\n  swap1\n  pop\n    /* \"#utility.yul\":875:1294   */\n  swap2\n  swap1\n  pop\n  jump\t// out\n    /* \"#utility.yul\":1300:1719   */\ntag_29:\n    /* \"#utility.yul\":1466:1470   */\n  0x00\n    /* \"#utility.yul\":1504:1506   */\n  0x20\n    /* \"#utility.yul\":1493:1502   */\n  dup3\n    /* \"#utility.yul\":1489:1507   */\n  add\n    /* \"#utility.yul\":1481:1507   */\n  swap1\n  pop\n    /* \"#utility.yul\":1553:1562   */\n  dup2\n    /* \"#utility.yul\":1547:1551   */\n  dup2\n    /* \"#utility.yul\":1543:1563   */\n  sub\n    /* \"#utility.yul\":1539:1540   */\n  0x00\n    /* \"#utility.yul\":1528:1537   */\n  dup4\n    /* \"#utility.yul\":1524:1541   */\n  add\n    /* \"#utility.yul\":1517:1564   */\n  mstore\n    /* \"#utility.yul\":1581:1712   */\n  tag_71\n    /* \"#utility.yul\":1707:1711   */\n  dup2\n    /* \"#utility.yul\":1581:1712   */\n  tag_59\n  jump\t// in\ntag_71:\n    /* \"#utility.yul\":1573:1712   */\n  swap1\n  pop\n    /* \"#utility.yul\":1300:1719   */\n  swap2\n  swap1\n  pop\n  jump\t// out\n    /* \"#utility.yul\":1725:1947   */\ntag_34:\n    /* \"#utility.yul\":1818:1822   */\n  0x00\n    /* \"#utility.yul\":1856:1858   */\n  0x20\n    /* \"#utility.yul\":1845:1854   */\n  dup3\n    /* \"#utility.yul\":1841:1859   */\n  add\n    /* \"#utility.yul\":1833:1859   */\n  swap1\n  pop\n    /* \"#utility.yul\":1869:1940   */\n  tag_73\n    /* \"#utility.yul\":1937:1938   */\n  0x00\n    /* \"#utility.yul\":1926:1935   */\n  dup4\n    /* \"#utility.yul\":1922:1939   */\n  add\n    /* \"#utility.yul\":1913:1919   */\n  dup5\n    /* \"#utility.yul\":1869:1940   */\n  tag_64\n  jump\t// in\ntag_73:\n    /* \"#utility.yul\":1725:1947   */\n  swap3\n  swap2\n  pop\n  pop\n  jump\t// out\n    /* \"#utility.yul\":1953:2122   */\ntag_56:\n    /* \"#utility.yul\":2037:2048   */\n  0x00\n    /* \"#utility.yul\":2071:2077   */\n  dup3\n    /* \"#utility.yul\":2066:2069   */\n  dup3\n    /* \"#utility.yul\":2059:2078   */\n  mstore\n    /* \"#utility.yul\":2111:2115   */\n  0x20\n    /* \"#utility.yul\":2106:2109   */\n  dup3\n    /* \"#utility.yul\":2102:2116   */\n  add\n    /* \"#utility.yul\":2087:2116   */\n  swap1\n  pop\n    /* \"#utility.yul\":1953:2122   */\n  swap3\n  swap2\n  pop\n  pop\n  jump\t// out\n    /* \"#utility.yul\":2128:2433   */\ntag_37:\n    /* \"#utility.yul\":2168:2171   */\n  0x00\n    /* \"#utility.yul\":2187:2207   */\n  tag_76\n    /* \"#utility.yul\":2205:2206   */\n  dup3\n    /* \"#utility.yul\":2187:2207   */\n  tag_67\n  jump\t// in\ntag_76:\n    /* \"#utility.yul\":2182:2207   */\n  swap2\n  pop\n    /* \"#utility.yul\":2221:2241   */\n  tag_77\n    /* \"#utility.yul\":2239:2240   */\n  dup4\n    /* \"#utility.yul\":2221:2241   */\n  tag_67\n  jump\t// in\ntag_77:\n    /* \"#utility.yul\":2216:2241   */\n  swap3\n  pop\n    /* \"#utility.yul\":2375:2376   */\n  dup3\n    /* \"#utility.yul\":2307:2373   */\n  0xffffffffffffffffffffffffffffffffffffffffffffffffffffffffffffffff\n    /* \"#utility.yul\":2303:2377   */\n  sub\n    /* \"#utility.yul\":2300:2301   */\n  dup3\n    /* \"#utility.yul\":2297:2378   */\n  gt\n    /* \"#utility.yul\":2294:2401   */\n  iszero\n  tag_78\n  jumpi\n    /* \"#utility.yul\":2381:2399   */\n  tag_79\n  tag_80\n  jump\t// in\ntag_79:\n    /* \"#utility.yul\":2294:2401   */\ntag_78:\n    /* \"#utility.yul\":2425:2426   */\n  dup3\n    /* \"#utility.yul\":2422:2423   */\n  dup3\n    /* \"#utility.yul\":2418:2427   */\n  add\n    /* \"#utility.yul\":2411:2427   */\n  swap1\n  pop\n    /* \"#utility.yul\":2128:2433   */\n  swap3\n  swap2\n  pop\n  pop\n  jump\t// out\n    /* \"#utility.yul\":2439:3287   */\ntag_81:\n    /* \"#utility.yul\":2500:2505   */\n  0x00\n    /* \"#utility.yul\":2507:2511   */\n  dup1\n    /* \"#utility.yul\":2531:2537   */\n  dup3\n    /* \"#utility.yul\":2522:2537   */\n  swap2\n  pop\n    /* \"#utility.yul\":2555:2560   */\n  dup4\n    /* \"#utility.yul\":2546:2560   */\n  swap1\n  pop\n    /* \"#utility.yul\":2569:3281   */\ntag_83:\n    /* \"#utility.yul\":2590:2591   */\n  0x01\n    /* \"#utility.yul\":2580:2588   */\n  dup6\n    /* \"#utility.yul\":2577:2592   */\n  gt\n    /* \"#utility.yul\":2569:3281   */\n  iszero\n  tag_85\n  jumpi\n    /* \"#utility.yul\":2685:2689   */\n  dup1\n    /* \"#utility.yul\":2680:2683   */\n  dup7\n    /* \"#utility.yul\":2676:2690   */\n  div\n    /* \"#utility.yul\":2670:2674   */\n  dup2\n    /* \"#utility.yul\":2667:2691   */\n  gt\n    /* \"#utility.yul\":2664:2714   */\n  iszero\n  tag_86\n  jumpi\n    /* \"#utility.yul\":2694:2712   */\n  tag_87\n  tag_80\n  jump\t// in\ntag_87:\n    /* \"#utility.yul\":2664:2714   */\ntag_86:\n    /* \"#utility.yul\":2744:2745   */\n  0x01\n    /* \"#utility.yul\":2734:2742   */\n  dup6\n    /* \"#utility.yul\":2730:2746   */\n  and\n    /* \"#utility.yul\":2727:3178   */\n  iszero\n  tag_88\n  jumpi\n    /* \"#utility.yul\":3159:3163   */\n  dup1\n    /* \"#utility.yul\":3152:3157   */\n  dup3\n    /* \"#utility.yul\":3148:3164   */\n  mul\n    /* \"#utility.yul\":3139:3164   */\n  swap2\n  pop\n    /* \"#utility.yul\":2727:3178   */\ntag_88:\n    /* \"#utility.yul\":3209:3213   */\n  dup1\n    /* \"#utility.yul\":3203:3207   */\n  dup2\n    /* \"#utility.yul\":3199:3214   */\n  mul\n    /* \"#utility.yul\":3191:3214   */\n  swap1\n  pop\n    /* \"#utility.yul\":3239:3271   */\n  tag_89\n    /* \"#utility.yul\":3262:3270   */\n  dup6\n    /* \"#utility.yul\":3239:3271   */\n  tag_90\n  jump\t// in\ntag_89:\n    /* \"#utility.yul\":3227:3271   */\n  swap5\n  pop\n    /* \"#utility.yul\":2569:3281   */\n  jump(tag_83)\ntag_85:\n    /* \"#utility.yul\":2439:3287   */\n  swap5\n  pop\n  swap5\n  swap3\n  pop\n  pop\n  pop\n  jump\t// out\n    /* \"#utility.yul\":3293:3578   */\ntag_18:\n    /* \"#utility.yul\":3353:3358   */\n  0x00\n    /* \"#utility.yul\":3377:3400   */\n  tag_92\n    /* \"#utility.yul\":3395:3399   */\n  dup3\n    /* \"#utility.yul\":3377:3400   */\n  tag_67\n  jump\t// in\ntag_92:\n    /* \"#utility.yul\":3369:3400   */\n  swap2\n  pop\n    /* \"#utility.yul\":3421:3448   */\n  tag_93\n    /* \"#utility.yul\":3439:3447   */\n  dup4\n    /* \"#utility.yul\":3421:3448   */\n  tag_67\n  jump\t// in\ntag_93:\n    /* \"#utility.yul\":3409:3448   */\n  swap3\n  pop\n    /* \"#utility.yul\":3467:3571   */\n  tag_94\n    /* \"#utility.yul\":3504:3570   */\n  0xffffffffffffffffffffffffffffffffffffffffffffffffffffffffffffffff\n    /* \"#utility.yul\":3494:3502   */\n  dup5\n    /* \"#utility.yul\":3488:3492   */\n  dup5\n    /* \"#utility.yul\":3467:3571   */\n  tag_95\n  jump\t// in\ntag_94:\n    /* \"#utility.yul\":3458:3571   */\n  swap1\n  pop\n    /* \"#utility.yul\":3293:3578   */\n  swap3\n  swap2\n  pop\n  pop\n  jump\t// out\n    /* \"#utility.yul\":3584:4657   */\ntag_95:\n    /* \"#utility.yul\":3638:3643   */\n  0x00\n    /* \"#utility.yul\":3829:3837   */\n  dup3\n    /* \"#utility.yul\":3819:3859   */\n  tag_97\n  jumpi\n    /* \"#utility.yul\":3850:3851   */\n  0x01\n    /* \"#utility.yul\":3841:3851   */\n  swap1\n  pop\n    /* \"#utility.yul\":3852:3857   */\n  jump(tag_96)\n    /* \"#utility.yul\":3819:3859   */\ntag_97:\n    /* \"#utility.yul\":3878:3882   */\n  dup2\n    /* \"#utility.yul\":3868:3904   */\n  tag_98\n  jumpi\n    /* \"#utility.yul\":3895:3896   */\n  0x00\n    /* \"#utility.yul\":3886:3896   */\n  swap1\n  pop\n    /* \"#utility.yul\":3897:3902   */\n  jump(tag_96)\n    /* \"#utility.yul\":3868:3904   */\ntag_98:\n    /* \"#utility.yul\":3964:3968   */\n  dup2\n    /* \"#utility.yul\":4012:4013   */\n  0x01\n    /* \"#utility.yul\":4007:4034   */\n  dup2\n  eq\n  tag_100\n  jumpi\n    /* \"#utility.yul\":4048:4049   */\n  0x02\n    /* \"#utility.yul\":4043:4234   */\n  dup2\n  eq\n  tag_101\n  jumpi\n    /* \"#utility.yul\":3957:4234   */\n  jump(tag_99)\n    /* \"#utility.yul\":4007:4034   */\ntag_100:\n    /* \"#utility.yul\":4025:4026   */\n  0x01\n    /* \"#utility.yul\":4016:4026   */\n  swap2\n  pop\n    /* \"#utility.yul\":4027:4032   */\n  pop\n  jump(tag_96)\n    /* \"#utility.yul\":4043:4234   */\ntag_101:\n    /* \"#utility.yul\":4088:4091   */\n  0xff\n    /* \"#utility.yul\":4078:4086   */\n  dup5\n    /* \"#utility.yul\":4075:4092   */\n  gt\n    /* \"#utility.yul\":4072:4115   */\n  iszero\n  tag_102\n  jumpi\n    /* \"#utility.yul\":4095:4113   */\n  tag_103\n  tag_80\n  jump\t// in\ntag_103:\n    /* \"#utility.yul\":4072:4115   */\ntag_102:\n    /* \"#utility.yul\":4144:4152   */\n  dup4\n    /* \"#utility.yul\":4141:4142   */\n  0x02\n    /* \"#utility.yul\":4137:4153   */\n  exp\n    /* \"#utility.yul\":4128:4153   */\n  swap2\n  pop\n    /* \"#utility.yul\":4179:4182   */\n  dup5\n    /* \"#utility.yul\":4172:4177   */\n  dup3\n    /* \"#utility.yul\":4169:4183   */\n  gt\n    /* \"#utility.yul\":4166:4206   */\n  iszero\n  tag_104\n  jumpi\n    /* \"#utility.yul\":4186:4204   */\n  tag_105\n  tag_80\n  jump\t// in\ntag_105:\n    /* \"#utility.yul\":4166:4206   */\ntag_104:\n    /* \"#utility.yul\":4219:4224   */\n  pop\n  jump(tag_96)\n    /* \"#utility.yul\":3957:4234   */\ntag_99:\n  pop\n    /* \"#utility.yul\":4343:4345   */\n  0x20\n    /* \"#utility.yul\":4333:4341   */\n  dup4\n    /* \"#utility.yul\":4330:4346   */\n  lt\n    /* \"#utility.yul\":4324:4327   */\n  0x0133\n    /* \"#utility.yul\":4318:4322   */\n  dup4\n    /* \"#utility.yul\":4315:4328   */\n  lt\n    /* \"#utility.yul\":4311:4347   */\n  and\n    /* \"#utility.yul\":4293:4295   */\n  0x4e\n    /* \"#utility.yul\":4283:4291   */\n  dup5\n    /* \"#utility.yul\":4280:4296   */\n  lt\n    /* \"#utility.yul\":4275:4277   */\n  0x0b\n    /* \"#utility.yul\":4269:4273   */\n  dup5\n    /* \"#utility.yul\":4266:4278   */\n  lt\n    /* \"#utility.yul\":4262:4297   */\n  and\n    /* \"#utility.yul\":4246:4357   */\n  or\n    /* \"#utility.yul\":4243:4489   */\n  iszero\n  tag_106\n  jumpi\n    /* \"#utility.yul\":4399:4407   */\n  dup3\n    /* \"#utility.yul\":4393:4397   */\n  dup3\n    /* \"#utility.yul\":4389:4408   */\n  exp\n    /* \"#utility.yul\":4380:4408   */\n  swap1\n  pop\n    /* \"#utility.yul\":4434:4437   */\n  dup4\n    /* \"#utility.yul\":4427:4432   */\n  dup2\n    /* \"#utility.yul\":4424:4438   */\n  gt\n    /* \"#utility.yul\":4421:4461   */\n  iszero\n  tag_107\n  jumpi\n    /* \"#utility.yul\":4441:4459   */\n  tag_108\n  tag_80\n  jump\t// in\ntag_108:\n    /* \"#utility.yul\":4421:4461   */\ntag_107:\n    /* \"#utility.yul\":4474:4479   */\n  jump(tag_96)\n    /* \"#utility.yul\":4243:4489   */\ntag_106:\n    /* \"#utility.yul\":4514:4556   */\n  tag_109\n    /* \"#utility.yul\":4552:4555   */\n  dup5\n    /* \"#utility.yul\":4542:4550   */\n  dup5\n    /* \"#utility.yul\":4536:4540   */\n  dup5\n    /* \"#utility.yul\":4533:4534   */\n  0x01\n    /* \"#utility.yul\":4514:4556   */\n  tag_81\n  jump\t// in\ntag_109:\n    /* \"#utility.yul\":4499:4556   */\n  swap3\n  pop\n  swap1\n  pop\n    /* \"#utility.yul\":4588:4592   */\n  dup2\n    /* \"#utility.yul\":4583:4586   */\n  dup5\n    /* \"#utility.yul\":4579:4593   */\n  div\n    /* \"#utility.yul\":4572:4577   */\n  dup2\n    /* \"#utility.yul\":4569:4594   */\n  gt\n    /* \"#utility.yul\":4566:4617   */\n  iszero\n  tag_110\n  jumpi\n    /* \"#utility.yul\":4597:4615   */\n  tag_111\n  tag_80\n  jump\t// in\ntag_111:\n    /* \"#utility.yul\":4566:4617   */\ntag_110:\n    /* \"#utility.yul\":4646:4650   */\n  dup2\n    /* \"#utility.yul\":4639:4644   */\n  dup2\n    /* \"#utility.yul\":4635:4651   */\n  mul\n    /* \"#utility.yul\":4626:4651   */\n  swap1\n  pop\n    /* \"#utility.yul\":3584:4657   */\ntag_96:\n  swap4\n  swap3\n  pop\n  pop\n  pop\n  jump\t// out\n    /* \"#utility.yul\":4663:5011   */\ntag_20:\n    /* \"#utility.yul\":4703:4710   */\n  0x00\n    /* \"#utility.yul\":4726:4746   */\n  tag_113\n    /* \"#utility.yul\":4744:4745   */\n  dup3\n    /* \"#utility.yul\":4726:4746   */\n  tag_67\n  jump\t// in\ntag_113:\n    /* \"#utility.yul\":4721:4746   */\n  swap2\n  pop\n    /* \"#utility.yul\":4760:4780   */\n  tag_114\n    /* \"#utility.yul\":4778:4779   */\n  dup4\n    /* \"#utility.yul\":4760:4780   */\n  tag_67\n  jump\t// in\ntag_114:\n    /* \"#utility.yul\":4755:4780   */\n  swap3\n  pop\n    /* \"#utility.yul\":4948:4949   */\n  dup2\n    /* \"#utility.yul\":4880:4946   */\n  0xffffffffffffffffffffffffffffffffffffffffffffffffffffffffffffffff\n    /* \"#utility.yul\":4876:4950   */\n  div\n    /* \"#utility.yul\":4873:4874   */\n  dup4\n    /* \"#utility.yul\":4870:4951   */\n  gt\n    /* \"#utility.yul\":4865:4866   */\n  dup3\n    /* \"#utility.yul\":4858:4867   */\n  iszero\n    /* \"#utility.yul\":4851:4868   */\n  iszero\n    /* \"#utility.yul\":4847:4952   */\n  and\n    /* \"#utility.yul\":4844:4975   */\n  iszero\n  tag_115\n  jumpi\n    /* \"#utility.yul\":4955:4973   */\n  tag_116\n  tag_80\n  jump\t// in\ntag_116:\n    /* \"#utility.yul\":4844:4975   */\ntag_115:\n    /* \"#utility.yul\":5003:5004   */\n  dup3\n    /* \"#utility.yul\":5000:5001   */\n  dup3\n    /* \"#utility.yul\":4996:5005   */\n  mul\n    /* \"#utility.yul\":4985:5005   */\n  swap1\n  pop\n    /* \"#utility.yul\":4663:5011   */\n  swap3\n  swap2\n  pop\n  pop\n  jump\t// out\n    /* \"#utility.yul\":5017:5094   */\ntag_67:\n    /* \"#utility.yul\":5054:5061   */\n  0x00\n    /* \"#utility.yul\":5083:5088   */\n  dup2\n    /* \"#utility.yul\":5072:5088   */\n  swap1\n  pop\n    /* \"#utility.yul\":5017:5094   */\n  swap2\n  swap1\n  pop\n  jump\t// out\n    /* \"#utility.yul\":5100:5420   */\ntag_42:\n    /* \"#utility.yul\":5144:5150   */\n  0x00\n    /* \"#utility.yul\":5181:5182   */\n  0x02\n    /* \"#utility.yul\":5175:5179   */\n  dup3\n    /* \"#utility.yul\":5171:5183   */\n  div\n    /* \"#utility.yul\":5161:5183   */\n  swap1\n  pop\n    /* \"#utility.yul\":5228:5229   */\n  0x01\n    /* \"#utility.yul\":5222:5226   */\n  dup3\n    /* \"#utility.yul\":5218:5230   */\n  and\n    /* \"#utility.yul\":5249:5267   */\n  dup1\n    /* \"#utility.yul\":5239:5320   */\n  tag_119\n  jumpi\n    /* \"#utility.yul\":5305:5309   */\n  0x7f\n    /* \"#utility.yul\":5297:5303   */\n  dup3\n    /* \"#utility.yul\":5293:5310   */\n  and\n    /* \"#utility.yul\":5283:5310   */\n  swap2\n  pop\n    /* \"#utility.yul\":5239:5320   */\ntag_119:\n    /* \"#utility.yul\":5367:5369   */\n  0x20\n    /* \"#utility.yul\":5359:5365   */\n  dup3\n    /* \"#utility.yul\":5356:5370   */\n  lt\n    /* \"#utility.yul\":5336:5354   */\n  dup2\n    /* \"#utility.yul\":5333:5371   */\n  eq\n    /* \"#utility.yul\":5330:5414   */\n  iszero\n  tag_120\n  jumpi\n    /* \"#utility.yul\":5386:5404   */\n  tag_121\n  tag_122\n  jump\t// in\ntag_121:\n    /* \"#utility.yul\":5330:5414   */\ntag_120:\n    /* \"#utility.yul\":5151:5420   */\n  pop\n    /* \"#utility.yul\":5100:5420   */\n  swap2\n  swap1\n  pop\n  jump\t// out\n    /* \"#utility.yul\":5426:5606   */\ntag_80:\n    /* \"#utility.yul\":5474:5551   */\n  0x4e487b7100000000000000000000000000000000000000000000000000000000\n    /* \"#utility.yul\":5471:5472   */\n  0x00\n    /* \"#utility.yul\":5464:5552   */\n  mstore\n    /* \"#utility.yul\":5571:5575   */\n  0x11\n    /* \"#utility.yul\":5568:5569   */\n  0x04\n    /* \"#utility.yul\":5561:5576   */\n  mstore\n    /* \"#utility.yul\":5595:5599   */\n  0x24\n    /* \"#utility.yul\":5592:5593   */\n  0x00\n    /* \"#utility.yul\":5585:5600   */\n  revert\n    /* \"#utility.yul\":5612:5792   */\ntag_122:\n    /* \"#utility.yul\":5660:5737   */\n  0x4e487b7100000000000000000000000000000000000000000000000000000000\n    /* \"#utility.yul\":5657:5658   */\n  0x00\n    /* \"#utility.yul\":5650:5738   */\n  mstore\n    /* \"#utility.yul\":5757:5761   */\n  0x22\n    /* \"#utility.yul\":5754:5755   */\n  0x04\n    /* \"#utility.yul\":5747:5762   */\n  mstore\n    /* \"#utility.yul\":5781:5785   */\n  0x24\n    /* \"#utility.yul\":5778:5779   */\n  0x00\n    /* \"#utility.yul\":5771:5786   */\n  revert\n    /* \"#utility.yul\":5798:5900   */\ntag_90:\n    /* \"#utility.yul\":5840:5848   */\n  0x00\n    /* \"#utility.yul\":5887:5892   */\n  dup2\n    /* \"#utility.yul\":5884:5885   */\n  0x01\n    /* \"#utility.yul\":5880:5893   */\n  shr\n    /* \"#utility.yul\":5859:5893   */\n  swap1\n  pop\n    /* \"#utility.yul\":5798:5900   */\n  swap2\n  swap1\n  pop\n  jump\t// out\n    /* \"#utility.yul\":5906:6083   */\ntag_58:\n    /* \"#utility.yul\":6046:6075   */\n  0x536166654d6174683a206164646974696f6e206f766572666c6f770000000000\n    /* \"#utility.yul\":6042:6043   */\n  0x00\n    /* \"#utility.yul\":6034:6040   */\n  dup3\n    /* \"#utility.yul\":6030:6044   */\n  add\n    /* \"#utility.yul\":6023:6076   */\n  mstore\n    /* \"#utility.yul\":5906:6083   */\n  pop\n  jump\t// out\n    /* \"#utility.yul\":6089:6270   */\ntag_63:\n    /* \"#utility.yul\":6229:6262   */\n  0x42455032303a206d696e7420746f20746865207a65726f206164647265737300\n    /* \"#utility.yul\":6225:6226   */\n  0x00\n    /* \"#utility.yul\":6217:6223   */\n  dup3\n    /* \"#utility.yul\":6213:6227   */\n  add\n    /* \"#utility.yul\":6206:6263   */\n  mstore\n    /* \"#utility.yul\":6089:6270   */\n  pop\n  jump\t// out\n    /* \"VIMToken.sol\":114:394  contract VIMToken is BEP20Detailed, BEP20 {... */\ntag_23:\n  dataSize(sub_0)\n  dup1\n  dataOffset(sub_0)\n  0x00\n  codecopy\n  0x00\n  return\nstop\n\nsub_0: assembly {\n        /* \"VIMToken.sol\":114:394  contract VIMToken is BEP20Detailed, BEP20 {... */\n      mstore(0x40, 0x80)\n      callvalue\n      dup1\n      iszero\n      tag_1\n      jumpi\n      0x00\n      dup1\n      revert\n    tag_1:\n      pop\n      jumpi(tag_2, lt(calldatasize, 0x04))\n      shr(0xe0, calldataload(0x00))\n      dup1\n      0x70a08231\n      gt\n      tag_22\n      jumpi\n      dup1\n      0x95d89b41\n      gt\n      tag_23\n      jumpi\n      dup1\n      0x95d89b41\n      eq\n      tag_17\n      jumpi\n      dup1\n      0xa457c2d7\n      eq\n      tag_18\n      jumpi\n      dup1\n      0xa9059cbb\n      eq\n      tag_19\n      jumpi\n      dup1\n      0xdd62ed3e\n      eq\n      tag_20\n      jumpi\n      dup1\n      0xf2fde38b\n      eq\n      tag_21\n      jumpi\n      jump(tag_2)\n    tag_23:\n      dup1\n      0x70a08231\n      eq\n      tag_12\n      jumpi\n      dup1\n      0x715018a6\n      eq\n      tag_13\n      jumpi\n      dup1\n      0x8456cb59\n      eq\n      tag_14\n      jumpi\n      dup1\n      0x8da5cb5b\n      eq\n      tag_15\n      jumpi\n      dup1\n      0x8f32d59b\n      eq\n      tag_16\n      jumpi\n      jump(tag_2)\n    tag_22:\n      dup1\n      0x313ce567\n      gt\n      tag_24\n      jumpi\n      dup1\n      0x313ce567\n      eq\n      tag_7\n      jumpi\n      dup1\n      0x39509351\n      eq\n      tag_8\n      jumpi\n      dup1\n      0x3f4ba83a\n      eq\n      tag_9\n      jumpi\n      dup1\n      0x42966c68\n      eq\n      tag_10\n      jumpi\n      dup1\n      0x5c975abb\n      eq\n      tag_11\n      jumpi\n      jump(tag_2)\n    tag_24:\n      dup1\n      0x06fdde03\n      eq\n      tag_3\n      jumpi\n      dup1\n      0x095ea7b3\n      eq\n      tag_4\n      jumpi\n      dup1\n      0x18160ddd\n      eq\n      tag_5\n      jumpi\n      dup1\n      0x23b872dd\n      eq\n      tag_6\n      jumpi\n    tag_2:\n      0x00\n      dup1\n      revert\n        /* \"BEP20Detailed.sol\":624:699  function name() public view returns (string memory) {... */\n    tag_3:\n      tag_25\n      tag_26\n      jump\t// in\n    tag_25:\n      mload(0x40)\n      tag_27\n      swap2\n      swap1\n      tag_28\n      jump\t// in\n    tag_27:\n      mload(0x40)\n      dup1\n      swap2\n      sub\n      swap1\n      return\n        /* \"BEP20.sol\":2350:2512  function approve(address spender, uint256 amount) public override whenNotPaused returns (bool) {... */\n    tag_4:\n      tag_29\n      0x04\n      dup1\n      calldatasize\n      sub\n      dup2\n      add\n      swap1\n      tag_30\n      swap2\n      swap1\n      tag_31\n      jump\t// in\n    tag_30:\n      tag_32\n      jump\t// in\n    tag_29:\n      mload(0x40)\n      tag_33\n      swap2\n      swap1\n      tag_34\n      jump\t// in\n    tag_33:\n      mload(0x40)\n      dup1\n      swap2\n      sub\n      swap1\n      return\n        /* \"BEP20.sol\":1429:1521  function totalSupply() public view override returns (uint256) {... */\n    tag_5:\n      tag_35\n      tag_36\n      jump\t// in\n    tag_35:\n      mload(0x40)\n      tag_37\n      swap2\n      swap1\n      tag_38\n      jump\t// in\n    tag_37:\n      mload(0x40)\n      dup1\n      swap2\n      sub\n      swap1\n      return\n        /* \"BEP20.sol\":2944:3301  function transferFrom(... */\n    tag_6:\n      tag_39\n      0x04\n      dup1\n      calldatasize\n      sub\n      dup2\n      add\n      swap1\n      tag_40\n      swap2\n      swap1\n      tag_41\n      jump\t// in\n    tag_40:\n      tag_42\n      jump\t// in\n    tag_39:\n      mload(0x40)\n      tag_43\n      swap2\n      swap1\n      tag_34\n      jump\t// in\n    tag_43:\n      mload(0x40)\n      dup1\n      swap2\n      sub\n      swap1\n      return\n        /* \"BEP20Detailed.sol\":1404:1479  function decimals() public view returns (uint8) {... */\n    tag_7:\n      tag_44\n      tag_45\n      jump\t// in\n    tag_44:\n      mload(0x40)\n      tag_46\n      swap2\n      swap1\n      tag_47\n      jump\t// in\n    tag_46:\n      mload(0x40)\n      dup1\n      swap2\n      sub\n      swap1\n      return\n        /* \"BEP20.sol\":3670:3881  function increaseAllowance(address spender, uint256 addedValue) public whenNotPaused returns (bool) {... */\n    tag_8:\n      tag_48\n      0x04\n      dup1\n      calldatasize\n      sub\n      dup2\n      add\n      swap1\n      tag_49\n      swap2\n      swap1\n      tag_31\n      jump\t// in\n    tag_49:\n      tag_50\n      jump\t// in\n    tag_48:\n      mload(0x40)\n      tag_51\n      swap2\n      swap1\n      tag_34\n      jump\t// in\n    tag_51:\n      mload(0x40)\n      dup1\n      swap2\n      sub\n      swap1\n      return\n        /* \"BEPPausable.sol\":870:994  function unpause() public onlyOwner whenPaused returns (bool) {... */\n    tag_9:\n      tag_52\n      tag_53\n      jump\t// in\n    tag_52:\n      mload(0x40)\n      tag_54\n      swap2\n      swap1\n      tag_34\n      jump\t// in\n    tag_54:\n      mload(0x40)\n      dup1\n      swap2\n      sub\n      swap1\n      return\n        /* \"VIMToken.sol\":317:392  function burn(uint256 amount) external {... */\n    tag_10:\n      tag_55\n      0x04\n      dup1\n      calldatasize\n      sub\n      dup2\n      add\n      swap1\n      tag_56\n      swap2\n      swap1\n      tag_57\n      jump\t// in\n    tag_56:\n      tag_58\n      jump\t// in\n    tag_55:\n      stop\n        /* \"BEPPausable.sol\":272:298  bool public paused = false */\n    tag_11:\n      tag_59\n      tag_60\n      jump\t// in\n    tag_59:\n      mload(0x40)\n      tag_61\n      swap2\n      swap1\n      tag_34\n      jump\t// in\n    tag_61:\n      mload(0x40)\n      dup1\n      swap2\n      sub\n      swap1\n      return\n        /* \"BEP20.sol\":1571:1682  function balanceOf(address account) public view override returns (uint256) {... */\n    tag_12:\n      tag_62\n      0x04\n      dup1\n      calldatasize\n      sub\n      dup2\n      add\n      swap1\n      tag_63\n      swap2\n      swap1\n      tag_64\n      jump\t// in\n    tag_63:\n      tag_65\n      jump\t// in\n    tag_62:\n      mload(0x40)\n      tag_66\n      swap2\n      swap1\n      tag_38\n      jump\t// in\n    tag_66:\n      mload(0x40)\n      dup1\n      swap2\n      sub\n      swap1\n      return\n        /* \"BEPOwnable.sol\":1630:1757  function renounceOwnership() public onlyOwner {... */\n    tag_13:\n      tag_67\n      tag_68\n      jump\t// in\n    tag_67:\n      stop\n        /* \"BEPPausable.sol\":666:788  function pause() public onlyOwner whenNotPaused returns (bool) {... */\n    tag_14:\n      tag_69\n      tag_70\n      jump\t// in\n    tag_69:\n      mload(0x40)\n      tag_71\n      swap2\n      swap1\n      tag_34\n      jump\t// in\n    tag_71:\n      mload(0x40)\n      dup1\n      swap2\n      sub\n      swap1\n      return\n        /* \"BEPOwnable.sol\":899:970  function owner() public view returns (address) {... */\n    tag_15:\n      tag_72\n      tag_73\n      jump\t// in\n    tag_72:\n      mload(0x40)\n      tag_74\n      swap2\n      swap1\n      tag_75\n      jump\t// in\n    tag_74:\n      mload(0x40)\n      dup1\n      swap2\n      sub\n      swap1\n      return\n        /* \"BEPOwnable.sol\":1218:1304  function isOwner() public view returns (bool) {... */\n    tag_16:\n      tag_76\n      tag_77\n      jump\t// in\n    tag_76:\n      mload(0x40)\n      tag_78\n      swap2\n      swap1\n      tag_34\n      jump\t// in\n    tag_78:\n      mload(0x40)\n      dup1\n      swap2\n      sub\n      swap1\n      return\n        /* \"BEP20Detailed.sol\":802:881  function symbol() public view returns (string memory) {... */\n    tag_17:\n      tag_79\n      tag_80\n      jump\t// in\n    tag_79:\n      mload(0x40)\n      tag_81\n      swap2\n      swap1\n      tag_28\n      jump\t// in\n    tag_81:\n      mload(0x40)\n      dup1\n      swap2\n      sub\n      swap1\n      return\n        /* \"BEP20.sol\":4338:4624  function decreaseAllowance(address spender, uint256 subtractedValue) public whenNotPaused returns (bool) {... */\n    tag_18:\n      tag_82\n      0x04\n      dup1\n      calldatasize\n      sub\n      dup2\n      add\n      swap1\n      tag_83\n      swap2\n      swap1\n      tag_31\n      jump\t// in\n    tag_83:\n      tag_84\n      jump\t// in\n    tag_82:\n      mload(0x40)\n      tag_85\n      swap2\n      swap1\n      tag_34\n      jump\t// in\n    tag_85:\n      mload(0x40)\n      dup1\n      swap2\n      sub\n      swap1\n      return\n        /* \"BEP20.sol\":1867:2043  function transfer(address recipient, uint256 amount) public virtual override whenNotPaused returns (bool) {... */\n    tag_19:\n      tag_86\n      0x04\n      dup1\n      calldatasize\n      sub\n      dup2\n      add\n      swap1\n      tag_87\n      swap2\n      swap1\n      tag_31\n      jump\t// in\n    tag_87:\n      tag_88\n      jump\t// in\n    tag_86:\n      mload(0x40)\n      tag_89\n      swap2\n      swap1\n      tag_34\n      jump\t// in\n    tag_89:\n      mload(0x40)\n      dup1\n      swap2\n      sub\n      swap1\n      return\n        /* \"BEP20.sol\":2093:2228  function allowance(address owner, address spender) public view override returns (uint256) {... */\n    tag_20:\n      tag_90\n      0x04\n      dup1\n      calldatasize\n      sub\n      dup2\n      add\n      swap1\n      tag_91\n      swap2\n      swap1\n      tag_92\n      jump\t// in\n    tag_91:\n      tag_93\n      jump\t// in\n    tag_90:\n      mload(0x40)\n      tag_94\n      swap2\n      swap1\n      tag_38\n      jump\t// in\n    tag_94:\n      mload(0x40)\n      dup1\n      swap2\n      sub\n      swap1\n      return\n        /* \"BEPOwnable.sol\":1896:1997  function transferOwnership(address newOwner) public onlyOwner {... */\n    tag_21:\n      tag_95\n      0x04\n      dup1\n      calldatasize\n      sub\n      dup2\n      add\n      swap1\n      tag_96\n      swap2\n      swap1\n      tag_64\n      jump\t// in\n    tag_96:\n      tag_97\n      jump\t// in\n    tag_95:\n      stop\n        /* \"BEP20Detailed.sol\":624:699  function name() public view returns (string memory) {... */\n    tag_26:\n        /* \"BEP20Detailed.sol\":661:674  string memory */\n      0x60\n        /* \"BEP20Detailed.sol\":689:694  _name */\n      0x00\n        /* \"BEP20Detailed.sol\":682:694  return _name */\n      dup1\n      sload\n      tag_100\n      swap1\n      tag_101\n      jump\t// in\n    tag_100:\n      dup1\n      0x1f\n      add\n      0x20\n      dup1\n      swap2\n      div\n      mul\n      0x20\n      add\n      mload(0x40)\n      swap1\n      dup2\n      add\n      0x40\n      mstore\n      dup1\n      swap3\n      swap2\n      swap1\n      dup2\n      dup2\n      mstore\n      0x20\n      add\n      dup3\n      dup1\n      sload\n      tag_102\n      swap1\n      tag_101\n      jump\t// in\n    tag_102:\n      dup1\n      iszero\n      tag_103\n      jumpi\n      dup1\n      0x1f\n      lt\n      tag_104\n      jumpi\n      0x0100\n      dup1\n      dup4\n      sload\n      div\n      mul\n      dup4\n      mstore\n      swap2\n      0x20\n      add\n      swap2\n      jump(tag_103)\n    tag_104:\n      dup3\n      add\n      swap2\n      swap1\n      0x00\n      mstore\n      keccak256(0x00, 0x20)\n      swap1\n    tag_105:\n      dup2\n      sload\n      dup2\n      mstore\n      swap1\n      0x01\n      add\n      swap1\n      0x20\n      add\n      dup1\n      dup4\n      gt\n      tag_105\n      jumpi\n      dup3\n      swap1\n      sub\n      0x1f\n      and\n      dup3\n      add\n      swap2\n    tag_103:\n      pop\n      pop\n      pop\n      pop\n      pop\n      swap1\n      pop\n        /* \"BEP20Detailed.sol\":624:699  function name() public view returns (string memory) {... */\n      swap1\n      jump\t// out\n        /* \"BEP20.sol\":2350:2512  function approve(address spender, uint256 amount) public override whenNotPaused returns (bool) {... */\n    tag_32:\n        /* \"BEP20.sol\":2439:2443  bool */\n      0x00\n        /* \"BEPPausable.sol\":424:430  paused */\n      0x02\n      0x15\n      swap1\n      sload\n      swap1\n      0x0100\n      exp\n      swap1\n      div\n      0xff\n      and\n        /* \"BEPPausable.sol\":423:430  !paused */\n      iszero\n        /* \"BEPPausable.sol\":415:431  require(!paused) */\n      tag_107\n      jumpi\n      0x00\n      dup1\n      revert\n    tag_107:\n        /* \"BEP20.sol\":2451:2490  _approve(_msgSender(), spender, amount) */\n      tag_109\n        /* \"BEP20.sol\":2460:2472  _msgSender() */\n      tag_110\n        /* \"BEP20.sol\":2460:2470  _msgSender */\n      tag_111\n        /* \"BEP20.sol\":2460:2472  _msgSender() */\n      jump\t// in\n    tag_110:\n        /* \"BEP20.sol\":2474:2481  spender */\n      dup5\n        /* \"BEP20.sol\":2483:2489  amount */\n      dup5\n        /* \"BEP20.sol\":2451:2459  _approve */\n      tag_112\n        /* \"BEP20.sol\":2451:2490  _approve(_msgSender(), spender, amount) */\n      jump\t// in\n    tag_109:\n        /* \"BEP20.sol\":2503:2507  true */\n      0x01\n        /* \"BEP20.sol\":2496:2507  return true */\n      swap1\n      pop\n        /* \"BEP20.sol\":2350:2512  function approve(address spender, uint256 amount) public override whenNotPaused returns (bool) {... */\n      swap3\n      swap2\n      pop\n      pop\n      jump\t// out\n        /* \"BEP20.sol\":1429:1521  function totalSupply() public view override returns (uint256) {... */\n    tag_36:\n        /* \"BEP20.sol\":1482:1489  uint256 */\n      0x00\n        /* \"BEP20.sol\":1504:1516  _totalSupply */\n      sload(0x05)\n        /* \"BEP20.sol\":1497:1516  return _totalSupply */\n      swap1\n      pop\n        /* \"BEP20.sol\":1429:1521  function totalSupply() public view override returns (uint256) {... */\n      swap1\n      jump\t// out\n        /* \"BEP20.sol\":2944:3301  function transferFrom(... */\n    tag_42:\n        /* \"BEP20.sol\":3080:3084  bool */\n      0x00\n        /* \"BEPPausable.sol\":424:430  paused */\n      0x02\n      0x15\n      swap1\n      sload\n      swap1\n      0x0100\n      exp\n      swap1\n      div\n      0xff\n      and\n        /* \"BEPPausable.sol\":423:430  !paused */\n      iszero\n        /* \"BEPPausable.sol\":415:431  require(!paused) */\n      tag_115\n      jumpi\n      0x00\n      dup1\n      revert\n    tag_115:\n        /* \"BEP20.sol\":3092:3128  _transfer(sender, recipient, amount) */\n      tag_117\n        /* \"BEP20.sol\":3102:3108  sender */\n      dup5\n        /* \"BEP20.sol\":3110:3119  recipient */\n      dup5\n        /* \"BEP20.sol\":3121:3127  amount */\n      dup5\n        /* \"BEP20.sol\":3092:3101  _transfer */\n      tag_118\n        /* \"BEP20.sol\":3092:3128  _transfer(sender, recipient, amount) */\n      jump\t// in\n    tag_117:\n        /* \"BEP20.sol\":3134:3279  _approve(... */\n      tag_119\n        /* \"BEP20.sol\":3150:3156  sender */\n      dup5\n        /* \"BEP20.sol\":3164:3176  _msgSender() */\n      tag_120\n        /* \"BEP20.sol\":3164:3174  _msgSender */\n      tag_111\n        /* \"BEP20.sol\":3164:3176  _msgSender() */\n      jump\t// in\n    tag_120:\n        /* \"BEP20.sol\":3184:3273  _allowances[sender][_msgSender()].sub(amount, \"BEP20: transfer amount exceeds allowance\") */\n      tag_121\n        /* \"BEP20.sol\":3222:3228  amount */\n      dup6\n        /* \"BEP20.sol\":3184:3273  _allowances[sender][_msgSender()].sub(amount, \"BEP20: transfer amount exceeds allowance\") */\n      mload(0x40)\n      dup1\n      0x60\n      add\n      0x40\n      mstore\n      dup1\n      0x28\n      dup2\n      mstore\n      0x20\n      add\n      data_4f3506f4ba71c79c3cbd442a3afeb30e9b27af2d84e116a4385b34e267d2287e\n      0x28\n      swap2\n      codecopy\n        /* \"BEP20.sol\":3184:3195  _allowances */\n      0x04\n        /* \"BEP20.sol\":3184:3203  _allowances[sender] */\n      0x00\n        /* \"BEP20.sol\":3196:3202  sender */\n      dup12\n        /* \"BEP20.sol\":3184:3203  _allowances[sender] */\n      0xffffffffffffffffffffffffffffffffffffffff\n      and\n      0xffffffffffffffffffffffffffffffffffffffff\n      and\n      dup2\n      mstore\n      0x20\n      add\n      swap1\n      dup2\n      mstore\n      0x20\n      add\n      0x00\n      keccak256\n        /* \"BEP20.sol\":3184:3217  _allowances[sender][_msgSender()] */\n      0x00\n        /* \"BEP20.sol\":3204:3216  _msgSender() */\n      tag_122\n        /* \"BEP20.sol\":3204:3214  _msgSender */\n      tag_111\n        /* \"BEP20.sol\":3204:3216  _msgSender() */\n      jump\t// in\n    tag_122:\n        /* \"BEP20.sol\":3184:3217  _allowances[sender][_msgSender()] */\n      0xffffffffffffffffffffffffffffffffffffffff\n      and\n      0xffffffffffffffffffffffffffffffffffffffff\n      and\n      dup2\n      mstore\n      0x20\n      add\n      swap1\n      dup2\n      mstore\n      0x20\n      add\n      0x00\n      keccak256\n      sload\n        /* \"BEP20.sol\":3184:3221  _allowances[sender][_msgSender()].sub */\n      tag_123\n      swap1\n        /* \"BEP20.sol\":3184:3273  _allowances[sender][_msgSender()].sub(amount, \"BEP20: transfer amount exceeds allowance\") */\n      swap3\n      swap2\n      swap1\n      0xffffffff\n      and\n      jump\t// in\n    tag_121:\n        /* \"BEP20.sol\":3134:3142  _approve */\n      tag_112\n        /* \"BEP20.sol\":3134:3279  _approve(... */\n      jump\t// in\n    tag_119:\n        /* \"BEP20.sol\":3292:3296  true */\n      0x01\n        /* \"BEP20.sol\":3285:3296  return true */\n      swap1\n      pop\n        /* \"BEP20.sol\":2944:3301  function transferFrom(... */\n      swap4\n      swap3\n      pop\n      pop\n      pop\n      jump\t// out\n        /* \"BEP20Detailed.sol\":1404:1479  function decimals() public view returns (uint8) {... */\n    tag_45:\n        /* \"BEP20Detailed.sol\":1445:1450  uint8 */\n      0x00\n        /* \"BEP20Detailed.sol\":1465:1474  _decimals */\n      0x02\n      0x00\n      swap1\n      sload\n      swap1\n      0x0100\n      exp\n      swap1\n      div\n      0xff\n      and\n        /* \"BEP20Detailed.sol\":1458:1474  return _decimals */\n      swap1\n      pop\n        /* \"BEP20Detailed.sol\":1404:1479  function decimals() public view returns (uint8) {... */\n      swap1\n      jump\t// out\n        /* \"BEP20.sol\":3670:3881  function increaseAllowance(address spender, uint256 addedValue) public whenNotPaused returns (bool) {... */\n    tag_50:\n        /* \"BEP20.sol\":3764:3768  bool */\n      0x00\n        /* \"BEPPausable.sol\":424:430  paused */\n      0x02\n      0x15\n      swap1\n      sload\n      swap1\n      0x0100\n      exp\n      swap1\n      div\n      0xff\n      and\n        /* \"BEPPausable.sol\":423:430  !paused */\n      iszero\n        /* \"BEPPausable.sol\":415:431  require(!paused) */\n      tag_126\n      jumpi\n      0x00\n      dup1\n      revert\n    tag_126:\n        /* \"BEP20.sol\":3776:3859  _approve(_msgSender(), spender, _allowances[_msgSender()][spender].add(addedValue)) */\n      tag_128\n        /* \"BEP20.sol\":3785:3797  _msgSender() */\n      tag_129\n        /* \"BEP20.sol\":3785:3795  _msgSender */\n      tag_111\n        /* \"BEP20.sol\":3785:3797  _msgSender() */\n      jump\t// in\n    tag_129:\n        /* \"BEP20.sol\":3799:3806  spender */\n      dup5\n        /* \"BEP20.sol\":3808:3858  _allowances[_msgSender()][spender].add(addedValue) */\n      tag_130\n        /* \"BEP20.sol\":3847:3857  addedValue */\n      dup6\n        /* \"BEP20.sol\":3808:3819  _allowances */\n      0x04\n        /* \"BEP20.sol\":3808:3833  _allowances[_msgSender()] */\n      0x00\n        /* \"BEP20.sol\":3820:3832  _msgSender() */\n      tag_131\n        /* \"BEP20.sol\":3820:3830  _msgSender */\n      tag_111\n        /* \"BEP20.sol\":3820:3832  _msgSender() */\n      jump\t// in\n    tag_131:\n        /* \"BEP20.sol\":3808:3833  _allowances[_msgSender()] */\n      0xffffffffffffffffffffffffffffffffffffffff\n      and\n      0xffffffffffffffffffffffffffffffffffffffff\n      and\n      dup2\n      mstore\n      0x20\n      add\n      swap1\n      dup2\n      mstore\n      0x20\n      add\n      0x00\n      keccak256\n        /* \"BEP20.sol\":3808:3842  _allowances[_msgSender()][spender] */\n      0x00\n        /* \"BEP20.sol\":3834:3841  spender */\n      dup10\n        /* \"BEP20.sol\":3808:3842  _allowances[_msgSender()][spender] */\n      0xffffffffffffffffffffffffffffffffffffffff\n      and\n      0xffffffffffffffffffffffffffffffffffffffff\n      and\n      dup2\n      mstore\n      0x20\n      add\n      swap1\n      dup2\n      mstore\n      0x20\n      add\n      0x00\n      keccak256\n      sload\n        /* \"BEP20.sol\":3808:3846  _allowances[_msgSender()][spender].add */\n      tag_98\n      swap1\n        /* \"BEP20.sol\":3808:3858  _allowances[_msgSender()][spender].add(addedValue) */\n      swap2\n      swap1\n      0xffffffff\n      and\n      jump\t// in\n    tag_130:\n        /* \"BEP20.sol\":3776:3784  _approve */\n      tag_112\n        /* \"BEP20.sol\":3776:3859  _approve(_msgSender(), spender, _allowances[_msgSender()][spender].add(addedValue)) */\n      jump\t// in\n    tag_128:\n        /* \"BEP20.sol\":3872:3876  true */\n      0x01\n        /* \"BEP20.sol\":3865:3876  return true */\n      swap1\n      pop\n        /* \"BEP20.sol\":3670:3881  function increaseAllowance(address spender, uint256 addedValue) public whenNotPaused returns (bool) {... */\n      swap3\n      swap2\n      pop\n      pop\n      jump\t// out\n        /* \"BEPPausable.sol\":870:994  function unpause() public onlyOwner whenPaused returns (bool) {... */\n    tag_53:\n        /* \"BEPPausable.sol\":926:930  bool */\n      0x00\n        /* \"BEPOwnable.sol\":1085:1094  isOwner() */\n      tag_133\n        /* \"BEPOwnable.sol\":1085:1092  isOwner */\n      tag_77\n        /* \"BEPOwnable.sol\":1085:1094  isOwner() */\n      jump\t// in\n    tag_133:\n        /* \"BEPOwnable.sol\":1077:1131  require(isOwner(), \"Ownable: caller is not the owner\") */\n      tag_134\n      jumpi\n      mload(0x40)\n      0x08c379a000000000000000000000000000000000000000000000000000000000\n      dup2\n      mstore\n      0x04\n      add\n      tag_135\n      swap1\n      tag_136\n      jump\t// in\n    tag_135:\n      mload(0x40)\n      dup1\n      swap2\n      sub\n      swap1\n      revert\n    tag_134:\n        /* \"BEPPausable.sol\":568:574  paused */\n      0x02\n      0x15\n      swap1\n      sload\n      swap1\n      0x0100\n      exp\n      swap1\n      div\n      0xff\n      and\n        /* \"BEPPausable.sol\":560:575  require(paused) */\n      tag_138\n      jumpi\n      0x00\n      dup1\n      revert\n    tag_138:\n        /* \"BEPPausable.sol\":947:952  false */\n      0x00\n        /* \"BEPPausable.sol\":938:944  paused */\n      0x02\n      0x15\n        /* \"BEPPausable.sol\":938:952  paused = false */\n      0x0100\n      exp\n      dup2\n      sload\n      dup2\n      0xff\n      mul\n      not\n      and\n      swap1\n      dup4\n      iszero\n      iszero\n      mul\n      or\n      swap1\n      sstore\n      pop\n        /* \"BEPPausable.sol\":963:972  Unpause() */\n      0x7805862f689e2f13df9f062ff482ad3ad112aca9e0847911ed832e158c525b33\n      mload(0x40)\n      mload(0x40)\n      dup1\n      swap2\n      sub\n      swap1\n      log1\n        /* \"BEPPausable.sol\":985:989  true */\n      0x01\n        /* \"BEPPausable.sol\":978:989  return true */\n      swap1\n      pop\n        /* \"BEPPausable.sol\":870:994  function unpause() public onlyOwner whenPaused returns (bool) {... */\n      swap1\n      jump\t// out\n        /* \"VIMToken.sol\":317:392  function burn(uint256 amount) external {... */\n    tag_58:\n        /* \"VIMToken.sol\":362:387  _burn(msg.sender, amount) */\n      tag_141\n        /* \"VIMToken.sol\":368:378  msg.sender */\n      caller\n        /* \"VIMToken.sol\":380:386  amount */\n      dup3\n        /* \"VIMToken.sol\":362:367  _burn */\n      tag_142\n        /* \"VIMToken.sol\":362:387  _burn(msg.sender, amount) */\n      jump\t// in\n    tag_141:\n        /* \"VIMToken.sol\":317:392  function burn(uint256 amount) external {... */\n      pop\n      jump\t// out\n        /* \"BEPPausable.sol\":272:298  bool public paused = false */\n    tag_60:\n      0x02\n      0x15\n      swap1\n      sload\n      swap1\n      0x0100\n      exp\n      swap1\n      div\n      0xff\n      and\n      dup2\n      jump\t// out\n        /* \"BEP20.sol\":1571:1682  function balanceOf(address account) public view override returns (uint256) {... */\n    tag_65:\n        /* \"BEP20.sol\":1637:1644  uint256 */\n      0x00\n        /* \"BEP20.sol\":1659:1668  _balances */\n      0x03\n        /* \"BEP20.sol\":1659:1677  _balances[account] */\n      0x00\n        /* \"BEP20.sol\":1669:1676  account */\n      dup4\n        /* \"BEP20.sol\":1659:1677  _balances[account] */\n      0xffffffffffffffffffffffffffffffffffffffff\n      and\n      0xffffffffffffffffffffffffffffffffffffffff\n      and\n      dup2\n      mstore\n      0x20\n      add\n      swap1\n      dup2\n      mstore\n      0x20\n      add\n      0x00\n      keccak256\n      sload\n        /* \"BEP20.sol\":1652:1677  return _balances[account] */\n      swap1\n      pop\n        /* \"BEP20.sol\":1571:1682  function balanceOf(address account) public view override returns (uint256) {... */\n      swap2\n      swap1\n      pop\n      jump\t// out\n        /* \"BEPOwnable.sol\":1630:1757  function renounceOwnership() public onlyOwner {... */\n    tag_68:\n        /* \"BEPOwnable.sol\":1085:1094  isOwner() */\n      tag_145\n        /* \"BEPOwnable.sol\":1085:1092  isOwner */\n      tag_77\n        /* \"BEPOwnable.sol\":1085:1094  isOwner() */\n      jump\t// in\n    tag_145:\n        /* \"BEPOwnable.sol\":1077:1131  require(isOwner(), \"Ownable: caller is not the owner\") */\n      tag_146\n      jumpi\n      mload(0x40)\n      0x08c379a000000000000000000000000000000000000000000000000000000000\n      dup2\n      mstore\n      0x04\n      add\n      tag_147\n      swap1\n      tag_136\n      jump\t// in\n    tag_147:\n      mload(0x40)\n      dup1\n      swap2\n      sub\n      swap1\n      revert\n    tag_146:\n        /* \"BEPOwnable.sol\":1724:1725  0 */\n      0x00\n        /* \"BEPOwnable.sol\":1687:1727  OwnershipTransferred(_owner, address(0)) */\n      0xffffffffffffffffffffffffffffffffffffffff\n      and\n        /* \"BEPOwnable.sol\":1708:1714  _owner */\n      0x02\n      0x01\n      swap1\n      sload\n      swap1\n      0x0100\n      exp\n      swap1\n      div\n      0xffffffffffffffffffffffffffffffffffffffff\n      and\n        /* \"BEPOwnable.sol\":1687:1727  OwnershipTransferred(_owner, address(0)) */\n      0xffffffffffffffffffffffffffffffffffffffff\n      and\n      0x8be0079c531659141344cd1fd0a4f28419497f9722a3daafe3b4186f6b6457e0\n      mload(0x40)\n      mload(0x40)\n      dup1\n      swap2\n      sub\n      swap1\n      log3\n        /* \"BEPOwnable.sol\":1750:1751  0 */\n      0x00\n        /* \"BEPOwnable.sol\":1733:1739  _owner */\n      0x02\n      0x01\n        /* \"BEPOwnable.sol\":1733:1752  _owner = address(0) */\n      0x0100\n      exp\n      dup2\n      sload\n      dup2\n      0xffffffffffffffffffffffffffffffffffffffff\n      mul\n      not\n      and\n      swap1\n      dup4\n      0xffffffffffffffffffffffffffffffffffffffff\n      and\n      mul\n      or\n      swap1\n      sstore\n      pop\n        /* \"BEPOwnable.sol\":1630:1757  function renounceOwnership() public onlyOwner {... */\n      jump\t// out\n        /* \"BEPPausable.sol\":666:788  function pause() public onlyOwner whenNotPaused returns (bool) {... */\n    tag_70:\n        /* \"BEPPausable.sol\":723:727  bool */\n      0x00\n        /* \"BEPOwnable.sol\":1085:1094  isOwner() */\n      tag_150\n        /* \"BEPOwnable.sol\":1085:1092  isOwner */\n      tag_77\n        /* \"BEPOwnable.sol\":1085:1094  isOwner() */\n      jump\t// in\n    tag_150:\n        /* \"BEPOwnable.sol\":1077:1131  require(isOwner(), \"Ownable: caller is not the owner\") */\n      tag_151\n      jumpi\n      mload(0x40)\n      0x08c379a000000000000000000000000000000000000000000000000000000000\n      dup2\n      mstore\n      0x04\n      add\n      tag_152\n      swap1\n      tag_136\n      jump\t// in\n    tag_152:\n      mload(0x40)\n      dup1\n      swap2\n      sub\n      swap1\n      revert\n    tag_151:\n        /* \"BEPPausable.sol\":424:430  paused */\n      0x02\n      0x15\n      swap1\n      sload\n      swap1\n      0x0100\n      exp\n      swap1\n      div\n      0xff\n      and\n        /* \"BEPPausable.sol\":423:430  !paused */\n      iszero\n        /* \"BEPPausable.sol\":415:431  require(!paused) */\n      tag_154\n      jumpi\n      0x00\n      dup1\n      revert\n    tag_154:\n        /* \"BEPPausable.sol\":744:748  true */\n      0x01\n        /* \"BEPPausable.sol\":735:741  paused */\n      0x02\n      0x15\n        /* \"BEPPausable.sol\":735:748  paused = true */\n      0x0100\n      exp\n      dup2\n      sload\n      dup2\n      0xff\n      mul\n      not\n      and\n      swap1\n      dup4\n      iszero\n      iszero\n      mul\n      or\n      swap1\n      sstore\n      pop\n        /* \"BEPPausable.sol\":759:766  Pause() */\n      0x6985a02210a168e66602d3235cb6db0e70f92b3ba4d376a33c0f3d9434bff625\n      mload(0x40)\n      mload(0x40)\n      dup1\n      swap2\n      sub\n      swap1\n      log1\n        /* \"BEPPausable.sol\":779:783  true */\n      0x01\n        /* \"BEPPausable.sol\":772:783  return true */\n      swap1\n      pop\n        /* \"BEPPausable.sol\":666:788  function pause() public onlyOwner whenNotPaused returns (bool) {... */\n      swap1\n      jump\t// out\n        /* \"BEPOwnable.sol\":899:970  function owner() public view returns (address) {... */\n    tag_73:\n        /* \"BEPOwnable.sol\":937:944  address */\n      0x00\n        /* \"BEPOwnable.sol\":959:965  _owner */\n      0x02\n      0x01\n      swap1\n      sload\n      swap1\n      0x0100\n      exp\n      swap1\n      div\n      0xffffffffffffffffffffffffffffffffffffffff\n      and\n        /* \"BEPOwnable.sol\":952:965  return _owner */\n      swap1\n      pop\n        /* \"BEPOwnable.sol\":899:970  function owner() public view returns (address) {... */\n      swap1\n      jump\t// out\n        /* \"BEPOwnable.sol\":1218:1304  function isOwner() public view returns (bool) {... */\n    tag_77:\n        /* \"BEPOwnable.sol\":1258:1262  bool */\n      0x00\n        /* \"BEPOwnable.sol\":1293:1299  _owner */\n      0x02\n      0x01\n      swap1\n      sload\n      swap1\n      0x0100\n      exp\n      swap1\n      div\n      0xffffffffffffffffffffffffffffffffffffffff\n      and\n        /* \"BEPOwnable.sol\":1277:1299  _msgSender() == _owner */\n      0xffffffffffffffffffffffffffffffffffffffff\n      and\n        /* \"BEPOwnable.sol\":1277:1289  _msgSender() */\n      tag_158\n        /* \"BEPOwnable.sol\":1277:1287  _msgSender */\n      tag_111\n        /* \"BEPOwnable.sol\":1277:1289  _msgSender() */\n      jump\t// in\n    tag_158:\n        /* \"BEPOwnable.sol\":1277:1299  _msgSender() == _owner */\n      0xffffffffffffffffffffffffffffffffffffffff\n      and\n      eq\n        /* \"BEPOwnable.sol\":1270:1299  return _msgSender() == _owner */\n      swap1\n      pop\n        /* \"BEPOwnable.sol\":1218:1304  function isOwner() public view returns (bool) {... */\n      swap1\n      jump\t// out\n        /* \"BEP20Detailed.sol\":802:881  function symbol() public view returns (string memory) {... */\n    tag_80:\n        /* \"BEP20Detailed.sol\":841:854  string memory */\n      0x60\n        /* \"BEP20Detailed.sol\":869:876  _symbol */\n      0x01\n        /* \"BEP20Detailed.sol\":862:876  return _symbol */\n      dup1\n      sload\n      tag_160\n      swap1\n      tag_101\n      jump\t// in\n    tag_160:\n      dup1\n      0x1f\n      add\n      0x20\n      dup1\n      swap2\n      div\n      mul\n      0x20\n      add\n      mload(0x40)\n      swap1\n      dup2\n      add\n      0x40\n      mstore\n      dup1\n      swap3\n      swap2\n      swap1\n      dup2\n      dup2\n      mstore\n      0x20\n      add\n      dup3\n      dup1\n      sload\n      tag_161\n      swap1\n      tag_101\n      jump\t// in\n    tag_161:\n      dup1\n      iszero\n      tag_162\n      jumpi\n      dup1\n      0x1f\n      lt\n      tag_163\n      jumpi\n      0x0100\n      dup1\n      dup4\n      sload\n      div\n      mul\n      dup4\n      mstore\n      swap2\n      0x20\n      add\n      swap2\n      jump(tag_162)\n    tag_163:\n      dup3\n      add\n      swap2\n      swap1\n      0x00\n      mstore\n      keccak256(0x00, 0x20)\n      swap1\n    tag_164:\n      dup2\n      sload\n      dup2\n      mstore\n      swap1\n      0x01\n      add\n      swap1\n      0x20\n      add\n      dup1\n      dup4\n      gt\n      tag_164\n      jumpi\n      dup3\n      swap1\n      sub\n      0x1f\n      and\n      dup3\n      add\n      swap2\n    tag_162:\n      pop\n      pop\n      pop\n      pop\n      pop\n      swap1\n      pop\n        /* \"BEP20Detailed.sol\":802:881  function symbol() public view returns (string memory) {... */\n      swap1\n      jump\t// out\n        /* \"BEP20.sol\":4338:4624  function decreaseAllowance(address spender, uint256 subtractedValue) public whenNotPaused returns (bool) {... */\n    tag_84:\n        /* \"BEP20.sol\":4437:4441  bool */\n      0x00\n        /* \"BEPPausable.sol\":424:430  paused */\n      0x02\n      0x15\n      swap1\n      sload\n      swap1\n      0x0100\n      exp\n      swap1\n      div\n      0xff\n      and\n        /* \"BEPPausable.sol\":423:430  !paused */\n      iszero\n        /* \"BEPPausable.sol\":415:431  require(!paused) */\n      tag_166\n      jumpi\n      0x00\n      dup1\n      revert\n    tag_166:\n        /* \"BEP20.sol\":4449:4602  _approve(... */\n      tag_168\n        /* \"BEP20.sol\":4465:4477  _msgSender() */\n      tag_169\n        /* \"BEP20.sol\":4465:4475  _msgSender */\n      tag_111\n        /* \"BEP20.sol\":4465:4477  _msgSender() */\n      jump\t// in\n    tag_169:\n        /* \"BEP20.sol\":4485:4492  spender */\n      dup5\n        /* \"BEP20.sol\":4500:4596  _allowances[_msgSender()][spender].sub(subtractedValue, \"BEP20: decreased allowance below zero\") */\n      tag_170\n        /* \"BEP20.sol\":4539:4554  subtractedValue */\n      dup6\n        /* \"BEP20.sol\":4500:4596  _allowances[_msgSender()][spender].sub(subtractedValue, \"BEP20: decreased allowance below zero\") */\n      mload(0x40)\n      dup1\n      0x60\n      add\n      0x40\n      mstore\n      dup1\n      0x25\n      dup2\n      mstore\n      0x20\n      add\n      data_b7060b3538dcd3ddc8a941c91636a8115a1aa46914747fd9809d543bbb46cd22\n      0x25\n      swap2\n      codecopy\n        /* \"BEP20.sol\":4500:4511  _allowances */\n      0x04\n        /* \"BEP20.sol\":4500:4525  _allowances[_msgSender()] */\n      0x00\n        /* \"BEP20.sol\":4512:4524  _msgSender() */\n      tag_171\n        /* \"BEP20.sol\":4512:4522  _msgSender */\n      tag_111\n        /* \"BEP20.sol\":4512:4524  _msgSender() */\n      jump\t// in\n    tag_171:\n        /* \"BEP20.sol\":4500:4525  _allowances[_msgSender()] */\n      0xffffffffffffffffffffffffffffffffffffffff\n      and\n      0xffffffffffffffffffffffffffffffffffffffff\n      and\n      dup2\n      mstore\n      0x20\n      add\n      swap1\n      dup2\n      mstore\n      0x20\n      add\n      0x00\n      keccak256\n        /* \"BEP20.sol\":4500:4534  _allowances[_msgSender()][spender] */\n      0x00\n        /* \"BEP20.sol\":4526:4533  spender */\n      dup11\n        /* \"BEP20.sol\":4500:4534  _allowances[_msgSender()][spender] */\n      0xffffffffffffffffffffffffffffffffffffffff\n      and\n      0xffffffffffffffffffffffffffffffffffffffff\n      and\n      dup2\n      mstore\n      0x20\n      add\n      swap1\n      dup2\n      mstore\n      0x20\n      add\n      0x00\n      keccak256\n      sload\n        /* \"BEP20.sol\":4500:4538  _allowances[_msgSender()][spender].sub */\n      tag_123\n      swap1\n        /* \"BEP20.sol\":4500:4596  _allowances[_msgSender()][spender].sub(subtractedValue, \"BEP20: decreased allowance below zero\") */\n      swap3\n      swap2\n      swap1\n      0xffffffff\n      and\n      jump\t// in\n    tag_170:\n        /* \"BEP20.sol\":4449:4457  _approve */\n      tag_112\n        /* \"BEP20.sol\":4449:4602  _approve(... */\n      jump\t// in\n    tag_168:\n        /* \"BEP20.sol\":4615:4619  true */\n      0x01\n        /* \"BEP20.sol\":4608:4619  return true */\n      swap1\n      pop\n        /* \"BEP20.sol\":4338:4624  function decreaseAllowance(address spender, uint256 subtractedValue) public whenNotPaused returns (bool) {... */\n      swap3\n      swap2\n      pop\n      pop\n      jump\t// out\n        /* \"BEP20.sol\":1867:2043  function transfer(address recipient, uint256 amount) public virtual override whenNotPaused returns (bool) {... */\n    tag_88:\n        /* \"BEP20.sol\":1967:1971  bool */\n      0x00\n        /* \"BEPPausable.sol\":424:430  paused */\n      0x02\n      0x15\n      swap1\n      sload\n      swap1\n      0x0100\n      exp\n      swap1\n      div\n      0xff\n      and\n        /* \"BEPPausable.sol\":423:430  !paused */\n      iszero\n        /* \"BEPPausable.sol\":415:431  require(!paused) */\n      tag_173\n      jumpi\n      0x00\n      dup1\n      revert\n    tag_173:\n        /* \"BEP20.sol\":1979:2021  _transfer(_msgSender(), recipient, amount) */\n      tag_175\n        /* \"BEP20.sol\":1989:2001  _msgSender() */\n      tag_176\n        /* \"BEP20.sol\":1989:1999  _msgSender */\n      tag_111\n        /* \"BEP20.sol\":1989:2001  _msgSender() */\n      jump\t// in\n    tag_176:\n        /* \"BEP20.sol\":2003:2012  recipient */\n      dup5\n        /* \"BEP20.sol\":2014:2020  amount */\n      dup5\n        /* \"BEP20.sol\":1979:1988  _transfer */\n      tag_118\n        /* \"BEP20.sol\":1979:2021  _transfer(_msgSender(), recipient, amount) */\n      jump\t// in\n    tag_175:\n        /* \"BEP20.sol\":2034:2038  true */\n      0x01\n        /* \"BEP20.sol\":2027:2038  return true */\n      swap1\n      pop\n        /* \"BEP20.sol\":1867:2043  function transfer(address recipient, uint256 amount) public virtual override whenNotPaused returns (bool) {... */\n      swap3\n      swap2\n      pop\n      pop\n      jump\t// out\n        /* \"BEP20.sol\":2093:2228  function allowance(address owner, address spender) public view override returns (uint256) {... */\n    tag_93:\n        /* \"BEP20.sol\":2174:2181  uint256 */\n      0x00\n        /* \"BEP20.sol\":2196:2207  _allowances */\n      0x04\n        /* \"BEP20.sol\":2196:2214  _allowances[owner] */\n      0x00\n        /* \"BEP20.sol\":2208:2213  owner */\n      dup5\n        /* \"BEP20.sol\":2196:2214  _allowances[owner] */\n      0xffffffffffffffffffffffffffffffffffffffff\n      and\n      0xffffffffffffffffffffffffffffffffffffffff\n      and\n      dup2\n      mstore\n      0x20\n      add\n      swap1\n      dup2\n      mstore\n      0x20\n      add\n      0x00\n      keccak256\n        /* \"BEP20.sol\":2196:2223  _allowances[owner][spender] */\n      0x00\n        /* \"BEP20.sol\":2215:2222  spender */\n      dup4\n        /* \"BEP20.sol\":2196:2223  _allowances[owner][spender] */\n      0xffffffffffffffffffffffffffffffffffffffff\n      and\n      0xffffffffffffffffffffffffffffffffffffffff\n      and\n      dup2\n      mstore\n      0x20\n      add\n      swap1\n      dup2\n      mstore\n      0x20\n      add\n      0x00\n      keccak256\n      sload\n        /* \"BEP20.sol\":2189:2223  return _allowances[owner][spender] */\n      swap1\n      pop\n        /* \"BEP20.sol\":2093:2228  function allowance(address owner, address spender) public view override returns (uint256) {... */\n      swap3\n      swap2\n      pop\n      pop\n      jump\t// out\n        /* \"BEPOwnable.sol\":1896:1997  function transferOwnership(address newOwner) public onlyOwner {... */\n    tag_97:\n        /* \"BEPOwnable.sol\":1085:1094  isOwner() */\n      tag_179\n        /* \"BEPOwnable.sol\":1085:1092  isOwner */\n      tag_77\n        /* \"BEPOwnable.sol\":1085:1094  isOwner() */\n      jump\t// in\n    tag_179:\n        /* \"BEPOwnable.sol\":1077:1131  require(isOwner(), \"Ownable: caller is not the owner\") */\n      tag_180\n      jumpi\n      mload(0x40)\n      0x08c379a000000000000000000000000000000000000000000000000000000000\n      dup2\n      mstore\n      0x04\n      add\n      tag_181\n      swap1\n      tag_136\n      jump\t// in\n    tag_181:\n      mload(0x40)\n      dup1\n      swap2\n      sub\n      swap1\n      revert\n    tag_180:\n        /* \"BEPOwnable.sol\":1964:1992  _transferOwnership(newOwner) */\n      tag_183\n        /* \"BEPOwnable.sol\":1983:1991  newOwner */\n      dup2\n        /* \"BEPOwnable.sol\":1964:1982  _transferOwnership */\n      tag_184\n        /* \"BEPOwnable.sol\":1964:1992  _transferOwnership(newOwner) */\n      jump\t// in\n    tag_183:\n        /* \"BEPOwnable.sol\":1896:1997  function transferOwnership(address newOwner) public onlyOwner {... */\n      pop\n      jump\t// out\n        /* \"SafeMath.sol\":858:1020  function add(uint256 a, uint256 b) internal pure returns (uint256) {... */\n    tag_98:\n        /* \"SafeMath.sol\":916:923  uint256 */\n      0x00\n        /* \"SafeMath.sol\":931:940  uint256 c */\n      dup1\n        /* \"SafeMath.sol\":947:948  b */\n      dup3\n        /* \"SafeMath.sol\":943:944  a */\n      dup5\n        /* \"SafeMath.sol\":943:948  a + b */\n      tag_186\n      swap2\n      swap1\n      tag_187\n      jump\t// in\n    tag_186:\n        /* \"SafeMath.sol\":931:948  uint256 c = a + b */\n      swap1\n      pop\n        /* \"SafeMath.sol\":967:968  a */\n      dup4\n        /* \"SafeMath.sol\":962:963  c */\n      dup2\n        /* \"SafeMath.sol\":962:968  c >= a */\n      lt\n      iszero\n        /* \"SafeMath.sol\":954:1000  require(c >= a, \"SafeMath: addition overflow\") */\n      tag_188\n      jumpi\n      mload(0x40)\n      0x08c379a000000000000000000000000000000000000000000000000000000000\n      dup2\n      mstore\n      0x04\n      add\n      tag_189\n      swap1\n      tag_190\n      jump\t// in\n    tag_189:\n      mload(0x40)\n      dup1\n      swap2\n      sub\n      swap1\n      revert\n    tag_188:\n        /* \"SafeMath.sol\":1014:1015  c */\n      dup1\n        /* \"SafeMath.sol\":1007:1015  return c */\n      swap2\n      pop\n      pop\n        /* \"SafeMath.sol\":858:1020  function add(uint256 a, uint256 b) internal pure returns (uint256) {... */\n      swap3\n      swap2\n      pop\n      pop\n      jump\t// out\n        /* \"BEPContext.sol\":760:859  function _msgSender() internal view returns (address payable) {... */\n    tag_111:\n        /* \"BEPContext.sol\":805:820  address payable */\n      0x00\n        /* \"BEPContext.sol\":843:853  msg.sender */\n      caller\n        /* \"BEPContext.sol\":828:854  return payable(msg.sender) */\n      swap1\n      pop\n        /* \"BEPContext.sol\":760:859  function _msgSender() internal view returns (address payable) {... */\n      swap1\n      jump\t// out\n        /* \"BEP20.sol\":7076:7406  function _approve(... */\n    tag_112:\n        /* \"BEP20.sol\":7198:7199  0 */\n      0x00\n        /* \"BEP20.sol\":7181:7200  owner != address(0) */\n      0xffffffffffffffffffffffffffffffffffffffff\n      and\n        /* \"BEP20.sol\":7181:7186  owner */\n      dup4\n        /* \"BEP20.sol\":7181:7200  owner != address(0) */\n      0xffffffffffffffffffffffffffffffffffffffff\n      and\n      eq\n      iszero\n        /* \"BEP20.sol\":7173:7241  require(owner != address(0), \"BEP20: approve from the zero address\") */\n      tag_193\n      jumpi\n      mload(0x40)\n      0x08c379a000000000000000000000000000000000000000000000000000000000\n      dup2\n      mstore\n      0x04\n      add\n      tag_194\n      swap1\n      tag_195\n      jump\t// in\n    tag_194:\n      mload(0x40)\n      dup1\n      swap2\n      sub\n      swap1\n      revert\n    tag_193:\n        /* \"BEP20.sol\":7274:7275  0 */\n      0x00\n        /* \"BEP20.sol\":7255:7276  spender != address(0) */\n      0xffffffffffffffffffffffffffffffffffffffff\n      and\n        /* \"BEP20.sol\":7255:7262  spender */\n      dup3\n        /* \"BEP20.sol\":7255:7276  spender != address(0) */\n      0xffffffffffffffffffffffffffffffffffffffff\n      and\n      eq\n      iszero\n        /* \"BEP20.sol\":7247:7315  require(spender != address(0), \"BEP20: approve to the zero address\") */\n      tag_196\n      jumpi\n      mload(0x40)\n      0x08c379a000000000000000000000000000000000000000000000000000000000\n      dup2\n      mstore\n      0x04\n      add\n      tag_197\n      swap1\n      tag_198\n      jump\t// in\n    tag_197:\n      mload(0x40)\n      dup1\n      swap2\n      sub\n      swap1\n      revert\n    tag_196:\n        /* \"BEP20.sol\":7352:7358  amount */\n      dup1\n        /* \"BEP20.sol\":7322:7333  _allowances */\n      0x04\n        /* \"BEP20.sol\":7322:7340  _allowances[owner] */\n      0x00\n        /* \"BEP20.sol\":7334:7339  owner */\n      dup6\n        /* \"BEP20.sol\":7322:7340  _allowances[owner] */\n      0xffffffffffffffffffffffffffffffffffffffff\n      and\n      0xffffffffffffffffffffffffffffffffffffffff\n      and\n      dup2\n      mstore\n      0x20\n      add\n      swap1\n      dup2\n      mstore\n      0x20\n      add\n      0x00\n      keccak256\n        /* \"BEP20.sol\":7322:7349  _allowances[owner][spender] */\n      0x00\n        /* \"BEP20.sol\":7341:7348  spender */\n      dup5\n        /* \"BEP20.sol\":7322:7349  _allowances[owner][spender] */\n      0xffffffffffffffffffffffffffffffffffffffff\n      and\n      0xffffffffffffffffffffffffffffffffffffffff\n      and\n      dup2\n      mstore\n      0x20\n      add\n      swap1\n      dup2\n      mstore\n      0x20\n      add\n      0x00\n      keccak256\n        /* \"BEP20.sol\":7322:7358  _allowances[owner][spender] = amount */\n      dup2\n      swap1\n      sstore\n      pop\n        /* \"BEP20.sol\":7385:7392  spender */\n      dup2\n        /* \"BEP20.sol\":7369:7401  Approval(owner, spender, amount) */\n      0xffffffffffffffffffffffffffffffffffffffff\n      and\n        /* \"BEP20.sol\":7378:7383  owner */\n      dup4\n        /* \"BEP20.sol\":7369:7401  Approval(owner, spender, amount) */\n      0xffffffffffffffffffffffffffffffffffffffff\n      and\n      0x8c5be1e5ebec7d5bd14f71427d1e84f3dd0314c0f7b2291e5b200ac8c7c3b925\n        /* \"BEP20.sol\":7394:7400  amount */\n      dup4\n        /* \"BEP20.sol\":7369:7401  Approval(owner, spender, amount) */\n      mload(0x40)\n      tag_199\n      swap2\n      swap1\n      tag_38\n      jump\t// in\n    tag_199:\n      mload(0x40)\n      dup1\n      swap2\n      sub\n      swap1\n      log3\n        /* \"BEP20.sol\":7076:7406  function _approve(... */\n      pop\n      pop\n      pop\n      jump\t// out\n        /* \"BEP20.sol\":5068:5526  function _transfer(... */\n    tag_118:\n        /* \"BEP20.sol\":5195:5196  0 */\n      0x00\n        /* \"BEP20.sol\":5177:5197  sender != address(0) */\n      0xffffffffffffffffffffffffffffffffffffffff\n      and\n        /* \"BEP20.sol\":5177:5183  sender */\n      dup4\n        /* \"BEP20.sol\":5177:5197  sender != address(0) */\n      0xffffffffffffffffffffffffffffffffffffffff\n      and\n      eq\n      iszero\n        /* \"BEP20.sol\":5169:5239  require(sender != address(0), \"BEP20: transfer from the zero address\") */\n      tag_201\n      jumpi\n      mload(0x40)\n      0x08c379a000000000000000000000000000000000000000000000000000000000\n      dup2\n      mstore\n      0x04\n      add\n      tag_202\n      swap1\n      tag_203\n      jump\t// in\n    tag_202:\n      mload(0x40)\n      dup1\n      swap2\n      sub\n      swap1\n      revert\n    tag_201:\n        /* \"BEP20.sol\":5274:5275  0 */\n      0x00\n        /* \"BEP20.sol\":5253:5276  recipient != address(0) */\n      0xffffffffffffffffffffffffffffffffffffffff\n      and\n        /* \"BEP20.sol\":5253:5262  recipient */\n      dup3\n        /* \"BEP20.sol\":5253:5276  recipient != address(0) */\n      0xffffffffffffffffffffffffffffffffffffffff\n      and\n      eq\n      iszero\n        /* \"BEP20.sol\":5245:5316  require(recipient != address(0), \"BEP20: transfer to the zero address\") */\n      tag_204\n      jumpi\n      mload(0x40)\n      0x08c379a000000000000000000000000000000000000000000000000000000000\n      dup2\n      mstore\n      0x04\n      add\n      tag_205\n      swap1\n      tag_206\n      jump\t// in\n    tag_205:\n      mload(0x40)\n      dup1\n      swap2\n      sub\n      swap1\n      revert\n    tag_204:\n        /* \"BEP20.sol\":5343:5414  _balances[sender].sub(amount, \"BEP20: transfer amount exceeds balance\") */\n      tag_207\n        /* \"BEP20.sol\":5365:5371  amount */\n      dup2\n        /* \"BEP20.sol\":5343:5414  _balances[sender].sub(amount, \"BEP20: transfer amount exceeds balance\") */\n      mload(0x40)\n      dup1\n      0x60\n      add\n      0x40\n      mstore\n      dup1\n      0x26\n      dup2\n      mstore\n      0x20\n      add\n      data_a91efd7a65ef5b4ae4d6568d674798b78a5a89184dd296c100513251c22d3e73\n      0x26\n      swap2\n      codecopy\n        /* \"BEP20.sol\":5343:5352  _balances */\n      0x03\n        /* \"BEP20.sol\":5343:5360  _balances[sender] */\n      0x00\n        /* \"BEP20.sol\":5353:5359  sender */\n      dup8\n        /* \"BEP20.sol\":5343:5360  _balances[sender] */\n      0xffffffffffffffffffffffffffffffffffffffff\n      and\n      0xffffffffffffffffffffffffffffffffffffffff\n      and\n      dup2\n      mstore\n      0x20\n      add\n      swap1\n      dup2\n      mstore\n      0x20\n      add\n      0x00\n      keccak256\n      sload\n        /* \"BEP20.sol\":5343:5364  _balances[sender].sub */\n      tag_123\n      swap1\n        /* \"BEP20.sol\":5343:5414  _balances[sender].sub(amount, \"BEP20: transfer amount exceeds balance\") */\n      swap3\n      swap2\n      swap1\n      0xffffffff\n      and\n      jump\t// in\n    tag_207:\n        /* \"BEP20.sol\":5323:5332  _balances */\n      0x03\n        /* \"BEP20.sol\":5323:5340  _balances[sender] */\n      0x00\n        /* \"BEP20.sol\":5333:5339  sender */\n      dup6\n        /* \"BEP20.sol\":5323:5340  _balances[sender] */\n      0xffffffffffffffffffffffffffffffffffffffff\n      and\n      0xffffffffffffffffffffffffffffffffffffffff\n      and\n      dup2\n      mstore\n      0x20\n      add\n      swap1\n      dup2\n      mstore\n      0x20\n      add\n      0x00\n      keccak256\n        /* \"BEP20.sol\":5323:5414  _balances[sender] = _balances[sender].sub(amount, \"BEP20: transfer amount exceeds balance\") */\n      dup2\n      swap1\n      sstore\n      pop\n        /* \"BEP20.sol\":5443:5475  _balances[recipient].add(amount) */\n      tag_208\n        /* \"BEP20.sol\":5468:5474  amount */\n      dup2\n        /* \"BEP20.sol\":5443:5452  _balances */\n      0x03\n        /* \"BEP20.sol\":5443:5463  _balances[recipient] */\n      0x00\n        /* \"BEP20.sol\":5453:5462  recipient */\n      dup6\n        /* \"BEP20.sol\":5443:5463  _balances[recipient] */\n      0xffffffffffffffffffffffffffffffffffffffff\n      and\n      0xffffffffffffffffffffffffffffffffffffffff\n      and\n      dup2\n      mstore\n      0x20\n      add\n      swap1\n      dup2\n      mstore\n      0x20\n      add\n      0x00\n      keccak256\n      sload\n        /* \"BEP20.sol\":5443:5467  _balances[recipient].add */\n      tag_98\n      swap1\n        /* \"BEP20.sol\":5443:5475  _balances[recipient].add(amount) */\n      swap2\n      swap1\n      0xffffffff\n      and\n      jump\t// in\n    tag_208:\n        /* \"BEP20.sol\":5420:5429  _balances */\n      0x03\n        /* \"BEP20.sol\":5420:5440  _balances[recipient] */\n      0x00\n        /* \"BEP20.sol\":5430:5439  recipient */\n      dup5\n        /* \"BEP20.sol\":5420:5440  _balances[recipient] */\n      0xffffffffffffffffffffffffffffffffffffffff\n      and\n      0xffffffffffffffffffffffffffffffffffffffff\n      and\n      dup2\n      mstore\n      0x20\n      add\n      swap1\n      dup2\n      mstore\n      0x20\n      add\n      0x00\n      keccak256\n        /* \"BEP20.sol\":5420:5475  _balances[recipient] = _balances[recipient].add(amount) */\n      dup2\n      swap1\n      sstore\n      pop\n        /* \"BEP20.sol\":5503:5512  recipient */\n      dup2\n        /* \"BEP20.sol\":5486:5521  Transfer(sender, recipient, amount) */\n      0xffffffffffffffffffffffffffffffffffffffff\n      and\n        /* \"BEP20.sol\":5495:5501  sender */\n      dup4\n        /* \"BEP20.sol\":5486:5521  Transfer(sender, recipient, amount) */\n      0xffffffffffffffffffffffffffffffffffffffff\n      and\n      0xddf252ad1be2c89b69c2b068fc378daa952ba7f163c4a11628f55a4df523b3ef\n        /* \"BEP20.sol\":5514:5520  amount */\n      dup4\n        /* \"BEP20.sol\":5486:5521  Transfer(sender, recipient, amount) */\n      mload(0x40)\n      tag_209\n      swap2\n      swap1\n      tag_38\n      jump\t// in\n    tag_209:\n      mload(0x40)\n      dup1\n      swap2\n      sub\n      swap1\n      log3\n        /* \"BEP20.sol\":5068:5526  function _transfer(... */\n      pop\n      pop\n      pop\n      jump\t// out\n        /* \"SafeMath.sol\":1692:1881  function sub(... */\n    tag_123:\n        /* \"SafeMath.sol\":1794:1801  uint256 */\n      0x00\n        /* \"SafeMath.sol\":1822:1823  a */\n      dup4\n        /* \"SafeMath.sol\":1817:1818  b */\n      dup4\n        /* \"SafeMath.sol\":1817:1823  b <= a */\n      gt\n      iszero\n        /* \"SafeMath.sol\":1825:1837  errorMessage */\n      dup3\n        /* \"SafeMath.sol\":1809:1838  require(b <= a, errorMessage) */\n      swap1\n      tag_211\n      jumpi\n      mload(0x40)\n      0x08c379a000000000000000000000000000000000000000000000000000000000\n      dup2\n      mstore\n      0x04\n      add\n      tag_212\n      swap2\n      swap1\n      tag_28\n      jump\t// in\n    tag_212:\n      mload(0x40)\n      dup1\n      swap2\n      sub\n      swap1\n      revert\n    tag_211:\n      pop\n        /* \"SafeMath.sol\":1844:1853  uint256 c */\n      0x00\n        /* \"SafeMath.sol\":1860:1861  b */\n      dup4\n        /* \"SafeMath.sol\":1856:1857  a */\n      dup6\n        /* \"SafeMath.sol\":1856:1861  a - b */\n      tag_213\n      swap2\n      swap1\n      tag_214\n      jump\t// in\n    tag_213:\n        /* \"SafeMath.sol\":1844:1861  uint256 c = a - b */\n      swap1\n      pop\n        /* \"SafeMath.sol\":1875:1876  c */\n      dup1\n        /* \"SafeMath.sol\":1868:1876  return c */\n      swap2\n      pop\n      pop\n        /* \"SafeMath.sol\":1692:1881  function sub(... */\n      swap4\n      swap3\n      pop\n      pop\n      pop\n      jump\t// out\n        /* \"BEP20.sol\":6355:6679  function _burn(address account, uint256 amount) internal {... */\n    tag_142:\n        /* \"BEP20.sol\":6445:6446  0 */\n      0x00\n        /* \"BEP20.sol\":6426:6447  account != address(0) */\n      0xffffffffffffffffffffffffffffffffffffffff\n      and\n        /* \"BEP20.sol\":6426:6433  account */\n      dup3\n        /* \"BEP20.sol\":6426:6447  account != address(0) */\n      0xffffffffffffffffffffffffffffffffffffffff\n      and\n      eq\n      iszero\n        /* \"BEP20.sol\":6418:6485  require(account != address(0), \"BEP20: burn from the zero address\") */\n      tag_216\n      jumpi\n      mload(0x40)\n      0x08c379a000000000000000000000000000000000000000000000000000000000\n      dup2\n      mstore\n      0x04\n      add\n      tag_217\n      swap1\n      tag_218\n      jump\t// in\n    tag_217:\n      mload(0x40)\n      dup1\n      swap2\n      sub\n      swap1\n      revert\n    tag_216:\n        /* \"BEP20.sol\":6513:6581  _balances[account].sub(amount, \"BEP20: burn amount exceeds balance\") */\n      tag_219\n        /* \"BEP20.sol\":6536:6542  amount */\n      dup2\n        /* \"BEP20.sol\":6513:6581  _balances[account].sub(amount, \"BEP20: burn amount exceeds balance\") */\n      mload(0x40)\n      dup1\n      0x60\n      add\n      0x40\n      mstore\n      dup1\n      0x22\n      dup2\n      mstore\n      0x20\n      add\n      data_deaa84b30175fd0578812c46240362b7914652a35e6707ad7e1556891e4ae032\n      0x22\n      swap2\n      codecopy\n        /* \"BEP20.sol\":6513:6522  _balances */\n      0x03\n        /* \"BEP20.sol\":6513:6531  _balances[account] */\n      0x00\n        /* \"BEP20.sol\":6523:6530  account */\n      dup7\n        /* \"BEP20.sol\":6513:6531  _balances[account] */\n      0xffffffffffffffffffffffffffffffffffffffff\n      and\n      0xffffffffffffffffffffffffffffffffffffffff\n      and\n      dup2\n      mstore\n      0x20\n      add\n      swap1\n      dup2\n      mstore\n      0x20\n      add\n      0x00\n      keccak256\n      sload\n        /* \"BEP20.sol\":6513:6535  _balances[account].sub */\n      tag_123\n      swap1\n        /* \"BEP20.sol\":6513:6581  _balances[account].sub(amount, \"BEP20: burn amount exceeds balance\") */\n      swap3\n      swap2\n      swap1\n      0xffffffff\n      and\n      jump\t// in\n    tag_219:\n        /* \"BEP20.sol\":6492:6501  _balances */\n      0x03\n        /* \"BEP20.sol\":6492:6510  _balances[account] */\n      0x00\n        /* \"BEP20.sol\":6502:6509  account */\n      dup5\n        /* \"BEP20.sol\":6492:6510  _balances[account] */\n      0xffffffffffffffffffffffffffffffffffffffff\n      and\n      0xffffffffffffffffffffffffffffffffffffffff\n      and\n      dup2\n      mstore\n      0x20\n      add\n      swap1\n      dup2\n      mstore\n      0x20\n      add\n      0x00\n      keccak256\n        /* \"BEP20.sol\":6492:6581  _balances[account] = _balances[account].sub(amount, \"BEP20: burn amount exceeds balance\") */\n      dup2\n      swap1\n      sstore\n      pop\n        /* \"BEP20.sol\":6602:6626  _totalSupply.sub(amount) */\n      tag_220\n        /* \"BEP20.sol\":6619:6625  amount */\n      dup2\n        /* \"BEP20.sol\":6602:6614  _totalSupply */\n      sload(0x05)\n        /* \"BEP20.sol\":6602:6618  _totalSupply.sub */\n      tag_221\n      swap1\n        /* \"BEP20.sol\":6602:6626  _totalSupply.sub(amount) */\n      swap2\n      swap1\n      0xffffffff\n      and\n      jump\t// in\n    tag_220:\n        /* \"BEP20.sol\":6587:6599  _totalSupply */\n      0x05\n        /* \"BEP20.sol\":6587:6626  _totalSupply = _totalSupply.sub(amount) */\n      dup2\n      swap1\n      sstore\n      pop\n        /* \"BEP20.sol\":6663:6664  0 */\n      0x00\n        /* \"BEP20.sol\":6637:6674  Transfer(account, address(0), amount) */\n      0xffffffffffffffffffffffffffffffffffffffff\n      and\n        /* \"BEP20.sol\":6646:6653  account */\n      dup3\n        /* \"BEP20.sol\":6637:6674  Transfer(account, address(0), amount) */\n      0xffffffffffffffffffffffffffffffffffffffff\n      and\n      0xddf252ad1be2c89b69c2b068fc378daa952ba7f163c4a11628f55a4df523b3ef\n        /* \"BEP20.sol\":6667:6673  amount */\n      dup4\n        /* \"BEP20.sol\":6637:6674  Transfer(account, address(0), amount) */\n      mload(0x40)\n      tag_222\n      swap2\n      swap1\n      tag_38\n      jump\t// in\n    tag_222:\n      mload(0x40)\n      dup1\n      swap2\n      sub\n      swap1\n      log3\n        /* \"BEP20.sol\":6355:6679  function _burn(address account, uint256 amount) internal {... */\n      pop\n      pop\n      jump\t// out\n        /* \"BEPOwnable.sol\":2090:2301  function _transferOwnership(address newOwner) internal {... */\n    tag_184:\n        /* \"BEPOwnable.sol\":2179:2180  0 */\n      0x00\n        /* \"BEPOwnable.sol\":2159:2181  newOwner != address(0) */\n      0xffffffffffffffffffffffffffffffffffffffff\n      and\n        /* \"BEPOwnable.sol\":2159:2167  newOwner */\n      dup2\n        /* \"BEPOwnable.sol\":2159:2181  newOwner != address(0) */\n      0xffffffffffffffffffffffffffffffffffffffff\n      and\n      eq\n      iszero\n        /* \"BEPOwnable.sol\":2151:2224  require(newOwner != address(0), \"Ownable: new owner is the zero address\") */\n      tag_224\n      jumpi\n      mload(0x40)\n      0x08c379a000000000000000000000000000000000000000000000000000000000\n      dup2\n      mstore\n      0x04\n      add\n      tag_225\n      swap1\n      tag_226\n      jump\t// in\n    tag_225:\n      mload(0x40)\n      dup1\n      swap2\n      sub\n      swap1\n      revert\n    tag_224:\n        /* \"BEPOwnable.sol\":2264:2272  newOwner */\n      dup1\n        /* \"BEPOwnable.sol\":2235:2273  OwnershipTransferred(_owner, newOwner) */\n      0xffffffffffffffffffffffffffffffffffffffff\n      and\n        /* \"BEPOwnable.sol\":2256:2262  _owner */\n      0x02\n      0x01\n      swap1\n      sload\n      swap1\n      0x0100\n      exp\n      swap1\n      div\n      0xffffffffffffffffffffffffffffffffffffffff\n      and\n        /* \"BEPOwnable.sol\":2235:2273  OwnershipTransferred(_owner, newOwner) */\n      0xffffffffffffffffffffffffffffffffffffffff\n      and\n      0x8be0079c531659141344cd1fd0a4f28419497f9722a3daafe3b4186f6b6457e0\n      mload(0x40)\n      mload(0x40)\n      dup1\n      swap2\n      sub\n      swap1\n      log3\n        /* \"BEPOwnable.sol\":2288:2296  newOwner */\n      dup1\n        /* \"BEPOwnable.sol\":2279:2285  _owner */\n      0x02\n      0x01\n        /* \"BEPOwnable.sol\":2279:2296  _owner = newOwner */\n      0x0100\n      exp\n      dup2\n      sload\n      dup2\n      0xffffffffffffffffffffffffffffffffffffffff\n      mul\n      not\n      and\n      swap1\n      dup4\n      0xffffffffffffffffffffffffffffffffffffffff\n      and\n      mul\n      or\n      swap1\n      sstore\n      pop\n        /* \"BEPOwnable.sol\":2090:2301  function _transferOwnership(address newOwner) internal {... */\n      pop\n      jump\t// out\n        /* \"SafeMath.sol\":1264:1392  function sub(uint256 a, uint256 b) internal pure returns (uint256) {... */\n    tag_221:\n        /* \"SafeMath.sol\":1322:1329  uint256 */\n      0x00\n        /* \"SafeMath.sol\":1344:1387  sub(a, b, \"SafeMath: subtraction overflow\") */\n      tag_228\n        /* \"SafeMath.sol\":1348:1349  a */\n      dup4\n        /* \"SafeMath.sol\":1351:1352  b */\n      dup4\n        /* \"SafeMath.sol\":1344:1387  sub(a, b, \"SafeMath: subtraction overflow\") */\n      mload(0x40)\n      dup1\n      0x40\n      add\n      0x40\n      mstore\n      dup1\n      0x1e\n      dup2\n      mstore\n      0x20\n      add\n      0x536166654d6174683a207375627472616374696f6e206f766572666c6f770000\n      dup2\n      mstore\n      pop\n        /* \"SafeMath.sol\":1344:1347  sub */\n      tag_123\n        /* \"SafeMath.sol\":1344:1387  sub(a, b, \"SafeMath: subtraction overflow\") */\n      jump\t// in\n    tag_228:\n        /* \"SafeMath.sol\":1337:1387  return sub(a, b, \"SafeMath: subtraction overflow\") */\n      swap1\n      pop\n        /* \"SafeMath.sol\":1264:1392  function sub(uint256 a, uint256 b) internal pure returns (uint256) {... */\n      swap3\n      swap2\n      pop\n      pop\n      jump\t// out\n        /* \"#utility.yul\":7:146   */\n    tag_230:\n        /* \"#utility.yul\":53:58   */\n      0x00\n        /* \"#utility.yul\":91:97   */\n      dup2\n        /* \"#utility.yul\":78:98   */\n      calldataload\n        /* \"#utility.yul\":69:98   */\n      swap1\n      pop\n        /* \"#utility.yul\":107:140   */\n      tag_232\n        /* \"#utility.yul\":134:139   */\n      dup2\n        /* \"#utility.yul\":107:140   */\n      tag_233\n      jump\t// in\n    tag_232:\n        /* \"#utility.yul\":7:146   */\n      swap3\n      swap2\n      pop\n      pop\n      jump\t// out\n        /* \"#utility.yul\":152:291   */\n    tag_234:\n        /* \"#utility.yul\":198:203   */\n      0x00\n        /* \"#utility.yul\":236:242   */\n      dup2\n        /* \"#utility.yul\":223:243   */\n      calldataload\n        /* \"#utility.yul\":214:243   */\n      swap1\n      pop\n        /* \"#utility.yul\":252:285   */\n      tag_236\n        /* \"#utility.yul\":279:284   */\n      dup2\n        /* \"#utility.yul\":252:285   */\n      tag_237\n      jump\t// in\n    tag_236:\n        /* \"#utility.yul\":152:291   */\n      swap3\n      swap2\n      pop\n      pop\n      jump\t// out\n        /* \"#utility.yul\":297:626   */\n    tag_64:\n        /* \"#utility.yul\":356:362   */\n      0x00\n        /* \"#utility.yul\":405:407   */\n      0x20\n        /* \"#utility.yul\":393:402   */\n      dup3\n        /* \"#utility.yul\":384:391   */\n      dup5\n        /* \"#utility.yul\":380:403   */\n      sub\n        /* \"#utility.yul\":376:408   */\n      slt\n        /* \"#utility.yul\":373:492   */\n      iszero\n      tag_239\n      jumpi\n        /* \"#utility.yul\":411:490   */\n      tag_240\n      tag_241\n      jump\t// in\n    tag_240:\n        /* \"#utility.yul\":373:492   */\n    tag_239:\n        /* \"#utility.yul\":531:532   */\n      0x00\n        /* \"#utility.yul\":556:609   */\n      tag_242\n        /* \"#utility.yul\":601:608   */\n      dup5\n        /* \"#utility.yul\":592:598   */\n      dup3\n        /* \"#utility.yul\":581:590   */\n      dup6\n        /* \"#utility.yul\":577:599   */\n      add\n        /* \"#utility.yul\":556:609   */\n      tag_230\n      jump\t// in\n    tag_242:\n        /* \"#utility.yul\":546:609   */\n      swap2\n      pop\n        /* \"#utility.yul\":502:619   */\n      pop\n        /* \"#utility.yul\":297:626   */\n      swap3\n      swap2\n      pop\n      pop\n      jump\t// out\n        /* \"#utility.yul\":632:1106   */\n    tag_92:\n        /* \"#utility.yul\":700:706   */\n      0x00\n        /* \"#utility.yul\":708:714   */\n      dup1\n        /* \"#utility.yul\":757:759   */\n      0x40\n        /* \"#utility.yul\":745:754   */\n      dup4\n        /* \"#utility.yul\":736:743   */\n      dup6\n        /* \"#utility.yul\":732:755   */\n      sub\n        /* \"#utility.yul\":728:760   */\n      slt\n        /* \"#utility.yul\":725:844   */\n      iszero\n      tag_244\n      jumpi\n        /* \"#utility.yul\":763:842   */\n      tag_245\n      tag_241\n      jump\t// in\n    tag_245:\n        /* \"#utility.yul\":725:844   */\n    tag_244:\n        /* \"#utility.yul\":883:884   */\n      0x00\n        /* \"#utility.yul\":908:961   */\n      tag_246\n        /* \"#utility.yul\":953:960   */\n      dup6\n        /* \"#utility.yul\":944:950   */\n      dup3\n        /* \"#utility.yul\":933:942   */\n      dup7\n        /* \"#utility.yul\":929:951   */\n      add\n        /* \"#utility.yul\":908:961   */\n      tag_230\n      jump\t// in\n    tag_246:\n        /* \"#utility.yul\":898:961   */\n      swap3\n      pop\n        /* \"#utility.yul\":854:971   */\n      pop\n        /* \"#utility.yul\":1010:1012   */\n      0x20\n        /* \"#utility.yul\":1036:1089   */\n      tag_247\n        /* \"#utility.yul\":1081:1088   */\n      dup6\n        /* \"#utility.yul\":1072:1078   */\n      dup3\n        /* \"#utility.yul\":1061:1070   */\n      dup7\n        /* \"#utility.yul\":1057:1079   */\n      add\n        /* \"#utility.yul\":1036:1089   */\n      tag_230\n      jump\t// in\n    tag_247:\n        /* \"#utility.yul\":1026:1089   */\n      swap2\n      pop\n        /* \"#utility.yul\":981:1099   */\n      pop\n        /* \"#utility.yul\":632:1106   */\n      swap3\n      pop\n      swap3\n      swap1\n      pop\n      jump\t// out\n        /* \"#utility.yul\":1112:1731   */\n    tag_41:\n        /* \"#utility.yul\":1189:1195   */\n      0x00\n        /* \"#utility.yul\":1197:1203   */\n      dup1\n        /* \"#utility.yul\":1205:1211   */\n      0x00\n        /* \"#utility.yul\":1254:1256   */\n      0x60\n        /* \"#utility.yul\":1242:1251   */\n      dup5\n        /* \"#utility.yul\":1233:1240   */\n      dup7\n        /* \"#utility.yul\":1229:1252   */\n      sub\n        /* \"#utility.yul\":1225:1257   */\n      slt\n        /* \"#utility.yul\":1222:1341   */\n      iszero\n      tag_249\n      jumpi\n        /* \"#utility.yul\":1260:1339   */\n      tag_250\n      tag_241\n      jump\t// in\n    tag_250:\n        /* \"#utility.yul\":1222:1341   */\n    tag_249:\n        /* \"#utility.yul\":1380:1381   */\n      0x00\n        /* \"#utility.yul\":1405:1458   */\n      tag_251\n        /* \"#utility.yul\":1450:1457   */\n      dup7\n        /* \"#utility.yul\":1441:1447   */\n      dup3\n        /* \"#utility.yul\":1430:1439   */\n      dup8\n        /* \"#utility.yul\":1426:1448   */\n      add\n        /* \"#utility.yul\":1405:1458   */\n      tag_230\n      jump\t// in\n    tag_251:\n        /* \"#utility.yul\":1395:1458   */\n      swap4\n      pop\n        /* \"#utility.yul\":1351:1468   */\n      pop\n        /* \"#utility.yul\":1507:1509   */\n      0x20\n        /* \"#utility.yul\":1533:1586   */\n      tag_252\n        /* \"#utility.yul\":1578:1585   */\n      dup7\n        /* \"#utility.yul\":1569:1575   */\n      dup3\n        /* \"#utility.yul\":1558:1567   */\n      dup8\n        /* \"#utility.yul\":1554:1576   */\n      add\n        /* \"#utility.yul\":1533:1586   */\n      tag_230\n      jump\t// in\n    tag_252:\n        /* \"#utility.yul\":1523:1586   */\n      swap3\n      pop\n        /* \"#utility.yul\":1478:1596   */\n      pop\n        /* \"#utility.yul\":1635:1637   */\n      0x40\n        /* \"#utility.yul\":1661:1714   */\n      tag_253\n        /* \"#utility.yul\":1706:1713   */\n      dup7\n        /* \"#utility.yul\":1697:1703   */\n      dup3\n        /* \"#utility.yul\":1686:1695   */\n      dup8\n        /* \"#utility.yul\":1682:1704   */\n      add\n        /* \"#utility.yul\":1661:1714   */\n      tag_234\n      jump\t// in\n    tag_253:\n        /* \"#utility.yul\":1651:1714   */\n      swap2\n      pop\n        /* \"#utility.yul\":1606:1724   */\n      pop\n        /* \"#utility.yul\":1112:1731   */\n      swap3\n      pop\n      swap3\n      pop\n      swap3\n      jump\t// out\n        /* \"#utility.yul\":1737:2211   */\n    tag_31:\n        /* \"#utility.yul\":1805:1811   */\n      0x00\n        /* \"#utility.yul\":1813:1819   */\n      dup1\n        /* \"#utility.yul\":1862:1864   */\n      0x40\n        /* \"#utility.yul\":1850:1859   */\n      dup4\n        /* \"#utility.yul\":1841:1848   */\n      dup6\n        /* \"#utility.yul\":1837:1860   */\n      sub\n        /* \"#utility.yul\":1833:1865   */\n      slt\n        /* \"#utility.yul\":1830:1949   */\n      iszero\n      tag_255\n      jumpi\n        /* \"#utility.yul\":1868:1947   */\n      tag_256\n      tag_241\n      jump\t// in\n    tag_256:\n        /* \"#utility.yul\":1830:1949   */\n    tag_255:\n        /* \"#utility.yul\":1988:1989   */\n      0x00\n        /* \"#utility.yul\":2013:2066   */\n      tag_257\n        /* \"#utility.yul\":2058:2065   */\n      dup6\n        /* \"#utility.yul\":2049:2055   */\n      dup3\n        /* \"#utility.yul\":2038:2047   */\n      dup7\n        /* \"#utility.yul\":2034:2056   */\n      add\n        /* \"#utility.yul\":2013:2066   */\n      tag_230\n      jump\t// in\n    tag_257:\n        /* \"#utility.yul\":2003:2066   */\n      swap3\n      pop\n        /* \"#utility.yul\":1959:2076   */\n      pop\n        /* \"#utility.yul\":2115:2117   */\n      0x20\n        /* \"#utility.yul\":2141:2194   */\n      tag_258\n        /* \"#utility.yul\":2186:2193   */\n      dup6\n        /* \"#utility.yul\":2177:2183   */\n      dup3\n        /* \"#utility.yul\":2166:2175   */\n      dup7\n        /* \"#utility.yul\":2162:2184   */\n      add\n        /* \"#utility.yul\":2141:2194   */\n      tag_234\n      jump\t// in\n    tag_258:\n        /* \"#utility.yul\":2131:2194   */\n      swap2\n      pop\n        /* \"#utility.yul\":2086:2204   */\n      pop\n        /* \"#utility.yul\":1737:2211   */\n      swap3\n      pop\n      swap3\n      swap1\n      pop\n      jump\t// out\n        /* \"#utility.yul\":2217:2546   */\n    tag_57:\n        /* \"#utility.yul\":2276:2282   */\n      0x00\n        /* \"#utility.yul\":2325:2327   */\n      0x20\n        /* \"#utility.yul\":2313:2322   */\n      dup3\n        /* \"#utility.yul\":2304:2311   */\n      dup5\n        /* \"#utility.yul\":2300:2323   */\n      sub\n        /* \"#utility.yul\":2296:2328   */\n      slt\n        /* \"#utility.yul\":2293:2412   */\n      iszero\n      tag_260\n      jumpi\n        /* \"#utility.yul\":2331:2410   */\n      tag_261\n      tag_241\n      jump\t// in\n    tag_261:\n        /* \"#utility.yul\":2293:2412   */\n    tag_260:\n        /* \"#utility.yul\":2451:2452   */\n      0x00\n        /* \"#utility.yul\":2476:2529   */\n      tag_262\n        /* \"#utility.yul\":2521:2528   */\n      dup5\n        /* \"#utility.yul\":2512:2518   */\n      dup3\n        /* \"#utility.yul\":2501:2510   */\n      dup6\n        /* \"#utility.yul\":2497:2519   */\n      add\n        /* \"#utility.yul\":2476:2529   */\n      tag_234\n      jump\t// in\n    tag_262:\n        /* \"#utility.yul\":2466:2529   */\n      swap2\n      pop\n        /* \"#utility.yul\":2422:2539   */\n      pop\n        /* \"#utility.yul\":2217:2546   */\n      swap3\n      swap2\n      pop\n      pop\n      jump\t// out\n        /* \"#utility.yul\":2552:2670   */\n    tag_263:\n        /* \"#utility.yul\":2639:2663   */\n      tag_265\n        /* \"#utility.yul\":2657:2662   */\n      dup2\n        /* \"#utility.yul\":2639:2663   */\n      tag_266\n      jump\t// in\n    tag_265:\n        /* \"#utility.yul\":2634:2637   */\n      dup3\n        /* \"#utility.yul\":2627:2664   */\n      mstore\n        /* \"#utility.yul\":2552:2670   */\n      pop\n      pop\n      jump\t// out\n        /* \"#utility.yul\":2676:2785   */\n    tag_267:\n        /* \"#utility.yul\":2757:2778   */\n      tag_269\n        /* \"#utility.yul\":2772:2777   */\n      dup2\n        /* \"#utility.yul\":2757:2778   */\n      tag_270\n      jump\t// in\n    tag_269:\n        /* \"#utility.yul\":2752:2755   */\n      dup3\n        /* \"#utility.yul\":2745:2779   */\n      mstore\n        /* \"#utility.yul\":2676:2785   */\n      pop\n      pop\n      jump\t// out\n        /* \"#utility.yul\":2791:3155   */\n    tag_271:\n        /* \"#utility.yul\":2879:2882   */\n      0x00\n        /* \"#utility.yul\":2907:2946   */\n      tag_273\n        /* \"#utility.yul\":2940:2945   */\n      dup3\n        /* \"#utility.yul\":2907:2946   */\n      tag_274\n      jump\t// in\n    tag_273:\n        /* \"#utility.yul\":2962:3033   */\n      tag_275\n        /* \"#utility.yul\":3026:3032   */\n      dup2\n        /* \"#utility.yul\":3021:3024   */\n      dup6\n        /* \"#utility.yul\":2962:3033   */\n      tag_276\n      jump\t// in\n    tag_275:\n        /* \"#utility.yul\":2955:3033   */\n      swap4\n      pop\n        /* \"#utility.yul\":3042:3094   */\n      tag_277\n        /* \"#utility.yul\":3087:3093   */\n      dup2\n        /* \"#utility.yul\":3082:3085   */\n      dup6\n        /* \"#utility.yul\":3075:3079   */\n      0x20\n        /* \"#utility.yul\":3068:3073   */\n      dup7\n        /* \"#utility.yul\":3064:3080   */\n      add\n        /* \"#utility.yul\":3042:3094   */\n      tag_278\n      jump\t// in\n    tag_277:\n        /* \"#utility.yul\":3119:3148   */\n      tag_279\n        /* \"#utility.yul\":3141:3147   */\n      dup2\n        /* \"#utility.yul\":3119:3148   */\n      tag_280\n      jump\t// in\n    tag_279:\n        /* \"#utility.yul\":3114:3117   */\n      dup5\n        /* \"#utility.yul\":3110:3149   */\n      add\n        /* \"#utility.yul\":3103:3149   */\n      swap2\n      pop\n        /* \"#utility.yul\":2883:3155   */\n      pop\n        /* \"#utility.yul\":2791:3155   */\n      swap3\n      swap2\n      pop\n      pop\n      jump\t// out\n        /* \"#utility.yul\":3161:3527   */\n    tag_281:\n        /* \"#utility.yul\":3303:3306   */\n      0x00\n        /* \"#utility.yul\":3324:3391   */\n      tag_283\n        /* \"#utility.yul\":3388:3390   */\n      0x25\n        /* \"#utility.yul\":3383:3386   */\n      dup4\n        /* \"#utility.yul\":3324:3391   */\n      tag_276\n      jump\t// in\n    tag_283:\n        /* \"#utility.yul\":3317:3391   */\n      swap2\n      pop\n        /* \"#utility.yul\":3400:3493   */\n      tag_284\n        /* \"#utility.yul\":3489:3492   */\n      dup3\n        /* \"#utility.yul\":3400:3493   */\n      tag_285\n      jump\t// in\n    tag_284:\n        /* \"#utility.yul\":3518:3520   */\n      0x40\n        /* \"#utility.yul\":3513:3516   */\n      dup3\n        /* \"#utility.yul\":3509:3521   */\n      add\n        /* \"#utility.yul\":3502:3521   */\n      swap1\n      pop\n        /* \"#utility.yul\":3161:3527   */\n      swap2\n      swap1\n      pop\n      jump\t// out\n        /* \"#utility.yul\":3533:3899   */\n    tag_286:\n        /* \"#utility.yul\":3675:3678   */\n      0x00\n        /* \"#utility.yul\":3696:3763   */\n      tag_288\n        /* \"#utility.yul\":3760:3762   */\n      0x24\n        /* \"#utility.yul\":3755:3758   */\n      dup4\n        /* \"#utility.yul\":3696:3763   */\n      tag_276\n      jump\t// in\n    tag_288:\n        /* \"#utility.yul\":3689:3763   */\n      swap2\n      pop\n        /* \"#utility.yul\":3772:3865   */\n      tag_289\n        /* \"#utility.yul\":3861:3864   */\n      dup3\n        /* \"#utility.yul\":3772:3865   */\n      tag_290\n      jump\t// in\n    tag_289:\n        /* \"#utility.yul\":3890:3892   */\n      0x40\n        /* \"#utility.yul\":3885:3888   */\n      dup3\n        /* \"#utility.yul\":3881:3893   */\n      add\n        /* \"#utility.yul\":3874:3893   */\n      swap1\n      pop\n        /* \"#utility.yul\":3533:3899   */\n      swap2\n      swap1\n      pop\n      jump\t// out\n        /* \"#utility.yul\":3905:4271   */\n    tag_291:\n        /* \"#utility.yul\":4047:4050   */\n      0x00\n        /* \"#utility.yul\":4068:4135   */\n      tag_293\n        /* \"#utility.yul\":4132:4134   */\n      0x26\n        /* \"#utility.yul\":4127:4130   */\n      dup4\n        /* \"#utility.yul\":4068:4135   */\n      tag_276\n      jump\t// in\n    tag_293:\n        /* \"#utility.yul\":4061:4135   */\n      swap2\n      pop\n        /* \"#utility.yul\":4144:4237   */\n      tag_294\n        /* \"#utility.yul\":4233:4236   */\n      dup3\n        /* \"#utility.yul\":4144:4237   */\n      tag_295\n      jump\t// in\n    tag_294:\n        /* \"#utility.yul\":4262:4264   */\n      0x40\n        /* \"#utility.yul\":4257:4260   */\n      dup3\n        /* \"#utility.yul\":4253:4265   */\n      add\n        /* \"#utility.yul\":4246:4265   */\n      swap1\n      pop\n        /* \"#utility.yul\":3905:4271   */\n      swap2\n      swap1\n      pop\n      jump\t// out\n        /* \"#utility.yul\":4277:4643   */\n    tag_296:\n        /* \"#utility.yul\":4419:4422   */\n      0x00\n        /* \"#utility.yul\":4440:4507   */\n      tag_298\n        /* \"#utility.yul\":4504:4506   */\n      0x1b\n        /* \"#utility.yul\":4499:4502   */\n      dup4\n        /* \"#utility.yul\":4440:4507   */\n      tag_276\n      jump\t// in\n    tag_298:\n        /* \"#utility.yul\":4433:4507   */\n      swap2\n      pop\n        /* \"#utility.yul\":4516:4609   */\n      tag_299\n        /* \"#utility.yul\":4605:4608   */\n      dup3\n        /* \"#utility.yul\":4516:4609   */\n      tag_300\n      jump\t// in\n    tag_299:\n        /* \"#utility.yul\":4634:4636   */\n      0x20\n        /* \"#utility.yul\":4629:4632   */\n      dup3\n        /* \"#utility.yul\":4625:4637   */\n      add\n        /* \"#utility.yul\":4618:4637   */\n      swap1\n      pop\n        /* \"#utility.yul\":4277:4643   */\n      swap2\n      swap1\n      pop\n      jump\t// out\n        /* \"#utility.yul\":4649:5015   */\n    tag_301:\n        /* \"#utility.yul\":4791:4794   */\n      0x00\n        /* \"#utility.yul\":4812:4879   */\n      tag_303\n        /* \"#utility.yul\":4876:4878   */\n      0x20\n        /* \"#utility.yul\":4871:4874   */\n      dup4\n        /* \"#utility.yul\":4812:4879   */\n      tag_276\n      jump\t// in\n    tag_303:\n        /* \"#utility.yul\":4805:4879   */\n      swap2\n      pop\n        /* \"#utility.yul\":4888:4981   */\n      tag_304\n        /* \"#utility.yul\":4977:4980   */\n      dup3\n        /* \"#utility.yul\":4888:4981   */\n      tag_305\n      jump\t// in\n    tag_304:\n        /* \"#utility.yul\":5006:5008   */\n      0x20\n        /* \"#utility.yul\":5001:5004   */\n      dup3\n        /* \"#utility.yul\":4997:5009   */\n      add\n        /* \"#utility.yul\":4990:5009   */\n      swap1\n      pop\n        /* \"#utility.yul\":4649:5015   */\n      swap2\n      swap1\n      pop\n      jump\t// out\n        /* \"#utility.yul\":5021:5387   */\n    tag_306:\n        /* \"#utility.yul\":5163:5166   */\n      0x00\n        /* \"#utility.yul\":5184:5251   */\n      tag_308\n        /* \"#utility.yul\":5248:5250   */\n      0x23\n        /* \"#utility.yul\":5243:5246   */\n      dup4\n        /* \"#utility.yul\":5184:5251   */\n      tag_276\n      jump\t// in\n    tag_308:\n        /* \"#utility.yul\":5177:5251   */\n      swap2\n      pop\n        /* \"#utility.yul\":5260:5353   */\n      tag_309\n        /* \"#utility.yul\":5349:5352   */\n      dup3\n        /* \"#utility.yul\":5260:5353   */\n      tag_310\n      jump\t// in\n    tag_309:\n        /* \"#utility.yul\":5378:5380   */\n      0x40\n        /* \"#utility.yul\":5373:5376   */\n      dup3\n        /* \"#utility.yul\":5369:5381   */\n      add\n        /* \"#utility.yul\":5362:5381   */\n      swap1\n      pop\n        /* \"#utility.yul\":5021:5387   */\n      swap2\n      swap1\n      pop\n      jump\t// out\n        /* \"#utility.yul\":5393:5759   */\n    tag_311:\n        /* \"#utility.yul\":5535:5538   */\n      0x00\n        /* \"#utility.yul\":5556:5623   */\n      tag_313\n        /* \"#utility.yul\":5620:5622   */\n      0x21\n        /* \"#utility.yul\":5615:5618   */\n      dup4\n        /* \"#utility.yul\":5556:5623   */\n      tag_276\n      jump\t// in\n    tag_313:\n        /* \"#utility.yul\":5549:5623   */\n      swap2\n      pop\n        /* \"#utility.yul\":5632:5725   */\n      tag_314\n        /* \"#utility.yul\":5721:5724   */\n      dup3\n        /* \"#utility.yul\":5632:5725   */\n      tag_315\n      jump\t// in\n    tag_314:\n        /* \"#utility.yul\":5750:5752   */\n      0x40\n        /* \"#utility.yul\":5745:5748   */\n      dup3\n        /* \"#utility.yul\":5741:5753   */\n      add\n        /* \"#utility.yul\":5734:5753   */\n      swap1\n      pop\n        /* \"#utility.yul\":5393:5759   */\n      swap2\n      swap1\n      pop\n      jump\t// out\n        /* \"#utility.yul\":5765:6131   */\n    tag_316:\n        /* \"#utility.yul\":5907:5910   */\n      0x00\n        /* \"#utility.yul\":5928:5995   */\n      tag_318\n        /* \"#utility.yul\":5992:5994   */\n      0x22\n        /* \"#utility.yul\":5987:5990   */\n      dup4\n        /* \"#utility.yul\":5928:5995   */\n      tag_276\n      jump\t// in\n    tag_318:\n        /* \"#utility.yul\":5921:5995   */\n      swap2\n      pop\n        /* \"#utility.yul\":6004:6097   */\n      tag_319\n        /* \"#utility.yul\":6093:6096   */\n      dup3\n        /* \"#utility.yul\":6004:6097   */\n      tag_320\n      jump\t// in\n    tag_319:\n        /* \"#utility.yul\":6122:6124   */\n      0x40\n        /* \"#utility.yul\":6117:6120   */\n      dup3\n        /* \"#utility.yul\":6113:6125   */\n      add\n        /* \"#utility.yul\":6106:6125   */\n      swap1\n      pop\n        /* \"#utility.yul\":5765:6131   */\n      swap2\n      swap1\n      pop\n      jump\t// out\n        /* \"#utility.yul\":6137:6255   */\n    tag_321:\n        /* \"#utility.yul\":6224:6248   */\n      tag_323\n        /* \"#utility.yul\":6242:6247   */\n      dup2\n        /* \"#utility.yul\":6224:6248   */\n      tag_324\n      jump\t// in\n    tag_323:\n        /* \"#utility.yul\":6219:6222   */\n      dup3\n        /* \"#utility.yul\":6212:6249   */\n      mstore\n        /* \"#utility.yul\":6137:6255   */\n      pop\n      pop\n      jump\t// out\n        /* \"#utility.yul\":6261:6373   */\n    tag_325:\n        /* \"#utility.yul\":6344:6366   */\n      tag_327\n        /* \"#utility.yul\":6360:6365   */\n      dup2\n        /* \"#utility.yul\":6344:6366   */\n      tag_328\n      jump\t// in\n    tag_327:\n        /* \"#utility.yul\":6339:6342   */\n      dup3\n        /* \"#utility.yul\":6332:6367   */\n      mstore\n        /* \"#utility.yul\":6261:6373   */\n      pop\n      pop\n      jump\t// out\n        /* \"#utility.yul\":6379:6601   */\n    tag_75:\n        /* \"#utility.yul\":6472:6476   */\n      0x00\n        /* \"#utility.yul\":6510:6512   */\n      0x20\n        /* \"#utility.yul\":6499:6508   */\n      dup3\n        /* \"#utility.yul\":6495:6513   */\n      add\n        /* \"#utility.yul\":6487:6513   */\n      swap1\n      pop\n        /* \"#utility.yul\":6523:6594   */\n      tag_330\n        /* \"#utility.yul\":6591:6592   */\n      0x00\n        /* \"#utility.yul\":6580:6589   */\n      dup4\n        /* \"#utility.yul\":6576:6593   */\n      add\n        /* \"#utility.yul\":6567:6573   */\n      dup5\n        /* \"#utility.yul\":6523:6594   */\n      tag_263\n      jump\t// in\n    tag_330:\n        /* \"#utility.yul\":6379:6601   */\n      swap3\n      swap2\n      pop\n      pop\n      jump\t// out\n        /* \"#utility.yul\":6607:6817   */\n    tag_34:\n        /* \"#utility.yul\":6694:6698   */\n      0x00\n        /* \"#utility.yul\":6732:6734   */\n      0x20\n        /* \"#utility.yul\":6721:6730   */\n      dup3\n        /* \"#utility.yul\":6717:6735   */\n      add\n        /* \"#utility.yul\":6709:6735   */\n      swap1\n      pop\n        /* \"#utility.yul\":6745:6810   */\n      tag_332\n        /* \"#utility.yul\":6807:6808   */\n      0x00\n        /* \"#utility.yul\":6796:6805   */\n      dup4\n        /* \"#utility.yul\":6792:6809   */\n      add\n        /* \"#utility.yul\":6783:6789   */\n      dup5\n        /* \"#utility.yul\":6745:6810   */\n      tag_267\n      jump\t// in\n    tag_332:\n        /* \"#utility.yul\":6607:6817   */\n      swap3\n      swap2\n      pop\n      pop\n      jump\t// out\n        /* \"#utility.yul\":6823:7136   */\n    tag_28:\n        /* \"#utility.yul\":6936:6940   */\n      0x00\n        /* \"#utility.yul\":6974:6976   */\n      0x20\n        /* \"#utility.yul\":6963:6972   */\n      dup3\n        /* \"#utility.yul\":6959:6977   */\n      add\n        /* \"#utility.yul\":6951:6977   */\n      swap1\n      pop\n        /* \"#utility.yul\":7023:7032   */\n      dup2\n        /* \"#utility.yul\":7017:7021   */\n      dup2\n        /* \"#utility.yul\":7013:7033   */\n      sub\n        /* \"#utility.yul\":7009:7010   */\n      0x00\n        /* \"#utility.yul\":6998:7007   */\n      dup4\n        /* \"#utility.yul\":6994:7011   */\n      add\n        /* \"#utility.yul\":6987:7034   */\n      mstore\n        /* \"#utility.yul\":7051:7129   */\n      tag_334\n        /* \"#utility.yul\":7124:7128   */\n      dup2\n        /* \"#utility.yul\":7115:7121   */\n      dup5\n        /* \"#utility.yul\":7051:7129   */\n      tag_271\n      jump\t// in\n    tag_334:\n        /* \"#utility.yul\":7043:7129   */\n      swap1\n      pop\n        /* \"#utility.yul\":6823:7136   */\n      swap3\n      swap2\n      pop\n      pop\n      jump\t// out\n        /* \"#utility.yul\":7142:7561   */\n    tag_203:\n        /* \"#utility.yul\":7308:7312   */\n      0x00\n        /* \"#utility.yul\":7346:7348   */\n      0x20\n        /* \"#utility.yul\":7335:7344   */\n      dup3\n        /* \"#utility.yul\":7331:7349   */\n      add\n        /* \"#utility.yul\":7323:7349   */\n      swap1\n      pop\n        /* \"#utility.yul\":7395:7404   */\n      dup2\n        /* \"#utility.yul\":7389:7393   */\n      dup2\n        /* \"#utility.yul\":7385:7405   */\n      sub\n        /* \"#utility.yul\":7381:7382   */\n      0x00\n        /* \"#utility.yul\":7370:7379   */\n      dup4\n        /* \"#utility.yul\":7366:7383   */\n      add\n        /* \"#utility.yul\":7359:7406   */\n      mstore\n        /* \"#utility.yul\":7423:7554   */\n      tag_336\n        /* \"#utility.yul\":7549:7553   */\n      dup2\n        /* \"#utility.yul\":7423:7554   */\n      tag_281\n      jump\t// in\n    tag_336:\n        /* \"#utility.yul\":7415:7554   */\n      swap1\n      pop\n        /* \"#utility.yul\":7142:7561   */\n      swap2\n      swap1\n      pop\n      jump\t// out\n        /* \"#utility.yul\":7567:7986   */\n    tag_195:\n        /* \"#utility.yul\":7733:7737   */\n      0x00\n        /* \"#utility.yul\":7771:7773   */\n      0x20\n        /* \"#utility.yul\":7760:7769   */\n      dup3\n        /* \"#utility.yul\":7756:7774   */\n      add\n        /* \"#utility.yul\":7748:7774   */\n      swap1\n      pop\n        /* \"#utility.yul\":7820:7829   */\n      dup2\n        /* \"#utility.yul\":7814:7818   */\n      dup2\n        /* \"#utility.yul\":7810:7830   */\n      sub\n        /* \"#utility.yul\":7806:7807   */\n      0x00\n        /* \"#utility.yul\":7795:7804   */\n      dup4\n        /* \"#utility.yul\":7791:7808   */\n      add\n        /* \"#utility.yul\":7784:7831   */\n      mstore\n        /* \"#utility.yul\":7848:7979   */\n      tag_338\n        /* \"#utility.yul\":7974:7978   */\n      dup2\n        /* \"#utility.yul\":7848:7979   */\n      tag_286\n      jump\t// in\n    tag_338:\n        /* \"#utility.yul\":7840:7979   */\n      swap1\n      pop\n        /* \"#utility.yul\":7567:7986   */\n      swap2\n      swap1\n      pop\n      jump\t// out\n        /* \"#utility.yul\":7992:8411   */\n    tag_226:\n        /* \"#utility.yul\":8158:8162   */\n      0x00\n        /* \"#utility.yul\":8196:8198   */\n      0x20\n        /* \"#utility.yul\":8185:8194   */\n      dup3\n        /* \"#utility.yul\":8181:8199   */\n      add\n        /* \"#utility.yul\":8173:8199   */\n      swap1\n      pop\n        /* \"#utility.yul\":8245:8254   */\n      dup2\n        /* \"#utility.yul\":8239:8243   */\n      dup2\n        /* \"#utility.yul\":8235:8255   */\n      sub\n        /* \"#utility.yul\":8231:8232   */\n      0x00\n        /* \"#utility.yul\":8220:8229   */\n      dup4\n        /* \"#utility.yul\":8216:8233   */\n      add\n        /* \"#utility.yul\":8209:8256   */\n      mstore\n        /* \"#utility.yul\":8273:8404   */\n      tag_340\n        /* \"#utility.yul\":8399:8403   */\n      dup2\n        /* \"#utility.yul\":8273:8404   */\n      tag_291\n      jump\t// in\n    tag_340:\n        /* \"#utility.yul\":8265:8404   */\n      swap1\n      pop\n        /* \"#utility.yul\":7992:8411   */\n      swap2\n      swap1\n      pop\n      jump\t// out\n        /* \"#utility.yul\":8417:8836   */\n    tag_190:\n        /* \"#utility.yul\":8583:8587   */\n      0x00\n        /* \"#utility.yul\":8621:8623   */\n      0x20\n        /* \"#utility.yul\":8610:8619   */\n      dup3\n        /* \"#utility.yul\":8606:8624   */\n      add\n        /* \"#utility.yul\":8598:8624   */\n      swap1\n      pop\n        /* \"#utility.yul\":8670:8679   */\n      dup2\n        /* \"#utility.yul\":8664:8668   */\n      dup2\n        /* \"#utility.yul\":8660:8680   */\n      sub\n        /* \"#utility.yul\":8656:8657   */\n      0x00\n        /* \"#utility.yul\":8645:8654   */\n      dup4\n        /* \"#utility.yul\":8641:8658   */\n      add\n        /* \"#utility.yul\":8634:8681   */\n      mstore\n        /* \"#utility.yul\":8698:8829   */\n      tag_342\n        /* \"#utility.yul\":8824:8828   */\n      dup2\n        /* \"#utility.yul\":8698:8829   */\n      tag_296\n      jump\t// in\n    tag_342:\n        /* \"#utility.yul\":8690:8829   */\n      swap1\n      pop\n        /* \"#utility.yul\":8417:8836   */\n      swap2\n      swap1\n      pop\n      jump\t// out\n        /* \"#utility.yul\":8842:9261   */\n    tag_136:\n        /* \"#utility.yul\":9008:9012   */\n      0x00\n        /* \"#utility.yul\":9046:9048   */\n      0x20\n        /* \"#utility.yul\":9035:9044   */\n      dup3\n        /* \"#utility.yul\":9031:9049   */\n      add\n        /* \"#utility.yul\":9023:9049   */\n      swap1\n      pop\n        /* \"#utility.yul\":9095:9104   */\n      dup2\n        /* \"#utility.yul\":9089:9093   */\n      dup2\n        /* \"#utility.yul\":9085:9105   */\n      sub\n        /* \"#utility.yul\":9081:9082   */\n      0x00\n        /* \"#utility.yul\":9070:9079   */\n      dup4\n        /* \"#utility.yul\":9066:9083   */\n      add\n        /* \"#utility.yul\":9059:9106   */\n      mstore\n        /* \"#utility.yul\":9123:9254   */\n      tag_344\n        /* \"#utility.yul\":9249:9253   */\n      dup2\n        /* \"#utility.yul\":9123:9254   */\n      tag_301\n      jump\t// in\n    tag_344:\n        /* \"#utility.yul\":9115:9254   */\n      swap1\n      pop\n        /* \"#utility.yul\":8842:9261   */\n      swap2\n      swap1\n      pop\n      jump\t// out\n        /* \"#utility.yul\":9267:9686   */\n    tag_206:\n        /* \"#utility.yul\":9433:9437   */\n      0x00\n        /* \"#utility.yul\":9471:9473   */\n      0x20\n        /* \"#utility.yul\":9460:9469   */\n      dup3\n        /* \"#utility.yul\":9456:9474   */\n      add\n        /* \"#utility.yul\":9448:9474   */\n      swap1\n      pop\n        /* \"#utility.yul\":9520:9529   */\n      dup2\n        /* \"#utility.yul\":9514:9518   */\n      dup2\n        /* \"#utility.yul\":9510:9530   */\n      sub\n        /* \"#utility.yul\":9506:9507   */\n      0x00\n        /* \"#utility.yul\":9495:9504   */\n      dup4\n        /* \"#utility.yul\":9491:9508   */\n      add\n        /* \"#utility.yul\":9484:9531   */\n      mstore\n        /* \"#utility.yul\":9548:9679   */\n      tag_346\n        /* \"#utility.yul\":9674:9678   */\n      dup2\n        /* \"#utility.yul\":9548:9679   */\n      tag_306\n      jump\t// in\n    tag_346:\n        /* \"#utility.yul\":9540:9679   */\n      swap1\n      pop\n        /* \"#utility.yul\":9267:9686   */\n      swap2\n      swap1\n      pop\n      jump\t// out\n        /* \"#utility.yul\":9692:10111   */\n    tag_218:\n        /* \"#utility.yul\":9858:9862   */\n      0x00\n        /* \"#utility.yul\":9896:9898   */\n      0x20\n        /* \"#utility.yul\":9885:9894   */\n      dup3\n        /* \"#utility.yul\":9881:9899   */\n      add\n        /* \"#utility.yul\":9873:9899   */\n      swap1\n      pop\n        /* \"#utility.yul\":9945:9954   */\n      dup2\n        /* \"#utility.yul\":9939:9943   */\n      dup2\n        /* \"#utility.yul\":9935:9955   */\n      sub\n        /* \"#utility.yul\":9931:9932   */\n      0x00\n        /* \"#utility.yul\":9920:9929   */\n      dup4\n        /* \"#utility.yul\":9916:9933   */\n      add\n        /* \"#utility.yul\":9909:9956   */\n      mstore\n        /* \"#utility.yul\":9973:10104   */\n      tag_348\n        /* \"#utility.yul\":10099:10103   */\n      dup2\n        /* \"#utility.yul\":9973:10104   */\n      tag_311\n      jump\t// in\n    tag_348:\n        /* \"#utility.yul\":9965:10104   */\n      swap1\n      pop\n        /* \"#utility.yul\":9692:10111   */\n      swap2\n      swap1\n      pop\n      jump\t// out\n        /* \"#utility.yul\":10117:10536   */\n    tag_198:\n        /* \"#utility.yul\":10283:10287   */\n      0x00\n        /* \"#utility.yul\":10321:10323   */\n      0x20\n        /* \"#utility.yul\":10310:10319   */\n      dup3\n        /* \"#utility.yul\":10306:10324   */\n      add\n        /* \"#utility.yul\":10298:10324   */\n      swap1\n      pop\n        /* \"#utility.yul\":10370:10379   */\n      dup2\n        /* \"#utility.yul\":10364:10368   */\n      dup2\n        /* \"#utility.yul\":10360:10380   */\n      sub\n        /* \"#utility.yul\":10356:10357   */\n      0x00\n        /* \"#utility.yul\":10345:10354   */\n      dup4\n        /* \"#utility.yul\":10341:10358   */\n      add\n        /* \"#utility.yul\":10334:10381   */\n      mstore\n        /* \"#utility.yul\":10398:10529   */\n      tag_350\n        /* \"#utility.yul\":10524:10528   */\n      dup2\n        /* \"#utility.yul\":10398:10529   */\n      tag_316\n      jump\t// in\n    tag_350:\n        /* \"#utility.yul\":10390:10529   */\n      swap1\n      pop\n        /* \"#utility.yul\":10117:10536   */\n      swap2\n      swap1\n      pop\n      jump\t// out\n        /* \"#utility.yul\":10542:10764   */\n    tag_38:\n        /* \"#utility.yul\":10635:10639   */\n      0x00\n        /* \"#utility.yul\":10673:10675   */\n      0x20\n        /* \"#utility.yul\":10662:10671   */\n      dup3\n        /* \"#utility.yul\":10658:10676   */\n      add\n        /* \"#utility.yul\":10650:10676   */\n      swap1\n      pop\n        /* \"#utility.yul\":10686:10757   */\n      tag_352\n        /* \"#utility.yul\":10754:10755   */\n      0x00\n        /* \"#utility.yul\":10743:10752   */\n      dup4\n        /* \"#utility.yul\":10739:10756   */\n      add\n        /* \"#utility.yul\":10730:10736   */\n      dup5\n        /* \"#utility.yul\":10686:10757   */\n      tag_321\n      jump\t// in\n    tag_352:\n        /* \"#utility.yul\":10542:10764   */\n      swap3\n      swap2\n      pop\n      pop\n      jump\t// out\n        /* \"#utility.yul\":10770:10984   */\n    tag_47:\n        /* \"#utility.yul\":10859:10863   */\n      0x00\n        /* \"#utility.yul\":10897:10899   */\n      0x20\n        /* \"#utility.yul\":10886:10895   */\n      dup3\n        /* \"#utility.yul\":10882:10900   */\n      add\n        /* \"#utility.yul\":10874:10900   */\n      swap1\n      pop\n        /* \"#utility.yul\":10910:10977   */\n      tag_354\n        /* \"#utility.yul\":10974:10975   */\n      0x00\n        /* \"#utility.yul\":10963:10972   */\n      dup4\n        /* \"#utility.yul\":10959:10976   */\n      add\n        /* \"#utility.yul\":10950:10956   */\n      dup5\n        /* \"#utility.yul\":10910:10977   */\n      tag_325\n      jump\t// in\n    tag_354:\n        /* \"#utility.yul\":10770:10984   */\n      swap3\n      swap2\n      pop\n      pop\n      jump\t// out\n        /* \"#utility.yul\":11071:11170   */\n    tag_274:\n        /* \"#utility.yul\":11123:11129   */\n      0x00\n        /* \"#utility.yul\":11157:11162   */\n      dup2\n        /* \"#utility.yul\":11151:11163   */\n      mload\n        /* \"#utility.yul\":11141:11163   */\n      swap1\n      pop\n        /* \"#utility.yul\":11071:11170   */\n      swap2\n      swap1\n      pop\n      jump\t// out\n        /* \"#utility.yul\":11176:11345   */\n    tag_276:\n        /* \"#utility.yul\":11260:11271   */\n      0x00\n        /* \"#utility.yul\":11294:11300   */\n      dup3\n        /* \"#utility.yul\":11289:11292   */\n      dup3\n        /* \"#utility.yul\":11282:11301   */\n      mstore\n        /* \"#utility.yul\":11334:11338   */\n      0x20\n        /* \"#utility.yul\":11329:11332   */\n      dup3\n        /* \"#utility.yul\":11325:11339   */\n      add\n        /* \"#utility.yul\":11310:11339   */\n      swap1\n      pop\n        /* \"#utility.yul\":11176:11345   */\n      swap3\n      swap2\n      pop\n      pop\n      jump\t// out\n        /* \"#utility.yul\":11351:11656   */\n    tag_187:\n        /* \"#utility.yul\":11391:11394   */\n      0x00\n        /* \"#utility.yul\":11410:11430   */\n      tag_360\n        /* \"#utility.yul\":11428:11429   */\n      dup3\n        /* \"#utility.yul\":11410:11430   */\n      tag_324\n      jump\t// in\n    tag_360:\n        /* \"#utility.yul\":11405:11430   */\n      swap2\n      pop\n        /* \"#utility.yul\":11444:11464   */\n      tag_361\n        /* \"#utility.yul\":11462:11463   */\n      dup4\n        /* \"#utility.yul\":11444:11464   */\n      tag_324\n      jump\t// in\n    tag_361:\n        /* \"#utility.yul\":11439:11464   */\n      swap3\n      pop\n        /* \"#utility.yul\":11598:11599   */\n      dup3\n        /* \"#utility.yul\":11530:11596   */\n      0xffffffffffffffffffffffffffffffffffffffffffffffffffffffffffffffff\n        /* \"#utility.yul\":11526:11600   */\n      sub\n        /* \"#utility.yul\":11523:11524   */\n      dup3\n        /* \"#utility.yul\":11520:11601   */\n      gt\n        /* \"#utility.yul\":11517:11624   */\n      iszero\n      tag_362\n      jumpi\n        /* \"#utility.yul\":11604:11622   */\n      tag_363\n      tag_364\n      jump\t// in\n    tag_363:\n        /* \"#utility.yul\":11517:11624   */\n    tag_362:\n        /* \"#utility.yul\":11648:11649   */\n      dup3\n        /* \"#utility.yul\":11645:11646   */\n      dup3\n        /* \"#utility.yul\":11641:11650   */\n      add\n        /* \"#utility.yul\":11634:11650   */\n      swap1\n      pop\n        /* \"#utility.yul\":11351:11656   */\n      swap3\n      swap2\n      pop\n      pop\n      jump\t// out\n        /* \"#utility.yul\":11662:11853   */\n    tag_214:\n        /* \"#utility.yul\":11702:11706   */\n      0x00\n        /* \"#utility.yul\":11722:11742   */\n      tag_366\n        /* \"#utility.yul\":11740:11741   */\n      dup3\n        /* \"#utility.yul\":11722:11742   */\n      tag_324\n      jump\t// in\n    tag_366:\n        /* \"#utility.yul\":11717:11742   */\n      swap2\n      pop\n        /* \"#utility.yul\":11756:11776   */\n      tag_367\n        /* \"#utility.yul\":11774:11775   */\n      dup4\n        /* \"#utility.yul\":11756:11776   */\n      tag_324\n      jump\t// in\n    tag_367:\n        /* \"#utility.yul\":11751:11776   */\n      swap3\n      pop\n        /* \"#utility.yul\":11795:11796   */\n      dup3\n        /* \"#utility.yul\":11792:11793   */\n      dup3\n        /* \"#utility.yul\":11789:11797   */\n      lt\n        /* \"#utility.yul\":11786:11820   */\n      iszero\n      tag_368\n      jumpi\n        /* \"#utility.yul\":11800:11818   */\n      tag_369\n      tag_364\n      jump\t// in\n    tag_369:\n        /* \"#utility.yul\":11786:11820   */\n    tag_368:\n        /* \"#utility.yul\":11845:11846   */\n      dup3\n        /* \"#utility.yul\":11842:11843   */\n      dup3\n        /* \"#utility.yul\":11838:11847   */\n      sub\n        /* \"#utility.yul\":11830:11847   */\n      swap1\n      pop\n        /* \"#utility.yul\":11662:11853   */\n      swap3\n      swap2\n      pop\n      pop\n      jump\t// out\n        /* \"#utility.yul\":11859:11955   */\n    tag_266:\n        /* \"#utility.yul\":11896:11903   */\n      0x00\n        /* \"#utility.yul\":11925:11949   */\n      tag_371\n        /* \"#utility.yul\":11943:11948   */\n      dup3\n        /* \"#utility.yul\":11925:11949   */\n      tag_372\n      jump\t// in\n    tag_371:\n        /* \"#utility.yul\":11914:11949   */\n      swap1\n      pop\n        /* \"#utility.yul\":11859:11955   */\n      swap2\n      swap1\n      pop\n      jump\t// out\n        /* \"#utility.yul\":11961:12051   */\n    tag_270:\n        /* \"#utility.yul\":11995:12002   */\n      0x00\n        /* \"#utility.yul\":12038:12043   */\n      dup2\n        /* \"#utility.yul\":12031:12044   */\n      iszero\n        /* \"#utility.yul\":12024:12045   */\n      iszero\n        /* \"#utility.yul\":12013:12045   */\n      swap1\n      pop\n        /* \"#utility.yul\":11961:12051   */\n      swap2\n      swap1\n      pop\n      jump\t// out\n        /* \"#utility.yul\":12057:12183   */\n    tag_372:\n        /* \"#utility.yul\":12094:12101   */\n      0x00\n        /* \"#utility.yul\":12134:12176   */\n      0xffffffffffffffffffffffffffffffffffffffff\n        /* \"#utility.yul\":12127:12132   */\n      dup3\n        /* \"#utility.yul\":12123:12177   */\n      and\n        /* \"#utility.yul\":12112:12177   */\n      swap1\n      pop\n        /* \"#utility.yul\":12057:12183   */\n      swap2\n      swap1\n      pop\n      jump\t// out\n        /* \"#utility.yul\":12189:12266   */\n    tag_324:\n        /* \"#utility.yul\":12226:12233   */\n      0x00\n        /* \"#utility.yul\":12255:12260   */\n      dup2\n        /* \"#utility.yul\":12244:12260   */\n      swap1\n      pop\n        /* \"#utility.yul\":12189:12266   */\n      swap2\n      swap1\n      pop\n      jump\t// out\n        /* \"#utility.yul\":12272:12358   */\n    tag_328:\n        /* \"#utility.yul\":12307:12314   */\n      0x00\n        /* \"#utility.yul\":12347:12351   */\n      0xff\n        /* \"#utility.yul\":12340:12345   */\n      dup3\n        /* \"#utility.yul\":12336:12352   */\n      and\n        /* \"#utility.yul\":12325:12352   */\n      swap1\n      pop\n        /* \"#utility.yul\":12272:12358   */\n      swap2\n      swap1\n      pop\n      jump\t// out\n        /* \"#utility.yul\":12364:12671   */\n    tag_278:\n        /* \"#utility.yul\":12432:12433   */\n      0x00\n        /* \"#utility.yul\":12442:12555   */\n    tag_378:\n        /* \"#utility.yul\":12456:12462   */\n      dup4\n        /* \"#utility.yul\":12453:12454   */\n      dup2\n        /* \"#utility.yul\":12450:12463   */\n      lt\n        /* \"#utility.yul\":12442:12555   */\n      iszero\n      tag_380\n      jumpi\n        /* \"#utility.yul\":12541:12542   */\n      dup1\n        /* \"#utility.yul\":12536:12539   */\n      dup3\n        /* \"#utility.yul\":12532:12543   */\n      add\n        /* \"#utility.yul\":12526:12544   */\n      mload\n        /* \"#utility.yul\":12522:12523   */\n      dup2\n        /* \"#utility.yul\":12517:12520   */\n      dup5\n        /* \"#utility.yul\":12513:12524   */\n      add\n        /* \"#utility.yul\":12506:12545   */\n      mstore\n        /* \"#utility.yul\":12478:12480   */\n      0x20\n        /* \"#utility.yul\":12475:12476   */\n      dup2\n        /* \"#utility.yul\":12471:12481   */\n      add\n        /* \"#utility.yul\":12466:12481   */\n      swap1\n      pop\n        /* \"#utility.yul\":12442:12555   */\n      jump(tag_378)\n    tag_380:\n        /* \"#utility.yul\":12573:12579   */\n      dup4\n        /* \"#utility.yul\":12570:12571   */\n      dup2\n        /* \"#utility.yul\":12567:12580   */\n      gt\n        /* \"#utility.yul\":12564:12665   */\n      iszero\n      tag_381\n      jumpi\n        /* \"#utility.yul\":12653:12654   */\n      0x00\n        /* \"#utility.yul\":12644:12650   */\n      dup5\n        /* \"#utility.yul\":12639:12642   */\n      dup5\n        /* \"#utility.yul\":12635:12651   */\n      add\n        /* \"#utility.yul\":12628:12655   */\n      mstore\n        /* \"#utility.yul\":12564:12665   */\n    tag_381:\n        /* \"#utility.yul\":12413:12671   */\n      pop\n        /* \"#utility.yul\":12364:12671   */\n      pop\n      pop\n      pop\n      jump\t// out\n        /* \"#utility.yul\":12677:12997   */\n    tag_101:\n        /* \"#utility.yul\":12721:12727   */\n      0x00\n        /* \"#utility.yul\":12758:12759   */\n      0x02\n        /* \"#utility.yul\":12752:12756   */\n      dup3\n        /* \"#utility.yul\":12748:12760   */\n      div\n        /* \"#utility.yul\":12738:12760   */\n      swap1\n      pop\n        /* \"#utility.yul\":12805:12806   */\n      0x01\n        /* \"#utility.yul\":12799:12803   */\n      dup3\n        /* \"#utility.yul\":12795:12807   */\n      and\n        /* \"#utility.yul\":12826:12844   */\n      dup1\n        /* \"#utility.yul\":12816:12897   */\n      tag_383\n      jumpi\n        /* \"#utility.yul\":12882:12886   */\n      0x7f\n        /* \"#utility.yul\":12874:12880   */\n      dup3\n        /* \"#utility.yul\":12870:12887   */\n      and\n        /* \"#utility.yul\":12860:12887   */\n      swap2\n      pop\n        /* \"#utility.yul\":12816:12897   */\n    tag_383:\n        /* \"#utility.yul\":12944:12946   */\n      0x20\n        /* \"#utility.yul\":12936:12942   */\n      dup3\n        /* \"#utility.yul\":12933:12947   */\n      lt\n        /* \"#utility.yul\":12913:12931   */\n      dup2\n        /* \"#utility.yul\":12910:12948   */\n      eq\n        /* \"#utility.yul\":12907:12991   */\n      iszero\n      tag_384\n      jumpi\n        /* \"#utility.yul\":12963:12981   */\n      tag_385\n      tag_386\n      jump\t// in\n    tag_385:\n        /* \"#utility.yul\":12907:12991   */\n    tag_384:\n        /* \"#utility.yul\":12728:12997   */\n      pop\n        /* \"#utility.yul\":12677:12997   */\n      swap2\n      swap1\n      pop\n      jump\t// out\n        /* \"#utility.yul\":13003:13183   */\n    tag_364:\n        /* \"#utility.yul\":13051:13128   */\n      0x4e487b7100000000000000000000000000000000000000000000000000000000\n        /* \"#utility.yul\":13048:13049   */\n      0x00\n        /* \"#utility.yul\":13041:13129   */\n      mstore\n        /* \"#utility.yul\":13148:13152   */\n      0x11\n        /* \"#utility.yul\":13145:13146   */\n      0x04\n        /* \"#utility.yul\":13138:13153   */\n      mstore\n        /* \"#utility.yul\":13172:13176   */\n      0x24\n        /* \"#utility.yul\":13169:13170   */\n      0x00\n        /* \"#utility.yul\":13162:13177   */\n      revert\n        /* \"#utility.yul\":13189:13369   */\n    tag_386:\n        /* \"#utility.yul\":13237:13314   */\n      0x4e487b7100000000000000000000000000000000000000000000000000000000\n        /* \"#utility.yul\":13234:13235   */\n      0x00\n        /* \"#utility.yul\":13227:13315   */\n      mstore\n        /* \"#utility.yul\":13334:13338   */\n      0x22\n        /* \"#utility.yul\":13331:13332   */\n      0x04\n        /* \"#utility.yul\":13324:13339   */\n      mstore\n        /* \"#utility.yul\":13358:13362   */\n      0x24\n        /* \"#utility.yul\":13355:13356   */\n      0x00\n        /* \"#utility.yul\":13348:13363   */\n      revert\n        /* \"#utility.yul\":13498:13615   */\n    tag_241:\n        /* \"#utility.yul\":13607:13608   */\n      0x00\n        /* \"#utility.yul\":13604:13605   */\n      dup1\n        /* \"#utility.yul\":13597:13609   */\n      revert\n        /* \"#utility.yul\":13621:13723   */\n    tag_280:\n        /* \"#utility.yul\":13662:13668   */\n      0x00\n        /* \"#utility.yul\":13713:13715   */\n      0x1f\n        /* \"#utility.yul\":13709:13716   */\n      not\n        /* \"#utility.yul\":13704:13706   */\n      0x1f\n        /* \"#utility.yul\":13697:13702   */\n      dup4\n        /* \"#utility.yul\":13693:13707   */\n      add\n        /* \"#utility.yul\":13689:13717   */\n      and\n        /* \"#utility.yul\":13679:13717   */\n      swap1\n      pop\n        /* \"#utility.yul\":13621:13723   */\n      swap2\n      swap1\n      pop\n      jump\t// out\n        /* \"#utility.yul\":13729:13953   */\n    tag_285:\n        /* \"#utility.yul\":13869:13903   */\n      0x42455032303a207472616e736665722066726f6d20746865207a65726f206164\n        /* \"#utility.yul\":13865:13866   */\n      0x00\n        /* \"#utility.yul\":13857:13863   */\n      dup3\n        /* \"#utility.yul\":13853:13867   */\n      add\n        /* \"#utility.yul\":13846:13904   */\n      mstore\n        /* \"#utility.yul\":13938:13945   */\n      0x6472657373000000000000000000000000000000000000000000000000000000\n        /* \"#utility.yul\":13933:13935   */\n      0x20\n        /* \"#utility.yul\":13925:13931   */\n      dup3\n        /* \"#utility.yul\":13921:13936   */\n      add\n        /* \"#utility.yul\":13914:13946   */\n      mstore\n        /* \"#utility.yul\":13729:13953   */\n      pop\n      jump\t// out\n        /* \"#utility.yul\":13959:14182   */\n    tag_290:\n        /* \"#utility.yul\":14099:14133   */\n      0x42455032303a20617070726f76652066726f6d20746865207a65726f20616464\n        /* \"#utility.yul\":14095:14096   */\n      0x00\n        /* \"#utility.yul\":14087:14093   */\n      dup3\n        /* \"#utility.yul\":14083:14097   */\n      add\n        /* \"#utility.yul\":14076:14134   */\n      mstore\n        /* \"#utility.yul\":14168:14174   */\n      0x7265737300000000000000000000000000000000000000000000000000000000\n        /* \"#utility.yul\":14163:14165   */\n      0x20\n        /* \"#utility.yul\":14155:14161   */\n      dup3\n        /* \"#utility.yul\":14151:14166   */\n      add\n        /* \"#utility.yul\":14144:14175   */\n      mstore\n        /* \"#utility.yul\":13959:14182   */\n      pop\n      jump\t// out\n        /* \"#utility.yul\":14188:14413   */\n    tag_295:\n        /* \"#utility.yul\":14328:14362   */\n      0x4f776e61626c653a206e6577206f776e657220697320746865207a65726f2061\n        /* \"#utility.yul\":14324:14325   */\n      0x00\n        /* \"#utility.yul\":14316:14322   */\n      dup3\n        /* \"#utility.yul\":14312:14326   */\n      add\n        /* \"#utility.yul\":14305:14363   */\n      mstore\n        /* \"#utility.yul\":14397:14405   */\n      0x6464726573730000000000000000000000000000000000000000000000000000\n        /* \"#utility.yul\":14392:14394   */\n      0x20\n        /* \"#utility.yul\":14384:14390   */\n      dup3\n        /* \"#utility.yul\":14380:14395   */\n      add\n        /* \"#utility.yul\":14373:14406   */\n      mstore\n        /* \"#utility.yul\":14188:14413   */\n      pop\n      jump\t// out\n        /* \"#utility.yul\":14419:14596   */\n    tag_300:\n        /* \"#utility.yul\":14559:14588   */\n      0x536166654d6174683a206164646974696f6e206f766572666c6f770000000000\n        /* \"#utility.yul\":14555:14556   */\n      0x00\n        /* \"#utility.yul\":14547:14553   */\n      dup3\n        /* \"#utility.yul\":14543:14557   */\n      add\n        /* \"#utility.yul\":14536:14589   */\n      mstore\n        /* \"#utility.yul\":14419:14596   */\n      pop\n      jump\t// out\n        /* \"#utility.yul\":14602:14784   */\n    tag_305:\n        /* \"#utility.yul\":14742:14776   */\n      0x4f776e61626c653a2063616c6c6572206973206e6f7420746865206f776e6572\n        /* \"#utility.yul\":14738:14739   */\n      0x00\n        /* \"#utility.yul\":14730:14736   */\n      dup3\n        /* \"#utility.yul\":14726:14740   */\n      add\n        /* \"#utility.yul\":14719:14777   */\n      mstore\n        /* \"#utility.yul\":14602:14784   */\n      pop\n      jump\t// out\n        /* \"#utility.yul\":14790:15012   */\n    tag_310:\n        /* \"#utility.yul\":14930:14964   */\n      0x42455032303a207472616e7366657220746f20746865207a65726f2061646472\n        /* \"#utility.yul\":14926:14927   */\n      0x00\n        /* \"#utility.yul\":14918:14924   */\n      dup3\n        /* \"#utility.yul\":14914:14928   */\n      add\n        /* \"#utility.yul\":14907:14965   */\n      mstore\n        /* \"#utility.yul\":14999:15004   */\n      0x6573730000000000000000000000000000000000000000000000000000000000\n        /* \"#utility.yul\":14994:14996   */\n      0x20\n        /* \"#utility.yul\":14986:14992   */\n      dup3\n        /* \"#utility.yul\":14982:14997   */\n      add\n        /* \"#utility.yul\":14975:15005   */\n      mstore\n        /* \"#utility.yul\":14790:15012   */\n      pop\n      jump\t// out\n        /* \"#utility.yul\":15018:15238   */\n    tag_315:\n        /* \"#utility.yul\":15158:15192   */\n      0x42455032303a206275726e2066726f6d20746865207a65726f20616464726573\n        /* \"#utility.yul\":15154:15155   */\n      0x00\n        /* \"#utility.yul\":15146:15152   */\n      dup3\n        /* \"#utility.yul\":15142:15156   */\n      add\n        /* \"#utility.yul\":15135:15193   */\n      mstore\n        /* \"#utility.yul\":15227:15230   */\n      0x7300000000000000000000000000000000000000000000000000000000000000\n        /* \"#utility.yul\":15222:15224   */\n      0x20\n        /* \"#utility.yul\":15214:15220   */\n      dup3\n        /* \"#utility.yul\":15210:15225   */\n      add\n        /* \"#utility.yul\":15203:15231   */\n      mstore\n        /* \"#utility.yul\":15018:15238   */\n      pop\n      jump\t// out\n        /* \"#utility.yul\":15244:15465   */\n    tag_320:\n        /* \"#utility.yul\":15384:15418   */\n      0x42455032303a20617070726f766520746f20746865207a65726f206164647265\n        /* \"#utility.yul\":15380:15381   */\n      0x00\n        /* \"#utility.yul\":15372:15378   */\n      dup3\n        /* \"#utility.yul\":15368:15382   */\n      add\n        /* \"#utility.yul\":15361:15419   */\n      mstore\n        /* \"#utility.yul\":15453:15457   */\n      0x7373000000000000000000000000000000000000000000000000000000000000\n        /* \"#utility.yul\":15448:15450   */\n      0x20\n        /* \"#utility.yul\":15440:15446   */\n      dup3\n        /* \"#utility.yul\":15436:15451   */\n      add\n        /* \"#utility.yul\":15429:15458   */\n      mstore\n        /* \"#utility.yul\":15244:15465   */\n      pop\n      jump\t// out\n        /* \"#utility.yul\":15471:15593   */\n    tag_233:\n        /* \"#utility.yul\":15544:15568   */\n      tag_402\n        /* \"#utility.yul\":15562:15567   */\n      dup2\n        /* \"#utility.yul\":15544:15568   */\n      tag_266\n      jump\t// in\n    tag_402:\n        /* \"#utility.yul\":15537:15542   */\n      dup2\n        /* \"#utility.yul\":15534:15569   */\n      eq\n        /* \"#utility.yul\":15524:15587   */\n      tag_403\n      jumpi\n        /* \"#utility.yul\":15583:15584   */\n      0x00\n        /* \"#utility.yul\":15580:15581   */\n      dup1\n        /* \"#utility.yul\":15573:15585   */\n      revert\n        /* \"#utility.yul\":15524:15587   */\n    tag_403:\n        /* \"#utility.yul\":15471:15593   */\n      pop\n      jump\t// out\n        /* \"#utility.yul\":15599:15721   */\n    tag_237:\n        /* \"#utility.yul\":15672:15696   */\n      tag_405\n        /* \"#utility.yul\":15690:15695   */\n      dup2\n        /* \"#utility.yul\":15672:15696   */\n      tag_324\n      jump\t// in\n    tag_405:\n        /* \"#utility.yul\":15665:15670   */\n      dup2\n        /* \"#utility.yul\":15662:15697   */\n      eq\n        /* \"#utility.yul\":15652:15715   */\n      tag_406\n      jumpi\n        /* \"#utility.yul\":15711:15712   */\n      0x00\n        /* \"#utility.yul\":15708:15709   */\n      dup1\n        /* \"#utility.yul\":15701:15713   */\n      revert\n        /* \"#utility.yul\":15652:15715   */\n    tag_406:\n        /* \"#utility.yul\":15599:15721   */\n      pop\n      jump\t// out\n    stop\n    data_4f3506f4ba71c79c3cbd442a3afeb30e9b27af2d84e116a4385b34e267d2287e 42455032303a207472616e7366657220616d6f756e74206578636565647320616c6c6f77616e6365\n    data_a91efd7a65ef5b4ae4d6568d674798b78a5a89184dd296c100513251c22d3e73 42455032303a207472616e7366657220616d6f756e7420657863656564732062616c616e6365\n    data_b7060b3538dcd3ddc8a941c91636a8115a1aa46914747fd9809d543bbb46cd22 42455032303a2064656372656173656420616c6c6f77616e63652062656c6f77207a65726f\n    data_deaa84b30175fd0578812c46240362b7914652a35e6707ad7e1556891e4ae032 42455032303a206275726e20616d6f756e7420657863656564732062616c616e6365\n\n    auxdata: 0xa2646970667358221220ca995854a34426e0ecbe2ad72d2dc0a5bc0bf01cd1a9b185c4e4c6cc171d04b364736f6c63430008070033\n}\n",
				"bytecode": {
					"linkReferences": {},
					"object": "60806040526000600260156101000a81548160ff0219169083151502179055503480156200002c57600080fd5b506040518060400160405280600781526020017f5669634d6f7665000000000000000000000000000000000000000000000000008152506040518060400160405280600381526020017f56494d000000000000000000000000000000000000000000000000000000000081525060128260009080519060200190620000b39291906200040a565b508160019080519060200190620000cc9291906200040a565b5080600260006101000a81548160ff021916908360ff1602179055505050506000620000fd620001eb60201b60201c565b905080600260016101000a81548173ffffffffffffffffffffffffffffffffffffffff021916908373ffffffffffffffffffffffffffffffffffffffff1602179055508073ffffffffffffffffffffffffffffffffffffffff16600073ffffffffffffffffffffffffffffffffffffffff167f8be0079c531659141344cd1fd0a4f28419497f9722a3daafe3b4186f6b6457e060405160405180910390a3506000620001ae620001f360201b60201c565b60ff16600a620001bf919062000643565b6301312d00620001d0919062000780565b9050620001e433826200020a60201b60201c565b50620008de565b600033905090565b6000600260009054906101000a900460ff16905090565b600073ffffffffffffffffffffffffffffffffffffffff168273ffffffffffffffffffffffffffffffffffffffff1614156200027d576040517f08c379a000000000000000000000000000000000000000000000000000000000815260040162000274906200053b565b60405180910390fd5b6200029981600554620003a760201b62000c571790919060201c565b600581905550620002f881600360008573ffffffffffffffffffffffffffffffffffffffff1673ffffffffffffffffffffffffffffffffffffffff16815260200190815260200160002054620003a760201b62000c571790919060201c565b600360008473ffffffffffffffffffffffffffffffffffffffff1673ffffffffffffffffffffffffffffffffffffffff168152602001908152602001600020819055508173ffffffffffffffffffffffffffffffffffffffff16600073ffffffffffffffffffffffffffffffffffffffff167fddf252ad1be2c89b69c2b068fc378daa952ba7f163c4a11628f55a4df523b3ef836040516200039b91906200055d565b60405180910390a35050565b6000808284620003b891906200058b565b90508381101562000400576040517f08c379a0000000000000000000000000000000000000000000000000000000008152600401620003f79062000519565b60405180910390fd5b8091505092915050565b8280546200041890620007eb565b90600052602060002090601f0160209004810192826200043c576000855562000488565b82601f106200045757805160ff191683800117855562000488565b8280016001018555821562000488579182015b82811115620004875782518255916020019190600101906200046a565b5b5090506200049791906200049b565b5090565b5b80821115620004b65760008160009055506001016200049c565b5090565b6000620004c9601b836200057a565b9150620004d6826200088c565b602082019050919050565b6000620004f0601f836200057a565b9150620004fd82620008b5565b602082019050919050565b6200051381620007e1565b82525050565b600060208201905081810360008301526200053481620004ba565b9050919050565b600060208201905081810360008301526200055681620004e1565b9050919050565b600060208201905062000574600083018462000508565b92915050565b600082825260208201905092915050565b60006200059882620007e1565b9150620005a583620007e1565b9250827fffffffffffffffffffffffffffffffffffffffffffffffffffffffffffffffff03821115620005dd57620005dc62000821565b5b828201905092915050565b6000808291508390505b60018511156200063a5780860481111562000612576200061162000821565b5b6001851615620006225780820291505b808102905062000632856200087f565b9450620005f2565b94509492505050565b60006200065082620007e1565b91506200065d83620007e1565b92506200068c7fffffffffffffffffffffffffffffffffffffffffffffffffffffffffffffffff848462000694565b905092915050565b600082620006a6576001905062000779565b81620006b6576000905062000779565b8160018114620006cf5760028114620006da5762000710565b600191505062000779565b60ff841115620006ef57620006ee62000821565b5b8360020a91508482111562000709576200070862000821565b5b5062000779565b5060208310610133831016604e8410600b84101617156200074a5782820a90508381111562000744576200074362000821565b5b62000779565b620007598484846001620005e8565b9250905081840481111562000773576200077262000821565b5b81810290505b9392505050565b60006200078d82620007e1565b91506200079a83620007e1565b9250817fffffffffffffffffffffffffffffffffffffffffffffffffffffffffffffffff0483118215151615620007d657620007d562000821565b5b828202905092915050565b6000819050919050565b600060028204905060018216806200080457607f821691505b602082108114156200081b576200081a62000850565b5b50919050565b7f4e487b7100000000000000000000000000000000000000000000000000000000600052601160045260246000fd5b7f4e487b7100000000000000000000000000000000000000000000000000000000600052602260045260246000fd5b60008160011c9050919050565b7f536166654d6174683a206164646974696f6e206f766572666c6f770000000000600082015250565b7f42455032303a206d696e7420746f20746865207a65726f206164647265737300600082015250565b611e0380620008ee6000396000f3fe608060405234801561001057600080fd5b50600436106101215760003560e01c806370a08231116100ad57806395d89b411161007157806395d89b41146102fc578063a457c2d71461031a578063a9059cbb1461034a578063dd62ed3e1461037a578063f2fde38b146103aa57610121565b806370a0823114610268578063715018a6146102985780638456cb59146102a25780638da5cb5b146102c05780638f32d59b146102de57610121565b8063313ce567116100f4578063313ce567146101c257806339509351146101e05780633f4ba83a1461021057806342966c681461022e5780635c975abb1461024a57610121565b806306fdde0314610126578063095ea7b31461014457806318160ddd1461017457806323b872dd14610192575b600080fd5b61012e6103c6565b60405161013b91906117b2565b60405180910390f35b61015e60048036038101906101599190611582565b610458565b60405161016b9190611797565b60405180910390f35b61017c610490565b60405161018991906118d4565b60405180910390f35b6101ac60048036038101906101a7919061152f565b61049a565b6040516101b99190611797565b60405180910390f35b6101ca61058d565b6040516101d791906118ef565b60405180910390f35b6101fa60048036038101906101f59190611582565b6105a4565b6040516102079190611797565b60405180910390f35b610218610671565b6040516102259190611797565b60405180910390f35b610248600480360381019061024391906115c2565b610721565b005b61025261072e565b60405161025f9190611797565b60405180910390f35b610282600480360381019061027d91906114c2565b610741565b60405161028f91906118d4565b60405180910390f35b6102a061078a565b005b6102aa610892565b6040516102b79190611797565b60405180910390f35b6102c8610943565b6040516102d5919061177c565b60405180910390f35b6102e661096d565b6040516102f39190611797565b60405180910390f35b6103046109cc565b60405161031191906117b2565b60405180910390f35b610334600480360381019061032f9190611582565b610a5e565b6040516103419190611797565b60405180910390f35b610364600480360381019061035f9190611582565b610b45565b6040516103719190611797565b60405180910390f35b610394600480360381019061038f91906114ef565b610b7d565b6040516103a191906118d4565b60405180910390f35b6103c460048036038101906103bf91906114c2565b610c04565b005b6060600080546103d590611a38565b80601f016020809104026020016040519081016040528092919081815260200182805461040190611a38565b801561044e5780601f106104235761010080835404028352916020019161044e565b820191906000526020600020905b81548152906001019060200180831161043157829003601f168201915b5050505050905090565b6000600260159054906101000a900460ff161561047457600080fd5b61048661047f610cb5565b8484610cbd565b6001905092915050565b6000600554905090565b6000600260159054906101000a900460ff16156104b657600080fd5b6104c1848484610e88565b610582846104cd610cb5565b61057d85604051806060016040528060288152602001611d3960289139600460008b73ffffffffffffffffffffffffffffffffffffffff1673ffffffffffffffffffffffffffffffffffffffff1681526020019081526020016000206000610533610cb5565b73ffffffffffffffffffffffffffffffffffffffff1673ffffffffffffffffffffffffffffffffffffffff168152602001908152602001600020546111169092919063ffffffff16565b610cbd565b600190509392505050565b6000600260009054906101000a900460ff16905090565b6000600260159054906101000a900460ff16156105c057600080fd5b6106676105cb610cb5565b8461066285600460006105dc610cb5565b73ffffffffffffffffffffffffffffffffffffffff1673ffffffffffffffffffffffffffffffffffffffff16815260200190815260200160002060008973ffffffffffffffffffffffffffffffffffffffff1673ffffffffffffffffffffffffffffffffffffffff16815260200190815260200160002054610c5790919063ffffffff16565b610cbd565b6001905092915050565b600061067b61096d565b6106ba576040517f08c379a00000000000000000000000000000000000000000000000000000000081526004016106b190611854565b60405180910390fd5b600260159054906101000a900460ff166106d357600080fd5b6000600260156101000a81548160ff0219169083151502179055507f7805862f689e2f13df9f062ff482ad3ad112aca9e0847911ed832e158c525b3360405160405180910390a16001905090565b61072b338261117a565b50565b600260159054906101000a900460ff1681565b6000600360008373ffffffffffffffffffffffffffffffffffffffff1673ffffffffffffffffffffffffffffffffffffffff168152602001908152602001600020549050919050565b61079261096d565b6107d1576040517f08c379a00000000000000000000000000000000000000000000000000000000081526004016107c890611854565b60405180910390fd5b600073ffffffffffffffffffffffffffffffffffffffff16600260019054906101000a900473ffffffffffffffffffffffffffffffffffffffff1673ffffffffffffffffffffffffffffffffffffffff167f8be0079c531659141344cd1fd0a4f28419497f9722a3daafe3b4186f6b6457e060405160405180910390a36000600260016101000a81548173ffffffffffffffffffffffffffffffffffffffff021916908373ffffffffffffffffffffffffffffffffffffffff160217905550565b600061089c61096d565b6108db576040517f08c379a00000000000000000000000000000000000000000000000000000000081526004016108d290611854565b60405180910390fd5b600260159054906101000a900460ff16156108f557600080fd5b6001600260156101000a81548160ff0219169083151502179055507f6985a02210a168e66602d3235cb6db0e70f92b3ba4d376a33c0f3d9434bff62560405160405180910390a16001905090565b6000600260019054906101000a900473ffffffffffffffffffffffffffffffffffffffff16905090565b6000600260019054906101000a900473ffffffffffffffffffffffffffffffffffffffff1673ffffffffffffffffffffffffffffffffffffffff166109b0610cb5565b73ffffffffffffffffffffffffffffffffffffffff1614905090565b6060600180546109db90611a38565b80601f0160208091040260200160405190810160405280929190818152602001828054610a0790611a38565b8015610a545780601f10610a2957610100808354040283529160200191610a54565b820191906000526020600020905b815481529060010190602001808311610a3757829003601f168201915b5050505050905090565b6000600260159054906101000a900460ff1615610a7a57600080fd5b610b3b610a85610cb5565b84610b3685604051806060016040528060258152602001611d876025913960046000610aaf610cb5565b73ffffffffffffffffffffffffffffffffffffffff1673ffffffffffffffffffffffffffffffffffffffff16815260200190815260200160002060008a73ffffffffffffffffffffffffffffffffffffffff1673ffffffffffffffffffffffffffffffffffffffff168152602001908152602001600020546111169092919063ffffffff16565b610cbd565b6001905092915050565b6000600260159054906101000a900460ff1615610b6157600080fd5b610b73610b6c610cb5565b8484610e88565b6001905092915050565b6000600460008473ffffffffffffffffffffffffffffffffffffffff1673ffffffffffffffffffffffffffffffffffffffff16815260200190815260200160002060008373ffffffffffffffffffffffffffffffffffffffff1673ffffffffffffffffffffffffffffffffffffffff16815260200190815260200160002054905092915050565b610c0c61096d565b610c4b576040517f08c379a0000000000000000000000000000000000000000000000000000000008152600401610c4290611854565b60405180910390fd5b610c548161131e565b50565b6000808284610c669190611926565b905083811015610cab576040517f08c379a0000000000000000000000000000000000000000000000000000000008152600401610ca290611834565b60405180910390fd5b8091505092915050565b600033905090565b600073ffffffffffffffffffffffffffffffffffffffff168373ffffffffffffffffffffffffffffffffffffffff161415610d2d576040517f08c379a0000000000000000000000000000000000000000000000000000000008152600401610d24906117f4565b60405180910390fd5b600073ffffffffffffffffffffffffffffffffffffffff168273ffffffffffffffffffffffffffffffffffffffff161415610d9d576040517f08c379a0000000000000000000000000000000000000000000000000000000008152600401610d94906118b4565b60405180910390fd5b80600460008573ffffffffffffffffffffffffffffffffffffffff1673ffffffffffffffffffffffffffffffffffffffff16815260200190815260200160002060008473ffffffffffffffffffffffffffffffffffffffff1673ffffffffffffffffffffffffffffffffffffffff168152602001908152602001600020819055508173ffffffffffffffffffffffffffffffffffffffff168373ffffffffffffffffffffffffffffffffffffffff167f8c5be1e5ebec7d5bd14f71427d1e84f3dd0314c0f7b2291e5b200ac8c7c3b92583604051610e7b91906118d4565b60405180910390a3505050565b600073ffffffffffffffffffffffffffffffffffffffff168373ffffffffffffffffffffffffffffffffffffffff161415610ef8576040517f08c379a0000000000000000000000000000000000000000000000000000000008152600401610eef906117d4565b60405180910390fd5b600073ffffffffffffffffffffffffffffffffffffffff168273ffffffffffffffffffffffffffffffffffffffff161415610f68576040517f08c379a0000000000000000000000000000000000000000000000000000000008152600401610f5f90611874565b60405180910390fd5b610fd481604051806060016040528060268152602001611d6160269139600360008773ffffffffffffffffffffffffffffffffffffffff1673ffffffffffffffffffffffffffffffffffffffff168152602001908152602001600020546111169092919063ffffffff16565b600360008573ffffffffffffffffffffffffffffffffffffffff1673ffffffffffffffffffffffffffffffffffffffff1681526020019081526020016000208190555061106981600360008573ffffffffffffffffffffffffffffffffffffffff1673ffffffffffffffffffffffffffffffffffffffff16815260200190815260200160002054610c5790919063ffffffff16565b600360008473ffffffffffffffffffffffffffffffffffffffff1673ffffffffffffffffffffffffffffffffffffffff168152602001908152602001600020819055508173ffffffffffffffffffffffffffffffffffffffff168373ffffffffffffffffffffffffffffffffffffffff167fddf252ad1be2c89b69c2b068fc378daa952ba7f163c4a11628f55a4df523b3ef8360405161110991906118d4565b60405180910390a3505050565b600083831115829061115e576040517f08c379a000000000000000000000000000000000000000000000000000000000815260040161115591906117b2565b60405180910390fd5b506000838561116d919061197c565b9050809150509392505050565b600073ffffffffffffffffffffffffffffffffffffffff168273ffffffffffffffffffffffffffffffffffffffff1614156111ea576040517f08c379a00000000000000000000000000000000000000000000000000000000081526004016111e190611894565b60405180910390fd5b61125681604051806060016040528060228152602001611dac60229139600360008673ffffffffffffffffffffffffffffffffffffffff1673ffffffffffffffffffffffffffffffffffffffff168152602001908152602001600020546111169092919063ffffffff16565b600360008473ffffffffffffffffffffffffffffffffffffffff1673ffffffffffffffffffffffffffffffffffffffff168152602001908152602001600020819055506112ae8160055461144e90919063ffffffff16565b600581905550600073ffffffffffffffffffffffffffffffffffffffff168273ffffffffffffffffffffffffffffffffffffffff167fddf252ad1be2c89b69c2b068fc378daa952ba7f163c4a11628f55a4df523b3ef8360405161131291906118d4565b60405180910390a35050565b600073ffffffffffffffffffffffffffffffffffffffff168173ffffffffffffffffffffffffffffffffffffffff16141561138e576040517f08c379a000000000000000000000000000000000000000000000000000000000815260040161138590611814565b60405180910390fd5b8073ffffffffffffffffffffffffffffffffffffffff16600260019054906101000a900473ffffffffffffffffffffffffffffffffffffffff1673ffffffffffffffffffffffffffffffffffffffff167f8be0079c531659141344cd1fd0a4f28419497f9722a3daafe3b4186f6b6457e060405160405180910390a380600260016101000a81548173ffffffffffffffffffffffffffffffffffffffff021916908373ffffffffffffffffffffffffffffffffffffffff16021790555050565b600061149083836040518060400160405280601e81526020017f536166654d6174683a207375627472616374696f6e206f766572666c6f770000815250611116565b905092915050565b6000813590506114a781611d0a565b92915050565b6000813590506114bc81611d21565b92915050565b6000602082840312156114d8576114d7611ac8565b5b60006114e684828501611498565b91505092915050565b6000806040838503121561150657611505611ac8565b5b600061151485828601611498565b925050602061152585828601611498565b9150509250929050565b60008060006060848603121561154857611547611ac8565b5b600061155686828701611498565b935050602061156786828701611498565b9250506040611578868287016114ad565b9150509250925092565b6000806040838503121561159957611598611ac8565b5b60006115a785828601611498565b92505060206115b8858286016114ad565b9150509250929050565b6000602082840312156115d8576115d7611ac8565b5b60006115e6848285016114ad565b91505092915050565b6115f8816119b0565b82525050565b611607816119c2565b82525050565b60006116188261190a565b6116228185611915565b9350611632818560208601611a05565b61163b81611acd565b840191505092915050565b6000611653602583611915565b915061165e82611ade565b604082019050919050565b6000611676602483611915565b915061168182611b2d565b604082019050919050565b6000611699602683611915565b91506116a482611b7c565b604082019050919050565b60006116bc601b83611915565b91506116c782611bcb565b602082019050919050565b60006116df602083611915565b91506116ea82611bf4565b602082019050919050565b6000611702602383611915565b915061170d82611c1d565b604082019050919050565b6000611725602183611915565b915061173082611c6c565b604082019050919050565b6000611748602283611915565b915061175382611cbb565b604082019050919050565b611767816119ee565b82525050565b611776816119f8565b82525050565b600060208201905061179160008301846115ef565b92915050565b60006020820190506117ac60008301846115fe565b92915050565b600060208201905081810360008301526117cc818461160d565b905092915050565b600060208201905081810360008301526117ed81611646565b9050919050565b6000602082019050818103600083015261180d81611669565b9050919050565b6000602082019050818103600083015261182d8161168c565b9050919050565b6000602082019050818103600083015261184d816116af565b9050919050565b6000602082019050818103600083015261186d816116d2565b9050919050565b6000602082019050818103600083015261188d816116f5565b9050919050565b600060208201905081810360008301526118ad81611718565b9050919050565b600060208201905081810360008301526118cd8161173b565b9050919050565b60006020820190506118e9600083018461175e565b92915050565b6000602082019050611904600083018461176d565b92915050565b600081519050919050565b600082825260208201905092915050565b6000611931826119ee565b915061193c836119ee565b9250827fffffffffffffffffffffffffffffffffffffffffffffffffffffffffffffffff0382111561197157611970611a6a565b5b828201905092915050565b6000611987826119ee565b9150611992836119ee565b9250828210156119a5576119a4611a6a565b5b828203905092915050565b60006119bb826119ce565b9050919050565b60008115159050919050565b600073ffffffffffffffffffffffffffffffffffffffff82169050919050565b6000819050919050565b600060ff82169050919050565b60005b83811015611a23578082015181840152602081019050611a08565b83811115611a32576000848401525b50505050565b60006002820490506001821680611a5057607f821691505b60208210811415611a6457611a63611a99565b5b50919050565b7f4e487b7100000000000000000000000000000000000000000000000000000000600052601160045260246000fd5b7f4e487b7100000000000000000000000000000000000000000000000000000000600052602260045260246000fd5b600080fd5b6000601f19601f8301169050919050565b7f42455032303a207472616e736665722066726f6d20746865207a65726f20616460008201527f6472657373000000000000000000000000000000000000000000000000000000602082015250565b7f42455032303a20617070726f76652066726f6d20746865207a65726f2061646460008201527f7265737300000000000000000000000000000000000000000000000000000000602082015250565b7f4f776e61626c653a206e6577206f776e657220697320746865207a65726f206160008201527f6464726573730000000000000000000000000000000000000000000000000000602082015250565b7f536166654d6174683a206164646974696f6e206f766572666c6f770000000000600082015250565b7f4f776e61626c653a2063616c6c6572206973206e6f7420746865206f776e6572600082015250565b7f42455032303a207472616e7366657220746f20746865207a65726f206164647260008201527f6573730000000000000000000000000000000000000000000000000000000000602082015250565b7f42455032303a206275726e2066726f6d20746865207a65726f2061646472657360008201527f7300000000000000000000000000000000000000000000000000000000000000602082015250565b7f42455032303a20617070726f766520746f20746865207a65726f20616464726560008201527f7373000000000000000000000000000000000000000000000000000000000000602082015250565b611d13816119b0565b8114611d1e57600080fd5b50565b611d2a816119ee565b8114611d3557600080fd5b5056fe42455032303a207472616e7366657220616d6f756e74206578636565647320616c6c6f77616e636542455032303a207472616e7366657220616d6f756e7420657863656564732062616c616e636542455032303a2064656372656173656420616c6c6f77616e63652062656c6f77207a65726f42455032303a206275726e20616d6f756e7420657863656564732062616c616e6365a2646970667358221220ca995854a34426e0ecbe2ad72d2dc0a5bc0bf01cd1a9b185c4e4c6cc171d04b364736f6c63430008070033",
					"opcodes": "PUSH1 0x80 PUSH1 0x40 MSTORE PUSH1 0x0 PUSH1 0x2 PUSH1 0x15 PUSH2 0x100 EXP DUP2 SLOAD DUP2 PUSH1 0xFF MUL NOT AND SWAP1 DUP4 ISZERO ISZERO MUL OR SWAP1 SSTORE POP CALLVALUE DUP1 ISZERO PUSH3 0x2C JUMPI PUSH1 0x0 DUP1 REVERT JUMPDEST POP PUSH1 0x40 MLOAD DUP1 PUSH1 0x40 ADD PUSH1 0x40 MSTORE DUP1 PUSH1 0x7 DUP2 MSTORE PUSH1 0x20 ADD PUSH32 0x5669634D6F766500000000000000000000000000000000000000000000000000 DUP2 MSTORE POP PUSH1 0x40 MLOAD DUP1 PUSH1 0x40 ADD PUSH1 0x40 MSTORE DUP1 PUSH1 0x3 DUP2 MSTORE PUSH1 0x20 ADD PUSH32 0x56494D0000000000000000000000000000000000000000000000000000000000 DUP2 MSTORE POP PUSH1 0x12 DUP3 PUSH1 0x0 SWAP1 DUP1 MLOAD SWAP1 PUSH1 0x20 ADD SWAP1 PUSH3 0xB3 SWAP3 SWAP2 SWAP1 PUSH3 0x40A JUMP JUMPDEST POP DUP2 PUSH1 0x1 SWAP1 DUP1 MLOAD SWAP1 PUSH1 0x20 ADD SWAP1 PUSH3 0xCC SWAP3 SWAP2 SWAP1 PUSH3 0x40A JUMP JUMPDEST POP DUP1 PUSH1 0x2 PUSH1 0x0 PUSH2 0x100 EXP DUP2 SLOAD DUP2 PUSH1 0xFF MUL NOT AND SWAP1 DUP4 PUSH1 0xFF AND MUL OR SWAP1 SSTORE POP POP POP POP PUSH1 0x0 PUSH3 0xFD PUSH3 0x1EB PUSH1 0x20 SHL PUSH1 0x20 SHR JUMP JUMPDEST SWAP1 POP DUP1 PUSH1 0x2 PUSH1 0x1 PUSH2 0x100 EXP DUP2 SLOAD DUP2 PUSH20 0xFFFFFFFFFFFFFFFFFFFFFFFFFFFFFFFFFFFFFFFF MUL NOT AND SWAP1 DUP4 PUSH20 0xFFFFFFFFFFFFFFFFFFFFFFFFFFFFFFFFFFFFFFFF AND MUL OR SWAP1 SSTORE POP DUP1 PUSH20 0xFFFFFFFFFFFFFFFFFFFFFFFFFFFFFFFFFFFFFFFF AND PUSH1 0x0 PUSH20 0xFFFFFFFFFFFFFFFFFFFFFFFFFFFFFFFFFFFFFFFF AND PUSH32 0x8BE0079C531659141344CD1FD0A4F28419497F9722A3DAAFE3B4186F6B6457E0 PUSH1 0x40 MLOAD PUSH1 0x40 MLOAD DUP1 SWAP2 SUB SWAP1 LOG3 POP PUSH1 0x0 PUSH3 0x1AE PUSH3 0x1F3 PUSH1 0x20 SHL PUSH1 0x20 SHR JUMP JUMPDEST PUSH1 0xFF AND PUSH1 0xA PUSH3 0x1BF SWAP2 SWAP1 PUSH3 0x643 JUMP JUMPDEST PUSH4 0x1312D00 PUSH3 0x1D0 SWAP2 SWAP1 PUSH3 0x780 JUMP JUMPDEST SWAP1 POP PUSH3 0x1E4 CALLER DUP3 PUSH3 0x20A PUSH1 0x20 SHL PUSH1 0x20 SHR JUMP JUMPDEST POP PUSH3 0x8DE JUMP JUMPDEST PUSH1 0x0 CALLER SWAP1 POP SWAP1 JUMP JUMPDEST PUSH1 0x0 PUSH1 0x2 PUSH1 0x0 SWAP1 SLOAD SWAP1 PUSH2 0x100 EXP SWAP1 DIV PUSH1 0xFF AND SWAP1 POP SWAP1 JUMP JUMPDEST PUSH1 0x0 PUSH20 0xFFFFFFFFFFFFFFFFFFFFFFFFFFFFFFFFFFFFFFFF AND DUP3 PUSH20 0xFFFFFFFFFFFFFFFFFFFFFFFFFFFFFFFFFFFFFFFF AND EQ ISZERO PUSH3 0x27D JUMPI PUSH1 0x40 MLOAD PUSH32 0x8C379A000000000000000000000000000000000000000000000000000000000 DUP2 MSTORE PUSH1 0x4 ADD PUSH3 0x274 SWAP1 PUSH3 0x53B JUMP JUMPDEST PUSH1 0x40 MLOAD DUP1 SWAP2 SUB SWAP1 REVERT JUMPDEST PUSH3 0x299 DUP2 PUSH1 0x5 SLOAD PUSH3 0x3A7 PUSH1 0x20 SHL PUSH3 0xC57 OR SWAP1 SWAP2 SWAP1 PUSH1 0x20 SHR JUMP JUMPDEST PUSH1 0x5 DUP2 SWAP1 SSTORE POP PUSH3 0x2F8 DUP2 PUSH1 0x3 PUSH1 0x0 DUP6 PUSH20 0xFFFFFFFFFFFFFFFFFFFFFFFFFFFFFFFFFFFFFFFF AND PUSH20 0xFFFFFFFFFFFFFFFFFFFFFFFFFFFFFFFFFFFFFFFF AND DUP2 MSTORE PUSH1 0x20 ADD SWAP1 DUP2 MSTORE PUSH1 0x20 ADD PUSH1 0x0 KECCAK256 SLOAD PUSH3 0x3A7 PUSH1 0x20 SHL PUSH3 0xC57 OR SWAP1 SWAP2 SWAP1 PUSH1 0x20 SHR JUMP JUMPDEST PUSH1 0x3 PUSH1 0x0 DUP5 PUSH20 0xFFFFFFFFFFFFFFFFFFFFFFFFFFFFFFFFFFFFFFFF AND PUSH20 0xFFFFFFFFFFFFFFFFFFFFFFFFFFFFFFFFFFFFFFFF AND DUP2 MSTORE PUSH1 0x20 ADD SWAP1 DUP2 MSTORE PUSH1 0x20 ADD PUSH1 0x0 KECCAK256 DUP2 SWAP1 SSTORE POP DUP2 PUSH20 0xFFFFFFFFFFFFFFFFFFFFFFFFFFFFFFFFFFFFFFFF AND PUSH1 0x0 PUSH20 0xFFFFFFFFFFFFFFFFFFFFFFFFFFFFFFFFFFFFFFFF AND PUSH32 0xDDF252AD1BE2C89B69C2B068FC378DAA952BA7F163C4A11628F55A4DF523B3EF DUP4 PUSH1 0x40 MLOAD PUSH3 0x39B SWAP2 SWAP1 PUSH3 0x55D JUMP JUMPDEST PUSH1 0x40 MLOAD DUP1 SWAP2 SUB SWAP1 LOG3 POP POP JUMP JUMPDEST PUSH1 0x0 DUP1 DUP3 DUP5 PUSH3 0x3B8 SWAP2 SWAP1 PUSH3 0x58B JUMP JUMPDEST SWAP1 POP DUP4 DUP2 LT ISZERO PUSH3 0x400 JUMPI PUSH1 0x40 MLOAD PUSH32 0x8C379A000000000000000000000000000000000000000000000000000000000 DUP2 MSTORE PUSH1 0x4 ADD PUSH3 0x3F7 SWAP1 PUSH3 0x519 JUMP JUMPDEST PUSH1 0x40 MLOAD DUP1 SWAP2 SUB SWAP1 REVERT JUMPDEST DUP1 SWAP2 POP POP SWAP3 SWAP2 POP POP JUMP JUMPDEST DUP3 DUP1 SLOAD PUSH3 0x418 SWAP1 PUSH3 0x7EB JUMP JUMPDEST SWAP1 PUSH1 0x0 MSTORE PUSH1 0x20 PUSH1 0x0 KECCAK256 SWAP1 PUSH1 0x1F ADD PUSH1 0x20 SWAP1 DIV DUP2 ADD SWAP3 DUP3 PUSH3 0x43C JUMPI PUSH1 0x0 DUP6 SSTORE PUSH3 0x488 JUMP JUMPDEST DUP3 PUSH1 0x1F LT PUSH3 0x457 JUMPI DUP1 MLOAD PUSH1 0xFF NOT AND DUP4 DUP1 ADD OR DUP6 SSTORE PUSH3 0x488 JUMP JUMPDEST DUP3 DUP1 ADD PUSH1 0x1 ADD DUP6 SSTORE DUP3 ISZERO PUSH3 0x488 JUMPI SWAP2 DUP3 ADD JUMPDEST DUP3 DUP2 GT ISZERO PUSH3 0x487 JUMPI DUP3 MLOAD DUP3 SSTORE SWAP2 PUSH1 0x20 ADD SWAP2 SWAP1 PUSH1 0x1 ADD SWAP1 PUSH3 0x46A JUMP JUMPDEST JUMPDEST POP SWAP1 POP PUSH3 0x497 SWAP2 SWAP1 PUSH3 0x49B JUMP JUMPDEST POP SWAP1 JUMP JUMPDEST JUMPDEST DUP1 DUP3 GT ISZERO PUSH3 0x4B6 JUMPI PUSH1 0x0 DUP2 PUSH1 0x0 SWAP1 SSTORE POP PUSH1 0x1 ADD PUSH3 0x49C JUMP JUMPDEST POP SWAP1 JUMP JUMPDEST PUSH1 0x0 PUSH3 0x4C9 PUSH1 0x1B DUP4 PUSH3 0x57A JUMP JUMPDEST SWAP2 POP PUSH3 0x4D6 DUP3 PUSH3 0x88C JUMP JUMPDEST PUSH1 0x20 DUP3 ADD SWAP1 POP SWAP2 SWAP1 POP JUMP JUMPDEST PUSH1 0x0 PUSH3 0x4F0 PUSH1 0x1F DUP4 PUSH3 0x57A JUMP JUMPDEST SWAP2 POP PUSH3 0x4FD DUP3 PUSH3 0x8B5 JUMP JUMPDEST PUSH1 0x20 DUP3 ADD SWAP1 POP SWAP2 SWAP1 POP JUMP JUMPDEST PUSH3 0x513 DUP2 PUSH3 0x7E1 JUMP JUMPDEST DUP3 MSTORE POP POP JUMP JUMPDEST PUSH1 0x0 PUSH1 0x20 DUP3 ADD SWAP1 POP DUP2 DUP2 SUB PUSH1 0x0 DUP4 ADD MSTORE PUSH3 0x534 DUP2 PUSH3 0x4BA JUMP JUMPDEST SWAP1 POP SWAP2 SWAP1 POP JUMP JUMPDEST PUSH1 0x0 PUSH1 0x20 DUP3 ADD SWAP1 POP DUP2 DUP2 SUB PUSH1 0x0 DUP4 ADD MSTORE PUSH3 0x556 DUP2 PUSH3 0x4E1 JUMP JUMPDEST SWAP1 POP SWAP2 SWAP1 POP JUMP JUMPDEST PUSH1 0x0 PUSH1 0x20 DUP3 ADD SWAP1 POP PUSH3 0x574 PUSH1 0x0 DUP4 ADD DUP5 PUSH3 0x508 JUMP JUMPDEST SWAP3 SWAP2 POP POP JUMP JUMPDEST PUSH1 0x0 DUP3 DUP3 MSTORE PUSH1 0x20 DUP3 ADD SWAP1 POP SWAP3 SWAP2 POP POP JUMP JUMPDEST PUSH1 0x0 PUSH3 0x598 DUP3 PUSH3 0x7E1 JUMP JUMPDEST SWAP2 POP PUSH3 0x5A5 DUP4 PUSH3 0x7E1 JUMP JUMPDEST SWAP3 POP DUP3 PUSH32 0xFFFFFFFFFFFFFFFFFFFFFFFFFFFFFFFFFFFFFFFFFFFFFFFFFFFFFFFFFFFFFFFF SUB DUP3 GT ISZERO PUSH3 0x5DD JUMPI PUSH3 0x5DC PUSH3 0x821 JUMP JUMPDEST JUMPDEST DUP3 DUP3 ADD SWAP1 POP SWAP3 SWAP2 POP POP JUMP JUMPDEST PUSH1 0x0 DUP1 DUP3 SWAP2 POP DUP4 SWAP1 POP JUMPDEST PUSH1 0x1 DUP6 GT ISZERO PUSH3 0x63A JUMPI DUP1 DUP7 DIV DUP2 GT ISZERO PUSH3 0x612 JUMPI PUSH3 0x611 PUSH3 0x821 JUMP JUMPDEST JUMPDEST PUSH1 0x1 DUP6 AND ISZERO PUSH3 0x622 JUMPI DUP1 DUP3 MUL SWAP2 POP JUMPDEST DUP1 DUP2 MUL SWAP1 POP PUSH3 0x632 DUP6 PUSH3 0x87F JUMP JUMPDEST SWAP5 POP PUSH3 0x5F2 JUMP JUMPDEST SWAP5 POP SWAP5 SWAP3 POP POP POP JUMP JUMPDEST PUSH1 0x0 PUSH3 0x650 DUP3 PUSH3 0x7E1 JUMP JUMPDEST SWAP2 POP PUSH3 0x65D DUP4 PUSH3 0x7E1 JUMP JUMPDEST SWAP3 POP PUSH3 0x68C PUSH32 0xFFFFFFFFFFFFFFFFFFFFFFFFFFFFFFFFFFFFFFFFFFFFFFFFFFFFFFFFFFFFFFFF DUP5 DUP5 PUSH3 0x694 JUMP JUMPDEST SWAP1 POP SWAP3 SWAP2 POP POP JUMP JUMPDEST PUSH1 0x0 DUP3 PUSH3 0x6A6 JUMPI PUSH1 0x1 SWAP1 POP PUSH3 0x779 JUMP JUMPDEST DUP2 PUSH3 0x6B6 JUMPI PUSH1 0x0 SWAP1 POP PUSH3 0x779 JUMP JUMPDEST DUP2 PUSH1 0x1 DUP2 EQ PUSH3 0x6CF JUMPI PUSH1 0x2 DUP2 EQ PUSH3 0x6DA JUMPI PUSH3 0x710 JUMP JUMPDEST PUSH1 0x1 SWAP2 POP POP PUSH3 0x779 JUMP JUMPDEST PUSH1 0xFF DUP5 GT ISZERO PUSH3 0x6EF JUMPI PUSH3 0x6EE PUSH3 0x821 JUMP JUMPDEST JUMPDEST DUP4 PUSH1 0x2 EXP SWAP2 POP DUP5 DUP3 GT ISZERO PUSH3 0x709 JUMPI PUSH3 0x708 PUSH3 0x821 JUMP JUMPDEST JUMPDEST POP PUSH3 0x779 JUMP JUMPDEST POP PUSH1 0x20 DUP4 LT PUSH2 0x133 DUP4 LT AND PUSH1 0x4E DUP5 LT PUSH1 0xB DUP5 LT AND OR ISZERO PUSH3 0x74A JUMPI DUP3 DUP3 EXP SWAP1 POP DUP4 DUP2 GT ISZERO PUSH3 0x744 JUMPI PUSH3 0x743 PUSH3 0x821 JUMP JUMPDEST JUMPDEST PUSH3 0x779 JUMP JUMPDEST PUSH3 0x759 DUP5 DUP5 DUP5 PUSH1 0x1 PUSH3 0x5E8 JUMP JUMPDEST SWAP3 POP SWAP1 POP DUP2 DUP5 DIV DUP2 GT ISZERO PUSH3 0x773 JUMPI PUSH3 0x772 PUSH3 0x821 JUMP JUMPDEST JUMPDEST DUP2 DUP2 MUL SWAP1 POP JUMPDEST SWAP4 SWAP3 POP POP POP JUMP JUMPDEST PUSH1 0x0 PUSH3 0x78D DUP3 PUSH3 0x7E1 JUMP JUMPDEST SWAP2 POP PUSH3 0x79A DUP4 PUSH3 0x7E1 JUMP JUMPDEST SWAP3 POP DUP2 PUSH32 0xFFFFFFFFFFFFFFFFFFFFFFFFFFFFFFFFFFFFFFFFFFFFFFFFFFFFFFFFFFFFFFFF DIV DUP4 GT DUP3 ISZERO ISZERO AND ISZERO PUSH3 0x7D6 JUMPI PUSH3 0x7D5 PUSH3 0x821 JUMP JUMPDEST JUMPDEST DUP3 DUP3 MUL SWAP1 POP SWAP3 SWAP2 POP POP JUMP JUMPDEST PUSH1 0x0 DUP2 SWAP1 POP SWAP2 SWAP1 POP JUMP JUMPDEST PUSH1 0x0 PUSH1 0x2 DUP3 DIV SWAP1 POP PUSH1 0x1 DUP3 AND DUP1 PUSH3 0x804 JUMPI PUSH1 0x7F DUP3 AND SWAP2 POP JUMPDEST PUSH1 0x20 DUP3 LT DUP2 EQ ISZERO PUSH3 0x81B JUMPI PUSH3 0x81A PUSH3 0x850 JUMP JUMPDEST JUMPDEST POP SWAP2 SWAP1 POP JUMP JUMPDEST PUSH32 0x4E487B7100000000000000000000000000000000000000000000000000000000 PUSH1 0x0 MSTORE PUSH1 0x11 PUSH1 0x4 MSTORE PUSH1 0x24 PUSH1 0x0 REVERT JUMPDEST PUSH32 0x4E487B7100000000000000000000000000000000000000000000000000000000 PUSH1 0x0 MSTORE PUSH1 0x22 PUSH1 0x4 MSTORE PUSH1 0x24 PUSH1 0x0 REVERT JUMPDEST PUSH1 0x0 DUP2 PUSH1 0x1 SHR SWAP1 POP SWAP2 SWAP1 POP JUMP JUMPDEST PUSH32 0x536166654D6174683A206164646974696F6E206F766572666C6F770000000000 PUSH1 0x0 DUP3 ADD MSTORE POP JUMP JUMPDEST PUSH32 0x42455032303A206D696E7420746F20746865207A65726F206164647265737300 PUSH1 0x0 DUP3 ADD MSTORE POP JUMP JUMPDEST PUSH2 0x1E03 DUP1 PUSH3 0x8EE PUSH1 0x0 CODECOPY PUSH1 0x0 RETURN INVALID PUSH1 0x80 PUSH1 0x40 MSTORE CALLVALUE DUP1 ISZERO PUSH2 0x10 JUMPI PUSH1 0x0 DUP1 REVERT JUMPDEST POP PUSH1 0x4 CALLDATASIZE LT PUSH2 0x121 JUMPI PUSH1 0x0 CALLDATALOAD PUSH1 0xE0 SHR DUP1 PUSH4 0x70A08231 GT PUSH2 0xAD JUMPI DUP1 PUSH4 0x95D89B41 GT PUSH2 0x71 JUMPI DUP1 PUSH4 0x95D89B41 EQ PUSH2 0x2FC JUMPI DUP1 PUSH4 0xA457C2D7 EQ PUSH2 0x31A JUMPI DUP1 PUSH4 0xA9059CBB EQ PUSH2 0x34A JUMPI DUP1 PUSH4 0xDD62ED3E EQ PUSH2 0x37A JUMPI DUP1 PUSH4 0xF2FDE38B EQ PUSH2 0x3AA JUMPI PUSH2 0x121 JUMP JUMPDEST DUP1 PUSH4 0x70A08231 EQ PUSH2 0x268 JUMPI DUP1 PUSH4 0x715018A6 EQ PUSH2 0x298 JUMPI DUP1 PUSH4 0x8456CB59 EQ PUSH2 0x2A2 JUMPI DUP1 PUSH4 0x8DA5CB5B EQ PUSH2 0x2C0 JUMPI DUP1 PUSH4 0x8F32D59B EQ PUSH2 0x2DE JUMPI PUSH2 0x121 JUMP JUMPDEST DUP1 PUSH4 0x313CE567 GT PUSH2 0xF4 JUMPI DUP1 PUSH4 0x313CE567 EQ PUSH2 0x1C2 JUMPI DUP1 PUSH4 0x39509351 EQ PUSH2 0x1E0 JUMPI DUP1 PUSH4 0x3F4BA83A EQ PUSH2 0x210 JUMPI DUP1 PUSH4 0x42966C68 EQ PUSH2 0x22E JUMPI DUP1 PUSH4 0x5C975ABB EQ PUSH2 0x24A JUMPI PUSH2 0x121 JUMP JUMPDEST DUP1 PUSH4 0x6FDDE03 EQ PUSH2 0x126 JUMPI DUP1 PUSH4 0x95EA7B3 EQ PUSH2 0x144 JUMPI DUP1 PUSH4 0x18160DDD EQ PUSH2 0x174 JUMPI DUP1 PUSH4 0x23B872DD EQ PUSH2 0x192 JUMPI JUMPDEST PUSH1 0x0 DUP1 REVERT JUMPDEST PUSH2 0x12E PUSH2 0x3C6 JUMP JUMPDEST PUSH1 0x40 MLOAD PUSH2 0x13B SWAP2 SWAP1 PUSH2 0x17B2 JUMP JUMPDEST PUSH1 0x40 MLOAD DUP1 SWAP2 SUB SWAP1 RETURN JUMPDEST PUSH2 0x15E PUSH1 0x4 DUP1 CALLDATASIZE SUB DUP2 ADD SWAP1 PUSH2 0x159 SWAP2 SWAP1 PUSH2 0x1582 JUMP JUMPDEST PUSH2 0x458 JUMP JUMPDEST PUSH1 0x40 MLOAD PUSH2 0x16B SWAP2 SWAP1 PUSH2 0x1797 JUMP JUMPDEST PUSH1 0x40 MLOAD DUP1 SWAP2 SUB SWAP1 RETURN JUMPDEST PUSH2 0x17C PUSH2 0x490 JUMP JUMPDEST PUSH1 0x40 MLOAD PUSH2 0x189 SWAP2 SWAP1 PUSH2 0x18D4 JUMP JUMPDEST PUSH1 0x40 MLOAD DUP1 SWAP2 SUB SWAP1 RETURN JUMPDEST PUSH2 0x1AC PUSH1 0x4 DUP1 CALLDATASIZE SUB DUP2 ADD SWAP1 PUSH2 0x1A7 SWAP2 SWAP1 PUSH2 0x152F JUMP JUMPDEST PUSH2 0x49A JUMP JUMPDEST PUSH1 0x40 MLOAD PUSH2 0x1B9 SWAP2 SWAP1 PUSH2 0x1797 JUMP JUMPDEST PUSH1 0x40 MLOAD DUP1 SWAP2 SUB SWAP1 RETURN JUMPDEST PUSH2 0x1CA PUSH2 0x58D JUMP JUMPDEST PUSH1 0x40 MLOAD PUSH2 0x1D7 SWAP2 SWAP1 PUSH2 0x18EF JUMP JUMPDEST PUSH1 0x40 MLOAD DUP1 SWAP2 SUB SWAP1 RETURN JUMPDEST PUSH2 0x1FA PUSH1 0x4 DUP1 CALLDATASIZE SUB DUP2 ADD SWAP1 PUSH2 0x1F5 SWAP2 SWAP1 PUSH2 0x1582 JUMP JUMPDEST PUSH2 0x5A4 JUMP JUMPDEST PUSH1 0x40 MLOAD PUSH2 0x207 SWAP2 SWAP1 PUSH2 0x1797 JUMP JUMPDEST PUSH1 0x40 MLOAD DUP1 SWAP2 SUB SWAP1 RETURN JUMPDEST PUSH2 0x218 PUSH2 0x671 JUMP JUMPDEST PUSH1 0x40 MLOAD PUSH2 0x225 SWAP2 SWAP1 PUSH2 0x1797 JUMP JUMPDEST PUSH1 0x40 MLOAD DUP1 SWAP2 SUB SWAP1 RETURN JUMPDEST PUSH2 0x248 PUSH1 0x4 DUP1 CALLDATASIZE SUB DUP2 ADD SWAP1 PUSH2 0x243 SWAP2 SWAP1 PUSH2 0x15C2 JUMP JUMPDEST PUSH2 0x721 JUMP JUMPDEST STOP JUMPDEST PUSH2 0x252 PUSH2 0x72E JUMP JUMPDEST PUSH1 0x40 MLOAD PUSH2 0x25F SWAP2 SWAP1 PUSH2 0x1797 JUMP JUMPDEST PUSH1 0x40 MLOAD DUP1 SWAP2 SUB SWAP1 RETURN JUMPDEST PUSH2 0x282 PUSH1 0x4 DUP1 CALLDATASIZE SUB DUP2 ADD SWAP1 PUSH2 0x27D SWAP2 SWAP1 PUSH2 0x14C2 JUMP JUMPDEST PUSH2 0x741 JUMP JUMPDEST PUSH1 0x40 MLOAD PUSH2 0x28F SWAP2 SWAP1 PUSH2 0x18D4 JUMP JUMPDEST PUSH1 0x40 MLOAD DUP1 SWAP2 SUB SWAP1 RETURN JUMPDEST PUSH2 0x2A0 PUSH2 0x78A JUMP JUMPDEST STOP JUMPDEST PUSH2 0x2AA PUSH2 0x892 JUMP JUMPDEST PUSH1 0x40 MLOAD PUSH2 0x2B7 SWAP2 SWAP1 PUSH2 0x1797 JUMP JUMPDEST PUSH1 0x40 MLOAD DUP1 SWAP2 SUB SWAP1 RETURN JUMPDEST PUSH2 0x2C8 PUSH2 0x943 JUMP JUMPDEST PUSH1 0x40 MLOAD PUSH2 0x2D5 SWAP2 SWAP1 PUSH2 0x177C JUMP JUMPDEST PUSH1 0x40 MLOAD DUP1 SWAP2 SUB SWAP1 RETURN JUMPDEST PUSH2 0x2E6 PUSH2 0x96D JUMP JUMPDEST PUSH1 0x40 MLOAD PUSH2 0x2F3 SWAP2 SWAP1 PUSH2 0x1797 JUMP JUMPDEST PUSH1 0x40 MLOAD DUP1 SWAP2 SUB SWAP1 RETURN JUMPDEST PUSH2 0x304 PUSH2 0x9CC JUMP JUMPDEST PUSH1 0x40 MLOAD PUSH2 0x311 SWAP2 SWAP1 PUSH2 0x17B2 JUMP JUMPDEST PUSH1 0x40 MLOAD DUP1 SWAP2 SUB SWAP1 RETURN JUMPDEST PUSH2 0x334 PUSH1 0x4 DUP1 CALLDATASIZE SUB DUP2 ADD SWAP1 PUSH2 0x32F SWAP2 SWAP1 PUSH2 0x1582 JUMP JUMPDEST PUSH2 0xA5E JUMP JUMPDEST PUSH1 0x40 MLOAD PUSH2 0x341 SWAP2 SWAP1 PUSH2 0x1797 JUMP JUMPDEST PUSH1 0x40 MLOAD DUP1 SWAP2 SUB SWAP1 RETURN JUMPDEST PUSH2 0x364 PUSH1 0x4 DUP1 CALLDATASIZE SUB DUP2 ADD SWAP1 PUSH2 0x35F SWAP2 SWAP1 PUSH2 0x1582 JUMP JUMPDEST PUSH2 0xB45 JUMP JUMPDEST PUSH1 0x40 MLOAD PUSH2 0x371 SWAP2 SWAP1 PUSH2 0x1797 JUMP JUMPDEST PUSH1 0x40 MLOAD DUP1 SWAP2 SUB SWAP1 RETURN JUMPDEST PUSH2 0x394 PUSH1 0x4 DUP1 CALLDATASIZE SUB DUP2 ADD SWAP1 PUSH2 0x38F SWAP2 SWAP1 PUSH2 0x14EF JUMP JUMPDEST PUSH2 0xB7D JUMP JUMPDEST PUSH1 0x40 MLOAD PUSH2 0x3A1 SWAP2 SWAP1 PUSH2 0x18D4 JUMP JUMPDEST PUSH1 0x40 MLOAD DUP1 SWAP2 SUB SWAP1 RETURN JUMPDEST PUSH2 0x3C4 PUSH1 0x4 DUP1 CALLDATASIZE SUB DUP2 ADD SWAP1 PUSH2 0x3BF SWAP2 SWAP1 PUSH2 0x14C2 JUMP JUMPDEST PUSH2 0xC04 JUMP JUMPDEST STOP JUMPDEST PUSH1 0x60 PUSH1 0x0 DUP1 SLOAD PUSH2 0x3D5 SWAP1 PUSH2 0x1A38 JUMP JUMPDEST DUP1 PUSH1 0x1F ADD PUSH1 0x20 DUP1 SWAP2 DIV MUL PUSH1 0x20 ADD PUSH1 0x40 MLOAD SWAP1 DUP2 ADD PUSH1 0x40 MSTORE DUP1 SWAP3 SWAP2 SWAP1 DUP2 DUP2 MSTORE PUSH1 0x20 ADD DUP3 DUP1 SLOAD PUSH2 0x401 SWAP1 PUSH2 0x1A38 JUMP JUMPDEST DUP1 ISZERO PUSH2 0x44E JUMPI DUP1 PUSH1 0x1F LT PUSH2 0x423 JUMPI PUSH2 0x100 DUP1 DUP4 SLOAD DIV MUL DUP4 MSTORE SWAP2 PUSH1 0x20 ADD SWAP2 PUSH2 0x44E JUMP JUMPDEST DUP3 ADD SWAP2 SWAP1 PUSH1 0x0 MSTORE PUSH1 0x20 PUSH1 0x0 KECCAK256 SWAP1 JUMPDEST DUP2 SLOAD DUP2 MSTORE SWAP1 PUSH1 0x1 ADD SWAP1 PUSH1 0x20 ADD DUP1 DUP4 GT PUSH2 0x431 JUMPI DUP3 SWAP1 SUB PUSH1 0x1F AND DUP3 ADD SWAP2 JUMPDEST POP POP POP POP POP SWAP1 POP SWAP1 JUMP JUMPDEST PUSH1 0x0 PUSH1 0x2 PUSH1 0x15 SWAP1 SLOAD SWAP1 PUSH2 0x100 EXP SWAP1 DIV PUSH1 0xFF AND ISZERO PUSH2 0x474 JUMPI PUSH1 0x0 DUP1 REVERT JUMPDEST PUSH2 0x486 PUSH2 0x47F PUSH2 0xCB5 JUMP JUMPDEST DUP5 DUP5 PUSH2 0xCBD JUMP JUMPDEST PUSH1 0x1 SWAP1 POP SWAP3 SWAP2 POP POP JUMP JUMPDEST PUSH1 0x0 PUSH1 0x5 SLOAD SWAP1 POP SWAP1 JUMP JUMPDEST PUSH1 0x0 PUSH1 0x2 PUSH1 0x15 SWAP1 SLOAD SWAP1 PUSH2 0x100 EXP SWAP1 DIV PUSH1 0xFF AND ISZERO PUSH2 0x4B6 JUMPI PUSH1 0x0 DUP1 REVERT JUMPDEST PUSH2 0x4C1 DUP5 DUP5 DUP5 PUSH2 0xE88 JUMP JUMPDEST PUSH2 0x582 DUP5 PUSH2 0x4CD PUSH2 0xCB5 JUMP JUMPDEST PUSH2 0x57D DUP6 PUSH1 0x40 MLOAD DUP1 PUSH1 0x60 ADD PUSH1 0x40 MSTORE DUP1 PUSH1 0x28 DUP2 MSTORE PUSH1 0x20 ADD PUSH2 0x1D39 PUSH1 0x28 SWAP2 CODECOPY PUSH1 0x4 PUSH1 0x0 DUP12 PUSH20 0xFFFFFFFFFFFFFFFFFFFFFFFFFFFFFFFFFFFFFFFF AND PUSH20 0xFFFFFFFFFFFFFFFFFFFFFFFFFFFFFFFFFFFFFFFF AND DUP2 MSTORE PUSH1 0x20 ADD SWAP1 DUP2 MSTORE PUSH1 0x20 ADD PUSH1 0x0 KECCAK256 PUSH1 0x0 PUSH2 0x533 PUSH2 0xCB5 JUMP JUMPDEST PUSH20 0xFFFFFFFFFFFFFFFFFFFFFFFFFFFFFFFFFFFFFFFF AND PUSH20 0xFFFFFFFFFFFFFFFFFFFFFFFFFFFFFFFFFFFFFFFF AND DUP2 MSTORE PUSH1 0x20 ADD SWAP1 DUP2 MSTORE PUSH1 0x20 ADD PUSH1 0x0 KECCAK256 SLOAD PUSH2 0x1116 SWAP1 SWAP3 SWAP2 SWAP1 PUSH4 0xFFFFFFFF AND JUMP JUMPDEST PUSH2 0xCBD JUMP JUMPDEST PUSH1 0x1 SWAP1 POP SWAP4 SWAP3 POP POP POP JUMP JUMPDEST PUSH1 0x0 PUSH1 0x2 PUSH1 0x0 SWAP1 SLOAD SWAP1 PUSH2 0x100 EXP SWAP1 DIV PUSH1 0xFF AND SWAP1 POP SWAP1 JUMP JUMPDEST PUSH1 0x0 PUSH1 0x2 PUSH1 0x15 SWAP1 SLOAD SWAP1 PUSH2 0x100 EXP SWAP1 DIV PUSH1 0xFF AND ISZERO PUSH2 0x5C0 JUMPI PUSH1 0x0 DUP1 REVERT JUMPDEST PUSH2 0x667 PUSH2 0x5CB PUSH2 0xCB5 JUMP JUMPDEST DUP5 PUSH2 0x662 DUP6 PUSH1 0x4 PUSH1 0x0 PUSH2 0x5DC PUSH2 0xCB5 JUMP JUMPDEST PUSH20 0xFFFFFFFFFFFFFFFFFFFFFFFFFFFFFFFFFFFFFFFF AND PUSH20 0xFFFFFFFFFFFFFFFFFFFFFFFFFFFFFFFFFFFFFFFF AND DUP2 MSTORE PUSH1 0x20 ADD SWAP1 DUP2 MSTORE PUSH1 0x20 ADD PUSH1 0x0 KECCAK256 PUSH1 0x0 DUP10 PUSH20 0xFFFFFFFFFFFFFFFFFFFFFFFFFFFFFFFFFFFFFFFF AND PUSH20 0xFFFFFFFFFFFFFFFFFFFFFFFFFFFFFFFFFFFFFFFF AND DUP2 MSTORE PUSH1 0x20 ADD SWAP1 DUP2 MSTORE PUSH1 0x20 ADD PUSH1 0x0 KECCAK256 SLOAD PUSH2 0xC57 SWAP1 SWAP2 SWAP1 PUSH4 0xFFFFFFFF AND JUMP JUMPDEST PUSH2 0xCBD JUMP JUMPDEST PUSH1 0x1 SWAP1 POP SWAP3 SWAP2 POP POP JUMP JUMPDEST PUSH1 0x0 PUSH2 0x67B PUSH2 0x96D JUMP JUMPDEST PUSH2 0x6BA JUMPI PUSH1 0x40 MLOAD PUSH32 0x8C379A000000000000000000000000000000000000000000000000000000000 DUP2 MSTORE PUSH1 0x4 ADD PUSH2 0x6B1 SWAP1 PUSH2 0x1854 JUMP JUMPDEST PUSH1 0x40 MLOAD DUP1 SWAP2 SUB SWAP1 REVERT JUMPDEST PUSH1 0x2 PUSH1 0x15 SWAP1 SLOAD SWAP1 PUSH2 0x100 EXP SWAP1 DIV PUSH1 0xFF AND PUSH2 0x6D3 JUMPI PUSH1 0x0 DUP1 REVERT JUMPDEST PUSH1 0x0 PUSH1 0x2 PUSH1 0x15 PUSH2 0x100 EXP DUP2 SLOAD DUP2 PUSH1 0xFF MUL NOT AND SWAP1 DUP4 ISZERO ISZERO MUL OR SWAP1 SSTORE POP PUSH32 0x7805862F689E2F13DF9F062FF482AD3AD112ACA9E0847911ED832E158C525B33 PUSH1 0x40 MLOAD PUSH1 0x40 MLOAD DUP1 SWAP2 SUB SWAP1 LOG1 PUSH1 0x1 SWAP1 POP SWAP1 JUMP JUMPDEST PUSH2 0x72B CALLER DUP3 PUSH2 0x117A JUMP JUMPDEST POP JUMP JUMPDEST PUSH1 0x2 PUSH1 0x15 SWAP1 SLOAD SWAP1 PUSH2 0x100 EXP SWAP1 DIV PUSH1 0xFF AND DUP2 JUMP JUMPDEST PUSH1 0x0 PUSH1 0x3 PUSH1 0x0 DUP4 PUSH20 0xFFFFFFFFFFFFFFFFFFFFFFFFFFFFFFFFFFFFFFFF AND PUSH20 0xFFFFFFFFFFFFFFFFFFFFFFFFFFFFFFFFFFFFFFFF AND DUP2 MSTORE PUSH1 0x20 ADD SWAP1 DUP2 MSTORE PUSH1 0x20 ADD PUSH1 0x0 KECCAK256 SLOAD SWAP1 POP SWAP2 SWAP1 POP JUMP JUMPDEST PUSH2 0x792 PUSH2 0x96D JUMP JUMPDEST PUSH2 0x7D1 JUMPI PUSH1 0x40 MLOAD PUSH32 0x8C379A000000000000000000000000000000000000000000000000000000000 DUP2 MSTORE PUSH1 0x4 ADD PUSH2 0x7C8 SWAP1 PUSH2 0x1854 JUMP JUMPDEST PUSH1 0x40 MLOAD DUP1 SWAP2 SUB SWAP1 REVERT JUMPDEST PUSH1 0x0 PUSH20 0xFFFFFFFFFFFFFFFFFFFFFFFFFFFFFFFFFFFFFFFF AND PUSH1 0x2 PUSH1 0x1 SWAP1 SLOAD SWAP1 PUSH2 0x100 EXP SWAP1 DIV PUSH20 0xFFFFFFFFFFFFFFFFFFFFFFFFFFFFFFFFFFFFFFFF AND PUSH20 0xFFFFFFFFFFFFFFFFFFFFFFFFFFFFFFFFFFFFFFFF AND PUSH32 0x8BE0079C531659141344CD1FD0A4F28419497F9722A3DAAFE3B4186F6B6457E0 PUSH1 0x40 MLOAD PUSH1 0x40 MLOAD DUP1 SWAP2 SUB SWAP1 LOG3 PUSH1 0x0 PUSH1 0x2 PUSH1 0x1 PUSH2 0x100 EXP DUP2 SLOAD DUP2 PUSH20 0xFFFFFFFFFFFFFFFFFFFFFFFFFFFFFFFFFFFFFFFF MUL NOT AND SWAP1 DUP4 PUSH20 0xFFFFFFFFFFFFFFFFFFFFFFFFFFFFFFFFFFFFFFFF AND MUL OR SWAP1 SSTORE POP JUMP JUMPDEST PUSH1 0x0 PUSH2 0x89C PUSH2 0x96D JUMP JUMPDEST PUSH2 0x8DB JUMPI PUSH1 0x40 MLOAD PUSH32 0x8C379A000000000000000000000000000000000000000000000000000000000 DUP2 MSTORE PUSH1 0x4 ADD PUSH2 0x8D2 SWAP1 PUSH2 0x1854 JUMP JUMPDEST PUSH1 0x40 MLOAD DUP1 SWAP2 SUB SWAP1 REVERT JUMPDEST PUSH1 0x2 PUSH1 0x15 SWAP1 SLOAD SWAP1 PUSH2 0x100 EXP SWAP1 DIV PUSH1 0xFF AND ISZERO PUSH2 0x8F5 JUMPI PUSH1 0x0 DUP1 REVERT JUMPDEST PUSH1 0x1 PUSH1 0x2 PUSH1 0x15 PUSH2 0x100 EXP DUP2 SLOAD DUP2 PUSH1 0xFF MUL NOT AND SWAP1 DUP4 ISZERO ISZERO MUL OR SWAP1 SSTORE POP PUSH32 0x6985A02210A168E66602D3235CB6DB0E70F92B3BA4D376A33C0F3D9434BFF625 PUSH1 0x40 MLOAD PUSH1 0x40 MLOAD DUP1 SWAP2 SUB SWAP1 LOG1 PUSH1 0x1 SWAP1 POP SWAP1 JUMP JUMPDEST PUSH1 0x0 PUSH1 0x2 PUSH1 0x1 SWAP1 SLOAD SWAP1 PUSH2 0x100 EXP SWAP1 DIV PUSH20 0xFFFFFFFFFFFFFFFFFFFFFFFFFFFFFFFFFFFFFFFF AND SWAP1 POP SWAP1 JUMP JUMPDEST PUSH1 0x0 PUSH1 0x2 PUSH1 0x1 SWAP1 SLOAD SWAP1 PUSH2 0x100 EXP SWAP1 DIV PUSH20 0xFFFFFFFFFFFFFFFFFFFFFFFFFFFFFFFFFFFFFFFF AND PUSH20 0xFFFFFFFFFFFFFFFFFFFFFFFFFFFFFFFFFFFFFFFF AND PUSH2 0x9B0 PUSH2 0xCB5 JUMP JUMPDEST PUSH20 0xFFFFFFFFFFFFFFFFFFFFFFFFFFFFFFFFFFFFFFFF AND EQ SWAP1 POP SWAP1 JUMP JUMPDEST PUSH1 0x60 PUSH1 0x1 DUP1 SLOAD PUSH2 0x9DB SWAP1 PUSH2 0x1A38 JUMP JUMPDEST DUP1 PUSH1 0x1F ADD PUSH1 0x20 DUP1 SWAP2 DIV MUL PUSH1 0x20 ADD PUSH1 0x40 MLOAD SWAP1 DUP2 ADD PUSH1 0x40 MSTORE DUP1 SWAP3 SWAP2 SWAP1 DUP2 DUP2 MSTORE PUSH1 0x20 ADD DUP3 DUP1 SLOAD PUSH2 0xA07 SWAP1 PUSH2 0x1A38 JUMP JUMPDEST DUP1 ISZERO PUSH2 0xA54 JUMPI DUP1 PUSH1 0x1F LT PUSH2 0xA29 JUMPI PUSH2 0x100 DUP1 DUP4 SLOAD DIV MUL DUP4 MSTORE SWAP2 PUSH1 0x20 ADD SWAP2 PUSH2 0xA54 JUMP JUMPDEST DUP3 ADD SWAP2 SWAP1 PUSH1 0x0 MSTORE PUSH1 0x20 PUSH1 0x0 KECCAK256 SWAP1 JUMPDEST DUP2 SLOAD DUP2 MSTORE SWAP1 PUSH1 0x1 ADD SWAP1 PUSH1 0x20 ADD DUP1 DUP4 GT PUSH2 0xA37 JUMPI DUP3 SWAP1 SUB PUSH1 0x1F AND DUP3 ADD SWAP2 JUMPDEST POP POP POP POP POP SWAP1 POP SWAP1 JUMP JUMPDEST PUSH1 0x0 PUSH1 0x2 PUSH1 0x15 SWAP1 SLOAD SWAP1 PUSH2 0x100 EXP SWAP1 DIV PUSH1 0xFF AND ISZERO PUSH2 0xA7A JUMPI PUSH1 0x0 DUP1 REVERT JUMPDEST PUSH2 0xB3B PUSH2 0xA85 PUSH2 0xCB5 JUMP JUMPDEST DUP5 PUSH2 0xB36 DUP6 PUSH1 0x40 MLOAD DUP1 PUSH1 0x60 ADD PUSH1 0x40 MSTORE DUP1 PUSH1 0x25 DUP2 MSTORE PUSH1 0x20 ADD PUSH2 0x1D87 PUSH1 0x25 SWAP2 CODECOPY PUSH1 0x4 PUSH1 0x0 PUSH2 0xAAF PUSH2 0xCB5 JUMP JUMPDEST PUSH20 0xFFFFFFFFFFFFFFFFFFFFFFFFFFFFFFFFFFFFFFFF AND PUSH20 0xFFFFFFFFFFFFFFFFFFFFFFFFFFFFFFFFFFFFFFFF AND DUP2 MSTORE PUSH1 0x20 ADD SWAP1 DUP2 MSTORE PUSH1 0x20 ADD PUSH1 0x0 KECCAK256 PUSH1 0x0 DUP11 PUSH20 0xFFFFFFFFFFFFFFFFFFFFFFFFFFFFFFFFFFFFFFFF AND PUSH20 0xFFFFFFFFFFFFFFFFFFFFFFFFFFFFFFFFFFFFFFFF AND DUP2 MSTORE PUSH1 0x20 ADD SWAP1 DUP2 MSTORE PUSH1 0x20 ADD PUSH1 0x0 KECCAK256 SLOAD PUSH2 0x1116 SWAP1 SWAP3 SWAP2 SWAP1 PUSH4 0xFFFFFFFF AND JUMP JUMPDEST PUSH2 0xCBD JUMP JUMPDEST PUSH1 0x1 SWAP1 POP SWAP3 SWAP2 POP POP JUMP JUMPDEST PUSH1 0x0 PUSH1 0x2 PUSH1 0x15 SWAP1 SLOAD SWAP1 PUSH2 0x100 EXP SWAP1 DIV PUSH1 0xFF AND ISZERO PUSH2 0xB61 JUMPI PUSH1 0x0 DUP1 REVERT JUMPDEST PUSH2 0xB73 PUSH2 0xB6C PUSH2 0xCB5 JUMP JUMPDEST DUP5 DUP5 PUSH2 0xE88 JUMP JUMPDEST PUSH1 0x1 SWAP1 POP SWAP3 SWAP2 POP POP JUMP JUMPDEST PUSH1 0x0 PUSH1 0x4 PUSH1 0x0 DUP5 PUSH20 0xFFFFFFFFFFFFFFFFFFFFFFFFFFFFFFFFFFFFFFFF AND PUSH20 0xFFFFFFFFFFFFFFFFFFFFFFFFFFFFFFFFFFFFFFFF AND DUP2 MSTORE PUSH1 0x20 ADD SWAP1 DUP2 MSTORE PUSH1 0x20 ADD PUSH1 0x0 KECCAK256 PUSH1 0x0 DUP4 PUSH20 0xFFFFFFFFFFFFFFFFFFFFFFFFFFFFFFFFFFFFFFFF AND PUSH20 0xFFFFFFFFFFFFFFFFFFFFFFFFFFFFFFFFFFFFFFFF AND DUP2 MSTORE PUSH1 0x20 ADD SWAP1 DUP2 MSTORE PUSH1 0x20 ADD PUSH1 0x0 KECCAK256 SLOAD SWAP1 POP SWAP3 SWAP2 POP POP JUMP JUMPDEST PUSH2 0xC0C PUSH2 0x96D JUMP JUMPDEST PUSH2 0xC4B JUMPI PUSH1 0x40 MLOAD PUSH32 0x8C379A000000000000000000000000000000000000000000000000000000000 DUP2 MSTORE PUSH1 0x4 ADD PUSH2 0xC42 SWAP1 PUSH2 0x1854 JUMP JUMPDEST PUSH1 0x40 MLOAD DUP1 SWAP2 SUB SWAP1 REVERT JUMPDEST PUSH2 0xC54 DUP2 PUSH2 0x131E JUMP JUMPDEST POP JUMP JUMPDEST PUSH1 0x0 DUP1 DUP3 DUP5 PUSH2 0xC66 SWAP2 SWAP1 PUSH2 0x1926 JUMP JUMPDEST SWAP1 POP DUP4 DUP2 LT ISZERO PUSH2 0xCAB JUMPI PUSH1 0x40 MLOAD PUSH32 0x8C379A000000000000000000000000000000000000000000000000000000000 DUP2 MSTORE PUSH1 0x4 ADD PUSH2 0xCA2 SWAP1 PUSH2 0x1834 JUMP JUMPDEST PUSH1 0x40 MLOAD DUP1 SWAP2 SUB SWAP1 REVERT JUMPDEST DUP1 SWAP2 POP POP SWAP3 SWAP2 POP POP JUMP JUMPDEST PUSH1 0x0 CALLER SWAP1 POP SWAP1 JUMP JUMPDEST PUSH1 0x0 PUSH20 0xFFFFFFFFFFFFFFFFFFFFFFFFFFFFFFFFFFFFFFFF AND DUP4 PUSH20 0xFFFFFFFFFFFFFFFFFFFFFFFFFFFFFFFFFFFFFFFF AND EQ ISZERO PUSH2 0xD2D JUMPI PUSH1 0x40 MLOAD PUSH32 0x8C379A000000000000000000000000000000000000000000000000000000000 DUP2 MSTORE PUSH1 0x4 ADD PUSH2 0xD24 SWAP1 PUSH2 0x17F4 JUMP JUMPDEST PUSH1 0x40 MLOAD DUP1 SWAP2 SUB SWAP1 REVERT JUMPDEST PUSH1 0x0 PUSH20 0xFFFFFFFFFFFFFFFFFFFFFFFFFFFFFFFFFFFFFFFF AND DUP3 PUSH20 0xFFFFFFFFFFFFFFFFFFFFFFFFFFFFFFFFFFFFFFFF AND EQ ISZERO PUSH2 0xD9D JUMPI PUSH1 0x40 MLOAD PUSH32 0x8C379A000000000000000000000000000000000000000000000000000000000 DUP2 MSTORE PUSH1 0x4 ADD PUSH2 0xD94 SWAP1 PUSH2 0x18B4 JUMP JUMPDEST PUSH1 0x40 MLOAD DUP1 SWAP2 SUB SWAP1 REVERT JUMPDEST DUP1 PUSH1 0x4 PUSH1 0x0 DUP6 PUSH20 0xFFFFFFFFFFFFFFFFFFFFFFFFFFFFFFFFFFFFFFFF AND PUSH20 0xFFFFFFFFFFFFFFFFFFFFFFFFFFFFFFFFFFFFFFFF AND DUP2 MSTORE PUSH1 0x20 ADD SWAP1 DUP2 MSTORE PUSH1 0x20 ADD PUSH1 0x0 KECCAK256 PUSH1 0x0 DUP5 PUSH20 0xFFFFFFFFFFFFFFFFFFFFFFFFFFFFFFFFFFFFFFFF AND PUSH20 0xFFFFFFFFFFFFFFFFFFFFFFFFFFFFFFFFFFFFFFFF AND DUP2 MSTORE PUSH1 0x20 ADD SWAP1 DUP2 MSTORE PUSH1 0x20 ADD PUSH1 0x0 KECCAK256 DUP2 SWAP1 SSTORE POP DUP2 PUSH20 0xFFFFFFFFFFFFFFFFFFFFFFFFFFFFFFFFFFFFFFFF AND DUP4 PUSH20 0xFFFFFFFFFFFFFFFFFFFFFFFFFFFFFFFFFFFFFFFF AND PUSH32 0x8C5BE1E5EBEC7D5BD14F71427D1E84F3DD0314C0F7B2291E5B200AC8C7C3B925 DUP4 PUSH1 0x40 MLOAD PUSH2 0xE7B SWAP2 SWAP1 PUSH2 0x18D4 JUMP JUMPDEST PUSH1 0x40 MLOAD DUP1 SWAP2 SUB SWAP1 LOG3 POP POP POP JUMP JUMPDEST PUSH1 0x0 PUSH20 0xFFFFFFFFFFFFFFFFFFFFFFFFFFFFFFFFFFFFFFFF AND DUP4 PUSH20 0xFFFFFFFFFFFFFFFFFFFFFFFFFFFFFFFFFFFFFFFF AND EQ ISZERO PUSH2 0xEF8 JUMPI PUSH1 0x40 MLOAD PUSH32 0x8C379A000000000000000000000000000000000000000000000000000000000 DUP2 MSTORE PUSH1 0x4 ADD PUSH2 0xEEF SWAP1 PUSH2 0x17D4 JUMP JUMPDEST PUSH1 0x40 MLOAD DUP1 SWAP2 SUB SWAP1 REVERT JUMPDEST PUSH1 0x0 PUSH20 0xFFFFFFFFFFFFFFFFFFFFFFFFFFFFFFFFFFFFFFFF AND DUP3 PUSH20 0xFFFFFFFFFFFFFFFFFFFFFFFFFFFFFFFFFFFFFFFF AND EQ ISZERO PUSH2 0xF68 JUMPI PUSH1 0x40 MLOAD PUSH32 0x8C379A000000000000000000000000000000000000000000000000000000000 DUP2 MSTORE PUSH1 0x4 ADD PUSH2 0xF5F SWAP1 PUSH2 0x1874 JUMP JUMPDEST PUSH1 0x40 MLOAD DUP1 SWAP2 SUB SWAP1 REVERT JUMPDEST PUSH2 0xFD4 DUP2 PUSH1 0x40 MLOAD DUP1 PUSH1 0x60 ADD PUSH1 0x40 MSTORE DUP1 PUSH1 0x26 DUP2 MSTORE PUSH1 0x20 ADD PUSH2 0x1D61 PUSH1 0x26 SWAP2 CODECOPY PUSH1 0x3 PUSH1 0x0 DUP8 PUSH20 0xFFFFFFFFFFFFFFFFFFFFFFFFFFFFFFFFFFFFFFFF AND PUSH20 0xFFFFFFFFFFFFFFFFFFFFFFFFFFFFFFFFFFFFFFFF AND DUP2 MSTORE PUSH1 0x20 ADD SWAP1 DUP2 MSTORE PUSH1 0x20 ADD PUSH1 0x0 KECCAK256 SLOAD PUSH2 0x1116 SWAP1 SWAP3 SWAP2 SWAP1 PUSH4 0xFFFFFFFF AND JUMP JUMPDEST PUSH1 0x3 PUSH1 0x0 DUP6 PUSH20 0xFFFFFFFFFFFFFFFFFFFFFFFFFFFFFFFFFFFFFFFF AND PUSH20 0xFFFFFFFFFFFFFFFFFFFFFFFFFFFFFFFFFFFFFFFF AND DUP2 MSTORE PUSH1 0x20 ADD SWAP1 DUP2 MSTORE PUSH1 0x20 ADD PUSH1 0x0 KECCAK256 DUP2 SWAP1 SSTORE POP PUSH2 0x1069 DUP2 PUSH1 0x3 PUSH1 0x0 DUP6 PUSH20 0xFFFFFFFFFFFFFFFFFFFFFFFFFFFFFFFFFFFFFFFF AND PUSH20 0xFFFFFFFFFFFFFFFFFFFFFFFFFFFFFFFFFFFFFFFF AND DUP2 MSTORE PUSH1 0x20 ADD SWAP1 DUP2 MSTORE PUSH1 0x20 ADD PUSH1 0x0 KECCAK256 SLOAD PUSH2 0xC57 SWAP1 SWAP2 SWAP1 PUSH4 0xFFFFFFFF AND JUMP JUMPDEST PUSH1 0x3 PUSH1 0x0 DUP5 PUSH20 0xFFFFFFFFFFFFFFFFFFFFFFFFFFFFFFFFFFFFFFFF AND PUSH20 0xFFFFFFFFFFFFFFFFFFFFFFFFFFFFFFFFFFFFFFFF AND DUP2 MSTORE PUSH1 0x20 ADD SWAP1 DUP2 MSTORE PUSH1 0x20 ADD PUSH1 0x0 KECCAK256 DUP2 SWAP1 SSTORE POP DUP2 PUSH20 0xFFFFFFFFFFFFFFFFFFFFFFFFFFFFFFFFFFFFFFFF AND DUP4 PUSH20 0xFFFFFFFFFFFFFFFFFFFFFFFFFFFFFFFFFFFFFFFF AND PUSH32 0xDDF252AD1BE2C89B69C2B068FC378DAA952BA7F163C4A11628F55A4DF523B3EF DUP4 PUSH1 0x40 MLOAD PUSH2 0x1109 SWAP2 SWAP1 PUSH2 0x18D4 JUMP JUMPDEST PUSH1 0x40 MLOAD DUP1 SWAP2 SUB SWAP1 LOG3 POP POP POP JUMP JUMPDEST PUSH1 0x0 DUP4 DUP4 GT ISZERO DUP3 SWAP1 PUSH2 0x115E JUMPI PUSH1 0x40 MLOAD PUSH32 0x8C379A000000000000000000000000000000000000000000000000000000000 DUP2 MSTORE PUSH1 0x4 ADD PUSH2 0x1155 SWAP2 SWAP1 PUSH2 0x17B2 JUMP JUMPDEST PUSH1 0x40 MLOAD DUP1 SWAP2 SUB SWAP1 REVERT JUMPDEST POP PUSH1 0x0 DUP4 DUP6 PUSH2 0x116D SWAP2 SWAP1 PUSH2 0x197C JUMP JUMPDEST SWAP1 POP DUP1 SWAP2 POP POP SWAP4 SWAP3 POP POP POP JUMP JUMPDEST PUSH1 0x0 PUSH20 0xFFFFFFFFFFFFFFFFFFFFFFFFFFFFFFFFFFFFFFFF AND DUP3 PUSH20 0xFFFFFFFFFFFFFFFFFFFFFFFFFFFFFFFFFFFFFFFF AND EQ ISZERO PUSH2 0x11EA JUMPI PUSH1 0x40 MLOAD PUSH32 0x8C379A000000000000000000000000000000000000000000000000000000000 DUP2 MSTORE PUSH1 0x4 ADD PUSH2 0x11E1 SWAP1 PUSH2 0x1894 JUMP JUMPDEST PUSH1 0x40 MLOAD DUP1 SWAP2 SUB SWAP1 REVERT JUMPDEST PUSH2 0x1256 DUP2 PUSH1 0x40 MLOAD DUP1 PUSH1 0x60 ADD PUSH1 0x40 MSTORE DUP1 PUSH1 0x22 DUP2 MSTORE PUSH1 0x20 ADD PUSH2 0x1DAC PUSH1 0x22 SWAP2 CODECOPY PUSH1 0x3 PUSH1 0x0 DUP7 PUSH20 0xFFFFFFFFFFFFFFFFFFFFFFFFFFFFFFFFFFFFFFFF AND PUSH20 0xFFFFFFFFFFFFFFFFFFFFFFFFFFFFFFFFFFFFFFFF AND DUP2 MSTORE PUSH1 0x20 ADD SWAP1 DUP2 MSTORE PUSH1 0x20 ADD PUSH1 0x0 KECCAK256 SLOAD PUSH2 0x1116 SWAP1 SWAP3 SWAP2 SWAP1 PUSH4 0xFFFFFFFF AND JUMP JUMPDEST PUSH1 0x3 PUSH1 0x0 DUP5 PUSH20 0xFFFFFFFFFFFFFFFFFFFFFFFFFFFFFFFFFFFFFFFF AND PUSH20 0xFFFFFFFFFFFFFFFFFFFFFFFFFFFFFFFFFFFFFFFF AND DUP2 MSTORE PUSH1 0x20 ADD SWAP1 DUP2 MSTORE PUSH1 0x20 ADD PUSH1 0x0 KECCAK256 DUP2 SWAP1 SSTORE POP PUSH2 0x12AE DUP2 PUSH1 0x5 SLOAD PUSH2 0x144E SWAP1 SWAP2 SWAP1 PUSH4 0xFFFFFFFF AND JUMP JUMPDEST PUSH1 0x5 DUP2 SWAP1 SSTORE POP PUSH1 0x0 PUSH20 0xFFFFFFFFFFFFFFFFFFFFFFFFFFFFFFFFFFFFFFFF AND DUP3 PUSH20 0xFFFFFFFFFFFFFFFFFFFFFFFFFFFFFFFFFFFFFFFF AND PUSH32 0xDDF252AD1BE2C89B69C2B068FC378DAA952BA7F163C4A11628F55A4DF523B3EF DUP4 PUSH1 0x40 MLOAD PUSH2 0x1312 SWAP2 SWAP1 PUSH2 0x18D4 JUMP JUMPDEST PUSH1 0x40 MLOAD DUP1 SWAP2 SUB SWAP1 LOG3 POP POP JUMP JUMPDEST PUSH1 0x0 PUSH20 0xFFFFFFFFFFFFFFFFFFFFFFFFFFFFFFFFFFFFFFFF AND DUP2 PUSH20 0xFFFFFFFFFFFFFFFFFFFFFFFFFFFFFFFFFFFFFFFF AND EQ ISZERO PUSH2 0x138E JUMPI PUSH1 0x40 MLOAD PUSH32 0x8C379A000000000000000000000000000000000000000000000000000000000 DUP2 MSTORE PUSH1 0x4 ADD PUSH2 0x1385 SWAP1 PUSH2 0x1814 JUMP JUMPDEST PUSH1 0x40 MLOAD DUP1 SWAP2 SUB SWAP1 REVERT JUMPDEST DUP1 PUSH20 0xFFFFFFFFFFFFFFFFFFFFFFFFFFFFFFFFFFFFFFFF AND PUSH1 0x2 PUSH1 0x1 SWAP1 SLOAD SWAP1 PUSH2 0x100 EXP SWAP1 DIV PUSH20 0xFFFFFFFFFFFFFFFFFFFFFFFFFFFFFFFFFFFFFFFF AND PUSH20 0xFFFFFFFFFFFFFFFFFFFFFFFFFFFFFFFFFFFFFFFF AND PUSH32 0x8BE0079C531659141344CD1FD0A4F28419497F9722A3DAAFE3B4186F6B6457E0 PUSH1 0x40 MLOAD PUSH1 0x40 MLOAD DUP1 SWAP2 SUB SWAP1 LOG3 DUP1 PUSH1 0x2 PUSH1 0x1 PUSH2 0x100 EXP DUP2 SLOAD DUP2 PUSH20 0xFFFFFFFFFFFFFFFFFFFFFFFFFFFFFFFFFFFFFFFF MUL NOT AND SWAP1 DUP4 PUSH20 0xFFFFFFFFFFFFFFFFFFFFFFFFFFFFFFFFFFFFFFFF AND MUL OR SWAP1 SSTORE POP POP JUMP JUMPDEST PUSH1 0x0 PUSH2 0x1490 DUP4 DUP4 PUSH1 0x40 MLOAD DUP1 PUSH1 0x40 ADD PUSH1 0x40 MSTORE DUP1 PUSH1 0x1E DUP2 MSTORE PUSH1 0x20 ADD PUSH32 0x536166654D6174683A207375627472616374696F6E206F766572666C6F770000 DUP2 MSTORE POP PUSH2 0x1116 JUMP JUMPDEST SWAP1 POP SWAP3 SWAP2 POP POP JUMP JUMPDEST PUSH1 0x0 DUP2 CALLDATALOAD SWAP1 POP PUSH2 0x14A7 DUP2 PUSH2 0x1D0A JUMP JUMPDEST SWAP3 SWAP2 POP POP JUMP JUMPDEST PUSH1 0x0 DUP2 CALLDATALOAD SWAP1 POP PUSH2 0x14BC DUP2 PUSH2 0x1D21 JUMP JUMPDEST SWAP3 SWAP2 POP POP JUMP JUMPDEST PUSH1 0x0 PUSH1 0x20 DUP3 DUP5 SUB SLT ISZERO PUSH2 0x14D8 JUMPI PUSH2 0x14D7 PUSH2 0x1AC8 JUMP JUMPDEST JUMPDEST PUSH1 0x0 PUSH2 0x14E6 DUP5 DUP3 DUP6 ADD PUSH2 0x1498 JUMP JUMPDEST SWAP2 POP POP SWAP3 SWAP2 POP POP JUMP JUMPDEST PUSH1 0x0 DUP1 PUSH1 0x40 DUP4 DUP6 SUB SLT ISZERO PUSH2 0x1506 JUMPI PUSH2 0x1505 PUSH2 0x1AC8 JUMP JUMPDEST JUMPDEST PUSH1 0x0 PUSH2 0x1514 DUP6 DUP3 DUP7 ADD PUSH2 0x1498 JUMP JUMPDEST SWAP3 POP POP PUSH1 0x20 PUSH2 0x1525 DUP6 DUP3 DUP7 ADD PUSH2 0x1498 JUMP JUMPDEST SWAP2 POP POP SWAP3 POP SWAP3 SWAP1 POP JUMP JUMPDEST PUSH1 0x0 DUP1 PUSH1 0x0 PUSH1 0x60 DUP5 DUP7 SUB SLT ISZERO PUSH2 0x1548 JUMPI PUSH2 0x1547 PUSH2 0x1AC8 JUMP JUMPDEST JUMPDEST PUSH1 0x0 PUSH2 0x1556 DUP7 DUP3 DUP8 ADD PUSH2 0x1498 JUMP JUMPDEST SWAP4 POP POP PUSH1 0x20 PUSH2 0x1567 DUP7 DUP3 DUP8 ADD PUSH2 0x1498 JUMP JUMPDEST SWAP3 POP POP PUSH1 0x40 PUSH2 0x1578 DUP7 DUP3 DUP8 ADD PUSH2 0x14AD JUMP JUMPDEST SWAP2 POP POP SWAP3 POP SWAP3 POP SWAP3 JUMP JUMPDEST PUSH1 0x0 DUP1 PUSH1 0x40 DUP4 DUP6 SUB SLT ISZERO PUSH2 0x1599 JUMPI PUSH2 0x1598 PUSH2 0x1AC8 JUMP JUMPDEST JUMPDEST PUSH1 0x0 PUSH2 0x15A7 DUP6 DUP3 DUP7 ADD PUSH2 0x1498 JUMP JUMPDEST SWAP3 POP POP PUSH1 0x20 PUSH2 0x15B8 DUP6 DUP3 DUP7 ADD PUSH2 0x14AD JUMP JUMPDEST SWAP2 POP POP SWAP3 POP SWAP3 SWAP1 POP JUMP JUMPDEST PUSH1 0x0 PUSH1 0x20 DUP3 DUP5 SUB SLT ISZERO PUSH2 0x15D8 JUMPI PUSH2 0x15D7 PUSH2 0x1AC8 JUMP JUMPDEST JUMPDEST PUSH1 0x0 PUSH2 0x15E6 DUP5 DUP3 DUP6 ADD PUSH2 0x14AD JUMP JUMPDEST SWAP2 POP POP SWAP3 SWAP2 POP POP JUMP JUMPDEST PUSH2 0x15F8 DUP2 PUSH2 0x19B0 JUMP JUMPDEST DUP3 MSTORE POP POP JUMP JUMPDEST PUSH2 0x1607 DUP2 PUSH2 0x19C2 JUMP JUMPDEST DUP3 MSTORE POP POP JUMP JUMPDEST PUSH1 0x0 PUSH2 0x1618 DUP3 PUSH2 0x190A JUMP JUMPDEST PUSH2 0x1622 DUP2 DUP6 PUSH2 0x1915 JUMP JUMPDEST SWAP4 POP PUSH2 0x1632 DUP2 DUP6 PUSH1 0x20 DUP7 ADD PUSH2 0x1A05 JUMP JUMPDEST PUSH2 0x163B DUP2 PUSH2 0x1ACD JUMP JUMPDEST DUP5 ADD SWAP2 POP POP SWAP3 SWAP2 POP POP JUMP JUMPDEST PUSH1 0x0 PUSH2 0x1653 PUSH1 0x25 DUP4 PUSH2 0x1915 JUMP JUMPDEST SWAP2 POP PUSH2 0x165E DUP3 PUSH2 0x1ADE JUMP JUMPDEST PUSH1 0x40 DUP3 ADD SWAP1 POP SWAP2 SWAP1 POP JUMP JUMPDEST PUSH1 0x0 PUSH2 0x1676 PUSH1 0x24 DUP4 PUSH2 0x1915 JUMP JUMPDEST SWAP2 POP PUSH2 0x1681 DUP3 PUSH2 0x1B2D JUMP JUMPDEST PUSH1 0x40 DUP3 ADD SWAP1 POP SWAP2 SWAP1 POP JUMP JUMPDEST PUSH1 0x0 PUSH2 0x1699 PUSH1 0x26 DUP4 PUSH2 0x1915 JUMP JUMPDEST SWAP2 POP PUSH2 0x16A4 DUP3 PUSH2 0x1B7C JUMP JUMPDEST PUSH1 0x40 DUP3 ADD SWAP1 POP SWAP2 SWAP1 POP JUMP JUMPDEST PUSH1 0x0 PUSH2 0x16BC PUSH1 0x1B DUP4 PUSH2 0x1915 JUMP JUMPDEST SWAP2 POP PUSH2 0x16C7 DUP3 PUSH2 0x1BCB JUMP JUMPDEST PUSH1 0x20 DUP3 ADD SWAP1 POP SWAP2 SWAP1 POP JUMP JUMPDEST PUSH1 0x0 PUSH2 0x16DF PUSH1 0x20 DUP4 PUSH2 0x1915 JUMP JUMPDEST SWAP2 POP PUSH2 0x16EA DUP3 PUSH2 0x1BF4 JUMP JUMPDEST PUSH1 0x20 DUP3 ADD SWAP1 POP SWAP2 SWAP1 POP JUMP JUMPDEST PUSH1 0x0 PUSH2 0x1702 PUSH1 0x23 DUP4 PUSH2 0x1915 JUMP JUMPDEST SWAP2 POP PUSH2 0x170D DUP3 PUSH2 0x1C1D JUMP JUMPDEST PUSH1 0x40 DUP3 ADD SWAP1 POP SWAP2 SWAP1 POP JUMP JUMPDEST PUSH1 0x0 PUSH2 0x1725 PUSH1 0x21 DUP4 PUSH2 0x1915 JUMP JUMPDEST SWAP2 POP PUSH2 0x1730 DUP3 PUSH2 0x1C6C JUMP JUMPDEST PUSH1 0x40 DUP3 ADD SWAP1 POP SWAP2 SWAP1 POP JUMP JUMPDEST PUSH1 0x0 PUSH2 0x1748 PUSH1 0x22 DUP4 PUSH2 0x1915 JUMP JUMPDEST SWAP2 POP PUSH2 0x1753 DUP3 PUSH2 0x1CBB JUMP JUMPDEST PUSH1 0x40 DUP3 ADD SWAP1 POP SWAP2 SWAP1 POP JUMP JUMPDEST PUSH2 0x1767 DUP2 PUSH2 0x19EE JUMP JUMPDEST DUP3 MSTORE POP POP JUMP JUMPDEST PUSH2 0x1776 DUP2 PUSH2 0x19F8 JUMP JUMPDEST DUP3 MSTORE POP POP JUMP JUMPDEST PUSH1 0x0 PUSH1 0x20 DUP3 ADD SWAP1 POP PUSH2 0x1791 PUSH1 0x0 DUP4 ADD DUP5 PUSH2 0x15EF JUMP JUMPDEST SWAP3 SWAP2 POP POP JUMP JUMPDEST PUSH1 0x0 PUSH1 0x20 DUP3 ADD SWAP1 POP PUSH2 0x17AC PUSH1 0x0 DUP4 ADD DUP5 PUSH2 0x15FE JUMP JUMPDEST SWAP3 SWAP2 POP POP JUMP JUMPDEST PUSH1 0x0 PUSH1 0x20 DUP3 ADD SWAP1 POP DUP2 DUP2 SUB PUSH1 0x0 DUP4 ADD MSTORE PUSH2 0x17CC DUP2 DUP5 PUSH2 0x160D JUMP JUMPDEST SWAP1 POP SWAP3 SWAP2 POP POP JUMP JUMPDEST PUSH1 0x0 PUSH1 0x20 DUP3 ADD SWAP1 POP DUP2 DUP2 SUB PUSH1 0x0 DUP4 ADD MSTORE PUSH2 0x17ED DUP2 PUSH2 0x1646 JUMP JUMPDEST SWAP1 POP SWAP2 SWAP1 POP JUMP JUMPDEST PUSH1 0x0 PUSH1 0x20 DUP3 ADD SWAP1 POP DUP2 DUP2 SUB PUSH1 0x0 DUP4 ADD MSTORE PUSH2 0x180D DUP2 PUSH2 0x1669 JUMP JUMPDEST SWAP1 POP SWAP2 SWAP1 POP JUMP JUMPDEST PUSH1 0x0 PUSH1 0x20 DUP3 ADD SWAP1 POP DUP2 DUP2 SUB PUSH1 0x0 DUP4 ADD MSTORE PUSH2 0x182D DUP2 PUSH2 0x168C JUMP JUMPDEST SWAP1 POP SWAP2 SWAP1 POP JUMP JUMPDEST PUSH1 0x0 PUSH1 0x20 DUP3 ADD SWAP1 POP DUP2 DUP2 SUB PUSH1 0x0 DUP4 ADD MSTORE PUSH2 0x184D DUP2 PUSH2 0x16AF JUMP JUMPDEST SWAP1 POP SWAP2 SWAP1 POP JUMP JUMPDEST PUSH1 0x0 PUSH1 0x20 DUP3 ADD SWAP1 POP DUP2 DUP2 SUB PUSH1 0x0 DUP4 ADD MSTORE PUSH2 0x186D DUP2 PUSH2 0x16D2 JUMP JUMPDEST SWAP1 POP SWAP2 SWAP1 POP JUMP JUMPDEST PUSH1 0x0 PUSH1 0x20 DUP3 ADD SWAP1 POP DUP2 DUP2 SUB PUSH1 0x0 DUP4 ADD MSTORE PUSH2 0x188D DUP2 PUSH2 0x16F5 JUMP JUMPDEST SWAP1 POP SWAP2 SWAP1 POP JUMP JUMPDEST PUSH1 0x0 PUSH1 0x20 DUP3 ADD SWAP1 POP DUP2 DUP2 SUB PUSH1 0x0 DUP4 ADD MSTORE PUSH2 0x18AD DUP2 PUSH2 0x1718 JUMP JUMPDEST SWAP1 POP SWAP2 SWAP1 POP JUMP JUMPDEST PUSH1 0x0 PUSH1 0x20 DUP3 ADD SWAP1 POP DUP2 DUP2 SUB PUSH1 0x0 DUP4 ADD MSTORE PUSH2 0x18CD DUP2 PUSH2 0x173B JUMP JUMPDEST SWAP1 POP SWAP2 SWAP1 POP JUMP JUMPDEST PUSH1 0x0 PUSH1 0x20 DUP3 ADD SWAP1 POP PUSH2 0x18E9 PUSH1 0x0 DUP4 ADD DUP5 PUSH2 0x175E JUMP JUMPDEST SWAP3 SWAP2 POP POP JUMP JUMPDEST PUSH1 0x0 PUSH1 0x20 DUP3 ADD SWAP1 POP PUSH2 0x1904 PUSH1 0x0 DUP4 ADD DUP5 PUSH2 0x176D JUMP JUMPDEST SWAP3 SWAP2 POP POP JUMP JUMPDEST PUSH1 0x0 DUP2 MLOAD SWAP1 POP SWAP2 SWAP1 POP JUMP JUMPDEST PUSH1 0x0 DUP3 DUP3 MSTORE PUSH1 0x20 DUP3 ADD SWAP1 POP SWAP3 SWAP2 POP POP JUMP JUMPDEST PUSH1 0x0 PUSH2 0x1931 DUP3 PUSH2 0x19EE JUMP JUMPDEST SWAP2 POP PUSH2 0x193C DUP4 PUSH2 0x19EE JUMP JUMPDEST SWAP3 POP DUP3 PUSH32 0xFFFFFFFFFFFFFFFFFFFFFFFFFFFFFFFFFFFFFFFFFFFFFFFFFFFFFFFFFFFFFFFF SUB DUP3 GT ISZERO PUSH2 0x1971 JUMPI PUSH2 0x1970 PUSH2 0x1A6A JUMP JUMPDEST JUMPDEST DUP3 DUP3 ADD SWAP1 POP SWAP3 SWAP2 POP POP JUMP JUMPDEST PUSH1 0x0 PUSH2 0x1987 DUP3 PUSH2 0x19EE JUMP JUMPDEST SWAP2 POP PUSH2 0x1992 DUP4 PUSH2 0x19EE JUMP JUMPDEST SWAP3 POP DUP3 DUP3 LT ISZERO PUSH2 0x19A5 JUMPI PUSH2 0x19A4 PUSH2 0x1A6A JUMP JUMPDEST JUMPDEST DUP3 DUP3 SUB SWAP1 POP SWAP3 SWAP2 POP POP JUMP JUMPDEST PUSH1 0x0 PUSH2 0x19BB DUP3 PUSH2 0x19CE JUMP JUMPDEST SWAP1 POP SWAP2 SWAP1 POP JUMP JUMPDEST PUSH1 0x0 DUP2 ISZERO ISZERO SWAP1 POP SWAP2 SWAP1 POP JUMP JUMPDEST PUSH1 0x0 PUSH20 0xFFFFFFFFFFFFFFFFFFFFFFFFFFFFFFFFFFFFFFFF DUP3 AND SWAP1 POP SWAP2 SWAP1 POP JUMP JUMPDEST PUSH1 0x0 DUP2 SWAP1 POP SWAP2 SWAP1 POP JUMP JUMPDEST PUSH1 0x0 PUSH1 0xFF DUP3 AND SWAP1 POP SWAP2 SWAP1 POP JUMP JUMPDEST PUSH1 0x0 JUMPDEST DUP4 DUP2 LT ISZERO PUSH2 0x1A23 JUMPI DUP1 DUP3 ADD MLOAD DUP2 DUP5 ADD MSTORE PUSH1 0x20 DUP2 ADD SWAP1 POP PUSH2 0x1A08 JUMP JUMPDEST DUP4 DUP2 GT ISZERO PUSH2 0x1A32 JUMPI PUSH1 0x0 DUP5 DUP5 ADD MSTORE JUMPDEST POP POP POP POP JUMP JUMPDEST PUSH1 0x0 PUSH1 0x2 DUP3 DIV SWAP1 POP PUSH1 0x1 DUP3 AND DUP1 PUSH2 0x1A50 JUMPI PUSH1 0x7F DUP3 AND SWAP2 POP JUMPDEST PUSH1 0x20 DUP3 LT DUP2 EQ ISZERO PUSH2 0x1A64 JUMPI PUSH2 0x1A63 PUSH2 0x1A99 JUMP JUMPDEST JUMPDEST POP SWAP2 SWAP1 POP JUMP JUMPDEST PUSH32 0x4E487B7100000000000000000000000000000000000000000000000000000000 PUSH1 0x0 MSTORE PUSH1 0x11 PUSH1 0x4 MSTORE PUSH1 0x24 PUSH1 0x0 REVERT JUMPDEST PUSH32 0x4E487B7100000000000000000000000000000000000000000000000000000000 PUSH1 0x0 MSTORE PUSH1 0x22 PUSH1 0x4 MSTORE PUSH1 0x24 PUSH1 0x0 REVERT JUMPDEST PUSH1 0x0 DUP1 REVERT JUMPDEST PUSH1 0x0 PUSH1 0x1F NOT PUSH1 0x1F DUP4 ADD AND SWAP1 POP SWAP2 SWAP1 POP JUMP JUMPDEST PUSH32 0x42455032303A207472616E736665722066726F6D20746865207A65726F206164 PUSH1 0x0 DUP3 ADD MSTORE PUSH32 0x6472657373000000000000000000000000000000000000000000000000000000 PUSH1 0x20 DUP3 ADD MSTORE POP JUMP JUMPDEST PUSH32 0x42455032303A20617070726F76652066726F6D20746865207A65726F20616464 PUSH1 0x0 DUP3 ADD MSTORE PUSH32 0x7265737300000000000000000000000000000000000000000000000000000000 PUSH1 0x20 DUP3 ADD MSTORE POP JUMP JUMPDEST PUSH32 0x4F776E61626C653A206E6577206F776E657220697320746865207A65726F2061 PUSH1 0x0 DUP3 ADD MSTORE PUSH32 0x6464726573730000000000000000000000000000000000000000000000000000 PUSH1 0x20 DUP3 ADD MSTORE POP JUMP JUMPDEST PUSH32 0x536166654D6174683A206164646974696F6E206F766572666C6F770000000000 PUSH1 0x0 DUP3 ADD MSTORE POP JUMP JUMPDEST PUSH32 0x4F776E61626C653A2063616C6C6572206973206E6F7420746865206F776E6572 PUSH1 0x0 DUP3 ADD MSTORE POP JUMP JUMPDEST PUSH32 0x42455032303A207472616E7366657220746F20746865207A65726F2061646472 PUSH1 0x0 DUP3 ADD MSTORE PUSH32 0x6573730000000000000000000000000000000000000000000000000000000000 PUSH1 0x20 DUP3 ADD MSTORE POP JUMP JUMPDEST PUSH32 0x42455032303A206275726E2066726F6D20746865207A65726F20616464726573 PUSH1 0x0 DUP3 ADD MSTORE PUSH32 0x7300000000000000000000000000000000000000000000000000000000000000 PUSH1 0x20 DUP3 ADD MSTORE POP JUMP JUMPDEST PUSH32 0x42455032303A20617070726F766520746F20746865207A65726F206164647265 PUSH1 0x0 DUP3 ADD MSTORE PUSH32 0x7373000000000000000000000000000000000000000000000000000000000000 PUSH1 0x20 DUP3 ADD MSTORE POP JUMP JUMPDEST PUSH2 0x1D13 DUP2 PUSH2 0x19B0 JUMP JUMPDEST DUP2 EQ PUSH2 0x1D1E JUMPI PUSH1 0x0 DUP1 REVERT JUMPDEST POP JUMP JUMPDEST PUSH2 0x1D2A DUP2 PUSH2 0x19EE JUMP JUMPDEST DUP2 EQ PUSH2 0x1D35 JUMPI PUSH1 0x0 DUP1 REVERT JUMPDEST POP JUMP INVALID TIMESTAMP GASLIMIT POP ORIGIN ADDRESS GASPRICE KECCAK256 PUSH21 0x72616E7366657220616D6F756E7420657863656564 PUSH20 0x20616C6C6F77616E636542455032303A20747261 PUSH15 0x7366657220616D6F756E7420657863 PUSH6 0x656473206261 PUSH13 0x616E636542455032303A206465 PUSH4 0x72656173 PUSH6 0x6420616C6C6F PUSH24 0x616E63652062656C6F77207A65726F42455032303A206275 PUSH19 0x6E20616D6F756E742065786365656473206261 PUSH13 0x616E6365A26469706673582212 KECCAK256 0xCA SWAP10 PC SLOAD LOG3 DIFFICULTY 0x26 0xE0 0xEC 0xBE 0x2A 0xD7 0x2D 0x2D 0xC0 0xA5 0xBC SIGNEXTEND CREATE SHR 0xD1 0xA9 0xB1 DUP6 0xC4 0xE4 0xC6 0xCC OR SAR DIV 0xB3 PUSH5 0x736F6C6343 STOP ADDMOD SMOD STOP CALLER "
				},
				"gasEstimates": {
					"creation": {
						"codeDepositCost": "1536600",
						"executionCost": "infinite",
						"totalCost": "infinite"
					},
					"external": {
						"allowance(address,address)": "infinite",
						"approve(address,uint256)": "infinite",
						"balanceOf(address)": "2864",
						"burn(uint256)": "infinite",
						"decimals()": "2502",
						"decreaseAllowance(address,uint256)": "infinite",
						"increaseAllowance(address,uint256)": "infinite",
						"isOwner()": "2692",
						"name()": "infinite",
						"owner()": "2661",
						"pause()": "30000",
						"paused()": "2632",
						"renounceOwnership()": "30527",
						"symbol()": "infinite",
						"totalSupply()": "2505",
						"transfer(address,uint256)": "infinite",
						"transferFrom(address,address,uint256)": "infinite",
						"transferOwnership(address)": "30970",
						"unpause()": "29997"
					}
				},
				"methodIdentifiers": {
					"allowance(address,address)": "dd62ed3e",
					"approve(address,uint256)": "095ea7b3",
					"balanceOf(address)": "70a08231",
					"burn(uint256)": "42966c68",
					"decimals()": "313ce567",
					"decreaseAllowance(address,uint256)": "a457c2d7",
					"increaseAllowance(address,uint256)": "39509351",
					"isOwner()": "8f32d59b",
					"name()": "06fdde03",
					"owner()": "8da5cb5b",
					"pause()": "8456cb59",
					"paused()": "5c975abb",
					"renounceOwnership()": "715018a6",
					"symbol()": "95d89b41",
					"totalSupply()": "18160ddd",
					"transfer(address,uint256)": "a9059cbb",
					"transferFrom(address,address,uint256)": "23b872dd",
					"transferOwnership(address)": "f2fde38b",
					"unpause()": "3f4ba83a"
				}
			},
			"userdoc": {
				"kind": "user",
				"methods": {},
				"version": 1
			}
		}
	}
}