{
	"VIMToken.sol": {
		"VIMToken": {
			"abi": [
				{
					"inputs": [],
					"stateMutability": "nonpayable",
					"type": "constructor"
				},
				{
					"anonymous": false,
					"inputs": [
						{
							"indexed": true,
							"internalType": "address",
							"name": "owner",
							"type": "address"
						},
						{
							"indexed": true,
							"internalType": "address",
							"name": "spender",
							"type": "address"
						},
						{
							"indexed": false,
							"internalType": "uint256",
							"name": "value",
							"type": "uint256"
						}
					],
					"name": "Approval",
					"type": "event"
				},
				{
					"anonymous": false,
					"inputs": [
						{
							"indexed": true,
							"internalType": "address",
							"name": "previousOwner",
							"type": "address"
						},
						{
							"indexed": true,
							"internalType": "address",
							"name": "newOwner",
							"type": "address"
						}
					],
					"name": "OwnershipTransferred",
					"type": "event"
				},
				{
					"anonymous": false,
					"inputs": [
						{
							"indexed": true,
							"internalType": "address",
							"name": "from",
							"type": "address"
						},
						{
							"indexed": true,
							"internalType": "address",
							"name": "to",
							"type": "address"
						},
						{
							"indexed": false,
							"internalType": "uint256",
							"name": "value",
							"type": "uint256"
						}
					],
					"name": "Transfer",
					"type": "event"
				},
				{
					"anonymous": false,
					"inputs": [
						{
							"indexed": false,
							"internalType": "address",
							"name": "_wallet",
							"type": "address"
						},
						{
							"indexed": false,
							"internalType": "bool",
							"name": "status",
							"type": "bool"
						}
					],
					"name": "changeBlacklist",
					"type": "event"
				},
				{
					"anonymous": false,
					"inputs": [
						{
							"indexed": false,
							"internalType": "uint8",
							"name": "tradeCooldown",
							"type": "uint8"
						}
					],
					"name": "changeCooldown",
					"type": "event"
				},
				{
					"anonymous": false,
					"inputs": [
						{
							"indexed": false,
							"internalType": "address",
							"name": "lpAddress",
							"type": "address"
						},
						{
							"indexed": false,
							"internalType": "bool",
							"name": "status",
							"type": "bool"
						}
					],
					"name": "changeLiquidityPoolStatus",
					"type": "event"
				},
				{
					"anonymous": false,
					"inputs": [
						{
							"indexed": false,
							"internalType": "address",
							"name": "marketingPool",
							"type": "address"
						}
					],
					"name": "changeMarketingPool",
					"type": "event"
				},
				{
					"anonymous": false,
					"inputs": [
						{
							"indexed": false,
							"internalType": "uint8",
							"name": "_sellTax",
							"type": "uint8"
						},
						{
							"indexed": false,
							"internalType": "uint8",
							"name": "_buyTax",
							"type": "uint8"
						},
						{
							"indexed": false,
							"internalType": "uint8",
							"name": "_transferTax",
							"type": "uint8"
						}
					],
					"name": "changeTax",
					"type": "event"
				},
				{
					"anonymous": false,
					"inputs": [
						{
							"indexed": false,
							"internalType": "address",
							"name": "_address",
							"type": "address"
						},
						{
							"indexed": false,
							"internalType": "bool",
							"name": "status",
							"type": "bool"
						}
					],
					"name": "changeWhitelistTax",
					"type": "event"
				},
				{
					"inputs": [
						{
							"internalType": "address",
							"name": "owner",
							"type": "address"
						},
						{
							"internalType": "address",
							"name": "spender",
							"type": "address"
						}
					],
					"name": "allowance",
					"outputs": [
						{
							"internalType": "uint256",
							"name": "",
							"type": "uint256"
						}
					],
					"stateMutability": "view",
					"type": "function"
				},
				{
					"inputs": [
						{
							"internalType": "address",
							"name": "spender",
							"type": "address"
						},
						{
							"internalType": "uint256",
							"name": "amount",
							"type": "uint256"
						}
					],
					"name": "approve",
					"outputs": [
						{
							"internalType": "bool",
							"name": "",
							"type": "bool"
						}
					],
					"stateMutability": "nonpayable",
					"type": "function"
				},
				{
					"inputs": [
						{
							"internalType": "address",
							"name": "account",
							"type": "address"
						}
					],
					"name": "balanceOf",
					"outputs": [
						{
							"internalType": "uint256",
							"name": "",
							"type": "uint256"
						}
					],
					"stateMutability": "view",
					"type": "function"
				},
				{
					"inputs": [],
					"name": "decimals",
					"outputs": [
						{
							"internalType": "uint8",
							"name": "",
							"type": "uint8"
						}
					],
					"stateMutability": "view",
					"type": "function"
				},
				{
					"inputs": [
						{
							"internalType": "address",
							"name": "spender",
							"type": "address"
						},
						{
							"internalType": "uint256",
							"name": "subtractedValue",
							"type": "uint256"
						}
					],
					"name": "decreaseAllowance",
					"outputs": [
						{
							"internalType": "bool",
							"name": "",
							"type": "bool"
						}
					],
					"stateMutability": "nonpayable",
					"type": "function"
				},
				{
					"inputs": [],
					"name": "getTaxes",
					"outputs": [
						{
							"internalType": "uint8",
							"name": "_sellTax",
							"type": "uint8"
						},
						{
							"internalType": "uint8",
							"name": "_buyTax",
							"type": "uint8"
						},
						{
							"internalType": "uint8",
							"name": "_transferTax",
							"type": "uint8"
						}
					],
					"stateMutability": "view",
					"type": "function"
				},
				{
					"inputs": [
						{
							"internalType": "address",
							"name": "spender",
							"type": "address"
						},
						{
							"internalType": "uint256",
							"name": "addedValue",
							"type": "uint256"
						}
					],
					"name": "increaseAllowance",
					"outputs": [
						{
							"internalType": "bool",
							"name": "",
							"type": "bool"
						}
					],
					"stateMutability": "nonpayable",
					"type": "function"
				},
				{
					"inputs": [],
					"name": "isOwner",
					"outputs": [
						{
							"internalType": "bool",
							"name": "",
							"type": "bool"
						}
					],
					"stateMutability": "view",
					"type": "function"
				},
				{
					"inputs": [],
					"name": "name",
					"outputs": [
						{
							"internalType": "string",
							"name": "",
							"type": "string"
						}
					],
					"stateMutability": "view",
					"type": "function"
				},
				{
					"inputs": [],
					"name": "owner",
					"outputs": [
						{
							"internalType": "address",
							"name": "",
							"type": "address"
						}
					],
					"stateMutability": "view",
					"type": "function"
				},
				{
					"inputs": [],
					"name": "renounceOwnership",
					"outputs": [],
					"stateMutability": "nonpayable",
					"type": "function"
				},
				{
					"inputs": [
						{
							"internalType": "address",
							"name": "_wallet",
							"type": "address"
						},
						{
							"internalType": "bool",
							"name": "_status",
							"type": "bool"
						}
					],
					"name": "setBlacklist",
					"outputs": [],
					"stateMutability": "nonpayable",
					"type": "function"
				},
				{
					"inputs": [
						{
							"internalType": "uint8",
							"name": "_tradeCooldown",
							"type": "uint8"
						}
					],
					"name": "setCooldownForTrades",
					"outputs": [],
					"stateMutability": "nonpayable",
					"type": "function"
				},
				{
					"inputs": [
						{
							"internalType": "address",
							"name": "_lpAddress",
							"type": "address"
						},
						{
							"internalType": "bool",
							"name": "_status",
							"type": "bool"
						}
					],
					"name": "setLiquidityPoolStatus",
					"outputs": [],
					"stateMutability": "nonpayable",
					"type": "function"
				},
				{
					"inputs": [
						{
							"internalType": "address",
							"name": "_marketingPool",
							"type": "address"
						}
					],
					"name": "setMarketingPool",
					"outputs": [],
					"stateMutability": "nonpayable",
					"type": "function"
				},
				{
					"inputs": [
						{
							"internalType": "uint8",
							"name": "_sellTax",
							"type": "uint8"
						},
						{
							"internalType": "uint8",
							"name": "_buyTax",
							"type": "uint8"
						},
						{
							"internalType": "uint8",
							"name": "_transferTax",
							"type": "uint8"
						}
					],
					"name": "setTaxes",
					"outputs": [],
					"stateMutability": "nonpayable",
					"type": "function"
				},
				{
					"inputs": [
						{
							"internalType": "address",
							"name": "_address",
							"type": "address"
						},
						{
							"internalType": "bool",
							"name": "_status",
							"type": "bool"
						}
					],
					"name": "setWhitelist",
					"outputs": [],
					"stateMutability": "nonpayable",
					"type": "function"
				},
				{
					"inputs": [],
					"name": "symbol",
					"outputs": [
						{
							"internalType": "string",
							"name": "",
							"type": "string"
						}
					],
					"stateMutability": "view",
					"type": "function"
				},
				{
					"inputs": [],
					"name": "totalSupply",
					"outputs": [
						{
							"internalType": "uint256",
							"name": "",
							"type": "uint256"
						}
					],
					"stateMutability": "view",
					"type": "function"
				},
				{
					"inputs": [
						{
							"internalType": "address",
							"name": "recipient",
							"type": "address"
						},
						{
							"internalType": "uint256",
							"name": "amount",
							"type": "uint256"
						}
					],
					"name": "transfer",
					"outputs": [
						{
							"internalType": "bool",
							"name": "",
							"type": "bool"
						}
					],
					"stateMutability": "nonpayable",
					"type": "function"
				},
				{
					"inputs": [
						{
							"internalType": "address",
							"name": "sender",
							"type": "address"
						},
						{
							"internalType": "address",
							"name": "recipient",
							"type": "address"
						},
						{
							"internalType": "uint256",
							"name": "amount",
							"type": "uint256"
						}
					],
					"name": "transferFrom",
					"outputs": [
						{
							"internalType": "bool",
							"name": "",
							"type": "bool"
						}
					],
					"stateMutability": "nonpayable",
					"type": "function"
				},
				{
					"inputs": [
						{
							"internalType": "address",
							"name": "newOwner",
							"type": "address"
						}
					],
					"name": "transferOwnership",
					"outputs": [],
					"stateMutability": "nonpayable",
					"type": "function"
				}
			],
			"devdoc": {
				"kind": "dev",
				"methods": {
					"allowance(address,address)": {
						"details": "See {IBEP20-allowance}."
					},
					"approve(address,uint256)": {
						"details": "See {IBEP20-approve}. Requirements: - `spender` cannot be the zero address."
					},
					"balanceOf(address)": {
						"details": "See {IBEP20-balanceOf}."
					},
					"decimals()": {
						"details": "Returns the number of decimals used to get its user representation. For example, if `decimals` equals `2`, a balance of `505` tokens should be displayed to a user as `5,05` (`505 / 10 ** 2`). Tokens usually opt for a value of 18, imitating the relationship between Ether and Wei. NOTE: This information is only used for _display_ purposes: it in no way affects any of the arithmetic of the contract, including {IBEP20-balanceOf} and {IBEP20-transfer}."
					},
					"decreaseAllowance(address,uint256)": {
						"details": "Atomically decreases the allowance granted to `spender` by the caller. This is an alternative to {approve} that can be used as a mitigation for problems described in {IBEP20-approve}. Emits an {Approval} event indicating the updated allowance. Requirements: - `spender` cannot be the zero address. - `spender` must have allowance for the caller of at least `subtractedValue`."
					},
					"increaseAllowance(address,uint256)": {
						"details": "Atomically increases the allowance granted to `spender` by the caller. This is an alternative to {approve} that can be used as a mitigation for problems described in {IBEP20-approve}. Emits an {Approval} event indicating the updated allowance. Requirements: - `spender` cannot be the zero address."
					},
					"isOwner()": {
						"details": "Returns true if the caller is the current owner."
					},
					"name()": {
						"details": "Returns the name of the token."
					},
					"owner()": {
						"details": "Returns the address of the current owner."
					},
					"renounceOwnership()": {
						"details": "Leaves the contract without owner. It will not be possible to call `onlyOwner` functions anymore. Can only be called by the current owner. NOTE: Renouncing ownership will leave the contract without an owner, thereby removing any functionality that is only available to the owner."
					},
					"symbol()": {
						"details": "Returns the symbol of the token, usually a shorter version of the name."
					},
					"totalSupply()": {
						"details": "See {IBEP20-totalSupply}."
					},
					"transfer(address,uint256)": {
						"details": "See {IBEP20-transfer}. Requirements: - `recipient` cannot be the zero address. - the caller must have a balance of at least `amount`."
					},
					"transferFrom(address,address,uint256)": {
						"details": "See {IBEP20-transferFrom}. Emits an {Approval} event indicating the updated allowance. This is not required by the EIP. See the note at the beginning of {BEP20}; Requirements: - `sender` and `recipient` cannot be the zero address. - `sender` must have a balance of at least `amount`. - the caller must have allowance for `sender`'s tokens of at least `amount`."
					},
					"transferOwnership(address)": {
						"details": "Transfers ownership of the contract to a new account (`newOwner`). Can only be called by the current owner."
					}
				},
				"version": 1
			},
			"evm": {
				"assembly": "    /* \"VIMToken.sol\":114:3518  contract VIMToken is BEP20Detailed, BEP20 {... */\n  mstore(0x40, 0x80)\n    /* \"VIMToken.sol\":535:577  0xf802478197Ec4ccf38d89e7DCD79dD92ab5CC342 */\n  0xf802478197ec4ccf38d89e7dcd79dd92ab5cc342\n    /* \"VIMToken.sol\":503:577  address private marketingPool = 0xf802478197Ec4ccf38d89e7DCD79dD92ab5CC342 */\n  0x0c\n  exp(0x0100, 0x00)\n  dup2\n  sload\n  dup2\n  0xffffffffffffffffffffffffffffffffffffffff\n  mul\n  not\n  and\n  swap1\n  dup4\n  0xffffffffffffffffffffffffffffffffffffffff\n  and\n  mul\n  or\n  swap1\n  sstore\n  pop\n    /* \"VIMToken.sol\":935:1166  constructor() BEP20Detailed(\"VicMove\", \"VIM\", 18) {... */\n  callvalue\n  dup1\n  iszero\n  tag_1\n  jumpi\n  0x00\n  dup1\n  revert\ntag_1:\n  pop\n    /* \"BEP20Detailed.sol\":404:567  constructor(... */\n  mload(0x40)\n  dup1\n  0x40\n  add\n  0x40\n  mstore\n  dup1\n  0x07\n  dup2\n  mstore\n  0x20\n  add\n  0x5669634d6f766500000000000000000000000000000000000000000000000000\n  dup2\n  mstore\n  pop\n  mload(0x40)\n  dup1\n  0x40\n  add\n  0x40\n  mstore\n  dup1\n  0x03\n  dup2\n  mstore\n  0x20\n  add\n  0x56494d0000000000000000000000000000000000000000000000000000000000\n  dup2\n  mstore\n  pop\n    /* \"VIMToken.sol\":981:983  18 */\n  0x12\n    /* \"BEP20Detailed.sol\":507:512  name_ */\n  dup3\n    /* \"BEP20Detailed.sol\":499:504  _name */\n  0x00\n    /* \"BEP20Detailed.sol\":499:512  _name = name_ */\n  swap1\n  dup1\n  mload\n  swap1\n  0x20\n  add\n  swap1\n  tag_7\n  swap3\n  swap2\n  swap1\n  tag_8\n  jump\t// in\ntag_7:\n  pop\n    /* \"BEP20Detailed.sol\":528:535  symbol_ */\n  dup2\n    /* \"BEP20Detailed.sol\":518:525  _symbol */\n  0x01\n    /* \"BEP20Detailed.sol\":518:535  _symbol = symbol_ */\n  swap1\n  dup1\n  mload\n  swap1\n  0x20\n  add\n  swap1\n  tag_9\n  swap3\n  swap2\n  swap1\n  tag_8\n  jump\t// in\ntag_9:\n  pop\n    /* \"BEP20Detailed.sol\":553:562  decimals_ */\n  dup1\n    /* \"BEP20Detailed.sol\":541:550  _decimals */\n  0x02\n  0x00\n    /* \"BEP20Detailed.sol\":541:562  _decimals = decimals_ */\n  0x0100\n  exp\n  dup2\n  sload\n  dup2\n  0xff\n  mul\n  not\n  and\n  swap1\n  dup4\n  0xff\n  and\n  mul\n  or\n  swap1\n  sstore\n  pop\n    /* \"BEP20Detailed.sol\":404:567  constructor(... */\n  pop\n  pop\n  pop\n    /* \"BEPOwnable.sol\":716:733  address msgSender */\n  0x00\n    /* \"BEPOwnable.sol\":736:748  _msgSender() */\n  tag_12\n    /* \"BEPOwnable.sol\":736:746  _msgSender */\n  shl(0x20, tag_13)\n    /* \"BEPOwnable.sol\":736:748  _msgSender() */\n  0x20\n  shr\n  jump\t// in\ntag_12:\n    /* \"BEPOwnable.sol\":716:748  address msgSender = _msgSender() */\n  swap1\n  pop\n    /* \"BEPOwnable.sol\":763:772  msgSender */\n  dup1\n    /* \"BEPOwnable.sol\":754:760  _owner */\n  0x02\n  0x01\n    /* \"BEPOwnable.sol\":754:772  _owner = msgSender */\n  0x0100\n  exp\n  dup2\n  sload\n  dup2\n  0xffffffffffffffffffffffffffffffffffffffff\n  mul\n  not\n  and\n  swap1\n  dup4\n  0xffffffffffffffffffffffffffffffffffffffff\n  and\n  mul\n  or\n  swap1\n  sstore\n  pop\n    /* \"BEPOwnable.sol\":816:825  msgSender */\n  dup1\n    /* \"BEPOwnable.sol\":783:826  OwnershipTransferred(address(0), msgSender) */\n  0xffffffffffffffffffffffffffffffffffffffff\n  and\n    /* \"BEPOwnable.sol\":812:813  0 */\n  0x00\n    /* \"BEPOwnable.sol\":783:826  OwnershipTransferred(address(0), msgSender) */\n  0xffffffffffffffffffffffffffffffffffffffff\n  and\n  0x8be0079c531659141344cd1fd0a4f28419497f9722a3daafe3b4186f6b6457e0\n  mload(0x40)\n  mload(0x40)\n  dup1\n  swap2\n  sub\n  swap1\n  log3\n    /* \"BEPOwnable.sol\":710:831  {... */\n  pop\n    /* \"VIMToken.sol\":991:1010  uint256 totalTokens */\n  0x00\n    /* \"VIMToken.sol\":1036:1046  decimals() */\n  tag_15\n    /* \"VIMToken.sol\":1036:1044  decimals */\n  shl(0x20, tag_16)\n    /* \"VIMToken.sol\":1036:1046  decimals() */\n  0x20\n  shr\n  jump\t// in\ntag_15:\n    /* \"VIMToken.sol\":1028:1047  uint256(decimals()) */\n  0xff\n  and\n    /* \"VIMToken.sol\":1024:1026  10 */\n  0x0a\n    /* \"VIMToken.sol\":1024:1047  10**uint256(decimals()) */\n  tag_17\n  swap2\n  swap1\n  tag_18\n  jump\t// in\ntag_17:\n    /* \"VIMToken.sol\":1013:1021  20000000 */\n  0x01312d00\n    /* \"VIMToken.sol\":1013:1047  20000000 * 10**uint256(decimals()) */\n  tag_19\n  swap2\n  swap1\n  tag_20\n  jump\t// in\ntag_19:\n    /* \"VIMToken.sol\":991:1047  uint256 totalTokens = 20000000 * 10**uint256(decimals()) */\n  swap1\n  pop\n    /* \"VIMToken.sol\":1053:1083  _mint(msg.sender, totalTokens) */\n  tag_21\n    /* \"VIMToken.sol\":1059:1069  msg.sender */\n  caller\n    /* \"VIMToken.sol\":1071:1082  totalTokens */\n  dup3\n    /* \"VIMToken.sol\":1053:1058  _mint */\n  shl(0x20, tag_22)\n    /* \"VIMToken.sol\":1053:1083  _mint(msg.sender, totalTokens) */\n  0x20\n  shr\n  jump\t// in\ntag_21:\n    /* \"VIMToken.sol\":1099:1100  3 */\n  0x03\n    /* \"VIMToken.sol\":1089:1096  sellTax */\n  0x0a\n  0x01\n    /* \"VIMToken.sol\":1089:1100  sellTax = 3 */\n  0x0100\n  exp\n  dup2\n  sload\n  dup2\n  0xff\n  mul\n  not\n  and\n  swap1\n  dup4\n  0xff\n  and\n  mul\n  or\n  swap1\n  sstore\n  pop\n    /* \"VIMToken.sol\":1115:1116  0 */\n  0x00\n    /* \"VIMToken.sol\":1106:1112  buyTax */\n  0x0a\n  0x00\n    /* \"VIMToken.sol\":1106:1116  buyTax = 0 */\n  0x0100\n  exp\n  dup2\n  sload\n  dup2\n  0xff\n  mul\n  not\n  and\n  swap1\n  dup4\n  0xff\n  and\n  mul\n  or\n  swap1\n  sstore\n  pop\n    /* \"VIMToken.sol\":1136:1137  0 */\n  0x00\n    /* \"VIMToken.sol\":1122:1133  transferTax */\n  0x0a\n  0x03\n    /* \"VIMToken.sol\":1122:1137  transferTax = 0 */\n  0x0100\n  exp\n  dup2\n  sload\n  dup2\n  0xff\n  mul\n  not\n  and\n  swap1\n  dup4\n  0xff\n  and\n  mul\n  or\n  swap1\n  sstore\n  pop\n    /* \"VIMToken.sol\":1159:1161  15 */\n  0x0f\n    /* \"VIMToken.sol\":1143:1156  tradeCooldown */\n  0x0a\n  0x02\n    /* \"VIMToken.sol\":1143:1161  tradeCooldown = 15 */\n  0x0100\n  exp\n  dup2\n  sload\n  dup2\n  0xff\n  mul\n  not\n  and\n  swap1\n  dup4\n  0xff\n  and\n  mul\n  or\n  swap1\n  sstore\n  pop\n    /* \"VIMToken.sol\":985:1166  {... */\n  pop\n    /* \"VIMToken.sol\":114:3518  contract VIMToken is BEP20Detailed, BEP20 {... */\n  jump(tag_23)\n    /* \"BEPContext.sol\":760:859  function _msgSender() internal view returns (address payable) {... */\ntag_13:\n    /* \"BEPContext.sol\":805:820  address payable */\n  0x00\n    /* \"BEPContext.sol\":843:853  msg.sender */\n  caller\n    /* \"BEPContext.sol\":828:854  return payable(msg.sender) */\n  swap1\n  pop\n    /* \"BEPContext.sol\":760:859  function _msgSender() internal view returns (address payable) {... */\n  swap1\n  jump\t// out\n    /* \"BEP20Detailed.sol\":1404:1479  function decimals() public view returns (uint8) {... */\ntag_16:\n    /* \"BEP20Detailed.sol\":1445:1450  uint8 */\n  0x00\n    /* \"BEP20Detailed.sol\":1465:1474  _decimals */\n  0x02\n  0x00\n  swap1\n  sload\n  swap1\n  0x0100\n  exp\n  swap1\n  div\n  0xff\n  and\n    /* \"BEP20Detailed.sol\":1458:1474  return _decimals */\n  swap1\n  pop\n    /* \"BEP20Detailed.sol\":1404:1479  function decimals() public view returns (uint8) {... */\n  swap1\n  jump\t// out\n    /* \"BEP20.sol\":5712:5996  function _mint(address account, uint256 amount) internal {... */\ntag_22:\n    /* \"BEP20.sol\":5802:5803  0 */\n  0x00\n    /* \"BEP20.sol\":5783:5804  account != address(0) */\n  0xffffffffffffffffffffffffffffffffffffffff\n  and\n    /* \"BEP20.sol\":5783:5790  account */\n  dup3\n    /* \"BEP20.sol\":5783:5804  account != address(0) */\n  0xffffffffffffffffffffffffffffffffffffffff\n  and\n  eq\n  iszero\n    /* \"BEP20.sol\":5775:5840  require(account != address(0), \"BEP20: mint to the zero address\") */\n  tag_27\n  jumpi\n  mload(0x40)\n  0x08c379a000000000000000000000000000000000000000000000000000000000\n  dup2\n  mstore\n  0x04\n  add\n  tag_28\n  swap1\n  tag_29\n  jump\t// in\ntag_28:\n  mload(0x40)\n  dup1\n  swap2\n  sub\n  swap1\n  revert\ntag_27:\n    /* \"BEP20.sol\":5862:5886  _totalSupply.add(amount) */\n  tag_30\n    /* \"BEP20.sol\":5879:5885  amount */\n  dup2\n    /* \"BEP20.sol\":5862:5874  _totalSupply */\n  sload(0x05)\n    /* \"BEP20.sol\":5862:5878  _totalSupply.add */\n  or(tag_0_113, shl(0x20, tag_31))\n  swap1\n    /* \"BEP20.sol\":5862:5886  _totalSupply.add(amount) */\n  swap2\n  swap1\n  0x20\n  shr\n  jump\t// in\ntag_30:\n    /* \"BEP20.sol\":5847:5859  _totalSupply */\n  0x05\n    /* \"BEP20.sol\":5847:5886  _totalSupply = _totalSupply.add(amount) */\n  dup2\n  swap1\n  sstore\n  pop\n    /* \"BEP20.sol\":5913:5943  _balances[account].add(amount) */\n  tag_32\n    /* \"BEP20.sol\":5936:5942  amount */\n  dup2\n    /* \"BEP20.sol\":5913:5922  _balances */\n  0x03\n    /* \"BEP20.sol\":5913:5931  _balances[account] */\n  0x00\n    /* \"BEP20.sol\":5923:5930  account */\n  dup6\n    /* \"BEP20.sol\":5913:5931  _balances[account] */\n  0xffffffffffffffffffffffffffffffffffffffff\n  and\n  0xffffffffffffffffffffffffffffffffffffffff\n  and\n  dup2\n  mstore\n  0x20\n  add\n  swap1\n  dup2\n  mstore\n  0x20\n  add\n  0x00\n  keccak256\n  sload\n    /* \"BEP20.sol\":5913:5935  _balances[account].add */\n  or(tag_0_113, shl(0x20, tag_31))\n  swap1\n    /* \"BEP20.sol\":5913:5943  _balances[account].add(amount) */\n  swap2\n  swap1\n  0x20\n  shr\n  jump\t// in\ntag_32:\n    /* \"BEP20.sol\":5892:5901  _balances */\n  0x03\n    /* \"BEP20.sol\":5892:5910  _balances[account] */\n  0x00\n    /* \"BEP20.sol\":5902:5909  account */\n  dup5\n    /* \"BEP20.sol\":5892:5910  _balances[account] */\n  0xffffffffffffffffffffffffffffffffffffffff\n  and\n  0xffffffffffffffffffffffffffffffffffffffff\n  and\n  dup2\n  mstore\n  0x20\n  add\n  swap1\n  dup2\n  mstore\n  0x20\n  add\n  0x00\n  keccak256\n    /* \"BEP20.sol\":5892:5943  _balances[account] = _balances[account].add(amount) */\n  dup2\n  swap1\n  sstore\n  pop\n    /* \"BEP20.sol\":5975:5982  account */\n  dup2\n    /* \"BEP20.sol\":5954:5991  Transfer(address(0), account, amount) */\n  0xffffffffffffffffffffffffffffffffffffffff\n  and\n    /* \"BEP20.sol\":5971:5972  0 */\n  0x00\n    /* \"BEP20.sol\":5954:5991  Transfer(address(0), account, amount) */\n  0xffffffffffffffffffffffffffffffffffffffff\n  and\n  0xddf252ad1be2c89b69c2b068fc378daa952ba7f163c4a11628f55a4df523b3ef\n    /* \"BEP20.sol\":5984:5990  amount */\n  dup4\n    /* \"BEP20.sol\":5954:5991  Transfer(address(0), account, amount) */\n  mload(0x40)\n  tag_33\n  swap2\n  swap1\n  tag_34\n  jump\t// in\ntag_33:\n  mload(0x40)\n  dup1\n  swap2\n  sub\n  swap1\n  log3\n    /* \"BEP20.sol\":5712:5996  function _mint(address account, uint256 amount) internal {... */\n  pop\n  pop\n  jump\t// out\n    /* \"SafeMath.sol\":858:1020  function add(uint256 a, uint256 b) internal pure returns (uint256) {... */\ntag_31:\n    /* \"SafeMath.sol\":916:923  uint256 */\n  0x00\n    /* \"SafeMath.sol\":931:940  uint256 c */\n  dup1\n    /* \"SafeMath.sol\":947:948  b */\n  dup3\n    /* \"SafeMath.sol\":943:944  a */\n  dup5\n    /* \"SafeMath.sol\":943:948  a + b */\n  tag_36\n  swap2\n  swap1\n  tag_37\n  jump\t// in\ntag_36:\n    /* \"SafeMath.sol\":931:948  uint256 c = a + b */\n  swap1\n  pop\n    /* \"SafeMath.sol\":967:968  a */\n  dup4\n    /* \"SafeMath.sol\":962:963  c */\n  dup2\n    /* \"SafeMath.sol\":962:968  c >= a */\n  lt\n  iszero\n    /* \"SafeMath.sol\":954:1000  require(c >= a, \"SafeMath: addition overflow\") */\n  tag_38\n  jumpi\n  mload(0x40)\n  0x08c379a000000000000000000000000000000000000000000000000000000000\n  dup2\n  mstore\n  0x04\n  add\n  tag_39\n  swap1\n  tag_40\n  jump\t// in\ntag_39:\n  mload(0x40)\n  dup1\n  swap2\n  sub\n  swap1\n  revert\ntag_38:\n    /* \"SafeMath.sol\":1014:1015  c */\n  dup1\n    /* \"SafeMath.sol\":1007:1015  return c */\n  swap2\n  pop\n  pop\n    /* \"SafeMath.sol\":858:1020  function add(uint256 a, uint256 b) internal pure returns (uint256) {... */\n  swap3\n  swap2\n  pop\n  pop\n  jump\t// out\n    /* \"VIMToken.sol\":114:3518  contract VIMToken is BEP20Detailed, BEP20 {... */\ntag_8:\n  dup3\n  dup1\n  sload\n  tag_41\n  swap1\n  tag_42\n  jump\t// in\ntag_41:\n  swap1\n  0x00\n  mstore\n  keccak256(0x00, 0x20)\n  swap1\n  0x1f\n  add\n  0x20\n  swap1\n  div\n  dup2\n  add\n  swap3\n  dup3\n  tag_44\n  jumpi\n  0x00\n  dup6\n  sstore\n  jump(tag_43)\ntag_44:\n  dup3\n  0x1f\n  lt\n  tag_45\n  jumpi\n  dup1\n  mload\n  not(0xff)\n  and\n  dup4\n  dup1\n  add\n  or\n  dup6\n  sstore\n  jump(tag_43)\ntag_45:\n  dup3\n  dup1\n  add\n  0x01\n  add\n  dup6\n  sstore\n  dup3\n  iszero\n  tag_43\n  jumpi\n  swap2\n  dup3\n  add\ntag_46:\n  dup3\n  dup2\n  gt\n  iszero\n  tag_47\n  jumpi\n  dup3\n  mload\n  dup3\n  sstore\n  swap2\n  0x20\n  add\n  swap2\n  swap1\n  0x01\n  add\n  swap1\n  jump(tag_46)\ntag_47:\ntag_43:\n  pop\n  swap1\n  pop\n  tag_48\n  swap2\n  swap1\n  tag_49\n  jump\t// in\ntag_48:\n  pop\n  swap1\n  jump\t// out\ntag_49:\ntag_50:\n  dup1\n  dup3\n  gt\n  iszero\n  tag_51\n  jumpi\n  0x00\n  dup2\n  0x00\n  swap1\n  sstore\n  pop\n  0x01\n  add\n  jump(tag_50)\ntag_51:\n  pop\n  swap1\n  jump\t// out\n    /* \"#utility.yul\":7:373   */\ntag_53:\n    /* \"#utility.yul\":149:152   */\n  0x00\n    /* \"#utility.yul\":170:237   */\n  tag_55\n    /* \"#utility.yul\":234:236   */\n  0x1b\n    /* \"#utility.yul\":229:232   */\n  dup4\n    /* \"#utility.yul\":170:237   */\n  tag_56\n  jump\t// in\ntag_55:\n    /* \"#utility.yul\":163:237   */\n  swap2\n  pop\n    /* \"#utility.yul\":246:339   */\n  tag_57\n    /* \"#utility.yul\":335:338   */\n  dup3\n    /* \"#utility.yul\":246:339   */\n  tag_58\n  jump\t// in\ntag_57:\n    /* \"#utility.yul\":364:366   */\n  0x20\n    /* \"#utility.yul\":359:362   */\n  dup3\n    /* \"#utility.yul\":355:367   */\n  add\n    /* \"#utility.yul\":348:367   */\n  swap1\n  pop\n    /* \"#utility.yul\":7:373   */\n  swap2\n  swap1\n  pop\n  jump\t// out\n    /* \"#utility.yul\":379:745   */\ntag_59:\n    /* \"#utility.yul\":521:524   */\n  0x00\n    /* \"#utility.yul\":542:609   */\n  tag_61\n    /* \"#utility.yul\":606:608   */\n  0x1f\n    /* \"#utility.yul\":601:604   */\n  dup4\n    /* \"#utility.yul\":542:609   */\n  tag_56\n  jump\t// in\ntag_61:\n    /* \"#utility.yul\":535:609   */\n  swap2\n  pop\n    /* \"#utility.yul\":618:711   */\n  tag_62\n    /* \"#utility.yul\":707:710   */\n  dup3\n    /* \"#utility.yul\":618:711   */\n  tag_63\n  jump\t// in\ntag_62:\n    /* \"#utility.yul\":736:738   */\n  0x20\n    /* \"#utility.yul\":731:734   */\n  dup3\n    /* \"#utility.yul\":727:739   */\n  add\n    /* \"#utility.yul\":720:739   */\n  swap1\n  pop\n    /* \"#utility.yul\":379:745   */\n  swap2\n  swap1\n  pop\n  jump\t// out\n    /* \"#utility.yul\":751:869   */\ntag_64:\n    /* \"#utility.yul\":838:862   */\n  tag_66\n    /* \"#utility.yul\":856:861   */\n  dup2\n    /* \"#utility.yul\":838:862   */\n  tag_67\n  jump\t// in\ntag_66:\n    /* \"#utility.yul\":833:836   */\n  dup3\n    /* \"#utility.yul\":826:863   */\n  mstore\n    /* \"#utility.yul\":751:869   */\n  pop\n  pop\n  jump\t// out\n    /* \"#utility.yul\":875:1294   */\ntag_40:\n    /* \"#utility.yul\":1041:1045   */\n  0x00\n    /* \"#utility.yul\":1079:1081   */\n  0x20\n    /* \"#utility.yul\":1068:1077   */\n  dup3\n    /* \"#utility.yul\":1064:1082   */\n  add\n    /* \"#utility.yul\":1056:1082   */\n  swap1\n  pop\n    /* \"#utility.yul\":1128:1137   */\n  dup2\n    /* \"#utility.yul\":1122:1126   */\n  dup2\n    /* \"#utility.yul\":1118:1138   */\n  sub\n    /* \"#utility.yul\":1114:1115   */\n  0x00\n    /* \"#utility.yul\":1103:1112   */\n  dup4\n    /* \"#utility.yul\":1099:1116   */\n  add\n    /* \"#utility.yul\":1092:1139   */\n  mstore\n    /* \"#utility.yul\":1156:1287   */\n  tag_69\n    /* \"#utility.yul\":1282:1286   */\n  dup2\n    /* \"#utility.yul\":1156:1287   */\n  tag_53\n  jump\t// in\ntag_69:\n    /* \"#utility.yul\":1148:1287   */\n  swap1\n  pop\n    /* \"#utility.yul\":875:1294   */\n  swap2\n  swap1\n  pop\n  jump\t// out\n    /* \"#utility.yul\":1300:1719   */\ntag_29:\n    /* \"#utility.yul\":1466:1470   */\n  0x00\n    /* \"#utility.yul\":1504:1506   */\n  0x20\n    /* \"#utility.yul\":1493:1502   */\n  dup3\n    /* \"#utility.yul\":1489:1507   */\n  add\n    /* \"#utility.yul\":1481:1507   */\n  swap1\n  pop\n    /* \"#utility.yul\":1553:1562   */\n  dup2\n    /* \"#utility.yul\":1547:1551   */\n  dup2\n    /* \"#utility.yul\":1543:1563   */\n  sub\n    /* \"#utility.yul\":1539:1540   */\n  0x00\n    /* \"#utility.yul\":1528:1537   */\n  dup4\n    /* \"#utility.yul\":1524:1541   */\n  add\n    /* \"#utility.yul\":1517:1564   */\n  mstore\n    /* \"#utility.yul\":1581:1712   */\n  tag_71\n    /* \"#utility.yul\":1707:1711   */\n  dup2\n    /* \"#utility.yul\":1581:1712   */\n  tag_59\n  jump\t// in\ntag_71:\n    /* \"#utility.yul\":1573:1712   */\n  swap1\n  pop\n    /* \"#utility.yul\":1300:1719   */\n  swap2\n  swap1\n  pop\n  jump\t// out\n    /* \"#utility.yul\":1725:1947   */\ntag_34:\n    /* \"#utility.yul\":1818:1822   */\n  0x00\n    /* \"#utility.yul\":1856:1858   */\n  0x20\n    /* \"#utility.yul\":1845:1854   */\n  dup3\n    /* \"#utility.yul\":1841:1859   */\n  add\n    /* \"#utility.yul\":1833:1859   */\n  swap1\n  pop\n    /* \"#utility.yul\":1869:1940   */\n  tag_73\n    /* \"#utility.yul\":1937:1938   */\n  0x00\n    /* \"#utility.yul\":1926:1935   */\n  dup4\n    /* \"#utility.yul\":1922:1939   */\n  add\n    /* \"#utility.yul\":1913:1919   */\n  dup5\n    /* \"#utility.yul\":1869:1940   */\n  tag_64\n  jump\t// in\ntag_73:\n    /* \"#utility.yul\":1725:1947   */\n  swap3\n  swap2\n  pop\n  pop\n  jump\t// out\n    /* \"#utility.yul\":1953:2122   */\ntag_56:\n    /* \"#utility.yul\":2037:2048   */\n  0x00\n    /* \"#utility.yul\":2071:2077   */\n  dup3\n    /* \"#utility.yul\":2066:2069   */\n  dup3\n    /* \"#utility.yul\":2059:2078   */\n  mstore\n    /* \"#utility.yul\":2111:2115   */\n  0x20\n    /* \"#utility.yul\":2106:2109   */\n  dup3\n    /* \"#utility.yul\":2102:2116   */\n  add\n    /* \"#utility.yul\":2087:2116   */\n  swap1\n  pop\n    /* \"#utility.yul\":1953:2122   */\n  swap3\n  swap2\n  pop\n  pop\n  jump\t// out\n    /* \"#utility.yul\":2128:2433   */\ntag_37:\n    /* \"#utility.yul\":2168:2171   */\n  0x00\n    /* \"#utility.yul\":2187:2207   */\n  tag_76\n    /* \"#utility.yul\":2205:2206   */\n  dup3\n    /* \"#utility.yul\":2187:2207   */\n  tag_67\n  jump\t// in\ntag_76:\n    /* \"#utility.yul\":2182:2207   */\n  swap2\n  pop\n    /* \"#utility.yul\":2221:2241   */\n  tag_77\n    /* \"#utility.yul\":2239:2240   */\n  dup4\n    /* \"#utility.yul\":2221:2241   */\n  tag_67\n  jump\t// in\ntag_77:\n    /* \"#utility.yul\":2216:2241   */\n  swap3\n  pop\n    /* \"#utility.yul\":2375:2376   */\n  dup3\n    /* \"#utility.yul\":2307:2373   */\n  0xffffffffffffffffffffffffffffffffffffffffffffffffffffffffffffffff\n    /* \"#utility.yul\":2303:2377   */\n  sub\n    /* \"#utility.yul\":2300:2301   */\n  dup3\n    /* \"#utility.yul\":2297:2378   */\n  gt\n    /* \"#utility.yul\":2294:2401   */\n  iszero\n  tag_78\n  jumpi\n    /* \"#utility.yul\":2381:2399   */\n  tag_79\n  tag_80\n  jump\t// in\ntag_79:\n    /* \"#utility.yul\":2294:2401   */\ntag_78:\n    /* \"#utility.yul\":2425:2426   */\n  dup3\n    /* \"#utility.yul\":2422:2423   */\n  dup3\n    /* \"#utility.yul\":2418:2427   */\n  add\n    /* \"#utility.yul\":2411:2427   */\n  swap1\n  pop\n    /* \"#utility.yul\":2128:2433   */\n  swap3\n  swap2\n  pop\n  pop\n  jump\t// out\n    /* \"#utility.yul\":2439:3287   */\ntag_81:\n    /* \"#utility.yul\":2500:2505   */\n  0x00\n    /* \"#utility.yul\":2507:2511   */\n  dup1\n    /* \"#utility.yul\":2531:2537   */\n  dup3\n    /* \"#utility.yul\":2522:2537   */\n  swap2\n  pop\n    /* \"#utility.yul\":2555:2560   */\n  dup4\n    /* \"#utility.yul\":2546:2560   */\n  swap1\n  pop\n    /* \"#utility.yul\":2569:3281   */\ntag_83:\n    /* \"#utility.yul\":2590:2591   */\n  0x01\n    /* \"#utility.yul\":2580:2588   */\n  dup6\n    /* \"#utility.yul\":2577:2592   */\n  gt\n    /* \"#utility.yul\":2569:3281   */\n  iszero\n  tag_85\n  jumpi\n    /* \"#utility.yul\":2685:2689   */\n  dup1\n    /* \"#utility.yul\":2680:2683   */\n  dup7\n    /* \"#utility.yul\":2676:2690   */\n  div\n    /* \"#utility.yul\":2670:2674   */\n  dup2\n    /* \"#utility.yul\":2667:2691   */\n  gt\n    /* \"#utility.yul\":2664:2714   */\n  iszero\n  tag_86\n  jumpi\n    /* \"#utility.yul\":2694:2712   */\n  tag_87\n  tag_80\n  jump\t// in\ntag_87:\n    /* \"#utility.yul\":2664:2714   */\ntag_86:\n    /* \"#utility.yul\":2744:2745   */\n  0x01\n    /* \"#utility.yul\":2734:2742   */\n  dup6\n    /* \"#utility.yul\":2730:2746   */\n  and\n    /* \"#utility.yul\":2727:3178   */\n  iszero\n  tag_88\n  jumpi\n    /* \"#utility.yul\":3159:3163   */\n  dup1\n    /* \"#utility.yul\":3152:3157   */\n  dup3\n    /* \"#utility.yul\":3148:3164   */\n  mul\n    /* \"#utility.yul\":3139:3164   */\n  swap2\n  pop\n    /* \"#utility.yul\":2727:3178   */\ntag_88:\n    /* \"#utility.yul\":3209:3213   */\n  dup1\n    /* \"#utility.yul\":3203:3207   */\n  dup2\n    /* \"#utility.yul\":3199:3214   */\n  mul\n    /* \"#utility.yul\":3191:3214   */\n  swap1\n  pop\n    /* \"#utility.yul\":3239:3271   */\n  tag_89\n    /* \"#utility.yul\":3262:3270   */\n  dup6\n    /* \"#utility.yul\":3239:3271   */\n  tag_90\n  jump\t// in\ntag_89:\n    /* \"#utility.yul\":3227:3271   */\n  swap5\n  pop\n    /* \"#utility.yul\":2569:3281   */\n  jump(tag_83)\ntag_85:\n    /* \"#utility.yul\":2439:3287   */\n  swap5\n  pop\n  swap5\n  swap3\n  pop\n  pop\n  pop\n  jump\t// out\n    /* \"#utility.yul\":3293:3578   */\ntag_18:\n    /* \"#utility.yul\":3353:3358   */\n  0x00\n    /* \"#utility.yul\":3377:3400   */\n  tag_92\n    /* \"#utility.yul\":3395:3399   */\n  dup3\n    /* \"#utility.yul\":3377:3400   */\n  tag_67\n  jump\t// in\ntag_92:\n    /* \"#utility.yul\":3369:3400   */\n  swap2\n  pop\n    /* \"#utility.yul\":3421:3448   */\n  tag_93\n    /* \"#utility.yul\":3439:3447   */\n  dup4\n    /* \"#utility.yul\":3421:3448   */\n  tag_67\n  jump\t// in\ntag_93:\n    /* \"#utility.yul\":3409:3448   */\n  swap3\n  pop\n    /* \"#utility.yul\":3467:3571   */\n  tag_94\n    /* \"#utility.yul\":3504:3570   */\n  0xffffffffffffffffffffffffffffffffffffffffffffffffffffffffffffffff\n    /* \"#utility.yul\":3494:3502   */\n  dup5\n    /* \"#utility.yul\":3488:3492   */\n  dup5\n    /* \"#utility.yul\":3467:3571   */\n  tag_95\n  jump\t// in\ntag_94:\n    /* \"#utility.yul\":3458:3571   */\n  swap1\n  pop\n    /* \"#utility.yul\":3293:3578   */\n  swap3\n  swap2\n  pop\n  pop\n  jump\t// out\n    /* \"#utility.yul\":3584:4657   */\ntag_95:\n    /* \"#utility.yul\":3638:3643   */\n  0x00\n    /* \"#utility.yul\":3829:3837   */\n  dup3\n    /* \"#utility.yul\":3819:3859   */\n  tag_97\n  jumpi\n    /* \"#utility.yul\":3850:3851   */\n  0x01\n    /* \"#utility.yul\":3841:3851   */\n  swap1\n  pop\n    /* \"#utility.yul\":3852:3857   */\n  jump(tag_96)\n    /* \"#utility.yul\":3819:3859   */\ntag_97:\n    /* \"#utility.yul\":3878:3882   */\n  dup2\n    /* \"#utility.yul\":3868:3904   */\n  tag_98\n  jumpi\n    /* \"#utility.yul\":3895:3896   */\n  0x00\n    /* \"#utility.yul\":3886:3896   */\n  swap1\n  pop\n    /* \"#utility.yul\":3897:3902   */\n  jump(tag_96)\n    /* \"#utility.yul\":3868:3904   */\ntag_98:\n    /* \"#utility.yul\":3964:3968   */\n  dup2\n    /* \"#utility.yul\":4012:4013   */\n  0x01\n    /* \"#utility.yul\":4007:4034   */\n  dup2\n  eq\n  tag_100\n  jumpi\n    /* \"#utility.yul\":4048:4049   */\n  0x02\n    /* \"#utility.yul\":4043:4234   */\n  dup2\n  eq\n  tag_101\n  jumpi\n    /* \"#utility.yul\":3957:4234   */\n  jump(tag_99)\n    /* \"#utility.yul\":4007:4034   */\ntag_100:\n    /* \"#utility.yul\":4025:4026   */\n  0x01\n    /* \"#utility.yul\":4016:4026   */\n  swap2\n  pop\n    /* \"#utility.yul\":4027:4032   */\n  pop\n  jump(tag_96)\n    /* \"#utility.yul\":4043:4234   */\ntag_101:\n    /* \"#utility.yul\":4088:4091   */\n  0xff\n    /* \"#utility.yul\":4078:4086   */\n  dup5\n    /* \"#utility.yul\":4075:4092   */\n  gt\n    /* \"#utility.yul\":4072:4115   */\n  iszero\n  tag_102\n  jumpi\n    /* \"#utility.yul\":4095:4113   */\n  tag_103\n  tag_80\n  jump\t// in\ntag_103:\n    /* \"#utility.yul\":4072:4115   */\ntag_102:\n    /* \"#utility.yul\":4144:4152   */\n  dup4\n    /* \"#utility.yul\":4141:4142   */\n  0x02\n    /* \"#utility.yul\":4137:4153   */\n  exp\n    /* \"#utility.yul\":4128:4153   */\n  swap2\n  pop\n    /* \"#utility.yul\":4179:4182   */\n  dup5\n    /* \"#utility.yul\":4172:4177   */\n  dup3\n    /* \"#utility.yul\":4169:4183   */\n  gt\n    /* \"#utility.yul\":4166:4206   */\n  iszero\n  tag_104\n  jumpi\n    /* \"#utility.yul\":4186:4204   */\n  tag_105\n  tag_80\n  jump\t// in\ntag_105:\n    /* \"#utility.yul\":4166:4206   */\ntag_104:\n    /* \"#utility.yul\":4219:4224   */\n  pop\n  jump(tag_96)\n    /* \"#utility.yul\":3957:4234   */\ntag_99:\n  pop\n    /* \"#utility.yul\":4343:4345   */\n  0x20\n    /* \"#utility.yul\":4333:4341   */\n  dup4\n    /* \"#utility.yul\":4330:4346   */\n  lt\n    /* \"#utility.yul\":4324:4327   */\n  0x0133\n    /* \"#utility.yul\":4318:4322   */\n  dup4\n    /* \"#utility.yul\":4315:4328   */\n  lt\n    /* \"#utility.yul\":4311:4347   */\n  and\n    /* \"#utility.yul\":4293:4295   */\n  0x4e\n    /* \"#utility.yul\":4283:4291   */\n  dup5\n    /* \"#utility.yul\":4280:4296   */\n  lt\n    /* \"#utility.yul\":4275:4277   */\n  0x0b\n    /* \"#utility.yul\":4269:4273   */\n  dup5\n    /* \"#utility.yul\":4266:4278   */\n  lt\n    /* \"#utility.yul\":4262:4297   */\n  and\n    /* \"#utility.yul\":4246:4357   */\n  or\n    /* \"#utility.yul\":4243:4489   */\n  iszero\n  tag_106\n  jumpi\n    /* \"#utility.yul\":4399:4407   */\n  dup3\n    /* \"#utility.yul\":4393:4397   */\n  dup3\n    /* \"#utility.yul\":4389:4408   */\n  exp\n    /* \"#utility.yul\":4380:4408   */\n  swap1\n  pop\n    /* \"#utility.yul\":4434:4437   */\n  dup4\n    /* \"#utility.yul\":4427:4432   */\n  dup2\n    /* \"#utility.yul\":4424:4438   */\n  gt\n    /* \"#utility.yul\":4421:4461   */\n  iszero\n  tag_107\n  jumpi\n    /* \"#utility.yul\":4441:4459   */\n  tag_108\n  tag_80\n  jump\t// in\ntag_108:\n    /* \"#utility.yul\":4421:4461   */\ntag_107:\n    /* \"#utility.yul\":4474:4479   */\n  jump(tag_96)\n    /* \"#utility.yul\":4243:4489   */\ntag_106:\n    /* \"#utility.yul\":4514:4556   */\n  tag_109\n    /* \"#utility.yul\":4552:4555   */\n  dup5\n    /* \"#utility.yul\":4542:4550   */\n  dup5\n    /* \"#utility.yul\":4536:4540   */\n  dup5\n    /* \"#utility.yul\":4533:4534   */\n  0x01\n    /* \"#utility.yul\":4514:4556   */\n  tag_81\n  jump\t// in\ntag_109:\n    /* \"#utility.yul\":4499:4556   */\n  swap3\n  pop\n  swap1\n  pop\n    /* \"#utility.yul\":4588:4592   */\n  dup2\n    /* \"#utility.yul\":4583:4586   */\n  dup5\n    /* \"#utility.yul\":4579:4593   */\n  div\n    /* \"#utility.yul\":4572:4577   */\n  dup2\n    /* \"#utility.yul\":4569:4594   */\n  gt\n    /* \"#utility.yul\":4566:4617   */\n  iszero\n  tag_110\n  jumpi\n    /* \"#utility.yul\":4597:4615   */\n  tag_111\n  tag_80\n  jump\t// in\ntag_111:\n    /* \"#utility.yul\":4566:4617   */\ntag_110:\n    /* \"#utility.yul\":4646:4650   */\n  dup2\n    /* \"#utility.yul\":4639:4644   */\n  dup2\n    /* \"#utility.yul\":4635:4651   */\n  mul\n    /* \"#utility.yul\":4626:4651   */\n  swap1\n  pop\n    /* \"#utility.yul\":3584:4657   */\ntag_96:\n  swap4\n  swap3\n  pop\n  pop\n  pop\n  jump\t// out\n    /* \"#utility.yul\":4663:5011   */\ntag_20:\n    /* \"#utility.yul\":4703:4710   */\n  0x00\n    /* \"#utility.yul\":4726:4746   */\n  tag_113\n    /* \"#utility.yul\":4744:4745   */\n  dup3\n    /* \"#utility.yul\":4726:4746   */\n  tag_67\n  jump\t// in\ntag_113:\n    /* \"#utility.yul\":4721:4746   */\n  swap2\n  pop\n    /* \"#utility.yul\":4760:4780   */\n  tag_114\n    /* \"#utility.yul\":4778:4779   */\n  dup4\n    /* \"#utility.yul\":4760:4780   */\n  tag_67\n  jump\t// in\ntag_114:\n    /* \"#utility.yul\":4755:4780   */\n  swap3\n  pop\n    /* \"#utility.yul\":4948:4949   */\n  dup2\n    /* \"#utility.yul\":4880:4946   */\n  0xffffffffffffffffffffffffffffffffffffffffffffffffffffffffffffffff\n    /* \"#utility.yul\":4876:4950   */\n  div\n    /* \"#utility.yul\":4873:4874   */\n  dup4\n    /* \"#utility.yul\":4870:4951   */\n  gt\n    /* \"#utility.yul\":4865:4866   */\n  dup3\n    /* \"#utility.yul\":4858:4867   */\n  iszero\n    /* \"#utility.yul\":4851:4868   */\n  iszero\n    /* \"#utility.yul\":4847:4952   */\n  and\n    /* \"#utility.yul\":4844:4975   */\n  iszero\n  tag_115\n  jumpi\n    /* \"#utility.yul\":4955:4973   */\n  tag_116\n  tag_80\n  jump\t// in\ntag_116:\n    /* \"#utility.yul\":4844:4975   */\ntag_115:\n    /* \"#utility.yul\":5003:5004   */\n  dup3\n    /* \"#utility.yul\":5000:5001   */\n  dup3\n    /* \"#utility.yul\":4996:5005   */\n  mul\n    /* \"#utility.yul\":4985:5005   */\n  swap1\n  pop\n    /* \"#utility.yul\":4663:5011   */\n  swap3\n  swap2\n  pop\n  pop\n  jump\t// out\n    /* \"#utility.yul\":5017:5094   */\ntag_67:\n    /* \"#utility.yul\":5054:5061   */\n  0x00\n    /* \"#utility.yul\":5083:5088   */\n  dup2\n    /* \"#utility.yul\":5072:5088   */\n  swap1\n  pop\n    /* \"#utility.yul\":5017:5094   */\n  swap2\n  swap1\n  pop\n  jump\t// out\n    /* \"#utility.yul\":5100:5420   */\ntag_42:\n    /* \"#utility.yul\":5144:5150   */\n  0x00\n    /* \"#utility.yul\":5181:5182   */\n  0x02\n    /* \"#utility.yul\":5175:5179   */\n  dup3\n    /* \"#utility.yul\":5171:5183   */\n  div\n    /* \"#utility.yul\":5161:5183   */\n  swap1\n  pop\n    /* \"#utility.yul\":5228:5229   */\n  0x01\n    /* \"#utility.yul\":5222:5226   */\n  dup3\n    /* \"#utility.yul\":5218:5230   */\n  and\n    /* \"#utility.yul\":5249:5267   */\n  dup1\n    /* \"#utility.yul\":5239:5320   */\n  tag_119\n  jumpi\n    /* \"#utility.yul\":5305:5309   */\n  0x7f\n    /* \"#utility.yul\":5297:5303   */\n  dup3\n    /* \"#utility.yul\":5293:5310   */\n  and\n    /* \"#utility.yul\":5283:5310   */\n  swap2\n  pop\n    /* \"#utility.yul\":5239:5320   */\ntag_119:\n    /* \"#utility.yul\":5367:5369   */\n  0x20\n    /* \"#utility.yul\":5359:5365   */\n  dup3\n    /* \"#utility.yul\":5356:5370   */\n  lt\n    /* \"#utility.yul\":5336:5354   */\n  dup2\n    /* \"#utility.yul\":5333:5371   */\n  eq\n    /* \"#utility.yul\":5330:5414   */\n  iszero\n  tag_120\n  jumpi\n    /* \"#utility.yul\":5386:5404   */\n  tag_121\n  tag_122\n  jump\t// in\ntag_121:\n    /* \"#utility.yul\":5330:5414   */\ntag_120:\n    /* \"#utility.yul\":5151:5420   */\n  pop\n    /* \"#utility.yul\":5100:5420   */\n  swap2\n  swap1\n  pop\n  jump\t// out\n    /* \"#utility.yul\":5426:5606   */\ntag_80:\n    /* \"#utility.yul\":5474:5551   */\n  0x4e487b7100000000000000000000000000000000000000000000000000000000\n    /* \"#utility.yul\":5471:5472   */\n  0x00\n    /* \"#utility.yul\":5464:5552   */\n  mstore\n    /* \"#utility.yul\":5571:5575   */\n  0x11\n    /* \"#utility.yul\":5568:5569   */\n  0x04\n    /* \"#utility.yul\":5561:5576   */\n  mstore\n    /* \"#utility.yul\":5595:5599   */\n  0x24\n    /* \"#utility.yul\":5592:5593   */\n  0x00\n    /* \"#utility.yul\":5585:5600   */\n  revert\n    /* \"#utility.yul\":5612:5792   */\ntag_122:\n    /* \"#utility.yul\":5660:5737   */\n  0x4e487b7100000000000000000000000000000000000000000000000000000000\n    /* \"#utility.yul\":5657:5658   */\n  0x00\n    /* \"#utility.yul\":5650:5738   */\n  mstore\n    /* \"#utility.yul\":5757:5761   */\n  0x22\n    /* \"#utility.yul\":5754:5755   */\n  0x04\n    /* \"#utility.yul\":5747:5762   */\n  mstore\n    /* \"#utility.yul\":5781:5785   */\n  0x24\n    /* \"#utility.yul\":5778:5779   */\n  0x00\n    /* \"#utility.yul\":5771:5786   */\n  revert\n    /* \"#utility.yul\":5798:5900   */\ntag_90:\n    /* \"#utility.yul\":5840:5848   */\n  0x00\n    /* \"#utility.yul\":5887:5892   */\n  dup2\n    /* \"#utility.yul\":5884:5885   */\n  0x01\n    /* \"#utility.yul\":5880:5893   */\n  shr\n    /* \"#utility.yul\":5859:5893   */\n  swap1\n  pop\n    /* \"#utility.yul\":5798:5900   */\n  swap2\n  swap1\n  pop\n  jump\t// out\n    /* \"#utility.yul\":5906:6083   */\ntag_58:\n    /* \"#utility.yul\":6046:6075   */\n  0x536166654d6174683a206164646974696f6e206f766572666c6f770000000000\n    /* \"#utility.yul\":6042:6043   */\n  0x00\n    /* \"#utility.yul\":6034:6040   */\n  dup3\n    /* \"#utility.yul\":6030:6044   */\n  add\n    /* \"#utility.yul\":6023:6076   */\n  mstore\n    /* \"#utility.yul\":5906:6083   */\n  pop\n  jump\t// out\n    /* \"#utility.yul\":6089:6270   */\ntag_63:\n    /* \"#utility.yul\":6229:6262   */\n  0x42455032303a206d696e7420746f20746865207a65726f206164647265737300\n    /* \"#utility.yul\":6225:6226   */\n  0x00\n    /* \"#utility.yul\":6217:6223   */\n  dup3\n    /* \"#utility.yul\":6213:6227   */\n  add\n    /* \"#utility.yul\":6206:6263   */\n  mstore\n    /* \"#utility.yul\":6089:6270   */\n  pop\n  jump\t// out\n    /* \"VIMToken.sol\":114:3518  contract VIMToken is BEP20Detailed, BEP20 {... */\ntag_23:\n  dataSize(sub_0)\n  dup1\n  dataOffset(sub_0)\n  0x00\n  codecopy\n  0x00\n  return\nstop\n\nsub_0: assembly {\n        /* \"VIMToken.sol\":114:3518  contract VIMToken is BEP20Detailed, BEP20 {... */\n      mstore(0x40, 0x80)\n      callvalue\n      dup1\n      iszero\n      tag_1\n      jumpi\n      0x00\n      dup1\n      revert\n    tag_1:\n      pop\n      jumpi(tag_2, lt(calldatasize, 0x04))\n      shr(0xe0, calldataload(0x00))\n      dup1\n      0x70a08231\n      gt\n      tag_25\n      jumpi\n      dup1\n      0xa457c2d7\n      gt\n      tag_26\n      jumpi\n      dup1\n      0xa457c2d7\n      eq\n      tag_19\n      jumpi\n      dup1\n      0xa86517bf\n      eq\n      tag_20\n      jumpi\n      dup1\n      0xa9059cbb\n      eq\n      tag_21\n      jumpi\n      dup1\n      0xc89c58fb\n      eq\n      tag_22\n      jumpi\n      dup1\n      0xdd62ed3e\n      eq\n      tag_23\n      jumpi\n      dup1\n      0xf2fde38b\n      eq\n      tag_24\n      jumpi\n      jump(tag_2)\n    tag_26:\n      dup1\n      0x70a08231\n      eq\n      tag_14\n      jumpi\n      dup1\n      0x715018a6\n      eq\n      tag_15\n      jumpi\n      dup1\n      0x8da5cb5b\n      eq\n      tag_16\n      jumpi\n      dup1\n      0x8f32d59b\n      eq\n      tag_17\n      jumpi\n      dup1\n      0x95d89b41\n      eq\n      tag_18\n      jumpi\n      jump(tag_2)\n    tag_25:\n      dup1\n      0x18160ddd\n      gt\n      tag_27\n      jumpi\n      dup1\n      0x18160ddd\n      eq\n      tag_8\n      jumpi\n      dup1\n      0x23b872dd\n      eq\n      tag_9\n      jumpi\n      dup1\n      0x2973ef2d\n      eq\n      tag_10\n      jumpi\n      dup1\n      0x313ce567\n      eq\n      tag_11\n      jumpi\n      dup1\n      0x39509351\n      eq\n      tag_12\n      jumpi\n      dup1\n      0x53d6fd59\n      eq\n      tag_13\n      jumpi\n      jump(tag_2)\n    tag_27:\n      dup1\n      0x06fdde03\n      eq\n      tag_3\n      jumpi\n      dup1\n      0x095ea7b3\n      eq\n      tag_4\n      jumpi\n      dup1\n      0x0d2cf31f\n      eq\n      tag_5\n      jumpi\n      dup1\n      0x153b0d1e\n      eq\n      tag_6\n      jumpi\n      dup1\n      0x1574567b\n      eq\n      tag_7\n      jumpi\n    tag_2:\n      0x00\n      dup1\n      revert\n        /* \"BEP20Detailed.sol\":624:699  function name() public view returns (string memory) {... */\n    tag_3:\n      tag_28\n      tag_29\n      jump\t// in\n    tag_28:\n      mload(0x40)\n      tag_30\n      swap2\n      swap1\n      tag_31\n      jump\t// in\n    tag_30:\n      mload(0x40)\n      dup1\n      swap2\n      sub\n      swap1\n      return\n        /* \"BEP20.sol\":2334:2482  function approve(address spender, uint256 amount) public override returns (bool) {... */\n    tag_4:\n      tag_32\n      0x04\n      dup1\n      calldatasize\n      sub\n      dup2\n      add\n      swap1\n      tag_33\n      swap2\n      swap1\n      tag_34\n      jump\t// in\n    tag_33:\n      tag_35\n      jump\t// in\n    tag_32:\n      mload(0x40)\n      tag_36\n      swap2\n      swap1\n      tag_37\n      jump\t// in\n    tag_36:\n      mload(0x40)\n      dup1\n      swap2\n      sub\n      swap1\n      return\n        /* \"VIMToken.sol\":1849:2156  function setTaxes(uint8 _sellTax, uint8 _buyTax, uint8 _transferTax) external onlyOwner {... */\n    tag_5:\n      tag_38\n      0x04\n      dup1\n      calldatasize\n      sub\n      dup2\n      add\n      swap1\n      tag_39\n      swap2\n      swap1\n      tag_40\n      jump\t// in\n    tag_39:\n      tag_41\n      jump\t// in\n    tag_38:\n      stop\n        /* \"VIMToken.sol\":1176:1332  function setBlacklist(address _wallet, bool _status) external onlyOwner {... */\n    tag_6:\n      tag_42\n      0x04\n      dup1\n      calldatasize\n      sub\n      dup2\n      add\n      swap1\n      tag_43\n      swap2\n      swap1\n      tag_44\n      jump\t// in\n    tag_43:\n      tag_45\n      jump\t// in\n    tag_42:\n      stop\n        /* \"VIMToken.sol\":1338:1491  function setCooldownForTrades(uint8 _tradeCooldown) external onlyOwner {... */\n    tag_7:\n      tag_46\n      0x04\n      dup1\n      calldatasize\n      sub\n      dup2\n      add\n      swap1\n      tag_47\n      swap2\n      swap1\n      tag_48\n      jump\t// in\n    tag_47:\n      tag_49\n      jump\t// in\n    tag_46:\n      stop\n        /* \"BEP20.sol\":1427:1519  function totalSupply() public view override returns (uint256) {... */\n    tag_8:\n      tag_50\n      tag_51\n      jump\t// in\n    tag_50:\n      mload(0x40)\n      tag_52\n      swap2\n      swap1\n      tag_53\n      jump\t// in\n    tag_52:\n      mload(0x40)\n      dup1\n      swap2\n      sub\n      swap1\n      return\n        /* \"BEP20.sol\":2914:3257  function transferFrom(... */\n    tag_9:\n      tag_54\n      0x04\n      dup1\n      calldatasize\n      sub\n      dup2\n      add\n      swap1\n      tag_55\n      swap2\n      swap1\n      tag_56\n      jump\t// in\n    tag_55:\n      tag_57\n      jump\t// in\n    tag_54:\n      mload(0x40)\n      tag_58\n      swap2\n      swap1\n      tag_37\n      jump\t// in\n    tag_58:\n      mload(0x40)\n      dup1\n      swap2\n      sub\n      swap1\n      return\n        /* \"VIMToken.sol\":2160:2302  function getTaxes() external view returns (uint8 _sellTax, uint8 _buyTax, uint8 _transferTax) {... */\n    tag_10:\n      tag_59\n      tag_60\n      jump\t// in\n    tag_59:\n      mload(0x40)\n      tag_61\n      swap4\n      swap3\n      swap2\n      swap1\n      tag_62\n      jump\t// in\n    tag_61:\n      mload(0x40)\n      dup1\n      swap2\n      sub\n      swap1\n      return\n        /* \"BEP20Detailed.sol\":1404:1479  function decimals() public view returns (uint8) {... */\n    tag_11:\n      tag_63\n      tag_64\n      jump\t// in\n    tag_63:\n      mload(0x40)\n      tag_65\n      swap2\n      swap1\n      tag_66\n      jump\t// in\n    tag_65:\n      mload(0x40)\n      dup1\n      swap2\n      sub\n      swap1\n      return\n        /* \"BEP20.sol\":3626:3823  function increaseAllowance(address spender, uint256 addedValue) public returns (bool) {... */\n    tag_12:\n      tag_67\n      0x04\n      dup1\n      calldatasize\n      sub\n      dup2\n      add\n      swap1\n      tag_68\n      swap2\n      swap1\n      tag_34\n      jump\t// in\n    tag_68:\n      tag_69\n      jump\t// in\n    tag_67:\n      mload(0x40)\n      tag_70\n      swap2\n      swap1\n      tag_37\n      jump\t// in\n    tag_70:\n      mload(0x40)\n      dup1\n      swap2\n      sub\n      swap1\n      return\n        /* \"VIMToken.sol\":2308:2472  function setWhitelist(address _address, bool _status) external onlyOwner {... */\n    tag_13:\n      tag_71\n      0x04\n      dup1\n      calldatasize\n      sub\n      dup2\n      add\n      swap1\n      tag_72\n      swap2\n      swap1\n      tag_44\n      jump\t// in\n    tag_72:\n      tag_73\n      jump\t// in\n    tag_71:\n      stop\n        /* \"BEP20.sol\":1569:1680  function balanceOf(address account) public view override returns (uint256) {... */\n    tag_14:\n      tag_74\n      0x04\n      dup1\n      calldatasize\n      sub\n      dup2\n      add\n      swap1\n      tag_75\n      swap2\n      swap1\n      tag_76\n      jump\t// in\n    tag_75:\n      tag_77\n      jump\t// in\n    tag_74:\n      mload(0x40)\n      tag_78\n      swap2\n      swap1\n      tag_53\n      jump\t// in\n    tag_78:\n      mload(0x40)\n      dup1\n      swap2\n      sub\n      swap1\n      return\n        /* \"BEPOwnable.sol\":1630:1757  function renounceOwnership() public onlyOwner {... */\n    tag_15:\n      tag_79\n      tag_80\n      jump\t// in\n    tag_79:\n      stop\n        /* \"BEPOwnable.sol\":899:970  function owner() public view returns (address) {... */\n    tag_16:\n      tag_81\n      tag_82\n      jump\t// in\n    tag_81:\n      mload(0x40)\n      tag_83\n      swap2\n      swap1\n      tag_84\n      jump\t// in\n    tag_83:\n      mload(0x40)\n      dup1\n      swap2\n      sub\n      swap1\n      return\n        /* \"BEPOwnable.sol\":1218:1304  function isOwner() public view returns (bool) {... */\n    tag_17:\n      tag_85\n      tag_86\n      jump\t// in\n    tag_85:\n      mload(0x40)\n      tag_87\n      swap2\n      swap1\n      tag_37\n      jump\t// in\n    tag_87:\n      mload(0x40)\n      dup1\n      swap2\n      sub\n      swap1\n      return\n        /* \"BEP20Detailed.sol\":802:881  function symbol() public view returns (string memory) {... */\n    tag_18:\n      tag_88\n      tag_89\n      jump\t// in\n    tag_88:\n      mload(0x40)\n      tag_90\n      swap2\n      swap1\n      tag_31\n      jump\t// in\n    tag_90:\n      mload(0x40)\n      dup1\n      swap2\n      sub\n      swap1\n      return\n        /* \"BEP20.sol\":4280:4552  function decreaseAllowance(address spender, uint256 subtractedValue) public returns (bool) {... */\n    tag_19:\n      tag_91\n      0x04\n      dup1\n      calldatasize\n      sub\n      dup2\n      add\n      swap1\n      tag_92\n      swap2\n      swap1\n      tag_34\n      jump\t// in\n    tag_92:\n      tag_93\n      jump\t// in\n    tag_91:\n      mload(0x40)\n      tag_94\n      swap2\n      swap1\n      tag_37\n      jump\t// in\n    tag_94:\n      mload(0x40)\n      dup1\n      swap2\n      sub\n      swap1\n      return\n        /* \"VIMToken.sol\":1687:1843  function setMarketingPool(address _marketingPool) external onlyOwner {... */\n    tag_20:\n      tag_95\n      0x04\n      dup1\n      calldatasize\n      sub\n      dup2\n      add\n      swap1\n      tag_96\n      swap2\n      swap1\n      tag_76\n      jump\t// in\n    tag_96:\n      tag_97\n      jump\t// in\n    tag_95:\n      stop\n        /* \"BEP20.sol\":1865:2027  function transfer(address recipient, uint256 amount) public virtual override returns (bool) {... */\n    tag_21:\n      tag_98\n      0x04\n      dup1\n      calldatasize\n      sub\n      dup2\n      add\n      swap1\n      tag_99\n      swap2\n      swap1\n      tag_34\n      jump\t// in\n    tag_99:\n      tag_100\n      jump\t// in\n    tag_98:\n      mload(0x40)\n      tag_101\n      swap2\n      swap1\n      tag_37\n      jump\t// in\n    tag_101:\n      mload(0x40)\n      dup1\n      swap2\n      sub\n      swap1\n      return\n        /* \"VIMToken.sol\":1495:1683  function setLiquidityPoolStatus(address _lpAddress, bool _status) external onlyOwner {... */\n    tag_22:\n      tag_102\n      0x04\n      dup1\n      calldatasize\n      sub\n      dup2\n      add\n      swap1\n      tag_103\n      swap2\n      swap1\n      tag_44\n      jump\t// in\n    tag_103:\n      tag_104\n      jump\t// in\n    tag_102:\n      stop\n        /* \"BEP20.sol\":2077:2212  function allowance(address owner, address spender) public view override returns (uint256) {... */\n    tag_23:\n      tag_105\n      0x04\n      dup1\n      calldatasize\n      sub\n      dup2\n      add\n      swap1\n      tag_106\n      swap2\n      swap1\n      tag_107\n      jump\t// in\n    tag_106:\n      tag_108\n      jump\t// in\n    tag_105:\n      mload(0x40)\n      tag_109\n      swap2\n      swap1\n      tag_53\n      jump\t// in\n    tag_109:\n      mload(0x40)\n      dup1\n      swap2\n      sub\n      swap1\n      return\n        /* \"BEPOwnable.sol\":1896:1997  function transferOwnership(address newOwner) public onlyOwner {... */\n    tag_24:\n      tag_110\n      0x04\n      dup1\n      calldatasize\n      sub\n      dup2\n      add\n      swap1\n      tag_111\n      swap2\n      swap1\n      tag_76\n      jump\t// in\n    tag_111:\n      tag_112\n      jump\t// in\n    tag_110:\n      stop\n        /* \"BEP20Detailed.sol\":624:699  function name() public view returns (string memory) {... */\n    tag_29:\n        /* \"BEP20Detailed.sol\":661:674  string memory */\n      0x60\n        /* \"BEP20Detailed.sol\":689:694  _name */\n      0x00\n        /* \"BEP20Detailed.sol\":682:694  return _name */\n      dup1\n      sload\n      tag_115\n      swap1\n      tag_116\n      jump\t// in\n    tag_115:\n      dup1\n      0x1f\n      add\n      0x20\n      dup1\n      swap2\n      div\n      mul\n      0x20\n      add\n      mload(0x40)\n      swap1\n      dup2\n      add\n      0x40\n      mstore\n      dup1\n      swap3\n      swap2\n      swap1\n      dup2\n      dup2\n      mstore\n      0x20\n      add\n      dup3\n      dup1\n      sload\n      tag_117\n      swap1\n      tag_116\n      jump\t// in\n    tag_117:\n      dup1\n      iszero\n      tag_118\n      jumpi\n      dup1\n      0x1f\n      lt\n      tag_119\n      jumpi\n      0x0100\n      dup1\n      dup4\n      sload\n      div\n      mul\n      dup4\n      mstore\n      swap2\n      0x20\n      add\n      swap2\n      jump(tag_118)\n    tag_119:\n      dup3\n      add\n      swap2\n      swap1\n      0x00\n      mstore\n      keccak256(0x00, 0x20)\n      swap1\n    tag_120:\n      dup2\n      sload\n      dup2\n      mstore\n      swap1\n      0x01\n      add\n      swap1\n      0x20\n      add\n      dup1\n      dup4\n      gt\n      tag_120\n      jumpi\n      dup3\n      swap1\n      sub\n      0x1f\n      and\n      dup3\n      add\n      swap2\n    tag_118:\n      pop\n      pop\n      pop\n      pop\n      pop\n      swap1\n      pop\n        /* \"BEP20Detailed.sol\":624:699  function name() public view returns (string memory) {... */\n      swap1\n      jump\t// out\n        /* \"BEP20.sol\":2334:2482  function approve(address spender, uint256 amount) public override returns (bool) {... */\n    tag_35:\n        /* \"BEP20.sol\":2409:2413  bool */\n      0x00\n        /* \"BEP20.sol\":2421:2460  _approve(_msgSender(), spender, amount) */\n      tag_122\n        /* \"BEP20.sol\":2430:2442  _msgSender() */\n      tag_123\n        /* \"BEP20.sol\":2430:2440  _msgSender */\n      tag_124\n        /* \"BEP20.sol\":2430:2442  _msgSender() */\n      jump\t// in\n    tag_123:\n        /* \"BEP20.sol\":2444:2451  spender */\n      dup5\n        /* \"BEP20.sol\":2453:2459  amount */\n      dup5\n        /* \"BEP20.sol\":2421:2429  _approve */\n      tag_125\n        /* \"BEP20.sol\":2421:2460  _approve(_msgSender(), spender, amount) */\n      jump\t// in\n    tag_122:\n        /* \"BEP20.sol\":2473:2477  true */\n      0x01\n        /* \"BEP20.sol\":2466:2477  return true */\n      swap1\n      pop\n        /* \"BEP20.sol\":2334:2482  function approve(address spender, uint256 amount) public override returns (bool) {... */\n      swap3\n      swap2\n      pop\n      pop\n      jump\t// out\n        /* \"VIMToken.sol\":1849:2156  function setTaxes(uint8 _sellTax, uint8 _buyTax, uint8 _transferTax) external onlyOwner {... */\n    tag_41:\n        /* \"BEPOwnable.sol\":1085:1094  isOwner() */\n      tag_127\n        /* \"BEPOwnable.sol\":1085:1092  isOwner */\n      tag_86\n        /* \"BEPOwnable.sol\":1085:1094  isOwner() */\n      jump\t// in\n    tag_127:\n        /* \"BEPOwnable.sol\":1077:1131  require(isOwner(), \"Ownable: caller is not the owner\") */\n      tag_128\n      jumpi\n      mload(0x40)\n      0x08c379a000000000000000000000000000000000000000000000000000000000\n      dup2\n      mstore\n      0x04\n      add\n      tag_129\n      swap1\n      tag_130\n      jump\t// in\n    tag_129:\n      mload(0x40)\n      dup1\n      swap2\n      sub\n      swap1\n      revert\n    tag_128:\n        /* \"VIMToken.sol\":1962:1964  10 */\n      0x0a\n        /* \"VIMToken.sol\":1951:1959  _sellTax */\n      dup4\n        /* \"VIMToken.sol\":1951:1964  _sellTax < 10 */\n      0xff\n      and\n      lt\n        /* \"VIMToken.sol\":1943:1965  require(_sellTax < 10) */\n      tag_132\n      jumpi\n      0x00\n      dup1\n      revert\n    tag_132:\n        /* \"VIMToken.sol\":1989:1990  6 */\n      0x06\n        /* \"VIMToken.sol\":1979:1986  _buyTax */\n      dup3\n        /* \"VIMToken.sol\":1979:1990  _buyTax < 6 */\n      0xff\n      and\n      lt\n        /* \"VIMToken.sol\":1971:1991  require(_buyTax < 6) */\n      tag_133\n      jumpi\n      0x00\n      dup1\n      revert\n    tag_133:\n        /* \"VIMToken.sol\":2020:2021  6 */\n      0x06\n        /* \"VIMToken.sol\":2005:2017  _transferTax */\n      dup2\n        /* \"VIMToken.sol\":2005:2021  _transferTax < 6 */\n      0xff\n      and\n      lt\n        /* \"VIMToken.sol\":1997:2022  require(_transferTax < 6) */\n      tag_134\n      jumpi\n      0x00\n      dup1\n      revert\n    tag_134:\n        /* \"VIMToken.sol\":2038:2046  _sellTax */\n      dup3\n        /* \"VIMToken.sol\":2028:2035  sellTax */\n      0x0a\n      0x01\n        /* \"VIMToken.sol\":2028:2046  sellTax = _sellTax */\n      0x0100\n      exp\n      dup2\n      sload\n      dup2\n      0xff\n      mul\n      not\n      and\n      swap1\n      dup4\n      0xff\n      and\n      mul\n      or\n      swap1\n      sstore\n      pop\n        /* \"VIMToken.sol\":2061:2068  _buyTax */\n      dup2\n        /* \"VIMToken.sol\":2052:2058  buyTax */\n      0x0a\n      0x00\n        /* \"VIMToken.sol\":2052:2068  buyTax = _buyTax */\n      0x0100\n      exp\n      dup2\n      sload\n      dup2\n      0xff\n      mul\n      not\n      and\n      swap1\n      dup4\n      0xff\n      and\n      mul\n      or\n      swap1\n      sstore\n      pop\n        /* \"VIMToken.sol\":2088:2100  _transferTax */\n      dup1\n        /* \"VIMToken.sol\":2074:2085  transferTax */\n      0x0a\n      0x03\n        /* \"VIMToken.sol\":2074:2100  transferTax = _transferTax */\n      0x0100\n      exp\n      dup2\n      sload\n      dup2\n      0xff\n      mul\n      not\n      and\n      swap1\n      dup4\n      0xff\n      and\n      mul\n      or\n      swap1\n      sstore\n      pop\n        /* \"VIMToken.sol\":2111:2151  changeTax(_sellTax,_buyTax,_transferTax) */\n      0x8f649eeecb19301c91f9b511096fe7cbc4b2b67bc75bfef33ba3f2745efc386a\n        /* \"VIMToken.sol\":2121:2129  _sellTax */\n      dup4\n        /* \"VIMToken.sol\":2130:2137  _buyTax */\n      dup4\n        /* \"VIMToken.sol\":2138:2150  _transferTax */\n      dup4\n        /* \"VIMToken.sol\":2111:2151  changeTax(_sellTax,_buyTax,_transferTax) */\n      mload(0x40)\n      tag_135\n      swap4\n      swap3\n      swap2\n      swap1\n      tag_62\n      jump\t// in\n    tag_135:\n      mload(0x40)\n      dup1\n      swap2\n      sub\n      swap1\n      log1\n        /* \"VIMToken.sol\":1849:2156  function setTaxes(uint8 _sellTax, uint8 _buyTax, uint8 _transferTax) external onlyOwner {... */\n      pop\n      pop\n      pop\n      jump\t// out\n        /* \"VIMToken.sol\":1176:1332  function setBlacklist(address _wallet, bool _status) external onlyOwner {... */\n    tag_45:\n        /* \"BEPOwnable.sol\":1085:1094  isOwner() */\n      tag_137\n        /* \"BEPOwnable.sol\":1085:1092  isOwner */\n      tag_86\n        /* \"BEPOwnable.sol\":1085:1094  isOwner() */\n      jump\t// in\n    tag_137:\n        /* \"BEPOwnable.sol\":1077:1131  require(isOwner(), \"Ownable: caller is not the owner\") */\n      tag_138\n      jumpi\n      mload(0x40)\n      0x08c379a000000000000000000000000000000000000000000000000000000000\n      dup2\n      mstore\n      0x04\n      add\n      tag_139\n      swap1\n      tag_130\n      jump\t// in\n    tag_139:\n      mload(0x40)\n      dup1\n      swap2\n      sub\n      swap1\n      revert\n    tag_138:\n        /* \"VIMToken.sol\":1276:1283  _status */\n      dup1\n        /* \"VIMToken.sol\":1254:1265  isBlacklist */\n      0x06\n        /* \"VIMToken.sol\":1254:1274  isBlacklist[_wallet] */\n      0x00\n        /* \"VIMToken.sol\":1266:1273  _wallet */\n      dup5\n        /* \"VIMToken.sol\":1254:1274  isBlacklist[_wallet] */\n      0xffffffffffffffffffffffffffffffffffffffff\n      and\n      0xffffffffffffffffffffffffffffffffffffffff\n      and\n      dup2\n      mstore\n      0x20\n      add\n      swap1\n      dup2\n      mstore\n      0x20\n      add\n      0x00\n      keccak256\n      0x00\n        /* \"VIMToken.sol\":1254:1283  isBlacklist[_wallet]= _status */\n      0x0100\n      exp\n      dup2\n      sload\n      dup2\n      0xff\n      mul\n      not\n      and\n      swap1\n      dup4\n      iszero\n      iszero\n      mul\n      or\n      swap1\n      sstore\n      pop\n        /* \"VIMToken.sol\":1294:1327  changeBlacklist(_wallet, _status) */\n      0xf791a94c7f3569546a71acf39c0189bd87bd7b7e3ea76ce41fd41d837cc4bbca\n        /* \"VIMToken.sol\":1310:1317  _wallet */\n      dup3\n        /* \"VIMToken.sol\":1319:1326  _status */\n      dup3\n        /* \"VIMToken.sol\":1294:1327  changeBlacklist(_wallet, _status) */\n      mload(0x40)\n      tag_141\n      swap3\n      swap2\n      swap1\n      tag_142\n      jump\t// in\n    tag_141:\n      mload(0x40)\n      dup1\n      swap2\n      sub\n      swap1\n      log1\n        /* \"VIMToken.sol\":1176:1332  function setBlacklist(address _wallet, bool _status) external onlyOwner {... */\n      pop\n      pop\n      jump\t// out\n        /* \"VIMToken.sol\":1338:1491  function setCooldownForTrades(uint8 _tradeCooldown) external onlyOwner {... */\n    tag_49:\n        /* \"BEPOwnable.sol\":1085:1094  isOwner() */\n      tag_144\n        /* \"BEPOwnable.sol\":1085:1092  isOwner */\n      tag_86\n        /* \"BEPOwnable.sol\":1085:1094  isOwner() */\n      jump\t// in\n    tag_144:\n        /* \"BEPOwnable.sol\":1077:1131  require(isOwner(), \"Ownable: caller is not the owner\") */\n      tag_145\n      jumpi\n      mload(0x40)\n      0x08c379a000000000000000000000000000000000000000000000000000000000\n      dup2\n      mstore\n      0x04\n      add\n      tag_146\n      swap1\n      tag_130\n      jump\t// in\n    tag_146:\n      mload(0x40)\n      dup1\n      swap2\n      sub\n      swap1\n      revert\n    tag_145:\n        /* \"VIMToken.sol\":1431:1445  _tradeCooldown */\n      dup1\n        /* \"VIMToken.sol\":1415:1428  tradeCooldown */\n      0x0a\n      0x02\n        /* \"VIMToken.sol\":1415:1445  tradeCooldown = _tradeCooldown */\n      0x0100\n      exp\n      dup2\n      sload\n      dup2\n      0xff\n      mul\n      not\n      and\n      swap1\n      dup4\n      0xff\n      and\n      mul\n      or\n      swap1\n      sstore\n      pop\n        /* \"VIMToken.sol\":1456:1486  changeCooldown(_tradeCooldown) */\n      0x3dc38872c1e356f05cec7694232d10514dc69ddbdcb883f9687c4d4f7e371e01\n        /* \"VIMToken.sol\":1471:1485  _tradeCooldown */\n      dup2\n        /* \"VIMToken.sol\":1456:1486  changeCooldown(_tradeCooldown) */\n      mload(0x40)\n      tag_148\n      swap2\n      swap1\n      tag_66\n      jump\t// in\n    tag_148:\n      mload(0x40)\n      dup1\n      swap2\n      sub\n      swap1\n      log1\n        /* \"VIMToken.sol\":1338:1491  function setCooldownForTrades(uint8 _tradeCooldown) external onlyOwner {... */\n      pop\n      jump\t// out\n        /* \"BEP20.sol\":1427:1519  function totalSupply() public view override returns (uint256) {... */\n    tag_51:\n        /* \"BEP20.sol\":1480:1487  uint256 */\n      0x00\n        /* \"BEP20.sol\":1502:1514  _totalSupply */\n      sload(0x05)\n        /* \"BEP20.sol\":1495:1514  return _totalSupply */\n      swap1\n      pop\n        /* \"BEP20.sol\":1427:1519  function totalSupply() public view override returns (uint256) {... */\n      swap1\n      jump\t// out\n        /* \"BEP20.sol\":2914:3257  function transferFrom(... */\n    tag_57:\n        /* \"BEP20.sol\":3036:3040  bool */\n      0x00\n        /* \"BEP20.sol\":3048:3084  _transfer(sender, recipient, amount) */\n      tag_151\n        /* \"BEP20.sol\":3058:3064  sender */\n      dup5\n        /* \"BEP20.sol\":3066:3075  recipient */\n      dup5\n        /* \"BEP20.sol\":3077:3083  amount */\n      dup5\n        /* \"BEP20.sol\":3048:3057  _transfer */\n      tag_152\n        /* \"BEP20.sol\":3048:3084  _transfer(sender, recipient, amount) */\n      jump\t// in\n    tag_151:\n        /* \"BEP20.sol\":3090:3235  _approve(... */\n      tag_153\n        /* \"BEP20.sol\":3106:3112  sender */\n      dup5\n        /* \"BEP20.sol\":3120:3132  _msgSender() */\n      tag_154\n        /* \"BEP20.sol\":3120:3130  _msgSender */\n      tag_124\n        /* \"BEP20.sol\":3120:3132  _msgSender() */\n      jump\t// in\n    tag_154:\n        /* \"BEP20.sol\":3140:3229  _allowances[sender][_msgSender()].sub(amount, \"BEP20: transfer amount exceeds allowance\") */\n      tag_155\n        /* \"BEP20.sol\":3178:3184  amount */\n      dup6\n        /* \"BEP20.sol\":3140:3229  _allowances[sender][_msgSender()].sub(amount, \"BEP20: transfer amount exceeds allowance\") */\n      mload(0x40)\n      dup1\n      0x60\n      add\n      0x40\n      mstore\n      dup1\n      0x28\n      dup2\n      mstore\n      0x20\n      add\n      data_4f3506f4ba71c79c3cbd442a3afeb30e9b27af2d84e116a4385b34e267d2287e\n      0x28\n      swap2\n      codecopy\n        /* \"BEP20.sol\":3140:3151  _allowances */\n      0x04\n        /* \"BEP20.sol\":3140:3159  _allowances[sender] */\n      0x00\n        /* \"BEP20.sol\":3152:3158  sender */\n      dup12\n        /* \"BEP20.sol\":3140:3159  _allowances[sender] */\n      0xffffffffffffffffffffffffffffffffffffffff\n      and\n      0xffffffffffffffffffffffffffffffffffffffff\n      and\n      dup2\n      mstore\n      0x20\n      add\n      swap1\n      dup2\n      mstore\n      0x20\n      add\n      0x00\n      keccak256\n        /* \"BEP20.sol\":3140:3173  _allowances[sender][_msgSender()] */\n      0x00\n        /* \"BEP20.sol\":3160:3172  _msgSender() */\n      tag_156\n        /* \"BEP20.sol\":3160:3170  _msgSender */\n      tag_124\n        /* \"BEP20.sol\":3160:3172  _msgSender() */\n      jump\t// in\n    tag_156:\n        /* \"BEP20.sol\":3140:3173  _allowances[sender][_msgSender()] */\n      0xffffffffffffffffffffffffffffffffffffffff\n      and\n      0xffffffffffffffffffffffffffffffffffffffff\n      and\n      dup2\n      mstore\n      0x20\n      add\n      swap1\n      dup2\n      mstore\n      0x20\n      add\n      0x00\n      keccak256\n      sload\n        /* \"BEP20.sol\":3140:3177  _allowances[sender][_msgSender()].sub */\n      tag_157\n      swap1\n        /* \"BEP20.sol\":3140:3229  _allowances[sender][_msgSender()].sub(amount, \"BEP20: transfer amount exceeds allowance\") */\n      swap3\n      swap2\n      swap1\n      0xffffffff\n      and\n      jump\t// in\n    tag_155:\n        /* \"BEP20.sol\":3090:3098  _approve */\n      tag_125\n        /* \"BEP20.sol\":3090:3235  _approve(... */\n      jump\t// in\n    tag_153:\n        /* \"BEP20.sol\":3248:3252  true */\n      0x01\n        /* \"BEP20.sol\":3241:3252  return true */\n      swap1\n      pop\n        /* \"BEP20.sol\":2914:3257  function transferFrom(... */\n      swap4\n      swap3\n      pop\n      pop\n      pop\n      jump\t// out\n        /* \"VIMToken.sol\":2160:2302  function getTaxes() external view returns (uint8 _sellTax, uint8 _buyTax, uint8 _transferTax) {... */\n    tag_60:\n        /* \"VIMToken.sol\":2203:2217  uint8 _sellTax */\n      0x00\n        /* \"VIMToken.sol\":2219:2232  uint8 _buyTax */\n      dup1\n        /* \"VIMToken.sol\":2234:2252  uint8 _transferTax */\n      0x00\n        /* \"VIMToken.sol\":2268:2275  sellTax */\n      0x0a\n      0x01\n      swap1\n      sload\n      swap1\n      0x0100\n      exp\n      swap1\n      div\n      0xff\n      and\n        /* \"VIMToken.sol\":2277:2283  buyTax */\n      0x0a\n      0x00\n      swap1\n      sload\n      swap1\n      0x0100\n      exp\n      swap1\n      div\n      0xff\n      and\n        /* \"VIMToken.sol\":2285:2296  transferTax */\n      0x0a\n      0x03\n      swap1\n      sload\n      swap1\n      0x0100\n      exp\n      swap1\n      div\n      0xff\n      and\n        /* \"VIMToken.sol\":2260:2297  return (sellTax, buyTax, transferTax) */\n      swap3\n      pop\n      swap3\n      pop\n      swap3\n      pop\n        /* \"VIMToken.sol\":2160:2302  function getTaxes() external view returns (uint8 _sellTax, uint8 _buyTax, uint8 _transferTax) {... */\n      swap1\n      swap2\n      swap3\n      jump\t// out\n        /* \"BEP20Detailed.sol\":1404:1479  function decimals() public view returns (uint8) {... */\n    tag_64:\n        /* \"BEP20Detailed.sol\":1445:1450  uint8 */\n      0x00\n        /* \"BEP20Detailed.sol\":1465:1474  _decimals */\n      0x02\n      0x00\n      swap1\n      sload\n      swap1\n      0x0100\n      exp\n      swap1\n      div\n      0xff\n      and\n        /* \"BEP20Detailed.sol\":1458:1474  return _decimals */\n      swap1\n      pop\n        /* \"BEP20Detailed.sol\":1404:1479  function decimals() public view returns (uint8) {... */\n      swap1\n      jump\t// out\n        /* \"BEP20.sol\":3626:3823  function increaseAllowance(address spender, uint256 addedValue) public returns (bool) {... */\n    tag_69:\n        /* \"BEP20.sol\":3706:3710  bool */\n      0x00\n        /* \"BEP20.sol\":3718:3801  _approve(_msgSender(), spender, _allowances[_msgSender()][spender].add(addedValue)) */\n      tag_161\n        /* \"BEP20.sol\":3727:3739  _msgSender() */\n      tag_162\n        /* \"BEP20.sol\":3727:3737  _msgSender */\n      tag_124\n        /* \"BEP20.sol\":3727:3739  _msgSender() */\n      jump\t// in\n    tag_162:\n        /* \"BEP20.sol\":3741:3748  spender */\n      dup5\n        /* \"BEP20.sol\":3750:3800  _allowances[_msgSender()][spender].add(addedValue) */\n      tag_163\n        /* \"BEP20.sol\":3789:3799  addedValue */\n      dup6\n        /* \"BEP20.sol\":3750:3761  _allowances */\n      0x04\n        /* \"BEP20.sol\":3750:3775  _allowances[_msgSender()] */\n      0x00\n        /* \"BEP20.sol\":3762:3774  _msgSender() */\n      tag_164\n        /* \"BEP20.sol\":3762:3772  _msgSender */\n      tag_124\n        /* \"BEP20.sol\":3762:3774  _msgSender() */\n      jump\t// in\n    tag_164:\n        /* \"BEP20.sol\":3750:3775  _allowances[_msgSender()] */\n      0xffffffffffffffffffffffffffffffffffffffff\n      and\n      0xffffffffffffffffffffffffffffffffffffffff\n      and\n      dup2\n      mstore\n      0x20\n      add\n      swap1\n      dup2\n      mstore\n      0x20\n      add\n      0x00\n      keccak256\n        /* \"BEP20.sol\":3750:3784  _allowances[_msgSender()][spender] */\n      0x00\n        /* \"BEP20.sol\":3776:3783  spender */\n      dup10\n        /* \"BEP20.sol\":3750:3784  _allowances[_msgSender()][spender] */\n      0xffffffffffffffffffffffffffffffffffffffff\n      and\n      0xffffffffffffffffffffffffffffffffffffffff\n      and\n      dup2\n      mstore\n      0x20\n      add\n      swap1\n      dup2\n      mstore\n      0x20\n      add\n      0x00\n      keccak256\n      sload\n        /* \"BEP20.sol\":3750:3788  _allowances[_msgSender()][spender].add */\n      tag_113\n      swap1\n        /* \"BEP20.sol\":3750:3800  _allowances[_msgSender()][spender].add(addedValue) */\n      swap2\n      swap1\n      0xffffffff\n      and\n      jump\t// in\n    tag_163:\n        /* \"BEP20.sol\":3718:3726  _approve */\n      tag_125\n        /* \"BEP20.sol\":3718:3801  _approve(_msgSender(), spender, _allowances[_msgSender()][spender].add(addedValue)) */\n      jump\t// in\n    tag_161:\n        /* \"BEP20.sol\":3814:3818  true */\n      0x01\n        /* \"BEP20.sol\":3807:3818  return true */\n      swap1\n      pop\n        /* \"BEP20.sol\":3626:3823  function increaseAllowance(address spender, uint256 addedValue) public returns (bool) {... */\n      swap3\n      swap2\n      pop\n      pop\n      jump\t// out\n        /* \"VIMToken.sol\":2308:2472  function setWhitelist(address _address, bool _status) external onlyOwner {... */\n    tag_73:\n        /* \"BEPOwnable.sol\":1085:1094  isOwner() */\n      tag_166\n        /* \"BEPOwnable.sol\":1085:1092  isOwner */\n      tag_86\n        /* \"BEPOwnable.sol\":1085:1094  isOwner() */\n      jump\t// in\n    tag_166:\n        /* \"BEPOwnable.sol\":1077:1131  require(isOwner(), \"Ownable: caller is not the owner\") */\n      tag_167\n      jumpi\n      mload(0x40)\n      0x08c379a000000000000000000000000000000000000000000000000000000000\n      dup2\n      mstore\n      0x04\n      add\n      tag_168\n      swap1\n      tag_130\n      jump\t// in\n    tag_168:\n      mload(0x40)\n      dup1\n      swap2\n      sub\n      swap1\n      revert\n    tag_167:\n        /* \"VIMToken.sol\":2412:2419  _status */\n      dup1\n        /* \"VIMToken.sol\":2387:2399  whitelistTax */\n      0x08\n        /* \"VIMToken.sol\":2387:2409  whitelistTax[_address] */\n      0x00\n        /* \"VIMToken.sol\":2400:2408  _address */\n      dup5\n        /* \"VIMToken.sol\":2387:2409  whitelistTax[_address] */\n      0xffffffffffffffffffffffffffffffffffffffff\n      and\n      0xffffffffffffffffffffffffffffffffffffffff\n      and\n      dup2\n      mstore\n      0x20\n      add\n      swap1\n      dup2\n      mstore\n      0x20\n      add\n      0x00\n      keccak256\n      0x00\n        /* \"VIMToken.sol\":2387:2419  whitelistTax[_address] = _status */\n      0x0100\n      exp\n      dup2\n      sload\n      dup2\n      0xff\n      mul\n      not\n      and\n      swap1\n      dup4\n      iszero\n      iszero\n      mul\n      or\n      swap1\n      sstore\n      pop\n        /* \"VIMToken.sol\":2430:2467  changeWhitelistTax(_address, _status) */\n      0xe41efe2ec3272dff61fc1d94fe807a61b44e66814abe5f463e98a100b9bb852c\n        /* \"VIMToken.sol\":2449:2457  _address */\n      dup3\n        /* \"VIMToken.sol\":2459:2466  _status */\n      dup3\n        /* \"VIMToken.sol\":2430:2467  changeWhitelistTax(_address, _status) */\n      mload(0x40)\n      tag_170\n      swap3\n      swap2\n      swap1\n      tag_142\n      jump\t// in\n    tag_170:\n      mload(0x40)\n      dup1\n      swap2\n      sub\n      swap1\n      log1\n        /* \"VIMToken.sol\":2308:2472  function setWhitelist(address _address, bool _status) external onlyOwner {... */\n      pop\n      pop\n      jump\t// out\n        /* \"BEP20.sol\":1569:1680  function balanceOf(address account) public view override returns (uint256) {... */\n    tag_77:\n        /* \"BEP20.sol\":1635:1642  uint256 */\n      0x00\n        /* \"BEP20.sol\":1657:1666  _balances */\n      0x03\n        /* \"BEP20.sol\":1657:1675  _balances[account] */\n      0x00\n        /* \"BEP20.sol\":1667:1674  account */\n      dup4\n        /* \"BEP20.sol\":1657:1675  _balances[account] */\n      0xffffffffffffffffffffffffffffffffffffffff\n      and\n      0xffffffffffffffffffffffffffffffffffffffff\n      and\n      dup2\n      mstore\n      0x20\n      add\n      swap1\n      dup2\n      mstore\n      0x20\n      add\n      0x00\n      keccak256\n      sload\n        /* \"BEP20.sol\":1650:1675  return _balances[account] */\n      swap1\n      pop\n        /* \"BEP20.sol\":1569:1680  function balanceOf(address account) public view override returns (uint256) {... */\n      swap2\n      swap1\n      pop\n      jump\t// out\n        /* \"BEPOwnable.sol\":1630:1757  function renounceOwnership() public onlyOwner {... */\n    tag_80:\n        /* \"BEPOwnable.sol\":1085:1094  isOwner() */\n      tag_173\n        /* \"BEPOwnable.sol\":1085:1092  isOwner */\n      tag_86\n        /* \"BEPOwnable.sol\":1085:1094  isOwner() */\n      jump\t// in\n    tag_173:\n        /* \"BEPOwnable.sol\":1077:1131  require(isOwner(), \"Ownable: caller is not the owner\") */\n      tag_174\n      jumpi\n      mload(0x40)\n      0x08c379a000000000000000000000000000000000000000000000000000000000\n      dup2\n      mstore\n      0x04\n      add\n      tag_175\n      swap1\n      tag_130\n      jump\t// in\n    tag_175:\n      mload(0x40)\n      dup1\n      swap2\n      sub\n      swap1\n      revert\n    tag_174:\n        /* \"BEPOwnable.sol\":1724:1725  0 */\n      0x00\n        /* \"BEPOwnable.sol\":1687:1727  OwnershipTransferred(_owner, address(0)) */\n      0xffffffffffffffffffffffffffffffffffffffff\n      and\n        /* \"BEPOwnable.sol\":1708:1714  _owner */\n      0x02\n      0x01\n      swap1\n      sload\n      swap1\n      0x0100\n      exp\n      swap1\n      div\n      0xffffffffffffffffffffffffffffffffffffffff\n      and\n        /* \"BEPOwnable.sol\":1687:1727  OwnershipTransferred(_owner, address(0)) */\n      0xffffffffffffffffffffffffffffffffffffffff\n      and\n      0x8be0079c531659141344cd1fd0a4f28419497f9722a3daafe3b4186f6b6457e0\n      mload(0x40)\n      mload(0x40)\n      dup1\n      swap2\n      sub\n      swap1\n      log3\n        /* \"BEPOwnable.sol\":1750:1751  0 */\n      0x00\n        /* \"BEPOwnable.sol\":1733:1739  _owner */\n      0x02\n      0x01\n        /* \"BEPOwnable.sol\":1733:1752  _owner = address(0) */\n      0x0100\n      exp\n      dup2\n      sload\n      dup2\n      0xffffffffffffffffffffffffffffffffffffffff\n      mul\n      not\n      and\n      swap1\n      dup4\n      0xffffffffffffffffffffffffffffffffffffffff\n      and\n      mul\n      or\n      swap1\n      sstore\n      pop\n        /* \"BEPOwnable.sol\":1630:1757  function renounceOwnership() public onlyOwner {... */\n      jump\t// out\n        /* \"BEPOwnable.sol\":899:970  function owner() public view returns (address) {... */\n    tag_82:\n        /* \"BEPOwnable.sol\":937:944  address */\n      0x00\n        /* \"BEPOwnable.sol\":959:965  _owner */\n      0x02\n      0x01\n      swap1\n      sload\n      swap1\n      0x0100\n      exp\n      swap1\n      div\n      0xffffffffffffffffffffffffffffffffffffffff\n      and\n        /* \"BEPOwnable.sol\":952:965  return _owner */\n      swap1\n      pop\n        /* \"BEPOwnable.sol\":899:970  function owner() public view returns (address) {... */\n      swap1\n      jump\t// out\n        /* \"BEPOwnable.sol\":1218:1304  function isOwner() public view returns (bool) {... */\n    tag_86:\n        /* \"BEPOwnable.sol\":1258:1262  bool */\n      0x00\n        /* \"BEPOwnable.sol\":1293:1299  _owner */\n      0x02\n      0x01\n      swap1\n      sload\n      swap1\n      0x0100\n      exp\n      swap1\n      div\n      0xffffffffffffffffffffffffffffffffffffffff\n      and\n        /* \"BEPOwnable.sol\":1277:1299  _msgSender() == _owner */\n      0xffffffffffffffffffffffffffffffffffffffff\n      and\n        /* \"BEPOwnable.sol\":1277:1289  _msgSender() */\n      tag_179\n        /* \"BEPOwnable.sol\":1277:1287  _msgSender */\n      tag_124\n        /* \"BEPOwnable.sol\":1277:1289  _msgSender() */\n      jump\t// in\n    tag_179:\n        /* \"BEPOwnable.sol\":1277:1299  _msgSender() == _owner */\n      0xffffffffffffffffffffffffffffffffffffffff\n      and\n      eq\n        /* \"BEPOwnable.sol\":1270:1299  return _msgSender() == _owner */\n      swap1\n      pop\n        /* \"BEPOwnable.sol\":1218:1304  function isOwner() public view returns (bool) {... */\n      swap1\n      jump\t// out\n        /* \"BEP20Detailed.sol\":802:881  function symbol() public view returns (string memory) {... */\n    tag_89:\n        /* \"BEP20Detailed.sol\":841:854  string memory */\n      0x60\n        /* \"BEP20Detailed.sol\":869:876  _symbol */\n      0x01\n        /* \"BEP20Detailed.sol\":862:876  return _symbol */\n      dup1\n      sload\n      tag_181\n      swap1\n      tag_116\n      jump\t// in\n    tag_181:\n      dup1\n      0x1f\n      add\n      0x20\n      dup1\n      swap2\n      div\n      mul\n      0x20\n      add\n      mload(0x40)\n      swap1\n      dup2\n      add\n      0x40\n      mstore\n      dup1\n      swap3\n      swap2\n      swap1\n      dup2\n      dup2\n      mstore\n      0x20\n      add\n      dup3\n      dup1\n      sload\n      tag_182\n      swap1\n      tag_116\n      jump\t// in\n    tag_182:\n      dup1\n      iszero\n      tag_183\n      jumpi\n      dup1\n      0x1f\n      lt\n      tag_184\n      jumpi\n      0x0100\n      dup1\n      dup4\n      sload\n      div\n      mul\n      dup4\n      mstore\n      swap2\n      0x20\n      add\n      swap2\n      jump(tag_183)\n    tag_184:\n      dup3\n      add\n      swap2\n      swap1\n      0x00\n      mstore\n      keccak256(0x00, 0x20)\n      swap1\n    tag_185:\n      dup2\n      sload\n      dup2\n      mstore\n      swap1\n      0x01\n      add\n      swap1\n      0x20\n      add\n      dup1\n      dup4\n      gt\n      tag_185\n      jumpi\n      dup3\n      swap1\n      sub\n      0x1f\n      and\n      dup3\n      add\n      swap2\n    tag_183:\n      pop\n      pop\n      pop\n      pop\n      pop\n      swap1\n      pop\n        /* \"BEP20Detailed.sol\":802:881  function symbol() public view returns (string memory) {... */\n      swap1\n      jump\t// out\n        /* \"BEP20.sol\":4280:4552  function decreaseAllowance(address spender, uint256 subtractedValue) public returns (bool) {... */\n    tag_93:\n        /* \"BEP20.sol\":4365:4369  bool */\n      0x00\n        /* \"BEP20.sol\":4377:4530  _approve(... */\n      tag_187\n        /* \"BEP20.sol\":4393:4405  _msgSender() */\n      tag_188\n        /* \"BEP20.sol\":4393:4403  _msgSender */\n      tag_124\n        /* \"BEP20.sol\":4393:4405  _msgSender() */\n      jump\t// in\n    tag_188:\n        /* \"BEP20.sol\":4413:4420  spender */\n      dup5\n        /* \"BEP20.sol\":4428:4524  _allowances[_msgSender()][spender].sub(subtractedValue, \"BEP20: decreased allowance below zero\") */\n      tag_189\n        /* \"BEP20.sol\":4467:4482  subtractedValue */\n      dup6\n        /* \"BEP20.sol\":4428:4524  _allowances[_msgSender()][spender].sub(subtractedValue, \"BEP20: decreased allowance below zero\") */\n      mload(0x40)\n      dup1\n      0x60\n      add\n      0x40\n      mstore\n      dup1\n      0x25\n      dup2\n      mstore\n      0x20\n      add\n      data_b7060b3538dcd3ddc8a941c91636a8115a1aa46914747fd9809d543bbb46cd22\n      0x25\n      swap2\n      codecopy\n        /* \"BEP20.sol\":4428:4439  _allowances */\n      0x04\n        /* \"BEP20.sol\":4428:4453  _allowances[_msgSender()] */\n      0x00\n        /* \"BEP20.sol\":4440:4452  _msgSender() */\n      tag_190\n        /* \"BEP20.sol\":4440:4450  _msgSender */\n      tag_124\n        /* \"BEP20.sol\":4440:4452  _msgSender() */\n      jump\t// in\n    tag_190:\n        /* \"BEP20.sol\":4428:4453  _allowances[_msgSender()] */\n      0xffffffffffffffffffffffffffffffffffffffff\n      and\n      0xffffffffffffffffffffffffffffffffffffffff\n      and\n      dup2\n      mstore\n      0x20\n      add\n      swap1\n      dup2\n      mstore\n      0x20\n      add\n      0x00\n      keccak256\n        /* \"BEP20.sol\":4428:4462  _allowances[_msgSender()][spender] */\n      0x00\n        /* \"BEP20.sol\":4454:4461  spender */\n      dup11\n        /* \"BEP20.sol\":4428:4462  _allowances[_msgSender()][spender] */\n      0xffffffffffffffffffffffffffffffffffffffff\n      and\n      0xffffffffffffffffffffffffffffffffffffffff\n      and\n      dup2\n      mstore\n      0x20\n      add\n      swap1\n      dup2\n      mstore\n      0x20\n      add\n      0x00\n      keccak256\n      sload\n        /* \"BEP20.sol\":4428:4466  _allowances[_msgSender()][spender].sub */\n      tag_157\n      swap1\n        /* \"BEP20.sol\":4428:4524  _allowances[_msgSender()][spender].sub(subtractedValue, \"BEP20: decreased allowance below zero\") */\n      swap3\n      swap2\n      swap1\n      0xffffffff\n      and\n      jump\t// in\n    tag_189:\n        /* \"BEP20.sol\":4377:4385  _approve */\n      tag_125\n        /* \"BEP20.sol\":4377:4530  _approve(... */\n      jump\t// in\n    tag_187:\n        /* \"BEP20.sol\":4543:4547  true */\n      0x01\n        /* \"BEP20.sol\":4536:4547  return true */\n      swap1\n      pop\n        /* \"BEP20.sol\":4280:4552  function decreaseAllowance(address spender, uint256 subtractedValue) public returns (bool) {... */\n      swap3\n      swap2\n      pop\n      pop\n      jump\t// out\n        /* \"VIMToken.sol\":1687:1843  function setMarketingPool(address _marketingPool) external onlyOwner {... */\n    tag_97:\n        /* \"BEPOwnable.sol\":1085:1094  isOwner() */\n      tag_192\n        /* \"BEPOwnable.sol\":1085:1092  isOwner */\n      tag_86\n        /* \"BEPOwnable.sol\":1085:1094  isOwner() */\n      jump\t// in\n    tag_192:\n        /* \"BEPOwnable.sol\":1077:1131  require(isOwner(), \"Ownable: caller is not the owner\") */\n      tag_193\n      jumpi\n      mload(0x40)\n      0x08c379a000000000000000000000000000000000000000000000000000000000\n      dup2\n      mstore\n      0x04\n      add\n      tag_194\n      swap1\n      tag_130\n      jump\t// in\n    tag_194:\n      mload(0x40)\n      dup1\n      swap2\n      sub\n      swap1\n      revert\n    tag_193:\n        /* \"VIMToken.sol\":1778:1792  _marketingPool */\n      dup1\n        /* \"VIMToken.sol\":1762:1775  marketingPool */\n      0x0c\n      0x00\n        /* \"VIMToken.sol\":1762:1792  marketingPool = _marketingPool */\n      0x0100\n      exp\n      dup2\n      sload\n      dup2\n      0xffffffffffffffffffffffffffffffffffffffff\n      mul\n      not\n      and\n      swap1\n      dup4\n      0xffffffffffffffffffffffffffffffffffffffff\n      and\n      mul\n      or\n      swap1\n      sstore\n      pop\n        /* \"VIMToken.sol\":1803:1838  changeMarketingPool(_marketingPool) */\n      0xf15d5716db5d5d79f695e387fc3e7c89982c0df6f4b81a006e38cfdc850a712e\n        /* \"VIMToken.sol\":1823:1837  _marketingPool */\n      dup2\n        /* \"VIMToken.sol\":1803:1838  changeMarketingPool(_marketingPool) */\n      mload(0x40)\n      tag_196\n      swap2\n      swap1\n      tag_84\n      jump\t// in\n    tag_196:\n      mload(0x40)\n      dup1\n      swap2\n      sub\n      swap1\n      log1\n        /* \"VIMToken.sol\":1687:1843  function setMarketingPool(address _marketingPool) external onlyOwner {... */\n      pop\n      jump\t// out\n        /* \"BEP20.sol\":1865:2027  function transfer(address recipient, uint256 amount) public virtual override returns (bool) {... */\n    tag_100:\n        /* \"BEP20.sol\":1951:1955  bool */\n      0x00\n        /* \"BEP20.sol\":1963:2005  _transfer(_msgSender(), recipient, amount) */\n      tag_198\n        /* \"BEP20.sol\":1973:1985  _msgSender() */\n      tag_199\n        /* \"BEP20.sol\":1973:1983  _msgSender */\n      tag_124\n        /* \"BEP20.sol\":1973:1985  _msgSender() */\n      jump\t// in\n    tag_199:\n        /* \"BEP20.sol\":1987:1996  recipient */\n      dup5\n        /* \"BEP20.sol\":1998:2004  amount */\n      dup5\n        /* \"BEP20.sol\":1963:1972  _transfer */\n      tag_152\n        /* \"BEP20.sol\":1963:2005  _transfer(_msgSender(), recipient, amount) */\n      jump\t// in\n    tag_198:\n        /* \"BEP20.sol\":2018:2022  true */\n      0x01\n        /* \"BEP20.sol\":2011:2022  return true */\n      swap1\n      pop\n        /* \"BEP20.sol\":1865:2027  function transfer(address recipient, uint256 amount) public virtual override returns (bool) {... */\n      swap3\n      swap2\n      pop\n      pop\n      jump\t// out\n        /* \"VIMToken.sol\":1495:1683  function setLiquidityPoolStatus(address _lpAddress, bool _status) external onlyOwner {... */\n    tag_104:\n        /* \"BEPOwnable.sol\":1085:1094  isOwner() */\n      tag_201\n        /* \"BEPOwnable.sol\":1085:1092  isOwner */\n      tag_86\n        /* \"BEPOwnable.sol\":1085:1094  isOwner() */\n      jump\t// in\n    tag_201:\n        /* \"BEPOwnable.sol\":1077:1131  require(isOwner(), \"Ownable: caller is not the owner\") */\n      tag_202\n      jumpi\n      mload(0x40)\n      0x08c379a000000000000000000000000000000000000000000000000000000000\n      dup2\n      mstore\n      0x04\n      add\n      tag_203\n      swap1\n      tag_130\n      jump\t// in\n    tag_203:\n      mload(0x40)\n      dup1\n      swap2\n      sub\n      swap1\n      revert\n    tag_202:\n        /* \"VIMToken.sol\":1614:1621  _status */\n      dup1\n        /* \"VIMToken.sol\":1586:1599  liquidityPool */\n      0x07\n        /* \"VIMToken.sol\":1586:1611  liquidityPool[_lpAddress] */\n      0x00\n        /* \"VIMToken.sol\":1600:1610  _lpAddress */\n      dup5\n        /* \"VIMToken.sol\":1586:1611  liquidityPool[_lpAddress] */\n      0xffffffffffffffffffffffffffffffffffffffff\n      and\n      0xffffffffffffffffffffffffffffffffffffffff\n      and\n      dup2\n      mstore\n      0x20\n      add\n      swap1\n      dup2\n      mstore\n      0x20\n      add\n      0x00\n      keccak256\n      0x00\n        /* \"VIMToken.sol\":1586:1621  liquidityPool[_lpAddress] = _status */\n      0x0100\n      exp\n      dup2\n      sload\n      dup2\n      0xff\n      mul\n      not\n      and\n      swap1\n      dup4\n      iszero\n      iszero\n      mul\n      or\n      swap1\n      sstore\n      pop\n        /* \"VIMToken.sol\":1632:1678  changeLiquidityPoolStatus(_lpAddress, _status) */\n      0x50d3135c1831a86bdc04740f17c94415767240d338df5795b37fb5b8272f80d7\n        /* \"VIMToken.sol\":1658:1668  _lpAddress */\n      dup3\n        /* \"VIMToken.sol\":1670:1677  _status */\n      dup3\n        /* \"VIMToken.sol\":1632:1678  changeLiquidityPoolStatus(_lpAddress, _status) */\n      mload(0x40)\n      tag_205\n      swap3\n      swap2\n      swap1\n      tag_142\n      jump\t// in\n    tag_205:\n      mload(0x40)\n      dup1\n      swap2\n      sub\n      swap1\n      log1\n        /* \"VIMToken.sol\":1495:1683  function setLiquidityPoolStatus(address _lpAddress, bool _status) external onlyOwner {... */\n      pop\n      pop\n      jump\t// out\n        /* \"BEP20.sol\":2077:2212  function allowance(address owner, address spender) public view override returns (uint256) {... */\n    tag_108:\n        /* \"BEP20.sol\":2158:2165  uint256 */\n      0x00\n        /* \"BEP20.sol\":2180:2191  _allowances */\n      0x04\n        /* \"BEP20.sol\":2180:2198  _allowances[owner] */\n      0x00\n        /* \"BEP20.sol\":2192:2197  owner */\n      dup5\n        /* \"BEP20.sol\":2180:2198  _allowances[owner] */\n      0xffffffffffffffffffffffffffffffffffffffff\n      and\n      0xffffffffffffffffffffffffffffffffffffffff\n      and\n      dup2\n      mstore\n      0x20\n      add\n      swap1\n      dup2\n      mstore\n      0x20\n      add\n      0x00\n      keccak256\n        /* \"BEP20.sol\":2180:2207  _allowances[owner][spender] */\n      0x00\n        /* \"BEP20.sol\":2199:2206  spender */\n      dup4\n        /* \"BEP20.sol\":2180:2207  _allowances[owner][spender] */\n      0xffffffffffffffffffffffffffffffffffffffff\n      and\n      0xffffffffffffffffffffffffffffffffffffffff\n      and\n      dup2\n      mstore\n      0x20\n      add\n      swap1\n      dup2\n      mstore\n      0x20\n      add\n      0x00\n      keccak256\n      sload\n        /* \"BEP20.sol\":2173:2207  return _allowances[owner][spender] */\n      swap1\n      pop\n        /* \"BEP20.sol\":2077:2212  function allowance(address owner, address spender) public view override returns (uint256) {... */\n      swap3\n      swap2\n      pop\n      pop\n      jump\t// out\n        /* \"BEPOwnable.sol\":1896:1997  function transferOwnership(address newOwner) public onlyOwner {... */\n    tag_112:\n        /* \"BEPOwnable.sol\":1085:1094  isOwner() */\n      tag_208\n        /* \"BEPOwnable.sol\":1085:1092  isOwner */\n      tag_86\n        /* \"BEPOwnable.sol\":1085:1094  isOwner() */\n      jump\t// in\n    tag_208:\n        /* \"BEPOwnable.sol\":1077:1131  require(isOwner(), \"Ownable: caller is not the owner\") */\n      tag_209\n      jumpi\n      mload(0x40)\n      0x08c379a000000000000000000000000000000000000000000000000000000000\n      dup2\n      mstore\n      0x04\n      add\n      tag_210\n      swap1\n      tag_130\n      jump\t// in\n    tag_210:\n      mload(0x40)\n      dup1\n      swap2\n      sub\n      swap1\n      revert\n    tag_209:\n        /* \"BEPOwnable.sol\":1964:1992  _transferOwnership(newOwner) */\n      tag_212\n        /* \"BEPOwnable.sol\":1983:1991  newOwner */\n      dup2\n        /* \"BEPOwnable.sol\":1964:1982  _transferOwnership */\n      tag_213\n        /* \"BEPOwnable.sol\":1964:1992  _transferOwnership(newOwner) */\n      jump\t// in\n    tag_212:\n        /* \"BEPOwnable.sol\":1896:1997  function transferOwnership(address newOwner) public onlyOwner {... */\n      pop\n      jump\t// out\n        /* \"SafeMath.sol\":858:1020  function add(uint256 a, uint256 b) internal pure returns (uint256) {... */\n    tag_113:\n        /* \"SafeMath.sol\":916:923  uint256 */\n      0x00\n        /* \"SafeMath.sol\":931:940  uint256 c */\n      dup1\n        /* \"SafeMath.sol\":947:948  b */\n      dup3\n        /* \"SafeMath.sol\":943:944  a */\n      dup5\n        /* \"SafeMath.sol\":943:948  a + b */\n      tag_215\n      swap2\n      swap1\n      tag_216\n      jump\t// in\n    tag_215:\n        /* \"SafeMath.sol\":931:948  uint256 c = a + b */\n      swap1\n      pop\n        /* \"SafeMath.sol\":967:968  a */\n      dup4\n        /* \"SafeMath.sol\":962:963  c */\n      dup2\n        /* \"SafeMath.sol\":962:968  c >= a */\n      lt\n      iszero\n        /* \"SafeMath.sol\":954:1000  require(c >= a, \"SafeMath: addition overflow\") */\n      tag_217\n      jumpi\n      mload(0x40)\n      0x08c379a000000000000000000000000000000000000000000000000000000000\n      dup2\n      mstore\n      0x04\n      add\n      tag_218\n      swap1\n      tag_219\n      jump\t// in\n    tag_218:\n      mload(0x40)\n      dup1\n      swap2\n      sub\n      swap1\n      revert\n    tag_217:\n        /* \"SafeMath.sol\":1014:1015  c */\n      dup1\n        /* \"SafeMath.sol\":1007:1015  return c */\n      swap2\n      pop\n      pop\n        /* \"SafeMath.sol\":858:1020  function add(uint256 a, uint256 b) internal pure returns (uint256) {... */\n      swap3\n      swap2\n      pop\n      pop\n      jump\t// out\n        /* \"BEPContext.sol\":760:859  function _msgSender() internal view returns (address payable) {... */\n    tag_124:\n        /* \"BEPContext.sol\":805:820  address payable */\n      0x00\n        /* \"BEPContext.sol\":843:853  msg.sender */\n      caller\n        /* \"BEPContext.sol\":828:854  return payable(msg.sender) */\n      swap1\n      pop\n        /* \"BEPContext.sol\":760:859  function _msgSender() internal view returns (address payable) {... */\n      swap1\n      jump\t// out\n        /* \"BEP20.sol\":7012:7342  function _approve(... */\n    tag_125:\n        /* \"BEP20.sol\":7134:7135  0 */\n      0x00\n        /* \"BEP20.sol\":7117:7136  owner != address(0) */\n      0xffffffffffffffffffffffffffffffffffffffff\n      and\n        /* \"BEP20.sol\":7117:7122  owner */\n      dup4\n        /* \"BEP20.sol\":7117:7136  owner != address(0) */\n      0xffffffffffffffffffffffffffffffffffffffff\n      and\n      eq\n      iszero\n        /* \"BEP20.sol\":7109:7177  require(owner != address(0), \"BEP20: approve from the zero address\") */\n      tag_222\n      jumpi\n      mload(0x40)\n      0x08c379a000000000000000000000000000000000000000000000000000000000\n      dup2\n      mstore\n      0x04\n      add\n      tag_223\n      swap1\n      tag_224\n      jump\t// in\n    tag_223:\n      mload(0x40)\n      dup1\n      swap2\n      sub\n      swap1\n      revert\n    tag_222:\n        /* \"BEP20.sol\":7210:7211  0 */\n      0x00\n        /* \"BEP20.sol\":7191:7212  spender != address(0) */\n      0xffffffffffffffffffffffffffffffffffffffff\n      and\n        /* \"BEP20.sol\":7191:7198  spender */\n      dup3\n        /* \"BEP20.sol\":7191:7212  spender != address(0) */\n      0xffffffffffffffffffffffffffffffffffffffff\n      and\n      eq\n      iszero\n        /* \"BEP20.sol\":7183:7251  require(spender != address(0), \"BEP20: approve to the zero address\") */\n      tag_225\n      jumpi\n      mload(0x40)\n      0x08c379a000000000000000000000000000000000000000000000000000000000\n      dup2\n      mstore\n      0x04\n      add\n      tag_226\n      swap1\n      tag_227\n      jump\t// in\n    tag_226:\n      mload(0x40)\n      dup1\n      swap2\n      sub\n      swap1\n      revert\n    tag_225:\n        /* \"BEP20.sol\":7288:7294  amount */\n      dup1\n        /* \"BEP20.sol\":7258:7269  _allowances */\n      0x04\n        /* \"BEP20.sol\":7258:7276  _allowances[owner] */\n      0x00\n        /* \"BEP20.sol\":7270:7275  owner */\n      dup6\n        /* \"BEP20.sol\":7258:7276  _allowances[owner] */\n      0xffffffffffffffffffffffffffffffffffffffff\n      and\n      0xffffffffffffffffffffffffffffffffffffffff\n      and\n      dup2\n      mstore\n      0x20\n      add\n      swap1\n      dup2\n      mstore\n      0x20\n      add\n      0x00\n      keccak256\n        /* \"BEP20.sol\":7258:7285  _allowances[owner][spender] */\n      0x00\n        /* \"BEP20.sol\":7277:7284  spender */\n      dup5\n        /* \"BEP20.sol\":7258:7285  _allowances[owner][spender] */\n      0xffffffffffffffffffffffffffffffffffffffff\n      and\n      0xffffffffffffffffffffffffffffffffffffffff\n      and\n      dup2\n      mstore\n      0x20\n      add\n      swap1\n      dup2\n      mstore\n      0x20\n      add\n      0x00\n      keccak256\n        /* \"BEP20.sol\":7258:7294  _allowances[owner][spender] = amount */\n      dup2\n      swap1\n      sstore\n      pop\n        /* \"BEP20.sol\":7321:7328  spender */\n      dup2\n        /* \"BEP20.sol\":7305:7337  Approval(owner, spender, amount) */\n      0xffffffffffffffffffffffffffffffffffffffff\n      and\n        /* \"BEP20.sol\":7314:7319  owner */\n      dup4\n        /* \"BEP20.sol\":7305:7337  Approval(owner, spender, amount) */\n      0xffffffffffffffffffffffffffffffffffffffff\n      and\n      0x8c5be1e5ebec7d5bd14f71427d1e84f3dd0314c0f7b2291e5b200ac8c7c3b925\n        /* \"BEP20.sol\":7330:7336  amount */\n      dup4\n        /* \"BEP20.sol\":7305:7337  Approval(owner, spender, amount) */\n      mload(0x40)\n      tag_228\n      swap2\n      swap1\n      tag_53\n      jump\t// in\n    tag_228:\n      mload(0x40)\n      dup1\n      swap2\n      sub\n      swap1\n      log3\n        /* \"BEP20.sol\":7012:7342  function _approve(... */\n      pop\n      pop\n      pop\n      jump\t// out\n        /* \"VIMToken.sol\":2480:3512  function _transfer(address sender, address receiver, uint256 amount) internal virtual override {... */\n    tag_152:\n        /* \"VIMToken.sol\":2609:2613  this */\n      address\n        /* \"VIMToken.sol\":2589:2614  receiver != address(this) */\n      0xffffffffffffffffffffffffffffffffffffffff\n      and\n        /* \"VIMToken.sol\":2589:2597  receiver */\n      dup3\n        /* \"VIMToken.sol\":2589:2614  receiver != address(this) */\n      0xffffffffffffffffffffffffffffffffffffffff\n      and\n      eq\n      iszero\n        /* \"VIMToken.sol\":2616:2659  string(\"No transfers to contract allowed.\") */\n      mload(0x40)\n      dup1\n      0x60\n      add\n      0x40\n      mstore\n      dup1\n      0x21\n      dup2\n      mstore\n      0x20\n      add\n      data_573d1ed4a921ea442c5f19a96dadd552e53378497b3e3c5c4f92b5237f17148e\n      0x21\n      swap2\n      codecopy\n        /* \"VIMToken.sol\":2581:2660  require(receiver != address(this), string(\"No transfers to contract allowed.\")) */\n      swap1\n      tag_230\n      jumpi\n      mload(0x40)\n      0x08c379a000000000000000000000000000000000000000000000000000000000\n      dup2\n      mstore\n      0x04\n      add\n      tag_231\n      swap2\n      swap1\n      tag_31\n      jump\t// in\n    tag_231:\n      mload(0x40)\n      dup1\n      swap2\n      sub\n      swap1\n      revert\n    tag_230:\n      pop\n        /* \"VIMToken.sol\":2675:2686  isBlacklist */\n      0x06\n        /* \"VIMToken.sol\":2675:2694  isBlacklist[sender] */\n      0x00\n        /* \"VIMToken.sol\":2687:2693  sender */\n      dup5\n        /* \"VIMToken.sol\":2675:2694  isBlacklist[sender] */\n      0xffffffffffffffffffffffffffffffffffffffff\n      and\n      0xffffffffffffffffffffffffffffffffffffffff\n      and\n      dup2\n      mstore\n      0x20\n      add\n      swap1\n      dup2\n      mstore\n      0x20\n      add\n      0x00\n      keccak256\n      0x00\n      swap1\n      sload\n      swap1\n      0x0100\n      exp\n      swap1\n      div\n      0xff\n      and\n        /* \"VIMToken.sol\":2674:2694  !isBlacklist[sender] */\n      iszero\n        /* \"VIMToken.sol\":2666:2714  require(!isBlacklist[sender],\"User blacklisted\") */\n      tag_232\n      jumpi\n      mload(0x40)\n      0x08c379a000000000000000000000000000000000000000000000000000000000\n      dup2\n      mstore\n      0x04\n      add\n      tag_233\n      swap1\n      tag_234\n      jump\t// in\n    tag_233:\n      mload(0x40)\n      dup1\n      swap2\n      sub\n      swap1\n      revert\n    tag_232:\n        /* \"VIMToken.sol\":2748:2752  true */\n      0x01\n        /* \"VIMToken.sol\":2723:2752  liquidityPool[sender] == true */\n      iszero\n      iszero\n        /* \"VIMToken.sol\":2723:2736  liquidityPool */\n      0x07\n        /* \"VIMToken.sol\":2723:2744  liquidityPool[sender] */\n      0x00\n        /* \"VIMToken.sol\":2737:2743  sender */\n      dup6\n        /* \"VIMToken.sol\":2723:2744  liquidityPool[sender] */\n      0xffffffffffffffffffffffffffffffffffffffff\n      and\n      0xffffffffffffffffffffffffffffffffffffffff\n      and\n      dup2\n      mstore\n      0x20\n      add\n      swap1\n      dup2\n      mstore\n      0x20\n      add\n      0x00\n      keccak256\n      0x00\n      swap1\n      sload\n      swap1\n      0x0100\n      exp\n      swap1\n      div\n      0xff\n      and\n        /* \"VIMToken.sol\":2723:2752  liquidityPool[sender] == true */\n      iszero\n      iszero\n      eq\n        /* \"VIMToken.sol\":2720:3353  if(liquidityPool[sender] == true) {... */\n      iszero\n      tag_235\n      jumpi\n        /* \"VIMToken.sol\":2833:2836  100 */\n      0x64\n        /* \"VIMToken.sol\":2823:2829  buyTax */\n      0x0a\n      0x00\n      swap1\n      sload\n      swap1\n      0x0100\n      exp\n      swap1\n      div\n      0xff\n      and\n        /* \"VIMToken.sol\":2814:2829  amount * buyTax */\n      0xff\n      and\n        /* \"VIMToken.sol\":2814:2820  amount */\n      dup3\n        /* \"VIMToken.sol\":2814:2829  amount * buyTax */\n      tag_236\n      swap2\n      swap1\n      tag_237\n      jump\t// in\n    tag_236:\n        /* \"VIMToken.sol\":2813:2836  (amount * buyTax) / 100 */\n      tag_238\n      swap2\n      swap1\n      tag_239\n      jump\t// in\n    tag_238:\n        /* \"VIMToken.sol\":2801:2810  taxAmount */\n      0x0b\n        /* \"VIMToken.sol\":2801:2836  taxAmount = (amount * buyTax) / 100 */\n      dup2\n      swap1\n      sstore\n      pop\n        /* \"VIMToken.sol\":2720:3353  if(liquidityPool[sender] == true) {... */\n      jump(tag_240)\n    tag_235:\n        /* \"VIMToken.sol\":2879:2883  true */\n      0x01\n        /* \"VIMToken.sol\":2852:2883  liquidityPool[receiver] == true */\n      iszero\n      iszero\n        /* \"VIMToken.sol\":2852:2865  liquidityPool */\n      0x07\n        /* \"VIMToken.sol\":2852:2875  liquidityPool[receiver] */\n      0x00\n        /* \"VIMToken.sol\":2866:2874  receiver */\n      dup5\n        /* \"VIMToken.sol\":2852:2875  liquidityPool[receiver] */\n      0xffffffffffffffffffffffffffffffffffffffff\n      and\n      0xffffffffffffffffffffffffffffffffffffffff\n      and\n      dup2\n      mstore\n      0x20\n      add\n      swap1\n      dup2\n      mstore\n      0x20\n      add\n      0x00\n      keccak256\n      0x00\n      swap1\n      sload\n      swap1\n      0x0100\n      exp\n      swap1\n      div\n      0xff\n      and\n        /* \"VIMToken.sol\":2852:2883  liquidityPool[receiver] == true */\n      iszero\n      iszero\n      eq\n        /* \"VIMToken.sol\":2849:3353  if(liquidityPool[receiver] == true) {      ... */\n      iszero\n      tag_241\n      jumpi\n        /* \"VIMToken.sol\":2972:2975  100 */\n      0x64\n        /* \"VIMToken.sol\":2961:2968  sellTax */\n      0x0a\n      0x01\n      swap1\n      sload\n      swap1\n      0x0100\n      exp\n      swap1\n      div\n      0xff\n      and\n        /* \"VIMToken.sol\":2952:2968  amount * sellTax */\n      0xff\n      and\n        /* \"VIMToken.sol\":2952:2958  amount */\n      dup3\n        /* \"VIMToken.sol\":2952:2968  amount * sellTax */\n      tag_242\n      swap2\n      swap1\n      tag_237\n      jump\t// in\n    tag_242:\n        /* \"VIMToken.sol\":2951:2975  (amount * sellTax) / 100 */\n      tag_243\n      swap2\n      swap1\n      tag_239\n      jump\t// in\n    tag_243:\n        /* \"VIMToken.sol\":2939:2948  taxAmount */\n      0x0b\n        /* \"VIMToken.sol\":2939:2975  taxAmount = (amount * sellTax) / 100 */\n      dup2\n      swap1\n      sstore\n      pop\n        /* \"VIMToken.sol\":3031:3044  tradeCooldown */\n      0x0a\n      0x02\n      swap1\n      sload\n      swap1\n      0x0100\n      exp\n      swap1\n      div\n      0xff\n      and\n        /* \"VIMToken.sol\":3013:3044  block.timestamp - tradeCooldown */\n      0xff\n      and\n        /* \"VIMToken.sol\":3013:3028  block.timestamp */\n      timestamp\n        /* \"VIMToken.sol\":3013:3044  block.timestamp - tradeCooldown */\n      tag_244\n      swap2\n      swap1\n      tag_245\n      jump\t// in\n    tag_244:\n        /* \"VIMToken.sol\":2992:3001  lastTrade */\n      0x09\n        /* \"VIMToken.sol\":2992:3009  lastTrade[sender] */\n      0x00\n        /* \"VIMToken.sol\":3002:3008  sender */\n      dup6\n        /* \"VIMToken.sol\":2992:3009  lastTrade[sender] */\n      0xffffffffffffffffffffffffffffffffffffffff\n      and\n      0xffffffffffffffffffffffffffffffffffffffff\n      and\n      dup2\n      mstore\n      0x20\n      add\n      swap1\n      dup2\n      mstore\n      0x20\n      add\n      0x00\n      keccak256\n      sload\n        /* \"VIMToken.sol\":2992:3045  lastTrade[sender] < (block.timestamp - tradeCooldown) */\n      lt\n        /* \"VIMToken.sol\":3047:3099  string(\"No consecutive sells allowed. Please wait.\") */\n      mload(0x40)\n      dup1\n      0x60\n      add\n      0x40\n      mstore\n      dup1\n      0x2a\n      dup2\n      mstore\n      0x20\n      add\n      data_7efdc62e202e71ba96d2ad4e93c3fc5c67ef5ce0b8f02ccfd2d78dc68ce32fc4\n      0x2a\n      swap2\n      codecopy\n        /* \"VIMToken.sol\":2984:3100  require(lastTrade[sender] < (block.timestamp - tradeCooldown), string(\"No consecutive sells allowed. Please wait.\")) */\n      swap1\n      tag_246\n      jumpi\n      mload(0x40)\n      0x08c379a000000000000000000000000000000000000000000000000000000000\n      dup2\n      mstore\n      0x04\n      add\n      tag_247\n      swap2\n      swap1\n      tag_31\n      jump\t// in\n    tag_247:\n      mload(0x40)\n      dup1\n      swap2\n      sub\n      swap1\n      revert\n    tag_246:\n      pop\n        /* \"VIMToken.sol\":3128:3143  block.timestamp */\n      timestamp\n        /* \"VIMToken.sol\":3108:3117  lastTrade */\n      0x09\n        /* \"VIMToken.sol\":3108:3125  lastTrade[sender] */\n      0x00\n        /* \"VIMToken.sol\":3118:3124  sender */\n      dup6\n        /* \"VIMToken.sol\":3108:3125  lastTrade[sender] */\n      0xffffffffffffffffffffffffffffffffffffffff\n      and\n      0xffffffffffffffffffffffffffffffffffffffff\n      and\n      dup2\n      mstore\n      0x20\n      add\n      swap1\n      dup2\n      mstore\n      0x20\n      add\n      0x00\n      keccak256\n        /* \"VIMToken.sol\":3108:3143  lastTrade[sender] = block.timestamp */\n      dup2\n      swap1\n      sstore\n      pop\n        /* \"VIMToken.sol\":2849:3353  if(liquidityPool[receiver] == true) {      ... */\n      jump(tag_248)\n    tag_241:\n        /* \"VIMToken.sol\":3160:3172  whitelistTax */\n      0x08\n        /* \"VIMToken.sol\":3160:3180  whitelistTax[sender] */\n      0x00\n        /* \"VIMToken.sol\":3173:3179  sender */\n      dup5\n        /* \"VIMToken.sol\":3160:3180  whitelistTax[sender] */\n      0xffffffffffffffffffffffffffffffffffffffff\n      and\n      0xffffffffffffffffffffffffffffffffffffffff\n      and\n      dup2\n      mstore\n      0x20\n      add\n      swap1\n      dup2\n      mstore\n      0x20\n      add\n      0x00\n      keccak256\n      0x00\n      swap1\n      sload\n      swap1\n      0x0100\n      exp\n      swap1\n      div\n      0xff\n      and\n        /* \"VIMToken.sol\":3160:3206  whitelistTax[sender] || whitelistTax[receiver] */\n      dup1\n      tag_249\n      jumpi\n      pop\n        /* \"VIMToken.sol\":3184:3196  whitelistTax */\n      0x08\n        /* \"VIMToken.sol\":3184:3206  whitelistTax[receiver] */\n      0x00\n        /* \"VIMToken.sol\":3197:3205  receiver */\n      dup4\n        /* \"VIMToken.sol\":3184:3206  whitelistTax[receiver] */\n      0xffffffffffffffffffffffffffffffffffffffff\n      and\n      0xffffffffffffffffffffffffffffffffffffffff\n      and\n      dup2\n      mstore\n      0x20\n      add\n      swap1\n      dup2\n      mstore\n      0x20\n      add\n      0x00\n      keccak256\n      0x00\n      swap1\n      sload\n      swap1\n      0x0100\n      exp\n      swap1\n      div\n      0xff\n      and\n        /* \"VIMToken.sol\":3160:3206  whitelistTax[sender] || whitelistTax[receiver] */\n    tag_249:\n        /* \"VIMToken.sol\":3160:3233  whitelistTax[sender] || whitelistTax[receiver] || sender == marketingPool */\n      dup1\n      tag_250\n      jumpi\n      pop\n        /* \"VIMToken.sol\":3220:3233  marketingPool */\n      0x0c\n      0x00\n      swap1\n      sload\n      swap1\n      0x0100\n      exp\n      swap1\n      div\n      0xffffffffffffffffffffffffffffffffffffffff\n      and\n        /* \"VIMToken.sol\":3210:3233  sender == marketingPool */\n      0xffffffffffffffffffffffffffffffffffffffff\n      and\n        /* \"VIMToken.sol\":3210:3216  sender */\n      dup4\n        /* \"VIMToken.sol\":3210:3233  sender == marketingPool */\n      0xffffffffffffffffffffffffffffffffffffffff\n      and\n      eq\n        /* \"VIMToken.sol\":3160:3233  whitelistTax[sender] || whitelistTax[receiver] || sender == marketingPool */\n    tag_250:\n        /* \"VIMToken.sol\":3160:3262  whitelistTax[sender] || whitelistTax[receiver] || sender == marketingPool || receiver == marketingPool */\n      dup1\n      tag_251\n      jumpi\n      pop\n        /* \"VIMToken.sol\":3249:3262  marketingPool */\n      0x0c\n      0x00\n      swap1\n      sload\n      swap1\n      0x0100\n      exp\n      swap1\n      div\n      0xffffffffffffffffffffffffffffffffffffffff\n      and\n        /* \"VIMToken.sol\":3237:3262  receiver == marketingPool */\n      0xffffffffffffffffffffffffffffffffffffffff\n      and\n        /* \"VIMToken.sol\":3237:3245  receiver */\n      dup3\n        /* \"VIMToken.sol\":3237:3262  receiver == marketingPool */\n      0xffffffffffffffffffffffffffffffffffffffff\n      and\n      eq\n        /* \"VIMToken.sol\":3160:3262  whitelistTax[sender] || whitelistTax[receiver] || sender == marketingPool || receiver == marketingPool */\n    tag_251:\n        /* \"VIMToken.sol\":3157:3353  if(whitelistTax[sender] || whitelistTax[receiver] || sender == marketingPool || receiver == marketingPool) {... */\n      iszero\n      tag_252\n      jumpi\n        /* \"VIMToken.sol\":3284:3285  0 */\n      0x00\n        /* \"VIMToken.sol\":3272:3281  taxAmount */\n      0x0b\n        /* \"VIMToken.sol\":3272:3285  taxAmount = 0 */\n      dup2\n      swap1\n      sstore\n      pop\n        /* \"VIMToken.sol\":3157:3353  if(whitelistTax[sender] || whitelistTax[receiver] || sender == marketingPool || receiver == marketingPool) {... */\n      jump(tag_253)\n    tag_252:\n        /* \"VIMToken.sol\":3343:3346  100 */\n      0x64\n        /* \"VIMToken.sol\":3328:3339  transferTax */\n      0x0a\n      0x03\n      swap1\n      sload\n      swap1\n      0x0100\n      exp\n      swap1\n      div\n      0xff\n      and\n        /* \"VIMToken.sol\":3319:3339  amount * transferTax */\n      0xff\n      and\n        /* \"VIMToken.sol\":3319:3325  amount */\n      dup3\n        /* \"VIMToken.sol\":3319:3339  amount * transferTax */\n      tag_254\n      swap2\n      swap1\n      tag_237\n      jump\t// in\n    tag_254:\n        /* \"VIMToken.sol\":3318:3346  (amount * transferTax) / 100 */\n      tag_255\n      swap2\n      swap1\n      tag_239\n      jump\t// in\n    tag_255:\n        /* \"VIMToken.sol\":3306:3315  taxAmount */\n      0x0b\n        /* \"VIMToken.sol\":3306:3346  taxAmount = (amount * transferTax) / 100 */\n      dup2\n      swap1\n      sstore\n      pop\n        /* \"VIMToken.sol\":3157:3353  if(whitelistTax[sender] || whitelistTax[receiver] || sender == marketingPool || receiver == marketingPool) {... */\n    tag_253:\n        /* \"VIMToken.sol\":2849:3353  if(liquidityPool[receiver] == true) {      ... */\n    tag_248:\n        /* \"VIMToken.sol\":2720:3353  if(liquidityPool[sender] == true) {... */\n    tag_240:\n        /* \"VIMToken.sol\":3378:3379  0 */\n      0x00\n        /* \"VIMToken.sol\":3366:3375  taxAmount */\n      sload(0x0b)\n        /* \"VIMToken.sol\":3366:3379  taxAmount > 0 */\n      gt\n        /* \"VIMToken.sol\":3363:3445  if(taxAmount > 0) {... */\n      iszero\n      tag_256\n      jumpi\n        /* \"VIMToken.sol\":3389:3438  super._transfer(sender, marketingPool, taxAmount) */\n      tag_257\n        /* \"VIMToken.sol\":3405:3411  sender */\n      dup4\n        /* \"VIMToken.sol\":3413:3426  marketingPool */\n      0x0c\n      0x00\n      swap1\n      sload\n      swap1\n      0x0100\n      exp\n      swap1\n      div\n      0xffffffffffffffffffffffffffffffffffffffff\n      and\n        /* \"VIMToken.sol\":3428:3437  taxAmount */\n      sload(0x0b)\n        /* \"VIMToken.sol\":3389:3404  super._transfer */\n      tag_258\n        /* \"VIMToken.sol\":3389:3438  super._transfer(sender, marketingPool, taxAmount) */\n      jump\t// in\n    tag_257:\n        /* \"VIMToken.sol\":3363:3445  if(taxAmount > 0) {... */\n    tag_256:\n        /* \"VIMToken.sol\":3454:3507  super._transfer(sender, receiver, amount - taxAmount) */\n      tag_259\n        /* \"VIMToken.sol\":3470:3476  sender */\n      dup4\n        /* \"VIMToken.sol\":3478:3486  receiver */\n      dup4\n        /* \"VIMToken.sol\":3497:3506  taxAmount */\n      sload(0x0b)\n        /* \"VIMToken.sol\":3488:3494  amount */\n      dup5\n        /* \"VIMToken.sol\":3488:3506  amount - taxAmount */\n      tag_260\n      swap2\n      swap1\n      tag_245\n      jump\t// in\n    tag_260:\n        /* \"VIMToken.sol\":3454:3469  super._transfer */\n      tag_258\n        /* \"VIMToken.sol\":3454:3507  super._transfer(sender, receiver, amount - taxAmount) */\n      jump\t// in\n    tag_259:\n        /* \"VIMToken.sol\":2480:3512  function _transfer(address sender, address receiver, uint256 amount) internal virtual override {... */\n      pop\n      pop\n      pop\n      jump\t// out\n        /* \"SafeMath.sol\":1692:1881  function sub(... */\n    tag_157:\n        /* \"SafeMath.sol\":1794:1801  uint256 */\n      0x00\n        /* \"SafeMath.sol\":1822:1823  a */\n      dup4\n        /* \"SafeMath.sol\":1817:1818  b */\n      dup4\n        /* \"SafeMath.sol\":1817:1823  b <= a */\n      gt\n      iszero\n        /* \"SafeMath.sol\":1825:1837  errorMessage */\n      dup3\n        /* \"SafeMath.sol\":1809:1838  require(b <= a, errorMessage) */\n      swap1\n      tag_262\n      jumpi\n      mload(0x40)\n      0x08c379a000000000000000000000000000000000000000000000000000000000\n      dup2\n      mstore\n      0x04\n      add\n      tag_263\n      swap2\n      swap1\n      tag_31\n      jump\t// in\n    tag_263:\n      mload(0x40)\n      dup1\n      swap2\n      sub\n      swap1\n      revert\n    tag_262:\n      pop\n        /* \"SafeMath.sol\":1844:1853  uint256 c */\n      0x00\n        /* \"SafeMath.sol\":1860:1861  b */\n      dup4\n        /* \"SafeMath.sol\":1856:1857  a */\n      dup6\n        /* \"SafeMath.sol\":1856:1861  a - b */\n      tag_264\n      swap2\n      swap1\n      tag_245\n      jump\t// in\n    tag_264:\n        /* \"SafeMath.sol\":1844:1861  uint256 c = a - b */\n      swap1\n      pop\n        /* \"SafeMath.sol\":1875:1876  c */\n      dup1\n        /* \"SafeMath.sol\":1868:1876  return c */\n      swap2\n      pop\n      pop\n        /* \"SafeMath.sol\":1692:1881  function sub(... */\n      swap4\n      swap3\n      pop\n      pop\n      pop\n      jump\t// out\n        /* \"BEPOwnable.sol\":2090:2301  function _transferOwnership(address newOwner) internal {... */\n    tag_213:\n        /* \"BEPOwnable.sol\":2179:2180  0 */\n      0x00\n        /* \"BEPOwnable.sol\":2159:2181  newOwner != address(0) */\n      0xffffffffffffffffffffffffffffffffffffffff\n      and\n        /* \"BEPOwnable.sol\":2159:2167  newOwner */\n      dup2\n        /* \"BEPOwnable.sol\":2159:2181  newOwner != address(0) */\n      0xffffffffffffffffffffffffffffffffffffffff\n      and\n      eq\n      iszero\n        /* \"BEPOwnable.sol\":2151:2224  require(newOwner != address(0), \"Ownable: new owner is the zero address\") */\n      tag_266\n      jumpi\n      mload(0x40)\n      0x08c379a000000000000000000000000000000000000000000000000000000000\n      dup2\n      mstore\n      0x04\n      add\n      tag_267\n      swap1\n      tag_268\n      jump\t// in\n    tag_267:\n      mload(0x40)\n      dup1\n      swap2\n      sub\n      swap1\n      revert\n    tag_266:\n        /* \"BEPOwnable.sol\":2264:2272  newOwner */\n      dup1\n        /* \"BEPOwnable.sol\":2235:2273  OwnershipTransferred(_owner, newOwner) */\n      0xffffffffffffffffffffffffffffffffffffffff\n      and\n        /* \"BEPOwnable.sol\":2256:2262  _owner */\n      0x02\n      0x01\n      swap1\n      sload\n      swap1\n      0x0100\n      exp\n      swap1\n      div\n      0xffffffffffffffffffffffffffffffffffffffff\n      and\n        /* \"BEPOwnable.sol\":2235:2273  OwnershipTransferred(_owner, newOwner) */\n      0xffffffffffffffffffffffffffffffffffffffff\n      and\n      0x8be0079c531659141344cd1fd0a4f28419497f9722a3daafe3b4186f6b6457e0\n      mload(0x40)\n      mload(0x40)\n      dup1\n      swap2\n      sub\n      swap1\n      log3\n        /* \"BEPOwnable.sol\":2288:2296  newOwner */\n      dup1\n        /* \"BEPOwnable.sol\":2279:2285  _owner */\n      0x02\n      0x01\n        /* \"BEPOwnable.sol\":2279:2296  _owner = newOwner */\n      0x0100\n      exp\n      dup2\n      sload\n      dup2\n      0xffffffffffffffffffffffffffffffffffffffff\n      mul\n      not\n      and\n      swap1\n      dup4\n      0xffffffffffffffffffffffffffffffffffffffff\n      and\n      mul\n      or\n      swap1\n      sstore\n      pop\n        /* \"BEPOwnable.sol\":2090:2301  function _transferOwnership(address newOwner) internal {... */\n      pop\n      jump\t// out\n        /* \"BEP20.sol\":4996:5462  function _transfer(... */\n    tag_258:\n        /* \"BEP20.sol\":5131:5132  0 */\n      0x00\n        /* \"BEP20.sol\":5113:5133  sender != address(0) */\n      0xffffffffffffffffffffffffffffffffffffffff\n      and\n        /* \"BEP20.sol\":5113:5119  sender */\n      dup4\n        /* \"BEP20.sol\":5113:5133  sender != address(0) */\n      0xffffffffffffffffffffffffffffffffffffffff\n      and\n      eq\n      iszero\n        /* \"BEP20.sol\":5105:5175  require(sender != address(0), \"BEP20: transfer from the zero address\") */\n      tag_270\n      jumpi\n      mload(0x40)\n      0x08c379a000000000000000000000000000000000000000000000000000000000\n      dup2\n      mstore\n      0x04\n      add\n      tag_271\n      swap1\n      tag_272\n      jump\t// in\n    tag_271:\n      mload(0x40)\n      dup1\n      swap2\n      sub\n      swap1\n      revert\n    tag_270:\n        /* \"BEP20.sol\":5210:5211  0 */\n      0x00\n        /* \"BEP20.sol\":5189:5212  recipient != address(0) */\n      0xffffffffffffffffffffffffffffffffffffffff\n      and\n        /* \"BEP20.sol\":5189:5198  recipient */\n      dup3\n        /* \"BEP20.sol\":5189:5212  recipient != address(0) */\n      0xffffffffffffffffffffffffffffffffffffffff\n      and\n      eq\n      iszero\n        /* \"BEP20.sol\":5181:5252  require(recipient != address(0), \"BEP20: transfer to the zero address\") */\n      tag_273\n      jumpi\n      mload(0x40)\n      0x08c379a000000000000000000000000000000000000000000000000000000000\n      dup2\n      mstore\n      0x04\n      add\n      tag_274\n      swap1\n      tag_275\n      jump\t// in\n    tag_274:\n      mload(0x40)\n      dup1\n      swap2\n      sub\n      swap1\n      revert\n    tag_273:\n        /* \"BEP20.sol\":5279:5350  _balances[sender].sub(amount, \"BEP20: transfer amount exceeds balance\") */\n      tag_276\n        /* \"BEP20.sol\":5301:5307  amount */\n      dup2\n        /* \"BEP20.sol\":5279:5350  _balances[sender].sub(amount, \"BEP20: transfer amount exceeds balance\") */\n      mload(0x40)\n      dup1\n      0x60\n      add\n      0x40\n      mstore\n      dup1\n      0x26\n      dup2\n      mstore\n      0x20\n      add\n      data_a91efd7a65ef5b4ae4d6568d674798b78a5a89184dd296c100513251c22d3e73\n      0x26\n      swap2\n      codecopy\n        /* \"BEP20.sol\":5279:5288  _balances */\n      0x03\n        /* \"BEP20.sol\":5279:5296  _balances[sender] */\n      0x00\n        /* \"BEP20.sol\":5289:5295  sender */\n      dup8\n        /* \"BEP20.sol\":5279:5296  _balances[sender] */\n      0xffffffffffffffffffffffffffffffffffffffff\n      and\n      0xffffffffffffffffffffffffffffffffffffffff\n      and\n      dup2\n      mstore\n      0x20\n      add\n      swap1\n      dup2\n      mstore\n      0x20\n      add\n      0x00\n      keccak256\n      sload\n        /* \"BEP20.sol\":5279:5300  _balances[sender].sub */\n      tag_157\n      swap1\n        /* \"BEP20.sol\":5279:5350  _balances[sender].sub(amount, \"BEP20: transfer amount exceeds balance\") */\n      swap3\n      swap2\n      swap1\n      0xffffffff\n      and\n      jump\t// in\n    tag_276:\n        /* \"BEP20.sol\":5259:5268  _balances */\n      0x03\n        /* \"BEP20.sol\":5259:5276  _balances[sender] */\n      0x00\n        /* \"BEP20.sol\":5269:5275  sender */\n      dup6\n        /* \"BEP20.sol\":5259:5276  _balances[sender] */\n      0xffffffffffffffffffffffffffffffffffffffff\n      and\n      0xffffffffffffffffffffffffffffffffffffffff\n      and\n      dup2\n      mstore\n      0x20\n      add\n      swap1\n      dup2\n      mstore\n      0x20\n      add\n      0x00\n      keccak256\n        /* \"BEP20.sol\":5259:5350  _balances[sender] = _balances[sender].sub(amount, \"BEP20: transfer amount exceeds balance\") */\n      dup2\n      swap1\n      sstore\n      pop\n        /* \"BEP20.sol\":5379:5411  _balances[recipient].add(amount) */\n      tag_277\n        /* \"BEP20.sol\":5404:5410  amount */\n      dup2\n        /* \"BEP20.sol\":5379:5388  _balances */\n      0x03\n        /* \"BEP20.sol\":5379:5399  _balances[recipient] */\n      0x00\n        /* \"BEP20.sol\":5389:5398  recipient */\n      dup6\n        /* \"BEP20.sol\":5379:5399  _balances[recipient] */\n      0xffffffffffffffffffffffffffffffffffffffff\n      and\n      0xffffffffffffffffffffffffffffffffffffffff\n      and\n      dup2\n      mstore\n      0x20\n      add\n      swap1\n      dup2\n      mstore\n      0x20\n      add\n      0x00\n      keccak256\n      sload\n        /* \"BEP20.sol\":5379:5403  _balances[recipient].add */\n      tag_113\n      swap1\n        /* \"BEP20.sol\":5379:5411  _balances[recipient].add(amount) */\n      swap2\n      swap1\n      0xffffffff\n      and\n      jump\t// in\n    tag_277:\n        /* \"BEP20.sol\":5356:5365  _balances */\n      0x03\n        /* \"BEP20.sol\":5356:5376  _balances[recipient] */\n      0x00\n        /* \"BEP20.sol\":5366:5375  recipient */\n      dup5\n        /* \"BEP20.sol\":5356:5376  _balances[recipient] */\n      0xffffffffffffffffffffffffffffffffffffffff\n      and\n      0xffffffffffffffffffffffffffffffffffffffff\n      and\n      dup2\n      mstore\n      0x20\n      add\n      swap1\n      dup2\n      mstore\n      0x20\n      add\n      0x00\n      keccak256\n        /* \"BEP20.sol\":5356:5411  _balances[recipient] = _balances[recipient].add(amount) */\n      dup2\n      swap1\n      sstore\n      pop\n        /* \"BEP20.sol\":5439:5448  recipient */\n      dup2\n        /* \"BEP20.sol\":5422:5457  Transfer(sender, recipient, amount) */\n      0xffffffffffffffffffffffffffffffffffffffff\n      and\n        /* \"BEP20.sol\":5431:5437  sender */\n      dup4\n        /* \"BEP20.sol\":5422:5457  Transfer(sender, recipient, amount) */\n      0xffffffffffffffffffffffffffffffffffffffff\n      and\n      0xddf252ad1be2c89b69c2b068fc378daa952ba7f163c4a11628f55a4df523b3ef\n        /* \"BEP20.sol\":5450:5456  amount */\n      dup4\n        /* \"BEP20.sol\":5422:5457  Transfer(sender, recipient, amount) */\n      mload(0x40)\n      tag_278\n      swap2\n      swap1\n      tag_53\n      jump\t// in\n    tag_278:\n      mload(0x40)\n      dup1\n      swap2\n      sub\n      swap1\n      log3\n        /* \"BEP20.sol\":4996:5462  function _transfer(... */\n      pop\n      pop\n      pop\n      jump\t// out\n        /* \"#utility.yul\":7:146   */\n    tag_280:\n        /* \"#utility.yul\":53:58   */\n      0x00\n        /* \"#utility.yul\":91:97   */\n      dup2\n        /* \"#utility.yul\":78:98   */\n      calldataload\n        /* \"#utility.yul\":69:98   */\n      swap1\n      pop\n        /* \"#utility.yul\":107:140   */\n      tag_282\n        /* \"#utility.yul\":134:139   */\n      dup2\n        /* \"#utility.yul\":107:140   */\n      tag_283\n      jump\t// in\n    tag_282:\n        /* \"#utility.yul\":7:146   */\n      swap3\n      swap2\n      pop\n      pop\n      jump\t// out\n        /* \"#utility.yul\":152:285   */\n    tag_284:\n        /* \"#utility.yul\":195:200   */\n      0x00\n        /* \"#utility.yul\":233:239   */\n      dup2\n        /* \"#utility.yul\":220:240   */\n      calldataload\n        /* \"#utility.yul\":211:240   */\n      swap1\n      pop\n        /* \"#utility.yul\":249:279   */\n      tag_286\n        /* \"#utility.yul\":273:278   */\n      dup2\n        /* \"#utility.yul\":249:279   */\n      tag_287\n      jump\t// in\n    tag_286:\n        /* \"#utility.yul\":152:285   */\n      swap3\n      swap2\n      pop\n      pop\n      jump\t// out\n        /* \"#utility.yul\":291:430   */\n    tag_288:\n        /* \"#utility.yul\":337:342   */\n      0x00\n        /* \"#utility.yul\":375:381   */\n      dup2\n        /* \"#utility.yul\":362:382   */\n      calldataload\n        /* \"#utility.yul\":353:382   */\n      swap1\n      pop\n        /* \"#utility.yul\":391:424   */\n      tag_290\n        /* \"#utility.yul\":418:423   */\n      dup2\n        /* \"#utility.yul\":391:424   */\n      tag_291\n      jump\t// in\n    tag_290:\n        /* \"#utility.yul\":291:430   */\n      swap3\n      swap2\n      pop\n      pop\n      jump\t// out\n        /* \"#utility.yul\":436:571   */\n    tag_292:\n        /* \"#utility.yul\":480:485   */\n      0x00\n        /* \"#utility.yul\":518:524   */\n      dup2\n        /* \"#utility.yul\":505:525   */\n      calldataload\n        /* \"#utility.yul\":496:525   */\n      swap1\n      pop\n        /* \"#utility.yul\":534:565   */\n      tag_294\n        /* \"#utility.yul\":559:564   */\n      dup2\n        /* \"#utility.yul\":534:565   */\n      tag_295\n      jump\t// in\n    tag_294:\n        /* \"#utility.yul\":436:571   */\n      swap3\n      swap2\n      pop\n      pop\n      jump\t// out\n        /* \"#utility.yul\":577:906   */\n    tag_76:\n        /* \"#utility.yul\":636:642   */\n      0x00\n        /* \"#utility.yul\":685:687   */\n      0x20\n        /* \"#utility.yul\":673:682   */\n      dup3\n        /* \"#utility.yul\":664:671   */\n      dup5\n        /* \"#utility.yul\":660:683   */\n      sub\n        /* \"#utility.yul\":656:688   */\n      slt\n        /* \"#utility.yul\":653:772   */\n      iszero\n      tag_297\n      jumpi\n        /* \"#utility.yul\":691:770   */\n      tag_298\n      tag_299\n      jump\t// in\n    tag_298:\n        /* \"#utility.yul\":653:772   */\n    tag_297:\n        /* \"#utility.yul\":811:812   */\n      0x00\n        /* \"#utility.yul\":836:889   */\n      tag_300\n        /* \"#utility.yul\":881:888   */\n      dup5\n        /* \"#utility.yul\":872:878   */\n      dup3\n        /* \"#utility.yul\":861:870   */\n      dup6\n        /* \"#utility.yul\":857:879   */\n      add\n        /* \"#utility.yul\":836:889   */\n      tag_280\n      jump\t// in\n    tag_300:\n        /* \"#utility.yul\":826:889   */\n      swap2\n      pop\n        /* \"#utility.yul\":782:899   */\n      pop\n        /* \"#utility.yul\":577:906   */\n      swap3\n      swap2\n      pop\n      pop\n      jump\t// out\n        /* \"#utility.yul\":912:1386   */\n    tag_107:\n        /* \"#utility.yul\":980:986   */\n      0x00\n        /* \"#utility.yul\":988:994   */\n      dup1\n        /* \"#utility.yul\":1037:1039   */\n      0x40\n        /* \"#utility.yul\":1025:1034   */\n      dup4\n        /* \"#utility.yul\":1016:1023   */\n      dup6\n        /* \"#utility.yul\":1012:1035   */\n      sub\n        /* \"#utility.yul\":1008:1040   */\n      slt\n        /* \"#utility.yul\":1005:1124   */\n      iszero\n      tag_302\n      jumpi\n        /* \"#utility.yul\":1043:1122   */\n      tag_303\n      tag_299\n      jump\t// in\n    tag_303:\n        /* \"#utility.yul\":1005:1124   */\n    tag_302:\n        /* \"#utility.yul\":1163:1164   */\n      0x00\n        /* \"#utility.yul\":1188:1241   */\n      tag_304\n        /* \"#utility.yul\":1233:1240   */\n      dup6\n        /* \"#utility.yul\":1224:1230   */\n      dup3\n        /* \"#utility.yul\":1213:1222   */\n      dup7\n        /* \"#utility.yul\":1209:1231   */\n      add\n        /* \"#utility.yul\":1188:1241   */\n      tag_280\n      jump\t// in\n    tag_304:\n        /* \"#utility.yul\":1178:1241   */\n      swap3\n      pop\n        /* \"#utility.yul\":1134:1251   */\n      pop\n        /* \"#utility.yul\":1290:1292   */\n      0x20\n        /* \"#utility.yul\":1316:1369   */\n      tag_305\n        /* \"#utility.yul\":1361:1368   */\n      dup6\n        /* \"#utility.yul\":1352:1358   */\n      dup3\n        /* \"#utility.yul\":1341:1350   */\n      dup7\n        /* \"#utility.yul\":1337:1359   */\n      add\n        /* \"#utility.yul\":1316:1369   */\n      tag_280\n      jump\t// in\n    tag_305:\n        /* \"#utility.yul\":1306:1369   */\n      swap2\n      pop\n        /* \"#utility.yul\":1261:1379   */\n      pop\n        /* \"#utility.yul\":912:1386   */\n      swap3\n      pop\n      swap3\n      swap1\n      pop\n      jump\t// out\n        /* \"#utility.yul\":1392:2011   */\n    tag_56:\n        /* \"#utility.yul\":1469:1475   */\n      0x00\n        /* \"#utility.yul\":1477:1483   */\n      dup1\n        /* \"#utility.yul\":1485:1491   */\n      0x00\n        /* \"#utility.yul\":1534:1536   */\n      0x60\n        /* \"#utility.yul\":1522:1531   */\n      dup5\n        /* \"#utility.yul\":1513:1520   */\n      dup7\n        /* \"#utility.yul\":1509:1532   */\n      sub\n        /* \"#utility.yul\":1505:1537   */\n      slt\n        /* \"#utility.yul\":1502:1621   */\n      iszero\n      tag_307\n      jumpi\n        /* \"#utility.yul\":1540:1619   */\n      tag_308\n      tag_299\n      jump\t// in\n    tag_308:\n        /* \"#utility.yul\":1502:1621   */\n    tag_307:\n        /* \"#utility.yul\":1660:1661   */\n      0x00\n        /* \"#utility.yul\":1685:1738   */\n      tag_309\n        /* \"#utility.yul\":1730:1737   */\n      dup7\n        /* \"#utility.yul\":1721:1727   */\n      dup3\n        /* \"#utility.yul\":1710:1719   */\n      dup8\n        /* \"#utility.yul\":1706:1728   */\n      add\n        /* \"#utility.yul\":1685:1738   */\n      tag_280\n      jump\t// in\n    tag_309:\n        /* \"#utility.yul\":1675:1738   */\n      swap4\n      pop\n        /* \"#utility.yul\":1631:1748   */\n      pop\n        /* \"#utility.yul\":1787:1789   */\n      0x20\n        /* \"#utility.yul\":1813:1866   */\n      tag_310\n        /* \"#utility.yul\":1858:1865   */\n      dup7\n        /* \"#utility.yul\":1849:1855   */\n      dup3\n        /* \"#utility.yul\":1838:1847   */\n      dup8\n        /* \"#utility.yul\":1834:1856   */\n      add\n        /* \"#utility.yul\":1813:1866   */\n      tag_280\n      jump\t// in\n    tag_310:\n        /* \"#utility.yul\":1803:1866   */\n      swap3\n      pop\n        /* \"#utility.yul\":1758:1876   */\n      pop\n        /* \"#utility.yul\":1915:1917   */\n      0x40\n        /* \"#utility.yul\":1941:1994   */\n      tag_311\n        /* \"#utility.yul\":1986:1993   */\n      dup7\n        /* \"#utility.yul\":1977:1983   */\n      dup3\n        /* \"#utility.yul\":1966:1975   */\n      dup8\n        /* \"#utility.yul\":1962:1984   */\n      add\n        /* \"#utility.yul\":1941:1994   */\n      tag_288\n      jump\t// in\n    tag_311:\n        /* \"#utility.yul\":1931:1994   */\n      swap2\n      pop\n        /* \"#utility.yul\":1886:2004   */\n      pop\n        /* \"#utility.yul\":1392:2011   */\n      swap3\n      pop\n      swap3\n      pop\n      swap3\n      jump\t// out\n        /* \"#utility.yul\":2017:2485   */\n    tag_44:\n        /* \"#utility.yul\":2082:2088   */\n      0x00\n        /* \"#utility.yul\":2090:2096   */\n      dup1\n        /* \"#utility.yul\":2139:2141   */\n      0x40\n        /* \"#utility.yul\":2127:2136   */\n      dup4\n        /* \"#utility.yul\":2118:2125   */\n      dup6\n        /* \"#utility.yul\":2114:2137   */\n      sub\n        /* \"#utility.yul\":2110:2142   */\n      slt\n        /* \"#utility.yul\":2107:2226   */\n      iszero\n      tag_313\n      jumpi\n        /* \"#utility.yul\":2145:2224   */\n      tag_314\n      tag_299\n      jump\t// in\n    tag_314:\n        /* \"#utility.yul\":2107:2226   */\n    tag_313:\n        /* \"#utility.yul\":2265:2266   */\n      0x00\n        /* \"#utility.yul\":2290:2343   */\n      tag_315\n        /* \"#utility.yul\":2335:2342   */\n      dup6\n        /* \"#utility.yul\":2326:2332   */\n      dup3\n        /* \"#utility.yul\":2315:2324   */\n      dup7\n        /* \"#utility.yul\":2311:2333   */\n      add\n        /* \"#utility.yul\":2290:2343   */\n      tag_280\n      jump\t// in\n    tag_315:\n        /* \"#utility.yul\":2280:2343   */\n      swap3\n      pop\n        /* \"#utility.yul\":2236:2353   */\n      pop\n        /* \"#utility.yul\":2392:2394   */\n      0x20\n        /* \"#utility.yul\":2418:2468   */\n      tag_316\n        /* \"#utility.yul\":2460:2467   */\n      dup6\n        /* \"#utility.yul\":2451:2457   */\n      dup3\n        /* \"#utility.yul\":2440:2449   */\n      dup7\n        /* \"#utility.yul\":2436:2458   */\n      add\n        /* \"#utility.yul\":2418:2468   */\n      tag_284\n      jump\t// in\n    tag_316:\n        /* \"#utility.yul\":2408:2468   */\n      swap2\n      pop\n        /* \"#utility.yul\":2363:2478   */\n      pop\n        /* \"#utility.yul\":2017:2485   */\n      swap3\n      pop\n      swap3\n      swap1\n      pop\n      jump\t// out\n        /* \"#utility.yul\":2491:2965   */\n    tag_34:\n        /* \"#utility.yul\":2559:2565   */\n      0x00\n        /* \"#utility.yul\":2567:2573   */\n      dup1\n        /* \"#utility.yul\":2616:2618   */\n      0x40\n        /* \"#utility.yul\":2604:2613   */\n      dup4\n        /* \"#utility.yul\":2595:2602   */\n      dup6\n        /* \"#utility.yul\":2591:2614   */\n      sub\n        /* \"#utility.yul\":2587:2619   */\n      slt\n        /* \"#utility.yul\":2584:2703   */\n      iszero\n      tag_318\n      jumpi\n        /* \"#utility.yul\":2622:2701   */\n      tag_319\n      tag_299\n      jump\t// in\n    tag_319:\n        /* \"#utility.yul\":2584:2703   */\n    tag_318:\n        /* \"#utility.yul\":2742:2743   */\n      0x00\n        /* \"#utility.yul\":2767:2820   */\n      tag_320\n        /* \"#utility.yul\":2812:2819   */\n      dup6\n        /* \"#utility.yul\":2803:2809   */\n      dup3\n        /* \"#utility.yul\":2792:2801   */\n      dup7\n        /* \"#utility.yul\":2788:2810   */\n      add\n        /* \"#utility.yul\":2767:2820   */\n      tag_280\n      jump\t// in\n    tag_320:\n        /* \"#utility.yul\":2757:2820   */\n      swap3\n      pop\n        /* \"#utility.yul\":2713:2830   */\n      pop\n        /* \"#utility.yul\":2869:2871   */\n      0x20\n        /* \"#utility.yul\":2895:2948   */\n      tag_321\n        /* \"#utility.yul\":2940:2947   */\n      dup6\n        /* \"#utility.yul\":2931:2937   */\n      dup3\n        /* \"#utility.yul\":2920:2929   */\n      dup7\n        /* \"#utility.yul\":2916:2938   */\n      add\n        /* \"#utility.yul\":2895:2948   */\n      tag_288\n      jump\t// in\n    tag_321:\n        /* \"#utility.yul\":2885:2948   */\n      swap2\n      pop\n        /* \"#utility.yul\":2840:2958   */\n      pop\n        /* \"#utility.yul\":2491:2965   */\n      swap3\n      pop\n      swap3\n      swap1\n      pop\n      jump\t// out\n        /* \"#utility.yul\":2971:3296   */\n    tag_48:\n        /* \"#utility.yul\":3028:3034   */\n      0x00\n        /* \"#utility.yul\":3077:3079   */\n      0x20\n        /* \"#utility.yul\":3065:3074   */\n      dup3\n        /* \"#utility.yul\":3056:3063   */\n      dup5\n        /* \"#utility.yul\":3052:3075   */\n      sub\n        /* \"#utility.yul\":3048:3080   */\n      slt\n        /* \"#utility.yul\":3045:3164   */\n      iszero\n      tag_323\n      jumpi\n        /* \"#utility.yul\":3083:3162   */\n      tag_324\n      tag_299\n      jump\t// in\n    tag_324:\n        /* \"#utility.yul\":3045:3164   */\n    tag_323:\n        /* \"#utility.yul\":3203:3204   */\n      0x00\n        /* \"#utility.yul\":3228:3279   */\n      tag_325\n        /* \"#utility.yul\":3271:3278   */\n      dup5\n        /* \"#utility.yul\":3262:3268   */\n      dup3\n        /* \"#utility.yul\":3251:3260   */\n      dup6\n        /* \"#utility.yul\":3247:3269   */\n      add\n        /* \"#utility.yul\":3228:3279   */\n      tag_292\n      jump\t// in\n    tag_325:\n        /* \"#utility.yul\":3218:3279   */\n      swap2\n      pop\n        /* \"#utility.yul\":3174:3289   */\n      pop\n        /* \"#utility.yul\":2971:3296   */\n      swap3\n      swap2\n      pop\n      pop\n      jump\t// out\n        /* \"#utility.yul\":3302:3909   */\n    tag_40:\n        /* \"#utility.yul\":3373:3379   */\n      0x00\n        /* \"#utility.yul\":3381:3387   */\n      dup1\n        /* \"#utility.yul\":3389:3395   */\n      0x00\n        /* \"#utility.yul\":3438:3440   */\n      0x60\n        /* \"#utility.yul\":3426:3435   */\n      dup5\n        /* \"#utility.yul\":3417:3424   */\n      dup7\n        /* \"#utility.yul\":3413:3436   */\n      sub\n        /* \"#utility.yul\":3409:3441   */\n      slt\n        /* \"#utility.yul\":3406:3525   */\n      iszero\n      tag_327\n      jumpi\n        /* \"#utility.yul\":3444:3523   */\n      tag_328\n      tag_299\n      jump\t// in\n    tag_328:\n        /* \"#utility.yul\":3406:3525   */\n    tag_327:\n        /* \"#utility.yul\":3564:3565   */\n      0x00\n        /* \"#utility.yul\":3589:3640   */\n      tag_329\n        /* \"#utility.yul\":3632:3639   */\n      dup7\n        /* \"#utility.yul\":3623:3629   */\n      dup3\n        /* \"#utility.yul\":3612:3621   */\n      dup8\n        /* \"#utility.yul\":3608:3630   */\n      add\n        /* \"#utility.yul\":3589:3640   */\n      tag_292\n      jump\t// in\n    tag_329:\n        /* \"#utility.yul\":3579:3640   */\n      swap4\n      pop\n        /* \"#utility.yul\":3535:3650   */\n      pop\n        /* \"#utility.yul\":3689:3691   */\n      0x20\n        /* \"#utility.yul\":3715:3766   */\n      tag_330\n        /* \"#utility.yul\":3758:3765   */\n      dup7\n        /* \"#utility.yul\":3749:3755   */\n      dup3\n        /* \"#utility.yul\":3738:3747   */\n      dup8\n        /* \"#utility.yul\":3734:3756   */\n      add\n        /* \"#utility.yul\":3715:3766   */\n      tag_292\n      jump\t// in\n    tag_330:\n        /* \"#utility.yul\":3705:3766   */\n      swap3\n      pop\n        /* \"#utility.yul\":3660:3776   */\n      pop\n        /* \"#utility.yul\":3815:3817   */\n      0x40\n        /* \"#utility.yul\":3841:3892   */\n      tag_331\n        /* \"#utility.yul\":3884:3891   */\n      dup7\n        /* \"#utility.yul\":3875:3881   */\n      dup3\n        /* \"#utility.yul\":3864:3873   */\n      dup8\n        /* \"#utility.yul\":3860:3882   */\n      add\n        /* \"#utility.yul\":3841:3892   */\n      tag_292\n      jump\t// in\n    tag_331:\n        /* \"#utility.yul\":3831:3892   */\n      swap2\n      pop\n        /* \"#utility.yul\":3786:3902   */\n      pop\n        /* \"#utility.yul\":3302:3909   */\n      swap3\n      pop\n      swap3\n      pop\n      swap3\n      jump\t// out\n        /* \"#utility.yul\":3915:4033   */\n    tag_332:\n        /* \"#utility.yul\":4002:4026   */\n      tag_334\n        /* \"#utility.yul\":4020:4025   */\n      dup2\n        /* \"#utility.yul\":4002:4026   */\n      tag_335\n      jump\t// in\n    tag_334:\n        /* \"#utility.yul\":3997:4000   */\n      dup3\n        /* \"#utility.yul\":3990:4027   */\n      mstore\n        /* \"#utility.yul\":3915:4033   */\n      pop\n      pop\n      jump\t// out\n        /* \"#utility.yul\":4039:4148   */\n    tag_336:\n        /* \"#utility.yul\":4120:4141   */\n      tag_338\n        /* \"#utility.yul\":4135:4140   */\n      dup2\n        /* \"#utility.yul\":4120:4141   */\n      tag_339\n      jump\t// in\n    tag_338:\n        /* \"#utility.yul\":4115:4118   */\n      dup3\n        /* \"#utility.yul\":4108:4142   */\n      mstore\n        /* \"#utility.yul\":4039:4148   */\n      pop\n      pop\n      jump\t// out\n        /* \"#utility.yul\":4154:4518   */\n    tag_340:\n        /* \"#utility.yul\":4242:4245   */\n      0x00\n        /* \"#utility.yul\":4270:4309   */\n      tag_342\n        /* \"#utility.yul\":4303:4308   */\n      dup3\n        /* \"#utility.yul\":4270:4309   */\n      tag_343\n      jump\t// in\n    tag_342:\n        /* \"#utility.yul\":4325:4396   */\n      tag_344\n        /* \"#utility.yul\":4389:4395   */\n      dup2\n        /* \"#utility.yul\":4384:4387   */\n      dup6\n        /* \"#utility.yul\":4325:4396   */\n      tag_345\n      jump\t// in\n    tag_344:\n        /* \"#utility.yul\":4318:4396   */\n      swap4\n      pop\n        /* \"#utility.yul\":4405:4457   */\n      tag_346\n        /* \"#utility.yul\":4450:4456   */\n      dup2\n        /* \"#utility.yul\":4445:4448   */\n      dup6\n        /* \"#utility.yul\":4438:4442   */\n      0x20\n        /* \"#utility.yul\":4431:4436   */\n      dup7\n        /* \"#utility.yul\":4427:4443   */\n      add\n        /* \"#utility.yul\":4405:4457   */\n      tag_347\n      jump\t// in\n    tag_346:\n        /* \"#utility.yul\":4482:4511   */\n      tag_348\n        /* \"#utility.yul\":4504:4510   */\n      dup2\n        /* \"#utility.yul\":4482:4511   */\n      tag_349\n      jump\t// in\n    tag_348:\n        /* \"#utility.yul\":4477:4480   */\n      dup5\n        /* \"#utility.yul\":4473:4512   */\n      add\n        /* \"#utility.yul\":4466:4512   */\n      swap2\n      pop\n        /* \"#utility.yul\":4246:4518   */\n      pop\n        /* \"#utility.yul\":4154:4518   */\n      swap3\n      swap2\n      pop\n      pop\n      jump\t// out\n        /* \"#utility.yul\":4524:4890   */\n    tag_350:\n        /* \"#utility.yul\":4666:4669   */\n      0x00\n        /* \"#utility.yul\":4687:4754   */\n      tag_352\n        /* \"#utility.yul\":4751:4753   */\n      0x25\n        /* \"#utility.yul\":4746:4749   */\n      dup4\n        /* \"#utility.yul\":4687:4754   */\n      tag_345\n      jump\t// in\n    tag_352:\n        /* \"#utility.yul\":4680:4754   */\n      swap2\n      pop\n        /* \"#utility.yul\":4763:4856   */\n      tag_353\n        /* \"#utility.yul\":4852:4855   */\n      dup3\n        /* \"#utility.yul\":4763:4856   */\n      tag_354\n      jump\t// in\n    tag_353:\n        /* \"#utility.yul\":4881:4883   */\n      0x40\n        /* \"#utility.yul\":4876:4879   */\n      dup3\n        /* \"#utility.yul\":4872:4884   */\n      add\n        /* \"#utility.yul\":4865:4884   */\n      swap1\n      pop\n        /* \"#utility.yul\":4524:4890   */\n      swap2\n      swap1\n      pop\n      jump\t// out\n        /* \"#utility.yul\":4896:5262   */\n    tag_355:\n        /* \"#utility.yul\":5038:5041   */\n      0x00\n        /* \"#utility.yul\":5059:5126   */\n      tag_357\n        /* \"#utility.yul\":5123:5125   */\n      0x24\n        /* \"#utility.yul\":5118:5121   */\n      dup4\n        /* \"#utility.yul\":5059:5126   */\n      tag_345\n      jump\t// in\n    tag_357:\n        /* \"#utility.yul\":5052:5126   */\n      swap2\n      pop\n        /* \"#utility.yul\":5135:5228   */\n      tag_358\n        /* \"#utility.yul\":5224:5227   */\n      dup3\n        /* \"#utility.yul\":5135:5228   */\n      tag_359\n      jump\t// in\n    tag_358:\n        /* \"#utility.yul\":5253:5255   */\n      0x40\n        /* \"#utility.yul\":5248:5251   */\n      dup3\n        /* \"#utility.yul\":5244:5256   */\n      add\n        /* \"#utility.yul\":5237:5256   */\n      swap1\n      pop\n        /* \"#utility.yul\":4896:5262   */\n      swap2\n      swap1\n      pop\n      jump\t// out\n        /* \"#utility.yul\":5268:5634   */\n    tag_360:\n        /* \"#utility.yul\":5410:5413   */\n      0x00\n        /* \"#utility.yul\":5431:5498   */\n      tag_362\n        /* \"#utility.yul\":5495:5497   */\n      0x26\n        /* \"#utility.yul\":5490:5493   */\n      dup4\n        /* \"#utility.yul\":5431:5498   */\n      tag_345\n      jump\t// in\n    tag_362:\n        /* \"#utility.yul\":5424:5498   */\n      swap2\n      pop\n        /* \"#utility.yul\":5507:5600   */\n      tag_363\n        /* \"#utility.yul\":5596:5599   */\n      dup3\n        /* \"#utility.yul\":5507:5600   */\n      tag_364\n      jump\t// in\n    tag_363:\n        /* \"#utility.yul\":5625:5627   */\n      0x40\n        /* \"#utility.yul\":5620:5623   */\n      dup3\n        /* \"#utility.yul\":5616:5628   */\n      add\n        /* \"#utility.yul\":5609:5628   */\n      swap1\n      pop\n        /* \"#utility.yul\":5268:5634   */\n      swap2\n      swap1\n      pop\n      jump\t// out\n        /* \"#utility.yul\":5640:6006   */\n    tag_365:\n        /* \"#utility.yul\":5782:5785   */\n      0x00\n        /* \"#utility.yul\":5803:5870   */\n      tag_367\n        /* \"#utility.yul\":5867:5869   */\n      0x1b\n        /* \"#utility.yul\":5862:5865   */\n      dup4\n        /* \"#utility.yul\":5803:5870   */\n      tag_345\n      jump\t// in\n    tag_367:\n        /* \"#utility.yul\":5796:5870   */\n      swap2\n      pop\n        /* \"#utility.yul\":5879:5972   */\n      tag_368\n        /* \"#utility.yul\":5968:5971   */\n      dup3\n        /* \"#utility.yul\":5879:5972   */\n      tag_369\n      jump\t// in\n    tag_368:\n        /* \"#utility.yul\":5997:5999   */\n      0x20\n        /* \"#utility.yul\":5992:5995   */\n      dup3\n        /* \"#utility.yul\":5988:6000   */\n      add\n        /* \"#utility.yul\":5981:6000   */\n      swap1\n      pop\n        /* \"#utility.yul\":5640:6006   */\n      swap2\n      swap1\n      pop\n      jump\t// out\n        /* \"#utility.yul\":6012:6378   */\n    tag_370:\n        /* \"#utility.yul\":6154:6157   */\n      0x00\n        /* \"#utility.yul\":6175:6242   */\n      tag_372\n        /* \"#utility.yul\":6239:6241   */\n      0x10\n        /* \"#utility.yul\":6234:6237   */\n      dup4\n        /* \"#utility.yul\":6175:6242   */\n      tag_345\n      jump\t// in\n    tag_372:\n        /* \"#utility.yul\":6168:6242   */\n      swap2\n      pop\n        /* \"#utility.yul\":6251:6344   */\n      tag_373\n        /* \"#utility.yul\":6340:6343   */\n      dup3\n        /* \"#utility.yul\":6251:6344   */\n      tag_374\n      jump\t// in\n    tag_373:\n        /* \"#utility.yul\":6369:6371   */\n      0x20\n        /* \"#utility.yul\":6364:6367   */\n      dup3\n        /* \"#utility.yul\":6360:6372   */\n      add\n        /* \"#utility.yul\":6353:6372   */\n      swap1\n      pop\n        /* \"#utility.yul\":6012:6378   */\n      swap2\n      swap1\n      pop\n      jump\t// out\n        /* \"#utility.yul\":6384:6750   */\n    tag_375:\n        /* \"#utility.yul\":6526:6529   */\n      0x00\n        /* \"#utility.yul\":6547:6614   */\n      tag_377\n        /* \"#utility.yul\":6611:6613   */\n      0x20\n        /* \"#utility.yul\":6606:6609   */\n      dup4\n        /* \"#utility.yul\":6547:6614   */\n      tag_345\n      jump\t// in\n    tag_377:\n        /* \"#utility.yul\":6540:6614   */\n      swap2\n      pop\n        /* \"#utility.yul\":6623:6716   */\n      tag_378\n        /* \"#utility.yul\":6712:6715   */\n      dup3\n        /* \"#utility.yul\":6623:6716   */\n      tag_379\n      jump\t// in\n    tag_378:\n        /* \"#utility.yul\":6741:6743   */\n      0x20\n        /* \"#utility.yul\":6736:6739   */\n      dup3\n        /* \"#utility.yul\":6732:6744   */\n      add\n        /* \"#utility.yul\":6725:6744   */\n      swap1\n      pop\n        /* \"#utility.yul\":6384:6750   */\n      swap2\n      swap1\n      pop\n      jump\t// out\n        /* \"#utility.yul\":6756:7122   */\n    tag_380:\n        /* \"#utility.yul\":6898:6901   */\n      0x00\n        /* \"#utility.yul\":6919:6986   */\n      tag_382\n        /* \"#utility.yul\":6983:6985   */\n      0x23\n        /* \"#utility.yul\":6978:6981   */\n      dup4\n        /* \"#utility.yul\":6919:6986   */\n      tag_345\n      jump\t// in\n    tag_382:\n        /* \"#utility.yul\":6912:6986   */\n      swap2\n      pop\n        /* \"#utility.yul\":6995:7088   */\n      tag_383\n        /* \"#utility.yul\":7084:7087   */\n      dup3\n        /* \"#utility.yul\":6995:7088   */\n      tag_384\n      jump\t// in\n    tag_383:\n        /* \"#utility.yul\":7113:7115   */\n      0x40\n        /* \"#utility.yul\":7108:7111   */\n      dup3\n        /* \"#utility.yul\":7104:7116   */\n      add\n        /* \"#utility.yul\":7097:7116   */\n      swap1\n      pop\n        /* \"#utility.yul\":6756:7122   */\n      swap2\n      swap1\n      pop\n      jump\t// out\n        /* \"#utility.yul\":7128:7494   */\n    tag_385:\n        /* \"#utility.yul\":7270:7273   */\n      0x00\n        /* \"#utility.yul\":7291:7358   */\n      tag_387\n        /* \"#utility.yul\":7355:7357   */\n      0x22\n        /* \"#utility.yul\":7350:7353   */\n      dup4\n        /* \"#utility.yul\":7291:7358   */\n      tag_345\n      jump\t// in\n    tag_387:\n        /* \"#utility.yul\":7284:7358   */\n      swap2\n      pop\n        /* \"#utility.yul\":7367:7460   */\n      tag_388\n        /* \"#utility.yul\":7456:7459   */\n      dup3\n        /* \"#utility.yul\":7367:7460   */\n      tag_389\n      jump\t// in\n    tag_388:\n        /* \"#utility.yul\":7485:7487   */\n      0x40\n        /* \"#utility.yul\":7480:7483   */\n      dup3\n        /* \"#utility.yul\":7476:7488   */\n      add\n        /* \"#utility.yul\":7469:7488   */\n      swap1\n      pop\n        /* \"#utility.yul\":7128:7494   */\n      swap2\n      swap1\n      pop\n      jump\t// out\n        /* \"#utility.yul\":7500:7618   */\n    tag_390:\n        /* \"#utility.yul\":7587:7611   */\n      tag_392\n        /* \"#utility.yul\":7605:7610   */\n      dup2\n        /* \"#utility.yul\":7587:7611   */\n      tag_393\n      jump\t// in\n    tag_392:\n        /* \"#utility.yul\":7582:7585   */\n      dup3\n        /* \"#utility.yul\":7575:7612   */\n      mstore\n        /* \"#utility.yul\":7500:7618   */\n      pop\n      pop\n      jump\t// out\n        /* \"#utility.yul\":7624:7736   */\n    tag_394:\n        /* \"#utility.yul\":7707:7729   */\n      tag_396\n        /* \"#utility.yul\":7723:7728   */\n      dup2\n        /* \"#utility.yul\":7707:7729   */\n      tag_397\n      jump\t// in\n    tag_396:\n        /* \"#utility.yul\":7702:7705   */\n      dup3\n        /* \"#utility.yul\":7695:7730   */\n      mstore\n        /* \"#utility.yul\":7624:7736   */\n      pop\n      pop\n      jump\t// out\n        /* \"#utility.yul\":7742:7964   */\n    tag_84:\n        /* \"#utility.yul\":7835:7839   */\n      0x00\n        /* \"#utility.yul\":7873:7875   */\n      0x20\n        /* \"#utility.yul\":7862:7871   */\n      dup3\n        /* \"#utility.yul\":7858:7876   */\n      add\n        /* \"#utility.yul\":7850:7876   */\n      swap1\n      pop\n        /* \"#utility.yul\":7886:7957   */\n      tag_399\n        /* \"#utility.yul\":7954:7955   */\n      0x00\n        /* \"#utility.yul\":7943:7952   */\n      dup4\n        /* \"#utility.yul\":7939:7956   */\n      add\n        /* \"#utility.yul\":7930:7936   */\n      dup5\n        /* \"#utility.yul\":7886:7957   */\n      tag_332\n      jump\t// in\n    tag_399:\n        /* \"#utility.yul\":7742:7964   */\n      swap3\n      swap2\n      pop\n      pop\n      jump\t// out\n        /* \"#utility.yul\":7970:8290   */\n    tag_142:\n        /* \"#utility.yul\":8085:8089   */\n      0x00\n        /* \"#utility.yul\":8123:8125   */\n      0x40\n        /* \"#utility.yul\":8112:8121   */\n      dup3\n        /* \"#utility.yul\":8108:8126   */\n      add\n        /* \"#utility.yul\":8100:8126   */\n      swap1\n      pop\n        /* \"#utility.yul\":8136:8207   */\n      tag_401\n        /* \"#utility.yul\":8204:8205   */\n      0x00\n        /* \"#utility.yul\":8193:8202   */\n      dup4\n        /* \"#utility.yul\":8189:8206   */\n      add\n        /* \"#utility.yul\":8180:8186   */\n      dup6\n        /* \"#utility.yul\":8136:8207   */\n      tag_332\n      jump\t// in\n    tag_401:\n        /* \"#utility.yul\":8217:8283   */\n      tag_402\n        /* \"#utility.yul\":8279:8281   */\n      0x20\n        /* \"#utility.yul\":8268:8277   */\n      dup4\n        /* \"#utility.yul\":8264:8282   */\n      add\n        /* \"#utility.yul\":8255:8261   */\n      dup5\n        /* \"#utility.yul\":8217:8283   */\n      tag_336\n      jump\t// in\n    tag_402:\n        /* \"#utility.yul\":7970:8290   */\n      swap4\n      swap3\n      pop\n      pop\n      pop\n      jump\t// out\n        /* \"#utility.yul\":8296:8506   */\n    tag_37:\n        /* \"#utility.yul\":8383:8387   */\n      0x00\n        /* \"#utility.yul\":8421:8423   */\n      0x20\n        /* \"#utility.yul\":8410:8419   */\n      dup3\n        /* \"#utility.yul\":8406:8424   */\n      add\n        /* \"#utility.yul\":8398:8424   */\n      swap1\n      pop\n        /* \"#utility.yul\":8434:8499   */\n      tag_404\n        /* \"#utility.yul\":8496:8497   */\n      0x00\n        /* \"#utility.yul\":8485:8494   */\n      dup4\n        /* \"#utility.yul\":8481:8498   */\n      add\n        /* \"#utility.yul\":8472:8478   */\n      dup5\n        /* \"#utility.yul\":8434:8499   */\n      tag_336\n      jump\t// in\n    tag_404:\n        /* \"#utility.yul\":8296:8506   */\n      swap3\n      swap2\n      pop\n      pop\n      jump\t// out\n        /* \"#utility.yul\":8512:8825   */\n    tag_31:\n        /* \"#utility.yul\":8625:8629   */\n      0x00\n        /* \"#utility.yul\":8663:8665   */\n      0x20\n        /* \"#utility.yul\":8652:8661   */\n      dup3\n        /* \"#utility.yul\":8648:8666   */\n      add\n        /* \"#utility.yul\":8640:8666   */\n      swap1\n      pop\n        /* \"#utility.yul\":8712:8721   */\n      dup2\n        /* \"#utility.yul\":8706:8710   */\n      dup2\n        /* \"#utility.yul\":8702:8722   */\n      sub\n        /* \"#utility.yul\":8698:8699   */\n      0x00\n        /* \"#utility.yul\":8687:8696   */\n      dup4\n        /* \"#utility.yul\":8683:8700   */\n      add\n        /* \"#utility.yul\":8676:8723   */\n      mstore\n        /* \"#utility.yul\":8740:8818   */\n      tag_406\n        /* \"#utility.yul\":8813:8817   */\n      dup2\n        /* \"#utility.yul\":8804:8810   */\n      dup5\n        /* \"#utility.yul\":8740:8818   */\n      tag_340\n      jump\t// in\n    tag_406:\n        /* \"#utility.yul\":8732:8818   */\n      swap1\n      pop\n        /* \"#utility.yul\":8512:8825   */\n      swap3\n      swap2\n      pop\n      pop\n      jump\t// out\n        /* \"#utility.yul\":8831:9250   */\n    tag_272:\n        /* \"#utility.yul\":8997:9001   */\n      0x00\n        /* \"#utility.yul\":9035:9037   */\n      0x20\n        /* \"#utility.yul\":9024:9033   */\n      dup3\n        /* \"#utility.yul\":9020:9038   */\n      add\n        /* \"#utility.yul\":9012:9038   */\n      swap1\n      pop\n        /* \"#utility.yul\":9084:9093   */\n      dup2\n        /* \"#utility.yul\":9078:9082   */\n      dup2\n        /* \"#utility.yul\":9074:9094   */\n      sub\n        /* \"#utility.yul\":9070:9071   */\n      0x00\n        /* \"#utility.yul\":9059:9068   */\n      dup4\n        /* \"#utility.yul\":9055:9072   */\n      add\n        /* \"#utility.yul\":9048:9095   */\n      mstore\n        /* \"#utility.yul\":9112:9243   */\n      tag_408\n        /* \"#utility.yul\":9238:9242   */\n      dup2\n        /* \"#utility.yul\":9112:9243   */\n      tag_350\n      jump\t// in\n    tag_408:\n        /* \"#utility.yul\":9104:9243   */\n      swap1\n      pop\n        /* \"#utility.yul\":8831:9250   */\n      swap2\n      swap1\n      pop\n      jump\t// out\n        /* \"#utility.yul\":9256:9675   */\n    tag_224:\n        /* \"#utility.yul\":9422:9426   */\n      0x00\n        /* \"#utility.yul\":9460:9462   */\n      0x20\n        /* \"#utility.yul\":9449:9458   */\n      dup3\n        /* \"#utility.yul\":9445:9463   */\n      add\n        /* \"#utility.yul\":9437:9463   */\n      swap1\n      pop\n        /* \"#utility.yul\":9509:9518   */\n      dup2\n        /* \"#utility.yul\":9503:9507   */\n      dup2\n        /* \"#utility.yul\":9499:9519   */\n      sub\n        /* \"#utility.yul\":9495:9496   */\n      0x00\n        /* \"#utility.yul\":9484:9493   */\n      dup4\n        /* \"#utility.yul\":9480:9497   */\n      add\n        /* \"#utility.yul\":9473:9520   */\n      mstore\n        /* \"#utility.yul\":9537:9668   */\n      tag_410\n        /* \"#utility.yul\":9663:9667   */\n      dup2\n        /* \"#utility.yul\":9537:9668   */\n      tag_355\n      jump\t// in\n    tag_410:\n        /* \"#utility.yul\":9529:9668   */\n      swap1\n      pop\n        /* \"#utility.yul\":9256:9675   */\n      swap2\n      swap1\n      pop\n      jump\t// out\n        /* \"#utility.yul\":9681:10100   */\n    tag_268:\n        /* \"#utility.yul\":9847:9851   */\n      0x00\n        /* \"#utility.yul\":9885:9887   */\n      0x20\n        /* \"#utility.yul\":9874:9883   */\n      dup3\n        /* \"#utility.yul\":9870:9888   */\n      add\n        /* \"#utility.yul\":9862:9888   */\n      swap1\n      pop\n        /* \"#utility.yul\":9934:9943   */\n      dup2\n        /* \"#utility.yul\":9928:9932   */\n      dup2\n        /* \"#utility.yul\":9924:9944   */\n      sub\n        /* \"#utility.yul\":9920:9921   */\n      0x00\n        /* \"#utility.yul\":9909:9918   */\n      dup4\n        /* \"#utility.yul\":9905:9922   */\n      add\n        /* \"#utility.yul\":9898:9945   */\n      mstore\n        /* \"#utility.yul\":9962:10093   */\n      tag_412\n        /* \"#utility.yul\":10088:10092   */\n      dup2\n        /* \"#utility.yul\":9962:10093   */\n      tag_360\n      jump\t// in\n    tag_412:\n        /* \"#utility.yul\":9954:10093   */\n      swap1\n      pop\n        /* \"#utility.yul\":9681:10100   */\n      swap2\n      swap1\n      pop\n      jump\t// out\n        /* \"#utility.yul\":10106:10525   */\n    tag_219:\n        /* \"#utility.yul\":10272:10276   */\n      0x00\n        /* \"#utility.yul\":10310:10312   */\n      0x20\n        /* \"#utility.yul\":10299:10308   */\n      dup3\n        /* \"#utility.yul\":10295:10313   */\n      add\n        /* \"#utility.yul\":10287:10313   */\n      swap1\n      pop\n        /* \"#utility.yul\":10359:10368   */\n      dup2\n        /* \"#utility.yul\":10353:10357   */\n      dup2\n        /* \"#utility.yul\":10349:10369   */\n      sub\n        /* \"#utility.yul\":10345:10346   */\n      0x00\n        /* \"#utility.yul\":10334:10343   */\n      dup4\n        /* \"#utility.yul\":10330:10347   */\n      add\n        /* \"#utility.yul\":10323:10370   */\n      mstore\n        /* \"#utility.yul\":10387:10518   */\n      tag_414\n        /* \"#utility.yul\":10513:10517   */\n      dup2\n        /* \"#utility.yul\":10387:10518   */\n      tag_365\n      jump\t// in\n    tag_414:\n        /* \"#utility.yul\":10379:10518   */\n      swap1\n      pop\n        /* \"#utility.yul\":10106:10525   */\n      swap2\n      swap1\n      pop\n      jump\t// out\n        /* \"#utility.yul\":10531:10950   */\n    tag_234:\n        /* \"#utility.yul\":10697:10701   */\n      0x00\n        /* \"#utility.yul\":10735:10737   */\n      0x20\n        /* \"#utility.yul\":10724:10733   */\n      dup3\n        /* \"#utility.yul\":10720:10738   */\n      add\n        /* \"#utility.yul\":10712:10738   */\n      swap1\n      pop\n        /* \"#utility.yul\":10784:10793   */\n      dup2\n        /* \"#utility.yul\":10778:10782   */\n      dup2\n        /* \"#utility.yul\":10774:10794   */\n      sub\n        /* \"#utility.yul\":10770:10771   */\n      0x00\n        /* \"#utility.yul\":10759:10768   */\n      dup4\n        /* \"#utility.yul\":10755:10772   */\n      add\n        /* \"#utility.yul\":10748:10795   */\n      mstore\n        /* \"#utility.yul\":10812:10943   */\n      tag_416\n        /* \"#utility.yul\":10938:10942   */\n      dup2\n        /* \"#utility.yul\":10812:10943   */\n      tag_370\n      jump\t// in\n    tag_416:\n        /* \"#utility.yul\":10804:10943   */\n      swap1\n      pop\n        /* \"#utility.yul\":10531:10950   */\n      swap2\n      swap1\n      pop\n      jump\t// out\n        /* \"#utility.yul\":10956:11375   */\n    tag_130:\n        /* \"#utility.yul\":11122:11126   */\n      0x00\n        /* \"#utility.yul\":11160:11162   */\n      0x20\n        /* \"#utility.yul\":11149:11158   */\n      dup3\n        /* \"#utility.yul\":11145:11163   */\n      add\n        /* \"#utility.yul\":11137:11163   */\n      swap1\n      pop\n        /* \"#utility.yul\":11209:11218   */\n      dup2\n        /* \"#utility.yul\":11203:11207   */\n      dup2\n        /* \"#utility.yul\":11199:11219   */\n      sub\n        /* \"#utility.yul\":11195:11196   */\n      0x00\n        /* \"#utility.yul\":11184:11193   */\n      dup4\n        /* \"#utility.yul\":11180:11197   */\n      add\n        /* \"#utility.yul\":11173:11220   */\n      mstore\n        /* \"#utility.yul\":11237:11368   */\n      tag_418\n        /* \"#utility.yul\":11363:11367   */\n      dup2\n        /* \"#utility.yul\":11237:11368   */\n      tag_375\n      jump\t// in\n    tag_418:\n        /* \"#utility.yul\":11229:11368   */\n      swap1\n      pop\n        /* \"#utility.yul\":10956:11375   */\n      swap2\n      swap1\n      pop\n      jump\t// out\n        /* \"#utility.yul\":11381:11800   */\n    tag_275:\n        /* \"#utility.yul\":11547:11551   */\n      0x00\n        /* \"#utility.yul\":11585:11587   */\n      0x20\n        /* \"#utility.yul\":11574:11583   */\n      dup3\n        /* \"#utility.yul\":11570:11588   */\n      add\n        /* \"#utility.yul\":11562:11588   */\n      swap1\n      pop\n        /* \"#utility.yul\":11634:11643   */\n      dup2\n        /* \"#utility.yul\":11628:11632   */\n      dup2\n        /* \"#utility.yul\":11624:11644   */\n      sub\n        /* \"#utility.yul\":11620:11621   */\n      0x00\n        /* \"#utility.yul\":11609:11618   */\n      dup4\n        /* \"#utility.yul\":11605:11622   */\n      add\n        /* \"#utility.yul\":11598:11645   */\n      mstore\n        /* \"#utility.yul\":11662:11793   */\n      tag_420\n        /* \"#utility.yul\":11788:11792   */\n      dup2\n        /* \"#utility.yul\":11662:11793   */\n      tag_380\n      jump\t// in\n    tag_420:\n        /* \"#utility.yul\":11654:11793   */\n      swap1\n      pop\n        /* \"#utility.yul\":11381:11800   */\n      swap2\n      swap1\n      pop\n      jump\t// out\n        /* \"#utility.yul\":11806:12225   */\n    tag_227:\n        /* \"#utility.yul\":11972:11976   */\n      0x00\n        /* \"#utility.yul\":12010:12012   */\n      0x20\n        /* \"#utility.yul\":11999:12008   */\n      dup3\n        /* \"#utility.yul\":11995:12013   */\n      add\n        /* \"#utility.yul\":11987:12013   */\n      swap1\n      pop\n        /* \"#utility.yul\":12059:12068   */\n      dup2\n        /* \"#utility.yul\":12053:12057   */\n      dup2\n        /* \"#utility.yul\":12049:12069   */\n      sub\n        /* \"#utility.yul\":12045:12046   */\n      0x00\n        /* \"#utility.yul\":12034:12043   */\n      dup4\n        /* \"#utility.yul\":12030:12047   */\n      add\n        /* \"#utility.yul\":12023:12070   */\n      mstore\n        /* \"#utility.yul\":12087:12218   */\n      tag_422\n        /* \"#utility.yul\":12213:12217   */\n      dup2\n        /* \"#utility.yul\":12087:12218   */\n      tag_385\n      jump\t// in\n    tag_422:\n        /* \"#utility.yul\":12079:12218   */\n      swap1\n      pop\n        /* \"#utility.yul\":11806:12225   */\n      swap2\n      swap1\n      pop\n      jump\t// out\n        /* \"#utility.yul\":12231:12453   */\n    tag_53:\n        /* \"#utility.yul\":12324:12328   */\n      0x00\n        /* \"#utility.yul\":12362:12364   */\n      0x20\n        /* \"#utility.yul\":12351:12360   */\n      dup3\n        /* \"#utility.yul\":12347:12365   */\n      add\n        /* \"#utility.yul\":12339:12365   */\n      swap1\n      pop\n        /* \"#utility.yul\":12375:12446   */\n      tag_424\n        /* \"#utility.yul\":12443:12444   */\n      0x00\n        /* \"#utility.yul\":12432:12441   */\n      dup4\n        /* \"#utility.yul\":12428:12445   */\n      add\n        /* \"#utility.yul\":12419:12425   */\n      dup5\n        /* \"#utility.yul\":12375:12446   */\n      tag_390\n      jump\t// in\n    tag_424:\n        /* \"#utility.yul\":12231:12453   */\n      swap3\n      swap2\n      pop\n      pop\n      jump\t// out\n        /* \"#utility.yul\":12459:12673   */\n    tag_66:\n        /* \"#utility.yul\":12548:12552   */\n      0x00\n        /* \"#utility.yul\":12586:12588   */\n      0x20\n        /* \"#utility.yul\":12575:12584   */\n      dup3\n        /* \"#utility.yul\":12571:12589   */\n      add\n        /* \"#utility.yul\":12563:12589   */\n      swap1\n      pop\n        /* \"#utility.yul\":12599:12666   */\n      tag_426\n        /* \"#utility.yul\":12663:12664   */\n      0x00\n        /* \"#utility.yul\":12652:12661   */\n      dup4\n        /* \"#utility.yul\":12648:12665   */\n      add\n        /* \"#utility.yul\":12639:12645   */\n      dup5\n        /* \"#utility.yul\":12599:12666   */\n      tag_394\n      jump\t// in\n    tag_426:\n        /* \"#utility.yul\":12459:12673   */\n      swap3\n      swap2\n      pop\n      pop\n      jump\t// out\n        /* \"#utility.yul\":12679:13097   */\n    tag_62:\n        /* \"#utility.yul\":12816:12820   */\n      0x00\n        /* \"#utility.yul\":12854:12856   */\n      0x60\n        /* \"#utility.yul\":12843:12852   */\n      dup3\n        /* \"#utility.yul\":12839:12857   */\n      add\n        /* \"#utility.yul\":12831:12857   */\n      swap1\n      pop\n        /* \"#utility.yul\":12867:12934   */\n      tag_428\n        /* \"#utility.yul\":12931:12932   */\n      0x00\n        /* \"#utility.yul\":12920:12929   */\n      dup4\n        /* \"#utility.yul\":12916:12933   */\n      add\n        /* \"#utility.yul\":12907:12913   */\n      dup7\n        /* \"#utility.yul\":12867:12934   */\n      tag_394\n      jump\t// in\n    tag_428:\n        /* \"#utility.yul\":12944:13012   */\n      tag_429\n        /* \"#utility.yul\":13008:13010   */\n      0x20\n        /* \"#utility.yul\":12997:13006   */\n      dup4\n        /* \"#utility.yul\":12993:13011   */\n      add\n        /* \"#utility.yul\":12984:12990   */\n      dup6\n        /* \"#utility.yul\":12944:13012   */\n      tag_394\n      jump\t// in\n    tag_429:\n        /* \"#utility.yul\":13022:13090   */\n      tag_430\n        /* \"#utility.yul\":13086:13088   */\n      0x40\n        /* \"#utility.yul\":13075:13084   */\n      dup4\n        /* \"#utility.yul\":13071:13089   */\n      add\n        /* \"#utility.yul\":13062:13068   */\n      dup5\n        /* \"#utility.yul\":13022:13090   */\n      tag_394\n      jump\t// in\n    tag_430:\n        /* \"#utility.yul\":12679:13097   */\n      swap5\n      swap4\n      pop\n      pop\n      pop\n      pop\n      jump\t// out\n        /* \"#utility.yul\":13184:13283   */\n    tag_343:\n        /* \"#utility.yul\":13236:13242   */\n      0x00\n        /* \"#utility.yul\":13270:13275   */\n      dup2\n        /* \"#utility.yul\":13264:13276   */\n      mload\n        /* \"#utility.yul\":13254:13276   */\n      swap1\n      pop\n        /* \"#utility.yul\":13184:13283   */\n      swap2\n      swap1\n      pop\n      jump\t// out\n        /* \"#utility.yul\":13289:13458   */\n    tag_345:\n        /* \"#utility.yul\":13373:13384   */\n      0x00\n        /* \"#utility.yul\":13407:13413   */\n      dup3\n        /* \"#utility.yul\":13402:13405   */\n      dup3\n        /* \"#utility.yul\":13395:13414   */\n      mstore\n        /* \"#utility.yul\":13447:13451   */\n      0x20\n        /* \"#utility.yul\":13442:13445   */\n      dup3\n        /* \"#utility.yul\":13438:13452   */\n      add\n        /* \"#utility.yul\":13423:13452   */\n      swap1\n      pop\n        /* \"#utility.yul\":13289:13458   */\n      swap3\n      swap2\n      pop\n      pop\n      jump\t// out\n        /* \"#utility.yul\":13464:13769   */\n    tag_216:\n        /* \"#utility.yul\":13504:13507   */\n      0x00\n        /* \"#utility.yul\":13523:13543   */\n      tag_436\n        /* \"#utility.yul\":13541:13542   */\n      dup3\n        /* \"#utility.yul\":13523:13543   */\n      tag_393\n      jump\t// in\n    tag_436:\n        /* \"#utility.yul\":13518:13543   */\n      swap2\n      pop\n        /* \"#utility.yul\":13557:13577   */\n      tag_437\n        /* \"#utility.yul\":13575:13576   */\n      dup4\n        /* \"#utility.yul\":13557:13577   */\n      tag_393\n      jump\t// in\n    tag_437:\n        /* \"#utility.yul\":13552:13577   */\n      swap3\n      pop\n        /* \"#utility.yul\":13711:13712   */\n      dup3\n        /* \"#utility.yul\":13643:13709   */\n      0xffffffffffffffffffffffffffffffffffffffffffffffffffffffffffffffff\n        /* \"#utility.yul\":13639:13713   */\n      sub\n        /* \"#utility.yul\":13636:13637   */\n      dup3\n        /* \"#utility.yul\":13633:13714   */\n      gt\n        /* \"#utility.yul\":13630:13737   */\n      iszero\n      tag_438\n      jumpi\n        /* \"#utility.yul\":13717:13735   */\n      tag_439\n      tag_440\n      jump\t// in\n    tag_439:\n        /* \"#utility.yul\":13630:13737   */\n    tag_438:\n        /* \"#utility.yul\":13761:13762   */\n      dup3\n        /* \"#utility.yul\":13758:13759   */\n      dup3\n        /* \"#utility.yul\":13754:13763   */\n      add\n        /* \"#utility.yul\":13747:13763   */\n      swap1\n      pop\n        /* \"#utility.yul\":13464:13769   */\n      swap3\n      swap2\n      pop\n      pop\n      jump\t// out\n        /* \"#utility.yul\":13775:13960   */\n    tag_239:\n        /* \"#utility.yul\":13815:13816   */\n      0x00\n        /* \"#utility.yul\":13832:13852   */\n      tag_442\n        /* \"#utility.yul\":13850:13851   */\n      dup3\n        /* \"#utility.yul\":13832:13852   */\n      tag_393\n      jump\t// in\n    tag_442:\n        /* \"#utility.yul\":13827:13852   */\n      swap2\n      pop\n        /* \"#utility.yul\":13866:13886   */\n      tag_443\n        /* \"#utility.yul\":13884:13885   */\n      dup4\n        /* \"#utility.yul\":13866:13886   */\n      tag_393\n      jump\t// in\n    tag_443:\n        /* \"#utility.yul\":13861:13886   */\n      swap3\n      pop\n        /* \"#utility.yul\":13905:13906   */\n      dup3\n        /* \"#utility.yul\":13895:13930   */\n      tag_444\n      jumpi\n        /* \"#utility.yul\":13910:13928   */\n      tag_445\n      tag_446\n      jump\t// in\n    tag_445:\n        /* \"#utility.yul\":13895:13930   */\n    tag_444:\n        /* \"#utility.yul\":13952:13953   */\n      dup3\n        /* \"#utility.yul\":13949:13950   */\n      dup3\n        /* \"#utility.yul\":13945:13954   */\n      div\n        /* \"#utility.yul\":13940:13954   */\n      swap1\n      pop\n        /* \"#utility.yul\":13775:13960   */\n      swap3\n      swap2\n      pop\n      pop\n      jump\t// out\n        /* \"#utility.yul\":13966:14314   */\n    tag_237:\n        /* \"#utility.yul\":14006:14013   */\n      0x00\n        /* \"#utility.yul\":14029:14049   */\n      tag_448\n        /* \"#utility.yul\":14047:14048   */\n      dup3\n        /* \"#utility.yul\":14029:14049   */\n      tag_393\n      jump\t// in\n    tag_448:\n        /* \"#utility.yul\":14024:14049   */\n      swap2\n      pop\n        /* \"#utility.yul\":14063:14083   */\n      tag_449\n        /* \"#utility.yul\":14081:14082   */\n      dup4\n        /* \"#utility.yul\":14063:14083   */\n      tag_393\n      jump\t// in\n    tag_449:\n        /* \"#utility.yul\":14058:14083   */\n      swap3\n      pop\n        /* \"#utility.yul\":14251:14252   */\n      dup2\n        /* \"#utility.yul\":14183:14249   */\n      0xffffffffffffffffffffffffffffffffffffffffffffffffffffffffffffffff\n        /* \"#utility.yul\":14179:14253   */\n      div\n        /* \"#utility.yul\":14176:14177   */\n      dup4\n        /* \"#utility.yul\":14173:14254   */\n      gt\n        /* \"#utility.yul\":14168:14169   */\n      dup3\n        /* \"#utility.yul\":14161:14170   */\n      iszero\n        /* \"#utility.yul\":14154:14171   */\n      iszero\n        /* \"#utility.yul\":14150:14255   */\n      and\n        /* \"#utility.yul\":14147:14278   */\n      iszero\n      tag_450\n      jumpi\n        /* \"#utility.yul\":14258:14276   */\n      tag_451\n      tag_440\n      jump\t// in\n    tag_451:\n        /* \"#utility.yul\":14147:14278   */\n    tag_450:\n        /* \"#utility.yul\":14306:14307   */\n      dup3\n        /* \"#utility.yul\":14303:14304   */\n      dup3\n        /* \"#utility.yul\":14299:14308   */\n      mul\n        /* \"#utility.yul\":14288:14308   */\n      swap1\n      pop\n        /* \"#utility.yul\":13966:14314   */\n      swap3\n      swap2\n      pop\n      pop\n      jump\t// out\n        /* \"#utility.yul\":14320:14511   */\n    tag_245:\n        /* \"#utility.yul\":14360:14364   */\n      0x00\n        /* \"#utility.yul\":14380:14400   */\n      tag_453\n        /* \"#utility.yul\":14398:14399   */\n      dup3\n        /* \"#utility.yul\":14380:14400   */\n      tag_393\n      jump\t// in\n    tag_453:\n        /* \"#utility.yul\":14375:14400   */\n      swap2\n      pop\n        /* \"#utility.yul\":14414:14434   */\n      tag_454\n        /* \"#utility.yul\":14432:14433   */\n      dup4\n        /* \"#utility.yul\":14414:14434   */\n      tag_393\n      jump\t// in\n    tag_454:\n        /* \"#utility.yul\":14409:14434   */\n      swap3\n      pop\n        /* \"#utility.yul\":14453:14454   */\n      dup3\n        /* \"#utility.yul\":14450:14451   */\n      dup3\n        /* \"#utility.yul\":14447:14455   */\n      lt\n        /* \"#utility.yul\":14444:14478   */\n      iszero\n      tag_455\n      jumpi\n        /* \"#utility.yul\":14458:14476   */\n      tag_456\n      tag_440\n      jump\t// in\n    tag_456:\n        /* \"#utility.yul\":14444:14478   */\n    tag_455:\n        /* \"#utility.yul\":14503:14504   */\n      dup3\n        /* \"#utility.yul\":14500:14501   */\n      dup3\n        /* \"#utility.yul\":14496:14505   */\n      sub\n        /* \"#utility.yul\":14488:14505   */\n      swap1\n      pop\n        /* \"#utility.yul\":14320:14511   */\n      swap3\n      swap2\n      pop\n      pop\n      jump\t// out\n        /* \"#utility.yul\":14517:14613   */\n    tag_335:\n        /* \"#utility.yul\":14554:14561   */\n      0x00\n        /* \"#utility.yul\":14583:14607   */\n      tag_458\n        /* \"#utility.yul\":14601:14606   */\n      dup3\n        /* \"#utility.yul\":14583:14607   */\n      tag_459\n      jump\t// in\n    tag_458:\n        /* \"#utility.yul\":14572:14607   */\n      swap1\n      pop\n        /* \"#utility.yul\":14517:14613   */\n      swap2\n      swap1\n      pop\n      jump\t// out\n        /* \"#utility.yul\":14619:14709   */\n    tag_339:\n        /* \"#utility.yul\":14653:14660   */\n      0x00\n        /* \"#utility.yul\":14696:14701   */\n      dup2\n        /* \"#utility.yul\":14689:14702   */\n      iszero\n        /* \"#utility.yul\":14682:14703   */\n      iszero\n        /* \"#utility.yul\":14671:14703   */\n      swap1\n      pop\n        /* \"#utility.yul\":14619:14709   */\n      swap2\n      swap1\n      pop\n      jump\t// out\n        /* \"#utility.yul\":14715:14841   */\n    tag_459:\n        /* \"#utility.yul\":14752:14759   */\n      0x00\n        /* \"#utility.yul\":14792:14834   */\n      0xffffffffffffffffffffffffffffffffffffffff\n        /* \"#utility.yul\":14785:14790   */\n      dup3\n        /* \"#utility.yul\":14781:14835   */\n      and\n        /* \"#utility.yul\":14770:14835   */\n      swap1\n      pop\n        /* \"#utility.yul\":14715:14841   */\n      swap2\n      swap1\n      pop\n      jump\t// out\n        /* \"#utility.yul\":14847:14924   */\n    tag_393:\n        /* \"#utility.yul\":14884:14891   */\n      0x00\n        /* \"#utility.yul\":14913:14918   */\n      dup2\n        /* \"#utility.yul\":14902:14918   */\n      swap1\n      pop\n        /* \"#utility.yul\":14847:14924   */\n      swap2\n      swap1\n      pop\n      jump\t// out\n        /* \"#utility.yul\":14930:15016   */\n    tag_397:\n        /* \"#utility.yul\":14965:14972   */\n      0x00\n        /* \"#utility.yul\":15005:15009   */\n      0xff\n        /* \"#utility.yul\":14998:15003   */\n      dup3\n        /* \"#utility.yul\":14994:15010   */\n      and\n        /* \"#utility.yul\":14983:15010   */\n      swap1\n      pop\n        /* \"#utility.yul\":14930:15016   */\n      swap2\n      swap1\n      pop\n      jump\t// out\n        /* \"#utility.yul\":15022:15329   */\n    tag_347:\n        /* \"#utility.yul\":15090:15091   */\n      0x00\n        /* \"#utility.yul\":15100:15213   */\n    tag_465:\n        /* \"#utility.yul\":15114:15120   */\n      dup4\n        /* \"#utility.yul\":15111:15112   */\n      dup2\n        /* \"#utility.yul\":15108:15121   */\n      lt\n        /* \"#utility.yul\":15100:15213   */\n      iszero\n      tag_467\n      jumpi\n        /* \"#utility.yul\":15199:15200   */\n      dup1\n        /* \"#utility.yul\":15194:15197   */\n      dup3\n        /* \"#utility.yul\":15190:15201   */\n      add\n        /* \"#utility.yul\":15184:15202   */\n      mload\n        /* \"#utility.yul\":15180:15181   */\n      dup2\n        /* \"#utility.yul\":15175:15178   */\n      dup5\n        /* \"#utility.yul\":15171:15182   */\n      add\n        /* \"#utility.yul\":15164:15203   */\n      mstore\n        /* \"#utility.yul\":15136:15138   */\n      0x20\n        /* \"#utility.yul\":15133:15134   */\n      dup2\n        /* \"#utility.yul\":15129:15139   */\n      add\n        /* \"#utility.yul\":15124:15139   */\n      swap1\n      pop\n        /* \"#utility.yul\":15100:15213   */\n      jump(tag_465)\n    tag_467:\n        /* \"#utility.yul\":15231:15237   */\n      dup4\n        /* \"#utility.yul\":15228:15229   */\n      dup2\n        /* \"#utility.yul\":15225:15238   */\n      gt\n        /* \"#utility.yul\":15222:15323   */\n      iszero\n      tag_468\n      jumpi\n        /* \"#utility.yul\":15311:15312   */\n      0x00\n        /* \"#utility.yul\":15302:15308   */\n      dup5\n        /* \"#utility.yul\":15297:15300   */\n      dup5\n        /* \"#utility.yul\":15293:15309   */\n      add\n        /* \"#utility.yul\":15286:15313   */\n      mstore\n        /* \"#utility.yul\":15222:15323   */\n    tag_468:\n        /* \"#utility.yul\":15071:15329   */\n      pop\n        /* \"#utility.yul\":15022:15329   */\n      pop\n      pop\n      pop\n      jump\t// out\n        /* \"#utility.yul\":15335:15655   */\n    tag_116:\n        /* \"#utility.yul\":15379:15385   */\n      0x00\n        /* \"#utility.yul\":15416:15417   */\n      0x02\n        /* \"#utility.yul\":15410:15414   */\n      dup3\n        /* \"#utility.yul\":15406:15418   */\n      div\n        /* \"#utility.yul\":15396:15418   */\n      swap1\n      pop\n        /* \"#utility.yul\":15463:15464   */\n      0x01\n        /* \"#utility.yul\":15457:15461   */\n      dup3\n        /* \"#utility.yul\":15453:15465   */\n      and\n        /* \"#utility.yul\":15484:15502   */\n      dup1\n        /* \"#utility.yul\":15474:15555   */\n      tag_470\n      jumpi\n        /* \"#utility.yul\":15540:15544   */\n      0x7f\n        /* \"#utility.yul\":15532:15538   */\n      dup3\n        /* \"#utility.yul\":15528:15545   */\n      and\n        /* \"#utility.yul\":15518:15545   */\n      swap2\n      pop\n        /* \"#utility.yul\":15474:15555   */\n    tag_470:\n        /* \"#utility.yul\":15602:15604   */\n      0x20\n        /* \"#utility.yul\":15594:15600   */\n      dup3\n        /* \"#utility.yul\":15591:15605   */\n      lt\n        /* \"#utility.yul\":15571:15589   */\n      dup2\n        /* \"#utility.yul\":15568:15606   */\n      eq\n        /* \"#utility.yul\":15565:15649   */\n      iszero\n      tag_471\n      jumpi\n        /* \"#utility.yul\":15621:15639   */\n      tag_472\n      tag_473\n      jump\t// in\n    tag_472:\n        /* \"#utility.yul\":15565:15649   */\n    tag_471:\n        /* \"#utility.yul\":15386:15655   */\n      pop\n        /* \"#utility.yul\":15335:15655   */\n      swap2\n      swap1\n      pop\n      jump\t// out\n        /* \"#utility.yul\":15661:15841   */\n    tag_440:\n        /* \"#utility.yul\":15709:15786   */\n      0x4e487b7100000000000000000000000000000000000000000000000000000000\n        /* \"#utility.yul\":15706:15707   */\n      0x00\n        /* \"#utility.yul\":15699:15787   */\n      mstore\n        /* \"#utility.yul\":15806:15810   */\n      0x11\n        /* \"#utility.yul\":15803:15804   */\n      0x04\n        /* \"#utility.yul\":15796:15811   */\n      mstore\n        /* \"#utility.yul\":15830:15834   */\n      0x24\n        /* \"#utility.yul\":15827:15828   */\n      0x00\n        /* \"#utility.yul\":15820:15835   */\n      revert\n        /* \"#utility.yul\":15847:16027   */\n    tag_446:\n        /* \"#utility.yul\":15895:15972   */\n      0x4e487b7100000000000000000000000000000000000000000000000000000000\n        /* \"#utility.yul\":15892:15893   */\n      0x00\n        /* \"#utility.yul\":15885:15973   */\n      mstore\n        /* \"#utility.yul\":15992:15996   */\n      0x12\n        /* \"#utility.yul\":15989:15990   */\n      0x04\n        /* \"#utility.yul\":15982:15997   */\n      mstore\n        /* \"#utility.yul\":16016:16020   */\n      0x24\n        /* \"#utility.yul\":16013:16014   */\n      0x00\n        /* \"#utility.yul\":16006:16021   */\n      revert\n        /* \"#utility.yul\":16033:16213   */\n    tag_473:\n        /* \"#utility.yul\":16081:16158   */\n      0x4e487b7100000000000000000000000000000000000000000000000000000000\n        /* \"#utility.yul\":16078:16079   */\n      0x00\n        /* \"#utility.yul\":16071:16159   */\n      mstore\n        /* \"#utility.yul\":16178:16182   */\n      0x22\n        /* \"#utility.yul\":16175:16176   */\n      0x04\n        /* \"#utility.yul\":16168:16183   */\n      mstore\n        /* \"#utility.yul\":16202:16206   */\n      0x24\n        /* \"#utility.yul\":16199:16200   */\n      0x00\n        /* \"#utility.yul\":16192:16207   */\n      revert\n        /* \"#utility.yul\":16342:16459   */\n    tag_299:\n        /* \"#utility.yul\":16451:16452   */\n      0x00\n        /* \"#utility.yul\":16448:16449   */\n      dup1\n        /* \"#utility.yul\":16441:16453   */\n      revert\n        /* \"#utility.yul\":16465:16567   */\n    tag_349:\n        /* \"#utility.yul\":16506:16512   */\n      0x00\n        /* \"#utility.yul\":16557:16559   */\n      0x1f\n        /* \"#utility.yul\":16553:16560   */\n      not\n        /* \"#utility.yul\":16548:16550   */\n      0x1f\n        /* \"#utility.yul\":16541:16546   */\n      dup4\n        /* \"#utility.yul\":16537:16551   */\n      add\n        /* \"#utility.yul\":16533:16561   */\n      and\n        /* \"#utility.yul\":16523:16561   */\n      swap1\n      pop\n        /* \"#utility.yul\":16465:16567   */\n      swap2\n      swap1\n      pop\n      jump\t// out\n        /* \"#utility.yul\":16573:16797   */\n    tag_354:\n        /* \"#utility.yul\":16713:16747   */\n      0x42455032303a207472616e736665722066726f6d20746865207a65726f206164\n        /* \"#utility.yul\":16709:16710   */\n      0x00\n        /* \"#utility.yul\":16701:16707   */\n      dup3\n        /* \"#utility.yul\":16697:16711   */\n      add\n        /* \"#utility.yul\":16690:16748   */\n      mstore\n        /* \"#utility.yul\":16782:16789   */\n      0x6472657373000000000000000000000000000000000000000000000000000000\n        /* \"#utility.yul\":16777:16779   */\n      0x20\n        /* \"#utility.yul\":16769:16775   */\n      dup3\n        /* \"#utility.yul\":16765:16780   */\n      add\n        /* \"#utility.yul\":16758:16790   */\n      mstore\n        /* \"#utility.yul\":16573:16797   */\n      pop\n      jump\t// out\n        /* \"#utility.yul\":16803:17026   */\n    tag_359:\n        /* \"#utility.yul\":16943:16977   */\n      0x42455032303a20617070726f76652066726f6d20746865207a65726f20616464\n        /* \"#utility.yul\":16939:16940   */\n      0x00\n        /* \"#utility.yul\":16931:16937   */\n      dup3\n        /* \"#utility.yul\":16927:16941   */\n      add\n        /* \"#utility.yul\":16920:16978   */\n      mstore\n        /* \"#utility.yul\":17012:17018   */\n      0x7265737300000000000000000000000000000000000000000000000000000000\n        /* \"#utility.yul\":17007:17009   */\n      0x20\n        /* \"#utility.yul\":16999:17005   */\n      dup3\n        /* \"#utility.yul\":16995:17010   */\n      add\n        /* \"#utility.yul\":16988:17019   */\n      mstore\n        /* \"#utility.yul\":16803:17026   */\n      pop\n      jump\t// out\n        /* \"#utility.yul\":17032:17257   */\n    tag_364:\n        /* \"#utility.yul\":17172:17206   */\n      0x4f776e61626c653a206e6577206f776e657220697320746865207a65726f2061\n        /* \"#utility.yul\":17168:17169   */\n      0x00\n        /* \"#utility.yul\":17160:17166   */\n      dup3\n        /* \"#utility.yul\":17156:17170   */\n      add\n        /* \"#utility.yul\":17149:17207   */\n      mstore\n        /* \"#utility.yul\":17241:17249   */\n      0x6464726573730000000000000000000000000000000000000000000000000000\n        /* \"#utility.yul\":17236:17238   */\n      0x20\n        /* \"#utility.yul\":17228:17234   */\n      dup3\n        /* \"#utility.yul\":17224:17239   */\n      add\n        /* \"#utility.yul\":17217:17250   */\n      mstore\n        /* \"#utility.yul\":17032:17257   */\n      pop\n      jump\t// out\n        /* \"#utility.yul\":17263:17440   */\n    tag_369:\n        /* \"#utility.yul\":17403:17432   */\n      0x536166654d6174683a206164646974696f6e206f766572666c6f770000000000\n        /* \"#utility.yul\":17399:17400   */\n      0x00\n        /* \"#utility.yul\":17391:17397   */\n      dup3\n        /* \"#utility.yul\":17387:17401   */\n      add\n        /* \"#utility.yul\":17380:17433   */\n      mstore\n        /* \"#utility.yul\":17263:17440   */\n      pop\n      jump\t// out\n        /* \"#utility.yul\":17446:17612   */\n    tag_374:\n        /* \"#utility.yul\":17586:17604   */\n      0x5573657220626c61636b6c697374656400000000000000000000000000000000\n        /* \"#utility.yul\":17582:17583   */\n      0x00\n        /* \"#utility.yul\":17574:17580   */\n      dup3\n        /* \"#utility.yul\":17570:17584   */\n      add\n        /* \"#utility.yul\":17563:17605   */\n      mstore\n        /* \"#utility.yul\":17446:17612   */\n      pop\n      jump\t// out\n        /* \"#utility.yul\":17618:17800   */\n    tag_379:\n        /* \"#utility.yul\":17758:17792   */\n      0x4f776e61626c653a2063616c6c6572206973206e6f7420746865206f776e6572\n        /* \"#utility.yul\":17754:17755   */\n      0x00\n        /* \"#utility.yul\":17746:17752   */\n      dup3\n        /* \"#utility.yul\":17742:17756   */\n      add\n        /* \"#utility.yul\":17735:17793   */\n      mstore\n        /* \"#utility.yul\":17618:17800   */\n      pop\n      jump\t// out\n        /* \"#utility.yul\":17806:18028   */\n    tag_384:\n        /* \"#utility.yul\":17946:17980   */\n      0x42455032303a207472616e7366657220746f20746865207a65726f2061646472\n        /* \"#utility.yul\":17942:17943   */\n      0x00\n        /* \"#utility.yul\":17934:17940   */\n      dup3\n        /* \"#utility.yul\":17930:17944   */\n      add\n        /* \"#utility.yul\":17923:17981   */\n      mstore\n        /* \"#utility.yul\":18015:18020   */\n      0x6573730000000000000000000000000000000000000000000000000000000000\n        /* \"#utility.yul\":18010:18012   */\n      0x20\n        /* \"#utility.yul\":18002:18008   */\n      dup3\n        /* \"#utility.yul\":17998:18013   */\n      add\n        /* \"#utility.yul\":17991:18021   */\n      mstore\n        /* \"#utility.yul\":17806:18028   */\n      pop\n      jump\t// out\n        /* \"#utility.yul\":18034:18255   */\n    tag_389:\n        /* \"#utility.yul\":18174:18208   */\n      0x42455032303a20617070726f766520746f20746865207a65726f206164647265\n        /* \"#utility.yul\":18170:18171   */\n      0x00\n        /* \"#utility.yul\":18162:18168   */\n      dup3\n        /* \"#utility.yul\":18158:18172   */\n      add\n        /* \"#utility.yul\":18151:18209   */\n      mstore\n        /* \"#utility.yul\":18243:18247   */\n      0x7373000000000000000000000000000000000000000000000000000000000000\n        /* \"#utility.yul\":18238:18240   */\n      0x20\n        /* \"#utility.yul\":18230:18236   */\n      dup3\n        /* \"#utility.yul\":18226:18241   */\n      add\n        /* \"#utility.yul\":18219:18248   */\n      mstore\n        /* \"#utility.yul\":18034:18255   */\n      pop\n      jump\t// out\n        /* \"#utility.yul\":18261:18383   */\n    tag_283:\n        /* \"#utility.yul\":18334:18358   */\n      tag_490\n        /* \"#utility.yul\":18352:18357   */\n      dup2\n        /* \"#utility.yul\":18334:18358   */\n      tag_335\n      jump\t// in\n    tag_490:\n        /* \"#utility.yul\":18327:18332   */\n      dup2\n        /* \"#utility.yul\":18324:18359   */\n      eq\n        /* \"#utility.yul\":18314:18377   */\n      tag_491\n      jumpi\n        /* \"#utility.yul\":18373:18374   */\n      0x00\n        /* \"#utility.yul\":18370:18371   */\n      dup1\n        /* \"#utility.yul\":18363:18375   */\n      revert\n        /* \"#utility.yul\":18314:18377   */\n    tag_491:\n        /* \"#utility.yul\":18261:18383   */\n      pop\n      jump\t// out\n        /* \"#utility.yul\":18389:18505   */\n    tag_287:\n        /* \"#utility.yul\":18459:18480   */\n      tag_493\n        /* \"#utility.yul\":18474:18479   */\n      dup2\n        /* \"#utility.yul\":18459:18480   */\n      tag_339\n      jump\t// in\n    tag_493:\n        /* \"#utility.yul\":18452:18457   */\n      dup2\n        /* \"#utility.yul\":18449:18481   */\n      eq\n        /* \"#utility.yul\":18439:18499   */\n      tag_494\n      jumpi\n        /* \"#utility.yul\":18495:18496   */\n      0x00\n        /* \"#utility.yul\":18492:18493   */\n      dup1\n        /* \"#utility.yul\":18485:18497   */\n      revert\n        /* \"#utility.yul\":18439:18499   */\n    tag_494:\n        /* \"#utility.yul\":18389:18505   */\n      pop\n      jump\t// out\n        /* \"#utility.yul\":18511:18633   */\n    tag_291:\n        /* \"#utility.yul\":18584:18608   */\n      tag_496\n        /* \"#utility.yul\":18602:18607   */\n      dup2\n        /* \"#utility.yul\":18584:18608   */\n      tag_393\n      jump\t// in\n    tag_496:\n        /* \"#utility.yul\":18577:18582   */\n      dup2\n        /* \"#utility.yul\":18574:18609   */\n      eq\n        /* \"#utility.yul\":18564:18627   */\n      tag_497\n      jumpi\n        /* \"#utility.yul\":18623:18624   */\n      0x00\n        /* \"#utility.yul\":18620:18621   */\n      dup1\n        /* \"#utility.yul\":18613:18625   */\n      revert\n        /* \"#utility.yul\":18564:18627   */\n    tag_497:\n        /* \"#utility.yul\":18511:18633   */\n      pop\n      jump\t// out\n        /* \"#utility.yul\":18639:18757   */\n    tag_295:\n        /* \"#utility.yul\":18710:18732   */\n      tag_499\n        /* \"#utility.yul\":18726:18731   */\n      dup2\n        /* \"#utility.yul\":18710:18732   */\n      tag_397\n      jump\t// in\n    tag_499:\n        /* \"#utility.yul\":18703:18708   */\n      dup2\n        /* \"#utility.yul\":18700:18733   */\n      eq\n        /* \"#utility.yul\":18690:18751   */\n      tag_500\n      jumpi\n        /* \"#utility.yul\":18747:18748   */\n      0x00\n        /* \"#utility.yul\":18744:18745   */\n      dup1\n        /* \"#utility.yul\":18737:18749   */\n      revert\n        /* \"#utility.yul\":18690:18751   */\n    tag_500:\n        /* \"#utility.yul\":18639:18757   */\n      pop\n      jump\t// out\n    stop\n    data_4f3506f4ba71c79c3cbd442a3afeb30e9b27af2d84e116a4385b34e267d2287e 42455032303a207472616e7366657220616d6f756e74206578636565647320616c6c6f77616e6365\n    data_573d1ed4a921ea442c5f19a96dadd552e53378497b3e3c5c4f92b5237f17148e 4e6f207472616e736665727320746f20636f6e747261637420616c6c6f7765642e\n    data_7efdc62e202e71ba96d2ad4e93c3fc5c67ef5ce0b8f02ccfd2d78dc68ce32fc4 4e6f20636f6e73656375746976652073656c6c7320616c6c6f7765642e20506c6561736520776169742e\n    data_a91efd7a65ef5b4ae4d6568d674798b78a5a89184dd296c100513251c22d3e73 42455032303a207472616e7366657220616d6f756e7420657863656564732062616c616e6365\n    data_b7060b3538dcd3ddc8a941c91636a8115a1aa46914747fd9809d543bbb46cd22 42455032303a2064656372656173656420616c6c6f77616e63652062656c6f77207a65726f\n\n    auxdata: 0xa2646970667358221220af28b570b178e235cdca68967430d8e0c7486da2d2de671d3065ef8b443a91bc64736f6c63430008070033\n}\n",
				"bytecode": {
					"linkReferences": {},
					"object": "608060405273f802478197ec4ccf38d89e7dcd79dd92ab5cc342600c60006101000a81548173ffffffffffffffffffffffffffffffffffffffff021916908373ffffffffffffffffffffffffffffffffffffffff1602179055503480156200006657600080fd5b506040518060400160405280600781526020017f5669634d6f7665000000000000000000000000000000000000000000000000008152506040518060400160405280600381526020017f56494d000000000000000000000000000000000000000000000000000000000081525060128260009080519060200190620000ed929190620004b4565b50816001908051906020019062000106929190620004b4565b5080600260006101000a81548160ff021916908360ff1602179055505050506000620001376200029560201b60201c565b905080600260016101000a81548173ffffffffffffffffffffffffffffffffffffffff021916908373ffffffffffffffffffffffffffffffffffffffff1602179055508073ffffffffffffffffffffffffffffffffffffffff16600073ffffffffffffffffffffffffffffffffffffffff167f8be0079c531659141344cd1fd0a4f28419497f9722a3daafe3b4186f6b6457e060405160405180910390a3506000620001e86200029d60201b60201c565b60ff16600a620001f99190620006ed565b6301312d006200020a91906200082a565b90506200021e3382620002b460201b60201c565b6003600a60016101000a81548160ff021916908360ff1602179055506000600a60006101000a81548160ff021916908360ff1602179055506000600a60036101000a81548160ff021916908360ff160217905550600f600a60026101000a81548160ff021916908360ff1602179055505062000988565b600033905090565b6000600260009054906101000a900460ff16905090565b600073ffffffffffffffffffffffffffffffffffffffff168273ffffffffffffffffffffffffffffffffffffffff16141562000327576040517f08c379a00000000000000000000000000000000000000000000000000000000081526004016200031e90620005e5565b60405180910390fd5b62000343816005546200045160201b62000ffe1790919060201c565b600581905550620003a281600360008573ffffffffffffffffffffffffffffffffffffffff1673ffffffffffffffffffffffffffffffffffffffff168152602001908152602001600020546200045160201b62000ffe1790919060201c565b600360008473ffffffffffffffffffffffffffffffffffffffff1673ffffffffffffffffffffffffffffffffffffffff168152602001908152602001600020819055508173ffffffffffffffffffffffffffffffffffffffff16600073ffffffffffffffffffffffffffffffffffffffff167fddf252ad1be2c89b69c2b068fc378daa952ba7f163c4a11628f55a4df523b3ef8360405162000445919062000607565b60405180910390a35050565b600080828462000462919062000635565b905083811015620004aa576040517f08c379a0000000000000000000000000000000000000000000000000000000008152600401620004a190620005c3565b60405180910390fd5b8091505092915050565b828054620004c29062000895565b90600052602060002090601f016020900481019282620004e6576000855562000532565b82601f106200050157805160ff191683800117855562000532565b8280016001018555821562000532579182015b828111156200053157825182559160200191906001019062000514565b5b50905062000541919062000545565b5090565b5b808211156200056057600081600090555060010162000546565b5090565b600062000573601b8362000624565b9150620005808262000936565b602082019050919050565b60006200059a601f8362000624565b9150620005a7826200095f565b602082019050919050565b620005bd816200088b565b82525050565b60006020820190508181036000830152620005de8162000564565b9050919050565b6000602082019050818103600083015262000600816200058b565b9050919050565b60006020820190506200061e6000830184620005b2565b92915050565b600082825260208201905092915050565b600062000642826200088b565b91506200064f836200088b565b9250827fffffffffffffffffffffffffffffffffffffffffffffffffffffffffffffffff03821115620006875762000686620008cb565b5b828201905092915050565b6000808291508390505b6001851115620006e457808604811115620006bc57620006bb620008cb565b5b6001851615620006cc5780820291505b8081029050620006dc8562000929565b94506200069c565b94509492505050565b6000620006fa826200088b565b915062000707836200088b565b9250620007367fffffffffffffffffffffffffffffffffffffffffffffffffffffffffffffffff84846200073e565b905092915050565b60008262000750576001905062000823565b8162000760576000905062000823565b81600181146200077957600281146200078457620007ba565b600191505062000823565b60ff841115620007995762000798620008cb565b5b8360020a915084821115620007b357620007b2620008cb565b5b5062000823565b5060208310610133831016604e8410600b8410161715620007f45782820a905083811115620007ee57620007ed620008cb565b5b62000823565b62000803848484600162000692565b925090508184048111156200081d576200081c620008cb565b5b81810290505b9392505050565b600062000837826200088b565b915062000844836200088b565b9250817fffffffffffffffffffffffffffffffffffffffffffffffffffffffffffffffff048311821515161562000880576200087f620008cb565b5b828202905092915050565b6000819050919050565b60006002820490506001821680620008ae57607f821691505b60208210811415620008c557620008c4620008fa565b5b50919050565b7f4e487b7100000000000000000000000000000000000000000000000000000000600052601160045260246000fd5b7f4e487b7100000000000000000000000000000000000000000000000000000000600052602260045260246000fd5b60008160011c9050919050565b7f536166654d6174683a206164646974696f6e206f766572666c6f770000000000600082015250565b7f42455032303a206d696e7420746f20746865207a65726f206164647265737300600082015250565b6126e480620009986000396000f3fe608060405234801561001057600080fd5b50600436106101425760003560e01c806370a08231116100b8578063a457c2d71161007c578063a457c2d714610355578063a86517bf14610385578063a9059cbb146103a1578063c89c58fb146103d1578063dd62ed3e146103ed578063f2fde38b1461041d57610142565b806370a08231146102c1578063715018a6146102f15780638da5cb5b146102fb5780638f32d59b1461031957806395d89b411461033757610142565b806318160ddd1161010a57806318160ddd146101e957806323b872dd146102075780632973ef2d14610237578063313ce56714610257578063395093511461027557806353d6fd59146102a557610142565b806306fdde0314610147578063095ea7b3146101655780630d2cf31f14610195578063153b0d1e146101b15780631574567b146101cd575b600080fd5b61014f610439565b60405161015c9190611f71565b60405180910390f35b61017f600480360381019061017a9190611cc5565b6104cb565b60405161018c9190611f56565b60405180910390f35b6101af60048036038101906101aa9190611d32565b6104e9565b005b6101cb60048036038101906101c69190611c85565b6105f1565b005b6101e760048036038101906101e29190611d05565b6106cc565b005b6101f1610768565b6040516101fe9190612093565b60405180910390f35b610221600480360381019061021c9190611c32565b610772565b60405161022e9190611f56565b60405180910390f35b61023f61084b565b60405161024e939291906120c9565b60405180910390f35b61025f61088b565b60405161026c91906120ae565b60405180910390f35b61028f600480360381019061028a9190611cc5565b6108a2565b60405161029c9190611f56565b60405180910390f35b6102bf60048036038101906102ba9190611c85565b610955565b005b6102db60048036038101906102d69190611bc5565b610a30565b6040516102e89190612093565b60405180910390f35b6102f9610a79565b005b610303610b81565b6040516103109190611f12565b60405180910390f35b610321610bab565b60405161032e9190611f56565b60405180910390f35b61033f610c0a565b60405161034c9190611f71565b60405180910390f35b61036f600480360381019061036a9190611cc5565b610c9c565b60405161037c9190611f56565b60405180910390f35b61039f600480360381019061039a9190611bc5565b610d69565b005b6103bb60048036038101906103b69190611cc5565b610e2b565b6040516103c89190611f56565b60405180910390f35b6103eb60048036038101906103e69190611c85565b610e49565b005b61040760048036038101906104029190611bf2565b610f24565b6040516104149190612093565b60405180910390f35b61043760048036038101906104329190611bc5565b610fab565b005b606060008054610448906122b9565b80601f0160208091040260200160405190810160405280929190818152602001828054610474906122b9565b80156104c15780601f10610496576101008083540402835291602001916104c1565b820191906000526020600020905b8154815290600101906020018083116104a457829003601f168201915b5050505050905090565b60006104df6104d861105c565b8484611064565b6001905092915050565b6104f1610bab565b610530576040517f08c379a000000000000000000000000000000000000000000000000000000000815260040161052790612033565b60405180910390fd5b600a8360ff161061054057600080fd5b60068260ff161061055057600080fd5b60068160ff161061056057600080fd5b82600a60016101000a81548160ff021916908360ff16021790555081600a60006101000a81548160ff021916908360ff16021790555080600a60036101000a81548160ff021916908360ff1602179055507f8f649eeecb19301c91f9b511096fe7cbc4b2b67bc75bfef33ba3f2745efc386a8383836040516105e4939291906120c9565b60405180910390a1505050565b6105f9610bab565b610638576040517f08c379a000000000000000000000000000000000000000000000000000000000815260040161062f90612033565b60405180910390fd5b80600660008473ffffffffffffffffffffffffffffffffffffffff1673ffffffffffffffffffffffffffffffffffffffff16815260200190815260200160002060006101000a81548160ff0219169083151502179055507ff791a94c7f3569546a71acf39c0189bd87bd7b7e3ea76ce41fd41d837cc4bbca82826040516106c0929190611f2d565b60405180910390a15050565b6106d4610bab565b610713576040517f08c379a000000000000000000000000000000000000000000000000000000000815260040161070a90612033565b60405180910390fd5b80600a60026101000a81548160ff021916908360ff1602179055507f3dc38872c1e356f05cec7694232d10514dc69ddbdcb883f9687c4d4f7e371e018160405161075d91906120ae565b60405180910390a150565b6000600554905090565b600061077f84848461122f565b6108408461078b61105c565b61083b856040518060600160405280602881526020016125f160289139600460008b73ffffffffffffffffffffffffffffffffffffffff1673ffffffffffffffffffffffffffffffffffffffff16815260200190815260200160002060006107f161105c565b73ffffffffffffffffffffffffffffffffffffffff1673ffffffffffffffffffffffffffffffffffffffff1681526020019081526020016000205461174f9092919063ffffffff16565b611064565b600190509392505050565b6000806000600a60019054906101000a900460ff16600a60009054906101000a900460ff16600a60039054906101000a900460ff16925092509250909192565b6000600260009054906101000a900460ff16905090565b600061094b6108af61105c565b8461094685600460006108c061105c565b73ffffffffffffffffffffffffffffffffffffffff1673ffffffffffffffffffffffffffffffffffffffff16815260200190815260200160002060008973ffffffffffffffffffffffffffffffffffffffff1673ffffffffffffffffffffffffffffffffffffffff16815260200190815260200160002054610ffe90919063ffffffff16565b611064565b6001905092915050565b61095d610bab565b61099c576040517f08c379a000000000000000000000000000000000000000000000000000000000815260040161099390612033565b60405180910390fd5b80600860008473ffffffffffffffffffffffffffffffffffffffff1673ffffffffffffffffffffffffffffffffffffffff16815260200190815260200160002060006101000a81548160ff0219169083151502179055507fe41efe2ec3272dff61fc1d94fe807a61b44e66814abe5f463e98a100b9bb852c8282604051610a24929190611f2d565b60405180910390a15050565b6000600360008373ffffffffffffffffffffffffffffffffffffffff1673ffffffffffffffffffffffffffffffffffffffff168152602001908152602001600020549050919050565b610a81610bab565b610ac0576040517f08c379a0000000000000000000000000000000000000000000000000000000008152600401610ab790612033565b60405180910390fd5b600073ffffffffffffffffffffffffffffffffffffffff16600260019054906101000a900473ffffffffffffffffffffffffffffffffffffffff1673ffffffffffffffffffffffffffffffffffffffff167f8be0079c531659141344cd1fd0a4f28419497f9722a3daafe3b4186f6b6457e060405160405180910390a36000600260016101000a81548173ffffffffffffffffffffffffffffffffffffffff021916908373ffffffffffffffffffffffffffffffffffffffff160217905550565b6000600260019054906101000a900473ffffffffffffffffffffffffffffffffffffffff16905090565b6000600260019054906101000a900473ffffffffffffffffffffffffffffffffffffffff1673ffffffffffffffffffffffffffffffffffffffff16610bee61105c565b73ffffffffffffffffffffffffffffffffffffffff1614905090565b606060018054610c19906122b9565b80601f0160208091040260200160405190810160405280929190818152602001828054610c45906122b9565b8015610c925780601f10610c6757610100808354040283529160200191610c92565b820191906000526020600020905b815481529060010190602001808311610c7557829003601f168201915b5050505050905090565b6000610d5f610ca961105c565b84610d5a8560405180606001604052806025815260200161268a6025913960046000610cd361105c565b73ffffffffffffffffffffffffffffffffffffffff1673ffffffffffffffffffffffffffffffffffffffff16815260200190815260200160002060008a73ffffffffffffffffffffffffffffffffffffffff1673ffffffffffffffffffffffffffffffffffffffff1681526020019081526020016000205461174f9092919063ffffffff16565b611064565b6001905092915050565b610d71610bab565b610db0576040517f08c379a0000000000000000000000000000000000000000000000000000000008152600401610da790612033565b60405180910390fd5b80600c60006101000a81548173ffffffffffffffffffffffffffffffffffffffff021916908373ffffffffffffffffffffffffffffffffffffffff1602179055507ff15d5716db5d5d79f695e387fc3e7c89982c0df6f4b81a006e38cfdc850a712e81604051610e209190611f12565b60405180910390a150565b6000610e3f610e3861105c565b848461122f565b6001905092915050565b610e51610bab565b610e90576040517f08c379a0000000000000000000000000000000000000000000000000000000008152600401610e8790612033565b60405180910390fd5b80600760008473ffffffffffffffffffffffffffffffffffffffff1673ffffffffffffffffffffffffffffffffffffffff16815260200190815260200160002060006101000a81548160ff0219169083151502179055507f50d3135c1831a86bdc04740f17c94415767240d338df5795b37fb5b8272f80d78282604051610f18929190611f2d565b60405180910390a15050565b6000600460008473ffffffffffffffffffffffffffffffffffffffff1673ffffffffffffffffffffffffffffffffffffffff16815260200190815260200160002060008373ffffffffffffffffffffffffffffffffffffffff1673ffffffffffffffffffffffffffffffffffffffff16815260200190815260200160002054905092915050565b610fb3610bab565b610ff2576040517f08c379a0000000000000000000000000000000000000000000000000000000008152600401610fe990612033565b60405180910390fd5b610ffb816117b3565b50565b600080828461100d919061211c565b905083811015611052576040517f08c379a000000000000000000000000000000000000000000000000000000000815260040161104990611ff3565b60405180910390fd5b8091505092915050565b600033905090565b600073ffffffffffffffffffffffffffffffffffffffff168373ffffffffffffffffffffffffffffffffffffffff1614156110d4576040517f08c379a00000000000000000000000000000000000000000000000000000000081526004016110cb90611fb3565b60405180910390fd5b600073ffffffffffffffffffffffffffffffffffffffff168273ffffffffffffffffffffffffffffffffffffffff161415611144576040517f08c379a000000000000000000000000000000000000000000000000000000000815260040161113b90612073565b60405180910390fd5b80600460008573ffffffffffffffffffffffffffffffffffffffff1673ffffffffffffffffffffffffffffffffffffffff16815260200190815260200160002060008473ffffffffffffffffffffffffffffffffffffffff1673ffffffffffffffffffffffffffffffffffffffff168152602001908152602001600020819055508173ffffffffffffffffffffffffffffffffffffffff168373ffffffffffffffffffffffffffffffffffffffff167f8c5be1e5ebec7d5bd14f71427d1e84f3dd0314c0f7b2291e5b200ac8c7c3b925836040516112229190612093565b60405180910390a3505050565b3073ffffffffffffffffffffffffffffffffffffffff168273ffffffffffffffffffffffffffffffffffffffff16141560405180606001604052806021815260200161261960219139906112b9576040517f08c379a00000000000000000000000000000000000000000000000000000000081526004016112b09190611f71565b60405180910390fd5b50600660008473ffffffffffffffffffffffffffffffffffffffff1673ffffffffffffffffffffffffffffffffffffffff16815260200190815260200160002060009054906101000a900460ff1615611347576040517f08c379a000000000000000000000000000000000000000000000000000000000815260040161133e90612013565b60405180910390fd5b60011515600760008573ffffffffffffffffffffffffffffffffffffffff1673ffffffffffffffffffffffffffffffffffffffff16815260200190815260200160002060009054906101000a900460ff16151514156113d5576064600a60009054906101000a900460ff1660ff16826113c091906121a3565b6113ca9190612172565b600b819055506116f7565b60011515600760008473ffffffffffffffffffffffffffffffffffffffff1673ffffffffffffffffffffffffffffffffffffffff16815260200190815260200160002060009054906101000a900460ff1615151415611561576064600a60019054906101000a900460ff1660ff168261144e91906121a3565b6114589190612172565b600b81905550600a60029054906101000a900460ff1660ff164261147c91906121fd565b600960008573ffffffffffffffffffffffffffffffffffffffff1673ffffffffffffffffffffffffffffffffffffffff16815260200190815260200160002054106040518060600160405280602a815260200161263a602a913990611517576040517f08c379a000000000000000000000000000000000000000000000000000000000815260040161150e9190611f71565b60405180910390fd5b5042600960008573ffffffffffffffffffffffffffffffffffffffff1673ffffffffffffffffffffffffffffffffffffffff168152602001908152602001600020819055506116f6565b600860008473ffffffffffffffffffffffffffffffffffffffff1673ffffffffffffffffffffffffffffffffffffffff16815260200190815260200160002060009054906101000a900460ff16806116025750600860008373ffffffffffffffffffffffffffffffffffffffff1673ffffffffffffffffffffffffffffffffffffffff16815260200190815260200160002060009054906101000a900460ff165b8061165a5750600c60009054906101000a900473ffffffffffffffffffffffffffffffffffffffff1673ffffffffffffffffffffffffffffffffffffffff168373ffffffffffffffffffffffffffffffffffffffff16145b806116b25750600c60009054906101000a900473ffffffffffffffffffffffffffffffffffffffff1673ffffffffffffffffffffffffffffffffffffffff168273ffffffffffffffffffffffffffffffffffffffff16145b156116c4576000600b819055506116f5565b6064600a60039054906101000a900460ff1660ff16826116e491906121a3565b6116ee9190612172565b600b819055505b5b5b6000600b5411156117325761173183600c60009054906101000a900473ffffffffffffffffffffffffffffffffffffffff16600b546118e3565b5b61174a8383600b548461174591906121fd565b6118e3565b505050565b6000838311158290611797576040517f08c379a000000000000000000000000000000000000000000000000000000000815260040161178e9190611f71565b60405180910390fd5b50600083856117a691906121fd565b9050809150509392505050565b600073ffffffffffffffffffffffffffffffffffffffff168173ffffffffffffffffffffffffffffffffffffffff161415611823576040517f08c379a000000000000000000000000000000000000000000000000000000000815260040161181a90611fd3565b60405180910390fd5b8073ffffffffffffffffffffffffffffffffffffffff16600260019054906101000a900473ffffffffffffffffffffffffffffffffffffffff1673ffffffffffffffffffffffffffffffffffffffff167f8be0079c531659141344cd1fd0a4f28419497f9722a3daafe3b4186f6b6457e060405160405180910390a380600260016101000a81548173ffffffffffffffffffffffffffffffffffffffff021916908373ffffffffffffffffffffffffffffffffffffffff16021790555050565b600073ffffffffffffffffffffffffffffffffffffffff168373ffffffffffffffffffffffffffffffffffffffff161415611953576040517f08c379a000000000000000000000000000000000000000000000000000000000815260040161194a90611f93565b60405180910390fd5b600073ffffffffffffffffffffffffffffffffffffffff168273ffffffffffffffffffffffffffffffffffffffff1614156119c3576040517f08c379a00000000000000000000000000000000000000000000000000000000081526004016119ba90612053565b60405180910390fd5b611a2f8160405180606001604052806026815260200161266460269139600360008773ffffffffffffffffffffffffffffffffffffffff1673ffffffffffffffffffffffffffffffffffffffff1681526020019081526020016000205461174f9092919063ffffffff16565b600360008573ffffffffffffffffffffffffffffffffffffffff1673ffffffffffffffffffffffffffffffffffffffff16815260200190815260200160002081905550611ac481600360008573ffffffffffffffffffffffffffffffffffffffff1673ffffffffffffffffffffffffffffffffffffffff16815260200190815260200160002054610ffe90919063ffffffff16565b600360008473ffffffffffffffffffffffffffffffffffffffff1673ffffffffffffffffffffffffffffffffffffffff168152602001908152602001600020819055508173ffffffffffffffffffffffffffffffffffffffff168373ffffffffffffffffffffffffffffffffffffffff167fddf252ad1be2c89b69c2b068fc378daa952ba7f163c4a11628f55a4df523b3ef83604051611b649190612093565b60405180910390a3505050565b600081359050611b8081612594565b92915050565b600081359050611b95816125ab565b92915050565b600081359050611baa816125c2565b92915050565b600081359050611bbf816125d9565b92915050565b600060208284031215611bdb57611bda612378565b5b6000611be984828501611b71565b91505092915050565b60008060408385031215611c0957611c08612378565b5b6000611c1785828601611b71565b9250506020611c2885828601611b71565b9150509250929050565b600080600060608486031215611c4b57611c4a612378565b5b6000611c5986828701611b71565b9350506020611c6a86828701611b71565b9250506040611c7b86828701611b9b565b9150509250925092565b60008060408385031215611c9c57611c9b612378565b5b6000611caa85828601611b71565b9250506020611cbb85828601611b86565b9150509250929050565b60008060408385031215611cdc57611cdb612378565b5b6000611cea85828601611b71565b9250506020611cfb85828601611b9b565b9150509250929050565b600060208284031215611d1b57611d1a612378565b5b6000611d2984828501611bb0565b91505092915050565b600080600060608486031215611d4b57611d4a612378565b5b6000611d5986828701611bb0565b9350506020611d6a86828701611bb0565b9250506040611d7b86828701611bb0565b9150509250925092565b611d8e81612231565b82525050565b611d9d81612243565b82525050565b6000611dae82612100565b611db8818561210b565b9350611dc8818560208601612286565b611dd18161237d565b840191505092915050565b6000611de960258361210b565b9150611df48261238e565b604082019050919050565b6000611e0c60248361210b565b9150611e17826123dd565b604082019050919050565b6000611e2f60268361210b565b9150611e3a8261242c565b604082019050919050565b6000611e52601b8361210b565b9150611e5d8261247b565b602082019050919050565b6000611e7560108361210b565b9150611e80826124a4565b602082019050919050565b6000611e9860208361210b565b9150611ea3826124cd565b602082019050919050565b6000611ebb60238361210b565b9150611ec6826124f6565b604082019050919050565b6000611ede60228361210b565b9150611ee982612545565b604082019050919050565b611efd8161226f565b82525050565b611f0c81612279565b82525050565b6000602082019050611f276000830184611d85565b92915050565b6000604082019050611f426000830185611d85565b611f4f6020830184611d94565b9392505050565b6000602082019050611f6b6000830184611d94565b92915050565b60006020820190508181036000830152611f8b8184611da3565b905092915050565b60006020820190508181036000830152611fac81611ddc565b9050919050565b60006020820190508181036000830152611fcc81611dff565b9050919050565b60006020820190508181036000830152611fec81611e22565b9050919050565b6000602082019050818103600083015261200c81611e45565b9050919050565b6000602082019050818103600083015261202c81611e68565b9050919050565b6000602082019050818103600083015261204c81611e8b565b9050919050565b6000602082019050818103600083015261206c81611eae565b9050919050565b6000602082019050818103600083015261208c81611ed1565b9050919050565b60006020820190506120a86000830184611ef4565b92915050565b60006020820190506120c36000830184611f03565b92915050565b60006060820190506120de6000830186611f03565b6120eb6020830185611f03565b6120f86040830184611f03565b949350505050565b600081519050919050565b600082825260208201905092915050565b60006121278261226f565b91506121328361226f565b9250827fffffffffffffffffffffffffffffffffffffffffffffffffffffffffffffffff03821115612167576121666122eb565b5b828201905092915050565b600061217d8261226f565b91506121888361226f565b9250826121985761219761231a565b5b828204905092915050565b60006121ae8261226f565b91506121b98361226f565b9250817fffffffffffffffffffffffffffffffffffffffffffffffffffffffffffffffff04831182151516156121f2576121f16122eb565b5b828202905092915050565b60006122088261226f565b91506122138361226f565b925082821015612226576122256122eb565b5b828203905092915050565b600061223c8261224f565b9050919050565b60008115159050919050565b600073ffffffffffffffffffffffffffffffffffffffff82169050919050565b6000819050919050565b600060ff82169050919050565b60005b838110156122a4578082015181840152602081019050612289565b838111156122b3576000848401525b50505050565b600060028204905060018216806122d157607f821691505b602082108114156122e5576122e4612349565b5b50919050565b7f4e487b7100000000000000000000000000000000000000000000000000000000600052601160045260246000fd5b7f4e487b7100000000000000000000000000000000000000000000000000000000600052601260045260246000fd5b7f4e487b7100000000000000000000000000000000000000000000000000000000600052602260045260246000fd5b600080fd5b6000601f19601f8301169050919050565b7f42455032303a207472616e736665722066726f6d20746865207a65726f20616460008201527f6472657373000000000000000000000000000000000000000000000000000000602082015250565b7f42455032303a20617070726f76652066726f6d20746865207a65726f2061646460008201527f7265737300000000000000000000000000000000000000000000000000000000602082015250565b7f4f776e61626c653a206e6577206f776e657220697320746865207a65726f206160008201527f6464726573730000000000000000000000000000000000000000000000000000602082015250565b7f536166654d6174683a206164646974696f6e206f766572666c6f770000000000600082015250565b7f5573657220626c61636b6c697374656400000000000000000000000000000000600082015250565b7f4f776e61626c653a2063616c6c6572206973206e6f7420746865206f776e6572600082015250565b7f42455032303a207472616e7366657220746f20746865207a65726f206164647260008201527f6573730000000000000000000000000000000000000000000000000000000000602082015250565b7f42455032303a20617070726f766520746f20746865207a65726f20616464726560008201527f7373000000000000000000000000000000000000000000000000000000000000602082015250565b61259d81612231565b81146125a857600080fd5b50565b6125b481612243565b81146125bf57600080fd5b50565b6125cb8161226f565b81146125d657600080fd5b50565b6125e281612279565b81146125ed57600080fd5b5056fe42455032303a207472616e7366657220616d6f756e74206578636565647320616c6c6f77616e63654e6f207472616e736665727320746f20636f6e747261637420616c6c6f7765642e4e6f20636f6e73656375746976652073656c6c7320616c6c6f7765642e20506c6561736520776169742e42455032303a207472616e7366657220616d6f756e7420657863656564732062616c616e636542455032303a2064656372656173656420616c6c6f77616e63652062656c6f77207a65726fa2646970667358221220af28b570b178e235cdca68967430d8e0c7486da2d2de671d3065ef8b443a91bc64736f6c63430008070033",
					"opcodes": "PUSH1 0x80 PUSH1 0x40 MSTORE PUSH20 0xF802478197EC4CCF38D89E7DCD79DD92AB5CC342 PUSH1 0xC PUSH1 0x0 PUSH2 0x100 EXP DUP2 SLOAD DUP2 PUSH20 0xFFFFFFFFFFFFFFFFFFFFFFFFFFFFFFFFFFFFFFFF MUL NOT AND SWAP1 DUP4 PUSH20 0xFFFFFFFFFFFFFFFFFFFFFFFFFFFFFFFFFFFFFFFF AND MUL OR SWAP1 SSTORE POP CALLVALUE DUP1 ISZERO PUSH3 0x66 JUMPI PUSH1 0x0 DUP1 REVERT JUMPDEST POP PUSH1 0x40 MLOAD DUP1 PUSH1 0x40 ADD PUSH1 0x40 MSTORE DUP1 PUSH1 0x7 DUP2 MSTORE PUSH1 0x20 ADD PUSH32 0x5669634D6F766500000000000000000000000000000000000000000000000000 DUP2 MSTORE POP PUSH1 0x40 MLOAD DUP1 PUSH1 0x40 ADD PUSH1 0x40 MSTORE DUP1 PUSH1 0x3 DUP2 MSTORE PUSH1 0x20 ADD PUSH32 0x56494D0000000000000000000000000000000000000000000000000000000000 DUP2 MSTORE POP PUSH1 0x12 DUP3 PUSH1 0x0 SWAP1 DUP1 MLOAD SWAP1 PUSH1 0x20 ADD SWAP1 PUSH3 0xED SWAP3 SWAP2 SWAP1 PUSH3 0x4B4 JUMP JUMPDEST POP DUP2 PUSH1 0x1 SWAP1 DUP1 MLOAD SWAP1 PUSH1 0x20 ADD SWAP1 PUSH3 0x106 SWAP3 SWAP2 SWAP1 PUSH3 0x4B4 JUMP JUMPDEST POP DUP1 PUSH1 0x2 PUSH1 0x0 PUSH2 0x100 EXP DUP2 SLOAD DUP2 PUSH1 0xFF MUL NOT AND SWAP1 DUP4 PUSH1 0xFF AND MUL OR SWAP1 SSTORE POP POP POP POP PUSH1 0x0 PUSH3 0x137 PUSH3 0x295 PUSH1 0x20 SHL PUSH1 0x20 SHR JUMP JUMPDEST SWAP1 POP DUP1 PUSH1 0x2 PUSH1 0x1 PUSH2 0x100 EXP DUP2 SLOAD DUP2 PUSH20 0xFFFFFFFFFFFFFFFFFFFFFFFFFFFFFFFFFFFFFFFF MUL NOT AND SWAP1 DUP4 PUSH20 0xFFFFFFFFFFFFFFFFFFFFFFFFFFFFFFFFFFFFFFFF AND MUL OR SWAP1 SSTORE POP DUP1 PUSH20 0xFFFFFFFFFFFFFFFFFFFFFFFFFFFFFFFFFFFFFFFF AND PUSH1 0x0 PUSH20 0xFFFFFFFFFFFFFFFFFFFFFFFFFFFFFFFFFFFFFFFF AND PUSH32 0x8BE0079C531659141344CD1FD0A4F28419497F9722A3DAAFE3B4186F6B6457E0 PUSH1 0x40 MLOAD PUSH1 0x40 MLOAD DUP1 SWAP2 SUB SWAP1 LOG3 POP PUSH1 0x0 PUSH3 0x1E8 PUSH3 0x29D PUSH1 0x20 SHL PUSH1 0x20 SHR JUMP JUMPDEST PUSH1 0xFF AND PUSH1 0xA PUSH3 0x1F9 SWAP2 SWAP1 PUSH3 0x6ED JUMP JUMPDEST PUSH4 0x1312D00 PUSH3 0x20A SWAP2 SWAP1 PUSH3 0x82A JUMP JUMPDEST SWAP1 POP PUSH3 0x21E CALLER DUP3 PUSH3 0x2B4 PUSH1 0x20 SHL PUSH1 0x20 SHR JUMP JUMPDEST PUSH1 0x3 PUSH1 0xA PUSH1 0x1 PUSH2 0x100 EXP DUP2 SLOAD DUP2 PUSH1 0xFF MUL NOT AND SWAP1 DUP4 PUSH1 0xFF AND MUL OR SWAP1 SSTORE POP PUSH1 0x0 PUSH1 0xA PUSH1 0x0 PUSH2 0x100 EXP DUP2 SLOAD DUP2 PUSH1 0xFF MUL NOT AND SWAP1 DUP4 PUSH1 0xFF AND MUL OR SWAP1 SSTORE POP PUSH1 0x0 PUSH1 0xA PUSH1 0x3 PUSH2 0x100 EXP DUP2 SLOAD DUP2 PUSH1 0xFF MUL NOT AND SWAP1 DUP4 PUSH1 0xFF AND MUL OR SWAP1 SSTORE POP PUSH1 0xF PUSH1 0xA PUSH1 0x2 PUSH2 0x100 EXP DUP2 SLOAD DUP2 PUSH1 0xFF MUL NOT AND SWAP1 DUP4 PUSH1 0xFF AND MUL OR SWAP1 SSTORE POP POP PUSH3 0x988 JUMP JUMPDEST PUSH1 0x0 CALLER SWAP1 POP SWAP1 JUMP JUMPDEST PUSH1 0x0 PUSH1 0x2 PUSH1 0x0 SWAP1 SLOAD SWAP1 PUSH2 0x100 EXP SWAP1 DIV PUSH1 0xFF AND SWAP1 POP SWAP1 JUMP JUMPDEST PUSH1 0x0 PUSH20 0xFFFFFFFFFFFFFFFFFFFFFFFFFFFFFFFFFFFFFFFF AND DUP3 PUSH20 0xFFFFFFFFFFFFFFFFFFFFFFFFFFFFFFFFFFFFFFFF AND EQ ISZERO PUSH3 0x327 JUMPI PUSH1 0x40 MLOAD PUSH32 0x8C379A000000000000000000000000000000000000000000000000000000000 DUP2 MSTORE PUSH1 0x4 ADD PUSH3 0x31E SWAP1 PUSH3 0x5E5 JUMP JUMPDEST PUSH1 0x40 MLOAD DUP1 SWAP2 SUB SWAP1 REVERT JUMPDEST PUSH3 0x343 DUP2 PUSH1 0x5 SLOAD PUSH3 0x451 PUSH1 0x20 SHL PUSH3 0xFFE OR SWAP1 SWAP2 SWAP1 PUSH1 0x20 SHR JUMP JUMPDEST PUSH1 0x5 DUP2 SWAP1 SSTORE POP PUSH3 0x3A2 DUP2 PUSH1 0x3 PUSH1 0x0 DUP6 PUSH20 0xFFFFFFFFFFFFFFFFFFFFFFFFFFFFFFFFFFFFFFFF AND PUSH20 0xFFFFFFFFFFFFFFFFFFFFFFFFFFFFFFFFFFFFFFFF AND DUP2 MSTORE PUSH1 0x20 ADD SWAP1 DUP2 MSTORE PUSH1 0x20 ADD PUSH1 0x0 KECCAK256 SLOAD PUSH3 0x451 PUSH1 0x20 SHL PUSH3 0xFFE OR SWAP1 SWAP2 SWAP1 PUSH1 0x20 SHR JUMP JUMPDEST PUSH1 0x3 PUSH1 0x0 DUP5 PUSH20 0xFFFFFFFFFFFFFFFFFFFFFFFFFFFFFFFFFFFFFFFF AND PUSH20 0xFFFFFFFFFFFFFFFFFFFFFFFFFFFFFFFFFFFFFFFF AND DUP2 MSTORE PUSH1 0x20 ADD SWAP1 DUP2 MSTORE PUSH1 0x20 ADD PUSH1 0x0 KECCAK256 DUP2 SWAP1 SSTORE POP DUP2 PUSH20 0xFFFFFFFFFFFFFFFFFFFFFFFFFFFFFFFFFFFFFFFF AND PUSH1 0x0 PUSH20 0xFFFFFFFFFFFFFFFFFFFFFFFFFFFFFFFFFFFFFFFF AND PUSH32 0xDDF252AD1BE2C89B69C2B068FC378DAA952BA7F163C4A11628F55A4DF523B3EF DUP4 PUSH1 0x40 MLOAD PUSH3 0x445 SWAP2 SWAP1 PUSH3 0x607 JUMP JUMPDEST PUSH1 0x40 MLOAD DUP1 SWAP2 SUB SWAP1 LOG3 POP POP JUMP JUMPDEST PUSH1 0x0 DUP1 DUP3 DUP5 PUSH3 0x462 SWAP2 SWAP1 PUSH3 0x635 JUMP JUMPDEST SWAP1 POP DUP4 DUP2 LT ISZERO PUSH3 0x4AA JUMPI PUSH1 0x40 MLOAD PUSH32 0x8C379A000000000000000000000000000000000000000000000000000000000 DUP2 MSTORE PUSH1 0x4 ADD PUSH3 0x4A1 SWAP1 PUSH3 0x5C3 JUMP JUMPDEST PUSH1 0x40 MLOAD DUP1 SWAP2 SUB SWAP1 REVERT JUMPDEST DUP1 SWAP2 POP POP SWAP3 SWAP2 POP POP JUMP JUMPDEST DUP3 DUP1 SLOAD PUSH3 0x4C2 SWAP1 PUSH3 0x895 JUMP JUMPDEST SWAP1 PUSH1 0x0 MSTORE PUSH1 0x20 PUSH1 0x0 KECCAK256 SWAP1 PUSH1 0x1F ADD PUSH1 0x20 SWAP1 DIV DUP2 ADD SWAP3 DUP3 PUSH3 0x4E6 JUMPI PUSH1 0x0 DUP6 SSTORE PUSH3 0x532 JUMP JUMPDEST DUP3 PUSH1 0x1F LT PUSH3 0x501 JUMPI DUP1 MLOAD PUSH1 0xFF NOT AND DUP4 DUP1 ADD OR DUP6 SSTORE PUSH3 0x532 JUMP JUMPDEST DUP3 DUP1 ADD PUSH1 0x1 ADD DUP6 SSTORE DUP3 ISZERO PUSH3 0x532 JUMPI SWAP2 DUP3 ADD JUMPDEST DUP3 DUP2 GT ISZERO PUSH3 0x531 JUMPI DUP3 MLOAD DUP3 SSTORE SWAP2 PUSH1 0x20 ADD SWAP2 SWAP1 PUSH1 0x1 ADD SWAP1 PUSH3 0x514 JUMP JUMPDEST JUMPDEST POP SWAP1 POP PUSH3 0x541 SWAP2 SWAP1 PUSH3 0x545 JUMP JUMPDEST POP SWAP1 JUMP JUMPDEST JUMPDEST DUP1 DUP3 GT ISZERO PUSH3 0x560 JUMPI PUSH1 0x0 DUP2 PUSH1 0x0 SWAP1 SSTORE POP PUSH1 0x1 ADD PUSH3 0x546 JUMP JUMPDEST POP SWAP1 JUMP JUMPDEST PUSH1 0x0 PUSH3 0x573 PUSH1 0x1B DUP4 PUSH3 0x624 JUMP JUMPDEST SWAP2 POP PUSH3 0x580 DUP3 PUSH3 0x936 JUMP JUMPDEST PUSH1 0x20 DUP3 ADD SWAP1 POP SWAP2 SWAP1 POP JUMP JUMPDEST PUSH1 0x0 PUSH3 0x59A PUSH1 0x1F DUP4 PUSH3 0x624 JUMP JUMPDEST SWAP2 POP PUSH3 0x5A7 DUP3 PUSH3 0x95F JUMP JUMPDEST PUSH1 0x20 DUP3 ADD SWAP1 POP SWAP2 SWAP1 POP JUMP JUMPDEST PUSH3 0x5BD DUP2 PUSH3 0x88B JUMP JUMPDEST DUP3 MSTORE POP POP JUMP JUMPDEST PUSH1 0x0 PUSH1 0x20 DUP3 ADD SWAP1 POP DUP2 DUP2 SUB PUSH1 0x0 DUP4 ADD MSTORE PUSH3 0x5DE DUP2 PUSH3 0x564 JUMP JUMPDEST SWAP1 POP SWAP2 SWAP1 POP JUMP JUMPDEST PUSH1 0x0 PUSH1 0x20 DUP3 ADD SWAP1 POP DUP2 DUP2 SUB PUSH1 0x0 DUP4 ADD MSTORE PUSH3 0x600 DUP2 PUSH3 0x58B JUMP JUMPDEST SWAP1 POP SWAP2 SWAP1 POP JUMP JUMPDEST PUSH1 0x0 PUSH1 0x20 DUP3 ADD SWAP1 POP PUSH3 0x61E PUSH1 0x0 DUP4 ADD DUP5 PUSH3 0x5B2 JUMP JUMPDEST SWAP3 SWAP2 POP POP JUMP JUMPDEST PUSH1 0x0 DUP3 DUP3 MSTORE PUSH1 0x20 DUP3 ADD SWAP1 POP SWAP3 SWAP2 POP POP JUMP JUMPDEST PUSH1 0x0 PUSH3 0x642 DUP3 PUSH3 0x88B JUMP JUMPDEST SWAP2 POP PUSH3 0x64F DUP4 PUSH3 0x88B JUMP JUMPDEST SWAP3 POP DUP3 PUSH32 0xFFFFFFFFFFFFFFFFFFFFFFFFFFFFFFFFFFFFFFFFFFFFFFFFFFFFFFFFFFFFFFFF SUB DUP3 GT ISZERO PUSH3 0x687 JUMPI PUSH3 0x686 PUSH3 0x8CB JUMP JUMPDEST JUMPDEST DUP3 DUP3 ADD SWAP1 POP SWAP3 SWAP2 POP POP JUMP JUMPDEST PUSH1 0x0 DUP1 DUP3 SWAP2 POP DUP4 SWAP1 POP JUMPDEST PUSH1 0x1 DUP6 GT ISZERO PUSH3 0x6E4 JUMPI DUP1 DUP7 DIV DUP2 GT ISZERO PUSH3 0x6BC JUMPI PUSH3 0x6BB PUSH3 0x8CB JUMP JUMPDEST JUMPDEST PUSH1 0x1 DUP6 AND ISZERO PUSH3 0x6CC JUMPI DUP1 DUP3 MUL SWAP2 POP JUMPDEST DUP1 DUP2 MUL SWAP1 POP PUSH3 0x6DC DUP6 PUSH3 0x929 JUMP JUMPDEST SWAP5 POP PUSH3 0x69C JUMP JUMPDEST SWAP5 POP SWAP5 SWAP3 POP POP POP JUMP JUMPDEST PUSH1 0x0 PUSH3 0x6FA DUP3 PUSH3 0x88B JUMP JUMPDEST SWAP2 POP PUSH3 0x707 DUP4 PUSH3 0x88B JUMP JUMPDEST SWAP3 POP PUSH3 0x736 PUSH32 0xFFFFFFFFFFFFFFFFFFFFFFFFFFFFFFFFFFFFFFFFFFFFFFFFFFFFFFFFFFFFFFFF DUP5 DUP5 PUSH3 0x73E JUMP JUMPDEST SWAP1 POP SWAP3 SWAP2 POP POP JUMP JUMPDEST PUSH1 0x0 DUP3 PUSH3 0x750 JUMPI PUSH1 0x1 SWAP1 POP PUSH3 0x823 JUMP JUMPDEST DUP2 PUSH3 0x760 JUMPI PUSH1 0x0 SWAP1 POP PUSH3 0x823 JUMP JUMPDEST DUP2 PUSH1 0x1 DUP2 EQ PUSH3 0x779 JUMPI PUSH1 0x2 DUP2 EQ PUSH3 0x784 JUMPI PUSH3 0x7BA JUMP JUMPDEST PUSH1 0x1 SWAP2 POP POP PUSH3 0x823 JUMP JUMPDEST PUSH1 0xFF DUP5 GT ISZERO PUSH3 0x799 JUMPI PUSH3 0x798 PUSH3 0x8CB JUMP JUMPDEST JUMPDEST DUP4 PUSH1 0x2 EXP SWAP2 POP DUP5 DUP3 GT ISZERO PUSH3 0x7B3 JUMPI PUSH3 0x7B2 PUSH3 0x8CB JUMP JUMPDEST JUMPDEST POP PUSH3 0x823 JUMP JUMPDEST POP PUSH1 0x20 DUP4 LT PUSH2 0x133 DUP4 LT AND PUSH1 0x4E DUP5 LT PUSH1 0xB DUP5 LT AND OR ISZERO PUSH3 0x7F4 JUMPI DUP3 DUP3 EXP SWAP1 POP DUP4 DUP2 GT ISZERO PUSH3 0x7EE JUMPI PUSH3 0x7ED PUSH3 0x8CB JUMP JUMPDEST JUMPDEST PUSH3 0x823 JUMP JUMPDEST PUSH3 0x803 DUP5 DUP5 DUP5 PUSH1 0x1 PUSH3 0x692 JUMP JUMPDEST SWAP3 POP SWAP1 POP DUP2 DUP5 DIV DUP2 GT ISZERO PUSH3 0x81D JUMPI PUSH3 0x81C PUSH3 0x8CB JUMP JUMPDEST JUMPDEST DUP2 DUP2 MUL SWAP1 POP JUMPDEST SWAP4 SWAP3 POP POP POP JUMP JUMPDEST PUSH1 0x0 PUSH3 0x837 DUP3 PUSH3 0x88B JUMP JUMPDEST SWAP2 POP PUSH3 0x844 DUP4 PUSH3 0x88B JUMP JUMPDEST SWAP3 POP DUP2 PUSH32 0xFFFFFFFFFFFFFFFFFFFFFFFFFFFFFFFFFFFFFFFFFFFFFFFFFFFFFFFFFFFFFFFF DIV DUP4 GT DUP3 ISZERO ISZERO AND ISZERO PUSH3 0x880 JUMPI PUSH3 0x87F PUSH3 0x8CB JUMP JUMPDEST JUMPDEST DUP3 DUP3 MUL SWAP1 POP SWAP3 SWAP2 POP POP JUMP JUMPDEST PUSH1 0x0 DUP2 SWAP1 POP SWAP2 SWAP1 POP JUMP JUMPDEST PUSH1 0x0 PUSH1 0x2 DUP3 DIV SWAP1 POP PUSH1 0x1 DUP3 AND DUP1 PUSH3 0x8AE JUMPI PUSH1 0x7F DUP3 AND SWAP2 POP JUMPDEST PUSH1 0x20 DUP3 LT DUP2 EQ ISZERO PUSH3 0x8C5 JUMPI PUSH3 0x8C4 PUSH3 0x8FA JUMP JUMPDEST JUMPDEST POP SWAP2 SWAP1 POP JUMP JUMPDEST PUSH32 0x4E487B7100000000000000000000000000000000000000000000000000000000 PUSH1 0x0 MSTORE PUSH1 0x11 PUSH1 0x4 MSTORE PUSH1 0x24 PUSH1 0x0 REVERT JUMPDEST PUSH32 0x4E487B7100000000000000000000000000000000000000000000000000000000 PUSH1 0x0 MSTORE PUSH1 0x22 PUSH1 0x4 MSTORE PUSH1 0x24 PUSH1 0x0 REVERT JUMPDEST PUSH1 0x0 DUP2 PUSH1 0x1 SHR SWAP1 POP SWAP2 SWAP1 POP JUMP JUMPDEST PUSH32 0x536166654D6174683A206164646974696F6E206F766572666C6F770000000000 PUSH1 0x0 DUP3 ADD MSTORE POP JUMP JUMPDEST PUSH32 0x42455032303A206D696E7420746F20746865207A65726F206164647265737300 PUSH1 0x0 DUP3 ADD MSTORE POP JUMP JUMPDEST PUSH2 0x26E4 DUP1 PUSH3 0x998 PUSH1 0x0 CODECOPY PUSH1 0x0 RETURN INVALID PUSH1 0x80 PUSH1 0x40 MSTORE CALLVALUE DUP1 ISZERO PUSH2 0x10 JUMPI PUSH1 0x0 DUP1 REVERT JUMPDEST POP PUSH1 0x4 CALLDATASIZE LT PUSH2 0x142 JUMPI PUSH1 0x0 CALLDATALOAD PUSH1 0xE0 SHR DUP1 PUSH4 0x70A08231 GT PUSH2 0xB8 JUMPI DUP1 PUSH4 0xA457C2D7 GT PUSH2 0x7C JUMPI DUP1 PUSH4 0xA457C2D7 EQ PUSH2 0x355 JUMPI DUP1 PUSH4 0xA86517BF EQ PUSH2 0x385 JUMPI DUP1 PUSH4 0xA9059CBB EQ PUSH2 0x3A1 JUMPI DUP1 PUSH4 0xC89C58FB EQ PUSH2 0x3D1 JUMPI DUP1 PUSH4 0xDD62ED3E EQ PUSH2 0x3ED JUMPI DUP1 PUSH4 0xF2FDE38B EQ PUSH2 0x41D JUMPI PUSH2 0x142 JUMP JUMPDEST DUP1 PUSH4 0x70A08231 EQ PUSH2 0x2C1 JUMPI DUP1 PUSH4 0x715018A6 EQ PUSH2 0x2F1 JUMPI DUP1 PUSH4 0x8DA5CB5B EQ PUSH2 0x2FB JUMPI DUP1 PUSH4 0x8F32D59B EQ PUSH2 0x319 JUMPI DUP1 PUSH4 0x95D89B41 EQ PUSH2 0x337 JUMPI PUSH2 0x142 JUMP JUMPDEST DUP1 PUSH4 0x18160DDD GT PUSH2 0x10A JUMPI DUP1 PUSH4 0x18160DDD EQ PUSH2 0x1E9 JUMPI DUP1 PUSH4 0x23B872DD EQ PUSH2 0x207 JUMPI DUP1 PUSH4 0x2973EF2D EQ PUSH2 0x237 JUMPI DUP1 PUSH4 0x313CE567 EQ PUSH2 0x257 JUMPI DUP1 PUSH4 0x39509351 EQ PUSH2 0x275 JUMPI DUP1 PUSH4 0x53D6FD59 EQ PUSH2 0x2A5 JUMPI PUSH2 0x142 JUMP JUMPDEST DUP1 PUSH4 0x6FDDE03 EQ PUSH2 0x147 JUMPI DUP1 PUSH4 0x95EA7B3 EQ PUSH2 0x165 JUMPI DUP1 PUSH4 0xD2CF31F EQ PUSH2 0x195 JUMPI DUP1 PUSH4 0x153B0D1E EQ PUSH2 0x1B1 JUMPI DUP1 PUSH4 0x1574567B EQ PUSH2 0x1CD JUMPI JUMPDEST PUSH1 0x0 DUP1 REVERT JUMPDEST PUSH2 0x14F PUSH2 0x439 JUMP JUMPDEST PUSH1 0x40 MLOAD PUSH2 0x15C SWAP2 SWAP1 PUSH2 0x1F71 JUMP JUMPDEST PUSH1 0x40 MLOAD DUP1 SWAP2 SUB SWAP1 RETURN JUMPDEST PUSH2 0x17F PUSH1 0x4 DUP1 CALLDATASIZE SUB DUP2 ADD SWAP1 PUSH2 0x17A SWAP2 SWAP1 PUSH2 0x1CC5 JUMP JUMPDEST PUSH2 0x4CB JUMP JUMPDEST PUSH1 0x40 MLOAD PUSH2 0x18C SWAP2 SWAP1 PUSH2 0x1F56 JUMP JUMPDEST PUSH1 0x40 MLOAD DUP1 SWAP2 SUB SWAP1 RETURN JUMPDEST PUSH2 0x1AF PUSH1 0x4 DUP1 CALLDATASIZE SUB DUP2 ADD SWAP1 PUSH2 0x1AA SWAP2 SWAP1 PUSH2 0x1D32 JUMP JUMPDEST PUSH2 0x4E9 JUMP JUMPDEST STOP JUMPDEST PUSH2 0x1CB PUSH1 0x4 DUP1 CALLDATASIZE SUB DUP2 ADD SWAP1 PUSH2 0x1C6 SWAP2 SWAP1 PUSH2 0x1C85 JUMP JUMPDEST PUSH2 0x5F1 JUMP JUMPDEST STOP JUMPDEST PUSH2 0x1E7 PUSH1 0x4 DUP1 CALLDATASIZE SUB DUP2 ADD SWAP1 PUSH2 0x1E2 SWAP2 SWAP1 PUSH2 0x1D05 JUMP JUMPDEST PUSH2 0x6CC JUMP JUMPDEST STOP JUMPDEST PUSH2 0x1F1 PUSH2 0x768 JUMP JUMPDEST PUSH1 0x40 MLOAD PUSH2 0x1FE SWAP2 SWAP1 PUSH2 0x2093 JUMP JUMPDEST PUSH1 0x40 MLOAD DUP1 SWAP2 SUB SWAP1 RETURN JUMPDEST PUSH2 0x221 PUSH1 0x4 DUP1 CALLDATASIZE SUB DUP2 ADD SWAP1 PUSH2 0x21C SWAP2 SWAP1 PUSH2 0x1C32 JUMP JUMPDEST PUSH2 0x772 JUMP JUMPDEST PUSH1 0x40 MLOAD PUSH2 0x22E SWAP2 SWAP1 PUSH2 0x1F56 JUMP JUMPDEST PUSH1 0x40 MLOAD DUP1 SWAP2 SUB SWAP1 RETURN JUMPDEST PUSH2 0x23F PUSH2 0x84B JUMP JUMPDEST PUSH1 0x40 MLOAD PUSH2 0x24E SWAP4 SWAP3 SWAP2 SWAP1 PUSH2 0x20C9 JUMP JUMPDEST PUSH1 0x40 MLOAD DUP1 SWAP2 SUB SWAP1 RETURN JUMPDEST PUSH2 0x25F PUSH2 0x88B JUMP JUMPDEST PUSH1 0x40 MLOAD PUSH2 0x26C SWAP2 SWAP1 PUSH2 0x20AE JUMP JUMPDEST PUSH1 0x40 MLOAD DUP1 SWAP2 SUB SWAP1 RETURN JUMPDEST PUSH2 0x28F PUSH1 0x4 DUP1 CALLDATASIZE SUB DUP2 ADD SWAP1 PUSH2 0x28A SWAP2 SWAP1 PUSH2 0x1CC5 JUMP JUMPDEST PUSH2 0x8A2 JUMP JUMPDEST PUSH1 0x40 MLOAD PUSH2 0x29C SWAP2 SWAP1 PUSH2 0x1F56 JUMP JUMPDEST PUSH1 0x40 MLOAD DUP1 SWAP2 SUB SWAP1 RETURN JUMPDEST PUSH2 0x2BF PUSH1 0x4 DUP1 CALLDATASIZE SUB DUP2 ADD SWAP1 PUSH2 0x2BA SWAP2 SWAP1 PUSH2 0x1C85 JUMP JUMPDEST PUSH2 0x955 JUMP JUMPDEST STOP JUMPDEST PUSH2 0x2DB PUSH1 0x4 DUP1 CALLDATASIZE SUB DUP2 ADD SWAP1 PUSH2 0x2D6 SWAP2 SWAP1 PUSH2 0x1BC5 JUMP JUMPDEST PUSH2 0xA30 JUMP JUMPDEST PUSH1 0x40 MLOAD PUSH2 0x2E8 SWAP2 SWAP1 PUSH2 0x2093 JUMP JUMPDEST PUSH1 0x40 MLOAD DUP1 SWAP2 SUB SWAP1 RETURN JUMPDEST PUSH2 0x2F9 PUSH2 0xA79 JUMP JUMPDEST STOP JUMPDEST PUSH2 0x303 PUSH2 0xB81 JUMP JUMPDEST PUSH1 0x40 MLOAD PUSH2 0x310 SWAP2 SWAP1 PUSH2 0x1F12 JUMP JUMPDEST PUSH1 0x40 MLOAD DUP1 SWAP2 SUB SWAP1 RETURN JUMPDEST PUSH2 0x321 PUSH2 0xBAB JUMP JUMPDEST PUSH1 0x40 MLOAD PUSH2 0x32E SWAP2 SWAP1 PUSH2 0x1F56 JUMP JUMPDEST PUSH1 0x40 MLOAD DUP1 SWAP2 SUB SWAP1 RETURN JUMPDEST PUSH2 0x33F PUSH2 0xC0A JUMP JUMPDEST PUSH1 0x40 MLOAD PUSH2 0x34C SWAP2 SWAP1 PUSH2 0x1F71 JUMP JUMPDEST PUSH1 0x40 MLOAD DUP1 SWAP2 SUB SWAP1 RETURN JUMPDEST PUSH2 0x36F PUSH1 0x4 DUP1 CALLDATASIZE SUB DUP2 ADD SWAP1 PUSH2 0x36A SWAP2 SWAP1 PUSH2 0x1CC5 JUMP JUMPDEST PUSH2 0xC9C JUMP JUMPDEST PUSH1 0x40 MLOAD PUSH2 0x37C SWAP2 SWAP1 PUSH2 0x1F56 JUMP JUMPDEST PUSH1 0x40 MLOAD DUP1 SWAP2 SUB SWAP1 RETURN JUMPDEST PUSH2 0x39F PUSH1 0x4 DUP1 CALLDATASIZE SUB DUP2 ADD SWAP1 PUSH2 0x39A SWAP2 SWAP1 PUSH2 0x1BC5 JUMP JUMPDEST PUSH2 0xD69 JUMP JUMPDEST STOP JUMPDEST PUSH2 0x3BB PUSH1 0x4 DUP1 CALLDATASIZE SUB DUP2 ADD SWAP1 PUSH2 0x3B6 SWAP2 SWAP1 PUSH2 0x1CC5 JUMP JUMPDEST PUSH2 0xE2B JUMP JUMPDEST PUSH1 0x40 MLOAD PUSH2 0x3C8 SWAP2 SWAP1 PUSH2 0x1F56 JUMP JUMPDEST PUSH1 0x40 MLOAD DUP1 SWAP2 SUB SWAP1 RETURN JUMPDEST PUSH2 0x3EB PUSH1 0x4 DUP1 CALLDATASIZE SUB DUP2 ADD SWAP1 PUSH2 0x3E6 SWAP2 SWAP1 PUSH2 0x1C85 JUMP JUMPDEST PUSH2 0xE49 JUMP JUMPDEST STOP JUMPDEST PUSH2 0x407 PUSH1 0x4 DUP1 CALLDATASIZE SUB DUP2 ADD SWAP1 PUSH2 0x402 SWAP2 SWAP1 PUSH2 0x1BF2 JUMP JUMPDEST PUSH2 0xF24 JUMP JUMPDEST PUSH1 0x40 MLOAD PUSH2 0x414 SWAP2 SWAP1 PUSH2 0x2093 JUMP JUMPDEST PUSH1 0x40 MLOAD DUP1 SWAP2 SUB SWAP1 RETURN JUMPDEST PUSH2 0x437 PUSH1 0x4 DUP1 CALLDATASIZE SUB DUP2 ADD SWAP1 PUSH2 0x432 SWAP2 SWAP1 PUSH2 0x1BC5 JUMP JUMPDEST PUSH2 0xFAB JUMP JUMPDEST STOP JUMPDEST PUSH1 0x60 PUSH1 0x0 DUP1 SLOAD PUSH2 0x448 SWAP1 PUSH2 0x22B9 JUMP JUMPDEST DUP1 PUSH1 0x1F ADD PUSH1 0x20 DUP1 SWAP2 DIV MUL PUSH1 0x20 ADD PUSH1 0x40 MLOAD SWAP1 DUP2 ADD PUSH1 0x40 MSTORE DUP1 SWAP3 SWAP2 SWAP1 DUP2 DUP2 MSTORE PUSH1 0x20 ADD DUP3 DUP1 SLOAD PUSH2 0x474 SWAP1 PUSH2 0x22B9 JUMP JUMPDEST DUP1 ISZERO PUSH2 0x4C1 JUMPI DUP1 PUSH1 0x1F LT PUSH2 0x496 JUMPI PUSH2 0x100 DUP1 DUP4 SLOAD DIV MUL DUP4 MSTORE SWAP2 PUSH1 0x20 ADD SWAP2 PUSH2 0x4C1 JUMP JUMPDEST DUP3 ADD SWAP2 SWAP1 PUSH1 0x0 MSTORE PUSH1 0x20 PUSH1 0x0 KECCAK256 SWAP1 JUMPDEST DUP2 SLOAD DUP2 MSTORE SWAP1 PUSH1 0x1 ADD SWAP1 PUSH1 0x20 ADD DUP1 DUP4 GT PUSH2 0x4A4 JUMPI DUP3 SWAP1 SUB PUSH1 0x1F AND DUP3 ADD SWAP2 JUMPDEST POP POP POP POP POP SWAP1 POP SWAP1 JUMP JUMPDEST PUSH1 0x0 PUSH2 0x4DF PUSH2 0x4D8 PUSH2 0x105C JUMP JUMPDEST DUP5 DUP5 PUSH2 0x1064 JUMP JUMPDEST PUSH1 0x1 SWAP1 POP SWAP3 SWAP2 POP POP JUMP JUMPDEST PUSH2 0x4F1 PUSH2 0xBAB JUMP JUMPDEST PUSH2 0x530 JUMPI PUSH1 0x40 MLOAD PUSH32 0x8C379A000000000000000000000000000000000000000000000000000000000 DUP2 MSTORE PUSH1 0x4 ADD PUSH2 0x527 SWAP1 PUSH2 0x2033 JUMP JUMPDEST PUSH1 0x40 MLOAD DUP1 SWAP2 SUB SWAP1 REVERT JUMPDEST PUSH1 0xA DUP4 PUSH1 0xFF AND LT PUSH2 0x540 JUMPI PUSH1 0x0 DUP1 REVERT JUMPDEST PUSH1 0x6 DUP3 PUSH1 0xFF AND LT PUSH2 0x550 JUMPI PUSH1 0x0 DUP1 REVERT JUMPDEST PUSH1 0x6 DUP2 PUSH1 0xFF AND LT PUSH2 0x560 JUMPI PUSH1 0x0 DUP1 REVERT JUMPDEST DUP3 PUSH1 0xA PUSH1 0x1 PUSH2 0x100 EXP DUP2 SLOAD DUP2 PUSH1 0xFF MUL NOT AND SWAP1 DUP4 PUSH1 0xFF AND MUL OR SWAP1 SSTORE POP DUP2 PUSH1 0xA PUSH1 0x0 PUSH2 0x100 EXP DUP2 SLOAD DUP2 PUSH1 0xFF MUL NOT AND SWAP1 DUP4 PUSH1 0xFF AND MUL OR SWAP1 SSTORE POP DUP1 PUSH1 0xA PUSH1 0x3 PUSH2 0x100 EXP DUP2 SLOAD DUP2 PUSH1 0xFF MUL NOT AND SWAP1 DUP4 PUSH1 0xFF AND MUL OR SWAP1 SSTORE POP PUSH32 0x8F649EEECB19301C91F9B511096FE7CBC4B2B67BC75BFEF33BA3F2745EFC386A DUP4 DUP4 DUP4 PUSH1 0x40 MLOAD PUSH2 0x5E4 SWAP4 SWAP3 SWAP2 SWAP1 PUSH2 0x20C9 JUMP JUMPDEST PUSH1 0x40 MLOAD DUP1 SWAP2 SUB SWAP1 LOG1 POP POP POP JUMP JUMPDEST PUSH2 0x5F9 PUSH2 0xBAB JUMP JUMPDEST PUSH2 0x638 JUMPI PUSH1 0x40 MLOAD PUSH32 0x8C379A000000000000000000000000000000000000000000000000000000000 DUP2 MSTORE PUSH1 0x4 ADD PUSH2 0x62F SWAP1 PUSH2 0x2033 JUMP JUMPDEST PUSH1 0x40 MLOAD DUP1 SWAP2 SUB SWAP1 REVERT JUMPDEST DUP1 PUSH1 0x6 PUSH1 0x0 DUP5 PUSH20 0xFFFFFFFFFFFFFFFFFFFFFFFFFFFFFFFFFFFFFFFF AND PUSH20 0xFFFFFFFFFFFFFFFFFFFFFFFFFFFFFFFFFFFFFFFF AND DUP2 MSTORE PUSH1 0x20 ADD SWAP1 DUP2 MSTORE PUSH1 0x20 ADD PUSH1 0x0 KECCAK256 PUSH1 0x0 PUSH2 0x100 EXP DUP2 SLOAD DUP2 PUSH1 0xFF MUL NOT AND SWAP1 DUP4 ISZERO ISZERO MUL OR SWAP1 SSTORE POP PUSH32 0xF791A94C7F3569546A71ACF39C0189BD87BD7B7E3EA76CE41FD41D837CC4BBCA DUP3 DUP3 PUSH1 0x40 MLOAD PUSH2 0x6C0 SWAP3 SWAP2 SWAP1 PUSH2 0x1F2D JUMP JUMPDEST PUSH1 0x40 MLOAD DUP1 SWAP2 SUB SWAP1 LOG1 POP POP JUMP JUMPDEST PUSH2 0x6D4 PUSH2 0xBAB JUMP JUMPDEST PUSH2 0x713 JUMPI PUSH1 0x40 MLOAD PUSH32 0x8C379A000000000000000000000000000000000000000000000000000000000 DUP2 MSTORE PUSH1 0x4 ADD PUSH2 0x70A SWAP1 PUSH2 0x2033 JUMP JUMPDEST PUSH1 0x40 MLOAD DUP1 SWAP2 SUB SWAP1 REVERT JUMPDEST DUP1 PUSH1 0xA PUSH1 0x2 PUSH2 0x100 EXP DUP2 SLOAD DUP2 PUSH1 0xFF MUL NOT AND SWAP1 DUP4 PUSH1 0xFF AND MUL OR SWAP1 SSTORE POP PUSH32 0x3DC38872C1E356F05CEC7694232D10514DC69DDBDCB883F9687C4D4F7E371E01 DUP2 PUSH1 0x40 MLOAD PUSH2 0x75D SWAP2 SWAP1 PUSH2 0x20AE JUMP JUMPDEST PUSH1 0x40 MLOAD DUP1 SWAP2 SUB SWAP1 LOG1 POP JUMP JUMPDEST PUSH1 0x0 PUSH1 0x5 SLOAD SWAP1 POP SWAP1 JUMP JUMPDEST PUSH1 0x0 PUSH2 0x77F DUP5 DUP5 DUP5 PUSH2 0x122F JUMP JUMPDEST PUSH2 0x840 DUP5 PUSH2 0x78B PUSH2 0x105C JUMP JUMPDEST PUSH2 0x83B DUP6 PUSH1 0x40 MLOAD DUP1 PUSH1 0x60 ADD PUSH1 0x40 MSTORE DUP1 PUSH1 0x28 DUP2 MSTORE PUSH1 0x20 ADD PUSH2 0x25F1 PUSH1 0x28 SWAP2 CODECOPY PUSH1 0x4 PUSH1 0x0 DUP12 PUSH20 0xFFFFFFFFFFFFFFFFFFFFFFFFFFFFFFFFFFFFFFFF AND PUSH20 0xFFFFFFFFFFFFFFFFFFFFFFFFFFFFFFFFFFFFFFFF AND DUP2 MSTORE PUSH1 0x20 ADD SWAP1 DUP2 MSTORE PUSH1 0x20 ADD PUSH1 0x0 KECCAK256 PUSH1 0x0 PUSH2 0x7F1 PUSH2 0x105C JUMP JUMPDEST PUSH20 0xFFFFFFFFFFFFFFFFFFFFFFFFFFFFFFFFFFFFFFFF AND PUSH20 0xFFFFFFFFFFFFFFFFFFFFFFFFFFFFFFFFFFFFFFFF AND DUP2 MSTORE PUSH1 0x20 ADD SWAP1 DUP2 MSTORE PUSH1 0x20 ADD PUSH1 0x0 KECCAK256 SLOAD PUSH2 0x174F SWAP1 SWAP3 SWAP2 SWAP1 PUSH4 0xFFFFFFFF AND JUMP JUMPDEST PUSH2 0x1064 JUMP JUMPDEST PUSH1 0x1 SWAP1 POP SWAP4 SWAP3 POP POP POP JUMP JUMPDEST PUSH1 0x0 DUP1 PUSH1 0x0 PUSH1 0xA PUSH1 0x1 SWAP1 SLOAD SWAP1 PUSH2 0x100 EXP SWAP1 DIV PUSH1 0xFF AND PUSH1 0xA PUSH1 0x0 SWAP1 SLOAD SWAP1 PUSH2 0x100 EXP SWAP1 DIV PUSH1 0xFF AND PUSH1 0xA PUSH1 0x3 SWAP1 SLOAD SWAP1 PUSH2 0x100 EXP SWAP1 DIV PUSH1 0xFF AND SWAP3 POP SWAP3 POP SWAP3 POP SWAP1 SWAP2 SWAP3 JUMP JUMPDEST PUSH1 0x0 PUSH1 0x2 PUSH1 0x0 SWAP1 SLOAD SWAP1 PUSH2 0x100 EXP SWAP1 DIV PUSH1 0xFF AND SWAP1 POP SWAP1 JUMP JUMPDEST PUSH1 0x0 PUSH2 0x94B PUSH2 0x8AF PUSH2 0x105C JUMP JUMPDEST DUP5 PUSH2 0x946 DUP6 PUSH1 0x4 PUSH1 0x0 PUSH2 0x8C0 PUSH2 0x105C JUMP JUMPDEST PUSH20 0xFFFFFFFFFFFFFFFFFFFFFFFFFFFFFFFFFFFFFFFF AND PUSH20 0xFFFFFFFFFFFFFFFFFFFFFFFFFFFFFFFFFFFFFFFF AND DUP2 MSTORE PUSH1 0x20 ADD SWAP1 DUP2 MSTORE PUSH1 0x20 ADD PUSH1 0x0 KECCAK256 PUSH1 0x0 DUP10 PUSH20 0xFFFFFFFFFFFFFFFFFFFFFFFFFFFFFFFFFFFFFFFF AND PUSH20 0xFFFFFFFFFFFFFFFFFFFFFFFFFFFFFFFFFFFFFFFF AND DUP2 MSTORE PUSH1 0x20 ADD SWAP1 DUP2 MSTORE PUSH1 0x20 ADD PUSH1 0x0 KECCAK256 SLOAD PUSH2 0xFFE SWAP1 SWAP2 SWAP1 PUSH4 0xFFFFFFFF AND JUMP JUMPDEST PUSH2 0x1064 JUMP JUMPDEST PUSH1 0x1 SWAP1 POP SWAP3 SWAP2 POP POP JUMP JUMPDEST PUSH2 0x95D PUSH2 0xBAB JUMP JUMPDEST PUSH2 0x99C JUMPI PUSH1 0x40 MLOAD PUSH32 0x8C379A000000000000000000000000000000000000000000000000000000000 DUP2 MSTORE PUSH1 0x4 ADD PUSH2 0x993 SWAP1 PUSH2 0x2033 JUMP JUMPDEST PUSH1 0x40 MLOAD DUP1 SWAP2 SUB SWAP1 REVERT JUMPDEST DUP1 PUSH1 0x8 PUSH1 0x0 DUP5 PUSH20 0xFFFFFFFFFFFFFFFFFFFFFFFFFFFFFFFFFFFFFFFF AND PUSH20 0xFFFFFFFFFFFFFFFFFFFFFFFFFFFFFFFFFFFFFFFF AND DUP2 MSTORE PUSH1 0x20 ADD SWAP1 DUP2 MSTORE PUSH1 0x20 ADD PUSH1 0x0 KECCAK256 PUSH1 0x0 PUSH2 0x100 EXP DUP2 SLOAD DUP2 PUSH1 0xFF MUL NOT AND SWAP1 DUP4 ISZERO ISZERO MUL OR SWAP1 SSTORE POP PUSH32 0xE41EFE2EC3272DFF61FC1D94FE807A61B44E66814ABE5F463E98A100B9BB852C DUP3 DUP3 PUSH1 0x40 MLOAD PUSH2 0xA24 SWAP3 SWAP2 SWAP1 PUSH2 0x1F2D JUMP JUMPDEST PUSH1 0x40 MLOAD DUP1 SWAP2 SUB SWAP1 LOG1 POP POP JUMP JUMPDEST PUSH1 0x0 PUSH1 0x3 PUSH1 0x0 DUP4 PUSH20 0xFFFFFFFFFFFFFFFFFFFFFFFFFFFFFFFFFFFFFFFF AND PUSH20 0xFFFFFFFFFFFFFFFFFFFFFFFFFFFFFFFFFFFFFFFF AND DUP2 MSTORE PUSH1 0x20 ADD SWAP1 DUP2 MSTORE PUSH1 0x20 ADD PUSH1 0x0 KECCAK256 SLOAD SWAP1 POP SWAP2 SWAP1 POP JUMP JUMPDEST PUSH2 0xA81 PUSH2 0xBAB JUMP JUMPDEST PUSH2 0xAC0 JUMPI PUSH1 0x40 MLOAD PUSH32 0x8C379A000000000000000000000000000000000000000000000000000000000 DUP2 MSTORE PUSH1 0x4 ADD PUSH2 0xAB7 SWAP1 PUSH2 0x2033 JUMP JUMPDEST PUSH1 0x40 MLOAD DUP1 SWAP2 SUB SWAP1 REVERT JUMPDEST PUSH1 0x0 PUSH20 0xFFFFFFFFFFFFFFFFFFFFFFFFFFFFFFFFFFFFFFFF AND PUSH1 0x2 PUSH1 0x1 SWAP1 SLOAD SWAP1 PUSH2 0x100 EXP SWAP1 DIV PUSH20 0xFFFFFFFFFFFFFFFFFFFFFFFFFFFFFFFFFFFFFFFF AND PUSH20 0xFFFFFFFFFFFFFFFFFFFFFFFFFFFFFFFFFFFFFFFF AND PUSH32 0x8BE0079C531659141344CD1FD0A4F28419497F9722A3DAAFE3B4186F6B6457E0 PUSH1 0x40 MLOAD PUSH1 0x40 MLOAD DUP1 SWAP2 SUB SWAP1 LOG3 PUSH1 0x0 PUSH1 0x2 PUSH1 0x1 PUSH2 0x100 EXP DUP2 SLOAD DUP2 PUSH20 0xFFFFFFFFFFFFFFFFFFFFFFFFFFFFFFFFFFFFFFFF MUL NOT AND SWAP1 DUP4 PUSH20 0xFFFFFFFFFFFFFFFFFFFFFFFFFFFFFFFFFFFFFFFF AND MUL OR SWAP1 SSTORE POP JUMP JUMPDEST PUSH1 0x0 PUSH1 0x2 PUSH1 0x1 SWAP1 SLOAD SWAP1 PUSH2 0x100 EXP SWAP1 DIV PUSH20 0xFFFFFFFFFFFFFFFFFFFFFFFFFFFFFFFFFFFFFFFF AND SWAP1 POP SWAP1 JUMP JUMPDEST PUSH1 0x0 PUSH1 0x2 PUSH1 0x1 SWAP1 SLOAD SWAP1 PUSH2 0x100 EXP SWAP1 DIV PUSH20 0xFFFFFFFFFFFFFFFFFFFFFFFFFFFFFFFFFFFFFFFF AND PUSH20 0xFFFFFFFFFFFFFFFFFFFFFFFFFFFFFFFFFFFFFFFF AND PUSH2 0xBEE PUSH2 0x105C JUMP JUMPDEST PUSH20 0xFFFFFFFFFFFFFFFFFFFFFFFFFFFFFFFFFFFFFFFF AND EQ SWAP1 POP SWAP1 JUMP JUMPDEST PUSH1 0x60 PUSH1 0x1 DUP1 SLOAD PUSH2 0xC19 SWAP1 PUSH2 0x22B9 JUMP JUMPDEST DUP1 PUSH1 0x1F ADD PUSH1 0x20 DUP1 SWAP2 DIV MUL PUSH1 0x20 ADD PUSH1 0x40 MLOAD SWAP1 DUP2 ADD PUSH1 0x40 MSTORE DUP1 SWAP3 SWAP2 SWAP1 DUP2 DUP2 MSTORE PUSH1 0x20 ADD DUP3 DUP1 SLOAD PUSH2 0xC45 SWAP1 PUSH2 0x22B9 JUMP JUMPDEST DUP1 ISZERO PUSH2 0xC92 JUMPI DUP1 PUSH1 0x1F LT PUSH2 0xC67 JUMPI PUSH2 0x100 DUP1 DUP4 SLOAD DIV MUL DUP4 MSTORE SWAP2 PUSH1 0x20 ADD SWAP2 PUSH2 0xC92 JUMP JUMPDEST DUP3 ADD SWAP2 SWAP1 PUSH1 0x0 MSTORE PUSH1 0x20 PUSH1 0x0 KECCAK256 SWAP1 JUMPDEST DUP2 SLOAD DUP2 MSTORE SWAP1 PUSH1 0x1 ADD SWAP1 PUSH1 0x20 ADD DUP1 DUP4 GT PUSH2 0xC75 JUMPI DUP3 SWAP1 SUB PUSH1 0x1F AND DUP3 ADD SWAP2 JUMPDEST POP POP POP POP POP SWAP1 POP SWAP1 JUMP JUMPDEST PUSH1 0x0 PUSH2 0xD5F PUSH2 0xCA9 PUSH2 0x105C JUMP JUMPDEST DUP5 PUSH2 0xD5A DUP6 PUSH1 0x40 MLOAD DUP1 PUSH1 0x60 ADD PUSH1 0x40 MSTORE DUP1 PUSH1 0x25 DUP2 MSTORE PUSH1 0x20 ADD PUSH2 0x268A PUSH1 0x25 SWAP2 CODECOPY PUSH1 0x4 PUSH1 0x0 PUSH2 0xCD3 PUSH2 0x105C JUMP JUMPDEST PUSH20 0xFFFFFFFFFFFFFFFFFFFFFFFFFFFFFFFFFFFFFFFF AND PUSH20 0xFFFFFFFFFFFFFFFFFFFFFFFFFFFFFFFFFFFFFFFF AND DUP2 MSTORE PUSH1 0x20 ADD SWAP1 DUP2 MSTORE PUSH1 0x20 ADD PUSH1 0x0 KECCAK256 PUSH1 0x0 DUP11 PUSH20 0xFFFFFFFFFFFFFFFFFFFFFFFFFFFFFFFFFFFFFFFF AND PUSH20 0xFFFFFFFFFFFFFFFFFFFFFFFFFFFFFFFFFFFFFFFF AND DUP2 MSTORE PUSH1 0x20 ADD SWAP1 DUP2 MSTORE PUSH1 0x20 ADD PUSH1 0x0 KECCAK256 SLOAD PUSH2 0x174F SWAP1 SWAP3 SWAP2 SWAP1 PUSH4 0xFFFFFFFF AND JUMP JUMPDEST PUSH2 0x1064 JUMP JUMPDEST PUSH1 0x1 SWAP1 POP SWAP3 SWAP2 POP POP JUMP JUMPDEST PUSH2 0xD71 PUSH2 0xBAB JUMP JUMPDEST PUSH2 0xDB0 JUMPI PUSH1 0x40 MLOAD PUSH32 0x8C379A000000000000000000000000000000000000000000000000000000000 DUP2 MSTORE PUSH1 0x4 ADD PUSH2 0xDA7 SWAP1 PUSH2 0x2033 JUMP JUMPDEST PUSH1 0x40 MLOAD DUP1 SWAP2 SUB SWAP1 REVERT JUMPDEST DUP1 PUSH1 0xC PUSH1 0x0 PUSH2 0x100 EXP DUP2 SLOAD DUP2 PUSH20 0xFFFFFFFFFFFFFFFFFFFFFFFFFFFFFFFFFFFFFFFF MUL NOT AND SWAP1 DUP4 PUSH20 0xFFFFFFFFFFFFFFFFFFFFFFFFFFFFFFFFFFFFFFFF AND MUL OR SWAP1 SSTORE POP PUSH32 0xF15D5716DB5D5D79F695E387FC3E7C89982C0DF6F4B81A006E38CFDC850A712E DUP2 PUSH1 0x40 MLOAD PUSH2 0xE20 SWAP2 SWAP1 PUSH2 0x1F12 JUMP JUMPDEST PUSH1 0x40 MLOAD DUP1 SWAP2 SUB SWAP1 LOG1 POP JUMP JUMPDEST PUSH1 0x0 PUSH2 0xE3F PUSH2 0xE38 PUSH2 0x105C JUMP JUMPDEST DUP5 DUP5 PUSH2 0x122F JUMP JUMPDEST PUSH1 0x1 SWAP1 POP SWAP3 SWAP2 POP POP JUMP JUMPDEST PUSH2 0xE51 PUSH2 0xBAB JUMP JUMPDEST PUSH2 0xE90 JUMPI PUSH1 0x40 MLOAD PUSH32 0x8C379A000000000000000000000000000000000000000000000000000000000 DUP2 MSTORE PUSH1 0x4 ADD PUSH2 0xE87 SWAP1 PUSH2 0x2033 JUMP JUMPDEST PUSH1 0x40 MLOAD DUP1 SWAP2 SUB SWAP1 REVERT JUMPDEST DUP1 PUSH1 0x7 PUSH1 0x0 DUP5 PUSH20 0xFFFFFFFFFFFFFFFFFFFFFFFFFFFFFFFFFFFFFFFF AND PUSH20 0xFFFFFFFFFFFFFFFFFFFFFFFFFFFFFFFFFFFFFFFF AND DUP2 MSTORE PUSH1 0x20 ADD SWAP1 DUP2 MSTORE PUSH1 0x20 ADD PUSH1 0x0 KECCAK256 PUSH1 0x0 PUSH2 0x100 EXP DUP2 SLOAD DUP2 PUSH1 0xFF MUL NOT AND SWAP1 DUP4 ISZERO ISZERO MUL OR SWAP1 SSTORE POP PUSH32 0x50D3135C1831A86BDC04740F17C94415767240D338DF5795B37FB5B8272F80D7 DUP3 DUP3 PUSH1 0x40 MLOAD PUSH2 0xF18 SWAP3 SWAP2 SWAP1 PUSH2 0x1F2D JUMP JUMPDEST PUSH1 0x40 MLOAD DUP1 SWAP2 SUB SWAP1 LOG1 POP POP JUMP JUMPDEST PUSH1 0x0 PUSH1 0x4 PUSH1 0x0 DUP5 PUSH20 0xFFFFFFFFFFFFFFFFFFFFFFFFFFFFFFFFFFFFFFFF AND PUSH20 0xFFFFFFFFFFFFFFFFFFFFFFFFFFFFFFFFFFFFFFFF AND DUP2 MSTORE PUSH1 0x20 ADD SWAP1 DUP2 MSTORE PUSH1 0x20 ADD PUSH1 0x0 KECCAK256 PUSH1 0x0 DUP4 PUSH20 0xFFFFFFFFFFFFFFFFFFFFFFFFFFFFFFFFFFFFFFFF AND PUSH20 0xFFFFFFFFFFFFFFFFFFFFFFFFFFFFFFFFFFFFFFFF AND DUP2 MSTORE PUSH1 0x20 ADD SWAP1 DUP2 MSTORE PUSH1 0x20 ADD PUSH1 0x0 KECCAK256 SLOAD SWAP1 POP SWAP3 SWAP2 POP POP JUMP JUMPDEST PUSH2 0xFB3 PUSH2 0xBAB JUMP JUMPDEST PUSH2 0xFF2 JUMPI PUSH1 0x40 MLOAD PUSH32 0x8C379A000000000000000000000000000000000000000000000000000000000 DUP2 MSTORE PUSH1 0x4 ADD PUSH2 0xFE9 SWAP1 PUSH2 0x2033 JUMP JUMPDEST PUSH1 0x40 MLOAD DUP1 SWAP2 SUB SWAP1 REVERT JUMPDEST PUSH2 0xFFB DUP2 PUSH2 0x17B3 JUMP JUMPDEST POP JUMP JUMPDEST PUSH1 0x0 DUP1 DUP3 DUP5 PUSH2 0x100D SWAP2 SWAP1 PUSH2 0x211C JUMP JUMPDEST SWAP1 POP DUP4 DUP2 LT ISZERO PUSH2 0x1052 JUMPI PUSH1 0x40 MLOAD PUSH32 0x8C379A000000000000000000000000000000000000000000000000000000000 DUP2 MSTORE PUSH1 0x4 ADD PUSH2 0x1049 SWAP1 PUSH2 0x1FF3 JUMP JUMPDEST PUSH1 0x40 MLOAD DUP1 SWAP2 SUB SWAP1 REVERT JUMPDEST DUP1 SWAP2 POP POP SWAP3 SWAP2 POP POP JUMP JUMPDEST PUSH1 0x0 CALLER SWAP1 POP SWAP1 JUMP JUMPDEST PUSH1 0x0 PUSH20 0xFFFFFFFFFFFFFFFFFFFFFFFFFFFFFFFFFFFFFFFF AND DUP4 PUSH20 0xFFFFFFFFFFFFFFFFFFFFFFFFFFFFFFFFFFFFFFFF AND EQ ISZERO PUSH2 0x10D4 JUMPI PUSH1 0x40 MLOAD PUSH32 0x8C379A000000000000000000000000000000000000000000000000000000000 DUP2 MSTORE PUSH1 0x4 ADD PUSH2 0x10CB SWAP1 PUSH2 0x1FB3 JUMP JUMPDEST PUSH1 0x40 MLOAD DUP1 SWAP2 SUB SWAP1 REVERT JUMPDEST PUSH1 0x0 PUSH20 0xFFFFFFFFFFFFFFFFFFFFFFFFFFFFFFFFFFFFFFFF AND DUP3 PUSH20 0xFFFFFFFFFFFFFFFFFFFFFFFFFFFFFFFFFFFFFFFF AND EQ ISZERO PUSH2 0x1144 JUMPI PUSH1 0x40 MLOAD PUSH32 0x8C379A000000000000000000000000000000000000000000000000000000000 DUP2 MSTORE PUSH1 0x4 ADD PUSH2 0x113B SWAP1 PUSH2 0x2073 JUMP JUMPDEST PUSH1 0x40 MLOAD DUP1 SWAP2 SUB SWAP1 REVERT JUMPDEST DUP1 PUSH1 0x4 PUSH1 0x0 DUP6 PUSH20 0xFFFFFFFFFFFFFFFFFFFFFFFFFFFFFFFFFFFFFFFF AND PUSH20 0xFFFFFFFFFFFFFFFFFFFFFFFFFFFFFFFFFFFFFFFF AND DUP2 MSTORE PUSH1 0x20 ADD SWAP1 DUP2 MSTORE PUSH1 0x20 ADD PUSH1 0x0 KECCAK256 PUSH1 0x0 DUP5 PUSH20 0xFFFFFFFFFFFFFFFFFFFFFFFFFFFFFFFFFFFFFFFF AND PUSH20 0xFFFFFFFFFFFFFFFFFFFFFFFFFFFFFFFFFFFFFFFF AND DUP2 MSTORE PUSH1 0x20 ADD SWAP1 DUP2 MSTORE PUSH1 0x20 ADD PUSH1 0x0 KECCAK256 DUP2 SWAP1 SSTORE POP DUP2 PUSH20 0xFFFFFFFFFFFFFFFFFFFFFFFFFFFFFFFFFFFFFFFF AND DUP4 PUSH20 0xFFFFFFFFFFFFFFFFFFFFFFFFFFFFFFFFFFFFFFFF AND PUSH32 0x8C5BE1E5EBEC7D5BD14F71427D1E84F3DD0314C0F7B2291E5B200AC8C7C3B925 DUP4 PUSH1 0x40 MLOAD PUSH2 0x1222 SWAP2 SWAP1 PUSH2 0x2093 JUMP JUMPDEST PUSH1 0x40 MLOAD DUP1 SWAP2 SUB SWAP1 LOG3 POP POP POP JUMP JUMPDEST ADDRESS PUSH20 0xFFFFFFFFFFFFFFFFFFFFFFFFFFFFFFFFFFFFFFFF AND DUP3 PUSH20 0xFFFFFFFFFFFFFFFFFFFFFFFFFFFFFFFFFFFFFFFF AND EQ ISZERO PUSH1 0x40 MLOAD DUP1 PUSH1 0x60 ADD PUSH1 0x40 MSTORE DUP1 PUSH1 0x21 DUP2 MSTORE PUSH1 0x20 ADD PUSH2 0x2619 PUSH1 0x21 SWAP2 CODECOPY SWAP1 PUSH2 0x12B9 JUMPI PUSH1 0x40 MLOAD PUSH32 0x8C379A000000000000000000000000000000000000000000000000000000000 DUP2 MSTORE PUSH1 0x4 ADD PUSH2 0x12B0 SWAP2 SWAP1 PUSH2 0x1F71 JUMP JUMPDEST PUSH1 0x40 MLOAD DUP1 SWAP2 SUB SWAP1 REVERT JUMPDEST POP PUSH1 0x6 PUSH1 0x0 DUP5 PUSH20 0xFFFFFFFFFFFFFFFFFFFFFFFFFFFFFFFFFFFFFFFF AND PUSH20 0xFFFFFFFFFFFFFFFFFFFFFFFFFFFFFFFFFFFFFFFF AND DUP2 MSTORE PUSH1 0x20 ADD SWAP1 DUP2 MSTORE PUSH1 0x20 ADD PUSH1 0x0 KECCAK256 PUSH1 0x0 SWAP1 SLOAD SWAP1 PUSH2 0x100 EXP SWAP1 DIV PUSH1 0xFF AND ISZERO PUSH2 0x1347 JUMPI PUSH1 0x40 MLOAD PUSH32 0x8C379A000000000000000000000000000000000000000000000000000000000 DUP2 MSTORE PUSH1 0x4 ADD PUSH2 0x133E SWAP1 PUSH2 0x2013 JUMP JUMPDEST PUSH1 0x40 MLOAD DUP1 SWAP2 SUB SWAP1 REVERT JUMPDEST PUSH1 0x1 ISZERO ISZERO PUSH1 0x7 PUSH1 0x0 DUP6 PUSH20 0xFFFFFFFFFFFFFFFFFFFFFFFFFFFFFFFFFFFFFFFF AND PUSH20 0xFFFFFFFFFFFFFFFFFFFFFFFFFFFFFFFFFFFFFFFF AND DUP2 MSTORE PUSH1 0x20 ADD SWAP1 DUP2 MSTORE PUSH1 0x20 ADD PUSH1 0x0 KECCAK256 PUSH1 0x0 SWAP1 SLOAD SWAP1 PUSH2 0x100 EXP SWAP1 DIV PUSH1 0xFF AND ISZERO ISZERO EQ ISZERO PUSH2 0x13D5 JUMPI PUSH1 0x64 PUSH1 0xA PUSH1 0x0 SWAP1 SLOAD SWAP1 PUSH2 0x100 EXP SWAP1 DIV PUSH1 0xFF AND PUSH1 0xFF AND DUP3 PUSH2 0x13C0 SWAP2 SWAP1 PUSH2 0x21A3 JUMP JUMPDEST PUSH2 0x13CA SWAP2 SWAP1 PUSH2 0x2172 JUMP JUMPDEST PUSH1 0xB DUP2 SWAP1 SSTORE POP PUSH2 0x16F7 JUMP JUMPDEST PUSH1 0x1 ISZERO ISZERO PUSH1 0x7 PUSH1 0x0 DUP5 PUSH20 0xFFFFFFFFFFFFFFFFFFFFFFFFFFFFFFFFFFFFFFFF AND PUSH20 0xFFFFFFFFFFFFFFFFFFFFFFFFFFFFFFFFFFFFFFFF AND DUP2 MSTORE PUSH1 0x20 ADD SWAP1 DUP2 MSTORE PUSH1 0x20 ADD PUSH1 0x0 KECCAK256 PUSH1 0x0 SWAP1 SLOAD SWAP1 PUSH2 0x100 EXP SWAP1 DIV PUSH1 0xFF AND ISZERO ISZERO EQ ISZERO PUSH2 0x1561 JUMPI PUSH1 0x64 PUSH1 0xA PUSH1 0x1 SWAP1 SLOAD SWAP1 PUSH2 0x100 EXP SWAP1 DIV PUSH1 0xFF AND PUSH1 0xFF AND DUP3 PUSH2 0x144E SWAP2 SWAP1 PUSH2 0x21A3 JUMP JUMPDEST PUSH2 0x1458 SWAP2 SWAP1 PUSH2 0x2172 JUMP JUMPDEST PUSH1 0xB DUP2 SWAP1 SSTORE POP PUSH1 0xA PUSH1 0x2 SWAP1 SLOAD SWAP1 PUSH2 0x100 EXP SWAP1 DIV PUSH1 0xFF AND PUSH1 0xFF AND TIMESTAMP PUSH2 0x147C SWAP2 SWAP1 PUSH2 0x21FD JUMP JUMPDEST PUSH1 0x9 PUSH1 0x0 DUP6 PUSH20 0xFFFFFFFFFFFFFFFFFFFFFFFFFFFFFFFFFFFFFFFF AND PUSH20 0xFFFFFFFFFFFFFFFFFFFFFFFFFFFFFFFFFFFFFFFF AND DUP2 MSTORE PUSH1 0x20 ADD SWAP1 DUP2 MSTORE PUSH1 0x20 ADD PUSH1 0x0 KECCAK256 SLOAD LT PUSH1 0x40 MLOAD DUP1 PUSH1 0x60 ADD PUSH1 0x40 MSTORE DUP1 PUSH1 0x2A DUP2 MSTORE PUSH1 0x20 ADD PUSH2 0x263A PUSH1 0x2A SWAP2 CODECOPY SWAP1 PUSH2 0x1517 JUMPI PUSH1 0x40 MLOAD PUSH32 0x8C379A000000000000000000000000000000000000000000000000000000000 DUP2 MSTORE PUSH1 0x4 ADD PUSH2 0x150E SWAP2 SWAP1 PUSH2 0x1F71 JUMP JUMPDEST PUSH1 0x40 MLOAD DUP1 SWAP2 SUB SWAP1 REVERT JUMPDEST POP TIMESTAMP PUSH1 0x9 PUSH1 0x0 DUP6 PUSH20 0xFFFFFFFFFFFFFFFFFFFFFFFFFFFFFFFFFFFFFFFF AND PUSH20 0xFFFFFFFFFFFFFFFFFFFFFFFFFFFFFFFFFFFFFFFF AND DUP2 MSTORE PUSH1 0x20 ADD SWAP1 DUP2 MSTORE PUSH1 0x20 ADD PUSH1 0x0 KECCAK256 DUP2 SWAP1 SSTORE POP PUSH2 0x16F6 JUMP JUMPDEST PUSH1 0x8 PUSH1 0x0 DUP5 PUSH20 0xFFFFFFFFFFFFFFFFFFFFFFFFFFFFFFFFFFFFFFFF AND PUSH20 0xFFFFFFFFFFFFFFFFFFFFFFFFFFFFFFFFFFFFFFFF AND DUP2 MSTORE PUSH1 0x20 ADD SWAP1 DUP2 MSTORE PUSH1 0x20 ADD PUSH1 0x0 KECCAK256 PUSH1 0x0 SWAP1 SLOAD SWAP1 PUSH2 0x100 EXP SWAP1 DIV PUSH1 0xFF AND DUP1 PUSH2 0x1602 JUMPI POP PUSH1 0x8 PUSH1 0x0 DUP4 PUSH20 0xFFFFFFFFFFFFFFFFFFFFFFFFFFFFFFFFFFFFFFFF AND PUSH20 0xFFFFFFFFFFFFFFFFFFFFFFFFFFFFFFFFFFFFFFFF AND DUP2 MSTORE PUSH1 0x20 ADD SWAP1 DUP2 MSTORE PUSH1 0x20 ADD PUSH1 0x0 KECCAK256 PUSH1 0x0 SWAP1 SLOAD SWAP1 PUSH2 0x100 EXP SWAP1 DIV PUSH1 0xFF AND JUMPDEST DUP1 PUSH2 0x165A JUMPI POP PUSH1 0xC PUSH1 0x0 SWAP1 SLOAD SWAP1 PUSH2 0x100 EXP SWAP1 DIV PUSH20 0xFFFFFFFFFFFFFFFFFFFFFFFFFFFFFFFFFFFFFFFF AND PUSH20 0xFFFFFFFFFFFFFFFFFFFFFFFFFFFFFFFFFFFFFFFF AND DUP4 PUSH20 0xFFFFFFFFFFFFFFFFFFFFFFFFFFFFFFFFFFFFFFFF AND EQ JUMPDEST DUP1 PUSH2 0x16B2 JUMPI POP PUSH1 0xC PUSH1 0x0 SWAP1 SLOAD SWAP1 PUSH2 0x100 EXP SWAP1 DIV PUSH20 0xFFFFFFFFFFFFFFFFFFFFFFFFFFFFFFFFFFFFFFFF AND PUSH20 0xFFFFFFFFFFFFFFFFFFFFFFFFFFFFFFFFFFFFFFFF AND DUP3 PUSH20 0xFFFFFFFFFFFFFFFFFFFFFFFFFFFFFFFFFFFFFFFF AND EQ JUMPDEST ISZERO PUSH2 0x16C4 JUMPI PUSH1 0x0 PUSH1 0xB DUP2 SWAP1 SSTORE POP PUSH2 0x16F5 JUMP JUMPDEST PUSH1 0x64 PUSH1 0xA PUSH1 0x3 SWAP1 SLOAD SWAP1 PUSH2 0x100 EXP SWAP1 DIV PUSH1 0xFF AND PUSH1 0xFF AND DUP3 PUSH2 0x16E4 SWAP2 SWAP1 PUSH2 0x21A3 JUMP JUMPDEST PUSH2 0x16EE SWAP2 SWAP1 PUSH2 0x2172 JUMP JUMPDEST PUSH1 0xB DUP2 SWAP1 SSTORE POP JUMPDEST JUMPDEST JUMPDEST PUSH1 0x0 PUSH1 0xB SLOAD GT ISZERO PUSH2 0x1732 JUMPI PUSH2 0x1731 DUP4 PUSH1 0xC PUSH1 0x0 SWAP1 SLOAD SWAP1 PUSH2 0x100 EXP SWAP1 DIV PUSH20 0xFFFFFFFFFFFFFFFFFFFFFFFFFFFFFFFFFFFFFFFF AND PUSH1 0xB SLOAD PUSH2 0x18E3 JUMP JUMPDEST JUMPDEST PUSH2 0x174A DUP4 DUP4 PUSH1 0xB SLOAD DUP5 PUSH2 0x1745 SWAP2 SWAP1 PUSH2 0x21FD JUMP JUMPDEST PUSH2 0x18E3 JUMP JUMPDEST POP POP POP JUMP JUMPDEST PUSH1 0x0 DUP4 DUP4 GT ISZERO DUP3 SWAP1 PUSH2 0x1797 JUMPI PUSH1 0x40 MLOAD PUSH32 0x8C379A000000000000000000000000000000000000000000000000000000000 DUP2 MSTORE PUSH1 0x4 ADD PUSH2 0x178E SWAP2 SWAP1 PUSH2 0x1F71 JUMP JUMPDEST PUSH1 0x40 MLOAD DUP1 SWAP2 SUB SWAP1 REVERT JUMPDEST POP PUSH1 0x0 DUP4 DUP6 PUSH2 0x17A6 SWAP2 SWAP1 PUSH2 0x21FD JUMP JUMPDEST SWAP1 POP DUP1 SWAP2 POP POP SWAP4 SWAP3 POP POP POP JUMP JUMPDEST PUSH1 0x0 PUSH20 0xFFFFFFFFFFFFFFFFFFFFFFFFFFFFFFFFFFFFFFFF AND DUP2 PUSH20 0xFFFFFFFFFFFFFFFFFFFFFFFFFFFFFFFFFFFFFFFF AND EQ ISZERO PUSH2 0x1823 JUMPI PUSH1 0x40 MLOAD PUSH32 0x8C379A000000000000000000000000000000000000000000000000000000000 DUP2 MSTORE PUSH1 0x4 ADD PUSH2 0x181A SWAP1 PUSH2 0x1FD3 JUMP JUMPDEST PUSH1 0x40 MLOAD DUP1 SWAP2 SUB SWAP1 REVERT JUMPDEST DUP1 PUSH20 0xFFFFFFFFFFFFFFFFFFFFFFFFFFFFFFFFFFFFFFFF AND PUSH1 0x2 PUSH1 0x1 SWAP1 SLOAD SWAP1 PUSH2 0x100 EXP SWAP1 DIV PUSH20 0xFFFFFFFFFFFFFFFFFFFFFFFFFFFFFFFFFFFFFFFF AND PUSH20 0xFFFFFFFFFFFFFFFFFFFFFFFFFFFFFFFFFFFFFFFF AND PUSH32 0x8BE0079C531659141344CD1FD0A4F28419497F9722A3DAAFE3B4186F6B6457E0 PUSH1 0x40 MLOAD PUSH1 0x40 MLOAD DUP1 SWAP2 SUB SWAP1 LOG3 DUP1 PUSH1 0x2 PUSH1 0x1 PUSH2 0x100 EXP DUP2 SLOAD DUP2 PUSH20 0xFFFFFFFFFFFFFFFFFFFFFFFFFFFFFFFFFFFFFFFF MUL NOT AND SWAP1 DUP4 PUSH20 0xFFFFFFFFFFFFFFFFFFFFFFFFFFFFFFFFFFFFFFFF AND MUL OR SWAP1 SSTORE POP POP JUMP JUMPDEST PUSH1 0x0 PUSH20 0xFFFFFFFFFFFFFFFFFFFFFFFFFFFFFFFFFFFFFFFF AND DUP4 PUSH20 0xFFFFFFFFFFFFFFFFFFFFFFFFFFFFFFFFFFFFFFFF AND EQ ISZERO PUSH2 0x1953 JUMPI PUSH1 0x40 MLOAD PUSH32 0x8C379A000000000000000000000000000000000000000000000000000000000 DUP2 MSTORE PUSH1 0x4 ADD PUSH2 0x194A SWAP1 PUSH2 0x1F93 JUMP JUMPDEST PUSH1 0x40 MLOAD DUP1 SWAP2 SUB SWAP1 REVERT JUMPDEST PUSH1 0x0 PUSH20 0xFFFFFFFFFFFFFFFFFFFFFFFFFFFFFFFFFFFFFFFF AND DUP3 PUSH20 0xFFFFFFFFFFFFFFFFFFFFFFFFFFFFFFFFFFFFFFFF AND EQ ISZERO PUSH2 0x19C3 JUMPI PUSH1 0x40 MLOAD PUSH32 0x8C379A000000000000000000000000000000000000000000000000000000000 DUP2 MSTORE PUSH1 0x4 ADD PUSH2 0x19BA SWAP1 PUSH2 0x2053 JUMP JUMPDEST PUSH1 0x40 MLOAD DUP1 SWAP2 SUB SWAP1 REVERT JUMPDEST PUSH2 0x1A2F DUP2 PUSH1 0x40 MLOAD DUP1 PUSH1 0x60 ADD PUSH1 0x40 MSTORE DUP1 PUSH1 0x26 DUP2 MSTORE PUSH1 0x20 ADD PUSH2 0x2664 PUSH1 0x26 SWAP2 CODECOPY PUSH1 0x3 PUSH1 0x0 DUP8 PUSH20 0xFFFFFFFFFFFFFFFFFFFFFFFFFFFFFFFFFFFFFFFF AND PUSH20 0xFFFFFFFFFFFFFFFFFFFFFFFFFFFFFFFFFFFFFFFF AND DUP2 MSTORE PUSH1 0x20 ADD SWAP1 DUP2 MSTORE PUSH1 0x20 ADD PUSH1 0x0 KECCAK256 SLOAD PUSH2 0x174F SWAP1 SWAP3 SWAP2 SWAP1 PUSH4 0xFFFFFFFF AND JUMP JUMPDEST PUSH1 0x3 PUSH1 0x0 DUP6 PUSH20 0xFFFFFFFFFFFFFFFFFFFFFFFFFFFFFFFFFFFFFFFF AND PUSH20 0xFFFFFFFFFFFFFFFFFFFFFFFFFFFFFFFFFFFFFFFF AND DUP2 MSTORE PUSH1 0x20 ADD SWAP1 DUP2 MSTORE PUSH1 0x20 ADD PUSH1 0x0 KECCAK256 DUP2 SWAP1 SSTORE POP PUSH2 0x1AC4 DUP2 PUSH1 0x3 PUSH1 0x0 DUP6 PUSH20 0xFFFFFFFFFFFFFFFFFFFFFFFFFFFFFFFFFFFFFFFF AND PUSH20 0xFFFFFFFFFFFFFFFFFFFFFFFFFFFFFFFFFFFFFFFF AND DUP2 MSTORE PUSH1 0x20 ADD SWAP1 DUP2 MSTORE PUSH1 0x20 ADD PUSH1 0x0 KECCAK256 SLOAD PUSH2 0xFFE SWAP1 SWAP2 SWAP1 PUSH4 0xFFFFFFFF AND JUMP JUMPDEST PUSH1 0x3 PUSH1 0x0 DUP5 PUSH20 0xFFFFFFFFFFFFFFFFFFFFFFFFFFFFFFFFFFFFFFFF AND PUSH20 0xFFFFFFFFFFFFFFFFFFFFFFFFFFFFFFFFFFFFFFFF AND DUP2 MSTORE PUSH1 0x20 ADD SWAP1 DUP2 MSTORE PUSH1 0x20 ADD PUSH1 0x0 KECCAK256 DUP2 SWAP1 SSTORE POP DUP2 PUSH20 0xFFFFFFFFFFFFFFFFFFFFFFFFFFFFFFFFFFFFFFFF AND DUP4 PUSH20 0xFFFFFFFFFFFFFFFFFFFFFFFFFFFFFFFFFFFFFFFF AND PUSH32 0xDDF252AD1BE2C89B69C2B068FC378DAA952BA7F163C4A11628F55A4DF523B3EF DUP4 PUSH1 0x40 MLOAD PUSH2 0x1B64 SWAP2 SWAP1 PUSH2 0x2093 JUMP JUMPDEST PUSH1 0x40 MLOAD DUP1 SWAP2 SUB SWAP1 LOG3 POP POP POP JUMP JUMPDEST PUSH1 0x0 DUP2 CALLDATALOAD SWAP1 POP PUSH2 0x1B80 DUP2 PUSH2 0x2594 JUMP JUMPDEST SWAP3 SWAP2 POP POP JUMP JUMPDEST PUSH1 0x0 DUP2 CALLDATALOAD SWAP1 POP PUSH2 0x1B95 DUP2 PUSH2 0x25AB JUMP JUMPDEST SWAP3 SWAP2 POP POP JUMP JUMPDEST PUSH1 0x0 DUP2 CALLDATALOAD SWAP1 POP PUSH2 0x1BAA DUP2 PUSH2 0x25C2 JUMP JUMPDEST SWAP3 SWAP2 POP POP JUMP JUMPDEST PUSH1 0x0 DUP2 CALLDATALOAD SWAP1 POP PUSH2 0x1BBF DUP2 PUSH2 0x25D9 JUMP JUMPDEST SWAP3 SWAP2 POP POP JUMP JUMPDEST PUSH1 0x0 PUSH1 0x20 DUP3 DUP5 SUB SLT ISZERO PUSH2 0x1BDB JUMPI PUSH2 0x1BDA PUSH2 0x2378 JUMP JUMPDEST JUMPDEST PUSH1 0x0 PUSH2 0x1BE9 DUP5 DUP3 DUP6 ADD PUSH2 0x1B71 JUMP JUMPDEST SWAP2 POP POP SWAP3 SWAP2 POP POP JUMP JUMPDEST PUSH1 0x0 DUP1 PUSH1 0x40 DUP4 DUP6 SUB SLT ISZERO PUSH2 0x1C09 JUMPI PUSH2 0x1C08 PUSH2 0x2378 JUMP JUMPDEST JUMPDEST PUSH1 0x0 PUSH2 0x1C17 DUP6 DUP3 DUP7 ADD PUSH2 0x1B71 JUMP JUMPDEST SWAP3 POP POP PUSH1 0x20 PUSH2 0x1C28 DUP6 DUP3 DUP7 ADD PUSH2 0x1B71 JUMP JUMPDEST SWAP2 POP POP SWAP3 POP SWAP3 SWAP1 POP JUMP JUMPDEST PUSH1 0x0 DUP1 PUSH1 0x0 PUSH1 0x60 DUP5 DUP7 SUB SLT ISZERO PUSH2 0x1C4B JUMPI PUSH2 0x1C4A PUSH2 0x2378 JUMP JUMPDEST JUMPDEST PUSH1 0x0 PUSH2 0x1C59 DUP7 DUP3 DUP8 ADD PUSH2 0x1B71 JUMP JUMPDEST SWAP4 POP POP PUSH1 0x20 PUSH2 0x1C6A DUP7 DUP3 DUP8 ADD PUSH2 0x1B71 JUMP JUMPDEST SWAP3 POP POP PUSH1 0x40 PUSH2 0x1C7B DUP7 DUP3 DUP8 ADD PUSH2 0x1B9B JUMP JUMPDEST SWAP2 POP POP SWAP3 POP SWAP3 POP SWAP3 JUMP JUMPDEST PUSH1 0x0 DUP1 PUSH1 0x40 DUP4 DUP6 SUB SLT ISZERO PUSH2 0x1C9C JUMPI PUSH2 0x1C9B PUSH2 0x2378 JUMP JUMPDEST JUMPDEST PUSH1 0x0 PUSH2 0x1CAA DUP6 DUP3 DUP7 ADD PUSH2 0x1B71 JUMP JUMPDEST SWAP3 POP POP PUSH1 0x20 PUSH2 0x1CBB DUP6 DUP3 DUP7 ADD PUSH2 0x1B86 JUMP JUMPDEST SWAP2 POP POP SWAP3 POP SWAP3 SWAP1 POP JUMP JUMPDEST PUSH1 0x0 DUP1 PUSH1 0x40 DUP4 DUP6 SUB SLT ISZERO PUSH2 0x1CDC JUMPI PUSH2 0x1CDB PUSH2 0x2378 JUMP JUMPDEST JUMPDEST PUSH1 0x0 PUSH2 0x1CEA DUP6 DUP3 DUP7 ADD PUSH2 0x1B71 JUMP JUMPDEST SWAP3 POP POP PUSH1 0x20 PUSH2 0x1CFB DUP6 DUP3 DUP7 ADD PUSH2 0x1B9B JUMP JUMPDEST SWAP2 POP POP SWAP3 POP SWAP3 SWAP1 POP JUMP JUMPDEST PUSH1 0x0 PUSH1 0x20 DUP3 DUP5 SUB SLT ISZERO PUSH2 0x1D1B JUMPI PUSH2 0x1D1A PUSH2 0x2378 JUMP JUMPDEST JUMPDEST PUSH1 0x0 PUSH2 0x1D29 DUP5 DUP3 DUP6 ADD PUSH2 0x1BB0 JUMP JUMPDEST SWAP2 POP POP SWAP3 SWAP2 POP POP JUMP JUMPDEST PUSH1 0x0 DUP1 PUSH1 0x0 PUSH1 0x60 DUP5 DUP7 SUB SLT ISZERO PUSH2 0x1D4B JUMPI PUSH2 0x1D4A PUSH2 0x2378 JUMP JUMPDEST JUMPDEST PUSH1 0x0 PUSH2 0x1D59 DUP7 DUP3 DUP8 ADD PUSH2 0x1BB0 JUMP JUMPDEST SWAP4 POP POP PUSH1 0x20 PUSH2 0x1D6A DUP7 DUP3 DUP8 ADD PUSH2 0x1BB0 JUMP JUMPDEST SWAP3 POP POP PUSH1 0x40 PUSH2 0x1D7B DUP7 DUP3 DUP8 ADD PUSH2 0x1BB0 JUMP JUMPDEST SWAP2 POP POP SWAP3 POP SWAP3 POP SWAP3 JUMP JUMPDEST PUSH2 0x1D8E DUP2 PUSH2 0x2231 JUMP JUMPDEST DUP3 MSTORE POP POP JUMP JUMPDEST PUSH2 0x1D9D DUP2 PUSH2 0x2243 JUMP JUMPDEST DUP3 MSTORE POP POP JUMP JUMPDEST PUSH1 0x0 PUSH2 0x1DAE DUP3 PUSH2 0x2100 JUMP JUMPDEST PUSH2 0x1DB8 DUP2 DUP6 PUSH2 0x210B JUMP JUMPDEST SWAP4 POP PUSH2 0x1DC8 DUP2 DUP6 PUSH1 0x20 DUP7 ADD PUSH2 0x2286 JUMP JUMPDEST PUSH2 0x1DD1 DUP2 PUSH2 0x237D JUMP JUMPDEST DUP5 ADD SWAP2 POP POP SWAP3 SWAP2 POP POP JUMP JUMPDEST PUSH1 0x0 PUSH2 0x1DE9 PUSH1 0x25 DUP4 PUSH2 0x210B JUMP JUMPDEST SWAP2 POP PUSH2 0x1DF4 DUP3 PUSH2 0x238E JUMP JUMPDEST PUSH1 0x40 DUP3 ADD SWAP1 POP SWAP2 SWAP1 POP JUMP JUMPDEST PUSH1 0x0 PUSH2 0x1E0C PUSH1 0x24 DUP4 PUSH2 0x210B JUMP JUMPDEST SWAP2 POP PUSH2 0x1E17 DUP3 PUSH2 0x23DD JUMP JUMPDEST PUSH1 0x40 DUP3 ADD SWAP1 POP SWAP2 SWAP1 POP JUMP JUMPDEST PUSH1 0x0 PUSH2 0x1E2F PUSH1 0x26 DUP4 PUSH2 0x210B JUMP JUMPDEST SWAP2 POP PUSH2 0x1E3A DUP3 PUSH2 0x242C JUMP JUMPDEST PUSH1 0x40 DUP3 ADD SWAP1 POP SWAP2 SWAP1 POP JUMP JUMPDEST PUSH1 0x0 PUSH2 0x1E52 PUSH1 0x1B DUP4 PUSH2 0x210B JUMP JUMPDEST SWAP2 POP PUSH2 0x1E5D DUP3 PUSH2 0x247B JUMP JUMPDEST PUSH1 0x20 DUP3 ADD SWAP1 POP SWAP2 SWAP1 POP JUMP JUMPDEST PUSH1 0x0 PUSH2 0x1E75 PUSH1 0x10 DUP4 PUSH2 0x210B JUMP JUMPDEST SWAP2 POP PUSH2 0x1E80 DUP3 PUSH2 0x24A4 JUMP JUMPDEST PUSH1 0x20 DUP3 ADD SWAP1 POP SWAP2 SWAP1 POP JUMP JUMPDEST PUSH1 0x0 PUSH2 0x1E98 PUSH1 0x20 DUP4 PUSH2 0x210B JUMP JUMPDEST SWAP2 POP PUSH2 0x1EA3 DUP3 PUSH2 0x24CD JUMP JUMPDEST PUSH1 0x20 DUP3 ADD SWAP1 POP SWAP2 SWAP1 POP JUMP JUMPDEST PUSH1 0x0 PUSH2 0x1EBB PUSH1 0x23 DUP4 PUSH2 0x210B JUMP JUMPDEST SWAP2 POP PUSH2 0x1EC6 DUP3 PUSH2 0x24F6 JUMP JUMPDEST PUSH1 0x40 DUP3 ADD SWAP1 POP SWAP2 SWAP1 POP JUMP JUMPDEST PUSH1 0x0 PUSH2 0x1EDE PUSH1 0x22 DUP4 PUSH2 0x210B JUMP JUMPDEST SWAP2 POP PUSH2 0x1EE9 DUP3 PUSH2 0x2545 JUMP JUMPDEST PUSH1 0x40 DUP3 ADD SWAP1 POP SWAP2 SWAP1 POP JUMP JUMPDEST PUSH2 0x1EFD DUP2 PUSH2 0x226F JUMP JUMPDEST DUP3 MSTORE POP POP JUMP JUMPDEST PUSH2 0x1F0C DUP2 PUSH2 0x2279 JUMP JUMPDEST DUP3 MSTORE POP POP JUMP JUMPDEST PUSH1 0x0 PUSH1 0x20 DUP3 ADD SWAP1 POP PUSH2 0x1F27 PUSH1 0x0 DUP4 ADD DUP5 PUSH2 0x1D85 JUMP JUMPDEST SWAP3 SWAP2 POP POP JUMP JUMPDEST PUSH1 0x0 PUSH1 0x40 DUP3 ADD SWAP1 POP PUSH2 0x1F42 PUSH1 0x0 DUP4 ADD DUP6 PUSH2 0x1D85 JUMP JUMPDEST PUSH2 0x1F4F PUSH1 0x20 DUP4 ADD DUP5 PUSH2 0x1D94 JUMP JUMPDEST SWAP4 SWAP3 POP POP POP JUMP JUMPDEST PUSH1 0x0 PUSH1 0x20 DUP3 ADD SWAP1 POP PUSH2 0x1F6B PUSH1 0x0 DUP4 ADD DUP5 PUSH2 0x1D94 JUMP JUMPDEST SWAP3 SWAP2 POP POP JUMP JUMPDEST PUSH1 0x0 PUSH1 0x20 DUP3 ADD SWAP1 POP DUP2 DUP2 SUB PUSH1 0x0 DUP4 ADD MSTORE PUSH2 0x1F8B DUP2 DUP5 PUSH2 0x1DA3 JUMP JUMPDEST SWAP1 POP SWAP3 SWAP2 POP POP JUMP JUMPDEST PUSH1 0x0 PUSH1 0x20 DUP3 ADD SWAP1 POP DUP2 DUP2 SUB PUSH1 0x0 DUP4 ADD MSTORE PUSH2 0x1FAC DUP2 PUSH2 0x1DDC JUMP JUMPDEST SWAP1 POP SWAP2 SWAP1 POP JUMP JUMPDEST PUSH1 0x0 PUSH1 0x20 DUP3 ADD SWAP1 POP DUP2 DUP2 SUB PUSH1 0x0 DUP4 ADD MSTORE PUSH2 0x1FCC DUP2 PUSH2 0x1DFF JUMP JUMPDEST SWAP1 POP SWAP2 SWAP1 POP JUMP JUMPDEST PUSH1 0x0 PUSH1 0x20 DUP3 ADD SWAP1 POP DUP2 DUP2 SUB PUSH1 0x0 DUP4 ADD MSTORE PUSH2 0x1FEC DUP2 PUSH2 0x1E22 JUMP JUMPDEST SWAP1 POP SWAP2 SWAP1 POP JUMP JUMPDEST PUSH1 0x0 PUSH1 0x20 DUP3 ADD SWAP1 POP DUP2 DUP2 SUB PUSH1 0x0 DUP4 ADD MSTORE PUSH2 0x200C DUP2 PUSH2 0x1E45 JUMP JUMPDEST SWAP1 POP SWAP2 SWAP1 POP JUMP JUMPDEST PUSH1 0x0 PUSH1 0x20 DUP3 ADD SWAP1 POP DUP2 DUP2 SUB PUSH1 0x0 DUP4 ADD MSTORE PUSH2 0x202C DUP2 PUSH2 0x1E68 JUMP JUMPDEST SWAP1 POP SWAP2 SWAP1 POP JUMP JUMPDEST PUSH1 0x0 PUSH1 0x20 DUP3 ADD SWAP1 POP DUP2 DUP2 SUB PUSH1 0x0 DUP4 ADD MSTORE PUSH2 0x204C DUP2 PUSH2 0x1E8B JUMP JUMPDEST SWAP1 POP SWAP2 SWAP1 POP JUMP JUMPDEST PUSH1 0x0 PUSH1 0x20 DUP3 ADD SWAP1 POP DUP2 DUP2 SUB PUSH1 0x0 DUP4 ADD MSTORE PUSH2 0x206C DUP2 PUSH2 0x1EAE JUMP JUMPDEST SWAP1 POP SWAP2 SWAP1 POP JUMP JUMPDEST PUSH1 0x0 PUSH1 0x20 DUP3 ADD SWAP1 POP DUP2 DUP2 SUB PUSH1 0x0 DUP4 ADD MSTORE PUSH2 0x208C DUP2 PUSH2 0x1ED1 JUMP JUMPDEST SWAP1 POP SWAP2 SWAP1 POP JUMP JUMPDEST PUSH1 0x0 PUSH1 0x20 DUP3 ADD SWAP1 POP PUSH2 0x20A8 PUSH1 0x0 DUP4 ADD DUP5 PUSH2 0x1EF4 JUMP JUMPDEST SWAP3 SWAP2 POP POP JUMP JUMPDEST PUSH1 0x0 PUSH1 0x20 DUP3 ADD SWAP1 POP PUSH2 0x20C3 PUSH1 0x0 DUP4 ADD DUP5 PUSH2 0x1F03 JUMP JUMPDEST SWAP3 SWAP2 POP POP JUMP JUMPDEST PUSH1 0x0 PUSH1 0x60 DUP3 ADD SWAP1 POP PUSH2 0x20DE PUSH1 0x0 DUP4 ADD DUP7 PUSH2 0x1F03 JUMP JUMPDEST PUSH2 0x20EB PUSH1 0x20 DUP4 ADD DUP6 PUSH2 0x1F03 JUMP JUMPDEST PUSH2 0x20F8 PUSH1 0x40 DUP4 ADD DUP5 PUSH2 0x1F03 JUMP JUMPDEST SWAP5 SWAP4 POP POP POP POP JUMP JUMPDEST PUSH1 0x0 DUP2 MLOAD SWAP1 POP SWAP2 SWAP1 POP JUMP JUMPDEST PUSH1 0x0 DUP3 DUP3 MSTORE PUSH1 0x20 DUP3 ADD SWAP1 POP SWAP3 SWAP2 POP POP JUMP JUMPDEST PUSH1 0x0 PUSH2 0x2127 DUP3 PUSH2 0x226F JUMP JUMPDEST SWAP2 POP PUSH2 0x2132 DUP4 PUSH2 0x226F JUMP JUMPDEST SWAP3 POP DUP3 PUSH32 0xFFFFFFFFFFFFFFFFFFFFFFFFFFFFFFFFFFFFFFFFFFFFFFFFFFFFFFFFFFFFFFFF SUB DUP3 GT ISZERO PUSH2 0x2167 JUMPI PUSH2 0x2166 PUSH2 0x22EB JUMP JUMPDEST JUMPDEST DUP3 DUP3 ADD SWAP1 POP SWAP3 SWAP2 POP POP JUMP JUMPDEST PUSH1 0x0 PUSH2 0x217D DUP3 PUSH2 0x226F JUMP JUMPDEST SWAP2 POP PUSH2 0x2188 DUP4 PUSH2 0x226F JUMP JUMPDEST SWAP3 POP DUP3 PUSH2 0x2198 JUMPI PUSH2 0x2197 PUSH2 0x231A JUMP JUMPDEST JUMPDEST DUP3 DUP3 DIV SWAP1 POP SWAP3 SWAP2 POP POP JUMP JUMPDEST PUSH1 0x0 PUSH2 0x21AE DUP3 PUSH2 0x226F JUMP JUMPDEST SWAP2 POP PUSH2 0x21B9 DUP4 PUSH2 0x226F JUMP JUMPDEST SWAP3 POP DUP2 PUSH32 0xFFFFFFFFFFFFFFFFFFFFFFFFFFFFFFFFFFFFFFFFFFFFFFFFFFFFFFFFFFFFFFFF DIV DUP4 GT DUP3 ISZERO ISZERO AND ISZERO PUSH2 0x21F2 JUMPI PUSH2 0x21F1 PUSH2 0x22EB JUMP JUMPDEST JUMPDEST DUP3 DUP3 MUL SWAP1 POP SWAP3 SWAP2 POP POP JUMP JUMPDEST PUSH1 0x0 PUSH2 0x2208 DUP3 PUSH2 0x226F JUMP JUMPDEST SWAP2 POP PUSH2 0x2213 DUP4 PUSH2 0x226F JUMP JUMPDEST SWAP3 POP DUP3 DUP3 LT ISZERO PUSH2 0x2226 JUMPI PUSH2 0x2225 PUSH2 0x22EB JUMP JUMPDEST JUMPDEST DUP3 DUP3 SUB SWAP1 POP SWAP3 SWAP2 POP POP JUMP JUMPDEST PUSH1 0x0 PUSH2 0x223C DUP3 PUSH2 0x224F JUMP JUMPDEST SWAP1 POP SWAP2 SWAP1 POP JUMP JUMPDEST PUSH1 0x0 DUP2 ISZERO ISZERO SWAP1 POP SWAP2 SWAP1 POP JUMP JUMPDEST PUSH1 0x0 PUSH20 0xFFFFFFFFFFFFFFFFFFFFFFFFFFFFFFFFFFFFFFFF DUP3 AND SWAP1 POP SWAP2 SWAP1 POP JUMP JUMPDEST PUSH1 0x0 DUP2 SWAP1 POP SWAP2 SWAP1 POP JUMP JUMPDEST PUSH1 0x0 PUSH1 0xFF DUP3 AND SWAP1 POP SWAP2 SWAP1 POP JUMP JUMPDEST PUSH1 0x0 JUMPDEST DUP4 DUP2 LT ISZERO PUSH2 0x22A4 JUMPI DUP1 DUP3 ADD MLOAD DUP2 DUP5 ADD MSTORE PUSH1 0x20 DUP2 ADD SWAP1 POP PUSH2 0x2289 JUMP JUMPDEST DUP4 DUP2 GT ISZERO PUSH2 0x22B3 JUMPI PUSH1 0x0 DUP5 DUP5 ADD MSTORE JUMPDEST POP POP POP POP JUMP JUMPDEST PUSH1 0x0 PUSH1 0x2 DUP3 DIV SWAP1 POP PUSH1 0x1 DUP3 AND DUP1 PUSH2 0x22D1 JUMPI PUSH1 0x7F DUP3 AND SWAP2 POP JUMPDEST PUSH1 0x20 DUP3 LT DUP2 EQ ISZERO PUSH2 0x22E5 JUMPI PUSH2 0x22E4 PUSH2 0x2349 JUMP JUMPDEST JUMPDEST POP SWAP2 SWAP1 POP JUMP JUMPDEST PUSH32 0x4E487B7100000000000000000000000000000000000000000000000000000000 PUSH1 0x0 MSTORE PUSH1 0x11 PUSH1 0x4 MSTORE PUSH1 0x24 PUSH1 0x0 REVERT JUMPDEST PUSH32 0x4E487B7100000000000000000000000000000000000000000000000000000000 PUSH1 0x0 MSTORE PUSH1 0x12 PUSH1 0x4 MSTORE PUSH1 0x24 PUSH1 0x0 REVERT JUMPDEST PUSH32 0x4E487B7100000000000000000000000000000000000000000000000000000000 PUSH1 0x0 MSTORE PUSH1 0x22 PUSH1 0x4 MSTORE PUSH1 0x24 PUSH1 0x0 REVERT JUMPDEST PUSH1 0x0 DUP1 REVERT JUMPDEST PUSH1 0x0 PUSH1 0x1F NOT PUSH1 0x1F DUP4 ADD AND SWAP1 POP SWAP2 SWAP1 POP JUMP JUMPDEST PUSH32 0x42455032303A207472616E736665722066726F6D20746865207A65726F206164 PUSH1 0x0 DUP3 ADD MSTORE PUSH32 0x6472657373000000000000000000000000000000000000000000000000000000 PUSH1 0x20 DUP3 ADD MSTORE POP JUMP JUMPDEST PUSH32 0x42455032303A20617070726F76652066726F6D20746865207A65726F20616464 PUSH1 0x0 DUP3 ADD MSTORE PUSH32 0x7265737300000000000000000000000000000000000000000000000000000000 PUSH1 0x20 DUP3 ADD MSTORE POP JUMP JUMPDEST PUSH32 0x4F776E61626C653A206E6577206F776E657220697320746865207A65726F2061 PUSH1 0x0 DUP3 ADD MSTORE PUSH32 0x6464726573730000000000000000000000000000000000000000000000000000 PUSH1 0x20 DUP3 ADD MSTORE POP JUMP JUMPDEST PUSH32 0x536166654D6174683A206164646974696F6E206F766572666C6F770000000000 PUSH1 0x0 DUP3 ADD MSTORE POP JUMP JUMPDEST PUSH32 0x5573657220626C61636B6C697374656400000000000000000000000000000000 PUSH1 0x0 DUP3 ADD MSTORE POP JUMP JUMPDEST PUSH32 0x4F776E61626C653A2063616C6C6572206973206E6F7420746865206F776E6572 PUSH1 0x0 DUP3 ADD MSTORE POP JUMP JUMPDEST PUSH32 0x42455032303A207472616E7366657220746F20746865207A65726F2061646472 PUSH1 0x0 DUP3 ADD MSTORE PUSH32 0x6573730000000000000000000000000000000000000000000000000000000000 PUSH1 0x20 DUP3 ADD MSTORE POP JUMP JUMPDEST PUSH32 0x42455032303A20617070726F766520746F20746865207A65726F206164647265 PUSH1 0x0 DUP3 ADD MSTORE PUSH32 0x7373000000000000000000000000000000000000000000000000000000000000 PUSH1 0x20 DUP3 ADD MSTORE POP JUMP JUMPDEST PUSH2 0x259D DUP2 PUSH2 0x2231 JUMP JUMPDEST DUP2 EQ PUSH2 0x25A8 JUMPI PUSH1 0x0 DUP1 REVERT JUMPDEST POP JUMP JUMPDEST PUSH2 0x25B4 DUP2 PUSH2 0x2243 JUMP JUMPDEST DUP2 EQ PUSH2 0x25BF JUMPI PUSH1 0x0 DUP1 REVERT JUMPDEST POP JUMP JUMPDEST PUSH2 0x25CB DUP2 PUSH2 0x226F JUMP JUMPDEST DUP2 EQ PUSH2 0x25D6 JUMPI PUSH1 0x0 DUP1 REVERT JUMPDEST POP JUMP JUMPDEST PUSH2 0x25E2 DUP2 PUSH2 0x2279 JUMP JUMPDEST DUP2 EQ PUSH2 0x25ED JUMPI PUSH1 0x0 DUP1 REVERT JUMPDEST POP JUMP INVALID TIMESTAMP GASLIMIT POP ORIGIN ADDRESS GASPRICE KECCAK256 PUSH21 0x72616E7366657220616D6F756E7420657863656564 PUSH20 0x20616C6C6F77616E63654E6F207472616E736665 PUSH19 0x7320746F20636F6E747261637420616C6C6F77 PUSH6 0x642E4E6F2063 PUSH16 0x6E73656375746976652073656C6C7320 PUSH2 0x6C6C PUSH16 0x7765642E20506C656173652077616974 0x2E TIMESTAMP GASLIMIT POP ORIGIN ADDRESS GASPRICE KECCAK256 PUSH21 0x72616E7366657220616D6F756E7420657863656564 PUSH20 0x2062616C616E636542455032303A206465637265 PUSH2 0x7365 PUSH5 0x20616C6C6F PUSH24 0x616E63652062656C6F77207A65726FA26469706673582212 KECCAK256 0xAF 0x28 0xB5 PUSH17 0xB178E235CDCA68967430D8E0C7486DA2D2 0xDE PUSH8 0x1D3065EF8B443A91 0xBC PUSH5 0x736F6C6343 STOP ADDMOD SMOD STOP CALLER "
				},
				"gasEstimates": {
					"creation": {
						"codeDepositCost": "1991200",
						"executionCost": "infinite",
						"totalCost": "infinite"
					},
					"external": {
						"allowance(address,address)": "infinite",
						"approve(address,uint256)": "infinite",
						"balanceOf(address)": "2864",
						"decimals()": "2568",
						"decreaseAllowance(address,uint256)": "infinite",
						"getTaxes()": "infinite",
						"increaseAllowance(address,uint256)": "infinite",
						"isOwner()": "2670",
						"name()": "infinite",
						"owner()": "2639",
						"renounceOwnership()": "30527",
						"setBlacklist(address,bool)": "infinite",
						"setCooldownForTrades(uint8)": "infinite",
						"setLiquidityPoolStatus(address,bool)": "infinite",
						"setMarketingPool(address)": "infinite",
						"setTaxes(uint8,uint8,uint8)": "infinite",
						"setWhitelist(address,bool)": "infinite",
						"symbol()": "infinite",
						"totalSupply()": "2460",
						"transfer(address,uint256)": "infinite",
						"transferFrom(address,address,uint256)": "infinite",
						"transferOwnership(address)": "30992"
					},
					"internal": {
						"_transfer(address,address,uint256)": "infinite"
					}
				},
				"methodIdentifiers": {
					"allowance(address,address)": "dd62ed3e",
					"approve(address,uint256)": "095ea7b3",
					"balanceOf(address)": "70a08231",
					"decimals()": "313ce567",
					"decreaseAllowance(address,uint256)": "a457c2d7",
					"getTaxes()": "2973ef2d",
					"increaseAllowance(address,uint256)": "39509351",
					"isOwner()": "8f32d59b",
					"name()": "06fdde03",
					"owner()": "8da5cb5b",
					"renounceOwnership()": "715018a6",
					"setBlacklist(address,bool)": "153b0d1e",
					"setCooldownForTrades(uint8)": "1574567b",
					"setLiquidityPoolStatus(address,bool)": "c89c58fb",
					"setMarketingPool(address)": "a86517bf",
					"setTaxes(uint8,uint8,uint8)": "0d2cf31f",
					"setWhitelist(address,bool)": "53d6fd59",
					"symbol()": "95d89b41",
					"totalSupply()": "18160ddd",
					"transfer(address,uint256)": "a9059cbb",
					"transferFrom(address,address,uint256)": "23b872dd",
					"transferOwnership(address)": "f2fde38b"
				}
			},
			"userdoc": {
				"kind": "user",
				"methods": {},
				"version": 1
			}
		}
	}
}