{
	"marketplace.sol": {
		"marketplace": {
			"abi": [
				{
					"inputs": [],
					"stateMutability": "nonpayable",
					"type": "constructor"
				},
				{
					"anonymous": false,
					"inputs": [
						{
							"indexed": true,
							"internalType": "address",
							"name": "previousOwner",
							"type": "address"
						},
						{
							"indexed": true,
							"internalType": "address",
							"name": "newOwner",
							"type": "address"
						}
					],
					"name": "OwnershipTransferred",
					"type": "event"
				},
				{
					"anonymous": false,
					"inputs": [],
					"name": "Pause",
					"type": "event"
				},
				{
					"anonymous": false,
					"inputs": [],
					"name": "Unpause",
					"type": "event"
				},
				{
					"anonymous": false,
					"inputs": [
						{
							"indexed": false,
							"internalType": "address",
							"name": "_LiquidPool",
							"type": "address"
						}
					],
					"name": "changeLiquidPool",
					"type": "event"
				},
				{
					"anonymous": false,
					"inputs": [
						{
							"indexed": false,
							"internalType": "uint256",
							"name": "_MinBnB",
							"type": "uint256"
						}
					],
					"name": "changeMinBnB",
					"type": "event"
				},
				{
					"anonymous": false,
					"inputs": [
						{
							"indexed": false,
							"internalType": "address",
							"name": "_ShoseNFTContract",
							"type": "address"
						}
					],
					"name": "changeShoseNFTContract",
					"type": "event"
				},
				{
					"anonymous": false,
					"inputs": [
						{
							"indexed": false,
							"internalType": "address",
							"name": "_Treasury",
							"type": "address"
						}
					],
					"name": "changeTreasury",
					"type": "event"
				},
				{
					"anonymous": false,
					"inputs": [
						{
							"indexed": false,
							"internalType": "address",
							"name": "_VIMContract",
							"type": "address"
						}
					],
					"name": "changeVIMContract",
					"type": "event"
				},
				{
					"anonymous": false,
					"inputs": [
						{
							"indexed": false,
							"internalType": "uint256",
							"name": "tokenId",
							"type": "uint256"
						}
					],
					"name": "eventCancelSellVicShose",
					"type": "event"
				},
				{
					"anonymous": false,
					"inputs": [
						{
							"indexed": false,
							"internalType": "uint256",
							"name": "tokenId",
							"type": "uint256"
						},
						{
							"indexed": false,
							"internalType": "uint256",
							"name": "price",
							"type": "uint256"
						}
					],
					"name": "eventSellVicShose",
					"type": "event"
				},
				{
					"anonymous": false,
					"inputs": [
						{
							"indexed": false,
							"internalType": "address",
							"name": "to",
							"type": "address"
						},
						{
							"indexed": false,
							"internalType": "uint256",
							"name": "tokenId",
							"type": "uint256"
						}
					],
					"name": "eventtransferVicShose",
					"type": "event"
				},
				{
					"inputs": [
						{
							"internalType": "uint256",
							"name": "tokenId",
							"type": "uint256"
						}
					],
					"name": "CancelSellVicShose",
					"outputs": [],
					"stateMutability": "nonpayable",
					"type": "function"
				},
				{
					"inputs": [],
					"name": "LiquidPool",
					"outputs": [
						{
							"internalType": "address",
							"name": "",
							"type": "address"
						}
					],
					"stateMutability": "view",
					"type": "function"
				},
				{
					"inputs": [],
					"name": "MinBnB",
					"outputs": [
						{
							"internalType": "uint256",
							"name": "",
							"type": "uint256"
						}
					],
					"stateMutability": "view",
					"type": "function"
				},
				{
					"inputs": [
						{
							"internalType": "uint256",
							"name": "tokenId",
							"type": "uint256"
						},
						{
							"internalType": "uint256",
							"name": "price",
							"type": "uint256"
						}
					],
					"name": "SellVicShose",
					"outputs": [],
					"stateMutability": "nonpayable",
					"type": "function"
				},
				{
					"inputs": [],
					"name": "ShoseNFTContract",
					"outputs": [
						{
							"internalType": "address",
							"name": "",
							"type": "address"
						}
					],
					"stateMutability": "view",
					"type": "function"
				},
				{
					"inputs": [],
					"name": "Treasury",
					"outputs": [
						{
							"internalType": "address",
							"name": "",
							"type": "address"
						}
					],
					"stateMutability": "view",
					"type": "function"
				},
				{
					"inputs": [],
					"name": "VIMContract",
					"outputs": [
						{
							"internalType": "address",
							"name": "",
							"type": "address"
						}
					],
					"stateMutability": "view",
					"type": "function"
				},
				{
					"inputs": [],
					"name": "WBNBContract",
					"outputs": [
						{
							"internalType": "address",
							"name": "",
							"type": "address"
						}
					],
					"stateMutability": "view",
					"type": "function"
				},
				{
					"inputs": [
						{
							"internalType": "uint256",
							"name": "tokenId",
							"type": "uint256"
						}
					],
					"name": "checkShoseTranfer",
					"outputs": [
						{
							"internalType": "address",
							"name": "",
							"type": "address"
						}
					],
					"stateMutability": "view",
					"type": "function"
				},
				{
					"inputs": [],
					"name": "getMINPrice",
					"outputs": [
						{
							"internalType": "uint256",
							"name": "",
							"type": "uint256"
						}
					],
					"stateMutability": "view",
					"type": "function"
				},
				{
					"inputs": [
						{
							"internalType": "uint256",
							"name": "start",
							"type": "uint256"
						},
						{
							"internalType": "uint256",
							"name": "end",
							"type": "uint256"
						}
					],
					"name": "getSellingShose",
					"outputs": [
						{
							"internalType": "uint256[]",
							"name": "_tokenID",
							"type": "uint256[]"
						},
						{
							"internalType": "address[]",
							"name": "_owner",
							"type": "address[]"
						},
						{
							"internalType": "uint256[]",
							"name": "_Price",
							"type": "uint256[]"
						}
					],
					"stateMutability": "view",
					"type": "function"
				},
				{
					"inputs": [],
					"name": "isOwner",
					"outputs": [
						{
							"internalType": "bool",
							"name": "",
							"type": "bool"
						}
					],
					"stateMutability": "view",
					"type": "function"
				},
				{
					"inputs": [],
					"name": "owner",
					"outputs": [
						{
							"internalType": "address",
							"name": "",
							"type": "address"
						}
					],
					"stateMutability": "view",
					"type": "function"
				},
				{
					"inputs": [],
					"name": "pause",
					"outputs": [
						{
							"internalType": "bool",
							"name": "",
							"type": "bool"
						}
					],
					"stateMutability": "nonpayable",
					"type": "function"
				},
				{
					"inputs": [],
					"name": "paused",
					"outputs": [
						{
							"internalType": "bool",
							"name": "",
							"type": "bool"
						}
					],
					"stateMutability": "view",
					"type": "function"
				},
				{
					"inputs": [],
					"name": "renounceOwnership",
					"outputs": [],
					"stateMutability": "nonpayable",
					"type": "function"
				},
				{
					"inputs": [
						{
							"internalType": "address",
							"name": "_LiquidPool",
							"type": "address"
						}
					],
					"name": "setLiquidPool",
					"outputs": [],
					"stateMutability": "nonpayable",
					"type": "function"
				},
				{
					"inputs": [
						{
							"internalType": "uint256",
							"name": "_MinBnB",
							"type": "uint256"
						}
					],
					"name": "setMinBNB",
					"outputs": [],
					"stateMutability": "nonpayable",
					"type": "function"
				},
				{
					"inputs": [
						{
							"internalType": "address",
							"name": "_ShoseNFTContract",
							"type": "address"
						}
					],
					"name": "setShoseNFTContract",
					"outputs": [],
					"stateMutability": "nonpayable",
					"type": "function"
				},
				{
					"inputs": [
						{
							"internalType": "address",
							"name": "_Treasury",
							"type": "address"
						}
					],
					"name": "setTreasury",
					"outputs": [],
					"stateMutability": "nonpayable",
					"type": "function"
				},
				{
					"inputs": [
						{
							"internalType": "address",
							"name": "_VIMContract",
							"type": "address"
						}
					],
					"name": "setVIMContract",
					"outputs": [],
					"stateMutability": "nonpayable",
					"type": "function"
				},
				{
					"inputs": [
						{
							"internalType": "address",
							"name": "newOwner",
							"type": "address"
						}
					],
					"name": "transferOwnership",
					"outputs": [],
					"stateMutability": "nonpayable",
					"type": "function"
				},
				{
					"inputs": [
						{
							"internalType": "address",
							"name": "to",
							"type": "address"
						},
						{
							"internalType": "uint256",
							"name": "tokenId",
							"type": "uint256"
						}
					],
					"name": "transferVicShose",
					"outputs": [],
					"stateMutability": "nonpayable",
					"type": "function"
				},
				{
					"inputs": [],
					"name": "unpause",
					"outputs": [
						{
							"internalType": "bool",
							"name": "",
							"type": "bool"
						}
					],
					"stateMutability": "nonpayable",
					"type": "function"
				}
			],
			"devdoc": {
				"kind": "dev",
				"methods": {
					"isOwner()": {
						"details": "Returns true if the caller is the current owner."
					},
					"owner()": {
						"details": "Returns the address of the current owner."
					},
					"pause()": {
						"details": "called by the owner to pause, triggers stopped state"
					},
					"renounceOwnership()": {
						"details": "Leaves the contract without owner. It will not be possible to call `onlyOwner` functions anymore. Can only be called by the current owner. NOTE: Renouncing ownership will leave the contract without an owner, thereby removing any functionality that is only available to the owner."
					},
					"transferOwnership(address)": {
						"details": "Transfers ownership of the contract to a new account (`newOwner`). Can only be called by the current owner."
					},
					"unpause()": {
						"details": "called by the owner to unpause, returns to normal state"
					}
				},
				"version": 1
			},
			"evm": {
				"assembly": "    /* \"marketplace.sol\":229:5686  contract marketplace is BEPPausable {... */\n  mstore(0x40, 0x80)\n    /* \"BEPPausable.sol\":293:298  false */\n  0x00\n    /* \"BEPPausable.sol\":272:298  bool public paused = false */\n  dup1\n  exp(0x0100, 0x14)\n  dup2\n  sload\n  dup2\n  0xff\n  mul\n  not\n  and\n  swap1\n  dup4\n  iszero\n  iszero\n  mul\n  or\n  swap1\n  sstore\n  pop\n    /* \"marketplace.sol\":1027:1401  constructor() { ... */\n  callvalue\n  dup1\n  iszero\n  tag_1\n  jumpi\n  0x00\n  dup1\n  revert\ntag_1:\n  pop\n    /* \"BEPOwnable.sol\":716:733  address msgSender */\n  0x00\n    /* \"BEPOwnable.sol\":736:748  _msgSender() */\n  tag_7\n    /* \"BEPOwnable.sol\":736:746  _msgSender */\n  shl(0x20, tag_8)\n    /* \"BEPOwnable.sol\":736:748  _msgSender() */\n  0x20\n  shr\n  jump\t// in\ntag_7:\n    /* \"BEPOwnable.sol\":716:748  address msgSender = _msgSender() */\n  swap1\n  pop\n    /* \"BEPOwnable.sol\":763:772  msgSender */\n  dup1\n    /* \"BEPOwnable.sol\":754:760  _owner */\n  0x00\n  dup1\n    /* \"BEPOwnable.sol\":754:772  _owner = msgSender */\n  0x0100\n  exp\n  dup2\n  sload\n  dup2\n  0xffffffffffffffffffffffffffffffffffffffff\n  mul\n  not\n  and\n  swap1\n  dup4\n  0xffffffffffffffffffffffffffffffffffffffff\n  and\n  mul\n  or\n  swap1\n  sstore\n  pop\n    /* \"BEPOwnable.sol\":816:825  msgSender */\n  dup1\n    /* \"BEPOwnable.sol\":783:826  OwnershipTransferred(address(0), msgSender) */\n  0xffffffffffffffffffffffffffffffffffffffff\n  and\n    /* \"BEPOwnable.sol\":812:813  0 */\n  0x00\n    /* \"BEPOwnable.sol\":783:826  OwnershipTransferred(address(0), msgSender) */\n  0xffffffffffffffffffffffffffffffffffffffff\n  and\n  0x8be0079c531659141344cd1fd0a4f28419497f9722a3daafe3b4186f6b6457e0\n  mload(0x40)\n  mload(0x40)\n  dup1\n  swap2\n  sub\n  swap1\n  log3\n    /* \"BEPOwnable.sol\":710:831  {... */\n  pop\n    /* \"marketplace.sol\":1063:1105  0xcb3745379275252F4beB5d1094bF1a8A09F368b7 */\n  0xcb3745379275252f4beb5d1094bf1a8a09f368b7\n    /* \"marketplace.sol\":1052:1060  Treasury */\n  0x01\n  0x00\n    /* \"marketplace.sol\":1052:1105  Treasury = 0xcb3745379275252F4beB5d1094bF1a8A09F368b7 */\n  0x0100\n  exp\n  dup2\n  sload\n  dup2\n  0xffffffffffffffffffffffffffffffffffffffff\n  mul\n  not\n  and\n  swap1\n  dup4\n  0xffffffffffffffffffffffffffffffffffffffff\n  and\n  mul\n  or\n  swap1\n  sstore\n  pop\n    /* \"marketplace.sol\":1128:1170  0xd295cF5D859B9Ed331cdF69c49A81Eff5e1Bee83 */\n  0xd295cf5d859b9ed331cdf69c49a81eff5e1bee83\n    /* \"marketplace.sol\":1115:1125  LiquidPool */\n  0x02\n  0x00\n    /* \"marketplace.sol\":1115:1170  LiquidPool = 0xd295cF5D859B9Ed331cdF69c49A81Eff5e1Bee83 */\n  0x0100\n  exp\n  dup2\n  sload\n  dup2\n  0xffffffffffffffffffffffffffffffffffffffff\n  mul\n  not\n  and\n  swap1\n  dup4\n  0xffffffffffffffffffffffffffffffffffffffff\n  and\n  mul\n  or\n  swap1\n  sstore\n  pop\n    /* \"marketplace.sol\":1199:1241  0xC184af52Ca4E1B1f085aA8236Ff8508F52dc6eA7 */\n  0xc184af52ca4e1b1f085aa8236ff8508f52dc6ea7\n    /* \"marketplace.sol\":1180:1196  ShoseNFTContract */\n  0x03\n  0x00\n    /* \"marketplace.sol\":1180:1241  ShoseNFTContract = 0xC184af52Ca4E1B1f085aA8236Ff8508F52dc6eA7 */\n  0x0100\n  exp\n  dup2\n  sload\n  dup2\n  0xffffffffffffffffffffffffffffffffffffffff\n  mul\n  not\n  and\n  swap1\n  dup4\n  0xffffffffffffffffffffffffffffffffffffffff\n  and\n  mul\n  or\n  swap1\n  sstore\n  pop\n    /* \"marketplace.sol\":1265:1307  0x5bcd91C734d665Fe426A5D7156f2aD7d37b76e30 */\n  0x5bcd91c734d665fe426a5d7156f2ad7d37b76e30\n    /* \"marketplace.sol\":1251:1262  VIMContract */\n  0x04\n  0x00\n    /* \"marketplace.sol\":1251:1307  VIMContract = 0x5bcd91C734d665Fe426A5D7156f2aD7d37b76e30 */\n  0x0100\n  exp\n  dup2\n  sload\n  dup2\n  0xffffffffffffffffffffffffffffffffffffffff\n  mul\n  not\n  and\n  swap1\n  dup4\n  0xffffffffffffffffffffffffffffffffffffffff\n  and\n  mul\n  or\n  swap1\n  sstore\n  pop\n    /* \"marketplace.sol\":1332:1374  0xbb4CdB9CBd36B01bD1cBaEBF2De08d9173bc095c */\n  0xbb4cdb9cbd36b01bd1cbaebf2de08d9173bc095c\n    /* \"marketplace.sol\":1317:1329  WBNBContract */\n  0x05\n  0x00\n    /* \"marketplace.sol\":1317:1374  WBNBContract = 0xbb4CdB9CBd36B01bD1cBaEBF2De08d9173bc095c */\n  0x0100\n  exp\n  dup2\n  sload\n  dup2\n  0xffffffffffffffffffffffffffffffffffffffff\n  mul\n  not\n  and\n  swap1\n  dup4\n  0xffffffffffffffffffffffffffffffffffffffff\n  and\n  mul\n  or\n  swap1\n  sstore\n  pop\n    /* \"marketplace.sol\":1393:1394  6 */\n  0x06\n    /* \"marketplace.sol\":1384:1390  MinBnB */\n  dup1\n    /* \"marketplace.sol\":1384:1394  MinBnB = 6 */\n  dup2\n  swap1\n  sstore\n  pop\n    /* \"marketplace.sol\":229:5686  contract marketplace is BEPPausable {... */\n  jump(tag_10)\n    /* \"BEPContext.sol\":760:859  function _msgSender() internal view returns (address payable) {... */\ntag_8:\n    /* \"BEPContext.sol\":805:820  address payable */\n  0x00\n    /* \"BEPContext.sol\":843:853  msg.sender */\n  caller\n    /* \"BEPContext.sol\":828:854  return payable(msg.sender) */\n  swap1\n  pop\n    /* \"BEPContext.sol\":760:859  function _msgSender() internal view returns (address payable) {... */\n  swap1\n  jump\t// out\n    /* \"marketplace.sol\":229:5686  contract marketplace is BEPPausable {... */\ntag_10:\n  dataSize(sub_0)\n  dup1\n  dataOffset(sub_0)\n  0x00\n  codecopy\n  0x00\n  return\nstop\n\nsub_0: assembly {\n        /* \"marketplace.sol\":229:5686  contract marketplace is BEPPausable {... */\n      mstore(0x40, 0x80)\n      callvalue\n      dup1\n      iszero\n      tag_1\n      jumpi\n      0x00\n      dup1\n      revert\n    tag_1:\n      pop\n      jumpi(tag_2, lt(calldatasize, 0x04))\n      shr(0xe0, calldataload(0x00))\n      dup1\n      0x8456cb59\n      gt\n      tag_27\n      jumpi\n      dup1\n      0xd8882779\n      gt\n      tag_28\n      jumpi\n      dup1\n      0xd8882779\n      eq\n      tag_21\n      jumpi\n      dup1\n      0xde281e28\n      eq\n      tag_22\n      jumpi\n      dup1\n      0xea156f44\n      eq\n      tag_23\n      jumpi\n      dup1\n      0xf0f44260\n      eq\n      tag_24\n      jumpi\n      dup1\n      0xf2fde38b\n      eq\n      tag_25\n      jumpi\n      dup1\n      0xfb8359c7\n      eq\n      tag_26\n      jumpi\n      jump(tag_2)\n    tag_28:\n      dup1\n      0x8456cb59\n      eq\n      tag_15\n      jumpi\n      dup1\n      0x8da5cb5b\n      eq\n      tag_16\n      jumpi\n      dup1\n      0x8f32d59b\n      eq\n      tag_17\n      jumpi\n      dup1\n      0xa888a93a\n      eq\n      tag_18\n      jumpi\n      dup1\n      0xb5620229\n      eq\n      tag_19\n      jumpi\n      dup1\n      0xbcfcba76\n      eq\n      tag_20\n      jumpi\n      jump(tag_2)\n    tag_27:\n      dup1\n      0x563df32f\n      gt\n      tag_29\n      jumpi\n      dup1\n      0x563df32f\n      eq\n      tag_9\n      jumpi\n      dup1\n      0x59464217\n      eq\n      tag_10\n      jumpi\n      dup1\n      0x5c975abb\n      eq\n      tag_11\n      jumpi\n      dup1\n      0x5c9e0d10\n      eq\n      tag_12\n      jumpi\n      dup1\n      0x715018a6\n      eq\n      tag_13\n      jumpi\n      dup1\n      0x83d58215\n      eq\n      tag_14\n      jumpi\n      jump(tag_2)\n    tag_29:\n      dup1\n      0x0ff32839\n      eq\n      tag_3\n      jumpi\n      dup1\n      0x1ecff38e\n      eq\n      tag_4\n      jumpi\n      dup1\n      0x36c3b4e2\n      eq\n      tag_5\n      jumpi\n      dup1\n      0x3f4ba83a\n      eq\n      tag_6\n      jumpi\n      dup1\n      0x458a635a\n      eq\n      tag_7\n      jumpi\n      dup1\n      0x4dd79f10\n      eq\n      tag_8\n      jumpi\n    tag_2:\n      0x00\n      dup1\n      revert\n        /* \"marketplace.sol\":401:428  address public WBNBContract */\n    tag_3:\n      tag_30\n      tag_31\n      jump\t// in\n    tag_30:\n      mload(0x40)\n      tag_32\n      swap2\n      swap1\n      tag_33\n      jump\t// in\n    tag_32:\n      mload(0x40)\n      dup1\n      swap2\n      sub\n      swap1\n      return\n        /* \"marketplace.sol\":1891:2044  function setVIMContract(address _VIMContract) external onlyOwner {... */\n    tag_4:\n      tag_34\n      0x04\n      dup1\n      calldatasize\n      sub\n      dup2\n      add\n      swap1\n      tag_35\n      swap2\n      swap1\n      tag_36\n      jump\t// in\n    tag_35:\n      tag_37\n      jump\t// in\n    tag_34:\n      stop\n        /* \"marketplace.sol\":301:326  address public LiquidPool */\n    tag_5:\n      tag_38\n      tag_39\n      jump\t// in\n    tag_38:\n      mload(0x40)\n      tag_40\n      swap2\n      swap1\n      tag_33\n      jump\t// in\n    tag_40:\n      mload(0x40)\n      dup1\n      swap2\n      sub\n      swap1\n      return\n        /* \"BEPPausable.sol\":870:994  function unpause() public onlyOwner whenPaused returns (bool) {... */\n    tag_6:\n      tag_41\n      tag_42\n      jump\t// in\n    tag_41:\n      mload(0x40)\n      tag_43\n      swap2\n      swap1\n      tag_44\n      jump\t// in\n    tag_43:\n      mload(0x40)\n      dup1\n      swap2\n      sub\n      swap1\n      return\n        /* \"marketplace.sol\":1702:1885  function setShoseNFTContract(address _ShoseNFTContract) external onlyOwner {... */\n    tag_7:\n      tag_45\n      0x04\n      dup1\n      calldatasize\n      sub\n      dup2\n      add\n      swap1\n      tag_46\n      swap2\n      swap1\n      tag_36\n      jump\t// in\n    tag_46:\n      tag_47\n      jump\t// in\n    tag_45:\n      stop\n        /* \"marketplace.sol\":3696:4000  function CancelSellVicShose(uint256 tokenId) external whenNotPaused {... */\n    tag_8:\n      tag_48\n      0x04\n      dup1\n      calldatasize\n      sub\n      dup2\n      add\n      swap1\n      tag_49\n      swap2\n      swap1\n      tag_50\n      jump\t// in\n    tag_49:\n      tag_51\n      jump\t// in\n    tag_48:\n      stop\n        /* \"marketplace.sol\":272:295  address public Treasury */\n    tag_9:\n      tag_52\n      tag_53\n      jump\t// in\n    tag_52:\n      mload(0x40)\n      tag_54\n      swap2\n      swap1\n      tag_33\n      jump\t// in\n    tag_54:\n      mload(0x40)\n      dup1\n      swap2\n      sub\n      swap1\n      return\n        /* \"marketplace.sol\":3064:3191  function checkShoseTranfer(uint256 tokenId) public view virtual returns (address) {... */\n    tag_10:\n      tag_55\n      0x04\n      dup1\n      calldatasize\n      sub\n      dup2\n      add\n      swap1\n      tag_56\n      swap2\n      swap1\n      tag_50\n      jump\t// in\n    tag_56:\n      tag_57\n      jump\t// in\n    tag_55:\n      mload(0x40)\n      tag_58\n      swap2\n      swap1\n      tag_33\n      jump\t// in\n    tag_58:\n      mload(0x40)\n      dup1\n      swap2\n      sub\n      swap1\n      return\n        /* \"BEPPausable.sol\":272:298  bool public paused = false */\n    tag_11:\n      tag_59\n      tag_60\n      jump\t// in\n    tag_59:\n      mload(0x40)\n      tag_61\n      swap2\n      swap1\n      tag_44\n      jump\t// in\n    tag_61:\n      mload(0x40)\n      dup1\n      swap2\n      sub\n      swap1\n      return\n        /* \"marketplace.sol\":2528:3059  function transferVicShose(address to,uint256 tokenId) external whenNotPaused {... */\n    tag_12:\n      tag_62\n      0x04\n      dup1\n      calldatasize\n      sub\n      dup2\n      add\n      swap1\n      tag_63\n      swap2\n      swap1\n      tag_64\n      jump\t// in\n    tag_63:\n      tag_65\n      jump\t// in\n    tag_62:\n      stop\n        /* \"BEPOwnable.sol\":1630:1757  function renounceOwnership() public onlyOwner {... */\n    tag_13:\n      tag_66\n      tag_67\n      jump\t// in\n    tag_66:\n      stop\n        /* \"marketplace.sol\":3197:3690  function SellVicShose(uint256 tokenId,uint256 price) external whenNotPaused {... */\n    tag_14:\n      tag_68\n      0x04\n      dup1\n      calldatasize\n      sub\n      dup2\n      add\n      swap1\n      tag_69\n      swap2\n      swap1\n      tag_70\n      jump\t// in\n    tag_69:\n      tag_71\n      jump\t// in\n    tag_68:\n      stop\n        /* \"BEPPausable.sol\":666:788  function pause() public onlyOwner whenNotPaused returns (bool) {... */\n    tag_15:\n      tag_72\n      tag_73\n      jump\t// in\n    tag_72:\n      mload(0x40)\n      tag_74\n      swap2\n      swap1\n      tag_44\n      jump\t// in\n    tag_74:\n      mload(0x40)\n      dup1\n      swap2\n      sub\n      swap1\n      return\n        /* \"BEPOwnable.sol\":899:970  function owner() public view returns (address) {... */\n    tag_16:\n      tag_75\n      tag_76\n      jump\t// in\n    tag_75:\n      mload(0x40)\n      tag_77\n      swap2\n      swap1\n      tag_33\n      jump\t// in\n    tag_77:\n      mload(0x40)\n      dup1\n      swap2\n      sub\n      swap1\n      return\n        /* \"BEPOwnable.sol\":1218:1304  function isOwner() public view returns (bool) {... */\n    tag_17:\n      tag_78\n      tag_79\n      jump\t// in\n    tag_78:\n      mload(0x40)\n      tag_80\n      swap2\n      swap1\n      tag_44\n      jump\t// in\n    tag_80:\n      mload(0x40)\n      dup1\n      swap2\n      sub\n      swap1\n      return\n        /* \"marketplace.sol\":1549:1696  function setLiquidPool(address _LiquidPool) external onlyOwner {... */\n    tag_18:\n      tag_81\n      0x04\n      dup1\n      calldatasize\n      sub\n      dup2\n      add\n      swap1\n      tag_82\n      swap2\n      swap1\n      tag_36\n      jump\t// in\n    tag_82:\n      tag_83\n      jump\t// in\n    tag_81:\n      stop\n        /* \"marketplace.sol\":369:395  address public VIMContract */\n    tag_19:\n      tag_84\n      tag_85\n      jump\t// in\n    tag_84:\n      mload(0x40)\n      tag_86\n      swap2\n      swap1\n      tag_33\n      jump\t// in\n    tag_86:\n      mload(0x40)\n      dup1\n      swap2\n      sub\n      swap1\n      return\n        /* \"marketplace.sol\":434:455  uint256 public MinBnB */\n    tag_20:\n      tag_87\n      tag_88\n      jump\t// in\n    tag_87:\n      mload(0x40)\n      tag_89\n      swap2\n      swap1\n      tag_90\n      jump\t// in\n    tag_89:\n      mload(0x40)\n      dup1\n      swap2\n      sub\n      swap1\n      return\n        /* \"marketplace.sol\":332:363  address public ShoseNFTContract */\n    tag_21:\n      tag_91\n      tag_92\n      jump\t// in\n    tag_91:\n      mload(0x40)\n      tag_93\n      swap2\n      swap1\n      tag_33\n      jump\t// in\n    tag_93:\n      mload(0x40)\n      dup1\n      swap2\n      sub\n      swap1\n      return\n        /* \"marketplace.sol\":2050:2174  function setMinBNB(uint256  _MinBnB) external onlyOwner {... */\n    tag_22:\n      tag_94\n      0x04\n      dup1\n      calldatasize\n      sub\n      dup2\n      add\n      swap1\n      tag_95\n      swap2\n      swap1\n      tag_50\n      jump\t// in\n    tag_95:\n      tag_96\n      jump\t// in\n    tag_94:\n      stop\n        /* \"marketplace.sol\":2181:2522  function getMINPrice() public view virtual returns (uint256) {... */\n    tag_23:\n      tag_97\n      tag_98\n      jump\t// in\n    tag_97:\n      mload(0x40)\n      tag_99\n      swap2\n      swap1\n      tag_90\n      jump\t// in\n    tag_99:\n      mload(0x40)\n      dup1\n      swap2\n      sub\n      swap1\n      return\n        /* \"marketplace.sol\":1407:1542  function setTreasury(address _Treasury) external onlyOwner {... */\n    tag_24:\n      tag_100\n      0x04\n      dup1\n      calldatasize\n      sub\n      dup2\n      add\n      swap1\n      tag_101\n      swap2\n      swap1\n      tag_36\n      jump\t// in\n    tag_101:\n      tag_102\n      jump\t// in\n    tag_100:\n      stop\n        /* \"BEPOwnable.sol\":1896:1997  function transferOwnership(address newOwner) public onlyOwner {... */\n    tag_25:\n      tag_103\n      0x04\n      dup1\n      calldatasize\n      sub\n      dup2\n      add\n      swap1\n      tag_104\n      swap2\n      swap1\n      tag_36\n      jump\t// in\n    tag_104:\n      tag_105\n      jump\t// in\n    tag_103:\n      stop\n        /* \"marketplace.sol\":4951:5684  function getSellingShose(uint256 start, uint256 end) external view returns (uint256[] memory _tokenID,address[] memory _owner, uint256[] memory _Price) {... */\n    tag_26:\n      tag_106\n      0x04\n      dup1\n      calldatasize\n      sub\n      dup2\n      add\n      swap1\n      tag_107\n      swap2\n      swap1\n      tag_70\n      jump\t// in\n    tag_107:\n      tag_108\n      jump\t// in\n    tag_106:\n      mload(0x40)\n      tag_109\n      swap4\n      swap3\n      swap2\n      swap1\n      tag_110\n      jump\t// in\n    tag_109:\n      mload(0x40)\n      dup1\n      swap2\n      sub\n      swap1\n      return\n        /* \"marketplace.sol\":401:428  address public WBNBContract */\n    tag_31:\n      0x05\n      0x00\n      swap1\n      sload\n      swap1\n      0x0100\n      exp\n      swap1\n      div\n      0xffffffffffffffffffffffffffffffffffffffff\n      and\n      dup2\n      jump\t// out\n        /* \"marketplace.sol\":1891:2044  function setVIMContract(address _VIMContract) external onlyOwner {... */\n    tag_37:\n        /* \"BEPOwnable.sol\":1085:1094  isOwner() */\n      tag_112\n        /* \"BEPOwnable.sol\":1085:1092  isOwner */\n      tag_79\n        /* \"BEPOwnable.sol\":1085:1094  isOwner() */\n      jump\t// in\n    tag_112:\n        /* \"BEPOwnable.sol\":1077:1131  require(isOwner(), \"Ownable: caller is not the owner\") */\n      tag_113\n      jumpi\n      mload(0x40)\n      0x08c379a000000000000000000000000000000000000000000000000000000000\n      dup2\n      mstore\n      0x04\n      add\n      tag_114\n      swap1\n      tag_115\n      jump\t// in\n    tag_114:\n      mload(0x40)\n      dup1\n      swap2\n      sub\n      swap1\n      revert\n    tag_113:\n        /* \"marketplace.sol\":1980:1992  _VIMContract */\n      dup1\n        /* \"marketplace.sol\":1966:1977  VIMContract */\n      0x04\n      0x00\n        /* \"marketplace.sol\":1966:1992  VIMContract = _VIMContract */\n      0x0100\n      exp\n      dup2\n      sload\n      dup2\n      0xffffffffffffffffffffffffffffffffffffffff\n      mul\n      not\n      and\n      swap1\n      dup4\n      0xffffffffffffffffffffffffffffffffffffffff\n      and\n      mul\n      or\n      swap1\n      sstore\n      pop\n        /* \"marketplace.sol\":2007:2037  changeVIMContract(VIMContract) */\n      0x136742181ff5fc7d13f647a125112ec36500105a024ce2dbbb7f28fa375eebfa\n        /* \"marketplace.sol\":2025:2036  VIMContract */\n      0x04\n      0x00\n      swap1\n      sload\n      swap1\n      0x0100\n      exp\n      swap1\n      div\n      0xffffffffffffffffffffffffffffffffffffffff\n      and\n        /* \"marketplace.sol\":2007:2037  changeVIMContract(VIMContract) */\n      mload(0x40)\n      tag_117\n      swap2\n      swap1\n      tag_33\n      jump\t// in\n    tag_117:\n      mload(0x40)\n      dup1\n      swap2\n      sub\n      swap1\n      log1\n        /* \"marketplace.sol\":1891:2044  function setVIMContract(address _VIMContract) external onlyOwner {... */\n      pop\n      jump\t// out\n        /* \"marketplace.sol\":301:326  address public LiquidPool */\n    tag_39:\n      0x02\n      0x00\n      swap1\n      sload\n      swap1\n      0x0100\n      exp\n      swap1\n      div\n      0xffffffffffffffffffffffffffffffffffffffff\n      and\n      dup2\n      jump\t// out\n        /* \"BEPPausable.sol\":870:994  function unpause() public onlyOwner whenPaused returns (bool) {... */\n    tag_42:\n        /* \"BEPPausable.sol\":926:930  bool */\n      0x00\n        /* \"BEPOwnable.sol\":1085:1094  isOwner() */\n      tag_119\n        /* \"BEPOwnable.sol\":1085:1092  isOwner */\n      tag_79\n        /* \"BEPOwnable.sol\":1085:1094  isOwner() */\n      jump\t// in\n    tag_119:\n        /* \"BEPOwnable.sol\":1077:1131  require(isOwner(), \"Ownable: caller is not the owner\") */\n      tag_120\n      jumpi\n      mload(0x40)\n      0x08c379a000000000000000000000000000000000000000000000000000000000\n      dup2\n      mstore\n      0x04\n      add\n      tag_121\n      swap1\n      tag_115\n      jump\t// in\n    tag_121:\n      mload(0x40)\n      dup1\n      swap2\n      sub\n      swap1\n      revert\n    tag_120:\n        /* \"BEPPausable.sol\":568:574  paused */\n      0x00\n      0x14\n      swap1\n      sload\n      swap1\n      0x0100\n      exp\n      swap1\n      div\n      0xff\n      and\n        /* \"BEPPausable.sol\":560:575  require(paused) */\n      tag_123\n      jumpi\n      0x00\n      dup1\n      revert\n    tag_123:\n        /* \"BEPPausable.sol\":947:952  false */\n      0x00\n        /* \"BEPPausable.sol\":938:944  paused */\n      dup1\n      0x14\n        /* \"BEPPausable.sol\":938:952  paused = false */\n      0x0100\n      exp\n      dup2\n      sload\n      dup2\n      0xff\n      mul\n      not\n      and\n      swap1\n      dup4\n      iszero\n      iszero\n      mul\n      or\n      swap1\n      sstore\n      pop\n        /* \"BEPPausable.sol\":963:972  Unpause() */\n      0x7805862f689e2f13df9f062ff482ad3ad112aca9e0847911ed832e158c525b33\n      mload(0x40)\n      mload(0x40)\n      dup1\n      swap2\n      sub\n      swap1\n      log1\n        /* \"BEPPausable.sol\":985:989  true */\n      0x01\n        /* \"BEPPausable.sol\":978:989  return true */\n      swap1\n      pop\n        /* \"BEPPausable.sol\":870:994  function unpause() public onlyOwner whenPaused returns (bool) {... */\n      swap1\n      jump\t// out\n        /* \"marketplace.sol\":1702:1885  function setShoseNFTContract(address _ShoseNFTContract) external onlyOwner {... */\n    tag_47:\n        /* \"BEPOwnable.sol\":1085:1094  isOwner() */\n      tag_126\n        /* \"BEPOwnable.sol\":1085:1092  isOwner */\n      tag_79\n        /* \"BEPOwnable.sol\":1085:1094  isOwner() */\n      jump\t// in\n    tag_126:\n        /* \"BEPOwnable.sol\":1077:1131  require(isOwner(), \"Ownable: caller is not the owner\") */\n      tag_127\n      jumpi\n      mload(0x40)\n      0x08c379a000000000000000000000000000000000000000000000000000000000\n      dup2\n      mstore\n      0x04\n      add\n      tag_128\n      swap1\n      tag_115\n      jump\t// in\n    tag_128:\n      mload(0x40)\n      dup1\n      swap2\n      sub\n      swap1\n      revert\n    tag_127:\n        /* \"marketplace.sol\":1806:1823  _ShoseNFTContract */\n      dup1\n        /* \"marketplace.sol\":1787:1803  ShoseNFTContract */\n      0x03\n      0x00\n        /* \"marketplace.sol\":1787:1823  ShoseNFTContract = _ShoseNFTContract */\n      0x0100\n      exp\n      dup2\n      sload\n      dup2\n      0xffffffffffffffffffffffffffffffffffffffff\n      mul\n      not\n      and\n      swap1\n      dup4\n      0xffffffffffffffffffffffffffffffffffffffff\n      and\n      mul\n      or\n      swap1\n      sstore\n      pop\n        /* \"marketplace.sol\":1838:1878  changeShoseNFTContract(ShoseNFTContract) */\n      0xb01e01d90e1da4079495db07c84276ef34a0ea39cd9be9c3844874eb35616e44\n        /* \"marketplace.sol\":1861:1877  ShoseNFTContract */\n      0x03\n      0x00\n      swap1\n      sload\n      swap1\n      0x0100\n      exp\n      swap1\n      div\n      0xffffffffffffffffffffffffffffffffffffffff\n      and\n        /* \"marketplace.sol\":1838:1878  changeShoseNFTContract(ShoseNFTContract) */\n      mload(0x40)\n      tag_130\n      swap2\n      swap1\n      tag_33\n      jump\t// in\n    tag_130:\n      mload(0x40)\n      dup1\n      swap2\n      sub\n      swap1\n      log1\n        /* \"marketplace.sol\":1702:1885  function setShoseNFTContract(address _ShoseNFTContract) external onlyOwner {... */\n      pop\n      jump\t// out\n        /* \"marketplace.sol\":3696:4000  function CancelSellVicShose(uint256 tokenId) external whenNotPaused {... */\n    tag_51:\n        /* \"BEPPausable.sol\":424:430  paused */\n      0x00\n      0x14\n      swap1\n      sload\n      swap1\n      0x0100\n      exp\n      swap1\n      div\n      0xff\n      and\n        /* \"BEPPausable.sol\":423:430  !paused */\n      iszero\n        /* \"BEPPausable.sol\":415:431  require(!paused) */\n      tag_132\n      jumpi\n      0x00\n      dup1\n      revert\n    tag_132:\n        /* \"marketplace.sol\":3774:3788  address seller */\n      0x00\n        /* \"marketplace.sol\":3791:3801  msg.sender */\n      caller\n        /* \"marketplace.sol\":3774:3801  address seller = msg.sender */\n      swap1\n      pop\n        /* \"marketplace.sol\":3875:3881  seller */\n      dup1\n        /* \"marketplace.sol\":3819:3881  IERC721Enumerable(ShoseNFTContract).ownerOf(tokenId) == seller */\n      0xffffffffffffffffffffffffffffffffffffffff\n      and\n        /* \"marketplace.sol\":3837:3853  ShoseNFTContract */\n      0x03\n      0x00\n      swap1\n      sload\n      swap1\n      0x0100\n      exp\n      swap1\n      div\n      0xffffffffffffffffffffffffffffffffffffffff\n      and\n        /* \"marketplace.sol\":3819:3862  IERC721Enumerable(ShoseNFTContract).ownerOf */\n      0xffffffffffffffffffffffffffffffffffffffff\n      and\n      0x6352211e\n        /* \"marketplace.sol\":3863:3870  tokenId */\n      dup5\n        /* \"marketplace.sol\":3819:3871  IERC721Enumerable(ShoseNFTContract).ownerOf(tokenId) */\n      mload(0x40)\n      dup3\n      0xffffffff\n      and\n      0xe0\n      shl\n      dup2\n      mstore\n      0x04\n      add\n      tag_134\n      swap2\n      swap1\n      tag_90\n      jump\t// in\n    tag_134:\n      0x20\n      mload(0x40)\n      dup1\n      dup4\n      sub\n      dup2\n      dup7\n      dup1\n      extcodesize\n      iszero\n      dup1\n      iszero\n      tag_135\n      jumpi\n      0x00\n      dup1\n      revert\n    tag_135:\n      pop\n      gas\n      staticcall\n      iszero\n      dup1\n      iszero\n      tag_137\n      jumpi\n      returndatasize\n      0x00\n      dup1\n      returndatacopy\n      revert(0x00, returndatasize)\n    tag_137:\n      pop\n      pop\n      pop\n      pop\n      mload(0x40)\n      returndatasize\n      not(0x1f)\n      0x1f\n      dup3\n      add\n      and\n      dup3\n      add\n      dup1\n      0x40\n      mstore\n      pop\n      dup2\n      add\n      swap1\n      tag_138\n      swap2\n      swap1\n      tag_139\n      jump\t// in\n    tag_138:\n        /* \"marketplace.sol\":3819:3881  IERC721Enumerable(ShoseNFTContract).ownerOf(tokenId) == seller */\n      0xffffffffffffffffffffffffffffffffffffffff\n      and\n      eq\n        /* \"marketplace.sol\":3811:3914  require(IERC721Enumerable(ShoseNFTContract).ownerOf(tokenId) == seller,\"seller need have this tokenid\") */\n      tag_140\n      jumpi\n      mload(0x40)\n      0x08c379a000000000000000000000000000000000000000000000000000000000\n      dup2\n      mstore\n      0x04\n      add\n      tag_141\n      swap1\n      tag_142\n      jump\t// in\n    tag_141:\n      mload(0x40)\n      dup1\n      swap2\n      sub\n      swap1\n      revert\n    tag_140:\n        /* \"marketplace.sol\":3924:3946  removeNFTSell(tokenId) */\n      tag_143\n        /* \"marketplace.sol\":3938:3945  tokenId */\n      dup3\n        /* \"marketplace.sol\":3924:3937  removeNFTSell */\n      tag_144\n        /* \"marketplace.sol\":3924:3946  removeNFTSell(tokenId) */\n      jump\t// in\n    tag_143:\n        /* \"marketplace.sol\":3961:3993  eventCancelSellVicShose(tokenId) */\n      0xd4ceea0833ac36cc33c805e4f164dedb6d75e092a34e14083bbb87976befdecf\n        /* \"marketplace.sol\":3985:3992  tokenId */\n      dup3\n        /* \"marketplace.sol\":3961:3993  eventCancelSellVicShose(tokenId) */\n      mload(0x40)\n      tag_145\n      swap2\n      swap1\n      tag_90\n      jump\t// in\n    tag_145:\n      mload(0x40)\n      dup1\n      swap2\n      sub\n      swap1\n      log1\n        /* \"marketplace.sol\":3764:4000  {... */\n      pop\n        /* \"marketplace.sol\":3696:4000  function CancelSellVicShose(uint256 tokenId) external whenNotPaused {... */\n      pop\n      jump\t// out\n        /* \"marketplace.sol\":272:295  address public Treasury */\n    tag_53:\n      0x01\n      0x00\n      swap1\n      sload\n      swap1\n      0x0100\n      exp\n      swap1\n      div\n      0xffffffffffffffffffffffffffffffffffffffff\n      and\n      dup2\n      jump\t// out\n        /* \"marketplace.sol\":3064:3191  function checkShoseTranfer(uint256 tokenId) public view virtual returns (address) {... */\n    tag_57:\n        /* \"marketplace.sol\":3137:3144  address */\n      0x00\n        /* \"marketplace.sol\":3163:3175  shoseTranfer */\n      0x07\n        /* \"marketplace.sol\":3163:3184  shoseTranfer[tokenId] */\n      0x00\n        /* \"marketplace.sol\":3176:3183  tokenId */\n      dup4\n        /* \"marketplace.sol\":3163:3184  shoseTranfer[tokenId] */\n      dup2\n      mstore\n      0x20\n      add\n      swap1\n      dup2\n      mstore\n      0x20\n      add\n      0x00\n      keccak256\n      0x00\n      swap1\n      sload\n      swap1\n      0x0100\n      exp\n      swap1\n      div\n      0xffffffffffffffffffffffffffffffffffffffff\n      and\n        /* \"marketplace.sol\":3156:3184  return shoseTranfer[tokenId] */\n      swap1\n      pop\n        /* \"marketplace.sol\":3064:3191  function checkShoseTranfer(uint256 tokenId) public view virtual returns (address) {... */\n      swap2\n      swap1\n      pop\n      jump\t// out\n        /* \"BEPPausable.sol\":272:298  bool public paused = false */\n    tag_60:\n      0x00\n      0x14\n      swap1\n      sload\n      swap1\n      0x0100\n      exp\n      swap1\n      div\n      0xff\n      and\n      dup2\n      jump\t// out\n        /* \"marketplace.sol\":2528:3059  function transferVicShose(address to,uint256 tokenId) external whenNotPaused {... */\n    tag_65:\n        /* \"BEPPausable.sol\":424:430  paused */\n      0x00\n      0x14\n      swap1\n      sload\n      swap1\n      0x0100\n      exp\n      swap1\n      div\n      0xff\n      and\n        /* \"BEPPausable.sol\":423:430  !paused */\n      iszero\n        /* \"BEPPausable.sol\":415:431  require(!paused) */\n      tag_148\n      jumpi\n      0x00\n      dup1\n      revert\n    tag_148:\n        /* \"marketplace.sol\":2615:2627  address from */\n      0x00\n        /* \"marketplace.sol\":2630:2640  msg.sender */\n      caller\n        /* \"marketplace.sol\":2615:2640  address from = msg.sender */\n      swap1\n      pop\n        /* \"marketplace.sol\":2676:2692  ShoseNFTContract */\n      0x03\n      0x00\n      swap1\n      sload\n      swap1\n      0x0100\n      exp\n      swap1\n      div\n      0xffffffffffffffffffffffffffffffffffffffff\n      and\n        /* \"marketplace.sol\":2658:2710  IERC721Enumerable(ShoseNFTContract).isApprovedForAll */\n      0xffffffffffffffffffffffffffffffffffffffff\n      and\n      0xe985e9c5\n        /* \"marketplace.sol\":2711:2715  from */\n      dup3\n        /* \"marketplace.sol\":2724:2728  this */\n      address\n        /* \"marketplace.sol\":2658:2730  IERC721Enumerable(ShoseNFTContract).isApprovedForAll(from,address(this)) */\n      mload(0x40)\n      dup4\n      0xffffffff\n      and\n      0xe0\n      shl\n      dup2\n      mstore\n      0x04\n      add\n      tag_150\n      swap3\n      swap2\n      swap1\n      tag_151\n      jump\t// in\n    tag_150:\n      0x20\n      mload(0x40)\n      dup1\n      dup4\n      sub\n      dup2\n      dup7\n      dup1\n      extcodesize\n      iszero\n      dup1\n      iszero\n      tag_152\n      jumpi\n      0x00\n      dup1\n      revert\n    tag_152:\n      pop\n      gas\n      staticcall\n      iszero\n      dup1\n      iszero\n      tag_154\n      jumpi\n      returndatasize\n      0x00\n      dup1\n      returndatacopy\n      revert(0x00, returndatasize)\n    tag_154:\n      pop\n      pop\n      pop\n      pop\n      mload(0x40)\n      returndatasize\n      not(0x1f)\n      0x1f\n      dup3\n      add\n      and\n      dup3\n      add\n      dup1\n      0x40\n      mstore\n      pop\n      dup2\n      add\n      swap1\n      tag_155\n      swap2\n      swap1\n      tag_156\n      jump\t// in\n    tag_155:\n        /* \"marketplace.sol\":2650:2774  require(IERC721Enumerable(ShoseNFTContract).isApprovedForAll(from,address(this)),\"You need Approve For All to this contact\") */\n      tag_157\n      jumpi\n      mload(0x40)\n      0x08c379a000000000000000000000000000000000000000000000000000000000\n      dup2\n      mstore\n      0x04\n      add\n      tag_158\n      swap1\n      tag_159\n      jump\t// in\n    tag_158:\n      mload(0x40)\n      dup1\n      swap2\n      sub\n      swap1\n      revert\n    tag_157:\n        /* \"marketplace.sol\":2806:2807  0 */\n      0x00\n        /* \"marketplace.sol\":2792:2808  to != address(0) */\n      0xffffffffffffffffffffffffffffffffffffffff\n      and\n        /* \"marketplace.sol\":2792:2794  to */\n      dup4\n        /* \"marketplace.sol\":2792:2808  to != address(0) */\n      0xffffffffffffffffffffffffffffffffffffffff\n      and\n      eq\n      iszero\n        /* \"marketplace.sol\":2784:2832  require(to != address(0),\"Address can not zero\") */\n      tag_160\n      jumpi\n      mload(0x40)\n      0x08c379a000000000000000000000000000000000000000000000000000000000\n      dup2\n      mstore\n      0x04\n      add\n      tag_161\n      swap1\n      tag_162\n      jump\t// in\n    tag_161:\n      mload(0x40)\n      dup1\n      swap2\n      sub\n      swap1\n      revert\n    tag_160:\n        /* \"marketplace.sol\":2856:2860  from */\n      dup1\n        /* \"marketplace.sol\":2850:2860  to != from */\n      0xffffffffffffffffffffffffffffffffffffffff\n      and\n        /* \"marketplace.sol\":2850:2852  to */\n      dup4\n        /* \"marketplace.sol\":2850:2860  to != from */\n      0xffffffffffffffffffffffffffffffffffffffff\n      and\n      eq\n      iszero\n        /* \"marketplace.sol\":2842:2888  require(to != from,\"From and To can not same\") */\n      tag_163\n      jumpi\n      mload(0x40)\n      0x08c379a000000000000000000000000000000000000000000000000000000000\n      dup2\n      mstore\n      0x04\n      add\n      tag_164\n      swap1\n      tag_165\n      jump\t// in\n    tag_164:\n      mload(0x40)\n      dup1\n      swap2\n      sub\n      swap1\n      revert\n    tag_163:\n        /* \"marketplace.sol\":2916:2932  ShoseNFTContract */\n      0x03\n      0x00\n      swap1\n      sload\n      swap1\n      0x0100\n      exp\n      swap1\n      div\n      0xffffffffffffffffffffffffffffffffffffffff\n      and\n        /* \"marketplace.sol\":2898:2950  IERC721Enumerable(ShoseNFTContract).safeTransferFrom */\n      0xffffffffffffffffffffffffffffffffffffffff\n      and\n      0x42842e0e\n        /* \"marketplace.sol\":2951:2955  from */\n      dup3\n        /* \"marketplace.sol\":2957:2959  to */\n      dup6\n        /* \"marketplace.sol\":2960:2967  tokenId */\n      dup6\n        /* \"marketplace.sol\":2898:2968  IERC721Enumerable(ShoseNFTContract).safeTransferFrom(from, to,tokenId) */\n      mload(0x40)\n      dup5\n      0xffffffff\n      and\n      0xe0\n      shl\n      dup2\n      mstore\n      0x04\n      add\n      tag_166\n      swap4\n      swap3\n      swap2\n      swap1\n      tag_167\n      jump\t// in\n    tag_166:\n      0x00\n      mload(0x40)\n      dup1\n      dup4\n      sub\n      dup2\n      0x00\n      dup8\n      dup1\n      extcodesize\n      iszero\n      dup1\n      iszero\n      tag_168\n      jumpi\n      0x00\n      dup1\n      revert\n    tag_168:\n      pop\n      gas\n      call\n      iszero\n      dup1\n      iszero\n      tag_170\n      jumpi\n      returndatasize\n      0x00\n      dup1\n      returndatacopy\n      revert(0x00, returndatasize)\n    tag_170:\n      pop\n      pop\n      pop\n      pop\n        /* \"marketplace.sol\":3002:3004  to */\n      dup3\n        /* \"marketplace.sol\":2978:2990  shoseTranfer */\n      0x07\n        /* \"marketplace.sol\":2978:2999  shoseTranfer[tokenId] */\n      0x00\n        /* \"marketplace.sol\":2991:2998  tokenId */\n      dup5\n        /* \"marketplace.sol\":2978:2999  shoseTranfer[tokenId] */\n      dup2\n      mstore\n      0x20\n      add\n      swap1\n      dup2\n      mstore\n      0x20\n      add\n      0x00\n      keccak256\n      0x00\n        /* \"marketplace.sol\":2978:3004  shoseTranfer[tokenId] = to */\n      0x0100\n      exp\n      dup2\n      sload\n      dup2\n      0xffffffffffffffffffffffffffffffffffffffff\n      mul\n      not\n      and\n      swap1\n      dup4\n      0xffffffffffffffffffffffffffffffffffffffff\n      and\n      mul\n      or\n      swap1\n      sstore\n      pop\n        /* \"marketplace.sol\":3019:3052  eventtransferVicShose(to,tokenId) */\n      0x2a422da7e70b3ca41064be14c50b74a43cbbef24634fa3b7e90d120b8ecc08b3\n        /* \"marketplace.sol\":3041:3043  to */\n      dup4\n        /* \"marketplace.sol\":3044:3051  tokenId */\n      dup4\n        /* \"marketplace.sol\":3019:3052  eventtransferVicShose(to,tokenId) */\n      mload(0x40)\n      tag_171\n      swap3\n      swap2\n      swap1\n      tag_172\n      jump\t// in\n    tag_171:\n      mload(0x40)\n      dup1\n      swap2\n      sub\n      swap1\n      log1\n        /* \"marketplace.sol\":2605:3059  {... */\n      pop\n        /* \"marketplace.sol\":2528:3059  function transferVicShose(address to,uint256 tokenId) external whenNotPaused {... */\n      pop\n      pop\n      jump\t// out\n        /* \"BEPOwnable.sol\":1630:1757  function renounceOwnership() public onlyOwner {... */\n    tag_67:\n        /* \"BEPOwnable.sol\":1085:1094  isOwner() */\n      tag_174\n        /* \"BEPOwnable.sol\":1085:1092  isOwner */\n      tag_79\n        /* \"BEPOwnable.sol\":1085:1094  isOwner() */\n      jump\t// in\n    tag_174:\n        /* \"BEPOwnable.sol\":1077:1131  require(isOwner(), \"Ownable: caller is not the owner\") */\n      tag_175\n      jumpi\n      mload(0x40)\n      0x08c379a000000000000000000000000000000000000000000000000000000000\n      dup2\n      mstore\n      0x04\n      add\n      tag_176\n      swap1\n      tag_115\n      jump\t// in\n    tag_176:\n      mload(0x40)\n      dup1\n      swap2\n      sub\n      swap1\n      revert\n    tag_175:\n        /* \"BEPOwnable.sol\":1724:1725  0 */\n      0x00\n        /* \"BEPOwnable.sol\":1687:1727  OwnershipTransferred(_owner, address(0)) */\n      0xffffffffffffffffffffffffffffffffffffffff\n      and\n        /* \"BEPOwnable.sol\":1708:1714  _owner */\n      0x00\n      dup1\n      sload\n      swap1\n      0x0100\n      exp\n      swap1\n      div\n      0xffffffffffffffffffffffffffffffffffffffff\n      and\n        /* \"BEPOwnable.sol\":1687:1727  OwnershipTransferred(_owner, address(0)) */\n      0xffffffffffffffffffffffffffffffffffffffff\n      and\n      0x8be0079c531659141344cd1fd0a4f28419497f9722a3daafe3b4186f6b6457e0\n      mload(0x40)\n      mload(0x40)\n      dup1\n      swap2\n      sub\n      swap1\n      log3\n        /* \"BEPOwnable.sol\":1750:1751  0 */\n      0x00\n        /* \"BEPOwnable.sol\":1733:1739  _owner */\n      dup1\n      0x00\n        /* \"BEPOwnable.sol\":1733:1752  _owner = address(0) */\n      0x0100\n      exp\n      dup2\n      sload\n      dup2\n      0xffffffffffffffffffffffffffffffffffffffff\n      mul\n      not\n      and\n      swap1\n      dup4\n      0xffffffffffffffffffffffffffffffffffffffff\n      and\n      mul\n      or\n      swap1\n      sstore\n      pop\n        /* \"BEPOwnable.sol\":1630:1757  function renounceOwnership() public onlyOwner {... */\n      jump\t// out\n        /* \"marketplace.sol\":3197:3690  function SellVicShose(uint256 tokenId,uint256 price) external whenNotPaused {... */\n    tag_71:\n        /* \"BEPPausable.sol\":424:430  paused */\n      0x00\n      0x14\n      swap1\n      sload\n      swap1\n      0x0100\n      exp\n      swap1\n      div\n      0xff\n      and\n        /* \"BEPPausable.sol\":423:430  !paused */\n      iszero\n        /* \"BEPPausable.sol\":415:431  require(!paused) */\n      tag_179\n      jumpi\n      0x00\n      dup1\n      revert\n    tag_179:\n        /* \"marketplace.sol\":3283:3297  address seller */\n      0x00\n        /* \"marketplace.sol\":3300:3310  msg.sender */\n      caller\n        /* \"marketplace.sol\":3283:3310  address seller = msg.sender */\n      swap1\n      pop\n        /* \"marketplace.sol\":3384:3390  seller */\n      dup1\n        /* \"marketplace.sol\":3328:3390  IERC721Enumerable(ShoseNFTContract).ownerOf(tokenId) == seller */\n      0xffffffffffffffffffffffffffffffffffffffff\n      and\n        /* \"marketplace.sol\":3346:3362  ShoseNFTContract */\n      0x03\n      0x00\n      swap1\n      sload\n      swap1\n      0x0100\n      exp\n      swap1\n      div\n      0xffffffffffffffffffffffffffffffffffffffff\n      and\n        /* \"marketplace.sol\":3328:3371  IERC721Enumerable(ShoseNFTContract).ownerOf */\n      0xffffffffffffffffffffffffffffffffffffffff\n      and\n      0x6352211e\n        /* \"marketplace.sol\":3372:3379  tokenId */\n      dup6\n        /* \"marketplace.sol\":3328:3380  IERC721Enumerable(ShoseNFTContract).ownerOf(tokenId) */\n      mload(0x40)\n      dup3\n      0xffffffff\n      and\n      0xe0\n      shl\n      dup2\n      mstore\n      0x04\n      add\n      tag_181\n      swap2\n      swap1\n      tag_90\n      jump\t// in\n    tag_181:\n      0x20\n      mload(0x40)\n      dup1\n      dup4\n      sub\n      dup2\n      dup7\n      dup1\n      extcodesize\n      iszero\n      dup1\n      iszero\n      tag_182\n      jumpi\n      0x00\n      dup1\n      revert\n    tag_182:\n      pop\n      gas\n      staticcall\n      iszero\n      dup1\n      iszero\n      tag_184\n      jumpi\n      returndatasize\n      0x00\n      dup1\n      returndatacopy\n      revert(0x00, returndatasize)\n    tag_184:\n      pop\n      pop\n      pop\n      pop\n      mload(0x40)\n      returndatasize\n      not(0x1f)\n      0x1f\n      dup3\n      add\n      and\n      dup3\n      add\n      dup1\n      0x40\n      mstore\n      pop\n      dup2\n      add\n      swap1\n      tag_185\n      swap2\n      swap1\n      tag_139\n      jump\t// in\n    tag_185:\n        /* \"marketplace.sol\":3328:3390  IERC721Enumerable(ShoseNFTContract).ownerOf(tokenId) == seller */\n      0xffffffffffffffffffffffffffffffffffffffff\n      and\n      eq\n        /* \"marketplace.sol\":3320:3423  require(IERC721Enumerable(ShoseNFTContract).ownerOf(tokenId) == seller,\"seller need have this tokenid\") */\n      tag_186\n      jumpi\n      mload(0x40)\n      0x08c379a000000000000000000000000000000000000000000000000000000000\n      dup2\n      mstore\n      0x04\n      add\n      tag_187\n      swap1\n      tag_142\n      jump\t// in\n    tag_187:\n      mload(0x40)\n      dup1\n      swap2\n      sub\n      swap1\n      revert\n    tag_186:\n        /* \"marketplace.sol\":3459:3475  ShoseNFTContract */\n      0x03\n      0x00\n      swap1\n      sload\n      swap1\n      0x0100\n      exp\n      swap1\n      div\n      0xffffffffffffffffffffffffffffffffffffffff\n      and\n        /* \"marketplace.sol\":3441:3493  IERC721Enumerable(ShoseNFTContract).isApprovedForAll */\n      0xffffffffffffffffffffffffffffffffffffffff\n      and\n      0xe985e9c5\n        /* \"marketplace.sol\":3494:3500  seller */\n      dup3\n        /* \"marketplace.sol\":3509:3513  this */\n      address\n        /* \"marketplace.sol\":3441:3515  IERC721Enumerable(ShoseNFTContract).isApprovedForAll(seller,address(this)) */\n      mload(0x40)\n      dup4\n      0xffffffff\n      and\n      0xe0\n      shl\n      dup2\n      mstore\n      0x04\n      add\n      tag_188\n      swap3\n      swap2\n      swap1\n      tag_151\n      jump\t// in\n    tag_188:\n      0x20\n      mload(0x40)\n      dup1\n      dup4\n      sub\n      dup2\n      dup7\n      dup1\n      extcodesize\n      iszero\n      dup1\n      iszero\n      tag_189\n      jumpi\n      0x00\n      dup1\n      revert\n    tag_189:\n      pop\n      gas\n      staticcall\n      iszero\n      dup1\n      iszero\n      tag_191\n      jumpi\n      returndatasize\n      0x00\n      dup1\n      returndatacopy\n      revert(0x00, returndatasize)\n    tag_191:\n      pop\n      pop\n      pop\n      pop\n      mload(0x40)\n      returndatasize\n      not(0x1f)\n      0x1f\n      dup3\n      add\n      and\n      dup3\n      add\n      dup1\n      0x40\n      mstore\n      pop\n      dup2\n      add\n      swap1\n      tag_192\n      swap2\n      swap1\n      tag_156\n      jump\t// in\n    tag_192:\n        /* \"marketplace.sol\":3433:3559  require(IERC721Enumerable(ShoseNFTContract).isApprovedForAll(seller,address(this)),\"You need Approve For All to this contact\") */\n      tag_193\n      jumpi\n      mload(0x40)\n      0x08c379a000000000000000000000000000000000000000000000000000000000\n      dup2\n      mstore\n      0x04\n      add\n      tag_194\n      swap1\n      tag_159\n      jump\t// in\n    tag_194:\n      mload(0x40)\n      dup1\n      swap2\n      sub\n      swap1\n      revert\n    tag_193:\n        /* \"marketplace.sol\":3585:3586  0 */\n      0x00\n        /* \"marketplace.sol\":3577:3582  price */\n      dup3\n        /* \"marketplace.sol\":3577:3586  price > 0 */\n      gt\n        /* \"marketplace.sol\":3569:3600  require(price > 0, \"Price > 0\") */\n      tag_195\n      jumpi\n      mload(0x40)\n      0x08c379a000000000000000000000000000000000000000000000000000000000\n      dup2\n      mstore\n      0x04\n      add\n      tag_196\n      swap1\n      tag_197\n      jump\t// in\n    tag_196:\n      mload(0x40)\n      dup1\n      swap2\n      sub\n      swap1\n      revert\n    tag_195:\n        /* \"marketplace.sol\":3610:3636  addNFTSell(tokenId, price) */\n      tag_198\n        /* \"marketplace.sol\":3621:3628  tokenId */\n      dup4\n        /* \"marketplace.sol\":3630:3635  price */\n      dup4\n        /* \"marketplace.sol\":3610:3620  addNFTSell */\n      tag_199\n        /* \"marketplace.sol\":3610:3636  addNFTSell(tokenId, price) */\n      jump\t// in\n    tag_198:\n        /* \"marketplace.sol\":3651:3683  eventSellVicShose(tokenId,price) */\n      0x55bb046a6e950af74fcdaaa97a1a82c49209d72a5fcda0925a019dfba29c8f72\n        /* \"marketplace.sol\":3669:3676  tokenId */\n      dup4\n        /* \"marketplace.sol\":3677:3682  price */\n      dup4\n        /* \"marketplace.sol\":3651:3683  eventSellVicShose(tokenId,price) */\n      mload(0x40)\n      tag_200\n      swap3\n      swap2\n      swap1\n      tag_201\n      jump\t// in\n    tag_200:\n      mload(0x40)\n      dup1\n      swap2\n      sub\n      swap1\n      log1\n        /* \"marketplace.sol\":3273:3690  {... */\n      pop\n        /* \"marketplace.sol\":3197:3690  function SellVicShose(uint256 tokenId,uint256 price) external whenNotPaused {... */\n      pop\n      pop\n      jump\t// out\n        /* \"BEPPausable.sol\":666:788  function pause() public onlyOwner whenNotPaused returns (bool) {... */\n    tag_73:\n        /* \"BEPPausable.sol\":723:727  bool */\n      0x00\n        /* \"BEPOwnable.sol\":1085:1094  isOwner() */\n      tag_203\n        /* \"BEPOwnable.sol\":1085:1092  isOwner */\n      tag_79\n        /* \"BEPOwnable.sol\":1085:1094  isOwner() */\n      jump\t// in\n    tag_203:\n        /* \"BEPOwnable.sol\":1077:1131  require(isOwner(), \"Ownable: caller is not the owner\") */\n      tag_204\n      jumpi\n      mload(0x40)\n      0x08c379a000000000000000000000000000000000000000000000000000000000\n      dup2\n      mstore\n      0x04\n      add\n      tag_205\n      swap1\n      tag_115\n      jump\t// in\n    tag_205:\n      mload(0x40)\n      dup1\n      swap2\n      sub\n      swap1\n      revert\n    tag_204:\n        /* \"BEPPausable.sol\":424:430  paused */\n      0x00\n      0x14\n      swap1\n      sload\n      swap1\n      0x0100\n      exp\n      swap1\n      div\n      0xff\n      and\n        /* \"BEPPausable.sol\":423:430  !paused */\n      iszero\n        /* \"BEPPausable.sol\":415:431  require(!paused) */\n      tag_207\n      jumpi\n      0x00\n      dup1\n      revert\n    tag_207:\n        /* \"BEPPausable.sol\":744:748  true */\n      0x01\n        /* \"BEPPausable.sol\":735:741  paused */\n      0x00\n      0x14\n        /* \"BEPPausable.sol\":735:748  paused = true */\n      0x0100\n      exp\n      dup2\n      sload\n      dup2\n      0xff\n      mul\n      not\n      and\n      swap1\n      dup4\n      iszero\n      iszero\n      mul\n      or\n      swap1\n      sstore\n      pop\n        /* \"BEPPausable.sol\":759:766  Pause() */\n      0x6985a02210a168e66602d3235cb6db0e70f92b3ba4d376a33c0f3d9434bff625\n      mload(0x40)\n      mload(0x40)\n      dup1\n      swap2\n      sub\n      swap1\n      log1\n        /* \"BEPPausable.sol\":779:783  true */\n      0x01\n        /* \"BEPPausable.sol\":772:783  return true */\n      swap1\n      pop\n        /* \"BEPPausable.sol\":666:788  function pause() public onlyOwner whenNotPaused returns (bool) {... */\n      swap1\n      jump\t// out\n        /* \"BEPOwnable.sol\":899:970  function owner() public view returns (address) {... */\n    tag_76:\n        /* \"BEPOwnable.sol\":937:944  address */\n      0x00\n        /* \"BEPOwnable.sol\":959:965  _owner */\n      dup1\n      0x00\n      swap1\n      sload\n      swap1\n      0x0100\n      exp\n      swap1\n      div\n      0xffffffffffffffffffffffffffffffffffffffff\n      and\n        /* \"BEPOwnable.sol\":952:965  return _owner */\n      swap1\n      pop\n        /* \"BEPOwnable.sol\":899:970  function owner() public view returns (address) {... */\n      swap1\n      jump\t// out\n        /* \"BEPOwnable.sol\":1218:1304  function isOwner() public view returns (bool) {... */\n    tag_79:\n        /* \"BEPOwnable.sol\":1258:1262  bool */\n      0x00\n        /* \"BEPOwnable.sol\":1293:1299  _owner */\n      dup1\n      0x00\n      swap1\n      sload\n      swap1\n      0x0100\n      exp\n      swap1\n      div\n      0xffffffffffffffffffffffffffffffffffffffff\n      and\n        /* \"BEPOwnable.sol\":1277:1299  _msgSender() == _owner */\n      0xffffffffffffffffffffffffffffffffffffffff\n      and\n        /* \"BEPOwnable.sol\":1277:1289  _msgSender() */\n      tag_211\n        /* \"BEPOwnable.sol\":1277:1287  _msgSender */\n      tag_212\n        /* \"BEPOwnable.sol\":1277:1289  _msgSender() */\n      jump\t// in\n    tag_211:\n        /* \"BEPOwnable.sol\":1277:1299  _msgSender() == _owner */\n      0xffffffffffffffffffffffffffffffffffffffff\n      and\n      eq\n        /* \"BEPOwnable.sol\":1270:1299  return _msgSender() == _owner */\n      swap1\n      pop\n        /* \"BEPOwnable.sol\":1218:1304  function isOwner() public view returns (bool) {... */\n      swap1\n      jump\t// out\n        /* \"marketplace.sol\":1549:1696  function setLiquidPool(address _LiquidPool) external onlyOwner {... */\n    tag_83:\n        /* \"BEPOwnable.sol\":1085:1094  isOwner() */\n      tag_214\n        /* \"BEPOwnable.sol\":1085:1092  isOwner */\n      tag_79\n        /* \"BEPOwnable.sol\":1085:1094  isOwner() */\n      jump\t// in\n    tag_214:\n        /* \"BEPOwnable.sol\":1077:1131  require(isOwner(), \"Ownable: caller is not the owner\") */\n      tag_215\n      jumpi\n      mload(0x40)\n      0x08c379a000000000000000000000000000000000000000000000000000000000\n      dup2\n      mstore\n      0x04\n      add\n      tag_216\n      swap1\n      tag_115\n      jump\t// in\n    tag_216:\n      mload(0x40)\n      dup1\n      swap2\n      sub\n      swap1\n      revert\n    tag_215:\n        /* \"marketplace.sol\":1635:1646  _LiquidPool */\n      dup1\n        /* \"marketplace.sol\":1622:1632  LiquidPool */\n      0x02\n      0x00\n        /* \"marketplace.sol\":1622:1646  LiquidPool = _LiquidPool */\n      0x0100\n      exp\n      dup2\n      sload\n      dup2\n      0xffffffffffffffffffffffffffffffffffffffff\n      mul\n      not\n      and\n      swap1\n      dup4\n      0xffffffffffffffffffffffffffffffffffffffff\n      and\n      mul\n      or\n      swap1\n      sstore\n      pop\n        /* \"marketplace.sol\":1661:1689  changeLiquidPool(LiquidPool) */\n      0xacdd85d235b5b49226c2c4f2b72cb01fa1cc3ae64bb843a6def27788d05b1b60\n        /* \"marketplace.sol\":1678:1688  LiquidPool */\n      0x02\n      0x00\n      swap1\n      sload\n      swap1\n      0x0100\n      exp\n      swap1\n      div\n      0xffffffffffffffffffffffffffffffffffffffff\n      and\n        /* \"marketplace.sol\":1661:1689  changeLiquidPool(LiquidPool) */\n      mload(0x40)\n      tag_218\n      swap2\n      swap1\n      tag_33\n      jump\t// in\n    tag_218:\n      mload(0x40)\n      dup1\n      swap2\n      sub\n      swap1\n      log1\n        /* \"marketplace.sol\":1549:1696  function setLiquidPool(address _LiquidPool) external onlyOwner {... */\n      pop\n      jump\t// out\n        /* \"marketplace.sol\":369:395  address public VIMContract */\n    tag_85:\n      0x04\n      0x00\n      swap1\n      sload\n      swap1\n      0x0100\n      exp\n      swap1\n      div\n      0xffffffffffffffffffffffffffffffffffffffff\n      and\n      dup2\n      jump\t// out\n        /* \"marketplace.sol\":434:455  uint256 public MinBnB */\n    tag_88:\n      sload(0x06)\n      dup2\n      jump\t// out\n        /* \"marketplace.sol\":332:363  address public ShoseNFTContract */\n    tag_92:\n      0x03\n      0x00\n      swap1\n      sload\n      swap1\n      0x0100\n      exp\n      swap1\n      div\n      0xffffffffffffffffffffffffffffffffffffffff\n      and\n      dup2\n      jump\t// out\n        /* \"marketplace.sol\":2050:2174  function setMinBNB(uint256  _MinBnB) external onlyOwner {... */\n    tag_96:\n        /* \"BEPOwnable.sol\":1085:1094  isOwner() */\n      tag_220\n        /* \"BEPOwnable.sol\":1085:1092  isOwner */\n      tag_79\n        /* \"BEPOwnable.sol\":1085:1094  isOwner() */\n      jump\t// in\n    tag_220:\n        /* \"BEPOwnable.sol\":1077:1131  require(isOwner(), \"Ownable: caller is not the owner\") */\n      tag_221\n      jumpi\n      mload(0x40)\n      0x08c379a000000000000000000000000000000000000000000000000000000000\n      dup2\n      mstore\n      0x04\n      add\n      tag_222\n      swap1\n      tag_115\n      jump\t// in\n    tag_222:\n      mload(0x40)\n      dup1\n      swap2\n      sub\n      swap1\n      revert\n    tag_221:\n        /* \"marketplace.sol\":2125:2132  _MinBnB */\n      dup1\n        /* \"marketplace.sol\":2116:2122  MinBnB */\n      0x06\n        /* \"marketplace.sol\":2116:2132  MinBnB = _MinBnB */\n      dup2\n      swap1\n      sstore\n      pop\n        /* \"marketplace.sol\":2147:2167  changeMinBnB(MinBnB) */\n      0x4d8e30ff458bebdd848488669e63d632954487ca1bc64c28f3c920f74a5f8594\n        /* \"marketplace.sol\":2160:2166  MinBnB */\n      sload(0x06)\n        /* \"marketplace.sol\":2147:2167  changeMinBnB(MinBnB) */\n      mload(0x40)\n      tag_224\n      swap2\n      swap1\n      tag_90\n      jump\t// in\n    tag_224:\n      mload(0x40)\n      dup1\n      swap2\n      sub\n      swap1\n      log1\n        /* \"marketplace.sol\":2050:2174  function setMinBNB(uint256  _MinBnB) external onlyOwner {... */\n      pop\n      jump\t// out\n        /* \"marketplace.sol\":2181:2522  function getMINPrice() public view virtual returns (uint256) {... */\n    tag_98:\n        /* \"marketplace.sol\":2233:2240  uint256 */\n      0x00\n        /* \"marketplace.sol\":2252:2271  uint256 wbnbbalance */\n      dup1\n        /* \"marketplace.sol\":2281:2293  WBNBContract */\n      0x05\n      0x00\n      swap1\n      sload\n      swap1\n      0x0100\n      exp\n      swap1\n      div\n      0xffffffffffffffffffffffffffffffffffffffff\n      and\n        /* \"marketplace.sol\":2274:2304  IBEP20(WBNBContract).balanceOf */\n      0xffffffffffffffffffffffffffffffffffffffff\n      and\n      0x70a08231\n        /* \"marketplace.sol\":2305:2315  LiquidPool */\n      0x02\n      0x00\n      swap1\n      sload\n      swap1\n      0x0100\n      exp\n      swap1\n      div\n      0xffffffffffffffffffffffffffffffffffffffff\n      and\n        /* \"marketplace.sol\":2274:2316  IBEP20(WBNBContract).balanceOf(LiquidPool) */\n      mload(0x40)\n      dup3\n      0xffffffff\n      and\n      0xe0\n      shl\n      dup2\n      mstore\n      0x04\n      add\n      tag_226\n      swap2\n      swap1\n      tag_33\n      jump\t// in\n    tag_226:\n      0x20\n      mload(0x40)\n      dup1\n      dup4\n      sub\n      dup2\n      dup7\n      dup1\n      extcodesize\n      iszero\n      dup1\n      iszero\n      tag_227\n      jumpi\n      0x00\n      dup1\n      revert\n    tag_227:\n      pop\n      gas\n      staticcall\n      iszero\n      dup1\n      iszero\n      tag_229\n      jumpi\n      returndatasize\n      0x00\n      dup1\n      returndatacopy\n      revert(0x00, returndatasize)\n    tag_229:\n      pop\n      pop\n      pop\n      pop\n      mload(0x40)\n      returndatasize\n      not(0x1f)\n      0x1f\n      dup3\n      add\n      and\n      dup3\n      add\n      dup1\n      0x40\n      mstore\n      pop\n      dup2\n      add\n      swap1\n      tag_230\n      swap2\n      swap1\n      tag_231\n      jump\t// in\n    tag_230:\n        /* \"marketplace.sol\":2252:2316  uint256 wbnbbalance = IBEP20(WBNBContract).balanceOf(LiquidPool) */\n      swap1\n      pop\n        /* \"marketplace.sol\":2326:2344  uint256 vimbalance */\n      0x00\n        /* \"marketplace.sol\":2354:2365  VIMContract */\n      0x04\n      0x00\n      swap1\n      sload\n      swap1\n      0x0100\n      exp\n      swap1\n      div\n      0xffffffffffffffffffffffffffffffffffffffff\n      and\n        /* \"marketplace.sol\":2347:2376  IBEP20(VIMContract).balanceOf */\n      0xffffffffffffffffffffffffffffffffffffffff\n      and\n      0x70a08231\n        /* \"marketplace.sol\":2377:2387  LiquidPool */\n      0x02\n      0x00\n      swap1\n      sload\n      swap1\n      0x0100\n      exp\n      swap1\n      div\n      0xffffffffffffffffffffffffffffffffffffffff\n      and\n        /* \"marketplace.sol\":2347:2388  IBEP20(VIMContract).balanceOf(LiquidPool) */\n      mload(0x40)\n      dup3\n      0xffffffff\n      and\n      0xe0\n      shl\n      dup2\n      mstore\n      0x04\n      add\n      tag_232\n      swap2\n      swap1\n      tag_33\n      jump\t// in\n    tag_232:\n      0x20\n      mload(0x40)\n      dup1\n      dup4\n      sub\n      dup2\n      dup7\n      dup1\n      extcodesize\n      iszero\n      dup1\n      iszero\n      tag_233\n      jumpi\n      0x00\n      dup1\n      revert\n    tag_233:\n      pop\n      gas\n      staticcall\n      iszero\n      dup1\n      iszero\n      tag_235\n      jumpi\n      returndatasize\n      0x00\n      dup1\n      returndatacopy\n      revert(0x00, returndatasize)\n    tag_235:\n      pop\n      pop\n      pop\n      pop\n      mload(0x40)\n      returndatasize\n      not(0x1f)\n      0x1f\n      dup3\n      add\n      and\n      dup3\n      add\n      dup1\n      0x40\n      mstore\n      pop\n      dup2\n      add\n      swap1\n      tag_236\n      swap2\n      swap1\n      tag_231\n      jump\t// in\n    tag_236:\n        /* \"marketplace.sol\":2326:2388  uint256 vimbalance = IBEP20(VIMContract).balanceOf(LiquidPool) */\n      swap1\n      pop\n        /* \"marketplace.sol\":2398:2414  uint256 bnbprice */\n      0x00\n        /* \"marketplace.sol\":2428:2439  wbnbbalance */\n      dup3\n        /* \"marketplace.sol\":2417:2427  vimbalance */\n      dup3\n        /* \"marketplace.sol\":2417:2439  vimbalance/wbnbbalance */\n      tag_237\n      swap2\n      swap1\n      tag_238\n      jump\t// in\n    tag_237:\n        /* \"marketplace.sol\":2398:2439  uint256 bnbprice = vimbalance/wbnbbalance */\n      swap1\n      pop\n        /* \"marketplace.sol\":2449:2465  uint256 minprice */\n      0x00\n        /* \"marketplace.sol\":2488:2490  10 */\n      0x0a\n        /* \"marketplace.sol\":2479:2485  MinBnB */\n      sload(0x06)\n        /* \"marketplace.sol\":2468:2476  bnbprice */\n      dup4\n        /* \"marketplace.sol\":2468:2485  bnbprice * MinBnB */\n      tag_239\n      swap2\n      swap1\n      tag_240\n      jump\t// in\n    tag_239:\n        /* \"marketplace.sol\":2468:2490  bnbprice * MinBnB / 10 */\n      tag_241\n      swap2\n      swap1\n      tag_238\n      jump\t// in\n    tag_241:\n        /* \"marketplace.sol\":2449:2490  uint256 minprice = bnbprice * MinBnB / 10 */\n      swap1\n      pop\n        /* \"marketplace.sol\":2507:2515  minprice */\n      dup1\n        /* \"marketplace.sol\":2500:2515  return minprice */\n      swap5\n      pop\n      pop\n      pop\n      pop\n      pop\n        /* \"marketplace.sol\":2181:2522  function getMINPrice() public view virtual returns (uint256) {... */\n      swap1\n      jump\t// out\n        /* \"marketplace.sol\":1407:1542  function setTreasury(address _Treasury) external onlyOwner {... */\n    tag_102:\n        /* \"BEPOwnable.sol\":1085:1094  isOwner() */\n      tag_243\n        /* \"BEPOwnable.sol\":1085:1092  isOwner */\n      tag_79\n        /* \"BEPOwnable.sol\":1085:1094  isOwner() */\n      jump\t// in\n    tag_243:\n        /* \"BEPOwnable.sol\":1077:1131  require(isOwner(), \"Ownable: caller is not the owner\") */\n      tag_244\n      jumpi\n      mload(0x40)\n      0x08c379a000000000000000000000000000000000000000000000000000000000\n      dup2\n      mstore\n      0x04\n      add\n      tag_245\n      swap1\n      tag_115\n      jump\t// in\n    tag_245:\n      mload(0x40)\n      dup1\n      swap2\n      sub\n      swap1\n      revert\n    tag_244:\n        /* \"marketplace.sol\":1487:1496  _Treasury */\n      dup1\n        /* \"marketplace.sol\":1476:1484  Treasury */\n      0x01\n      0x00\n        /* \"marketplace.sol\":1476:1496  Treasury = _Treasury */\n      0x0100\n      exp\n      dup2\n      sload\n      dup2\n      0xffffffffffffffffffffffffffffffffffffffff\n      mul\n      not\n      and\n      swap1\n      dup4\n      0xffffffffffffffffffffffffffffffffffffffff\n      and\n      mul\n      or\n      swap1\n      sstore\n      pop\n        /* \"marketplace.sol\":1511:1535  changeTreasury(Treasury) */\n      0xb14f2a39bb21fda32827bbdb4be629c94036e10a3f6055a6454f884ca1b33fa1\n        /* \"marketplace.sol\":1526:1534  Treasury */\n      0x01\n      0x00\n      swap1\n      sload\n      swap1\n      0x0100\n      exp\n      swap1\n      div\n      0xffffffffffffffffffffffffffffffffffffffff\n      and\n        /* \"marketplace.sol\":1511:1535  changeTreasury(Treasury) */\n      mload(0x40)\n      tag_247\n      swap2\n      swap1\n      tag_33\n      jump\t// in\n    tag_247:\n      mload(0x40)\n      dup1\n      swap2\n      sub\n      swap1\n      log1\n        /* \"marketplace.sol\":1407:1542  function setTreasury(address _Treasury) external onlyOwner {... */\n      pop\n      jump\t// out\n        /* \"BEPOwnable.sol\":1896:1997  function transferOwnership(address newOwner) public onlyOwner {... */\n    tag_105:\n        /* \"BEPOwnable.sol\":1085:1094  isOwner() */\n      tag_249\n        /* \"BEPOwnable.sol\":1085:1092  isOwner */\n      tag_79\n        /* \"BEPOwnable.sol\":1085:1094  isOwner() */\n      jump\t// in\n    tag_249:\n        /* \"BEPOwnable.sol\":1077:1131  require(isOwner(), \"Ownable: caller is not the owner\") */\n      tag_250\n      jumpi\n      mload(0x40)\n      0x08c379a000000000000000000000000000000000000000000000000000000000\n      dup2\n      mstore\n      0x04\n      add\n      tag_251\n      swap1\n      tag_115\n      jump\t// in\n    tag_251:\n      mload(0x40)\n      dup1\n      swap2\n      sub\n      swap1\n      revert\n    tag_250:\n        /* \"BEPOwnable.sol\":1964:1992  _transferOwnership(newOwner) */\n      tag_253\n        /* \"BEPOwnable.sol\":1983:1991  newOwner */\n      dup2\n        /* \"BEPOwnable.sol\":1964:1982  _transferOwnership */\n      tag_254\n        /* \"BEPOwnable.sol\":1964:1992  _transferOwnership(newOwner) */\n      jump\t// in\n    tag_253:\n        /* \"BEPOwnable.sol\":1896:1997  function transferOwnership(address newOwner) public onlyOwner {... */\n      pop\n      jump\t// out\n        /* \"marketplace.sol\":4951:5684  function getSellingShose(uint256 start, uint256 end) external view returns (uint256[] memory _tokenID,address[] memory _owner, uint256[] memory _Price) {... */\n    tag_108:\n        /* \"marketplace.sol\":5027:5052  uint256[] memory _tokenID */\n      0x60\n        /* \"marketplace.sol\":5053:5076  address[] memory _owner */\n      dup1\n        /* \"marketplace.sol\":5078:5101  uint256[] memory _Price */\n      0x60\n        /* \"marketplace.sol\":5113:5136  uint256 shoseShellCount */\n      0x00\n        /* \"marketplace.sol\":5139:5152  allTokensSell */\n      0x09\n        /* \"marketplace.sol\":5139:5159  allTokensSell.length */\n      dup1\n      sload\n      swap1\n      pop\n        /* \"marketplace.sol\":5113:5159  uint256 shoseShellCount = allTokensSell.length */\n      swap1\n      pop\n        /* \"marketplace.sol\":5183:5184  0 */\n      0x00\n        /* \"marketplace.sol\":5177:5182  start */\n      dup7\n        /* \"marketplace.sol\":5177:5184  start>0 */\n      gt\n        /* \"marketplace.sol\":5177:5211  start>0 && start < shoseShellCount */\n      dup1\n      iszero\n      tag_256\n      jumpi\n      pop\n        /* \"marketplace.sol\":5196:5211  shoseShellCount */\n      dup1\n        /* \"marketplace.sol\":5188:5193  start */\n      dup7\n        /* \"marketplace.sol\":5188:5211  start < shoseShellCount */\n      lt\n        /* \"marketplace.sol\":5177:5211  start>0 && start < shoseShellCount */\n    tag_256:\n        /* \"marketplace.sol\":5169:5227  require(start>0 && start < shoseShellCount,\"Start not ok\") */\n      tag_257\n      jumpi\n      mload(0x40)\n      0x08c379a000000000000000000000000000000000000000000000000000000000\n      dup2\n      mstore\n      0x04\n      add\n      tag_258\n      swap1\n      tag_259\n      jump\t// in\n    tag_258:\n      mload(0x40)\n      dup1\n      swap2\n      sub\n      swap1\n      revert\n    tag_257:\n        /* \"marketplace.sol\":5252:5257  start */\n      dup6\n        /* \"marketplace.sol\":5245:5248  end */\n      dup6\n        /* \"marketplace.sol\":5245:5257  end >= start */\n      lt\n      iszero\n        /* \"marketplace.sol\":5245:5266  end >= start && end>0 */\n      dup1\n      iszero\n      tag_260\n      jumpi\n      pop\n        /* \"marketplace.sol\":5265:5266  0 */\n      0x00\n        /* \"marketplace.sol\":5261:5264  end */\n      dup6\n        /* \"marketplace.sol\":5261:5266  end>0 */\n      gt\n        /* \"marketplace.sol\":5245:5266  end >= start && end>0 */\n    tag_260:\n        /* \"marketplace.sol\":5245:5291  end >= start && end>0 && end < shoseShellCount */\n      dup1\n      iszero\n      tag_261\n      jumpi\n      pop\n        /* \"marketplace.sol\":5276:5291  shoseShellCount */\n      dup1\n        /* \"marketplace.sol\":5270:5273  end */\n      dup6\n        /* \"marketplace.sol\":5270:5291  end < shoseShellCount */\n      lt\n        /* \"marketplace.sol\":5245:5291  end >= start && end>0 && end < shoseShellCount */\n    tag_261:\n        /* \"marketplace.sol\":5237:5305  require(end >= start && end>0 && end < shoseShellCount,\"End not ok\") */\n      tag_262\n      jumpi\n      mload(0x40)\n      0x08c379a000000000000000000000000000000000000000000000000000000000\n      dup2\n      mstore\n      0x04\n      add\n      tag_263\n      swap1\n      tag_264\n      jump\t// in\n    tag_263:\n      mload(0x40)\n      dup1\n      swap2\n      sub\n      swap1\n      revert\n    tag_262:\n        /* \"marketplace.sol\":5315:5337  uint256[] memory Price */\n      0x00\n        /* \"marketplace.sol\":5354:5369  shoseShellCount */\n      dup2\n        /* \"marketplace.sol\":5340:5370  new uint256[](shoseShellCount) */\n      0xffffffffffffffff\n      dup2\n      gt\n      iszero\n      tag_265\n      jumpi\n      tag_266\n      tag_267\n      jump\t// in\n    tag_266:\n    tag_265:\n      mload(0x40)\n      swap1\n      dup1\n      dup3\n      mstore\n      dup1\n      0x20\n      mul\n      0x20\n      add\n      dup3\n      add\n      0x40\n      mstore\n      dup1\n      iszero\n      tag_268\n      jumpi\n      dup2\n      0x20\n      add\n      0x20\n      dup3\n      mul\n      dup1\n      calldatasize\n      dup4\n      calldatacopy\n      dup1\n      dup3\n      add\n      swap2\n      pop\n      pop\n      swap1\n      pop\n    tag_268:\n      pop\n        /* \"marketplace.sol\":5315:5370  uint256[] memory Price = new uint256[](shoseShellCount) */\n      swap1\n      pop\n        /* \"marketplace.sol\":5380:5402  address[] memory owner */\n      0x00\n        /* \"marketplace.sol\":5419:5434  shoseShellCount */\n      dup3\n        /* \"marketplace.sol\":5405:5435  new address[](shoseShellCount) */\n      0xffffffffffffffff\n      dup2\n      gt\n      iszero\n      tag_269\n      jumpi\n      tag_270\n      tag_267\n      jump\t// in\n    tag_270:\n    tag_269:\n      mload(0x40)\n      swap1\n      dup1\n      dup3\n      mstore\n      dup1\n      0x20\n      mul\n      0x20\n      add\n      dup3\n      add\n      0x40\n      mstore\n      dup1\n      iszero\n      tag_271\n      jumpi\n      dup2\n      0x20\n      add\n      0x20\n      dup3\n      mul\n      dup1\n      calldatasize\n      dup4\n      calldatacopy\n      dup1\n      dup3\n      add\n      swap2\n      pop\n      pop\n      swap1\n      pop\n    tag_271:\n      pop\n        /* \"marketplace.sol\":5380:5435  address[] memory owner = new address[](shoseShellCount) */\n      swap1\n      pop\n        /* \"marketplace.sol\":5450:5459  uint256 i */\n      0x00\n        /* \"marketplace.sol\":5462:5467  start */\n      dup9\n        /* \"marketplace.sol\":5450:5467  uint256 i = start */\n      swap1\n      pop\n        /* \"marketplace.sol\":5445:5634  for (uint256 i = start; i <= end; i++) {... */\n    tag_272:\n        /* \"marketplace.sol\":5474:5477  end */\n      dup8\n        /* \"marketplace.sol\":5469:5470  i */\n      dup2\n        /* \"marketplace.sol\":5469:5477  i <= end */\n      gt\n        /* \"marketplace.sol\":5445:5634  for (uint256 i = start; i <= end; i++) {... */\n      tag_273\n      jumpi\n        /* \"marketplace.sol\":5509:5519  shoseShell */\n      0x08\n        /* \"marketplace.sol\":5509:5537  shoseShell[allTokensSell[i]] */\n      0x00\n        /* \"marketplace.sol\":5520:5533  allTokensSell */\n      0x09\n        /* \"marketplace.sol\":5534:5535  i */\n      dup4\n        /* \"marketplace.sol\":5520:5536  allTokensSell[i] */\n      dup2\n      sload\n      dup2\n      lt\n      tag_275\n      jumpi\n      tag_276\n      tag_277\n      jump\t// in\n    tag_276:\n    tag_275:\n      swap1\n      0x00\n      mstore\n      keccak256(0x00, 0x20)\n      add\n      sload\n        /* \"marketplace.sol\":5509:5537  shoseShell[allTokensSell[i]] */\n      dup2\n      mstore\n      0x20\n      add\n      swap1\n      dup2\n      mstore\n      0x20\n      add\n      0x00\n      keccak256\n      sload\n        /* \"marketplace.sol\":5498:5503  Price */\n      dup4\n        /* \"marketplace.sol\":5504:5505  i */\n      dup3\n        /* \"marketplace.sol\":5498:5506  Price[i] */\n      dup2\n      mload\n      dup2\n      lt\n      tag_279\n      jumpi\n      tag_280\n      tag_277\n      jump\t// in\n    tag_280:\n    tag_279:\n      0x20\n      mul\n      0x20\n      add\n      add\n        /* \"marketplace.sol\":5498:5537  Price[i] = shoseShell[allTokensSell[i]] */\n      dup2\n      dup2\n      mstore\n      pop\n      pop\n        /* \"marketplace.sol\":5580:5596  ShoseNFTContract */\n      0x03\n      0x00\n      swap1\n      sload\n      swap1\n      0x0100\n      exp\n      swap1\n      div\n      0xffffffffffffffffffffffffffffffffffffffff\n      and\n        /* \"marketplace.sol\":5562:5605  IERC721Enumerable(ShoseNFTContract).ownerOf */\n      0xffffffffffffffffffffffffffffffffffffffff\n      and\n      0x6352211e\n        /* \"marketplace.sol\":5606:5619  allTokensSell */\n      0x09\n        /* \"marketplace.sol\":5620:5621  i */\n      dup4\n        /* \"marketplace.sol\":5606:5622  allTokensSell[i] */\n      dup2\n      sload\n      dup2\n      lt\n      tag_281\n      jumpi\n      tag_282\n      tag_277\n      jump\t// in\n    tag_282:\n    tag_281:\n      swap1\n      0x00\n      mstore\n      keccak256(0x00, 0x20)\n      add\n      sload\n        /* \"marketplace.sol\":5562:5623  IERC721Enumerable(ShoseNFTContract).ownerOf(allTokensSell[i]) */\n      mload(0x40)\n      dup3\n      0xffffffff\n      and\n      0xe0\n      shl\n      dup2\n      mstore\n      0x04\n      add\n      tag_284\n      swap2\n      swap1\n      tag_90\n      jump\t// in\n    tag_284:\n      0x20\n      mload(0x40)\n      dup1\n      dup4\n      sub\n      dup2\n      dup7\n      dup1\n      extcodesize\n      iszero\n      dup1\n      iszero\n      tag_285\n      jumpi\n      0x00\n      dup1\n      revert\n    tag_285:\n      pop\n      gas\n      staticcall\n      iszero\n      dup1\n      iszero\n      tag_287\n      jumpi\n      returndatasize\n      0x00\n      dup1\n      returndatacopy\n      revert(0x00, returndatasize)\n    tag_287:\n      pop\n      pop\n      pop\n      pop\n      mload(0x40)\n      returndatasize\n      not(0x1f)\n      0x1f\n      dup3\n      add\n      and\n      dup3\n      add\n      dup1\n      0x40\n      mstore\n      pop\n      dup2\n      add\n      swap1\n      tag_288\n      swap2\n      swap1\n      tag_139\n      jump\t// in\n    tag_288:\n        /* \"marketplace.sol\":5551:5556  owner */\n      dup3\n        /* \"marketplace.sol\":5557:5558  i */\n      dup3\n        /* \"marketplace.sol\":5551:5559  owner[i] */\n      dup2\n      mload\n      dup2\n      lt\n      tag_289\n      jumpi\n      tag_290\n      tag_277\n      jump\t// in\n    tag_290:\n    tag_289:\n      0x20\n      mul\n      0x20\n      add\n      add\n        /* \"marketplace.sol\":5551:5623  owner[i] = IERC721Enumerable(ShoseNFTContract).ownerOf(allTokensSell[i]) */\n      swap1\n      0xffffffffffffffffffffffffffffffffffffffff\n      and\n      swap1\n      dup2\n      0xffffffffffffffffffffffffffffffffffffffff\n      and\n      dup2\n      mstore\n      pop\n      pop\n        /* \"marketplace.sol\":5479:5482  i++ */\n      dup1\n      dup1\n      tag_291\n      swap1\n      tag_292\n      jump\t// in\n    tag_291:\n      swap2\n      pop\n      pop\n        /* \"marketplace.sol\":5445:5634  for (uint256 i = start; i <= end; i++) {... */\n      jump(tag_272)\n    tag_273:\n      pop\n        /* \"marketplace.sol\":5651:5664  allTokensSell */\n      0x09\n        /* \"marketplace.sol\":5665:5670  owner */\n      dup2\n        /* \"marketplace.sol\":5671:5676  Price */\n      dup4\n        /* \"marketplace.sol\":5643:5677  return (allTokensSell,owner,Price) */\n      dup3\n      dup1\n      sload\n      dup1\n      0x20\n      mul\n      0x20\n      add\n      mload(0x40)\n      swap1\n      dup2\n      add\n      0x40\n      mstore\n      dup1\n      swap3\n      swap2\n      swap1\n      dup2\n      dup2\n      mstore\n      0x20\n      add\n      dup3\n      dup1\n      sload\n      dup1\n      iszero\n      tag_293\n      jumpi\n      0x20\n      mul\n      dup3\n      add\n      swap2\n      swap1\n      0x00\n      mstore\n      keccak256(0x00, 0x20)\n      swap1\n    tag_294:\n      dup2\n      sload\n      dup2\n      mstore\n      0x20\n      add\n      swap1\n      0x01\n      add\n      swap1\n      dup1\n      dup4\n      gt\n      tag_294\n      jumpi\n    tag_293:\n      pop\n      pop\n      pop\n      pop\n      pop\n      swap3\n      pop\n      swap6\n      pop\n      swap6\n      pop\n      swap6\n      pop\n      pop\n      pop\n      pop\n        /* \"marketplace.sol\":4951:5684  function getSellingShose(uint256 start, uint256 end) external view returns (uint256[] memory _tokenID,address[] memory _owner, uint256[] memory _Price) {... */\n      swap3\n      pop\n      swap3\n      pop\n      swap3\n      jump\t// out\n        /* \"marketplace.sol\":4006:4434  function removeNFTSell(uint256 tokenId) internal{... */\n    tag_144:\n        /* \"marketplace.sol\":4071:4081  shoseShell */\n      0x08\n        /* \"marketplace.sol\":4071:4090  shoseShell[tokenId] */\n      0x00\n        /* \"marketplace.sol\":4082:4089  tokenId */\n      dup3\n        /* \"marketplace.sol\":4071:4090  shoseShell[tokenId] */\n      dup2\n      mstore\n      0x20\n      add\n      swap1\n      dup2\n      mstore\n      0x20\n      add\n      0x00\n      keccak256\n        /* \"marketplace.sol\":4064:4090  delete shoseShell[tokenId] */\n      0x00\n      swap1\n      sstore\n        /* \"marketplace.sol\":4104:4113  uint256 i */\n      0x00\n        /* \"marketplace.sol\":4100:4428  for(uint256 i = 0; i < allTokensSell.length; i++){... */\n    tag_296:\n        /* \"marketplace.sol\":4123:4136  allTokensSell */\n      0x09\n        /* \"marketplace.sol\":4123:4143  allTokensSell.length */\n      dup1\n      sload\n      swap1\n      pop\n        /* \"marketplace.sol\":4119:4120  i */\n      dup2\n        /* \"marketplace.sol\":4119:4143  i < allTokensSell.length */\n      lt\n        /* \"marketplace.sol\":4100:4428  for(uint256 i = 0; i < allTokensSell.length; i++){... */\n      iszero\n      tag_297\n      jumpi\n        /* \"marketplace.sol\":4186:4193  tokenId */\n      dup2\n        /* \"marketplace.sol\":4166:4179  allTokensSell */\n      0x09\n        /* \"marketplace.sol\":4180:4181  i */\n      dup3\n        /* \"marketplace.sol\":4166:4182  allTokensSell[i] */\n      dup2\n      sload\n      dup2\n      lt\n      tag_299\n      jumpi\n      tag_300\n      tag_277\n      jump\t// in\n    tag_300:\n    tag_299:\n      swap1\n      0x00\n      mstore\n      keccak256(0x00, 0x20)\n      add\n      sload\n        /* \"marketplace.sol\":4166:4193  allTokensSell[i] == tokenId */\n      eq\n        /* \"marketplace.sol\":4163:4418  if(allTokensSell[i] == tokenId){... */\n      iszero\n      tag_302\n      jumpi\n        /* \"marketplace.sol\":4216:4225  uint256 k */\n      0x00\n        /* \"marketplace.sol\":4228:4229  i */\n      dup2\n        /* \"marketplace.sol\":4216:4229  uint256 k = i */\n      swap1\n      pop\n        /* \"marketplace.sol\":4212:4343  for(uint256 k = i; k < allTokensSell.length - 1; k++){... */\n    tag_303:\n        /* \"marketplace.sol\":4258:4259  1 */\n      0x01\n        /* \"marketplace.sol\":4235:4248  allTokensSell */\n      0x09\n        /* \"marketplace.sol\":4235:4255  allTokensSell.length */\n      dup1\n      sload\n      swap1\n      pop\n        /* \"marketplace.sol\":4235:4259  allTokensSell.length - 1 */\n      tag_306\n      swap2\n      swap1\n      tag_307\n      jump\t// in\n    tag_306:\n        /* \"marketplace.sol\":4231:4232  k */\n      dup2\n        /* \"marketplace.sol\":4231:4259  k < allTokensSell.length - 1 */\n      lt\n        /* \"marketplace.sol\":4212:4343  for(uint256 k = i; k < allTokensSell.length - 1; k++){... */\n      iszero\n      tag_304\n      jumpi\n        /* \"marketplace.sol\":4306:4319  allTokensSell */\n      0x09\n        /* \"marketplace.sol\":4322:4323  1 */\n      0x01\n        /* \"marketplace.sol\":4320:4321  k */\n      dup3\n        /* \"marketplace.sol\":4320:4323  k+1 */\n      tag_308\n      swap2\n      swap1\n      tag_309\n      jump\t// in\n    tag_308:\n        /* \"marketplace.sol\":4306:4324  allTokensSell[k+1] */\n      dup2\n      sload\n      dup2\n      lt\n      tag_310\n      jumpi\n      tag_311\n      tag_277\n      jump\t// in\n    tag_311:\n    tag_310:\n      swap1\n      0x00\n      mstore\n      keccak256(0x00, 0x20)\n      add\n      sload\n        /* \"marketplace.sol\":4287:4300  allTokensSell */\n      0x09\n        /* \"marketplace.sol\":4301:4302  k */\n      dup3\n        /* \"marketplace.sol\":4287:4303  allTokensSell[k] */\n      dup2\n      sload\n      dup2\n      lt\n      tag_313\n      jumpi\n      tag_314\n      tag_277\n      jump\t// in\n    tag_314:\n    tag_313:\n      swap1\n      0x00\n      mstore\n      keccak256(0x00, 0x20)\n      add\n        /* \"marketplace.sol\":4287:4324  allTokensSell[k] = allTokensSell[k+1] */\n      dup2\n      swap1\n      sstore\n      pop\n        /* \"marketplace.sol\":4261:4264  k++ */\n      dup1\n      dup1\n      tag_316\n      swap1\n      tag_292\n      jump\t// in\n    tag_316:\n      swap2\n      pop\n      pop\n        /* \"marketplace.sol\":4212:4343  for(uint256 k = i; k < allTokensSell.length - 1; k++){... */\n      jump(tag_303)\n    tag_304:\n      pop\n        /* \"marketplace.sol\":4360:4373  allTokensSell */\n      0x09\n        /* \"marketplace.sol\":4360:4379  allTokensSell.pop() */\n      dup1\n      sload\n      dup1\n      tag_317\n      jumpi\n      tag_318\n      tag_319\n      jump\t// in\n    tag_318:\n    tag_317:\n      0x01\n      swap1\n      sub\n      dup2\n      dup2\n      swap1\n      0x00\n      mstore\n      keccak256(0x00, 0x20)\n      add\n      0x00\n      swap1\n      sstore\n      swap1\n      sstore\n        /* \"marketplace.sol\":4397:4404  return; */\n      pop\n      jump(tag_295)\n        /* \"marketplace.sol\":4163:4418  if(allTokensSell[i] == tokenId){... */\n    tag_302:\n        /* \"marketplace.sol\":4145:4148  i++ */\n      dup1\n      dup1\n      tag_321\n      swap1\n      tag_292\n      jump\t// in\n    tag_321:\n      swap2\n      pop\n      pop\n        /* \"marketplace.sol\":4100:4428  for(uint256 i = 0; i < allTokensSell.length; i++){... */\n      jump(tag_296)\n    tag_297:\n      pop\n        /* \"marketplace.sol\":4006:4434  function removeNFTSell(uint256 tokenId) internal{... */\n    tag_295:\n      pop\n      jump\t// out\n        /* \"marketplace.sol\":4440:4945  function addNFTSell(uint256 tokenId, uint256 price) internal{... */\n    tag_199:\n        /* \"marketplace.sol\":4532:4537  price */\n      dup1\n        /* \"marketplace.sol\":4510:4520  shoseShell */\n      0x08\n        /* \"marketplace.sol\":4510:4529  shoseShell[tokenId] */\n      0x00\n        /* \"marketplace.sol\":4521:4528  tokenId */\n      dup5\n        /* \"marketplace.sol\":4510:4529  shoseShell[tokenId] */\n      dup2\n      mstore\n      0x20\n      add\n      swap1\n      dup2\n      mstore\n      0x20\n      add\n      0x00\n      keccak256\n        /* \"marketplace.sol\":4510:4537  shoseShell[tokenId] = price */\n      dup2\n      swap1\n      sstore\n      pop\n        /* \"marketplace.sol\":4547:4560  allTokensSell */\n      0x09\n        /* \"marketplace.sol\":4566:4573  tokenId */\n      dup3\n        /* \"marketplace.sol\":4547:4574  allTokensSell.push(tokenId) */\n      swap1\n      dup1\n      0x01\n      dup2\n      sload\n      add\n      dup1\n      dup3\n      sstore\n      dup1\n      swap2\n      pop\n      pop\n      0x01\n      swap1\n      sub\n      swap1\n      0x00\n      mstore\n      keccak256(0x00, 0x20)\n      add\n      0x00\n      swap1\n      swap2\n      swap1\n      swap2\n      swap1\n      swap2\n      pop\n      sstore\n        /* \"marketplace.sol\":4611:4612  2 */\n      0x02\n        /* \"marketplace.sol\":4587:4600  allTokensSell */\n      0x09\n        /* \"marketplace.sol\":4587:4607  allTokensSell.length */\n      dup1\n      sload\n      swap1\n      pop\n        /* \"marketplace.sol\":4587:4612  allTokensSell.length >= 2 */\n      lt\n        /* \"marketplace.sol\":4584:4939  if(allTokensSell.length >= 2){... */\n      tag_324\n      jumpi\n        /* \"marketplace.sol\":4631:4640  uint256 i */\n      0x00\n        /* \"marketplace.sol\":4664:4665  2 */\n      0x02\n        /* \"marketplace.sol\":4643:4656  allTokensSell */\n      0x09\n        /* \"marketplace.sol\":4643:4663  allTokensSell.length */\n      dup1\n      sload\n      swap1\n      pop\n        /* \"marketplace.sol\":4643:4665  allTokensSell.length-2 */\n      tag_328\n      swap2\n      swap1\n      tag_307\n      jump\t// in\n    tag_328:\n        /* \"marketplace.sol\":4631:4665  uint256 i = allTokensSell.length-2 */\n      swap1\n      pop\n        /* \"marketplace.sol\":4627:4929  for(uint256 i = allTokensSell.length-2; i >=0; i--){... */\n    tag_325:\n        /* \"marketplace.sol\":4671:4672  0 */\n      0x00\n        /* \"marketplace.sol\":4667:4668  i */\n      dup2\n        /* \"marketplace.sol\":4667:4672  i >=0 */\n      lt\n        /* \"marketplace.sol\":4627:4929  for(uint256 i = allTokensSell.length-2; i >=0; i--){... */\n      tag_326\n      jumpi\n        /* \"marketplace.sol\":4730:4735  price */\n      dup2\n        /* \"marketplace.sol\":4699:4709  shoseShell */\n      0x08\n        /* \"marketplace.sol\":4699:4727  shoseShell[allTokensSell[i]] */\n      0x00\n        /* \"marketplace.sol\":4710:4723  allTokensSell */\n      0x09\n        /* \"marketplace.sol\":4724:4725  i */\n      dup5\n        /* \"marketplace.sol\":4710:4726  allTokensSell[i] */\n      dup2\n      sload\n      dup2\n      lt\n      tag_329\n      jumpi\n      tag_330\n      tag_277\n      jump\t// in\n    tag_330:\n    tag_329:\n      swap1\n      0x00\n      mstore\n      keccak256(0x00, 0x20)\n      add\n      sload\n        /* \"marketplace.sol\":4699:4727  shoseShell[allTokensSell[i]] */\n      dup2\n      mstore\n      0x20\n      add\n      swap1\n      dup2\n      mstore\n      0x20\n      add\n      0x00\n      keccak256\n      sload\n        /* \"marketplace.sol\":4699:4735  shoseShell[allTokensSell[i]] > price */\n      gt\n        /* \"marketplace.sol\":4696:4915  if(shoseShell[allTokensSell[i]] > price){... */\n      iszero\n      tag_332\n      jumpi\n        /* \"marketplace.sol\":4779:4792  allTokensSell */\n      0x09\n        /* \"marketplace.sol\":4793:4794  i */\n      dup2\n        /* \"marketplace.sol\":4779:4795  allTokensSell[i] */\n      dup2\n      sload\n      dup2\n      lt\n      tag_333\n      jumpi\n      tag_334\n      tag_277\n      jump\t// in\n    tag_334:\n    tag_333:\n      swap1\n      0x00\n      mstore\n      keccak256(0x00, 0x20)\n      add\n      sload\n        /* \"marketplace.sol\":4758:4771  allTokensSell */\n      0x09\n        /* \"marketplace.sol\":4774:4775  1 */\n      0x01\n        /* \"marketplace.sol\":4772:4773  i */\n      dup4\n        /* \"marketplace.sol\":4772:4775  i+1 */\n      tag_336\n      swap2\n      swap1\n      tag_309\n      jump\t// in\n    tag_336:\n        /* \"marketplace.sol\":4758:4776  allTokensSell[i+1] */\n      dup2\n      sload\n      dup2\n      lt\n      tag_337\n      jumpi\n      tag_338\n      tag_277\n      jump\t// in\n    tag_338:\n    tag_337:\n      swap1\n      0x00\n      mstore\n      keccak256(0x00, 0x20)\n      add\n        /* \"marketplace.sol\":4758:4795  allTokensSell[i+1] = allTokensSell[i] */\n      dup2\n      swap1\n      sstore\n      pop\n        /* \"marketplace.sol\":4696:4915  if(shoseShell[allTokensSell[i]] > price){... */\n      jump(tag_340)\n    tag_332:\n        /* \"marketplace.sol\":4861:4868  tokenId */\n      dup3\n        /* \"marketplace.sol\":4840:4853  allTokensSell */\n      0x09\n        /* \"marketplace.sol\":4856:4857  1 */\n      0x01\n        /* \"marketplace.sol\":4854:4855  i */\n      dup4\n        /* \"marketplace.sol\":4854:4857  i+1 */\n      tag_341\n      swap2\n      swap1\n      tag_309\n      jump\t// in\n    tag_341:\n        /* \"marketplace.sol\":4840:4858  allTokensSell[i+1] */\n      dup2\n      sload\n      dup2\n      lt\n      tag_342\n      jumpi\n      tag_343\n      tag_277\n      jump\t// in\n    tag_343:\n    tag_342:\n      swap1\n      0x00\n      mstore\n      keccak256(0x00, 0x20)\n      add\n        /* \"marketplace.sol\":4840:4868  allTokensSell[i+1] = tokenId */\n      dup2\n      swap1\n      sstore\n      pop\n        /* \"marketplace.sol\":4890:4897  return; */\n      pop\n      jump(tag_322)\n        /* \"marketplace.sol\":4696:4915  if(shoseShell[allTokensSell[i]] > price){... */\n    tag_340:\n        /* \"marketplace.sol\":4674:4677  i-- */\n      dup1\n      dup1\n      tag_345\n      swap1\n      tag_346\n      jump\t// in\n    tag_345:\n      swap2\n      pop\n      pop\n        /* \"marketplace.sol\":4627:4929  for(uint256 i = allTokensSell.length-2; i >=0; i--){... */\n      jump(tag_325)\n    tag_326:\n      pop\n        /* \"marketplace.sol\":4584:4939  if(allTokensSell.length >= 2){... */\n    tag_324:\n        /* \"marketplace.sol\":4440:4945  function addNFTSell(uint256 tokenId, uint256 price) internal{... */\n    tag_322:\n      pop\n      pop\n      jump\t// out\n        /* \"BEPContext.sol\":760:859  function _msgSender() internal view returns (address payable) {... */\n    tag_212:\n        /* \"BEPContext.sol\":805:820  address payable */\n      0x00\n        /* \"BEPContext.sol\":843:853  msg.sender */\n      caller\n        /* \"BEPContext.sol\":828:854  return payable(msg.sender) */\n      swap1\n      pop\n        /* \"BEPContext.sol\":760:859  function _msgSender() internal view returns (address payable) {... */\n      swap1\n      jump\t// out\n        /* \"BEPOwnable.sol\":2090:2301  function _transferOwnership(address newOwner) internal {... */\n    tag_254:\n        /* \"BEPOwnable.sol\":2179:2180  0 */\n      0x00\n        /* \"BEPOwnable.sol\":2159:2181  newOwner != address(0) */\n      0xffffffffffffffffffffffffffffffffffffffff\n      and\n        /* \"BEPOwnable.sol\":2159:2167  newOwner */\n      dup2\n        /* \"BEPOwnable.sol\":2159:2181  newOwner != address(0) */\n      0xffffffffffffffffffffffffffffffffffffffff\n      and\n      eq\n      iszero\n        /* \"BEPOwnable.sol\":2151:2224  require(newOwner != address(0), \"Ownable: new owner is the zero address\") */\n      tag_349\n      jumpi\n      mload(0x40)\n      0x08c379a000000000000000000000000000000000000000000000000000000000\n      dup2\n      mstore\n      0x04\n      add\n      tag_350\n      swap1\n      tag_351\n      jump\t// in\n    tag_350:\n      mload(0x40)\n      dup1\n      swap2\n      sub\n      swap1\n      revert\n    tag_349:\n        /* \"BEPOwnable.sol\":2264:2272  newOwner */\n      dup1\n        /* \"BEPOwnable.sol\":2235:2273  OwnershipTransferred(_owner, newOwner) */\n      0xffffffffffffffffffffffffffffffffffffffff\n      and\n        /* \"BEPOwnable.sol\":2256:2262  _owner */\n      0x00\n      dup1\n      sload\n      swap1\n      0x0100\n      exp\n      swap1\n      div\n      0xffffffffffffffffffffffffffffffffffffffff\n      and\n        /* \"BEPOwnable.sol\":2235:2273  OwnershipTransferred(_owner, newOwner) */\n      0xffffffffffffffffffffffffffffffffffffffff\n      and\n      0x8be0079c531659141344cd1fd0a4f28419497f9722a3daafe3b4186f6b6457e0\n      mload(0x40)\n      mload(0x40)\n      dup1\n      swap2\n      sub\n      swap1\n      log3\n        /* \"BEPOwnable.sol\":2288:2296  newOwner */\n      dup1\n        /* \"BEPOwnable.sol\":2279:2285  _owner */\n      0x00\n      dup1\n        /* \"BEPOwnable.sol\":2279:2296  _owner = newOwner */\n      0x0100\n      exp\n      dup2\n      sload\n      dup2\n      0xffffffffffffffffffffffffffffffffffffffff\n      mul\n      not\n      and\n      swap1\n      dup4\n      0xffffffffffffffffffffffffffffffffffffffff\n      and\n      mul\n      or\n      swap1\n      sstore\n      pop\n        /* \"BEPOwnable.sol\":2090:2301  function _transferOwnership(address newOwner) internal {... */\n      pop\n      jump\t// out\n        /* \"#utility.yul\":7:146   */\n    tag_353:\n        /* \"#utility.yul\":53:58   */\n      0x00\n        /* \"#utility.yul\":91:97   */\n      dup2\n        /* \"#utility.yul\":78:98   */\n      calldataload\n        /* \"#utility.yul\":69:98   */\n      swap1\n      pop\n        /* \"#utility.yul\":107:140   */\n      tag_355\n        /* \"#utility.yul\":134:139   */\n      dup2\n        /* \"#utility.yul\":107:140   */\n      tag_356\n      jump\t// in\n    tag_355:\n        /* \"#utility.yul\":7:146   */\n      swap3\n      swap2\n      pop\n      pop\n      jump\t// out\n        /* \"#utility.yul\":152:295   */\n    tag_357:\n        /* \"#utility.yul\":209:214   */\n      0x00\n        /* \"#utility.yul\":240:246   */\n      dup2\n        /* \"#utility.yul\":234:247   */\n      mload\n        /* \"#utility.yul\":225:247   */\n      swap1\n      pop\n        /* \"#utility.yul\":256:289   */\n      tag_359\n        /* \"#utility.yul\":283:288   */\n      dup2\n        /* \"#utility.yul\":256:289   */\n      tag_356\n      jump\t// in\n    tag_359:\n        /* \"#utility.yul\":152:295   */\n      swap3\n      swap2\n      pop\n      pop\n      jump\t// out\n        /* \"#utility.yul\":301:438   */\n    tag_360:\n        /* \"#utility.yul\":355:360   */\n      0x00\n        /* \"#utility.yul\":386:392   */\n      dup2\n        /* \"#utility.yul\":380:393   */\n      mload\n        /* \"#utility.yul\":371:393   */\n      swap1\n      pop\n        /* \"#utility.yul\":402:432   */\n      tag_362\n        /* \"#utility.yul\":426:431   */\n      dup2\n        /* \"#utility.yul\":402:432   */\n      tag_363\n      jump\t// in\n    tag_362:\n        /* \"#utility.yul\":301:438   */\n      swap3\n      swap2\n      pop\n      pop\n      jump\t// out\n        /* \"#utility.yul\":444:583   */\n    tag_364:\n        /* \"#utility.yul\":490:495   */\n      0x00\n        /* \"#utility.yul\":528:534   */\n      dup2\n        /* \"#utility.yul\":515:535   */\n      calldataload\n        /* \"#utility.yul\":506:535   */\n      swap1\n      pop\n        /* \"#utility.yul\":544:577   */\n      tag_366\n        /* \"#utility.yul\":571:576   */\n      dup2\n        /* \"#utility.yul\":544:577   */\n      tag_367\n      jump\t// in\n    tag_366:\n        /* \"#utility.yul\":444:583   */\n      swap3\n      swap2\n      pop\n      pop\n      jump\t// out\n        /* \"#utility.yul\":589:732   */\n    tag_368:\n        /* \"#utility.yul\":646:651   */\n      0x00\n        /* \"#utility.yul\":677:683   */\n      dup2\n        /* \"#utility.yul\":671:684   */\n      mload\n        /* \"#utility.yul\":662:684   */\n      swap1\n      pop\n        /* \"#utility.yul\":693:726   */\n      tag_370\n        /* \"#utility.yul\":720:725   */\n      dup2\n        /* \"#utility.yul\":693:726   */\n      tag_367\n      jump\t// in\n    tag_370:\n        /* \"#utility.yul\":589:732   */\n      swap3\n      swap2\n      pop\n      pop\n      jump\t// out\n        /* \"#utility.yul\":738:1067   */\n    tag_36:\n        /* \"#utility.yul\":797:803   */\n      0x00\n        /* \"#utility.yul\":846:848   */\n      0x20\n        /* \"#utility.yul\":834:843   */\n      dup3\n        /* \"#utility.yul\":825:832   */\n      dup5\n        /* \"#utility.yul\":821:844   */\n      sub\n        /* \"#utility.yul\":817:849   */\n      slt\n        /* \"#utility.yul\":814:933   */\n      iszero\n      tag_372\n      jumpi\n        /* \"#utility.yul\":852:931   */\n      tag_373\n      tag_374\n      jump\t// in\n    tag_373:\n        /* \"#utility.yul\":814:933   */\n    tag_372:\n        /* \"#utility.yul\":972:973   */\n      0x00\n        /* \"#utility.yul\":997:1050   */\n      tag_375\n        /* \"#utility.yul\":1042:1049   */\n      dup5\n        /* \"#utility.yul\":1033:1039   */\n      dup3\n        /* \"#utility.yul\":1022:1031   */\n      dup6\n        /* \"#utility.yul\":1018:1040   */\n      add\n        /* \"#utility.yul\":997:1050   */\n      tag_353\n      jump\t// in\n    tag_375:\n        /* \"#utility.yul\":987:1050   */\n      swap2\n      pop\n        /* \"#utility.yul\":943:1060   */\n      pop\n        /* \"#utility.yul\":738:1067   */\n      swap3\n      swap2\n      pop\n      pop\n      jump\t// out\n        /* \"#utility.yul\":1073:1424   */\n    tag_139:\n        /* \"#utility.yul\":1143:1149   */\n      0x00\n        /* \"#utility.yul\":1192:1194   */\n      0x20\n        /* \"#utility.yul\":1180:1189   */\n      dup3\n        /* \"#utility.yul\":1171:1178   */\n      dup5\n        /* \"#utility.yul\":1167:1190   */\n      sub\n        /* \"#utility.yul\":1163:1195   */\n      slt\n        /* \"#utility.yul\":1160:1279   */\n      iszero\n      tag_377\n      jumpi\n        /* \"#utility.yul\":1198:1277   */\n      tag_378\n      tag_374\n      jump\t// in\n    tag_378:\n        /* \"#utility.yul\":1160:1279   */\n    tag_377:\n        /* \"#utility.yul\":1318:1319   */\n      0x00\n        /* \"#utility.yul\":1343:1407   */\n      tag_379\n        /* \"#utility.yul\":1399:1406   */\n      dup5\n        /* \"#utility.yul\":1390:1396   */\n      dup3\n        /* \"#utility.yul\":1379:1388   */\n      dup6\n        /* \"#utility.yul\":1375:1397   */\n      add\n        /* \"#utility.yul\":1343:1407   */\n      tag_357\n      jump\t// in\n    tag_379:\n        /* \"#utility.yul\":1333:1407   */\n      swap2\n      pop\n        /* \"#utility.yul\":1289:1417   */\n      pop\n        /* \"#utility.yul\":1073:1424   */\n      swap3\n      swap2\n      pop\n      pop\n      jump\t// out\n        /* \"#utility.yul\":1430:1904   */\n    tag_64:\n        /* \"#utility.yul\":1498:1504   */\n      0x00\n        /* \"#utility.yul\":1506:1512   */\n      dup1\n        /* \"#utility.yul\":1555:1557   */\n      0x40\n        /* \"#utility.yul\":1543:1552   */\n      dup4\n        /* \"#utility.yul\":1534:1541   */\n      dup6\n        /* \"#utility.yul\":1530:1553   */\n      sub\n        /* \"#utility.yul\":1526:1558   */\n      slt\n        /* \"#utility.yul\":1523:1642   */\n      iszero\n      tag_381\n      jumpi\n        /* \"#utility.yul\":1561:1640   */\n      tag_382\n      tag_374\n      jump\t// in\n    tag_382:\n        /* \"#utility.yul\":1523:1642   */\n    tag_381:\n        /* \"#utility.yul\":1681:1682   */\n      0x00\n        /* \"#utility.yul\":1706:1759   */\n      tag_383\n        /* \"#utility.yul\":1751:1758   */\n      dup6\n        /* \"#utility.yul\":1742:1748   */\n      dup3\n        /* \"#utility.yul\":1731:1740   */\n      dup7\n        /* \"#utility.yul\":1727:1749   */\n      add\n        /* \"#utility.yul\":1706:1759   */\n      tag_353\n      jump\t// in\n    tag_383:\n        /* \"#utility.yul\":1696:1759   */\n      swap3\n      pop\n        /* \"#utility.yul\":1652:1769   */\n      pop\n        /* \"#utility.yul\":1808:1810   */\n      0x20\n        /* \"#utility.yul\":1834:1887   */\n      tag_384\n        /* \"#utility.yul\":1879:1886   */\n      dup6\n        /* \"#utility.yul\":1870:1876   */\n      dup3\n        /* \"#utility.yul\":1859:1868   */\n      dup7\n        /* \"#utility.yul\":1855:1877   */\n      add\n        /* \"#utility.yul\":1834:1887   */\n      tag_364\n      jump\t// in\n    tag_384:\n        /* \"#utility.yul\":1824:1887   */\n      swap2\n      pop\n        /* \"#utility.yul\":1779:1897   */\n      pop\n        /* \"#utility.yul\":1430:1904   */\n      swap3\n      pop\n      swap3\n      swap1\n      pop\n      jump\t// out\n        /* \"#utility.yul\":1910:2255   */\n    tag_156:\n        /* \"#utility.yul\":1977:1983   */\n      0x00\n        /* \"#utility.yul\":2026:2028   */\n      0x20\n        /* \"#utility.yul\":2014:2023   */\n      dup3\n        /* \"#utility.yul\":2005:2012   */\n      dup5\n        /* \"#utility.yul\":2001:2024   */\n      sub\n        /* \"#utility.yul\":1997:2029   */\n      slt\n        /* \"#utility.yul\":1994:2113   */\n      iszero\n      tag_386\n      jumpi\n        /* \"#utility.yul\":2032:2111   */\n      tag_387\n      tag_374\n      jump\t// in\n    tag_387:\n        /* \"#utility.yul\":1994:2113   */\n    tag_386:\n        /* \"#utility.yul\":2152:2153   */\n      0x00\n        /* \"#utility.yul\":2177:2238   */\n      tag_388\n        /* \"#utility.yul\":2230:2237   */\n      dup5\n        /* \"#utility.yul\":2221:2227   */\n      dup3\n        /* \"#utility.yul\":2210:2219   */\n      dup6\n        /* \"#utility.yul\":2206:2228   */\n      add\n        /* \"#utility.yul\":2177:2238   */\n      tag_360\n      jump\t// in\n    tag_388:\n        /* \"#utility.yul\":2167:2238   */\n      swap2\n      pop\n        /* \"#utility.yul\":2123:2248   */\n      pop\n        /* \"#utility.yul\":1910:2255   */\n      swap3\n      swap2\n      pop\n      pop\n      jump\t// out\n        /* \"#utility.yul\":2261:2590   */\n    tag_50:\n        /* \"#utility.yul\":2320:2326   */\n      0x00\n        /* \"#utility.yul\":2369:2371   */\n      0x20\n        /* \"#utility.yul\":2357:2366   */\n      dup3\n        /* \"#utility.yul\":2348:2355   */\n      dup5\n        /* \"#utility.yul\":2344:2367   */\n      sub\n        /* \"#utility.yul\":2340:2372   */\n      slt\n        /* \"#utility.yul\":2337:2456   */\n      iszero\n      tag_390\n      jumpi\n        /* \"#utility.yul\":2375:2454   */\n      tag_391\n      tag_374\n      jump\t// in\n    tag_391:\n        /* \"#utility.yul\":2337:2456   */\n    tag_390:\n        /* \"#utility.yul\":2495:2496   */\n      0x00\n        /* \"#utility.yul\":2520:2573   */\n      tag_392\n        /* \"#utility.yul\":2565:2572   */\n      dup5\n        /* \"#utility.yul\":2556:2562   */\n      dup3\n        /* \"#utility.yul\":2545:2554   */\n      dup6\n        /* \"#utility.yul\":2541:2563   */\n      add\n        /* \"#utility.yul\":2520:2573   */\n      tag_364\n      jump\t// in\n    tag_392:\n        /* \"#utility.yul\":2510:2573   */\n      swap2\n      pop\n        /* \"#utility.yul\":2466:2583   */\n      pop\n        /* \"#utility.yul\":2261:2590   */\n      swap3\n      swap2\n      pop\n      pop\n      jump\t// out\n        /* \"#utility.yul\":2596:2947   */\n    tag_231:\n        /* \"#utility.yul\":2666:2672   */\n      0x00\n        /* \"#utility.yul\":2715:2717   */\n      0x20\n        /* \"#utility.yul\":2703:2712   */\n      dup3\n        /* \"#utility.yul\":2694:2701   */\n      dup5\n        /* \"#utility.yul\":2690:2713   */\n      sub\n        /* \"#utility.yul\":2686:2718   */\n      slt\n        /* \"#utility.yul\":2683:2802   */\n      iszero\n      tag_394\n      jumpi\n        /* \"#utility.yul\":2721:2800   */\n      tag_395\n      tag_374\n      jump\t// in\n    tag_395:\n        /* \"#utility.yul\":2683:2802   */\n    tag_394:\n        /* \"#utility.yul\":2841:2842   */\n      0x00\n        /* \"#utility.yul\":2866:2930   */\n      tag_396\n        /* \"#utility.yul\":2922:2929   */\n      dup5\n        /* \"#utility.yul\":2913:2919   */\n      dup3\n        /* \"#utility.yul\":2902:2911   */\n      dup6\n        /* \"#utility.yul\":2898:2920   */\n      add\n        /* \"#utility.yul\":2866:2930   */\n      tag_368\n      jump\t// in\n    tag_396:\n        /* \"#utility.yul\":2856:2930   */\n      swap2\n      pop\n        /* \"#utility.yul\":2812:2940   */\n      pop\n        /* \"#utility.yul\":2596:2947   */\n      swap3\n      swap2\n      pop\n      pop\n      jump\t// out\n        /* \"#utility.yul\":2953:3427   */\n    tag_70:\n        /* \"#utility.yul\":3021:3027   */\n      0x00\n        /* \"#utility.yul\":3029:3035   */\n      dup1\n        /* \"#utility.yul\":3078:3080   */\n      0x40\n        /* \"#utility.yul\":3066:3075   */\n      dup4\n        /* \"#utility.yul\":3057:3064   */\n      dup6\n        /* \"#utility.yul\":3053:3076   */\n      sub\n        /* \"#utility.yul\":3049:3081   */\n      slt\n        /* \"#utility.yul\":3046:3165   */\n      iszero\n      tag_398\n      jumpi\n        /* \"#utility.yul\":3084:3163   */\n      tag_399\n      tag_374\n      jump\t// in\n    tag_399:\n        /* \"#utility.yul\":3046:3165   */\n    tag_398:\n        /* \"#utility.yul\":3204:3205   */\n      0x00\n        /* \"#utility.yul\":3229:3282   */\n      tag_400\n        /* \"#utility.yul\":3274:3281   */\n      dup6\n        /* \"#utility.yul\":3265:3271   */\n      dup3\n        /* \"#utility.yul\":3254:3263   */\n      dup7\n        /* \"#utility.yul\":3250:3272   */\n      add\n        /* \"#utility.yul\":3229:3282   */\n      tag_364\n      jump\t// in\n    tag_400:\n        /* \"#utility.yul\":3219:3282   */\n      swap3\n      pop\n        /* \"#utility.yul\":3175:3292   */\n      pop\n        /* \"#utility.yul\":3331:3333   */\n      0x20\n        /* \"#utility.yul\":3357:3410   */\n      tag_401\n        /* \"#utility.yul\":3402:3409   */\n      dup6\n        /* \"#utility.yul\":3393:3399   */\n      dup3\n        /* \"#utility.yul\":3382:3391   */\n      dup7\n        /* \"#utility.yul\":3378:3400   */\n      add\n        /* \"#utility.yul\":3357:3410   */\n      tag_364\n      jump\t// in\n    tag_401:\n        /* \"#utility.yul\":3347:3410   */\n      swap2\n      pop\n        /* \"#utility.yul\":3302:3420   */\n      pop\n        /* \"#utility.yul\":2953:3427   */\n      swap3\n      pop\n      swap3\n      swap1\n      pop\n      jump\t// out\n        /* \"#utility.yul\":3433:3612   */\n    tag_402:\n        /* \"#utility.yul\":3502:3512   */\n      0x00\n        /* \"#utility.yul\":3523:3569   */\n      tag_404\n        /* \"#utility.yul\":3565:3568   */\n      dup4\n        /* \"#utility.yul\":3557:3563   */\n      dup4\n        /* \"#utility.yul\":3523:3569   */\n      tag_405\n      jump\t// in\n    tag_404:\n        /* \"#utility.yul\":3601:3605   */\n      0x20\n        /* \"#utility.yul\":3596:3599   */\n      dup4\n        /* \"#utility.yul\":3592:3606   */\n      add\n        /* \"#utility.yul\":3578:3606   */\n      swap1\n      pop\n        /* \"#utility.yul\":3433:3612   */\n      swap3\n      swap2\n      pop\n      pop\n      jump\t// out\n        /* \"#utility.yul\":3618:3797   */\n    tag_406:\n        /* \"#utility.yul\":3687:3697   */\n      0x00\n        /* \"#utility.yul\":3708:3754   */\n      tag_408\n        /* \"#utility.yul\":3750:3753   */\n      dup4\n        /* \"#utility.yul\":3742:3748   */\n      dup4\n        /* \"#utility.yul\":3708:3754   */\n      tag_409\n      jump\t// in\n    tag_408:\n        /* \"#utility.yul\":3786:3790   */\n      0x20\n        /* \"#utility.yul\":3781:3784   */\n      dup4\n        /* \"#utility.yul\":3777:3791   */\n      add\n        /* \"#utility.yul\":3763:3791   */\n      swap1\n      pop\n        /* \"#utility.yul\":3618:3797   */\n      swap3\n      swap2\n      pop\n      pop\n      jump\t// out\n        /* \"#utility.yul\":3803:3911   */\n    tag_405:\n        /* \"#utility.yul\":3880:3904   */\n      tag_411\n        /* \"#utility.yul\":3898:3903   */\n      dup2\n        /* \"#utility.yul\":3880:3904   */\n      tag_412\n      jump\t// in\n    tag_411:\n        /* \"#utility.yul\":3875:3878   */\n      dup3\n        /* \"#utility.yul\":3868:3905   */\n      mstore\n        /* \"#utility.yul\":3803:3911   */\n      pop\n      pop\n      jump\t// out\n        /* \"#utility.yul\":3917:4035   */\n    tag_413:\n        /* \"#utility.yul\":4004:4028   */\n      tag_415\n        /* \"#utility.yul\":4022:4027   */\n      dup2\n        /* \"#utility.yul\":4004:4028   */\n      tag_412\n      jump\t// in\n    tag_415:\n        /* \"#utility.yul\":3999:4002   */\n      dup3\n        /* \"#utility.yul\":3992:4029   */\n      mstore\n        /* \"#utility.yul\":3917:4035   */\n      pop\n      pop\n      jump\t// out\n        /* \"#utility.yul\":4071:4803   */\n    tag_416:\n        /* \"#utility.yul\":4190:4193   */\n      0x00\n        /* \"#utility.yul\":4219:4273   */\n      tag_418\n        /* \"#utility.yul\":4267:4272   */\n      dup3\n        /* \"#utility.yul\":4219:4273   */\n      tag_419\n      jump\t// in\n    tag_418:\n        /* \"#utility.yul\":4289:4375   */\n      tag_420\n        /* \"#utility.yul\":4368:4374   */\n      dup2\n        /* \"#utility.yul\":4363:4366   */\n      dup6\n        /* \"#utility.yul\":4289:4375   */\n      tag_421\n      jump\t// in\n    tag_420:\n        /* \"#utility.yul\":4282:4375   */\n      swap4\n      pop\n        /* \"#utility.yul\":4399:4455   */\n      tag_422\n        /* \"#utility.yul\":4449:4454   */\n      dup4\n        /* \"#utility.yul\":4399:4455   */\n      tag_423\n      jump\t// in\n    tag_422:\n        /* \"#utility.yul\":4478:4485   */\n      dup1\n        /* \"#utility.yul\":4509:4510   */\n      0x00\n        /* \"#utility.yul\":4494:4778   */\n    tag_424:\n        /* \"#utility.yul\":4519:4525   */\n      dup4\n        /* \"#utility.yul\":4516:4517   */\n      dup2\n        /* \"#utility.yul\":4513:4526   */\n      lt\n        /* \"#utility.yul\":4494:4778   */\n      iszero\n      tag_426\n      jumpi\n        /* \"#utility.yul\":4595:4601   */\n      dup2\n        /* \"#utility.yul\":4589:4602   */\n      mload\n        /* \"#utility.yul\":4622:4685   */\n      tag_427\n        /* \"#utility.yul\":4681:4684   */\n      dup9\n        /* \"#utility.yul\":4666:4679   */\n      dup3\n        /* \"#utility.yul\":4622:4685   */\n      tag_402\n      jump\t// in\n    tag_427:\n        /* \"#utility.yul\":4615:4685   */\n      swap8\n      pop\n        /* \"#utility.yul\":4708:4768   */\n      tag_428\n        /* \"#utility.yul\":4761:4767   */\n      dup4\n        /* \"#utility.yul\":4708:4768   */\n      tag_429\n      jump\t// in\n    tag_428:\n        /* \"#utility.yul\":4698:4768   */\n      swap3\n      pop\n        /* \"#utility.yul\":4554:4778   */\n      pop\n        /* \"#utility.yul\":4541:4542   */\n      0x01\n        /* \"#utility.yul\":4538:4539   */\n      dup2\n        /* \"#utility.yul\":4534:4543   */\n      add\n        /* \"#utility.yul\":4529:4543   */\n      swap1\n      pop\n        /* \"#utility.yul\":4494:4778   */\n      jump(tag_424)\n    tag_426:\n        /* \"#utility.yul\":4498:4512   */\n      pop\n        /* \"#utility.yul\":4794:4797   */\n      dup6\n        /* \"#utility.yul\":4787:4797   */\n      swap4\n      pop\n        /* \"#utility.yul\":4195:4803   */\n      pop\n      pop\n      pop\n        /* \"#utility.yul\":4071:4803   */\n      swap3\n      swap2\n      pop\n      pop\n      jump\t// out\n        /* \"#utility.yul\":4839:5571   */\n    tag_430:\n        /* \"#utility.yul\":4958:4961   */\n      0x00\n        /* \"#utility.yul\":4987:5041   */\n      tag_432\n        /* \"#utility.yul\":5035:5040   */\n      dup3\n        /* \"#utility.yul\":4987:5041   */\n      tag_433\n      jump\t// in\n    tag_432:\n        /* \"#utility.yul\":5057:5143   */\n      tag_434\n        /* \"#utility.yul\":5136:5142   */\n      dup2\n        /* \"#utility.yul\":5131:5134   */\n      dup6\n        /* \"#utility.yul\":5057:5143   */\n      tag_435\n      jump\t// in\n    tag_434:\n        /* \"#utility.yul\":5050:5143   */\n      swap4\n      pop\n        /* \"#utility.yul\":5167:5223   */\n      tag_436\n        /* \"#utility.yul\":5217:5222   */\n      dup4\n        /* \"#utility.yul\":5167:5223   */\n      tag_437\n      jump\t// in\n    tag_436:\n        /* \"#utility.yul\":5246:5253   */\n      dup1\n        /* \"#utility.yul\":5277:5278   */\n      0x00\n        /* \"#utility.yul\":5262:5546   */\n    tag_438:\n        /* \"#utility.yul\":5287:5293   */\n      dup4\n        /* \"#utility.yul\":5284:5285   */\n      dup2\n        /* \"#utility.yul\":5281:5294   */\n      lt\n        /* \"#utility.yul\":5262:5546   */\n      iszero\n      tag_440\n      jumpi\n        /* \"#utility.yul\":5363:5369   */\n      dup2\n        /* \"#utility.yul\":5357:5370   */\n      mload\n        /* \"#utility.yul\":5390:5453   */\n      tag_441\n        /* \"#utility.yul\":5449:5452   */\n      dup9\n        /* \"#utility.yul\":5434:5447   */\n      dup3\n        /* \"#utility.yul\":5390:5453   */\n      tag_406\n      jump\t// in\n    tag_441:\n        /* \"#utility.yul\":5383:5453   */\n      swap8\n      pop\n        /* \"#utility.yul\":5476:5536   */\n      tag_442\n        /* \"#utility.yul\":5529:5535   */\n      dup4\n        /* \"#utility.yul\":5476:5536   */\n      tag_443\n      jump\t// in\n    tag_442:\n        /* \"#utility.yul\":5466:5536   */\n      swap3\n      pop\n        /* \"#utility.yul\":5322:5546   */\n      pop\n        /* \"#utility.yul\":5309:5310   */\n      0x01\n        /* \"#utility.yul\":5306:5307   */\n      dup2\n        /* \"#utility.yul\":5302:5311   */\n      add\n        /* \"#utility.yul\":5297:5311   */\n      swap1\n      pop\n        /* \"#utility.yul\":5262:5546   */\n      jump(tag_438)\n    tag_440:\n        /* \"#utility.yul\":5266:5280   */\n      pop\n        /* \"#utility.yul\":5562:5565   */\n      dup6\n        /* \"#utility.yul\":5555:5565   */\n      swap4\n      pop\n        /* \"#utility.yul\":4963:5571   */\n      pop\n      pop\n      pop\n        /* \"#utility.yul\":4839:5571   */\n      swap3\n      swap2\n      pop\n      pop\n      jump\t// out\n        /* \"#utility.yul\":5577:5686   */\n    tag_444:\n        /* \"#utility.yul\":5658:5679   */\n      tag_446\n        /* \"#utility.yul\":5673:5678   */\n      dup2\n        /* \"#utility.yul\":5658:5679   */\n      tag_447\n      jump\t// in\n    tag_446:\n        /* \"#utility.yul\":5653:5656   */\n      dup3\n        /* \"#utility.yul\":5646:5680   */\n      mstore\n        /* \"#utility.yul\":5577:5686   */\n      pop\n      pop\n      jump\t// out\n        /* \"#utility.yul\":5692:6058   */\n    tag_448:\n        /* \"#utility.yul\":5834:5837   */\n      0x00\n        /* \"#utility.yul\":5855:5922   */\n      tag_450\n        /* \"#utility.yul\":5919:5921   */\n      0x1d\n        /* \"#utility.yul\":5914:5917   */\n      dup4\n        /* \"#utility.yul\":5855:5922   */\n      tag_451\n      jump\t// in\n    tag_450:\n        /* \"#utility.yul\":5848:5922   */\n      swap2\n      pop\n        /* \"#utility.yul\":5931:6024   */\n      tag_452\n        /* \"#utility.yul\":6020:6023   */\n      dup3\n        /* \"#utility.yul\":5931:6024   */\n      tag_453\n      jump\t// in\n    tag_452:\n        /* \"#utility.yul\":6049:6051   */\n      0x20\n        /* \"#utility.yul\":6044:6047   */\n      dup3\n        /* \"#utility.yul\":6040:6052   */\n      add\n        /* \"#utility.yul\":6033:6052   */\n      swap1\n      pop\n        /* \"#utility.yul\":5692:6058   */\n      swap2\n      swap1\n      pop\n      jump\t// out\n        /* \"#utility.yul\":6064:6430   */\n    tag_454:\n        /* \"#utility.yul\":6206:6209   */\n      0x00\n        /* \"#utility.yul\":6227:6294   */\n      tag_456\n        /* \"#utility.yul\":6291:6293   */\n      0x0c\n        /* \"#utility.yul\":6286:6289   */\n      dup4\n        /* \"#utility.yul\":6227:6294   */\n      tag_451\n      jump\t// in\n    tag_456:\n        /* \"#utility.yul\":6220:6294   */\n      swap2\n      pop\n        /* \"#utility.yul\":6303:6396   */\n      tag_457\n        /* \"#utility.yul\":6392:6395   */\n      dup3\n        /* \"#utility.yul\":6303:6396   */\n      tag_458\n      jump\t// in\n    tag_457:\n        /* \"#utility.yul\":6421:6423   */\n      0x20\n        /* \"#utility.yul\":6416:6419   */\n      dup3\n        /* \"#utility.yul\":6412:6424   */\n      add\n        /* \"#utility.yul\":6405:6424   */\n      swap1\n      pop\n        /* \"#utility.yul\":6064:6430   */\n      swap2\n      swap1\n      pop\n      jump\t// out\n        /* \"#utility.yul\":6436:6802   */\n    tag_459:\n        /* \"#utility.yul\":6578:6581   */\n      0x00\n        /* \"#utility.yul\":6599:6666   */\n      tag_461\n        /* \"#utility.yul\":6663:6665   */\n      0x26\n        /* \"#utility.yul\":6658:6661   */\n      dup4\n        /* \"#utility.yul\":6599:6666   */\n      tag_451\n      jump\t// in\n    tag_461:\n        /* \"#utility.yul\":6592:6666   */\n      swap2\n      pop\n        /* \"#utility.yul\":6675:6768   */\n      tag_462\n        /* \"#utility.yul\":6764:6767   */\n      dup3\n        /* \"#utility.yul\":6675:6768   */\n      tag_463\n      jump\t// in\n    tag_462:\n        /* \"#utility.yul\":6793:6795   */\n      0x40\n        /* \"#utility.yul\":6788:6791   */\n      dup3\n        /* \"#utility.yul\":6784:6796   */\n      add\n        /* \"#utility.yul\":6777:6796   */\n      swap1\n      pop\n        /* \"#utility.yul\":6436:6802   */\n      swap2\n      swap1\n      pop\n      jump\t// out\n        /* \"#utility.yul\":6808:7174   */\n    tag_464:\n        /* \"#utility.yul\":6950:6953   */\n      0x00\n        /* \"#utility.yul\":6971:7038   */\n      tag_466\n        /* \"#utility.yul\":7035:7037   */\n      0x0a\n        /* \"#utility.yul\":7030:7033   */\n      dup4\n        /* \"#utility.yul\":6971:7038   */\n      tag_451\n      jump\t// in\n    tag_466:\n        /* \"#utility.yul\":6964:7038   */\n      swap2\n      pop\n        /* \"#utility.yul\":7047:7140   */\n      tag_467\n        /* \"#utility.yul\":7136:7139   */\n      dup3\n        /* \"#utility.yul\":7047:7140   */\n      tag_468\n      jump\t// in\n    tag_467:\n        /* \"#utility.yul\":7165:7167   */\n      0x20\n        /* \"#utility.yul\":7160:7163   */\n      dup3\n        /* \"#utility.yul\":7156:7168   */\n      add\n        /* \"#utility.yul\":7149:7168   */\n      swap1\n      pop\n        /* \"#utility.yul\":6808:7174   */\n      swap2\n      swap1\n      pop\n      jump\t// out\n        /* \"#utility.yul\":7180:7546   */\n    tag_469:\n        /* \"#utility.yul\":7322:7325   */\n      0x00\n        /* \"#utility.yul\":7343:7410   */\n      tag_471\n        /* \"#utility.yul\":7407:7409   */\n      0x18\n        /* \"#utility.yul\":7402:7405   */\n      dup4\n        /* \"#utility.yul\":7343:7410   */\n      tag_451\n      jump\t// in\n    tag_471:\n        /* \"#utility.yul\":7336:7410   */\n      swap2\n      pop\n        /* \"#utility.yul\":7419:7512   */\n      tag_472\n        /* \"#utility.yul\":7508:7511   */\n      dup3\n        /* \"#utility.yul\":7419:7512   */\n      tag_473\n      jump\t// in\n    tag_472:\n        /* \"#utility.yul\":7537:7539   */\n      0x20\n        /* \"#utility.yul\":7532:7535   */\n      dup3\n        /* \"#utility.yul\":7528:7540   */\n      add\n        /* \"#utility.yul\":7521:7540   */\n      swap1\n      pop\n        /* \"#utility.yul\":7180:7546   */\n      swap2\n      swap1\n      pop\n      jump\t// out\n        /* \"#utility.yul\":7552:7917   */\n    tag_474:\n        /* \"#utility.yul\":7694:7697   */\n      0x00\n        /* \"#utility.yul\":7715:7781   */\n      tag_476\n        /* \"#utility.yul\":7779:7780   */\n      0x09\n        /* \"#utility.yul\":7774:7777   */\n      dup4\n        /* \"#utility.yul\":7715:7781   */\n      tag_451\n      jump\t// in\n    tag_476:\n        /* \"#utility.yul\":7708:7781   */\n      swap2\n      pop\n        /* \"#utility.yul\":7790:7883   */\n      tag_477\n        /* \"#utility.yul\":7879:7882   */\n      dup3\n        /* \"#utility.yul\":7790:7883   */\n      tag_478\n      jump\t// in\n    tag_477:\n        /* \"#utility.yul\":7908:7910   */\n      0x20\n        /* \"#utility.yul\":7903:7906   */\n      dup3\n        /* \"#utility.yul\":7899:7911   */\n      add\n        /* \"#utility.yul\":7892:7911   */\n      swap1\n      pop\n        /* \"#utility.yul\":7552:7917   */\n      swap2\n      swap1\n      pop\n      jump\t// out\n        /* \"#utility.yul\":7923:8289   */\n    tag_479:\n        /* \"#utility.yul\":8065:8068   */\n      0x00\n        /* \"#utility.yul\":8086:8153   */\n      tag_481\n        /* \"#utility.yul\":8150:8152   */\n      0x28\n        /* \"#utility.yul\":8145:8148   */\n      dup4\n        /* \"#utility.yul\":8086:8153   */\n      tag_451\n      jump\t// in\n    tag_481:\n        /* \"#utility.yul\":8079:8153   */\n      swap2\n      pop\n        /* \"#utility.yul\":8162:8255   */\n      tag_482\n        /* \"#utility.yul\":8251:8254   */\n      dup3\n        /* \"#utility.yul\":8162:8255   */\n      tag_483\n      jump\t// in\n    tag_482:\n        /* \"#utility.yul\":8280:8282   */\n      0x40\n        /* \"#utility.yul\":8275:8278   */\n      dup3\n        /* \"#utility.yul\":8271:8283   */\n      add\n        /* \"#utility.yul\":8264:8283   */\n      swap1\n      pop\n        /* \"#utility.yul\":7923:8289   */\n      swap2\n      swap1\n      pop\n      jump\t// out\n        /* \"#utility.yul\":8295:8661   */\n    tag_484:\n        /* \"#utility.yul\":8437:8440   */\n      0x00\n        /* \"#utility.yul\":8458:8525   */\n      tag_486\n        /* \"#utility.yul\":8522:8524   */\n      0x14\n        /* \"#utility.yul\":8517:8520   */\n      dup4\n        /* \"#utility.yul\":8458:8525   */\n      tag_451\n      jump\t// in\n    tag_486:\n        /* \"#utility.yul\":8451:8525   */\n      swap2\n      pop\n        /* \"#utility.yul\":8534:8627   */\n      tag_487\n        /* \"#utility.yul\":8623:8626   */\n      dup3\n        /* \"#utility.yul\":8534:8627   */\n      tag_488\n      jump\t// in\n    tag_487:\n        /* \"#utility.yul\":8652:8654   */\n      0x20\n        /* \"#utility.yul\":8647:8650   */\n      dup3\n        /* \"#utility.yul\":8643:8655   */\n      add\n        /* \"#utility.yul\":8636:8655   */\n      swap1\n      pop\n        /* \"#utility.yul\":8295:8661   */\n      swap2\n      swap1\n      pop\n      jump\t// out\n        /* \"#utility.yul\":8667:9033   */\n    tag_489:\n        /* \"#utility.yul\":8809:8812   */\n      0x00\n        /* \"#utility.yul\":8830:8897   */\n      tag_491\n        /* \"#utility.yul\":8894:8896   */\n      0x20\n        /* \"#utility.yul\":8889:8892   */\n      dup4\n        /* \"#utility.yul\":8830:8897   */\n      tag_451\n      jump\t// in\n    tag_491:\n        /* \"#utility.yul\":8823:8897   */\n      swap2\n      pop\n        /* \"#utility.yul\":8906:8999   */\n      tag_492\n        /* \"#utility.yul\":8995:8998   */\n      dup3\n        /* \"#utility.yul\":8906:8999   */\n      tag_493\n      jump\t// in\n    tag_492:\n        /* \"#utility.yul\":9024:9026   */\n      0x20\n        /* \"#utility.yul\":9019:9022   */\n      dup3\n        /* \"#utility.yul\":9015:9027   */\n      add\n        /* \"#utility.yul\":9008:9027   */\n      swap1\n      pop\n        /* \"#utility.yul\":8667:9033   */\n      swap2\n      swap1\n      pop\n      jump\t// out\n        /* \"#utility.yul\":9039:9147   */\n    tag_409:\n        /* \"#utility.yul\":9116:9140   */\n      tag_495\n        /* \"#utility.yul\":9134:9139   */\n      dup2\n        /* \"#utility.yul\":9116:9140   */\n      tag_496\n      jump\t// in\n    tag_495:\n        /* \"#utility.yul\":9111:9114   */\n      dup3\n        /* \"#utility.yul\":9104:9141   */\n      mstore\n        /* \"#utility.yul\":9039:9147   */\n      pop\n      pop\n      jump\t// out\n        /* \"#utility.yul\":9153:9271   */\n    tag_497:\n        /* \"#utility.yul\":9240:9264   */\n      tag_499\n        /* \"#utility.yul\":9258:9263   */\n      dup2\n        /* \"#utility.yul\":9240:9264   */\n      tag_496\n      jump\t// in\n    tag_499:\n        /* \"#utility.yul\":9235:9238   */\n      dup3\n        /* \"#utility.yul\":9228:9265   */\n      mstore\n        /* \"#utility.yul\":9153:9271   */\n      pop\n      pop\n      jump\t// out\n        /* \"#utility.yul\":9277:9499   */\n    tag_33:\n        /* \"#utility.yul\":9370:9374   */\n      0x00\n        /* \"#utility.yul\":9408:9410   */\n      0x20\n        /* \"#utility.yul\":9397:9406   */\n      dup3\n        /* \"#utility.yul\":9393:9411   */\n      add\n        /* \"#utility.yul\":9385:9411   */\n      swap1\n      pop\n        /* \"#utility.yul\":9421:9492   */\n      tag_501\n        /* \"#utility.yul\":9489:9490   */\n      0x00\n        /* \"#utility.yul\":9478:9487   */\n      dup4\n        /* \"#utility.yul\":9474:9491   */\n      add\n        /* \"#utility.yul\":9465:9471   */\n      dup5\n        /* \"#utility.yul\":9421:9492   */\n      tag_413\n      jump\t// in\n    tag_501:\n        /* \"#utility.yul\":9277:9499   */\n      swap3\n      swap2\n      pop\n      pop\n      jump\t// out\n        /* \"#utility.yul\":9505:9837   */\n    tag_151:\n        /* \"#utility.yul\":9626:9630   */\n      0x00\n        /* \"#utility.yul\":9664:9666   */\n      0x40\n        /* \"#utility.yul\":9653:9662   */\n      dup3\n        /* \"#utility.yul\":9649:9667   */\n      add\n        /* \"#utility.yul\":9641:9667   */\n      swap1\n      pop\n        /* \"#utility.yul\":9677:9748   */\n      tag_503\n        /* \"#utility.yul\":9745:9746   */\n      0x00\n        /* \"#utility.yul\":9734:9743   */\n      dup4\n        /* \"#utility.yul\":9730:9747   */\n      add\n        /* \"#utility.yul\":9721:9727   */\n      dup6\n        /* \"#utility.yul\":9677:9748   */\n      tag_413\n      jump\t// in\n    tag_503:\n        /* \"#utility.yul\":9758:9830   */\n      tag_504\n        /* \"#utility.yul\":9826:9828   */\n      0x20\n        /* \"#utility.yul\":9815:9824   */\n      dup4\n        /* \"#utility.yul\":9811:9829   */\n      add\n        /* \"#utility.yul\":9802:9808   */\n      dup5\n        /* \"#utility.yul\":9758:9830   */\n      tag_413\n      jump\t// in\n    tag_504:\n        /* \"#utility.yul\":9505:9837   */\n      swap4\n      swap3\n      pop\n      pop\n      pop\n      jump\t// out\n        /* \"#utility.yul\":9843:10285   */\n    tag_167:\n        /* \"#utility.yul\":9992:9996   */\n      0x00\n        /* \"#utility.yul\":10030:10032   */\n      0x60\n        /* \"#utility.yul\":10019:10028   */\n      dup3\n        /* \"#utility.yul\":10015:10033   */\n      add\n        /* \"#utility.yul\":10007:10033   */\n      swap1\n      pop\n        /* \"#utility.yul\":10043:10114   */\n      tag_506\n        /* \"#utility.yul\":10111:10112   */\n      0x00\n        /* \"#utility.yul\":10100:10109   */\n      dup4\n        /* \"#utility.yul\":10096:10113   */\n      add\n        /* \"#utility.yul\":10087:10093   */\n      dup7\n        /* \"#utility.yul\":10043:10114   */\n      tag_413\n      jump\t// in\n    tag_506:\n        /* \"#utility.yul\":10124:10196   */\n      tag_507\n        /* \"#utility.yul\":10192:10194   */\n      0x20\n        /* \"#utility.yul\":10181:10190   */\n      dup4\n        /* \"#utility.yul\":10177:10195   */\n      add\n        /* \"#utility.yul\":10168:10174   */\n      dup6\n        /* \"#utility.yul\":10124:10196   */\n      tag_413\n      jump\t// in\n    tag_507:\n        /* \"#utility.yul\":10206:10278   */\n      tag_508\n        /* \"#utility.yul\":10274:10276   */\n      0x40\n        /* \"#utility.yul\":10263:10272   */\n      dup4\n        /* \"#utility.yul\":10259:10277   */\n      add\n        /* \"#utility.yul\":10250:10256   */\n      dup5\n        /* \"#utility.yul\":10206:10278   */\n      tag_497\n      jump\t// in\n    tag_508:\n        /* \"#utility.yul\":9843:10285   */\n      swap5\n      swap4\n      pop\n      pop\n      pop\n      pop\n      jump\t// out\n        /* \"#utility.yul\":10291:10623   */\n    tag_172:\n        /* \"#utility.yul\":10412:10416   */\n      0x00\n        /* \"#utility.yul\":10450:10452   */\n      0x40\n        /* \"#utility.yul\":10439:10448   */\n      dup3\n        /* \"#utility.yul\":10435:10453   */\n      add\n        /* \"#utility.yul\":10427:10453   */\n      swap1\n      pop\n        /* \"#utility.yul\":10463:10534   */\n      tag_510\n        /* \"#utility.yul\":10531:10532   */\n      0x00\n        /* \"#utility.yul\":10520:10529   */\n      dup4\n        /* \"#utility.yul\":10516:10533   */\n      add\n        /* \"#utility.yul\":10507:10513   */\n      dup6\n        /* \"#utility.yul\":10463:10534   */\n      tag_413\n      jump\t// in\n    tag_510:\n        /* \"#utility.yul\":10544:10616   */\n      tag_511\n        /* \"#utility.yul\":10612:10614   */\n      0x20\n        /* \"#utility.yul\":10601:10610   */\n      dup4\n        /* \"#utility.yul\":10597:10615   */\n      add\n        /* \"#utility.yul\":10588:10594   */\n      dup5\n        /* \"#utility.yul\":10544:10616   */\n      tag_497\n      jump\t// in\n    tag_511:\n        /* \"#utility.yul\":10291:10623   */\n      swap4\n      swap3\n      pop\n      pop\n      pop\n      jump\t// out\n        /* \"#utility.yul\":10629:11524   */\n    tag_110:\n        /* \"#utility.yul\":10928:10932   */\n      0x00\n        /* \"#utility.yul\":10966:10968   */\n      0x60\n        /* \"#utility.yul\":10955:10964   */\n      dup3\n        /* \"#utility.yul\":10951:10969   */\n      add\n        /* \"#utility.yul\":10943:10969   */\n      swap1\n      pop\n        /* \"#utility.yul\":11015:11024   */\n      dup2\n        /* \"#utility.yul\":11009:11013   */\n      dup2\n        /* \"#utility.yul\":11005:11025   */\n      sub\n        /* \"#utility.yul\":11001:11002   */\n      0x00\n        /* \"#utility.yul\":10990:10999   */\n      dup4\n        /* \"#utility.yul\":10986:11003   */\n      add\n        /* \"#utility.yul\":10979:11026   */\n      mstore\n        /* \"#utility.yul\":11043:11151   */\n      tag_513\n        /* \"#utility.yul\":11146:11150   */\n      dup2\n        /* \"#utility.yul\":11137:11143   */\n      dup7\n        /* \"#utility.yul\":11043:11151   */\n      tag_430\n      jump\t// in\n    tag_513:\n        /* \"#utility.yul\":11035:11151   */\n      swap1\n      pop\n        /* \"#utility.yul\":11198:11207   */\n      dup2\n        /* \"#utility.yul\":11192:11196   */\n      dup2\n        /* \"#utility.yul\":11188:11208   */\n      sub\n        /* \"#utility.yul\":11183:11185   */\n      0x20\n        /* \"#utility.yul\":11172:11181   */\n      dup4\n        /* \"#utility.yul\":11168:11186   */\n      add\n        /* \"#utility.yul\":11161:11209   */\n      mstore\n        /* \"#utility.yul\":11226:11334   */\n      tag_514\n        /* \"#utility.yul\":11329:11333   */\n      dup2\n        /* \"#utility.yul\":11320:11326   */\n      dup6\n        /* \"#utility.yul\":11226:11334   */\n      tag_416\n      jump\t// in\n    tag_514:\n        /* \"#utility.yul\":11218:11334   */\n      swap1\n      pop\n        /* \"#utility.yul\":11381:11390   */\n      dup2\n        /* \"#utility.yul\":11375:11379   */\n      dup2\n        /* \"#utility.yul\":11371:11391   */\n      sub\n        /* \"#utility.yul\":11366:11368   */\n      0x40\n        /* \"#utility.yul\":11355:11364   */\n      dup4\n        /* \"#utility.yul\":11351:11369   */\n      add\n        /* \"#utility.yul\":11344:11392   */\n      mstore\n        /* \"#utility.yul\":11409:11517   */\n      tag_515\n        /* \"#utility.yul\":11512:11516   */\n      dup2\n        /* \"#utility.yul\":11503:11509   */\n      dup5\n        /* \"#utility.yul\":11409:11517   */\n      tag_430\n      jump\t// in\n    tag_515:\n        /* \"#utility.yul\":11401:11517   */\n      swap1\n      pop\n        /* \"#utility.yul\":10629:11524   */\n      swap5\n      swap4\n      pop\n      pop\n      pop\n      pop\n      jump\t// out\n        /* \"#utility.yul\":11530:11740   */\n    tag_44:\n        /* \"#utility.yul\":11617:11621   */\n      0x00\n        /* \"#utility.yul\":11655:11657   */\n      0x20\n        /* \"#utility.yul\":11644:11653   */\n      dup3\n        /* \"#utility.yul\":11640:11658   */\n      add\n        /* \"#utility.yul\":11632:11658   */\n      swap1\n      pop\n        /* \"#utility.yul\":11668:11733   */\n      tag_517\n        /* \"#utility.yul\":11730:11731   */\n      0x00\n        /* \"#utility.yul\":11719:11728   */\n      dup4\n        /* \"#utility.yul\":11715:11732   */\n      add\n        /* \"#utility.yul\":11706:11712   */\n      dup5\n        /* \"#utility.yul\":11668:11733   */\n      tag_444\n      jump\t// in\n    tag_517:\n        /* \"#utility.yul\":11530:11740   */\n      swap3\n      swap2\n      pop\n      pop\n      jump\t// out\n        /* \"#utility.yul\":11746:12165   */\n    tag_142:\n        /* \"#utility.yul\":11912:11916   */\n      0x00\n        /* \"#utility.yul\":11950:11952   */\n      0x20\n        /* \"#utility.yul\":11939:11948   */\n      dup3\n        /* \"#utility.yul\":11935:11953   */\n      add\n        /* \"#utility.yul\":11927:11953   */\n      swap1\n      pop\n        /* \"#utility.yul\":11999:12008   */\n      dup2\n        /* \"#utility.yul\":11993:11997   */\n      dup2\n        /* \"#utility.yul\":11989:12009   */\n      sub\n        /* \"#utility.yul\":11985:11986   */\n      0x00\n        /* \"#utility.yul\":11974:11983   */\n      dup4\n        /* \"#utility.yul\":11970:11987   */\n      add\n        /* \"#utility.yul\":11963:12010   */\n      mstore\n        /* \"#utility.yul\":12027:12158   */\n      tag_519\n        /* \"#utility.yul\":12153:12157   */\n      dup2\n        /* \"#utility.yul\":12027:12158   */\n      tag_448\n      jump\t// in\n    tag_519:\n        /* \"#utility.yul\":12019:12158   */\n      swap1\n      pop\n        /* \"#utility.yul\":11746:12165   */\n      swap2\n      swap1\n      pop\n      jump\t// out\n        /* \"#utility.yul\":12171:12590   */\n    tag_259:\n        /* \"#utility.yul\":12337:12341   */\n      0x00\n        /* \"#utility.yul\":12375:12377   */\n      0x20\n        /* \"#utility.yul\":12364:12373   */\n      dup3\n        /* \"#utility.yul\":12360:12378   */\n      add\n        /* \"#utility.yul\":12352:12378   */\n      swap1\n      pop\n        /* \"#utility.yul\":12424:12433   */\n      dup2\n        /* \"#utility.yul\":12418:12422   */\n      dup2\n        /* \"#utility.yul\":12414:12434   */\n      sub\n        /* \"#utility.yul\":12410:12411   */\n      0x00\n        /* \"#utility.yul\":12399:12408   */\n      dup4\n        /* \"#utility.yul\":12395:12412   */\n      add\n        /* \"#utility.yul\":12388:12435   */\n      mstore\n        /* \"#utility.yul\":12452:12583   */\n      tag_521\n        /* \"#utility.yul\":12578:12582   */\n      dup2\n        /* \"#utility.yul\":12452:12583   */\n      tag_454\n      jump\t// in\n    tag_521:\n        /* \"#utility.yul\":12444:12583   */\n      swap1\n      pop\n        /* \"#utility.yul\":12171:12590   */\n      swap2\n      swap1\n      pop\n      jump\t// out\n        /* \"#utility.yul\":12596:13015   */\n    tag_351:\n        /* \"#utility.yul\":12762:12766   */\n      0x00\n        /* \"#utility.yul\":12800:12802   */\n      0x20\n        /* \"#utility.yul\":12789:12798   */\n      dup3\n        /* \"#utility.yul\":12785:12803   */\n      add\n        /* \"#utility.yul\":12777:12803   */\n      swap1\n      pop\n        /* \"#utility.yul\":12849:12858   */\n      dup2\n        /* \"#utility.yul\":12843:12847   */\n      dup2\n        /* \"#utility.yul\":12839:12859   */\n      sub\n        /* \"#utility.yul\":12835:12836   */\n      0x00\n        /* \"#utility.yul\":12824:12833   */\n      dup4\n        /* \"#utility.yul\":12820:12837   */\n      add\n        /* \"#utility.yul\":12813:12860   */\n      mstore\n        /* \"#utility.yul\":12877:13008   */\n      tag_523\n        /* \"#utility.yul\":13003:13007   */\n      dup2\n        /* \"#utility.yul\":12877:13008   */\n      tag_459\n      jump\t// in\n    tag_523:\n        /* \"#utility.yul\":12869:13008   */\n      swap1\n      pop\n        /* \"#utility.yul\":12596:13015   */\n      swap2\n      swap1\n      pop\n      jump\t// out\n        /* \"#utility.yul\":13021:13440   */\n    tag_264:\n        /* \"#utility.yul\":13187:13191   */\n      0x00\n        /* \"#utility.yul\":13225:13227   */\n      0x20\n        /* \"#utility.yul\":13214:13223   */\n      dup3\n        /* \"#utility.yul\":13210:13228   */\n      add\n        /* \"#utility.yul\":13202:13228   */\n      swap1\n      pop\n        /* \"#utility.yul\":13274:13283   */\n      dup2\n        /* \"#utility.yul\":13268:13272   */\n      dup2\n        /* \"#utility.yul\":13264:13284   */\n      sub\n        /* \"#utility.yul\":13260:13261   */\n      0x00\n        /* \"#utility.yul\":13249:13258   */\n      dup4\n        /* \"#utility.yul\":13245:13262   */\n      add\n        /* \"#utility.yul\":13238:13285   */\n      mstore\n        /* \"#utility.yul\":13302:13433   */\n      tag_525\n        /* \"#utility.yul\":13428:13432   */\n      dup2\n        /* \"#utility.yul\":13302:13433   */\n      tag_464\n      jump\t// in\n    tag_525:\n        /* \"#utility.yul\":13294:13433   */\n      swap1\n      pop\n        /* \"#utility.yul\":13021:13440   */\n      swap2\n      swap1\n      pop\n      jump\t// out\n        /* \"#utility.yul\":13446:13865   */\n    tag_165:\n        /* \"#utility.yul\":13612:13616   */\n      0x00\n        /* \"#utility.yul\":13650:13652   */\n      0x20\n        /* \"#utility.yul\":13639:13648   */\n      dup3\n        /* \"#utility.yul\":13635:13653   */\n      add\n        /* \"#utility.yul\":13627:13653   */\n      swap1\n      pop\n        /* \"#utility.yul\":13699:13708   */\n      dup2\n        /* \"#utility.yul\":13693:13697   */\n      dup2\n        /* \"#utility.yul\":13689:13709   */\n      sub\n        /* \"#utility.yul\":13685:13686   */\n      0x00\n        /* \"#utility.yul\":13674:13683   */\n      dup4\n        /* \"#utility.yul\":13670:13687   */\n      add\n        /* \"#utility.yul\":13663:13710   */\n      mstore\n        /* \"#utility.yul\":13727:13858   */\n      tag_527\n        /* \"#utility.yul\":13853:13857   */\n      dup2\n        /* \"#utility.yul\":13727:13858   */\n      tag_469\n      jump\t// in\n    tag_527:\n        /* \"#utility.yul\":13719:13858   */\n      swap1\n      pop\n        /* \"#utility.yul\":13446:13865   */\n      swap2\n      swap1\n      pop\n      jump\t// out\n        /* \"#utility.yul\":13871:14290   */\n    tag_197:\n        /* \"#utility.yul\":14037:14041   */\n      0x00\n        /* \"#utility.yul\":14075:14077   */\n      0x20\n        /* \"#utility.yul\":14064:14073   */\n      dup3\n        /* \"#utility.yul\":14060:14078   */\n      add\n        /* \"#utility.yul\":14052:14078   */\n      swap1\n      pop\n        /* \"#utility.yul\":14124:14133   */\n      dup2\n        /* \"#utility.yul\":14118:14122   */\n      dup2\n        /* \"#utility.yul\":14114:14134   */\n      sub\n        /* \"#utility.yul\":14110:14111   */\n      0x00\n        /* \"#utility.yul\":14099:14108   */\n      dup4\n        /* \"#utility.yul\":14095:14112   */\n      add\n        /* \"#utility.yul\":14088:14135   */\n      mstore\n        /* \"#utility.yul\":14152:14283   */\n      tag_529\n        /* \"#utility.yul\":14278:14282   */\n      dup2\n        /* \"#utility.yul\":14152:14283   */\n      tag_474\n      jump\t// in\n    tag_529:\n        /* \"#utility.yul\":14144:14283   */\n      swap1\n      pop\n        /* \"#utility.yul\":13871:14290   */\n      swap2\n      swap1\n      pop\n      jump\t// out\n        /* \"#utility.yul\":14296:14715   */\n    tag_159:\n        /* \"#utility.yul\":14462:14466   */\n      0x00\n        /* \"#utility.yul\":14500:14502   */\n      0x20\n        /* \"#utility.yul\":14489:14498   */\n      dup3\n        /* \"#utility.yul\":14485:14503   */\n      add\n        /* \"#utility.yul\":14477:14503   */\n      swap1\n      pop\n        /* \"#utility.yul\":14549:14558   */\n      dup2\n        /* \"#utility.yul\":14543:14547   */\n      dup2\n        /* \"#utility.yul\":14539:14559   */\n      sub\n        /* \"#utility.yul\":14535:14536   */\n      0x00\n        /* \"#utility.yul\":14524:14533   */\n      dup4\n        /* \"#utility.yul\":14520:14537   */\n      add\n        /* \"#utility.yul\":14513:14560   */\n      mstore\n        /* \"#utility.yul\":14577:14708   */\n      tag_531\n        /* \"#utility.yul\":14703:14707   */\n      dup2\n        /* \"#utility.yul\":14577:14708   */\n      tag_479\n      jump\t// in\n    tag_531:\n        /* \"#utility.yul\":14569:14708   */\n      swap1\n      pop\n        /* \"#utility.yul\":14296:14715   */\n      swap2\n      swap1\n      pop\n      jump\t// out\n        /* \"#utility.yul\":14721:15140   */\n    tag_162:\n        /* \"#utility.yul\":14887:14891   */\n      0x00\n        /* \"#utility.yul\":14925:14927   */\n      0x20\n        /* \"#utility.yul\":14914:14923   */\n      dup3\n        /* \"#utility.yul\":14910:14928   */\n      add\n        /* \"#utility.yul\":14902:14928   */\n      swap1\n      pop\n        /* \"#utility.yul\":14974:14983   */\n      dup2\n        /* \"#utility.yul\":14968:14972   */\n      dup2\n        /* \"#utility.yul\":14964:14984   */\n      sub\n        /* \"#utility.yul\":14960:14961   */\n      0x00\n        /* \"#utility.yul\":14949:14958   */\n      dup4\n        /* \"#utility.yul\":14945:14962   */\n      add\n        /* \"#utility.yul\":14938:14985   */\n      mstore\n        /* \"#utility.yul\":15002:15133   */\n      tag_533\n        /* \"#utility.yul\":15128:15132   */\n      dup2\n        /* \"#utility.yul\":15002:15133   */\n      tag_484\n      jump\t// in\n    tag_533:\n        /* \"#utility.yul\":14994:15133   */\n      swap1\n      pop\n        /* \"#utility.yul\":14721:15140   */\n      swap2\n      swap1\n      pop\n      jump\t// out\n        /* \"#utility.yul\":15146:15565   */\n    tag_115:\n        /* \"#utility.yul\":15312:15316   */\n      0x00\n        /* \"#utility.yul\":15350:15352   */\n      0x20\n        /* \"#utility.yul\":15339:15348   */\n      dup3\n        /* \"#utility.yul\":15335:15353   */\n      add\n        /* \"#utility.yul\":15327:15353   */\n      swap1\n      pop\n        /* \"#utility.yul\":15399:15408   */\n      dup2\n        /* \"#utility.yul\":15393:15397   */\n      dup2\n        /* \"#utility.yul\":15389:15409   */\n      sub\n        /* \"#utility.yul\":15385:15386   */\n      0x00\n        /* \"#utility.yul\":15374:15383   */\n      dup4\n        /* \"#utility.yul\":15370:15387   */\n      add\n        /* \"#utility.yul\":15363:15410   */\n      mstore\n        /* \"#utility.yul\":15427:15558   */\n      tag_535\n        /* \"#utility.yul\":15553:15557   */\n      dup2\n        /* \"#utility.yul\":15427:15558   */\n      tag_489\n      jump\t// in\n    tag_535:\n        /* \"#utility.yul\":15419:15558   */\n      swap1\n      pop\n        /* \"#utility.yul\":15146:15565   */\n      swap2\n      swap1\n      pop\n      jump\t// out\n        /* \"#utility.yul\":15571:15793   */\n    tag_90:\n        /* \"#utility.yul\":15664:15668   */\n      0x00\n        /* \"#utility.yul\":15702:15704   */\n      0x20\n        /* \"#utility.yul\":15691:15700   */\n      dup3\n        /* \"#utility.yul\":15687:15705   */\n      add\n        /* \"#utility.yul\":15679:15705   */\n      swap1\n      pop\n        /* \"#utility.yul\":15715:15786   */\n      tag_537\n        /* \"#utility.yul\":15783:15784   */\n      0x00\n        /* \"#utility.yul\":15772:15781   */\n      dup4\n        /* \"#utility.yul\":15768:15785   */\n      add\n        /* \"#utility.yul\":15759:15765   */\n      dup5\n        /* \"#utility.yul\":15715:15786   */\n      tag_497\n      jump\t// in\n    tag_537:\n        /* \"#utility.yul\":15571:15793   */\n      swap3\n      swap2\n      pop\n      pop\n      jump\t// out\n        /* \"#utility.yul\":15799:16131   */\n    tag_201:\n        /* \"#utility.yul\":15920:15924   */\n      0x00\n        /* \"#utility.yul\":15958:15960   */\n      0x40\n        /* \"#utility.yul\":15947:15956   */\n      dup3\n        /* \"#utility.yul\":15943:15961   */\n      add\n        /* \"#utility.yul\":15935:15961   */\n      swap1\n      pop\n        /* \"#utility.yul\":15971:16042   */\n      tag_539\n        /* \"#utility.yul\":16039:16040   */\n      0x00\n        /* \"#utility.yul\":16028:16037   */\n      dup4\n        /* \"#utility.yul\":16024:16041   */\n      add\n        /* \"#utility.yul\":16015:16021   */\n      dup6\n        /* \"#utility.yul\":15971:16042   */\n      tag_497\n      jump\t// in\n    tag_539:\n        /* \"#utility.yul\":16052:16124   */\n      tag_540\n        /* \"#utility.yul\":16120:16122   */\n      0x20\n        /* \"#utility.yul\":16109:16118   */\n      dup4\n        /* \"#utility.yul\":16105:16123   */\n      add\n        /* \"#utility.yul\":16096:16102   */\n      dup5\n        /* \"#utility.yul\":16052:16124   */\n      tag_497\n      jump\t// in\n    tag_540:\n        /* \"#utility.yul\":15799:16131   */\n      swap4\n      swap3\n      pop\n      pop\n      pop\n      jump\t// out\n        /* \"#utility.yul\":16218:16350   */\n    tag_423:\n        /* \"#utility.yul\":16285:16289   */\n      0x00\n        /* \"#utility.yul\":16308:16311   */\n      dup2\n        /* \"#utility.yul\":16300:16311   */\n      swap1\n      pop\n        /* \"#utility.yul\":16338:16342   */\n      0x20\n        /* \"#utility.yul\":16333:16336   */\n      dup3\n        /* \"#utility.yul\":16329:16343   */\n      add\n        /* \"#utility.yul\":16321:16343   */\n      swap1\n      pop\n        /* \"#utility.yul\":16218:16350   */\n      swap2\n      swap1\n      pop\n      jump\t// out\n        /* \"#utility.yul\":16356:16488   */\n    tag_437:\n        /* \"#utility.yul\":16423:16427   */\n      0x00\n        /* \"#utility.yul\":16446:16449   */\n      dup2\n        /* \"#utility.yul\":16438:16449   */\n      swap1\n      pop\n        /* \"#utility.yul\":16476:16480   */\n      0x20\n        /* \"#utility.yul\":16471:16474   */\n      dup3\n        /* \"#utility.yul\":16467:16481   */\n      add\n        /* \"#utility.yul\":16459:16481   */\n      swap1\n      pop\n        /* \"#utility.yul\":16356:16488   */\n      swap2\n      swap1\n      pop\n      jump\t// out\n        /* \"#utility.yul\":16494:16608   */\n    tag_419:\n        /* \"#utility.yul\":16561:16567   */\n      0x00\n        /* \"#utility.yul\":16595:16600   */\n      dup2\n        /* \"#utility.yul\":16589:16601   */\n      mload\n        /* \"#utility.yul\":16579:16601   */\n      swap1\n      pop\n        /* \"#utility.yul\":16494:16608   */\n      swap2\n      swap1\n      pop\n      jump\t// out\n        /* \"#utility.yul\":16614:16728   */\n    tag_433:\n        /* \"#utility.yul\":16681:16687   */\n      0x00\n        /* \"#utility.yul\":16715:16720   */\n      dup2\n        /* \"#utility.yul\":16709:16721   */\n      mload\n        /* \"#utility.yul\":16699:16721   */\n      swap1\n      pop\n        /* \"#utility.yul\":16614:16728   */\n      swap2\n      swap1\n      pop\n      jump\t// out\n        /* \"#utility.yul\":16734:16847   */\n    tag_429:\n        /* \"#utility.yul\":16804:16808   */\n      0x00\n        /* \"#utility.yul\":16836:16840   */\n      0x20\n        /* \"#utility.yul\":16831:16834   */\n      dup3\n        /* \"#utility.yul\":16827:16841   */\n      add\n        /* \"#utility.yul\":16819:16841   */\n      swap1\n      pop\n        /* \"#utility.yul\":16734:16847   */\n      swap2\n      swap1\n      pop\n      jump\t// out\n        /* \"#utility.yul\":16853:16966   */\n    tag_443:\n        /* \"#utility.yul\":16923:16927   */\n      0x00\n        /* \"#utility.yul\":16955:16959   */\n      0x20\n        /* \"#utility.yul\":16950:16953   */\n      dup3\n        /* \"#utility.yul\":16946:16960   */\n      add\n        /* \"#utility.yul\":16938:16960   */\n      swap1\n      pop\n        /* \"#utility.yul\":16853:16966   */\n      swap2\n      swap1\n      pop\n      jump\t// out\n        /* \"#utility.yul\":16972:17156   */\n    tag_421:\n        /* \"#utility.yul\":17071:17082   */\n      0x00\n        /* \"#utility.yul\":17105:17111   */\n      dup3\n        /* \"#utility.yul\":17100:17103   */\n      dup3\n        /* \"#utility.yul\":17093:17112   */\n      mstore\n        /* \"#utility.yul\":17145:17149   */\n      0x20\n        /* \"#utility.yul\":17140:17143   */\n      dup3\n        /* \"#utility.yul\":17136:17150   */\n      add\n        /* \"#utility.yul\":17121:17150   */\n      swap1\n      pop\n        /* \"#utility.yul\":16972:17156   */\n      swap3\n      swap2\n      pop\n      pop\n      jump\t// out\n        /* \"#utility.yul\":17162:17346   */\n    tag_435:\n        /* \"#utility.yul\":17261:17272   */\n      0x00\n        /* \"#utility.yul\":17295:17301   */\n      dup3\n        /* \"#utility.yul\":17290:17293   */\n      dup3\n        /* \"#utility.yul\":17283:17302   */\n      mstore\n        /* \"#utility.yul\":17335:17339   */\n      0x20\n        /* \"#utility.yul\":17330:17333   */\n      dup3\n        /* \"#utility.yul\":17326:17340   */\n      add\n        /* \"#utility.yul\":17311:17340   */\n      swap1\n      pop\n        /* \"#utility.yul\":17162:17346   */\n      swap3\n      swap2\n      pop\n      pop\n      jump\t// out\n        /* \"#utility.yul\":17352:17521   */\n    tag_451:\n        /* \"#utility.yul\":17436:17447   */\n      0x00\n        /* \"#utility.yul\":17470:17476   */\n      dup3\n        /* \"#utility.yul\":17465:17468   */\n      dup3\n        /* \"#utility.yul\":17458:17477   */\n      mstore\n        /* \"#utility.yul\":17510:17514   */\n      0x20\n        /* \"#utility.yul\":17505:17508   */\n      dup3\n        /* \"#utility.yul\":17501:17515   */\n      add\n        /* \"#utility.yul\":17486:17515   */\n      swap1\n      pop\n        /* \"#utility.yul\":17352:17521   */\n      swap3\n      swap2\n      pop\n      pop\n      jump\t// out\n        /* \"#utility.yul\":17527:17832   */\n    tag_309:\n        /* \"#utility.yul\":17567:17570   */\n      0x00\n        /* \"#utility.yul\":17586:17606   */\n      tag_553\n        /* \"#utility.yul\":17604:17605   */\n      dup3\n        /* \"#utility.yul\":17586:17606   */\n      tag_496\n      jump\t// in\n    tag_553:\n        /* \"#utility.yul\":17581:17606   */\n      swap2\n      pop\n        /* \"#utility.yul\":17620:17640   */\n      tag_554\n        /* \"#utility.yul\":17638:17639   */\n      dup4\n        /* \"#utility.yul\":17620:17640   */\n      tag_496\n      jump\t// in\n    tag_554:\n        /* \"#utility.yul\":17615:17640   */\n      swap3\n      pop\n        /* \"#utility.yul\":17774:17775   */\n      dup3\n        /* \"#utility.yul\":17706:17772   */\n      0xffffffffffffffffffffffffffffffffffffffffffffffffffffffffffffffff\n        /* \"#utility.yul\":17702:17776   */\n      sub\n        /* \"#utility.yul\":17699:17700   */\n      dup3\n        /* \"#utility.yul\":17696:17777   */\n      gt\n        /* \"#utility.yul\":17693:17800   */\n      iszero\n      tag_555\n      jumpi\n        /* \"#utility.yul\":17780:17798   */\n      tag_556\n      tag_557\n      jump\t// in\n    tag_556:\n        /* \"#utility.yul\":17693:17800   */\n    tag_555:\n        /* \"#utility.yul\":17824:17825   */\n      dup3\n        /* \"#utility.yul\":17821:17822   */\n      dup3\n        /* \"#utility.yul\":17817:17826   */\n      add\n        /* \"#utility.yul\":17810:17826   */\n      swap1\n      pop\n        /* \"#utility.yul\":17527:17832   */\n      swap3\n      swap2\n      pop\n      pop\n      jump\t// out\n        /* \"#utility.yul\":17838:18023   */\n    tag_238:\n        /* \"#utility.yul\":17878:17879   */\n      0x00\n        /* \"#utility.yul\":17895:17915   */\n      tag_559\n        /* \"#utility.yul\":17913:17914   */\n      dup3\n        /* \"#utility.yul\":17895:17915   */\n      tag_496\n      jump\t// in\n    tag_559:\n        /* \"#utility.yul\":17890:17915   */\n      swap2\n      pop\n        /* \"#utility.yul\":17929:17949   */\n      tag_560\n        /* \"#utility.yul\":17947:17948   */\n      dup4\n        /* \"#utility.yul\":17929:17949   */\n      tag_496\n      jump\t// in\n    tag_560:\n        /* \"#utility.yul\":17924:17949   */\n      swap3\n      pop\n        /* \"#utility.yul\":17968:17969   */\n      dup3\n        /* \"#utility.yul\":17958:17993   */\n      tag_561\n      jumpi\n        /* \"#utility.yul\":17973:17991   */\n      tag_562\n      tag_563\n      jump\t// in\n    tag_562:\n        /* \"#utility.yul\":17958:17993   */\n    tag_561:\n        /* \"#utility.yul\":18015:18016   */\n      dup3\n        /* \"#utility.yul\":18012:18013   */\n      dup3\n        /* \"#utility.yul\":18008:18017   */\n      div\n        /* \"#utility.yul\":18003:18017   */\n      swap1\n      pop\n        /* \"#utility.yul\":17838:18023   */\n      swap3\n      swap2\n      pop\n      pop\n      jump\t// out\n        /* \"#utility.yul\":18029:18377   */\n    tag_240:\n        /* \"#utility.yul\":18069:18076   */\n      0x00\n        /* \"#utility.yul\":18092:18112   */\n      tag_565\n        /* \"#utility.yul\":18110:18111   */\n      dup3\n        /* \"#utility.yul\":18092:18112   */\n      tag_496\n      jump\t// in\n    tag_565:\n        /* \"#utility.yul\":18087:18112   */\n      swap2\n      pop\n        /* \"#utility.yul\":18126:18146   */\n      tag_566\n        /* \"#utility.yul\":18144:18145   */\n      dup4\n        /* \"#utility.yul\":18126:18146   */\n      tag_496\n      jump\t// in\n    tag_566:\n        /* \"#utility.yul\":18121:18146   */\n      swap3\n      pop\n        /* \"#utility.yul\":18314:18315   */\n      dup2\n        /* \"#utility.yul\":18246:18312   */\n      0xffffffffffffffffffffffffffffffffffffffffffffffffffffffffffffffff\n        /* \"#utility.yul\":18242:18316   */\n      div\n        /* \"#utility.yul\":18239:18240   */\n      dup4\n        /* \"#utility.yul\":18236:18317   */\n      gt\n        /* \"#utility.yul\":18231:18232   */\n      dup3\n        /* \"#utility.yul\":18224:18233   */\n      iszero\n        /* \"#utility.yul\":18217:18234   */\n      iszero\n        /* \"#utility.yul\":18213:18318   */\n      and\n        /* \"#utility.yul\":18210:18341   */\n      iszero\n      tag_567\n      jumpi\n        /* \"#utility.yul\":18321:18339   */\n      tag_568\n      tag_557\n      jump\t// in\n    tag_568:\n        /* \"#utility.yul\":18210:18341   */\n    tag_567:\n        /* \"#utility.yul\":18369:18370   */\n      dup3\n        /* \"#utility.yul\":18366:18367   */\n      dup3\n        /* \"#utility.yul\":18362:18371   */\n      mul\n        /* \"#utility.yul\":18351:18371   */\n      swap1\n      pop\n        /* \"#utility.yul\":18029:18377   */\n      swap3\n      swap2\n      pop\n      pop\n      jump\t// out\n        /* \"#utility.yul\":18383:18574   */\n    tag_307:\n        /* \"#utility.yul\":18423:18427   */\n      0x00\n        /* \"#utility.yul\":18443:18463   */\n      tag_570\n        /* \"#utility.yul\":18461:18462   */\n      dup3\n        /* \"#utility.yul\":18443:18463   */\n      tag_496\n      jump\t// in\n    tag_570:\n        /* \"#utility.yul\":18438:18463   */\n      swap2\n      pop\n        /* \"#utility.yul\":18477:18497   */\n      tag_571\n        /* \"#utility.yul\":18495:18496   */\n      dup4\n        /* \"#utility.yul\":18477:18497   */\n      tag_496\n      jump\t// in\n    tag_571:\n        /* \"#utility.yul\":18472:18497   */\n      swap3\n      pop\n        /* \"#utility.yul\":18516:18517   */\n      dup3\n        /* \"#utility.yul\":18513:18514   */\n      dup3\n        /* \"#utility.yul\":18510:18518   */\n      lt\n        /* \"#utility.yul\":18507:18541   */\n      iszero\n      tag_572\n      jumpi\n        /* \"#utility.yul\":18521:18539   */\n      tag_573\n      tag_557\n      jump\t// in\n    tag_573:\n        /* \"#utility.yul\":18507:18541   */\n    tag_572:\n        /* \"#utility.yul\":18566:18567   */\n      dup3\n        /* \"#utility.yul\":18563:18564   */\n      dup3\n        /* \"#utility.yul\":18559:18568   */\n      sub\n        /* \"#utility.yul\":18551:18568   */\n      swap1\n      pop\n        /* \"#utility.yul\":18383:18574   */\n      swap3\n      swap2\n      pop\n      pop\n      jump\t// out\n        /* \"#utility.yul\":18580:18676   */\n    tag_412:\n        /* \"#utility.yul\":18617:18624   */\n      0x00\n        /* \"#utility.yul\":18646:18670   */\n      tag_575\n        /* \"#utility.yul\":18664:18669   */\n      dup3\n        /* \"#utility.yul\":18646:18670   */\n      tag_576\n      jump\t// in\n    tag_575:\n        /* \"#utility.yul\":18635:18670   */\n      swap1\n      pop\n        /* \"#utility.yul\":18580:18676   */\n      swap2\n      swap1\n      pop\n      jump\t// out\n        /* \"#utility.yul\":18682:18772   */\n    tag_447:\n        /* \"#utility.yul\":18716:18723   */\n      0x00\n        /* \"#utility.yul\":18759:18764   */\n      dup2\n        /* \"#utility.yul\":18752:18765   */\n      iszero\n        /* \"#utility.yul\":18745:18766   */\n      iszero\n        /* \"#utility.yul\":18734:18766   */\n      swap1\n      pop\n        /* \"#utility.yul\":18682:18772   */\n      swap2\n      swap1\n      pop\n      jump\t// out\n        /* \"#utility.yul\":18778:18904   */\n    tag_576:\n        /* \"#utility.yul\":18815:18822   */\n      0x00\n        /* \"#utility.yul\":18855:18897   */\n      0xffffffffffffffffffffffffffffffffffffffff\n        /* \"#utility.yul\":18848:18853   */\n      dup3\n        /* \"#utility.yul\":18844:18898   */\n      and\n        /* \"#utility.yul\":18833:18898   */\n      swap1\n      pop\n        /* \"#utility.yul\":18778:18904   */\n      swap2\n      swap1\n      pop\n      jump\t// out\n        /* \"#utility.yul\":18910:18987   */\n    tag_496:\n        /* \"#utility.yul\":18947:18954   */\n      0x00\n        /* \"#utility.yul\":18976:18981   */\n      dup2\n        /* \"#utility.yul\":18965:18981   */\n      swap1\n      pop\n        /* \"#utility.yul\":18910:18987   */\n      swap2\n      swap1\n      pop\n      jump\t// out\n        /* \"#utility.yul\":18993:19164   */\n    tag_346:\n        /* \"#utility.yul\":19032:19035   */\n      0x00\n        /* \"#utility.yul\":19055:19079   */\n      tag_581\n        /* \"#utility.yul\":19073:19078   */\n      dup3\n        /* \"#utility.yul\":19055:19079   */\n      tag_496\n      jump\t// in\n    tag_581:\n        /* \"#utility.yul\":19046:19079   */\n      swap2\n      pop\n        /* \"#utility.yul\":19101:19105   */\n      0x00\n        /* \"#utility.yul\":19094:19099   */\n      dup3\n        /* \"#utility.yul\":19091:19106   */\n      eq\n        /* \"#utility.yul\":19088:19129   */\n      iszero\n      tag_582\n      jumpi\n        /* \"#utility.yul\":19109:19127   */\n      tag_583\n      tag_557\n      jump\t// in\n    tag_583:\n        /* \"#utility.yul\":19088:19129   */\n    tag_582:\n        /* \"#utility.yul\":19156:19157   */\n      0x01\n        /* \"#utility.yul\":19149:19154   */\n      dup3\n        /* \"#utility.yul\":19145:19158   */\n      sub\n        /* \"#utility.yul\":19138:19158   */\n      swap1\n      pop\n        /* \"#utility.yul\":18993:19164   */\n      swap2\n      swap1\n      pop\n      jump\t// out\n        /* \"#utility.yul\":19170:19403   */\n    tag_292:\n        /* \"#utility.yul\":19209:19212   */\n      0x00\n        /* \"#utility.yul\":19232:19256   */\n      tag_585\n        /* \"#utility.yul\":19250:19255   */\n      dup3\n        /* \"#utility.yul\":19232:19256   */\n      tag_496\n      jump\t// in\n    tag_585:\n        /* \"#utility.yul\":19223:19256   */\n      swap2\n      pop\n        /* \"#utility.yul\":19278:19344   */\n      0xffffffffffffffffffffffffffffffffffffffffffffffffffffffffffffffff\n        /* \"#utility.yul\":19271:19276   */\n      dup3\n        /* \"#utility.yul\":19268:19345   */\n      eq\n        /* \"#utility.yul\":19265:19368   */\n      iszero\n      tag_586\n      jumpi\n        /* \"#utility.yul\":19348:19366   */\n      tag_587\n      tag_557\n      jump\t// in\n    tag_587:\n        /* \"#utility.yul\":19265:19368   */\n    tag_586:\n        /* \"#utility.yul\":19395:19396   */\n      0x01\n        /* \"#utility.yul\":19388:19393   */\n      dup3\n        /* \"#utility.yul\":19384:19397   */\n      add\n        /* \"#utility.yul\":19377:19397   */\n      swap1\n      pop\n        /* \"#utility.yul\":19170:19403   */\n      swap2\n      swap1\n      pop\n      jump\t// out\n        /* \"#utility.yul\":19409:19589   */\n    tag_557:\n        /* \"#utility.yul\":19457:19534   */\n      0x4e487b7100000000000000000000000000000000000000000000000000000000\n        /* \"#utility.yul\":19454:19455   */\n      0x00\n        /* \"#utility.yul\":19447:19535   */\n      mstore\n        /* \"#utility.yul\":19554:19558   */\n      0x11\n        /* \"#utility.yul\":19551:19552   */\n      0x04\n        /* \"#utility.yul\":19544:19559   */\n      mstore\n        /* \"#utility.yul\":19578:19582   */\n      0x24\n        /* \"#utility.yul\":19575:19576   */\n      0x00\n        /* \"#utility.yul\":19568:19583   */\n      revert\n        /* \"#utility.yul\":19595:19775   */\n    tag_563:\n        /* \"#utility.yul\":19643:19720   */\n      0x4e487b7100000000000000000000000000000000000000000000000000000000\n        /* \"#utility.yul\":19640:19641   */\n      0x00\n        /* \"#utility.yul\":19633:19721   */\n      mstore\n        /* \"#utility.yul\":19740:19744   */\n      0x12\n        /* \"#utility.yul\":19737:19738   */\n      0x04\n        /* \"#utility.yul\":19730:19745   */\n      mstore\n        /* \"#utility.yul\":19764:19768   */\n      0x24\n        /* \"#utility.yul\":19761:19762   */\n      0x00\n        /* \"#utility.yul\":19754:19769   */\n      revert\n        /* \"#utility.yul\":19781:19961   */\n    tag_319:\n        /* \"#utility.yul\":19829:19906   */\n      0x4e487b7100000000000000000000000000000000000000000000000000000000\n        /* \"#utility.yul\":19826:19827   */\n      0x00\n        /* \"#utility.yul\":19819:19907   */\n      mstore\n        /* \"#utility.yul\":19926:19930   */\n      0x31\n        /* \"#utility.yul\":19923:19924   */\n      0x04\n        /* \"#utility.yul\":19916:19931   */\n      mstore\n        /* \"#utility.yul\":19950:19954   */\n      0x24\n        /* \"#utility.yul\":19947:19948   */\n      0x00\n        /* \"#utility.yul\":19940:19955   */\n      revert\n        /* \"#utility.yul\":19967:20147   */\n    tag_277:\n        /* \"#utility.yul\":20015:20092   */\n      0x4e487b7100000000000000000000000000000000000000000000000000000000\n        /* \"#utility.yul\":20012:20013   */\n      0x00\n        /* \"#utility.yul\":20005:20093   */\n      mstore\n        /* \"#utility.yul\":20112:20116   */\n      0x32\n        /* \"#utility.yul\":20109:20110   */\n      0x04\n        /* \"#utility.yul\":20102:20117   */\n      mstore\n        /* \"#utility.yul\":20136:20140   */\n      0x24\n        /* \"#utility.yul\":20133:20134   */\n      0x00\n        /* \"#utility.yul\":20126:20141   */\n      revert\n        /* \"#utility.yul\":20153:20333   */\n    tag_267:\n        /* \"#utility.yul\":20201:20278   */\n      0x4e487b7100000000000000000000000000000000000000000000000000000000\n        /* \"#utility.yul\":20198:20199   */\n      0x00\n        /* \"#utility.yul\":20191:20279   */\n      mstore\n        /* \"#utility.yul\":20298:20302   */\n      0x41\n        /* \"#utility.yul\":20295:20296   */\n      0x04\n        /* \"#utility.yul\":20288:20303   */\n      mstore\n        /* \"#utility.yul\":20322:20326   */\n      0x24\n        /* \"#utility.yul\":20319:20320   */\n      0x00\n        /* \"#utility.yul\":20312:20327   */\n      revert\n        /* \"#utility.yul\":20462:20579   */\n    tag_374:\n        /* \"#utility.yul\":20571:20572   */\n      0x00\n        /* \"#utility.yul\":20568:20569   */\n      dup1\n        /* \"#utility.yul\":20561:20573   */\n      revert\n        /* \"#utility.yul\":20585:20764   */\n    tag_453:\n        /* \"#utility.yul\":20725:20756   */\n      0x73656c6c6572206e6565642068617665207468697320746f6b656e6964000000\n        /* \"#utility.yul\":20721:20722   */\n      0x00\n        /* \"#utility.yul\":20713:20719   */\n      dup3\n        /* \"#utility.yul\":20709:20723   */\n      add\n        /* \"#utility.yul\":20702:20757   */\n      mstore\n        /* \"#utility.yul\":20585:20764   */\n      pop\n      jump\t// out\n        /* \"#utility.yul\":20770:20932   */\n    tag_458:\n        /* \"#utility.yul\":20910:20924   */\n      0x5374617274206e6f74206f6b0000000000000000000000000000000000000000\n        /* \"#utility.yul\":20906:20907   */\n      0x00\n        /* \"#utility.yul\":20898:20904   */\n      dup3\n        /* \"#utility.yul\":20894:20908   */\n      add\n        /* \"#utility.yul\":20887:20925   */\n      mstore\n        /* \"#utility.yul\":20770:20932   */\n      pop\n      jump\t// out\n        /* \"#utility.yul\":20938:21163   */\n    tag_463:\n        /* \"#utility.yul\":21078:21112   */\n      0x4f776e61626c653a206e6577206f776e657220697320746865207a65726f2061\n        /* \"#utility.yul\":21074:21075   */\n      0x00\n        /* \"#utility.yul\":21066:21072   */\n      dup3\n        /* \"#utility.yul\":21062:21076   */\n      add\n        /* \"#utility.yul\":21055:21113   */\n      mstore\n        /* \"#utility.yul\":21147:21155   */\n      0x6464726573730000000000000000000000000000000000000000000000000000\n        /* \"#utility.yul\":21142:21144   */\n      0x20\n        /* \"#utility.yul\":21134:21140   */\n      dup3\n        /* \"#utility.yul\":21130:21145   */\n      add\n        /* \"#utility.yul\":21123:21156   */\n      mstore\n        /* \"#utility.yul\":20938:21163   */\n      pop\n      jump\t// out\n        /* \"#utility.yul\":21169:21329   */\n    tag_468:\n        /* \"#utility.yul\":21309:21321   */\n      0x456e64206e6f74206f6b00000000000000000000000000000000000000000000\n        /* \"#utility.yul\":21305:21306   */\n      0x00\n        /* \"#utility.yul\":21297:21303   */\n      dup3\n        /* \"#utility.yul\":21293:21307   */\n      add\n        /* \"#utility.yul\":21286:21322   */\n      mstore\n        /* \"#utility.yul\":21169:21329   */\n      pop\n      jump\t// out\n        /* \"#utility.yul\":21335:21509   */\n    tag_473:\n        /* \"#utility.yul\":21475:21501   */\n      0x46726f6d20616e6420546f2063616e206e6f742073616d650000000000000000\n        /* \"#utility.yul\":21471:21472   */\n      0x00\n        /* \"#utility.yul\":21463:21469   */\n      dup3\n        /* \"#utility.yul\":21459:21473   */\n      add\n        /* \"#utility.yul\":21452:21502   */\n      mstore\n        /* \"#utility.yul\":21335:21509   */\n      pop\n      jump\t// out\n        /* \"#utility.yul\":21515:21674   */\n    tag_478:\n        /* \"#utility.yul\":21655:21666   */\n      0x5072696365203e20300000000000000000000000000000000000000000000000\n        /* \"#utility.yul\":21651:21652   */\n      0x00\n        /* \"#utility.yul\":21643:21649   */\n      dup3\n        /* \"#utility.yul\":21639:21653   */\n      add\n        /* \"#utility.yul\":21632:21667   */\n      mstore\n        /* \"#utility.yul\":21515:21674   */\n      pop\n      jump\t// out\n        /* \"#utility.yul\":21680:21907   */\n    tag_483:\n        /* \"#utility.yul\":21820:21854   */\n      0x596f75206e65656420417070726f766520466f7220416c6c20746f2074686973\n        /* \"#utility.yul\":21816:21817   */\n      0x00\n        /* \"#utility.yul\":21808:21814   */\n      dup3\n        /* \"#utility.yul\":21804:21818   */\n      add\n        /* \"#utility.yul\":21797:21855   */\n      mstore\n        /* \"#utility.yul\":21889:21899   */\n      0x20636f6e74616374000000000000000000000000000000000000000000000000\n        /* \"#utility.yul\":21884:21886   */\n      0x20\n        /* \"#utility.yul\":21876:21882   */\n      dup3\n        /* \"#utility.yul\":21872:21887   */\n      add\n        /* \"#utility.yul\":21865:21900   */\n      mstore\n        /* \"#utility.yul\":21680:21907   */\n      pop\n      jump\t// out\n        /* \"#utility.yul\":21913:22083   */\n    tag_488:\n        /* \"#utility.yul\":22053:22075   */\n      0x416464726573732063616e206e6f74207a65726f000000000000000000000000\n        /* \"#utility.yul\":22049:22050   */\n      0x00\n        /* \"#utility.yul\":22041:22047   */\n      dup3\n        /* \"#utility.yul\":22037:22051   */\n      add\n        /* \"#utility.yul\":22030:22076   */\n      mstore\n        /* \"#utility.yul\":21913:22083   */\n      pop\n      jump\t// out\n        /* \"#utility.yul\":22089:22271   */\n    tag_493:\n        /* \"#utility.yul\":22229:22263   */\n      0x4f776e61626c653a2063616c6c6572206973206e6f7420746865206f776e6572\n        /* \"#utility.yul\":22225:22226   */\n      0x00\n        /* \"#utility.yul\":22217:22223   */\n      dup3\n        /* \"#utility.yul\":22213:22227   */\n      add\n        /* \"#utility.yul\":22206:22264   */\n      mstore\n        /* \"#utility.yul\":22089:22271   */\n      pop\n      jump\t// out\n        /* \"#utility.yul\":22277:22399   */\n    tag_356:\n        /* \"#utility.yul\":22350:22374   */\n      tag_606\n        /* \"#utility.yul\":22368:22373   */\n      dup2\n        /* \"#utility.yul\":22350:22374   */\n      tag_412\n      jump\t// in\n    tag_606:\n        /* \"#utility.yul\":22343:22348   */\n      dup2\n        /* \"#utility.yul\":22340:22375   */\n      eq\n        /* \"#utility.yul\":22330:22393   */\n      tag_607\n      jumpi\n        /* \"#utility.yul\":22389:22390   */\n      0x00\n        /* \"#utility.yul\":22386:22387   */\n      dup1\n        /* \"#utility.yul\":22379:22391   */\n      revert\n        /* \"#utility.yul\":22330:22393   */\n    tag_607:\n        /* \"#utility.yul\":22277:22399   */\n      pop\n      jump\t// out\n        /* \"#utility.yul\":22405:22521   */\n    tag_363:\n        /* \"#utility.yul\":22475:22496   */\n      tag_609\n        /* \"#utility.yul\":22490:22495   */\n      dup2\n        /* \"#utility.yul\":22475:22496   */\n      tag_447\n      jump\t// in\n    tag_609:\n        /* \"#utility.yul\":22468:22473   */\n      dup2\n        /* \"#utility.yul\":22465:22497   */\n      eq\n        /* \"#utility.yul\":22455:22515   */\n      tag_610\n      jumpi\n        /* \"#utility.yul\":22511:22512   */\n      0x00\n        /* \"#utility.yul\":22508:22509   */\n      dup1\n        /* \"#utility.yul\":22501:22513   */\n      revert\n        /* \"#utility.yul\":22455:22515   */\n    tag_610:\n        /* \"#utility.yul\":22405:22521   */\n      pop\n      jump\t// out\n        /* \"#utility.yul\":22527:22649   */\n    tag_367:\n        /* \"#utility.yul\":22600:22624   */\n      tag_612\n        /* \"#utility.yul\":22618:22623   */\n      dup2\n        /* \"#utility.yul\":22600:22624   */\n      tag_496\n      jump\t// in\n    tag_612:\n        /* \"#utility.yul\":22593:22598   */\n      dup2\n        /* \"#utility.yul\":22590:22625   */\n      eq\n        /* \"#utility.yul\":22580:22643   */\n      tag_613\n      jumpi\n        /* \"#utility.yul\":22639:22640   */\n      0x00\n        /* \"#utility.yul\":22636:22637   */\n      dup1\n        /* \"#utility.yul\":22629:22641   */\n      revert\n        /* \"#utility.yul\":22580:22643   */\n    tag_613:\n        /* \"#utility.yul\":22527:22649   */\n      pop\n      jump\t// out\n\n    auxdata: 0xa2646970667358221220fba519bb759972e84ab849d1e78ac102080967ffce8937ac864a6ec03d0f93d064736f6c63430008070033\n}\n",
				"bytecode": {
					"linkReferences": {},
					"object": "608060405260008060146101000a81548160ff02191690831515021790555034801561002a57600080fd5b50600061003b61028e60201b60201c565b9050806000806101000a81548173ffffffffffffffffffffffffffffffffffffffff021916908373ffffffffffffffffffffffffffffffffffffffff1602179055508073ffffffffffffffffffffffffffffffffffffffff16600073ffffffffffffffffffffffffffffffffffffffff167f8be0079c531659141344cd1fd0a4f28419497f9722a3daafe3b4186f6b6457e060405160405180910390a35073cb3745379275252f4beb5d1094bf1a8a09f368b7600160006101000a81548173ffffffffffffffffffffffffffffffffffffffff021916908373ffffffffffffffffffffffffffffffffffffffff16021790555073d295cf5d859b9ed331cdf69c49a81eff5e1bee83600260006101000a81548173ffffffffffffffffffffffffffffffffffffffff021916908373ffffffffffffffffffffffffffffffffffffffff16021790555073c184af52ca4e1b1f085aa8236ff8508f52dc6ea7600360006101000a81548173ffffffffffffffffffffffffffffffffffffffff021916908373ffffffffffffffffffffffffffffffffffffffff160217905550735bcd91c734d665fe426a5d7156f2ad7d37b76e30600460006101000a81548173ffffffffffffffffffffffffffffffffffffffff021916908373ffffffffffffffffffffffffffffffffffffffff16021790555073bb4cdb9cbd36b01bd1cbaebf2de08d9173bc095c600560006101000a81548173ffffffffffffffffffffffffffffffffffffffff021916908373ffffffffffffffffffffffffffffffffffffffff16021790555060068081905550610296565b600033905090565b61289d806102a56000396000f3fe608060405234801561001057600080fd5b50600436106101585760003560e01c80638456cb59116100c3578063d88827791161007c578063d88827791461036b578063de281e2814610389578063ea156f44146103a5578063f0f44260146103c3578063f2fde38b146103df578063fb8359c7146103fb57610158565b80638456cb59146102b95780638da5cb5b146102d75780638f32d59b146102f5578063a888a93a14610313578063b56202291461032f578063bcfcba761461034d57610158565b8063563df32f11610115578063563df32f1461020b57806359464217146102295780635c975abb146102595780635c9e0d1014610277578063715018a61461029357806383d582151461029d57610158565b80630ff328391461015d5780631ecff38e1461017b57806336c3b4e2146101975780633f4ba83a146101b5578063458a635a146101d35780634dd79f10146101ef575b600080fd5b61016561042d565b60405161017291906120b3565b60405180910390f35b61019560048036038101906101909190611ce0565b610453565b005b61019f610537565b6040516101ac91906120b3565b60405180910390f35b6101bd61055d565b6040516101ca91906121a3565b60405180910390f35b6101ed60048036038101906101e89190611ce0565b61060c565b005b61020960048036038101906102049190611da7565b6106f0565b005b61021361086b565b60405161022091906120b3565b60405180910390f35b610243600480360381019061023e9190611da7565b610891565b60405161025091906120b3565b60405180910390f35b6102616108ce565b60405161026e91906121a3565b60405180910390f35b610291600480360381019061028c9190611d3a565b6108e1565b005b61029b610bec565b005b6102b760048036038101906102b29190611e01565b610cf1565b005b6102c1610f9f565b6040516102ce91906121a3565b60405180910390f35b6102df611050565b6040516102ec91906120b3565b60405180910390f35b6102fd611079565b60405161030a91906121a3565b60405180910390f35b61032d60048036038101906103289190611ce0565b6110d7565b005b6103376111bb565b60405161034491906120b3565b60405180910390f35b6103556111e1565b60405161036291906122de565b60405180910390f35b6103736111e7565b60405161038091906120b3565b60405180910390f35b6103a3600480360381019061039e9190611da7565b61120d565b005b6103ad611297565b6040516103ba91906122de565b60405180910390f35b6103dd60048036038101906103d89190611ce0565b611472565b005b6103f960048036038101906103f49190611ce0565b611556565b005b61041560048036038101906104109190611e01565b6115a9565b60405161042493929190612157565b60405180910390f35b600560009054906101000a900473ffffffffffffffffffffffffffffffffffffffff1681565b61045b611079565b61049a576040517f08c379a0000000000000000000000000000000000000000000000000000000008152600401610491906122be565b60405180910390fd5b80600460006101000a81548173ffffffffffffffffffffffffffffffffffffffff021916908373ffffffffffffffffffffffffffffffffffffffff1602179055507f136742181ff5fc7d13f647a125112ec36500105a024ce2dbbb7f28fa375eebfa600460009054906101000a900473ffffffffffffffffffffffffffffffffffffffff1660405161052c91906120b3565b60405180910390a150565b600260009054906101000a900473ffffffffffffffffffffffffffffffffffffffff1681565b6000610567611079565b6105a6576040517f08c379a000000000000000000000000000000000000000000000000000000000815260040161059d906122be565b60405180910390fd5b600060149054906101000a900460ff166105bf57600080fd5b60008060146101000a81548160ff0219169083151502179055507f7805862f689e2f13df9f062ff482ad3ad112aca9e0847911ed832e158c525b3360405160405180910390a16001905090565b610614611079565b610653576040517f08c379a000000000000000000000000000000000000000000000000000000000815260040161064a906122be565b60405180910390fd5b80600360006101000a81548173ffffffffffffffffffffffffffffffffffffffff021916908373ffffffffffffffffffffffffffffffffffffffff1602179055507fb01e01d90e1da4079495db07c84276ef34a0ea39cd9be9c3844874eb35616e44600360009054906101000a900473ffffffffffffffffffffffffffffffffffffffff166040516106e591906120b3565b60405180910390a150565b600060149054906101000a900460ff161561070a57600080fd5b60003390508073ffffffffffffffffffffffffffffffffffffffff16600360009054906101000a900473ffffffffffffffffffffffffffffffffffffffff1673ffffffffffffffffffffffffffffffffffffffff16636352211e846040518263ffffffff1660e01b815260040161078191906122de565b60206040518083038186803b15801561079957600080fd5b505afa1580156107ad573d6000803e3d6000fd5b505050506040513d601f19601f820116820180604052508101906107d19190611d0d565b73ffffffffffffffffffffffffffffffffffffffff1614610827576040517f08c379a000000000000000000000000000000000000000000000000000000000815260040161081e906121be565b60405180910390fd5b610830826118e8565b7fd4ceea0833ac36cc33c805e4f164dedb6d75e092a34e14083bbb87976befdecf8260405161085f91906122de565b60405180910390a15050565b600160009054906101000a900473ffffffffffffffffffffffffffffffffffffffff1681565b60006007600083815260200190815260200160002060009054906101000a900473ffffffffffffffffffffffffffffffffffffffff169050919050565b600060149054906101000a900460ff1681565b600060149054906101000a900460ff16156108fb57600080fd5b6000339050600360009054906101000a900473ffffffffffffffffffffffffffffffffffffffff1673ffffffffffffffffffffffffffffffffffffffff1663e985e9c582306040518363ffffffff1660e01b815260040161095d9291906120ce565b60206040518083038186803b15801561097557600080fd5b505afa158015610989573d6000803e3d6000fd5b505050506040513d601f19601f820116820180604052508101906109ad9190611d7a565b6109ec576040517f08c379a00000000000000000000000000000000000000000000000000000000081526004016109e39061227e565b60405180910390fd5b600073ffffffffffffffffffffffffffffffffffffffff168373ffffffffffffffffffffffffffffffffffffffff161415610a5c576040517f08c379a0000000000000000000000000000000000000000000000000000000008152600401610a539061229e565b60405180910390fd5b8073ffffffffffffffffffffffffffffffffffffffff168373ffffffffffffffffffffffffffffffffffffffff161415610acb576040517f08c379a0000000000000000000000000000000000000000000000000000000008152600401610ac29061223e565b60405180910390fd5b600360009054906101000a900473ffffffffffffffffffffffffffffffffffffffff1673ffffffffffffffffffffffffffffffffffffffff166342842e0e8285856040518463ffffffff1660e01b8152600401610b2a939291906120f7565b600060405180830381600087803b158015610b4457600080fd5b505af1158015610b58573d6000803e3d6000fd5b50505050826007600084815260200190815260200160002060006101000a81548173ffffffffffffffffffffffffffffffffffffffff021916908373ffffffffffffffffffffffffffffffffffffffff1602179055507f2a422da7e70b3ca41064be14c50b74a43cbbef24634fa3b7e90d120b8ecc08b38383604051610bdf92919061212e565b60405180910390a1505050565b610bf4611079565b610c33576040517f08c379a0000000000000000000000000000000000000000000000000000000008152600401610c2a906122be565b60405180910390fd5b600073ffffffffffffffffffffffffffffffffffffffff1660008054906101000a900473ffffffffffffffffffffffffffffffffffffffff1673ffffffffffffffffffffffffffffffffffffffff167f8be0079c531659141344cd1fd0a4f28419497f9722a3daafe3b4186f6b6457e060405160405180910390a360008060006101000a81548173ffffffffffffffffffffffffffffffffffffffff021916908373ffffffffffffffffffffffffffffffffffffffff160217905550565b600060149054906101000a900460ff1615610d0b57600080fd5b60003390508073ffffffffffffffffffffffffffffffffffffffff16600360009054906101000a900473ffffffffffffffffffffffffffffffffffffffff1673ffffffffffffffffffffffffffffffffffffffff16636352211e856040518263ffffffff1660e01b8152600401610d8291906122de565b60206040518083038186803b158015610d9a57600080fd5b505afa158015610dae573d6000803e3d6000fd5b505050506040513d601f19601f82011682018060405250810190610dd29190611d0d565b73ffffffffffffffffffffffffffffffffffffffff1614610e28576040517f08c379a0000000000000000000000000000000000000000000000000000000008152600401610e1f906121be565b60405180910390fd5b600360009054906101000a900473ffffffffffffffffffffffffffffffffffffffff1673ffffffffffffffffffffffffffffffffffffffff1663e985e9c582306040518363ffffffff1660e01b8152600401610e859291906120ce565b60206040518083038186803b158015610e9d57600080fd5b505afa158015610eb1573d6000803e3d6000fd5b505050506040513d601f19601f82011682018060405250810190610ed59190611d7a565b610f14576040517f08c379a0000000000000000000000000000000000000000000000000000000008152600401610f0b9061227e565b60405180910390fd5b60008211610f57576040517f08c379a0000000000000000000000000000000000000000000000000000000008152600401610f4e9061225e565b60405180910390fd5b610f6183836119fb565b7f55bb046a6e950af74fcdaaa97a1a82c49209d72a5fcda0925a019dfba29c8f728383604051610f929291906122f9565b60405180910390a1505050565b6000610fa9611079565b610fe8576040517f08c379a0000000000000000000000000000000000000000000000000000000008152600401610fdf906122be565b60405180910390fd5b600060149054906101000a900460ff161561100257600080fd5b6001600060146101000a81548160ff0219169083151502179055507f6985a02210a168e66602d3235cb6db0e70f92b3ba4d376a33c0f3d9434bff62560405160405180910390a16001905090565b60008060009054906101000a900473ffffffffffffffffffffffffffffffffffffffff16905090565b60008060009054906101000a900473ffffffffffffffffffffffffffffffffffffffff1673ffffffffffffffffffffffffffffffffffffffff166110bb611b42565b73ffffffffffffffffffffffffffffffffffffffff1614905090565b6110df611079565b61111e576040517f08c379a0000000000000000000000000000000000000000000000000000000008152600401611115906122be565b60405180910390fd5b80600260006101000a81548173ffffffffffffffffffffffffffffffffffffffff021916908373ffffffffffffffffffffffffffffffffffffffff1602179055507facdd85d235b5b49226c2c4f2b72cb01fa1cc3ae64bb843a6def27788d05b1b60600260009054906101000a900473ffffffffffffffffffffffffffffffffffffffff166040516111b091906120b3565b60405180910390a150565b600460009054906101000a900473ffffffffffffffffffffffffffffffffffffffff1681565b60065481565b600360009054906101000a900473ffffffffffffffffffffffffffffffffffffffff1681565b611215611079565b611254576040517f08c379a000000000000000000000000000000000000000000000000000000000815260040161124b906122be565b60405180910390fd5b806006819055507f4d8e30ff458bebdd848488669e63d632954487ca1bc64c28f3c920f74a5f859460065460405161128c91906122de565b60405180910390a150565b600080600560009054906101000a900473ffffffffffffffffffffffffffffffffffffffff1673ffffffffffffffffffffffffffffffffffffffff166370a08231600260009054906101000a900473ffffffffffffffffffffffffffffffffffffffff166040518263ffffffff1660e01b815260040161131791906120b3565b60206040518083038186803b15801561132f57600080fd5b505afa158015611343573d6000803e3d6000fd5b505050506040513d601f19601f820116820180604052508101906113679190611dd4565b90506000600460009054906101000a900473ffffffffffffffffffffffffffffffffffffffff1673ffffffffffffffffffffffffffffffffffffffff166370a08231600260009054906101000a900473ffffffffffffffffffffffffffffffffffffffff166040518263ffffffff1660e01b81526004016113e891906120b3565b60206040518083038186803b15801561140057600080fd5b505afa158015611414573d6000803e3d6000fd5b505050506040513d601f19601f820116820180604052508101906114389190611dd4565b90506000828261144891906123fb565b90506000600a6006548361145c919061242c565b61146691906123fb565b90508094505050505090565b61147a611079565b6114b9576040517f08c379a00000000000000000000000000000000000000000000000000000000081526004016114b0906122be565b60405180910390fd5b80600160006101000a81548173ffffffffffffffffffffffffffffffffffffffff021916908373ffffffffffffffffffffffffffffffffffffffff1602179055507fb14f2a39bb21fda32827bbdb4be629c94036e10a3f6055a6454f884ca1b33fa1600160009054906101000a900473ffffffffffffffffffffffffffffffffffffffff1660405161154b91906120b3565b60405180910390a150565b61155e611079565b61159d576040517f08c379a0000000000000000000000000000000000000000000000000000000008152600401611594906122be565b60405180910390fd5b6115a681611b4a565b50565b6060806060600060098054905090506000861180156115c757508086105b611606576040517f08c379a00000000000000000000000000000000000000000000000000000000081526004016115fd906121de565b60405180910390fd5b8585101580156116165750600085115b801561162157508085105b611660576040517f08c379a00000000000000000000000000000000000000000000000000000000081526004016116579061221e565b60405180910390fd5b60008167ffffffffffffffff81111561167c5761167b612631565b5b6040519080825280602002602001820160405280156116aa5781602001602082028036833780820191505090505b50905060008267ffffffffffffffff8111156116c9576116c8612631565b5b6040519080825280602002602001820160405280156116f75781602001602082028036833780820191505090505b50905060008890505b87811161188157600860006009838154811061171f5761171e612602565b5b906000526020600020015481526020019081526020016000205483828151811061174c5761174b612602565b5b602002602001018181525050600360009054906101000a900473ffffffffffffffffffffffffffffffffffffffff1673ffffffffffffffffffffffffffffffffffffffff16636352211e600983815481106117aa576117a9612602565b5b90600052602060002001546040518263ffffffff1660e01b81526004016117d191906122de565b60206040518083038186803b1580156117e957600080fd5b505afa1580156117fd573d6000803e3d6000fd5b505050506040513d601f19601f820116820180604052508101906118219190611d0d565b82828151811061183457611833612602565b5b602002602001019073ffffffffffffffffffffffffffffffffffffffff16908173ffffffffffffffffffffffffffffffffffffffff168152505080806118799061252c565b915050611700565b5060098183828054806020026020016040519081016040528092919081815260200182805480156118d157602002820191906000526020600020905b8154815260200190600101908083116118bd575b505050505092509550955095505050509250925092565b600860008281526020019081526020016000206000905560005b6009805490508110156119f657816009828154811061192457611923612602565b5b906000526020600020015414156119e35760008190505b600160098054905061194d9190612486565b8110156119b457600960018261196391906123a5565b8154811061197457611973612602565b5b90600052602060002001546009828154811061199357611992612602565b5b906000526020600020018190555080806119ac9061252c565b91505061193b565b5060098054806119c7576119c66125d3565b5b60019003818190600052602060002001600090559055506119f8565b80806119ee9061252c565b915050611902565b505b50565b8060086000848152602001908152602001600020819055506009829080600181540180825580915050600190039060005260206000200160009091909190915055600260098054905010611b3d5760006002600980549050611a5d9190612486565b90505b60008110611b3b57816008600060098481548110611a8157611a80612602565b5b90600052602060002001548152602001908152602001600020541115611af35760098181548110611ab557611ab4612602565b5b90600052602060002001546009600183611acf91906123a5565b81548110611ae057611adf612602565b5b9060005260206000200181905550611b28565b826009600183611b0391906123a5565b81548110611b1457611b13612602565b5b906000526020600020018190555050611b3e565b8080611b3390612502565b915050611a60565b505b5b5050565b600033905090565b600073ffffffffffffffffffffffffffffffffffffffff168173ffffffffffffffffffffffffffffffffffffffff161415611bba576040517f08c379a0000000000000000000000000000000000000000000000000000000008152600401611bb1906121fe565b60405180910390fd5b8073ffffffffffffffffffffffffffffffffffffffff1660008054906101000a900473ffffffffffffffffffffffffffffffffffffffff1673ffffffffffffffffffffffffffffffffffffffff167f8be0079c531659141344cd1fd0a4f28419497f9722a3daafe3b4186f6b6457e060405160405180910390a3806000806101000a81548173ffffffffffffffffffffffffffffffffffffffff021916908373ffffffffffffffffffffffffffffffffffffffff16021790555050565b600081359050611c8681612822565b92915050565b600081519050611c9b81612822565b92915050565b600081519050611cb081612839565b92915050565b600081359050611cc581612850565b92915050565b600081519050611cda81612850565b92915050565b600060208284031215611cf657611cf5612660565b5b6000611d0484828501611c77565b91505092915050565b600060208284031215611d2357611d22612660565b5b6000611d3184828501611c8c565b91505092915050565b60008060408385031215611d5157611d50612660565b5b6000611d5f85828601611c77565b9250506020611d7085828601611cb6565b9150509250929050565b600060208284031215611d9057611d8f612660565b5b6000611d9e84828501611ca1565b91505092915050565b600060208284031215611dbd57611dbc612660565b5b6000611dcb84828501611cb6565b91505092915050565b600060208284031215611dea57611de9612660565b5b6000611df884828501611ccb565b91505092915050565b60008060408385031215611e1857611e17612660565b5b6000611e2685828601611cb6565b9250506020611e3785828601611cb6565b9150509250929050565b6000611e4d8383611e71565b60208301905092915050565b6000611e658383612095565b60208301905092915050565b611e7a816124ba565b82525050565b611e89816124ba565b82525050565b6000611e9a82612342565b611ea48185612372565b9350611eaf83612322565b8060005b83811015611ee0578151611ec78882611e41565b9750611ed283612358565b925050600181019050611eb3565b5085935050505092915050565b6000611ef88261234d565b611f028185612383565b9350611f0d83612332565b8060005b83811015611f3e578151611f258882611e59565b9750611f3083612365565b925050600181019050611f11565b5085935050505092915050565b611f54816124cc565b82525050565b6000611f67601d83612394565b9150611f7282612665565b602082019050919050565b6000611f8a600c83612394565b9150611f958261268e565b602082019050919050565b6000611fad602683612394565b9150611fb8826126b7565b604082019050919050565b6000611fd0600a83612394565b9150611fdb82612706565b602082019050919050565b6000611ff3601883612394565b9150611ffe8261272f565b602082019050919050565b6000612016600983612394565b915061202182612758565b602082019050919050565b6000612039602883612394565b915061204482612781565b604082019050919050565b600061205c601483612394565b9150612067826127d0565b602082019050919050565b600061207f602083612394565b915061208a826127f9565b602082019050919050565b61209e816124f8565b82525050565b6120ad816124f8565b82525050565b60006020820190506120c86000830184611e80565b92915050565b60006040820190506120e36000830185611e80565b6120f06020830184611e80565b9392505050565b600060608201905061210c6000830186611e80565b6121196020830185611e80565b61212660408301846120a4565b949350505050565b60006040820190506121436000830185611e80565b61215060208301846120a4565b9392505050565b600060608201905081810360008301526121718186611eed565b905081810360208301526121858185611e8f565b905081810360408301526121998184611eed565b9050949350505050565b60006020820190506121b86000830184611f4b565b92915050565b600060208201905081810360008301526121d781611f5a565b9050919050565b600060208201905081810360008301526121f781611f7d565b9050919050565b6000602082019050818103600083015261221781611fa0565b9050919050565b6000602082019050818103600083015261223781611fc3565b9050919050565b6000602082019050818103600083015261225781611fe6565b9050919050565b6000602082019050818103600083015261227781612009565b9050919050565b600060208201905081810360008301526122978161202c565b9050919050565b600060208201905081810360008301526122b78161204f565b9050919050565b600060208201905081810360008301526122d781612072565b9050919050565b60006020820190506122f360008301846120a4565b92915050565b600060408201905061230e60008301856120a4565b61231b60208301846120a4565b9392505050565b6000819050602082019050919050565b6000819050602082019050919050565b600081519050919050565b600081519050919050565b6000602082019050919050565b6000602082019050919050565b600082825260208201905092915050565b600082825260208201905092915050565b600082825260208201905092915050565b60006123b0826124f8565b91506123bb836124f8565b9250827fffffffffffffffffffffffffffffffffffffffffffffffffffffffffffffffff038211156123f0576123ef612575565b5b828201905092915050565b6000612406826124f8565b9150612411836124f8565b925082612421576124206125a4565b5b828204905092915050565b6000612437826124f8565b9150612442836124f8565b9250817fffffffffffffffffffffffffffffffffffffffffffffffffffffffffffffffff048311821515161561247b5761247a612575565b5b828202905092915050565b6000612491826124f8565b915061249c836124f8565b9250828210156124af576124ae612575565b5b828203905092915050565b60006124c5826124d8565b9050919050565b60008115159050919050565b600073ffffffffffffffffffffffffffffffffffffffff82169050919050565b6000819050919050565b600061250d826124f8565b9150600082141561252157612520612575565b5b600182039050919050565b6000612537826124f8565b91507fffffffffffffffffffffffffffffffffffffffffffffffffffffffffffffffff82141561256a57612569612575565b5b600182019050919050565b7f4e487b7100000000000000000000000000000000000000000000000000000000600052601160045260246000fd5b7f4e487b7100000000000000000000000000000000000000000000000000000000600052601260045260246000fd5b7f4e487b7100000000000000000000000000000000000000000000000000000000600052603160045260246000fd5b7f4e487b7100000000000000000000000000000000000000000000000000000000600052603260045260246000fd5b7f4e487b7100000000000000000000000000000000000000000000000000000000600052604160045260246000fd5b600080fd5b7f73656c6c6572206e6565642068617665207468697320746f6b656e6964000000600082015250565b7f5374617274206e6f74206f6b0000000000000000000000000000000000000000600082015250565b7f4f776e61626c653a206e6577206f776e657220697320746865207a65726f206160008201527f6464726573730000000000000000000000000000000000000000000000000000602082015250565b7f456e64206e6f74206f6b00000000000000000000000000000000000000000000600082015250565b7f46726f6d20616e6420546f2063616e206e6f742073616d650000000000000000600082015250565b7f5072696365203e20300000000000000000000000000000000000000000000000600082015250565b7f596f75206e65656420417070726f766520466f7220416c6c20746f207468697360008201527f20636f6e74616374000000000000000000000000000000000000000000000000602082015250565b7f416464726573732063616e206e6f74207a65726f000000000000000000000000600082015250565b7f4f776e61626c653a2063616c6c6572206973206e6f7420746865206f776e6572600082015250565b61282b816124ba565b811461283657600080fd5b50565b612842816124cc565b811461284d57600080fd5b50565b612859816124f8565b811461286457600080fd5b5056fea2646970667358221220fba519bb759972e84ab849d1e78ac102080967ffce8937ac864a6ec03d0f93d064736f6c63430008070033",
					"opcodes": "PUSH1 0x80 PUSH1 0x40 MSTORE PUSH1 0x0 DUP1 PUSH1 0x14 PUSH2 0x100 EXP DUP2 SLOAD DUP2 PUSH1 0xFF MUL NOT AND SWAP1 DUP4 ISZERO ISZERO MUL OR SWAP1 SSTORE POP CALLVALUE DUP1 ISZERO PUSH2 0x2A JUMPI PUSH1 0x0 DUP1 REVERT JUMPDEST POP PUSH1 0x0 PUSH2 0x3B PUSH2 0x28E PUSH1 0x20 SHL PUSH1 0x20 SHR JUMP JUMPDEST SWAP1 POP DUP1 PUSH1 0x0 DUP1 PUSH2 0x100 EXP DUP2 SLOAD DUP2 PUSH20 0xFFFFFFFFFFFFFFFFFFFFFFFFFFFFFFFFFFFFFFFF MUL NOT AND SWAP1 DUP4 PUSH20 0xFFFFFFFFFFFFFFFFFFFFFFFFFFFFFFFFFFFFFFFF AND MUL OR SWAP1 SSTORE POP DUP1 PUSH20 0xFFFFFFFFFFFFFFFFFFFFFFFFFFFFFFFFFFFFFFFF AND PUSH1 0x0 PUSH20 0xFFFFFFFFFFFFFFFFFFFFFFFFFFFFFFFFFFFFFFFF AND PUSH32 0x8BE0079C531659141344CD1FD0A4F28419497F9722A3DAAFE3B4186F6B6457E0 PUSH1 0x40 MLOAD PUSH1 0x40 MLOAD DUP1 SWAP2 SUB SWAP1 LOG3 POP PUSH20 0xCB3745379275252F4BEB5D1094BF1A8A09F368B7 PUSH1 0x1 PUSH1 0x0 PUSH2 0x100 EXP DUP2 SLOAD DUP2 PUSH20 0xFFFFFFFFFFFFFFFFFFFFFFFFFFFFFFFFFFFFFFFF MUL NOT AND SWAP1 DUP4 PUSH20 0xFFFFFFFFFFFFFFFFFFFFFFFFFFFFFFFFFFFFFFFF AND MUL OR SWAP1 SSTORE POP PUSH20 0xD295CF5D859B9ED331CDF69C49A81EFF5E1BEE83 PUSH1 0x2 PUSH1 0x0 PUSH2 0x100 EXP DUP2 SLOAD DUP2 PUSH20 0xFFFFFFFFFFFFFFFFFFFFFFFFFFFFFFFFFFFFFFFF MUL NOT AND SWAP1 DUP4 PUSH20 0xFFFFFFFFFFFFFFFFFFFFFFFFFFFFFFFFFFFFFFFF AND MUL OR SWAP1 SSTORE POP PUSH20 0xC184AF52CA4E1B1F085AA8236FF8508F52DC6EA7 PUSH1 0x3 PUSH1 0x0 PUSH2 0x100 EXP DUP2 SLOAD DUP2 PUSH20 0xFFFFFFFFFFFFFFFFFFFFFFFFFFFFFFFFFFFFFFFF MUL NOT AND SWAP1 DUP4 PUSH20 0xFFFFFFFFFFFFFFFFFFFFFFFFFFFFFFFFFFFFFFFF AND MUL OR SWAP1 SSTORE POP PUSH20 0x5BCD91C734D665FE426A5D7156F2AD7D37B76E30 PUSH1 0x4 PUSH1 0x0 PUSH2 0x100 EXP DUP2 SLOAD DUP2 PUSH20 0xFFFFFFFFFFFFFFFFFFFFFFFFFFFFFFFFFFFFFFFF MUL NOT AND SWAP1 DUP4 PUSH20 0xFFFFFFFFFFFFFFFFFFFFFFFFFFFFFFFFFFFFFFFF AND MUL OR SWAP1 SSTORE POP PUSH20 0xBB4CDB9CBD36B01BD1CBAEBF2DE08D9173BC095C PUSH1 0x5 PUSH1 0x0 PUSH2 0x100 EXP DUP2 SLOAD DUP2 PUSH20 0xFFFFFFFFFFFFFFFFFFFFFFFFFFFFFFFFFFFFFFFF MUL NOT AND SWAP1 DUP4 PUSH20 0xFFFFFFFFFFFFFFFFFFFFFFFFFFFFFFFFFFFFFFFF AND MUL OR SWAP1 SSTORE POP PUSH1 0x6 DUP1 DUP2 SWAP1 SSTORE POP PUSH2 0x296 JUMP JUMPDEST PUSH1 0x0 CALLER SWAP1 POP SWAP1 JUMP JUMPDEST PUSH2 0x289D DUP1 PUSH2 0x2A5 PUSH1 0x0 CODECOPY PUSH1 0x0 RETURN INVALID PUSH1 0x80 PUSH1 0x40 MSTORE CALLVALUE DUP1 ISZERO PUSH2 0x10 JUMPI PUSH1 0x0 DUP1 REVERT JUMPDEST POP PUSH1 0x4 CALLDATASIZE LT PUSH2 0x158 JUMPI PUSH1 0x0 CALLDATALOAD PUSH1 0xE0 SHR DUP1 PUSH4 0x8456CB59 GT PUSH2 0xC3 JUMPI DUP1 PUSH4 0xD8882779 GT PUSH2 0x7C JUMPI DUP1 PUSH4 0xD8882779 EQ PUSH2 0x36B JUMPI DUP1 PUSH4 0xDE281E28 EQ PUSH2 0x389 JUMPI DUP1 PUSH4 0xEA156F44 EQ PUSH2 0x3A5 JUMPI DUP1 PUSH4 0xF0F44260 EQ PUSH2 0x3C3 JUMPI DUP1 PUSH4 0xF2FDE38B EQ PUSH2 0x3DF JUMPI DUP1 PUSH4 0xFB8359C7 EQ PUSH2 0x3FB JUMPI PUSH2 0x158 JUMP JUMPDEST DUP1 PUSH4 0x8456CB59 EQ PUSH2 0x2B9 JUMPI DUP1 PUSH4 0x8DA5CB5B EQ PUSH2 0x2D7 JUMPI DUP1 PUSH4 0x8F32D59B EQ PUSH2 0x2F5 JUMPI DUP1 PUSH4 0xA888A93A EQ PUSH2 0x313 JUMPI DUP1 PUSH4 0xB5620229 EQ PUSH2 0x32F JUMPI DUP1 PUSH4 0xBCFCBA76 EQ PUSH2 0x34D JUMPI PUSH2 0x158 JUMP JUMPDEST DUP1 PUSH4 0x563DF32F GT PUSH2 0x115 JUMPI DUP1 PUSH4 0x563DF32F EQ PUSH2 0x20B JUMPI DUP1 PUSH4 0x59464217 EQ PUSH2 0x229 JUMPI DUP1 PUSH4 0x5C975ABB EQ PUSH2 0x259 JUMPI DUP1 PUSH4 0x5C9E0D10 EQ PUSH2 0x277 JUMPI DUP1 PUSH4 0x715018A6 EQ PUSH2 0x293 JUMPI DUP1 PUSH4 0x83D58215 EQ PUSH2 0x29D JUMPI PUSH2 0x158 JUMP JUMPDEST DUP1 PUSH4 0xFF32839 EQ PUSH2 0x15D JUMPI DUP1 PUSH4 0x1ECFF38E EQ PUSH2 0x17B JUMPI DUP1 PUSH4 0x36C3B4E2 EQ PUSH2 0x197 JUMPI DUP1 PUSH4 0x3F4BA83A EQ PUSH2 0x1B5 JUMPI DUP1 PUSH4 0x458A635A EQ PUSH2 0x1D3 JUMPI DUP1 PUSH4 0x4DD79F10 EQ PUSH2 0x1EF JUMPI JUMPDEST PUSH1 0x0 DUP1 REVERT JUMPDEST PUSH2 0x165 PUSH2 0x42D JUMP JUMPDEST PUSH1 0x40 MLOAD PUSH2 0x172 SWAP2 SWAP1 PUSH2 0x20B3 JUMP JUMPDEST PUSH1 0x40 MLOAD DUP1 SWAP2 SUB SWAP1 RETURN JUMPDEST PUSH2 0x195 PUSH1 0x4 DUP1 CALLDATASIZE SUB DUP2 ADD SWAP1 PUSH2 0x190 SWAP2 SWAP1 PUSH2 0x1CE0 JUMP JUMPDEST PUSH2 0x453 JUMP JUMPDEST STOP JUMPDEST PUSH2 0x19F PUSH2 0x537 JUMP JUMPDEST PUSH1 0x40 MLOAD PUSH2 0x1AC SWAP2 SWAP1 PUSH2 0x20B3 JUMP JUMPDEST PUSH1 0x40 MLOAD DUP1 SWAP2 SUB SWAP1 RETURN JUMPDEST PUSH2 0x1BD PUSH2 0x55D JUMP JUMPDEST PUSH1 0x40 MLOAD PUSH2 0x1CA SWAP2 SWAP1 PUSH2 0x21A3 JUMP JUMPDEST PUSH1 0x40 MLOAD DUP1 SWAP2 SUB SWAP1 RETURN JUMPDEST PUSH2 0x1ED PUSH1 0x4 DUP1 CALLDATASIZE SUB DUP2 ADD SWAP1 PUSH2 0x1E8 SWAP2 SWAP1 PUSH2 0x1CE0 JUMP JUMPDEST PUSH2 0x60C JUMP JUMPDEST STOP JUMPDEST PUSH2 0x209 PUSH1 0x4 DUP1 CALLDATASIZE SUB DUP2 ADD SWAP1 PUSH2 0x204 SWAP2 SWAP1 PUSH2 0x1DA7 JUMP JUMPDEST PUSH2 0x6F0 JUMP JUMPDEST STOP JUMPDEST PUSH2 0x213 PUSH2 0x86B JUMP JUMPDEST PUSH1 0x40 MLOAD PUSH2 0x220 SWAP2 SWAP1 PUSH2 0x20B3 JUMP JUMPDEST PUSH1 0x40 MLOAD DUP1 SWAP2 SUB SWAP1 RETURN JUMPDEST PUSH2 0x243 PUSH1 0x4 DUP1 CALLDATASIZE SUB DUP2 ADD SWAP1 PUSH2 0x23E SWAP2 SWAP1 PUSH2 0x1DA7 JUMP JUMPDEST PUSH2 0x891 JUMP JUMPDEST PUSH1 0x40 MLOAD PUSH2 0x250 SWAP2 SWAP1 PUSH2 0x20B3 JUMP JUMPDEST PUSH1 0x40 MLOAD DUP1 SWAP2 SUB SWAP1 RETURN JUMPDEST PUSH2 0x261 PUSH2 0x8CE JUMP JUMPDEST PUSH1 0x40 MLOAD PUSH2 0x26E SWAP2 SWAP1 PUSH2 0x21A3 JUMP JUMPDEST PUSH1 0x40 MLOAD DUP1 SWAP2 SUB SWAP1 RETURN JUMPDEST PUSH2 0x291 PUSH1 0x4 DUP1 CALLDATASIZE SUB DUP2 ADD SWAP1 PUSH2 0x28C SWAP2 SWAP1 PUSH2 0x1D3A JUMP JUMPDEST PUSH2 0x8E1 JUMP JUMPDEST STOP JUMPDEST PUSH2 0x29B PUSH2 0xBEC JUMP JUMPDEST STOP JUMPDEST PUSH2 0x2B7 PUSH1 0x4 DUP1 CALLDATASIZE SUB DUP2 ADD SWAP1 PUSH2 0x2B2 SWAP2 SWAP1 PUSH2 0x1E01 JUMP JUMPDEST PUSH2 0xCF1 JUMP JUMPDEST STOP JUMPDEST PUSH2 0x2C1 PUSH2 0xF9F JUMP JUMPDEST PUSH1 0x40 MLOAD PUSH2 0x2CE SWAP2 SWAP1 PUSH2 0x21A3 JUMP JUMPDEST PUSH1 0x40 MLOAD DUP1 SWAP2 SUB SWAP1 RETURN JUMPDEST PUSH2 0x2DF PUSH2 0x1050 JUMP JUMPDEST PUSH1 0x40 MLOAD PUSH2 0x2EC SWAP2 SWAP1 PUSH2 0x20B3 JUMP JUMPDEST PUSH1 0x40 MLOAD DUP1 SWAP2 SUB SWAP1 RETURN JUMPDEST PUSH2 0x2FD PUSH2 0x1079 JUMP JUMPDEST PUSH1 0x40 MLOAD PUSH2 0x30A SWAP2 SWAP1 PUSH2 0x21A3 JUMP JUMPDEST PUSH1 0x40 MLOAD DUP1 SWAP2 SUB SWAP1 RETURN JUMPDEST PUSH2 0x32D PUSH1 0x4 DUP1 CALLDATASIZE SUB DUP2 ADD SWAP1 PUSH2 0x328 SWAP2 SWAP1 PUSH2 0x1CE0 JUMP JUMPDEST PUSH2 0x10D7 JUMP JUMPDEST STOP JUMPDEST PUSH2 0x337 PUSH2 0x11BB JUMP JUMPDEST PUSH1 0x40 MLOAD PUSH2 0x344 SWAP2 SWAP1 PUSH2 0x20B3 JUMP JUMPDEST PUSH1 0x40 MLOAD DUP1 SWAP2 SUB SWAP1 RETURN JUMPDEST PUSH2 0x355 PUSH2 0x11E1 JUMP JUMPDEST PUSH1 0x40 MLOAD PUSH2 0x362 SWAP2 SWAP1 PUSH2 0x22DE JUMP JUMPDEST PUSH1 0x40 MLOAD DUP1 SWAP2 SUB SWAP1 RETURN JUMPDEST PUSH2 0x373 PUSH2 0x11E7 JUMP JUMPDEST PUSH1 0x40 MLOAD PUSH2 0x380 SWAP2 SWAP1 PUSH2 0x20B3 JUMP JUMPDEST PUSH1 0x40 MLOAD DUP1 SWAP2 SUB SWAP1 RETURN JUMPDEST PUSH2 0x3A3 PUSH1 0x4 DUP1 CALLDATASIZE SUB DUP2 ADD SWAP1 PUSH2 0x39E SWAP2 SWAP1 PUSH2 0x1DA7 JUMP JUMPDEST PUSH2 0x120D JUMP JUMPDEST STOP JUMPDEST PUSH2 0x3AD PUSH2 0x1297 JUMP JUMPDEST PUSH1 0x40 MLOAD PUSH2 0x3BA SWAP2 SWAP1 PUSH2 0x22DE JUMP JUMPDEST PUSH1 0x40 MLOAD DUP1 SWAP2 SUB SWAP1 RETURN JUMPDEST PUSH2 0x3DD PUSH1 0x4 DUP1 CALLDATASIZE SUB DUP2 ADD SWAP1 PUSH2 0x3D8 SWAP2 SWAP1 PUSH2 0x1CE0 JUMP JUMPDEST PUSH2 0x1472 JUMP JUMPDEST STOP JUMPDEST PUSH2 0x3F9 PUSH1 0x4 DUP1 CALLDATASIZE SUB DUP2 ADD SWAP1 PUSH2 0x3F4 SWAP2 SWAP1 PUSH2 0x1CE0 JUMP JUMPDEST PUSH2 0x1556 JUMP JUMPDEST STOP JUMPDEST PUSH2 0x415 PUSH1 0x4 DUP1 CALLDATASIZE SUB DUP2 ADD SWAP1 PUSH2 0x410 SWAP2 SWAP1 PUSH2 0x1E01 JUMP JUMPDEST PUSH2 0x15A9 JUMP JUMPDEST PUSH1 0x40 MLOAD PUSH2 0x424 SWAP4 SWAP3 SWAP2 SWAP1 PUSH2 0x2157 JUMP JUMPDEST PUSH1 0x40 MLOAD DUP1 SWAP2 SUB SWAP1 RETURN JUMPDEST PUSH1 0x5 PUSH1 0x0 SWAP1 SLOAD SWAP1 PUSH2 0x100 EXP SWAP1 DIV PUSH20 0xFFFFFFFFFFFFFFFFFFFFFFFFFFFFFFFFFFFFFFFF AND DUP2 JUMP JUMPDEST PUSH2 0x45B PUSH2 0x1079 JUMP JUMPDEST PUSH2 0x49A JUMPI PUSH1 0x40 MLOAD PUSH32 0x8C379A000000000000000000000000000000000000000000000000000000000 DUP2 MSTORE PUSH1 0x4 ADD PUSH2 0x491 SWAP1 PUSH2 0x22BE JUMP JUMPDEST PUSH1 0x40 MLOAD DUP1 SWAP2 SUB SWAP1 REVERT JUMPDEST DUP1 PUSH1 0x4 PUSH1 0x0 PUSH2 0x100 EXP DUP2 SLOAD DUP2 PUSH20 0xFFFFFFFFFFFFFFFFFFFFFFFFFFFFFFFFFFFFFFFF MUL NOT AND SWAP1 DUP4 PUSH20 0xFFFFFFFFFFFFFFFFFFFFFFFFFFFFFFFFFFFFFFFF AND MUL OR SWAP1 SSTORE POP PUSH32 0x136742181FF5FC7D13F647A125112EC36500105A024CE2DBBB7F28FA375EEBFA PUSH1 0x4 PUSH1 0x0 SWAP1 SLOAD SWAP1 PUSH2 0x100 EXP SWAP1 DIV PUSH20 0xFFFFFFFFFFFFFFFFFFFFFFFFFFFFFFFFFFFFFFFF AND PUSH1 0x40 MLOAD PUSH2 0x52C SWAP2 SWAP1 PUSH2 0x20B3 JUMP JUMPDEST PUSH1 0x40 MLOAD DUP1 SWAP2 SUB SWAP1 LOG1 POP JUMP JUMPDEST PUSH1 0x2 PUSH1 0x0 SWAP1 SLOAD SWAP1 PUSH2 0x100 EXP SWAP1 DIV PUSH20 0xFFFFFFFFFFFFFFFFFFFFFFFFFFFFFFFFFFFFFFFF AND DUP2 JUMP JUMPDEST PUSH1 0x0 PUSH2 0x567 PUSH2 0x1079 JUMP JUMPDEST PUSH2 0x5A6 JUMPI PUSH1 0x40 MLOAD PUSH32 0x8C379A000000000000000000000000000000000000000000000000000000000 DUP2 MSTORE PUSH1 0x4 ADD PUSH2 0x59D SWAP1 PUSH2 0x22BE JUMP JUMPDEST PUSH1 0x40 MLOAD DUP1 SWAP2 SUB SWAP1 REVERT JUMPDEST PUSH1 0x0 PUSH1 0x14 SWAP1 SLOAD SWAP1 PUSH2 0x100 EXP SWAP1 DIV PUSH1 0xFF AND PUSH2 0x5BF JUMPI PUSH1 0x0 DUP1 REVERT JUMPDEST PUSH1 0x0 DUP1 PUSH1 0x14 PUSH2 0x100 EXP DUP2 SLOAD DUP2 PUSH1 0xFF MUL NOT AND SWAP1 DUP4 ISZERO ISZERO MUL OR SWAP1 SSTORE POP PUSH32 0x7805862F689E2F13DF9F062FF482AD3AD112ACA9E0847911ED832E158C525B33 PUSH1 0x40 MLOAD PUSH1 0x40 MLOAD DUP1 SWAP2 SUB SWAP1 LOG1 PUSH1 0x1 SWAP1 POP SWAP1 JUMP JUMPDEST PUSH2 0x614 PUSH2 0x1079 JUMP JUMPDEST PUSH2 0x653 JUMPI PUSH1 0x40 MLOAD PUSH32 0x8C379A000000000000000000000000000000000000000000000000000000000 DUP2 MSTORE PUSH1 0x4 ADD PUSH2 0x64A SWAP1 PUSH2 0x22BE JUMP JUMPDEST PUSH1 0x40 MLOAD DUP1 SWAP2 SUB SWAP1 REVERT JUMPDEST DUP1 PUSH1 0x3 PUSH1 0x0 PUSH2 0x100 EXP DUP2 SLOAD DUP2 PUSH20 0xFFFFFFFFFFFFFFFFFFFFFFFFFFFFFFFFFFFFFFFF MUL NOT AND SWAP1 DUP4 PUSH20 0xFFFFFFFFFFFFFFFFFFFFFFFFFFFFFFFFFFFFFFFF AND MUL OR SWAP1 SSTORE POP PUSH32 0xB01E01D90E1DA4079495DB07C84276EF34A0EA39CD9BE9C3844874EB35616E44 PUSH1 0x3 PUSH1 0x0 SWAP1 SLOAD SWAP1 PUSH2 0x100 EXP SWAP1 DIV PUSH20 0xFFFFFFFFFFFFFFFFFFFFFFFFFFFFFFFFFFFFFFFF AND PUSH1 0x40 MLOAD PUSH2 0x6E5 SWAP2 SWAP1 PUSH2 0x20B3 JUMP JUMPDEST PUSH1 0x40 MLOAD DUP1 SWAP2 SUB SWAP1 LOG1 POP JUMP JUMPDEST PUSH1 0x0 PUSH1 0x14 SWAP1 SLOAD SWAP1 PUSH2 0x100 EXP SWAP1 DIV PUSH1 0xFF AND ISZERO PUSH2 0x70A JUMPI PUSH1 0x0 DUP1 REVERT JUMPDEST PUSH1 0x0 CALLER SWAP1 POP DUP1 PUSH20 0xFFFFFFFFFFFFFFFFFFFFFFFFFFFFFFFFFFFFFFFF AND PUSH1 0x3 PUSH1 0x0 SWAP1 SLOAD SWAP1 PUSH2 0x100 EXP SWAP1 DIV PUSH20 0xFFFFFFFFFFFFFFFFFFFFFFFFFFFFFFFFFFFFFFFF AND PUSH20 0xFFFFFFFFFFFFFFFFFFFFFFFFFFFFFFFFFFFFFFFF AND PUSH4 0x6352211E DUP5 PUSH1 0x40 MLOAD DUP3 PUSH4 0xFFFFFFFF AND PUSH1 0xE0 SHL DUP2 MSTORE PUSH1 0x4 ADD PUSH2 0x781 SWAP2 SWAP1 PUSH2 0x22DE JUMP JUMPDEST PUSH1 0x20 PUSH1 0x40 MLOAD DUP1 DUP4 SUB DUP2 DUP7 DUP1 EXTCODESIZE ISZERO DUP1 ISZERO PUSH2 0x799 JUMPI PUSH1 0x0 DUP1 REVERT JUMPDEST POP GAS STATICCALL ISZERO DUP1 ISZERO PUSH2 0x7AD JUMPI RETURNDATASIZE PUSH1 0x0 DUP1 RETURNDATACOPY RETURNDATASIZE PUSH1 0x0 REVERT JUMPDEST POP POP POP POP PUSH1 0x40 MLOAD RETURNDATASIZE PUSH1 0x1F NOT PUSH1 0x1F DUP3 ADD AND DUP3 ADD DUP1 PUSH1 0x40 MSTORE POP DUP2 ADD SWAP1 PUSH2 0x7D1 SWAP2 SWAP1 PUSH2 0x1D0D JUMP JUMPDEST PUSH20 0xFFFFFFFFFFFFFFFFFFFFFFFFFFFFFFFFFFFFFFFF AND EQ PUSH2 0x827 JUMPI PUSH1 0x40 MLOAD PUSH32 0x8C379A000000000000000000000000000000000000000000000000000000000 DUP2 MSTORE PUSH1 0x4 ADD PUSH2 0x81E SWAP1 PUSH2 0x21BE JUMP JUMPDEST PUSH1 0x40 MLOAD DUP1 SWAP2 SUB SWAP1 REVERT JUMPDEST PUSH2 0x830 DUP3 PUSH2 0x18E8 JUMP JUMPDEST PUSH32 0xD4CEEA0833AC36CC33C805E4F164DEDB6D75E092A34E14083BBB87976BEFDECF DUP3 PUSH1 0x40 MLOAD PUSH2 0x85F SWAP2 SWAP1 PUSH2 0x22DE JUMP JUMPDEST PUSH1 0x40 MLOAD DUP1 SWAP2 SUB SWAP1 LOG1 POP POP JUMP JUMPDEST PUSH1 0x1 PUSH1 0x0 SWAP1 SLOAD SWAP1 PUSH2 0x100 EXP SWAP1 DIV PUSH20 0xFFFFFFFFFFFFFFFFFFFFFFFFFFFFFFFFFFFFFFFF AND DUP2 JUMP JUMPDEST PUSH1 0x0 PUSH1 0x7 PUSH1 0x0 DUP4 DUP2 MSTORE PUSH1 0x20 ADD SWAP1 DUP2 MSTORE PUSH1 0x20 ADD PUSH1 0x0 KECCAK256 PUSH1 0x0 SWAP1 SLOAD SWAP1 PUSH2 0x100 EXP SWAP1 DIV PUSH20 0xFFFFFFFFFFFFFFFFFFFFFFFFFFFFFFFFFFFFFFFF AND SWAP1 POP SWAP2 SWAP1 POP JUMP JUMPDEST PUSH1 0x0 PUSH1 0x14 SWAP1 SLOAD SWAP1 PUSH2 0x100 EXP SWAP1 DIV PUSH1 0xFF AND DUP2 JUMP JUMPDEST PUSH1 0x0 PUSH1 0x14 SWAP1 SLOAD SWAP1 PUSH2 0x100 EXP SWAP1 DIV PUSH1 0xFF AND ISZERO PUSH2 0x8FB JUMPI PUSH1 0x0 DUP1 REVERT JUMPDEST PUSH1 0x0 CALLER SWAP1 POP PUSH1 0x3 PUSH1 0x0 SWAP1 SLOAD SWAP1 PUSH2 0x100 EXP SWAP1 DIV PUSH20 0xFFFFFFFFFFFFFFFFFFFFFFFFFFFFFFFFFFFFFFFF AND PUSH20 0xFFFFFFFFFFFFFFFFFFFFFFFFFFFFFFFFFFFFFFFF AND PUSH4 0xE985E9C5 DUP3 ADDRESS PUSH1 0x40 MLOAD DUP4 PUSH4 0xFFFFFFFF AND PUSH1 0xE0 SHL DUP2 MSTORE PUSH1 0x4 ADD PUSH2 0x95D SWAP3 SWAP2 SWAP1 PUSH2 0x20CE JUMP JUMPDEST PUSH1 0x20 PUSH1 0x40 MLOAD DUP1 DUP4 SUB DUP2 DUP7 DUP1 EXTCODESIZE ISZERO DUP1 ISZERO PUSH2 0x975 JUMPI PUSH1 0x0 DUP1 REVERT JUMPDEST POP GAS STATICCALL ISZERO DUP1 ISZERO PUSH2 0x989 JUMPI RETURNDATASIZE PUSH1 0x0 DUP1 RETURNDATACOPY RETURNDATASIZE PUSH1 0x0 REVERT JUMPDEST POP POP POP POP PUSH1 0x40 MLOAD RETURNDATASIZE PUSH1 0x1F NOT PUSH1 0x1F DUP3 ADD AND DUP3 ADD DUP1 PUSH1 0x40 MSTORE POP DUP2 ADD SWAP1 PUSH2 0x9AD SWAP2 SWAP1 PUSH2 0x1D7A JUMP JUMPDEST PUSH2 0x9EC JUMPI PUSH1 0x40 MLOAD PUSH32 0x8C379A000000000000000000000000000000000000000000000000000000000 DUP2 MSTORE PUSH1 0x4 ADD PUSH2 0x9E3 SWAP1 PUSH2 0x227E JUMP JUMPDEST PUSH1 0x40 MLOAD DUP1 SWAP2 SUB SWAP1 REVERT JUMPDEST PUSH1 0x0 PUSH20 0xFFFFFFFFFFFFFFFFFFFFFFFFFFFFFFFFFFFFFFFF AND DUP4 PUSH20 0xFFFFFFFFFFFFFFFFFFFFFFFFFFFFFFFFFFFFFFFF AND EQ ISZERO PUSH2 0xA5C JUMPI PUSH1 0x40 MLOAD PUSH32 0x8C379A000000000000000000000000000000000000000000000000000000000 DUP2 MSTORE PUSH1 0x4 ADD PUSH2 0xA53 SWAP1 PUSH2 0x229E JUMP JUMPDEST PUSH1 0x40 MLOAD DUP1 SWAP2 SUB SWAP1 REVERT JUMPDEST DUP1 PUSH20 0xFFFFFFFFFFFFFFFFFFFFFFFFFFFFFFFFFFFFFFFF AND DUP4 PUSH20 0xFFFFFFFFFFFFFFFFFFFFFFFFFFFFFFFFFFFFFFFF AND EQ ISZERO PUSH2 0xACB JUMPI PUSH1 0x40 MLOAD PUSH32 0x8C379A000000000000000000000000000000000000000000000000000000000 DUP2 MSTORE PUSH1 0x4 ADD PUSH2 0xAC2 SWAP1 PUSH2 0x223E JUMP JUMPDEST PUSH1 0x40 MLOAD DUP1 SWAP2 SUB SWAP1 REVERT JUMPDEST PUSH1 0x3 PUSH1 0x0 SWAP1 SLOAD SWAP1 PUSH2 0x100 EXP SWAP1 DIV PUSH20 0xFFFFFFFFFFFFFFFFFFFFFFFFFFFFFFFFFFFFFFFF AND PUSH20 0xFFFFFFFFFFFFFFFFFFFFFFFFFFFFFFFFFFFFFFFF AND PUSH4 0x42842E0E DUP3 DUP6 DUP6 PUSH1 0x40 MLOAD DUP5 PUSH4 0xFFFFFFFF AND PUSH1 0xE0 SHL DUP2 MSTORE PUSH1 0x4 ADD PUSH2 0xB2A SWAP4 SWAP3 SWAP2 SWAP1 PUSH2 0x20F7 JUMP JUMPDEST PUSH1 0x0 PUSH1 0x40 MLOAD DUP1 DUP4 SUB DUP2 PUSH1 0x0 DUP8 DUP1 EXTCODESIZE ISZERO DUP1 ISZERO PUSH2 0xB44 JUMPI PUSH1 0x0 DUP1 REVERT JUMPDEST POP GAS CALL ISZERO DUP1 ISZERO PUSH2 0xB58 JUMPI RETURNDATASIZE PUSH1 0x0 DUP1 RETURNDATACOPY RETURNDATASIZE PUSH1 0x0 REVERT JUMPDEST POP POP POP POP DUP3 PUSH1 0x7 PUSH1 0x0 DUP5 DUP2 MSTORE PUSH1 0x20 ADD SWAP1 DUP2 MSTORE PUSH1 0x20 ADD PUSH1 0x0 KECCAK256 PUSH1 0x0 PUSH2 0x100 EXP DUP2 SLOAD DUP2 PUSH20 0xFFFFFFFFFFFFFFFFFFFFFFFFFFFFFFFFFFFFFFFF MUL NOT AND SWAP1 DUP4 PUSH20 0xFFFFFFFFFFFFFFFFFFFFFFFFFFFFFFFFFFFFFFFF AND MUL OR SWAP1 SSTORE POP PUSH32 0x2A422DA7E70B3CA41064BE14C50B74A43CBBEF24634FA3B7E90D120B8ECC08B3 DUP4 DUP4 PUSH1 0x40 MLOAD PUSH2 0xBDF SWAP3 SWAP2 SWAP1 PUSH2 0x212E JUMP JUMPDEST PUSH1 0x40 MLOAD DUP1 SWAP2 SUB SWAP1 LOG1 POP POP POP JUMP JUMPDEST PUSH2 0xBF4 PUSH2 0x1079 JUMP JUMPDEST PUSH2 0xC33 JUMPI PUSH1 0x40 MLOAD PUSH32 0x8C379A000000000000000000000000000000000000000000000000000000000 DUP2 MSTORE PUSH1 0x4 ADD PUSH2 0xC2A SWAP1 PUSH2 0x22BE JUMP JUMPDEST PUSH1 0x40 MLOAD DUP1 SWAP2 SUB SWAP1 REVERT JUMPDEST PUSH1 0x0 PUSH20 0xFFFFFFFFFFFFFFFFFFFFFFFFFFFFFFFFFFFFFFFF AND PUSH1 0x0 DUP1 SLOAD SWAP1 PUSH2 0x100 EXP SWAP1 DIV PUSH20 0xFFFFFFFFFFFFFFFFFFFFFFFFFFFFFFFFFFFFFFFF AND PUSH20 0xFFFFFFFFFFFFFFFFFFFFFFFFFFFFFFFFFFFFFFFF AND PUSH32 0x8BE0079C531659141344CD1FD0A4F28419497F9722A3DAAFE3B4186F6B6457E0 PUSH1 0x40 MLOAD PUSH1 0x40 MLOAD DUP1 SWAP2 SUB SWAP1 LOG3 PUSH1 0x0 DUP1 PUSH1 0x0 PUSH2 0x100 EXP DUP2 SLOAD DUP2 PUSH20 0xFFFFFFFFFFFFFFFFFFFFFFFFFFFFFFFFFFFFFFFF MUL NOT AND SWAP1 DUP4 PUSH20 0xFFFFFFFFFFFFFFFFFFFFFFFFFFFFFFFFFFFFFFFF AND MUL OR SWAP1 SSTORE POP JUMP JUMPDEST PUSH1 0x0 PUSH1 0x14 SWAP1 SLOAD SWAP1 PUSH2 0x100 EXP SWAP1 DIV PUSH1 0xFF AND ISZERO PUSH2 0xD0B JUMPI PUSH1 0x0 DUP1 REVERT JUMPDEST PUSH1 0x0 CALLER SWAP1 POP DUP1 PUSH20 0xFFFFFFFFFFFFFFFFFFFFFFFFFFFFFFFFFFFFFFFF AND PUSH1 0x3 PUSH1 0x0 SWAP1 SLOAD SWAP1 PUSH2 0x100 EXP SWAP1 DIV PUSH20 0xFFFFFFFFFFFFFFFFFFFFFFFFFFFFFFFFFFFFFFFF AND PUSH20 0xFFFFFFFFFFFFFFFFFFFFFFFFFFFFFFFFFFFFFFFF AND PUSH4 0x6352211E DUP6 PUSH1 0x40 MLOAD DUP3 PUSH4 0xFFFFFFFF AND PUSH1 0xE0 SHL DUP2 MSTORE PUSH1 0x4 ADD PUSH2 0xD82 SWAP2 SWAP1 PUSH2 0x22DE JUMP JUMPDEST PUSH1 0x20 PUSH1 0x40 MLOAD DUP1 DUP4 SUB DUP2 DUP7 DUP1 EXTCODESIZE ISZERO DUP1 ISZERO PUSH2 0xD9A JUMPI PUSH1 0x0 DUP1 REVERT JUMPDEST POP GAS STATICCALL ISZERO DUP1 ISZERO PUSH2 0xDAE JUMPI RETURNDATASIZE PUSH1 0x0 DUP1 RETURNDATACOPY RETURNDATASIZE PUSH1 0x0 REVERT JUMPDEST POP POP POP POP PUSH1 0x40 MLOAD RETURNDATASIZE PUSH1 0x1F NOT PUSH1 0x1F DUP3 ADD AND DUP3 ADD DUP1 PUSH1 0x40 MSTORE POP DUP2 ADD SWAP1 PUSH2 0xDD2 SWAP2 SWAP1 PUSH2 0x1D0D JUMP JUMPDEST PUSH20 0xFFFFFFFFFFFFFFFFFFFFFFFFFFFFFFFFFFFFFFFF AND EQ PUSH2 0xE28 JUMPI PUSH1 0x40 MLOAD PUSH32 0x8C379A000000000000000000000000000000000000000000000000000000000 DUP2 MSTORE PUSH1 0x4 ADD PUSH2 0xE1F SWAP1 PUSH2 0x21BE JUMP JUMPDEST PUSH1 0x40 MLOAD DUP1 SWAP2 SUB SWAP1 REVERT JUMPDEST PUSH1 0x3 PUSH1 0x0 SWAP1 SLOAD SWAP1 PUSH2 0x100 EXP SWAP1 DIV PUSH20 0xFFFFFFFFFFFFFFFFFFFFFFFFFFFFFFFFFFFFFFFF AND PUSH20 0xFFFFFFFFFFFFFFFFFFFFFFFFFFFFFFFFFFFFFFFF AND PUSH4 0xE985E9C5 DUP3 ADDRESS PUSH1 0x40 MLOAD DUP4 PUSH4 0xFFFFFFFF AND PUSH1 0xE0 SHL DUP2 MSTORE PUSH1 0x4 ADD PUSH2 0xE85 SWAP3 SWAP2 SWAP1 PUSH2 0x20CE JUMP JUMPDEST PUSH1 0x20 PUSH1 0x40 MLOAD DUP1 DUP4 SUB DUP2 DUP7 DUP1 EXTCODESIZE ISZERO DUP1 ISZERO PUSH2 0xE9D JUMPI PUSH1 0x0 DUP1 REVERT JUMPDEST POP GAS STATICCALL ISZERO DUP1 ISZERO PUSH2 0xEB1 JUMPI RETURNDATASIZE PUSH1 0x0 DUP1 RETURNDATACOPY RETURNDATASIZE PUSH1 0x0 REVERT JUMPDEST POP POP POP POP PUSH1 0x40 MLOAD RETURNDATASIZE PUSH1 0x1F NOT PUSH1 0x1F DUP3 ADD AND DUP3 ADD DUP1 PUSH1 0x40 MSTORE POP DUP2 ADD SWAP1 PUSH2 0xED5 SWAP2 SWAP1 PUSH2 0x1D7A JUMP JUMPDEST PUSH2 0xF14 JUMPI PUSH1 0x40 MLOAD PUSH32 0x8C379A000000000000000000000000000000000000000000000000000000000 DUP2 MSTORE PUSH1 0x4 ADD PUSH2 0xF0B SWAP1 PUSH2 0x227E JUMP JUMPDEST PUSH1 0x40 MLOAD DUP1 SWAP2 SUB SWAP1 REVERT JUMPDEST PUSH1 0x0 DUP3 GT PUSH2 0xF57 JUMPI PUSH1 0x40 MLOAD PUSH32 0x8C379A000000000000000000000000000000000000000000000000000000000 DUP2 MSTORE PUSH1 0x4 ADD PUSH2 0xF4E SWAP1 PUSH2 0x225E JUMP JUMPDEST PUSH1 0x40 MLOAD DUP1 SWAP2 SUB SWAP1 REVERT JUMPDEST PUSH2 0xF61 DUP4 DUP4 PUSH2 0x19FB JUMP JUMPDEST PUSH32 0x55BB046A6E950AF74FCDAAA97A1A82C49209D72A5FCDA0925A019DFBA29C8F72 DUP4 DUP4 PUSH1 0x40 MLOAD PUSH2 0xF92 SWAP3 SWAP2 SWAP1 PUSH2 0x22F9 JUMP JUMPDEST PUSH1 0x40 MLOAD DUP1 SWAP2 SUB SWAP1 LOG1 POP POP POP JUMP JUMPDEST PUSH1 0x0 PUSH2 0xFA9 PUSH2 0x1079 JUMP JUMPDEST PUSH2 0xFE8 JUMPI PUSH1 0x40 MLOAD PUSH32 0x8C379A000000000000000000000000000000000000000000000000000000000 DUP2 MSTORE PUSH1 0x4 ADD PUSH2 0xFDF SWAP1 PUSH2 0x22BE JUMP JUMPDEST PUSH1 0x40 MLOAD DUP1 SWAP2 SUB SWAP1 REVERT JUMPDEST PUSH1 0x0 PUSH1 0x14 SWAP1 SLOAD SWAP1 PUSH2 0x100 EXP SWAP1 DIV PUSH1 0xFF AND ISZERO PUSH2 0x1002 JUMPI PUSH1 0x0 DUP1 REVERT JUMPDEST PUSH1 0x1 PUSH1 0x0 PUSH1 0x14 PUSH2 0x100 EXP DUP2 SLOAD DUP2 PUSH1 0xFF MUL NOT AND SWAP1 DUP4 ISZERO ISZERO MUL OR SWAP1 SSTORE POP PUSH32 0x6985A02210A168E66602D3235CB6DB0E70F92B3BA4D376A33C0F3D9434BFF625 PUSH1 0x40 MLOAD PUSH1 0x40 MLOAD DUP1 SWAP2 SUB SWAP1 LOG1 PUSH1 0x1 SWAP1 POP SWAP1 JUMP JUMPDEST PUSH1 0x0 DUP1 PUSH1 0x0 SWAP1 SLOAD SWAP1 PUSH2 0x100 EXP SWAP1 DIV PUSH20 0xFFFFFFFFFFFFFFFFFFFFFFFFFFFFFFFFFFFFFFFF AND SWAP1 POP SWAP1 JUMP JUMPDEST PUSH1 0x0 DUP1 PUSH1 0x0 SWAP1 SLOAD SWAP1 PUSH2 0x100 EXP SWAP1 DIV PUSH20 0xFFFFFFFFFFFFFFFFFFFFFFFFFFFFFFFFFFFFFFFF AND PUSH20 0xFFFFFFFFFFFFFFFFFFFFFFFFFFFFFFFFFFFFFFFF AND PUSH2 0x10BB PUSH2 0x1B42 JUMP JUMPDEST PUSH20 0xFFFFFFFFFFFFFFFFFFFFFFFFFFFFFFFFFFFFFFFF AND EQ SWAP1 POP SWAP1 JUMP JUMPDEST PUSH2 0x10DF PUSH2 0x1079 JUMP JUMPDEST PUSH2 0x111E JUMPI PUSH1 0x40 MLOAD PUSH32 0x8C379A000000000000000000000000000000000000000000000000000000000 DUP2 MSTORE PUSH1 0x4 ADD PUSH2 0x1115 SWAP1 PUSH2 0x22BE JUMP JUMPDEST PUSH1 0x40 MLOAD DUP1 SWAP2 SUB SWAP1 REVERT JUMPDEST DUP1 PUSH1 0x2 PUSH1 0x0 PUSH2 0x100 EXP DUP2 SLOAD DUP2 PUSH20 0xFFFFFFFFFFFFFFFFFFFFFFFFFFFFFFFFFFFFFFFF MUL NOT AND SWAP1 DUP4 PUSH20 0xFFFFFFFFFFFFFFFFFFFFFFFFFFFFFFFFFFFFFFFF AND MUL OR SWAP1 SSTORE POP PUSH32 0xACDD85D235B5B49226C2C4F2B72CB01FA1CC3AE64BB843A6DEF27788D05B1B60 PUSH1 0x2 PUSH1 0x0 SWAP1 SLOAD SWAP1 PUSH2 0x100 EXP SWAP1 DIV PUSH20 0xFFFFFFFFFFFFFFFFFFFFFFFFFFFFFFFFFFFFFFFF AND PUSH1 0x40 MLOAD PUSH2 0x11B0 SWAP2 SWAP1 PUSH2 0x20B3 JUMP JUMPDEST PUSH1 0x40 MLOAD DUP1 SWAP2 SUB SWAP1 LOG1 POP JUMP JUMPDEST PUSH1 0x4 PUSH1 0x0 SWAP1 SLOAD SWAP1 PUSH2 0x100 EXP SWAP1 DIV PUSH20 0xFFFFFFFFFFFFFFFFFFFFFFFFFFFFFFFFFFFFFFFF AND DUP2 JUMP JUMPDEST PUSH1 0x6 SLOAD DUP2 JUMP JUMPDEST PUSH1 0x3 PUSH1 0x0 SWAP1 SLOAD SWAP1 PUSH2 0x100 EXP SWAP1 DIV PUSH20 0xFFFFFFFFFFFFFFFFFFFFFFFFFFFFFFFFFFFFFFFF AND DUP2 JUMP JUMPDEST PUSH2 0x1215 PUSH2 0x1079 JUMP JUMPDEST PUSH2 0x1254 JUMPI PUSH1 0x40 MLOAD PUSH32 0x8C379A000000000000000000000000000000000000000000000000000000000 DUP2 MSTORE PUSH1 0x4 ADD PUSH2 0x124B SWAP1 PUSH2 0x22BE JUMP JUMPDEST PUSH1 0x40 MLOAD DUP1 SWAP2 SUB SWAP1 REVERT JUMPDEST DUP1 PUSH1 0x6 DUP2 SWAP1 SSTORE POP PUSH32 0x4D8E30FF458BEBDD848488669E63D632954487CA1BC64C28F3C920F74A5F8594 PUSH1 0x6 SLOAD PUSH1 0x40 MLOAD PUSH2 0x128C SWAP2 SWAP1 PUSH2 0x22DE JUMP JUMPDEST PUSH1 0x40 MLOAD DUP1 SWAP2 SUB SWAP1 LOG1 POP JUMP JUMPDEST PUSH1 0x0 DUP1 PUSH1 0x5 PUSH1 0x0 SWAP1 SLOAD SWAP1 PUSH2 0x100 EXP SWAP1 DIV PUSH20 0xFFFFFFFFFFFFFFFFFFFFFFFFFFFFFFFFFFFFFFFF AND PUSH20 0xFFFFFFFFFFFFFFFFFFFFFFFFFFFFFFFFFFFFFFFF AND PUSH4 0x70A08231 PUSH1 0x2 PUSH1 0x0 SWAP1 SLOAD SWAP1 PUSH2 0x100 EXP SWAP1 DIV PUSH20 0xFFFFFFFFFFFFFFFFFFFFFFFFFFFFFFFFFFFFFFFF AND PUSH1 0x40 MLOAD DUP3 PUSH4 0xFFFFFFFF AND PUSH1 0xE0 SHL DUP2 MSTORE PUSH1 0x4 ADD PUSH2 0x1317 SWAP2 SWAP1 PUSH2 0x20B3 JUMP JUMPDEST PUSH1 0x20 PUSH1 0x40 MLOAD DUP1 DUP4 SUB DUP2 DUP7 DUP1 EXTCODESIZE ISZERO DUP1 ISZERO PUSH2 0x132F JUMPI PUSH1 0x0 DUP1 REVERT JUMPDEST POP GAS STATICCALL ISZERO DUP1 ISZERO PUSH2 0x1343 JUMPI RETURNDATASIZE PUSH1 0x0 DUP1 RETURNDATACOPY RETURNDATASIZE PUSH1 0x0 REVERT JUMPDEST POP POP POP POP PUSH1 0x40 MLOAD RETURNDATASIZE PUSH1 0x1F NOT PUSH1 0x1F DUP3 ADD AND DUP3 ADD DUP1 PUSH1 0x40 MSTORE POP DUP2 ADD SWAP1 PUSH2 0x1367 SWAP2 SWAP1 PUSH2 0x1DD4 JUMP JUMPDEST SWAP1 POP PUSH1 0x0 PUSH1 0x4 PUSH1 0x0 SWAP1 SLOAD SWAP1 PUSH2 0x100 EXP SWAP1 DIV PUSH20 0xFFFFFFFFFFFFFFFFFFFFFFFFFFFFFFFFFFFFFFFF AND PUSH20 0xFFFFFFFFFFFFFFFFFFFFFFFFFFFFFFFFFFFFFFFF AND PUSH4 0x70A08231 PUSH1 0x2 PUSH1 0x0 SWAP1 SLOAD SWAP1 PUSH2 0x100 EXP SWAP1 DIV PUSH20 0xFFFFFFFFFFFFFFFFFFFFFFFFFFFFFFFFFFFFFFFF AND PUSH1 0x40 MLOAD DUP3 PUSH4 0xFFFFFFFF AND PUSH1 0xE0 SHL DUP2 MSTORE PUSH1 0x4 ADD PUSH2 0x13E8 SWAP2 SWAP1 PUSH2 0x20B3 JUMP JUMPDEST PUSH1 0x20 PUSH1 0x40 MLOAD DUP1 DUP4 SUB DUP2 DUP7 DUP1 EXTCODESIZE ISZERO DUP1 ISZERO PUSH2 0x1400 JUMPI PUSH1 0x0 DUP1 REVERT JUMPDEST POP GAS STATICCALL ISZERO DUP1 ISZERO PUSH2 0x1414 JUMPI RETURNDATASIZE PUSH1 0x0 DUP1 RETURNDATACOPY RETURNDATASIZE PUSH1 0x0 REVERT JUMPDEST POP POP POP POP PUSH1 0x40 MLOAD RETURNDATASIZE PUSH1 0x1F NOT PUSH1 0x1F DUP3 ADD AND DUP3 ADD DUP1 PUSH1 0x40 MSTORE POP DUP2 ADD SWAP1 PUSH2 0x1438 SWAP2 SWAP1 PUSH2 0x1DD4 JUMP JUMPDEST SWAP1 POP PUSH1 0x0 DUP3 DUP3 PUSH2 0x1448 SWAP2 SWAP1 PUSH2 0x23FB JUMP JUMPDEST SWAP1 POP PUSH1 0x0 PUSH1 0xA PUSH1 0x6 SLOAD DUP4 PUSH2 0x145C SWAP2 SWAP1 PUSH2 0x242C JUMP JUMPDEST PUSH2 0x1466 SWAP2 SWAP1 PUSH2 0x23FB JUMP JUMPDEST SWAP1 POP DUP1 SWAP5 POP POP POP POP POP SWAP1 JUMP JUMPDEST PUSH2 0x147A PUSH2 0x1079 JUMP JUMPDEST PUSH2 0x14B9 JUMPI PUSH1 0x40 MLOAD PUSH32 0x8C379A000000000000000000000000000000000000000000000000000000000 DUP2 MSTORE PUSH1 0x4 ADD PUSH2 0x14B0 SWAP1 PUSH2 0x22BE JUMP JUMPDEST PUSH1 0x40 MLOAD DUP1 SWAP2 SUB SWAP1 REVERT JUMPDEST DUP1 PUSH1 0x1 PUSH1 0x0 PUSH2 0x100 EXP DUP2 SLOAD DUP2 PUSH20 0xFFFFFFFFFFFFFFFFFFFFFFFFFFFFFFFFFFFFFFFF MUL NOT AND SWAP1 DUP4 PUSH20 0xFFFFFFFFFFFFFFFFFFFFFFFFFFFFFFFFFFFFFFFF AND MUL OR SWAP1 SSTORE POP PUSH32 0xB14F2A39BB21FDA32827BBDB4BE629C94036E10A3F6055A6454F884CA1B33FA1 PUSH1 0x1 PUSH1 0x0 SWAP1 SLOAD SWAP1 PUSH2 0x100 EXP SWAP1 DIV PUSH20 0xFFFFFFFFFFFFFFFFFFFFFFFFFFFFFFFFFFFFFFFF AND PUSH1 0x40 MLOAD PUSH2 0x154B SWAP2 SWAP1 PUSH2 0x20B3 JUMP JUMPDEST PUSH1 0x40 MLOAD DUP1 SWAP2 SUB SWAP1 LOG1 POP JUMP JUMPDEST PUSH2 0x155E PUSH2 0x1079 JUMP JUMPDEST PUSH2 0x159D JUMPI PUSH1 0x40 MLOAD PUSH32 0x8C379A000000000000000000000000000000000000000000000000000000000 DUP2 MSTORE PUSH1 0x4 ADD PUSH2 0x1594 SWAP1 PUSH2 0x22BE JUMP JUMPDEST PUSH1 0x40 MLOAD DUP1 SWAP2 SUB SWAP1 REVERT JUMPDEST PUSH2 0x15A6 DUP2 PUSH2 0x1B4A JUMP JUMPDEST POP JUMP JUMPDEST PUSH1 0x60 DUP1 PUSH1 0x60 PUSH1 0x0 PUSH1 0x9 DUP1 SLOAD SWAP1 POP SWAP1 POP PUSH1 0x0 DUP7 GT DUP1 ISZERO PUSH2 0x15C7 JUMPI POP DUP1 DUP7 LT JUMPDEST PUSH2 0x1606 JUMPI PUSH1 0x40 MLOAD PUSH32 0x8C379A000000000000000000000000000000000000000000000000000000000 DUP2 MSTORE PUSH1 0x4 ADD PUSH2 0x15FD SWAP1 PUSH2 0x21DE JUMP JUMPDEST PUSH1 0x40 MLOAD DUP1 SWAP2 SUB SWAP1 REVERT JUMPDEST DUP6 DUP6 LT ISZERO DUP1 ISZERO PUSH2 0x1616 JUMPI POP PUSH1 0x0 DUP6 GT JUMPDEST DUP1 ISZERO PUSH2 0x1621 JUMPI POP DUP1 DUP6 LT JUMPDEST PUSH2 0x1660 JUMPI PUSH1 0x40 MLOAD PUSH32 0x8C379A000000000000000000000000000000000000000000000000000000000 DUP2 MSTORE PUSH1 0x4 ADD PUSH2 0x1657 SWAP1 PUSH2 0x221E JUMP JUMPDEST PUSH1 0x40 MLOAD DUP1 SWAP2 SUB SWAP1 REVERT JUMPDEST PUSH1 0x0 DUP2 PUSH8 0xFFFFFFFFFFFFFFFF DUP2 GT ISZERO PUSH2 0x167C JUMPI PUSH2 0x167B PUSH2 0x2631 JUMP JUMPDEST JUMPDEST PUSH1 0x40 MLOAD SWAP1 DUP1 DUP3 MSTORE DUP1 PUSH1 0x20 MUL PUSH1 0x20 ADD DUP3 ADD PUSH1 0x40 MSTORE DUP1 ISZERO PUSH2 0x16AA JUMPI DUP2 PUSH1 0x20 ADD PUSH1 0x20 DUP3 MUL DUP1 CALLDATASIZE DUP4 CALLDATACOPY DUP1 DUP3 ADD SWAP2 POP POP SWAP1 POP JUMPDEST POP SWAP1 POP PUSH1 0x0 DUP3 PUSH8 0xFFFFFFFFFFFFFFFF DUP2 GT ISZERO PUSH2 0x16C9 JUMPI PUSH2 0x16C8 PUSH2 0x2631 JUMP JUMPDEST JUMPDEST PUSH1 0x40 MLOAD SWAP1 DUP1 DUP3 MSTORE DUP1 PUSH1 0x20 MUL PUSH1 0x20 ADD DUP3 ADD PUSH1 0x40 MSTORE DUP1 ISZERO PUSH2 0x16F7 JUMPI DUP2 PUSH1 0x20 ADD PUSH1 0x20 DUP3 MUL DUP1 CALLDATASIZE DUP4 CALLDATACOPY DUP1 DUP3 ADD SWAP2 POP POP SWAP1 POP JUMPDEST POP SWAP1 POP PUSH1 0x0 DUP9 SWAP1 POP JUMPDEST DUP8 DUP2 GT PUSH2 0x1881 JUMPI PUSH1 0x8 PUSH1 0x0 PUSH1 0x9 DUP4 DUP2 SLOAD DUP2 LT PUSH2 0x171F JUMPI PUSH2 0x171E PUSH2 0x2602 JUMP JUMPDEST JUMPDEST SWAP1 PUSH1 0x0 MSTORE PUSH1 0x20 PUSH1 0x0 KECCAK256 ADD SLOAD DUP2 MSTORE PUSH1 0x20 ADD SWAP1 DUP2 MSTORE PUSH1 0x20 ADD PUSH1 0x0 KECCAK256 SLOAD DUP4 DUP3 DUP2 MLOAD DUP2 LT PUSH2 0x174C JUMPI PUSH2 0x174B PUSH2 0x2602 JUMP JUMPDEST JUMPDEST PUSH1 0x20 MUL PUSH1 0x20 ADD ADD DUP2 DUP2 MSTORE POP POP PUSH1 0x3 PUSH1 0x0 SWAP1 SLOAD SWAP1 PUSH2 0x100 EXP SWAP1 DIV PUSH20 0xFFFFFFFFFFFFFFFFFFFFFFFFFFFFFFFFFFFFFFFF AND PUSH20 0xFFFFFFFFFFFFFFFFFFFFFFFFFFFFFFFFFFFFFFFF AND PUSH4 0x6352211E PUSH1 0x9 DUP4 DUP2 SLOAD DUP2 LT PUSH2 0x17AA JUMPI PUSH2 0x17A9 PUSH2 0x2602 JUMP JUMPDEST JUMPDEST SWAP1 PUSH1 0x0 MSTORE PUSH1 0x20 PUSH1 0x0 KECCAK256 ADD SLOAD PUSH1 0x40 MLOAD DUP3 PUSH4 0xFFFFFFFF AND PUSH1 0xE0 SHL DUP2 MSTORE PUSH1 0x4 ADD PUSH2 0x17D1 SWAP2 SWAP1 PUSH2 0x22DE JUMP JUMPDEST PUSH1 0x20 PUSH1 0x40 MLOAD DUP1 DUP4 SUB DUP2 DUP7 DUP1 EXTCODESIZE ISZERO DUP1 ISZERO PUSH2 0x17E9 JUMPI PUSH1 0x0 DUP1 REVERT JUMPDEST POP GAS STATICCALL ISZERO DUP1 ISZERO PUSH2 0x17FD JUMPI RETURNDATASIZE PUSH1 0x0 DUP1 RETURNDATACOPY RETURNDATASIZE PUSH1 0x0 REVERT JUMPDEST POP POP POP POP PUSH1 0x40 MLOAD RETURNDATASIZE PUSH1 0x1F NOT PUSH1 0x1F DUP3 ADD AND DUP3 ADD DUP1 PUSH1 0x40 MSTORE POP DUP2 ADD SWAP1 PUSH2 0x1821 SWAP2 SWAP1 PUSH2 0x1D0D JUMP JUMPDEST DUP3 DUP3 DUP2 MLOAD DUP2 LT PUSH2 0x1834 JUMPI PUSH2 0x1833 PUSH2 0x2602 JUMP JUMPDEST JUMPDEST PUSH1 0x20 MUL PUSH1 0x20 ADD ADD SWAP1 PUSH20 0xFFFFFFFFFFFFFFFFFFFFFFFFFFFFFFFFFFFFFFFF AND SWAP1 DUP2 PUSH20 0xFFFFFFFFFFFFFFFFFFFFFFFFFFFFFFFFFFFFFFFF AND DUP2 MSTORE POP POP DUP1 DUP1 PUSH2 0x1879 SWAP1 PUSH2 0x252C JUMP JUMPDEST SWAP2 POP POP PUSH2 0x1700 JUMP JUMPDEST POP PUSH1 0x9 DUP2 DUP4 DUP3 DUP1 SLOAD DUP1 PUSH1 0x20 MUL PUSH1 0x20 ADD PUSH1 0x40 MLOAD SWAP1 DUP2 ADD PUSH1 0x40 MSTORE DUP1 SWAP3 SWAP2 SWAP1 DUP2 DUP2 MSTORE PUSH1 0x20 ADD DUP3 DUP1 SLOAD DUP1 ISZERO PUSH2 0x18D1 JUMPI PUSH1 0x20 MUL DUP3 ADD SWAP2 SWAP1 PUSH1 0x0 MSTORE PUSH1 0x20 PUSH1 0x0 KECCAK256 SWAP1 JUMPDEST DUP2 SLOAD DUP2 MSTORE PUSH1 0x20 ADD SWAP1 PUSH1 0x1 ADD SWAP1 DUP1 DUP4 GT PUSH2 0x18BD JUMPI JUMPDEST POP POP POP POP POP SWAP3 POP SWAP6 POP SWAP6 POP SWAP6 POP POP POP POP SWAP3 POP SWAP3 POP SWAP3 JUMP JUMPDEST PUSH1 0x8 PUSH1 0x0 DUP3 DUP2 MSTORE PUSH1 0x20 ADD SWAP1 DUP2 MSTORE PUSH1 0x20 ADD PUSH1 0x0 KECCAK256 PUSH1 0x0 SWAP1 SSTORE PUSH1 0x0 JUMPDEST PUSH1 0x9 DUP1 SLOAD SWAP1 POP DUP2 LT ISZERO PUSH2 0x19F6 JUMPI DUP2 PUSH1 0x9 DUP3 DUP2 SLOAD DUP2 LT PUSH2 0x1924 JUMPI PUSH2 0x1923 PUSH2 0x2602 JUMP JUMPDEST JUMPDEST SWAP1 PUSH1 0x0 MSTORE PUSH1 0x20 PUSH1 0x0 KECCAK256 ADD SLOAD EQ ISZERO PUSH2 0x19E3 JUMPI PUSH1 0x0 DUP2 SWAP1 POP JUMPDEST PUSH1 0x1 PUSH1 0x9 DUP1 SLOAD SWAP1 POP PUSH2 0x194D SWAP2 SWAP1 PUSH2 0x2486 JUMP JUMPDEST DUP2 LT ISZERO PUSH2 0x19B4 JUMPI PUSH1 0x9 PUSH1 0x1 DUP3 PUSH2 0x1963 SWAP2 SWAP1 PUSH2 0x23A5 JUMP JUMPDEST DUP2 SLOAD DUP2 LT PUSH2 0x1974 JUMPI PUSH2 0x1973 PUSH2 0x2602 JUMP JUMPDEST JUMPDEST SWAP1 PUSH1 0x0 MSTORE PUSH1 0x20 PUSH1 0x0 KECCAK256 ADD SLOAD PUSH1 0x9 DUP3 DUP2 SLOAD DUP2 LT PUSH2 0x1993 JUMPI PUSH2 0x1992 PUSH2 0x2602 JUMP JUMPDEST JUMPDEST SWAP1 PUSH1 0x0 MSTORE PUSH1 0x20 PUSH1 0x0 KECCAK256 ADD DUP2 SWAP1 SSTORE POP DUP1 DUP1 PUSH2 0x19AC SWAP1 PUSH2 0x252C JUMP JUMPDEST SWAP2 POP POP PUSH2 0x193B JUMP JUMPDEST POP PUSH1 0x9 DUP1 SLOAD DUP1 PUSH2 0x19C7 JUMPI PUSH2 0x19C6 PUSH2 0x25D3 JUMP JUMPDEST JUMPDEST PUSH1 0x1 SWAP1 SUB DUP2 DUP2 SWAP1 PUSH1 0x0 MSTORE PUSH1 0x20 PUSH1 0x0 KECCAK256 ADD PUSH1 0x0 SWAP1 SSTORE SWAP1 SSTORE POP PUSH2 0x19F8 JUMP JUMPDEST DUP1 DUP1 PUSH2 0x19EE SWAP1 PUSH2 0x252C JUMP JUMPDEST SWAP2 POP POP PUSH2 0x1902 JUMP JUMPDEST POP JUMPDEST POP JUMP JUMPDEST DUP1 PUSH1 0x8 PUSH1 0x0 DUP5 DUP2 MSTORE PUSH1 0x20 ADD SWAP1 DUP2 MSTORE PUSH1 0x20 ADD PUSH1 0x0 KECCAK256 DUP2 SWAP1 SSTORE POP PUSH1 0x9 DUP3 SWAP1 DUP1 PUSH1 0x1 DUP2 SLOAD ADD DUP1 DUP3 SSTORE DUP1 SWAP2 POP POP PUSH1 0x1 SWAP1 SUB SWAP1 PUSH1 0x0 MSTORE PUSH1 0x20 PUSH1 0x0 KECCAK256 ADD PUSH1 0x0 SWAP1 SWAP2 SWAP1 SWAP2 SWAP1 SWAP2 POP SSTORE PUSH1 0x2 PUSH1 0x9 DUP1 SLOAD SWAP1 POP LT PUSH2 0x1B3D JUMPI PUSH1 0x0 PUSH1 0x2 PUSH1 0x9 DUP1 SLOAD SWAP1 POP PUSH2 0x1A5D SWAP2 SWAP1 PUSH2 0x2486 JUMP JUMPDEST SWAP1 POP JUMPDEST PUSH1 0x0 DUP2 LT PUSH2 0x1B3B JUMPI DUP2 PUSH1 0x8 PUSH1 0x0 PUSH1 0x9 DUP5 DUP2 SLOAD DUP2 LT PUSH2 0x1A81 JUMPI PUSH2 0x1A80 PUSH2 0x2602 JUMP JUMPDEST JUMPDEST SWAP1 PUSH1 0x0 MSTORE PUSH1 0x20 PUSH1 0x0 KECCAK256 ADD SLOAD DUP2 MSTORE PUSH1 0x20 ADD SWAP1 DUP2 MSTORE PUSH1 0x20 ADD PUSH1 0x0 KECCAK256 SLOAD GT ISZERO PUSH2 0x1AF3 JUMPI PUSH1 0x9 DUP2 DUP2 SLOAD DUP2 LT PUSH2 0x1AB5 JUMPI PUSH2 0x1AB4 PUSH2 0x2602 JUMP JUMPDEST JUMPDEST SWAP1 PUSH1 0x0 MSTORE PUSH1 0x20 PUSH1 0x0 KECCAK256 ADD SLOAD PUSH1 0x9 PUSH1 0x1 DUP4 PUSH2 0x1ACF SWAP2 SWAP1 PUSH2 0x23A5 JUMP JUMPDEST DUP2 SLOAD DUP2 LT PUSH2 0x1AE0 JUMPI PUSH2 0x1ADF PUSH2 0x2602 JUMP JUMPDEST JUMPDEST SWAP1 PUSH1 0x0 MSTORE PUSH1 0x20 PUSH1 0x0 KECCAK256 ADD DUP2 SWAP1 SSTORE POP PUSH2 0x1B28 JUMP JUMPDEST DUP3 PUSH1 0x9 PUSH1 0x1 DUP4 PUSH2 0x1B03 SWAP2 SWAP1 PUSH2 0x23A5 JUMP JUMPDEST DUP2 SLOAD DUP2 LT PUSH2 0x1B14 JUMPI PUSH2 0x1B13 PUSH2 0x2602 JUMP JUMPDEST JUMPDEST SWAP1 PUSH1 0x0 MSTORE PUSH1 0x20 PUSH1 0x0 KECCAK256 ADD DUP2 SWAP1 SSTORE POP POP PUSH2 0x1B3E JUMP JUMPDEST DUP1 DUP1 PUSH2 0x1B33 SWAP1 PUSH2 0x2502 JUMP JUMPDEST SWAP2 POP POP PUSH2 0x1A60 JUMP JUMPDEST POP JUMPDEST JUMPDEST POP POP JUMP JUMPDEST PUSH1 0x0 CALLER SWAP1 POP SWAP1 JUMP JUMPDEST PUSH1 0x0 PUSH20 0xFFFFFFFFFFFFFFFFFFFFFFFFFFFFFFFFFFFFFFFF AND DUP2 PUSH20 0xFFFFFFFFFFFFFFFFFFFFFFFFFFFFFFFFFFFFFFFF AND EQ ISZERO PUSH2 0x1BBA JUMPI PUSH1 0x40 MLOAD PUSH32 0x8C379A000000000000000000000000000000000000000000000000000000000 DUP2 MSTORE PUSH1 0x4 ADD PUSH2 0x1BB1 SWAP1 PUSH2 0x21FE JUMP JUMPDEST PUSH1 0x40 MLOAD DUP1 SWAP2 SUB SWAP1 REVERT JUMPDEST DUP1 PUSH20 0xFFFFFFFFFFFFFFFFFFFFFFFFFFFFFFFFFFFFFFFF AND PUSH1 0x0 DUP1 SLOAD SWAP1 PUSH2 0x100 EXP SWAP1 DIV PUSH20 0xFFFFFFFFFFFFFFFFFFFFFFFFFFFFFFFFFFFFFFFF AND PUSH20 0xFFFFFFFFFFFFFFFFFFFFFFFFFFFFFFFFFFFFFFFF AND PUSH32 0x8BE0079C531659141344CD1FD0A4F28419497F9722A3DAAFE3B4186F6B6457E0 PUSH1 0x40 MLOAD PUSH1 0x40 MLOAD DUP1 SWAP2 SUB SWAP1 LOG3 DUP1 PUSH1 0x0 DUP1 PUSH2 0x100 EXP DUP2 SLOAD DUP2 PUSH20 0xFFFFFFFFFFFFFFFFFFFFFFFFFFFFFFFFFFFFFFFF MUL NOT AND SWAP1 DUP4 PUSH20 0xFFFFFFFFFFFFFFFFFFFFFFFFFFFFFFFFFFFFFFFF AND MUL OR SWAP1 SSTORE POP POP JUMP JUMPDEST PUSH1 0x0 DUP2 CALLDATALOAD SWAP1 POP PUSH2 0x1C86 DUP2 PUSH2 0x2822 JUMP JUMPDEST SWAP3 SWAP2 POP POP JUMP JUMPDEST PUSH1 0x0 DUP2 MLOAD SWAP1 POP PUSH2 0x1C9B DUP2 PUSH2 0x2822 JUMP JUMPDEST SWAP3 SWAP2 POP POP JUMP JUMPDEST PUSH1 0x0 DUP2 MLOAD SWAP1 POP PUSH2 0x1CB0 DUP2 PUSH2 0x2839 JUMP JUMPDEST SWAP3 SWAP2 POP POP JUMP JUMPDEST PUSH1 0x0 DUP2 CALLDATALOAD SWAP1 POP PUSH2 0x1CC5 DUP2 PUSH2 0x2850 JUMP JUMPDEST SWAP3 SWAP2 POP POP JUMP JUMPDEST PUSH1 0x0 DUP2 MLOAD SWAP1 POP PUSH2 0x1CDA DUP2 PUSH2 0x2850 JUMP JUMPDEST SWAP3 SWAP2 POP POP JUMP JUMPDEST PUSH1 0x0 PUSH1 0x20 DUP3 DUP5 SUB SLT ISZERO PUSH2 0x1CF6 JUMPI PUSH2 0x1CF5 PUSH2 0x2660 JUMP JUMPDEST JUMPDEST PUSH1 0x0 PUSH2 0x1D04 DUP5 DUP3 DUP6 ADD PUSH2 0x1C77 JUMP JUMPDEST SWAP2 POP POP SWAP3 SWAP2 POP POP JUMP JUMPDEST PUSH1 0x0 PUSH1 0x20 DUP3 DUP5 SUB SLT ISZERO PUSH2 0x1D23 JUMPI PUSH2 0x1D22 PUSH2 0x2660 JUMP JUMPDEST JUMPDEST PUSH1 0x0 PUSH2 0x1D31 DUP5 DUP3 DUP6 ADD PUSH2 0x1C8C JUMP JUMPDEST SWAP2 POP POP SWAP3 SWAP2 POP POP JUMP JUMPDEST PUSH1 0x0 DUP1 PUSH1 0x40 DUP4 DUP6 SUB SLT ISZERO PUSH2 0x1D51 JUMPI PUSH2 0x1D50 PUSH2 0x2660 JUMP JUMPDEST JUMPDEST PUSH1 0x0 PUSH2 0x1D5F DUP6 DUP3 DUP7 ADD PUSH2 0x1C77 JUMP JUMPDEST SWAP3 POP POP PUSH1 0x20 PUSH2 0x1D70 DUP6 DUP3 DUP7 ADD PUSH2 0x1CB6 JUMP JUMPDEST SWAP2 POP POP SWAP3 POP SWAP3 SWAP1 POP JUMP JUMPDEST PUSH1 0x0 PUSH1 0x20 DUP3 DUP5 SUB SLT ISZERO PUSH2 0x1D90 JUMPI PUSH2 0x1D8F PUSH2 0x2660 JUMP JUMPDEST JUMPDEST PUSH1 0x0 PUSH2 0x1D9E DUP5 DUP3 DUP6 ADD PUSH2 0x1CA1 JUMP JUMPDEST SWAP2 POP POP SWAP3 SWAP2 POP POP JUMP JUMPDEST PUSH1 0x0 PUSH1 0x20 DUP3 DUP5 SUB SLT ISZERO PUSH2 0x1DBD JUMPI PUSH2 0x1DBC PUSH2 0x2660 JUMP JUMPDEST JUMPDEST PUSH1 0x0 PUSH2 0x1DCB DUP5 DUP3 DUP6 ADD PUSH2 0x1CB6 JUMP JUMPDEST SWAP2 POP POP SWAP3 SWAP2 POP POP JUMP JUMPDEST PUSH1 0x0 PUSH1 0x20 DUP3 DUP5 SUB SLT ISZERO PUSH2 0x1DEA JUMPI PUSH2 0x1DE9 PUSH2 0x2660 JUMP JUMPDEST JUMPDEST PUSH1 0x0 PUSH2 0x1DF8 DUP5 DUP3 DUP6 ADD PUSH2 0x1CCB JUMP JUMPDEST SWAP2 POP POP SWAP3 SWAP2 POP POP JUMP JUMPDEST PUSH1 0x0 DUP1 PUSH1 0x40 DUP4 DUP6 SUB SLT ISZERO PUSH2 0x1E18 JUMPI PUSH2 0x1E17 PUSH2 0x2660 JUMP JUMPDEST JUMPDEST PUSH1 0x0 PUSH2 0x1E26 DUP6 DUP3 DUP7 ADD PUSH2 0x1CB6 JUMP JUMPDEST SWAP3 POP POP PUSH1 0x20 PUSH2 0x1E37 DUP6 DUP3 DUP7 ADD PUSH2 0x1CB6 JUMP JUMPDEST SWAP2 POP POP SWAP3 POP SWAP3 SWAP1 POP JUMP JUMPDEST PUSH1 0x0 PUSH2 0x1E4D DUP4 DUP4 PUSH2 0x1E71 JUMP JUMPDEST PUSH1 0x20 DUP4 ADD SWAP1 POP SWAP3 SWAP2 POP POP JUMP JUMPDEST PUSH1 0x0 PUSH2 0x1E65 DUP4 DUP4 PUSH2 0x2095 JUMP JUMPDEST PUSH1 0x20 DUP4 ADD SWAP1 POP SWAP3 SWAP2 POP POP JUMP JUMPDEST PUSH2 0x1E7A DUP2 PUSH2 0x24BA JUMP JUMPDEST DUP3 MSTORE POP POP JUMP JUMPDEST PUSH2 0x1E89 DUP2 PUSH2 0x24BA JUMP JUMPDEST DUP3 MSTORE POP POP JUMP JUMPDEST PUSH1 0x0 PUSH2 0x1E9A DUP3 PUSH2 0x2342 JUMP JUMPDEST PUSH2 0x1EA4 DUP2 DUP6 PUSH2 0x2372 JUMP JUMPDEST SWAP4 POP PUSH2 0x1EAF DUP4 PUSH2 0x2322 JUMP JUMPDEST DUP1 PUSH1 0x0 JUMPDEST DUP4 DUP2 LT ISZERO PUSH2 0x1EE0 JUMPI DUP2 MLOAD PUSH2 0x1EC7 DUP9 DUP3 PUSH2 0x1E41 JUMP JUMPDEST SWAP8 POP PUSH2 0x1ED2 DUP4 PUSH2 0x2358 JUMP JUMPDEST SWAP3 POP POP PUSH1 0x1 DUP2 ADD SWAP1 POP PUSH2 0x1EB3 JUMP JUMPDEST POP DUP6 SWAP4 POP POP POP POP SWAP3 SWAP2 POP POP JUMP JUMPDEST PUSH1 0x0 PUSH2 0x1EF8 DUP3 PUSH2 0x234D JUMP JUMPDEST PUSH2 0x1F02 DUP2 DUP6 PUSH2 0x2383 JUMP JUMPDEST SWAP4 POP PUSH2 0x1F0D DUP4 PUSH2 0x2332 JUMP JUMPDEST DUP1 PUSH1 0x0 JUMPDEST DUP4 DUP2 LT ISZERO PUSH2 0x1F3E JUMPI DUP2 MLOAD PUSH2 0x1F25 DUP9 DUP3 PUSH2 0x1E59 JUMP JUMPDEST SWAP8 POP PUSH2 0x1F30 DUP4 PUSH2 0x2365 JUMP JUMPDEST SWAP3 POP POP PUSH1 0x1 DUP2 ADD SWAP1 POP PUSH2 0x1F11 JUMP JUMPDEST POP DUP6 SWAP4 POP POP POP POP SWAP3 SWAP2 POP POP JUMP JUMPDEST PUSH2 0x1F54 DUP2 PUSH2 0x24CC JUMP JUMPDEST DUP3 MSTORE POP POP JUMP JUMPDEST PUSH1 0x0 PUSH2 0x1F67 PUSH1 0x1D DUP4 PUSH2 0x2394 JUMP JUMPDEST SWAP2 POP PUSH2 0x1F72 DUP3 PUSH2 0x2665 JUMP JUMPDEST PUSH1 0x20 DUP3 ADD SWAP1 POP SWAP2 SWAP1 POP JUMP JUMPDEST PUSH1 0x0 PUSH2 0x1F8A PUSH1 0xC DUP4 PUSH2 0x2394 JUMP JUMPDEST SWAP2 POP PUSH2 0x1F95 DUP3 PUSH2 0x268E JUMP JUMPDEST PUSH1 0x20 DUP3 ADD SWAP1 POP SWAP2 SWAP1 POP JUMP JUMPDEST PUSH1 0x0 PUSH2 0x1FAD PUSH1 0x26 DUP4 PUSH2 0x2394 JUMP JUMPDEST SWAP2 POP PUSH2 0x1FB8 DUP3 PUSH2 0x26B7 JUMP JUMPDEST PUSH1 0x40 DUP3 ADD SWAP1 POP SWAP2 SWAP1 POP JUMP JUMPDEST PUSH1 0x0 PUSH2 0x1FD0 PUSH1 0xA DUP4 PUSH2 0x2394 JUMP JUMPDEST SWAP2 POP PUSH2 0x1FDB DUP3 PUSH2 0x2706 JUMP JUMPDEST PUSH1 0x20 DUP3 ADD SWAP1 POP SWAP2 SWAP1 POP JUMP JUMPDEST PUSH1 0x0 PUSH2 0x1FF3 PUSH1 0x18 DUP4 PUSH2 0x2394 JUMP JUMPDEST SWAP2 POP PUSH2 0x1FFE DUP3 PUSH2 0x272F JUMP JUMPDEST PUSH1 0x20 DUP3 ADD SWAP1 POP SWAP2 SWAP1 POP JUMP JUMPDEST PUSH1 0x0 PUSH2 0x2016 PUSH1 0x9 DUP4 PUSH2 0x2394 JUMP JUMPDEST SWAP2 POP PUSH2 0x2021 DUP3 PUSH2 0x2758 JUMP JUMPDEST PUSH1 0x20 DUP3 ADD SWAP1 POP SWAP2 SWAP1 POP JUMP JUMPDEST PUSH1 0x0 PUSH2 0x2039 PUSH1 0x28 DUP4 PUSH2 0x2394 JUMP JUMPDEST SWAP2 POP PUSH2 0x2044 DUP3 PUSH2 0x2781 JUMP JUMPDEST PUSH1 0x40 DUP3 ADD SWAP1 POP SWAP2 SWAP1 POP JUMP JUMPDEST PUSH1 0x0 PUSH2 0x205C PUSH1 0x14 DUP4 PUSH2 0x2394 JUMP JUMPDEST SWAP2 POP PUSH2 0x2067 DUP3 PUSH2 0x27D0 JUMP JUMPDEST PUSH1 0x20 DUP3 ADD SWAP1 POP SWAP2 SWAP1 POP JUMP JUMPDEST PUSH1 0x0 PUSH2 0x207F PUSH1 0x20 DUP4 PUSH2 0x2394 JUMP JUMPDEST SWAP2 POP PUSH2 0x208A DUP3 PUSH2 0x27F9 JUMP JUMPDEST PUSH1 0x20 DUP3 ADD SWAP1 POP SWAP2 SWAP1 POP JUMP JUMPDEST PUSH2 0x209E DUP2 PUSH2 0x24F8 JUMP JUMPDEST DUP3 MSTORE POP POP JUMP JUMPDEST PUSH2 0x20AD DUP2 PUSH2 0x24F8 JUMP JUMPDEST DUP3 MSTORE POP POP JUMP JUMPDEST PUSH1 0x0 PUSH1 0x20 DUP3 ADD SWAP1 POP PUSH2 0x20C8 PUSH1 0x0 DUP4 ADD DUP5 PUSH2 0x1E80 JUMP JUMPDEST SWAP3 SWAP2 POP POP JUMP JUMPDEST PUSH1 0x0 PUSH1 0x40 DUP3 ADD SWAP1 POP PUSH2 0x20E3 PUSH1 0x0 DUP4 ADD DUP6 PUSH2 0x1E80 JUMP JUMPDEST PUSH2 0x20F0 PUSH1 0x20 DUP4 ADD DUP5 PUSH2 0x1E80 JUMP JUMPDEST SWAP4 SWAP3 POP POP POP JUMP JUMPDEST PUSH1 0x0 PUSH1 0x60 DUP3 ADD SWAP1 POP PUSH2 0x210C PUSH1 0x0 DUP4 ADD DUP7 PUSH2 0x1E80 JUMP JUMPDEST PUSH2 0x2119 PUSH1 0x20 DUP4 ADD DUP6 PUSH2 0x1E80 JUMP JUMPDEST PUSH2 0x2126 PUSH1 0x40 DUP4 ADD DUP5 PUSH2 0x20A4 JUMP JUMPDEST SWAP5 SWAP4 POP POP POP POP JUMP JUMPDEST PUSH1 0x0 PUSH1 0x40 DUP3 ADD SWAP1 POP PUSH2 0x2143 PUSH1 0x0 DUP4 ADD DUP6 PUSH2 0x1E80 JUMP JUMPDEST PUSH2 0x2150 PUSH1 0x20 DUP4 ADD DUP5 PUSH2 0x20A4 JUMP JUMPDEST SWAP4 SWAP3 POP POP POP JUMP JUMPDEST PUSH1 0x0 PUSH1 0x60 DUP3 ADD SWAP1 POP DUP2 DUP2 SUB PUSH1 0x0 DUP4 ADD MSTORE PUSH2 0x2171 DUP2 DUP7 PUSH2 0x1EED JUMP JUMPDEST SWAP1 POP DUP2 DUP2 SUB PUSH1 0x20 DUP4 ADD MSTORE PUSH2 0x2185 DUP2 DUP6 PUSH2 0x1E8F JUMP JUMPDEST SWAP1 POP DUP2 DUP2 SUB PUSH1 0x40 DUP4 ADD MSTORE PUSH2 0x2199 DUP2 DUP5 PUSH2 0x1EED JUMP JUMPDEST SWAP1 POP SWAP5 SWAP4 POP POP POP POP JUMP JUMPDEST PUSH1 0x0 PUSH1 0x20 DUP3 ADD SWAP1 POP PUSH2 0x21B8 PUSH1 0x0 DUP4 ADD DUP5 PUSH2 0x1F4B JUMP JUMPDEST SWAP3 SWAP2 POP POP JUMP JUMPDEST PUSH1 0x0 PUSH1 0x20 DUP3 ADD SWAP1 POP DUP2 DUP2 SUB PUSH1 0x0 DUP4 ADD MSTORE PUSH2 0x21D7 DUP2 PUSH2 0x1F5A JUMP JUMPDEST SWAP1 POP SWAP2 SWAP1 POP JUMP JUMPDEST PUSH1 0x0 PUSH1 0x20 DUP3 ADD SWAP1 POP DUP2 DUP2 SUB PUSH1 0x0 DUP4 ADD MSTORE PUSH2 0x21F7 DUP2 PUSH2 0x1F7D JUMP JUMPDEST SWAP1 POP SWAP2 SWAP1 POP JUMP JUMPDEST PUSH1 0x0 PUSH1 0x20 DUP3 ADD SWAP1 POP DUP2 DUP2 SUB PUSH1 0x0 DUP4 ADD MSTORE PUSH2 0x2217 DUP2 PUSH2 0x1FA0 JUMP JUMPDEST SWAP1 POP SWAP2 SWAP1 POP JUMP JUMPDEST PUSH1 0x0 PUSH1 0x20 DUP3 ADD SWAP1 POP DUP2 DUP2 SUB PUSH1 0x0 DUP4 ADD MSTORE PUSH2 0x2237 DUP2 PUSH2 0x1FC3 JUMP JUMPDEST SWAP1 POP SWAP2 SWAP1 POP JUMP JUMPDEST PUSH1 0x0 PUSH1 0x20 DUP3 ADD SWAP1 POP DUP2 DUP2 SUB PUSH1 0x0 DUP4 ADD MSTORE PUSH2 0x2257 DUP2 PUSH2 0x1FE6 JUMP JUMPDEST SWAP1 POP SWAP2 SWAP1 POP JUMP JUMPDEST PUSH1 0x0 PUSH1 0x20 DUP3 ADD SWAP1 POP DUP2 DUP2 SUB PUSH1 0x0 DUP4 ADD MSTORE PUSH2 0x2277 DUP2 PUSH2 0x2009 JUMP JUMPDEST SWAP1 POP SWAP2 SWAP1 POP JUMP JUMPDEST PUSH1 0x0 PUSH1 0x20 DUP3 ADD SWAP1 POP DUP2 DUP2 SUB PUSH1 0x0 DUP4 ADD MSTORE PUSH2 0x2297 DUP2 PUSH2 0x202C JUMP JUMPDEST SWAP1 POP SWAP2 SWAP1 POP JUMP JUMPDEST PUSH1 0x0 PUSH1 0x20 DUP3 ADD SWAP1 POP DUP2 DUP2 SUB PUSH1 0x0 DUP4 ADD MSTORE PUSH2 0x22B7 DUP2 PUSH2 0x204F JUMP JUMPDEST SWAP1 POP SWAP2 SWAP1 POP JUMP JUMPDEST PUSH1 0x0 PUSH1 0x20 DUP3 ADD SWAP1 POP DUP2 DUP2 SUB PUSH1 0x0 DUP4 ADD MSTORE PUSH2 0x22D7 DUP2 PUSH2 0x2072 JUMP JUMPDEST SWAP1 POP SWAP2 SWAP1 POP JUMP JUMPDEST PUSH1 0x0 PUSH1 0x20 DUP3 ADD SWAP1 POP PUSH2 0x22F3 PUSH1 0x0 DUP4 ADD DUP5 PUSH2 0x20A4 JUMP JUMPDEST SWAP3 SWAP2 POP POP JUMP JUMPDEST PUSH1 0x0 PUSH1 0x40 DUP3 ADD SWAP1 POP PUSH2 0x230E PUSH1 0x0 DUP4 ADD DUP6 PUSH2 0x20A4 JUMP JUMPDEST PUSH2 0x231B PUSH1 0x20 DUP4 ADD DUP5 PUSH2 0x20A4 JUMP JUMPDEST SWAP4 SWAP3 POP POP POP JUMP JUMPDEST PUSH1 0x0 DUP2 SWAP1 POP PUSH1 0x20 DUP3 ADD SWAP1 POP SWAP2 SWAP1 POP JUMP JUMPDEST PUSH1 0x0 DUP2 SWAP1 POP PUSH1 0x20 DUP3 ADD SWAP1 POP SWAP2 SWAP1 POP JUMP JUMPDEST PUSH1 0x0 DUP2 MLOAD SWAP1 POP SWAP2 SWAP1 POP JUMP JUMPDEST PUSH1 0x0 DUP2 MLOAD SWAP1 POP SWAP2 SWAP1 POP JUMP JUMPDEST PUSH1 0x0 PUSH1 0x20 DUP3 ADD SWAP1 POP SWAP2 SWAP1 POP JUMP JUMPDEST PUSH1 0x0 PUSH1 0x20 DUP3 ADD SWAP1 POP SWAP2 SWAP1 POP JUMP JUMPDEST PUSH1 0x0 DUP3 DUP3 MSTORE PUSH1 0x20 DUP3 ADD SWAP1 POP SWAP3 SWAP2 POP POP JUMP JUMPDEST PUSH1 0x0 DUP3 DUP3 MSTORE PUSH1 0x20 DUP3 ADD SWAP1 POP SWAP3 SWAP2 POP POP JUMP JUMPDEST PUSH1 0x0 DUP3 DUP3 MSTORE PUSH1 0x20 DUP3 ADD SWAP1 POP SWAP3 SWAP2 POP POP JUMP JUMPDEST PUSH1 0x0 PUSH2 0x23B0 DUP3 PUSH2 0x24F8 JUMP JUMPDEST SWAP2 POP PUSH2 0x23BB DUP4 PUSH2 0x24F8 JUMP JUMPDEST SWAP3 POP DUP3 PUSH32 0xFFFFFFFFFFFFFFFFFFFFFFFFFFFFFFFFFFFFFFFFFFFFFFFFFFFFFFFFFFFFFFFF SUB DUP3 GT ISZERO PUSH2 0x23F0 JUMPI PUSH2 0x23EF PUSH2 0x2575 JUMP JUMPDEST JUMPDEST DUP3 DUP3 ADD SWAP1 POP SWAP3 SWAP2 POP POP JUMP JUMPDEST PUSH1 0x0 PUSH2 0x2406 DUP3 PUSH2 0x24F8 JUMP JUMPDEST SWAP2 POP PUSH2 0x2411 DUP4 PUSH2 0x24F8 JUMP JUMPDEST SWAP3 POP DUP3 PUSH2 0x2421 JUMPI PUSH2 0x2420 PUSH2 0x25A4 JUMP JUMPDEST JUMPDEST DUP3 DUP3 DIV SWAP1 POP SWAP3 SWAP2 POP POP JUMP JUMPDEST PUSH1 0x0 PUSH2 0x2437 DUP3 PUSH2 0x24F8 JUMP JUMPDEST SWAP2 POP PUSH2 0x2442 DUP4 PUSH2 0x24F8 JUMP JUMPDEST SWAP3 POP DUP2 PUSH32 0xFFFFFFFFFFFFFFFFFFFFFFFFFFFFFFFFFFFFFFFFFFFFFFFFFFFFFFFFFFFFFFFF DIV DUP4 GT DUP3 ISZERO ISZERO AND ISZERO PUSH2 0x247B JUMPI PUSH2 0x247A PUSH2 0x2575 JUMP JUMPDEST JUMPDEST DUP3 DUP3 MUL SWAP1 POP SWAP3 SWAP2 POP POP JUMP JUMPDEST PUSH1 0x0 PUSH2 0x2491 DUP3 PUSH2 0x24F8 JUMP JUMPDEST SWAP2 POP PUSH2 0x249C DUP4 PUSH2 0x24F8 JUMP JUMPDEST SWAP3 POP DUP3 DUP3 LT ISZERO PUSH2 0x24AF JUMPI PUSH2 0x24AE PUSH2 0x2575 JUMP JUMPDEST JUMPDEST DUP3 DUP3 SUB SWAP1 POP SWAP3 SWAP2 POP POP JUMP JUMPDEST PUSH1 0x0 PUSH2 0x24C5 DUP3 PUSH2 0x24D8 JUMP JUMPDEST SWAP1 POP SWAP2 SWAP1 POP JUMP JUMPDEST PUSH1 0x0 DUP2 ISZERO ISZERO SWAP1 POP SWAP2 SWAP1 POP JUMP JUMPDEST PUSH1 0x0 PUSH20 0xFFFFFFFFFFFFFFFFFFFFFFFFFFFFFFFFFFFFFFFF DUP3 AND SWAP1 POP SWAP2 SWAP1 POP JUMP JUMPDEST PUSH1 0x0 DUP2 SWAP1 POP SWAP2 SWAP1 POP JUMP JUMPDEST PUSH1 0x0 PUSH2 0x250D DUP3 PUSH2 0x24F8 JUMP JUMPDEST SWAP2 POP PUSH1 0x0 DUP3 EQ ISZERO PUSH2 0x2521 JUMPI PUSH2 0x2520 PUSH2 0x2575 JUMP JUMPDEST JUMPDEST PUSH1 0x1 DUP3 SUB SWAP1 POP SWAP2 SWAP1 POP JUMP JUMPDEST PUSH1 0x0 PUSH2 0x2537 DUP3 PUSH2 0x24F8 JUMP JUMPDEST SWAP2 POP PUSH32 0xFFFFFFFFFFFFFFFFFFFFFFFFFFFFFFFFFFFFFFFFFFFFFFFFFFFFFFFFFFFFFFFF DUP3 EQ ISZERO PUSH2 0x256A JUMPI PUSH2 0x2569 PUSH2 0x2575 JUMP JUMPDEST JUMPDEST PUSH1 0x1 DUP3 ADD SWAP1 POP SWAP2 SWAP1 POP JUMP JUMPDEST PUSH32 0x4E487B7100000000000000000000000000000000000000000000000000000000 PUSH1 0x0 MSTORE PUSH1 0x11 PUSH1 0x4 MSTORE PUSH1 0x24 PUSH1 0x0 REVERT JUMPDEST PUSH32 0x4E487B7100000000000000000000000000000000000000000000000000000000 PUSH1 0x0 MSTORE PUSH1 0x12 PUSH1 0x4 MSTORE PUSH1 0x24 PUSH1 0x0 REVERT JUMPDEST PUSH32 0x4E487B7100000000000000000000000000000000000000000000000000000000 PUSH1 0x0 MSTORE PUSH1 0x31 PUSH1 0x4 MSTORE PUSH1 0x24 PUSH1 0x0 REVERT JUMPDEST PUSH32 0x4E487B7100000000000000000000000000000000000000000000000000000000 PUSH1 0x0 MSTORE PUSH1 0x32 PUSH1 0x4 MSTORE PUSH1 0x24 PUSH1 0x0 REVERT JUMPDEST PUSH32 0x4E487B7100000000000000000000000000000000000000000000000000000000 PUSH1 0x0 MSTORE PUSH1 0x41 PUSH1 0x4 MSTORE PUSH1 0x24 PUSH1 0x0 REVERT JUMPDEST PUSH1 0x0 DUP1 REVERT JUMPDEST PUSH32 0x73656C6C6572206E6565642068617665207468697320746F6B656E6964000000 PUSH1 0x0 DUP3 ADD MSTORE POP JUMP JUMPDEST PUSH32 0x5374617274206E6F74206F6B0000000000000000000000000000000000000000 PUSH1 0x0 DUP3 ADD MSTORE POP JUMP JUMPDEST PUSH32 0x4F776E61626C653A206E6577206F776E657220697320746865207A65726F2061 PUSH1 0x0 DUP3 ADD MSTORE PUSH32 0x6464726573730000000000000000000000000000000000000000000000000000 PUSH1 0x20 DUP3 ADD MSTORE POP JUMP JUMPDEST PUSH32 0x456E64206E6F74206F6B00000000000000000000000000000000000000000000 PUSH1 0x0 DUP3 ADD MSTORE POP JUMP JUMPDEST PUSH32 0x46726F6D20616E6420546F2063616E206E6F742073616D650000000000000000 PUSH1 0x0 DUP3 ADD MSTORE POP JUMP JUMPDEST PUSH32 0x5072696365203E20300000000000000000000000000000000000000000000000 PUSH1 0x0 DUP3 ADD MSTORE POP JUMP JUMPDEST PUSH32 0x596F75206E65656420417070726F766520466F7220416C6C20746F2074686973 PUSH1 0x0 DUP3 ADD MSTORE PUSH32 0x20636F6E74616374000000000000000000000000000000000000000000000000 PUSH1 0x20 DUP3 ADD MSTORE POP JUMP JUMPDEST PUSH32 0x416464726573732063616E206E6F74207A65726F000000000000000000000000 PUSH1 0x0 DUP3 ADD MSTORE POP JUMP JUMPDEST PUSH32 0x4F776E61626C653A2063616C6C6572206973206E6F7420746865206F776E6572 PUSH1 0x0 DUP3 ADD MSTORE POP JUMP JUMPDEST PUSH2 0x282B DUP2 PUSH2 0x24BA JUMP JUMPDEST DUP2 EQ PUSH2 0x2836 JUMPI PUSH1 0x0 DUP1 REVERT JUMPDEST POP JUMP JUMPDEST PUSH2 0x2842 DUP2 PUSH2 0x24CC JUMP JUMPDEST DUP2 EQ PUSH2 0x284D JUMPI PUSH1 0x0 DUP1 REVERT JUMPDEST POP JUMP JUMPDEST PUSH2 0x2859 DUP2 PUSH2 0x24F8 JUMP JUMPDEST DUP2 EQ PUSH2 0x2864 JUMPI PUSH1 0x0 DUP1 REVERT JUMPDEST POP JUMP INVALID LOG2 PUSH5 0x6970667358 0x22 SLT KECCAK256 0xFB 0xA5 NOT 0xBB PUSH22 0x9972E84AB849D1E78AC102080967FFCE8937AC864A6E 0xC0 RETURNDATASIZE 0xF SWAP4 0xD0 PUSH5 0x736F6C6343 STOP ADDMOD SMOD STOP CALLER "
				},
				"gasEstimates": {
					"creation": {
						"codeDepositCost": "2079400",
						"executionCost": "infinite",
						"totalCost": "infinite"
					},
					"external": {
						"CancelSellVicShose(uint256)": "infinite",
						"LiquidPool()": "2582",
						"MinBnB()": "2562",
						"SellVicShose(uint256,uint256)": "infinite",
						"ShoseNFTContract()": "2536",
						"Treasury()": "2537",
						"VIMContract()": "2625",
						"WBNBContract()": "2538",
						"checkShoseTranfer(uint256)": "2910",
						"getMINPrice()": "infinite",
						"getSellingShose(uint256,uint256)": "infinite",
						"isOwner()": "2598",
						"owner()": "2567",
						"pause()": "29906",
						"paused()": "2588",
						"renounceOwnership()": "30440",
						"setLiquidPool(address)": "infinite",
						"setMinBNB(uint256)": "infinite",
						"setShoseNFTContract(address)": "infinite",
						"setTreasury(address)": "infinite",
						"setVIMContract(address)": "infinite",
						"transferOwnership(address)": "30817",
						"transferVicShose(address,uint256)": "infinite",
						"unpause()": "29970"
					},
					"internal": {
						"addNFTSell(uint256,uint256)": "infinite",
						"removeNFTSell(uint256)": "infinite"
					}
				},
				"methodIdentifiers": {
					"CancelSellVicShose(uint256)": "4dd79f10",
					"LiquidPool()": "36c3b4e2",
					"MinBnB()": "bcfcba76",
					"SellVicShose(uint256,uint256)": "83d58215",
					"ShoseNFTContract()": "d8882779",
					"Treasury()": "563df32f",
					"VIMContract()": "b5620229",
					"WBNBContract()": "0ff32839",
					"checkShoseTranfer(uint256)": "59464217",
					"getMINPrice()": "ea156f44",
					"getSellingShose(uint256,uint256)": "fb8359c7",
					"isOwner()": "8f32d59b",
					"owner()": "8da5cb5b",
					"pause()": "8456cb59",
					"paused()": "5c975abb",
					"renounceOwnership()": "715018a6",
					"setLiquidPool(address)": "a888a93a",
					"setMinBNB(uint256)": "de281e28",
					"setShoseNFTContract(address)": "458a635a",
					"setTreasury(address)": "f0f44260",
					"setVIMContract(address)": "1ecff38e",
					"transferOwnership(address)": "f2fde38b",
					"transferVicShose(address,uint256)": "5c9e0d10",
					"unpause()": "3f4ba83a"
				}
			},
			"storageLayout": {
				"storage": [
					{
						"astId": 332,
						"contract": "marketplace.sol:marketplace",
						"label": "_owner",
						"offset": 0,
						"slot": "0",
						"type": "t_address"
					},
					{
						"astId": 467,
						"contract": "marketplace.sol:marketplace",
						"label": "paused",
						"offset": 20,
						"slot": "0",
						"type": "t_bool"
					},
					{
						"astId": 773,
						"contract": "marketplace.sol:marketplace",
						"label": "Treasury",
						"offset": 0,
						"slot": "1",
						"type": "t_address"
					},
					{
						"astId": 775,
						"contract": "marketplace.sol:marketplace",
						"label": "LiquidPool",
						"offset": 0,
						"slot": "2",
						"type": "t_address"
					},
					{
						"astId": 777,
						"contract": "marketplace.sol:marketplace",
						"label": "ShoseNFTContract",
						"offset": 0,
						"slot": "3",
						"type": "t_address"
					},
					{
						"astId": 779,
						"contract": "marketplace.sol:marketplace",
						"label": "VIMContract",
						"offset": 0,
						"slot": "4",
						"type": "t_address"
					},
					{
						"astId": 781,
						"contract": "marketplace.sol:marketplace",
						"label": "WBNBContract",
						"offset": 0,
						"slot": "5",
						"type": "t_address"
					},
					{
						"astId": 783,
						"contract": "marketplace.sol:marketplace",
						"label": "MinBnB",
						"offset": 0,
						"slot": "6",
						"type": "t_uint256"
					},
					{
						"astId": 787,
						"contract": "marketplace.sol:marketplace",
						"label": "shoseTranfer",
						"offset": 0,
						"slot": "7",
						"type": "t_mapping(t_uint256,t_address)"
					},
					{
						"astId": 791,
						"contract": "marketplace.sol:marketplace",
						"label": "shoseShell",
						"offset": 0,
						"slot": "8",
						"type": "t_mapping(t_uint256,t_uint256)"
					},
					{
						"astId": 794,
						"contract": "marketplace.sol:marketplace",
						"label": "allTokensSell",
						"offset": 0,
						"slot": "9",
						"type": "t_array(t_uint256)dyn_storage"
					}
				],
				"types": {
					"t_address": {
						"encoding": "inplace",
						"label": "address",
						"numberOfBytes": "20"
					},
					"t_array(t_uint256)dyn_storage": {
						"base": "t_uint256",
						"encoding": "dynamic_array",
						"label": "uint256[]",
						"numberOfBytes": "32"
					},
					"t_bool": {
						"encoding": "inplace",
						"label": "bool",
						"numberOfBytes": "1"
					},
					"t_mapping(t_uint256,t_address)": {
						"encoding": "mapping",
						"key": "t_uint256",
						"label": "mapping(uint256 => address)",
						"numberOfBytes": "32",
						"value": "t_address"
					},
					"t_mapping(t_uint256,t_uint256)": {
						"encoding": "mapping",
						"key": "t_uint256",
						"label": "mapping(uint256 => uint256)",
						"numberOfBytes": "32",
						"value": "t_uint256"
					},
					"t_uint256": {
						"encoding": "inplace",
						"label": "uint256",
						"numberOfBytes": "32"
					}
				}
			},
			"userdoc": {
				"kind": "user",
				"methods": {},
				"version": 1
			}
		}
	}
}