{
	"BEP20.sol": {
		"BEP20": {
			"abi": [
				{
					"anonymous": false,
					"inputs": [
						{
							"indexed": true,
							"internalType": "address",
							"name": "owner",
							"type": "address"
						},
						{
							"indexed": true,
							"internalType": "address",
							"name": "spender",
							"type": "address"
						},
						{
							"indexed": false,
							"internalType": "uint256",
							"name": "value",
							"type": "uint256"
						}
					],
					"name": "Approval",
					"type": "event"
				},
				{
					"anonymous": false,
					"inputs": [
						{
							"indexed": true,
							"internalType": "address",
							"name": "previousOwner",
							"type": "address"
						},
						{
							"indexed": true,
							"internalType": "address",
							"name": "newOwner",
							"type": "address"
						}
					],
					"name": "OwnershipTransferred",
					"type": "event"
				},
				{
					"anonymous": false,
					"inputs": [],
					"name": "Pause",
					"type": "event"
				},
				{
					"anonymous": false,
					"inputs": [
						{
							"indexed": true,
							"internalType": "address",
							"name": "from",
							"type": "address"
						},
						{
							"indexed": true,
							"internalType": "address",
							"name": "to",
							"type": "address"
						},
						{
							"indexed": false,
							"internalType": "uint256",
							"name": "value",
							"type": "uint256"
						}
					],
					"name": "Transfer",
					"type": "event"
				},
				{
					"anonymous": false,
					"inputs": [],
					"name": "Unpause",
					"type": "event"
				},
				{
					"inputs": [
						{
							"internalType": "address",
							"name": "owner",
							"type": "address"
						},
						{
							"internalType": "address",
							"name": "spender",
							"type": "address"
						}
					],
					"name": "allowance",
					"outputs": [
						{
							"internalType": "uint256",
							"name": "",
							"type": "uint256"
						}
					],
					"stateMutability": "view",
					"type": "function"
				},
				{
					"inputs": [
						{
							"internalType": "address",
							"name": "spender",
							"type": "address"
						},
						{
							"internalType": "uint256",
							"name": "amount",
							"type": "uint256"
						}
					],
					"name": "approve",
					"outputs": [
						{
							"internalType": "bool",
							"name": "",
							"type": "bool"
						}
					],
					"stateMutability": "nonpayable",
					"type": "function"
				},
				{
					"inputs": [
						{
							"internalType": "address",
							"name": "account",
							"type": "address"
						}
					],
					"name": "balanceOf",
					"outputs": [
						{
							"internalType": "uint256",
							"name": "",
							"type": "uint256"
						}
					],
					"stateMutability": "view",
					"type": "function"
				},
				{
					"inputs": [
						{
							"internalType": "address",
							"name": "spender",
							"type": "address"
						},
						{
							"internalType": "uint256",
							"name": "subtractedValue",
							"type": "uint256"
						}
					],
					"name": "decreaseAllowance",
					"outputs": [
						{
							"internalType": "bool",
							"name": "",
							"type": "bool"
						}
					],
					"stateMutability": "nonpayable",
					"type": "function"
				},
				{
					"inputs": [
						{
							"internalType": "address",
							"name": "spender",
							"type": "address"
						},
						{
							"internalType": "uint256",
							"name": "addedValue",
							"type": "uint256"
						}
					],
					"name": "increaseAllowance",
					"outputs": [
						{
							"internalType": "bool",
							"name": "",
							"type": "bool"
						}
					],
					"stateMutability": "nonpayable",
					"type": "function"
				},
				{
					"inputs": [],
					"name": "isOwner",
					"outputs": [
						{
							"internalType": "bool",
							"name": "",
							"type": "bool"
						}
					],
					"stateMutability": "view",
					"type": "function"
				},
				{
					"inputs": [],
					"name": "owner",
					"outputs": [
						{
							"internalType": "address",
							"name": "",
							"type": "address"
						}
					],
					"stateMutability": "view",
					"type": "function"
				},
				{
					"inputs": [],
					"name": "pause",
					"outputs": [
						{
							"internalType": "bool",
							"name": "",
							"type": "bool"
						}
					],
					"stateMutability": "nonpayable",
					"type": "function"
				},
				{
					"inputs": [],
					"name": "paused",
					"outputs": [
						{
							"internalType": "bool",
							"name": "",
							"type": "bool"
						}
					],
					"stateMutability": "view",
					"type": "function"
				},
				{
					"inputs": [],
					"name": "renounceOwnership",
					"outputs": [],
					"stateMutability": "nonpayable",
					"type": "function"
				},
				{
					"inputs": [],
					"name": "totalSupply",
					"outputs": [
						{
							"internalType": "uint256",
							"name": "",
							"type": "uint256"
						}
					],
					"stateMutability": "view",
					"type": "function"
				},
				{
					"inputs": [
						{
							"internalType": "address",
							"name": "recipient",
							"type": "address"
						},
						{
							"internalType": "uint256",
							"name": "amount",
							"type": "uint256"
						}
					],
					"name": "transfer",
					"outputs": [
						{
							"internalType": "bool",
							"name": "",
							"type": "bool"
						}
					],
					"stateMutability": "nonpayable",
					"type": "function"
				},
				{
					"inputs": [
						{
							"internalType": "address",
							"name": "sender",
							"type": "address"
						},
						{
							"internalType": "address",
							"name": "recipient",
							"type": "address"
						},
						{
							"internalType": "uint256",
							"name": "amount",
							"type": "uint256"
						}
					],
					"name": "transferFrom",
					"outputs": [
						{
							"internalType": "bool",
							"name": "",
							"type": "bool"
						}
					],
					"stateMutability": "nonpayable",
					"type": "function"
				},
				{
					"inputs": [
						{
							"internalType": "address",
							"name": "newOwner",
							"type": "address"
						}
					],
					"name": "transferOwnership",
					"outputs": [],
					"stateMutability": "nonpayable",
					"type": "function"
				},
				{
					"inputs": [],
					"name": "unpause",
					"outputs": [
						{
							"internalType": "bool",
							"name": "",
							"type": "bool"
						}
					],
					"stateMutability": "nonpayable",
					"type": "function"
				}
			],
			"devdoc": {
				"details": "Implementation of the {IBEP20} interface. This implementation is agnostic to the way tokens are created. This means that a supply mechanism has to be added in a derived contract using {_mint}. For a generic mechanism see {BEP20Mintable}. We have followed general OpenZeppelin guidelines: functions revert instead of returning `false` on failure. This behavior is nonetheless conventional and does not conflict with the expectations of BEP20 applications. Additionally, an {Approval} event is emitted on calls to {transferFrom}. This allows applications to reconstruct the allowance for all accounts just by listening to said events. Other implementations of the EIP may not emit these events, as it isn't required by the specification. Finally, the non-standard {decreaseAllowance} and {increaseAllowance} functions have been added to mitigate the well-known issues around setting allowances. See {IBEP20-approve}.",
				"kind": "dev",
				"methods": {
					"allowance(address,address)": {
						"details": "See {IBEP20-allowance}."
					},
					"approve(address,uint256)": {
						"details": "See {IBEP20-approve}. Requirements: - `spender` cannot be the zero address."
					},
					"balanceOf(address)": {
						"details": "See {IBEP20-balanceOf}."
					},
					"decreaseAllowance(address,uint256)": {
						"details": "Atomically decreases the allowance granted to `spender` by the caller. This is an alternative to {approve} that can be used as a mitigation for problems described in {IBEP20-approve}. Emits an {Approval} event indicating the updated allowance. Requirements: - `spender` cannot be the zero address. - `spender` must have allowance for the caller of at least `subtractedValue`."
					},
					"increaseAllowance(address,uint256)": {
						"details": "Atomically increases the allowance granted to `spender` by the caller. This is an alternative to {approve} that can be used as a mitigation for problems described in {IBEP20-approve}. Emits an {Approval} event indicating the updated allowance. Requirements: - `spender` cannot be the zero address."
					},
					"isOwner()": {
						"details": "Returns true if the caller is the current owner."
					},
					"owner()": {
						"details": "Returns the address of the current owner."
					},
					"pause()": {
						"details": "called by the owner to pause, triggers stopped state"
					},
					"renounceOwnership()": {
						"details": "Leaves the contract without owner. It will not be possible to call `onlyOwner` functions anymore. Can only be called by the current owner. NOTE: Renouncing ownership will leave the contract without an owner, thereby removing any functionality that is only available to the owner."
					},
					"totalSupply()": {
						"details": "See {IBEP20-totalSupply}."
					},
					"transfer(address,uint256)": {
						"details": "See {IBEP20-transfer}. Requirements: - `recipient` cannot be the zero address. - the caller must have a balance of at least `amount`."
					},
					"transferFrom(address,address,uint256)": {
						"details": "See {IBEP20-transferFrom}. Emits an {Approval} event indicating the updated allowance. This is not required by the EIP. See the note at the beginning of {BEP20}; Requirements: - `sender` and `recipient` cannot be the zero address. - `sender` must have a balance of at least `amount`. - the caller must have allowance for `sender`'s tokens of at least `amount`."
					},
					"transferOwnership(address)": {
						"details": "Transfers ownership of the contract to a new account (`newOwner`). Can only be called by the current owner."
					},
					"unpause()": {
						"details": "called by the owner to unpause, returns to normal state"
					}
				},
				"version": 1
			},
			"evm": {
				"assembly": "    /* \"BEP20.sol\":1141:7823  contract BEP20 is BEPContext, IBEP20, BEPPausable {... */\n  mstore(0x40, 0x80)\n    /* \"BEPPausable.sol\":293:298  false */\n  0x00\n    /* \"BEPPausable.sol\":272:298  bool public paused = false */\n  dup1\n  exp(0x0100, 0x14)\n  dup2\n  sload\n  dup2\n  0xff\n  mul\n  not\n  and\n  swap1\n  dup4\n  iszero\n  iszero\n  mul\n  or\n  swap1\n  sstore\n  pop\n    /* \"BEP20.sol\":1141:7823  contract BEP20 is BEPContext, IBEP20, BEPPausable {... */\n  callvalue\n  dup1\n  iszero\n  tag_1\n  jumpi\n  0x00\n  dup1\n  revert\ntag_1:\n  pop\n    /* \"BEPOwnable.sol\":716:733  address msgSender */\n  0x00\n    /* \"BEPOwnable.sol\":736:748  _msgSender() */\n  tag_6\n    /* \"BEPOwnable.sol\":736:746  _msgSender */\n  shl(0x20, tag_7)\n    /* \"BEPOwnable.sol\":736:748  _msgSender() */\n  0x20\n  shr\n  jump\t// in\ntag_6:\n    /* \"BEPOwnable.sol\":716:748  address msgSender = _msgSender() */\n  swap1\n  pop\n    /* \"BEPOwnable.sol\":763:772  msgSender */\n  dup1\n    /* \"BEPOwnable.sol\":754:760  _owner */\n  0x00\n  dup1\n    /* \"BEPOwnable.sol\":754:772  _owner = msgSender */\n  0x0100\n  exp\n  dup2\n  sload\n  dup2\n  0xffffffffffffffffffffffffffffffffffffffff\n  mul\n  not\n  and\n  swap1\n  dup4\n  0xffffffffffffffffffffffffffffffffffffffff\n  and\n  mul\n  or\n  swap1\n  sstore\n  pop\n    /* \"BEPOwnable.sol\":816:825  msgSender */\n  dup1\n    /* \"BEPOwnable.sol\":783:826  OwnershipTransferred(address(0), msgSender) */\n  0xffffffffffffffffffffffffffffffffffffffff\n  and\n    /* \"BEPOwnable.sol\":812:813  0 */\n  0x00\n    /* \"BEPOwnable.sol\":783:826  OwnershipTransferred(address(0), msgSender) */\n  0xffffffffffffffffffffffffffffffffffffffff\n  and\n  0x8be0079c531659141344cd1fd0a4f28419497f9722a3daafe3b4186f6b6457e0\n  mload(0x40)\n  mload(0x40)\n  dup1\n  swap2\n  sub\n  swap1\n  log3\n    /* \"BEPOwnable.sol\":710:831  {... */\n  pop\n    /* \"BEP20.sol\":1141:7823  contract BEP20 is BEPContext, IBEP20, BEPPausable {... */\n  jump(tag_8)\n    /* \"BEPContext.sol\":760:859  function _msgSender() internal view returns (address payable) {... */\ntag_7:\n    /* \"BEPContext.sol\":805:820  address payable */\n  0x00\n    /* \"BEPContext.sol\":843:853  msg.sender */\n  caller\n    /* \"BEPContext.sol\":828:854  return payable(msg.sender) */\n  swap1\n  pop\n    /* \"BEPContext.sol\":760:859  function _msgSender() internal view returns (address payable) {... */\n  swap1\n  jump\t// out\n    /* \"BEP20.sol\":1141:7823  contract BEP20 is BEPContext, IBEP20, BEPPausable {... */\ntag_8:\n  dataSize(sub_0)\n  dup1\n  dataOffset(sub_0)\n  0x00\n  codecopy\n  0x00\n  return\nstop\n\nsub_0: assembly {\n        /* \"BEP20.sol\":1141:7823  contract BEP20 is BEPContext, IBEP20, BEPPausable {... */\n      mstore(0x40, 0x80)\n      callvalue\n      dup1\n      iszero\n      tag_1\n      jumpi\n      0x00\n      dup1\n      revert\n    tag_1:\n      pop\n      jumpi(tag_2, lt(calldatasize, 0x04))\n      shr(0xe0, calldataload(0x00))\n      dup1\n      0x715018a6\n      gt\n      tag_18\n      jumpi\n      dup1\n      0xa457c2d7\n      gt\n      tag_19\n      jumpi\n      dup1\n      0xa457c2d7\n      eq\n      tag_14\n      jumpi\n      dup1\n      0xa9059cbb\n      eq\n      tag_15\n      jumpi\n      dup1\n      0xdd62ed3e\n      eq\n      tag_16\n      jumpi\n      dup1\n      0xf2fde38b\n      eq\n      tag_17\n      jumpi\n      jump(tag_2)\n    tag_19:\n      dup1\n      0x715018a6\n      eq\n      tag_10\n      jumpi\n      dup1\n      0x8456cb59\n      eq\n      tag_11\n      jumpi\n      dup1\n      0x8da5cb5b\n      eq\n      tag_12\n      jumpi\n      dup1\n      0x8f32d59b\n      eq\n      tag_13\n      jumpi\n      jump(tag_2)\n    tag_18:\n      dup1\n      0x39509351\n      gt\n      tag_20\n      jumpi\n      dup1\n      0x39509351\n      eq\n      tag_6\n      jumpi\n      dup1\n      0x3f4ba83a\n      eq\n      tag_7\n      jumpi\n      dup1\n      0x5c975abb\n      eq\n      tag_8\n      jumpi\n      dup1\n      0x70a08231\n      eq\n      tag_9\n      jumpi\n      jump(tag_2)\n    tag_20:\n      dup1\n      0x095ea7b3\n      eq\n      tag_3\n      jumpi\n      dup1\n      0x18160ddd\n      eq\n      tag_4\n      jumpi\n      dup1\n      0x23b872dd\n      eq\n      tag_5\n      jumpi\n    tag_2:\n      0x00\n      dup1\n      revert\n        /* \"BEP20.sol\":2350:2512  function approve(address spender, uint256 amount) public override whenNotPaused returns (bool) {... */\n    tag_3:\n      tag_21\n      0x04\n      dup1\n      calldatasize\n      sub\n      dup2\n      add\n      swap1\n      tag_22\n      swap2\n      swap1\n      tag_23\n      jump\t// in\n    tag_22:\n      tag_24\n      jump\t// in\n    tag_21:\n      mload(0x40)\n      tag_25\n      swap2\n      swap1\n      tag_26\n      jump\t// in\n    tag_25:\n      mload(0x40)\n      dup1\n      swap2\n      sub\n      swap1\n      return\n        /* \"BEP20.sol\":1429:1521  function totalSupply() public view override returns (uint256) {... */\n    tag_4:\n      tag_27\n      tag_28\n      jump\t// in\n    tag_27:\n      mload(0x40)\n      tag_29\n      swap2\n      swap1\n      tag_30\n      jump\t// in\n    tag_29:\n      mload(0x40)\n      dup1\n      swap2\n      sub\n      swap1\n      return\n        /* \"BEP20.sol\":2944:3301  function transferFrom(... */\n    tag_5:\n      tag_31\n      0x04\n      dup1\n      calldatasize\n      sub\n      dup2\n      add\n      swap1\n      tag_32\n      swap2\n      swap1\n      tag_33\n      jump\t// in\n    tag_32:\n      tag_34\n      jump\t// in\n    tag_31:\n      mload(0x40)\n      tag_35\n      swap2\n      swap1\n      tag_26\n      jump\t// in\n    tag_35:\n      mload(0x40)\n      dup1\n      swap2\n      sub\n      swap1\n      return\n        /* \"BEP20.sol\":3670:3881  function increaseAllowance(address spender, uint256 addedValue) public whenNotPaused returns (bool) {... */\n    tag_6:\n      tag_36\n      0x04\n      dup1\n      calldatasize\n      sub\n      dup2\n      add\n      swap1\n      tag_37\n      swap2\n      swap1\n      tag_23\n      jump\t// in\n    tag_37:\n      tag_38\n      jump\t// in\n    tag_36:\n      mload(0x40)\n      tag_39\n      swap2\n      swap1\n      tag_26\n      jump\t// in\n    tag_39:\n      mload(0x40)\n      dup1\n      swap2\n      sub\n      swap1\n      return\n        /* \"BEPPausable.sol\":870:994  function unpause() public onlyOwner whenPaused returns (bool) {... */\n    tag_7:\n      tag_40\n      tag_41\n      jump\t// in\n    tag_40:\n      mload(0x40)\n      tag_42\n      swap2\n      swap1\n      tag_26\n      jump\t// in\n    tag_42:\n      mload(0x40)\n      dup1\n      swap2\n      sub\n      swap1\n      return\n        /* \"BEPPausable.sol\":272:298  bool public paused = false */\n    tag_8:\n      tag_43\n      tag_44\n      jump\t// in\n    tag_43:\n      mload(0x40)\n      tag_45\n      swap2\n      swap1\n      tag_26\n      jump\t// in\n    tag_45:\n      mload(0x40)\n      dup1\n      swap2\n      sub\n      swap1\n      return\n        /* \"BEP20.sol\":1571:1682  function balanceOf(address account) public view override returns (uint256) {... */\n    tag_9:\n      tag_46\n      0x04\n      dup1\n      calldatasize\n      sub\n      dup2\n      add\n      swap1\n      tag_47\n      swap2\n      swap1\n      tag_48\n      jump\t// in\n    tag_47:\n      tag_49\n      jump\t// in\n    tag_46:\n      mload(0x40)\n      tag_50\n      swap2\n      swap1\n      tag_30\n      jump\t// in\n    tag_50:\n      mload(0x40)\n      dup1\n      swap2\n      sub\n      swap1\n      return\n        /* \"BEPOwnable.sol\":1630:1757  function renounceOwnership() public onlyOwner {... */\n    tag_10:\n      tag_51\n      tag_52\n      jump\t// in\n    tag_51:\n      stop\n        /* \"BEPPausable.sol\":666:788  function pause() public onlyOwner whenNotPaused returns (bool) {... */\n    tag_11:\n      tag_53\n      tag_54\n      jump\t// in\n    tag_53:\n      mload(0x40)\n      tag_55\n      swap2\n      swap1\n      tag_26\n      jump\t// in\n    tag_55:\n      mload(0x40)\n      dup1\n      swap2\n      sub\n      swap1\n      return\n        /* \"BEPOwnable.sol\":899:970  function owner() public view returns (address) {... */\n    tag_12:\n      tag_56\n      tag_57\n      jump\t// in\n    tag_56:\n      mload(0x40)\n      tag_58\n      swap2\n      swap1\n      tag_59\n      jump\t// in\n    tag_58:\n      mload(0x40)\n      dup1\n      swap2\n      sub\n      swap1\n      return\n        /* \"BEPOwnable.sol\":1218:1304  function isOwner() public view returns (bool) {... */\n    tag_13:\n      tag_60\n      tag_61\n      jump\t// in\n    tag_60:\n      mload(0x40)\n      tag_62\n      swap2\n      swap1\n      tag_26\n      jump\t// in\n    tag_62:\n      mload(0x40)\n      dup1\n      swap2\n      sub\n      swap1\n      return\n        /* \"BEP20.sol\":4338:4624  function decreaseAllowance(address spender, uint256 subtractedValue) public whenNotPaused returns (bool) {... */\n    tag_14:\n      tag_63\n      0x04\n      dup1\n      calldatasize\n      sub\n      dup2\n      add\n      swap1\n      tag_64\n      swap2\n      swap1\n      tag_23\n      jump\t// in\n    tag_64:\n      tag_65\n      jump\t// in\n    tag_63:\n      mload(0x40)\n      tag_66\n      swap2\n      swap1\n      tag_26\n      jump\t// in\n    tag_66:\n      mload(0x40)\n      dup1\n      swap2\n      sub\n      swap1\n      return\n        /* \"BEP20.sol\":1867:2043  function transfer(address recipient, uint256 amount) public virtual override whenNotPaused returns (bool) {... */\n    tag_15:\n      tag_67\n      0x04\n      dup1\n      calldatasize\n      sub\n      dup2\n      add\n      swap1\n      tag_68\n      swap2\n      swap1\n      tag_23\n      jump\t// in\n    tag_68:\n      tag_69\n      jump\t// in\n    tag_67:\n      mload(0x40)\n      tag_70\n      swap2\n      swap1\n      tag_26\n      jump\t// in\n    tag_70:\n      mload(0x40)\n      dup1\n      swap2\n      sub\n      swap1\n      return\n        /* \"BEP20.sol\":2093:2228  function allowance(address owner, address spender) public view override returns (uint256) {... */\n    tag_16:\n      tag_71\n      0x04\n      dup1\n      calldatasize\n      sub\n      dup2\n      add\n      swap1\n      tag_72\n      swap2\n      swap1\n      tag_73\n      jump\t// in\n    tag_72:\n      tag_74\n      jump\t// in\n    tag_71:\n      mload(0x40)\n      tag_75\n      swap2\n      swap1\n      tag_30\n      jump\t// in\n    tag_75:\n      mload(0x40)\n      dup1\n      swap2\n      sub\n      swap1\n      return\n        /* \"BEPOwnable.sol\":1896:1997  function transferOwnership(address newOwner) public onlyOwner {... */\n    tag_17:\n      tag_76\n      0x04\n      dup1\n      calldatasize\n      sub\n      dup2\n      add\n      swap1\n      tag_77\n      swap2\n      swap1\n      tag_48\n      jump\t// in\n    tag_77:\n      tag_78\n      jump\t// in\n    tag_76:\n      stop\n        /* \"BEP20.sol\":2350:2512  function approve(address spender, uint256 amount) public override whenNotPaused returns (bool) {... */\n    tag_24:\n        /* \"BEP20.sol\":2439:2443  bool */\n      0x00\n        /* \"BEPPausable.sol\":424:430  paused */\n      dup1\n      0x14\n      swap1\n      sload\n      swap1\n      0x0100\n      exp\n      swap1\n      div\n      0xff\n      and\n        /* \"BEPPausable.sol\":423:430  !paused */\n      iszero\n        /* \"BEPPausable.sol\":415:431  require(!paused) */\n      tag_80\n      jumpi\n      0x00\n      dup1\n      revert\n    tag_80:\n        /* \"BEP20.sol\":2451:2490  _approve(_msgSender(), spender, amount) */\n      tag_82\n        /* \"BEP20.sol\":2460:2472  _msgSender() */\n      tag_83\n        /* \"BEP20.sol\":2460:2470  _msgSender */\n      tag_84\n        /* \"BEP20.sol\":2460:2472  _msgSender() */\n      jump\t// in\n    tag_83:\n        /* \"BEP20.sol\":2474:2481  spender */\n      dup5\n        /* \"BEP20.sol\":2483:2489  amount */\n      dup5\n        /* \"BEP20.sol\":2451:2459  _approve */\n      tag_85\n        /* \"BEP20.sol\":2451:2490  _approve(_msgSender(), spender, amount) */\n      jump\t// in\n    tag_82:\n        /* \"BEP20.sol\":2503:2507  true */\n      0x01\n        /* \"BEP20.sol\":2496:2507  return true */\n      swap1\n      pop\n        /* \"BEP20.sol\":2350:2512  function approve(address spender, uint256 amount) public override whenNotPaused returns (bool) {... */\n      swap3\n      swap2\n      pop\n      pop\n      jump\t// out\n        /* \"BEP20.sol\":1429:1521  function totalSupply() public view override returns (uint256) {... */\n    tag_28:\n        /* \"BEP20.sol\":1482:1489  uint256 */\n      0x00\n        /* \"BEP20.sol\":1504:1516  _totalSupply */\n      sload(0x03)\n        /* \"BEP20.sol\":1497:1516  return _totalSupply */\n      swap1\n      pop\n        /* \"BEP20.sol\":1429:1521  function totalSupply() public view override returns (uint256) {... */\n      swap1\n      jump\t// out\n        /* \"BEP20.sol\":2944:3301  function transferFrom(... */\n    tag_34:\n        /* \"BEP20.sol\":3080:3084  bool */\n      0x00\n        /* \"BEPPausable.sol\":424:430  paused */\n      dup1\n      0x14\n      swap1\n      sload\n      swap1\n      0x0100\n      exp\n      swap1\n      div\n      0xff\n      and\n        /* \"BEPPausable.sol\":423:430  !paused */\n      iszero\n        /* \"BEPPausable.sol\":415:431  require(!paused) */\n      tag_88\n      jumpi\n      0x00\n      dup1\n      revert\n    tag_88:\n        /* \"BEP20.sol\":3092:3128  _transfer(sender, recipient, amount) */\n      tag_90\n        /* \"BEP20.sol\":3102:3108  sender */\n      dup5\n        /* \"BEP20.sol\":3110:3119  recipient */\n      dup5\n        /* \"BEP20.sol\":3121:3127  amount */\n      dup5\n        /* \"BEP20.sol\":3092:3101  _transfer */\n      tag_91\n        /* \"BEP20.sol\":3092:3128  _transfer(sender, recipient, amount) */\n      jump\t// in\n    tag_90:\n        /* \"BEP20.sol\":3134:3279  _approve(... */\n      tag_92\n        /* \"BEP20.sol\":3150:3156  sender */\n      dup5\n        /* \"BEP20.sol\":3164:3176  _msgSender() */\n      tag_93\n        /* \"BEP20.sol\":3164:3174  _msgSender */\n      tag_84\n        /* \"BEP20.sol\":3164:3176  _msgSender() */\n      jump\t// in\n    tag_93:\n        /* \"BEP20.sol\":3184:3273  _allowances[sender][_msgSender()].sub(amount, \"BEP20: transfer amount exceeds allowance\") */\n      tag_94\n        /* \"BEP20.sol\":3222:3228  amount */\n      dup6\n        /* \"BEP20.sol\":3184:3273  _allowances[sender][_msgSender()].sub(amount, \"BEP20: transfer amount exceeds allowance\") */\n      mload(0x40)\n      dup1\n      0x60\n      add\n      0x40\n      mstore\n      dup1\n      0x28\n      dup2\n      mstore\n      0x20\n      add\n      data_4f3506f4ba71c79c3cbd442a3afeb30e9b27af2d84e116a4385b34e267d2287e\n      0x28\n      swap2\n      codecopy\n        /* \"BEP20.sol\":3184:3195  _allowances */\n      0x02\n        /* \"BEP20.sol\":3184:3203  _allowances[sender] */\n      0x00\n        /* \"BEP20.sol\":3196:3202  sender */\n      dup12\n        /* \"BEP20.sol\":3184:3203  _allowances[sender] */\n      0xffffffffffffffffffffffffffffffffffffffff\n      and\n      0xffffffffffffffffffffffffffffffffffffffff\n      and\n      dup2\n      mstore\n      0x20\n      add\n      swap1\n      dup2\n      mstore\n      0x20\n      add\n      0x00\n      keccak256\n        /* \"BEP20.sol\":3184:3217  _allowances[sender][_msgSender()] */\n      0x00\n        /* \"BEP20.sol\":3204:3216  _msgSender() */\n      tag_95\n        /* \"BEP20.sol\":3204:3214  _msgSender */\n      tag_84\n        /* \"BEP20.sol\":3204:3216  _msgSender() */\n      jump\t// in\n    tag_95:\n        /* \"BEP20.sol\":3184:3217  _allowances[sender][_msgSender()] */\n      0xffffffffffffffffffffffffffffffffffffffff\n      and\n      0xffffffffffffffffffffffffffffffffffffffff\n      and\n      dup2\n      mstore\n      0x20\n      add\n      swap1\n      dup2\n      mstore\n      0x20\n      add\n      0x00\n      keccak256\n      sload\n        /* \"BEP20.sol\":3184:3221  _allowances[sender][_msgSender()].sub */\n      tag_96\n      swap1\n        /* \"BEP20.sol\":3184:3273  _allowances[sender][_msgSender()].sub(amount, \"BEP20: transfer amount exceeds allowance\") */\n      swap3\n      swap2\n      swap1\n      0xffffffff\n      and\n      jump\t// in\n    tag_94:\n        /* \"BEP20.sol\":3134:3142  _approve */\n      tag_85\n        /* \"BEP20.sol\":3134:3279  _approve(... */\n      jump\t// in\n    tag_92:\n        /* \"BEP20.sol\":3292:3296  true */\n      0x01\n        /* \"BEP20.sol\":3285:3296  return true */\n      swap1\n      pop\n        /* \"BEP20.sol\":2944:3301  function transferFrom(... */\n      swap4\n      swap3\n      pop\n      pop\n      pop\n      jump\t// out\n        /* \"BEP20.sol\":3670:3881  function increaseAllowance(address spender, uint256 addedValue) public whenNotPaused returns (bool) {... */\n    tag_38:\n        /* \"BEP20.sol\":3764:3768  bool */\n      0x00\n        /* \"BEPPausable.sol\":424:430  paused */\n      dup1\n      0x14\n      swap1\n      sload\n      swap1\n      0x0100\n      exp\n      swap1\n      div\n      0xff\n      and\n        /* \"BEPPausable.sol\":423:430  !paused */\n      iszero\n        /* \"BEPPausable.sol\":415:431  require(!paused) */\n      tag_98\n      jumpi\n      0x00\n      dup1\n      revert\n    tag_98:\n        /* \"BEP20.sol\":3776:3859  _approve(_msgSender(), spender, _allowances[_msgSender()][spender].add(addedValue)) */\n      tag_100\n        /* \"BEP20.sol\":3785:3797  _msgSender() */\n      tag_101\n        /* \"BEP20.sol\":3785:3795  _msgSender */\n      tag_84\n        /* \"BEP20.sol\":3785:3797  _msgSender() */\n      jump\t// in\n    tag_101:\n        /* \"BEP20.sol\":3799:3806  spender */\n      dup5\n        /* \"BEP20.sol\":3808:3858  _allowances[_msgSender()][spender].add(addedValue) */\n      tag_102\n        /* \"BEP20.sol\":3847:3857  addedValue */\n      dup6\n        /* \"BEP20.sol\":3808:3819  _allowances */\n      0x02\n        /* \"BEP20.sol\":3808:3833  _allowances[_msgSender()] */\n      0x00\n        /* \"BEP20.sol\":3820:3832  _msgSender() */\n      tag_103\n        /* \"BEP20.sol\":3820:3830  _msgSender */\n      tag_84\n        /* \"BEP20.sol\":3820:3832  _msgSender() */\n      jump\t// in\n    tag_103:\n        /* \"BEP20.sol\":3808:3833  _allowances[_msgSender()] */\n      0xffffffffffffffffffffffffffffffffffffffff\n      and\n      0xffffffffffffffffffffffffffffffffffffffff\n      and\n      dup2\n      mstore\n      0x20\n      add\n      swap1\n      dup2\n      mstore\n      0x20\n      add\n      0x00\n      keccak256\n        /* \"BEP20.sol\":3808:3842  _allowances[_msgSender()][spender] */\n      0x00\n        /* \"BEP20.sol\":3834:3841  spender */\n      dup10\n        /* \"BEP20.sol\":3808:3842  _allowances[_msgSender()][spender] */\n      0xffffffffffffffffffffffffffffffffffffffff\n      and\n      0xffffffffffffffffffffffffffffffffffffffff\n      and\n      dup2\n      mstore\n      0x20\n      add\n      swap1\n      dup2\n      mstore\n      0x20\n      add\n      0x00\n      keccak256\n      sload\n        /* \"BEP20.sol\":3808:3846  _allowances[_msgSender()][spender].add */\n      tag_104\n      swap1\n        /* \"BEP20.sol\":3808:3858  _allowances[_msgSender()][spender].add(addedValue) */\n      swap2\n      swap1\n      0xffffffff\n      and\n      jump\t// in\n    tag_102:\n        /* \"BEP20.sol\":3776:3784  _approve */\n      tag_85\n        /* \"BEP20.sol\":3776:3859  _approve(_msgSender(), spender, _allowances[_msgSender()][spender].add(addedValue)) */\n      jump\t// in\n    tag_100:\n        /* \"BEP20.sol\":3872:3876  true */\n      0x01\n        /* \"BEP20.sol\":3865:3876  return true */\n      swap1\n      pop\n        /* \"BEP20.sol\":3670:3881  function increaseAllowance(address spender, uint256 addedValue) public whenNotPaused returns (bool) {... */\n      swap3\n      swap2\n      pop\n      pop\n      jump\t// out\n        /* \"BEPPausable.sol\":870:994  function unpause() public onlyOwner whenPaused returns (bool) {... */\n    tag_41:\n        /* \"BEPPausable.sol\":926:930  bool */\n      0x00\n        /* \"BEPOwnable.sol\":1085:1094  isOwner() */\n      tag_106\n        /* \"BEPOwnable.sol\":1085:1092  isOwner */\n      tag_61\n        /* \"BEPOwnable.sol\":1085:1094  isOwner() */\n      jump\t// in\n    tag_106:\n        /* \"BEPOwnable.sol\":1077:1131  require(isOwner(), \"Ownable: caller is not the owner\") */\n      tag_107\n      jumpi\n      mload(0x40)\n      0x08c379a000000000000000000000000000000000000000000000000000000000\n      dup2\n      mstore\n      0x04\n      add\n      tag_108\n      swap1\n      tag_109\n      jump\t// in\n    tag_108:\n      mload(0x40)\n      dup1\n      swap2\n      sub\n      swap1\n      revert\n    tag_107:\n        /* \"BEPPausable.sol\":568:574  paused */\n      0x00\n      0x14\n      swap1\n      sload\n      swap1\n      0x0100\n      exp\n      swap1\n      div\n      0xff\n      and\n        /* \"BEPPausable.sol\":560:575  require(paused) */\n      tag_111\n      jumpi\n      0x00\n      dup1\n      revert\n    tag_111:\n        /* \"BEPPausable.sol\":947:952  false */\n      0x00\n        /* \"BEPPausable.sol\":938:944  paused */\n      dup1\n      0x14\n        /* \"BEPPausable.sol\":938:952  paused = false */\n      0x0100\n      exp\n      dup2\n      sload\n      dup2\n      0xff\n      mul\n      not\n      and\n      swap1\n      dup4\n      iszero\n      iszero\n      mul\n      or\n      swap1\n      sstore\n      pop\n        /* \"BEPPausable.sol\":963:972  Unpause() */\n      0x7805862f689e2f13df9f062ff482ad3ad112aca9e0847911ed832e158c525b33\n      mload(0x40)\n      mload(0x40)\n      dup1\n      swap2\n      sub\n      swap1\n      log1\n        /* \"BEPPausable.sol\":985:989  true */\n      0x01\n        /* \"BEPPausable.sol\":978:989  return true */\n      swap1\n      pop\n        /* \"BEPPausable.sol\":870:994  function unpause() public onlyOwner whenPaused returns (bool) {... */\n      swap1\n      jump\t// out\n        /* \"BEPPausable.sol\":272:298  bool public paused = false */\n    tag_44:\n      0x00\n      0x14\n      swap1\n      sload\n      swap1\n      0x0100\n      exp\n      swap1\n      div\n      0xff\n      and\n      dup2\n      jump\t// out\n        /* \"BEP20.sol\":1571:1682  function balanceOf(address account) public view override returns (uint256) {... */\n    tag_49:\n        /* \"BEP20.sol\":1637:1644  uint256 */\n      0x00\n        /* \"BEP20.sol\":1659:1668  _balances */\n      0x01\n        /* \"BEP20.sol\":1659:1677  _balances[account] */\n      0x00\n        /* \"BEP20.sol\":1669:1676  account */\n      dup4\n        /* \"BEP20.sol\":1659:1677  _balances[account] */\n      0xffffffffffffffffffffffffffffffffffffffff\n      and\n      0xffffffffffffffffffffffffffffffffffffffff\n      and\n      dup2\n      mstore\n      0x20\n      add\n      swap1\n      dup2\n      mstore\n      0x20\n      add\n      0x00\n      keccak256\n      sload\n        /* \"BEP20.sol\":1652:1677  return _balances[account] */\n      swap1\n      pop\n        /* \"BEP20.sol\":1571:1682  function balanceOf(address account) public view override returns (uint256) {... */\n      swap2\n      swap1\n      pop\n      jump\t// out\n        /* \"BEPOwnable.sol\":1630:1757  function renounceOwnership() public onlyOwner {... */\n    tag_52:\n        /* \"BEPOwnable.sol\":1085:1094  isOwner() */\n      tag_115\n        /* \"BEPOwnable.sol\":1085:1092  isOwner */\n      tag_61\n        /* \"BEPOwnable.sol\":1085:1094  isOwner() */\n      jump\t// in\n    tag_115:\n        /* \"BEPOwnable.sol\":1077:1131  require(isOwner(), \"Ownable: caller is not the owner\") */\n      tag_116\n      jumpi\n      mload(0x40)\n      0x08c379a000000000000000000000000000000000000000000000000000000000\n      dup2\n      mstore\n      0x04\n      add\n      tag_117\n      swap1\n      tag_109\n      jump\t// in\n    tag_117:\n      mload(0x40)\n      dup1\n      swap2\n      sub\n      swap1\n      revert\n    tag_116:\n        /* \"BEPOwnable.sol\":1724:1725  0 */\n      0x00\n        /* \"BEPOwnable.sol\":1687:1727  OwnershipTransferred(_owner, address(0)) */\n      0xffffffffffffffffffffffffffffffffffffffff\n      and\n        /* \"BEPOwnable.sol\":1708:1714  _owner */\n      0x00\n      dup1\n      sload\n      swap1\n      0x0100\n      exp\n      swap1\n      div\n      0xffffffffffffffffffffffffffffffffffffffff\n      and\n        /* \"BEPOwnable.sol\":1687:1727  OwnershipTransferred(_owner, address(0)) */\n      0xffffffffffffffffffffffffffffffffffffffff\n      and\n      0x8be0079c531659141344cd1fd0a4f28419497f9722a3daafe3b4186f6b6457e0\n      mload(0x40)\n      mload(0x40)\n      dup1\n      swap2\n      sub\n      swap1\n      log3\n        /* \"BEPOwnable.sol\":1750:1751  0 */\n      0x00\n        /* \"BEPOwnable.sol\":1733:1739  _owner */\n      dup1\n      0x00\n        /* \"BEPOwnable.sol\":1733:1752  _owner = address(0) */\n      0x0100\n      exp\n      dup2\n      sload\n      dup2\n      0xffffffffffffffffffffffffffffffffffffffff\n      mul\n      not\n      and\n      swap1\n      dup4\n      0xffffffffffffffffffffffffffffffffffffffff\n      and\n      mul\n      or\n      swap1\n      sstore\n      pop\n        /* \"BEPOwnable.sol\":1630:1757  function renounceOwnership() public onlyOwner {... */\n      jump\t// out\n        /* \"BEPPausable.sol\":666:788  function pause() public onlyOwner whenNotPaused returns (bool) {... */\n    tag_54:\n        /* \"BEPPausable.sol\":723:727  bool */\n      0x00\n        /* \"BEPOwnable.sol\":1085:1094  isOwner() */\n      tag_120\n        /* \"BEPOwnable.sol\":1085:1092  isOwner */\n      tag_61\n        /* \"BEPOwnable.sol\":1085:1094  isOwner() */\n      jump\t// in\n    tag_120:\n        /* \"BEPOwnable.sol\":1077:1131  require(isOwner(), \"Ownable: caller is not the owner\") */\n      tag_121\n      jumpi\n      mload(0x40)\n      0x08c379a000000000000000000000000000000000000000000000000000000000\n      dup2\n      mstore\n      0x04\n      add\n      tag_122\n      swap1\n      tag_109\n      jump\t// in\n    tag_122:\n      mload(0x40)\n      dup1\n      swap2\n      sub\n      swap1\n      revert\n    tag_121:\n        /* \"BEPPausable.sol\":424:430  paused */\n      0x00\n      0x14\n      swap1\n      sload\n      swap1\n      0x0100\n      exp\n      swap1\n      div\n      0xff\n      and\n        /* \"BEPPausable.sol\":423:430  !paused */\n      iszero\n        /* \"BEPPausable.sol\":415:431  require(!paused) */\n      tag_124\n      jumpi\n      0x00\n      dup1\n      revert\n    tag_124:\n        /* \"BEPPausable.sol\":744:748  true */\n      0x01\n        /* \"BEPPausable.sol\":735:741  paused */\n      0x00\n      0x14\n        /* \"BEPPausable.sol\":735:748  paused = true */\n      0x0100\n      exp\n      dup2\n      sload\n      dup2\n      0xff\n      mul\n      not\n      and\n      swap1\n      dup4\n      iszero\n      iszero\n      mul\n      or\n      swap1\n      sstore\n      pop\n        /* \"BEPPausable.sol\":759:766  Pause() */\n      0x6985a02210a168e66602d3235cb6db0e70f92b3ba4d376a33c0f3d9434bff625\n      mload(0x40)\n      mload(0x40)\n      dup1\n      swap2\n      sub\n      swap1\n      log1\n        /* \"BEPPausable.sol\":779:783  true */\n      0x01\n        /* \"BEPPausable.sol\":772:783  return true */\n      swap1\n      pop\n        /* \"BEPPausable.sol\":666:788  function pause() public onlyOwner whenNotPaused returns (bool) {... */\n      swap1\n      jump\t// out\n        /* \"BEPOwnable.sol\":899:970  function owner() public view returns (address) {... */\n    tag_57:\n        /* \"BEPOwnable.sol\":937:944  address */\n      0x00\n        /* \"BEPOwnable.sol\":959:965  _owner */\n      dup1\n      0x00\n      swap1\n      sload\n      swap1\n      0x0100\n      exp\n      swap1\n      div\n      0xffffffffffffffffffffffffffffffffffffffff\n      and\n        /* \"BEPOwnable.sol\":952:965  return _owner */\n      swap1\n      pop\n        /* \"BEPOwnable.sol\":899:970  function owner() public view returns (address) {... */\n      swap1\n      jump\t// out\n        /* \"BEPOwnable.sol\":1218:1304  function isOwner() public view returns (bool) {... */\n    tag_61:\n        /* \"BEPOwnable.sol\":1258:1262  bool */\n      0x00\n        /* \"BEPOwnable.sol\":1293:1299  _owner */\n      dup1\n      0x00\n      swap1\n      sload\n      swap1\n      0x0100\n      exp\n      swap1\n      div\n      0xffffffffffffffffffffffffffffffffffffffff\n      and\n        /* \"BEPOwnable.sol\":1277:1299  _msgSender() == _owner */\n      0xffffffffffffffffffffffffffffffffffffffff\n      and\n        /* \"BEPOwnable.sol\":1277:1289  _msgSender() */\n      tag_128\n        /* \"BEPOwnable.sol\":1277:1287  _msgSender */\n      tag_84\n        /* \"BEPOwnable.sol\":1277:1289  _msgSender() */\n      jump\t// in\n    tag_128:\n        /* \"BEPOwnable.sol\":1277:1299  _msgSender() == _owner */\n      0xffffffffffffffffffffffffffffffffffffffff\n      and\n      eq\n        /* \"BEPOwnable.sol\":1270:1299  return _msgSender() == _owner */\n      swap1\n      pop\n        /* \"BEPOwnable.sol\":1218:1304  function isOwner() public view returns (bool) {... */\n      swap1\n      jump\t// out\n        /* \"BEP20.sol\":4338:4624  function decreaseAllowance(address spender, uint256 subtractedValue) public whenNotPaused returns (bool) {... */\n    tag_65:\n        /* \"BEP20.sol\":4437:4441  bool */\n      0x00\n        /* \"BEPPausable.sol\":424:430  paused */\n      dup1\n      0x14\n      swap1\n      sload\n      swap1\n      0x0100\n      exp\n      swap1\n      div\n      0xff\n      and\n        /* \"BEPPausable.sol\":423:430  !paused */\n      iszero\n        /* \"BEPPausable.sol\":415:431  require(!paused) */\n      tag_130\n      jumpi\n      0x00\n      dup1\n      revert\n    tag_130:\n        /* \"BEP20.sol\":4449:4602  _approve(... */\n      tag_132\n        /* \"BEP20.sol\":4465:4477  _msgSender() */\n      tag_133\n        /* \"BEP20.sol\":4465:4475  _msgSender */\n      tag_84\n        /* \"BEP20.sol\":4465:4477  _msgSender() */\n      jump\t// in\n    tag_133:\n        /* \"BEP20.sol\":4485:4492  spender */\n      dup5\n        /* \"BEP20.sol\":4500:4596  _allowances[_msgSender()][spender].sub(subtractedValue, \"BEP20: decreased allowance below zero\") */\n      tag_134\n        /* \"BEP20.sol\":4539:4554  subtractedValue */\n      dup6\n        /* \"BEP20.sol\":4500:4596  _allowances[_msgSender()][spender].sub(subtractedValue, \"BEP20: decreased allowance below zero\") */\n      mload(0x40)\n      dup1\n      0x60\n      add\n      0x40\n      mstore\n      dup1\n      0x25\n      dup2\n      mstore\n      0x20\n      add\n      data_b7060b3538dcd3ddc8a941c91636a8115a1aa46914747fd9809d543bbb46cd22\n      0x25\n      swap2\n      codecopy\n        /* \"BEP20.sol\":4500:4511  _allowances */\n      0x02\n        /* \"BEP20.sol\":4500:4525  _allowances[_msgSender()] */\n      0x00\n        /* \"BEP20.sol\":4512:4524  _msgSender() */\n      tag_135\n        /* \"BEP20.sol\":4512:4522  _msgSender */\n      tag_84\n        /* \"BEP20.sol\":4512:4524  _msgSender() */\n      jump\t// in\n    tag_135:\n        /* \"BEP20.sol\":4500:4525  _allowances[_msgSender()] */\n      0xffffffffffffffffffffffffffffffffffffffff\n      and\n      0xffffffffffffffffffffffffffffffffffffffff\n      and\n      dup2\n      mstore\n      0x20\n      add\n      swap1\n      dup2\n      mstore\n      0x20\n      add\n      0x00\n      keccak256\n        /* \"BEP20.sol\":4500:4534  _allowances[_msgSender()][spender] */\n      0x00\n        /* \"BEP20.sol\":4526:4533  spender */\n      dup11\n        /* \"BEP20.sol\":4500:4534  _allowances[_msgSender()][spender] */\n      0xffffffffffffffffffffffffffffffffffffffff\n      and\n      0xffffffffffffffffffffffffffffffffffffffff\n      and\n      dup2\n      mstore\n      0x20\n      add\n      swap1\n      dup2\n      mstore\n      0x20\n      add\n      0x00\n      keccak256\n      sload\n        /* \"BEP20.sol\":4500:4538  _allowances[_msgSender()][spender].sub */\n      tag_96\n      swap1\n        /* \"BEP20.sol\":4500:4596  _allowances[_msgSender()][spender].sub(subtractedValue, \"BEP20: decreased allowance below zero\") */\n      swap3\n      swap2\n      swap1\n      0xffffffff\n      and\n      jump\t// in\n    tag_134:\n        /* \"BEP20.sol\":4449:4457  _approve */\n      tag_85\n        /* \"BEP20.sol\":4449:4602  _approve(... */\n      jump\t// in\n    tag_132:\n        /* \"BEP20.sol\":4615:4619  true */\n      0x01\n        /* \"BEP20.sol\":4608:4619  return true */\n      swap1\n      pop\n        /* \"BEP20.sol\":4338:4624  function decreaseAllowance(address spender, uint256 subtractedValue) public whenNotPaused returns (bool) {... */\n      swap3\n      swap2\n      pop\n      pop\n      jump\t// out\n        /* \"BEP20.sol\":1867:2043  function transfer(address recipient, uint256 amount) public virtual override whenNotPaused returns (bool) {... */\n    tag_69:\n        /* \"BEP20.sol\":1967:1971  bool */\n      0x00\n        /* \"BEPPausable.sol\":424:430  paused */\n      dup1\n      0x14\n      swap1\n      sload\n      swap1\n      0x0100\n      exp\n      swap1\n      div\n      0xff\n      and\n        /* \"BEPPausable.sol\":423:430  !paused */\n      iszero\n        /* \"BEPPausable.sol\":415:431  require(!paused) */\n      tag_137\n      jumpi\n      0x00\n      dup1\n      revert\n    tag_137:\n        /* \"BEP20.sol\":1979:2021  _transfer(_msgSender(), recipient, amount) */\n      tag_139\n        /* \"BEP20.sol\":1989:2001  _msgSender() */\n      tag_140\n        /* \"BEP20.sol\":1989:1999  _msgSender */\n      tag_84\n        /* \"BEP20.sol\":1989:2001  _msgSender() */\n      jump\t// in\n    tag_140:\n        /* \"BEP20.sol\":2003:2012  recipient */\n      dup5\n        /* \"BEP20.sol\":2014:2020  amount */\n      dup5\n        /* \"BEP20.sol\":1979:1988  _transfer */\n      tag_91\n        /* \"BEP20.sol\":1979:2021  _transfer(_msgSender(), recipient, amount) */\n      jump\t// in\n    tag_139:\n        /* \"BEP20.sol\":2034:2038  true */\n      0x01\n        /* \"BEP20.sol\":2027:2038  return true */\n      swap1\n      pop\n        /* \"BEP20.sol\":1867:2043  function transfer(address recipient, uint256 amount) public virtual override whenNotPaused returns (bool) {... */\n      swap3\n      swap2\n      pop\n      pop\n      jump\t// out\n        /* \"BEP20.sol\":2093:2228  function allowance(address owner, address spender) public view override returns (uint256) {... */\n    tag_74:\n        /* \"BEP20.sol\":2174:2181  uint256 */\n      0x00\n        /* \"BEP20.sol\":2196:2207  _allowances */\n      0x02\n        /* \"BEP20.sol\":2196:2214  _allowances[owner] */\n      0x00\n        /* \"BEP20.sol\":2208:2213  owner */\n      dup5\n        /* \"BEP20.sol\":2196:2214  _allowances[owner] */\n      0xffffffffffffffffffffffffffffffffffffffff\n      and\n      0xffffffffffffffffffffffffffffffffffffffff\n      and\n      dup2\n      mstore\n      0x20\n      add\n      swap1\n      dup2\n      mstore\n      0x20\n      add\n      0x00\n      keccak256\n        /* \"BEP20.sol\":2196:2223  _allowances[owner][spender] */\n      0x00\n        /* \"BEP20.sol\":2215:2222  spender */\n      dup4\n        /* \"BEP20.sol\":2196:2223  _allowances[owner][spender] */\n      0xffffffffffffffffffffffffffffffffffffffff\n      and\n      0xffffffffffffffffffffffffffffffffffffffff\n      and\n      dup2\n      mstore\n      0x20\n      add\n      swap1\n      dup2\n      mstore\n      0x20\n      add\n      0x00\n      keccak256\n      sload\n        /* \"BEP20.sol\":2189:2223  return _allowances[owner][spender] */\n      swap1\n      pop\n        /* \"BEP20.sol\":2093:2228  function allowance(address owner, address spender) public view override returns (uint256) {... */\n      swap3\n      swap2\n      pop\n      pop\n      jump\t// out\n        /* \"BEPOwnable.sol\":1896:1997  function transferOwnership(address newOwner) public onlyOwner {... */\n    tag_78:\n        /* \"BEPOwnable.sol\":1085:1094  isOwner() */\n      tag_143\n        /* \"BEPOwnable.sol\":1085:1092  isOwner */\n      tag_61\n        /* \"BEPOwnable.sol\":1085:1094  isOwner() */\n      jump\t// in\n    tag_143:\n        /* \"BEPOwnable.sol\":1077:1131  require(isOwner(), \"Ownable: caller is not the owner\") */\n      tag_144\n      jumpi\n      mload(0x40)\n      0x08c379a000000000000000000000000000000000000000000000000000000000\n      dup2\n      mstore\n      0x04\n      add\n      tag_145\n      swap1\n      tag_109\n      jump\t// in\n    tag_145:\n      mload(0x40)\n      dup1\n      swap2\n      sub\n      swap1\n      revert\n    tag_144:\n        /* \"BEPOwnable.sol\":1964:1992  _transferOwnership(newOwner) */\n      tag_147\n        /* \"BEPOwnable.sol\":1983:1991  newOwner */\n      dup2\n        /* \"BEPOwnable.sol\":1964:1982  _transferOwnership */\n      tag_148\n        /* \"BEPOwnable.sol\":1964:1992  _transferOwnership(newOwner) */\n      jump\t// in\n    tag_147:\n        /* \"BEPOwnable.sol\":1896:1997  function transferOwnership(address newOwner) public onlyOwner {... */\n      pop\n      jump\t// out\n        /* \"BEPContext.sol\":760:859  function _msgSender() internal view returns (address payable) {... */\n    tag_84:\n        /* \"BEPContext.sol\":805:820  address payable */\n      0x00\n        /* \"BEPContext.sol\":843:853  msg.sender */\n      caller\n        /* \"BEPContext.sol\":828:854  return payable(msg.sender) */\n      swap1\n      pop\n        /* \"BEPContext.sol\":760:859  function _msgSender() internal view returns (address payable) {... */\n      swap1\n      jump\t// out\n        /* \"BEP20.sol\":7084:7414  function _approve(... */\n    tag_85:\n        /* \"BEP20.sol\":7206:7207  0 */\n      0x00\n        /* \"BEP20.sol\":7189:7208  owner != address(0) */\n      0xffffffffffffffffffffffffffffffffffffffff\n      and\n        /* \"BEP20.sol\":7189:7194  owner */\n      dup4\n        /* \"BEP20.sol\":7189:7208  owner != address(0) */\n      0xffffffffffffffffffffffffffffffffffffffff\n      and\n      eq\n      iszero\n        /* \"BEP20.sol\":7181:7249  require(owner != address(0), \"BEP20: approve from the zero address\") */\n      tag_151\n      jumpi\n      mload(0x40)\n      0x08c379a000000000000000000000000000000000000000000000000000000000\n      dup2\n      mstore\n      0x04\n      add\n      tag_152\n      swap1\n      tag_153\n      jump\t// in\n    tag_152:\n      mload(0x40)\n      dup1\n      swap2\n      sub\n      swap1\n      revert\n    tag_151:\n        /* \"BEP20.sol\":7282:7283  0 */\n      0x00\n        /* \"BEP20.sol\":7263:7284  spender != address(0) */\n      0xffffffffffffffffffffffffffffffffffffffff\n      and\n        /* \"BEP20.sol\":7263:7270  spender */\n      dup3\n        /* \"BEP20.sol\":7263:7284  spender != address(0) */\n      0xffffffffffffffffffffffffffffffffffffffff\n      and\n      eq\n      iszero\n        /* \"BEP20.sol\":7255:7323  require(spender != address(0), \"BEP20: approve to the zero address\") */\n      tag_154\n      jumpi\n      mload(0x40)\n      0x08c379a000000000000000000000000000000000000000000000000000000000\n      dup2\n      mstore\n      0x04\n      add\n      tag_155\n      swap1\n      tag_156\n      jump\t// in\n    tag_155:\n      mload(0x40)\n      dup1\n      swap2\n      sub\n      swap1\n      revert\n    tag_154:\n        /* \"BEP20.sol\":7360:7366  amount */\n      dup1\n        /* \"BEP20.sol\":7330:7341  _allowances */\n      0x02\n        /* \"BEP20.sol\":7330:7348  _allowances[owner] */\n      0x00\n        /* \"BEP20.sol\":7342:7347  owner */\n      dup6\n        /* \"BEP20.sol\":7330:7348  _allowances[owner] */\n      0xffffffffffffffffffffffffffffffffffffffff\n      and\n      0xffffffffffffffffffffffffffffffffffffffff\n      and\n      dup2\n      mstore\n      0x20\n      add\n      swap1\n      dup2\n      mstore\n      0x20\n      add\n      0x00\n      keccak256\n        /* \"BEP20.sol\":7330:7357  _allowances[owner][spender] */\n      0x00\n        /* \"BEP20.sol\":7349:7356  spender */\n      dup5\n        /* \"BEP20.sol\":7330:7357  _allowances[owner][spender] */\n      0xffffffffffffffffffffffffffffffffffffffff\n      and\n      0xffffffffffffffffffffffffffffffffffffffff\n      and\n      dup2\n      mstore\n      0x20\n      add\n      swap1\n      dup2\n      mstore\n      0x20\n      add\n      0x00\n      keccak256\n        /* \"BEP20.sol\":7330:7366  _allowances[owner][spender] = amount */\n      dup2\n      swap1\n      sstore\n      pop\n        /* \"BEP20.sol\":7393:7400  spender */\n      dup2\n        /* \"BEP20.sol\":7377:7409  Approval(owner, spender, amount) */\n      0xffffffffffffffffffffffffffffffffffffffff\n      and\n        /* \"BEP20.sol\":7386:7391  owner */\n      dup4\n        /* \"BEP20.sol\":7377:7409  Approval(owner, spender, amount) */\n      0xffffffffffffffffffffffffffffffffffffffff\n      and\n      0x8c5be1e5ebec7d5bd14f71427d1e84f3dd0314c0f7b2291e5b200ac8c7c3b925\n        /* \"BEP20.sol\":7402:7408  amount */\n      dup4\n        /* \"BEP20.sol\":7377:7409  Approval(owner, spender, amount) */\n      mload(0x40)\n      tag_157\n      swap2\n      swap1\n      tag_30\n      jump\t// in\n    tag_157:\n      mload(0x40)\n      dup1\n      swap2\n      sub\n      swap1\n      log3\n        /* \"BEP20.sol\":7084:7414  function _approve(... */\n      pop\n      pop\n      pop\n      jump\t// out\n        /* \"BEP20.sol\":5068:5534  function _transfer(... */\n    tag_91:\n        /* \"BEP20.sol\":5203:5204  0 */\n      0x00\n        /* \"BEP20.sol\":5185:5205  sender != address(0) */\n      0xffffffffffffffffffffffffffffffffffffffff\n      and\n        /* \"BEP20.sol\":5185:5191  sender */\n      dup4\n        /* \"BEP20.sol\":5185:5205  sender != address(0) */\n      0xffffffffffffffffffffffffffffffffffffffff\n      and\n      eq\n      iszero\n        /* \"BEP20.sol\":5177:5247  require(sender != address(0), \"BEP20: transfer from the zero address\") */\n      tag_159\n      jumpi\n      mload(0x40)\n      0x08c379a000000000000000000000000000000000000000000000000000000000\n      dup2\n      mstore\n      0x04\n      add\n      tag_160\n      swap1\n      tag_161\n      jump\t// in\n    tag_160:\n      mload(0x40)\n      dup1\n      swap2\n      sub\n      swap1\n      revert\n    tag_159:\n        /* \"BEP20.sol\":5282:5283  0 */\n      0x00\n        /* \"BEP20.sol\":5261:5284  recipient != address(0) */\n      0xffffffffffffffffffffffffffffffffffffffff\n      and\n        /* \"BEP20.sol\":5261:5270  recipient */\n      dup3\n        /* \"BEP20.sol\":5261:5284  recipient != address(0) */\n      0xffffffffffffffffffffffffffffffffffffffff\n      and\n      eq\n      iszero\n        /* \"BEP20.sol\":5253:5324  require(recipient != address(0), \"BEP20: transfer to the zero address\") */\n      tag_162\n      jumpi\n      mload(0x40)\n      0x08c379a000000000000000000000000000000000000000000000000000000000\n      dup2\n      mstore\n      0x04\n      add\n      tag_163\n      swap1\n      tag_164\n      jump\t// in\n    tag_163:\n      mload(0x40)\n      dup1\n      swap2\n      sub\n      swap1\n      revert\n    tag_162:\n        /* \"BEP20.sol\":5351:5422  _balances[sender].sub(amount, \"BEP20: transfer amount exceeds balance\") */\n      tag_165\n        /* \"BEP20.sol\":5373:5379  amount */\n      dup2\n        /* \"BEP20.sol\":5351:5422  _balances[sender].sub(amount, \"BEP20: transfer amount exceeds balance\") */\n      mload(0x40)\n      dup1\n      0x60\n      add\n      0x40\n      mstore\n      dup1\n      0x26\n      dup2\n      mstore\n      0x20\n      add\n      data_a91efd7a65ef5b4ae4d6568d674798b78a5a89184dd296c100513251c22d3e73\n      0x26\n      swap2\n      codecopy\n        /* \"BEP20.sol\":5351:5360  _balances */\n      0x01\n        /* \"BEP20.sol\":5351:5368  _balances[sender] */\n      0x00\n        /* \"BEP20.sol\":5361:5367  sender */\n      dup8\n        /* \"BEP20.sol\":5351:5368  _balances[sender] */\n      0xffffffffffffffffffffffffffffffffffffffff\n      and\n      0xffffffffffffffffffffffffffffffffffffffff\n      and\n      dup2\n      mstore\n      0x20\n      add\n      swap1\n      dup2\n      mstore\n      0x20\n      add\n      0x00\n      keccak256\n      sload\n        /* \"BEP20.sol\":5351:5372  _balances[sender].sub */\n      tag_96\n      swap1\n        /* \"BEP20.sol\":5351:5422  _balances[sender].sub(amount, \"BEP20: transfer amount exceeds balance\") */\n      swap3\n      swap2\n      swap1\n      0xffffffff\n      and\n      jump\t// in\n    tag_165:\n        /* \"BEP20.sol\":5331:5340  _balances */\n      0x01\n        /* \"BEP20.sol\":5331:5348  _balances[sender] */\n      0x00\n        /* \"BEP20.sol\":5341:5347  sender */\n      dup6\n        /* \"BEP20.sol\":5331:5348  _balances[sender] */\n      0xffffffffffffffffffffffffffffffffffffffff\n      and\n      0xffffffffffffffffffffffffffffffffffffffff\n      and\n      dup2\n      mstore\n      0x20\n      add\n      swap1\n      dup2\n      mstore\n      0x20\n      add\n      0x00\n      keccak256\n        /* \"BEP20.sol\":5331:5422  _balances[sender] = _balances[sender].sub(amount, \"BEP20: transfer amount exceeds balance\") */\n      dup2\n      swap1\n      sstore\n      pop\n        /* \"BEP20.sol\":5451:5483  _balances[recipient].add(amount) */\n      tag_166\n        /* \"BEP20.sol\":5476:5482  amount */\n      dup2\n        /* \"BEP20.sol\":5451:5460  _balances */\n      0x01\n        /* \"BEP20.sol\":5451:5471  _balances[recipient] */\n      0x00\n        /* \"BEP20.sol\":5461:5470  recipient */\n      dup6\n        /* \"BEP20.sol\":5451:5471  _balances[recipient] */\n      0xffffffffffffffffffffffffffffffffffffffff\n      and\n      0xffffffffffffffffffffffffffffffffffffffff\n      and\n      dup2\n      mstore\n      0x20\n      add\n      swap1\n      dup2\n      mstore\n      0x20\n      add\n      0x00\n      keccak256\n      sload\n        /* \"BEP20.sol\":5451:5475  _balances[recipient].add */\n      tag_104\n      swap1\n        /* \"BEP20.sol\":5451:5483  _balances[recipient].add(amount) */\n      swap2\n      swap1\n      0xffffffff\n      and\n      jump\t// in\n    tag_166:\n        /* \"BEP20.sol\":5428:5437  _balances */\n      0x01\n        /* \"BEP20.sol\":5428:5448  _balances[recipient] */\n      0x00\n        /* \"BEP20.sol\":5438:5447  recipient */\n      dup5\n        /* \"BEP20.sol\":5428:5448  _balances[recipient] */\n      0xffffffffffffffffffffffffffffffffffffffff\n      and\n      0xffffffffffffffffffffffffffffffffffffffff\n      and\n      dup2\n      mstore\n      0x20\n      add\n      swap1\n      dup2\n      mstore\n      0x20\n      add\n      0x00\n      keccak256\n        /* \"BEP20.sol\":5428:5483  _balances[recipient] = _balances[recipient].add(amount) */\n      dup2\n      swap1\n      sstore\n      pop\n        /* \"BEP20.sol\":5511:5520  recipient */\n      dup2\n        /* \"BEP20.sol\":5494:5529  Transfer(sender, recipient, amount) */\n      0xffffffffffffffffffffffffffffffffffffffff\n      and\n        /* \"BEP20.sol\":5503:5509  sender */\n      dup4\n        /* \"BEP20.sol\":5494:5529  Transfer(sender, recipient, amount) */\n      0xffffffffffffffffffffffffffffffffffffffff\n      and\n      0xddf252ad1be2c89b69c2b068fc378daa952ba7f163c4a11628f55a4df523b3ef\n        /* \"BEP20.sol\":5522:5528  amount */\n      dup4\n        /* \"BEP20.sol\":5494:5529  Transfer(sender, recipient, amount) */\n      mload(0x40)\n      tag_167\n      swap2\n      swap1\n      tag_30\n      jump\t// in\n    tag_167:\n      mload(0x40)\n      dup1\n      swap2\n      sub\n      swap1\n      log3\n        /* \"BEP20.sol\":5068:5534  function _transfer(... */\n      pop\n      pop\n      pop\n      jump\t// out\n        /* \"SafeMath.sol\":1692:1881  function sub(... */\n    tag_96:\n        /* \"SafeMath.sol\":1794:1801  uint256 */\n      0x00\n        /* \"SafeMath.sol\":1822:1823  a */\n      dup4\n        /* \"SafeMath.sol\":1817:1818  b */\n      dup4\n        /* \"SafeMath.sol\":1817:1823  b <= a */\n      gt\n      iszero\n        /* \"SafeMath.sol\":1825:1837  errorMessage */\n      dup3\n        /* \"SafeMath.sol\":1809:1838  require(b <= a, errorMessage) */\n      swap1\n      tag_169\n      jumpi\n      mload(0x40)\n      0x08c379a000000000000000000000000000000000000000000000000000000000\n      dup2\n      mstore\n      0x04\n      add\n      tag_170\n      swap2\n      swap1\n      tag_171\n      jump\t// in\n    tag_170:\n      mload(0x40)\n      dup1\n      swap2\n      sub\n      swap1\n      revert\n    tag_169:\n      pop\n        /* \"SafeMath.sol\":1844:1853  uint256 c */\n      0x00\n        /* \"SafeMath.sol\":1860:1861  b */\n      dup4\n        /* \"SafeMath.sol\":1856:1857  a */\n      dup6\n        /* \"SafeMath.sol\":1856:1861  a - b */\n      tag_172\n      swap2\n      swap1\n      tag_173\n      jump\t// in\n    tag_172:\n        /* \"SafeMath.sol\":1844:1861  uint256 c = a - b */\n      swap1\n      pop\n        /* \"SafeMath.sol\":1875:1876  c */\n      dup1\n        /* \"SafeMath.sol\":1868:1876  return c */\n      swap2\n      pop\n      pop\n        /* \"SafeMath.sol\":1692:1881  function sub(... */\n      swap4\n      swap3\n      pop\n      pop\n      pop\n      jump\t// out\n        /* \"SafeMath.sol\":858:1020  function add(uint256 a, uint256 b) internal pure returns (uint256) {... */\n    tag_104:\n        /* \"SafeMath.sol\":916:923  uint256 */\n      0x00\n        /* \"SafeMath.sol\":931:940  uint256 c */\n      dup1\n        /* \"SafeMath.sol\":947:948  b */\n      dup3\n        /* \"SafeMath.sol\":943:944  a */\n      dup5\n        /* \"SafeMath.sol\":943:948  a + b */\n      tag_175\n      swap2\n      swap1\n      tag_176\n      jump\t// in\n    tag_175:\n        /* \"SafeMath.sol\":931:948  uint256 c = a + b */\n      swap1\n      pop\n        /* \"SafeMath.sol\":967:968  a */\n      dup4\n        /* \"SafeMath.sol\":962:963  c */\n      dup2\n        /* \"SafeMath.sol\":962:968  c >= a */\n      lt\n      iszero\n        /* \"SafeMath.sol\":954:1000  require(c >= a, \"SafeMath: addition overflow\") */\n      tag_177\n      jumpi\n      mload(0x40)\n      0x08c379a000000000000000000000000000000000000000000000000000000000\n      dup2\n      mstore\n      0x04\n      add\n      tag_178\n      swap1\n      tag_179\n      jump\t// in\n    tag_178:\n      mload(0x40)\n      dup1\n      swap2\n      sub\n      swap1\n      revert\n    tag_177:\n        /* \"SafeMath.sol\":1014:1015  c */\n      dup1\n        /* \"SafeMath.sol\":1007:1015  return c */\n      swap2\n      pop\n      pop\n        /* \"SafeMath.sol\":858:1020  function add(uint256 a, uint256 b) internal pure returns (uint256) {... */\n      swap3\n      swap2\n      pop\n      pop\n      jump\t// out\n        /* \"BEPOwnable.sol\":2090:2301  function _transferOwnership(address newOwner) internal {... */\n    tag_148:\n        /* \"BEPOwnable.sol\":2179:2180  0 */\n      0x00\n        /* \"BEPOwnable.sol\":2159:2181  newOwner != address(0) */\n      0xffffffffffffffffffffffffffffffffffffffff\n      and\n        /* \"BEPOwnable.sol\":2159:2167  newOwner */\n      dup2\n        /* \"BEPOwnable.sol\":2159:2181  newOwner != address(0) */\n      0xffffffffffffffffffffffffffffffffffffffff\n      and\n      eq\n      iszero\n        /* \"BEPOwnable.sol\":2151:2224  require(newOwner != address(0), \"Ownable: new owner is the zero address\") */\n      tag_181\n      jumpi\n      mload(0x40)\n      0x08c379a000000000000000000000000000000000000000000000000000000000\n      dup2\n      mstore\n      0x04\n      add\n      tag_182\n      swap1\n      tag_183\n      jump\t// in\n    tag_182:\n      mload(0x40)\n      dup1\n      swap2\n      sub\n      swap1\n      revert\n    tag_181:\n        /* \"BEPOwnable.sol\":2264:2272  newOwner */\n      dup1\n        /* \"BEPOwnable.sol\":2235:2273  OwnershipTransferred(_owner, newOwner) */\n      0xffffffffffffffffffffffffffffffffffffffff\n      and\n        /* \"BEPOwnable.sol\":2256:2262  _owner */\n      0x00\n      dup1\n      sload\n      swap1\n      0x0100\n      exp\n      swap1\n      div\n      0xffffffffffffffffffffffffffffffffffffffff\n      and\n        /* \"BEPOwnable.sol\":2235:2273  OwnershipTransferred(_owner, newOwner) */\n      0xffffffffffffffffffffffffffffffffffffffff\n      and\n      0x8be0079c531659141344cd1fd0a4f28419497f9722a3daafe3b4186f6b6457e0\n      mload(0x40)\n      mload(0x40)\n      dup1\n      swap2\n      sub\n      swap1\n      log3\n        /* \"BEPOwnable.sol\":2288:2296  newOwner */\n      dup1\n        /* \"BEPOwnable.sol\":2279:2285  _owner */\n      0x00\n      dup1\n        /* \"BEPOwnable.sol\":2279:2296  _owner = newOwner */\n      0x0100\n      exp\n      dup2\n      sload\n      dup2\n      0xffffffffffffffffffffffffffffffffffffffff\n      mul\n      not\n      and\n      swap1\n      dup4\n      0xffffffffffffffffffffffffffffffffffffffff\n      and\n      mul\n      or\n      swap1\n      sstore\n      pop\n        /* \"BEPOwnable.sol\":2090:2301  function _transferOwnership(address newOwner) internal {... */\n      pop\n      jump\t// out\n        /* \"#utility.yul\":7:146   */\n    tag_185:\n        /* \"#utility.yul\":53:58   */\n      0x00\n        /* \"#utility.yul\":91:97   */\n      dup2\n        /* \"#utility.yul\":78:98   */\n      calldataload\n        /* \"#utility.yul\":69:98   */\n      swap1\n      pop\n        /* \"#utility.yul\":107:140   */\n      tag_187\n        /* \"#utility.yul\":134:139   */\n      dup2\n        /* \"#utility.yul\":107:140   */\n      tag_188\n      jump\t// in\n    tag_187:\n        /* \"#utility.yul\":7:146   */\n      swap3\n      swap2\n      pop\n      pop\n      jump\t// out\n        /* \"#utility.yul\":152:291   */\n    tag_189:\n        /* \"#utility.yul\":198:203   */\n      0x00\n        /* \"#utility.yul\":236:242   */\n      dup2\n        /* \"#utility.yul\":223:243   */\n      calldataload\n        /* \"#utility.yul\":214:243   */\n      swap1\n      pop\n        /* \"#utility.yul\":252:285   */\n      tag_191\n        /* \"#utility.yul\":279:284   */\n      dup2\n        /* \"#utility.yul\":252:285   */\n      tag_192\n      jump\t// in\n    tag_191:\n        /* \"#utility.yul\":152:291   */\n      swap3\n      swap2\n      pop\n      pop\n      jump\t// out\n        /* \"#utility.yul\":297:626   */\n    tag_48:\n        /* \"#utility.yul\":356:362   */\n      0x00\n        /* \"#utility.yul\":405:407   */\n      0x20\n        /* \"#utility.yul\":393:402   */\n      dup3\n        /* \"#utility.yul\":384:391   */\n      dup5\n        /* \"#utility.yul\":380:403   */\n      sub\n        /* \"#utility.yul\":376:408   */\n      slt\n        /* \"#utility.yul\":373:492   */\n      iszero\n      tag_194\n      jumpi\n        /* \"#utility.yul\":411:490   */\n      tag_195\n      tag_196\n      jump\t// in\n    tag_195:\n        /* \"#utility.yul\":373:492   */\n    tag_194:\n        /* \"#utility.yul\":531:532   */\n      0x00\n        /* \"#utility.yul\":556:609   */\n      tag_197\n        /* \"#utility.yul\":601:608   */\n      dup5\n        /* \"#utility.yul\":592:598   */\n      dup3\n        /* \"#utility.yul\":581:590   */\n      dup6\n        /* \"#utility.yul\":577:599   */\n      add\n        /* \"#utility.yul\":556:609   */\n      tag_185\n      jump\t// in\n    tag_197:\n        /* \"#utility.yul\":546:609   */\n      swap2\n      pop\n        /* \"#utility.yul\":502:619   */\n      pop\n        /* \"#utility.yul\":297:626   */\n      swap3\n      swap2\n      pop\n      pop\n      jump\t// out\n        /* \"#utility.yul\":632:1106   */\n    tag_73:\n        /* \"#utility.yul\":700:706   */\n      0x00\n        /* \"#utility.yul\":708:714   */\n      dup1\n        /* \"#utility.yul\":757:759   */\n      0x40\n        /* \"#utility.yul\":745:754   */\n      dup4\n        /* \"#utility.yul\":736:743   */\n      dup6\n        /* \"#utility.yul\":732:755   */\n      sub\n        /* \"#utility.yul\":728:760   */\n      slt\n        /* \"#utility.yul\":725:844   */\n      iszero\n      tag_199\n      jumpi\n        /* \"#utility.yul\":763:842   */\n      tag_200\n      tag_196\n      jump\t// in\n    tag_200:\n        /* \"#utility.yul\":725:844   */\n    tag_199:\n        /* \"#utility.yul\":883:884   */\n      0x00\n        /* \"#utility.yul\":908:961   */\n      tag_201\n        /* \"#utility.yul\":953:960   */\n      dup6\n        /* \"#utility.yul\":944:950   */\n      dup3\n        /* \"#utility.yul\":933:942   */\n      dup7\n        /* \"#utility.yul\":929:951   */\n      add\n        /* \"#utility.yul\":908:961   */\n      tag_185\n      jump\t// in\n    tag_201:\n        /* \"#utility.yul\":898:961   */\n      swap3\n      pop\n        /* \"#utility.yul\":854:971   */\n      pop\n        /* \"#utility.yul\":1010:1012   */\n      0x20\n        /* \"#utility.yul\":1036:1089   */\n      tag_202\n        /* \"#utility.yul\":1081:1088   */\n      dup6\n        /* \"#utility.yul\":1072:1078   */\n      dup3\n        /* \"#utility.yul\":1061:1070   */\n      dup7\n        /* \"#utility.yul\":1057:1079   */\n      add\n        /* \"#utility.yul\":1036:1089   */\n      tag_185\n      jump\t// in\n    tag_202:\n        /* \"#utility.yul\":1026:1089   */\n      swap2\n      pop\n        /* \"#utility.yul\":981:1099   */\n      pop\n        /* \"#utility.yul\":632:1106   */\n      swap3\n      pop\n      swap3\n      swap1\n      pop\n      jump\t// out\n        /* \"#utility.yul\":1112:1731   */\n    tag_33:\n        /* \"#utility.yul\":1189:1195   */\n      0x00\n        /* \"#utility.yul\":1197:1203   */\n      dup1\n        /* \"#utility.yul\":1205:1211   */\n      0x00\n        /* \"#utility.yul\":1254:1256   */\n      0x60\n        /* \"#utility.yul\":1242:1251   */\n      dup5\n        /* \"#utility.yul\":1233:1240   */\n      dup7\n        /* \"#utility.yul\":1229:1252   */\n      sub\n        /* \"#utility.yul\":1225:1257   */\n      slt\n        /* \"#utility.yul\":1222:1341   */\n      iszero\n      tag_204\n      jumpi\n        /* \"#utility.yul\":1260:1339   */\n      tag_205\n      tag_196\n      jump\t// in\n    tag_205:\n        /* \"#utility.yul\":1222:1341   */\n    tag_204:\n        /* \"#utility.yul\":1380:1381   */\n      0x00\n        /* \"#utility.yul\":1405:1458   */\n      tag_206\n        /* \"#utility.yul\":1450:1457   */\n      dup7\n        /* \"#utility.yul\":1441:1447   */\n      dup3\n        /* \"#utility.yul\":1430:1439   */\n      dup8\n        /* \"#utility.yul\":1426:1448   */\n      add\n        /* \"#utility.yul\":1405:1458   */\n      tag_185\n      jump\t// in\n    tag_206:\n        /* \"#utility.yul\":1395:1458   */\n      swap4\n      pop\n        /* \"#utility.yul\":1351:1468   */\n      pop\n        /* \"#utility.yul\":1507:1509   */\n      0x20\n        /* \"#utility.yul\":1533:1586   */\n      tag_207\n        /* \"#utility.yul\":1578:1585   */\n      dup7\n        /* \"#utility.yul\":1569:1575   */\n      dup3\n        /* \"#utility.yul\":1558:1567   */\n      dup8\n        /* \"#utility.yul\":1554:1576   */\n      add\n        /* \"#utility.yul\":1533:1586   */\n      tag_185\n      jump\t// in\n    tag_207:\n        /* \"#utility.yul\":1523:1586   */\n      swap3\n      pop\n        /* \"#utility.yul\":1478:1596   */\n      pop\n        /* \"#utility.yul\":1635:1637   */\n      0x40\n        /* \"#utility.yul\":1661:1714   */\n      tag_208\n        /* \"#utility.yul\":1706:1713   */\n      dup7\n        /* \"#utility.yul\":1697:1703   */\n      dup3\n        /* \"#utility.yul\":1686:1695   */\n      dup8\n        /* \"#utility.yul\":1682:1704   */\n      add\n        /* \"#utility.yul\":1661:1714   */\n      tag_189\n      jump\t// in\n    tag_208:\n        /* \"#utility.yul\":1651:1714   */\n      swap2\n      pop\n        /* \"#utility.yul\":1606:1724   */\n      pop\n        /* \"#utility.yul\":1112:1731   */\n      swap3\n      pop\n      swap3\n      pop\n      swap3\n      jump\t// out\n        /* \"#utility.yul\":1737:2211   */\n    tag_23:\n        /* \"#utility.yul\":1805:1811   */\n      0x00\n        /* \"#utility.yul\":1813:1819   */\n      dup1\n        /* \"#utility.yul\":1862:1864   */\n      0x40\n        /* \"#utility.yul\":1850:1859   */\n      dup4\n        /* \"#utility.yul\":1841:1848   */\n      dup6\n        /* \"#utility.yul\":1837:1860   */\n      sub\n        /* \"#utility.yul\":1833:1865   */\n      slt\n        /* \"#utility.yul\":1830:1949   */\n      iszero\n      tag_210\n      jumpi\n        /* \"#utility.yul\":1868:1947   */\n      tag_211\n      tag_196\n      jump\t// in\n    tag_211:\n        /* \"#utility.yul\":1830:1949   */\n    tag_210:\n        /* \"#utility.yul\":1988:1989   */\n      0x00\n        /* \"#utility.yul\":2013:2066   */\n      tag_212\n        /* \"#utility.yul\":2058:2065   */\n      dup6\n        /* \"#utility.yul\":2049:2055   */\n      dup3\n        /* \"#utility.yul\":2038:2047   */\n      dup7\n        /* \"#utility.yul\":2034:2056   */\n      add\n        /* \"#utility.yul\":2013:2066   */\n      tag_185\n      jump\t// in\n    tag_212:\n        /* \"#utility.yul\":2003:2066   */\n      swap3\n      pop\n        /* \"#utility.yul\":1959:2076   */\n      pop\n        /* \"#utility.yul\":2115:2117   */\n      0x20\n        /* \"#utility.yul\":2141:2194   */\n      tag_213\n        /* \"#utility.yul\":2186:2193   */\n      dup6\n        /* \"#utility.yul\":2177:2183   */\n      dup3\n        /* \"#utility.yul\":2166:2175   */\n      dup7\n        /* \"#utility.yul\":2162:2184   */\n      add\n        /* \"#utility.yul\":2141:2194   */\n      tag_189\n      jump\t// in\n    tag_213:\n        /* \"#utility.yul\":2131:2194   */\n      swap2\n      pop\n        /* \"#utility.yul\":2086:2204   */\n      pop\n        /* \"#utility.yul\":1737:2211   */\n      swap3\n      pop\n      swap3\n      swap1\n      pop\n      jump\t// out\n        /* \"#utility.yul\":2217:2335   */\n    tag_214:\n        /* \"#utility.yul\":2304:2328   */\n      tag_216\n        /* \"#utility.yul\":2322:2327   */\n      dup2\n        /* \"#utility.yul\":2304:2328   */\n      tag_217\n      jump\t// in\n    tag_216:\n        /* \"#utility.yul\":2299:2302   */\n      dup3\n        /* \"#utility.yul\":2292:2329   */\n      mstore\n        /* \"#utility.yul\":2217:2335   */\n      pop\n      pop\n      jump\t// out\n        /* \"#utility.yul\":2341:2450   */\n    tag_218:\n        /* \"#utility.yul\":2422:2443   */\n      tag_220\n        /* \"#utility.yul\":2437:2442   */\n      dup2\n        /* \"#utility.yul\":2422:2443   */\n      tag_221\n      jump\t// in\n    tag_220:\n        /* \"#utility.yul\":2417:2420   */\n      dup3\n        /* \"#utility.yul\":2410:2444   */\n      mstore\n        /* \"#utility.yul\":2341:2450   */\n      pop\n      pop\n      jump\t// out\n        /* \"#utility.yul\":2456:2820   */\n    tag_222:\n        /* \"#utility.yul\":2544:2547   */\n      0x00\n        /* \"#utility.yul\":2572:2611   */\n      tag_224\n        /* \"#utility.yul\":2605:2610   */\n      dup3\n        /* \"#utility.yul\":2572:2611   */\n      tag_225\n      jump\t// in\n    tag_224:\n        /* \"#utility.yul\":2627:2698   */\n      tag_226\n        /* \"#utility.yul\":2691:2697   */\n      dup2\n        /* \"#utility.yul\":2686:2689   */\n      dup6\n        /* \"#utility.yul\":2627:2698   */\n      tag_227\n      jump\t// in\n    tag_226:\n        /* \"#utility.yul\":2620:2698   */\n      swap4\n      pop\n        /* \"#utility.yul\":2707:2759   */\n      tag_228\n        /* \"#utility.yul\":2752:2758   */\n      dup2\n        /* \"#utility.yul\":2747:2750   */\n      dup6\n        /* \"#utility.yul\":2740:2744   */\n      0x20\n        /* \"#utility.yul\":2733:2738   */\n      dup7\n        /* \"#utility.yul\":2729:2745   */\n      add\n        /* \"#utility.yul\":2707:2759   */\n      tag_229\n      jump\t// in\n    tag_228:\n        /* \"#utility.yul\":2784:2813   */\n      tag_230\n        /* \"#utility.yul\":2806:2812   */\n      dup2\n        /* \"#utility.yul\":2784:2813   */\n      tag_231\n      jump\t// in\n    tag_230:\n        /* \"#utility.yul\":2779:2782   */\n      dup5\n        /* \"#utility.yul\":2775:2814   */\n      add\n        /* \"#utility.yul\":2768:2814   */\n      swap2\n      pop\n        /* \"#utility.yul\":2548:2820   */\n      pop\n        /* \"#utility.yul\":2456:2820   */\n      swap3\n      swap2\n      pop\n      pop\n      jump\t// out\n        /* \"#utility.yul\":2826:3192   */\n    tag_232:\n        /* \"#utility.yul\":2968:2971   */\n      0x00\n        /* \"#utility.yul\":2989:3056   */\n      tag_234\n        /* \"#utility.yul\":3053:3055   */\n      0x25\n        /* \"#utility.yul\":3048:3051   */\n      dup4\n        /* \"#utility.yul\":2989:3056   */\n      tag_227\n      jump\t// in\n    tag_234:\n        /* \"#utility.yul\":2982:3056   */\n      swap2\n      pop\n        /* \"#utility.yul\":3065:3158   */\n      tag_235\n        /* \"#utility.yul\":3154:3157   */\n      dup3\n        /* \"#utility.yul\":3065:3158   */\n      tag_236\n      jump\t// in\n    tag_235:\n        /* \"#utility.yul\":3183:3185   */\n      0x40\n        /* \"#utility.yul\":3178:3181   */\n      dup3\n        /* \"#utility.yul\":3174:3186   */\n      add\n        /* \"#utility.yul\":3167:3186   */\n      swap1\n      pop\n        /* \"#utility.yul\":2826:3192   */\n      swap2\n      swap1\n      pop\n      jump\t// out\n        /* \"#utility.yul\":3198:3564   */\n    tag_237:\n        /* \"#utility.yul\":3340:3343   */\n      0x00\n        /* \"#utility.yul\":3361:3428   */\n      tag_239\n        /* \"#utility.yul\":3425:3427   */\n      0x24\n        /* \"#utility.yul\":3420:3423   */\n      dup4\n        /* \"#utility.yul\":3361:3428   */\n      tag_227\n      jump\t// in\n    tag_239:\n        /* \"#utility.yul\":3354:3428   */\n      swap2\n      pop\n        /* \"#utility.yul\":3437:3530   */\n      tag_240\n        /* \"#utility.yul\":3526:3529   */\n      dup3\n        /* \"#utility.yul\":3437:3530   */\n      tag_241\n      jump\t// in\n    tag_240:\n        /* \"#utility.yul\":3555:3557   */\n      0x40\n        /* \"#utility.yul\":3550:3553   */\n      dup3\n        /* \"#utility.yul\":3546:3558   */\n      add\n        /* \"#utility.yul\":3539:3558   */\n      swap1\n      pop\n        /* \"#utility.yul\":3198:3564   */\n      swap2\n      swap1\n      pop\n      jump\t// out\n        /* \"#utility.yul\":3570:3936   */\n    tag_242:\n        /* \"#utility.yul\":3712:3715   */\n      0x00\n        /* \"#utility.yul\":3733:3800   */\n      tag_244\n        /* \"#utility.yul\":3797:3799   */\n      0x26\n        /* \"#utility.yul\":3792:3795   */\n      dup4\n        /* \"#utility.yul\":3733:3800   */\n      tag_227\n      jump\t// in\n    tag_244:\n        /* \"#utility.yul\":3726:3800   */\n      swap2\n      pop\n        /* \"#utility.yul\":3809:3902   */\n      tag_245\n        /* \"#utility.yul\":3898:3901   */\n      dup3\n        /* \"#utility.yul\":3809:3902   */\n      tag_246\n      jump\t// in\n    tag_245:\n        /* \"#utility.yul\":3927:3929   */\n      0x40\n        /* \"#utility.yul\":3922:3925   */\n      dup3\n        /* \"#utility.yul\":3918:3930   */\n      add\n        /* \"#utility.yul\":3911:3930   */\n      swap1\n      pop\n        /* \"#utility.yul\":3570:3936   */\n      swap2\n      swap1\n      pop\n      jump\t// out\n        /* \"#utility.yul\":3942:4308   */\n    tag_247:\n        /* \"#utility.yul\":4084:4087   */\n      0x00\n        /* \"#utility.yul\":4105:4172   */\n      tag_249\n        /* \"#utility.yul\":4169:4171   */\n      0x1b\n        /* \"#utility.yul\":4164:4167   */\n      dup4\n        /* \"#utility.yul\":4105:4172   */\n      tag_227\n      jump\t// in\n    tag_249:\n        /* \"#utility.yul\":4098:4172   */\n      swap2\n      pop\n        /* \"#utility.yul\":4181:4274   */\n      tag_250\n        /* \"#utility.yul\":4270:4273   */\n      dup3\n        /* \"#utility.yul\":4181:4274   */\n      tag_251\n      jump\t// in\n    tag_250:\n        /* \"#utility.yul\":4299:4301   */\n      0x20\n        /* \"#utility.yul\":4294:4297   */\n      dup3\n        /* \"#utility.yul\":4290:4302   */\n      add\n        /* \"#utility.yul\":4283:4302   */\n      swap1\n      pop\n        /* \"#utility.yul\":3942:4308   */\n      swap2\n      swap1\n      pop\n      jump\t// out\n        /* \"#utility.yul\":4314:4680   */\n    tag_252:\n        /* \"#utility.yul\":4456:4459   */\n      0x00\n        /* \"#utility.yul\":4477:4544   */\n      tag_254\n        /* \"#utility.yul\":4541:4543   */\n      0x20\n        /* \"#utility.yul\":4536:4539   */\n      dup4\n        /* \"#utility.yul\":4477:4544   */\n      tag_227\n      jump\t// in\n    tag_254:\n        /* \"#utility.yul\":4470:4544   */\n      swap2\n      pop\n        /* \"#utility.yul\":4553:4646   */\n      tag_255\n        /* \"#utility.yul\":4642:4645   */\n      dup3\n        /* \"#utility.yul\":4553:4646   */\n      tag_256\n      jump\t// in\n    tag_255:\n        /* \"#utility.yul\":4671:4673   */\n      0x20\n        /* \"#utility.yul\":4666:4669   */\n      dup3\n        /* \"#utility.yul\":4662:4674   */\n      add\n        /* \"#utility.yul\":4655:4674   */\n      swap1\n      pop\n        /* \"#utility.yul\":4314:4680   */\n      swap2\n      swap1\n      pop\n      jump\t// out\n        /* \"#utility.yul\":4686:5052   */\n    tag_257:\n        /* \"#utility.yul\":4828:4831   */\n      0x00\n        /* \"#utility.yul\":4849:4916   */\n      tag_259\n        /* \"#utility.yul\":4913:4915   */\n      0x23\n        /* \"#utility.yul\":4908:4911   */\n      dup4\n        /* \"#utility.yul\":4849:4916   */\n      tag_227\n      jump\t// in\n    tag_259:\n        /* \"#utility.yul\":4842:4916   */\n      swap2\n      pop\n        /* \"#utility.yul\":4925:5018   */\n      tag_260\n        /* \"#utility.yul\":5014:5017   */\n      dup3\n        /* \"#utility.yul\":4925:5018   */\n      tag_261\n      jump\t// in\n    tag_260:\n        /* \"#utility.yul\":5043:5045   */\n      0x40\n        /* \"#utility.yul\":5038:5041   */\n      dup3\n        /* \"#utility.yul\":5034:5046   */\n      add\n        /* \"#utility.yul\":5027:5046   */\n      swap1\n      pop\n        /* \"#utility.yul\":4686:5052   */\n      swap2\n      swap1\n      pop\n      jump\t// out\n        /* \"#utility.yul\":5058:5424   */\n    tag_262:\n        /* \"#utility.yul\":5200:5203   */\n      0x00\n        /* \"#utility.yul\":5221:5288   */\n      tag_264\n        /* \"#utility.yul\":5285:5287   */\n      0x22\n        /* \"#utility.yul\":5280:5283   */\n      dup4\n        /* \"#utility.yul\":5221:5288   */\n      tag_227\n      jump\t// in\n    tag_264:\n        /* \"#utility.yul\":5214:5288   */\n      swap2\n      pop\n        /* \"#utility.yul\":5297:5390   */\n      tag_265\n        /* \"#utility.yul\":5386:5389   */\n      dup3\n        /* \"#utility.yul\":5297:5390   */\n      tag_266\n      jump\t// in\n    tag_265:\n        /* \"#utility.yul\":5415:5417   */\n      0x40\n        /* \"#utility.yul\":5410:5413   */\n      dup3\n        /* \"#utility.yul\":5406:5418   */\n      add\n        /* \"#utility.yul\":5399:5418   */\n      swap1\n      pop\n        /* \"#utility.yul\":5058:5424   */\n      swap2\n      swap1\n      pop\n      jump\t// out\n        /* \"#utility.yul\":5430:5548   */\n    tag_267:\n        /* \"#utility.yul\":5517:5541   */\n      tag_269\n        /* \"#utility.yul\":5535:5540   */\n      dup2\n        /* \"#utility.yul\":5517:5541   */\n      tag_270\n      jump\t// in\n    tag_269:\n        /* \"#utility.yul\":5512:5515   */\n      dup3\n        /* \"#utility.yul\":5505:5542   */\n      mstore\n        /* \"#utility.yul\":5430:5548   */\n      pop\n      pop\n      jump\t// out\n        /* \"#utility.yul\":5554:5776   */\n    tag_59:\n        /* \"#utility.yul\":5647:5651   */\n      0x00\n        /* \"#utility.yul\":5685:5687   */\n      0x20\n        /* \"#utility.yul\":5674:5683   */\n      dup3\n        /* \"#utility.yul\":5670:5688   */\n      add\n        /* \"#utility.yul\":5662:5688   */\n      swap1\n      pop\n        /* \"#utility.yul\":5698:5769   */\n      tag_272\n        /* \"#utility.yul\":5766:5767   */\n      0x00\n        /* \"#utility.yul\":5755:5764   */\n      dup4\n        /* \"#utility.yul\":5751:5768   */\n      add\n        /* \"#utility.yul\":5742:5748   */\n      dup5\n        /* \"#utility.yul\":5698:5769   */\n      tag_214\n      jump\t// in\n    tag_272:\n        /* \"#utility.yul\":5554:5776   */\n      swap3\n      swap2\n      pop\n      pop\n      jump\t// out\n        /* \"#utility.yul\":5782:5992   */\n    tag_26:\n        /* \"#utility.yul\":5869:5873   */\n      0x00\n        /* \"#utility.yul\":5907:5909   */\n      0x20\n        /* \"#utility.yul\":5896:5905   */\n      dup3\n        /* \"#utility.yul\":5892:5910   */\n      add\n        /* \"#utility.yul\":5884:5910   */\n      swap1\n      pop\n        /* \"#utility.yul\":5920:5985   */\n      tag_274\n        /* \"#utility.yul\":5982:5983   */\n      0x00\n        /* \"#utility.yul\":5971:5980   */\n      dup4\n        /* \"#utility.yul\":5967:5984   */\n      add\n        /* \"#utility.yul\":5958:5964   */\n      dup5\n        /* \"#utility.yul\":5920:5985   */\n      tag_218\n      jump\t// in\n    tag_274:\n        /* \"#utility.yul\":5782:5992   */\n      swap3\n      swap2\n      pop\n      pop\n      jump\t// out\n        /* \"#utility.yul\":5998:6311   */\n    tag_171:\n        /* \"#utility.yul\":6111:6115   */\n      0x00\n        /* \"#utility.yul\":6149:6151   */\n      0x20\n        /* \"#utility.yul\":6138:6147   */\n      dup3\n        /* \"#utility.yul\":6134:6152   */\n      add\n        /* \"#utility.yul\":6126:6152   */\n      swap1\n      pop\n        /* \"#utility.yul\":6198:6207   */\n      dup2\n        /* \"#utility.yul\":6192:6196   */\n      dup2\n        /* \"#utility.yul\":6188:6208   */\n      sub\n        /* \"#utility.yul\":6184:6185   */\n      0x00\n        /* \"#utility.yul\":6173:6182   */\n      dup4\n        /* \"#utility.yul\":6169:6186   */\n      add\n        /* \"#utility.yul\":6162:6209   */\n      mstore\n        /* \"#utility.yul\":6226:6304   */\n      tag_276\n        /* \"#utility.yul\":6299:6303   */\n      dup2\n        /* \"#utility.yul\":6290:6296   */\n      dup5\n        /* \"#utility.yul\":6226:6304   */\n      tag_222\n      jump\t// in\n    tag_276:\n        /* \"#utility.yul\":6218:6304   */\n      swap1\n      pop\n        /* \"#utility.yul\":5998:6311   */\n      swap3\n      swap2\n      pop\n      pop\n      jump\t// out\n        /* \"#utility.yul\":6317:6736   */\n    tag_161:\n        /* \"#utility.yul\":6483:6487   */\n      0x00\n        /* \"#utility.yul\":6521:6523   */\n      0x20\n        /* \"#utility.yul\":6510:6519   */\n      dup3\n        /* \"#utility.yul\":6506:6524   */\n      add\n        /* \"#utility.yul\":6498:6524   */\n      swap1\n      pop\n        /* \"#utility.yul\":6570:6579   */\n      dup2\n        /* \"#utility.yul\":6564:6568   */\n      dup2\n        /* \"#utility.yul\":6560:6580   */\n      sub\n        /* \"#utility.yul\":6556:6557   */\n      0x00\n        /* \"#utility.yul\":6545:6554   */\n      dup4\n        /* \"#utility.yul\":6541:6558   */\n      add\n        /* \"#utility.yul\":6534:6581   */\n      mstore\n        /* \"#utility.yul\":6598:6729   */\n      tag_278\n        /* \"#utility.yul\":6724:6728   */\n      dup2\n        /* \"#utility.yul\":6598:6729   */\n      tag_232\n      jump\t// in\n    tag_278:\n        /* \"#utility.yul\":6590:6729   */\n      swap1\n      pop\n        /* \"#utility.yul\":6317:6736   */\n      swap2\n      swap1\n      pop\n      jump\t// out\n        /* \"#utility.yul\":6742:7161   */\n    tag_153:\n        /* \"#utility.yul\":6908:6912   */\n      0x00\n        /* \"#utility.yul\":6946:6948   */\n      0x20\n        /* \"#utility.yul\":6935:6944   */\n      dup3\n        /* \"#utility.yul\":6931:6949   */\n      add\n        /* \"#utility.yul\":6923:6949   */\n      swap1\n      pop\n        /* \"#utility.yul\":6995:7004   */\n      dup2\n        /* \"#utility.yul\":6989:6993   */\n      dup2\n        /* \"#utility.yul\":6985:7005   */\n      sub\n        /* \"#utility.yul\":6981:6982   */\n      0x00\n        /* \"#utility.yul\":6970:6979   */\n      dup4\n        /* \"#utility.yul\":6966:6983   */\n      add\n        /* \"#utility.yul\":6959:7006   */\n      mstore\n        /* \"#utility.yul\":7023:7154   */\n      tag_280\n        /* \"#utility.yul\":7149:7153   */\n      dup2\n        /* \"#utility.yul\":7023:7154   */\n      tag_237\n      jump\t// in\n    tag_280:\n        /* \"#utility.yul\":7015:7154   */\n      swap1\n      pop\n        /* \"#utility.yul\":6742:7161   */\n      swap2\n      swap1\n      pop\n      jump\t// out\n        /* \"#utility.yul\":7167:7586   */\n    tag_183:\n        /* \"#utility.yul\":7333:7337   */\n      0x00\n        /* \"#utility.yul\":7371:7373   */\n      0x20\n        /* \"#utility.yul\":7360:7369   */\n      dup3\n        /* \"#utility.yul\":7356:7374   */\n      add\n        /* \"#utility.yul\":7348:7374   */\n      swap1\n      pop\n        /* \"#utility.yul\":7420:7429   */\n      dup2\n        /* \"#utility.yul\":7414:7418   */\n      dup2\n        /* \"#utility.yul\":7410:7430   */\n      sub\n        /* \"#utility.yul\":7406:7407   */\n      0x00\n        /* \"#utility.yul\":7395:7404   */\n      dup4\n        /* \"#utility.yul\":7391:7408   */\n      add\n        /* \"#utility.yul\":7384:7431   */\n      mstore\n        /* \"#utility.yul\":7448:7579   */\n      tag_282\n        /* \"#utility.yul\":7574:7578   */\n      dup2\n        /* \"#utility.yul\":7448:7579   */\n      tag_242\n      jump\t// in\n    tag_282:\n        /* \"#utility.yul\":7440:7579   */\n      swap1\n      pop\n        /* \"#utility.yul\":7167:7586   */\n      swap2\n      swap1\n      pop\n      jump\t// out\n        /* \"#utility.yul\":7592:8011   */\n    tag_179:\n        /* \"#utility.yul\":7758:7762   */\n      0x00\n        /* \"#utility.yul\":7796:7798   */\n      0x20\n        /* \"#utility.yul\":7785:7794   */\n      dup3\n        /* \"#utility.yul\":7781:7799   */\n      add\n        /* \"#utility.yul\":7773:7799   */\n      swap1\n      pop\n        /* \"#utility.yul\":7845:7854   */\n      dup2\n        /* \"#utility.yul\":7839:7843   */\n      dup2\n        /* \"#utility.yul\":7835:7855   */\n      sub\n        /* \"#utility.yul\":7831:7832   */\n      0x00\n        /* \"#utility.yul\":7820:7829   */\n      dup4\n        /* \"#utility.yul\":7816:7833   */\n      add\n        /* \"#utility.yul\":7809:7856   */\n      mstore\n        /* \"#utility.yul\":7873:8004   */\n      tag_284\n        /* \"#utility.yul\":7999:8003   */\n      dup2\n        /* \"#utility.yul\":7873:8004   */\n      tag_247\n      jump\t// in\n    tag_284:\n        /* \"#utility.yul\":7865:8004   */\n      swap1\n      pop\n        /* \"#utility.yul\":7592:8011   */\n      swap2\n      swap1\n      pop\n      jump\t// out\n        /* \"#utility.yul\":8017:8436   */\n    tag_109:\n        /* \"#utility.yul\":8183:8187   */\n      0x00\n        /* \"#utility.yul\":8221:8223   */\n      0x20\n        /* \"#utility.yul\":8210:8219   */\n      dup3\n        /* \"#utility.yul\":8206:8224   */\n      add\n        /* \"#utility.yul\":8198:8224   */\n      swap1\n      pop\n        /* \"#utility.yul\":8270:8279   */\n      dup2\n        /* \"#utility.yul\":8264:8268   */\n      dup2\n        /* \"#utility.yul\":8260:8280   */\n      sub\n        /* \"#utility.yul\":8256:8257   */\n      0x00\n        /* \"#utility.yul\":8245:8254   */\n      dup4\n        /* \"#utility.yul\":8241:8258   */\n      add\n        /* \"#utility.yul\":8234:8281   */\n      mstore\n        /* \"#utility.yul\":8298:8429   */\n      tag_286\n        /* \"#utility.yul\":8424:8428   */\n      dup2\n        /* \"#utility.yul\":8298:8429   */\n      tag_252\n      jump\t// in\n    tag_286:\n        /* \"#utility.yul\":8290:8429   */\n      swap1\n      pop\n        /* \"#utility.yul\":8017:8436   */\n      swap2\n      swap1\n      pop\n      jump\t// out\n        /* \"#utility.yul\":8442:8861   */\n    tag_164:\n        /* \"#utility.yul\":8608:8612   */\n      0x00\n        /* \"#utility.yul\":8646:8648   */\n      0x20\n        /* \"#utility.yul\":8635:8644   */\n      dup3\n        /* \"#utility.yul\":8631:8649   */\n      add\n        /* \"#utility.yul\":8623:8649   */\n      swap1\n      pop\n        /* \"#utility.yul\":8695:8704   */\n      dup2\n        /* \"#utility.yul\":8689:8693   */\n      dup2\n        /* \"#utility.yul\":8685:8705   */\n      sub\n        /* \"#utility.yul\":8681:8682   */\n      0x00\n        /* \"#utility.yul\":8670:8679   */\n      dup4\n        /* \"#utility.yul\":8666:8683   */\n      add\n        /* \"#utility.yul\":8659:8706   */\n      mstore\n        /* \"#utility.yul\":8723:8854   */\n      tag_288\n        /* \"#utility.yul\":8849:8853   */\n      dup2\n        /* \"#utility.yul\":8723:8854   */\n      tag_257\n      jump\t// in\n    tag_288:\n        /* \"#utility.yul\":8715:8854   */\n      swap1\n      pop\n        /* \"#utility.yul\":8442:8861   */\n      swap2\n      swap1\n      pop\n      jump\t// out\n        /* \"#utility.yul\":8867:9286   */\n    tag_156:\n        /* \"#utility.yul\":9033:9037   */\n      0x00\n        /* \"#utility.yul\":9071:9073   */\n      0x20\n        /* \"#utility.yul\":9060:9069   */\n      dup3\n        /* \"#utility.yul\":9056:9074   */\n      add\n        /* \"#utility.yul\":9048:9074   */\n      swap1\n      pop\n        /* \"#utility.yul\":9120:9129   */\n      dup2\n        /* \"#utility.yul\":9114:9118   */\n      dup2\n        /* \"#utility.yul\":9110:9130   */\n      sub\n        /* \"#utility.yul\":9106:9107   */\n      0x00\n        /* \"#utility.yul\":9095:9104   */\n      dup4\n        /* \"#utility.yul\":9091:9108   */\n      add\n        /* \"#utility.yul\":9084:9131   */\n      mstore\n        /* \"#utility.yul\":9148:9279   */\n      tag_290\n        /* \"#utility.yul\":9274:9278   */\n      dup2\n        /* \"#utility.yul\":9148:9279   */\n      tag_262\n      jump\t// in\n    tag_290:\n        /* \"#utility.yul\":9140:9279   */\n      swap1\n      pop\n        /* \"#utility.yul\":8867:9286   */\n      swap2\n      swap1\n      pop\n      jump\t// out\n        /* \"#utility.yul\":9292:9514   */\n    tag_30:\n        /* \"#utility.yul\":9385:9389   */\n      0x00\n        /* \"#utility.yul\":9423:9425   */\n      0x20\n        /* \"#utility.yul\":9412:9421   */\n      dup3\n        /* \"#utility.yul\":9408:9426   */\n      add\n        /* \"#utility.yul\":9400:9426   */\n      swap1\n      pop\n        /* \"#utility.yul\":9436:9507   */\n      tag_292\n        /* \"#utility.yul\":9504:9505   */\n      0x00\n        /* \"#utility.yul\":9493:9502   */\n      dup4\n        /* \"#utility.yul\":9489:9506   */\n      add\n        /* \"#utility.yul\":9480:9486   */\n      dup5\n        /* \"#utility.yul\":9436:9507   */\n      tag_267\n      jump\t// in\n    tag_292:\n        /* \"#utility.yul\":9292:9514   */\n      swap3\n      swap2\n      pop\n      pop\n      jump\t// out\n        /* \"#utility.yul\":9601:9700   */\n    tag_225:\n        /* \"#utility.yul\":9653:9659   */\n      0x00\n        /* \"#utility.yul\":9687:9692   */\n      dup2\n        /* \"#utility.yul\":9681:9693   */\n      mload\n        /* \"#utility.yul\":9671:9693   */\n      swap1\n      pop\n        /* \"#utility.yul\":9601:9700   */\n      swap2\n      swap1\n      pop\n      jump\t// out\n        /* \"#utility.yul\":9706:9875   */\n    tag_227:\n        /* \"#utility.yul\":9790:9801   */\n      0x00\n        /* \"#utility.yul\":9824:9830   */\n      dup3\n        /* \"#utility.yul\":9819:9822   */\n      dup3\n        /* \"#utility.yul\":9812:9831   */\n      mstore\n        /* \"#utility.yul\":9864:9868   */\n      0x20\n        /* \"#utility.yul\":9859:9862   */\n      dup3\n        /* \"#utility.yul\":9855:9869   */\n      add\n        /* \"#utility.yul\":9840:9869   */\n      swap1\n      pop\n        /* \"#utility.yul\":9706:9875   */\n      swap3\n      swap2\n      pop\n      pop\n      jump\t// out\n        /* \"#utility.yul\":9881:10186   */\n    tag_176:\n        /* \"#utility.yul\":9921:9924   */\n      0x00\n        /* \"#utility.yul\":9940:9960   */\n      tag_298\n        /* \"#utility.yul\":9958:9959   */\n      dup3\n        /* \"#utility.yul\":9940:9960   */\n      tag_270\n      jump\t// in\n    tag_298:\n        /* \"#utility.yul\":9935:9960   */\n      swap2\n      pop\n        /* \"#utility.yul\":9974:9994   */\n      tag_299\n        /* \"#utility.yul\":9992:9993   */\n      dup4\n        /* \"#utility.yul\":9974:9994   */\n      tag_270\n      jump\t// in\n    tag_299:\n        /* \"#utility.yul\":9969:9994   */\n      swap3\n      pop\n        /* \"#utility.yul\":10128:10129   */\n      dup3\n        /* \"#utility.yul\":10060:10126   */\n      0xffffffffffffffffffffffffffffffffffffffffffffffffffffffffffffffff\n        /* \"#utility.yul\":10056:10130   */\n      sub\n        /* \"#utility.yul\":10053:10054   */\n      dup3\n        /* \"#utility.yul\":10050:10131   */\n      gt\n        /* \"#utility.yul\":10047:10154   */\n      iszero\n      tag_300\n      jumpi\n        /* \"#utility.yul\":10134:10152   */\n      tag_301\n      tag_302\n      jump\t// in\n    tag_301:\n        /* \"#utility.yul\":10047:10154   */\n    tag_300:\n        /* \"#utility.yul\":10178:10179   */\n      dup3\n        /* \"#utility.yul\":10175:10176   */\n      dup3\n        /* \"#utility.yul\":10171:10180   */\n      add\n        /* \"#utility.yul\":10164:10180   */\n      swap1\n      pop\n        /* \"#utility.yul\":9881:10186   */\n      swap3\n      swap2\n      pop\n      pop\n      jump\t// out\n        /* \"#utility.yul\":10192:10383   */\n    tag_173:\n        /* \"#utility.yul\":10232:10236   */\n      0x00\n        /* \"#utility.yul\":10252:10272   */\n      tag_304\n        /* \"#utility.yul\":10270:10271   */\n      dup3\n        /* \"#utility.yul\":10252:10272   */\n      tag_270\n      jump\t// in\n    tag_304:\n        /* \"#utility.yul\":10247:10272   */\n      swap2\n      pop\n        /* \"#utility.yul\":10286:10306   */\n      tag_305\n        /* \"#utility.yul\":10304:10305   */\n      dup4\n        /* \"#utility.yul\":10286:10306   */\n      tag_270\n      jump\t// in\n    tag_305:\n        /* \"#utility.yul\":10281:10306   */\n      swap3\n      pop\n        /* \"#utility.yul\":10325:10326   */\n      dup3\n        /* \"#utility.yul\":10322:10323   */\n      dup3\n        /* \"#utility.yul\":10319:10327   */\n      lt\n        /* \"#utility.yul\":10316:10350   */\n      iszero\n      tag_306\n      jumpi\n        /* \"#utility.yul\":10330:10348   */\n      tag_307\n      tag_302\n      jump\t// in\n    tag_307:\n        /* \"#utility.yul\":10316:10350   */\n    tag_306:\n        /* \"#utility.yul\":10375:10376   */\n      dup3\n        /* \"#utility.yul\":10372:10373   */\n      dup3\n        /* \"#utility.yul\":10368:10377   */\n      sub\n        /* \"#utility.yul\":10360:10377   */\n      swap1\n      pop\n        /* \"#utility.yul\":10192:10383   */\n      swap3\n      swap2\n      pop\n      pop\n      jump\t// out\n        /* \"#utility.yul\":10389:10485   */\n    tag_217:\n        /* \"#utility.yul\":10426:10433   */\n      0x00\n        /* \"#utility.yul\":10455:10479   */\n      tag_309\n        /* \"#utility.yul\":10473:10478   */\n      dup3\n        /* \"#utility.yul\":10455:10479   */\n      tag_310\n      jump\t// in\n    tag_309:\n        /* \"#utility.yul\":10444:10479   */\n      swap1\n      pop\n        /* \"#utility.yul\":10389:10485   */\n      swap2\n      swap1\n      pop\n      jump\t// out\n        /* \"#utility.yul\":10491:10581   */\n    tag_221:\n        /* \"#utility.yul\":10525:10532   */\n      0x00\n        /* \"#utility.yul\":10568:10573   */\n      dup2\n        /* \"#utility.yul\":10561:10574   */\n      iszero\n        /* \"#utility.yul\":10554:10575   */\n      iszero\n        /* \"#utility.yul\":10543:10575   */\n      swap1\n      pop\n        /* \"#utility.yul\":10491:10581   */\n      swap2\n      swap1\n      pop\n      jump\t// out\n        /* \"#utility.yul\":10587:10713   */\n    tag_310:\n        /* \"#utility.yul\":10624:10631   */\n      0x00\n        /* \"#utility.yul\":10664:10706   */\n      0xffffffffffffffffffffffffffffffffffffffff\n        /* \"#utility.yul\":10657:10662   */\n      dup3\n        /* \"#utility.yul\":10653:10707   */\n      and\n        /* \"#utility.yul\":10642:10707   */\n      swap1\n      pop\n        /* \"#utility.yul\":10587:10713   */\n      swap2\n      swap1\n      pop\n      jump\t// out\n        /* \"#utility.yul\":10719:10796   */\n    tag_270:\n        /* \"#utility.yul\":10756:10763   */\n      0x00\n        /* \"#utility.yul\":10785:10790   */\n      dup2\n        /* \"#utility.yul\":10774:10790   */\n      swap1\n      pop\n        /* \"#utility.yul\":10719:10796   */\n      swap2\n      swap1\n      pop\n      jump\t// out\n        /* \"#utility.yul\":10802:11109   */\n    tag_229:\n        /* \"#utility.yul\":10870:10871   */\n      0x00\n        /* \"#utility.yul\":10880:10993   */\n    tag_315:\n        /* \"#utility.yul\":10894:10900   */\n      dup4\n        /* \"#utility.yul\":10891:10892   */\n      dup2\n        /* \"#utility.yul\":10888:10901   */\n      lt\n        /* \"#utility.yul\":10880:10993   */\n      iszero\n      tag_317\n      jumpi\n        /* \"#utility.yul\":10979:10980   */\n      dup1\n        /* \"#utility.yul\":10974:10977   */\n      dup3\n        /* \"#utility.yul\":10970:10981   */\n      add\n        /* \"#utility.yul\":10964:10982   */\n      mload\n        /* \"#utility.yul\":10960:10961   */\n      dup2\n        /* \"#utility.yul\":10955:10958   */\n      dup5\n        /* \"#utility.yul\":10951:10962   */\n      add\n        /* \"#utility.yul\":10944:10983   */\n      mstore\n        /* \"#utility.yul\":10916:10918   */\n      0x20\n        /* \"#utility.yul\":10913:10914   */\n      dup2\n        /* \"#utility.yul\":10909:10919   */\n      add\n        /* \"#utility.yul\":10904:10919   */\n      swap1\n      pop\n        /* \"#utility.yul\":10880:10993   */\n      jump(tag_315)\n    tag_317:\n        /* \"#utility.yul\":11011:11017   */\n      dup4\n        /* \"#utility.yul\":11008:11009   */\n      dup2\n        /* \"#utility.yul\":11005:11018   */\n      gt\n        /* \"#utility.yul\":11002:11103   */\n      iszero\n      tag_318\n      jumpi\n        /* \"#utility.yul\":11091:11092   */\n      0x00\n        /* \"#utility.yul\":11082:11088   */\n      dup5\n        /* \"#utility.yul\":11077:11080   */\n      dup5\n        /* \"#utility.yul\":11073:11089   */\n      add\n        /* \"#utility.yul\":11066:11093   */\n      mstore\n        /* \"#utility.yul\":11002:11103   */\n    tag_318:\n        /* \"#utility.yul\":10851:11109   */\n      pop\n        /* \"#utility.yul\":10802:11109   */\n      pop\n      pop\n      pop\n      jump\t// out\n        /* \"#utility.yul\":11115:11295   */\n    tag_302:\n        /* \"#utility.yul\":11163:11240   */\n      0x4e487b7100000000000000000000000000000000000000000000000000000000\n        /* \"#utility.yul\":11160:11161   */\n      0x00\n        /* \"#utility.yul\":11153:11241   */\n      mstore\n        /* \"#utility.yul\":11260:11264   */\n      0x11\n        /* \"#utility.yul\":11257:11258   */\n      0x04\n        /* \"#utility.yul\":11250:11265   */\n      mstore\n        /* \"#utility.yul\":11284:11288   */\n      0x24\n        /* \"#utility.yul\":11281:11282   */\n      0x00\n        /* \"#utility.yul\":11274:11289   */\n      revert\n        /* \"#utility.yul\":11424:11541   */\n    tag_196:\n        /* \"#utility.yul\":11533:11534   */\n      0x00\n        /* \"#utility.yul\":11530:11531   */\n      dup1\n        /* \"#utility.yul\":11523:11535   */\n      revert\n        /* \"#utility.yul\":11547:11649   */\n    tag_231:\n        /* \"#utility.yul\":11588:11594   */\n      0x00\n        /* \"#utility.yul\":11639:11641   */\n      0x1f\n        /* \"#utility.yul\":11635:11642   */\n      not\n        /* \"#utility.yul\":11630:11632   */\n      0x1f\n        /* \"#utility.yul\":11623:11628   */\n      dup4\n        /* \"#utility.yul\":11619:11633   */\n      add\n        /* \"#utility.yul\":11615:11643   */\n      and\n        /* \"#utility.yul\":11605:11643   */\n      swap1\n      pop\n        /* \"#utility.yul\":11547:11649   */\n      swap2\n      swap1\n      pop\n      jump\t// out\n        /* \"#utility.yul\":11655:11879   */\n    tag_236:\n        /* \"#utility.yul\":11795:11829   */\n      0x42455032303a207472616e736665722066726f6d20746865207a65726f206164\n        /* \"#utility.yul\":11791:11792   */\n      0x00\n        /* \"#utility.yul\":11783:11789   */\n      dup3\n        /* \"#utility.yul\":11779:11793   */\n      add\n        /* \"#utility.yul\":11772:11830   */\n      mstore\n        /* \"#utility.yul\":11864:11871   */\n      0x6472657373000000000000000000000000000000000000000000000000000000\n        /* \"#utility.yul\":11859:11861   */\n      0x20\n        /* \"#utility.yul\":11851:11857   */\n      dup3\n        /* \"#utility.yul\":11847:11862   */\n      add\n        /* \"#utility.yul\":11840:11872   */\n      mstore\n        /* \"#utility.yul\":11655:11879   */\n      pop\n      jump\t// out\n        /* \"#utility.yul\":11885:12108   */\n    tag_241:\n        /* \"#utility.yul\":12025:12059   */\n      0x42455032303a20617070726f76652066726f6d20746865207a65726f20616464\n        /* \"#utility.yul\":12021:12022   */\n      0x00\n        /* \"#utility.yul\":12013:12019   */\n      dup3\n        /* \"#utility.yul\":12009:12023   */\n      add\n        /* \"#utility.yul\":12002:12060   */\n      mstore\n        /* \"#utility.yul\":12094:12100   */\n      0x7265737300000000000000000000000000000000000000000000000000000000\n        /* \"#utility.yul\":12089:12091   */\n      0x20\n        /* \"#utility.yul\":12081:12087   */\n      dup3\n        /* \"#utility.yul\":12077:12092   */\n      add\n        /* \"#utility.yul\":12070:12101   */\n      mstore\n        /* \"#utility.yul\":11885:12108   */\n      pop\n      jump\t// out\n        /* \"#utility.yul\":12114:12339   */\n    tag_246:\n        /* \"#utility.yul\":12254:12288   */\n      0x4f776e61626c653a206e6577206f776e657220697320746865207a65726f2061\n        /* \"#utility.yul\":12250:12251   */\n      0x00\n        /* \"#utility.yul\":12242:12248   */\n      dup3\n        /* \"#utility.yul\":12238:12252   */\n      add\n        /* \"#utility.yul\":12231:12289   */\n      mstore\n        /* \"#utility.yul\":12323:12331   */\n      0x6464726573730000000000000000000000000000000000000000000000000000\n        /* \"#utility.yul\":12318:12320   */\n      0x20\n        /* \"#utility.yul\":12310:12316   */\n      dup3\n        /* \"#utility.yul\":12306:12321   */\n      add\n        /* \"#utility.yul\":12299:12332   */\n      mstore\n        /* \"#utility.yul\":12114:12339   */\n      pop\n      jump\t// out\n        /* \"#utility.yul\":12345:12522   */\n    tag_251:\n        /* \"#utility.yul\":12485:12514   */\n      0x536166654d6174683a206164646974696f6e206f766572666c6f770000000000\n        /* \"#utility.yul\":12481:12482   */\n      0x00\n        /* \"#utility.yul\":12473:12479   */\n      dup3\n        /* \"#utility.yul\":12469:12483   */\n      add\n        /* \"#utility.yul\":12462:12515   */\n      mstore\n        /* \"#utility.yul\":12345:12522   */\n      pop\n      jump\t// out\n        /* \"#utility.yul\":12528:12710   */\n    tag_256:\n        /* \"#utility.yul\":12668:12702   */\n      0x4f776e61626c653a2063616c6c6572206973206e6f7420746865206f776e6572\n        /* \"#utility.yul\":12664:12665   */\n      0x00\n        /* \"#utility.yul\":12656:12662   */\n      dup3\n        /* \"#utility.yul\":12652:12666   */\n      add\n        /* \"#utility.yul\":12645:12703   */\n      mstore\n        /* \"#utility.yul\":12528:12710   */\n      pop\n      jump\t// out\n        /* \"#utility.yul\":12716:12938   */\n    tag_261:\n        /* \"#utility.yul\":12856:12890   */\n      0x42455032303a207472616e7366657220746f20746865207a65726f2061646472\n        /* \"#utility.yul\":12852:12853   */\n      0x00\n        /* \"#utility.yul\":12844:12850   */\n      dup3\n        /* \"#utility.yul\":12840:12854   */\n      add\n        /* \"#utility.yul\":12833:12891   */\n      mstore\n        /* \"#utility.yul\":12925:12930   */\n      0x6573730000000000000000000000000000000000000000000000000000000000\n        /* \"#utility.yul\":12920:12922   */\n      0x20\n        /* \"#utility.yul\":12912:12918   */\n      dup3\n        /* \"#utility.yul\":12908:12923   */\n      add\n        /* \"#utility.yul\":12901:12931   */\n      mstore\n        /* \"#utility.yul\":12716:12938   */\n      pop\n      jump\t// out\n        /* \"#utility.yul\":12944:13165   */\n    tag_266:\n        /* \"#utility.yul\":13084:13118   */\n      0x42455032303a20617070726f766520746f20746865207a65726f206164647265\n        /* \"#utility.yul\":13080:13081   */\n      0x00\n        /* \"#utility.yul\":13072:13078   */\n      dup3\n        /* \"#utility.yul\":13068:13082   */\n      add\n        /* \"#utility.yul\":13061:13119   */\n      mstore\n        /* \"#utility.yul\":13153:13157   */\n      0x7373000000000000000000000000000000000000000000000000000000000000\n        /* \"#utility.yul\":13148:13150   */\n      0x20\n        /* \"#utility.yul\":13140:13146   */\n      dup3\n        /* \"#utility.yul\":13136:13151   */\n      add\n        /* \"#utility.yul\":13129:13158   */\n      mstore\n        /* \"#utility.yul\":12944:13165   */\n      pop\n      jump\t// out\n        /* \"#utility.yul\":13171:13293   */\n    tag_188:\n        /* \"#utility.yul\":13244:13268   */\n      tag_332\n        /* \"#utility.yul\":13262:13267   */\n      dup2\n        /* \"#utility.yul\":13244:13268   */\n      tag_217\n      jump\t// in\n    tag_332:\n        /* \"#utility.yul\":13237:13242   */\n      dup2\n        /* \"#utility.yul\":13234:13269   */\n      eq\n        /* \"#utility.yul\":13224:13287   */\n      tag_333\n      jumpi\n        /* \"#utility.yul\":13283:13284   */\n      0x00\n        /* \"#utility.yul\":13280:13281   */\n      dup1\n        /* \"#utility.yul\":13273:13285   */\n      revert\n        /* \"#utility.yul\":13224:13287   */\n    tag_333:\n        /* \"#utility.yul\":13171:13293   */\n      pop\n      jump\t// out\n        /* \"#utility.yul\":13299:13421   */\n    tag_192:\n        /* \"#utility.yul\":13372:13396   */\n      tag_335\n        /* \"#utility.yul\":13390:13395   */\n      dup2\n        /* \"#utility.yul\":13372:13396   */\n      tag_270\n      jump\t// in\n    tag_335:\n        /* \"#utility.yul\":13365:13370   */\n      dup2\n        /* \"#utility.yul\":13362:13397   */\n      eq\n        /* \"#utility.yul\":13352:13415   */\n      tag_336\n      jumpi\n        /* \"#utility.yul\":13411:13412   */\n      0x00\n        /* \"#utility.yul\":13408:13409   */\n      dup1\n        /* \"#utility.yul\":13401:13413   */\n      revert\n        /* \"#utility.yul\":13352:13415   */\n    tag_336:\n        /* \"#utility.yul\":13299:13421   */\n      pop\n      jump\t// out\n    stop\n    data_4f3506f4ba71c79c3cbd442a3afeb30e9b27af2d84e116a4385b34e267d2287e 42455032303a207472616e7366657220616d6f756e74206578636565647320616c6c6f77616e6365\n    data_a91efd7a65ef5b4ae4d6568d674798b78a5a89184dd296c100513251c22d3e73 42455032303a207472616e7366657220616d6f756e7420657863656564732062616c616e6365\n    data_b7060b3538dcd3ddc8a941c91636a8115a1aa46914747fd9809d543bbb46cd22 42455032303a2064656372656173656420616c6c6f77616e63652062656c6f77207a65726f\n\n    auxdata: 0xa26469706673582212204b8ab0b6ce39beced980345ba315cd42acf040ea06961f2c5894aad11baed36664736f6c63430008070033\n}\n",
				"bytecode": {
					"linkReferences": {},
					"object": "608060405260008060146101000a81548160ff02191690831515021790555034801561002a57600080fd5b50600061003b6100de60201b60201c565b9050806000806101000a81548173ffffffffffffffffffffffffffffffffffffffff021916908373ffffffffffffffffffffffffffffffffffffffff1602179055508073ffffffffffffffffffffffffffffffffffffffff16600073ffffffffffffffffffffffffffffffffffffffff167f8be0079c531659141344cd1fd0a4f28419497f9722a3daafe3b4186f6b6457e060405160405180910390a3506100e6565b600033905090565b6118a4806100f56000396000f3fe608060405234801561001057600080fd5b50600436106100f55760003560e01c8063715018a611610097578063a457c2d711610066578063a457c2d714610278578063a9059cbb146102a8578063dd62ed3e146102d8578063f2fde38b14610308576100f5565b8063715018a6146102145780638456cb591461021e5780638da5cb5b1461023c5780638f32d59b1461025a576100f5565b806339509351116100d357806339509351146101785780633f4ba83a146101a85780635c975abb146101c657806370a08231146101e4576100f5565b8063095ea7b3146100fa57806318160ddd1461012a57806323b872dd14610148575b600080fd5b610114600480360381019061010f919061119c565b610324565b6040516101219190611352565b60405180910390f35b61013261035b565b60405161013f919061146f565b60405180910390f35b610162600480360381019061015d9190611149565b610365565b60405161016f9190611352565b60405180910390f35b610192600480360381019061018d919061119c565b610457565b60405161019f9190611352565b60405180910390f35b6101b0610523565b6040516101bd9190611352565b60405180910390f35b6101ce6105d2565b6040516101db9190611352565b60405180910390f35b6101fe60048036038101906101f991906110dc565b6105e5565b60405161020b919061146f565b60405180910390f35b61021c61062e565b005b610226610733565b6040516102339190611352565b60405180910390f35b6102446107e4565b6040516102519190611337565b60405180910390f35b61026261080d565b60405161026f9190611352565b60405180910390f35b610292600480360381019061028d919061119c565b61086b565b60405161029f9190611352565b60405180910390f35b6102c260048036038101906102bd919061119c565b610951565b6040516102cf9190611352565b60405180910390f35b6102f260048036038101906102ed9190611109565b610988565b6040516102ff919061146f565b60405180910390f35b610322600480360381019061031d91906110dc565b610a0f565b005b60008060149054906101000a900460ff161561033f57600080fd5b61035161034a610a62565b8484610a6a565b6001905092915050565b6000600354905090565b60008060149054906101000a900460ff161561038057600080fd5b61038b848484610c35565b61044c84610397610a62565b610447856040518060600160405280602881526020016117fc60289139600260008b73ffffffffffffffffffffffffffffffffffffffff1673ffffffffffffffffffffffffffffffffffffffff16815260200190815260200160002060006103fd610a62565b73ffffffffffffffffffffffffffffffffffffffff1673ffffffffffffffffffffffffffffffffffffffff16815260200190815260200160002054610ec39092919063ffffffff16565b610a6a565b600190509392505050565b60008060149054906101000a900460ff161561047257600080fd5b61051961047d610a62565b84610514856002600061048e610a62565b73ffffffffffffffffffffffffffffffffffffffff1673ffffffffffffffffffffffffffffffffffffffff16815260200190815260200160002060008973ffffffffffffffffffffffffffffffffffffffff1673ffffffffffffffffffffffffffffffffffffffff16815260200190815260200160002054610f2790919063ffffffff16565b610a6a565b6001905092915050565b600061052d61080d565b61056c576040517f08c379a00000000000000000000000000000000000000000000000000000000081526004016105639061140f565b60405180910390fd5b600060149054906101000a900460ff1661058557600080fd5b60008060146101000a81548160ff0219169083151502179055507f7805862f689e2f13df9f062ff482ad3ad112aca9e0847911ed832e158c525b3360405160405180910390a16001905090565b600060149054906101000a900460ff1681565b6000600160008373ffffffffffffffffffffffffffffffffffffffff1673ffffffffffffffffffffffffffffffffffffffff168152602001908152602001600020549050919050565b61063661080d565b610675576040517f08c379a000000000000000000000000000000000000000000000000000000000815260040161066c9061140f565b60405180910390fd5b600073ffffffffffffffffffffffffffffffffffffffff1660008054906101000a900473ffffffffffffffffffffffffffffffffffffffff1673ffffffffffffffffffffffffffffffffffffffff167f8be0079c531659141344cd1fd0a4f28419497f9722a3daafe3b4186f6b6457e060405160405180910390a360008060006101000a81548173ffffffffffffffffffffffffffffffffffffffff021916908373ffffffffffffffffffffffffffffffffffffffff160217905550565b600061073d61080d565b61077c576040517f08c379a00000000000000000000000000000000000000000000000000000000081526004016107739061140f565b60405180910390fd5b600060149054906101000a900460ff161561079657600080fd5b6001600060146101000a81548160ff0219169083151502179055507f6985a02210a168e66602d3235cb6db0e70f92b3ba4d376a33c0f3d9434bff62560405160405180910390a16001905090565b60008060009054906101000a900473ffffffffffffffffffffffffffffffffffffffff16905090565b60008060009054906101000a900473ffffffffffffffffffffffffffffffffffffffff1673ffffffffffffffffffffffffffffffffffffffff1661084f610a62565b73ffffffffffffffffffffffffffffffffffffffff1614905090565b60008060149054906101000a900460ff161561088657600080fd5b610947610891610a62565b846109428560405180606001604052806025815260200161184a60259139600260006108bb610a62565b73ffffffffffffffffffffffffffffffffffffffff1673ffffffffffffffffffffffffffffffffffffffff16815260200190815260200160002060008a73ffffffffffffffffffffffffffffffffffffffff1673ffffffffffffffffffffffffffffffffffffffff16815260200190815260200160002054610ec39092919063ffffffff16565b610a6a565b6001905092915050565b60008060149054906101000a900460ff161561096c57600080fd5b61097e610977610a62565b8484610c35565b6001905092915050565b6000600260008473ffffffffffffffffffffffffffffffffffffffff1673ffffffffffffffffffffffffffffffffffffffff16815260200190815260200160002060008373ffffffffffffffffffffffffffffffffffffffff1673ffffffffffffffffffffffffffffffffffffffff16815260200190815260200160002054905092915050565b610a1761080d565b610a56576040517f08c379a0000000000000000000000000000000000000000000000000000000008152600401610a4d9061140f565b60405180910390fd5b610a5f81610f85565b50565b600033905090565b600073ffffffffffffffffffffffffffffffffffffffff168373ffffffffffffffffffffffffffffffffffffffff161415610ada576040517f08c379a0000000000000000000000000000000000000000000000000000000008152600401610ad1906113af565b60405180910390fd5b600073ffffffffffffffffffffffffffffffffffffffff168273ffffffffffffffffffffffffffffffffffffffff161415610b4a576040517f08c379a0000000000000000000000000000000000000000000000000000000008152600401610b419061144f565b60405180910390fd5b80600260008573ffffffffffffffffffffffffffffffffffffffff1673ffffffffffffffffffffffffffffffffffffffff16815260200190815260200160002060008473ffffffffffffffffffffffffffffffffffffffff1673ffffffffffffffffffffffffffffffffffffffff168152602001908152602001600020819055508173ffffffffffffffffffffffffffffffffffffffff168373ffffffffffffffffffffffffffffffffffffffff167f8c5be1e5ebec7d5bd14f71427d1e84f3dd0314c0f7b2291e5b200ac8c7c3b92583604051610c28919061146f565b60405180910390a3505050565b600073ffffffffffffffffffffffffffffffffffffffff168373ffffffffffffffffffffffffffffffffffffffff161415610ca5576040517f08c379a0000000000000000000000000000000000000000000000000000000008152600401610c9c9061138f565b60405180910390fd5b600073ffffffffffffffffffffffffffffffffffffffff168273ffffffffffffffffffffffffffffffffffffffff161415610d15576040517f08c379a0000000000000000000000000000000000000000000000000000000008152600401610d0c9061142f565b60405180910390fd5b610d818160405180606001604052806026815260200161182460269139600160008773ffffffffffffffffffffffffffffffffffffffff1673ffffffffffffffffffffffffffffffffffffffff16815260200190815260200160002054610ec39092919063ffffffff16565b600160008573ffffffffffffffffffffffffffffffffffffffff1673ffffffffffffffffffffffffffffffffffffffff16815260200190815260200160002081905550610e1681600160008573ffffffffffffffffffffffffffffffffffffffff1673ffffffffffffffffffffffffffffffffffffffff16815260200190815260200160002054610f2790919063ffffffff16565b600160008473ffffffffffffffffffffffffffffffffffffffff1673ffffffffffffffffffffffffffffffffffffffff168152602001908152602001600020819055508173ffffffffffffffffffffffffffffffffffffffff168373ffffffffffffffffffffffffffffffffffffffff167fddf252ad1be2c89b69c2b068fc378daa952ba7f163c4a11628f55a4df523b3ef83604051610eb6919061146f565b60405180910390a3505050565b6000838311158290610f0b576040517f08c379a0000000000000000000000000000000000000000000000000000000008152600401610f02919061136d565b60405180910390fd5b5060008385610f1a91906114fc565b9050809150509392505050565b6000808284610f3691906114a6565b905083811015610f7b576040517f08c379a0000000000000000000000000000000000000000000000000000000008152600401610f72906113ef565b60405180910390fd5b8091505092915050565b600073ffffffffffffffffffffffffffffffffffffffff168173ffffffffffffffffffffffffffffffffffffffff161415610ff5576040517f08c379a0000000000000000000000000000000000000000000000000000000008152600401610fec906113cf565b60405180910390fd5b8073ffffffffffffffffffffffffffffffffffffffff1660008054906101000a900473ffffffffffffffffffffffffffffffffffffffff1673ffffffffffffffffffffffffffffffffffffffff167f8be0079c531659141344cd1fd0a4f28419497f9722a3daafe3b4186f6b6457e060405160405180910390a3806000806101000a81548173ffffffffffffffffffffffffffffffffffffffff021916908373ffffffffffffffffffffffffffffffffffffffff16021790555050565b6000813590506110c1816117cd565b92915050565b6000813590506110d6816117e4565b92915050565b6000602082840312156110f2576110f16115da565b5b6000611100848285016110b2565b91505092915050565b600080604083850312156111205761111f6115da565b5b600061112e858286016110b2565b925050602061113f858286016110b2565b9150509250929050565b600080600060608486031215611162576111616115da565b5b6000611170868287016110b2565b9350506020611181868287016110b2565b9250506040611192868287016110c7565b9150509250925092565b600080604083850312156111b3576111b26115da565b5b60006111c1858286016110b2565b92505060206111d2858286016110c7565b9150509250929050565b6111e581611530565b82525050565b6111f481611542565b82525050565b60006112058261148a565b61120f8185611495565b935061121f818560208601611578565b611228816115df565b840191505092915050565b6000611240602583611495565b915061124b826115f0565b604082019050919050565b6000611263602483611495565b915061126e8261163f565b604082019050919050565b6000611286602683611495565b91506112918261168e565b604082019050919050565b60006112a9601b83611495565b91506112b4826116dd565b602082019050919050565b60006112cc602083611495565b91506112d782611706565b602082019050919050565b60006112ef602383611495565b91506112fa8261172f565b604082019050919050565b6000611312602283611495565b915061131d8261177e565b604082019050919050565b6113318161156e565b82525050565b600060208201905061134c60008301846111dc565b92915050565b600060208201905061136760008301846111eb565b92915050565b6000602082019050818103600083015261138781846111fa565b905092915050565b600060208201905081810360008301526113a881611233565b9050919050565b600060208201905081810360008301526113c881611256565b9050919050565b600060208201905081810360008301526113e881611279565b9050919050565b600060208201905081810360008301526114088161129c565b9050919050565b60006020820190508181036000830152611428816112bf565b9050919050565b60006020820190508181036000830152611448816112e2565b9050919050565b6000602082019050818103600083015261146881611305565b9050919050565b60006020820190506114846000830184611328565b92915050565b600081519050919050565b600082825260208201905092915050565b60006114b18261156e565b91506114bc8361156e565b9250827fffffffffffffffffffffffffffffffffffffffffffffffffffffffffffffffff038211156114f1576114f06115ab565b5b828201905092915050565b60006115078261156e565b91506115128361156e565b925082821015611525576115246115ab565b5b828203905092915050565b600061153b8261154e565b9050919050565b60008115159050919050565b600073ffffffffffffffffffffffffffffffffffffffff82169050919050565b6000819050919050565b60005b8381101561159657808201518184015260208101905061157b565b838111156115a5576000848401525b50505050565b7f4e487b7100000000000000000000000000000000000000000000000000000000600052601160045260246000fd5b600080fd5b6000601f19601f8301169050919050565b7f42455032303a207472616e736665722066726f6d20746865207a65726f20616460008201527f6472657373000000000000000000000000000000000000000000000000000000602082015250565b7f42455032303a20617070726f76652066726f6d20746865207a65726f2061646460008201527f7265737300000000000000000000000000000000000000000000000000000000602082015250565b7f4f776e61626c653a206e6577206f776e657220697320746865207a65726f206160008201527f6464726573730000000000000000000000000000000000000000000000000000602082015250565b7f536166654d6174683a206164646974696f6e206f766572666c6f770000000000600082015250565b7f4f776e61626c653a2063616c6c6572206973206e6f7420746865206f776e6572600082015250565b7f42455032303a207472616e7366657220746f20746865207a65726f206164647260008201527f6573730000000000000000000000000000000000000000000000000000000000602082015250565b7f42455032303a20617070726f766520746f20746865207a65726f20616464726560008201527f7373000000000000000000000000000000000000000000000000000000000000602082015250565b6117d681611530565b81146117e157600080fd5b50565b6117ed8161156e565b81146117f857600080fd5b5056fe42455032303a207472616e7366657220616d6f756e74206578636565647320616c6c6f77616e636542455032303a207472616e7366657220616d6f756e7420657863656564732062616c616e636542455032303a2064656372656173656420616c6c6f77616e63652062656c6f77207a65726fa26469706673582212204b8ab0b6ce39beced980345ba315cd42acf040ea06961f2c5894aad11baed36664736f6c63430008070033",
					"opcodes": "PUSH1 0x80 PUSH1 0x40 MSTORE PUSH1 0x0 DUP1 PUSH1 0x14 PUSH2 0x100 EXP DUP2 SLOAD DUP2 PUSH1 0xFF MUL NOT AND SWAP1 DUP4 ISZERO ISZERO MUL OR SWAP1 SSTORE POP CALLVALUE DUP1 ISZERO PUSH2 0x2A JUMPI PUSH1 0x0 DUP1 REVERT JUMPDEST POP PUSH1 0x0 PUSH2 0x3B PUSH2 0xDE PUSH1 0x20 SHL PUSH1 0x20 SHR JUMP JUMPDEST SWAP1 POP DUP1 PUSH1 0x0 DUP1 PUSH2 0x100 EXP DUP2 SLOAD DUP2 PUSH20 0xFFFFFFFFFFFFFFFFFFFFFFFFFFFFFFFFFFFFFFFF MUL NOT AND SWAP1 DUP4 PUSH20 0xFFFFFFFFFFFFFFFFFFFFFFFFFFFFFFFFFFFFFFFF AND MUL OR SWAP1 SSTORE POP DUP1 PUSH20 0xFFFFFFFFFFFFFFFFFFFFFFFFFFFFFFFFFFFFFFFF AND PUSH1 0x0 PUSH20 0xFFFFFFFFFFFFFFFFFFFFFFFFFFFFFFFFFFFFFFFF AND PUSH32 0x8BE0079C531659141344CD1FD0A4F28419497F9722A3DAAFE3B4186F6B6457E0 PUSH1 0x40 MLOAD PUSH1 0x40 MLOAD DUP1 SWAP2 SUB SWAP1 LOG3 POP PUSH2 0xE6 JUMP JUMPDEST PUSH1 0x0 CALLER SWAP1 POP SWAP1 JUMP JUMPDEST PUSH2 0x18A4 DUP1 PUSH2 0xF5 PUSH1 0x0 CODECOPY PUSH1 0x0 RETURN INVALID PUSH1 0x80 PUSH1 0x40 MSTORE CALLVALUE DUP1 ISZERO PUSH2 0x10 JUMPI PUSH1 0x0 DUP1 REVERT JUMPDEST POP PUSH1 0x4 CALLDATASIZE LT PUSH2 0xF5 JUMPI PUSH1 0x0 CALLDATALOAD PUSH1 0xE0 SHR DUP1 PUSH4 0x715018A6 GT PUSH2 0x97 JUMPI DUP1 PUSH4 0xA457C2D7 GT PUSH2 0x66 JUMPI DUP1 PUSH4 0xA457C2D7 EQ PUSH2 0x278 JUMPI DUP1 PUSH4 0xA9059CBB EQ PUSH2 0x2A8 JUMPI DUP1 PUSH4 0xDD62ED3E EQ PUSH2 0x2D8 JUMPI DUP1 PUSH4 0xF2FDE38B EQ PUSH2 0x308 JUMPI PUSH2 0xF5 JUMP JUMPDEST DUP1 PUSH4 0x715018A6 EQ PUSH2 0x214 JUMPI DUP1 PUSH4 0x8456CB59 EQ PUSH2 0x21E JUMPI DUP1 PUSH4 0x8DA5CB5B EQ PUSH2 0x23C JUMPI DUP1 PUSH4 0x8F32D59B EQ PUSH2 0x25A JUMPI PUSH2 0xF5 JUMP JUMPDEST DUP1 PUSH4 0x39509351 GT PUSH2 0xD3 JUMPI DUP1 PUSH4 0x39509351 EQ PUSH2 0x178 JUMPI DUP1 PUSH4 0x3F4BA83A EQ PUSH2 0x1A8 JUMPI DUP1 PUSH4 0x5C975ABB EQ PUSH2 0x1C6 JUMPI DUP1 PUSH4 0x70A08231 EQ PUSH2 0x1E4 JUMPI PUSH2 0xF5 JUMP JUMPDEST DUP1 PUSH4 0x95EA7B3 EQ PUSH2 0xFA JUMPI DUP1 PUSH4 0x18160DDD EQ PUSH2 0x12A JUMPI DUP1 PUSH4 0x23B872DD EQ PUSH2 0x148 JUMPI JUMPDEST PUSH1 0x0 DUP1 REVERT JUMPDEST PUSH2 0x114 PUSH1 0x4 DUP1 CALLDATASIZE SUB DUP2 ADD SWAP1 PUSH2 0x10F SWAP2 SWAP1 PUSH2 0x119C JUMP JUMPDEST PUSH2 0x324 JUMP JUMPDEST PUSH1 0x40 MLOAD PUSH2 0x121 SWAP2 SWAP1 PUSH2 0x1352 JUMP JUMPDEST PUSH1 0x40 MLOAD DUP1 SWAP2 SUB SWAP1 RETURN JUMPDEST PUSH2 0x132 PUSH2 0x35B JUMP JUMPDEST PUSH1 0x40 MLOAD PUSH2 0x13F SWAP2 SWAP1 PUSH2 0x146F JUMP JUMPDEST PUSH1 0x40 MLOAD DUP1 SWAP2 SUB SWAP1 RETURN JUMPDEST PUSH2 0x162 PUSH1 0x4 DUP1 CALLDATASIZE SUB DUP2 ADD SWAP1 PUSH2 0x15D SWAP2 SWAP1 PUSH2 0x1149 JUMP JUMPDEST PUSH2 0x365 JUMP JUMPDEST PUSH1 0x40 MLOAD PUSH2 0x16F SWAP2 SWAP1 PUSH2 0x1352 JUMP JUMPDEST PUSH1 0x40 MLOAD DUP1 SWAP2 SUB SWAP1 RETURN JUMPDEST PUSH2 0x192 PUSH1 0x4 DUP1 CALLDATASIZE SUB DUP2 ADD SWAP1 PUSH2 0x18D SWAP2 SWAP1 PUSH2 0x119C JUMP JUMPDEST PUSH2 0x457 JUMP JUMPDEST PUSH1 0x40 MLOAD PUSH2 0x19F SWAP2 SWAP1 PUSH2 0x1352 JUMP JUMPDEST PUSH1 0x40 MLOAD DUP1 SWAP2 SUB SWAP1 RETURN JUMPDEST PUSH2 0x1B0 PUSH2 0x523 JUMP JUMPDEST PUSH1 0x40 MLOAD PUSH2 0x1BD SWAP2 SWAP1 PUSH2 0x1352 JUMP JUMPDEST PUSH1 0x40 MLOAD DUP1 SWAP2 SUB SWAP1 RETURN JUMPDEST PUSH2 0x1CE PUSH2 0x5D2 JUMP JUMPDEST PUSH1 0x40 MLOAD PUSH2 0x1DB SWAP2 SWAP1 PUSH2 0x1352 JUMP JUMPDEST PUSH1 0x40 MLOAD DUP1 SWAP2 SUB SWAP1 RETURN JUMPDEST PUSH2 0x1FE PUSH1 0x4 DUP1 CALLDATASIZE SUB DUP2 ADD SWAP1 PUSH2 0x1F9 SWAP2 SWAP1 PUSH2 0x10DC JUMP JUMPDEST PUSH2 0x5E5 JUMP JUMPDEST PUSH1 0x40 MLOAD PUSH2 0x20B SWAP2 SWAP1 PUSH2 0x146F JUMP JUMPDEST PUSH1 0x40 MLOAD DUP1 SWAP2 SUB SWAP1 RETURN JUMPDEST PUSH2 0x21C PUSH2 0x62E JUMP JUMPDEST STOP JUMPDEST PUSH2 0x226 PUSH2 0x733 JUMP JUMPDEST PUSH1 0x40 MLOAD PUSH2 0x233 SWAP2 SWAP1 PUSH2 0x1352 JUMP JUMPDEST PUSH1 0x40 MLOAD DUP1 SWAP2 SUB SWAP1 RETURN JUMPDEST PUSH2 0x244 PUSH2 0x7E4 JUMP JUMPDEST PUSH1 0x40 MLOAD PUSH2 0x251 SWAP2 SWAP1 PUSH2 0x1337 JUMP JUMPDEST PUSH1 0x40 MLOAD DUP1 SWAP2 SUB SWAP1 RETURN JUMPDEST PUSH2 0x262 PUSH2 0x80D JUMP JUMPDEST PUSH1 0x40 MLOAD PUSH2 0x26F SWAP2 SWAP1 PUSH2 0x1352 JUMP JUMPDEST PUSH1 0x40 MLOAD DUP1 SWAP2 SUB SWAP1 RETURN JUMPDEST PUSH2 0x292 PUSH1 0x4 DUP1 CALLDATASIZE SUB DUP2 ADD SWAP1 PUSH2 0x28D SWAP2 SWAP1 PUSH2 0x119C JUMP JUMPDEST PUSH2 0x86B JUMP JUMPDEST PUSH1 0x40 MLOAD PUSH2 0x29F SWAP2 SWAP1 PUSH2 0x1352 JUMP JUMPDEST PUSH1 0x40 MLOAD DUP1 SWAP2 SUB SWAP1 RETURN JUMPDEST PUSH2 0x2C2 PUSH1 0x4 DUP1 CALLDATASIZE SUB DUP2 ADD SWAP1 PUSH2 0x2BD SWAP2 SWAP1 PUSH2 0x119C JUMP JUMPDEST PUSH2 0x951 JUMP JUMPDEST PUSH1 0x40 MLOAD PUSH2 0x2CF SWAP2 SWAP1 PUSH2 0x1352 JUMP JUMPDEST PUSH1 0x40 MLOAD DUP1 SWAP2 SUB SWAP1 RETURN JUMPDEST PUSH2 0x2F2 PUSH1 0x4 DUP1 CALLDATASIZE SUB DUP2 ADD SWAP1 PUSH2 0x2ED SWAP2 SWAP1 PUSH2 0x1109 JUMP JUMPDEST PUSH2 0x988 JUMP JUMPDEST PUSH1 0x40 MLOAD PUSH2 0x2FF SWAP2 SWAP1 PUSH2 0x146F JUMP JUMPDEST PUSH1 0x40 MLOAD DUP1 SWAP2 SUB SWAP1 RETURN JUMPDEST PUSH2 0x322 PUSH1 0x4 DUP1 CALLDATASIZE SUB DUP2 ADD SWAP1 PUSH2 0x31D SWAP2 SWAP1 PUSH2 0x10DC JUMP JUMPDEST PUSH2 0xA0F JUMP JUMPDEST STOP JUMPDEST PUSH1 0x0 DUP1 PUSH1 0x14 SWAP1 SLOAD SWAP1 PUSH2 0x100 EXP SWAP1 DIV PUSH1 0xFF AND ISZERO PUSH2 0x33F JUMPI PUSH1 0x0 DUP1 REVERT JUMPDEST PUSH2 0x351 PUSH2 0x34A PUSH2 0xA62 JUMP JUMPDEST DUP5 DUP5 PUSH2 0xA6A JUMP JUMPDEST PUSH1 0x1 SWAP1 POP SWAP3 SWAP2 POP POP JUMP JUMPDEST PUSH1 0x0 PUSH1 0x3 SLOAD SWAP1 POP SWAP1 JUMP JUMPDEST PUSH1 0x0 DUP1 PUSH1 0x14 SWAP1 SLOAD SWAP1 PUSH2 0x100 EXP SWAP1 DIV PUSH1 0xFF AND ISZERO PUSH2 0x380 JUMPI PUSH1 0x0 DUP1 REVERT JUMPDEST PUSH2 0x38B DUP5 DUP5 DUP5 PUSH2 0xC35 JUMP JUMPDEST PUSH2 0x44C DUP5 PUSH2 0x397 PUSH2 0xA62 JUMP JUMPDEST PUSH2 0x447 DUP6 PUSH1 0x40 MLOAD DUP1 PUSH1 0x60 ADD PUSH1 0x40 MSTORE DUP1 PUSH1 0x28 DUP2 MSTORE PUSH1 0x20 ADD PUSH2 0x17FC PUSH1 0x28 SWAP2 CODECOPY PUSH1 0x2 PUSH1 0x0 DUP12 PUSH20 0xFFFFFFFFFFFFFFFFFFFFFFFFFFFFFFFFFFFFFFFF AND PUSH20 0xFFFFFFFFFFFFFFFFFFFFFFFFFFFFFFFFFFFFFFFF AND DUP2 MSTORE PUSH1 0x20 ADD SWAP1 DUP2 MSTORE PUSH1 0x20 ADD PUSH1 0x0 KECCAK256 PUSH1 0x0 PUSH2 0x3FD PUSH2 0xA62 JUMP JUMPDEST PUSH20 0xFFFFFFFFFFFFFFFFFFFFFFFFFFFFFFFFFFFFFFFF AND PUSH20 0xFFFFFFFFFFFFFFFFFFFFFFFFFFFFFFFFFFFFFFFF AND DUP2 MSTORE PUSH1 0x20 ADD SWAP1 DUP2 MSTORE PUSH1 0x20 ADD PUSH1 0x0 KECCAK256 SLOAD PUSH2 0xEC3 SWAP1 SWAP3 SWAP2 SWAP1 PUSH4 0xFFFFFFFF AND JUMP JUMPDEST PUSH2 0xA6A JUMP JUMPDEST PUSH1 0x1 SWAP1 POP SWAP4 SWAP3 POP POP POP JUMP JUMPDEST PUSH1 0x0 DUP1 PUSH1 0x14 SWAP1 SLOAD SWAP1 PUSH2 0x100 EXP SWAP1 DIV PUSH1 0xFF AND ISZERO PUSH2 0x472 JUMPI PUSH1 0x0 DUP1 REVERT JUMPDEST PUSH2 0x519 PUSH2 0x47D PUSH2 0xA62 JUMP JUMPDEST DUP5 PUSH2 0x514 DUP6 PUSH1 0x2 PUSH1 0x0 PUSH2 0x48E PUSH2 0xA62 JUMP JUMPDEST PUSH20 0xFFFFFFFFFFFFFFFFFFFFFFFFFFFFFFFFFFFFFFFF AND PUSH20 0xFFFFFFFFFFFFFFFFFFFFFFFFFFFFFFFFFFFFFFFF AND DUP2 MSTORE PUSH1 0x20 ADD SWAP1 DUP2 MSTORE PUSH1 0x20 ADD PUSH1 0x0 KECCAK256 PUSH1 0x0 DUP10 PUSH20 0xFFFFFFFFFFFFFFFFFFFFFFFFFFFFFFFFFFFFFFFF AND PUSH20 0xFFFFFFFFFFFFFFFFFFFFFFFFFFFFFFFFFFFFFFFF AND DUP2 MSTORE PUSH1 0x20 ADD SWAP1 DUP2 MSTORE PUSH1 0x20 ADD PUSH1 0x0 KECCAK256 SLOAD PUSH2 0xF27 SWAP1 SWAP2 SWAP1 PUSH4 0xFFFFFFFF AND JUMP JUMPDEST PUSH2 0xA6A JUMP JUMPDEST PUSH1 0x1 SWAP1 POP SWAP3 SWAP2 POP POP JUMP JUMPDEST PUSH1 0x0 PUSH2 0x52D PUSH2 0x80D JUMP JUMPDEST PUSH2 0x56C JUMPI PUSH1 0x40 MLOAD PUSH32 0x8C379A000000000000000000000000000000000000000000000000000000000 DUP2 MSTORE PUSH1 0x4 ADD PUSH2 0x563 SWAP1 PUSH2 0x140F JUMP JUMPDEST PUSH1 0x40 MLOAD DUP1 SWAP2 SUB SWAP1 REVERT JUMPDEST PUSH1 0x0 PUSH1 0x14 SWAP1 SLOAD SWAP1 PUSH2 0x100 EXP SWAP1 DIV PUSH1 0xFF AND PUSH2 0x585 JUMPI PUSH1 0x0 DUP1 REVERT JUMPDEST PUSH1 0x0 DUP1 PUSH1 0x14 PUSH2 0x100 EXP DUP2 SLOAD DUP2 PUSH1 0xFF MUL NOT AND SWAP1 DUP4 ISZERO ISZERO MUL OR SWAP1 SSTORE POP PUSH32 0x7805862F689E2F13DF9F062FF482AD3AD112ACA9E0847911ED832E158C525B33 PUSH1 0x40 MLOAD PUSH1 0x40 MLOAD DUP1 SWAP2 SUB SWAP1 LOG1 PUSH1 0x1 SWAP1 POP SWAP1 JUMP JUMPDEST PUSH1 0x0 PUSH1 0x14 SWAP1 SLOAD SWAP1 PUSH2 0x100 EXP SWAP1 DIV PUSH1 0xFF AND DUP2 JUMP JUMPDEST PUSH1 0x0 PUSH1 0x1 PUSH1 0x0 DUP4 PUSH20 0xFFFFFFFFFFFFFFFFFFFFFFFFFFFFFFFFFFFFFFFF AND PUSH20 0xFFFFFFFFFFFFFFFFFFFFFFFFFFFFFFFFFFFFFFFF AND DUP2 MSTORE PUSH1 0x20 ADD SWAP1 DUP2 MSTORE PUSH1 0x20 ADD PUSH1 0x0 KECCAK256 SLOAD SWAP1 POP SWAP2 SWAP1 POP JUMP JUMPDEST PUSH2 0x636 PUSH2 0x80D JUMP JUMPDEST PUSH2 0x675 JUMPI PUSH1 0x40 MLOAD PUSH32 0x8C379A000000000000000000000000000000000000000000000000000000000 DUP2 MSTORE PUSH1 0x4 ADD PUSH2 0x66C SWAP1 PUSH2 0x140F JUMP JUMPDEST PUSH1 0x40 MLOAD DUP1 SWAP2 SUB SWAP1 REVERT JUMPDEST PUSH1 0x0 PUSH20 0xFFFFFFFFFFFFFFFFFFFFFFFFFFFFFFFFFFFFFFFF AND PUSH1 0x0 DUP1 SLOAD SWAP1 PUSH2 0x100 EXP SWAP1 DIV PUSH20 0xFFFFFFFFFFFFFFFFFFFFFFFFFFFFFFFFFFFFFFFF AND PUSH20 0xFFFFFFFFFFFFFFFFFFFFFFFFFFFFFFFFFFFFFFFF AND PUSH32 0x8BE0079C531659141344CD1FD0A4F28419497F9722A3DAAFE3B4186F6B6457E0 PUSH1 0x40 MLOAD PUSH1 0x40 MLOAD DUP1 SWAP2 SUB SWAP1 LOG3 PUSH1 0x0 DUP1 PUSH1 0x0 PUSH2 0x100 EXP DUP2 SLOAD DUP2 PUSH20 0xFFFFFFFFFFFFFFFFFFFFFFFFFFFFFFFFFFFFFFFF MUL NOT AND SWAP1 DUP4 PUSH20 0xFFFFFFFFFFFFFFFFFFFFFFFFFFFFFFFFFFFFFFFF AND MUL OR SWAP1 SSTORE POP JUMP JUMPDEST PUSH1 0x0 PUSH2 0x73D PUSH2 0x80D JUMP JUMPDEST PUSH2 0x77C JUMPI PUSH1 0x40 MLOAD PUSH32 0x8C379A000000000000000000000000000000000000000000000000000000000 DUP2 MSTORE PUSH1 0x4 ADD PUSH2 0x773 SWAP1 PUSH2 0x140F JUMP JUMPDEST PUSH1 0x40 MLOAD DUP1 SWAP2 SUB SWAP1 REVERT JUMPDEST PUSH1 0x0 PUSH1 0x14 SWAP1 SLOAD SWAP1 PUSH2 0x100 EXP SWAP1 DIV PUSH1 0xFF AND ISZERO PUSH2 0x796 JUMPI PUSH1 0x0 DUP1 REVERT JUMPDEST PUSH1 0x1 PUSH1 0x0 PUSH1 0x14 PUSH2 0x100 EXP DUP2 SLOAD DUP2 PUSH1 0xFF MUL NOT AND SWAP1 DUP4 ISZERO ISZERO MUL OR SWAP1 SSTORE POP PUSH32 0x6985A02210A168E66602D3235CB6DB0E70F92B3BA4D376A33C0F3D9434BFF625 PUSH1 0x40 MLOAD PUSH1 0x40 MLOAD DUP1 SWAP2 SUB SWAP1 LOG1 PUSH1 0x1 SWAP1 POP SWAP1 JUMP JUMPDEST PUSH1 0x0 DUP1 PUSH1 0x0 SWAP1 SLOAD SWAP1 PUSH2 0x100 EXP SWAP1 DIV PUSH20 0xFFFFFFFFFFFFFFFFFFFFFFFFFFFFFFFFFFFFFFFF AND SWAP1 POP SWAP1 JUMP JUMPDEST PUSH1 0x0 DUP1 PUSH1 0x0 SWAP1 SLOAD SWAP1 PUSH2 0x100 EXP SWAP1 DIV PUSH20 0xFFFFFFFFFFFFFFFFFFFFFFFFFFFFFFFFFFFFFFFF AND PUSH20 0xFFFFFFFFFFFFFFFFFFFFFFFFFFFFFFFFFFFFFFFF AND PUSH2 0x84F PUSH2 0xA62 JUMP JUMPDEST PUSH20 0xFFFFFFFFFFFFFFFFFFFFFFFFFFFFFFFFFFFFFFFF AND EQ SWAP1 POP SWAP1 JUMP JUMPDEST PUSH1 0x0 DUP1 PUSH1 0x14 SWAP1 SLOAD SWAP1 PUSH2 0x100 EXP SWAP1 DIV PUSH1 0xFF AND ISZERO PUSH2 0x886 JUMPI PUSH1 0x0 DUP1 REVERT JUMPDEST PUSH2 0x947 PUSH2 0x891 PUSH2 0xA62 JUMP JUMPDEST DUP5 PUSH2 0x942 DUP6 PUSH1 0x40 MLOAD DUP1 PUSH1 0x60 ADD PUSH1 0x40 MSTORE DUP1 PUSH1 0x25 DUP2 MSTORE PUSH1 0x20 ADD PUSH2 0x184A PUSH1 0x25 SWAP2 CODECOPY PUSH1 0x2 PUSH1 0x0 PUSH2 0x8BB PUSH2 0xA62 JUMP JUMPDEST PUSH20 0xFFFFFFFFFFFFFFFFFFFFFFFFFFFFFFFFFFFFFFFF AND PUSH20 0xFFFFFFFFFFFFFFFFFFFFFFFFFFFFFFFFFFFFFFFF AND DUP2 MSTORE PUSH1 0x20 ADD SWAP1 DUP2 MSTORE PUSH1 0x20 ADD PUSH1 0x0 KECCAK256 PUSH1 0x0 DUP11 PUSH20 0xFFFFFFFFFFFFFFFFFFFFFFFFFFFFFFFFFFFFFFFF AND PUSH20 0xFFFFFFFFFFFFFFFFFFFFFFFFFFFFFFFFFFFFFFFF AND DUP2 MSTORE PUSH1 0x20 ADD SWAP1 DUP2 MSTORE PUSH1 0x20 ADD PUSH1 0x0 KECCAK256 SLOAD PUSH2 0xEC3 SWAP1 SWAP3 SWAP2 SWAP1 PUSH4 0xFFFFFFFF AND JUMP JUMPDEST PUSH2 0xA6A JUMP JUMPDEST PUSH1 0x1 SWAP1 POP SWAP3 SWAP2 POP POP JUMP JUMPDEST PUSH1 0x0 DUP1 PUSH1 0x14 SWAP1 SLOAD SWAP1 PUSH2 0x100 EXP SWAP1 DIV PUSH1 0xFF AND ISZERO PUSH2 0x96C JUMPI PUSH1 0x0 DUP1 REVERT JUMPDEST PUSH2 0x97E PUSH2 0x977 PUSH2 0xA62 JUMP JUMPDEST DUP5 DUP5 PUSH2 0xC35 JUMP JUMPDEST PUSH1 0x1 SWAP1 POP SWAP3 SWAP2 POP POP JUMP JUMPDEST PUSH1 0x0 PUSH1 0x2 PUSH1 0x0 DUP5 PUSH20 0xFFFFFFFFFFFFFFFFFFFFFFFFFFFFFFFFFFFFFFFF AND PUSH20 0xFFFFFFFFFFFFFFFFFFFFFFFFFFFFFFFFFFFFFFFF AND DUP2 MSTORE PUSH1 0x20 ADD SWAP1 DUP2 MSTORE PUSH1 0x20 ADD PUSH1 0x0 KECCAK256 PUSH1 0x0 DUP4 PUSH20 0xFFFFFFFFFFFFFFFFFFFFFFFFFFFFFFFFFFFFFFFF AND PUSH20 0xFFFFFFFFFFFFFFFFFFFFFFFFFFFFFFFFFFFFFFFF AND DUP2 MSTORE PUSH1 0x20 ADD SWAP1 DUP2 MSTORE PUSH1 0x20 ADD PUSH1 0x0 KECCAK256 SLOAD SWAP1 POP SWAP3 SWAP2 POP POP JUMP JUMPDEST PUSH2 0xA17 PUSH2 0x80D JUMP JUMPDEST PUSH2 0xA56 JUMPI PUSH1 0x40 MLOAD PUSH32 0x8C379A000000000000000000000000000000000000000000000000000000000 DUP2 MSTORE PUSH1 0x4 ADD PUSH2 0xA4D SWAP1 PUSH2 0x140F JUMP JUMPDEST PUSH1 0x40 MLOAD DUP1 SWAP2 SUB SWAP1 REVERT JUMPDEST PUSH2 0xA5F DUP2 PUSH2 0xF85 JUMP JUMPDEST POP JUMP JUMPDEST PUSH1 0x0 CALLER SWAP1 POP SWAP1 JUMP JUMPDEST PUSH1 0x0 PUSH20 0xFFFFFFFFFFFFFFFFFFFFFFFFFFFFFFFFFFFFFFFF AND DUP4 PUSH20 0xFFFFFFFFFFFFFFFFFFFFFFFFFFFFFFFFFFFFFFFF AND EQ ISZERO PUSH2 0xADA JUMPI PUSH1 0x40 MLOAD PUSH32 0x8C379A000000000000000000000000000000000000000000000000000000000 DUP2 MSTORE PUSH1 0x4 ADD PUSH2 0xAD1 SWAP1 PUSH2 0x13AF JUMP JUMPDEST PUSH1 0x40 MLOAD DUP1 SWAP2 SUB SWAP1 REVERT JUMPDEST PUSH1 0x0 PUSH20 0xFFFFFFFFFFFFFFFFFFFFFFFFFFFFFFFFFFFFFFFF AND DUP3 PUSH20 0xFFFFFFFFFFFFFFFFFFFFFFFFFFFFFFFFFFFFFFFF AND EQ ISZERO PUSH2 0xB4A JUMPI PUSH1 0x40 MLOAD PUSH32 0x8C379A000000000000000000000000000000000000000000000000000000000 DUP2 MSTORE PUSH1 0x4 ADD PUSH2 0xB41 SWAP1 PUSH2 0x144F JUMP JUMPDEST PUSH1 0x40 MLOAD DUP1 SWAP2 SUB SWAP1 REVERT JUMPDEST DUP1 PUSH1 0x2 PUSH1 0x0 DUP6 PUSH20 0xFFFFFFFFFFFFFFFFFFFFFFFFFFFFFFFFFFFFFFFF AND PUSH20 0xFFFFFFFFFFFFFFFFFFFFFFFFFFFFFFFFFFFFFFFF AND DUP2 MSTORE PUSH1 0x20 ADD SWAP1 DUP2 MSTORE PUSH1 0x20 ADD PUSH1 0x0 KECCAK256 PUSH1 0x0 DUP5 PUSH20 0xFFFFFFFFFFFFFFFFFFFFFFFFFFFFFFFFFFFFFFFF AND PUSH20 0xFFFFFFFFFFFFFFFFFFFFFFFFFFFFFFFFFFFFFFFF AND DUP2 MSTORE PUSH1 0x20 ADD SWAP1 DUP2 MSTORE PUSH1 0x20 ADD PUSH1 0x0 KECCAK256 DUP2 SWAP1 SSTORE POP DUP2 PUSH20 0xFFFFFFFFFFFFFFFFFFFFFFFFFFFFFFFFFFFFFFFF AND DUP4 PUSH20 0xFFFFFFFFFFFFFFFFFFFFFFFFFFFFFFFFFFFFFFFF AND PUSH32 0x8C5BE1E5EBEC7D5BD14F71427D1E84F3DD0314C0F7B2291E5B200AC8C7C3B925 DUP4 PUSH1 0x40 MLOAD PUSH2 0xC28 SWAP2 SWAP1 PUSH2 0x146F JUMP JUMPDEST PUSH1 0x40 MLOAD DUP1 SWAP2 SUB SWAP1 LOG3 POP POP POP JUMP JUMPDEST PUSH1 0x0 PUSH20 0xFFFFFFFFFFFFFFFFFFFFFFFFFFFFFFFFFFFFFFFF AND DUP4 PUSH20 0xFFFFFFFFFFFFFFFFFFFFFFFFFFFFFFFFFFFFFFFF AND EQ ISZERO PUSH2 0xCA5 JUMPI PUSH1 0x40 MLOAD PUSH32 0x8C379A000000000000000000000000000000000000000000000000000000000 DUP2 MSTORE PUSH1 0x4 ADD PUSH2 0xC9C SWAP1 PUSH2 0x138F JUMP JUMPDEST PUSH1 0x40 MLOAD DUP1 SWAP2 SUB SWAP1 REVERT JUMPDEST PUSH1 0x0 PUSH20 0xFFFFFFFFFFFFFFFFFFFFFFFFFFFFFFFFFFFFFFFF AND DUP3 PUSH20 0xFFFFFFFFFFFFFFFFFFFFFFFFFFFFFFFFFFFFFFFF AND EQ ISZERO PUSH2 0xD15 JUMPI PUSH1 0x40 MLOAD PUSH32 0x8C379A000000000000000000000000000000000000000000000000000000000 DUP2 MSTORE PUSH1 0x4 ADD PUSH2 0xD0C SWAP1 PUSH2 0x142F JUMP JUMPDEST PUSH1 0x40 MLOAD DUP1 SWAP2 SUB SWAP1 REVERT JUMPDEST PUSH2 0xD81 DUP2 PUSH1 0x40 MLOAD DUP1 PUSH1 0x60 ADD PUSH1 0x40 MSTORE DUP1 PUSH1 0x26 DUP2 MSTORE PUSH1 0x20 ADD PUSH2 0x1824 PUSH1 0x26 SWAP2 CODECOPY PUSH1 0x1 PUSH1 0x0 DUP8 PUSH20 0xFFFFFFFFFFFFFFFFFFFFFFFFFFFFFFFFFFFFFFFF AND PUSH20 0xFFFFFFFFFFFFFFFFFFFFFFFFFFFFFFFFFFFFFFFF AND DUP2 MSTORE PUSH1 0x20 ADD SWAP1 DUP2 MSTORE PUSH1 0x20 ADD PUSH1 0x0 KECCAK256 SLOAD PUSH2 0xEC3 SWAP1 SWAP3 SWAP2 SWAP1 PUSH4 0xFFFFFFFF AND JUMP JUMPDEST PUSH1 0x1 PUSH1 0x0 DUP6 PUSH20 0xFFFFFFFFFFFFFFFFFFFFFFFFFFFFFFFFFFFFFFFF AND PUSH20 0xFFFFFFFFFFFFFFFFFFFFFFFFFFFFFFFFFFFFFFFF AND DUP2 MSTORE PUSH1 0x20 ADD SWAP1 DUP2 MSTORE PUSH1 0x20 ADD PUSH1 0x0 KECCAK256 DUP2 SWAP1 SSTORE POP PUSH2 0xE16 DUP2 PUSH1 0x1 PUSH1 0x0 DUP6 PUSH20 0xFFFFFFFFFFFFFFFFFFFFFFFFFFFFFFFFFFFFFFFF AND PUSH20 0xFFFFFFFFFFFFFFFFFFFFFFFFFFFFFFFFFFFFFFFF AND DUP2 MSTORE PUSH1 0x20 ADD SWAP1 DUP2 MSTORE PUSH1 0x20 ADD PUSH1 0x0 KECCAK256 SLOAD PUSH2 0xF27 SWAP1 SWAP2 SWAP1 PUSH4 0xFFFFFFFF AND JUMP JUMPDEST PUSH1 0x1 PUSH1 0x0 DUP5 PUSH20 0xFFFFFFFFFFFFFFFFFFFFFFFFFFFFFFFFFFFFFFFF AND PUSH20 0xFFFFFFFFFFFFFFFFFFFFFFFFFFFFFFFFFFFFFFFF AND DUP2 MSTORE PUSH1 0x20 ADD SWAP1 DUP2 MSTORE PUSH1 0x20 ADD PUSH1 0x0 KECCAK256 DUP2 SWAP1 SSTORE POP DUP2 PUSH20 0xFFFFFFFFFFFFFFFFFFFFFFFFFFFFFFFFFFFFFFFF AND DUP4 PUSH20 0xFFFFFFFFFFFFFFFFFFFFFFFFFFFFFFFFFFFFFFFF AND PUSH32 0xDDF252AD1BE2C89B69C2B068FC378DAA952BA7F163C4A11628F55A4DF523B3EF DUP4 PUSH1 0x40 MLOAD PUSH2 0xEB6 SWAP2 SWAP1 PUSH2 0x146F JUMP JUMPDEST PUSH1 0x40 MLOAD DUP1 SWAP2 SUB SWAP1 LOG3 POP POP POP JUMP JUMPDEST PUSH1 0x0 DUP4 DUP4 GT ISZERO DUP3 SWAP1 PUSH2 0xF0B JUMPI PUSH1 0x40 MLOAD PUSH32 0x8C379A000000000000000000000000000000000000000000000000000000000 DUP2 MSTORE PUSH1 0x4 ADD PUSH2 0xF02 SWAP2 SWAP1 PUSH2 0x136D JUMP JUMPDEST PUSH1 0x40 MLOAD DUP1 SWAP2 SUB SWAP1 REVERT JUMPDEST POP PUSH1 0x0 DUP4 DUP6 PUSH2 0xF1A SWAP2 SWAP1 PUSH2 0x14FC JUMP JUMPDEST SWAP1 POP DUP1 SWAP2 POP POP SWAP4 SWAP3 POP POP POP JUMP JUMPDEST PUSH1 0x0 DUP1 DUP3 DUP5 PUSH2 0xF36 SWAP2 SWAP1 PUSH2 0x14A6 JUMP JUMPDEST SWAP1 POP DUP4 DUP2 LT ISZERO PUSH2 0xF7B JUMPI PUSH1 0x40 MLOAD PUSH32 0x8C379A000000000000000000000000000000000000000000000000000000000 DUP2 MSTORE PUSH1 0x4 ADD PUSH2 0xF72 SWAP1 PUSH2 0x13EF JUMP JUMPDEST PUSH1 0x40 MLOAD DUP1 SWAP2 SUB SWAP1 REVERT JUMPDEST DUP1 SWAP2 POP POP SWAP3 SWAP2 POP POP JUMP JUMPDEST PUSH1 0x0 PUSH20 0xFFFFFFFFFFFFFFFFFFFFFFFFFFFFFFFFFFFFFFFF AND DUP2 PUSH20 0xFFFFFFFFFFFFFFFFFFFFFFFFFFFFFFFFFFFFFFFF AND EQ ISZERO PUSH2 0xFF5 JUMPI PUSH1 0x40 MLOAD PUSH32 0x8C379A000000000000000000000000000000000000000000000000000000000 DUP2 MSTORE PUSH1 0x4 ADD PUSH2 0xFEC SWAP1 PUSH2 0x13CF JUMP JUMPDEST PUSH1 0x40 MLOAD DUP1 SWAP2 SUB SWAP1 REVERT JUMPDEST DUP1 PUSH20 0xFFFFFFFFFFFFFFFFFFFFFFFFFFFFFFFFFFFFFFFF AND PUSH1 0x0 DUP1 SLOAD SWAP1 PUSH2 0x100 EXP SWAP1 DIV PUSH20 0xFFFFFFFFFFFFFFFFFFFFFFFFFFFFFFFFFFFFFFFF AND PUSH20 0xFFFFFFFFFFFFFFFFFFFFFFFFFFFFFFFFFFFFFFFF AND PUSH32 0x8BE0079C531659141344CD1FD0A4F28419497F9722A3DAAFE3B4186F6B6457E0 PUSH1 0x40 MLOAD PUSH1 0x40 MLOAD DUP1 SWAP2 SUB SWAP1 LOG3 DUP1 PUSH1 0x0 DUP1 PUSH2 0x100 EXP DUP2 SLOAD DUP2 PUSH20 0xFFFFFFFFFFFFFFFFFFFFFFFFFFFFFFFFFFFFFFFF MUL NOT AND SWAP1 DUP4 PUSH20 0xFFFFFFFFFFFFFFFFFFFFFFFFFFFFFFFFFFFFFFFF AND MUL OR SWAP1 SSTORE POP POP JUMP JUMPDEST PUSH1 0x0 DUP2 CALLDATALOAD SWAP1 POP PUSH2 0x10C1 DUP2 PUSH2 0x17CD JUMP JUMPDEST SWAP3 SWAP2 POP POP JUMP JUMPDEST PUSH1 0x0 DUP2 CALLDATALOAD SWAP1 POP PUSH2 0x10D6 DUP2 PUSH2 0x17E4 JUMP JUMPDEST SWAP3 SWAP2 POP POP JUMP JUMPDEST PUSH1 0x0 PUSH1 0x20 DUP3 DUP5 SUB SLT ISZERO PUSH2 0x10F2 JUMPI PUSH2 0x10F1 PUSH2 0x15DA JUMP JUMPDEST JUMPDEST PUSH1 0x0 PUSH2 0x1100 DUP5 DUP3 DUP6 ADD PUSH2 0x10B2 JUMP JUMPDEST SWAP2 POP POP SWAP3 SWAP2 POP POP JUMP JUMPDEST PUSH1 0x0 DUP1 PUSH1 0x40 DUP4 DUP6 SUB SLT ISZERO PUSH2 0x1120 JUMPI PUSH2 0x111F PUSH2 0x15DA JUMP JUMPDEST JUMPDEST PUSH1 0x0 PUSH2 0x112E DUP6 DUP3 DUP7 ADD PUSH2 0x10B2 JUMP JUMPDEST SWAP3 POP POP PUSH1 0x20 PUSH2 0x113F DUP6 DUP3 DUP7 ADD PUSH2 0x10B2 JUMP JUMPDEST SWAP2 POP POP SWAP3 POP SWAP3 SWAP1 POP JUMP JUMPDEST PUSH1 0x0 DUP1 PUSH1 0x0 PUSH1 0x60 DUP5 DUP7 SUB SLT ISZERO PUSH2 0x1162 JUMPI PUSH2 0x1161 PUSH2 0x15DA JUMP JUMPDEST JUMPDEST PUSH1 0x0 PUSH2 0x1170 DUP7 DUP3 DUP8 ADD PUSH2 0x10B2 JUMP JUMPDEST SWAP4 POP POP PUSH1 0x20 PUSH2 0x1181 DUP7 DUP3 DUP8 ADD PUSH2 0x10B2 JUMP JUMPDEST SWAP3 POP POP PUSH1 0x40 PUSH2 0x1192 DUP7 DUP3 DUP8 ADD PUSH2 0x10C7 JUMP JUMPDEST SWAP2 POP POP SWAP3 POP SWAP3 POP SWAP3 JUMP JUMPDEST PUSH1 0x0 DUP1 PUSH1 0x40 DUP4 DUP6 SUB SLT ISZERO PUSH2 0x11B3 JUMPI PUSH2 0x11B2 PUSH2 0x15DA JUMP JUMPDEST JUMPDEST PUSH1 0x0 PUSH2 0x11C1 DUP6 DUP3 DUP7 ADD PUSH2 0x10B2 JUMP JUMPDEST SWAP3 POP POP PUSH1 0x20 PUSH2 0x11D2 DUP6 DUP3 DUP7 ADD PUSH2 0x10C7 JUMP JUMPDEST SWAP2 POP POP SWAP3 POP SWAP3 SWAP1 POP JUMP JUMPDEST PUSH2 0x11E5 DUP2 PUSH2 0x1530 JUMP JUMPDEST DUP3 MSTORE POP POP JUMP JUMPDEST PUSH2 0x11F4 DUP2 PUSH2 0x1542 JUMP JUMPDEST DUP3 MSTORE POP POP JUMP JUMPDEST PUSH1 0x0 PUSH2 0x1205 DUP3 PUSH2 0x148A JUMP JUMPDEST PUSH2 0x120F DUP2 DUP6 PUSH2 0x1495 JUMP JUMPDEST SWAP4 POP PUSH2 0x121F DUP2 DUP6 PUSH1 0x20 DUP7 ADD PUSH2 0x1578 JUMP JUMPDEST PUSH2 0x1228 DUP2 PUSH2 0x15DF JUMP JUMPDEST DUP5 ADD SWAP2 POP POP SWAP3 SWAP2 POP POP JUMP JUMPDEST PUSH1 0x0 PUSH2 0x1240 PUSH1 0x25 DUP4 PUSH2 0x1495 JUMP JUMPDEST SWAP2 POP PUSH2 0x124B DUP3 PUSH2 0x15F0 JUMP JUMPDEST PUSH1 0x40 DUP3 ADD SWAP1 POP SWAP2 SWAP1 POP JUMP JUMPDEST PUSH1 0x0 PUSH2 0x1263 PUSH1 0x24 DUP4 PUSH2 0x1495 JUMP JUMPDEST SWAP2 POP PUSH2 0x126E DUP3 PUSH2 0x163F JUMP JUMPDEST PUSH1 0x40 DUP3 ADD SWAP1 POP SWAP2 SWAP1 POP JUMP JUMPDEST PUSH1 0x0 PUSH2 0x1286 PUSH1 0x26 DUP4 PUSH2 0x1495 JUMP JUMPDEST SWAP2 POP PUSH2 0x1291 DUP3 PUSH2 0x168E JUMP JUMPDEST PUSH1 0x40 DUP3 ADD SWAP1 POP SWAP2 SWAP1 POP JUMP JUMPDEST PUSH1 0x0 PUSH2 0x12A9 PUSH1 0x1B DUP4 PUSH2 0x1495 JUMP JUMPDEST SWAP2 POP PUSH2 0x12B4 DUP3 PUSH2 0x16DD JUMP JUMPDEST PUSH1 0x20 DUP3 ADD SWAP1 POP SWAP2 SWAP1 POP JUMP JUMPDEST PUSH1 0x0 PUSH2 0x12CC PUSH1 0x20 DUP4 PUSH2 0x1495 JUMP JUMPDEST SWAP2 POP PUSH2 0x12D7 DUP3 PUSH2 0x1706 JUMP JUMPDEST PUSH1 0x20 DUP3 ADD SWAP1 POP SWAP2 SWAP1 POP JUMP JUMPDEST PUSH1 0x0 PUSH2 0x12EF PUSH1 0x23 DUP4 PUSH2 0x1495 JUMP JUMPDEST SWAP2 POP PUSH2 0x12FA DUP3 PUSH2 0x172F JUMP JUMPDEST PUSH1 0x40 DUP3 ADD SWAP1 POP SWAP2 SWAP1 POP JUMP JUMPDEST PUSH1 0x0 PUSH2 0x1312 PUSH1 0x22 DUP4 PUSH2 0x1495 JUMP JUMPDEST SWAP2 POP PUSH2 0x131D DUP3 PUSH2 0x177E JUMP JUMPDEST PUSH1 0x40 DUP3 ADD SWAP1 POP SWAP2 SWAP1 POP JUMP JUMPDEST PUSH2 0x1331 DUP2 PUSH2 0x156E JUMP JUMPDEST DUP3 MSTORE POP POP JUMP JUMPDEST PUSH1 0x0 PUSH1 0x20 DUP3 ADD SWAP1 POP PUSH2 0x134C PUSH1 0x0 DUP4 ADD DUP5 PUSH2 0x11DC JUMP JUMPDEST SWAP3 SWAP2 POP POP JUMP JUMPDEST PUSH1 0x0 PUSH1 0x20 DUP3 ADD SWAP1 POP PUSH2 0x1367 PUSH1 0x0 DUP4 ADD DUP5 PUSH2 0x11EB JUMP JUMPDEST SWAP3 SWAP2 POP POP JUMP JUMPDEST PUSH1 0x0 PUSH1 0x20 DUP3 ADD SWAP1 POP DUP2 DUP2 SUB PUSH1 0x0 DUP4 ADD MSTORE PUSH2 0x1387 DUP2 DUP5 PUSH2 0x11FA JUMP JUMPDEST SWAP1 POP SWAP3 SWAP2 POP POP JUMP JUMPDEST PUSH1 0x0 PUSH1 0x20 DUP3 ADD SWAP1 POP DUP2 DUP2 SUB PUSH1 0x0 DUP4 ADD MSTORE PUSH2 0x13A8 DUP2 PUSH2 0x1233 JUMP JUMPDEST SWAP1 POP SWAP2 SWAP1 POP JUMP JUMPDEST PUSH1 0x0 PUSH1 0x20 DUP3 ADD SWAP1 POP DUP2 DUP2 SUB PUSH1 0x0 DUP4 ADD MSTORE PUSH2 0x13C8 DUP2 PUSH2 0x1256 JUMP JUMPDEST SWAP1 POP SWAP2 SWAP1 POP JUMP JUMPDEST PUSH1 0x0 PUSH1 0x20 DUP3 ADD SWAP1 POP DUP2 DUP2 SUB PUSH1 0x0 DUP4 ADD MSTORE PUSH2 0x13E8 DUP2 PUSH2 0x1279 JUMP JUMPDEST SWAP1 POP SWAP2 SWAP1 POP JUMP JUMPDEST PUSH1 0x0 PUSH1 0x20 DUP3 ADD SWAP1 POP DUP2 DUP2 SUB PUSH1 0x0 DUP4 ADD MSTORE PUSH2 0x1408 DUP2 PUSH2 0x129C JUMP JUMPDEST SWAP1 POP SWAP2 SWAP1 POP JUMP JUMPDEST PUSH1 0x0 PUSH1 0x20 DUP3 ADD SWAP1 POP DUP2 DUP2 SUB PUSH1 0x0 DUP4 ADD MSTORE PUSH2 0x1428 DUP2 PUSH2 0x12BF JUMP JUMPDEST SWAP1 POP SWAP2 SWAP1 POP JUMP JUMPDEST PUSH1 0x0 PUSH1 0x20 DUP3 ADD SWAP1 POP DUP2 DUP2 SUB PUSH1 0x0 DUP4 ADD MSTORE PUSH2 0x1448 DUP2 PUSH2 0x12E2 JUMP JUMPDEST SWAP1 POP SWAP2 SWAP1 POP JUMP JUMPDEST PUSH1 0x0 PUSH1 0x20 DUP3 ADD SWAP1 POP DUP2 DUP2 SUB PUSH1 0x0 DUP4 ADD MSTORE PUSH2 0x1468 DUP2 PUSH2 0x1305 JUMP JUMPDEST SWAP1 POP SWAP2 SWAP1 POP JUMP JUMPDEST PUSH1 0x0 PUSH1 0x20 DUP3 ADD SWAP1 POP PUSH2 0x1484 PUSH1 0x0 DUP4 ADD DUP5 PUSH2 0x1328 JUMP JUMPDEST SWAP3 SWAP2 POP POP JUMP JUMPDEST PUSH1 0x0 DUP2 MLOAD SWAP1 POP SWAP2 SWAP1 POP JUMP JUMPDEST PUSH1 0x0 DUP3 DUP3 MSTORE PUSH1 0x20 DUP3 ADD SWAP1 POP SWAP3 SWAP2 POP POP JUMP JUMPDEST PUSH1 0x0 PUSH2 0x14B1 DUP3 PUSH2 0x156E JUMP JUMPDEST SWAP2 POP PUSH2 0x14BC DUP4 PUSH2 0x156E JUMP JUMPDEST SWAP3 POP DUP3 PUSH32 0xFFFFFFFFFFFFFFFFFFFFFFFFFFFFFFFFFFFFFFFFFFFFFFFFFFFFFFFFFFFFFFFF SUB DUP3 GT ISZERO PUSH2 0x14F1 JUMPI PUSH2 0x14F0 PUSH2 0x15AB JUMP JUMPDEST JUMPDEST DUP3 DUP3 ADD SWAP1 POP SWAP3 SWAP2 POP POP JUMP JUMPDEST PUSH1 0x0 PUSH2 0x1507 DUP3 PUSH2 0x156E JUMP JUMPDEST SWAP2 POP PUSH2 0x1512 DUP4 PUSH2 0x156E JUMP JUMPDEST SWAP3 POP DUP3 DUP3 LT ISZERO PUSH2 0x1525 JUMPI PUSH2 0x1524 PUSH2 0x15AB JUMP JUMPDEST JUMPDEST DUP3 DUP3 SUB SWAP1 POP SWAP3 SWAP2 POP POP JUMP JUMPDEST PUSH1 0x0 PUSH2 0x153B DUP3 PUSH2 0x154E JUMP JUMPDEST SWAP1 POP SWAP2 SWAP1 POP JUMP JUMPDEST PUSH1 0x0 DUP2 ISZERO ISZERO SWAP1 POP SWAP2 SWAP1 POP JUMP JUMPDEST PUSH1 0x0 PUSH20 0xFFFFFFFFFFFFFFFFFFFFFFFFFFFFFFFFFFFFFFFF DUP3 AND SWAP1 POP SWAP2 SWAP1 POP JUMP JUMPDEST PUSH1 0x0 DUP2 SWAP1 POP SWAP2 SWAP1 POP JUMP JUMPDEST PUSH1 0x0 JUMPDEST DUP4 DUP2 LT ISZERO PUSH2 0x1596 JUMPI DUP1 DUP3 ADD MLOAD DUP2 DUP5 ADD MSTORE PUSH1 0x20 DUP2 ADD SWAP1 POP PUSH2 0x157B JUMP JUMPDEST DUP4 DUP2 GT ISZERO PUSH2 0x15A5 JUMPI PUSH1 0x0 DUP5 DUP5 ADD MSTORE JUMPDEST POP POP POP POP JUMP JUMPDEST PUSH32 0x4E487B7100000000000000000000000000000000000000000000000000000000 PUSH1 0x0 MSTORE PUSH1 0x11 PUSH1 0x4 MSTORE PUSH1 0x24 PUSH1 0x0 REVERT JUMPDEST PUSH1 0x0 DUP1 REVERT JUMPDEST PUSH1 0x0 PUSH1 0x1F NOT PUSH1 0x1F DUP4 ADD AND SWAP1 POP SWAP2 SWAP1 POP JUMP JUMPDEST PUSH32 0x42455032303A207472616E736665722066726F6D20746865207A65726F206164 PUSH1 0x0 DUP3 ADD MSTORE PUSH32 0x6472657373000000000000000000000000000000000000000000000000000000 PUSH1 0x20 DUP3 ADD MSTORE POP JUMP JUMPDEST PUSH32 0x42455032303A20617070726F76652066726F6D20746865207A65726F20616464 PUSH1 0x0 DUP3 ADD MSTORE PUSH32 0x7265737300000000000000000000000000000000000000000000000000000000 PUSH1 0x20 DUP3 ADD MSTORE POP JUMP JUMPDEST PUSH32 0x4F776E61626C653A206E6577206F776E657220697320746865207A65726F2061 PUSH1 0x0 DUP3 ADD MSTORE PUSH32 0x6464726573730000000000000000000000000000000000000000000000000000 PUSH1 0x20 DUP3 ADD MSTORE POP JUMP JUMPDEST PUSH32 0x536166654D6174683A206164646974696F6E206F766572666C6F770000000000 PUSH1 0x0 DUP3 ADD MSTORE POP JUMP JUMPDEST PUSH32 0x4F776E61626C653A2063616C6C6572206973206E6F7420746865206F776E6572 PUSH1 0x0 DUP3 ADD MSTORE POP JUMP JUMPDEST PUSH32 0x42455032303A207472616E7366657220746F20746865207A65726F2061646472 PUSH1 0x0 DUP3 ADD MSTORE PUSH32 0x6573730000000000000000000000000000000000000000000000000000000000 PUSH1 0x20 DUP3 ADD MSTORE POP JUMP JUMPDEST PUSH32 0x42455032303A20617070726F766520746F20746865207A65726F206164647265 PUSH1 0x0 DUP3 ADD MSTORE PUSH32 0x7373000000000000000000000000000000000000000000000000000000000000 PUSH1 0x20 DUP3 ADD MSTORE POP JUMP JUMPDEST PUSH2 0x17D6 DUP2 PUSH2 0x1530 JUMP JUMPDEST DUP2 EQ PUSH2 0x17E1 JUMPI PUSH1 0x0 DUP1 REVERT JUMPDEST POP JUMP JUMPDEST PUSH2 0x17ED DUP2 PUSH2 0x156E JUMP JUMPDEST DUP2 EQ PUSH2 0x17F8 JUMPI PUSH1 0x0 DUP1 REVERT JUMPDEST POP JUMP INVALID TIMESTAMP GASLIMIT POP ORIGIN ADDRESS GASPRICE KECCAK256 PUSH21 0x72616E7366657220616D6F756E7420657863656564 PUSH20 0x20616C6C6F77616E636542455032303A20747261 PUSH15 0x7366657220616D6F756E7420657863 PUSH6 0x656473206261 PUSH13 0x616E636542455032303A206465 PUSH4 0x72656173 PUSH6 0x6420616C6C6F PUSH24 0x616E63652062656C6F77207A65726FA26469706673582212 KECCAK256 0x4B DUP11 0xB0 0xB6 0xCE CODECOPY 0xBE 0xCE 0xD9 DUP1 CALLVALUE JUMPDEST LOG3 ISZERO 0xCD TIMESTAMP 0xAC CREATE BLOCKHASH 0xEA MOD SWAP7 0x1F 0x2C PC SWAP5 0xAA 0xD1 SHL 0xAE 0xD3 PUSH7 0x64736F6C634300 ADDMOD SMOD STOP CALLER "
				},
				"gasEstimates": {
					"creation": {
						"codeDepositCost": "1261600",
						"executionCost": "infinite",
						"totalCost": "infinite"
					},
					"external": {
						"allowance(address,address)": "infinite",
						"approve(address,uint256)": "infinite",
						"balanceOf(address)": "2930",
						"decreaseAllowance(address,uint256)": "infinite",
						"increaseAllowance(address,uint256)": "infinite",
						"isOwner()": "2620",
						"owner()": "2589",
						"pause()": "29928",
						"paused()": "2588",
						"renounceOwnership()": "30352",
						"totalSupply()": "2483",
						"transfer(address,uint256)": "infinite",
						"transferFrom(address,address,uint256)": "infinite",
						"transferOwnership(address)": "30795",
						"unpause()": "29925"
					},
					"internal": {
						"_approve(address,address,uint256)": "infinite",
						"_burn(address,uint256)": "infinite",
						"_burnFrom(address,uint256)": "infinite",
						"_mint(address,uint256)": "infinite",
						"_transfer(address,address,uint256)": "infinite"
					}
				},
				"methodIdentifiers": {
					"allowance(address,address)": "dd62ed3e",
					"approve(address,uint256)": "095ea7b3",
					"balanceOf(address)": "70a08231",
					"decreaseAllowance(address,uint256)": "a457c2d7",
					"increaseAllowance(address,uint256)": "39509351",
					"isOwner()": "8f32d59b",
					"owner()": "8da5cb5b",
					"pause()": "8456cb59",
					"paused()": "5c975abb",
					"renounceOwnership()": "715018a6",
					"totalSupply()": "18160ddd",
					"transfer(address,uint256)": "a9059cbb",
					"transferFrom(address,address,uint256)": "23b872dd",
					"transferOwnership(address)": "f2fde38b",
					"unpause()": "3f4ba83a"
				}
			},
			"userdoc": {
				"kind": "user",
				"methods": {},
				"version": 1
			}
		}
	}
}