{
	"VIMToken.sol": {
		"VIMToken": {
			"abi": [
				{
					"inputs": [],
					"stateMutability": "nonpayable",
					"type": "constructor"
				},
				{
					"anonymous": false,
					"inputs": [
						{
							"indexed": true,
							"internalType": "address",
							"name": "owner",
							"type": "address"
						},
						{
							"indexed": true,
							"internalType": "address",
							"name": "spender",
							"type": "address"
						},
						{
							"indexed": false,
							"internalType": "uint256",
							"name": "value",
							"type": "uint256"
						}
					],
					"name": "Approval",
					"type": "event"
				},
				{
					"anonymous": false,
					"inputs": [
						{
							"indexed": true,
							"internalType": "address",
							"name": "previousOwner",
							"type": "address"
						},
						{
							"indexed": true,
							"internalType": "address",
							"name": "newOwner",
							"type": "address"
						}
					],
					"name": "OwnershipTransferred",
					"type": "event"
				},
				{
					"anonymous": false,
					"inputs": [],
					"name": "Pause",
					"type": "event"
				},
				{
					"anonymous": false,
					"inputs": [
						{
							"indexed": true,
							"internalType": "address",
							"name": "from",
							"type": "address"
						},
						{
							"indexed": true,
							"internalType": "address",
							"name": "to",
							"type": "address"
						},
						{
							"indexed": false,
							"internalType": "uint256",
							"name": "value",
							"type": "uint256"
						}
					],
					"name": "Transfer",
					"type": "event"
				},
				{
					"anonymous": false,
					"inputs": [],
					"name": "Unpause",
					"type": "event"
				},
				{
					"anonymous": false,
					"inputs": [
						{
							"indexed": false,
							"internalType": "address",
							"name": "_wallet",
							"type": "address"
						},
						{
							"indexed": false,
							"internalType": "bool",
							"name": "status",
							"type": "bool"
						}
					],
					"name": "changeBlacklist",
					"type": "event"
				},
				{
					"anonymous": false,
					"inputs": [
						{
							"indexed": false,
							"internalType": "uint8",
							"name": "tradeCooldown",
							"type": "uint8"
						}
					],
					"name": "changeCooldown",
					"type": "event"
				},
				{
					"anonymous": false,
					"inputs": [
						{
							"indexed": false,
							"internalType": "address",
							"name": "lpAddress",
							"type": "address"
						},
						{
							"indexed": false,
							"internalType": "bool",
							"name": "status",
							"type": "bool"
						}
					],
					"name": "changeLiquidityPoolStatus",
					"type": "event"
				},
				{
					"anonymous": false,
					"inputs": [
						{
							"indexed": false,
							"internalType": "address",
							"name": "marketingPool",
							"type": "address"
						}
					],
					"name": "changeMarketingPool",
					"type": "event"
				},
				{
					"anonymous": false,
					"inputs": [
						{
							"indexed": false,
							"internalType": "uint8",
							"name": "_sellTax",
							"type": "uint8"
						},
						{
							"indexed": false,
							"internalType": "uint8",
							"name": "_buyTax",
							"type": "uint8"
						},
						{
							"indexed": false,
							"internalType": "uint8",
							"name": "_transferTax",
							"type": "uint8"
						}
					],
					"name": "changeTax",
					"type": "event"
				},
				{
					"anonymous": false,
					"inputs": [
						{
							"indexed": false,
							"internalType": "address",
							"name": "_address",
							"type": "address"
						},
						{
							"indexed": false,
							"internalType": "bool",
							"name": "status",
							"type": "bool"
						}
					],
					"name": "changeWhitelistTax",
					"type": "event"
				},
				{
					"inputs": [
						{
							"internalType": "address",
							"name": "owner",
							"type": "address"
						},
						{
							"internalType": "address",
							"name": "spender",
							"type": "address"
						}
					],
					"name": "allowance",
					"outputs": [
						{
							"internalType": "uint256",
							"name": "",
							"type": "uint256"
						}
					],
					"stateMutability": "view",
					"type": "function"
				},
				{
					"inputs": [
						{
							"internalType": "address",
							"name": "spender",
							"type": "address"
						},
						{
							"internalType": "uint256",
							"name": "amount",
							"type": "uint256"
						}
					],
					"name": "approve",
					"outputs": [
						{
							"internalType": "bool",
							"name": "",
							"type": "bool"
						}
					],
					"stateMutability": "nonpayable",
					"type": "function"
				},
				{
					"inputs": [
						{
							"internalType": "address",
							"name": "account",
							"type": "address"
						}
					],
					"name": "balanceOf",
					"outputs": [
						{
							"internalType": "uint256",
							"name": "",
							"type": "uint256"
						}
					],
					"stateMutability": "view",
					"type": "function"
				},
				{
					"inputs": [],
					"name": "decimals",
					"outputs": [
						{
							"internalType": "uint8",
							"name": "",
							"type": "uint8"
						}
					],
					"stateMutability": "view",
					"type": "function"
				},
				{
					"inputs": [
						{
							"internalType": "address",
							"name": "spender",
							"type": "address"
						},
						{
							"internalType": "uint256",
							"name": "subtractedValue",
							"type": "uint256"
						}
					],
					"name": "decreaseAllowance",
					"outputs": [
						{
							"internalType": "bool",
							"name": "",
							"type": "bool"
						}
					],
					"stateMutability": "nonpayable",
					"type": "function"
				},
				{
					"inputs": [],
					"name": "getTaxes",
					"outputs": [
						{
							"internalType": "uint8",
							"name": "_sellTax",
							"type": "uint8"
						},
						{
							"internalType": "uint8",
							"name": "_buyTax",
							"type": "uint8"
						},
						{
							"internalType": "uint8",
							"name": "_transferTax",
							"type": "uint8"
						}
					],
					"stateMutability": "view",
					"type": "function"
				},
				{
					"inputs": [
						{
							"internalType": "address",
							"name": "spender",
							"type": "address"
						},
						{
							"internalType": "uint256",
							"name": "addedValue",
							"type": "uint256"
						}
					],
					"name": "increaseAllowance",
					"outputs": [
						{
							"internalType": "bool",
							"name": "",
							"type": "bool"
						}
					],
					"stateMutability": "nonpayable",
					"type": "function"
				},
				{
					"inputs": [],
					"name": "isOwner",
					"outputs": [
						{
							"internalType": "bool",
							"name": "",
							"type": "bool"
						}
					],
					"stateMutability": "view",
					"type": "function"
				},
				{
					"inputs": [],
					"name": "name",
					"outputs": [
						{
							"internalType": "string",
							"name": "",
							"type": "string"
						}
					],
					"stateMutability": "view",
					"type": "function"
				},
				{
					"inputs": [],
					"name": "owner",
					"outputs": [
						{
							"internalType": "address",
							"name": "",
							"type": "address"
						}
					],
					"stateMutability": "view",
					"type": "function"
				},
				{
					"inputs": [],
					"name": "pause",
					"outputs": [
						{
							"internalType": "bool",
							"name": "",
							"type": "bool"
						}
					],
					"stateMutability": "nonpayable",
					"type": "function"
				},
				{
					"inputs": [],
					"name": "paused",
					"outputs": [
						{
							"internalType": "bool",
							"name": "",
							"type": "bool"
						}
					],
					"stateMutability": "view",
					"type": "function"
				},
				{
					"inputs": [],
					"name": "renounceOwnership",
					"outputs": [],
					"stateMutability": "nonpayable",
					"type": "function"
				},
				{
					"inputs": [
						{
							"internalType": "address",
							"name": "_wallet",
							"type": "address"
						},
						{
							"internalType": "bool",
							"name": "_status",
							"type": "bool"
						}
					],
					"name": "setBlacklist",
					"outputs": [],
					"stateMutability": "nonpayable",
					"type": "function"
				},
				{
					"inputs": [
						{
							"internalType": "uint8",
							"name": "_tradeCooldown",
							"type": "uint8"
						}
					],
					"name": "setCooldownForTrades",
					"outputs": [],
					"stateMutability": "nonpayable",
					"type": "function"
				},
				{
					"inputs": [
						{
							"internalType": "address",
							"name": "_lpAddress",
							"type": "address"
						},
						{
							"internalType": "bool",
							"name": "_status",
							"type": "bool"
						}
					],
					"name": "setLiquidityPoolStatus",
					"outputs": [],
					"stateMutability": "nonpayable",
					"type": "function"
				},
				{
					"inputs": [
						{
							"internalType": "address",
							"name": "_marketingPool",
							"type": "address"
						}
					],
					"name": "setMarketingPool",
					"outputs": [],
					"stateMutability": "nonpayable",
					"type": "function"
				},
				{
					"inputs": [
						{
							"internalType": "uint8",
							"name": "_sellTax",
							"type": "uint8"
						},
						{
							"internalType": "uint8",
							"name": "_buyTax",
							"type": "uint8"
						},
						{
							"internalType": "uint8",
							"name": "_transferTax",
							"type": "uint8"
						}
					],
					"name": "setTaxes",
					"outputs": [],
					"stateMutability": "nonpayable",
					"type": "function"
				},
				{
					"inputs": [
						{
							"internalType": "address",
							"name": "_address",
							"type": "address"
						},
						{
							"internalType": "bool",
							"name": "_status",
							"type": "bool"
						}
					],
					"name": "setWhitelist",
					"outputs": [],
					"stateMutability": "nonpayable",
					"type": "function"
				},
				{
					"inputs": [],
					"name": "symbol",
					"outputs": [
						{
							"internalType": "string",
							"name": "",
							"type": "string"
						}
					],
					"stateMutability": "view",
					"type": "function"
				},
				{
					"inputs": [],
					"name": "totalSupply",
					"outputs": [
						{
							"internalType": "uint256",
							"name": "",
							"type": "uint256"
						}
					],
					"stateMutability": "view",
					"type": "function"
				},
				{
					"inputs": [
						{
							"internalType": "address",
							"name": "recipient",
							"type": "address"
						},
						{
							"internalType": "uint256",
							"name": "amount",
							"type": "uint256"
						}
					],
					"name": "transfer",
					"outputs": [
						{
							"internalType": "bool",
							"name": "",
							"type": "bool"
						}
					],
					"stateMutability": "nonpayable",
					"type": "function"
				},
				{
					"inputs": [
						{
							"internalType": "address",
							"name": "sender",
							"type": "address"
						},
						{
							"internalType": "address",
							"name": "recipient",
							"type": "address"
						},
						{
							"internalType": "uint256",
							"name": "amount",
							"type": "uint256"
						}
					],
					"name": "transferFrom",
					"outputs": [
						{
							"internalType": "bool",
							"name": "",
							"type": "bool"
						}
					],
					"stateMutability": "nonpayable",
					"type": "function"
				},
				{
					"inputs": [
						{
							"internalType": "address",
							"name": "newOwner",
							"type": "address"
						}
					],
					"name": "transferOwnership",
					"outputs": [],
					"stateMutability": "nonpayable",
					"type": "function"
				},
				{
					"inputs": [],
					"name": "unpause",
					"outputs": [
						{
							"internalType": "bool",
							"name": "",
							"type": "bool"
						}
					],
					"stateMutability": "nonpayable",
					"type": "function"
				}
			],
			"devdoc": {
				"kind": "dev",
				"methods": {
					"allowance(address,address)": {
						"details": "See {IBEP20-allowance}."
					},
					"approve(address,uint256)": {
						"details": "See {IBEP20-approve}. Requirements: - `spender` cannot be the zero address."
					},
					"balanceOf(address)": {
						"details": "See {IBEP20-balanceOf}."
					},
					"decimals()": {
						"details": "Returns the number of decimals used to get its user representation. For example, if `decimals` equals `2`, a balance of `505` tokens should be displayed to a user as `5,05` (`505 / 10 ** 2`). Tokens usually opt for a value of 18, imitating the relationship between Ether and Wei. NOTE: This information is only used for _display_ purposes: it in no way affects any of the arithmetic of the contract, including {IBEP20-balanceOf} and {IBEP20-transfer}."
					},
					"decreaseAllowance(address,uint256)": {
						"details": "Atomically decreases the allowance granted to `spender` by the caller. This is an alternative to {approve} that can be used as a mitigation for problems described in {IBEP20-approve}. Emits an {Approval} event indicating the updated allowance. Requirements: - `spender` cannot be the zero address. - `spender` must have allowance for the caller of at least `subtractedValue`."
					},
					"increaseAllowance(address,uint256)": {
						"details": "Atomically increases the allowance granted to `spender` by the caller. This is an alternative to {approve} that can be used as a mitigation for problems described in {IBEP20-approve}. Emits an {Approval} event indicating the updated allowance. Requirements: - `spender` cannot be the zero address."
					},
					"isOwner()": {
						"details": "Returns true if the caller is the current owner."
					},
					"name()": {
						"details": "Returns the name of the token."
					},
					"owner()": {
						"details": "Returns the address of the current owner."
					},
					"pause()": {
						"details": "called by the owner to pause, triggers stopped state"
					},
					"renounceOwnership()": {
						"details": "Leaves the contract without owner. It will not be possible to call `onlyOwner` functions anymore. Can only be called by the current owner. NOTE: Renouncing ownership will leave the contract without an owner, thereby removing any functionality that is only available to the owner."
					},
					"symbol()": {
						"details": "Returns the symbol of the token, usually a shorter version of the name."
					},
					"totalSupply()": {
						"details": "See {IBEP20-totalSupply}."
					},
					"transfer(address,uint256)": {
						"details": "See {IBEP20-transfer}. Requirements: - `recipient` cannot be the zero address. - the caller must have a balance of at least `amount`."
					},
					"transferFrom(address,address,uint256)": {
						"details": "See {IBEP20-transferFrom}. Emits an {Approval} event indicating the updated allowance. This is not required by the EIP. See the note at the beginning of {BEP20}; Requirements: - `sender` and `recipient` cannot be the zero address. - `sender` must have a balance of at least `amount`. - the caller must have allowance for `sender`'s tokens of at least `amount`."
					},
					"transferOwnership(address)": {
						"details": "Transfers ownership of the contract to a new account (`newOwner`). Can only be called by the current owner."
					},
					"unpause()": {
						"details": "called by the owner to unpause, returns to normal state"
					}
				},
				"version": 1
			},
			"evm": {
				"assembly": "    /* \"VIMToken.sol\":114:3483  contract VIMToken is BEP20Detailed, BEP20 {... */\n  mstore(0x40, 0x80)\n    /* \"BEPPausable.sol\":293:298  false */\n  0x00\n    /* \"BEPPausable.sol\":272:298  bool public paused = false */\n  0x02\n  exp(0x0100, 0x15)\n  dup2\n  sload\n  dup2\n  0xff\n  mul\n  not\n  and\n  swap1\n  dup4\n  iszero\n  iszero\n  mul\n  or\n  swap1\n  sstore\n  pop\n    /* \"VIMToken.sol\":535:542  owner() */\n  tag_1\n    /* \"VIMToken.sol\":535:540  owner */\n  shl(0x20, tag_2)\n    /* \"VIMToken.sol\":535:542  owner() */\n  0x20\n  shr\n  jump\t// in\ntag_1:\n    /* \"VIMToken.sol\":503:542  address private marketingPool = owner() */\n  0x0c\n  exp(0x0100, 0x00)\n  dup2\n  sload\n  dup2\n  0xffffffffffffffffffffffffffffffffffffffff\n  mul\n  not\n  and\n  swap1\n  dup4\n  0xffffffffffffffffffffffffffffffffffffffff\n  and\n  mul\n  or\n  swap1\n  sstore\n  pop\n    /* \"VIMToken.sol\":900:1131  constructor() BEP20Detailed(\"VicMove\", \"VIM\", 18) {... */\n  callvalue\n  dup1\n  iszero\n  tag_3\n  jumpi\n  0x00\n  dup1\n  revert\ntag_3:\n  pop\n    /* \"BEP20Detailed.sol\":404:567  constructor(... */\n  mload(0x40)\n  dup1\n  0x40\n  add\n  0x40\n  mstore\n  dup1\n  0x07\n  dup2\n  mstore\n  0x20\n  add\n  0x5669634d6f766500000000000000000000000000000000000000000000000000\n  dup2\n  mstore\n  pop\n  mload(0x40)\n  dup1\n  0x40\n  add\n  0x40\n  mstore\n  dup1\n  0x03\n  dup2\n  mstore\n  0x20\n  add\n  0x56494d0000000000000000000000000000000000000000000000000000000000\n  dup2\n  mstore\n  pop\n    /* \"VIMToken.sol\":946:948  18 */\n  0x12\n    /* \"BEP20Detailed.sol\":507:512  name_ */\n  dup3\n    /* \"BEP20Detailed.sol\":499:504  _name */\n  0x00\n    /* \"BEP20Detailed.sol\":499:512  _name = name_ */\n  swap1\n  dup1\n  mload\n  swap1\n  0x20\n  add\n  swap1\n  tag_9\n  swap3\n  swap2\n  swap1\n  tag_10\n  jump\t// in\ntag_9:\n  pop\n    /* \"BEP20Detailed.sol\":528:535  symbol_ */\n  dup2\n    /* \"BEP20Detailed.sol\":518:525  _symbol */\n  0x01\n    /* \"BEP20Detailed.sol\":518:535  _symbol = symbol_ */\n  swap1\n  dup1\n  mload\n  swap1\n  0x20\n  add\n  swap1\n  tag_11\n  swap3\n  swap2\n  swap1\n  tag_10\n  jump\t// in\ntag_11:\n  pop\n    /* \"BEP20Detailed.sol\":553:562  decimals_ */\n  dup1\n    /* \"BEP20Detailed.sol\":541:550  _decimals */\n  0x02\n  0x00\n    /* \"BEP20Detailed.sol\":541:562  _decimals = decimals_ */\n  0x0100\n  exp\n  dup2\n  sload\n  dup2\n  0xff\n  mul\n  not\n  and\n  swap1\n  dup4\n  0xff\n  and\n  mul\n  or\n  swap1\n  sstore\n  pop\n    /* \"BEP20Detailed.sol\":404:567  constructor(... */\n  pop\n  pop\n  pop\n    /* \"BEPOwnable.sol\":716:733  address msgSender */\n  0x00\n    /* \"BEPOwnable.sol\":736:748  _msgSender() */\n  tag_14\n    /* \"BEPOwnable.sol\":736:746  _msgSender */\n  shl(0x20, tag_15)\n    /* \"BEPOwnable.sol\":736:748  _msgSender() */\n  0x20\n  shr\n  jump\t// in\ntag_14:\n    /* \"BEPOwnable.sol\":716:748  address msgSender = _msgSender() */\n  swap1\n  pop\n    /* \"BEPOwnable.sol\":763:772  msgSender */\n  dup1\n    /* \"BEPOwnable.sol\":754:760  _owner */\n  0x02\n  0x01\n    /* \"BEPOwnable.sol\":754:772  _owner = msgSender */\n  0x0100\n  exp\n  dup2\n  sload\n  dup2\n  0xffffffffffffffffffffffffffffffffffffffff\n  mul\n  not\n  and\n  swap1\n  dup4\n  0xffffffffffffffffffffffffffffffffffffffff\n  and\n  mul\n  or\n  swap1\n  sstore\n  pop\n    /* \"BEPOwnable.sol\":816:825  msgSender */\n  dup1\n    /* \"BEPOwnable.sol\":783:826  OwnershipTransferred(address(0), msgSender) */\n  0xffffffffffffffffffffffffffffffffffffffff\n  and\n    /* \"BEPOwnable.sol\":812:813  0 */\n  0x00\n    /* \"BEPOwnable.sol\":783:826  OwnershipTransferred(address(0), msgSender) */\n  0xffffffffffffffffffffffffffffffffffffffff\n  and\n  0x8be0079c531659141344cd1fd0a4f28419497f9722a3daafe3b4186f6b6457e0\n  mload(0x40)\n  mload(0x40)\n  dup1\n  swap2\n  sub\n  swap1\n  log3\n    /* \"BEPOwnable.sol\":710:831  {... */\n  pop\n    /* \"VIMToken.sol\":956:975  uint256 totalTokens */\n  0x00\n    /* \"VIMToken.sol\":1001:1011  decimals() */\n  tag_17\n    /* \"VIMToken.sol\":1001:1009  decimals */\n  shl(0x20, tag_18)\n    /* \"VIMToken.sol\":1001:1011  decimals() */\n  0x20\n  shr\n  jump\t// in\ntag_17:\n    /* \"VIMToken.sol\":993:1012  uint256(decimals()) */\n  0xff\n  and\n    /* \"VIMToken.sol\":989:991  10 */\n  0x0a\n    /* \"VIMToken.sol\":989:1012  10**uint256(decimals()) */\n  tag_19\n  swap2\n  swap1\n  tag_20\n  jump\t// in\ntag_19:\n    /* \"VIMToken.sol\":978:986  20000000 */\n  0x01312d00\n    /* \"VIMToken.sol\":978:1012  20000000 * 10**uint256(decimals()) */\n  tag_21\n  swap2\n  swap1\n  tag_22\n  jump\t// in\ntag_21:\n    /* \"VIMToken.sol\":956:1012  uint256 totalTokens = 20000000 * 10**uint256(decimals()) */\n  swap1\n  pop\n    /* \"VIMToken.sol\":1018:1048  _mint(msg.sender, totalTokens) */\n  tag_23\n    /* \"VIMToken.sol\":1024:1034  msg.sender */\n  caller\n    /* \"VIMToken.sol\":1036:1047  totalTokens */\n  dup3\n    /* \"VIMToken.sol\":1018:1023  _mint */\n  shl(0x20, tag_24)\n    /* \"VIMToken.sol\":1018:1048  _mint(msg.sender, totalTokens) */\n  0x20\n  shr\n  jump\t// in\ntag_23:\n    /* \"VIMToken.sol\":1064:1065  3 */\n  0x03\n    /* \"VIMToken.sol\":1054:1061  sellTax */\n  0x0a\n  0x01\n    /* \"VIMToken.sol\":1054:1065  sellTax = 3 */\n  0x0100\n  exp\n  dup2\n  sload\n  dup2\n  0xff\n  mul\n  not\n  and\n  swap1\n  dup4\n  0xff\n  and\n  mul\n  or\n  swap1\n  sstore\n  pop\n    /* \"VIMToken.sol\":1080:1081  0 */\n  0x00\n    /* \"VIMToken.sol\":1071:1077  buyTax */\n  0x0a\n  0x00\n    /* \"VIMToken.sol\":1071:1081  buyTax = 0 */\n  0x0100\n  exp\n  dup2\n  sload\n  dup2\n  0xff\n  mul\n  not\n  and\n  swap1\n  dup4\n  0xff\n  and\n  mul\n  or\n  swap1\n  sstore\n  pop\n    /* \"VIMToken.sol\":1101:1102  0 */\n  0x00\n    /* \"VIMToken.sol\":1087:1098  transferTax */\n  0x0a\n  0x03\n    /* \"VIMToken.sol\":1087:1102  transferTax = 0 */\n  0x0100\n  exp\n  dup2\n  sload\n  dup2\n  0xff\n  mul\n  not\n  and\n  swap1\n  dup4\n  0xff\n  and\n  mul\n  or\n  swap1\n  sstore\n  pop\n    /* \"VIMToken.sol\":1124:1126  15 */\n  0x0f\n    /* \"VIMToken.sol\":1108:1121  tradeCooldown */\n  0x0a\n  0x02\n    /* \"VIMToken.sol\":1108:1126  tradeCooldown = 15 */\n  0x0100\n  exp\n  dup2\n  sload\n  dup2\n  0xff\n  mul\n  not\n  and\n  swap1\n  dup4\n  0xff\n  and\n  mul\n  or\n  swap1\n  sstore\n  pop\n    /* \"VIMToken.sol\":950:1131  {... */\n  pop\n    /* \"VIMToken.sol\":114:3483  contract VIMToken is BEP20Detailed, BEP20 {... */\n  jump(tag_25)\n    /* \"BEPOwnable.sol\":899:970  function owner() public view returns (address) {... */\ntag_2:\n    /* \"BEPOwnable.sol\":937:944  address */\n  0x00\n    /* \"BEPOwnable.sol\":959:965  _owner */\n  0x02\n  0x01\n  swap1\n  sload\n  swap1\n  0x0100\n  exp\n  swap1\n  div\n  0xffffffffffffffffffffffffffffffffffffffff\n  and\n    /* \"BEPOwnable.sol\":952:965  return _owner */\n  swap1\n  pop\n    /* \"BEPOwnable.sol\":899:970  function owner() public view returns (address) {... */\n  swap1\n  jump\t// out\n    /* \"BEPContext.sol\":760:859  function _msgSender() internal view returns (address payable) {... */\ntag_15:\n    /* \"BEPContext.sol\":805:820  address payable */\n  0x00\n    /* \"BEPContext.sol\":843:853  msg.sender */\n  caller\n    /* \"BEPContext.sol\":828:854  return payable(msg.sender) */\n  swap1\n  pop\n    /* \"BEPContext.sol\":760:859  function _msgSender() internal view returns (address payable) {... */\n  swap1\n  jump\t// out\n    /* \"BEP20Detailed.sol\":1404:1479  function decimals() public view returns (uint8) {... */\ntag_18:\n    /* \"BEP20Detailed.sol\":1445:1450  uint8 */\n  0x00\n    /* \"BEP20Detailed.sol\":1465:1474  _decimals */\n  0x02\n  0x00\n  swap1\n  sload\n  swap1\n  0x0100\n  exp\n  swap1\n  div\n  0xff\n  and\n    /* \"BEP20Detailed.sol\":1458:1474  return _decimals */\n  swap1\n  pop\n    /* \"BEP20Detailed.sol\":1404:1479  function decimals() public view returns (uint8) {... */\n  swap1\n  jump\t// out\n    /* \"BEP20.sol\":5784:6068  function _mint(address account, uint256 amount) internal {... */\ntag_24:\n    /* \"BEP20.sol\":5874:5875  0 */\n  0x00\n    /* \"BEP20.sol\":5855:5876  account != address(0) */\n  0xffffffffffffffffffffffffffffffffffffffff\n  and\n    /* \"BEP20.sol\":5855:5862  account */\n  dup3\n    /* \"BEP20.sol\":5855:5876  account != address(0) */\n  0xffffffffffffffffffffffffffffffffffffffff\n  and\n  eq\n  iszero\n    /* \"BEP20.sol\":5847:5912  require(account != address(0), \"BEP20: mint to the zero address\") */\n  tag_30\n  jumpi\n  mload(0x40)\n  0x08c379a000000000000000000000000000000000000000000000000000000000\n  dup2\n  mstore\n  0x04\n  add\n  tag_31\n  swap1\n  tag_32\n  jump\t// in\ntag_31:\n  mload(0x40)\n  dup1\n  swap2\n  sub\n  swap1\n  revert\ntag_30:\n    /* \"BEP20.sol\":5934:5958  _totalSupply.add(amount) */\n  tag_33\n    /* \"BEP20.sol\":5951:5957  amount */\n  dup2\n    /* \"BEP20.sol\":5934:5946  _totalSupply */\n  sload(0x05)\n    /* \"BEP20.sol\":5934:5950  _totalSupply.add */\n  or(tag_0_126, shl(0x20, tag_34))\n  swap1\n    /* \"BEP20.sol\":5934:5958  _totalSupply.add(amount) */\n  swap2\n  swap1\n  0x20\n  shr\n  jump\t// in\ntag_33:\n    /* \"BEP20.sol\":5919:5931  _totalSupply */\n  0x05\n    /* \"BEP20.sol\":5919:5958  _totalSupply = _totalSupply.add(amount) */\n  dup2\n  swap1\n  sstore\n  pop\n    /* \"BEP20.sol\":5985:6015  _balances[account].add(amount) */\n  tag_35\n    /* \"BEP20.sol\":6008:6014  amount */\n  dup2\n    /* \"BEP20.sol\":5985:5994  _balances */\n  0x03\n    /* \"BEP20.sol\":5985:6003  _balances[account] */\n  0x00\n    /* \"BEP20.sol\":5995:6002  account */\n  dup6\n    /* \"BEP20.sol\":5985:6003  _balances[account] */\n  0xffffffffffffffffffffffffffffffffffffffff\n  and\n  0xffffffffffffffffffffffffffffffffffffffff\n  and\n  dup2\n  mstore\n  0x20\n  add\n  swap1\n  dup2\n  mstore\n  0x20\n  add\n  0x00\n  keccak256\n  sload\n    /* \"BEP20.sol\":5985:6007  _balances[account].add */\n  or(tag_0_126, shl(0x20, tag_34))\n  swap1\n    /* \"BEP20.sol\":5985:6015  _balances[account].add(amount) */\n  swap2\n  swap1\n  0x20\n  shr\n  jump\t// in\ntag_35:\n    /* \"BEP20.sol\":5964:5973  _balances */\n  0x03\n    /* \"BEP20.sol\":5964:5982  _balances[account] */\n  0x00\n    /* \"BEP20.sol\":5974:5981  account */\n  dup5\n    /* \"BEP20.sol\":5964:5982  _balances[account] */\n  0xffffffffffffffffffffffffffffffffffffffff\n  and\n  0xffffffffffffffffffffffffffffffffffffffff\n  and\n  dup2\n  mstore\n  0x20\n  add\n  swap1\n  dup2\n  mstore\n  0x20\n  add\n  0x00\n  keccak256\n    /* \"BEP20.sol\":5964:6015  _balances[account] = _balances[account].add(amount) */\n  dup2\n  swap1\n  sstore\n  pop\n    /* \"BEP20.sol\":6047:6054  account */\n  dup2\n    /* \"BEP20.sol\":6026:6063  Transfer(address(0), account, amount) */\n  0xffffffffffffffffffffffffffffffffffffffff\n  and\n    /* \"BEP20.sol\":6043:6044  0 */\n  0x00\n    /* \"BEP20.sol\":6026:6063  Transfer(address(0), account, amount) */\n  0xffffffffffffffffffffffffffffffffffffffff\n  and\n  0xddf252ad1be2c89b69c2b068fc378daa952ba7f163c4a11628f55a4df523b3ef\n    /* \"BEP20.sol\":6056:6062  amount */\n  dup4\n    /* \"BEP20.sol\":6026:6063  Transfer(address(0), account, amount) */\n  mload(0x40)\n  tag_36\n  swap2\n  swap1\n  tag_37\n  jump\t// in\ntag_36:\n  mload(0x40)\n  dup1\n  swap2\n  sub\n  swap1\n  log3\n    /* \"BEP20.sol\":5784:6068  function _mint(address account, uint256 amount) internal {... */\n  pop\n  pop\n  jump\t// out\n    /* \"SafeMath.sol\":858:1020  function add(uint256 a, uint256 b) internal pure returns (uint256) {... */\ntag_34:\n    /* \"SafeMath.sol\":916:923  uint256 */\n  0x00\n    /* \"SafeMath.sol\":931:940  uint256 c */\n  dup1\n    /* \"SafeMath.sol\":947:948  b */\n  dup3\n    /* \"SafeMath.sol\":943:944  a */\n  dup5\n    /* \"SafeMath.sol\":943:948  a + b */\n  tag_39\n  swap2\n  swap1\n  tag_40\n  jump\t// in\ntag_39:\n    /* \"SafeMath.sol\":931:948  uint256 c = a + b */\n  swap1\n  pop\n    /* \"SafeMath.sol\":967:968  a */\n  dup4\n    /* \"SafeMath.sol\":962:963  c */\n  dup2\n    /* \"SafeMath.sol\":962:968  c >= a */\n  lt\n  iszero\n    /* \"SafeMath.sol\":954:1000  require(c >= a, \"SafeMath: addition overflow\") */\n  tag_41\n  jumpi\n  mload(0x40)\n  0x08c379a000000000000000000000000000000000000000000000000000000000\n  dup2\n  mstore\n  0x04\n  add\n  tag_42\n  swap1\n  tag_43\n  jump\t// in\ntag_42:\n  mload(0x40)\n  dup1\n  swap2\n  sub\n  swap1\n  revert\ntag_41:\n    /* \"SafeMath.sol\":1014:1015  c */\n  dup1\n    /* \"SafeMath.sol\":1007:1015  return c */\n  swap2\n  pop\n  pop\n    /* \"SafeMath.sol\":858:1020  function add(uint256 a, uint256 b) internal pure returns (uint256) {... */\n  swap3\n  swap2\n  pop\n  pop\n  jump\t// out\n    /* \"VIMToken.sol\":114:3483  contract VIMToken is BEP20Detailed, BEP20 {... */\ntag_10:\n  dup3\n  dup1\n  sload\n  tag_44\n  swap1\n  tag_45\n  jump\t// in\ntag_44:\n  swap1\n  0x00\n  mstore\n  keccak256(0x00, 0x20)\n  swap1\n  0x1f\n  add\n  0x20\n  swap1\n  div\n  dup2\n  add\n  swap3\n  dup3\n  tag_47\n  jumpi\n  0x00\n  dup6\n  sstore\n  jump(tag_46)\ntag_47:\n  dup3\n  0x1f\n  lt\n  tag_48\n  jumpi\n  dup1\n  mload\n  not(0xff)\n  and\n  dup4\n  dup1\n  add\n  or\n  dup6\n  sstore\n  jump(tag_46)\ntag_48:\n  dup3\n  dup1\n  add\n  0x01\n  add\n  dup6\n  sstore\n  dup3\n  iszero\n  tag_46\n  jumpi\n  swap2\n  dup3\n  add\ntag_49:\n  dup3\n  dup2\n  gt\n  iszero\n  tag_50\n  jumpi\n  dup3\n  mload\n  dup3\n  sstore\n  swap2\n  0x20\n  add\n  swap2\n  swap1\n  0x01\n  add\n  swap1\n  jump(tag_49)\ntag_50:\ntag_46:\n  pop\n  swap1\n  pop\n  tag_51\n  swap2\n  swap1\n  tag_52\n  jump\t// in\ntag_51:\n  pop\n  swap1\n  jump\t// out\ntag_52:\ntag_53:\n  dup1\n  dup3\n  gt\n  iszero\n  tag_54\n  jumpi\n  0x00\n  dup2\n  0x00\n  swap1\n  sstore\n  pop\n  0x01\n  add\n  jump(tag_53)\ntag_54:\n  pop\n  swap1\n  jump\t// out\n    /* \"#utility.yul\":7:373   */\ntag_56:\n    /* \"#utility.yul\":149:152   */\n  0x00\n    /* \"#utility.yul\":170:237   */\n  tag_58\n    /* \"#utility.yul\":234:236   */\n  0x1b\n    /* \"#utility.yul\":229:232   */\n  dup4\n    /* \"#utility.yul\":170:237   */\n  tag_59\n  jump\t// in\ntag_58:\n    /* \"#utility.yul\":163:237   */\n  swap2\n  pop\n    /* \"#utility.yul\":246:339   */\n  tag_60\n    /* \"#utility.yul\":335:338   */\n  dup3\n    /* \"#utility.yul\":246:339   */\n  tag_61\n  jump\t// in\ntag_60:\n    /* \"#utility.yul\":364:366   */\n  0x20\n    /* \"#utility.yul\":359:362   */\n  dup3\n    /* \"#utility.yul\":355:367   */\n  add\n    /* \"#utility.yul\":348:367   */\n  swap1\n  pop\n    /* \"#utility.yul\":7:373   */\n  swap2\n  swap1\n  pop\n  jump\t// out\n    /* \"#utility.yul\":379:745   */\ntag_62:\n    /* \"#utility.yul\":521:524   */\n  0x00\n    /* \"#utility.yul\":542:609   */\n  tag_64\n    /* \"#utility.yul\":606:608   */\n  0x1f\n    /* \"#utility.yul\":601:604   */\n  dup4\n    /* \"#utility.yul\":542:609   */\n  tag_59\n  jump\t// in\ntag_64:\n    /* \"#utility.yul\":535:609   */\n  swap2\n  pop\n    /* \"#utility.yul\":618:711   */\n  tag_65\n    /* \"#utility.yul\":707:710   */\n  dup3\n    /* \"#utility.yul\":618:711   */\n  tag_66\n  jump\t// in\ntag_65:\n    /* \"#utility.yul\":736:738   */\n  0x20\n    /* \"#utility.yul\":731:734   */\n  dup3\n    /* \"#utility.yul\":727:739   */\n  add\n    /* \"#utility.yul\":720:739   */\n  swap1\n  pop\n    /* \"#utility.yul\":379:745   */\n  swap2\n  swap1\n  pop\n  jump\t// out\n    /* \"#utility.yul\":751:869   */\ntag_67:\n    /* \"#utility.yul\":838:862   */\n  tag_69\n    /* \"#utility.yul\":856:861   */\n  dup2\n    /* \"#utility.yul\":838:862   */\n  tag_70\n  jump\t// in\ntag_69:\n    /* \"#utility.yul\":833:836   */\n  dup3\n    /* \"#utility.yul\":826:863   */\n  mstore\n    /* \"#utility.yul\":751:869   */\n  pop\n  pop\n  jump\t// out\n    /* \"#utility.yul\":875:1294   */\ntag_43:\n    /* \"#utility.yul\":1041:1045   */\n  0x00\n    /* \"#utility.yul\":1079:1081   */\n  0x20\n    /* \"#utility.yul\":1068:1077   */\n  dup3\n    /* \"#utility.yul\":1064:1082   */\n  add\n    /* \"#utility.yul\":1056:1082   */\n  swap1\n  pop\n    /* \"#utility.yul\":1128:1137   */\n  dup2\n    /* \"#utility.yul\":1122:1126   */\n  dup2\n    /* \"#utility.yul\":1118:1138   */\n  sub\n    /* \"#utility.yul\":1114:1115   */\n  0x00\n    /* \"#utility.yul\":1103:1112   */\n  dup4\n    /* \"#utility.yul\":1099:1116   */\n  add\n    /* \"#utility.yul\":1092:1139   */\n  mstore\n    /* \"#utility.yul\":1156:1287   */\n  tag_72\n    /* \"#utility.yul\":1282:1286   */\n  dup2\n    /* \"#utility.yul\":1156:1287   */\n  tag_56\n  jump\t// in\ntag_72:\n    /* \"#utility.yul\":1148:1287   */\n  swap1\n  pop\n    /* \"#utility.yul\":875:1294   */\n  swap2\n  swap1\n  pop\n  jump\t// out\n    /* \"#utility.yul\":1300:1719   */\ntag_32:\n    /* \"#utility.yul\":1466:1470   */\n  0x00\n    /* \"#utility.yul\":1504:1506   */\n  0x20\n    /* \"#utility.yul\":1493:1502   */\n  dup3\n    /* \"#utility.yul\":1489:1507   */\n  add\n    /* \"#utility.yul\":1481:1507   */\n  swap1\n  pop\n    /* \"#utility.yul\":1553:1562   */\n  dup2\n    /* \"#utility.yul\":1547:1551   */\n  dup2\n    /* \"#utility.yul\":1543:1563   */\n  sub\n    /* \"#utility.yul\":1539:1540   */\n  0x00\n    /* \"#utility.yul\":1528:1537   */\n  dup4\n    /* \"#utility.yul\":1524:1541   */\n  add\n    /* \"#utility.yul\":1517:1564   */\n  mstore\n    /* \"#utility.yul\":1581:1712   */\n  tag_74\n    /* \"#utility.yul\":1707:1711   */\n  dup2\n    /* \"#utility.yul\":1581:1712   */\n  tag_62\n  jump\t// in\ntag_74:\n    /* \"#utility.yul\":1573:1712   */\n  swap1\n  pop\n    /* \"#utility.yul\":1300:1719   */\n  swap2\n  swap1\n  pop\n  jump\t// out\n    /* \"#utility.yul\":1725:1947   */\ntag_37:\n    /* \"#utility.yul\":1818:1822   */\n  0x00\n    /* \"#utility.yul\":1856:1858   */\n  0x20\n    /* \"#utility.yul\":1845:1854   */\n  dup3\n    /* \"#utility.yul\":1841:1859   */\n  add\n    /* \"#utility.yul\":1833:1859   */\n  swap1\n  pop\n    /* \"#utility.yul\":1869:1940   */\n  tag_76\n    /* \"#utility.yul\":1937:1938   */\n  0x00\n    /* \"#utility.yul\":1926:1935   */\n  dup4\n    /* \"#utility.yul\":1922:1939   */\n  add\n    /* \"#utility.yul\":1913:1919   */\n  dup5\n    /* \"#utility.yul\":1869:1940   */\n  tag_67\n  jump\t// in\ntag_76:\n    /* \"#utility.yul\":1725:1947   */\n  swap3\n  swap2\n  pop\n  pop\n  jump\t// out\n    /* \"#utility.yul\":1953:2122   */\ntag_59:\n    /* \"#utility.yul\":2037:2048   */\n  0x00\n    /* \"#utility.yul\":2071:2077   */\n  dup3\n    /* \"#utility.yul\":2066:2069   */\n  dup3\n    /* \"#utility.yul\":2059:2078   */\n  mstore\n    /* \"#utility.yul\":2111:2115   */\n  0x20\n    /* \"#utility.yul\":2106:2109   */\n  dup3\n    /* \"#utility.yul\":2102:2116   */\n  add\n    /* \"#utility.yul\":2087:2116   */\n  swap1\n  pop\n    /* \"#utility.yul\":1953:2122   */\n  swap3\n  swap2\n  pop\n  pop\n  jump\t// out\n    /* \"#utility.yul\":2128:2433   */\ntag_40:\n    /* \"#utility.yul\":2168:2171   */\n  0x00\n    /* \"#utility.yul\":2187:2207   */\n  tag_79\n    /* \"#utility.yul\":2205:2206   */\n  dup3\n    /* \"#utility.yul\":2187:2207   */\n  tag_70\n  jump\t// in\ntag_79:\n    /* \"#utility.yul\":2182:2207   */\n  swap2\n  pop\n    /* \"#utility.yul\":2221:2241   */\n  tag_80\n    /* \"#utility.yul\":2239:2240   */\n  dup4\n    /* \"#utility.yul\":2221:2241   */\n  tag_70\n  jump\t// in\ntag_80:\n    /* \"#utility.yul\":2216:2241   */\n  swap3\n  pop\n    /* \"#utility.yul\":2375:2376   */\n  dup3\n    /* \"#utility.yul\":2307:2373   */\n  0xffffffffffffffffffffffffffffffffffffffffffffffffffffffffffffffff\n    /* \"#utility.yul\":2303:2377   */\n  sub\n    /* \"#utility.yul\":2300:2301   */\n  dup3\n    /* \"#utility.yul\":2297:2378   */\n  gt\n    /* \"#utility.yul\":2294:2401   */\n  iszero\n  tag_81\n  jumpi\n    /* \"#utility.yul\":2381:2399   */\n  tag_82\n  tag_83\n  jump\t// in\ntag_82:\n    /* \"#utility.yul\":2294:2401   */\ntag_81:\n    /* \"#utility.yul\":2425:2426   */\n  dup3\n    /* \"#utility.yul\":2422:2423   */\n  dup3\n    /* \"#utility.yul\":2418:2427   */\n  add\n    /* \"#utility.yul\":2411:2427   */\n  swap1\n  pop\n    /* \"#utility.yul\":2128:2433   */\n  swap3\n  swap2\n  pop\n  pop\n  jump\t// out\n    /* \"#utility.yul\":2439:3287   */\ntag_84:\n    /* \"#utility.yul\":2500:2505   */\n  0x00\n    /* \"#utility.yul\":2507:2511   */\n  dup1\n    /* \"#utility.yul\":2531:2537   */\n  dup3\n    /* \"#utility.yul\":2522:2537   */\n  swap2\n  pop\n    /* \"#utility.yul\":2555:2560   */\n  dup4\n    /* \"#utility.yul\":2546:2560   */\n  swap1\n  pop\n    /* \"#utility.yul\":2569:3281   */\ntag_86:\n    /* \"#utility.yul\":2590:2591   */\n  0x01\n    /* \"#utility.yul\":2580:2588   */\n  dup6\n    /* \"#utility.yul\":2577:2592   */\n  gt\n    /* \"#utility.yul\":2569:3281   */\n  iszero\n  tag_88\n  jumpi\n    /* \"#utility.yul\":2685:2689   */\n  dup1\n    /* \"#utility.yul\":2680:2683   */\n  dup7\n    /* \"#utility.yul\":2676:2690   */\n  div\n    /* \"#utility.yul\":2670:2674   */\n  dup2\n    /* \"#utility.yul\":2667:2691   */\n  gt\n    /* \"#utility.yul\":2664:2714   */\n  iszero\n  tag_89\n  jumpi\n    /* \"#utility.yul\":2694:2712   */\n  tag_90\n  tag_83\n  jump\t// in\ntag_90:\n    /* \"#utility.yul\":2664:2714   */\ntag_89:\n    /* \"#utility.yul\":2744:2745   */\n  0x01\n    /* \"#utility.yul\":2734:2742   */\n  dup6\n    /* \"#utility.yul\":2730:2746   */\n  and\n    /* \"#utility.yul\":2727:3178   */\n  iszero\n  tag_91\n  jumpi\n    /* \"#utility.yul\":3159:3163   */\n  dup1\n    /* \"#utility.yul\":3152:3157   */\n  dup3\n    /* \"#utility.yul\":3148:3164   */\n  mul\n    /* \"#utility.yul\":3139:3164   */\n  swap2\n  pop\n    /* \"#utility.yul\":2727:3178   */\ntag_91:\n    /* \"#utility.yul\":3209:3213   */\n  dup1\n    /* \"#utility.yul\":3203:3207   */\n  dup2\n    /* \"#utility.yul\":3199:3214   */\n  mul\n    /* \"#utility.yul\":3191:3214   */\n  swap1\n  pop\n    /* \"#utility.yul\":3239:3271   */\n  tag_92\n    /* \"#utility.yul\":3262:3270   */\n  dup6\n    /* \"#utility.yul\":3239:3271   */\n  tag_93\n  jump\t// in\ntag_92:\n    /* \"#utility.yul\":3227:3271   */\n  swap5\n  pop\n    /* \"#utility.yul\":2569:3281   */\n  jump(tag_86)\ntag_88:\n    /* \"#utility.yul\":2439:3287   */\n  swap5\n  pop\n  swap5\n  swap3\n  pop\n  pop\n  pop\n  jump\t// out\n    /* \"#utility.yul\":3293:3578   */\ntag_20:\n    /* \"#utility.yul\":3353:3358   */\n  0x00\n    /* \"#utility.yul\":3377:3400   */\n  tag_95\n    /* \"#utility.yul\":3395:3399   */\n  dup3\n    /* \"#utility.yul\":3377:3400   */\n  tag_70\n  jump\t// in\ntag_95:\n    /* \"#utility.yul\":3369:3400   */\n  swap2\n  pop\n    /* \"#utility.yul\":3421:3448   */\n  tag_96\n    /* \"#utility.yul\":3439:3447   */\n  dup4\n    /* \"#utility.yul\":3421:3448   */\n  tag_70\n  jump\t// in\ntag_96:\n    /* \"#utility.yul\":3409:3448   */\n  swap3\n  pop\n    /* \"#utility.yul\":3467:3571   */\n  tag_97\n    /* \"#utility.yul\":3504:3570   */\n  0xffffffffffffffffffffffffffffffffffffffffffffffffffffffffffffffff\n    /* \"#utility.yul\":3494:3502   */\n  dup5\n    /* \"#utility.yul\":3488:3492   */\n  dup5\n    /* \"#utility.yul\":3467:3571   */\n  tag_98\n  jump\t// in\ntag_97:\n    /* \"#utility.yul\":3458:3571   */\n  swap1\n  pop\n    /* \"#utility.yul\":3293:3578   */\n  swap3\n  swap2\n  pop\n  pop\n  jump\t// out\n    /* \"#utility.yul\":3584:4657   */\ntag_98:\n    /* \"#utility.yul\":3638:3643   */\n  0x00\n    /* \"#utility.yul\":3829:3837   */\n  dup3\n    /* \"#utility.yul\":3819:3859   */\n  tag_100\n  jumpi\n    /* \"#utility.yul\":3850:3851   */\n  0x01\n    /* \"#utility.yul\":3841:3851   */\n  swap1\n  pop\n    /* \"#utility.yul\":3852:3857   */\n  jump(tag_99)\n    /* \"#utility.yul\":3819:3859   */\ntag_100:\n    /* \"#utility.yul\":3878:3882   */\n  dup2\n    /* \"#utility.yul\":3868:3904   */\n  tag_101\n  jumpi\n    /* \"#utility.yul\":3895:3896   */\n  0x00\n    /* \"#utility.yul\":3886:3896   */\n  swap1\n  pop\n    /* \"#utility.yul\":3897:3902   */\n  jump(tag_99)\n    /* \"#utility.yul\":3868:3904   */\ntag_101:\n    /* \"#utility.yul\":3964:3968   */\n  dup2\n    /* \"#utility.yul\":4012:4013   */\n  0x01\n    /* \"#utility.yul\":4007:4034   */\n  dup2\n  eq\n  tag_103\n  jumpi\n    /* \"#utility.yul\":4048:4049   */\n  0x02\n    /* \"#utility.yul\":4043:4234   */\n  dup2\n  eq\n  tag_104\n  jumpi\n    /* \"#utility.yul\":3957:4234   */\n  jump(tag_102)\n    /* \"#utility.yul\":4007:4034   */\ntag_103:\n    /* \"#utility.yul\":4025:4026   */\n  0x01\n    /* \"#utility.yul\":4016:4026   */\n  swap2\n  pop\n    /* \"#utility.yul\":4027:4032   */\n  pop\n  jump(tag_99)\n    /* \"#utility.yul\":4043:4234   */\ntag_104:\n    /* \"#utility.yul\":4088:4091   */\n  0xff\n    /* \"#utility.yul\":4078:4086   */\n  dup5\n    /* \"#utility.yul\":4075:4092   */\n  gt\n    /* \"#utility.yul\":4072:4115   */\n  iszero\n  tag_105\n  jumpi\n    /* \"#utility.yul\":4095:4113   */\n  tag_106\n  tag_83\n  jump\t// in\ntag_106:\n    /* \"#utility.yul\":4072:4115   */\ntag_105:\n    /* \"#utility.yul\":4144:4152   */\n  dup4\n    /* \"#utility.yul\":4141:4142   */\n  0x02\n    /* \"#utility.yul\":4137:4153   */\n  exp\n    /* \"#utility.yul\":4128:4153   */\n  swap2\n  pop\n    /* \"#utility.yul\":4179:4182   */\n  dup5\n    /* \"#utility.yul\":4172:4177   */\n  dup3\n    /* \"#utility.yul\":4169:4183   */\n  gt\n    /* \"#utility.yul\":4166:4206   */\n  iszero\n  tag_107\n  jumpi\n    /* \"#utility.yul\":4186:4204   */\n  tag_108\n  tag_83\n  jump\t// in\ntag_108:\n    /* \"#utility.yul\":4166:4206   */\ntag_107:\n    /* \"#utility.yul\":4219:4224   */\n  pop\n  jump(tag_99)\n    /* \"#utility.yul\":3957:4234   */\ntag_102:\n  pop\n    /* \"#utility.yul\":4343:4345   */\n  0x20\n    /* \"#utility.yul\":4333:4341   */\n  dup4\n    /* \"#utility.yul\":4330:4346   */\n  lt\n    /* \"#utility.yul\":4324:4327   */\n  0x0133\n    /* \"#utility.yul\":4318:4322   */\n  dup4\n    /* \"#utility.yul\":4315:4328   */\n  lt\n    /* \"#utility.yul\":4311:4347   */\n  and\n    /* \"#utility.yul\":4293:4295   */\n  0x4e\n    /* \"#utility.yul\":4283:4291   */\n  dup5\n    /* \"#utility.yul\":4280:4296   */\n  lt\n    /* \"#utility.yul\":4275:4277   */\n  0x0b\n    /* \"#utility.yul\":4269:4273   */\n  dup5\n    /* \"#utility.yul\":4266:4278   */\n  lt\n    /* \"#utility.yul\":4262:4297   */\n  and\n    /* \"#utility.yul\":4246:4357   */\n  or\n    /* \"#utility.yul\":4243:4489   */\n  iszero\n  tag_109\n  jumpi\n    /* \"#utility.yul\":4399:4407   */\n  dup3\n    /* \"#utility.yul\":4393:4397   */\n  dup3\n    /* \"#utility.yul\":4389:4408   */\n  exp\n    /* \"#utility.yul\":4380:4408   */\n  swap1\n  pop\n    /* \"#utility.yul\":4434:4437   */\n  dup4\n    /* \"#utility.yul\":4427:4432   */\n  dup2\n    /* \"#utility.yul\":4424:4438   */\n  gt\n    /* \"#utility.yul\":4421:4461   */\n  iszero\n  tag_110\n  jumpi\n    /* \"#utility.yul\":4441:4459   */\n  tag_111\n  tag_83\n  jump\t// in\ntag_111:\n    /* \"#utility.yul\":4421:4461   */\ntag_110:\n    /* \"#utility.yul\":4474:4479   */\n  jump(tag_99)\n    /* \"#utility.yul\":4243:4489   */\ntag_109:\n    /* \"#utility.yul\":4514:4556   */\n  tag_112\n    /* \"#utility.yul\":4552:4555   */\n  dup5\n    /* \"#utility.yul\":4542:4550   */\n  dup5\n    /* \"#utility.yul\":4536:4540   */\n  dup5\n    /* \"#utility.yul\":4533:4534   */\n  0x01\n    /* \"#utility.yul\":4514:4556   */\n  tag_84\n  jump\t// in\ntag_112:\n    /* \"#utility.yul\":4499:4556   */\n  swap3\n  pop\n  swap1\n  pop\n    /* \"#utility.yul\":4588:4592   */\n  dup2\n    /* \"#utility.yul\":4583:4586   */\n  dup5\n    /* \"#utility.yul\":4579:4593   */\n  div\n    /* \"#utility.yul\":4572:4577   */\n  dup2\n    /* \"#utility.yul\":4569:4594   */\n  gt\n    /* \"#utility.yul\":4566:4617   */\n  iszero\n  tag_113\n  jumpi\n    /* \"#utility.yul\":4597:4615   */\n  tag_114\n  tag_83\n  jump\t// in\ntag_114:\n    /* \"#utility.yul\":4566:4617   */\ntag_113:\n    /* \"#utility.yul\":4646:4650   */\n  dup2\n    /* \"#utility.yul\":4639:4644   */\n  dup2\n    /* \"#utility.yul\":4635:4651   */\n  mul\n    /* \"#utility.yul\":4626:4651   */\n  swap1\n  pop\n    /* \"#utility.yul\":3584:4657   */\ntag_99:\n  swap4\n  swap3\n  pop\n  pop\n  pop\n  jump\t// out\n    /* \"#utility.yul\":4663:5011   */\ntag_22:\n    /* \"#utility.yul\":4703:4710   */\n  0x00\n    /* \"#utility.yul\":4726:4746   */\n  tag_116\n    /* \"#utility.yul\":4744:4745   */\n  dup3\n    /* \"#utility.yul\":4726:4746   */\n  tag_70\n  jump\t// in\ntag_116:\n    /* \"#utility.yul\":4721:4746   */\n  swap2\n  pop\n    /* \"#utility.yul\":4760:4780   */\n  tag_117\n    /* \"#utility.yul\":4778:4779   */\n  dup4\n    /* \"#utility.yul\":4760:4780   */\n  tag_70\n  jump\t// in\ntag_117:\n    /* \"#utility.yul\":4755:4780   */\n  swap3\n  pop\n    /* \"#utility.yul\":4948:4949   */\n  dup2\n    /* \"#utility.yul\":4880:4946   */\n  0xffffffffffffffffffffffffffffffffffffffffffffffffffffffffffffffff\n    /* \"#utility.yul\":4876:4950   */\n  div\n    /* \"#utility.yul\":4873:4874   */\n  dup4\n    /* \"#utility.yul\":4870:4951   */\n  gt\n    /* \"#utility.yul\":4865:4866   */\n  dup3\n    /* \"#utility.yul\":4858:4867   */\n  iszero\n    /* \"#utility.yul\":4851:4868   */\n  iszero\n    /* \"#utility.yul\":4847:4952   */\n  and\n    /* \"#utility.yul\":4844:4975   */\n  iszero\n  tag_118\n  jumpi\n    /* \"#utility.yul\":4955:4973   */\n  tag_119\n  tag_83\n  jump\t// in\ntag_119:\n    /* \"#utility.yul\":4844:4975   */\ntag_118:\n    /* \"#utility.yul\":5003:5004   */\n  dup3\n    /* \"#utility.yul\":5000:5001   */\n  dup3\n    /* \"#utility.yul\":4996:5005   */\n  mul\n    /* \"#utility.yul\":4985:5005   */\n  swap1\n  pop\n    /* \"#utility.yul\":4663:5011   */\n  swap3\n  swap2\n  pop\n  pop\n  jump\t// out\n    /* \"#utility.yul\":5017:5094   */\ntag_70:\n    /* \"#utility.yul\":5054:5061   */\n  0x00\n    /* \"#utility.yul\":5083:5088   */\n  dup2\n    /* \"#utility.yul\":5072:5088   */\n  swap1\n  pop\n    /* \"#utility.yul\":5017:5094   */\n  swap2\n  swap1\n  pop\n  jump\t// out\n    /* \"#utility.yul\":5100:5420   */\ntag_45:\n    /* \"#utility.yul\":5144:5150   */\n  0x00\n    /* \"#utility.yul\":5181:5182   */\n  0x02\n    /* \"#utility.yul\":5175:5179   */\n  dup3\n    /* \"#utility.yul\":5171:5183   */\n  div\n    /* \"#utility.yul\":5161:5183   */\n  swap1\n  pop\n    /* \"#utility.yul\":5228:5229   */\n  0x01\n    /* \"#utility.yul\":5222:5226   */\n  dup3\n    /* \"#utility.yul\":5218:5230   */\n  and\n    /* \"#utility.yul\":5249:5267   */\n  dup1\n    /* \"#utility.yul\":5239:5320   */\n  tag_122\n  jumpi\n    /* \"#utility.yul\":5305:5309   */\n  0x7f\n    /* \"#utility.yul\":5297:5303   */\n  dup3\n    /* \"#utility.yul\":5293:5310   */\n  and\n    /* \"#utility.yul\":5283:5310   */\n  swap2\n  pop\n    /* \"#utility.yul\":5239:5320   */\ntag_122:\n    /* \"#utility.yul\":5367:5369   */\n  0x20\n    /* \"#utility.yul\":5359:5365   */\n  dup3\n    /* \"#utility.yul\":5356:5370   */\n  lt\n    /* \"#utility.yul\":5336:5354   */\n  dup2\n    /* \"#utility.yul\":5333:5371   */\n  eq\n    /* \"#utility.yul\":5330:5414   */\n  iszero\n  tag_123\n  jumpi\n    /* \"#utility.yul\":5386:5404   */\n  tag_124\n  tag_125\n  jump\t// in\ntag_124:\n    /* \"#utility.yul\":5330:5414   */\ntag_123:\n    /* \"#utility.yul\":5151:5420   */\n  pop\n    /* \"#utility.yul\":5100:5420   */\n  swap2\n  swap1\n  pop\n  jump\t// out\n    /* \"#utility.yul\":5426:5606   */\ntag_83:\n    /* \"#utility.yul\":5474:5551   */\n  0x4e487b7100000000000000000000000000000000000000000000000000000000\n    /* \"#utility.yul\":5471:5472   */\n  0x00\n    /* \"#utility.yul\":5464:5552   */\n  mstore\n    /* \"#utility.yul\":5571:5575   */\n  0x11\n    /* \"#utility.yul\":5568:5569   */\n  0x04\n    /* \"#utility.yul\":5561:5576   */\n  mstore\n    /* \"#utility.yul\":5595:5599   */\n  0x24\n    /* \"#utility.yul\":5592:5593   */\n  0x00\n    /* \"#utility.yul\":5585:5600   */\n  revert\n    /* \"#utility.yul\":5612:5792   */\ntag_125:\n    /* \"#utility.yul\":5660:5737   */\n  0x4e487b7100000000000000000000000000000000000000000000000000000000\n    /* \"#utility.yul\":5657:5658   */\n  0x00\n    /* \"#utility.yul\":5650:5738   */\n  mstore\n    /* \"#utility.yul\":5757:5761   */\n  0x22\n    /* \"#utility.yul\":5754:5755   */\n  0x04\n    /* \"#utility.yul\":5747:5762   */\n  mstore\n    /* \"#utility.yul\":5781:5785   */\n  0x24\n    /* \"#utility.yul\":5778:5779   */\n  0x00\n    /* \"#utility.yul\":5771:5786   */\n  revert\n    /* \"#utility.yul\":5798:5900   */\ntag_93:\n    /* \"#utility.yul\":5840:5848   */\n  0x00\n    /* \"#utility.yul\":5887:5892   */\n  dup2\n    /* \"#utility.yul\":5884:5885   */\n  0x01\n    /* \"#utility.yul\":5880:5893   */\n  shr\n    /* \"#utility.yul\":5859:5893   */\n  swap1\n  pop\n    /* \"#utility.yul\":5798:5900   */\n  swap2\n  swap1\n  pop\n  jump\t// out\n    /* \"#utility.yul\":5906:6083   */\ntag_61:\n    /* \"#utility.yul\":6046:6075   */\n  0x536166654d6174683a206164646974696f6e206f766572666c6f770000000000\n    /* \"#utility.yul\":6042:6043   */\n  0x00\n    /* \"#utility.yul\":6034:6040   */\n  dup3\n    /* \"#utility.yul\":6030:6044   */\n  add\n    /* \"#utility.yul\":6023:6076   */\n  mstore\n    /* \"#utility.yul\":5906:6083   */\n  pop\n  jump\t// out\n    /* \"#utility.yul\":6089:6270   */\ntag_66:\n    /* \"#utility.yul\":6229:6262   */\n  0x42455032303a206d696e7420746f20746865207a65726f206164647265737300\n    /* \"#utility.yul\":6225:6226   */\n  0x00\n    /* \"#utility.yul\":6217:6223   */\n  dup3\n    /* \"#utility.yul\":6213:6227   */\n  add\n    /* \"#utility.yul\":6206:6263   */\n  mstore\n    /* \"#utility.yul\":6089:6270   */\n  pop\n  jump\t// out\n    /* \"VIMToken.sol\":114:3483  contract VIMToken is BEP20Detailed, BEP20 {... */\ntag_25:\n  dataSize(sub_0)\n  dup1\n  dataOffset(sub_0)\n  0x00\n  codecopy\n  0x00\n  return\nstop\n\nsub_0: assembly {\n        /* \"VIMToken.sol\":114:3483  contract VIMToken is BEP20Detailed, BEP20 {... */\n      mstore(0x40, 0x80)\n      callvalue\n      dup1\n      iszero\n      tag_1\n      jumpi\n      0x00\n      dup1\n      revert\n    tag_1:\n      pop\n      jumpi(tag_2, lt(calldatasize, 0x04))\n      shr(0xe0, calldataload(0x00))\n      dup1\n      0x5c975abb\n      gt\n      tag_28\n      jumpi\n      dup1\n      0x95d89b41\n      gt\n      tag_29\n      jumpi\n      dup1\n      0xa9059cbb\n      gt\n      tag_30\n      jumpi\n      dup1\n      0xa9059cbb\n      eq\n      tag_24\n      jumpi\n      dup1\n      0xc89c58fb\n      eq\n      tag_25\n      jumpi\n      dup1\n      0xdd62ed3e\n      eq\n      tag_26\n      jumpi\n      dup1\n      0xf2fde38b\n      eq\n      tag_27\n      jumpi\n      jump(tag_2)\n    tag_30:\n      dup1\n      0x95d89b41\n      eq\n      tag_21\n      jumpi\n      dup1\n      0xa457c2d7\n      eq\n      tag_22\n      jumpi\n      dup1\n      0xa86517bf\n      eq\n      tag_23\n      jumpi\n      jump(tag_2)\n    tag_29:\n      dup1\n      0x5c975abb\n      eq\n      tag_15\n      jumpi\n      dup1\n      0x70a08231\n      eq\n      tag_16\n      jumpi\n      dup1\n      0x715018a6\n      eq\n      tag_17\n      jumpi\n      dup1\n      0x8456cb59\n      eq\n      tag_18\n      jumpi\n      dup1\n      0x8da5cb5b\n      eq\n      tag_19\n      jumpi\n      dup1\n      0x8f32d59b\n      eq\n      tag_20\n      jumpi\n      jump(tag_2)\n    tag_28:\n      dup1\n      0x23b872dd\n      gt\n      tag_31\n      jumpi\n      dup1\n      0x23b872dd\n      eq\n      tag_9\n      jumpi\n      dup1\n      0x2973ef2d\n      eq\n      tag_10\n      jumpi\n      dup1\n      0x313ce567\n      eq\n      tag_11\n      jumpi\n      dup1\n      0x39509351\n      eq\n      tag_12\n      jumpi\n      dup1\n      0x3f4ba83a\n      eq\n      tag_13\n      jumpi\n      dup1\n      0x53d6fd59\n      eq\n      tag_14\n      jumpi\n      jump(tag_2)\n    tag_31:\n      dup1\n      0x06fdde03\n      eq\n      tag_3\n      jumpi\n      dup1\n      0x095ea7b3\n      eq\n      tag_4\n      jumpi\n      dup1\n      0x0d2cf31f\n      eq\n      tag_5\n      jumpi\n      dup1\n      0x153b0d1e\n      eq\n      tag_6\n      jumpi\n      dup1\n      0x1574567b\n      eq\n      tag_7\n      jumpi\n      dup1\n      0x18160ddd\n      eq\n      tag_8\n      jumpi\n    tag_2:\n      0x00\n      dup1\n      revert\n        /* \"BEP20Detailed.sol\":624:699  function name() public view returns (string memory) {... */\n    tag_3:\n      tag_32\n      tag_33\n      jump\t// in\n    tag_32:\n      mload(0x40)\n      tag_34\n      swap2\n      swap1\n      tag_35\n      jump\t// in\n    tag_34:\n      mload(0x40)\n      dup1\n      swap2\n      sub\n      swap1\n      return\n        /* \"BEP20.sol\":2350:2512  function approve(address spender, uint256 amount) public override whenNotPaused returns (bool) {... */\n    tag_4:\n      tag_36\n      0x04\n      dup1\n      calldatasize\n      sub\n      dup2\n      add\n      swap1\n      tag_37\n      swap2\n      swap1\n      tag_38\n      jump\t// in\n    tag_37:\n      tag_39\n      jump\t// in\n    tag_36:\n      mload(0x40)\n      tag_40\n      swap2\n      swap1\n      tag_41\n      jump\t// in\n    tag_40:\n      mload(0x40)\n      dup1\n      swap2\n      sub\n      swap1\n      return\n        /* \"VIMToken.sol\":1814:2121  function setTaxes(uint8 _sellTax, uint8 _buyTax, uint8 _transferTax) external onlyOwner {... */\n    tag_5:\n      tag_42\n      0x04\n      dup1\n      calldatasize\n      sub\n      dup2\n      add\n      swap1\n      tag_43\n      swap2\n      swap1\n      tag_44\n      jump\t// in\n    tag_43:\n      tag_45\n      jump\t// in\n    tag_42:\n      stop\n        /* \"VIMToken.sol\":1141:1297  function setBlacklist(address _wallet, bool _status) external onlyOwner {... */\n    tag_6:\n      tag_46\n      0x04\n      dup1\n      calldatasize\n      sub\n      dup2\n      add\n      swap1\n      tag_47\n      swap2\n      swap1\n      tag_48\n      jump\t// in\n    tag_47:\n      tag_49\n      jump\t// in\n    tag_46:\n      stop\n        /* \"VIMToken.sol\":1303:1456  function setCooldownForTrades(uint8 _tradeCooldown) external onlyOwner {... */\n    tag_7:\n      tag_50\n      0x04\n      dup1\n      calldatasize\n      sub\n      dup2\n      add\n      swap1\n      tag_51\n      swap2\n      swap1\n      tag_52\n      jump\t// in\n    tag_51:\n      tag_53\n      jump\t// in\n    tag_50:\n      stop\n        /* \"BEP20.sol\":1429:1521  function totalSupply() public view override returns (uint256) {... */\n    tag_8:\n      tag_54\n      tag_55\n      jump\t// in\n    tag_54:\n      mload(0x40)\n      tag_56\n      swap2\n      swap1\n      tag_57\n      jump\t// in\n    tag_56:\n      mload(0x40)\n      dup1\n      swap2\n      sub\n      swap1\n      return\n        /* \"BEP20.sol\":2944:3301  function transferFrom(... */\n    tag_9:\n      tag_58\n      0x04\n      dup1\n      calldatasize\n      sub\n      dup2\n      add\n      swap1\n      tag_59\n      swap2\n      swap1\n      tag_60\n      jump\t// in\n    tag_59:\n      tag_61\n      jump\t// in\n    tag_58:\n      mload(0x40)\n      tag_62\n      swap2\n      swap1\n      tag_41\n      jump\t// in\n    tag_62:\n      mload(0x40)\n      dup1\n      swap2\n      sub\n      swap1\n      return\n        /* \"VIMToken.sol\":2125:2267  function getTaxes() external view returns (uint8 _sellTax, uint8 _buyTax, uint8 _transferTax) {... */\n    tag_10:\n      tag_63\n      tag_64\n      jump\t// in\n    tag_63:\n      mload(0x40)\n      tag_65\n      swap4\n      swap3\n      swap2\n      swap1\n      tag_66\n      jump\t// in\n    tag_65:\n      mload(0x40)\n      dup1\n      swap2\n      sub\n      swap1\n      return\n        /* \"BEP20Detailed.sol\":1404:1479  function decimals() public view returns (uint8) {... */\n    tag_11:\n      tag_67\n      tag_68\n      jump\t// in\n    tag_67:\n      mload(0x40)\n      tag_69\n      swap2\n      swap1\n      tag_70\n      jump\t// in\n    tag_69:\n      mload(0x40)\n      dup1\n      swap2\n      sub\n      swap1\n      return\n        /* \"BEP20.sol\":3670:3881  function increaseAllowance(address spender, uint256 addedValue) public whenNotPaused returns (bool) {... */\n    tag_12:\n      tag_71\n      0x04\n      dup1\n      calldatasize\n      sub\n      dup2\n      add\n      swap1\n      tag_72\n      swap2\n      swap1\n      tag_38\n      jump\t// in\n    tag_72:\n      tag_73\n      jump\t// in\n    tag_71:\n      mload(0x40)\n      tag_74\n      swap2\n      swap1\n      tag_41\n      jump\t// in\n    tag_74:\n      mload(0x40)\n      dup1\n      swap2\n      sub\n      swap1\n      return\n        /* \"BEPPausable.sol\":870:994  function unpause() public onlyOwner whenPaused returns (bool) {... */\n    tag_13:\n      tag_75\n      tag_76\n      jump\t// in\n    tag_75:\n      mload(0x40)\n      tag_77\n      swap2\n      swap1\n      tag_41\n      jump\t// in\n    tag_77:\n      mload(0x40)\n      dup1\n      swap2\n      sub\n      swap1\n      return\n        /* \"VIMToken.sol\":2273:2437  function setWhitelist(address _address, bool _status) external onlyOwner {... */\n    tag_14:\n      tag_78\n      0x04\n      dup1\n      calldatasize\n      sub\n      dup2\n      add\n      swap1\n      tag_79\n      swap2\n      swap1\n      tag_48\n      jump\t// in\n    tag_79:\n      tag_80\n      jump\t// in\n    tag_78:\n      stop\n        /* \"BEPPausable.sol\":272:298  bool public paused = false */\n    tag_15:\n      tag_81\n      tag_82\n      jump\t// in\n    tag_81:\n      mload(0x40)\n      tag_83\n      swap2\n      swap1\n      tag_41\n      jump\t// in\n    tag_83:\n      mload(0x40)\n      dup1\n      swap2\n      sub\n      swap1\n      return\n        /* \"BEP20.sol\":1571:1682  function balanceOf(address account) public view override returns (uint256) {... */\n    tag_16:\n      tag_84\n      0x04\n      dup1\n      calldatasize\n      sub\n      dup2\n      add\n      swap1\n      tag_85\n      swap2\n      swap1\n      tag_86\n      jump\t// in\n    tag_85:\n      tag_87\n      jump\t// in\n    tag_84:\n      mload(0x40)\n      tag_88\n      swap2\n      swap1\n      tag_57\n      jump\t// in\n    tag_88:\n      mload(0x40)\n      dup1\n      swap2\n      sub\n      swap1\n      return\n        /* \"BEPOwnable.sol\":1630:1757  function renounceOwnership() public onlyOwner {... */\n    tag_17:\n      tag_89\n      tag_90\n      jump\t// in\n    tag_89:\n      stop\n        /* \"BEPPausable.sol\":666:788  function pause() public onlyOwner whenNotPaused returns (bool) {... */\n    tag_18:\n      tag_91\n      tag_92\n      jump\t// in\n    tag_91:\n      mload(0x40)\n      tag_93\n      swap2\n      swap1\n      tag_41\n      jump\t// in\n    tag_93:\n      mload(0x40)\n      dup1\n      swap2\n      sub\n      swap1\n      return\n        /* \"BEPOwnable.sol\":899:970  function owner() public view returns (address) {... */\n    tag_19:\n      tag_94\n      tag_95\n      jump\t// in\n    tag_94:\n      mload(0x40)\n      tag_96\n      swap2\n      swap1\n      tag_97\n      jump\t// in\n    tag_96:\n      mload(0x40)\n      dup1\n      swap2\n      sub\n      swap1\n      return\n        /* \"BEPOwnable.sol\":1218:1304  function isOwner() public view returns (bool) {... */\n    tag_20:\n      tag_98\n      tag_99\n      jump\t// in\n    tag_98:\n      mload(0x40)\n      tag_100\n      swap2\n      swap1\n      tag_41\n      jump\t// in\n    tag_100:\n      mload(0x40)\n      dup1\n      swap2\n      sub\n      swap1\n      return\n        /* \"BEP20Detailed.sol\":802:881  function symbol() public view returns (string memory) {... */\n    tag_21:\n      tag_101\n      tag_102\n      jump\t// in\n    tag_101:\n      mload(0x40)\n      tag_103\n      swap2\n      swap1\n      tag_35\n      jump\t// in\n    tag_103:\n      mload(0x40)\n      dup1\n      swap2\n      sub\n      swap1\n      return\n        /* \"BEP20.sol\":4338:4624  function decreaseAllowance(address spender, uint256 subtractedValue) public whenNotPaused returns (bool) {... */\n    tag_22:\n      tag_104\n      0x04\n      dup1\n      calldatasize\n      sub\n      dup2\n      add\n      swap1\n      tag_105\n      swap2\n      swap1\n      tag_38\n      jump\t// in\n    tag_105:\n      tag_106\n      jump\t// in\n    tag_104:\n      mload(0x40)\n      tag_107\n      swap2\n      swap1\n      tag_41\n      jump\t// in\n    tag_107:\n      mload(0x40)\n      dup1\n      swap2\n      sub\n      swap1\n      return\n        /* \"VIMToken.sol\":1652:1808  function setMarketingPool(address _marketingPool) external onlyOwner {... */\n    tag_23:\n      tag_108\n      0x04\n      dup1\n      calldatasize\n      sub\n      dup2\n      add\n      swap1\n      tag_109\n      swap2\n      swap1\n      tag_86\n      jump\t// in\n    tag_109:\n      tag_110\n      jump\t// in\n    tag_108:\n      stop\n        /* \"BEP20.sol\":1867:2043  function transfer(address recipient, uint256 amount) public virtual override whenNotPaused returns (bool) {... */\n    tag_24:\n      tag_111\n      0x04\n      dup1\n      calldatasize\n      sub\n      dup2\n      add\n      swap1\n      tag_112\n      swap2\n      swap1\n      tag_38\n      jump\t// in\n    tag_112:\n      tag_113\n      jump\t// in\n    tag_111:\n      mload(0x40)\n      tag_114\n      swap2\n      swap1\n      tag_41\n      jump\t// in\n    tag_114:\n      mload(0x40)\n      dup1\n      swap2\n      sub\n      swap1\n      return\n        /* \"VIMToken.sol\":1460:1648  function setLiquidityPoolStatus(address _lpAddress, bool _status) external onlyOwner {... */\n    tag_25:\n      tag_115\n      0x04\n      dup1\n      calldatasize\n      sub\n      dup2\n      add\n      swap1\n      tag_116\n      swap2\n      swap1\n      tag_48\n      jump\t// in\n    tag_116:\n      tag_117\n      jump\t// in\n    tag_115:\n      stop\n        /* \"BEP20.sol\":2093:2228  function allowance(address owner, address spender) public view override returns (uint256) {... */\n    tag_26:\n      tag_118\n      0x04\n      dup1\n      calldatasize\n      sub\n      dup2\n      add\n      swap1\n      tag_119\n      swap2\n      swap1\n      tag_120\n      jump\t// in\n    tag_119:\n      tag_121\n      jump\t// in\n    tag_118:\n      mload(0x40)\n      tag_122\n      swap2\n      swap1\n      tag_57\n      jump\t// in\n    tag_122:\n      mload(0x40)\n      dup1\n      swap2\n      sub\n      swap1\n      return\n        /* \"BEPOwnable.sol\":1896:1997  function transferOwnership(address newOwner) public onlyOwner {... */\n    tag_27:\n      tag_123\n      0x04\n      dup1\n      calldatasize\n      sub\n      dup2\n      add\n      swap1\n      tag_124\n      swap2\n      swap1\n      tag_86\n      jump\t// in\n    tag_124:\n      tag_125\n      jump\t// in\n    tag_123:\n      stop\n        /* \"BEP20Detailed.sol\":624:699  function name() public view returns (string memory) {... */\n    tag_33:\n        /* \"BEP20Detailed.sol\":661:674  string memory */\n      0x60\n        /* \"BEP20Detailed.sol\":689:694  _name */\n      0x00\n        /* \"BEP20Detailed.sol\":682:694  return _name */\n      dup1\n      sload\n      tag_128\n      swap1\n      tag_129\n      jump\t// in\n    tag_128:\n      dup1\n      0x1f\n      add\n      0x20\n      dup1\n      swap2\n      div\n      mul\n      0x20\n      add\n      mload(0x40)\n      swap1\n      dup2\n      add\n      0x40\n      mstore\n      dup1\n      swap3\n      swap2\n      swap1\n      dup2\n      dup2\n      mstore\n      0x20\n      add\n      dup3\n      dup1\n      sload\n      tag_130\n      swap1\n      tag_129\n      jump\t// in\n    tag_130:\n      dup1\n      iszero\n      tag_131\n      jumpi\n      dup1\n      0x1f\n      lt\n      tag_132\n      jumpi\n      0x0100\n      dup1\n      dup4\n      sload\n      div\n      mul\n      dup4\n      mstore\n      swap2\n      0x20\n      add\n      swap2\n      jump(tag_131)\n    tag_132:\n      dup3\n      add\n      swap2\n      swap1\n      0x00\n      mstore\n      keccak256(0x00, 0x20)\n      swap1\n    tag_133:\n      dup2\n      sload\n      dup2\n      mstore\n      swap1\n      0x01\n      add\n      swap1\n      0x20\n      add\n      dup1\n      dup4\n      gt\n      tag_133\n      jumpi\n      dup3\n      swap1\n      sub\n      0x1f\n      and\n      dup3\n      add\n      swap2\n    tag_131:\n      pop\n      pop\n      pop\n      pop\n      pop\n      swap1\n      pop\n        /* \"BEP20Detailed.sol\":624:699  function name() public view returns (string memory) {... */\n      swap1\n      jump\t// out\n        /* \"BEP20.sol\":2350:2512  function approve(address spender, uint256 amount) public override whenNotPaused returns (bool) {... */\n    tag_39:\n        /* \"BEP20.sol\":2439:2443  bool */\n      0x00\n        /* \"BEPPausable.sol\":424:430  paused */\n      0x02\n      0x15\n      swap1\n      sload\n      swap1\n      0x0100\n      exp\n      swap1\n      div\n      0xff\n      and\n        /* \"BEPPausable.sol\":423:430  !paused */\n      iszero\n        /* \"BEPPausable.sol\":415:431  require(!paused) */\n      tag_135\n      jumpi\n      0x00\n      dup1\n      revert\n    tag_135:\n        /* \"BEP20.sol\":2451:2490  _approve(_msgSender(), spender, amount) */\n      tag_137\n        /* \"BEP20.sol\":2460:2472  _msgSender() */\n      tag_138\n        /* \"BEP20.sol\":2460:2470  _msgSender */\n      tag_139\n        /* \"BEP20.sol\":2460:2472  _msgSender() */\n      jump\t// in\n    tag_138:\n        /* \"BEP20.sol\":2474:2481  spender */\n      dup5\n        /* \"BEP20.sol\":2483:2489  amount */\n      dup5\n        /* \"BEP20.sol\":2451:2459  _approve */\n      tag_140\n        /* \"BEP20.sol\":2451:2490  _approve(_msgSender(), spender, amount) */\n      jump\t// in\n    tag_137:\n        /* \"BEP20.sol\":2503:2507  true */\n      0x01\n        /* \"BEP20.sol\":2496:2507  return true */\n      swap1\n      pop\n        /* \"BEP20.sol\":2350:2512  function approve(address spender, uint256 amount) public override whenNotPaused returns (bool) {... */\n      swap3\n      swap2\n      pop\n      pop\n      jump\t// out\n        /* \"VIMToken.sol\":1814:2121  function setTaxes(uint8 _sellTax, uint8 _buyTax, uint8 _transferTax) external onlyOwner {... */\n    tag_45:\n        /* \"BEPOwnable.sol\":1085:1094  isOwner() */\n      tag_142\n        /* \"BEPOwnable.sol\":1085:1092  isOwner */\n      tag_99\n        /* \"BEPOwnable.sol\":1085:1094  isOwner() */\n      jump\t// in\n    tag_142:\n        /* \"BEPOwnable.sol\":1077:1131  require(isOwner(), \"Ownable: caller is not the owner\") */\n      tag_143\n      jumpi\n      mload(0x40)\n      0x08c379a000000000000000000000000000000000000000000000000000000000\n      dup2\n      mstore\n      0x04\n      add\n      tag_144\n      swap1\n      tag_145\n      jump\t// in\n    tag_144:\n      mload(0x40)\n      dup1\n      swap2\n      sub\n      swap1\n      revert\n    tag_143:\n        /* \"VIMToken.sol\":1927:1929  10 */\n      0x0a\n        /* \"VIMToken.sol\":1916:1924  _sellTax */\n      dup4\n        /* \"VIMToken.sol\":1916:1929  _sellTax < 10 */\n      0xff\n      and\n      lt\n        /* \"VIMToken.sol\":1908:1930  require(_sellTax < 10) */\n      tag_147\n      jumpi\n      0x00\n      dup1\n      revert\n    tag_147:\n        /* \"VIMToken.sol\":1954:1955  6 */\n      0x06\n        /* \"VIMToken.sol\":1944:1951  _buyTax */\n      dup3\n        /* \"VIMToken.sol\":1944:1955  _buyTax < 6 */\n      0xff\n      and\n      lt\n        /* \"VIMToken.sol\":1936:1956  require(_buyTax < 6) */\n      tag_148\n      jumpi\n      0x00\n      dup1\n      revert\n    tag_148:\n        /* \"VIMToken.sol\":1985:1986  6 */\n      0x06\n        /* \"VIMToken.sol\":1970:1982  _transferTax */\n      dup2\n        /* \"VIMToken.sol\":1970:1986  _transferTax < 6 */\n      0xff\n      and\n      lt\n        /* \"VIMToken.sol\":1962:1987  require(_transferTax < 6) */\n      tag_149\n      jumpi\n      0x00\n      dup1\n      revert\n    tag_149:\n        /* \"VIMToken.sol\":2003:2011  _sellTax */\n      dup3\n        /* \"VIMToken.sol\":1993:2000  sellTax */\n      0x0a\n      0x01\n        /* \"VIMToken.sol\":1993:2011  sellTax = _sellTax */\n      0x0100\n      exp\n      dup2\n      sload\n      dup2\n      0xff\n      mul\n      not\n      and\n      swap1\n      dup4\n      0xff\n      and\n      mul\n      or\n      swap1\n      sstore\n      pop\n        /* \"VIMToken.sol\":2026:2033  _buyTax */\n      dup2\n        /* \"VIMToken.sol\":2017:2023  buyTax */\n      0x0a\n      0x00\n        /* \"VIMToken.sol\":2017:2033  buyTax = _buyTax */\n      0x0100\n      exp\n      dup2\n      sload\n      dup2\n      0xff\n      mul\n      not\n      and\n      swap1\n      dup4\n      0xff\n      and\n      mul\n      or\n      swap1\n      sstore\n      pop\n        /* \"VIMToken.sol\":2053:2065  _transferTax */\n      dup1\n        /* \"VIMToken.sol\":2039:2050  transferTax */\n      0x0a\n      0x03\n        /* \"VIMToken.sol\":2039:2065  transferTax = _transferTax */\n      0x0100\n      exp\n      dup2\n      sload\n      dup2\n      0xff\n      mul\n      not\n      and\n      swap1\n      dup4\n      0xff\n      and\n      mul\n      or\n      swap1\n      sstore\n      pop\n        /* \"VIMToken.sol\":2076:2116  changeTax(_sellTax,_buyTax,_transferTax) */\n      0x8f649eeecb19301c91f9b511096fe7cbc4b2b67bc75bfef33ba3f2745efc386a\n        /* \"VIMToken.sol\":2086:2094  _sellTax */\n      dup4\n        /* \"VIMToken.sol\":2095:2102  _buyTax */\n      dup4\n        /* \"VIMToken.sol\":2103:2115  _transferTax */\n      dup4\n        /* \"VIMToken.sol\":2076:2116  changeTax(_sellTax,_buyTax,_transferTax) */\n      mload(0x40)\n      tag_150\n      swap4\n      swap3\n      swap2\n      swap1\n      tag_66\n      jump\t// in\n    tag_150:\n      mload(0x40)\n      dup1\n      swap2\n      sub\n      swap1\n      log1\n        /* \"VIMToken.sol\":1814:2121  function setTaxes(uint8 _sellTax, uint8 _buyTax, uint8 _transferTax) external onlyOwner {... */\n      pop\n      pop\n      pop\n      jump\t// out\n        /* \"VIMToken.sol\":1141:1297  function setBlacklist(address _wallet, bool _status) external onlyOwner {... */\n    tag_49:\n        /* \"BEPOwnable.sol\":1085:1094  isOwner() */\n      tag_152\n        /* \"BEPOwnable.sol\":1085:1092  isOwner */\n      tag_99\n        /* \"BEPOwnable.sol\":1085:1094  isOwner() */\n      jump\t// in\n    tag_152:\n        /* \"BEPOwnable.sol\":1077:1131  require(isOwner(), \"Ownable: caller is not the owner\") */\n      tag_153\n      jumpi\n      mload(0x40)\n      0x08c379a000000000000000000000000000000000000000000000000000000000\n      dup2\n      mstore\n      0x04\n      add\n      tag_154\n      swap1\n      tag_145\n      jump\t// in\n    tag_154:\n      mload(0x40)\n      dup1\n      swap2\n      sub\n      swap1\n      revert\n    tag_153:\n        /* \"VIMToken.sol\":1241:1248  _status */\n      dup1\n        /* \"VIMToken.sol\":1219:1230  isBlacklist */\n      0x06\n        /* \"VIMToken.sol\":1219:1239  isBlacklist[_wallet] */\n      0x00\n        /* \"VIMToken.sol\":1231:1238  _wallet */\n      dup5\n        /* \"VIMToken.sol\":1219:1239  isBlacklist[_wallet] */\n      0xffffffffffffffffffffffffffffffffffffffff\n      and\n      0xffffffffffffffffffffffffffffffffffffffff\n      and\n      dup2\n      mstore\n      0x20\n      add\n      swap1\n      dup2\n      mstore\n      0x20\n      add\n      0x00\n      keccak256\n      0x00\n        /* \"VIMToken.sol\":1219:1248  isBlacklist[_wallet]= _status */\n      0x0100\n      exp\n      dup2\n      sload\n      dup2\n      0xff\n      mul\n      not\n      and\n      swap1\n      dup4\n      iszero\n      iszero\n      mul\n      or\n      swap1\n      sstore\n      pop\n        /* \"VIMToken.sol\":1259:1292  changeBlacklist(_wallet, _status) */\n      0xf791a94c7f3569546a71acf39c0189bd87bd7b7e3ea76ce41fd41d837cc4bbca\n        /* \"VIMToken.sol\":1275:1282  _wallet */\n      dup3\n        /* \"VIMToken.sol\":1284:1291  _status */\n      dup3\n        /* \"VIMToken.sol\":1259:1292  changeBlacklist(_wallet, _status) */\n      mload(0x40)\n      tag_156\n      swap3\n      swap2\n      swap1\n      tag_157\n      jump\t// in\n    tag_156:\n      mload(0x40)\n      dup1\n      swap2\n      sub\n      swap1\n      log1\n        /* \"VIMToken.sol\":1141:1297  function setBlacklist(address _wallet, bool _status) external onlyOwner {... */\n      pop\n      pop\n      jump\t// out\n        /* \"VIMToken.sol\":1303:1456  function setCooldownForTrades(uint8 _tradeCooldown) external onlyOwner {... */\n    tag_53:\n        /* \"BEPOwnable.sol\":1085:1094  isOwner() */\n      tag_159\n        /* \"BEPOwnable.sol\":1085:1092  isOwner */\n      tag_99\n        /* \"BEPOwnable.sol\":1085:1094  isOwner() */\n      jump\t// in\n    tag_159:\n        /* \"BEPOwnable.sol\":1077:1131  require(isOwner(), \"Ownable: caller is not the owner\") */\n      tag_160\n      jumpi\n      mload(0x40)\n      0x08c379a000000000000000000000000000000000000000000000000000000000\n      dup2\n      mstore\n      0x04\n      add\n      tag_161\n      swap1\n      tag_145\n      jump\t// in\n    tag_161:\n      mload(0x40)\n      dup1\n      swap2\n      sub\n      swap1\n      revert\n    tag_160:\n        /* \"VIMToken.sol\":1396:1410  _tradeCooldown */\n      dup1\n        /* \"VIMToken.sol\":1380:1393  tradeCooldown */\n      0x0a\n      0x02\n        /* \"VIMToken.sol\":1380:1410  tradeCooldown = _tradeCooldown */\n      0x0100\n      exp\n      dup2\n      sload\n      dup2\n      0xff\n      mul\n      not\n      and\n      swap1\n      dup4\n      0xff\n      and\n      mul\n      or\n      swap1\n      sstore\n      pop\n        /* \"VIMToken.sol\":1421:1451  changeCooldown(_tradeCooldown) */\n      0x3dc38872c1e356f05cec7694232d10514dc69ddbdcb883f9687c4d4f7e371e01\n        /* \"VIMToken.sol\":1436:1450  _tradeCooldown */\n      dup2\n        /* \"VIMToken.sol\":1421:1451  changeCooldown(_tradeCooldown) */\n      mload(0x40)\n      tag_163\n      swap2\n      swap1\n      tag_70\n      jump\t// in\n    tag_163:\n      mload(0x40)\n      dup1\n      swap2\n      sub\n      swap1\n      log1\n        /* \"VIMToken.sol\":1303:1456  function setCooldownForTrades(uint8 _tradeCooldown) external onlyOwner {... */\n      pop\n      jump\t// out\n        /* \"BEP20.sol\":1429:1521  function totalSupply() public view override returns (uint256) {... */\n    tag_55:\n        /* \"BEP20.sol\":1482:1489  uint256 */\n      0x00\n        /* \"BEP20.sol\":1504:1516  _totalSupply */\n      sload(0x05)\n        /* \"BEP20.sol\":1497:1516  return _totalSupply */\n      swap1\n      pop\n        /* \"BEP20.sol\":1429:1521  function totalSupply() public view override returns (uint256) {... */\n      swap1\n      jump\t// out\n        /* \"BEP20.sol\":2944:3301  function transferFrom(... */\n    tag_61:\n        /* \"BEP20.sol\":3080:3084  bool */\n      0x00\n        /* \"BEPPausable.sol\":424:430  paused */\n      0x02\n      0x15\n      swap1\n      sload\n      swap1\n      0x0100\n      exp\n      swap1\n      div\n      0xff\n      and\n        /* \"BEPPausable.sol\":423:430  !paused */\n      iszero\n        /* \"BEPPausable.sol\":415:431  require(!paused) */\n      tag_166\n      jumpi\n      0x00\n      dup1\n      revert\n    tag_166:\n        /* \"BEP20.sol\":3092:3128  _transfer(sender, recipient, amount) */\n      tag_168\n        /* \"BEP20.sol\":3102:3108  sender */\n      dup5\n        /* \"BEP20.sol\":3110:3119  recipient */\n      dup5\n        /* \"BEP20.sol\":3121:3127  amount */\n      dup5\n        /* \"BEP20.sol\":3092:3101  _transfer */\n      tag_169\n        /* \"BEP20.sol\":3092:3128  _transfer(sender, recipient, amount) */\n      jump\t// in\n    tag_168:\n        /* \"BEP20.sol\":3134:3279  _approve(... */\n      tag_170\n        /* \"BEP20.sol\":3150:3156  sender */\n      dup5\n        /* \"BEP20.sol\":3164:3176  _msgSender() */\n      tag_171\n        /* \"BEP20.sol\":3164:3174  _msgSender */\n      tag_139\n        /* \"BEP20.sol\":3164:3176  _msgSender() */\n      jump\t// in\n    tag_171:\n        /* \"BEP20.sol\":3184:3273  _allowances[sender][_msgSender()].sub(amount, \"BEP20: transfer amount exceeds allowance\") */\n      tag_172\n        /* \"BEP20.sol\":3222:3228  amount */\n      dup6\n        /* \"BEP20.sol\":3184:3273  _allowances[sender][_msgSender()].sub(amount, \"BEP20: transfer amount exceeds allowance\") */\n      mload(0x40)\n      dup1\n      0x60\n      add\n      0x40\n      mstore\n      dup1\n      0x28\n      dup2\n      mstore\n      0x20\n      add\n      data_4f3506f4ba71c79c3cbd442a3afeb30e9b27af2d84e116a4385b34e267d2287e\n      0x28\n      swap2\n      codecopy\n        /* \"BEP20.sol\":3184:3195  _allowances */\n      0x04\n        /* \"BEP20.sol\":3184:3203  _allowances[sender] */\n      0x00\n        /* \"BEP20.sol\":3196:3202  sender */\n      dup12\n        /* \"BEP20.sol\":3184:3203  _allowances[sender] */\n      0xffffffffffffffffffffffffffffffffffffffff\n      and\n      0xffffffffffffffffffffffffffffffffffffffff\n      and\n      dup2\n      mstore\n      0x20\n      add\n      swap1\n      dup2\n      mstore\n      0x20\n      add\n      0x00\n      keccak256\n        /* \"BEP20.sol\":3184:3217  _allowances[sender][_msgSender()] */\n      0x00\n        /* \"BEP20.sol\":3204:3216  _msgSender() */\n      tag_173\n        /* \"BEP20.sol\":3204:3214  _msgSender */\n      tag_139\n        /* \"BEP20.sol\":3204:3216  _msgSender() */\n      jump\t// in\n    tag_173:\n        /* \"BEP20.sol\":3184:3217  _allowances[sender][_msgSender()] */\n      0xffffffffffffffffffffffffffffffffffffffff\n      and\n      0xffffffffffffffffffffffffffffffffffffffff\n      and\n      dup2\n      mstore\n      0x20\n      add\n      swap1\n      dup2\n      mstore\n      0x20\n      add\n      0x00\n      keccak256\n      sload\n        /* \"BEP20.sol\":3184:3221  _allowances[sender][_msgSender()].sub */\n      tag_174\n      swap1\n        /* \"BEP20.sol\":3184:3273  _allowances[sender][_msgSender()].sub(amount, \"BEP20: transfer amount exceeds allowance\") */\n      swap3\n      swap2\n      swap1\n      0xffffffff\n      and\n      jump\t// in\n    tag_172:\n        /* \"BEP20.sol\":3134:3142  _approve */\n      tag_140\n        /* \"BEP20.sol\":3134:3279  _approve(... */\n      jump\t// in\n    tag_170:\n        /* \"BEP20.sol\":3292:3296  true */\n      0x01\n        /* \"BEP20.sol\":3285:3296  return true */\n      swap1\n      pop\n        /* \"BEP20.sol\":2944:3301  function transferFrom(... */\n      swap4\n      swap3\n      pop\n      pop\n      pop\n      jump\t// out\n        /* \"VIMToken.sol\":2125:2267  function getTaxes() external view returns (uint8 _sellTax, uint8 _buyTax, uint8 _transferTax) {... */\n    tag_64:\n        /* \"VIMToken.sol\":2168:2182  uint8 _sellTax */\n      0x00\n        /* \"VIMToken.sol\":2184:2197  uint8 _buyTax */\n      dup1\n        /* \"VIMToken.sol\":2199:2217  uint8 _transferTax */\n      0x00\n        /* \"VIMToken.sol\":2233:2240  sellTax */\n      0x0a\n      0x01\n      swap1\n      sload\n      swap1\n      0x0100\n      exp\n      swap1\n      div\n      0xff\n      and\n        /* \"VIMToken.sol\":2242:2248  buyTax */\n      0x0a\n      0x00\n      swap1\n      sload\n      swap1\n      0x0100\n      exp\n      swap1\n      div\n      0xff\n      and\n        /* \"VIMToken.sol\":2250:2261  transferTax */\n      0x0a\n      0x03\n      swap1\n      sload\n      swap1\n      0x0100\n      exp\n      swap1\n      div\n      0xff\n      and\n        /* \"VIMToken.sol\":2225:2262  return (sellTax, buyTax, transferTax) */\n      swap3\n      pop\n      swap3\n      pop\n      swap3\n      pop\n        /* \"VIMToken.sol\":2125:2267  function getTaxes() external view returns (uint8 _sellTax, uint8 _buyTax, uint8 _transferTax) {... */\n      swap1\n      swap2\n      swap3\n      jump\t// out\n        /* \"BEP20Detailed.sol\":1404:1479  function decimals() public view returns (uint8) {... */\n    tag_68:\n        /* \"BEP20Detailed.sol\":1445:1450  uint8 */\n      0x00\n        /* \"BEP20Detailed.sol\":1465:1474  _decimals */\n      0x02\n      0x00\n      swap1\n      sload\n      swap1\n      0x0100\n      exp\n      swap1\n      div\n      0xff\n      and\n        /* \"BEP20Detailed.sol\":1458:1474  return _decimals */\n      swap1\n      pop\n        /* \"BEP20Detailed.sol\":1404:1479  function decimals() public view returns (uint8) {... */\n      swap1\n      jump\t// out\n        /* \"BEP20.sol\":3670:3881  function increaseAllowance(address spender, uint256 addedValue) public whenNotPaused returns (bool) {... */\n    tag_73:\n        /* \"BEP20.sol\":3764:3768  bool */\n      0x00\n        /* \"BEPPausable.sol\":424:430  paused */\n      0x02\n      0x15\n      swap1\n      sload\n      swap1\n      0x0100\n      exp\n      swap1\n      div\n      0xff\n      and\n        /* \"BEPPausable.sol\":423:430  !paused */\n      iszero\n        /* \"BEPPausable.sol\":415:431  require(!paused) */\n      tag_178\n      jumpi\n      0x00\n      dup1\n      revert\n    tag_178:\n        /* \"BEP20.sol\":3776:3859  _approve(_msgSender(), spender, _allowances[_msgSender()][spender].add(addedValue)) */\n      tag_180\n        /* \"BEP20.sol\":3785:3797  _msgSender() */\n      tag_181\n        /* \"BEP20.sol\":3785:3795  _msgSender */\n      tag_139\n        /* \"BEP20.sol\":3785:3797  _msgSender() */\n      jump\t// in\n    tag_181:\n        /* \"BEP20.sol\":3799:3806  spender */\n      dup5\n        /* \"BEP20.sol\":3808:3858  _allowances[_msgSender()][spender].add(addedValue) */\n      tag_182\n        /* \"BEP20.sol\":3847:3857  addedValue */\n      dup6\n        /* \"BEP20.sol\":3808:3819  _allowances */\n      0x04\n        /* \"BEP20.sol\":3808:3833  _allowances[_msgSender()] */\n      0x00\n        /* \"BEP20.sol\":3820:3832  _msgSender() */\n      tag_183\n        /* \"BEP20.sol\":3820:3830  _msgSender */\n      tag_139\n        /* \"BEP20.sol\":3820:3832  _msgSender() */\n      jump\t// in\n    tag_183:\n        /* \"BEP20.sol\":3808:3833  _allowances[_msgSender()] */\n      0xffffffffffffffffffffffffffffffffffffffff\n      and\n      0xffffffffffffffffffffffffffffffffffffffff\n      and\n      dup2\n      mstore\n      0x20\n      add\n      swap1\n      dup2\n      mstore\n      0x20\n      add\n      0x00\n      keccak256\n        /* \"BEP20.sol\":3808:3842  _allowances[_msgSender()][spender] */\n      0x00\n        /* \"BEP20.sol\":3834:3841  spender */\n      dup10\n        /* \"BEP20.sol\":3808:3842  _allowances[_msgSender()][spender] */\n      0xffffffffffffffffffffffffffffffffffffffff\n      and\n      0xffffffffffffffffffffffffffffffffffffffff\n      and\n      dup2\n      mstore\n      0x20\n      add\n      swap1\n      dup2\n      mstore\n      0x20\n      add\n      0x00\n      keccak256\n      sload\n        /* \"BEP20.sol\":3808:3846  _allowances[_msgSender()][spender].add */\n      tag_126\n      swap1\n        /* \"BEP20.sol\":3808:3858  _allowances[_msgSender()][spender].add(addedValue) */\n      swap2\n      swap1\n      0xffffffff\n      and\n      jump\t// in\n    tag_182:\n        /* \"BEP20.sol\":3776:3784  _approve */\n      tag_140\n        /* \"BEP20.sol\":3776:3859  _approve(_msgSender(), spender, _allowances[_msgSender()][spender].add(addedValue)) */\n      jump\t// in\n    tag_180:\n        /* \"BEP20.sol\":3872:3876  true */\n      0x01\n        /* \"BEP20.sol\":3865:3876  return true */\n      swap1\n      pop\n        /* \"BEP20.sol\":3670:3881  function increaseAllowance(address spender, uint256 addedValue) public whenNotPaused returns (bool) {... */\n      swap3\n      swap2\n      pop\n      pop\n      jump\t// out\n        /* \"BEPPausable.sol\":870:994  function unpause() public onlyOwner whenPaused returns (bool) {... */\n    tag_76:\n        /* \"BEPPausable.sol\":926:930  bool */\n      0x00\n        /* \"BEPOwnable.sol\":1085:1094  isOwner() */\n      tag_185\n        /* \"BEPOwnable.sol\":1085:1092  isOwner */\n      tag_99\n        /* \"BEPOwnable.sol\":1085:1094  isOwner() */\n      jump\t// in\n    tag_185:\n        /* \"BEPOwnable.sol\":1077:1131  require(isOwner(), \"Ownable: caller is not the owner\") */\n      tag_186\n      jumpi\n      mload(0x40)\n      0x08c379a000000000000000000000000000000000000000000000000000000000\n      dup2\n      mstore\n      0x04\n      add\n      tag_187\n      swap1\n      tag_145\n      jump\t// in\n    tag_187:\n      mload(0x40)\n      dup1\n      swap2\n      sub\n      swap1\n      revert\n    tag_186:\n        /* \"BEPPausable.sol\":568:574  paused */\n      0x02\n      0x15\n      swap1\n      sload\n      swap1\n      0x0100\n      exp\n      swap1\n      div\n      0xff\n      and\n        /* \"BEPPausable.sol\":560:575  require(paused) */\n      tag_189\n      jumpi\n      0x00\n      dup1\n      revert\n    tag_189:\n        /* \"BEPPausable.sol\":947:952  false */\n      0x00\n        /* \"BEPPausable.sol\":938:944  paused */\n      0x02\n      0x15\n        /* \"BEPPausable.sol\":938:952  paused = false */\n      0x0100\n      exp\n      dup2\n      sload\n      dup2\n      0xff\n      mul\n      not\n      and\n      swap1\n      dup4\n      iszero\n      iszero\n      mul\n      or\n      swap1\n      sstore\n      pop\n        /* \"BEPPausable.sol\":963:972  Unpause() */\n      0x7805862f689e2f13df9f062ff482ad3ad112aca9e0847911ed832e158c525b33\n      mload(0x40)\n      mload(0x40)\n      dup1\n      swap2\n      sub\n      swap1\n      log1\n        /* \"BEPPausable.sol\":985:989  true */\n      0x01\n        /* \"BEPPausable.sol\":978:989  return true */\n      swap1\n      pop\n        /* \"BEPPausable.sol\":870:994  function unpause() public onlyOwner whenPaused returns (bool) {... */\n      swap1\n      jump\t// out\n        /* \"VIMToken.sol\":2273:2437  function setWhitelist(address _address, bool _status) external onlyOwner {... */\n    tag_80:\n        /* \"BEPOwnable.sol\":1085:1094  isOwner() */\n      tag_192\n        /* \"BEPOwnable.sol\":1085:1092  isOwner */\n      tag_99\n        /* \"BEPOwnable.sol\":1085:1094  isOwner() */\n      jump\t// in\n    tag_192:\n        /* \"BEPOwnable.sol\":1077:1131  require(isOwner(), \"Ownable: caller is not the owner\") */\n      tag_193\n      jumpi\n      mload(0x40)\n      0x08c379a000000000000000000000000000000000000000000000000000000000\n      dup2\n      mstore\n      0x04\n      add\n      tag_194\n      swap1\n      tag_145\n      jump\t// in\n    tag_194:\n      mload(0x40)\n      dup1\n      swap2\n      sub\n      swap1\n      revert\n    tag_193:\n        /* \"VIMToken.sol\":2377:2384  _status */\n      dup1\n        /* \"VIMToken.sol\":2352:2364  whitelistTax */\n      0x08\n        /* \"VIMToken.sol\":2352:2374  whitelistTax[_address] */\n      0x00\n        /* \"VIMToken.sol\":2365:2373  _address */\n      dup5\n        /* \"VIMToken.sol\":2352:2374  whitelistTax[_address] */\n      0xffffffffffffffffffffffffffffffffffffffff\n      and\n      0xffffffffffffffffffffffffffffffffffffffff\n      and\n      dup2\n      mstore\n      0x20\n      add\n      swap1\n      dup2\n      mstore\n      0x20\n      add\n      0x00\n      keccak256\n      0x00\n        /* \"VIMToken.sol\":2352:2384  whitelistTax[_address] = _status */\n      0x0100\n      exp\n      dup2\n      sload\n      dup2\n      0xff\n      mul\n      not\n      and\n      swap1\n      dup4\n      iszero\n      iszero\n      mul\n      or\n      swap1\n      sstore\n      pop\n        /* \"VIMToken.sol\":2395:2432  changeWhitelistTax(_address, _status) */\n      0xe41efe2ec3272dff61fc1d94fe807a61b44e66814abe5f463e98a100b9bb852c\n        /* \"VIMToken.sol\":2414:2422  _address */\n      dup3\n        /* \"VIMToken.sol\":2424:2431  _status */\n      dup3\n        /* \"VIMToken.sol\":2395:2432  changeWhitelistTax(_address, _status) */\n      mload(0x40)\n      tag_196\n      swap3\n      swap2\n      swap1\n      tag_157\n      jump\t// in\n    tag_196:\n      mload(0x40)\n      dup1\n      swap2\n      sub\n      swap1\n      log1\n        /* \"VIMToken.sol\":2273:2437  function setWhitelist(address _address, bool _status) external onlyOwner {... */\n      pop\n      pop\n      jump\t// out\n        /* \"BEPPausable.sol\":272:298  bool public paused = false */\n    tag_82:\n      0x02\n      0x15\n      swap1\n      sload\n      swap1\n      0x0100\n      exp\n      swap1\n      div\n      0xff\n      and\n      dup2\n      jump\t// out\n        /* \"BEP20.sol\":1571:1682  function balanceOf(address account) public view override returns (uint256) {... */\n    tag_87:\n        /* \"BEP20.sol\":1637:1644  uint256 */\n      0x00\n        /* \"BEP20.sol\":1659:1668  _balances */\n      0x03\n        /* \"BEP20.sol\":1659:1677  _balances[account] */\n      0x00\n        /* \"BEP20.sol\":1669:1676  account */\n      dup4\n        /* \"BEP20.sol\":1659:1677  _balances[account] */\n      0xffffffffffffffffffffffffffffffffffffffff\n      and\n      0xffffffffffffffffffffffffffffffffffffffff\n      and\n      dup2\n      mstore\n      0x20\n      add\n      swap1\n      dup2\n      mstore\n      0x20\n      add\n      0x00\n      keccak256\n      sload\n        /* \"BEP20.sol\":1652:1677  return _balances[account] */\n      swap1\n      pop\n        /* \"BEP20.sol\":1571:1682  function balanceOf(address account) public view override returns (uint256) {... */\n      swap2\n      swap1\n      pop\n      jump\t// out\n        /* \"BEPOwnable.sol\":1630:1757  function renounceOwnership() public onlyOwner {... */\n    tag_90:\n        /* \"BEPOwnable.sol\":1085:1094  isOwner() */\n      tag_199\n        /* \"BEPOwnable.sol\":1085:1092  isOwner */\n      tag_99\n        /* \"BEPOwnable.sol\":1085:1094  isOwner() */\n      jump\t// in\n    tag_199:\n        /* \"BEPOwnable.sol\":1077:1131  require(isOwner(), \"Ownable: caller is not the owner\") */\n      tag_200\n      jumpi\n      mload(0x40)\n      0x08c379a000000000000000000000000000000000000000000000000000000000\n      dup2\n      mstore\n      0x04\n      add\n      tag_201\n      swap1\n      tag_145\n      jump\t// in\n    tag_201:\n      mload(0x40)\n      dup1\n      swap2\n      sub\n      swap1\n      revert\n    tag_200:\n        /* \"BEPOwnable.sol\":1724:1725  0 */\n      0x00\n        /* \"BEPOwnable.sol\":1687:1727  OwnershipTransferred(_owner, address(0)) */\n      0xffffffffffffffffffffffffffffffffffffffff\n      and\n        /* \"BEPOwnable.sol\":1708:1714  _owner */\n      0x02\n      0x01\n      swap1\n      sload\n      swap1\n      0x0100\n      exp\n      swap1\n      div\n      0xffffffffffffffffffffffffffffffffffffffff\n      and\n        /* \"BEPOwnable.sol\":1687:1727  OwnershipTransferred(_owner, address(0)) */\n      0xffffffffffffffffffffffffffffffffffffffff\n      and\n      0x8be0079c531659141344cd1fd0a4f28419497f9722a3daafe3b4186f6b6457e0\n      mload(0x40)\n      mload(0x40)\n      dup1\n      swap2\n      sub\n      swap1\n      log3\n        /* \"BEPOwnable.sol\":1750:1751  0 */\n      0x00\n        /* \"BEPOwnable.sol\":1733:1739  _owner */\n      0x02\n      0x01\n        /* \"BEPOwnable.sol\":1733:1752  _owner = address(0) */\n      0x0100\n      exp\n      dup2\n      sload\n      dup2\n      0xffffffffffffffffffffffffffffffffffffffff\n      mul\n      not\n      and\n      swap1\n      dup4\n      0xffffffffffffffffffffffffffffffffffffffff\n      and\n      mul\n      or\n      swap1\n      sstore\n      pop\n        /* \"BEPOwnable.sol\":1630:1757  function renounceOwnership() public onlyOwner {... */\n      jump\t// out\n        /* \"BEPPausable.sol\":666:788  function pause() public onlyOwner whenNotPaused returns (bool) {... */\n    tag_92:\n        /* \"BEPPausable.sol\":723:727  bool */\n      0x00\n        /* \"BEPOwnable.sol\":1085:1094  isOwner() */\n      tag_204\n        /* \"BEPOwnable.sol\":1085:1092  isOwner */\n      tag_99\n        /* \"BEPOwnable.sol\":1085:1094  isOwner() */\n      jump\t// in\n    tag_204:\n        /* \"BEPOwnable.sol\":1077:1131  require(isOwner(), \"Ownable: caller is not the owner\") */\n      tag_205\n      jumpi\n      mload(0x40)\n      0x08c379a000000000000000000000000000000000000000000000000000000000\n      dup2\n      mstore\n      0x04\n      add\n      tag_206\n      swap1\n      tag_145\n      jump\t// in\n    tag_206:\n      mload(0x40)\n      dup1\n      swap2\n      sub\n      swap1\n      revert\n    tag_205:\n        /* \"BEPPausable.sol\":424:430  paused */\n      0x02\n      0x15\n      swap1\n      sload\n      swap1\n      0x0100\n      exp\n      swap1\n      div\n      0xff\n      and\n        /* \"BEPPausable.sol\":423:430  !paused */\n      iszero\n        /* \"BEPPausable.sol\":415:431  require(!paused) */\n      tag_208\n      jumpi\n      0x00\n      dup1\n      revert\n    tag_208:\n        /* \"BEPPausable.sol\":744:748  true */\n      0x01\n        /* \"BEPPausable.sol\":735:741  paused */\n      0x02\n      0x15\n        /* \"BEPPausable.sol\":735:748  paused = true */\n      0x0100\n      exp\n      dup2\n      sload\n      dup2\n      0xff\n      mul\n      not\n      and\n      swap1\n      dup4\n      iszero\n      iszero\n      mul\n      or\n      swap1\n      sstore\n      pop\n        /* \"BEPPausable.sol\":759:766  Pause() */\n      0x6985a02210a168e66602d3235cb6db0e70f92b3ba4d376a33c0f3d9434bff625\n      mload(0x40)\n      mload(0x40)\n      dup1\n      swap2\n      sub\n      swap1\n      log1\n        /* \"BEPPausable.sol\":779:783  true */\n      0x01\n        /* \"BEPPausable.sol\":772:783  return true */\n      swap1\n      pop\n        /* \"BEPPausable.sol\":666:788  function pause() public onlyOwner whenNotPaused returns (bool) {... */\n      swap1\n      jump\t// out\n        /* \"BEPOwnable.sol\":899:970  function owner() public view returns (address) {... */\n    tag_95:\n        /* \"BEPOwnable.sol\":937:944  address */\n      0x00\n        /* \"BEPOwnable.sol\":959:965  _owner */\n      0x02\n      0x01\n      swap1\n      sload\n      swap1\n      0x0100\n      exp\n      swap1\n      div\n      0xffffffffffffffffffffffffffffffffffffffff\n      and\n        /* \"BEPOwnable.sol\":952:965  return _owner */\n      swap1\n      pop\n        /* \"BEPOwnable.sol\":899:970  function owner() public view returns (address) {... */\n      swap1\n      jump\t// out\n        /* \"BEPOwnable.sol\":1218:1304  function isOwner() public view returns (bool) {... */\n    tag_99:\n        /* \"BEPOwnable.sol\":1258:1262  bool */\n      0x00\n        /* \"BEPOwnable.sol\":1293:1299  _owner */\n      0x02\n      0x01\n      swap1\n      sload\n      swap1\n      0x0100\n      exp\n      swap1\n      div\n      0xffffffffffffffffffffffffffffffffffffffff\n      and\n        /* \"BEPOwnable.sol\":1277:1299  _msgSender() == _owner */\n      0xffffffffffffffffffffffffffffffffffffffff\n      and\n        /* \"BEPOwnable.sol\":1277:1289  _msgSender() */\n      tag_212\n        /* \"BEPOwnable.sol\":1277:1287  _msgSender */\n      tag_139\n        /* \"BEPOwnable.sol\":1277:1289  _msgSender() */\n      jump\t// in\n    tag_212:\n        /* \"BEPOwnable.sol\":1277:1299  _msgSender() == _owner */\n      0xffffffffffffffffffffffffffffffffffffffff\n      and\n      eq\n        /* \"BEPOwnable.sol\":1270:1299  return _msgSender() == _owner */\n      swap1\n      pop\n        /* \"BEPOwnable.sol\":1218:1304  function isOwner() public view returns (bool) {... */\n      swap1\n      jump\t// out\n        /* \"BEP20Detailed.sol\":802:881  function symbol() public view returns (string memory) {... */\n    tag_102:\n        /* \"BEP20Detailed.sol\":841:854  string memory */\n      0x60\n        /* \"BEP20Detailed.sol\":869:876  _symbol */\n      0x01\n        /* \"BEP20Detailed.sol\":862:876  return _symbol */\n      dup1\n      sload\n      tag_214\n      swap1\n      tag_129\n      jump\t// in\n    tag_214:\n      dup1\n      0x1f\n      add\n      0x20\n      dup1\n      swap2\n      div\n      mul\n      0x20\n      add\n      mload(0x40)\n      swap1\n      dup2\n      add\n      0x40\n      mstore\n      dup1\n      swap3\n      swap2\n      swap1\n      dup2\n      dup2\n      mstore\n      0x20\n      add\n      dup3\n      dup1\n      sload\n      tag_215\n      swap1\n      tag_129\n      jump\t// in\n    tag_215:\n      dup1\n      iszero\n      tag_216\n      jumpi\n      dup1\n      0x1f\n      lt\n      tag_217\n      jumpi\n      0x0100\n      dup1\n      dup4\n      sload\n      div\n      mul\n      dup4\n      mstore\n      swap2\n      0x20\n      add\n      swap2\n      jump(tag_216)\n    tag_217:\n      dup3\n      add\n      swap2\n      swap1\n      0x00\n      mstore\n      keccak256(0x00, 0x20)\n      swap1\n    tag_218:\n      dup2\n      sload\n      dup2\n      mstore\n      swap1\n      0x01\n      add\n      swap1\n      0x20\n      add\n      dup1\n      dup4\n      gt\n      tag_218\n      jumpi\n      dup3\n      swap1\n      sub\n      0x1f\n      and\n      dup3\n      add\n      swap2\n    tag_216:\n      pop\n      pop\n      pop\n      pop\n      pop\n      swap1\n      pop\n        /* \"BEP20Detailed.sol\":802:881  function symbol() public view returns (string memory) {... */\n      swap1\n      jump\t// out\n        /* \"BEP20.sol\":4338:4624  function decreaseAllowance(address spender, uint256 subtractedValue) public whenNotPaused returns (bool) {... */\n    tag_106:\n        /* \"BEP20.sol\":4437:4441  bool */\n      0x00\n        /* \"BEPPausable.sol\":424:430  paused */\n      0x02\n      0x15\n      swap1\n      sload\n      swap1\n      0x0100\n      exp\n      swap1\n      div\n      0xff\n      and\n        /* \"BEPPausable.sol\":423:430  !paused */\n      iszero\n        /* \"BEPPausable.sol\":415:431  require(!paused) */\n      tag_220\n      jumpi\n      0x00\n      dup1\n      revert\n    tag_220:\n        /* \"BEP20.sol\":4449:4602  _approve(... */\n      tag_222\n        /* \"BEP20.sol\":4465:4477  _msgSender() */\n      tag_223\n        /* \"BEP20.sol\":4465:4475  _msgSender */\n      tag_139\n        /* \"BEP20.sol\":4465:4477  _msgSender() */\n      jump\t// in\n    tag_223:\n        /* \"BEP20.sol\":4485:4492  spender */\n      dup5\n        /* \"BEP20.sol\":4500:4596  _allowances[_msgSender()][spender].sub(subtractedValue, \"BEP20: decreased allowance below zero\") */\n      tag_224\n        /* \"BEP20.sol\":4539:4554  subtractedValue */\n      dup6\n        /* \"BEP20.sol\":4500:4596  _allowances[_msgSender()][spender].sub(subtractedValue, \"BEP20: decreased allowance below zero\") */\n      mload(0x40)\n      dup1\n      0x60\n      add\n      0x40\n      mstore\n      dup1\n      0x25\n      dup2\n      mstore\n      0x20\n      add\n      data_b7060b3538dcd3ddc8a941c91636a8115a1aa46914747fd9809d543bbb46cd22\n      0x25\n      swap2\n      codecopy\n        /* \"BEP20.sol\":4500:4511  _allowances */\n      0x04\n        /* \"BEP20.sol\":4500:4525  _allowances[_msgSender()] */\n      0x00\n        /* \"BEP20.sol\":4512:4524  _msgSender() */\n      tag_225\n        /* \"BEP20.sol\":4512:4522  _msgSender */\n      tag_139\n        /* \"BEP20.sol\":4512:4524  _msgSender() */\n      jump\t// in\n    tag_225:\n        /* \"BEP20.sol\":4500:4525  _allowances[_msgSender()] */\n      0xffffffffffffffffffffffffffffffffffffffff\n      and\n      0xffffffffffffffffffffffffffffffffffffffff\n      and\n      dup2\n      mstore\n      0x20\n      add\n      swap1\n      dup2\n      mstore\n      0x20\n      add\n      0x00\n      keccak256\n        /* \"BEP20.sol\":4500:4534  _allowances[_msgSender()][spender] */\n      0x00\n        /* \"BEP20.sol\":4526:4533  spender */\n      dup11\n        /* \"BEP20.sol\":4500:4534  _allowances[_msgSender()][spender] */\n      0xffffffffffffffffffffffffffffffffffffffff\n      and\n      0xffffffffffffffffffffffffffffffffffffffff\n      and\n      dup2\n      mstore\n      0x20\n      add\n      swap1\n      dup2\n      mstore\n      0x20\n      add\n      0x00\n      keccak256\n      sload\n        /* \"BEP20.sol\":4500:4538  _allowances[_msgSender()][spender].sub */\n      tag_174\n      swap1\n        /* \"BEP20.sol\":4500:4596  _allowances[_msgSender()][spender].sub(subtractedValue, \"BEP20: decreased allowance below zero\") */\n      swap3\n      swap2\n      swap1\n      0xffffffff\n      and\n      jump\t// in\n    tag_224:\n        /* \"BEP20.sol\":4449:4457  _approve */\n      tag_140\n        /* \"BEP20.sol\":4449:4602  _approve(... */\n      jump\t// in\n    tag_222:\n        /* \"BEP20.sol\":4615:4619  true */\n      0x01\n        /* \"BEP20.sol\":4608:4619  return true */\n      swap1\n      pop\n        /* \"BEP20.sol\":4338:4624  function decreaseAllowance(address spender, uint256 subtractedValue) public whenNotPaused returns (bool) {... */\n      swap3\n      swap2\n      pop\n      pop\n      jump\t// out\n        /* \"VIMToken.sol\":1652:1808  function setMarketingPool(address _marketingPool) external onlyOwner {... */\n    tag_110:\n        /* \"BEPOwnable.sol\":1085:1094  isOwner() */\n      tag_227\n        /* \"BEPOwnable.sol\":1085:1092  isOwner */\n      tag_99\n        /* \"BEPOwnable.sol\":1085:1094  isOwner() */\n      jump\t// in\n    tag_227:\n        /* \"BEPOwnable.sol\":1077:1131  require(isOwner(), \"Ownable: caller is not the owner\") */\n      tag_228\n      jumpi\n      mload(0x40)\n      0x08c379a000000000000000000000000000000000000000000000000000000000\n      dup2\n      mstore\n      0x04\n      add\n      tag_229\n      swap1\n      tag_145\n      jump\t// in\n    tag_229:\n      mload(0x40)\n      dup1\n      swap2\n      sub\n      swap1\n      revert\n    tag_228:\n        /* \"VIMToken.sol\":1743:1757  _marketingPool */\n      dup1\n        /* \"VIMToken.sol\":1727:1740  marketingPool */\n      0x0c\n      0x00\n        /* \"VIMToken.sol\":1727:1757  marketingPool = _marketingPool */\n      0x0100\n      exp\n      dup2\n      sload\n      dup2\n      0xffffffffffffffffffffffffffffffffffffffff\n      mul\n      not\n      and\n      swap1\n      dup4\n      0xffffffffffffffffffffffffffffffffffffffff\n      and\n      mul\n      or\n      swap1\n      sstore\n      pop\n        /* \"VIMToken.sol\":1768:1803  changeMarketingPool(_marketingPool) */\n      0xf15d5716db5d5d79f695e387fc3e7c89982c0df6f4b81a006e38cfdc850a712e\n        /* \"VIMToken.sol\":1788:1802  _marketingPool */\n      dup2\n        /* \"VIMToken.sol\":1768:1803  changeMarketingPool(_marketingPool) */\n      mload(0x40)\n      tag_231\n      swap2\n      swap1\n      tag_97\n      jump\t// in\n    tag_231:\n      mload(0x40)\n      dup1\n      swap2\n      sub\n      swap1\n      log1\n        /* \"VIMToken.sol\":1652:1808  function setMarketingPool(address _marketingPool) external onlyOwner {... */\n      pop\n      jump\t// out\n        /* \"BEP20.sol\":1867:2043  function transfer(address recipient, uint256 amount) public virtual override whenNotPaused returns (bool) {... */\n    tag_113:\n        /* \"BEP20.sol\":1967:1971  bool */\n      0x00\n        /* \"BEPPausable.sol\":424:430  paused */\n      0x02\n      0x15\n      swap1\n      sload\n      swap1\n      0x0100\n      exp\n      swap1\n      div\n      0xff\n      and\n        /* \"BEPPausable.sol\":423:430  !paused */\n      iszero\n        /* \"BEPPausable.sol\":415:431  require(!paused) */\n      tag_233\n      jumpi\n      0x00\n      dup1\n      revert\n    tag_233:\n        /* \"BEP20.sol\":1979:2021  _transfer(_msgSender(), recipient, amount) */\n      tag_235\n        /* \"BEP20.sol\":1989:2001  _msgSender() */\n      tag_236\n        /* \"BEP20.sol\":1989:1999  _msgSender */\n      tag_139\n        /* \"BEP20.sol\":1989:2001  _msgSender() */\n      jump\t// in\n    tag_236:\n        /* \"BEP20.sol\":2003:2012  recipient */\n      dup5\n        /* \"BEP20.sol\":2014:2020  amount */\n      dup5\n        /* \"BEP20.sol\":1979:1988  _transfer */\n      tag_169\n        /* \"BEP20.sol\":1979:2021  _transfer(_msgSender(), recipient, amount) */\n      jump\t// in\n    tag_235:\n        /* \"BEP20.sol\":2034:2038  true */\n      0x01\n        /* \"BEP20.sol\":2027:2038  return true */\n      swap1\n      pop\n        /* \"BEP20.sol\":1867:2043  function transfer(address recipient, uint256 amount) public virtual override whenNotPaused returns (bool) {... */\n      swap3\n      swap2\n      pop\n      pop\n      jump\t// out\n        /* \"VIMToken.sol\":1460:1648  function setLiquidityPoolStatus(address _lpAddress, bool _status) external onlyOwner {... */\n    tag_117:\n        /* \"BEPOwnable.sol\":1085:1094  isOwner() */\n      tag_238\n        /* \"BEPOwnable.sol\":1085:1092  isOwner */\n      tag_99\n        /* \"BEPOwnable.sol\":1085:1094  isOwner() */\n      jump\t// in\n    tag_238:\n        /* \"BEPOwnable.sol\":1077:1131  require(isOwner(), \"Ownable: caller is not the owner\") */\n      tag_239\n      jumpi\n      mload(0x40)\n      0x08c379a000000000000000000000000000000000000000000000000000000000\n      dup2\n      mstore\n      0x04\n      add\n      tag_240\n      swap1\n      tag_145\n      jump\t// in\n    tag_240:\n      mload(0x40)\n      dup1\n      swap2\n      sub\n      swap1\n      revert\n    tag_239:\n        /* \"VIMToken.sol\":1579:1586  _status */\n      dup1\n        /* \"VIMToken.sol\":1551:1564  liquidityPool */\n      0x07\n        /* \"VIMToken.sol\":1551:1576  liquidityPool[_lpAddress] */\n      0x00\n        /* \"VIMToken.sol\":1565:1575  _lpAddress */\n      dup5\n        /* \"VIMToken.sol\":1551:1576  liquidityPool[_lpAddress] */\n      0xffffffffffffffffffffffffffffffffffffffff\n      and\n      0xffffffffffffffffffffffffffffffffffffffff\n      and\n      dup2\n      mstore\n      0x20\n      add\n      swap1\n      dup2\n      mstore\n      0x20\n      add\n      0x00\n      keccak256\n      0x00\n        /* \"VIMToken.sol\":1551:1586  liquidityPool[_lpAddress] = _status */\n      0x0100\n      exp\n      dup2\n      sload\n      dup2\n      0xff\n      mul\n      not\n      and\n      swap1\n      dup4\n      iszero\n      iszero\n      mul\n      or\n      swap1\n      sstore\n      pop\n        /* \"VIMToken.sol\":1597:1643  changeLiquidityPoolStatus(_lpAddress, _status) */\n      0x50d3135c1831a86bdc04740f17c94415767240d338df5795b37fb5b8272f80d7\n        /* \"VIMToken.sol\":1623:1633  _lpAddress */\n      dup3\n        /* \"VIMToken.sol\":1635:1642  _status */\n      dup3\n        /* \"VIMToken.sol\":1597:1643  changeLiquidityPoolStatus(_lpAddress, _status) */\n      mload(0x40)\n      tag_242\n      swap3\n      swap2\n      swap1\n      tag_157\n      jump\t// in\n    tag_242:\n      mload(0x40)\n      dup1\n      swap2\n      sub\n      swap1\n      log1\n        /* \"VIMToken.sol\":1460:1648  function setLiquidityPoolStatus(address _lpAddress, bool _status) external onlyOwner {... */\n      pop\n      pop\n      jump\t// out\n        /* \"BEP20.sol\":2093:2228  function allowance(address owner, address spender) public view override returns (uint256) {... */\n    tag_121:\n        /* \"BEP20.sol\":2174:2181  uint256 */\n      0x00\n        /* \"BEP20.sol\":2196:2207  _allowances */\n      0x04\n        /* \"BEP20.sol\":2196:2214  _allowances[owner] */\n      0x00\n        /* \"BEP20.sol\":2208:2213  owner */\n      dup5\n        /* \"BEP20.sol\":2196:2214  _allowances[owner] */\n      0xffffffffffffffffffffffffffffffffffffffff\n      and\n      0xffffffffffffffffffffffffffffffffffffffff\n      and\n      dup2\n      mstore\n      0x20\n      add\n      swap1\n      dup2\n      mstore\n      0x20\n      add\n      0x00\n      keccak256\n        /* \"BEP20.sol\":2196:2223  _allowances[owner][spender] */\n      0x00\n        /* \"BEP20.sol\":2215:2222  spender */\n      dup4\n        /* \"BEP20.sol\":2196:2223  _allowances[owner][spender] */\n      0xffffffffffffffffffffffffffffffffffffffff\n      and\n      0xffffffffffffffffffffffffffffffffffffffff\n      and\n      dup2\n      mstore\n      0x20\n      add\n      swap1\n      dup2\n      mstore\n      0x20\n      add\n      0x00\n      keccak256\n      sload\n        /* \"BEP20.sol\":2189:2223  return _allowances[owner][spender] */\n      swap1\n      pop\n        /* \"BEP20.sol\":2093:2228  function allowance(address owner, address spender) public view override returns (uint256) {... */\n      swap3\n      swap2\n      pop\n      pop\n      jump\t// out\n        /* \"BEPOwnable.sol\":1896:1997  function transferOwnership(address newOwner) public onlyOwner {... */\n    tag_125:\n        /* \"BEPOwnable.sol\":1085:1094  isOwner() */\n      tag_245\n        /* \"BEPOwnable.sol\":1085:1092  isOwner */\n      tag_99\n        /* \"BEPOwnable.sol\":1085:1094  isOwner() */\n      jump\t// in\n    tag_245:\n        /* \"BEPOwnable.sol\":1077:1131  require(isOwner(), \"Ownable: caller is not the owner\") */\n      tag_246\n      jumpi\n      mload(0x40)\n      0x08c379a000000000000000000000000000000000000000000000000000000000\n      dup2\n      mstore\n      0x04\n      add\n      tag_247\n      swap1\n      tag_145\n      jump\t// in\n    tag_247:\n      mload(0x40)\n      dup1\n      swap2\n      sub\n      swap1\n      revert\n    tag_246:\n        /* \"BEPOwnable.sol\":1964:1992  _transferOwnership(newOwner) */\n      tag_249\n        /* \"BEPOwnable.sol\":1983:1991  newOwner */\n      dup2\n        /* \"BEPOwnable.sol\":1964:1982  _transferOwnership */\n      tag_250\n        /* \"BEPOwnable.sol\":1964:1992  _transferOwnership(newOwner) */\n      jump\t// in\n    tag_249:\n        /* \"BEPOwnable.sol\":1896:1997  function transferOwnership(address newOwner) public onlyOwner {... */\n      pop\n      jump\t// out\n        /* \"SafeMath.sol\":858:1020  function add(uint256 a, uint256 b) internal pure returns (uint256) {... */\n    tag_126:\n        /* \"SafeMath.sol\":916:923  uint256 */\n      0x00\n        /* \"SafeMath.sol\":931:940  uint256 c */\n      dup1\n        /* \"SafeMath.sol\":947:948  b */\n      dup3\n        /* \"SafeMath.sol\":943:944  a */\n      dup5\n        /* \"SafeMath.sol\":943:948  a + b */\n      tag_252\n      swap2\n      swap1\n      tag_253\n      jump\t// in\n    tag_252:\n        /* \"SafeMath.sol\":931:948  uint256 c = a + b */\n      swap1\n      pop\n        /* \"SafeMath.sol\":967:968  a */\n      dup4\n        /* \"SafeMath.sol\":962:963  c */\n      dup2\n        /* \"SafeMath.sol\":962:968  c >= a */\n      lt\n      iszero\n        /* \"SafeMath.sol\":954:1000  require(c >= a, \"SafeMath: addition overflow\") */\n      tag_254\n      jumpi\n      mload(0x40)\n      0x08c379a000000000000000000000000000000000000000000000000000000000\n      dup2\n      mstore\n      0x04\n      add\n      tag_255\n      swap1\n      tag_256\n      jump\t// in\n    tag_255:\n      mload(0x40)\n      dup1\n      swap2\n      sub\n      swap1\n      revert\n    tag_254:\n        /* \"SafeMath.sol\":1014:1015  c */\n      dup1\n        /* \"SafeMath.sol\":1007:1015  return c */\n      swap2\n      pop\n      pop\n        /* \"SafeMath.sol\":858:1020  function add(uint256 a, uint256 b) internal pure returns (uint256) {... */\n      swap3\n      swap2\n      pop\n      pop\n      jump\t// out\n        /* \"BEPContext.sol\":760:859  function _msgSender() internal view returns (address payable) {... */\n    tag_139:\n        /* \"BEPContext.sol\":805:820  address payable */\n      0x00\n        /* \"BEPContext.sol\":843:853  msg.sender */\n      caller\n        /* \"BEPContext.sol\":828:854  return payable(msg.sender) */\n      swap1\n      pop\n        /* \"BEPContext.sol\":760:859  function _msgSender() internal view returns (address payable) {... */\n      swap1\n      jump\t// out\n        /* \"BEP20.sol\":7084:7414  function _approve(... */\n    tag_140:\n        /* \"BEP20.sol\":7206:7207  0 */\n      0x00\n        /* \"BEP20.sol\":7189:7208  owner != address(0) */\n      0xffffffffffffffffffffffffffffffffffffffff\n      and\n        /* \"BEP20.sol\":7189:7194  owner */\n      dup4\n        /* \"BEP20.sol\":7189:7208  owner != address(0) */\n      0xffffffffffffffffffffffffffffffffffffffff\n      and\n      eq\n      iszero\n        /* \"BEP20.sol\":7181:7249  require(owner != address(0), \"BEP20: approve from the zero address\") */\n      tag_259\n      jumpi\n      mload(0x40)\n      0x08c379a000000000000000000000000000000000000000000000000000000000\n      dup2\n      mstore\n      0x04\n      add\n      tag_260\n      swap1\n      tag_261\n      jump\t// in\n    tag_260:\n      mload(0x40)\n      dup1\n      swap2\n      sub\n      swap1\n      revert\n    tag_259:\n        /* \"BEP20.sol\":7282:7283  0 */\n      0x00\n        /* \"BEP20.sol\":7263:7284  spender != address(0) */\n      0xffffffffffffffffffffffffffffffffffffffff\n      and\n        /* \"BEP20.sol\":7263:7270  spender */\n      dup3\n        /* \"BEP20.sol\":7263:7284  spender != address(0) */\n      0xffffffffffffffffffffffffffffffffffffffff\n      and\n      eq\n      iszero\n        /* \"BEP20.sol\":7255:7323  require(spender != address(0), \"BEP20: approve to the zero address\") */\n      tag_262\n      jumpi\n      mload(0x40)\n      0x08c379a000000000000000000000000000000000000000000000000000000000\n      dup2\n      mstore\n      0x04\n      add\n      tag_263\n      swap1\n      tag_264\n      jump\t// in\n    tag_263:\n      mload(0x40)\n      dup1\n      swap2\n      sub\n      swap1\n      revert\n    tag_262:\n        /* \"BEP20.sol\":7360:7366  amount */\n      dup1\n        /* \"BEP20.sol\":7330:7341  _allowances */\n      0x04\n        /* \"BEP20.sol\":7330:7348  _allowances[owner] */\n      0x00\n        /* \"BEP20.sol\":7342:7347  owner */\n      dup6\n        /* \"BEP20.sol\":7330:7348  _allowances[owner] */\n      0xffffffffffffffffffffffffffffffffffffffff\n      and\n      0xffffffffffffffffffffffffffffffffffffffff\n      and\n      dup2\n      mstore\n      0x20\n      add\n      swap1\n      dup2\n      mstore\n      0x20\n      add\n      0x00\n      keccak256\n        /* \"BEP20.sol\":7330:7357  _allowances[owner][spender] */\n      0x00\n        /* \"BEP20.sol\":7349:7356  spender */\n      dup5\n        /* \"BEP20.sol\":7330:7357  _allowances[owner][spender] */\n      0xffffffffffffffffffffffffffffffffffffffff\n      and\n      0xffffffffffffffffffffffffffffffffffffffff\n      and\n      dup2\n      mstore\n      0x20\n      add\n      swap1\n      dup2\n      mstore\n      0x20\n      add\n      0x00\n      keccak256\n        /* \"BEP20.sol\":7330:7366  _allowances[owner][spender] = amount */\n      dup2\n      swap1\n      sstore\n      pop\n        /* \"BEP20.sol\":7393:7400  spender */\n      dup2\n        /* \"BEP20.sol\":7377:7409  Approval(owner, spender, amount) */\n      0xffffffffffffffffffffffffffffffffffffffff\n      and\n        /* \"BEP20.sol\":7386:7391  owner */\n      dup4\n        /* \"BEP20.sol\":7377:7409  Approval(owner, spender, amount) */\n      0xffffffffffffffffffffffffffffffffffffffff\n      and\n      0x8c5be1e5ebec7d5bd14f71427d1e84f3dd0314c0f7b2291e5b200ac8c7c3b925\n        /* \"BEP20.sol\":7402:7408  amount */\n      dup4\n        /* \"BEP20.sol\":7377:7409  Approval(owner, spender, amount) */\n      mload(0x40)\n      tag_265\n      swap2\n      swap1\n      tag_57\n      jump\t// in\n    tag_265:\n      mload(0x40)\n      dup1\n      swap2\n      sub\n      swap1\n      log3\n        /* \"BEP20.sol\":7084:7414  function _approve(... */\n      pop\n      pop\n      pop\n      jump\t// out\n        /* \"VIMToken.sol\":2445:3477  function _transfer(address sender, address receiver, uint256 amount) internal virtual override {... */\n    tag_169:\n        /* \"VIMToken.sol\":2574:2578  this */\n      address\n        /* \"VIMToken.sol\":2554:2579  receiver != address(this) */\n      0xffffffffffffffffffffffffffffffffffffffff\n      and\n        /* \"VIMToken.sol\":2554:2562  receiver */\n      dup3\n        /* \"VIMToken.sol\":2554:2579  receiver != address(this) */\n      0xffffffffffffffffffffffffffffffffffffffff\n      and\n      eq\n      iszero\n        /* \"VIMToken.sol\":2581:2624  string(\"No transfers to contract allowed.\") */\n      mload(0x40)\n      dup1\n      0x60\n      add\n      0x40\n      mstore\n      dup1\n      0x21\n      dup2\n      mstore\n      0x20\n      add\n      data_573d1ed4a921ea442c5f19a96dadd552e53378497b3e3c5c4f92b5237f17148e\n      0x21\n      swap2\n      codecopy\n        /* \"VIMToken.sol\":2546:2625  require(receiver != address(this), string(\"No transfers to contract allowed.\")) */\n      swap1\n      tag_267\n      jumpi\n      mload(0x40)\n      0x08c379a000000000000000000000000000000000000000000000000000000000\n      dup2\n      mstore\n      0x04\n      add\n      tag_268\n      swap2\n      swap1\n      tag_35\n      jump\t// in\n    tag_268:\n      mload(0x40)\n      dup1\n      swap2\n      sub\n      swap1\n      revert\n    tag_267:\n      pop\n        /* \"VIMToken.sol\":2640:2651  isBlacklist */\n      0x06\n        /* \"VIMToken.sol\":2640:2659  isBlacklist[sender] */\n      0x00\n        /* \"VIMToken.sol\":2652:2658  sender */\n      dup5\n        /* \"VIMToken.sol\":2640:2659  isBlacklist[sender] */\n      0xffffffffffffffffffffffffffffffffffffffff\n      and\n      0xffffffffffffffffffffffffffffffffffffffff\n      and\n      dup2\n      mstore\n      0x20\n      add\n      swap1\n      dup2\n      mstore\n      0x20\n      add\n      0x00\n      keccak256\n      0x00\n      swap1\n      sload\n      swap1\n      0x0100\n      exp\n      swap1\n      div\n      0xff\n      and\n        /* \"VIMToken.sol\":2639:2659  !isBlacklist[sender] */\n      iszero\n        /* \"VIMToken.sol\":2631:2679  require(!isBlacklist[sender],\"User blacklisted\") */\n      tag_269\n      jumpi\n      mload(0x40)\n      0x08c379a000000000000000000000000000000000000000000000000000000000\n      dup2\n      mstore\n      0x04\n      add\n      tag_270\n      swap1\n      tag_271\n      jump\t// in\n    tag_270:\n      mload(0x40)\n      dup1\n      swap2\n      sub\n      swap1\n      revert\n    tag_269:\n        /* \"VIMToken.sol\":2713:2717  true */\n      0x01\n        /* \"VIMToken.sol\":2688:2717  liquidityPool[sender] == true */\n      iszero\n      iszero\n        /* \"VIMToken.sol\":2688:2701  liquidityPool */\n      0x07\n        /* \"VIMToken.sol\":2688:2709  liquidityPool[sender] */\n      0x00\n        /* \"VIMToken.sol\":2702:2708  sender */\n      dup6\n        /* \"VIMToken.sol\":2688:2709  liquidityPool[sender] */\n      0xffffffffffffffffffffffffffffffffffffffff\n      and\n      0xffffffffffffffffffffffffffffffffffffffff\n      and\n      dup2\n      mstore\n      0x20\n      add\n      swap1\n      dup2\n      mstore\n      0x20\n      add\n      0x00\n      keccak256\n      0x00\n      swap1\n      sload\n      swap1\n      0x0100\n      exp\n      swap1\n      div\n      0xff\n      and\n        /* \"VIMToken.sol\":2688:2717  liquidityPool[sender] == true */\n      iszero\n      iszero\n      eq\n        /* \"VIMToken.sol\":2685:3318  if(liquidityPool[sender] == true) {... */\n      iszero\n      tag_272\n      jumpi\n        /* \"VIMToken.sol\":2798:2801  100 */\n      0x64\n        /* \"VIMToken.sol\":2788:2794  buyTax */\n      0x0a\n      0x00\n      swap1\n      sload\n      swap1\n      0x0100\n      exp\n      swap1\n      div\n      0xff\n      and\n        /* \"VIMToken.sol\":2779:2794  amount * buyTax */\n      0xff\n      and\n        /* \"VIMToken.sol\":2779:2785  amount */\n      dup3\n        /* \"VIMToken.sol\":2779:2794  amount * buyTax */\n      tag_273\n      swap2\n      swap1\n      tag_274\n      jump\t// in\n    tag_273:\n        /* \"VIMToken.sol\":2778:2801  (amount * buyTax) / 100 */\n      tag_275\n      swap2\n      swap1\n      tag_276\n      jump\t// in\n    tag_275:\n        /* \"VIMToken.sol\":2766:2775  taxAmount */\n      0x0b\n        /* \"VIMToken.sol\":2766:2801  taxAmount = (amount * buyTax) / 100 */\n      dup2\n      swap1\n      sstore\n      pop\n        /* \"VIMToken.sol\":2685:3318  if(liquidityPool[sender] == true) {... */\n      jump(tag_277)\n    tag_272:\n        /* \"VIMToken.sol\":2844:2848  true */\n      0x01\n        /* \"VIMToken.sol\":2817:2848  liquidityPool[receiver] == true */\n      iszero\n      iszero\n        /* \"VIMToken.sol\":2817:2830  liquidityPool */\n      0x07\n        /* \"VIMToken.sol\":2817:2840  liquidityPool[receiver] */\n      0x00\n        /* \"VIMToken.sol\":2831:2839  receiver */\n      dup5\n        /* \"VIMToken.sol\":2817:2840  liquidityPool[receiver] */\n      0xffffffffffffffffffffffffffffffffffffffff\n      and\n      0xffffffffffffffffffffffffffffffffffffffff\n      and\n      dup2\n      mstore\n      0x20\n      add\n      swap1\n      dup2\n      mstore\n      0x20\n      add\n      0x00\n      keccak256\n      0x00\n      swap1\n      sload\n      swap1\n      0x0100\n      exp\n      swap1\n      div\n      0xff\n      and\n        /* \"VIMToken.sol\":2817:2848  liquidityPool[receiver] == true */\n      iszero\n      iszero\n      eq\n        /* \"VIMToken.sol\":2814:3318  if(liquidityPool[receiver] == true) {      ... */\n      iszero\n      tag_278\n      jumpi\n        /* \"VIMToken.sol\":2937:2940  100 */\n      0x64\n        /* \"VIMToken.sol\":2926:2933  sellTax */\n      0x0a\n      0x01\n      swap1\n      sload\n      swap1\n      0x0100\n      exp\n      swap1\n      div\n      0xff\n      and\n        /* \"VIMToken.sol\":2917:2933  amount * sellTax */\n      0xff\n      and\n        /* \"VIMToken.sol\":2917:2923  amount */\n      dup3\n        /* \"VIMToken.sol\":2917:2933  amount * sellTax */\n      tag_279\n      swap2\n      swap1\n      tag_274\n      jump\t// in\n    tag_279:\n        /* \"VIMToken.sol\":2916:2940  (amount * sellTax) / 100 */\n      tag_280\n      swap2\n      swap1\n      tag_276\n      jump\t// in\n    tag_280:\n        /* \"VIMToken.sol\":2904:2913  taxAmount */\n      0x0b\n        /* \"VIMToken.sol\":2904:2940  taxAmount = (amount * sellTax) / 100 */\n      dup2\n      swap1\n      sstore\n      pop\n        /* \"VIMToken.sol\":2996:3009  tradeCooldown */\n      0x0a\n      0x02\n      swap1\n      sload\n      swap1\n      0x0100\n      exp\n      swap1\n      div\n      0xff\n      and\n        /* \"VIMToken.sol\":2978:3009  block.timestamp - tradeCooldown */\n      0xff\n      and\n        /* \"VIMToken.sol\":2978:2993  block.timestamp */\n      timestamp\n        /* \"VIMToken.sol\":2978:3009  block.timestamp - tradeCooldown */\n      tag_281\n      swap2\n      swap1\n      tag_282\n      jump\t// in\n    tag_281:\n        /* \"VIMToken.sol\":2957:2966  lastTrade */\n      0x09\n        /* \"VIMToken.sol\":2957:2974  lastTrade[sender] */\n      0x00\n        /* \"VIMToken.sol\":2967:2973  sender */\n      dup6\n        /* \"VIMToken.sol\":2957:2974  lastTrade[sender] */\n      0xffffffffffffffffffffffffffffffffffffffff\n      and\n      0xffffffffffffffffffffffffffffffffffffffff\n      and\n      dup2\n      mstore\n      0x20\n      add\n      swap1\n      dup2\n      mstore\n      0x20\n      add\n      0x00\n      keccak256\n      sload\n        /* \"VIMToken.sol\":2957:3010  lastTrade[sender] < (block.timestamp - tradeCooldown) */\n      lt\n        /* \"VIMToken.sol\":3012:3064  string(\"No consecutive sells allowed. Please wait.\") */\n      mload(0x40)\n      dup1\n      0x60\n      add\n      0x40\n      mstore\n      dup1\n      0x2a\n      dup2\n      mstore\n      0x20\n      add\n      data_7efdc62e202e71ba96d2ad4e93c3fc5c67ef5ce0b8f02ccfd2d78dc68ce32fc4\n      0x2a\n      swap2\n      codecopy\n        /* \"VIMToken.sol\":2949:3065  require(lastTrade[sender] < (block.timestamp - tradeCooldown), string(\"No consecutive sells allowed. Please wait.\")) */\n      swap1\n      tag_283\n      jumpi\n      mload(0x40)\n      0x08c379a000000000000000000000000000000000000000000000000000000000\n      dup2\n      mstore\n      0x04\n      add\n      tag_284\n      swap2\n      swap1\n      tag_35\n      jump\t// in\n    tag_284:\n      mload(0x40)\n      dup1\n      swap2\n      sub\n      swap1\n      revert\n    tag_283:\n      pop\n        /* \"VIMToken.sol\":3093:3108  block.timestamp */\n      timestamp\n        /* \"VIMToken.sol\":3073:3082  lastTrade */\n      0x09\n        /* \"VIMToken.sol\":3073:3090  lastTrade[sender] */\n      0x00\n        /* \"VIMToken.sol\":3083:3089  sender */\n      dup6\n        /* \"VIMToken.sol\":3073:3090  lastTrade[sender] */\n      0xffffffffffffffffffffffffffffffffffffffff\n      and\n      0xffffffffffffffffffffffffffffffffffffffff\n      and\n      dup2\n      mstore\n      0x20\n      add\n      swap1\n      dup2\n      mstore\n      0x20\n      add\n      0x00\n      keccak256\n        /* \"VIMToken.sol\":3073:3108  lastTrade[sender] = block.timestamp */\n      dup2\n      swap1\n      sstore\n      pop\n        /* \"VIMToken.sol\":2814:3318  if(liquidityPool[receiver] == true) {      ... */\n      jump(tag_285)\n    tag_278:\n        /* \"VIMToken.sol\":3125:3137  whitelistTax */\n      0x08\n        /* \"VIMToken.sol\":3125:3145  whitelistTax[sender] */\n      0x00\n        /* \"VIMToken.sol\":3138:3144  sender */\n      dup5\n        /* \"VIMToken.sol\":3125:3145  whitelistTax[sender] */\n      0xffffffffffffffffffffffffffffffffffffffff\n      and\n      0xffffffffffffffffffffffffffffffffffffffff\n      and\n      dup2\n      mstore\n      0x20\n      add\n      swap1\n      dup2\n      mstore\n      0x20\n      add\n      0x00\n      keccak256\n      0x00\n      swap1\n      sload\n      swap1\n      0x0100\n      exp\n      swap1\n      div\n      0xff\n      and\n        /* \"VIMToken.sol\":3125:3171  whitelistTax[sender] || whitelistTax[receiver] */\n      dup1\n      tag_286\n      jumpi\n      pop\n        /* \"VIMToken.sol\":3149:3161  whitelistTax */\n      0x08\n        /* \"VIMToken.sol\":3149:3171  whitelistTax[receiver] */\n      0x00\n        /* \"VIMToken.sol\":3162:3170  receiver */\n      dup4\n        /* \"VIMToken.sol\":3149:3171  whitelistTax[receiver] */\n      0xffffffffffffffffffffffffffffffffffffffff\n      and\n      0xffffffffffffffffffffffffffffffffffffffff\n      and\n      dup2\n      mstore\n      0x20\n      add\n      swap1\n      dup2\n      mstore\n      0x20\n      add\n      0x00\n      keccak256\n      0x00\n      swap1\n      sload\n      swap1\n      0x0100\n      exp\n      swap1\n      div\n      0xff\n      and\n        /* \"VIMToken.sol\":3125:3171  whitelistTax[sender] || whitelistTax[receiver] */\n    tag_286:\n        /* \"VIMToken.sol\":3125:3198  whitelistTax[sender] || whitelistTax[receiver] || sender == marketingPool */\n      dup1\n      tag_287\n      jumpi\n      pop\n        /* \"VIMToken.sol\":3185:3198  marketingPool */\n      0x0c\n      0x00\n      swap1\n      sload\n      swap1\n      0x0100\n      exp\n      swap1\n      div\n      0xffffffffffffffffffffffffffffffffffffffff\n      and\n        /* \"VIMToken.sol\":3175:3198  sender == marketingPool */\n      0xffffffffffffffffffffffffffffffffffffffff\n      and\n        /* \"VIMToken.sol\":3175:3181  sender */\n      dup4\n        /* \"VIMToken.sol\":3175:3198  sender == marketingPool */\n      0xffffffffffffffffffffffffffffffffffffffff\n      and\n      eq\n        /* \"VIMToken.sol\":3125:3198  whitelistTax[sender] || whitelistTax[receiver] || sender == marketingPool */\n    tag_287:\n        /* \"VIMToken.sol\":3125:3227  whitelistTax[sender] || whitelistTax[receiver] || sender == marketingPool || receiver == marketingPool */\n      dup1\n      tag_288\n      jumpi\n      pop\n        /* \"VIMToken.sol\":3214:3227  marketingPool */\n      0x0c\n      0x00\n      swap1\n      sload\n      swap1\n      0x0100\n      exp\n      swap1\n      div\n      0xffffffffffffffffffffffffffffffffffffffff\n      and\n        /* \"VIMToken.sol\":3202:3227  receiver == marketingPool */\n      0xffffffffffffffffffffffffffffffffffffffff\n      and\n        /* \"VIMToken.sol\":3202:3210  receiver */\n      dup3\n        /* \"VIMToken.sol\":3202:3227  receiver == marketingPool */\n      0xffffffffffffffffffffffffffffffffffffffff\n      and\n      eq\n        /* \"VIMToken.sol\":3125:3227  whitelistTax[sender] || whitelistTax[receiver] || sender == marketingPool || receiver == marketingPool */\n    tag_288:\n        /* \"VIMToken.sol\":3122:3318  if(whitelistTax[sender] || whitelistTax[receiver] || sender == marketingPool || receiver == marketingPool) {... */\n      iszero\n      tag_289\n      jumpi\n        /* \"VIMToken.sol\":3249:3250  0 */\n      0x00\n        /* \"VIMToken.sol\":3237:3246  taxAmount */\n      0x0b\n        /* \"VIMToken.sol\":3237:3250  taxAmount = 0 */\n      dup2\n      swap1\n      sstore\n      pop\n        /* \"VIMToken.sol\":3122:3318  if(whitelistTax[sender] || whitelistTax[receiver] || sender == marketingPool || receiver == marketingPool) {... */\n      jump(tag_290)\n    tag_289:\n        /* \"VIMToken.sol\":3308:3311  100 */\n      0x64\n        /* \"VIMToken.sol\":3293:3304  transferTax */\n      0x0a\n      0x03\n      swap1\n      sload\n      swap1\n      0x0100\n      exp\n      swap1\n      div\n      0xff\n      and\n        /* \"VIMToken.sol\":3284:3304  amount * transferTax */\n      0xff\n      and\n        /* \"VIMToken.sol\":3284:3290  amount */\n      dup3\n        /* \"VIMToken.sol\":3284:3304  amount * transferTax */\n      tag_291\n      swap2\n      swap1\n      tag_274\n      jump\t// in\n    tag_291:\n        /* \"VIMToken.sol\":3283:3311  (amount * transferTax) / 100 */\n      tag_292\n      swap2\n      swap1\n      tag_276\n      jump\t// in\n    tag_292:\n        /* \"VIMToken.sol\":3271:3280  taxAmount */\n      0x0b\n        /* \"VIMToken.sol\":3271:3311  taxAmount = (amount * transferTax) / 100 */\n      dup2\n      swap1\n      sstore\n      pop\n        /* \"VIMToken.sol\":3122:3318  if(whitelistTax[sender] || whitelistTax[receiver] || sender == marketingPool || receiver == marketingPool) {... */\n    tag_290:\n        /* \"VIMToken.sol\":2814:3318  if(liquidityPool[receiver] == true) {      ... */\n    tag_285:\n        /* \"VIMToken.sol\":2685:3318  if(liquidityPool[sender] == true) {... */\n    tag_277:\n        /* \"VIMToken.sol\":3343:3344  0 */\n      0x00\n        /* \"VIMToken.sol\":3331:3340  taxAmount */\n      sload(0x0b)\n        /* \"VIMToken.sol\":3331:3344  taxAmount > 0 */\n      gt\n        /* \"VIMToken.sol\":3328:3410  if(taxAmount > 0) {... */\n      iszero\n      tag_293\n      jumpi\n        /* \"VIMToken.sol\":3354:3403  super._transfer(sender, marketingPool, taxAmount) */\n      tag_294\n        /* \"VIMToken.sol\":3370:3376  sender */\n      dup4\n        /* \"VIMToken.sol\":3378:3391  marketingPool */\n      0x0c\n      0x00\n      swap1\n      sload\n      swap1\n      0x0100\n      exp\n      swap1\n      div\n      0xffffffffffffffffffffffffffffffffffffffff\n      and\n        /* \"VIMToken.sol\":3393:3402  taxAmount */\n      sload(0x0b)\n        /* \"VIMToken.sol\":3354:3369  super._transfer */\n      tag_295\n        /* \"VIMToken.sol\":3354:3403  super._transfer(sender, marketingPool, taxAmount) */\n      jump\t// in\n    tag_294:\n        /* \"VIMToken.sol\":3328:3410  if(taxAmount > 0) {... */\n    tag_293:\n        /* \"VIMToken.sol\":3419:3472  super._transfer(sender, receiver, amount - taxAmount) */\n      tag_296\n        /* \"VIMToken.sol\":3435:3441  sender */\n      dup4\n        /* \"VIMToken.sol\":3443:3451  receiver */\n      dup4\n        /* \"VIMToken.sol\":3462:3471  taxAmount */\n      sload(0x0b)\n        /* \"VIMToken.sol\":3453:3459  amount */\n      dup5\n        /* \"VIMToken.sol\":3453:3471  amount - taxAmount */\n      tag_297\n      swap2\n      swap1\n      tag_282\n      jump\t// in\n    tag_297:\n        /* \"VIMToken.sol\":3419:3434  super._transfer */\n      tag_295\n        /* \"VIMToken.sol\":3419:3472  super._transfer(sender, receiver, amount - taxAmount) */\n      jump\t// in\n    tag_296:\n        /* \"VIMToken.sol\":2445:3477  function _transfer(address sender, address receiver, uint256 amount) internal virtual override {... */\n      pop\n      pop\n      pop\n      jump\t// out\n        /* \"SafeMath.sol\":1692:1881  function sub(... */\n    tag_174:\n        /* \"SafeMath.sol\":1794:1801  uint256 */\n      0x00\n        /* \"SafeMath.sol\":1822:1823  a */\n      dup4\n        /* \"SafeMath.sol\":1817:1818  b */\n      dup4\n        /* \"SafeMath.sol\":1817:1823  b <= a */\n      gt\n      iszero\n        /* \"SafeMath.sol\":1825:1837  errorMessage */\n      dup3\n        /* \"SafeMath.sol\":1809:1838  require(b <= a, errorMessage) */\n      swap1\n      tag_299\n      jumpi\n      mload(0x40)\n      0x08c379a000000000000000000000000000000000000000000000000000000000\n      dup2\n      mstore\n      0x04\n      add\n      tag_300\n      swap2\n      swap1\n      tag_35\n      jump\t// in\n    tag_300:\n      mload(0x40)\n      dup1\n      swap2\n      sub\n      swap1\n      revert\n    tag_299:\n      pop\n        /* \"SafeMath.sol\":1844:1853  uint256 c */\n      0x00\n        /* \"SafeMath.sol\":1860:1861  b */\n      dup4\n        /* \"SafeMath.sol\":1856:1857  a */\n      dup6\n        /* \"SafeMath.sol\":1856:1861  a - b */\n      tag_301\n      swap2\n      swap1\n      tag_282\n      jump\t// in\n    tag_301:\n        /* \"SafeMath.sol\":1844:1861  uint256 c = a - b */\n      swap1\n      pop\n        /* \"SafeMath.sol\":1875:1876  c */\n      dup1\n        /* \"SafeMath.sol\":1868:1876  return c */\n      swap2\n      pop\n      pop\n        /* \"SafeMath.sol\":1692:1881  function sub(... */\n      swap4\n      swap3\n      pop\n      pop\n      pop\n      jump\t// out\n        /* \"BEPOwnable.sol\":2090:2301  function _transferOwnership(address newOwner) internal {... */\n    tag_250:\n        /* \"BEPOwnable.sol\":2179:2180  0 */\n      0x00\n        /* \"BEPOwnable.sol\":2159:2181  newOwner != address(0) */\n      0xffffffffffffffffffffffffffffffffffffffff\n      and\n        /* \"BEPOwnable.sol\":2159:2167  newOwner */\n      dup2\n        /* \"BEPOwnable.sol\":2159:2181  newOwner != address(0) */\n      0xffffffffffffffffffffffffffffffffffffffff\n      and\n      eq\n      iszero\n        /* \"BEPOwnable.sol\":2151:2224  require(newOwner != address(0), \"Ownable: new owner is the zero address\") */\n      tag_303\n      jumpi\n      mload(0x40)\n      0x08c379a000000000000000000000000000000000000000000000000000000000\n      dup2\n      mstore\n      0x04\n      add\n      tag_304\n      swap1\n      tag_305\n      jump\t// in\n    tag_304:\n      mload(0x40)\n      dup1\n      swap2\n      sub\n      swap1\n      revert\n    tag_303:\n        /* \"BEPOwnable.sol\":2264:2272  newOwner */\n      dup1\n        /* \"BEPOwnable.sol\":2235:2273  OwnershipTransferred(_owner, newOwner) */\n      0xffffffffffffffffffffffffffffffffffffffff\n      and\n        /* \"BEPOwnable.sol\":2256:2262  _owner */\n      0x02\n      0x01\n      swap1\n      sload\n      swap1\n      0x0100\n      exp\n      swap1\n      div\n      0xffffffffffffffffffffffffffffffffffffffff\n      and\n        /* \"BEPOwnable.sol\":2235:2273  OwnershipTransferred(_owner, newOwner) */\n      0xffffffffffffffffffffffffffffffffffffffff\n      and\n      0x8be0079c531659141344cd1fd0a4f28419497f9722a3daafe3b4186f6b6457e0\n      mload(0x40)\n      mload(0x40)\n      dup1\n      swap2\n      sub\n      swap1\n      log3\n        /* \"BEPOwnable.sol\":2288:2296  newOwner */\n      dup1\n        /* \"BEPOwnable.sol\":2279:2285  _owner */\n      0x02\n      0x01\n        /* \"BEPOwnable.sol\":2279:2296  _owner = newOwner */\n      0x0100\n      exp\n      dup2\n      sload\n      dup2\n      0xffffffffffffffffffffffffffffffffffffffff\n      mul\n      not\n      and\n      swap1\n      dup4\n      0xffffffffffffffffffffffffffffffffffffffff\n      and\n      mul\n      or\n      swap1\n      sstore\n      pop\n        /* \"BEPOwnable.sol\":2090:2301  function _transferOwnership(address newOwner) internal {... */\n      pop\n      jump\t// out\n        /* \"BEP20.sol\":5068:5534  function _transfer(... */\n    tag_295:\n        /* \"BEP20.sol\":5203:5204  0 */\n      0x00\n        /* \"BEP20.sol\":5185:5205  sender != address(0) */\n      0xffffffffffffffffffffffffffffffffffffffff\n      and\n        /* \"BEP20.sol\":5185:5191  sender */\n      dup4\n        /* \"BEP20.sol\":5185:5205  sender != address(0) */\n      0xffffffffffffffffffffffffffffffffffffffff\n      and\n      eq\n      iszero\n        /* \"BEP20.sol\":5177:5247  require(sender != address(0), \"BEP20: transfer from the zero address\") */\n      tag_307\n      jumpi\n      mload(0x40)\n      0x08c379a000000000000000000000000000000000000000000000000000000000\n      dup2\n      mstore\n      0x04\n      add\n      tag_308\n      swap1\n      tag_309\n      jump\t// in\n    tag_308:\n      mload(0x40)\n      dup1\n      swap2\n      sub\n      swap1\n      revert\n    tag_307:\n        /* \"BEP20.sol\":5282:5283  0 */\n      0x00\n        /* \"BEP20.sol\":5261:5284  recipient != address(0) */\n      0xffffffffffffffffffffffffffffffffffffffff\n      and\n        /* \"BEP20.sol\":5261:5270  recipient */\n      dup3\n        /* \"BEP20.sol\":5261:5284  recipient != address(0) */\n      0xffffffffffffffffffffffffffffffffffffffff\n      and\n      eq\n      iszero\n        /* \"BEP20.sol\":5253:5324  require(recipient != address(0), \"BEP20: transfer to the zero address\") */\n      tag_310\n      jumpi\n      mload(0x40)\n      0x08c379a000000000000000000000000000000000000000000000000000000000\n      dup2\n      mstore\n      0x04\n      add\n      tag_311\n      swap1\n      tag_312\n      jump\t// in\n    tag_311:\n      mload(0x40)\n      dup1\n      swap2\n      sub\n      swap1\n      revert\n    tag_310:\n        /* \"BEP20.sol\":5351:5422  _balances[sender].sub(amount, \"BEP20: transfer amount exceeds balance\") */\n      tag_313\n        /* \"BEP20.sol\":5373:5379  amount */\n      dup2\n        /* \"BEP20.sol\":5351:5422  _balances[sender].sub(amount, \"BEP20: transfer amount exceeds balance\") */\n      mload(0x40)\n      dup1\n      0x60\n      add\n      0x40\n      mstore\n      dup1\n      0x26\n      dup2\n      mstore\n      0x20\n      add\n      data_a91efd7a65ef5b4ae4d6568d674798b78a5a89184dd296c100513251c22d3e73\n      0x26\n      swap2\n      codecopy\n        /* \"BEP20.sol\":5351:5360  _balances */\n      0x03\n        /* \"BEP20.sol\":5351:5368  _balances[sender] */\n      0x00\n        /* \"BEP20.sol\":5361:5367  sender */\n      dup8\n        /* \"BEP20.sol\":5351:5368  _balances[sender] */\n      0xffffffffffffffffffffffffffffffffffffffff\n      and\n      0xffffffffffffffffffffffffffffffffffffffff\n      and\n      dup2\n      mstore\n      0x20\n      add\n      swap1\n      dup2\n      mstore\n      0x20\n      add\n      0x00\n      keccak256\n      sload\n        /* \"BEP20.sol\":5351:5372  _balances[sender].sub */\n      tag_174\n      swap1\n        /* \"BEP20.sol\":5351:5422  _balances[sender].sub(amount, \"BEP20: transfer amount exceeds balance\") */\n      swap3\n      swap2\n      swap1\n      0xffffffff\n      and\n      jump\t// in\n    tag_313:\n        /* \"BEP20.sol\":5331:5340  _balances */\n      0x03\n        /* \"BEP20.sol\":5331:5348  _balances[sender] */\n      0x00\n        /* \"BEP20.sol\":5341:5347  sender */\n      dup6\n        /* \"BEP20.sol\":5331:5348  _balances[sender] */\n      0xffffffffffffffffffffffffffffffffffffffff\n      and\n      0xffffffffffffffffffffffffffffffffffffffff\n      and\n      dup2\n      mstore\n      0x20\n      add\n      swap1\n      dup2\n      mstore\n      0x20\n      add\n      0x00\n      keccak256\n        /* \"BEP20.sol\":5331:5422  _balances[sender] = _balances[sender].sub(amount, \"BEP20: transfer amount exceeds balance\") */\n      dup2\n      swap1\n      sstore\n      pop\n        /* \"BEP20.sol\":5451:5483  _balances[recipient].add(amount) */\n      tag_314\n        /* \"BEP20.sol\":5476:5482  amount */\n      dup2\n        /* \"BEP20.sol\":5451:5460  _balances */\n      0x03\n        /* \"BEP20.sol\":5451:5471  _balances[recipient] */\n      0x00\n        /* \"BEP20.sol\":5461:5470  recipient */\n      dup6\n        /* \"BEP20.sol\":5451:5471  _balances[recipient] */\n      0xffffffffffffffffffffffffffffffffffffffff\n      and\n      0xffffffffffffffffffffffffffffffffffffffff\n      and\n      dup2\n      mstore\n      0x20\n      add\n      swap1\n      dup2\n      mstore\n      0x20\n      add\n      0x00\n      keccak256\n      sload\n        /* \"BEP20.sol\":5451:5475  _balances[recipient].add */\n      tag_126\n      swap1\n        /* \"BEP20.sol\":5451:5483  _balances[recipient].add(amount) */\n      swap2\n      swap1\n      0xffffffff\n      and\n      jump\t// in\n    tag_314:\n        /* \"BEP20.sol\":5428:5437  _balances */\n      0x03\n        /* \"BEP20.sol\":5428:5448  _balances[recipient] */\n      0x00\n        /* \"BEP20.sol\":5438:5447  recipient */\n      dup5\n        /* \"BEP20.sol\":5428:5448  _balances[recipient] */\n      0xffffffffffffffffffffffffffffffffffffffff\n      and\n      0xffffffffffffffffffffffffffffffffffffffff\n      and\n      dup2\n      mstore\n      0x20\n      add\n      swap1\n      dup2\n      mstore\n      0x20\n      add\n      0x00\n      keccak256\n        /* \"BEP20.sol\":5428:5483  _balances[recipient] = _balances[recipient].add(amount) */\n      dup2\n      swap1\n      sstore\n      pop\n        /* \"BEP20.sol\":5511:5520  recipient */\n      dup2\n        /* \"BEP20.sol\":5494:5529  Transfer(sender, recipient, amount) */\n      0xffffffffffffffffffffffffffffffffffffffff\n      and\n        /* \"BEP20.sol\":5503:5509  sender */\n      dup4\n        /* \"BEP20.sol\":5494:5529  Transfer(sender, recipient, amount) */\n      0xffffffffffffffffffffffffffffffffffffffff\n      and\n      0xddf252ad1be2c89b69c2b068fc378daa952ba7f163c4a11628f55a4df523b3ef\n        /* \"BEP20.sol\":5522:5528  amount */\n      dup4\n        /* \"BEP20.sol\":5494:5529  Transfer(sender, recipient, amount) */\n      mload(0x40)\n      tag_315\n      swap2\n      swap1\n      tag_57\n      jump\t// in\n    tag_315:\n      mload(0x40)\n      dup1\n      swap2\n      sub\n      swap1\n      log3\n        /* \"BEP20.sol\":5068:5534  function _transfer(... */\n      pop\n      pop\n      pop\n      jump\t// out\n        /* \"#utility.yul\":7:146   */\n    tag_317:\n        /* \"#utility.yul\":53:58   */\n      0x00\n        /* \"#utility.yul\":91:97   */\n      dup2\n        /* \"#utility.yul\":78:98   */\n      calldataload\n        /* \"#utility.yul\":69:98   */\n      swap1\n      pop\n        /* \"#utility.yul\":107:140   */\n      tag_319\n        /* \"#utility.yul\":134:139   */\n      dup2\n        /* \"#utility.yul\":107:140   */\n      tag_320\n      jump\t// in\n    tag_319:\n        /* \"#utility.yul\":7:146   */\n      swap3\n      swap2\n      pop\n      pop\n      jump\t// out\n        /* \"#utility.yul\":152:285   */\n    tag_321:\n        /* \"#utility.yul\":195:200   */\n      0x00\n        /* \"#utility.yul\":233:239   */\n      dup2\n        /* \"#utility.yul\":220:240   */\n      calldataload\n        /* \"#utility.yul\":211:240   */\n      swap1\n      pop\n        /* \"#utility.yul\":249:279   */\n      tag_323\n        /* \"#utility.yul\":273:278   */\n      dup2\n        /* \"#utility.yul\":249:279   */\n      tag_324\n      jump\t// in\n    tag_323:\n        /* \"#utility.yul\":152:285   */\n      swap3\n      swap2\n      pop\n      pop\n      jump\t// out\n        /* \"#utility.yul\":291:430   */\n    tag_325:\n        /* \"#utility.yul\":337:342   */\n      0x00\n        /* \"#utility.yul\":375:381   */\n      dup2\n        /* \"#utility.yul\":362:382   */\n      calldataload\n        /* \"#utility.yul\":353:382   */\n      swap1\n      pop\n        /* \"#utility.yul\":391:424   */\n      tag_327\n        /* \"#utility.yul\":418:423   */\n      dup2\n        /* \"#utility.yul\":391:424   */\n      tag_328\n      jump\t// in\n    tag_327:\n        /* \"#utility.yul\":291:430   */\n      swap3\n      swap2\n      pop\n      pop\n      jump\t// out\n        /* \"#utility.yul\":436:571   */\n    tag_329:\n        /* \"#utility.yul\":480:485   */\n      0x00\n        /* \"#utility.yul\":518:524   */\n      dup2\n        /* \"#utility.yul\":505:525   */\n      calldataload\n        /* \"#utility.yul\":496:525   */\n      swap1\n      pop\n        /* \"#utility.yul\":534:565   */\n      tag_331\n        /* \"#utility.yul\":559:564   */\n      dup2\n        /* \"#utility.yul\":534:565   */\n      tag_332\n      jump\t// in\n    tag_331:\n        /* \"#utility.yul\":436:571   */\n      swap3\n      swap2\n      pop\n      pop\n      jump\t// out\n        /* \"#utility.yul\":577:906   */\n    tag_86:\n        /* \"#utility.yul\":636:642   */\n      0x00\n        /* \"#utility.yul\":685:687   */\n      0x20\n        /* \"#utility.yul\":673:682   */\n      dup3\n        /* \"#utility.yul\":664:671   */\n      dup5\n        /* \"#utility.yul\":660:683   */\n      sub\n        /* \"#utility.yul\":656:688   */\n      slt\n        /* \"#utility.yul\":653:772   */\n      iszero\n      tag_334\n      jumpi\n        /* \"#utility.yul\":691:770   */\n      tag_335\n      tag_336\n      jump\t// in\n    tag_335:\n        /* \"#utility.yul\":653:772   */\n    tag_334:\n        /* \"#utility.yul\":811:812   */\n      0x00\n        /* \"#utility.yul\":836:889   */\n      tag_337\n        /* \"#utility.yul\":881:888   */\n      dup5\n        /* \"#utility.yul\":872:878   */\n      dup3\n        /* \"#utility.yul\":861:870   */\n      dup6\n        /* \"#utility.yul\":857:879   */\n      add\n        /* \"#utility.yul\":836:889   */\n      tag_317\n      jump\t// in\n    tag_337:\n        /* \"#utility.yul\":826:889   */\n      swap2\n      pop\n        /* \"#utility.yul\":782:899   */\n      pop\n        /* \"#utility.yul\":577:906   */\n      swap3\n      swap2\n      pop\n      pop\n      jump\t// out\n        /* \"#utility.yul\":912:1386   */\n    tag_120:\n        /* \"#utility.yul\":980:986   */\n      0x00\n        /* \"#utility.yul\":988:994   */\n      dup1\n        /* \"#utility.yul\":1037:1039   */\n      0x40\n        /* \"#utility.yul\":1025:1034   */\n      dup4\n        /* \"#utility.yul\":1016:1023   */\n      dup6\n        /* \"#utility.yul\":1012:1035   */\n      sub\n        /* \"#utility.yul\":1008:1040   */\n      slt\n        /* \"#utility.yul\":1005:1124   */\n      iszero\n      tag_339\n      jumpi\n        /* \"#utility.yul\":1043:1122   */\n      tag_340\n      tag_336\n      jump\t// in\n    tag_340:\n        /* \"#utility.yul\":1005:1124   */\n    tag_339:\n        /* \"#utility.yul\":1163:1164   */\n      0x00\n        /* \"#utility.yul\":1188:1241   */\n      tag_341\n        /* \"#utility.yul\":1233:1240   */\n      dup6\n        /* \"#utility.yul\":1224:1230   */\n      dup3\n        /* \"#utility.yul\":1213:1222   */\n      dup7\n        /* \"#utility.yul\":1209:1231   */\n      add\n        /* \"#utility.yul\":1188:1241   */\n      tag_317\n      jump\t// in\n    tag_341:\n        /* \"#utility.yul\":1178:1241   */\n      swap3\n      pop\n        /* \"#utility.yul\":1134:1251   */\n      pop\n        /* \"#utility.yul\":1290:1292   */\n      0x20\n        /* \"#utility.yul\":1316:1369   */\n      tag_342\n        /* \"#utility.yul\":1361:1368   */\n      dup6\n        /* \"#utility.yul\":1352:1358   */\n      dup3\n        /* \"#utility.yul\":1341:1350   */\n      dup7\n        /* \"#utility.yul\":1337:1359   */\n      add\n        /* \"#utility.yul\":1316:1369   */\n      tag_317\n      jump\t// in\n    tag_342:\n        /* \"#utility.yul\":1306:1369   */\n      swap2\n      pop\n        /* \"#utility.yul\":1261:1379   */\n      pop\n        /* \"#utility.yul\":912:1386   */\n      swap3\n      pop\n      swap3\n      swap1\n      pop\n      jump\t// out\n        /* \"#utility.yul\":1392:2011   */\n    tag_60:\n        /* \"#utility.yul\":1469:1475   */\n      0x00\n        /* \"#utility.yul\":1477:1483   */\n      dup1\n        /* \"#utility.yul\":1485:1491   */\n      0x00\n        /* \"#utility.yul\":1534:1536   */\n      0x60\n        /* \"#utility.yul\":1522:1531   */\n      dup5\n        /* \"#utility.yul\":1513:1520   */\n      dup7\n        /* \"#utility.yul\":1509:1532   */\n      sub\n        /* \"#utility.yul\":1505:1537   */\n      slt\n        /* \"#utility.yul\":1502:1621   */\n      iszero\n      tag_344\n      jumpi\n        /* \"#utility.yul\":1540:1619   */\n      tag_345\n      tag_336\n      jump\t// in\n    tag_345:\n        /* \"#utility.yul\":1502:1621   */\n    tag_344:\n        /* \"#utility.yul\":1660:1661   */\n      0x00\n        /* \"#utility.yul\":1685:1738   */\n      tag_346\n        /* \"#utility.yul\":1730:1737   */\n      dup7\n        /* \"#utility.yul\":1721:1727   */\n      dup3\n        /* \"#utility.yul\":1710:1719   */\n      dup8\n        /* \"#utility.yul\":1706:1728   */\n      add\n        /* \"#utility.yul\":1685:1738   */\n      tag_317\n      jump\t// in\n    tag_346:\n        /* \"#utility.yul\":1675:1738   */\n      swap4\n      pop\n        /* \"#utility.yul\":1631:1748   */\n      pop\n        /* \"#utility.yul\":1787:1789   */\n      0x20\n        /* \"#utility.yul\":1813:1866   */\n      tag_347\n        /* \"#utility.yul\":1858:1865   */\n      dup7\n        /* \"#utility.yul\":1849:1855   */\n      dup3\n        /* \"#utility.yul\":1838:1847   */\n      dup8\n        /* \"#utility.yul\":1834:1856   */\n      add\n        /* \"#utility.yul\":1813:1866   */\n      tag_317\n      jump\t// in\n    tag_347:\n        /* \"#utility.yul\":1803:1866   */\n      swap3\n      pop\n        /* \"#utility.yul\":1758:1876   */\n      pop\n        /* \"#utility.yul\":1915:1917   */\n      0x40\n        /* \"#utility.yul\":1941:1994   */\n      tag_348\n        /* \"#utility.yul\":1986:1993   */\n      dup7\n        /* \"#utility.yul\":1977:1983   */\n      dup3\n        /* \"#utility.yul\":1966:1975   */\n      dup8\n        /* \"#utility.yul\":1962:1984   */\n      add\n        /* \"#utility.yul\":1941:1994   */\n      tag_325\n      jump\t// in\n    tag_348:\n        /* \"#utility.yul\":1931:1994   */\n      swap2\n      pop\n        /* \"#utility.yul\":1886:2004   */\n      pop\n        /* \"#utility.yul\":1392:2011   */\n      swap3\n      pop\n      swap3\n      pop\n      swap3\n      jump\t// out\n        /* \"#utility.yul\":2017:2485   */\n    tag_48:\n        /* \"#utility.yul\":2082:2088   */\n      0x00\n        /* \"#utility.yul\":2090:2096   */\n      dup1\n        /* \"#utility.yul\":2139:2141   */\n      0x40\n        /* \"#utility.yul\":2127:2136   */\n      dup4\n        /* \"#utility.yul\":2118:2125   */\n      dup6\n        /* \"#utility.yul\":2114:2137   */\n      sub\n        /* \"#utility.yul\":2110:2142   */\n      slt\n        /* \"#utility.yul\":2107:2226   */\n      iszero\n      tag_350\n      jumpi\n        /* \"#utility.yul\":2145:2224   */\n      tag_351\n      tag_336\n      jump\t// in\n    tag_351:\n        /* \"#utility.yul\":2107:2226   */\n    tag_350:\n        /* \"#utility.yul\":2265:2266   */\n      0x00\n        /* \"#utility.yul\":2290:2343   */\n      tag_352\n        /* \"#utility.yul\":2335:2342   */\n      dup6\n        /* \"#utility.yul\":2326:2332   */\n      dup3\n        /* \"#utility.yul\":2315:2324   */\n      dup7\n        /* \"#utility.yul\":2311:2333   */\n      add\n        /* \"#utility.yul\":2290:2343   */\n      tag_317\n      jump\t// in\n    tag_352:\n        /* \"#utility.yul\":2280:2343   */\n      swap3\n      pop\n        /* \"#utility.yul\":2236:2353   */\n      pop\n        /* \"#utility.yul\":2392:2394   */\n      0x20\n        /* \"#utility.yul\":2418:2468   */\n      tag_353\n        /* \"#utility.yul\":2460:2467   */\n      dup6\n        /* \"#utility.yul\":2451:2457   */\n      dup3\n        /* \"#utility.yul\":2440:2449   */\n      dup7\n        /* \"#utility.yul\":2436:2458   */\n      add\n        /* \"#utility.yul\":2418:2468   */\n      tag_321\n      jump\t// in\n    tag_353:\n        /* \"#utility.yul\":2408:2468   */\n      swap2\n      pop\n        /* \"#utility.yul\":2363:2478   */\n      pop\n        /* \"#utility.yul\":2017:2485   */\n      swap3\n      pop\n      swap3\n      swap1\n      pop\n      jump\t// out\n        /* \"#utility.yul\":2491:2965   */\n    tag_38:\n        /* \"#utility.yul\":2559:2565   */\n      0x00\n        /* \"#utility.yul\":2567:2573   */\n      dup1\n        /* \"#utility.yul\":2616:2618   */\n      0x40\n        /* \"#utility.yul\":2604:2613   */\n      dup4\n        /* \"#utility.yul\":2595:2602   */\n      dup6\n        /* \"#utility.yul\":2591:2614   */\n      sub\n        /* \"#utility.yul\":2587:2619   */\n      slt\n        /* \"#utility.yul\":2584:2703   */\n      iszero\n      tag_355\n      jumpi\n        /* \"#utility.yul\":2622:2701   */\n      tag_356\n      tag_336\n      jump\t// in\n    tag_356:\n        /* \"#utility.yul\":2584:2703   */\n    tag_355:\n        /* \"#utility.yul\":2742:2743   */\n      0x00\n        /* \"#utility.yul\":2767:2820   */\n      tag_357\n        /* \"#utility.yul\":2812:2819   */\n      dup6\n        /* \"#utility.yul\":2803:2809   */\n      dup3\n        /* \"#utility.yul\":2792:2801   */\n      dup7\n        /* \"#utility.yul\":2788:2810   */\n      add\n        /* \"#utility.yul\":2767:2820   */\n      tag_317\n      jump\t// in\n    tag_357:\n        /* \"#utility.yul\":2757:2820   */\n      swap3\n      pop\n        /* \"#utility.yul\":2713:2830   */\n      pop\n        /* \"#utility.yul\":2869:2871   */\n      0x20\n        /* \"#utility.yul\":2895:2948   */\n      tag_358\n        /* \"#utility.yul\":2940:2947   */\n      dup6\n        /* \"#utility.yul\":2931:2937   */\n      dup3\n        /* \"#utility.yul\":2920:2929   */\n      dup7\n        /* \"#utility.yul\":2916:2938   */\n      add\n        /* \"#utility.yul\":2895:2948   */\n      tag_325\n      jump\t// in\n    tag_358:\n        /* \"#utility.yul\":2885:2948   */\n      swap2\n      pop\n        /* \"#utility.yul\":2840:2958   */\n      pop\n        /* \"#utility.yul\":2491:2965   */\n      swap3\n      pop\n      swap3\n      swap1\n      pop\n      jump\t// out\n        /* \"#utility.yul\":2971:3296   */\n    tag_52:\n        /* \"#utility.yul\":3028:3034   */\n      0x00\n        /* \"#utility.yul\":3077:3079   */\n      0x20\n        /* \"#utility.yul\":3065:3074   */\n      dup3\n        /* \"#utility.yul\":3056:3063   */\n      dup5\n        /* \"#utility.yul\":3052:3075   */\n      sub\n        /* \"#utility.yul\":3048:3080   */\n      slt\n        /* \"#utility.yul\":3045:3164   */\n      iszero\n      tag_360\n      jumpi\n        /* \"#utility.yul\":3083:3162   */\n      tag_361\n      tag_336\n      jump\t// in\n    tag_361:\n        /* \"#utility.yul\":3045:3164   */\n    tag_360:\n        /* \"#utility.yul\":3203:3204   */\n      0x00\n        /* \"#utility.yul\":3228:3279   */\n      tag_362\n        /* \"#utility.yul\":3271:3278   */\n      dup5\n        /* \"#utility.yul\":3262:3268   */\n      dup3\n        /* \"#utility.yul\":3251:3260   */\n      dup6\n        /* \"#utility.yul\":3247:3269   */\n      add\n        /* \"#utility.yul\":3228:3279   */\n      tag_329\n      jump\t// in\n    tag_362:\n        /* \"#utility.yul\":3218:3279   */\n      swap2\n      pop\n        /* \"#utility.yul\":3174:3289   */\n      pop\n        /* \"#utility.yul\":2971:3296   */\n      swap3\n      swap2\n      pop\n      pop\n      jump\t// out\n        /* \"#utility.yul\":3302:3909   */\n    tag_44:\n        /* \"#utility.yul\":3373:3379   */\n      0x00\n        /* \"#utility.yul\":3381:3387   */\n      dup1\n        /* \"#utility.yul\":3389:3395   */\n      0x00\n        /* \"#utility.yul\":3438:3440   */\n      0x60\n        /* \"#utility.yul\":3426:3435   */\n      dup5\n        /* \"#utility.yul\":3417:3424   */\n      dup7\n        /* \"#utility.yul\":3413:3436   */\n      sub\n        /* \"#utility.yul\":3409:3441   */\n      slt\n        /* \"#utility.yul\":3406:3525   */\n      iszero\n      tag_364\n      jumpi\n        /* \"#utility.yul\":3444:3523   */\n      tag_365\n      tag_336\n      jump\t// in\n    tag_365:\n        /* \"#utility.yul\":3406:3525   */\n    tag_364:\n        /* \"#utility.yul\":3564:3565   */\n      0x00\n        /* \"#utility.yul\":3589:3640   */\n      tag_366\n        /* \"#utility.yul\":3632:3639   */\n      dup7\n        /* \"#utility.yul\":3623:3629   */\n      dup3\n        /* \"#utility.yul\":3612:3621   */\n      dup8\n        /* \"#utility.yul\":3608:3630   */\n      add\n        /* \"#utility.yul\":3589:3640   */\n      tag_329\n      jump\t// in\n    tag_366:\n        /* \"#utility.yul\":3579:3640   */\n      swap4\n      pop\n        /* \"#utility.yul\":3535:3650   */\n      pop\n        /* \"#utility.yul\":3689:3691   */\n      0x20\n        /* \"#utility.yul\":3715:3766   */\n      tag_367\n        /* \"#utility.yul\":3758:3765   */\n      dup7\n        /* \"#utility.yul\":3749:3755   */\n      dup3\n        /* \"#utility.yul\":3738:3747   */\n      dup8\n        /* \"#utility.yul\":3734:3756   */\n      add\n        /* \"#utility.yul\":3715:3766   */\n      tag_329\n      jump\t// in\n    tag_367:\n        /* \"#utility.yul\":3705:3766   */\n      swap3\n      pop\n        /* \"#utility.yul\":3660:3776   */\n      pop\n        /* \"#utility.yul\":3815:3817   */\n      0x40\n        /* \"#utility.yul\":3841:3892   */\n      tag_368\n        /* \"#utility.yul\":3884:3891   */\n      dup7\n        /* \"#utility.yul\":3875:3881   */\n      dup3\n        /* \"#utility.yul\":3864:3873   */\n      dup8\n        /* \"#utility.yul\":3860:3882   */\n      add\n        /* \"#utility.yul\":3841:3892   */\n      tag_329\n      jump\t// in\n    tag_368:\n        /* \"#utility.yul\":3831:3892   */\n      swap2\n      pop\n        /* \"#utility.yul\":3786:3902   */\n      pop\n        /* \"#utility.yul\":3302:3909   */\n      swap3\n      pop\n      swap3\n      pop\n      swap3\n      jump\t// out\n        /* \"#utility.yul\":3915:4033   */\n    tag_369:\n        /* \"#utility.yul\":4002:4026   */\n      tag_371\n        /* \"#utility.yul\":4020:4025   */\n      dup2\n        /* \"#utility.yul\":4002:4026   */\n      tag_372\n      jump\t// in\n    tag_371:\n        /* \"#utility.yul\":3997:4000   */\n      dup3\n        /* \"#utility.yul\":3990:4027   */\n      mstore\n        /* \"#utility.yul\":3915:4033   */\n      pop\n      pop\n      jump\t// out\n        /* \"#utility.yul\":4039:4148   */\n    tag_373:\n        /* \"#utility.yul\":4120:4141   */\n      tag_375\n        /* \"#utility.yul\":4135:4140   */\n      dup2\n        /* \"#utility.yul\":4120:4141   */\n      tag_376\n      jump\t// in\n    tag_375:\n        /* \"#utility.yul\":4115:4118   */\n      dup3\n        /* \"#utility.yul\":4108:4142   */\n      mstore\n        /* \"#utility.yul\":4039:4148   */\n      pop\n      pop\n      jump\t// out\n        /* \"#utility.yul\":4154:4518   */\n    tag_377:\n        /* \"#utility.yul\":4242:4245   */\n      0x00\n        /* \"#utility.yul\":4270:4309   */\n      tag_379\n        /* \"#utility.yul\":4303:4308   */\n      dup3\n        /* \"#utility.yul\":4270:4309   */\n      tag_380\n      jump\t// in\n    tag_379:\n        /* \"#utility.yul\":4325:4396   */\n      tag_381\n        /* \"#utility.yul\":4389:4395   */\n      dup2\n        /* \"#utility.yul\":4384:4387   */\n      dup6\n        /* \"#utility.yul\":4325:4396   */\n      tag_382\n      jump\t// in\n    tag_381:\n        /* \"#utility.yul\":4318:4396   */\n      swap4\n      pop\n        /* \"#utility.yul\":4405:4457   */\n      tag_383\n        /* \"#utility.yul\":4450:4456   */\n      dup2\n        /* \"#utility.yul\":4445:4448   */\n      dup6\n        /* \"#utility.yul\":4438:4442   */\n      0x20\n        /* \"#utility.yul\":4431:4436   */\n      dup7\n        /* \"#utility.yul\":4427:4443   */\n      add\n        /* \"#utility.yul\":4405:4457   */\n      tag_384\n      jump\t// in\n    tag_383:\n        /* \"#utility.yul\":4482:4511   */\n      tag_385\n        /* \"#utility.yul\":4504:4510   */\n      dup2\n        /* \"#utility.yul\":4482:4511   */\n      tag_386\n      jump\t// in\n    tag_385:\n        /* \"#utility.yul\":4477:4480   */\n      dup5\n        /* \"#utility.yul\":4473:4512   */\n      add\n        /* \"#utility.yul\":4466:4512   */\n      swap2\n      pop\n        /* \"#utility.yul\":4246:4518   */\n      pop\n        /* \"#utility.yul\":4154:4518   */\n      swap3\n      swap2\n      pop\n      pop\n      jump\t// out\n        /* \"#utility.yul\":4524:4890   */\n    tag_387:\n        /* \"#utility.yul\":4666:4669   */\n      0x00\n        /* \"#utility.yul\":4687:4754   */\n      tag_389\n        /* \"#utility.yul\":4751:4753   */\n      0x25\n        /* \"#utility.yul\":4746:4749   */\n      dup4\n        /* \"#utility.yul\":4687:4754   */\n      tag_382\n      jump\t// in\n    tag_389:\n        /* \"#utility.yul\":4680:4754   */\n      swap2\n      pop\n        /* \"#utility.yul\":4763:4856   */\n      tag_390\n        /* \"#utility.yul\":4852:4855   */\n      dup3\n        /* \"#utility.yul\":4763:4856   */\n      tag_391\n      jump\t// in\n    tag_390:\n        /* \"#utility.yul\":4881:4883   */\n      0x40\n        /* \"#utility.yul\":4876:4879   */\n      dup3\n        /* \"#utility.yul\":4872:4884   */\n      add\n        /* \"#utility.yul\":4865:4884   */\n      swap1\n      pop\n        /* \"#utility.yul\":4524:4890   */\n      swap2\n      swap1\n      pop\n      jump\t// out\n        /* \"#utility.yul\":4896:5262   */\n    tag_392:\n        /* \"#utility.yul\":5038:5041   */\n      0x00\n        /* \"#utility.yul\":5059:5126   */\n      tag_394\n        /* \"#utility.yul\":5123:5125   */\n      0x24\n        /* \"#utility.yul\":5118:5121   */\n      dup4\n        /* \"#utility.yul\":5059:5126   */\n      tag_382\n      jump\t// in\n    tag_394:\n        /* \"#utility.yul\":5052:5126   */\n      swap2\n      pop\n        /* \"#utility.yul\":5135:5228   */\n      tag_395\n        /* \"#utility.yul\":5224:5227   */\n      dup3\n        /* \"#utility.yul\":5135:5228   */\n      tag_396\n      jump\t// in\n    tag_395:\n        /* \"#utility.yul\":5253:5255   */\n      0x40\n        /* \"#utility.yul\":5248:5251   */\n      dup3\n        /* \"#utility.yul\":5244:5256   */\n      add\n        /* \"#utility.yul\":5237:5256   */\n      swap1\n      pop\n        /* \"#utility.yul\":4896:5262   */\n      swap2\n      swap1\n      pop\n      jump\t// out\n        /* \"#utility.yul\":5268:5634   */\n    tag_397:\n        /* \"#utility.yul\":5410:5413   */\n      0x00\n        /* \"#utility.yul\":5431:5498   */\n      tag_399\n        /* \"#utility.yul\":5495:5497   */\n      0x26\n        /* \"#utility.yul\":5490:5493   */\n      dup4\n        /* \"#utility.yul\":5431:5498   */\n      tag_382\n      jump\t// in\n    tag_399:\n        /* \"#utility.yul\":5424:5498   */\n      swap2\n      pop\n        /* \"#utility.yul\":5507:5600   */\n      tag_400\n        /* \"#utility.yul\":5596:5599   */\n      dup3\n        /* \"#utility.yul\":5507:5600   */\n      tag_401\n      jump\t// in\n    tag_400:\n        /* \"#utility.yul\":5625:5627   */\n      0x40\n        /* \"#utility.yul\":5620:5623   */\n      dup3\n        /* \"#utility.yul\":5616:5628   */\n      add\n        /* \"#utility.yul\":5609:5628   */\n      swap1\n      pop\n        /* \"#utility.yul\":5268:5634   */\n      swap2\n      swap1\n      pop\n      jump\t// out\n        /* \"#utility.yul\":5640:6006   */\n    tag_402:\n        /* \"#utility.yul\":5782:5785   */\n      0x00\n        /* \"#utility.yul\":5803:5870   */\n      tag_404\n        /* \"#utility.yul\":5867:5869   */\n      0x1b\n        /* \"#utility.yul\":5862:5865   */\n      dup4\n        /* \"#utility.yul\":5803:5870   */\n      tag_382\n      jump\t// in\n    tag_404:\n        /* \"#utility.yul\":5796:5870   */\n      swap2\n      pop\n        /* \"#utility.yul\":5879:5972   */\n      tag_405\n        /* \"#utility.yul\":5968:5971   */\n      dup3\n        /* \"#utility.yul\":5879:5972   */\n      tag_406\n      jump\t// in\n    tag_405:\n        /* \"#utility.yul\":5997:5999   */\n      0x20\n        /* \"#utility.yul\":5992:5995   */\n      dup3\n        /* \"#utility.yul\":5988:6000   */\n      add\n        /* \"#utility.yul\":5981:6000   */\n      swap1\n      pop\n        /* \"#utility.yul\":5640:6006   */\n      swap2\n      swap1\n      pop\n      jump\t// out\n        /* \"#utility.yul\":6012:6378   */\n    tag_407:\n        /* \"#utility.yul\":6154:6157   */\n      0x00\n        /* \"#utility.yul\":6175:6242   */\n      tag_409\n        /* \"#utility.yul\":6239:6241   */\n      0x10\n        /* \"#utility.yul\":6234:6237   */\n      dup4\n        /* \"#utility.yul\":6175:6242   */\n      tag_382\n      jump\t// in\n    tag_409:\n        /* \"#utility.yul\":6168:6242   */\n      swap2\n      pop\n        /* \"#utility.yul\":6251:6344   */\n      tag_410\n        /* \"#utility.yul\":6340:6343   */\n      dup3\n        /* \"#utility.yul\":6251:6344   */\n      tag_411\n      jump\t// in\n    tag_410:\n        /* \"#utility.yul\":6369:6371   */\n      0x20\n        /* \"#utility.yul\":6364:6367   */\n      dup3\n        /* \"#utility.yul\":6360:6372   */\n      add\n        /* \"#utility.yul\":6353:6372   */\n      swap1\n      pop\n        /* \"#utility.yul\":6012:6378   */\n      swap2\n      swap1\n      pop\n      jump\t// out\n        /* \"#utility.yul\":6384:6750   */\n    tag_412:\n        /* \"#utility.yul\":6526:6529   */\n      0x00\n        /* \"#utility.yul\":6547:6614   */\n      tag_414\n        /* \"#utility.yul\":6611:6613   */\n      0x20\n        /* \"#utility.yul\":6606:6609   */\n      dup4\n        /* \"#utility.yul\":6547:6614   */\n      tag_382\n      jump\t// in\n    tag_414:\n        /* \"#utility.yul\":6540:6614   */\n      swap2\n      pop\n        /* \"#utility.yul\":6623:6716   */\n      tag_415\n        /* \"#utility.yul\":6712:6715   */\n      dup3\n        /* \"#utility.yul\":6623:6716   */\n      tag_416\n      jump\t// in\n    tag_415:\n        /* \"#utility.yul\":6741:6743   */\n      0x20\n        /* \"#utility.yul\":6736:6739   */\n      dup3\n        /* \"#utility.yul\":6732:6744   */\n      add\n        /* \"#utility.yul\":6725:6744   */\n      swap1\n      pop\n        /* \"#utility.yul\":6384:6750   */\n      swap2\n      swap1\n      pop\n      jump\t// out\n        /* \"#utility.yul\":6756:7122   */\n    tag_417:\n        /* \"#utility.yul\":6898:6901   */\n      0x00\n        /* \"#utility.yul\":6919:6986   */\n      tag_419\n        /* \"#utility.yul\":6983:6985   */\n      0x23\n        /* \"#utility.yul\":6978:6981   */\n      dup4\n        /* \"#utility.yul\":6919:6986   */\n      tag_382\n      jump\t// in\n    tag_419:\n        /* \"#utility.yul\":6912:6986   */\n      swap2\n      pop\n        /* \"#utility.yul\":6995:7088   */\n      tag_420\n        /* \"#utility.yul\":7084:7087   */\n      dup3\n        /* \"#utility.yul\":6995:7088   */\n      tag_421\n      jump\t// in\n    tag_420:\n        /* \"#utility.yul\":7113:7115   */\n      0x40\n        /* \"#utility.yul\":7108:7111   */\n      dup3\n        /* \"#utility.yul\":7104:7116   */\n      add\n        /* \"#utility.yul\":7097:7116   */\n      swap1\n      pop\n        /* \"#utility.yul\":6756:7122   */\n      swap2\n      swap1\n      pop\n      jump\t// out\n        /* \"#utility.yul\":7128:7494   */\n    tag_422:\n        /* \"#utility.yul\":7270:7273   */\n      0x00\n        /* \"#utility.yul\":7291:7358   */\n      tag_424\n        /* \"#utility.yul\":7355:7357   */\n      0x22\n        /* \"#utility.yul\":7350:7353   */\n      dup4\n        /* \"#utility.yul\":7291:7358   */\n      tag_382\n      jump\t// in\n    tag_424:\n        /* \"#utility.yul\":7284:7358   */\n      swap2\n      pop\n        /* \"#utility.yul\":7367:7460   */\n      tag_425\n        /* \"#utility.yul\":7456:7459   */\n      dup3\n        /* \"#utility.yul\":7367:7460   */\n      tag_426\n      jump\t// in\n    tag_425:\n        /* \"#utility.yul\":7485:7487   */\n      0x40\n        /* \"#utility.yul\":7480:7483   */\n      dup3\n        /* \"#utility.yul\":7476:7488   */\n      add\n        /* \"#utility.yul\":7469:7488   */\n      swap1\n      pop\n        /* \"#utility.yul\":7128:7494   */\n      swap2\n      swap1\n      pop\n      jump\t// out\n        /* \"#utility.yul\":7500:7618   */\n    tag_427:\n        /* \"#utility.yul\":7587:7611   */\n      tag_429\n        /* \"#utility.yul\":7605:7610   */\n      dup2\n        /* \"#utility.yul\":7587:7611   */\n      tag_430\n      jump\t// in\n    tag_429:\n        /* \"#utility.yul\":7582:7585   */\n      dup3\n        /* \"#utility.yul\":7575:7612   */\n      mstore\n        /* \"#utility.yul\":7500:7618   */\n      pop\n      pop\n      jump\t// out\n        /* \"#utility.yul\":7624:7736   */\n    tag_431:\n        /* \"#utility.yul\":7707:7729   */\n      tag_433\n        /* \"#utility.yul\":7723:7728   */\n      dup2\n        /* \"#utility.yul\":7707:7729   */\n      tag_434\n      jump\t// in\n    tag_433:\n        /* \"#utility.yul\":7702:7705   */\n      dup3\n        /* \"#utility.yul\":7695:7730   */\n      mstore\n        /* \"#utility.yul\":7624:7736   */\n      pop\n      pop\n      jump\t// out\n        /* \"#utility.yul\":7742:7964   */\n    tag_97:\n        /* \"#utility.yul\":7835:7839   */\n      0x00\n        /* \"#utility.yul\":7873:7875   */\n      0x20\n        /* \"#utility.yul\":7862:7871   */\n      dup3\n        /* \"#utility.yul\":7858:7876   */\n      add\n        /* \"#utility.yul\":7850:7876   */\n      swap1\n      pop\n        /* \"#utility.yul\":7886:7957   */\n      tag_436\n        /* \"#utility.yul\":7954:7955   */\n      0x00\n        /* \"#utility.yul\":7943:7952   */\n      dup4\n        /* \"#utility.yul\":7939:7956   */\n      add\n        /* \"#utility.yul\":7930:7936   */\n      dup5\n        /* \"#utility.yul\":7886:7957   */\n      tag_369\n      jump\t// in\n    tag_436:\n        /* \"#utility.yul\":7742:7964   */\n      swap3\n      swap2\n      pop\n      pop\n      jump\t// out\n        /* \"#utility.yul\":7970:8290   */\n    tag_157:\n        /* \"#utility.yul\":8085:8089   */\n      0x00\n        /* \"#utility.yul\":8123:8125   */\n      0x40\n        /* \"#utility.yul\":8112:8121   */\n      dup3\n        /* \"#utility.yul\":8108:8126   */\n      add\n        /* \"#utility.yul\":8100:8126   */\n      swap1\n      pop\n        /* \"#utility.yul\":8136:8207   */\n      tag_438\n        /* \"#utility.yul\":8204:8205   */\n      0x00\n        /* \"#utility.yul\":8193:8202   */\n      dup4\n        /* \"#utility.yul\":8189:8206   */\n      add\n        /* \"#utility.yul\":8180:8186   */\n      dup6\n        /* \"#utility.yul\":8136:8207   */\n      tag_369\n      jump\t// in\n    tag_438:\n        /* \"#utility.yul\":8217:8283   */\n      tag_439\n        /* \"#utility.yul\":8279:8281   */\n      0x20\n        /* \"#utility.yul\":8268:8277   */\n      dup4\n        /* \"#utility.yul\":8264:8282   */\n      add\n        /* \"#utility.yul\":8255:8261   */\n      dup5\n        /* \"#utility.yul\":8217:8283   */\n      tag_373\n      jump\t// in\n    tag_439:\n        /* \"#utility.yul\":7970:8290   */\n      swap4\n      swap3\n      pop\n      pop\n      pop\n      jump\t// out\n        /* \"#utility.yul\":8296:8506   */\n    tag_41:\n        /* \"#utility.yul\":8383:8387   */\n      0x00\n        /* \"#utility.yul\":8421:8423   */\n      0x20\n        /* \"#utility.yul\":8410:8419   */\n      dup3\n        /* \"#utility.yul\":8406:8424   */\n      add\n        /* \"#utility.yul\":8398:8424   */\n      swap1\n      pop\n        /* \"#utility.yul\":8434:8499   */\n      tag_441\n        /* \"#utility.yul\":8496:8497   */\n      0x00\n        /* \"#utility.yul\":8485:8494   */\n      dup4\n        /* \"#utility.yul\":8481:8498   */\n      add\n        /* \"#utility.yul\":8472:8478   */\n      dup5\n        /* \"#utility.yul\":8434:8499   */\n      tag_373\n      jump\t// in\n    tag_441:\n        /* \"#utility.yul\":8296:8506   */\n      swap3\n      swap2\n      pop\n      pop\n      jump\t// out\n        /* \"#utility.yul\":8512:8825   */\n    tag_35:\n        /* \"#utility.yul\":8625:8629   */\n      0x00\n        /* \"#utility.yul\":8663:8665   */\n      0x20\n        /* \"#utility.yul\":8652:8661   */\n      dup3\n        /* \"#utility.yul\":8648:8666   */\n      add\n        /* \"#utility.yul\":8640:8666   */\n      swap1\n      pop\n        /* \"#utility.yul\":8712:8721   */\n      dup2\n        /* \"#utility.yul\":8706:8710   */\n      dup2\n        /* \"#utility.yul\":8702:8722   */\n      sub\n        /* \"#utility.yul\":8698:8699   */\n      0x00\n        /* \"#utility.yul\":8687:8696   */\n      dup4\n        /* \"#utility.yul\":8683:8700   */\n      add\n        /* \"#utility.yul\":8676:8723   */\n      mstore\n        /* \"#utility.yul\":8740:8818   */\n      tag_443\n        /* \"#utility.yul\":8813:8817   */\n      dup2\n        /* \"#utility.yul\":8804:8810   */\n      dup5\n        /* \"#utility.yul\":8740:8818   */\n      tag_377\n      jump\t// in\n    tag_443:\n        /* \"#utility.yul\":8732:8818   */\n      swap1\n      pop\n        /* \"#utility.yul\":8512:8825   */\n      swap3\n      swap2\n      pop\n      pop\n      jump\t// out\n        /* \"#utility.yul\":8831:9250   */\n    tag_309:\n        /* \"#utility.yul\":8997:9001   */\n      0x00\n        /* \"#utility.yul\":9035:9037   */\n      0x20\n        /* \"#utility.yul\":9024:9033   */\n      dup3\n        /* \"#utility.yul\":9020:9038   */\n      add\n        /* \"#utility.yul\":9012:9038   */\n      swap1\n      pop\n        /* \"#utility.yul\":9084:9093   */\n      dup2\n        /* \"#utility.yul\":9078:9082   */\n      dup2\n        /* \"#utility.yul\":9074:9094   */\n      sub\n        /* \"#utility.yul\":9070:9071   */\n      0x00\n        /* \"#utility.yul\":9059:9068   */\n      dup4\n        /* \"#utility.yul\":9055:9072   */\n      add\n        /* \"#utility.yul\":9048:9095   */\n      mstore\n        /* \"#utility.yul\":9112:9243   */\n      tag_445\n        /* \"#utility.yul\":9238:9242   */\n      dup2\n        /* \"#utility.yul\":9112:9243   */\n      tag_387\n      jump\t// in\n    tag_445:\n        /* \"#utility.yul\":9104:9243   */\n      swap1\n      pop\n        /* \"#utility.yul\":8831:9250   */\n      swap2\n      swap1\n      pop\n      jump\t// out\n        /* \"#utility.yul\":9256:9675   */\n    tag_261:\n        /* \"#utility.yul\":9422:9426   */\n      0x00\n        /* \"#utility.yul\":9460:9462   */\n      0x20\n        /* \"#utility.yul\":9449:9458   */\n      dup3\n        /* \"#utility.yul\":9445:9463   */\n      add\n        /* \"#utility.yul\":9437:9463   */\n      swap1\n      pop\n        /* \"#utility.yul\":9509:9518   */\n      dup2\n        /* \"#utility.yul\":9503:9507   */\n      dup2\n        /* \"#utility.yul\":9499:9519   */\n      sub\n        /* \"#utility.yul\":9495:9496   */\n      0x00\n        /* \"#utility.yul\":9484:9493   */\n      dup4\n        /* \"#utility.yul\":9480:9497   */\n      add\n        /* \"#utility.yul\":9473:9520   */\n      mstore\n        /* \"#utility.yul\":9537:9668   */\n      tag_447\n        /* \"#utility.yul\":9663:9667   */\n      dup2\n        /* \"#utility.yul\":9537:9668   */\n      tag_392\n      jump\t// in\n    tag_447:\n        /* \"#utility.yul\":9529:9668   */\n      swap1\n      pop\n        /* \"#utility.yul\":9256:9675   */\n      swap2\n      swap1\n      pop\n      jump\t// out\n        /* \"#utility.yul\":9681:10100   */\n    tag_305:\n        /* \"#utility.yul\":9847:9851   */\n      0x00\n        /* \"#utility.yul\":9885:9887   */\n      0x20\n        /* \"#utility.yul\":9874:9883   */\n      dup3\n        /* \"#utility.yul\":9870:9888   */\n      add\n        /* \"#utility.yul\":9862:9888   */\n      swap1\n      pop\n        /* \"#utility.yul\":9934:9943   */\n      dup2\n        /* \"#utility.yul\":9928:9932   */\n      dup2\n        /* \"#utility.yul\":9924:9944   */\n      sub\n        /* \"#utility.yul\":9920:9921   */\n      0x00\n        /* \"#utility.yul\":9909:9918   */\n      dup4\n        /* \"#utility.yul\":9905:9922   */\n      add\n        /* \"#utility.yul\":9898:9945   */\n      mstore\n        /* \"#utility.yul\":9962:10093   */\n      tag_449\n        /* \"#utility.yul\":10088:10092   */\n      dup2\n        /* \"#utility.yul\":9962:10093   */\n      tag_397\n      jump\t// in\n    tag_449:\n        /* \"#utility.yul\":9954:10093   */\n      swap1\n      pop\n        /* \"#utility.yul\":9681:10100   */\n      swap2\n      swap1\n      pop\n      jump\t// out\n        /* \"#utility.yul\":10106:10525   */\n    tag_256:\n        /* \"#utility.yul\":10272:10276   */\n      0x00\n        /* \"#utility.yul\":10310:10312   */\n      0x20\n        /* \"#utility.yul\":10299:10308   */\n      dup3\n        /* \"#utility.yul\":10295:10313   */\n      add\n        /* \"#utility.yul\":10287:10313   */\n      swap1\n      pop\n        /* \"#utility.yul\":10359:10368   */\n      dup2\n        /* \"#utility.yul\":10353:10357   */\n      dup2\n        /* \"#utility.yul\":10349:10369   */\n      sub\n        /* \"#utility.yul\":10345:10346   */\n      0x00\n        /* \"#utility.yul\":10334:10343   */\n      dup4\n        /* \"#utility.yul\":10330:10347   */\n      add\n        /* \"#utility.yul\":10323:10370   */\n      mstore\n        /* \"#utility.yul\":10387:10518   */\n      tag_451\n        /* \"#utility.yul\":10513:10517   */\n      dup2\n        /* \"#utility.yul\":10387:10518   */\n      tag_402\n      jump\t// in\n    tag_451:\n        /* \"#utility.yul\":10379:10518   */\n      swap1\n      pop\n        /* \"#utility.yul\":10106:10525   */\n      swap2\n      swap1\n      pop\n      jump\t// out\n        /* \"#utility.yul\":10531:10950   */\n    tag_271:\n        /* \"#utility.yul\":10697:10701   */\n      0x00\n        /* \"#utility.yul\":10735:10737   */\n      0x20\n        /* \"#utility.yul\":10724:10733   */\n      dup3\n        /* \"#utility.yul\":10720:10738   */\n      add\n        /* \"#utility.yul\":10712:10738   */\n      swap1\n      pop\n        /* \"#utility.yul\":10784:10793   */\n      dup2\n        /* \"#utility.yul\":10778:10782   */\n      dup2\n        /* \"#utility.yul\":10774:10794   */\n      sub\n        /* \"#utility.yul\":10770:10771   */\n      0x00\n        /* \"#utility.yul\":10759:10768   */\n      dup4\n        /* \"#utility.yul\":10755:10772   */\n      add\n        /* \"#utility.yul\":10748:10795   */\n      mstore\n        /* \"#utility.yul\":10812:10943   */\n      tag_453\n        /* \"#utility.yul\":10938:10942   */\n      dup2\n        /* \"#utility.yul\":10812:10943   */\n      tag_407\n      jump\t// in\n    tag_453:\n        /* \"#utility.yul\":10804:10943   */\n      swap1\n      pop\n        /* \"#utility.yul\":10531:10950   */\n      swap2\n      swap1\n      pop\n      jump\t// out\n        /* \"#utility.yul\":10956:11375   */\n    tag_145:\n        /* \"#utility.yul\":11122:11126   */\n      0x00\n        /* \"#utility.yul\":11160:11162   */\n      0x20\n        /* \"#utility.yul\":11149:11158   */\n      dup3\n        /* \"#utility.yul\":11145:11163   */\n      add\n        /* \"#utility.yul\":11137:11163   */\n      swap1\n      pop\n        /* \"#utility.yul\":11209:11218   */\n      dup2\n        /* \"#utility.yul\":11203:11207   */\n      dup2\n        /* \"#utility.yul\":11199:11219   */\n      sub\n        /* \"#utility.yul\":11195:11196   */\n      0x00\n        /* \"#utility.yul\":11184:11193   */\n      dup4\n        /* \"#utility.yul\":11180:11197   */\n      add\n        /* \"#utility.yul\":11173:11220   */\n      mstore\n        /* \"#utility.yul\":11237:11368   */\n      tag_455\n        /* \"#utility.yul\":11363:11367   */\n      dup2\n        /* \"#utility.yul\":11237:11368   */\n      tag_412\n      jump\t// in\n    tag_455:\n        /* \"#utility.yul\":11229:11368   */\n      swap1\n      pop\n        /* \"#utility.yul\":10956:11375   */\n      swap2\n      swap1\n      pop\n      jump\t// out\n        /* \"#utility.yul\":11381:11800   */\n    tag_312:\n        /* \"#utility.yul\":11547:11551   */\n      0x00\n        /* \"#utility.yul\":11585:11587   */\n      0x20\n        /* \"#utility.yul\":11574:11583   */\n      dup3\n        /* \"#utility.yul\":11570:11588   */\n      add\n        /* \"#utility.yul\":11562:11588   */\n      swap1\n      pop\n        /* \"#utility.yul\":11634:11643   */\n      dup2\n        /* \"#utility.yul\":11628:11632   */\n      dup2\n        /* \"#utility.yul\":11624:11644   */\n      sub\n        /* \"#utility.yul\":11620:11621   */\n      0x00\n        /* \"#utility.yul\":11609:11618   */\n      dup4\n        /* \"#utility.yul\":11605:11622   */\n      add\n        /* \"#utility.yul\":11598:11645   */\n      mstore\n        /* \"#utility.yul\":11662:11793   */\n      tag_457\n        /* \"#utility.yul\":11788:11792   */\n      dup2\n        /* \"#utility.yul\":11662:11793   */\n      tag_417\n      jump\t// in\n    tag_457:\n        /* \"#utility.yul\":11654:11793   */\n      swap1\n      pop\n        /* \"#utility.yul\":11381:11800   */\n      swap2\n      swap1\n      pop\n      jump\t// out\n        /* \"#utility.yul\":11806:12225   */\n    tag_264:\n        /* \"#utility.yul\":11972:11976   */\n      0x00\n        /* \"#utility.yul\":12010:12012   */\n      0x20\n        /* \"#utility.yul\":11999:12008   */\n      dup3\n        /* \"#utility.yul\":11995:12013   */\n      add\n        /* \"#utility.yul\":11987:12013   */\n      swap1\n      pop\n        /* \"#utility.yul\":12059:12068   */\n      dup2\n        /* \"#utility.yul\":12053:12057   */\n      dup2\n        /* \"#utility.yul\":12049:12069   */\n      sub\n        /* \"#utility.yul\":12045:12046   */\n      0x00\n        /* \"#utility.yul\":12034:12043   */\n      dup4\n        /* \"#utility.yul\":12030:12047   */\n      add\n        /* \"#utility.yul\":12023:12070   */\n      mstore\n        /* \"#utility.yul\":12087:12218   */\n      tag_459\n        /* \"#utility.yul\":12213:12217   */\n      dup2\n        /* \"#utility.yul\":12087:12218   */\n      tag_422\n      jump\t// in\n    tag_459:\n        /* \"#utility.yul\":12079:12218   */\n      swap1\n      pop\n        /* \"#utility.yul\":11806:12225   */\n      swap2\n      swap1\n      pop\n      jump\t// out\n        /* \"#utility.yul\":12231:12453   */\n    tag_57:\n        /* \"#utility.yul\":12324:12328   */\n      0x00\n        /* \"#utility.yul\":12362:12364   */\n      0x20\n        /* \"#utility.yul\":12351:12360   */\n      dup3\n        /* \"#utility.yul\":12347:12365   */\n      add\n        /* \"#utility.yul\":12339:12365   */\n      swap1\n      pop\n        /* \"#utility.yul\":12375:12446   */\n      tag_461\n        /* \"#utility.yul\":12443:12444   */\n      0x00\n        /* \"#utility.yul\":12432:12441   */\n      dup4\n        /* \"#utility.yul\":12428:12445   */\n      add\n        /* \"#utility.yul\":12419:12425   */\n      dup5\n        /* \"#utility.yul\":12375:12446   */\n      tag_427\n      jump\t// in\n    tag_461:\n        /* \"#utility.yul\":12231:12453   */\n      swap3\n      swap2\n      pop\n      pop\n      jump\t// out\n        /* \"#utility.yul\":12459:12673   */\n    tag_70:\n        /* \"#utility.yul\":12548:12552   */\n      0x00\n        /* \"#utility.yul\":12586:12588   */\n      0x20\n        /* \"#utility.yul\":12575:12584   */\n      dup3\n        /* \"#utility.yul\":12571:12589   */\n      add\n        /* \"#utility.yul\":12563:12589   */\n      swap1\n      pop\n        /* \"#utility.yul\":12599:12666   */\n      tag_463\n        /* \"#utility.yul\":12663:12664   */\n      0x00\n        /* \"#utility.yul\":12652:12661   */\n      dup4\n        /* \"#utility.yul\":12648:12665   */\n      add\n        /* \"#utility.yul\":12639:12645   */\n      dup5\n        /* \"#utility.yul\":12599:12666   */\n      tag_431\n      jump\t// in\n    tag_463:\n        /* \"#utility.yul\":12459:12673   */\n      swap3\n      swap2\n      pop\n      pop\n      jump\t// out\n        /* \"#utility.yul\":12679:13097   */\n    tag_66:\n        /* \"#utility.yul\":12816:12820   */\n      0x00\n        /* \"#utility.yul\":12854:12856   */\n      0x60\n        /* \"#utility.yul\":12843:12852   */\n      dup3\n        /* \"#utility.yul\":12839:12857   */\n      add\n        /* \"#utility.yul\":12831:12857   */\n      swap1\n      pop\n        /* \"#utility.yul\":12867:12934   */\n      tag_465\n        /* \"#utility.yul\":12931:12932   */\n      0x00\n        /* \"#utility.yul\":12920:12929   */\n      dup4\n        /* \"#utility.yul\":12916:12933   */\n      add\n        /* \"#utility.yul\":12907:12913   */\n      dup7\n        /* \"#utility.yul\":12867:12934   */\n      tag_431\n      jump\t// in\n    tag_465:\n        /* \"#utility.yul\":12944:13012   */\n      tag_466\n        /* \"#utility.yul\":13008:13010   */\n      0x20\n        /* \"#utility.yul\":12997:13006   */\n      dup4\n        /* \"#utility.yul\":12993:13011   */\n      add\n        /* \"#utility.yul\":12984:12990   */\n      dup6\n        /* \"#utility.yul\":12944:13012   */\n      tag_431\n      jump\t// in\n    tag_466:\n        /* \"#utility.yul\":13022:13090   */\n      tag_467\n        /* \"#utility.yul\":13086:13088   */\n      0x40\n        /* \"#utility.yul\":13075:13084   */\n      dup4\n        /* \"#utility.yul\":13071:13089   */\n      add\n        /* \"#utility.yul\":13062:13068   */\n      dup5\n        /* \"#utility.yul\":13022:13090   */\n      tag_431\n      jump\t// in\n    tag_467:\n        /* \"#utility.yul\":12679:13097   */\n      swap5\n      swap4\n      pop\n      pop\n      pop\n      pop\n      jump\t// out\n        /* \"#utility.yul\":13184:13283   */\n    tag_380:\n        /* \"#utility.yul\":13236:13242   */\n      0x00\n        /* \"#utility.yul\":13270:13275   */\n      dup2\n        /* \"#utility.yul\":13264:13276   */\n      mload\n        /* \"#utility.yul\":13254:13276   */\n      swap1\n      pop\n        /* \"#utility.yul\":13184:13283   */\n      swap2\n      swap1\n      pop\n      jump\t// out\n        /* \"#utility.yul\":13289:13458   */\n    tag_382:\n        /* \"#utility.yul\":13373:13384   */\n      0x00\n        /* \"#utility.yul\":13407:13413   */\n      dup3\n        /* \"#utility.yul\":13402:13405   */\n      dup3\n        /* \"#utility.yul\":13395:13414   */\n      mstore\n        /* \"#utility.yul\":13447:13451   */\n      0x20\n        /* \"#utility.yul\":13442:13445   */\n      dup3\n        /* \"#utility.yul\":13438:13452   */\n      add\n        /* \"#utility.yul\":13423:13452   */\n      swap1\n      pop\n        /* \"#utility.yul\":13289:13458   */\n      swap3\n      swap2\n      pop\n      pop\n      jump\t// out\n        /* \"#utility.yul\":13464:13769   */\n    tag_253:\n        /* \"#utility.yul\":13504:13507   */\n      0x00\n        /* \"#utility.yul\":13523:13543   */\n      tag_473\n        /* \"#utility.yul\":13541:13542   */\n      dup3\n        /* \"#utility.yul\":13523:13543   */\n      tag_430\n      jump\t// in\n    tag_473:\n        /* \"#utility.yul\":13518:13543   */\n      swap2\n      pop\n        /* \"#utility.yul\":13557:13577   */\n      tag_474\n        /* \"#utility.yul\":13575:13576   */\n      dup4\n        /* \"#utility.yul\":13557:13577   */\n      tag_430\n      jump\t// in\n    tag_474:\n        /* \"#utility.yul\":13552:13577   */\n      swap3\n      pop\n        /* \"#utility.yul\":13711:13712   */\n      dup3\n        /* \"#utility.yul\":13643:13709   */\n      0xffffffffffffffffffffffffffffffffffffffffffffffffffffffffffffffff\n        /* \"#utility.yul\":13639:13713   */\n      sub\n        /* \"#utility.yul\":13636:13637   */\n      dup3\n        /* \"#utility.yul\":13633:13714   */\n      gt\n        /* \"#utility.yul\":13630:13737   */\n      iszero\n      tag_475\n      jumpi\n        /* \"#utility.yul\":13717:13735   */\n      tag_476\n      tag_477\n      jump\t// in\n    tag_476:\n        /* \"#utility.yul\":13630:13737   */\n    tag_475:\n        /* \"#utility.yul\":13761:13762   */\n      dup3\n        /* \"#utility.yul\":13758:13759   */\n      dup3\n        /* \"#utility.yul\":13754:13763   */\n      add\n        /* \"#utility.yul\":13747:13763   */\n      swap1\n      pop\n        /* \"#utility.yul\":13464:13769   */\n      swap3\n      swap2\n      pop\n      pop\n      jump\t// out\n        /* \"#utility.yul\":13775:13960   */\n    tag_276:\n        /* \"#utility.yul\":13815:13816   */\n      0x00\n        /* \"#utility.yul\":13832:13852   */\n      tag_479\n        /* \"#utility.yul\":13850:13851   */\n      dup3\n        /* \"#utility.yul\":13832:13852   */\n      tag_430\n      jump\t// in\n    tag_479:\n        /* \"#utility.yul\":13827:13852   */\n      swap2\n      pop\n        /* \"#utility.yul\":13866:13886   */\n      tag_480\n        /* \"#utility.yul\":13884:13885   */\n      dup4\n        /* \"#utility.yul\":13866:13886   */\n      tag_430\n      jump\t// in\n    tag_480:\n        /* \"#utility.yul\":13861:13886   */\n      swap3\n      pop\n        /* \"#utility.yul\":13905:13906   */\n      dup3\n        /* \"#utility.yul\":13895:13930   */\n      tag_481\n      jumpi\n        /* \"#utility.yul\":13910:13928   */\n      tag_482\n      tag_483\n      jump\t// in\n    tag_482:\n        /* \"#utility.yul\":13895:13930   */\n    tag_481:\n        /* \"#utility.yul\":13952:13953   */\n      dup3\n        /* \"#utility.yul\":13949:13950   */\n      dup3\n        /* \"#utility.yul\":13945:13954   */\n      div\n        /* \"#utility.yul\":13940:13954   */\n      swap1\n      pop\n        /* \"#utility.yul\":13775:13960   */\n      swap3\n      swap2\n      pop\n      pop\n      jump\t// out\n        /* \"#utility.yul\":13966:14314   */\n    tag_274:\n        /* \"#utility.yul\":14006:14013   */\n      0x00\n        /* \"#utility.yul\":14029:14049   */\n      tag_485\n        /* \"#utility.yul\":14047:14048   */\n      dup3\n        /* \"#utility.yul\":14029:14049   */\n      tag_430\n      jump\t// in\n    tag_485:\n        /* \"#utility.yul\":14024:14049   */\n      swap2\n      pop\n        /* \"#utility.yul\":14063:14083   */\n      tag_486\n        /* \"#utility.yul\":14081:14082   */\n      dup4\n        /* \"#utility.yul\":14063:14083   */\n      tag_430\n      jump\t// in\n    tag_486:\n        /* \"#utility.yul\":14058:14083   */\n      swap3\n      pop\n        /* \"#utility.yul\":14251:14252   */\n      dup2\n        /* \"#utility.yul\":14183:14249   */\n      0xffffffffffffffffffffffffffffffffffffffffffffffffffffffffffffffff\n        /* \"#utility.yul\":14179:14253   */\n      div\n        /* \"#utility.yul\":14176:14177   */\n      dup4\n        /* \"#utility.yul\":14173:14254   */\n      gt\n        /* \"#utility.yul\":14168:14169   */\n      dup3\n        /* \"#utility.yul\":14161:14170   */\n      iszero\n        /* \"#utility.yul\":14154:14171   */\n      iszero\n        /* \"#utility.yul\":14150:14255   */\n      and\n        /* \"#utility.yul\":14147:14278   */\n      iszero\n      tag_487\n      jumpi\n        /* \"#utility.yul\":14258:14276   */\n      tag_488\n      tag_477\n      jump\t// in\n    tag_488:\n        /* \"#utility.yul\":14147:14278   */\n    tag_487:\n        /* \"#utility.yul\":14306:14307   */\n      dup3\n        /* \"#utility.yul\":14303:14304   */\n      dup3\n        /* \"#utility.yul\":14299:14308   */\n      mul\n        /* \"#utility.yul\":14288:14308   */\n      swap1\n      pop\n        /* \"#utility.yul\":13966:14314   */\n      swap3\n      swap2\n      pop\n      pop\n      jump\t// out\n        /* \"#utility.yul\":14320:14511   */\n    tag_282:\n        /* \"#utility.yul\":14360:14364   */\n      0x00\n        /* \"#utility.yul\":14380:14400   */\n      tag_490\n        /* \"#utility.yul\":14398:14399   */\n      dup3\n        /* \"#utility.yul\":14380:14400   */\n      tag_430\n      jump\t// in\n    tag_490:\n        /* \"#utility.yul\":14375:14400   */\n      swap2\n      pop\n        /* \"#utility.yul\":14414:14434   */\n      tag_491\n        /* \"#utility.yul\":14432:14433   */\n      dup4\n        /* \"#utility.yul\":14414:14434   */\n      tag_430\n      jump\t// in\n    tag_491:\n        /* \"#utility.yul\":14409:14434   */\n      swap3\n      pop\n        /* \"#utility.yul\":14453:14454   */\n      dup3\n        /* \"#utility.yul\":14450:14451   */\n      dup3\n        /* \"#utility.yul\":14447:14455   */\n      lt\n        /* \"#utility.yul\":14444:14478   */\n      iszero\n      tag_492\n      jumpi\n        /* \"#utility.yul\":14458:14476   */\n      tag_493\n      tag_477\n      jump\t// in\n    tag_493:\n        /* \"#utility.yul\":14444:14478   */\n    tag_492:\n        /* \"#utility.yul\":14503:14504   */\n      dup3\n        /* \"#utility.yul\":14500:14501   */\n      dup3\n        /* \"#utility.yul\":14496:14505   */\n      sub\n        /* \"#utility.yul\":14488:14505   */\n      swap1\n      pop\n        /* \"#utility.yul\":14320:14511   */\n      swap3\n      swap2\n      pop\n      pop\n      jump\t// out\n        /* \"#utility.yul\":14517:14613   */\n    tag_372:\n        /* \"#utility.yul\":14554:14561   */\n      0x00\n        /* \"#utility.yul\":14583:14607   */\n      tag_495\n        /* \"#utility.yul\":14601:14606   */\n      dup3\n        /* \"#utility.yul\":14583:14607   */\n      tag_496\n      jump\t// in\n    tag_495:\n        /* \"#utility.yul\":14572:14607   */\n      swap1\n      pop\n        /* \"#utility.yul\":14517:14613   */\n      swap2\n      swap1\n      pop\n      jump\t// out\n        /* \"#utility.yul\":14619:14709   */\n    tag_376:\n        /* \"#utility.yul\":14653:14660   */\n      0x00\n        /* \"#utility.yul\":14696:14701   */\n      dup2\n        /* \"#utility.yul\":14689:14702   */\n      iszero\n        /* \"#utility.yul\":14682:14703   */\n      iszero\n        /* \"#utility.yul\":14671:14703   */\n      swap1\n      pop\n        /* \"#utility.yul\":14619:14709   */\n      swap2\n      swap1\n      pop\n      jump\t// out\n        /* \"#utility.yul\":14715:14841   */\n    tag_496:\n        /* \"#utility.yul\":14752:14759   */\n      0x00\n        /* \"#utility.yul\":14792:14834   */\n      0xffffffffffffffffffffffffffffffffffffffff\n        /* \"#utility.yul\":14785:14790   */\n      dup3\n        /* \"#utility.yul\":14781:14835   */\n      and\n        /* \"#utility.yul\":14770:14835   */\n      swap1\n      pop\n        /* \"#utility.yul\":14715:14841   */\n      swap2\n      swap1\n      pop\n      jump\t// out\n        /* \"#utility.yul\":14847:14924   */\n    tag_430:\n        /* \"#utility.yul\":14884:14891   */\n      0x00\n        /* \"#utility.yul\":14913:14918   */\n      dup2\n        /* \"#utility.yul\":14902:14918   */\n      swap1\n      pop\n        /* \"#utility.yul\":14847:14924   */\n      swap2\n      swap1\n      pop\n      jump\t// out\n        /* \"#utility.yul\":14930:15016   */\n    tag_434:\n        /* \"#utility.yul\":14965:14972   */\n      0x00\n        /* \"#utility.yul\":15005:15009   */\n      0xff\n        /* \"#utility.yul\":14998:15003   */\n      dup3\n        /* \"#utility.yul\":14994:15010   */\n      and\n        /* \"#utility.yul\":14983:15010   */\n      swap1\n      pop\n        /* \"#utility.yul\":14930:15016   */\n      swap2\n      swap1\n      pop\n      jump\t// out\n        /* \"#utility.yul\":15022:15329   */\n    tag_384:\n        /* \"#utility.yul\":15090:15091   */\n      0x00\n        /* \"#utility.yul\":15100:15213   */\n    tag_502:\n        /* \"#utility.yul\":15114:15120   */\n      dup4\n        /* \"#utility.yul\":15111:15112   */\n      dup2\n        /* \"#utility.yul\":15108:15121   */\n      lt\n        /* \"#utility.yul\":15100:15213   */\n      iszero\n      tag_504\n      jumpi\n        /* \"#utility.yul\":15199:15200   */\n      dup1\n        /* \"#utility.yul\":15194:15197   */\n      dup3\n        /* \"#utility.yul\":15190:15201   */\n      add\n        /* \"#utility.yul\":15184:15202   */\n      mload\n        /* \"#utility.yul\":15180:15181   */\n      dup2\n        /* \"#utility.yul\":15175:15178   */\n      dup5\n        /* \"#utility.yul\":15171:15182   */\n      add\n        /* \"#utility.yul\":15164:15203   */\n      mstore\n        /* \"#utility.yul\":15136:15138   */\n      0x20\n        /* \"#utility.yul\":15133:15134   */\n      dup2\n        /* \"#utility.yul\":15129:15139   */\n      add\n        /* \"#utility.yul\":15124:15139   */\n      swap1\n      pop\n        /* \"#utility.yul\":15100:15213   */\n      jump(tag_502)\n    tag_504:\n        /* \"#utility.yul\":15231:15237   */\n      dup4\n        /* \"#utility.yul\":15228:15229   */\n      dup2\n        /* \"#utility.yul\":15225:15238   */\n      gt\n        /* \"#utility.yul\":15222:15323   */\n      iszero\n      tag_505\n      jumpi\n        /* \"#utility.yul\":15311:15312   */\n      0x00\n        /* \"#utility.yul\":15302:15308   */\n      dup5\n        /* \"#utility.yul\":15297:15300   */\n      dup5\n        /* \"#utility.yul\":15293:15309   */\n      add\n        /* \"#utility.yul\":15286:15313   */\n      mstore\n        /* \"#utility.yul\":15222:15323   */\n    tag_505:\n        /* \"#utility.yul\":15071:15329   */\n      pop\n        /* \"#utility.yul\":15022:15329   */\n      pop\n      pop\n      pop\n      jump\t// out\n        /* \"#utility.yul\":15335:15655   */\n    tag_129:\n        /* \"#utility.yul\":15379:15385   */\n      0x00\n        /* \"#utility.yul\":15416:15417   */\n      0x02\n        /* \"#utility.yul\":15410:15414   */\n      dup3\n        /* \"#utility.yul\":15406:15418   */\n      div\n        /* \"#utility.yul\":15396:15418   */\n      swap1\n      pop\n        /* \"#utility.yul\":15463:15464   */\n      0x01\n        /* \"#utility.yul\":15457:15461   */\n      dup3\n        /* \"#utility.yul\":15453:15465   */\n      and\n        /* \"#utility.yul\":15484:15502   */\n      dup1\n        /* \"#utility.yul\":15474:15555   */\n      tag_507\n      jumpi\n        /* \"#utility.yul\":15540:15544   */\n      0x7f\n        /* \"#utility.yul\":15532:15538   */\n      dup3\n        /* \"#utility.yul\":15528:15545   */\n      and\n        /* \"#utility.yul\":15518:15545   */\n      swap2\n      pop\n        /* \"#utility.yul\":15474:15555   */\n    tag_507:\n        /* \"#utility.yul\":15602:15604   */\n      0x20\n        /* \"#utility.yul\":15594:15600   */\n      dup3\n        /* \"#utility.yul\":15591:15605   */\n      lt\n        /* \"#utility.yul\":15571:15589   */\n      dup2\n        /* \"#utility.yul\":15568:15606   */\n      eq\n        /* \"#utility.yul\":15565:15649   */\n      iszero\n      tag_508\n      jumpi\n        /* \"#utility.yul\":15621:15639   */\n      tag_509\n      tag_510\n      jump\t// in\n    tag_509:\n        /* \"#utility.yul\":15565:15649   */\n    tag_508:\n        /* \"#utility.yul\":15386:15655   */\n      pop\n        /* \"#utility.yul\":15335:15655   */\n      swap2\n      swap1\n      pop\n      jump\t// out\n        /* \"#utility.yul\":15661:15841   */\n    tag_477:\n        /* \"#utility.yul\":15709:15786   */\n      0x4e487b7100000000000000000000000000000000000000000000000000000000\n        /* \"#utility.yul\":15706:15707   */\n      0x00\n        /* \"#utility.yul\":15699:15787   */\n      mstore\n        /* \"#utility.yul\":15806:15810   */\n      0x11\n        /* \"#utility.yul\":15803:15804   */\n      0x04\n        /* \"#utility.yul\":15796:15811   */\n      mstore\n        /* \"#utility.yul\":15830:15834   */\n      0x24\n        /* \"#utility.yul\":15827:15828   */\n      0x00\n        /* \"#utility.yul\":15820:15835   */\n      revert\n        /* \"#utility.yul\":15847:16027   */\n    tag_483:\n        /* \"#utility.yul\":15895:15972   */\n      0x4e487b7100000000000000000000000000000000000000000000000000000000\n        /* \"#utility.yul\":15892:15893   */\n      0x00\n        /* \"#utility.yul\":15885:15973   */\n      mstore\n        /* \"#utility.yul\":15992:15996   */\n      0x12\n        /* \"#utility.yul\":15989:15990   */\n      0x04\n        /* \"#utility.yul\":15982:15997   */\n      mstore\n        /* \"#utility.yul\":16016:16020   */\n      0x24\n        /* \"#utility.yul\":16013:16014   */\n      0x00\n        /* \"#utility.yul\":16006:16021   */\n      revert\n        /* \"#utility.yul\":16033:16213   */\n    tag_510:\n        /* \"#utility.yul\":16081:16158   */\n      0x4e487b7100000000000000000000000000000000000000000000000000000000\n        /* \"#utility.yul\":16078:16079   */\n      0x00\n        /* \"#utility.yul\":16071:16159   */\n      mstore\n        /* \"#utility.yul\":16178:16182   */\n      0x22\n        /* \"#utility.yul\":16175:16176   */\n      0x04\n        /* \"#utility.yul\":16168:16183   */\n      mstore\n        /* \"#utility.yul\":16202:16206   */\n      0x24\n        /* \"#utility.yul\":16199:16200   */\n      0x00\n        /* \"#utility.yul\":16192:16207   */\n      revert\n        /* \"#utility.yul\":16342:16459   */\n    tag_336:\n        /* \"#utility.yul\":16451:16452   */\n      0x00\n        /* \"#utility.yul\":16448:16449   */\n      dup1\n        /* \"#utility.yul\":16441:16453   */\n      revert\n        /* \"#utility.yul\":16465:16567   */\n    tag_386:\n        /* \"#utility.yul\":16506:16512   */\n      0x00\n        /* \"#utility.yul\":16557:16559   */\n      0x1f\n        /* \"#utility.yul\":16553:16560   */\n      not\n        /* \"#utility.yul\":16548:16550   */\n      0x1f\n        /* \"#utility.yul\":16541:16546   */\n      dup4\n        /* \"#utility.yul\":16537:16551   */\n      add\n        /* \"#utility.yul\":16533:16561   */\n      and\n        /* \"#utility.yul\":16523:16561   */\n      swap1\n      pop\n        /* \"#utility.yul\":16465:16567   */\n      swap2\n      swap1\n      pop\n      jump\t// out\n        /* \"#utility.yul\":16573:16797   */\n    tag_391:\n        /* \"#utility.yul\":16713:16747   */\n      0x42455032303a207472616e736665722066726f6d20746865207a65726f206164\n        /* \"#utility.yul\":16709:16710   */\n      0x00\n        /* \"#utility.yul\":16701:16707   */\n      dup3\n        /* \"#utility.yul\":16697:16711   */\n      add\n        /* \"#utility.yul\":16690:16748   */\n      mstore\n        /* \"#utility.yul\":16782:16789   */\n      0x6472657373000000000000000000000000000000000000000000000000000000\n        /* \"#utility.yul\":16777:16779   */\n      0x20\n        /* \"#utility.yul\":16769:16775   */\n      dup3\n        /* \"#utility.yul\":16765:16780   */\n      add\n        /* \"#utility.yul\":16758:16790   */\n      mstore\n        /* \"#utility.yul\":16573:16797   */\n      pop\n      jump\t// out\n        /* \"#utility.yul\":16803:17026   */\n    tag_396:\n        /* \"#utility.yul\":16943:16977   */\n      0x42455032303a20617070726f76652066726f6d20746865207a65726f20616464\n        /* \"#utility.yul\":16939:16940   */\n      0x00\n        /* \"#utility.yul\":16931:16937   */\n      dup3\n        /* \"#utility.yul\":16927:16941   */\n      add\n        /* \"#utility.yul\":16920:16978   */\n      mstore\n        /* \"#utility.yul\":17012:17018   */\n      0x7265737300000000000000000000000000000000000000000000000000000000\n        /* \"#utility.yul\":17007:17009   */\n      0x20\n        /* \"#utility.yul\":16999:17005   */\n      dup3\n        /* \"#utility.yul\":16995:17010   */\n      add\n        /* \"#utility.yul\":16988:17019   */\n      mstore\n        /* \"#utility.yul\":16803:17026   */\n      pop\n      jump\t// out\n        /* \"#utility.yul\":17032:17257   */\n    tag_401:\n        /* \"#utility.yul\":17172:17206   */\n      0x4f776e61626c653a206e6577206f776e657220697320746865207a65726f2061\n        /* \"#utility.yul\":17168:17169   */\n      0x00\n        /* \"#utility.yul\":17160:17166   */\n      dup3\n        /* \"#utility.yul\":17156:17170   */\n      add\n        /* \"#utility.yul\":17149:17207   */\n      mstore\n        /* \"#utility.yul\":17241:17249   */\n      0x6464726573730000000000000000000000000000000000000000000000000000\n        /* \"#utility.yul\":17236:17238   */\n      0x20\n        /* \"#utility.yul\":17228:17234   */\n      dup3\n        /* \"#utility.yul\":17224:17239   */\n      add\n        /* \"#utility.yul\":17217:17250   */\n      mstore\n        /* \"#utility.yul\":17032:17257   */\n      pop\n      jump\t// out\n        /* \"#utility.yul\":17263:17440   */\n    tag_406:\n        /* \"#utility.yul\":17403:17432   */\n      0x536166654d6174683a206164646974696f6e206f766572666c6f770000000000\n        /* \"#utility.yul\":17399:17400   */\n      0x00\n        /* \"#utility.yul\":17391:17397   */\n      dup3\n        /* \"#utility.yul\":17387:17401   */\n      add\n        /* \"#utility.yul\":17380:17433   */\n      mstore\n        /* \"#utility.yul\":17263:17440   */\n      pop\n      jump\t// out\n        /* \"#utility.yul\":17446:17612   */\n    tag_411:\n        /* \"#utility.yul\":17586:17604   */\n      0x5573657220626c61636b6c697374656400000000000000000000000000000000\n        /* \"#utility.yul\":17582:17583   */\n      0x00\n        /* \"#utility.yul\":17574:17580   */\n      dup3\n        /* \"#utility.yul\":17570:17584   */\n      add\n        /* \"#utility.yul\":17563:17605   */\n      mstore\n        /* \"#utility.yul\":17446:17612   */\n      pop\n      jump\t// out\n        /* \"#utility.yul\":17618:17800   */\n    tag_416:\n        /* \"#utility.yul\":17758:17792   */\n      0x4f776e61626c653a2063616c6c6572206973206e6f7420746865206f776e6572\n        /* \"#utility.yul\":17754:17755   */\n      0x00\n        /* \"#utility.yul\":17746:17752   */\n      dup3\n        /* \"#utility.yul\":17742:17756   */\n      add\n        /* \"#utility.yul\":17735:17793   */\n      mstore\n        /* \"#utility.yul\":17618:17800   */\n      pop\n      jump\t// out\n        /* \"#utility.yul\":17806:18028   */\n    tag_421:\n        /* \"#utility.yul\":17946:17980   */\n      0x42455032303a207472616e7366657220746f20746865207a65726f2061646472\n        /* \"#utility.yul\":17942:17943   */\n      0x00\n        /* \"#utility.yul\":17934:17940   */\n      dup3\n        /* \"#utility.yul\":17930:17944   */\n      add\n        /* \"#utility.yul\":17923:17981   */\n      mstore\n        /* \"#utility.yul\":18015:18020   */\n      0x6573730000000000000000000000000000000000000000000000000000000000\n        /* \"#utility.yul\":18010:18012   */\n      0x20\n        /* \"#utility.yul\":18002:18008   */\n      dup3\n        /* \"#utility.yul\":17998:18013   */\n      add\n        /* \"#utility.yul\":17991:18021   */\n      mstore\n        /* \"#utility.yul\":17806:18028   */\n      pop\n      jump\t// out\n        /* \"#utility.yul\":18034:18255   */\n    tag_426:\n        /* \"#utility.yul\":18174:18208   */\n      0x42455032303a20617070726f766520746f20746865207a65726f206164647265\n        /* \"#utility.yul\":18170:18171   */\n      0x00\n        /* \"#utility.yul\":18162:18168   */\n      dup3\n        /* \"#utility.yul\":18158:18172   */\n      add\n        /* \"#utility.yul\":18151:18209   */\n      mstore\n        /* \"#utility.yul\":18243:18247   */\n      0x7373000000000000000000000000000000000000000000000000000000000000\n        /* \"#utility.yul\":18238:18240   */\n      0x20\n        /* \"#utility.yul\":18230:18236   */\n      dup3\n        /* \"#utility.yul\":18226:18241   */\n      add\n        /* \"#utility.yul\":18219:18248   */\n      mstore\n        /* \"#utility.yul\":18034:18255   */\n      pop\n      jump\t// out\n        /* \"#utility.yul\":18261:18383   */\n    tag_320:\n        /* \"#utility.yul\":18334:18358   */\n      tag_527\n        /* \"#utility.yul\":18352:18357   */\n      dup2\n        /* \"#utility.yul\":18334:18358   */\n      tag_372\n      jump\t// in\n    tag_527:\n        /* \"#utility.yul\":18327:18332   */\n      dup2\n        /* \"#utility.yul\":18324:18359   */\n      eq\n        /* \"#utility.yul\":18314:18377   */\n      tag_528\n      jumpi\n        /* \"#utility.yul\":18373:18374   */\n      0x00\n        /* \"#utility.yul\":18370:18371   */\n      dup1\n        /* \"#utility.yul\":18363:18375   */\n      revert\n        /* \"#utility.yul\":18314:18377   */\n    tag_528:\n        /* \"#utility.yul\":18261:18383   */\n      pop\n      jump\t// out\n        /* \"#utility.yul\":18389:18505   */\n    tag_324:\n        /* \"#utility.yul\":18459:18480   */\n      tag_530\n        /* \"#utility.yul\":18474:18479   */\n      dup2\n        /* \"#utility.yul\":18459:18480   */\n      tag_376\n      jump\t// in\n    tag_530:\n        /* \"#utility.yul\":18452:18457   */\n      dup2\n        /* \"#utility.yul\":18449:18481   */\n      eq\n        /* \"#utility.yul\":18439:18499   */\n      tag_531\n      jumpi\n        /* \"#utility.yul\":18495:18496   */\n      0x00\n        /* \"#utility.yul\":18492:18493   */\n      dup1\n        /* \"#utility.yul\":18485:18497   */\n      revert\n        /* \"#utility.yul\":18439:18499   */\n    tag_531:\n        /* \"#utility.yul\":18389:18505   */\n      pop\n      jump\t// out\n        /* \"#utility.yul\":18511:18633   */\n    tag_328:\n        /* \"#utility.yul\":18584:18608   */\n      tag_533\n        /* \"#utility.yul\":18602:18607   */\n      dup2\n        /* \"#utility.yul\":18584:18608   */\n      tag_430\n      jump\t// in\n    tag_533:\n        /* \"#utility.yul\":18577:18582   */\n      dup2\n        /* \"#utility.yul\":18574:18609   */\n      eq\n        /* \"#utility.yul\":18564:18627   */\n      tag_534\n      jumpi\n        /* \"#utility.yul\":18623:18624   */\n      0x00\n        /* \"#utility.yul\":18620:18621   */\n      dup1\n        /* \"#utility.yul\":18613:18625   */\n      revert\n        /* \"#utility.yul\":18564:18627   */\n    tag_534:\n        /* \"#utility.yul\":18511:18633   */\n      pop\n      jump\t// out\n        /* \"#utility.yul\":18639:18757   */\n    tag_332:\n        /* \"#utility.yul\":18710:18732   */\n      tag_536\n        /* \"#utility.yul\":18726:18731   */\n      dup2\n        /* \"#utility.yul\":18710:18732   */\n      tag_434\n      jump\t// in\n    tag_536:\n        /* \"#utility.yul\":18703:18708   */\n      dup2\n        /* \"#utility.yul\":18700:18733   */\n      eq\n        /* \"#utility.yul\":18690:18751   */\n      tag_537\n      jumpi\n        /* \"#utility.yul\":18747:18748   */\n      0x00\n        /* \"#utility.yul\":18744:18745   */\n      dup1\n        /* \"#utility.yul\":18737:18749   */\n      revert\n        /* \"#utility.yul\":18690:18751   */\n    tag_537:\n        /* \"#utility.yul\":18639:18757   */\n      pop\n      jump\t// out\n    stop\n    data_4f3506f4ba71c79c3cbd442a3afeb30e9b27af2d84e116a4385b34e267d2287e 42455032303a207472616e7366657220616d6f756e74206578636565647320616c6c6f77616e6365\n    data_573d1ed4a921ea442c5f19a96dadd552e53378497b3e3c5c4f92b5237f17148e 4e6f207472616e736665727320746f20636f6e747261637420616c6c6f7765642e\n    data_7efdc62e202e71ba96d2ad4e93c3fc5c67ef5ce0b8f02ccfd2d78dc68ce32fc4 4e6f20636f6e73656375746976652073656c6c7320616c6c6f7765642e20506c6561736520776169742e\n    data_a91efd7a65ef5b4ae4d6568d674798b78a5a89184dd296c100513251c22d3e73 42455032303a207472616e7366657220616d6f756e7420657863656564732062616c616e6365\n    data_b7060b3538dcd3ddc8a941c91636a8115a1aa46914747fd9809d543bbb46cd22 42455032303a2064656372656173656420616c6c6f77616e63652062656c6f77207a65726f\n\n    auxdata: 0xa26469706673582212205043fd40b9cea770a4295f4757da04184d57c711ab07324082f0d91999bf57fe64736f6c63430008070033\n}\n",
				"bytecode": {
					"linkReferences": {},
					"object": "60806040526000600260156101000a81548160ff0219169083151502179055506200002f620002ab60201b60201c565b600c60006101000a81548173ffffffffffffffffffffffffffffffffffffffff021916908373ffffffffffffffffffffffffffffffffffffffff1602179055503480156200007c57600080fd5b506040518060400160405280600781526020017f5669634d6f7665000000000000000000000000000000000000000000000000008152506040518060400160405280600381526020017f56494d00000000000000000000000000000000000000000000000000000000008152506012826000908051906020019062000103929190620004f4565b5081600190805190602001906200011c929190620004f4565b5080600260006101000a81548160ff021916908360ff16021790555050505060006200014d620002d560201b60201c565b905080600260016101000a81548173ffffffffffffffffffffffffffffffffffffffff021916908373ffffffffffffffffffffffffffffffffffffffff1602179055508073ffffffffffffffffffffffffffffffffffffffff16600073ffffffffffffffffffffffffffffffffffffffff167f8be0079c531659141344cd1fd0a4f28419497f9722a3daafe3b4186f6b6457e060405160405180910390a3506000620001fe620002dd60201b60201c565b60ff16600a6200020f91906200072d565b6301312d006200022091906200086a565b9050620002343382620002f460201b60201c565b6003600a60016101000a81548160ff021916908360ff1602179055506000600a60006101000a81548160ff021916908360ff1602179055506000600a60036101000a81548160ff021916908360ff160217905550600f600a60026101000a81548160ff021916908360ff16021790555050620009c8565b6000600260019054906101000a900473ffffffffffffffffffffffffffffffffffffffff16905090565b600033905090565b6000600260009054906101000a900460ff16905090565b600073ffffffffffffffffffffffffffffffffffffffff168273ffffffffffffffffffffffffffffffffffffffff16141562000367576040517f08c379a00000000000000000000000000000000000000000000000000000000081526004016200035e9062000625565b60405180910390fd5b62000383816005546200049160201b6200127f1790919060201c565b600581905550620003e281600360008573ffffffffffffffffffffffffffffffffffffffff1673ffffffffffffffffffffffffffffffffffffffff168152602001908152602001600020546200049160201b6200127f1790919060201c565b600360008473ffffffffffffffffffffffffffffffffffffffff1673ffffffffffffffffffffffffffffffffffffffff168152602001908152602001600020819055508173ffffffffffffffffffffffffffffffffffffffff16600073ffffffffffffffffffffffffffffffffffffffff167fddf252ad1be2c89b69c2b068fc378daa952ba7f163c4a11628f55a4df523b3ef8360405162000485919062000647565b60405180910390a35050565b6000808284620004a2919062000675565b905083811015620004ea576040517f08c379a0000000000000000000000000000000000000000000000000000000008152600401620004e19062000603565b60405180910390fd5b8091505092915050565b8280546200050290620008d5565b90600052602060002090601f01602090048101928262000526576000855562000572565b82601f106200054157805160ff191683800117855562000572565b8280016001018555821562000572579182015b828111156200057157825182559160200191906001019062000554565b5b50905062000581919062000585565b5090565b5b80821115620005a057600081600090555060010162000586565b5090565b6000620005b3601b8362000664565b9150620005c08262000976565b602082019050919050565b6000620005da601f8362000664565b9150620005e7826200099f565b602082019050919050565b620005fd81620008cb565b82525050565b600060208201905081810360008301526200061e81620005a4565b9050919050565b600060208201905081810360008301526200064081620005cb565b9050919050565b60006020820190506200065e6000830184620005f2565b92915050565b600082825260208201905092915050565b60006200068282620008cb565b91506200068f83620008cb565b9250827fffffffffffffffffffffffffffffffffffffffffffffffffffffffffffffffff03821115620006c757620006c66200090b565b5b828201905092915050565b6000808291508390505b60018511156200072457808604811115620006fc57620006fb6200090b565b5b60018516156200070c5780820291505b80810290506200071c8562000969565b9450620006dc565b94509492505050565b60006200073a82620008cb565b91506200074783620008cb565b9250620007767fffffffffffffffffffffffffffffffffffffffffffffffffffffffffffffffff84846200077e565b905092915050565b60008262000790576001905062000863565b81620007a0576000905062000863565b8160018114620007b95760028114620007c457620007fa565b600191505062000863565b60ff841115620007d957620007d86200090b565b5b8360020a915084821115620007f357620007f26200090b565b5b5062000863565b5060208310610133831016604e8410600b8410161715620008345782820a9050838111156200082e576200082d6200090b565b5b62000863565b620008438484846001620006d2565b925090508184048111156200085d576200085c6200090b565b5b81810290505b9392505050565b60006200087782620008cb565b91506200088483620008cb565b9250817fffffffffffffffffffffffffffffffffffffffffffffffffffffffffffffffff0483118215151615620008c057620008bf6200090b565b5b828202905092915050565b6000819050919050565b60006002820490506001821680620008ee57607f821691505b602082108114156200090557620009046200093a565b5b50919050565b7f4e487b7100000000000000000000000000000000000000000000000000000000600052601160045260246000fd5b7f4e487b7100000000000000000000000000000000000000000000000000000000600052602260045260246000fd5b60008160011c9050919050565b7f536166654d6174683a206164646974696f6e206f766572666c6f770000000000600082015250565b7f42455032303a206d696e7420746f20746865207a65726f206164647265737300600082015250565b61296580620009d86000396000f3fe608060405234801561001057600080fd5b50600436106101735760003560e01c80635c975abb116100de57806395d89b4111610097578063a9059cbb11610071578063a9059cbb1461042c578063c89c58fb1461045c578063dd62ed3e14610478578063f2fde38b146104a857610173565b806395d89b41146103c2578063a457c2d7146103e0578063a86517bf1461041057610173565b80635c975abb1461031057806370a082311461032e578063715018a61461035e5780638456cb59146103685780638da5cb5b146103865780638f32d59b146103a457610173565b806323b872dd1161013057806323b872dd146102385780632973ef2d14610268578063313ce5671461028857806339509351146102a65780633f4ba83a146102d657806353d6fd59146102f457610173565b806306fdde0314610178578063095ea7b3146101965780630d2cf31f146101c6578063153b0d1e146101e25780631574567b146101fe57806318160ddd1461021a575b600080fd5b6101806104c4565b60405161018d91906121f2565b60405180910390f35b6101b060048036038101906101ab9190611f46565b610556565b6040516101bd91906121d7565b60405180910390f35b6101e060048036038101906101db9190611fb3565b61058e565b005b6101fc60048036038101906101f79190611f06565b610696565b005b61021860048036038101906102139190611f86565b610771565b005b61022261080d565b60405161022f9190612314565b60405180910390f35b610252600480360381019061024d9190611eb3565b610817565b60405161025f91906121d7565b60405180910390f35b61027061090a565b60405161027f9392919061234a565b60405180910390f35b61029061094a565b60405161029d919061232f565b60405180910390f35b6102c060048036038101906102bb9190611f46565b610961565b6040516102cd91906121d7565b60405180910390f35b6102de610a2e565b6040516102eb91906121d7565b60405180910390f35b61030e60048036038101906103099190611f06565b610ade565b005b610318610bb9565b60405161032591906121d7565b60405180910390f35b61034860048036038101906103439190611e46565b610bcc565b6040516103559190612314565b60405180910390f35b610366610c15565b005b610370610d1d565b60405161037d91906121d7565b60405180910390f35b61038e610dce565b60405161039b9190612193565b60405180910390f35b6103ac610df8565b6040516103b991906121d7565b60405180910390f35b6103ca610e57565b6040516103d791906121f2565b60405180910390f35b6103fa60048036038101906103f59190611f46565b610ee9565b60405161040791906121d7565b60405180910390f35b61042a60048036038101906104259190611e46565b610fd0565b005b61044660048036038101906104419190611f46565b611092565b60405161045391906121d7565b60405180910390f35b61047660048036038101906104719190611f06565b6110ca565b005b610492600480360381019061048d9190611e73565b6111a5565b60405161049f9190612314565b60405180910390f35b6104c260048036038101906104bd9190611e46565b61122c565b005b6060600080546104d39061253a565b80601f01602080910402602001604051908101604052809291908181526020018280546104ff9061253a565b801561054c5780601f106105215761010080835404028352916020019161054c565b820191906000526020600020905b81548152906001019060200180831161052f57829003601f168201915b5050505050905090565b6000600260159054906101000a900460ff161561057257600080fd5b61058461057d6112dd565b84846112e5565b6001905092915050565b610596610df8565b6105d5576040517f08c379a00000000000000000000000000000000000000000000000000000000081526004016105cc906122b4565b60405180910390fd5b600a8360ff16106105e557600080fd5b60068260ff16106105f557600080fd5b60068160ff161061060557600080fd5b82600a60016101000a81548160ff021916908360ff16021790555081600a60006101000a81548160ff021916908360ff16021790555080600a60036101000a81548160ff021916908360ff1602179055507f8f649eeecb19301c91f9b511096fe7cbc4b2b67bc75bfef33ba3f2745efc386a8383836040516106899392919061234a565b60405180910390a1505050565b61069e610df8565b6106dd576040517f08c379a00000000000000000000000000000000000000000000000000000000081526004016106d4906122b4565b60405180910390fd5b80600660008473ffffffffffffffffffffffffffffffffffffffff1673ffffffffffffffffffffffffffffffffffffffff16815260200190815260200160002060006101000a81548160ff0219169083151502179055507ff791a94c7f3569546a71acf39c0189bd87bd7b7e3ea76ce41fd41d837cc4bbca82826040516107659291906121ae565b60405180910390a15050565b610779610df8565b6107b8576040517f08c379a00000000000000000000000000000000000000000000000000000000081526004016107af906122b4565b60405180910390fd5b80600a60026101000a81548160ff021916908360ff1602179055507f3dc38872c1e356f05cec7694232d10514dc69ddbdcb883f9687c4d4f7e371e0181604051610802919061232f565b60405180910390a150565b6000600554905090565b6000600260159054906101000a900460ff161561083357600080fd5b61083e8484846114b0565b6108ff8461084a6112dd565b6108fa8560405180606001604052806028815260200161287260289139600460008b73ffffffffffffffffffffffffffffffffffffffff1673ffffffffffffffffffffffffffffffffffffffff16815260200190815260200160002060006108b06112dd565b73ffffffffffffffffffffffffffffffffffffffff1673ffffffffffffffffffffffffffffffffffffffff168152602001908152602001600020546119d09092919063ffffffff16565b6112e5565b600190509392505050565b6000806000600a60019054906101000a900460ff16600a60009054906101000a900460ff16600a60039054906101000a900460ff16925092509250909192565b6000600260009054906101000a900460ff16905090565b6000600260159054906101000a900460ff161561097d57600080fd5b610a246109886112dd565b84610a1f85600460006109996112dd565b73ffffffffffffffffffffffffffffffffffffffff1673ffffffffffffffffffffffffffffffffffffffff16815260200190815260200160002060008973ffffffffffffffffffffffffffffffffffffffff1673ffffffffffffffffffffffffffffffffffffffff1681526020019081526020016000205461127f90919063ffffffff16565b6112e5565b6001905092915050565b6000610a38610df8565b610a77576040517f08c379a0000000000000000000000000000000000000000000000000000000008152600401610a6e906122b4565b60405180910390fd5b600260159054906101000a900460ff16610a9057600080fd5b6000600260156101000a81548160ff0219169083151502179055507f7805862f689e2f13df9f062ff482ad3ad112aca9e0847911ed832e158c525b3360405160405180910390a16001905090565b610ae6610df8565b610b25576040517f08c379a0000000000000000000000000000000000000000000000000000000008152600401610b1c906122b4565b60405180910390fd5b80600860008473ffffffffffffffffffffffffffffffffffffffff1673ffffffffffffffffffffffffffffffffffffffff16815260200190815260200160002060006101000a81548160ff0219169083151502179055507fe41efe2ec3272dff61fc1d94fe807a61b44e66814abe5f463e98a100b9bb852c8282604051610bad9291906121ae565b60405180910390a15050565b600260159054906101000a900460ff1681565b6000600360008373ffffffffffffffffffffffffffffffffffffffff1673ffffffffffffffffffffffffffffffffffffffff168152602001908152602001600020549050919050565b610c1d610df8565b610c5c576040517f08c379a0000000000000000000000000000000000000000000000000000000008152600401610c53906122b4565b60405180910390fd5b600073ffffffffffffffffffffffffffffffffffffffff16600260019054906101000a900473ffffffffffffffffffffffffffffffffffffffff1673ffffffffffffffffffffffffffffffffffffffff167f8be0079c531659141344cd1fd0a4f28419497f9722a3daafe3b4186f6b6457e060405160405180910390a36000600260016101000a81548173ffffffffffffffffffffffffffffffffffffffff021916908373ffffffffffffffffffffffffffffffffffffffff160217905550565b6000610d27610df8565b610d66576040517f08c379a0000000000000000000000000000000000000000000000000000000008152600401610d5d906122b4565b60405180910390fd5b600260159054906101000a900460ff1615610d8057600080fd5b6001600260156101000a81548160ff0219169083151502179055507f6985a02210a168e66602d3235cb6db0e70f92b3ba4d376a33c0f3d9434bff62560405160405180910390a16001905090565b6000600260019054906101000a900473ffffffffffffffffffffffffffffffffffffffff16905090565b6000600260019054906101000a900473ffffffffffffffffffffffffffffffffffffffff1673ffffffffffffffffffffffffffffffffffffffff16610e3b6112dd565b73ffffffffffffffffffffffffffffffffffffffff1614905090565b606060018054610e669061253a565b80601f0160208091040260200160405190810160405280929190818152602001828054610e929061253a565b8015610edf5780601f10610eb457610100808354040283529160200191610edf565b820191906000526020600020905b815481529060010190602001808311610ec257829003601f168201915b5050505050905090565b6000600260159054906101000a900460ff1615610f0557600080fd5b610fc6610f106112dd565b84610fc18560405180606001604052806025815260200161290b6025913960046000610f3a6112dd565b73ffffffffffffffffffffffffffffffffffffffff1673ffffffffffffffffffffffffffffffffffffffff16815260200190815260200160002060008a73ffffffffffffffffffffffffffffffffffffffff1673ffffffffffffffffffffffffffffffffffffffff168152602001908152602001600020546119d09092919063ffffffff16565b6112e5565b6001905092915050565b610fd8610df8565b611017576040517f08c379a000000000000000000000000000000000000000000000000000000000815260040161100e906122b4565b60405180910390fd5b80600c60006101000a81548173ffffffffffffffffffffffffffffffffffffffff021916908373ffffffffffffffffffffffffffffffffffffffff1602179055507ff15d5716db5d5d79f695e387fc3e7c89982c0df6f4b81a006e38cfdc850a712e816040516110879190612193565b60405180910390a150565b6000600260159054906101000a900460ff16156110ae57600080fd5b6110c06110b96112dd565b84846114b0565b6001905092915050565b6110d2610df8565b611111576040517f08c379a0000000000000000000000000000000000000000000000000000000008152600401611108906122b4565b60405180910390fd5b80600760008473ffffffffffffffffffffffffffffffffffffffff1673ffffffffffffffffffffffffffffffffffffffff16815260200190815260200160002060006101000a81548160ff0219169083151502179055507f50d3135c1831a86bdc04740f17c94415767240d338df5795b37fb5b8272f80d782826040516111999291906121ae565b60405180910390a15050565b6000600460008473ffffffffffffffffffffffffffffffffffffffff1673ffffffffffffffffffffffffffffffffffffffff16815260200190815260200160002060008373ffffffffffffffffffffffffffffffffffffffff1673ffffffffffffffffffffffffffffffffffffffff16815260200190815260200160002054905092915050565b611234610df8565b611273576040517f08c379a000000000000000000000000000000000000000000000000000000000815260040161126a906122b4565b60405180910390fd5b61127c81611a34565b50565b600080828461128e919061239d565b9050838110156112d3576040517f08c379a00000000000000000000000000000000000000000000000000000000081526004016112ca90612274565b60405180910390fd5b8091505092915050565b600033905090565b600073ffffffffffffffffffffffffffffffffffffffff168373ffffffffffffffffffffffffffffffffffffffff161415611355576040517f08c379a000000000000000000000000000000000000000000000000000000000815260040161134c90612234565b60405180910390fd5b600073ffffffffffffffffffffffffffffffffffffffff168273ffffffffffffffffffffffffffffffffffffffff1614156113c5576040517f08c379a00000000000000000000000000000000000000000000000000000000081526004016113bc906122f4565b60405180910390fd5b80600460008573ffffffffffffffffffffffffffffffffffffffff1673ffffffffffffffffffffffffffffffffffffffff16815260200190815260200160002060008473ffffffffffffffffffffffffffffffffffffffff1673ffffffffffffffffffffffffffffffffffffffff168152602001908152602001600020819055508173ffffffffffffffffffffffffffffffffffffffff168373ffffffffffffffffffffffffffffffffffffffff167f8c5be1e5ebec7d5bd14f71427d1e84f3dd0314c0f7b2291e5b200ac8c7c3b925836040516114a39190612314565b60405180910390a3505050565b3073ffffffffffffffffffffffffffffffffffffffff168273ffffffffffffffffffffffffffffffffffffffff16141560405180606001604052806021815260200161289a602191399061153a576040517f08c379a000000000000000000000000000000000000000000000000000000000815260040161153191906121f2565b60405180910390fd5b50600660008473ffffffffffffffffffffffffffffffffffffffff1673ffffffffffffffffffffffffffffffffffffffff16815260200190815260200160002060009054906101000a900460ff16156115c8576040517f08c379a00000000000000000000000000000000000000000000000000000000081526004016115bf90612294565b60405180910390fd5b60011515600760008573ffffffffffffffffffffffffffffffffffffffff1673ffffffffffffffffffffffffffffffffffffffff16815260200190815260200160002060009054906101000a900460ff1615151415611656576064600a60009054906101000a900460ff1660ff16826116419190612424565b61164b91906123f3565b600b81905550611978565b60011515600760008473ffffffffffffffffffffffffffffffffffffffff1673ffffffffffffffffffffffffffffffffffffffff16815260200190815260200160002060009054906101000a900460ff16151514156117e2576064600a60019054906101000a900460ff1660ff16826116cf9190612424565b6116d991906123f3565b600b81905550600a60029054906101000a900460ff1660ff16426116fd919061247e565b600960008573ffffffffffffffffffffffffffffffffffffffff1673ffffffffffffffffffffffffffffffffffffffff16815260200190815260200160002054106040518060600160405280602a81526020016128bb602a913990611798576040517f08c379a000000000000000000000000000000000000000000000000000000000815260040161178f91906121f2565b60405180910390fd5b5042600960008573ffffffffffffffffffffffffffffffffffffffff1673ffffffffffffffffffffffffffffffffffffffff16815260200190815260200160002081905550611977565b600860008473ffffffffffffffffffffffffffffffffffffffff1673ffffffffffffffffffffffffffffffffffffffff16815260200190815260200160002060009054906101000a900460ff16806118835750600860008373ffffffffffffffffffffffffffffffffffffffff1673ffffffffffffffffffffffffffffffffffffffff16815260200190815260200160002060009054906101000a900460ff165b806118db5750600c60009054906101000a900473ffffffffffffffffffffffffffffffffffffffff1673ffffffffffffffffffffffffffffffffffffffff168373ffffffffffffffffffffffffffffffffffffffff16145b806119335750600c60009054906101000a900473ffffffffffffffffffffffffffffffffffffffff1673ffffffffffffffffffffffffffffffffffffffff168273ffffffffffffffffffffffffffffffffffffffff16145b15611945576000600b81905550611976565b6064600a60039054906101000a900460ff1660ff16826119659190612424565b61196f91906123f3565b600b819055505b5b5b6000600b5411156119b3576119b283600c60009054906101000a900473ffffffffffffffffffffffffffffffffffffffff16600b54611b64565b5b6119cb8383600b54846119c6919061247e565b611b64565b505050565b6000838311158290611a18576040517f08c379a0000000000000000000000000000000000000000000000000000000008152600401611a0f91906121f2565b60405180910390fd5b5060008385611a27919061247e565b9050809150509392505050565b600073ffffffffffffffffffffffffffffffffffffffff168173ffffffffffffffffffffffffffffffffffffffff161415611aa4576040517f08c379a0000000000000000000000000000000000000000000000000000000008152600401611a9b90612254565b60405180910390fd5b8073ffffffffffffffffffffffffffffffffffffffff16600260019054906101000a900473ffffffffffffffffffffffffffffffffffffffff1673ffffffffffffffffffffffffffffffffffffffff167f8be0079c531659141344cd1fd0a4f28419497f9722a3daafe3b4186f6b6457e060405160405180910390a380600260016101000a81548173ffffffffffffffffffffffffffffffffffffffff021916908373ffffffffffffffffffffffffffffffffffffffff16021790555050565b600073ffffffffffffffffffffffffffffffffffffffff168373ffffffffffffffffffffffffffffffffffffffff161415611bd4576040517f08c379a0000000000000000000000000000000000000000000000000000000008152600401611bcb90612214565b60405180910390fd5b600073ffffffffffffffffffffffffffffffffffffffff168273ffffffffffffffffffffffffffffffffffffffff161415611c44576040517f08c379a0000000000000000000000000000000000000000000000000000000008152600401611c3b906122d4565b60405180910390fd5b611cb0816040518060600160405280602681526020016128e560269139600360008773ffffffffffffffffffffffffffffffffffffffff1673ffffffffffffffffffffffffffffffffffffffff168152602001908152602001600020546119d09092919063ffffffff16565b600360008573ffffffffffffffffffffffffffffffffffffffff1673ffffffffffffffffffffffffffffffffffffffff16815260200190815260200160002081905550611d4581600360008573ffffffffffffffffffffffffffffffffffffffff1673ffffffffffffffffffffffffffffffffffffffff1681526020019081526020016000205461127f90919063ffffffff16565b600360008473ffffffffffffffffffffffffffffffffffffffff1673ffffffffffffffffffffffffffffffffffffffff168152602001908152602001600020819055508173ffffffffffffffffffffffffffffffffffffffff168373ffffffffffffffffffffffffffffffffffffffff167fddf252ad1be2c89b69c2b068fc378daa952ba7f163c4a11628f55a4df523b3ef83604051611de59190612314565b60405180910390a3505050565b600081359050611e0181612815565b92915050565b600081359050611e168161282c565b92915050565b600081359050611e2b81612843565b92915050565b600081359050611e408161285a565b92915050565b600060208284031215611e5c57611e5b6125f9565b5b6000611e6a84828501611df2565b91505092915050565b60008060408385031215611e8a57611e896125f9565b5b6000611e9885828601611df2565b9250506020611ea985828601611df2565b9150509250929050565b600080600060608486031215611ecc57611ecb6125f9565b5b6000611eda86828701611df2565b9350506020611eeb86828701611df2565b9250506040611efc86828701611e1c565b9150509250925092565b60008060408385031215611f1d57611f1c6125f9565b5b6000611f2b85828601611df2565b9250506020611f3c85828601611e07565b9150509250929050565b60008060408385031215611f5d57611f5c6125f9565b5b6000611f6b85828601611df2565b9250506020611f7c85828601611e1c565b9150509250929050565b600060208284031215611f9c57611f9b6125f9565b5b6000611faa84828501611e31565b91505092915050565b600080600060608486031215611fcc57611fcb6125f9565b5b6000611fda86828701611e31565b9350506020611feb86828701611e31565b9250506040611ffc86828701611e31565b9150509250925092565b61200f816124b2565b82525050565b61201e816124c4565b82525050565b600061202f82612381565b612039818561238c565b9350612049818560208601612507565b612052816125fe565b840191505092915050565b600061206a60258361238c565b91506120758261260f565b604082019050919050565b600061208d60248361238c565b91506120988261265e565b604082019050919050565b60006120b060268361238c565b91506120bb826126ad565b604082019050919050565b60006120d3601b8361238c565b91506120de826126fc565b602082019050919050565b60006120f660108361238c565b915061210182612725565b602082019050919050565b600061211960208361238c565b91506121248261274e565b602082019050919050565b600061213c60238361238c565b915061214782612777565b604082019050919050565b600061215f60228361238c565b915061216a826127c6565b604082019050919050565b61217e816124f0565b82525050565b61218d816124fa565b82525050565b60006020820190506121a86000830184612006565b92915050565b60006040820190506121c36000830185612006565b6121d06020830184612015565b9392505050565b60006020820190506121ec6000830184612015565b92915050565b6000602082019050818103600083015261220c8184612024565b905092915050565b6000602082019050818103600083015261222d8161205d565b9050919050565b6000602082019050818103600083015261224d81612080565b9050919050565b6000602082019050818103600083015261226d816120a3565b9050919050565b6000602082019050818103600083015261228d816120c6565b9050919050565b600060208201905081810360008301526122ad816120e9565b9050919050565b600060208201905081810360008301526122cd8161210c565b9050919050565b600060208201905081810360008301526122ed8161212f565b9050919050565b6000602082019050818103600083015261230d81612152565b9050919050565b60006020820190506123296000830184612175565b92915050565b60006020820190506123446000830184612184565b92915050565b600060608201905061235f6000830186612184565b61236c6020830185612184565b6123796040830184612184565b949350505050565b600081519050919050565b600082825260208201905092915050565b60006123a8826124f0565b91506123b3836124f0565b9250827fffffffffffffffffffffffffffffffffffffffffffffffffffffffffffffffff038211156123e8576123e761256c565b5b828201905092915050565b60006123fe826124f0565b9150612409836124f0565b9250826124195761241861259b565b5b828204905092915050565b600061242f826124f0565b915061243a836124f0565b9250817fffffffffffffffffffffffffffffffffffffffffffffffffffffffffffffffff04831182151516156124735761247261256c565b5b828202905092915050565b6000612489826124f0565b9150612494836124f0565b9250828210156124a7576124a661256c565b5b828203905092915050565b60006124bd826124d0565b9050919050565b60008115159050919050565b600073ffffffffffffffffffffffffffffffffffffffff82169050919050565b6000819050919050565b600060ff82169050919050565b60005b8381101561252557808201518184015260208101905061250a565b83811115612534576000848401525b50505050565b6000600282049050600182168061255257607f821691505b60208210811415612566576125656125ca565b5b50919050565b7f4e487b7100000000000000000000000000000000000000000000000000000000600052601160045260246000fd5b7f4e487b7100000000000000000000000000000000000000000000000000000000600052601260045260246000fd5b7f4e487b7100000000000000000000000000000000000000000000000000000000600052602260045260246000fd5b600080fd5b6000601f19601f8301169050919050565b7f42455032303a207472616e736665722066726f6d20746865207a65726f20616460008201527f6472657373000000000000000000000000000000000000000000000000000000602082015250565b7f42455032303a20617070726f76652066726f6d20746865207a65726f2061646460008201527f7265737300000000000000000000000000000000000000000000000000000000602082015250565b7f4f776e61626c653a206e6577206f776e657220697320746865207a65726f206160008201527f6464726573730000000000000000000000000000000000000000000000000000602082015250565b7f536166654d6174683a206164646974696f6e206f766572666c6f770000000000600082015250565b7f5573657220626c61636b6c697374656400000000000000000000000000000000600082015250565b7f4f776e61626c653a2063616c6c6572206973206e6f7420746865206f776e6572600082015250565b7f42455032303a207472616e7366657220746f20746865207a65726f206164647260008201527f6573730000000000000000000000000000000000000000000000000000000000602082015250565b7f42455032303a20617070726f766520746f20746865207a65726f20616464726560008201527f7373000000000000000000000000000000000000000000000000000000000000602082015250565b61281e816124b2565b811461282957600080fd5b50565b612835816124c4565b811461284057600080fd5b50565b61284c816124f0565b811461285757600080fd5b50565b612863816124fa565b811461286e57600080fd5b5056fe42455032303a207472616e7366657220616d6f756e74206578636565647320616c6c6f77616e63654e6f207472616e736665727320746f20636f6e747261637420616c6c6f7765642e4e6f20636f6e73656375746976652073656c6c7320616c6c6f7765642e20506c6561736520776169742e42455032303a207472616e7366657220616d6f756e7420657863656564732062616c616e636542455032303a2064656372656173656420616c6c6f77616e63652062656c6f77207a65726fa26469706673582212205043fd40b9cea770a4295f4757da04184d57c711ab07324082f0d91999bf57fe64736f6c63430008070033",
					"opcodes": "PUSH1 0x80 PUSH1 0x40 MSTORE PUSH1 0x0 PUSH1 0x2 PUSH1 0x15 PUSH2 0x100 EXP DUP2 SLOAD DUP2 PUSH1 0xFF MUL NOT AND SWAP1 DUP4 ISZERO ISZERO MUL OR SWAP1 SSTORE POP PUSH3 0x2F PUSH3 0x2AB PUSH1 0x20 SHL PUSH1 0x20 SHR JUMP JUMPDEST PUSH1 0xC PUSH1 0x0 PUSH2 0x100 EXP DUP2 SLOAD DUP2 PUSH20 0xFFFFFFFFFFFFFFFFFFFFFFFFFFFFFFFFFFFFFFFF MUL NOT AND SWAP1 DUP4 PUSH20 0xFFFFFFFFFFFFFFFFFFFFFFFFFFFFFFFFFFFFFFFF AND MUL OR SWAP1 SSTORE POP CALLVALUE DUP1 ISZERO PUSH3 0x7C JUMPI PUSH1 0x0 DUP1 REVERT JUMPDEST POP PUSH1 0x40 MLOAD DUP1 PUSH1 0x40 ADD PUSH1 0x40 MSTORE DUP1 PUSH1 0x7 DUP2 MSTORE PUSH1 0x20 ADD PUSH32 0x5669634D6F766500000000000000000000000000000000000000000000000000 DUP2 MSTORE POP PUSH1 0x40 MLOAD DUP1 PUSH1 0x40 ADD PUSH1 0x40 MSTORE DUP1 PUSH1 0x3 DUP2 MSTORE PUSH1 0x20 ADD PUSH32 0x56494D0000000000000000000000000000000000000000000000000000000000 DUP2 MSTORE POP PUSH1 0x12 DUP3 PUSH1 0x0 SWAP1 DUP1 MLOAD SWAP1 PUSH1 0x20 ADD SWAP1 PUSH3 0x103 SWAP3 SWAP2 SWAP1 PUSH3 0x4F4 JUMP JUMPDEST POP DUP2 PUSH1 0x1 SWAP1 DUP1 MLOAD SWAP1 PUSH1 0x20 ADD SWAP1 PUSH3 0x11C SWAP3 SWAP2 SWAP1 PUSH3 0x4F4 JUMP JUMPDEST POP DUP1 PUSH1 0x2 PUSH1 0x0 PUSH2 0x100 EXP DUP2 SLOAD DUP2 PUSH1 0xFF MUL NOT AND SWAP1 DUP4 PUSH1 0xFF AND MUL OR SWAP1 SSTORE POP POP POP POP PUSH1 0x0 PUSH3 0x14D PUSH3 0x2D5 PUSH1 0x20 SHL PUSH1 0x20 SHR JUMP JUMPDEST SWAP1 POP DUP1 PUSH1 0x2 PUSH1 0x1 PUSH2 0x100 EXP DUP2 SLOAD DUP2 PUSH20 0xFFFFFFFFFFFFFFFFFFFFFFFFFFFFFFFFFFFFFFFF MUL NOT AND SWAP1 DUP4 PUSH20 0xFFFFFFFFFFFFFFFFFFFFFFFFFFFFFFFFFFFFFFFF AND MUL OR SWAP1 SSTORE POP DUP1 PUSH20 0xFFFFFFFFFFFFFFFFFFFFFFFFFFFFFFFFFFFFFFFF AND PUSH1 0x0 PUSH20 0xFFFFFFFFFFFFFFFFFFFFFFFFFFFFFFFFFFFFFFFF AND PUSH32 0x8BE0079C531659141344CD1FD0A4F28419497F9722A3DAAFE3B4186F6B6457E0 PUSH1 0x40 MLOAD PUSH1 0x40 MLOAD DUP1 SWAP2 SUB SWAP1 LOG3 POP PUSH1 0x0 PUSH3 0x1FE PUSH3 0x2DD PUSH1 0x20 SHL PUSH1 0x20 SHR JUMP JUMPDEST PUSH1 0xFF AND PUSH1 0xA PUSH3 0x20F SWAP2 SWAP1 PUSH3 0x72D JUMP JUMPDEST PUSH4 0x1312D00 PUSH3 0x220 SWAP2 SWAP1 PUSH3 0x86A JUMP JUMPDEST SWAP1 POP PUSH3 0x234 CALLER DUP3 PUSH3 0x2F4 PUSH1 0x20 SHL PUSH1 0x20 SHR JUMP JUMPDEST PUSH1 0x3 PUSH1 0xA PUSH1 0x1 PUSH2 0x100 EXP DUP2 SLOAD DUP2 PUSH1 0xFF MUL NOT AND SWAP1 DUP4 PUSH1 0xFF AND MUL OR SWAP1 SSTORE POP PUSH1 0x0 PUSH1 0xA PUSH1 0x0 PUSH2 0x100 EXP DUP2 SLOAD DUP2 PUSH1 0xFF MUL NOT AND SWAP1 DUP4 PUSH1 0xFF AND MUL OR SWAP1 SSTORE POP PUSH1 0x0 PUSH1 0xA PUSH1 0x3 PUSH2 0x100 EXP DUP2 SLOAD DUP2 PUSH1 0xFF MUL NOT AND SWAP1 DUP4 PUSH1 0xFF AND MUL OR SWAP1 SSTORE POP PUSH1 0xF PUSH1 0xA PUSH1 0x2 PUSH2 0x100 EXP DUP2 SLOAD DUP2 PUSH1 0xFF MUL NOT AND SWAP1 DUP4 PUSH1 0xFF AND MUL OR SWAP1 SSTORE POP POP PUSH3 0x9C8 JUMP JUMPDEST PUSH1 0x0 PUSH1 0x2 PUSH1 0x1 SWAP1 SLOAD SWAP1 PUSH2 0x100 EXP SWAP1 DIV PUSH20 0xFFFFFFFFFFFFFFFFFFFFFFFFFFFFFFFFFFFFFFFF AND SWAP1 POP SWAP1 JUMP JUMPDEST PUSH1 0x0 CALLER SWAP1 POP SWAP1 JUMP JUMPDEST PUSH1 0x0 PUSH1 0x2 PUSH1 0x0 SWAP1 SLOAD SWAP1 PUSH2 0x100 EXP SWAP1 DIV PUSH1 0xFF AND SWAP1 POP SWAP1 JUMP JUMPDEST PUSH1 0x0 PUSH20 0xFFFFFFFFFFFFFFFFFFFFFFFFFFFFFFFFFFFFFFFF AND DUP3 PUSH20 0xFFFFFFFFFFFFFFFFFFFFFFFFFFFFFFFFFFFFFFFF AND EQ ISZERO PUSH3 0x367 JUMPI PUSH1 0x40 MLOAD PUSH32 0x8C379A000000000000000000000000000000000000000000000000000000000 DUP2 MSTORE PUSH1 0x4 ADD PUSH3 0x35E SWAP1 PUSH3 0x625 JUMP JUMPDEST PUSH1 0x40 MLOAD DUP1 SWAP2 SUB SWAP1 REVERT JUMPDEST PUSH3 0x383 DUP2 PUSH1 0x5 SLOAD PUSH3 0x491 PUSH1 0x20 SHL PUSH3 0x127F OR SWAP1 SWAP2 SWAP1 PUSH1 0x20 SHR JUMP JUMPDEST PUSH1 0x5 DUP2 SWAP1 SSTORE POP PUSH3 0x3E2 DUP2 PUSH1 0x3 PUSH1 0x0 DUP6 PUSH20 0xFFFFFFFFFFFFFFFFFFFFFFFFFFFFFFFFFFFFFFFF AND PUSH20 0xFFFFFFFFFFFFFFFFFFFFFFFFFFFFFFFFFFFFFFFF AND DUP2 MSTORE PUSH1 0x20 ADD SWAP1 DUP2 MSTORE PUSH1 0x20 ADD PUSH1 0x0 KECCAK256 SLOAD PUSH3 0x491 PUSH1 0x20 SHL PUSH3 0x127F OR SWAP1 SWAP2 SWAP1 PUSH1 0x20 SHR JUMP JUMPDEST PUSH1 0x3 PUSH1 0x0 DUP5 PUSH20 0xFFFFFFFFFFFFFFFFFFFFFFFFFFFFFFFFFFFFFFFF AND PUSH20 0xFFFFFFFFFFFFFFFFFFFFFFFFFFFFFFFFFFFFFFFF AND DUP2 MSTORE PUSH1 0x20 ADD SWAP1 DUP2 MSTORE PUSH1 0x20 ADD PUSH1 0x0 KECCAK256 DUP2 SWAP1 SSTORE POP DUP2 PUSH20 0xFFFFFFFFFFFFFFFFFFFFFFFFFFFFFFFFFFFFFFFF AND PUSH1 0x0 PUSH20 0xFFFFFFFFFFFFFFFFFFFFFFFFFFFFFFFFFFFFFFFF AND PUSH32 0xDDF252AD1BE2C89B69C2B068FC378DAA952BA7F163C4A11628F55A4DF523B3EF DUP4 PUSH1 0x40 MLOAD PUSH3 0x485 SWAP2 SWAP1 PUSH3 0x647 JUMP JUMPDEST PUSH1 0x40 MLOAD DUP1 SWAP2 SUB SWAP1 LOG3 POP POP JUMP JUMPDEST PUSH1 0x0 DUP1 DUP3 DUP5 PUSH3 0x4A2 SWAP2 SWAP1 PUSH3 0x675 JUMP JUMPDEST SWAP1 POP DUP4 DUP2 LT ISZERO PUSH3 0x4EA JUMPI PUSH1 0x40 MLOAD PUSH32 0x8C379A000000000000000000000000000000000000000000000000000000000 DUP2 MSTORE PUSH1 0x4 ADD PUSH3 0x4E1 SWAP1 PUSH3 0x603 JUMP JUMPDEST PUSH1 0x40 MLOAD DUP1 SWAP2 SUB SWAP1 REVERT JUMPDEST DUP1 SWAP2 POP POP SWAP3 SWAP2 POP POP JUMP JUMPDEST DUP3 DUP1 SLOAD PUSH3 0x502 SWAP1 PUSH3 0x8D5 JUMP JUMPDEST SWAP1 PUSH1 0x0 MSTORE PUSH1 0x20 PUSH1 0x0 KECCAK256 SWAP1 PUSH1 0x1F ADD PUSH1 0x20 SWAP1 DIV DUP2 ADD SWAP3 DUP3 PUSH3 0x526 JUMPI PUSH1 0x0 DUP6 SSTORE PUSH3 0x572 JUMP JUMPDEST DUP3 PUSH1 0x1F LT PUSH3 0x541 JUMPI DUP1 MLOAD PUSH1 0xFF NOT AND DUP4 DUP1 ADD OR DUP6 SSTORE PUSH3 0x572 JUMP JUMPDEST DUP3 DUP1 ADD PUSH1 0x1 ADD DUP6 SSTORE DUP3 ISZERO PUSH3 0x572 JUMPI SWAP2 DUP3 ADD JUMPDEST DUP3 DUP2 GT ISZERO PUSH3 0x571 JUMPI DUP3 MLOAD DUP3 SSTORE SWAP2 PUSH1 0x20 ADD SWAP2 SWAP1 PUSH1 0x1 ADD SWAP1 PUSH3 0x554 JUMP JUMPDEST JUMPDEST POP SWAP1 POP PUSH3 0x581 SWAP2 SWAP1 PUSH3 0x585 JUMP JUMPDEST POP SWAP1 JUMP JUMPDEST JUMPDEST DUP1 DUP3 GT ISZERO PUSH3 0x5A0 JUMPI PUSH1 0x0 DUP2 PUSH1 0x0 SWAP1 SSTORE POP PUSH1 0x1 ADD PUSH3 0x586 JUMP JUMPDEST POP SWAP1 JUMP JUMPDEST PUSH1 0x0 PUSH3 0x5B3 PUSH1 0x1B DUP4 PUSH3 0x664 JUMP JUMPDEST SWAP2 POP PUSH3 0x5C0 DUP3 PUSH3 0x976 JUMP JUMPDEST PUSH1 0x20 DUP3 ADD SWAP1 POP SWAP2 SWAP1 POP JUMP JUMPDEST PUSH1 0x0 PUSH3 0x5DA PUSH1 0x1F DUP4 PUSH3 0x664 JUMP JUMPDEST SWAP2 POP PUSH3 0x5E7 DUP3 PUSH3 0x99F JUMP JUMPDEST PUSH1 0x20 DUP3 ADD SWAP1 POP SWAP2 SWAP1 POP JUMP JUMPDEST PUSH3 0x5FD DUP2 PUSH3 0x8CB JUMP JUMPDEST DUP3 MSTORE POP POP JUMP JUMPDEST PUSH1 0x0 PUSH1 0x20 DUP3 ADD SWAP1 POP DUP2 DUP2 SUB PUSH1 0x0 DUP4 ADD MSTORE PUSH3 0x61E DUP2 PUSH3 0x5A4 JUMP JUMPDEST SWAP1 POP SWAP2 SWAP1 POP JUMP JUMPDEST PUSH1 0x0 PUSH1 0x20 DUP3 ADD SWAP1 POP DUP2 DUP2 SUB PUSH1 0x0 DUP4 ADD MSTORE PUSH3 0x640 DUP2 PUSH3 0x5CB JUMP JUMPDEST SWAP1 POP SWAP2 SWAP1 POP JUMP JUMPDEST PUSH1 0x0 PUSH1 0x20 DUP3 ADD SWAP1 POP PUSH3 0x65E PUSH1 0x0 DUP4 ADD DUP5 PUSH3 0x5F2 JUMP JUMPDEST SWAP3 SWAP2 POP POP JUMP JUMPDEST PUSH1 0x0 DUP3 DUP3 MSTORE PUSH1 0x20 DUP3 ADD SWAP1 POP SWAP3 SWAP2 POP POP JUMP JUMPDEST PUSH1 0x0 PUSH3 0x682 DUP3 PUSH3 0x8CB JUMP JUMPDEST SWAP2 POP PUSH3 0x68F DUP4 PUSH3 0x8CB JUMP JUMPDEST SWAP3 POP DUP3 PUSH32 0xFFFFFFFFFFFFFFFFFFFFFFFFFFFFFFFFFFFFFFFFFFFFFFFFFFFFFFFFFFFFFFFF SUB DUP3 GT ISZERO PUSH3 0x6C7 JUMPI PUSH3 0x6C6 PUSH3 0x90B JUMP JUMPDEST JUMPDEST DUP3 DUP3 ADD SWAP1 POP SWAP3 SWAP2 POP POP JUMP JUMPDEST PUSH1 0x0 DUP1 DUP3 SWAP2 POP DUP4 SWAP1 POP JUMPDEST PUSH1 0x1 DUP6 GT ISZERO PUSH3 0x724 JUMPI DUP1 DUP7 DIV DUP2 GT ISZERO PUSH3 0x6FC JUMPI PUSH3 0x6FB PUSH3 0x90B JUMP JUMPDEST JUMPDEST PUSH1 0x1 DUP6 AND ISZERO PUSH3 0x70C JUMPI DUP1 DUP3 MUL SWAP2 POP JUMPDEST DUP1 DUP2 MUL SWAP1 POP PUSH3 0x71C DUP6 PUSH3 0x969 JUMP JUMPDEST SWAP5 POP PUSH3 0x6DC JUMP JUMPDEST SWAP5 POP SWAP5 SWAP3 POP POP POP JUMP JUMPDEST PUSH1 0x0 PUSH3 0x73A DUP3 PUSH3 0x8CB JUMP JUMPDEST SWAP2 POP PUSH3 0x747 DUP4 PUSH3 0x8CB JUMP JUMPDEST SWAP3 POP PUSH3 0x776 PUSH32 0xFFFFFFFFFFFFFFFFFFFFFFFFFFFFFFFFFFFFFFFFFFFFFFFFFFFFFFFFFFFFFFFF DUP5 DUP5 PUSH3 0x77E JUMP JUMPDEST SWAP1 POP SWAP3 SWAP2 POP POP JUMP JUMPDEST PUSH1 0x0 DUP3 PUSH3 0x790 JUMPI PUSH1 0x1 SWAP1 POP PUSH3 0x863 JUMP JUMPDEST DUP2 PUSH3 0x7A0 JUMPI PUSH1 0x0 SWAP1 POP PUSH3 0x863 JUMP JUMPDEST DUP2 PUSH1 0x1 DUP2 EQ PUSH3 0x7B9 JUMPI PUSH1 0x2 DUP2 EQ PUSH3 0x7C4 JUMPI PUSH3 0x7FA JUMP JUMPDEST PUSH1 0x1 SWAP2 POP POP PUSH3 0x863 JUMP JUMPDEST PUSH1 0xFF DUP5 GT ISZERO PUSH3 0x7D9 JUMPI PUSH3 0x7D8 PUSH3 0x90B JUMP JUMPDEST JUMPDEST DUP4 PUSH1 0x2 EXP SWAP2 POP DUP5 DUP3 GT ISZERO PUSH3 0x7F3 JUMPI PUSH3 0x7F2 PUSH3 0x90B JUMP JUMPDEST JUMPDEST POP PUSH3 0x863 JUMP JUMPDEST POP PUSH1 0x20 DUP4 LT PUSH2 0x133 DUP4 LT AND PUSH1 0x4E DUP5 LT PUSH1 0xB DUP5 LT AND OR ISZERO PUSH3 0x834 JUMPI DUP3 DUP3 EXP SWAP1 POP DUP4 DUP2 GT ISZERO PUSH3 0x82E JUMPI PUSH3 0x82D PUSH3 0x90B JUMP JUMPDEST JUMPDEST PUSH3 0x863 JUMP JUMPDEST PUSH3 0x843 DUP5 DUP5 DUP5 PUSH1 0x1 PUSH3 0x6D2 JUMP JUMPDEST SWAP3 POP SWAP1 POP DUP2 DUP5 DIV DUP2 GT ISZERO PUSH3 0x85D JUMPI PUSH3 0x85C PUSH3 0x90B JUMP JUMPDEST JUMPDEST DUP2 DUP2 MUL SWAP1 POP JUMPDEST SWAP4 SWAP3 POP POP POP JUMP JUMPDEST PUSH1 0x0 PUSH3 0x877 DUP3 PUSH3 0x8CB JUMP JUMPDEST SWAP2 POP PUSH3 0x884 DUP4 PUSH3 0x8CB JUMP JUMPDEST SWAP3 POP DUP2 PUSH32 0xFFFFFFFFFFFFFFFFFFFFFFFFFFFFFFFFFFFFFFFFFFFFFFFFFFFFFFFFFFFFFFFF DIV DUP4 GT DUP3 ISZERO ISZERO AND ISZERO PUSH3 0x8C0 JUMPI PUSH3 0x8BF PUSH3 0x90B JUMP JUMPDEST JUMPDEST DUP3 DUP3 MUL SWAP1 POP SWAP3 SWAP2 POP POP JUMP JUMPDEST PUSH1 0x0 DUP2 SWAP1 POP SWAP2 SWAP1 POP JUMP JUMPDEST PUSH1 0x0 PUSH1 0x2 DUP3 DIV SWAP1 POP PUSH1 0x1 DUP3 AND DUP1 PUSH3 0x8EE JUMPI PUSH1 0x7F DUP3 AND SWAP2 POP JUMPDEST PUSH1 0x20 DUP3 LT DUP2 EQ ISZERO PUSH3 0x905 JUMPI PUSH3 0x904 PUSH3 0x93A JUMP JUMPDEST JUMPDEST POP SWAP2 SWAP1 POP JUMP JUMPDEST PUSH32 0x4E487B7100000000000000000000000000000000000000000000000000000000 PUSH1 0x0 MSTORE PUSH1 0x11 PUSH1 0x4 MSTORE PUSH1 0x24 PUSH1 0x0 REVERT JUMPDEST PUSH32 0x4E487B7100000000000000000000000000000000000000000000000000000000 PUSH1 0x0 MSTORE PUSH1 0x22 PUSH1 0x4 MSTORE PUSH1 0x24 PUSH1 0x0 REVERT JUMPDEST PUSH1 0x0 DUP2 PUSH1 0x1 SHR SWAP1 POP SWAP2 SWAP1 POP JUMP JUMPDEST PUSH32 0x536166654D6174683A206164646974696F6E206F766572666C6F770000000000 PUSH1 0x0 DUP3 ADD MSTORE POP JUMP JUMPDEST PUSH32 0x42455032303A206D696E7420746F20746865207A65726F206164647265737300 PUSH1 0x0 DUP3 ADD MSTORE POP JUMP JUMPDEST PUSH2 0x2965 DUP1 PUSH3 0x9D8 PUSH1 0x0 CODECOPY PUSH1 0x0 RETURN INVALID PUSH1 0x80 PUSH1 0x40 MSTORE CALLVALUE DUP1 ISZERO PUSH2 0x10 JUMPI PUSH1 0x0 DUP1 REVERT JUMPDEST POP PUSH1 0x4 CALLDATASIZE LT PUSH2 0x173 JUMPI PUSH1 0x0 CALLDATALOAD PUSH1 0xE0 SHR DUP1 PUSH4 0x5C975ABB GT PUSH2 0xDE JUMPI DUP1 PUSH4 0x95D89B41 GT PUSH2 0x97 JUMPI DUP1 PUSH4 0xA9059CBB GT PUSH2 0x71 JUMPI DUP1 PUSH4 0xA9059CBB EQ PUSH2 0x42C JUMPI DUP1 PUSH4 0xC89C58FB EQ PUSH2 0x45C JUMPI DUP1 PUSH4 0xDD62ED3E EQ PUSH2 0x478 JUMPI DUP1 PUSH4 0xF2FDE38B EQ PUSH2 0x4A8 JUMPI PUSH2 0x173 JUMP JUMPDEST DUP1 PUSH4 0x95D89B41 EQ PUSH2 0x3C2 JUMPI DUP1 PUSH4 0xA457C2D7 EQ PUSH2 0x3E0 JUMPI DUP1 PUSH4 0xA86517BF EQ PUSH2 0x410 JUMPI PUSH2 0x173 JUMP JUMPDEST DUP1 PUSH4 0x5C975ABB EQ PUSH2 0x310 JUMPI DUP1 PUSH4 0x70A08231 EQ PUSH2 0x32E JUMPI DUP1 PUSH4 0x715018A6 EQ PUSH2 0x35E JUMPI DUP1 PUSH4 0x8456CB59 EQ PUSH2 0x368 JUMPI DUP1 PUSH4 0x8DA5CB5B EQ PUSH2 0x386 JUMPI DUP1 PUSH4 0x8F32D59B EQ PUSH2 0x3A4 JUMPI PUSH2 0x173 JUMP JUMPDEST DUP1 PUSH4 0x23B872DD GT PUSH2 0x130 JUMPI DUP1 PUSH4 0x23B872DD EQ PUSH2 0x238 JUMPI DUP1 PUSH4 0x2973EF2D EQ PUSH2 0x268 JUMPI DUP1 PUSH4 0x313CE567 EQ PUSH2 0x288 JUMPI DUP1 PUSH4 0x39509351 EQ PUSH2 0x2A6 JUMPI DUP1 PUSH4 0x3F4BA83A EQ PUSH2 0x2D6 JUMPI DUP1 PUSH4 0x53D6FD59 EQ PUSH2 0x2F4 JUMPI PUSH2 0x173 JUMP JUMPDEST DUP1 PUSH4 0x6FDDE03 EQ PUSH2 0x178 JUMPI DUP1 PUSH4 0x95EA7B3 EQ PUSH2 0x196 JUMPI DUP1 PUSH4 0xD2CF31F EQ PUSH2 0x1C6 JUMPI DUP1 PUSH4 0x153B0D1E EQ PUSH2 0x1E2 JUMPI DUP1 PUSH4 0x1574567B EQ PUSH2 0x1FE JUMPI DUP1 PUSH4 0x18160DDD EQ PUSH2 0x21A JUMPI JUMPDEST PUSH1 0x0 DUP1 REVERT JUMPDEST PUSH2 0x180 PUSH2 0x4C4 JUMP JUMPDEST PUSH1 0x40 MLOAD PUSH2 0x18D SWAP2 SWAP1 PUSH2 0x21F2 JUMP JUMPDEST PUSH1 0x40 MLOAD DUP1 SWAP2 SUB SWAP1 RETURN JUMPDEST PUSH2 0x1B0 PUSH1 0x4 DUP1 CALLDATASIZE SUB DUP2 ADD SWAP1 PUSH2 0x1AB SWAP2 SWAP1 PUSH2 0x1F46 JUMP JUMPDEST PUSH2 0x556 JUMP JUMPDEST PUSH1 0x40 MLOAD PUSH2 0x1BD SWAP2 SWAP1 PUSH2 0x21D7 JUMP JUMPDEST PUSH1 0x40 MLOAD DUP1 SWAP2 SUB SWAP1 RETURN JUMPDEST PUSH2 0x1E0 PUSH1 0x4 DUP1 CALLDATASIZE SUB DUP2 ADD SWAP1 PUSH2 0x1DB SWAP2 SWAP1 PUSH2 0x1FB3 JUMP JUMPDEST PUSH2 0x58E JUMP JUMPDEST STOP JUMPDEST PUSH2 0x1FC PUSH1 0x4 DUP1 CALLDATASIZE SUB DUP2 ADD SWAP1 PUSH2 0x1F7 SWAP2 SWAP1 PUSH2 0x1F06 JUMP JUMPDEST PUSH2 0x696 JUMP JUMPDEST STOP JUMPDEST PUSH2 0x218 PUSH1 0x4 DUP1 CALLDATASIZE SUB DUP2 ADD SWAP1 PUSH2 0x213 SWAP2 SWAP1 PUSH2 0x1F86 JUMP JUMPDEST PUSH2 0x771 JUMP JUMPDEST STOP JUMPDEST PUSH2 0x222 PUSH2 0x80D JUMP JUMPDEST PUSH1 0x40 MLOAD PUSH2 0x22F SWAP2 SWAP1 PUSH2 0x2314 JUMP JUMPDEST PUSH1 0x40 MLOAD DUP1 SWAP2 SUB SWAP1 RETURN JUMPDEST PUSH2 0x252 PUSH1 0x4 DUP1 CALLDATASIZE SUB DUP2 ADD SWAP1 PUSH2 0x24D SWAP2 SWAP1 PUSH2 0x1EB3 JUMP JUMPDEST PUSH2 0x817 JUMP JUMPDEST PUSH1 0x40 MLOAD PUSH2 0x25F SWAP2 SWAP1 PUSH2 0x21D7 JUMP JUMPDEST PUSH1 0x40 MLOAD DUP1 SWAP2 SUB SWAP1 RETURN JUMPDEST PUSH2 0x270 PUSH2 0x90A JUMP JUMPDEST PUSH1 0x40 MLOAD PUSH2 0x27F SWAP4 SWAP3 SWAP2 SWAP1 PUSH2 0x234A JUMP JUMPDEST PUSH1 0x40 MLOAD DUP1 SWAP2 SUB SWAP1 RETURN JUMPDEST PUSH2 0x290 PUSH2 0x94A JUMP JUMPDEST PUSH1 0x40 MLOAD PUSH2 0x29D SWAP2 SWAP1 PUSH2 0x232F JUMP JUMPDEST PUSH1 0x40 MLOAD DUP1 SWAP2 SUB SWAP1 RETURN JUMPDEST PUSH2 0x2C0 PUSH1 0x4 DUP1 CALLDATASIZE SUB DUP2 ADD SWAP1 PUSH2 0x2BB SWAP2 SWAP1 PUSH2 0x1F46 JUMP JUMPDEST PUSH2 0x961 JUMP JUMPDEST PUSH1 0x40 MLOAD PUSH2 0x2CD SWAP2 SWAP1 PUSH2 0x21D7 JUMP JUMPDEST PUSH1 0x40 MLOAD DUP1 SWAP2 SUB SWAP1 RETURN JUMPDEST PUSH2 0x2DE PUSH2 0xA2E JUMP JUMPDEST PUSH1 0x40 MLOAD PUSH2 0x2EB SWAP2 SWAP1 PUSH2 0x21D7 JUMP JUMPDEST PUSH1 0x40 MLOAD DUP1 SWAP2 SUB SWAP1 RETURN JUMPDEST PUSH2 0x30E PUSH1 0x4 DUP1 CALLDATASIZE SUB DUP2 ADD SWAP1 PUSH2 0x309 SWAP2 SWAP1 PUSH2 0x1F06 JUMP JUMPDEST PUSH2 0xADE JUMP JUMPDEST STOP JUMPDEST PUSH2 0x318 PUSH2 0xBB9 JUMP JUMPDEST PUSH1 0x40 MLOAD PUSH2 0x325 SWAP2 SWAP1 PUSH2 0x21D7 JUMP JUMPDEST PUSH1 0x40 MLOAD DUP1 SWAP2 SUB SWAP1 RETURN JUMPDEST PUSH2 0x348 PUSH1 0x4 DUP1 CALLDATASIZE SUB DUP2 ADD SWAP1 PUSH2 0x343 SWAP2 SWAP1 PUSH2 0x1E46 JUMP JUMPDEST PUSH2 0xBCC JUMP JUMPDEST PUSH1 0x40 MLOAD PUSH2 0x355 SWAP2 SWAP1 PUSH2 0x2314 JUMP JUMPDEST PUSH1 0x40 MLOAD DUP1 SWAP2 SUB SWAP1 RETURN JUMPDEST PUSH2 0x366 PUSH2 0xC15 JUMP JUMPDEST STOP JUMPDEST PUSH2 0x370 PUSH2 0xD1D JUMP JUMPDEST PUSH1 0x40 MLOAD PUSH2 0x37D SWAP2 SWAP1 PUSH2 0x21D7 JUMP JUMPDEST PUSH1 0x40 MLOAD DUP1 SWAP2 SUB SWAP1 RETURN JUMPDEST PUSH2 0x38E PUSH2 0xDCE JUMP JUMPDEST PUSH1 0x40 MLOAD PUSH2 0x39B SWAP2 SWAP1 PUSH2 0x2193 JUMP JUMPDEST PUSH1 0x40 MLOAD DUP1 SWAP2 SUB SWAP1 RETURN JUMPDEST PUSH2 0x3AC PUSH2 0xDF8 JUMP JUMPDEST PUSH1 0x40 MLOAD PUSH2 0x3B9 SWAP2 SWAP1 PUSH2 0x21D7 JUMP JUMPDEST PUSH1 0x40 MLOAD DUP1 SWAP2 SUB SWAP1 RETURN JUMPDEST PUSH2 0x3CA PUSH2 0xE57 JUMP JUMPDEST PUSH1 0x40 MLOAD PUSH2 0x3D7 SWAP2 SWAP1 PUSH2 0x21F2 JUMP JUMPDEST PUSH1 0x40 MLOAD DUP1 SWAP2 SUB SWAP1 RETURN JUMPDEST PUSH2 0x3FA PUSH1 0x4 DUP1 CALLDATASIZE SUB DUP2 ADD SWAP1 PUSH2 0x3F5 SWAP2 SWAP1 PUSH2 0x1F46 JUMP JUMPDEST PUSH2 0xEE9 JUMP JUMPDEST PUSH1 0x40 MLOAD PUSH2 0x407 SWAP2 SWAP1 PUSH2 0x21D7 JUMP JUMPDEST PUSH1 0x40 MLOAD DUP1 SWAP2 SUB SWAP1 RETURN JUMPDEST PUSH2 0x42A PUSH1 0x4 DUP1 CALLDATASIZE SUB DUP2 ADD SWAP1 PUSH2 0x425 SWAP2 SWAP1 PUSH2 0x1E46 JUMP JUMPDEST PUSH2 0xFD0 JUMP JUMPDEST STOP JUMPDEST PUSH2 0x446 PUSH1 0x4 DUP1 CALLDATASIZE SUB DUP2 ADD SWAP1 PUSH2 0x441 SWAP2 SWAP1 PUSH2 0x1F46 JUMP JUMPDEST PUSH2 0x1092 JUMP JUMPDEST PUSH1 0x40 MLOAD PUSH2 0x453 SWAP2 SWAP1 PUSH2 0x21D7 JUMP JUMPDEST PUSH1 0x40 MLOAD DUP1 SWAP2 SUB SWAP1 RETURN JUMPDEST PUSH2 0x476 PUSH1 0x4 DUP1 CALLDATASIZE SUB DUP2 ADD SWAP1 PUSH2 0x471 SWAP2 SWAP1 PUSH2 0x1F06 JUMP JUMPDEST PUSH2 0x10CA JUMP JUMPDEST STOP JUMPDEST PUSH2 0x492 PUSH1 0x4 DUP1 CALLDATASIZE SUB DUP2 ADD SWAP1 PUSH2 0x48D SWAP2 SWAP1 PUSH2 0x1E73 JUMP JUMPDEST PUSH2 0x11A5 JUMP JUMPDEST PUSH1 0x40 MLOAD PUSH2 0x49F SWAP2 SWAP1 PUSH2 0x2314 JUMP JUMPDEST PUSH1 0x40 MLOAD DUP1 SWAP2 SUB SWAP1 RETURN JUMPDEST PUSH2 0x4C2 PUSH1 0x4 DUP1 CALLDATASIZE SUB DUP2 ADD SWAP1 PUSH2 0x4BD SWAP2 SWAP1 PUSH2 0x1E46 JUMP JUMPDEST PUSH2 0x122C JUMP JUMPDEST STOP JUMPDEST PUSH1 0x60 PUSH1 0x0 DUP1 SLOAD PUSH2 0x4D3 SWAP1 PUSH2 0x253A JUMP JUMPDEST DUP1 PUSH1 0x1F ADD PUSH1 0x20 DUP1 SWAP2 DIV MUL PUSH1 0x20 ADD PUSH1 0x40 MLOAD SWAP1 DUP2 ADD PUSH1 0x40 MSTORE DUP1 SWAP3 SWAP2 SWAP1 DUP2 DUP2 MSTORE PUSH1 0x20 ADD DUP3 DUP1 SLOAD PUSH2 0x4FF SWAP1 PUSH2 0x253A JUMP JUMPDEST DUP1 ISZERO PUSH2 0x54C JUMPI DUP1 PUSH1 0x1F LT PUSH2 0x521 JUMPI PUSH2 0x100 DUP1 DUP4 SLOAD DIV MUL DUP4 MSTORE SWAP2 PUSH1 0x20 ADD SWAP2 PUSH2 0x54C JUMP JUMPDEST DUP3 ADD SWAP2 SWAP1 PUSH1 0x0 MSTORE PUSH1 0x20 PUSH1 0x0 KECCAK256 SWAP1 JUMPDEST DUP2 SLOAD DUP2 MSTORE SWAP1 PUSH1 0x1 ADD SWAP1 PUSH1 0x20 ADD DUP1 DUP4 GT PUSH2 0x52F JUMPI DUP3 SWAP1 SUB PUSH1 0x1F AND DUP3 ADD SWAP2 JUMPDEST POP POP POP POP POP SWAP1 POP SWAP1 JUMP JUMPDEST PUSH1 0x0 PUSH1 0x2 PUSH1 0x15 SWAP1 SLOAD SWAP1 PUSH2 0x100 EXP SWAP1 DIV PUSH1 0xFF AND ISZERO PUSH2 0x572 JUMPI PUSH1 0x0 DUP1 REVERT JUMPDEST PUSH2 0x584 PUSH2 0x57D PUSH2 0x12DD JUMP JUMPDEST DUP5 DUP5 PUSH2 0x12E5 JUMP JUMPDEST PUSH1 0x1 SWAP1 POP SWAP3 SWAP2 POP POP JUMP JUMPDEST PUSH2 0x596 PUSH2 0xDF8 JUMP JUMPDEST PUSH2 0x5D5 JUMPI PUSH1 0x40 MLOAD PUSH32 0x8C379A000000000000000000000000000000000000000000000000000000000 DUP2 MSTORE PUSH1 0x4 ADD PUSH2 0x5CC SWAP1 PUSH2 0x22B4 JUMP JUMPDEST PUSH1 0x40 MLOAD DUP1 SWAP2 SUB SWAP1 REVERT JUMPDEST PUSH1 0xA DUP4 PUSH1 0xFF AND LT PUSH2 0x5E5 JUMPI PUSH1 0x0 DUP1 REVERT JUMPDEST PUSH1 0x6 DUP3 PUSH1 0xFF AND LT PUSH2 0x5F5 JUMPI PUSH1 0x0 DUP1 REVERT JUMPDEST PUSH1 0x6 DUP2 PUSH1 0xFF AND LT PUSH2 0x605 JUMPI PUSH1 0x0 DUP1 REVERT JUMPDEST DUP3 PUSH1 0xA PUSH1 0x1 PUSH2 0x100 EXP DUP2 SLOAD DUP2 PUSH1 0xFF MUL NOT AND SWAP1 DUP4 PUSH1 0xFF AND MUL OR SWAP1 SSTORE POP DUP2 PUSH1 0xA PUSH1 0x0 PUSH2 0x100 EXP DUP2 SLOAD DUP2 PUSH1 0xFF MUL NOT AND SWAP1 DUP4 PUSH1 0xFF AND MUL OR SWAP1 SSTORE POP DUP1 PUSH1 0xA PUSH1 0x3 PUSH2 0x100 EXP DUP2 SLOAD DUP2 PUSH1 0xFF MUL NOT AND SWAP1 DUP4 PUSH1 0xFF AND MUL OR SWAP1 SSTORE POP PUSH32 0x8F649EEECB19301C91F9B511096FE7CBC4B2B67BC75BFEF33BA3F2745EFC386A DUP4 DUP4 DUP4 PUSH1 0x40 MLOAD PUSH2 0x689 SWAP4 SWAP3 SWAP2 SWAP1 PUSH2 0x234A JUMP JUMPDEST PUSH1 0x40 MLOAD DUP1 SWAP2 SUB SWAP1 LOG1 POP POP POP JUMP JUMPDEST PUSH2 0x69E PUSH2 0xDF8 JUMP JUMPDEST PUSH2 0x6DD JUMPI PUSH1 0x40 MLOAD PUSH32 0x8C379A000000000000000000000000000000000000000000000000000000000 DUP2 MSTORE PUSH1 0x4 ADD PUSH2 0x6D4 SWAP1 PUSH2 0x22B4 JUMP JUMPDEST PUSH1 0x40 MLOAD DUP1 SWAP2 SUB SWAP1 REVERT JUMPDEST DUP1 PUSH1 0x6 PUSH1 0x0 DUP5 PUSH20 0xFFFFFFFFFFFFFFFFFFFFFFFFFFFFFFFFFFFFFFFF AND PUSH20 0xFFFFFFFFFFFFFFFFFFFFFFFFFFFFFFFFFFFFFFFF AND DUP2 MSTORE PUSH1 0x20 ADD SWAP1 DUP2 MSTORE PUSH1 0x20 ADD PUSH1 0x0 KECCAK256 PUSH1 0x0 PUSH2 0x100 EXP DUP2 SLOAD DUP2 PUSH1 0xFF MUL NOT AND SWAP1 DUP4 ISZERO ISZERO MUL OR SWAP1 SSTORE POP PUSH32 0xF791A94C7F3569546A71ACF39C0189BD87BD7B7E3EA76CE41FD41D837CC4BBCA DUP3 DUP3 PUSH1 0x40 MLOAD PUSH2 0x765 SWAP3 SWAP2 SWAP1 PUSH2 0x21AE JUMP JUMPDEST PUSH1 0x40 MLOAD DUP1 SWAP2 SUB SWAP1 LOG1 POP POP JUMP JUMPDEST PUSH2 0x779 PUSH2 0xDF8 JUMP JUMPDEST PUSH2 0x7B8 JUMPI PUSH1 0x40 MLOAD PUSH32 0x8C379A000000000000000000000000000000000000000000000000000000000 DUP2 MSTORE PUSH1 0x4 ADD PUSH2 0x7AF SWAP1 PUSH2 0x22B4 JUMP JUMPDEST PUSH1 0x40 MLOAD DUP1 SWAP2 SUB SWAP1 REVERT JUMPDEST DUP1 PUSH1 0xA PUSH1 0x2 PUSH2 0x100 EXP DUP2 SLOAD DUP2 PUSH1 0xFF MUL NOT AND SWAP1 DUP4 PUSH1 0xFF AND MUL OR SWAP1 SSTORE POP PUSH32 0x3DC38872C1E356F05CEC7694232D10514DC69DDBDCB883F9687C4D4F7E371E01 DUP2 PUSH1 0x40 MLOAD PUSH2 0x802 SWAP2 SWAP1 PUSH2 0x232F JUMP JUMPDEST PUSH1 0x40 MLOAD DUP1 SWAP2 SUB SWAP1 LOG1 POP JUMP JUMPDEST PUSH1 0x0 PUSH1 0x5 SLOAD SWAP1 POP SWAP1 JUMP JUMPDEST PUSH1 0x0 PUSH1 0x2 PUSH1 0x15 SWAP1 SLOAD SWAP1 PUSH2 0x100 EXP SWAP1 DIV PUSH1 0xFF AND ISZERO PUSH2 0x833 JUMPI PUSH1 0x0 DUP1 REVERT JUMPDEST PUSH2 0x83E DUP5 DUP5 DUP5 PUSH2 0x14B0 JUMP JUMPDEST PUSH2 0x8FF DUP5 PUSH2 0x84A PUSH2 0x12DD JUMP JUMPDEST PUSH2 0x8FA DUP6 PUSH1 0x40 MLOAD DUP1 PUSH1 0x60 ADD PUSH1 0x40 MSTORE DUP1 PUSH1 0x28 DUP2 MSTORE PUSH1 0x20 ADD PUSH2 0x2872 PUSH1 0x28 SWAP2 CODECOPY PUSH1 0x4 PUSH1 0x0 DUP12 PUSH20 0xFFFFFFFFFFFFFFFFFFFFFFFFFFFFFFFFFFFFFFFF AND PUSH20 0xFFFFFFFFFFFFFFFFFFFFFFFFFFFFFFFFFFFFFFFF AND DUP2 MSTORE PUSH1 0x20 ADD SWAP1 DUP2 MSTORE PUSH1 0x20 ADD PUSH1 0x0 KECCAK256 PUSH1 0x0 PUSH2 0x8B0 PUSH2 0x12DD JUMP JUMPDEST PUSH20 0xFFFFFFFFFFFFFFFFFFFFFFFFFFFFFFFFFFFFFFFF AND PUSH20 0xFFFFFFFFFFFFFFFFFFFFFFFFFFFFFFFFFFFFFFFF AND DUP2 MSTORE PUSH1 0x20 ADD SWAP1 DUP2 MSTORE PUSH1 0x20 ADD PUSH1 0x0 KECCAK256 SLOAD PUSH2 0x19D0 SWAP1 SWAP3 SWAP2 SWAP1 PUSH4 0xFFFFFFFF AND JUMP JUMPDEST PUSH2 0x12E5 JUMP JUMPDEST PUSH1 0x1 SWAP1 POP SWAP4 SWAP3 POP POP POP JUMP JUMPDEST PUSH1 0x0 DUP1 PUSH1 0x0 PUSH1 0xA PUSH1 0x1 SWAP1 SLOAD SWAP1 PUSH2 0x100 EXP SWAP1 DIV PUSH1 0xFF AND PUSH1 0xA PUSH1 0x0 SWAP1 SLOAD SWAP1 PUSH2 0x100 EXP SWAP1 DIV PUSH1 0xFF AND PUSH1 0xA PUSH1 0x3 SWAP1 SLOAD SWAP1 PUSH2 0x100 EXP SWAP1 DIV PUSH1 0xFF AND SWAP3 POP SWAP3 POP SWAP3 POP SWAP1 SWAP2 SWAP3 JUMP JUMPDEST PUSH1 0x0 PUSH1 0x2 PUSH1 0x0 SWAP1 SLOAD SWAP1 PUSH2 0x100 EXP SWAP1 DIV PUSH1 0xFF AND SWAP1 POP SWAP1 JUMP JUMPDEST PUSH1 0x0 PUSH1 0x2 PUSH1 0x15 SWAP1 SLOAD SWAP1 PUSH2 0x100 EXP SWAP1 DIV PUSH1 0xFF AND ISZERO PUSH2 0x97D JUMPI PUSH1 0x0 DUP1 REVERT JUMPDEST PUSH2 0xA24 PUSH2 0x988 PUSH2 0x12DD JUMP JUMPDEST DUP5 PUSH2 0xA1F DUP6 PUSH1 0x4 PUSH1 0x0 PUSH2 0x999 PUSH2 0x12DD JUMP JUMPDEST PUSH20 0xFFFFFFFFFFFFFFFFFFFFFFFFFFFFFFFFFFFFFFFF AND PUSH20 0xFFFFFFFFFFFFFFFFFFFFFFFFFFFFFFFFFFFFFFFF AND DUP2 MSTORE PUSH1 0x20 ADD SWAP1 DUP2 MSTORE PUSH1 0x20 ADD PUSH1 0x0 KECCAK256 PUSH1 0x0 DUP10 PUSH20 0xFFFFFFFFFFFFFFFFFFFFFFFFFFFFFFFFFFFFFFFF AND PUSH20 0xFFFFFFFFFFFFFFFFFFFFFFFFFFFFFFFFFFFFFFFF AND DUP2 MSTORE PUSH1 0x20 ADD SWAP1 DUP2 MSTORE PUSH1 0x20 ADD PUSH1 0x0 KECCAK256 SLOAD PUSH2 0x127F SWAP1 SWAP2 SWAP1 PUSH4 0xFFFFFFFF AND JUMP JUMPDEST PUSH2 0x12E5 JUMP JUMPDEST PUSH1 0x1 SWAP1 POP SWAP3 SWAP2 POP POP JUMP JUMPDEST PUSH1 0x0 PUSH2 0xA38 PUSH2 0xDF8 JUMP JUMPDEST PUSH2 0xA77 JUMPI PUSH1 0x40 MLOAD PUSH32 0x8C379A000000000000000000000000000000000000000000000000000000000 DUP2 MSTORE PUSH1 0x4 ADD PUSH2 0xA6E SWAP1 PUSH2 0x22B4 JUMP JUMPDEST PUSH1 0x40 MLOAD DUP1 SWAP2 SUB SWAP1 REVERT JUMPDEST PUSH1 0x2 PUSH1 0x15 SWAP1 SLOAD SWAP1 PUSH2 0x100 EXP SWAP1 DIV PUSH1 0xFF AND PUSH2 0xA90 JUMPI PUSH1 0x0 DUP1 REVERT JUMPDEST PUSH1 0x0 PUSH1 0x2 PUSH1 0x15 PUSH2 0x100 EXP DUP2 SLOAD DUP2 PUSH1 0xFF MUL NOT AND SWAP1 DUP4 ISZERO ISZERO MUL OR SWAP1 SSTORE POP PUSH32 0x7805862F689E2F13DF9F062FF482AD3AD112ACA9E0847911ED832E158C525B33 PUSH1 0x40 MLOAD PUSH1 0x40 MLOAD DUP1 SWAP2 SUB SWAP1 LOG1 PUSH1 0x1 SWAP1 POP SWAP1 JUMP JUMPDEST PUSH2 0xAE6 PUSH2 0xDF8 JUMP JUMPDEST PUSH2 0xB25 JUMPI PUSH1 0x40 MLOAD PUSH32 0x8C379A000000000000000000000000000000000000000000000000000000000 DUP2 MSTORE PUSH1 0x4 ADD PUSH2 0xB1C SWAP1 PUSH2 0x22B4 JUMP JUMPDEST PUSH1 0x40 MLOAD DUP1 SWAP2 SUB SWAP1 REVERT JUMPDEST DUP1 PUSH1 0x8 PUSH1 0x0 DUP5 PUSH20 0xFFFFFFFFFFFFFFFFFFFFFFFFFFFFFFFFFFFFFFFF AND PUSH20 0xFFFFFFFFFFFFFFFFFFFFFFFFFFFFFFFFFFFFFFFF AND DUP2 MSTORE PUSH1 0x20 ADD SWAP1 DUP2 MSTORE PUSH1 0x20 ADD PUSH1 0x0 KECCAK256 PUSH1 0x0 PUSH2 0x100 EXP DUP2 SLOAD DUP2 PUSH1 0xFF MUL NOT AND SWAP1 DUP4 ISZERO ISZERO MUL OR SWAP1 SSTORE POP PUSH32 0xE41EFE2EC3272DFF61FC1D94FE807A61B44E66814ABE5F463E98A100B9BB852C DUP3 DUP3 PUSH1 0x40 MLOAD PUSH2 0xBAD SWAP3 SWAP2 SWAP1 PUSH2 0x21AE JUMP JUMPDEST PUSH1 0x40 MLOAD DUP1 SWAP2 SUB SWAP1 LOG1 POP POP JUMP JUMPDEST PUSH1 0x2 PUSH1 0x15 SWAP1 SLOAD SWAP1 PUSH2 0x100 EXP SWAP1 DIV PUSH1 0xFF AND DUP2 JUMP JUMPDEST PUSH1 0x0 PUSH1 0x3 PUSH1 0x0 DUP4 PUSH20 0xFFFFFFFFFFFFFFFFFFFFFFFFFFFFFFFFFFFFFFFF AND PUSH20 0xFFFFFFFFFFFFFFFFFFFFFFFFFFFFFFFFFFFFFFFF AND DUP2 MSTORE PUSH1 0x20 ADD SWAP1 DUP2 MSTORE PUSH1 0x20 ADD PUSH1 0x0 KECCAK256 SLOAD SWAP1 POP SWAP2 SWAP1 POP JUMP JUMPDEST PUSH2 0xC1D PUSH2 0xDF8 JUMP JUMPDEST PUSH2 0xC5C JUMPI PUSH1 0x40 MLOAD PUSH32 0x8C379A000000000000000000000000000000000000000000000000000000000 DUP2 MSTORE PUSH1 0x4 ADD PUSH2 0xC53 SWAP1 PUSH2 0x22B4 JUMP JUMPDEST PUSH1 0x40 MLOAD DUP1 SWAP2 SUB SWAP1 REVERT JUMPDEST PUSH1 0x0 PUSH20 0xFFFFFFFFFFFFFFFFFFFFFFFFFFFFFFFFFFFFFFFF AND PUSH1 0x2 PUSH1 0x1 SWAP1 SLOAD SWAP1 PUSH2 0x100 EXP SWAP1 DIV PUSH20 0xFFFFFFFFFFFFFFFFFFFFFFFFFFFFFFFFFFFFFFFF AND PUSH20 0xFFFFFFFFFFFFFFFFFFFFFFFFFFFFFFFFFFFFFFFF AND PUSH32 0x8BE0079C531659141344CD1FD0A4F28419497F9722A3DAAFE3B4186F6B6457E0 PUSH1 0x40 MLOAD PUSH1 0x40 MLOAD DUP1 SWAP2 SUB SWAP1 LOG3 PUSH1 0x0 PUSH1 0x2 PUSH1 0x1 PUSH2 0x100 EXP DUP2 SLOAD DUP2 PUSH20 0xFFFFFFFFFFFFFFFFFFFFFFFFFFFFFFFFFFFFFFFF MUL NOT AND SWAP1 DUP4 PUSH20 0xFFFFFFFFFFFFFFFFFFFFFFFFFFFFFFFFFFFFFFFF AND MUL OR SWAP1 SSTORE POP JUMP JUMPDEST PUSH1 0x0 PUSH2 0xD27 PUSH2 0xDF8 JUMP JUMPDEST PUSH2 0xD66 JUMPI PUSH1 0x40 MLOAD PUSH32 0x8C379A000000000000000000000000000000000000000000000000000000000 DUP2 MSTORE PUSH1 0x4 ADD PUSH2 0xD5D SWAP1 PUSH2 0x22B4 JUMP JUMPDEST PUSH1 0x40 MLOAD DUP1 SWAP2 SUB SWAP1 REVERT JUMPDEST PUSH1 0x2 PUSH1 0x15 SWAP1 SLOAD SWAP1 PUSH2 0x100 EXP SWAP1 DIV PUSH1 0xFF AND ISZERO PUSH2 0xD80 JUMPI PUSH1 0x0 DUP1 REVERT JUMPDEST PUSH1 0x1 PUSH1 0x2 PUSH1 0x15 PUSH2 0x100 EXP DUP2 SLOAD DUP2 PUSH1 0xFF MUL NOT AND SWAP1 DUP4 ISZERO ISZERO MUL OR SWAP1 SSTORE POP PUSH32 0x6985A02210A168E66602D3235CB6DB0E70F92B3BA4D376A33C0F3D9434BFF625 PUSH1 0x40 MLOAD PUSH1 0x40 MLOAD DUP1 SWAP2 SUB SWAP1 LOG1 PUSH1 0x1 SWAP1 POP SWAP1 JUMP JUMPDEST PUSH1 0x0 PUSH1 0x2 PUSH1 0x1 SWAP1 SLOAD SWAP1 PUSH2 0x100 EXP SWAP1 DIV PUSH20 0xFFFFFFFFFFFFFFFFFFFFFFFFFFFFFFFFFFFFFFFF AND SWAP1 POP SWAP1 JUMP JUMPDEST PUSH1 0x0 PUSH1 0x2 PUSH1 0x1 SWAP1 SLOAD SWAP1 PUSH2 0x100 EXP SWAP1 DIV PUSH20 0xFFFFFFFFFFFFFFFFFFFFFFFFFFFFFFFFFFFFFFFF AND PUSH20 0xFFFFFFFFFFFFFFFFFFFFFFFFFFFFFFFFFFFFFFFF AND PUSH2 0xE3B PUSH2 0x12DD JUMP JUMPDEST PUSH20 0xFFFFFFFFFFFFFFFFFFFFFFFFFFFFFFFFFFFFFFFF AND EQ SWAP1 POP SWAP1 JUMP JUMPDEST PUSH1 0x60 PUSH1 0x1 DUP1 SLOAD PUSH2 0xE66 SWAP1 PUSH2 0x253A JUMP JUMPDEST DUP1 PUSH1 0x1F ADD PUSH1 0x20 DUP1 SWAP2 DIV MUL PUSH1 0x20 ADD PUSH1 0x40 MLOAD SWAP1 DUP2 ADD PUSH1 0x40 MSTORE DUP1 SWAP3 SWAP2 SWAP1 DUP2 DUP2 MSTORE PUSH1 0x20 ADD DUP3 DUP1 SLOAD PUSH2 0xE92 SWAP1 PUSH2 0x253A JUMP JUMPDEST DUP1 ISZERO PUSH2 0xEDF JUMPI DUP1 PUSH1 0x1F LT PUSH2 0xEB4 JUMPI PUSH2 0x100 DUP1 DUP4 SLOAD DIV MUL DUP4 MSTORE SWAP2 PUSH1 0x20 ADD SWAP2 PUSH2 0xEDF JUMP JUMPDEST DUP3 ADD SWAP2 SWAP1 PUSH1 0x0 MSTORE PUSH1 0x20 PUSH1 0x0 KECCAK256 SWAP1 JUMPDEST DUP2 SLOAD DUP2 MSTORE SWAP1 PUSH1 0x1 ADD SWAP1 PUSH1 0x20 ADD DUP1 DUP4 GT PUSH2 0xEC2 JUMPI DUP3 SWAP1 SUB PUSH1 0x1F AND DUP3 ADD SWAP2 JUMPDEST POP POP POP POP POP SWAP1 POP SWAP1 JUMP JUMPDEST PUSH1 0x0 PUSH1 0x2 PUSH1 0x15 SWAP1 SLOAD SWAP1 PUSH2 0x100 EXP SWAP1 DIV PUSH1 0xFF AND ISZERO PUSH2 0xF05 JUMPI PUSH1 0x0 DUP1 REVERT JUMPDEST PUSH2 0xFC6 PUSH2 0xF10 PUSH2 0x12DD JUMP JUMPDEST DUP5 PUSH2 0xFC1 DUP6 PUSH1 0x40 MLOAD DUP1 PUSH1 0x60 ADD PUSH1 0x40 MSTORE DUP1 PUSH1 0x25 DUP2 MSTORE PUSH1 0x20 ADD PUSH2 0x290B PUSH1 0x25 SWAP2 CODECOPY PUSH1 0x4 PUSH1 0x0 PUSH2 0xF3A PUSH2 0x12DD JUMP JUMPDEST PUSH20 0xFFFFFFFFFFFFFFFFFFFFFFFFFFFFFFFFFFFFFFFF AND PUSH20 0xFFFFFFFFFFFFFFFFFFFFFFFFFFFFFFFFFFFFFFFF AND DUP2 MSTORE PUSH1 0x20 ADD SWAP1 DUP2 MSTORE PUSH1 0x20 ADD PUSH1 0x0 KECCAK256 PUSH1 0x0 DUP11 PUSH20 0xFFFFFFFFFFFFFFFFFFFFFFFFFFFFFFFFFFFFFFFF AND PUSH20 0xFFFFFFFFFFFFFFFFFFFFFFFFFFFFFFFFFFFFFFFF AND DUP2 MSTORE PUSH1 0x20 ADD SWAP1 DUP2 MSTORE PUSH1 0x20 ADD PUSH1 0x0 KECCAK256 SLOAD PUSH2 0x19D0 SWAP1 SWAP3 SWAP2 SWAP1 PUSH4 0xFFFFFFFF AND JUMP JUMPDEST PUSH2 0x12E5 JUMP JUMPDEST PUSH1 0x1 SWAP1 POP SWAP3 SWAP2 POP POP JUMP JUMPDEST PUSH2 0xFD8 PUSH2 0xDF8 JUMP JUMPDEST PUSH2 0x1017 JUMPI PUSH1 0x40 MLOAD PUSH32 0x8C379A000000000000000000000000000000000000000000000000000000000 DUP2 MSTORE PUSH1 0x4 ADD PUSH2 0x100E SWAP1 PUSH2 0x22B4 JUMP JUMPDEST PUSH1 0x40 MLOAD DUP1 SWAP2 SUB SWAP1 REVERT JUMPDEST DUP1 PUSH1 0xC PUSH1 0x0 PUSH2 0x100 EXP DUP2 SLOAD DUP2 PUSH20 0xFFFFFFFFFFFFFFFFFFFFFFFFFFFFFFFFFFFFFFFF MUL NOT AND SWAP1 DUP4 PUSH20 0xFFFFFFFFFFFFFFFFFFFFFFFFFFFFFFFFFFFFFFFF AND MUL OR SWAP1 SSTORE POP PUSH32 0xF15D5716DB5D5D79F695E387FC3E7C89982C0DF6F4B81A006E38CFDC850A712E DUP2 PUSH1 0x40 MLOAD PUSH2 0x1087 SWAP2 SWAP1 PUSH2 0x2193 JUMP JUMPDEST PUSH1 0x40 MLOAD DUP1 SWAP2 SUB SWAP1 LOG1 POP JUMP JUMPDEST PUSH1 0x0 PUSH1 0x2 PUSH1 0x15 SWAP1 SLOAD SWAP1 PUSH2 0x100 EXP SWAP1 DIV PUSH1 0xFF AND ISZERO PUSH2 0x10AE JUMPI PUSH1 0x0 DUP1 REVERT JUMPDEST PUSH2 0x10C0 PUSH2 0x10B9 PUSH2 0x12DD JUMP JUMPDEST DUP5 DUP5 PUSH2 0x14B0 JUMP JUMPDEST PUSH1 0x1 SWAP1 POP SWAP3 SWAP2 POP POP JUMP JUMPDEST PUSH2 0x10D2 PUSH2 0xDF8 JUMP JUMPDEST PUSH2 0x1111 JUMPI PUSH1 0x40 MLOAD PUSH32 0x8C379A000000000000000000000000000000000000000000000000000000000 DUP2 MSTORE PUSH1 0x4 ADD PUSH2 0x1108 SWAP1 PUSH2 0x22B4 JUMP JUMPDEST PUSH1 0x40 MLOAD DUP1 SWAP2 SUB SWAP1 REVERT JUMPDEST DUP1 PUSH1 0x7 PUSH1 0x0 DUP5 PUSH20 0xFFFFFFFFFFFFFFFFFFFFFFFFFFFFFFFFFFFFFFFF AND PUSH20 0xFFFFFFFFFFFFFFFFFFFFFFFFFFFFFFFFFFFFFFFF AND DUP2 MSTORE PUSH1 0x20 ADD SWAP1 DUP2 MSTORE PUSH1 0x20 ADD PUSH1 0x0 KECCAK256 PUSH1 0x0 PUSH2 0x100 EXP DUP2 SLOAD DUP2 PUSH1 0xFF MUL NOT AND SWAP1 DUP4 ISZERO ISZERO MUL OR SWAP1 SSTORE POP PUSH32 0x50D3135C1831A86BDC04740F17C94415767240D338DF5795B37FB5B8272F80D7 DUP3 DUP3 PUSH1 0x40 MLOAD PUSH2 0x1199 SWAP3 SWAP2 SWAP1 PUSH2 0x21AE JUMP JUMPDEST PUSH1 0x40 MLOAD DUP1 SWAP2 SUB SWAP1 LOG1 POP POP JUMP JUMPDEST PUSH1 0x0 PUSH1 0x4 PUSH1 0x0 DUP5 PUSH20 0xFFFFFFFFFFFFFFFFFFFFFFFFFFFFFFFFFFFFFFFF AND PUSH20 0xFFFFFFFFFFFFFFFFFFFFFFFFFFFFFFFFFFFFFFFF AND DUP2 MSTORE PUSH1 0x20 ADD SWAP1 DUP2 MSTORE PUSH1 0x20 ADD PUSH1 0x0 KECCAK256 PUSH1 0x0 DUP4 PUSH20 0xFFFFFFFFFFFFFFFFFFFFFFFFFFFFFFFFFFFFFFFF AND PUSH20 0xFFFFFFFFFFFFFFFFFFFFFFFFFFFFFFFFFFFFFFFF AND DUP2 MSTORE PUSH1 0x20 ADD SWAP1 DUP2 MSTORE PUSH1 0x20 ADD PUSH1 0x0 KECCAK256 SLOAD SWAP1 POP SWAP3 SWAP2 POP POP JUMP JUMPDEST PUSH2 0x1234 PUSH2 0xDF8 JUMP JUMPDEST PUSH2 0x1273 JUMPI PUSH1 0x40 MLOAD PUSH32 0x8C379A000000000000000000000000000000000000000000000000000000000 DUP2 MSTORE PUSH1 0x4 ADD PUSH2 0x126A SWAP1 PUSH2 0x22B4 JUMP JUMPDEST PUSH1 0x40 MLOAD DUP1 SWAP2 SUB SWAP1 REVERT JUMPDEST PUSH2 0x127C DUP2 PUSH2 0x1A34 JUMP JUMPDEST POP JUMP JUMPDEST PUSH1 0x0 DUP1 DUP3 DUP5 PUSH2 0x128E SWAP2 SWAP1 PUSH2 0x239D JUMP JUMPDEST SWAP1 POP DUP4 DUP2 LT ISZERO PUSH2 0x12D3 JUMPI PUSH1 0x40 MLOAD PUSH32 0x8C379A000000000000000000000000000000000000000000000000000000000 DUP2 MSTORE PUSH1 0x4 ADD PUSH2 0x12CA SWAP1 PUSH2 0x2274 JUMP JUMPDEST PUSH1 0x40 MLOAD DUP1 SWAP2 SUB SWAP1 REVERT JUMPDEST DUP1 SWAP2 POP POP SWAP3 SWAP2 POP POP JUMP JUMPDEST PUSH1 0x0 CALLER SWAP1 POP SWAP1 JUMP JUMPDEST PUSH1 0x0 PUSH20 0xFFFFFFFFFFFFFFFFFFFFFFFFFFFFFFFFFFFFFFFF AND DUP4 PUSH20 0xFFFFFFFFFFFFFFFFFFFFFFFFFFFFFFFFFFFFFFFF AND EQ ISZERO PUSH2 0x1355 JUMPI PUSH1 0x40 MLOAD PUSH32 0x8C379A000000000000000000000000000000000000000000000000000000000 DUP2 MSTORE PUSH1 0x4 ADD PUSH2 0x134C SWAP1 PUSH2 0x2234 JUMP JUMPDEST PUSH1 0x40 MLOAD DUP1 SWAP2 SUB SWAP1 REVERT JUMPDEST PUSH1 0x0 PUSH20 0xFFFFFFFFFFFFFFFFFFFFFFFFFFFFFFFFFFFFFFFF AND DUP3 PUSH20 0xFFFFFFFFFFFFFFFFFFFFFFFFFFFFFFFFFFFFFFFF AND EQ ISZERO PUSH2 0x13C5 JUMPI PUSH1 0x40 MLOAD PUSH32 0x8C379A000000000000000000000000000000000000000000000000000000000 DUP2 MSTORE PUSH1 0x4 ADD PUSH2 0x13BC SWAP1 PUSH2 0x22F4 JUMP JUMPDEST PUSH1 0x40 MLOAD DUP1 SWAP2 SUB SWAP1 REVERT JUMPDEST DUP1 PUSH1 0x4 PUSH1 0x0 DUP6 PUSH20 0xFFFFFFFFFFFFFFFFFFFFFFFFFFFFFFFFFFFFFFFF AND PUSH20 0xFFFFFFFFFFFFFFFFFFFFFFFFFFFFFFFFFFFFFFFF AND DUP2 MSTORE PUSH1 0x20 ADD SWAP1 DUP2 MSTORE PUSH1 0x20 ADD PUSH1 0x0 KECCAK256 PUSH1 0x0 DUP5 PUSH20 0xFFFFFFFFFFFFFFFFFFFFFFFFFFFFFFFFFFFFFFFF AND PUSH20 0xFFFFFFFFFFFFFFFFFFFFFFFFFFFFFFFFFFFFFFFF AND DUP2 MSTORE PUSH1 0x20 ADD SWAP1 DUP2 MSTORE PUSH1 0x20 ADD PUSH1 0x0 KECCAK256 DUP2 SWAP1 SSTORE POP DUP2 PUSH20 0xFFFFFFFFFFFFFFFFFFFFFFFFFFFFFFFFFFFFFFFF AND DUP4 PUSH20 0xFFFFFFFFFFFFFFFFFFFFFFFFFFFFFFFFFFFFFFFF AND PUSH32 0x8C5BE1E5EBEC7D5BD14F71427D1E84F3DD0314C0F7B2291E5B200AC8C7C3B925 DUP4 PUSH1 0x40 MLOAD PUSH2 0x14A3 SWAP2 SWAP1 PUSH2 0x2314 JUMP JUMPDEST PUSH1 0x40 MLOAD DUP1 SWAP2 SUB SWAP1 LOG3 POP POP POP JUMP JUMPDEST ADDRESS PUSH20 0xFFFFFFFFFFFFFFFFFFFFFFFFFFFFFFFFFFFFFFFF AND DUP3 PUSH20 0xFFFFFFFFFFFFFFFFFFFFFFFFFFFFFFFFFFFFFFFF AND EQ ISZERO PUSH1 0x40 MLOAD DUP1 PUSH1 0x60 ADD PUSH1 0x40 MSTORE DUP1 PUSH1 0x21 DUP2 MSTORE PUSH1 0x20 ADD PUSH2 0x289A PUSH1 0x21 SWAP2 CODECOPY SWAP1 PUSH2 0x153A JUMPI PUSH1 0x40 MLOAD PUSH32 0x8C379A000000000000000000000000000000000000000000000000000000000 DUP2 MSTORE PUSH1 0x4 ADD PUSH2 0x1531 SWAP2 SWAP1 PUSH2 0x21F2 JUMP JUMPDEST PUSH1 0x40 MLOAD DUP1 SWAP2 SUB SWAP1 REVERT JUMPDEST POP PUSH1 0x6 PUSH1 0x0 DUP5 PUSH20 0xFFFFFFFFFFFFFFFFFFFFFFFFFFFFFFFFFFFFFFFF AND PUSH20 0xFFFFFFFFFFFFFFFFFFFFFFFFFFFFFFFFFFFFFFFF AND DUP2 MSTORE PUSH1 0x20 ADD SWAP1 DUP2 MSTORE PUSH1 0x20 ADD PUSH1 0x0 KECCAK256 PUSH1 0x0 SWAP1 SLOAD SWAP1 PUSH2 0x100 EXP SWAP1 DIV PUSH1 0xFF AND ISZERO PUSH2 0x15C8 JUMPI PUSH1 0x40 MLOAD PUSH32 0x8C379A000000000000000000000000000000000000000000000000000000000 DUP2 MSTORE PUSH1 0x4 ADD PUSH2 0x15BF SWAP1 PUSH2 0x2294 JUMP JUMPDEST PUSH1 0x40 MLOAD DUP1 SWAP2 SUB SWAP1 REVERT JUMPDEST PUSH1 0x1 ISZERO ISZERO PUSH1 0x7 PUSH1 0x0 DUP6 PUSH20 0xFFFFFFFFFFFFFFFFFFFFFFFFFFFFFFFFFFFFFFFF AND PUSH20 0xFFFFFFFFFFFFFFFFFFFFFFFFFFFFFFFFFFFFFFFF AND DUP2 MSTORE PUSH1 0x20 ADD SWAP1 DUP2 MSTORE PUSH1 0x20 ADD PUSH1 0x0 KECCAK256 PUSH1 0x0 SWAP1 SLOAD SWAP1 PUSH2 0x100 EXP SWAP1 DIV PUSH1 0xFF AND ISZERO ISZERO EQ ISZERO PUSH2 0x1656 JUMPI PUSH1 0x64 PUSH1 0xA PUSH1 0x0 SWAP1 SLOAD SWAP1 PUSH2 0x100 EXP SWAP1 DIV PUSH1 0xFF AND PUSH1 0xFF AND DUP3 PUSH2 0x1641 SWAP2 SWAP1 PUSH2 0x2424 JUMP JUMPDEST PUSH2 0x164B SWAP2 SWAP1 PUSH2 0x23F3 JUMP JUMPDEST PUSH1 0xB DUP2 SWAP1 SSTORE POP PUSH2 0x1978 JUMP JUMPDEST PUSH1 0x1 ISZERO ISZERO PUSH1 0x7 PUSH1 0x0 DUP5 PUSH20 0xFFFFFFFFFFFFFFFFFFFFFFFFFFFFFFFFFFFFFFFF AND PUSH20 0xFFFFFFFFFFFFFFFFFFFFFFFFFFFFFFFFFFFFFFFF AND DUP2 MSTORE PUSH1 0x20 ADD SWAP1 DUP2 MSTORE PUSH1 0x20 ADD PUSH1 0x0 KECCAK256 PUSH1 0x0 SWAP1 SLOAD SWAP1 PUSH2 0x100 EXP SWAP1 DIV PUSH1 0xFF AND ISZERO ISZERO EQ ISZERO PUSH2 0x17E2 JUMPI PUSH1 0x64 PUSH1 0xA PUSH1 0x1 SWAP1 SLOAD SWAP1 PUSH2 0x100 EXP SWAP1 DIV PUSH1 0xFF AND PUSH1 0xFF AND DUP3 PUSH2 0x16CF SWAP2 SWAP1 PUSH2 0x2424 JUMP JUMPDEST PUSH2 0x16D9 SWAP2 SWAP1 PUSH2 0x23F3 JUMP JUMPDEST PUSH1 0xB DUP2 SWAP1 SSTORE POP PUSH1 0xA PUSH1 0x2 SWAP1 SLOAD SWAP1 PUSH2 0x100 EXP SWAP1 DIV PUSH1 0xFF AND PUSH1 0xFF AND TIMESTAMP PUSH2 0x16FD SWAP2 SWAP1 PUSH2 0x247E JUMP JUMPDEST PUSH1 0x9 PUSH1 0x0 DUP6 PUSH20 0xFFFFFFFFFFFFFFFFFFFFFFFFFFFFFFFFFFFFFFFF AND PUSH20 0xFFFFFFFFFFFFFFFFFFFFFFFFFFFFFFFFFFFFFFFF AND DUP2 MSTORE PUSH1 0x20 ADD SWAP1 DUP2 MSTORE PUSH1 0x20 ADD PUSH1 0x0 KECCAK256 SLOAD LT PUSH1 0x40 MLOAD DUP1 PUSH1 0x60 ADD PUSH1 0x40 MSTORE DUP1 PUSH1 0x2A DUP2 MSTORE PUSH1 0x20 ADD PUSH2 0x28BB PUSH1 0x2A SWAP2 CODECOPY SWAP1 PUSH2 0x1798 JUMPI PUSH1 0x40 MLOAD PUSH32 0x8C379A000000000000000000000000000000000000000000000000000000000 DUP2 MSTORE PUSH1 0x4 ADD PUSH2 0x178F SWAP2 SWAP1 PUSH2 0x21F2 JUMP JUMPDEST PUSH1 0x40 MLOAD DUP1 SWAP2 SUB SWAP1 REVERT JUMPDEST POP TIMESTAMP PUSH1 0x9 PUSH1 0x0 DUP6 PUSH20 0xFFFFFFFFFFFFFFFFFFFFFFFFFFFFFFFFFFFFFFFF AND PUSH20 0xFFFFFFFFFFFFFFFFFFFFFFFFFFFFFFFFFFFFFFFF AND DUP2 MSTORE PUSH1 0x20 ADD SWAP1 DUP2 MSTORE PUSH1 0x20 ADD PUSH1 0x0 KECCAK256 DUP2 SWAP1 SSTORE POP PUSH2 0x1977 JUMP JUMPDEST PUSH1 0x8 PUSH1 0x0 DUP5 PUSH20 0xFFFFFFFFFFFFFFFFFFFFFFFFFFFFFFFFFFFFFFFF AND PUSH20 0xFFFFFFFFFFFFFFFFFFFFFFFFFFFFFFFFFFFFFFFF AND DUP2 MSTORE PUSH1 0x20 ADD SWAP1 DUP2 MSTORE PUSH1 0x20 ADD PUSH1 0x0 KECCAK256 PUSH1 0x0 SWAP1 SLOAD SWAP1 PUSH2 0x100 EXP SWAP1 DIV PUSH1 0xFF AND DUP1 PUSH2 0x1883 JUMPI POP PUSH1 0x8 PUSH1 0x0 DUP4 PUSH20 0xFFFFFFFFFFFFFFFFFFFFFFFFFFFFFFFFFFFFFFFF AND PUSH20 0xFFFFFFFFFFFFFFFFFFFFFFFFFFFFFFFFFFFFFFFF AND DUP2 MSTORE PUSH1 0x20 ADD SWAP1 DUP2 MSTORE PUSH1 0x20 ADD PUSH1 0x0 KECCAK256 PUSH1 0x0 SWAP1 SLOAD SWAP1 PUSH2 0x100 EXP SWAP1 DIV PUSH1 0xFF AND JUMPDEST DUP1 PUSH2 0x18DB JUMPI POP PUSH1 0xC PUSH1 0x0 SWAP1 SLOAD SWAP1 PUSH2 0x100 EXP SWAP1 DIV PUSH20 0xFFFFFFFFFFFFFFFFFFFFFFFFFFFFFFFFFFFFFFFF AND PUSH20 0xFFFFFFFFFFFFFFFFFFFFFFFFFFFFFFFFFFFFFFFF AND DUP4 PUSH20 0xFFFFFFFFFFFFFFFFFFFFFFFFFFFFFFFFFFFFFFFF AND EQ JUMPDEST DUP1 PUSH2 0x1933 JUMPI POP PUSH1 0xC PUSH1 0x0 SWAP1 SLOAD SWAP1 PUSH2 0x100 EXP SWAP1 DIV PUSH20 0xFFFFFFFFFFFFFFFFFFFFFFFFFFFFFFFFFFFFFFFF AND PUSH20 0xFFFFFFFFFFFFFFFFFFFFFFFFFFFFFFFFFFFFFFFF AND DUP3 PUSH20 0xFFFFFFFFFFFFFFFFFFFFFFFFFFFFFFFFFFFFFFFF AND EQ JUMPDEST ISZERO PUSH2 0x1945 JUMPI PUSH1 0x0 PUSH1 0xB DUP2 SWAP1 SSTORE POP PUSH2 0x1976 JUMP JUMPDEST PUSH1 0x64 PUSH1 0xA PUSH1 0x3 SWAP1 SLOAD SWAP1 PUSH2 0x100 EXP SWAP1 DIV PUSH1 0xFF AND PUSH1 0xFF AND DUP3 PUSH2 0x1965 SWAP2 SWAP1 PUSH2 0x2424 JUMP JUMPDEST PUSH2 0x196F SWAP2 SWAP1 PUSH2 0x23F3 JUMP JUMPDEST PUSH1 0xB DUP2 SWAP1 SSTORE POP JUMPDEST JUMPDEST JUMPDEST PUSH1 0x0 PUSH1 0xB SLOAD GT ISZERO PUSH2 0x19B3 JUMPI PUSH2 0x19B2 DUP4 PUSH1 0xC PUSH1 0x0 SWAP1 SLOAD SWAP1 PUSH2 0x100 EXP SWAP1 DIV PUSH20 0xFFFFFFFFFFFFFFFFFFFFFFFFFFFFFFFFFFFFFFFF AND PUSH1 0xB SLOAD PUSH2 0x1B64 JUMP JUMPDEST JUMPDEST PUSH2 0x19CB DUP4 DUP4 PUSH1 0xB SLOAD DUP5 PUSH2 0x19C6 SWAP2 SWAP1 PUSH2 0x247E JUMP JUMPDEST PUSH2 0x1B64 JUMP JUMPDEST POP POP POP JUMP JUMPDEST PUSH1 0x0 DUP4 DUP4 GT ISZERO DUP3 SWAP1 PUSH2 0x1A18 JUMPI PUSH1 0x40 MLOAD PUSH32 0x8C379A000000000000000000000000000000000000000000000000000000000 DUP2 MSTORE PUSH1 0x4 ADD PUSH2 0x1A0F SWAP2 SWAP1 PUSH2 0x21F2 JUMP JUMPDEST PUSH1 0x40 MLOAD DUP1 SWAP2 SUB SWAP1 REVERT JUMPDEST POP PUSH1 0x0 DUP4 DUP6 PUSH2 0x1A27 SWAP2 SWAP1 PUSH2 0x247E JUMP JUMPDEST SWAP1 POP DUP1 SWAP2 POP POP SWAP4 SWAP3 POP POP POP JUMP JUMPDEST PUSH1 0x0 PUSH20 0xFFFFFFFFFFFFFFFFFFFFFFFFFFFFFFFFFFFFFFFF AND DUP2 PUSH20 0xFFFFFFFFFFFFFFFFFFFFFFFFFFFFFFFFFFFFFFFF AND EQ ISZERO PUSH2 0x1AA4 JUMPI PUSH1 0x40 MLOAD PUSH32 0x8C379A000000000000000000000000000000000000000000000000000000000 DUP2 MSTORE PUSH1 0x4 ADD PUSH2 0x1A9B SWAP1 PUSH2 0x2254 JUMP JUMPDEST PUSH1 0x40 MLOAD DUP1 SWAP2 SUB SWAP1 REVERT JUMPDEST DUP1 PUSH20 0xFFFFFFFFFFFFFFFFFFFFFFFFFFFFFFFFFFFFFFFF AND PUSH1 0x2 PUSH1 0x1 SWAP1 SLOAD SWAP1 PUSH2 0x100 EXP SWAP1 DIV PUSH20 0xFFFFFFFFFFFFFFFFFFFFFFFFFFFFFFFFFFFFFFFF AND PUSH20 0xFFFFFFFFFFFFFFFFFFFFFFFFFFFFFFFFFFFFFFFF AND PUSH32 0x8BE0079C531659141344CD1FD0A4F28419497F9722A3DAAFE3B4186F6B6457E0 PUSH1 0x40 MLOAD PUSH1 0x40 MLOAD DUP1 SWAP2 SUB SWAP1 LOG3 DUP1 PUSH1 0x2 PUSH1 0x1 PUSH2 0x100 EXP DUP2 SLOAD DUP2 PUSH20 0xFFFFFFFFFFFFFFFFFFFFFFFFFFFFFFFFFFFFFFFF MUL NOT AND SWAP1 DUP4 PUSH20 0xFFFFFFFFFFFFFFFFFFFFFFFFFFFFFFFFFFFFFFFF AND MUL OR SWAP1 SSTORE POP POP JUMP JUMPDEST PUSH1 0x0 PUSH20 0xFFFFFFFFFFFFFFFFFFFFFFFFFFFFFFFFFFFFFFFF AND DUP4 PUSH20 0xFFFFFFFFFFFFFFFFFFFFFFFFFFFFFFFFFFFFFFFF AND EQ ISZERO PUSH2 0x1BD4 JUMPI PUSH1 0x40 MLOAD PUSH32 0x8C379A000000000000000000000000000000000000000000000000000000000 DUP2 MSTORE PUSH1 0x4 ADD PUSH2 0x1BCB SWAP1 PUSH2 0x2214 JUMP JUMPDEST PUSH1 0x40 MLOAD DUP1 SWAP2 SUB SWAP1 REVERT JUMPDEST PUSH1 0x0 PUSH20 0xFFFFFFFFFFFFFFFFFFFFFFFFFFFFFFFFFFFFFFFF AND DUP3 PUSH20 0xFFFFFFFFFFFFFFFFFFFFFFFFFFFFFFFFFFFFFFFF AND EQ ISZERO PUSH2 0x1C44 JUMPI PUSH1 0x40 MLOAD PUSH32 0x8C379A000000000000000000000000000000000000000000000000000000000 DUP2 MSTORE PUSH1 0x4 ADD PUSH2 0x1C3B SWAP1 PUSH2 0x22D4 JUMP JUMPDEST PUSH1 0x40 MLOAD DUP1 SWAP2 SUB SWAP1 REVERT JUMPDEST PUSH2 0x1CB0 DUP2 PUSH1 0x40 MLOAD DUP1 PUSH1 0x60 ADD PUSH1 0x40 MSTORE DUP1 PUSH1 0x26 DUP2 MSTORE PUSH1 0x20 ADD PUSH2 0x28E5 PUSH1 0x26 SWAP2 CODECOPY PUSH1 0x3 PUSH1 0x0 DUP8 PUSH20 0xFFFFFFFFFFFFFFFFFFFFFFFFFFFFFFFFFFFFFFFF AND PUSH20 0xFFFFFFFFFFFFFFFFFFFFFFFFFFFFFFFFFFFFFFFF AND DUP2 MSTORE PUSH1 0x20 ADD SWAP1 DUP2 MSTORE PUSH1 0x20 ADD PUSH1 0x0 KECCAK256 SLOAD PUSH2 0x19D0 SWAP1 SWAP3 SWAP2 SWAP1 PUSH4 0xFFFFFFFF AND JUMP JUMPDEST PUSH1 0x3 PUSH1 0x0 DUP6 PUSH20 0xFFFFFFFFFFFFFFFFFFFFFFFFFFFFFFFFFFFFFFFF AND PUSH20 0xFFFFFFFFFFFFFFFFFFFFFFFFFFFFFFFFFFFFFFFF AND DUP2 MSTORE PUSH1 0x20 ADD SWAP1 DUP2 MSTORE PUSH1 0x20 ADD PUSH1 0x0 KECCAK256 DUP2 SWAP1 SSTORE POP PUSH2 0x1D45 DUP2 PUSH1 0x3 PUSH1 0x0 DUP6 PUSH20 0xFFFFFFFFFFFFFFFFFFFFFFFFFFFFFFFFFFFFFFFF AND PUSH20 0xFFFFFFFFFFFFFFFFFFFFFFFFFFFFFFFFFFFFFFFF AND DUP2 MSTORE PUSH1 0x20 ADD SWAP1 DUP2 MSTORE PUSH1 0x20 ADD PUSH1 0x0 KECCAK256 SLOAD PUSH2 0x127F SWAP1 SWAP2 SWAP1 PUSH4 0xFFFFFFFF AND JUMP JUMPDEST PUSH1 0x3 PUSH1 0x0 DUP5 PUSH20 0xFFFFFFFFFFFFFFFFFFFFFFFFFFFFFFFFFFFFFFFF AND PUSH20 0xFFFFFFFFFFFFFFFFFFFFFFFFFFFFFFFFFFFFFFFF AND DUP2 MSTORE PUSH1 0x20 ADD SWAP1 DUP2 MSTORE PUSH1 0x20 ADD PUSH1 0x0 KECCAK256 DUP2 SWAP1 SSTORE POP DUP2 PUSH20 0xFFFFFFFFFFFFFFFFFFFFFFFFFFFFFFFFFFFFFFFF AND DUP4 PUSH20 0xFFFFFFFFFFFFFFFFFFFFFFFFFFFFFFFFFFFFFFFF AND PUSH32 0xDDF252AD1BE2C89B69C2B068FC378DAA952BA7F163C4A11628F55A4DF523B3EF DUP4 PUSH1 0x40 MLOAD PUSH2 0x1DE5 SWAP2 SWAP1 PUSH2 0x2314 JUMP JUMPDEST PUSH1 0x40 MLOAD DUP1 SWAP2 SUB SWAP1 LOG3 POP POP POP JUMP JUMPDEST PUSH1 0x0 DUP2 CALLDATALOAD SWAP1 POP PUSH2 0x1E01 DUP2 PUSH2 0x2815 JUMP JUMPDEST SWAP3 SWAP2 POP POP JUMP JUMPDEST PUSH1 0x0 DUP2 CALLDATALOAD SWAP1 POP PUSH2 0x1E16 DUP2 PUSH2 0x282C JUMP JUMPDEST SWAP3 SWAP2 POP POP JUMP JUMPDEST PUSH1 0x0 DUP2 CALLDATALOAD SWAP1 POP PUSH2 0x1E2B DUP2 PUSH2 0x2843 JUMP JUMPDEST SWAP3 SWAP2 POP POP JUMP JUMPDEST PUSH1 0x0 DUP2 CALLDATALOAD SWAP1 POP PUSH2 0x1E40 DUP2 PUSH2 0x285A JUMP JUMPDEST SWAP3 SWAP2 POP POP JUMP JUMPDEST PUSH1 0x0 PUSH1 0x20 DUP3 DUP5 SUB SLT ISZERO PUSH2 0x1E5C JUMPI PUSH2 0x1E5B PUSH2 0x25F9 JUMP JUMPDEST JUMPDEST PUSH1 0x0 PUSH2 0x1E6A DUP5 DUP3 DUP6 ADD PUSH2 0x1DF2 JUMP JUMPDEST SWAP2 POP POP SWAP3 SWAP2 POP POP JUMP JUMPDEST PUSH1 0x0 DUP1 PUSH1 0x40 DUP4 DUP6 SUB SLT ISZERO PUSH2 0x1E8A JUMPI PUSH2 0x1E89 PUSH2 0x25F9 JUMP JUMPDEST JUMPDEST PUSH1 0x0 PUSH2 0x1E98 DUP6 DUP3 DUP7 ADD PUSH2 0x1DF2 JUMP JUMPDEST SWAP3 POP POP PUSH1 0x20 PUSH2 0x1EA9 DUP6 DUP3 DUP7 ADD PUSH2 0x1DF2 JUMP JUMPDEST SWAP2 POP POP SWAP3 POP SWAP3 SWAP1 POP JUMP JUMPDEST PUSH1 0x0 DUP1 PUSH1 0x0 PUSH1 0x60 DUP5 DUP7 SUB SLT ISZERO PUSH2 0x1ECC JUMPI PUSH2 0x1ECB PUSH2 0x25F9 JUMP JUMPDEST JUMPDEST PUSH1 0x0 PUSH2 0x1EDA DUP7 DUP3 DUP8 ADD PUSH2 0x1DF2 JUMP JUMPDEST SWAP4 POP POP PUSH1 0x20 PUSH2 0x1EEB DUP7 DUP3 DUP8 ADD PUSH2 0x1DF2 JUMP JUMPDEST SWAP3 POP POP PUSH1 0x40 PUSH2 0x1EFC DUP7 DUP3 DUP8 ADD PUSH2 0x1E1C JUMP JUMPDEST SWAP2 POP POP SWAP3 POP SWAP3 POP SWAP3 JUMP JUMPDEST PUSH1 0x0 DUP1 PUSH1 0x40 DUP4 DUP6 SUB SLT ISZERO PUSH2 0x1F1D JUMPI PUSH2 0x1F1C PUSH2 0x25F9 JUMP JUMPDEST JUMPDEST PUSH1 0x0 PUSH2 0x1F2B DUP6 DUP3 DUP7 ADD PUSH2 0x1DF2 JUMP JUMPDEST SWAP3 POP POP PUSH1 0x20 PUSH2 0x1F3C DUP6 DUP3 DUP7 ADD PUSH2 0x1E07 JUMP JUMPDEST SWAP2 POP POP SWAP3 POP SWAP3 SWAP1 POP JUMP JUMPDEST PUSH1 0x0 DUP1 PUSH1 0x40 DUP4 DUP6 SUB SLT ISZERO PUSH2 0x1F5D JUMPI PUSH2 0x1F5C PUSH2 0x25F9 JUMP JUMPDEST JUMPDEST PUSH1 0x0 PUSH2 0x1F6B DUP6 DUP3 DUP7 ADD PUSH2 0x1DF2 JUMP JUMPDEST SWAP3 POP POP PUSH1 0x20 PUSH2 0x1F7C DUP6 DUP3 DUP7 ADD PUSH2 0x1E1C JUMP JUMPDEST SWAP2 POP POP SWAP3 POP SWAP3 SWAP1 POP JUMP JUMPDEST PUSH1 0x0 PUSH1 0x20 DUP3 DUP5 SUB SLT ISZERO PUSH2 0x1F9C JUMPI PUSH2 0x1F9B PUSH2 0x25F9 JUMP JUMPDEST JUMPDEST PUSH1 0x0 PUSH2 0x1FAA DUP5 DUP3 DUP6 ADD PUSH2 0x1E31 JUMP JUMPDEST SWAP2 POP POP SWAP3 SWAP2 POP POP JUMP JUMPDEST PUSH1 0x0 DUP1 PUSH1 0x0 PUSH1 0x60 DUP5 DUP7 SUB SLT ISZERO PUSH2 0x1FCC JUMPI PUSH2 0x1FCB PUSH2 0x25F9 JUMP JUMPDEST JUMPDEST PUSH1 0x0 PUSH2 0x1FDA DUP7 DUP3 DUP8 ADD PUSH2 0x1E31 JUMP JUMPDEST SWAP4 POP POP PUSH1 0x20 PUSH2 0x1FEB DUP7 DUP3 DUP8 ADD PUSH2 0x1E31 JUMP JUMPDEST SWAP3 POP POP PUSH1 0x40 PUSH2 0x1FFC DUP7 DUP3 DUP8 ADD PUSH2 0x1E31 JUMP JUMPDEST SWAP2 POP POP SWAP3 POP SWAP3 POP SWAP3 JUMP JUMPDEST PUSH2 0x200F DUP2 PUSH2 0x24B2 JUMP JUMPDEST DUP3 MSTORE POP POP JUMP JUMPDEST PUSH2 0x201E DUP2 PUSH2 0x24C4 JUMP JUMPDEST DUP3 MSTORE POP POP JUMP JUMPDEST PUSH1 0x0 PUSH2 0x202F DUP3 PUSH2 0x2381 JUMP JUMPDEST PUSH2 0x2039 DUP2 DUP6 PUSH2 0x238C JUMP JUMPDEST SWAP4 POP PUSH2 0x2049 DUP2 DUP6 PUSH1 0x20 DUP7 ADD PUSH2 0x2507 JUMP JUMPDEST PUSH2 0x2052 DUP2 PUSH2 0x25FE JUMP JUMPDEST DUP5 ADD SWAP2 POP POP SWAP3 SWAP2 POP POP JUMP JUMPDEST PUSH1 0x0 PUSH2 0x206A PUSH1 0x25 DUP4 PUSH2 0x238C JUMP JUMPDEST SWAP2 POP PUSH2 0x2075 DUP3 PUSH2 0x260F JUMP JUMPDEST PUSH1 0x40 DUP3 ADD SWAP1 POP SWAP2 SWAP1 POP JUMP JUMPDEST PUSH1 0x0 PUSH2 0x208D PUSH1 0x24 DUP4 PUSH2 0x238C JUMP JUMPDEST SWAP2 POP PUSH2 0x2098 DUP3 PUSH2 0x265E JUMP JUMPDEST PUSH1 0x40 DUP3 ADD SWAP1 POP SWAP2 SWAP1 POP JUMP JUMPDEST PUSH1 0x0 PUSH2 0x20B0 PUSH1 0x26 DUP4 PUSH2 0x238C JUMP JUMPDEST SWAP2 POP PUSH2 0x20BB DUP3 PUSH2 0x26AD JUMP JUMPDEST PUSH1 0x40 DUP3 ADD SWAP1 POP SWAP2 SWAP1 POP JUMP JUMPDEST PUSH1 0x0 PUSH2 0x20D3 PUSH1 0x1B DUP4 PUSH2 0x238C JUMP JUMPDEST SWAP2 POP PUSH2 0x20DE DUP3 PUSH2 0x26FC JUMP JUMPDEST PUSH1 0x20 DUP3 ADD SWAP1 POP SWAP2 SWAP1 POP JUMP JUMPDEST PUSH1 0x0 PUSH2 0x20F6 PUSH1 0x10 DUP4 PUSH2 0x238C JUMP JUMPDEST SWAP2 POP PUSH2 0x2101 DUP3 PUSH2 0x2725 JUMP JUMPDEST PUSH1 0x20 DUP3 ADD SWAP1 POP SWAP2 SWAP1 POP JUMP JUMPDEST PUSH1 0x0 PUSH2 0x2119 PUSH1 0x20 DUP4 PUSH2 0x238C JUMP JUMPDEST SWAP2 POP PUSH2 0x2124 DUP3 PUSH2 0x274E JUMP JUMPDEST PUSH1 0x20 DUP3 ADD SWAP1 POP SWAP2 SWAP1 POP JUMP JUMPDEST PUSH1 0x0 PUSH2 0x213C PUSH1 0x23 DUP4 PUSH2 0x238C JUMP JUMPDEST SWAP2 POP PUSH2 0x2147 DUP3 PUSH2 0x2777 JUMP JUMPDEST PUSH1 0x40 DUP3 ADD SWAP1 POP SWAP2 SWAP1 POP JUMP JUMPDEST PUSH1 0x0 PUSH2 0x215F PUSH1 0x22 DUP4 PUSH2 0x238C JUMP JUMPDEST SWAP2 POP PUSH2 0x216A DUP3 PUSH2 0x27C6 JUMP JUMPDEST PUSH1 0x40 DUP3 ADD SWAP1 POP SWAP2 SWAP1 POP JUMP JUMPDEST PUSH2 0x217E DUP2 PUSH2 0x24F0 JUMP JUMPDEST DUP3 MSTORE POP POP JUMP JUMPDEST PUSH2 0x218D DUP2 PUSH2 0x24FA JUMP JUMPDEST DUP3 MSTORE POP POP JUMP JUMPDEST PUSH1 0x0 PUSH1 0x20 DUP3 ADD SWAP1 POP PUSH2 0x21A8 PUSH1 0x0 DUP4 ADD DUP5 PUSH2 0x2006 JUMP JUMPDEST SWAP3 SWAP2 POP POP JUMP JUMPDEST PUSH1 0x0 PUSH1 0x40 DUP3 ADD SWAP1 POP PUSH2 0x21C3 PUSH1 0x0 DUP4 ADD DUP6 PUSH2 0x2006 JUMP JUMPDEST PUSH2 0x21D0 PUSH1 0x20 DUP4 ADD DUP5 PUSH2 0x2015 JUMP JUMPDEST SWAP4 SWAP3 POP POP POP JUMP JUMPDEST PUSH1 0x0 PUSH1 0x20 DUP3 ADD SWAP1 POP PUSH2 0x21EC PUSH1 0x0 DUP4 ADD DUP5 PUSH2 0x2015 JUMP JUMPDEST SWAP3 SWAP2 POP POP JUMP JUMPDEST PUSH1 0x0 PUSH1 0x20 DUP3 ADD SWAP1 POP DUP2 DUP2 SUB PUSH1 0x0 DUP4 ADD MSTORE PUSH2 0x220C DUP2 DUP5 PUSH2 0x2024 JUMP JUMPDEST SWAP1 POP SWAP3 SWAP2 POP POP JUMP JUMPDEST PUSH1 0x0 PUSH1 0x20 DUP3 ADD SWAP1 POP DUP2 DUP2 SUB PUSH1 0x0 DUP4 ADD MSTORE PUSH2 0x222D DUP2 PUSH2 0x205D JUMP JUMPDEST SWAP1 POP SWAP2 SWAP1 POP JUMP JUMPDEST PUSH1 0x0 PUSH1 0x20 DUP3 ADD SWAP1 POP DUP2 DUP2 SUB PUSH1 0x0 DUP4 ADD MSTORE PUSH2 0x224D DUP2 PUSH2 0x2080 JUMP JUMPDEST SWAP1 POP SWAP2 SWAP1 POP JUMP JUMPDEST PUSH1 0x0 PUSH1 0x20 DUP3 ADD SWAP1 POP DUP2 DUP2 SUB PUSH1 0x0 DUP4 ADD MSTORE PUSH2 0x226D DUP2 PUSH2 0x20A3 JUMP JUMPDEST SWAP1 POP SWAP2 SWAP1 POP JUMP JUMPDEST PUSH1 0x0 PUSH1 0x20 DUP3 ADD SWAP1 POP DUP2 DUP2 SUB PUSH1 0x0 DUP4 ADD MSTORE PUSH2 0x228D DUP2 PUSH2 0x20C6 JUMP JUMPDEST SWAP1 POP SWAP2 SWAP1 POP JUMP JUMPDEST PUSH1 0x0 PUSH1 0x20 DUP3 ADD SWAP1 POP DUP2 DUP2 SUB PUSH1 0x0 DUP4 ADD MSTORE PUSH2 0x22AD DUP2 PUSH2 0x20E9 JUMP JUMPDEST SWAP1 POP SWAP2 SWAP1 POP JUMP JUMPDEST PUSH1 0x0 PUSH1 0x20 DUP3 ADD SWAP1 POP DUP2 DUP2 SUB PUSH1 0x0 DUP4 ADD MSTORE PUSH2 0x22CD DUP2 PUSH2 0x210C JUMP JUMPDEST SWAP1 POP SWAP2 SWAP1 POP JUMP JUMPDEST PUSH1 0x0 PUSH1 0x20 DUP3 ADD SWAP1 POP DUP2 DUP2 SUB PUSH1 0x0 DUP4 ADD MSTORE PUSH2 0x22ED DUP2 PUSH2 0x212F JUMP JUMPDEST SWAP1 POP SWAP2 SWAP1 POP JUMP JUMPDEST PUSH1 0x0 PUSH1 0x20 DUP3 ADD SWAP1 POP DUP2 DUP2 SUB PUSH1 0x0 DUP4 ADD MSTORE PUSH2 0x230D DUP2 PUSH2 0x2152 JUMP JUMPDEST SWAP1 POP SWAP2 SWAP1 POP JUMP JUMPDEST PUSH1 0x0 PUSH1 0x20 DUP3 ADD SWAP1 POP PUSH2 0x2329 PUSH1 0x0 DUP4 ADD DUP5 PUSH2 0x2175 JUMP JUMPDEST SWAP3 SWAP2 POP POP JUMP JUMPDEST PUSH1 0x0 PUSH1 0x20 DUP3 ADD SWAP1 POP PUSH2 0x2344 PUSH1 0x0 DUP4 ADD DUP5 PUSH2 0x2184 JUMP JUMPDEST SWAP3 SWAP2 POP POP JUMP JUMPDEST PUSH1 0x0 PUSH1 0x60 DUP3 ADD SWAP1 POP PUSH2 0x235F PUSH1 0x0 DUP4 ADD DUP7 PUSH2 0x2184 JUMP JUMPDEST PUSH2 0x236C PUSH1 0x20 DUP4 ADD DUP6 PUSH2 0x2184 JUMP JUMPDEST PUSH2 0x2379 PUSH1 0x40 DUP4 ADD DUP5 PUSH2 0x2184 JUMP JUMPDEST SWAP5 SWAP4 POP POP POP POP JUMP JUMPDEST PUSH1 0x0 DUP2 MLOAD SWAP1 POP SWAP2 SWAP1 POP JUMP JUMPDEST PUSH1 0x0 DUP3 DUP3 MSTORE PUSH1 0x20 DUP3 ADD SWAP1 POP SWAP3 SWAP2 POP POP JUMP JUMPDEST PUSH1 0x0 PUSH2 0x23A8 DUP3 PUSH2 0x24F0 JUMP JUMPDEST SWAP2 POP PUSH2 0x23B3 DUP4 PUSH2 0x24F0 JUMP JUMPDEST SWAP3 POP DUP3 PUSH32 0xFFFFFFFFFFFFFFFFFFFFFFFFFFFFFFFFFFFFFFFFFFFFFFFFFFFFFFFFFFFFFFFF SUB DUP3 GT ISZERO PUSH2 0x23E8 JUMPI PUSH2 0x23E7 PUSH2 0x256C JUMP JUMPDEST JUMPDEST DUP3 DUP3 ADD SWAP1 POP SWAP3 SWAP2 POP POP JUMP JUMPDEST PUSH1 0x0 PUSH2 0x23FE DUP3 PUSH2 0x24F0 JUMP JUMPDEST SWAP2 POP PUSH2 0x2409 DUP4 PUSH2 0x24F0 JUMP JUMPDEST SWAP3 POP DUP3 PUSH2 0x2419 JUMPI PUSH2 0x2418 PUSH2 0x259B JUMP JUMPDEST JUMPDEST DUP3 DUP3 DIV SWAP1 POP SWAP3 SWAP2 POP POP JUMP JUMPDEST PUSH1 0x0 PUSH2 0x242F DUP3 PUSH2 0x24F0 JUMP JUMPDEST SWAP2 POP PUSH2 0x243A DUP4 PUSH2 0x24F0 JUMP JUMPDEST SWAP3 POP DUP2 PUSH32 0xFFFFFFFFFFFFFFFFFFFFFFFFFFFFFFFFFFFFFFFFFFFFFFFFFFFFFFFFFFFFFFFF DIV DUP4 GT DUP3 ISZERO ISZERO AND ISZERO PUSH2 0x2473 JUMPI PUSH2 0x2472 PUSH2 0x256C JUMP JUMPDEST JUMPDEST DUP3 DUP3 MUL SWAP1 POP SWAP3 SWAP2 POP POP JUMP JUMPDEST PUSH1 0x0 PUSH2 0x2489 DUP3 PUSH2 0x24F0 JUMP JUMPDEST SWAP2 POP PUSH2 0x2494 DUP4 PUSH2 0x24F0 JUMP JUMPDEST SWAP3 POP DUP3 DUP3 LT ISZERO PUSH2 0x24A7 JUMPI PUSH2 0x24A6 PUSH2 0x256C JUMP JUMPDEST JUMPDEST DUP3 DUP3 SUB SWAP1 POP SWAP3 SWAP2 POP POP JUMP JUMPDEST PUSH1 0x0 PUSH2 0x24BD DUP3 PUSH2 0x24D0 JUMP JUMPDEST SWAP1 POP SWAP2 SWAP1 POP JUMP JUMPDEST PUSH1 0x0 DUP2 ISZERO ISZERO SWAP1 POP SWAP2 SWAP1 POP JUMP JUMPDEST PUSH1 0x0 PUSH20 0xFFFFFFFFFFFFFFFFFFFFFFFFFFFFFFFFFFFFFFFF DUP3 AND SWAP1 POP SWAP2 SWAP1 POP JUMP JUMPDEST PUSH1 0x0 DUP2 SWAP1 POP SWAP2 SWAP1 POP JUMP JUMPDEST PUSH1 0x0 PUSH1 0xFF DUP3 AND SWAP1 POP SWAP2 SWAP1 POP JUMP JUMPDEST PUSH1 0x0 JUMPDEST DUP4 DUP2 LT ISZERO PUSH2 0x2525 JUMPI DUP1 DUP3 ADD MLOAD DUP2 DUP5 ADD MSTORE PUSH1 0x20 DUP2 ADD SWAP1 POP PUSH2 0x250A JUMP JUMPDEST DUP4 DUP2 GT ISZERO PUSH2 0x2534 JUMPI PUSH1 0x0 DUP5 DUP5 ADD MSTORE JUMPDEST POP POP POP POP JUMP JUMPDEST PUSH1 0x0 PUSH1 0x2 DUP3 DIV SWAP1 POP PUSH1 0x1 DUP3 AND DUP1 PUSH2 0x2552 JUMPI PUSH1 0x7F DUP3 AND SWAP2 POP JUMPDEST PUSH1 0x20 DUP3 LT DUP2 EQ ISZERO PUSH2 0x2566 JUMPI PUSH2 0x2565 PUSH2 0x25CA JUMP JUMPDEST JUMPDEST POP SWAP2 SWAP1 POP JUMP JUMPDEST PUSH32 0x4E487B7100000000000000000000000000000000000000000000000000000000 PUSH1 0x0 MSTORE PUSH1 0x11 PUSH1 0x4 MSTORE PUSH1 0x24 PUSH1 0x0 REVERT JUMPDEST PUSH32 0x4E487B7100000000000000000000000000000000000000000000000000000000 PUSH1 0x0 MSTORE PUSH1 0x12 PUSH1 0x4 MSTORE PUSH1 0x24 PUSH1 0x0 REVERT JUMPDEST PUSH32 0x4E487B7100000000000000000000000000000000000000000000000000000000 PUSH1 0x0 MSTORE PUSH1 0x22 PUSH1 0x4 MSTORE PUSH1 0x24 PUSH1 0x0 REVERT JUMPDEST PUSH1 0x0 DUP1 REVERT JUMPDEST PUSH1 0x0 PUSH1 0x1F NOT PUSH1 0x1F DUP4 ADD AND SWAP1 POP SWAP2 SWAP1 POP JUMP JUMPDEST PUSH32 0x42455032303A207472616E736665722066726F6D20746865207A65726F206164 PUSH1 0x0 DUP3 ADD MSTORE PUSH32 0x6472657373000000000000000000000000000000000000000000000000000000 PUSH1 0x20 DUP3 ADD MSTORE POP JUMP JUMPDEST PUSH32 0x42455032303A20617070726F76652066726F6D20746865207A65726F20616464 PUSH1 0x0 DUP3 ADD MSTORE PUSH32 0x7265737300000000000000000000000000000000000000000000000000000000 PUSH1 0x20 DUP3 ADD MSTORE POP JUMP JUMPDEST PUSH32 0x4F776E61626C653A206E6577206F776E657220697320746865207A65726F2061 PUSH1 0x0 DUP3 ADD MSTORE PUSH32 0x6464726573730000000000000000000000000000000000000000000000000000 PUSH1 0x20 DUP3 ADD MSTORE POP JUMP JUMPDEST PUSH32 0x536166654D6174683A206164646974696F6E206F766572666C6F770000000000 PUSH1 0x0 DUP3 ADD MSTORE POP JUMP JUMPDEST PUSH32 0x5573657220626C61636B6C697374656400000000000000000000000000000000 PUSH1 0x0 DUP3 ADD MSTORE POP JUMP JUMPDEST PUSH32 0x4F776E61626C653A2063616C6C6572206973206E6F7420746865206F776E6572 PUSH1 0x0 DUP3 ADD MSTORE POP JUMP JUMPDEST PUSH32 0x42455032303A207472616E7366657220746F20746865207A65726F2061646472 PUSH1 0x0 DUP3 ADD MSTORE PUSH32 0x6573730000000000000000000000000000000000000000000000000000000000 PUSH1 0x20 DUP3 ADD MSTORE POP JUMP JUMPDEST PUSH32 0x42455032303A20617070726F766520746F20746865207A65726F206164647265 PUSH1 0x0 DUP3 ADD MSTORE PUSH32 0x7373000000000000000000000000000000000000000000000000000000000000 PUSH1 0x20 DUP3 ADD MSTORE POP JUMP JUMPDEST PUSH2 0x281E DUP2 PUSH2 0x24B2 JUMP JUMPDEST DUP2 EQ PUSH2 0x2829 JUMPI PUSH1 0x0 DUP1 REVERT JUMPDEST POP JUMP JUMPDEST PUSH2 0x2835 DUP2 PUSH2 0x24C4 JUMP JUMPDEST DUP2 EQ PUSH2 0x2840 JUMPI PUSH1 0x0 DUP1 REVERT JUMPDEST POP JUMP JUMPDEST PUSH2 0x284C DUP2 PUSH2 0x24F0 JUMP JUMPDEST DUP2 EQ PUSH2 0x2857 JUMPI PUSH1 0x0 DUP1 REVERT JUMPDEST POP JUMP JUMPDEST PUSH2 0x2863 DUP2 PUSH2 0x24FA JUMP JUMPDEST DUP2 EQ PUSH2 0x286E JUMPI PUSH1 0x0 DUP1 REVERT JUMPDEST POP JUMP INVALID TIMESTAMP GASLIMIT POP ORIGIN ADDRESS GASPRICE KECCAK256 PUSH21 0x72616E7366657220616D6F756E7420657863656564 PUSH20 0x20616C6C6F77616E63654E6F207472616E736665 PUSH19 0x7320746F20636F6E747261637420616C6C6F77 PUSH6 0x642E4E6F2063 PUSH16 0x6E73656375746976652073656C6C7320 PUSH2 0x6C6C PUSH16 0x7765642E20506C656173652077616974 0x2E TIMESTAMP GASLIMIT POP ORIGIN ADDRESS GASPRICE KECCAK256 PUSH21 0x72616E7366657220616D6F756E7420657863656564 PUSH20 0x2062616C616E636542455032303A206465637265 PUSH2 0x7365 PUSH5 0x20616C6C6F PUSH24 0x616E63652062656C6F77207A65726FA26469706673582212 KECCAK256 POP NUMBER REVERT BLOCKHASH 0xB9 0xCE 0xA7 PUSH17 0xA4295F4757DA04184D57C711AB07324082 CREATE 0xD9 NOT SWAP10 0xBF JUMPI INVALID PUSH5 0x736F6C6343 STOP ADDMOD SMOD STOP CALLER "
				},
				"gasEstimates": {
					"creation": {
						"codeDepositCost": "2119400",
						"executionCost": "infinite",
						"totalCost": "infinite"
					},
					"external": {
						"allowance(address,address)": "infinite",
						"approve(address,uint256)": "infinite",
						"balanceOf(address)": "2886",
						"decimals()": "2546",
						"decreaseAllowance(address,uint256)": "infinite",
						"getTaxes()": "infinite",
						"increaseAllowance(address,uint256)": "infinite",
						"isOwner()": "2714",
						"name()": "infinite",
						"owner()": "2683",
						"pause()": "30022",
						"paused()": "2544",
						"renounceOwnership()": "30549",
						"setBlacklist(address,bool)": "infinite",
						"setCooldownForTrades(uint8)": "infinite",
						"setLiquidityPoolStatus(address,bool)": "infinite",
						"setMarketingPool(address)": "infinite",
						"setTaxes(uint8,uint8,uint8)": "infinite",
						"setWhitelist(address,bool)": "infinite",
						"symbol()": "infinite",
						"totalSupply()": "2571",
						"transfer(address,uint256)": "infinite",
						"transferFrom(address,address,uint256)": "infinite",
						"transferOwnership(address)": "30970",
						"unpause()": "30041"
					},
					"internal": {
						"_transfer(address,address,uint256)": "infinite"
					}
				},
				"methodIdentifiers": {
					"allowance(address,address)": "dd62ed3e",
					"approve(address,uint256)": "095ea7b3",
					"balanceOf(address)": "70a08231",
					"decimals()": "313ce567",
					"decreaseAllowance(address,uint256)": "a457c2d7",
					"getTaxes()": "2973ef2d",
					"increaseAllowance(address,uint256)": "39509351",
					"isOwner()": "8f32d59b",
					"name()": "06fdde03",
					"owner()": "8da5cb5b",
					"pause()": "8456cb59",
					"paused()": "5c975abb",
					"renounceOwnership()": "715018a6",
					"setBlacklist(address,bool)": "153b0d1e",
					"setCooldownForTrades(uint8)": "1574567b",
					"setLiquidityPoolStatus(address,bool)": "c89c58fb",
					"setMarketingPool(address)": "a86517bf",
					"setTaxes(uint8,uint8,uint8)": "0d2cf31f",
					"setWhitelist(address,bool)": "53d6fd59",
					"symbol()": "95d89b41",
					"totalSupply()": "18160ddd",
					"transfer(address,uint256)": "a9059cbb",
					"transferFrom(address,address,uint256)": "23b872dd",
					"transferOwnership(address)": "f2fde38b",
					"unpause()": "3f4ba83a"
				}
			},
			"userdoc": {
				"kind": "user",
				"methods": {},
				"version": 1
			}
		}
	}
}